{
	"class/storage/DyArray.sol": {
		"Storage": {
			"abi": [
				{
					"inputs": [
						{
							"internalType": "uint256",
							"name": "slot",
							"type": "uint256"
						}
					],
					"name": "getStorageAt",
					"outputs": [
						{
							"internalType": "bytes32",
							"name": "ret",
							"type": "bytes32"
						}
					],
					"stateMutability": "view",
					"type": "function"
				}
			],
			"devdoc": {
				"kind": "dev",
				"methods": {},
				"version": 1
			},
			"evm": {
				"assembly": "    /* \"class/storage/DyArray.sol\":0:346  library Storage {... */\n  dataSize(sub_0)\n  dataOffset(sub_0)\n  0x0b\n  dup3\n  dup3\n  dup3\n  codecopy\n  dup1\n  mload\n  0x00\n  byte\n  0x73\n  eq\n  tag_1\n  jumpi\n  mstore(0x00, 0x4e487b7100000000000000000000000000000000000000000000000000000000)\n  mstore(0x04, 0x00)\n  revert(0x00, 0x24)\ntag_1:\n  mstore(0x00, address)\n  0x73\n  dup2\n  mstore8\n  dup3\n  dup2\n  return\nstop\n\nsub_0: assembly {\n        /* \"class/storage/DyArray.sol\":0:346  library Storage {... */\n      eq(address, deployTimeAddress())\n      mstore(0x40, 0x80)\n      jumpi(tag_1, lt(calldatasize, 0x04))\n      shr(0xe0, calldataload(0x00))\n      dup1\n      0x80533cd5\n      eq\n      tag_2\n      jumpi\n      dup1\n      0xf6baafa5\n      eq\n      tag_3\n      jumpi\n    tag_1:\n      0x00\n      dup1\n      revert\n        /* \"class/storage/DyArray.sol\":167:343  function setStorageAt(uint slot, uint data) public returns (bytes32 ret) {... */\n    tag_2:\n      dup2\n      dup1\n      iszero\n      tag_4\n      jumpi\n      0x00\n      dup1\n      revert\n    tag_4:\n      pop\n      tag_5\n      0x04\n      dup1\n      calldatasize\n      sub\n      dup2\n      add\n      swap1\n      tag_6\n      swap2\n      swap1\n      tag_7\n      jump\t// in\n    tag_6:\n      tag_8\n      jump\t// in\n    tag_5:\n      mload(0x40)\n      tag_9\n      swap2\n      swap1\n      tag_10\n      jump\t// in\n    tag_9:\n      mload(0x40)\n      dup1\n      swap2\n      sub\n      swap1\n      return\n        /* \"class/storage/DyArray.sol\":23:161  function getStorageAt(uint slot) public view returns (bytes32 ret) {... */\n    tag_3:\n      tag_11\n      0x04\n      dup1\n      calldatasize\n      sub\n      dup2\n      add\n      swap1\n      tag_12\n      swap2\n      swap1\n      tag_13\n      jump\t// in\n    tag_12:\n      tag_14\n      jump\t// in\n    tag_11:\n      mload(0x40)\n      tag_15\n      swap2\n      swap1\n      tag_10\n      jump\t// in\n    tag_15:\n      mload(0x40)\n      dup1\n      swap2\n      sub\n      swap1\n      return\n        /* \"class/storage/DyArray.sol\":167:343  function setStorageAt(uint slot, uint data) public returns (bytes32 ret) {... */\n    tag_8:\n        /* \"class/storage/DyArray.sol\":227:238  bytes32 ret */\n      0x00\n        /* \"class/storage/DyArray.sol\":288:292  data */\n      dup2\n        /* \"class/storage/DyArray.sol\":282:286  slot */\n      dup4\n        /* \"class/storage/DyArray.sol\":275:293  sstore(slot, data) */\n      sstore\n        /* \"class/storage/DyArray.sol\":320:324  slot */\n      dup3\n        /* \"class/storage/DyArray.sol\":314:325  sload(slot) */\n      sload\n        /* \"class/storage/DyArray.sol\":307:325  ret := sload(slot) */\n      swap1\n      pop\n        /* \"class/storage/DyArray.sol\":167:343  function setStorageAt(uint slot, uint data) public returns (bytes32 ret) {... */\n      swap3\n      swap2\n      pop\n      pop\n      jump\t// out\n        /* \"class/storage/DyArray.sol\":23:161  function getStorageAt(uint slot) public view returns (bytes32 ret) {... */\n    tag_14:\n        /* \"class/storage/DyArray.sol\":77:88  bytes32 ret */\n      0x00\n        /* \"class/storage/DyArray.sol\":138:142  slot */\n      dup2\n        /* \"class/storage/DyArray.sol\":132:143  sload(slot) */\n      sload\n        /* \"class/storage/DyArray.sol\":125:143  ret := sload(slot) */\n      swap1\n      pop\n        /* \"class/storage/DyArray.sol\":23:161  function getStorageAt(uint slot) public view returns (bytes32 ret) {... */\n      swap2\n      swap1\n      pop\n      jump\t// out\n        /* \"#utility.yul\":88:205   */\n    tag_19:\n        /* \"#utility.yul\":197:198   */\n      0x00\n        /* \"#utility.yul\":194:195   */\n      dup1\n        /* \"#utility.yul\":187:199   */\n      revert\n        /* \"#utility.yul\":334:411   */\n    tag_21:\n        /* \"#utility.yul\":371:378   */\n      0x00\n        /* \"#utility.yul\":400:405   */\n      dup2\n        /* \"#utility.yul\":389:405   */\n      swap1\n      pop\n        /* \"#utility.yul\":334:411   */\n      swap2\n      swap1\n      pop\n      jump\t// out\n        /* \"#utility.yul\":417:539   */\n    tag_22:\n        /* \"#utility.yul\":490:514   */\n      tag_32\n        /* \"#utility.yul\":508:513   */\n      dup2\n        /* \"#utility.yul\":490:514   */\n      tag_21\n      jump\t// in\n    tag_32:\n        /* \"#utility.yul\":483:488   */\n      dup2\n        /* \"#utility.yul\":480:515   */\n      eq\n        /* \"#utility.yul\":470:533   */\n      tag_33\n      jumpi\n        /* \"#utility.yul\":529:530   */\n      0x00\n        /* \"#utility.yul\":526:527   */\n      dup1\n        /* \"#utility.yul\":519:531   */\n      revert\n        /* \"#utility.yul\":470:533   */\n    tag_33:\n        /* \"#utility.yul\":417:539   */\n      pop\n      jump\t// out\n        /* \"#utility.yul\":545:684   */\n    tag_23:\n        /* \"#utility.yul\":591:596   */\n      0x00\n        /* \"#utility.yul\":629:635   */\n      dup2\n        /* \"#utility.yul\":616:636   */\n      calldataload\n        /* \"#utility.yul\":607:636   */\n      swap1\n      pop\n        /* \"#utility.yul\":645:678   */\n      tag_35\n        /* \"#utility.yul\":672:677   */\n      dup2\n        /* \"#utility.yul\":645:678   */\n      tag_22\n      jump\t// in\n    tag_35:\n        /* \"#utility.yul\":545:684   */\n      swap3\n      swap2\n      pop\n      pop\n      jump\t// out\n        /* \"#utility.yul\":690:1164   */\n    tag_7:\n        /* \"#utility.yul\":758:764   */\n      0x00\n        /* \"#utility.yul\":766:772   */\n      dup1\n        /* \"#utility.yul\":815:817   */\n      0x40\n        /* \"#utility.yul\":803:812   */\n      dup4\n        /* \"#utility.yul\":794:801   */\n      dup6\n        /* \"#utility.yul\":790:813   */\n      sub\n        /* \"#utility.yul\":786:818   */\n      slt\n        /* \"#utility.yul\":783:902   */\n      iszero\n      tag_37\n      jumpi\n        /* \"#utility.yul\":821:900   */\n      tag_38\n      tag_19\n      jump\t// in\n    tag_38:\n        /* \"#utility.yul\":783:902   */\n    tag_37:\n        /* \"#utility.yul\":941:942   */\n      0x00\n        /* \"#utility.yul\":966:1019   */\n      tag_39\n        /* \"#utility.yul\":1011:1018   */\n      dup6\n        /* \"#utility.yul\":1002:1008   */\n      dup3\n        /* \"#utility.yul\":991:1000   */\n      dup7\n        /* \"#utility.yul\":987:1009   */\n      add\n        /* \"#utility.yul\":966:1019   */\n      tag_23\n      jump\t// in\n    tag_39:\n        /* \"#utility.yul\":956:1019   */\n      swap3\n      pop\n        /* \"#utility.yul\":912:1029   */\n      pop\n        /* \"#utility.yul\":1068:1070   */\n      0x20\n        /* \"#utility.yul\":1094:1147   */\n      tag_40\n        /* \"#utility.yul\":1139:1146   */\n      dup6\n        /* \"#utility.yul\":1130:1136   */\n      dup3\n        /* \"#utility.yul\":1119:1128   */\n      dup7\n        /* \"#utility.yul\":1115:1137   */\n      add\n        /* \"#utility.yul\":1094:1147   */\n      tag_23\n      jump\t// in\n    tag_40:\n        /* \"#utility.yul\":1084:1147   */\n      swap2\n      pop\n        /* \"#utility.yul\":1039:1157   */\n      pop\n        /* \"#utility.yul\":690:1164   */\n      swap3\n      pop\n      swap3\n      swap1\n      pop\n      jump\t// out\n        /* \"#utility.yul\":1170:1247   */\n    tag_24:\n        /* \"#utility.yul\":1207:1214   */\n      0x00\n        /* \"#utility.yul\":1236:1241   */\n      dup2\n        /* \"#utility.yul\":1225:1241   */\n      swap1\n      pop\n        /* \"#utility.yul\":1170:1247   */\n      swap2\n      swap1\n      pop\n      jump\t// out\n        /* \"#utility.yul\":1253:1379   */\n    tag_25:\n        /* \"#utility.yul\":1348:1372   */\n      tag_43\n        /* \"#utility.yul\":1366:1371   */\n      dup2\n        /* \"#utility.yul\":1348:1372   */\n      tag_24\n      jump\t// in\n    tag_43:\n        /* \"#utility.yul\":1343:1346   */\n      dup3\n        /* \"#utility.yul\":1336:1373   */\n      mstore\n        /* \"#utility.yul\":1253:1379   */\n      pop\n      pop\n      jump\t// out\n        /* \"#utility.yul\":1385:1623   */\n    tag_10:\n        /* \"#utility.yul\":1486:1490   */\n      0x00\n        /* \"#utility.yul\":1524:1526   */\n      0x20\n        /* \"#utility.yul\":1513:1522   */\n      dup3\n        /* \"#utility.yul\":1509:1527   */\n      add\n        /* \"#utility.yul\":1501:1527   */\n      swap1\n      pop\n        /* \"#utility.yul\":1537:1616   */\n      tag_45\n        /* \"#utility.yul\":1613:1614   */\n      0x00\n        /* \"#utility.yul\":1602:1611   */\n      dup4\n        /* \"#utility.yul\":1598:1615   */\n      add\n        /* \"#utility.yul\":1589:1595   */\n      dup5\n        /* \"#utility.yul\":1537:1616   */\n      tag_25\n      jump\t// in\n    tag_45:\n        /* \"#utility.yul\":1385:1623   */\n      swap3\n      swap2\n      pop\n      pop\n      jump\t// out\n        /* \"#utility.yul\":1629:1958   */\n    tag_13:\n        /* \"#utility.yul\":1688:1694   */\n      0x00\n        /* \"#utility.yul\":1737:1739   */\n      0x20\n        /* \"#utility.yul\":1725:1734   */\n      dup3\n        /* \"#utility.yul\":1716:1723   */\n      dup5\n        /* \"#utility.yul\":1712:1735   */\n      sub\n        /* \"#utility.yul\":1708:1740   */\n      slt\n        /* \"#utility.yul\":1705:1824   */\n      iszero\n      tag_47\n      jumpi\n        /* \"#utility.yul\":1743:1822   */\n      tag_48\n      tag_19\n      jump\t// in\n    tag_48:\n        /* \"#utility.yul\":1705:1824   */\n    tag_47:\n        /* \"#utility.yul\":1863:1864   */\n      0x00\n        /* \"#utility.yul\":1888:1941   */\n      tag_49\n        /* \"#utility.yul\":1933:1940   */\n      dup5\n        /* \"#utility.yul\":1924:1930   */\n      dup3\n        /* \"#utility.yul\":1913:1922   */\n      dup6\n        /* \"#utility.yul\":1909:1931   */\n      add\n        /* \"#utility.yul\":1888:1941   */\n      tag_23\n      jump\t// in\n    tag_49:\n        /* \"#utility.yul\":1878:1941   */\n      swap2\n      pop\n        /* \"#utility.yul\":1834:1951   */\n      pop\n        /* \"#utility.yul\":1629:1958   */\n      swap3\n      swap2\n      pop\n      pop\n      jump\t// out\n\n    auxdata: 0xa264697066735822122072c7ae891f3f58f86266007c719e44c2c36b7b3ff927ff27e85f0d245433a54764736f6c63430008120033\n}\n",
				"bytecode": {
					"linkReferences": {},
					"object": "6101de610053600b82828239805160001a607314610046577f4e487b7100000000000000000000000000000000000000000000000000000000600052600060045260246000fd5b30600052607381538281f3fe73000000000000000000000000000000000000000030146080604052600436106100405760003560e01c806380533cd514610045578063f6baafa514610082575b600080fd5b81801561005157600080fd5b5061006c60048036038101906100679190610107565b6100b2565b6040516100799190610160565b60405180910390f35b61009c6004803603810190610097919061017b565b6100c1565b6040516100a99190610160565b60405180910390f35b60008183558254905092915050565b600081549050919050565b600080fd5b6000819050919050565b6100e4816100d1565b81146100ef57600080fd5b50565b600081359050610101816100db565b92915050565b6000806040838503121561011e5761011d6100cc565b5b600061012c858286016100f2565b925050602061013d858286016100f2565b9150509250929050565b6000819050919050565b61015a81610147565b82525050565b60006020820190506101756000830184610151565b92915050565b600060208284031215610191576101906100cc565b5b600061019f848285016100f2565b9150509291505056fea264697066735822122072c7ae891f3f58f86266007c719e44c2c36b7b3ff927ff27e85f0d245433a54764736f6c63430008120033",
					"opcodes": "PUSH2 0x1DE PUSH2 0x53 PUSH1 0xB DUP3 DUP3 DUP3 CODECOPY DUP1 MLOAD PUSH1 0x0 BYTE PUSH1 0x73 EQ PUSH2 0x46 JUMPI PUSH32 0x4E487B7100000000000000000000000000000000000000000000000000000000 PUSH1 0x0 MSTORE PUSH1 0x0 PUSH1 0x4 MSTORE PUSH1 0x24 PUSH1 0x0 REVERT JUMPDEST ADDRESS PUSH1 0x0 MSTORE PUSH1 0x73 DUP2 MSTORE8 DUP3 DUP2 RETURN INVALID PUSH20 0x0 ADDRESS EQ PUSH1 0x80 PUSH1 0x40 MSTORE PUSH1 0x4 CALLDATASIZE LT PUSH2 0x40 JUMPI PUSH1 0x0 CALLDATALOAD PUSH1 0xE0 SHR DUP1 PUSH4 0x80533CD5 EQ PUSH2 0x45 JUMPI DUP1 PUSH4 0xF6BAAFA5 EQ PUSH2 0x82 JUMPI JUMPDEST PUSH1 0x0 DUP1 REVERT JUMPDEST DUP2 DUP1 ISZERO PUSH2 0x51 JUMPI PUSH1 0x0 DUP1 REVERT JUMPDEST POP PUSH2 0x6C PUSH1 0x4 DUP1 CALLDATASIZE SUB DUP2 ADD SWAP1 PUSH2 0x67 SWAP2 SWAP1 PUSH2 0x107 JUMP JUMPDEST PUSH2 0xB2 JUMP JUMPDEST PUSH1 0x40 MLOAD PUSH2 0x79 SWAP2 SWAP1 PUSH2 0x160 JUMP JUMPDEST PUSH1 0x40 MLOAD DUP1 SWAP2 SUB SWAP1 RETURN JUMPDEST PUSH2 0x9C PUSH1 0x4 DUP1 CALLDATASIZE SUB DUP2 ADD SWAP1 PUSH2 0x97 SWAP2 SWAP1 PUSH2 0x17B JUMP JUMPDEST PUSH2 0xC1 JUMP JUMPDEST PUSH1 0x40 MLOAD PUSH2 0xA9 SWAP2 SWAP1 PUSH2 0x160 JUMP JUMPDEST PUSH1 0x40 MLOAD DUP1 SWAP2 SUB SWAP1 RETURN JUMPDEST PUSH1 0x0 DUP2 DUP4 SSTORE DUP3 SLOAD SWAP1 POP SWAP3 SWAP2 POP POP JUMP JUMPDEST PUSH1 0x0 DUP2 SLOAD SWAP1 POP SWAP2 SWAP1 POP JUMP JUMPDEST PUSH1 0x0 DUP1 REVERT JUMPDEST PUSH1 0x0 DUP2 SWAP1 POP SWAP2 SWAP1 POP JUMP JUMPDEST PUSH2 0xE4 DUP2 PUSH2 0xD1 JUMP JUMPDEST DUP2 EQ PUSH2 0xEF JUMPI PUSH1 0x0 DUP1 REVERT JUMPDEST POP JUMP JUMPDEST PUSH1 0x0 DUP2 CALLDATALOAD SWAP1 POP PUSH2 0x101 DUP2 PUSH2 0xDB JUMP JUMPDEST SWAP3 SWAP2 POP POP JUMP JUMPDEST PUSH1 0x0 DUP1 PUSH1 0x40 DUP4 DUP6 SUB SLT ISZERO PUSH2 0x11E JUMPI PUSH2 0x11D PUSH2 0xCC JUMP JUMPDEST JUMPDEST PUSH1 0x0 PUSH2 0x12C DUP6 DUP3 DUP7 ADD PUSH2 0xF2 JUMP JUMPDEST SWAP3 POP POP PUSH1 0x20 PUSH2 0x13D DUP6 DUP3 DUP7 ADD PUSH2 0xF2 JUMP JUMPDEST SWAP2 POP POP SWAP3 POP SWAP3 SWAP1 POP JUMP JUMPDEST PUSH1 0x0 DUP2 SWAP1 POP SWAP2 SWAP1 POP JUMP JUMPDEST PUSH2 0x15A DUP2 PUSH2 0x147 JUMP JUMPDEST DUP3 MSTORE POP POP JUMP JUMPDEST PUSH1 0x0 PUSH1 0x20 DUP3 ADD SWAP1 POP PUSH2 0x175 PUSH1 0x0 DUP4 ADD DUP5 PUSH2 0x151 JUMP JUMPDEST SWAP3 SWAP2 POP POP JUMP JUMPDEST PUSH1 0x0 PUSH1 0x20 DUP3 DUP5 SUB SLT ISZERO PUSH2 0x191 JUMPI PUSH2 0x190 PUSH2 0xCC JUMP JUMPDEST JUMPDEST PUSH1 0x0 PUSH2 0x19F DUP5 DUP3 DUP6 ADD PUSH2 0xF2 JUMP JUMPDEST SWAP2 POP POP SWAP3 SWAP2 POP POP JUMP INVALID LOG2 PUSH5 0x6970667358 0x22 SLT KECCAK256 PUSH19 0xC7AE891F3F58F86266007C719E44C2C36B7B3F 0xF9 0x27 SELFDESTRUCT 0x27 0xE8 0x5F 0xD 0x24 SLOAD CALLER 0xA5 SELFBALANCE PUSH5 0x736F6C6343 STOP ADDMOD SLT STOP CALLER "
				},
				"gasEstimates": {
					"creation": {
						"codeDepositCost": "95600",
						"executionCost": "169",
						"totalCost": "95769"
					},
					"external": {
						"getStorageAt(uint256)": "2686",
						"setStorageAt(uint256,uint256)": "infinite"
					}
				},
				"methodIdentifiers": {
					"getStorageAt(uint256)": "f6baafa5",
					"setStorageAt(uint256,uint256)": "80533cd5"
				}
			},
			"storageLayout": {
				"storage": [],
				"types": null
			},
			"userdoc": {
				"kind": "user",
				"methods": {},
				"version": 1
			}
		}
	}
}