{
	"github实战项目/github实战/game.sol": {
		"Game": {
			"abi": [
				{
					"inputs": [
						{
							"internalType": "string[]",
							"name": "_country",
							"type": "string[]"
						},
						{
							"internalType": "uint256",
							"name": "_deadline",
							"type": "uint256"
						},
						{
							"internalType": "uint256",
							"name": "_fee",
							"type": "uint256"
						}
					],
					"stateMutability": "nonpayable",
					"type": "constructor"
				},
				{
					"inputs": [
						{
							"internalType": "address",
							"name": "owner",
							"type": "address"
						}
					],
					"name": "OwnableInvalidOwner",
					"type": "error"
				},
				{
					"inputs": [
						{
							"internalType": "address",
							"name": "account",
							"type": "address"
						}
					],
					"name": "OwnableUnauthorizedAccount",
					"type": "error"
				},
				{
					"anonymous": false,
					"inputs": [
						{
							"indexed": true,
							"internalType": "address",
							"name": "previousOwner",
							"type": "address"
						},
						{
							"indexed": true,
							"internalType": "address",
							"name": "newOwner",
							"type": "address"
						}
					],
					"name": "OwnershipTransferred",
					"type": "event"
				},
				{
					"anonymous": false,
					"inputs": [
						{
							"indexed": false,
							"internalType": "uint256",
							"name": "_currRound",
							"type": "uint256"
						},
						{
							"indexed": false,
							"internalType": "address",
							"name": "_player",
							"type": "address"
						},
						{
							"indexed": false,
							"internalType": "string",
							"name": "_country",
							"type": "string"
						}
					],
					"name": "Play",
					"type": "event"
				},
				{
					"anonymous": false,
					"inputs": [
						{
							"indexed": false,
							"internalType": "uint256",
							"name": "_currRound",
							"type": "uint256"
						},
						{
							"indexed": false,
							"internalType": "string",
							"name": "_country",
							"type": "string"
						}
					],
					"name": "Winning_country",
					"type": "event"
				},
				{
					"inputs": [
						{
							"internalType": "string[]",
							"name": "country",
							"type": "string[]"
						}
					],
					"name": "addCountry",
					"outputs": [],
					"stateMutability": "nonpayable",
					"type": "function"
				},
				{
					"inputs": [],
					"name": "admin",
					"outputs": [
						{
							"internalType": "address",
							"name": "",
							"type": "address"
						}
					],
					"stateMutability": "view",
					"type": "function"
				},
				{
					"inputs": [
						{
							"internalType": "uint256",
							"name": "",
							"type": "uint256"
						}
					],
					"name": "countries",
					"outputs": [
						{
							"internalType": "string",
							"name": "",
							"type": "string"
						}
					],
					"stateMutability": "view",
					"type": "function"
				},
				{
					"inputs": [
						{
							"internalType": "uint256",
							"name": "",
							"type": "uint256"
						},
						{
							"internalType": "string",
							"name": "",
							"type": "string"
						},
						{
							"internalType": "uint256",
							"name": "",
							"type": "uint256"
						}
					],
					"name": "countryToAddress",
					"outputs": [
						{
							"internalType": "address",
							"name": "",
							"type": "address"
						}
					],
					"stateMutability": "view",
					"type": "function"
				},
				{
					"inputs": [],
					"name": "currRound",
					"outputs": [
						{
							"internalType": "uint256",
							"name": "",
							"type": "uint256"
						}
					],
					"stateMutability": "view",
					"type": "function"
				},
				{
					"inputs": [],
					"name": "deadline",
					"outputs": [
						{
							"internalType": "uint256",
							"name": "",
							"type": "uint256"
						}
					],
					"stateMutability": "view",
					"type": "function"
				},
				{
					"inputs": [],
					"name": "fee",
					"outputs": [
						{
							"internalType": "uint256",
							"name": "",
							"type": "uint256"
						}
					],
					"stateMutability": "view",
					"type": "function"
				},
				{
					"inputs": [
						{
							"internalType": "uint256",
							"name": "_round",
							"type": "uint256"
						},
						{
							"internalType": "string",
							"name": "_country",
							"type": "string"
						}
					],
					"name": "getCountryPlayters",
					"outputs": [
						{
							"internalType": "uint256",
							"name": "",
							"type": "uint256"
						}
					],
					"stateMutability": "view",
					"type": "function"
				},
				{
					"inputs": [
						{
							"internalType": "uint256",
							"name": "_round",
							"type": "uint256"
						},
						{
							"internalType": "string",
							"name": "_country",
							"type": "string"
						},
						{
							"internalType": "address",
							"name": "_player",
							"type": "address"
						}
					],
					"name": "getPlayerInfo",
					"outputs": [
						{
							"internalType": "uint256",
							"name": "",
							"type": "uint256"
						}
					],
					"stateMutability": "view",
					"type": "function"
				},
				{
					"inputs": [],
					"name": "getValueBalance",
					"outputs": [
						{
							"internalType": "uint256",
							"name": "",
							"type": "uint256"
						}
					],
					"stateMutability": "view",
					"type": "function"
				},
				{
					"inputs": [],
					"name": "owner",
					"outputs": [
						{
							"internalType": "address",
							"name": "",
							"type": "address"
						}
					],
					"stateMutability": "view",
					"type": "function"
				},
				{
					"inputs": [
						{
							"internalType": "string",
							"name": "_country",
							"type": "string"
						}
					],
					"name": "play",
					"outputs": [],
					"stateMutability": "payable",
					"type": "function"
				},
				{
					"inputs": [
						{
							"internalType": "uint256",
							"name": "",
							"type": "uint256"
						},
						{
							"internalType": "address",
							"name": "",
							"type": "address"
						}
					],
					"name": "players",
					"outputs": [
						{
							"internalType": "bool",
							"name": "isSet",
							"type": "bool"
						}
					],
					"stateMutability": "view",
					"type": "function"
				},
				{
					"inputs": [],
					"name": "renounceOwnership",
					"outputs": [],
					"stateMutability": "nonpayable",
					"type": "function"
				},
				{
					"inputs": [
						{
							"internalType": "address",
							"name": "newOwner",
							"type": "address"
						}
					],
					"name": "transferOwnership",
					"outputs": [],
					"stateMutability": "nonpayable",
					"type": "function"
				},
				{
					"inputs": [
						{
							"internalType": "address",
							"name": "",
							"type": "address"
						}
					],
					"name": "winnerVaults",
					"outputs": [
						{
							"internalType": "uint256",
							"name": "",
							"type": "uint256"
						}
					],
					"stateMutability": "view",
					"type": "function"
				},
				{
					"inputs": [
						{
							"internalType": "string",
							"name": "_country",
							"type": "string"
						}
					],
					"name": "winningCountry",
					"outputs": [],
					"stateMutability": "nonpayable",
					"type": "function"
				},
				{
					"stateMutability": "payable",
					"type": "receive"
				}
			],
			"devdoc": {
				"errors": {
					"OwnableInvalidOwner(address)": [
						{
							"details": "The owner is not a valid owner account. (eg. `address(0)`)"
						}
					],
					"OwnableUnauthorizedAccount(address)": [
						{
							"details": "The caller account is not authorized to perform an operation."
						}
					]
				},
				"kind": "dev",
				"methods": {
					"owner()": {
						"details": "Returns the address of the current owner."
					},
					"renounceOwnership()": {
						"details": "Leaves the contract without owner. It will not be possible to call `onlyOwner` functions. Can only be called by the current owner. NOTE: Renouncing ownership will leave the contract without an owner, thereby disabling any functionality that is only available to the owner."
					},
					"transferOwnership(address)": {
						"details": "Transfers ownership of the contract to a new account (`newOwner`). Can only be called by the current owner."
					}
				},
				"version": 1
			},
			"evm": {
				"assembly": "    /* \"github\\xe5\\xae\\x9e\\xe6\\x88\\x98\\xe9\\xa1\\xb9\\xe7\\x9b\\xae/github\\xe5\\xae\\x9e\\xe6\\x88\\x98/game.sol\":112:3201  contract Game is Ownable{... */\n  mstore(0x40, 0x80)\n    /* \"github\\xe5\\xae\\x9e\\xe6\\x88\\x98\\xe9\\xa1\\xb9\\xe7\\x9b\\xae/github\\xe5\\xae\\x9e\\xe6\\x88\\x98/game.sol\":382:460  string[] public  countries = [\"GERMANY\", \"FRANCH\", \"CHINA\", \"BRIZAL\", \"KOREA\"] */\n  mload(0x40)\n  dup1\n  0xa0\n  add\n  0x40\n  mstore\n  dup1\n  mload(0x40)\n  dup1\n  0x40\n  add\n  0x40\n  mstore\n  dup1\n  0x07\n  dup2\n  mstore\n  0x20\n  add\n  0x4745524d414e5900000000000000000000000000000000000000000000000000\n  dup2\n  mstore\n  pop\n  dup2\n  mstore\n  0x20\n  add\n  mload(0x40)\n  dup1\n  0x40\n  add\n  0x40\n  mstore\n  dup1\n  0x06\n  dup2\n  mstore\n  0x20\n  add\n  0x4652414e43480000000000000000000000000000000000000000000000000000\n  dup2\n  mstore\n  pop\n  dup2\n  mstore\n  0x20\n  add\n  mload(0x40)\n  dup1\n  0x40\n  add\n  0x40\n  mstore\n  dup1\n  0x05\n  dup2\n  mstore\n  0x20\n  add\n  0x4348494e41000000000000000000000000000000000000000000000000000000\n  dup2\n  mstore\n  pop\n  dup2\n  mstore\n  0x20\n  add\n  mload(0x40)\n  dup1\n  0x40\n  add\n  0x40\n  mstore\n  dup1\n  0x06\n  dup2\n  mstore\n  0x20\n  add\n  0x4252495a414c0000000000000000000000000000000000000000000000000000\n  dup2\n  mstore\n  pop\n  dup2\n  mstore\n  0x20\n  add\n  mload(0x40)\n  dup1\n  0x40\n  add\n  0x40\n  mstore\n  dup1\n  0x05\n  dup2\n  mstore\n  0x20\n  add\n  0x4b4f524541000000000000000000000000000000000000000000000000000000\n  dup2\n  mstore\n  pop\n  dup2\n  mstore\n  pop\n  0x05\n  swap1\n  0x05\n  tag_1\n  swap3\n  swap2\n  swap1\n  tag_2\n  jump\t// in\ntag_1:\n  pop\n    /* \"github\\xe5\\xae\\x9e\\xe6\\x88\\x98\\xe9\\xa1\\xb9\\xe7\\x9b\\xae/github\\xe5\\xae\\x9e\\xe6\\x88\\x98/game.sol\":1100:1359  constructor(string[] memory _country,uint256 _deadline,uint256 _fee) Ownable(msg.sender){... */\n  callvalue\n  dup1\n  iszero\n  tag_3\n  jumpi\n  0x00\n  dup1\n  revert\ntag_3:\n  pop\n  mload(0x40)\n  sub(codesize, bytecodeSize)\n  dup1\n  bytecodeSize\n  dup4\n  codecopy\n  dup2\n  dup2\n  add\n  0x40\n  mstore\n  dup2\n  add\n  swap1\n  tag_4\n  swap2\n  swap1\n  tag_5\n  jump\t// in\ntag_4:\n    /* \"github\\xe5\\xae\\x9e\\xe6\\x88\\x98\\xe9\\xa1\\xb9\\xe7\\x9b\\xae/github\\xe5\\xae\\x9e\\xe6\\x88\\x98/game.sol\":1177:1187  msg.sender */\n  caller\n    /* \"@openzeppelin/contracts/access/Ownable.sol\":1297:1298  0 */\n  0x00\n    /* \"@openzeppelin/contracts/access/Ownable.sol\":1273:1299  initialOwner == address(0) */\n  0xffffffffffffffffffffffffffffffffffffffff\n  and\n    /* \"@openzeppelin/contracts/access/Ownable.sol\":1273:1285  initialOwner */\n  dup2\n    /* \"@openzeppelin/contracts/access/Ownable.sol\":1273:1299  initialOwner == address(0) */\n  0xffffffffffffffffffffffffffffffffffffffff\n  and\n  sub\n    /* \"@openzeppelin/contracts/access/Ownable.sol\":1269:1364  if (initialOwner == address(0)) {... */\n  tag_9\n  jumpi\n    /* \"@openzeppelin/contracts/access/Ownable.sol\":1350:1351  0 */\n  0x00\n    /* \"@openzeppelin/contracts/access/Ownable.sol\":1322:1353  OwnableInvalidOwner(address(0)) */\n  mload(0x40)\n  0x1e4fbdf700000000000000000000000000000000000000000000000000000000\n  dup2\n  mstore\n  0x04\n  add\n  tag_10\n  swap2\n  swap1\n  tag_11\n  jump\t// in\ntag_10:\n  mload(0x40)\n  dup1\n  swap2\n  sub\n  swap1\n  revert\n    /* \"@openzeppelin/contracts/access/Ownable.sol\":1269:1364  if (initialOwner == address(0)) {... */\ntag_9:\n    /* \"@openzeppelin/contracts/access/Ownable.sol\":1373:1405  _transferOwnership(initialOwner) */\n  tag_12\n    /* \"@openzeppelin/contracts/access/Ownable.sol\":1392:1404  initialOwner */\n  dup2\n    /* \"@openzeppelin/contracts/access/Ownable.sol\":1373:1391  _transferOwnership */\n  shl(0x20, tag_13)\n    /* \"@openzeppelin/contracts/access/Ownable.sol\":1373:1405  _transferOwnership(initialOwner) */\n  0x20\n  shr\n  jump\t// in\ntag_12:\n    /* \"@openzeppelin/contracts/access/Ownable.sol\":1225:1412  constructor(address initialOwner) {... */\n  pop\n    /* \"github\\xe5\\xae\\x9e\\xe6\\x88\\x98\\xe9\\xa1\\xb9\\xe7\\x9b\\xae/github\\xe5\\xae\\x9e\\xe6\\x88\\x98/game.sol\":1199:1219  addCountry(_country) */\n  tag_15\n    /* \"github\\xe5\\xae\\x9e\\xe6\\x88\\x98\\xe9\\xa1\\xb9\\xe7\\x9b\\xae/github\\xe5\\xae\\x9e\\xe6\\x88\\x98/game.sol\":1210:1218  _country */\n  dup4\n    /* \"github\\xe5\\xae\\x9e\\xe6\\x88\\x98\\xe9\\xa1\\xb9\\xe7\\x9b\\xae/github\\xe5\\xae\\x9e\\xe6\\x88\\x98/game.sol\":1199:1209  addCountry */\n  shl(0x20, tag_16)\n    /* \"github\\xe5\\xae\\x9e\\xe6\\x88\\x98\\xe9\\xa1\\xb9\\xe7\\x9b\\xae/github\\xe5\\xae\\x9e\\xe6\\x88\\x98/game.sol\":1199:1219  addCountry(_country) */\n  0x20\n  shr\n  jump\t// in\ntag_15:\n    /* \"github\\xe5\\xae\\x9e\\xe6\\x88\\x98\\xe9\\xa1\\xb9\\xe7\\x9b\\xae/github\\xe5\\xae\\x9e\\xe6\\x88\\x98/game.sol\":1250:1265  block.timestamp */\n  timestamp\n    /* \"github\\xe5\\xae\\x9e\\xe6\\x88\\x98\\xe9\\xa1\\xb9\\xe7\\x9b\\xae/github\\xe5\\xae\\x9e\\xe6\\x88\\x98/game.sol\":1238:1247  _deadline */\n  dup3\n    /* \"github\\xe5\\xae\\x9e\\xe6\\x88\\x98\\xe9\\xa1\\xb9\\xe7\\x9b\\xae/github\\xe5\\xae\\x9e\\xe6\\x88\\x98/game.sol\":1238:1265  _deadline > block.timestamp */\n  gt\n    /* \"github\\xe5\\xae\\x9e\\xe6\\x88\\x98\\xe9\\xa1\\xb9\\xe7\\x9b\\xae/github\\xe5\\xae\\x9e\\xe6\\x88\\x98/game.sol\":1230:1299  require(_deadline > block.timestamp,\"you should set true right time\") */\n  tag_17\n  jumpi\n  mload(0x40)\n  0x08c379a000000000000000000000000000000000000000000000000000000000\n  dup2\n  mstore\n  0x04\n  add\n  tag_18\n  swap1\n  tag_19\n  jump\t// in\ntag_18:\n  mload(0x40)\n  dup1\n  swap2\n  sub\n  swap1\n  revert\ntag_17:\n    /* \"github\\xe5\\xae\\x9e\\xe6\\x88\\x98\\xe9\\xa1\\xb9\\xe7\\x9b\\xae/github\\xe5\\xae\\x9e\\xe6\\x88\\x98/game.sol\":1321:1330  _deadline */\n  dup2\n    /* \"github\\xe5\\xae\\x9e\\xe6\\x88\\x98\\xe9\\xa1\\xb9\\xe7\\x9b\\xae/github\\xe5\\xae\\x9e\\xe6\\x88\\x98/game.sol\":1310:1318  deadline */\n  0x03\n    /* \"github\\xe5\\xae\\x9e\\xe6\\x88\\x98\\xe9\\xa1\\xb9\\xe7\\x9b\\xae/github\\xe5\\xae\\x9e\\xe6\\x88\\x98/game.sol\":1310:1330  deadline = _deadline */\n  dup2\n  swap1\n  sstore\n  pop\n    /* \"github\\xe5\\xae\\x9e\\xe6\\x88\\x98\\xe9\\xa1\\xb9\\xe7\\x9b\\xae/github\\xe5\\xae\\x9e\\xe6\\x88\\x98/game.sol\":1347:1351  _fee */\n  dup1\n    /* \"github\\xe5\\xae\\x9e\\xe6\\x88\\x98\\xe9\\xa1\\xb9\\xe7\\x9b\\xae/github\\xe5\\xae\\x9e\\xe6\\x88\\x98/game.sol\":1341:1344  fee */\n  0x04\n    /* \"github\\xe5\\xae\\x9e\\xe6\\x88\\x98\\xe9\\xa1\\xb9\\xe7\\x9b\\xae/github\\xe5\\xae\\x9e\\xe6\\x88\\x98/game.sol\":1341:1351  fee = _fee */\n  dup2\n  swap1\n  sstore\n  pop\n    /* \"github\\xe5\\xae\\x9e\\xe6\\x88\\x98\\xe9\\xa1\\xb9\\xe7\\x9b\\xae/github\\xe5\\xae\\x9e\\xe6\\x88\\x98/game.sol\":1100:1359  constructor(string[] memory _country,uint256 _deadline,uint256 _fee) Ownable(msg.sender){... */\n  pop\n  pop\n  pop\n    /* \"github\\xe5\\xae\\x9e\\xe6\\x88\\x98\\xe9\\xa1\\xb9\\xe7\\x9b\\xae/github\\xe5\\xae\\x9e\\xe6\\x88\\x98/game.sol\":112:3201  contract Game is Ownable{... */\n  jump(tag_20)\n    /* \"@openzeppelin/contracts/access/Ownable.sol\":2912:3099  function _transferOwnership(address newOwner) internal virtual {... */\ntag_13:\n    /* \"@openzeppelin/contracts/access/Ownable.sol\":2985:3001  address oldOwner */\n  0x00\n    /* \"@openzeppelin/contracts/access/Ownable.sol\":3004:3010  _owner */\n  dup1\n  0x00\n  swap1\n  sload\n  swap1\n  0x0100\n  exp\n  swap1\n  div\n  0xffffffffffffffffffffffffffffffffffffffff\n  and\n    /* \"@openzeppelin/contracts/access/Ownable.sol\":2985:3010  address oldOwner = _owner */\n  swap1\n  pop\n    /* \"@openzeppelin/contracts/access/Ownable.sol\":3029:3037  newOwner */\n  dup2\n    /* \"@openzeppelin/contracts/access/Ownable.sol\":3020:3026  _owner */\n  0x00\n  dup1\n    /* \"@openzeppelin/contracts/access/Ownable.sol\":3020:3037  _owner = newOwner */\n  0x0100\n  exp\n  dup2\n  sload\n  dup2\n  0xffffffffffffffffffffffffffffffffffffffff\n  mul\n  not\n  and\n  swap1\n  dup4\n  0xffffffffffffffffffffffffffffffffffffffff\n  and\n  mul\n  or\n  swap1\n  sstore\n  pop\n    /* \"@openzeppelin/contracts/access/Ownable.sol\":3083:3091  newOwner */\n  dup2\n    /* \"@openzeppelin/contracts/access/Ownable.sol\":3052:3092  OwnershipTransferred(oldOwner, newOwner) */\n  0xffffffffffffffffffffffffffffffffffffffff\n  and\n    /* \"@openzeppelin/contracts/access/Ownable.sol\":3073:3081  oldOwner */\n  dup2\n    /* \"@openzeppelin/contracts/access/Ownable.sol\":3052:3092  OwnershipTransferred(oldOwner, newOwner) */\n  0xffffffffffffffffffffffffffffffffffffffff\n  and\n  0x8be0079c531659141344cd1fd0a4f28419497f9722a3daafe3b4186f6b6457e0\n  mload(0x40)\n  mload(0x40)\n  dup1\n  swap2\n  sub\n  swap1\n  log3\n    /* \"@openzeppelin/contracts/access/Ownable.sol\":2975:3099  {... */\n  pop\n    /* \"@openzeppelin/contracts/access/Ownable.sol\":2912:3099  function _transferOwnership(address newOwner) internal virtual {... */\n  pop\n  jump\t// out\n    /* \"github\\xe5\\xae\\x9e\\xe6\\x88\\x98\\xe9\\xa1\\xb9\\xe7\\x9b\\xae/github\\xe5\\xae\\x9e\\xe6\\x88\\x98/game.sol\":2325:2626  function addCountry(string[] memory country) onlyOwner public {... */\ntag_16:\n    /* \"@openzeppelin/contracts/access/Ownable.sol\":1531:1544  _checkOwner() */\n  tag_23\n    /* \"@openzeppelin/contracts/access/Ownable.sol\":1531:1542  _checkOwner */\n  shl(0x20, tag_24)\n    /* \"@openzeppelin/contracts/access/Ownable.sol\":1531:1544  _checkOwner() */\n  0x20\n  shr\n  jump\t// in\ntag_23:\n    /* \"github\\xe5\\xae\\x9e\\xe6\\x88\\x98\\xe9\\xa1\\xb9\\xe7\\x9b\\xae/github\\xe5\\xae\\x9e\\xe6\\x88\\x98/game.sol\":2398:2406  uint len */\n  0x00\n    /* \"github\\xe5\\xae\\x9e\\xe6\\x88\\x98\\xe9\\xa1\\xb9\\xe7\\x9b\\xae/github\\xe5\\xae\\x9e\\xe6\\x88\\x98/game.sol\":2409:2416  country */\n  dup2\n    /* \"github\\xe5\\xae\\x9e\\xe6\\x88\\x98\\xe9\\xa1\\xb9\\xe7\\x9b\\xae/github\\xe5\\xae\\x9e\\xe6\\x88\\x98/game.sol\":2409:2423  country.length */\n  mload\n    /* \"github\\xe5\\xae\\x9e\\xe6\\x88\\x98\\xe9\\xa1\\xb9\\xe7\\x9b\\xae/github\\xe5\\xae\\x9e\\xe6\\x88\\x98/game.sol\":2398:2423  uint len = country.length */\n  swap1\n  pop\n    /* \"github\\xe5\\xae\\x9e\\xe6\\x88\\x98\\xe9\\xa1\\xb9\\xe7\\x9b\\xae/github\\xe5\\xae\\x9e\\xe6\\x88\\x98/game.sol\":2438:2444  uint i */\n  0x00\n    /* \"github\\xe5\\xae\\x9e\\xe6\\x88\\x98\\xe9\\xa1\\xb9\\xe7\\x9b\\xae/github\\xe5\\xae\\x9e\\xe6\\x88\\x98/game.sol\":2434:2609  for(uint i;i < len;){... */\ntag_26:\n    /* \"github\\xe5\\xae\\x9e\\xe6\\x88\\x98\\xe9\\xa1\\xb9\\xe7\\x9b\\xae/github\\xe5\\xae\\x9e\\xe6\\x88\\x98/game.sol\":2449:2452  len */\n  dup2\n    /* \"github\\xe5\\xae\\x9e\\xe6\\x88\\x98\\xe9\\xa1\\xb9\\xe7\\x9b\\xae/github\\xe5\\xae\\x9e\\xe6\\x88\\x98/game.sol\":2445:2446  i */\n  dup2\n    /* \"github\\xe5\\xae\\x9e\\xe6\\x88\\x98\\xe9\\xa1\\xb9\\xe7\\x9b\\xae/github\\xe5\\xae\\x9e\\xe6\\x88\\x98/game.sol\":2445:2452  i < len */\n  lt\n    /* \"github\\xe5\\xae\\x9e\\xe6\\x88\\x98\\xe9\\xa1\\xb9\\xe7\\x9b\\xae/github\\xe5\\xae\\x9e\\xe6\\x88\\x98/game.sol\":2434:2609  for(uint i;i < len;){... */\n  iszero\n  tag_27\n  jumpi\n    /* \"github\\xe5\\xae\\x9e\\xe6\\x88\\x98\\xe9\\xa1\\xb9\\xe7\\x9b\\xae/github\\xe5\\xae\\x9e\\xe6\\x88\\x98/game.sol\":2469:2478  countries */\n  0x05\n    /* \"github\\xe5\\xae\\x9e\\xe6\\x88\\x98\\xe9\\xa1\\xb9\\xe7\\x9b\\xae/github\\xe5\\xae\\x9e\\xe6\\x88\\x98/game.sol\":2469:2485  countries.push() */\n  0x01\n  dup2\n  0x01\n  dup2\n  sload\n  add\n  dup1\n  dup3\n  sstore\n  dup1\n  swap2\n  pop\n  pop\n  sub\n  swap1\n  0x00\n  mstore\n  pop(keccak256(0x00, 0x20))\n  pop\n    /* \"github\\xe5\\xae\\x9e\\xe6\\x88\\x98\\xe9\\xa1\\xb9\\xe7\\x9b\\xae/github\\xe5\\xae\\x9e\\xe6\\x88\\x98/game.sol\":2579:2582  ++i */\n  dup1\n  0x01\n  add\n  swap1\n  pop\n    /* \"github\\xe5\\xae\\x9e\\xe6\\x88\\x98\\xe9\\xa1\\xb9\\xe7\\x9b\\xae/github\\xe5\\xae\\x9e\\xe6\\x88\\x98/game.sol\":2434:2609  for(uint i;i < len;){... */\n  jump(tag_26)\ntag_27:\n  pop\n    /* \"github\\xe5\\xae\\x9e\\xe6\\x88\\x98\\xe9\\xa1\\xb9\\xe7\\x9b\\xae/github\\xe5\\xae\\x9e\\xe6\\x88\\x98/game.sol\":2387:2626  {... */\n  pop\n    /* \"github\\xe5\\xae\\x9e\\xe6\\x88\\x98\\xe9\\xa1\\xb9\\xe7\\x9b\\xae/github\\xe5\\xae\\x9e\\xe6\\x88\\x98/game.sol\":2325:2626  function addCountry(string[] memory country) onlyOwner public {... */\n  pop\n  jump\t// out\n    /* \"@openzeppelin/contracts/access/Ownable.sol\":1796:1958  function _checkOwner() internal view virtual {... */\ntag_24:\n    /* \"@openzeppelin/contracts/access/Ownable.sol\":1866:1878  _msgSender() */\n  tag_31\n    /* \"@openzeppelin/contracts/access/Ownable.sol\":1866:1876  _msgSender */\n  shl(0x20, tag_32)\n    /* \"@openzeppelin/contracts/access/Ownable.sol\":1866:1878  _msgSender() */\n  0x20\n  shr\n  jump\t// in\ntag_31:\n    /* \"@openzeppelin/contracts/access/Ownable.sol\":1855:1878  owner() != _msgSender() */\n  0xffffffffffffffffffffffffffffffffffffffff\n  and\n    /* \"@openzeppelin/contracts/access/Ownable.sol\":1855:1862  owner() */\n  tag_33\n    /* \"@openzeppelin/contracts/access/Ownable.sol\":1855:1860  owner */\n  shl(0x20, tag_34)\n    /* \"@openzeppelin/contracts/access/Ownable.sol\":1855:1862  owner() */\n  0x20\n  shr\n  jump\t// in\ntag_33:\n    /* \"@openzeppelin/contracts/access/Ownable.sol\":1855:1878  owner() != _msgSender() */\n  0xffffffffffffffffffffffffffffffffffffffff\n  and\n  eq\n    /* \"@openzeppelin/contracts/access/Ownable.sol\":1851:1952  if (owner() != _msgSender()) {... */\n  tag_35\n  jumpi\n    /* \"@openzeppelin/contracts/access/Ownable.sol\":1928:1940  _msgSender() */\n  tag_36\n    /* \"@openzeppelin/contracts/access/Ownable.sol\":1928:1938  _msgSender */\n  shl(0x20, tag_32)\n    /* \"@openzeppelin/contracts/access/Ownable.sol\":1928:1940  _msgSender() */\n  0x20\n  shr\n  jump\t// in\ntag_36:\n    /* \"@openzeppelin/contracts/access/Ownable.sol\":1901:1941  OwnableUnauthorizedAccount(_msgSender()) */\n  mload(0x40)\n  0x118cdaa700000000000000000000000000000000000000000000000000000000\n  dup2\n  mstore\n  0x04\n  add\n  tag_37\n  swap2\n  swap1\n  tag_11\n  jump\t// in\ntag_37:\n  mload(0x40)\n  dup1\n  swap2\n  sub\n  swap1\n  revert\n    /* \"@openzeppelin/contracts/access/Ownable.sol\":1851:1952  if (owner() != _msgSender()) {... */\ntag_35:\n    /* \"@openzeppelin/contracts/access/Ownable.sol\":1796:1958  function _checkOwner() internal view virtual {... */\n  jump\t// out\n    /* \"@openzeppelin/contracts/utils/Context.sol\":656:752  function _msgSender() internal view virtual returns (address) {... */\ntag_32:\n    /* \"@openzeppelin/contracts/utils/Context.sol\":709:716  address */\n  0x00\n    /* \"@openzeppelin/contracts/utils/Context.sol\":735:745  msg.sender */\n  caller\n    /* \"@openzeppelin/contracts/utils/Context.sol\":728:745  return msg.sender */\n  swap1\n  pop\n    /* \"@openzeppelin/contracts/utils/Context.sol\":656:752  function _msgSender() internal view virtual returns (address) {... */\n  swap1\n  jump\t// out\n    /* \"@openzeppelin/contracts/access/Ownable.sol\":1638:1723  function owner() public view virtual returns (address) {... */\ntag_34:\n    /* \"@openzeppelin/contracts/access/Ownable.sol\":1684:1691  address */\n  0x00\n    /* \"@openzeppelin/contracts/access/Ownable.sol\":1710:1716  _owner */\n  dup1\n  0x00\n  swap1\n  sload\n  swap1\n  0x0100\n  exp\n  swap1\n  div\n  0xffffffffffffffffffffffffffffffffffffffff\n  and\n    /* \"@openzeppelin/contracts/access/Ownable.sol\":1703:1716  return _owner */\n  swap1\n  pop\n    /* \"@openzeppelin/contracts/access/Ownable.sol\":1638:1723  function owner() public view virtual returns (address) {... */\n  swap1\n  jump\t// out\n    /* \"github\\xe5\\xae\\x9e\\xe6\\x88\\x98\\xe9\\xa1\\xb9\\xe7\\x9b\\xae/github\\xe5\\xae\\x9e\\xe6\\x88\\x98/game.sol\":112:3201  contract Game is Ownable{... */\ntag_2:\n  dup3\n  dup1\n  sload\n  dup3\n  dup3\n  sstore\n  swap1\n  0x00\n  mstore\n  keccak256(0x00, 0x20)\n  swap1\n  dup2\n  add\n  swap3\n  dup3\n  iszero\n  tag_40\n  jumpi\n  swap2\n  0x20\n  mul\n  dup3\n  add\ntag_41:\n  dup3\n  dup2\n  gt\n  iszero\n  tag_42\n  jumpi\n  dup3\n  mload\n  dup3\n  swap1\n  dup2\n  tag_43\n  swap2\n  swap1\n  tag_44\n  jump\t// in\ntag_43:\n  pop\n  swap2\n  0x20\n  add\n  swap2\n  swap1\n  0x01\n  add\n  swap1\n  jump(tag_41)\ntag_42:\ntag_40:\n  pop\n  swap1\n  pop\n  tag_45\n  swap2\n  swap1\n  tag_46\n  jump\t// in\ntag_45:\n  pop\n  swap1\n  jump\t// out\ntag_46:\ntag_47:\n  dup1\n  dup3\n  gt\n  iszero\n  tag_48\n  jumpi\n  0x00\n  dup2\n  dup2\n  tag_49\n  swap2\n  swap1\n  tag_50\n  jump\t// in\ntag_49:\n  pop\n  0x01\n  add\n  jump(tag_47)\ntag_48:\n  pop\n  swap1\n  jump\t// out\ntag_50:\n  pop\n  dup1\n  sload\n  tag_51\n  swap1\n  tag_52\n  jump\t// in\ntag_51:\n  0x00\n  dup3\n  sstore\n  dup1\n  0x1f\n  lt\n  tag_54\n  jumpi\n  pop\n  jump(tag_53)\ntag_54:\n  0x1f\n  add\n  0x20\n  swap1\n  div\n  swap1\n  0x00\n  mstore\n  keccak256(0x00, 0x20)\n  swap1\n  dup2\n  add\n  swap1\n  tag_55\n  swap2\n  swap1\n  tag_56\n  jump\t// in\ntag_55:\ntag_53:\n  pop\n  jump\t// out\ntag_56:\ntag_57:\n  dup1\n  dup3\n  gt\n  iszero\n  tag_58\n  jumpi\n  0x00\n  dup2\n  0x00\n  swap1\n  sstore\n  pop\n  0x01\n  add\n  jump(tag_57)\ntag_58:\n  pop\n  swap1\n  jump\t// out\n    /* \"#utility.yul\":7:82   */\ntag_59:\n    /* \"#utility.yul\":40:46   */\n  0x00\n    /* \"#utility.yul\":73:75   */\n  0x40\n    /* \"#utility.yul\":67:76   */\n  mload\n    /* \"#utility.yul\":57:76   */\n  swap1\n  pop\n    /* \"#utility.yul\":7:82   */\n  swap1\n  jump\t// out\n    /* \"#utility.yul\":88:205   */\ntag_60:\n    /* \"#utility.yul\":197:198   */\n  0x00\n    /* \"#utility.yul\":194:195   */\n  dup1\n    /* \"#utility.yul\":187:199   */\n  revert\n    /* \"#utility.yul\":211:328   */\ntag_61:\n    /* \"#utility.yul\":320:321   */\n  0x00\n    /* \"#utility.yul\":317:318   */\n  dup1\n    /* \"#utility.yul\":310:322   */\n  revert\n    /* \"#utility.yul\":334:451   */\ntag_62:\n    /* \"#utility.yul\":443:444   */\n  0x00\n    /* \"#utility.yul\":440:441   */\n  dup1\n    /* \"#utility.yul\":433:445   */\n  revert\n    /* \"#utility.yul\":457:559   */\ntag_63:\n    /* \"#utility.yul\":498:504   */\n  0x00\n    /* \"#utility.yul\":549:551   */\n  0x1f\n    /* \"#utility.yul\":545:552   */\n  not\n    /* \"#utility.yul\":540:542   */\n  0x1f\n    /* \"#utility.yul\":533:538   */\n  dup4\n    /* \"#utility.yul\":529:543   */\n  add\n    /* \"#utility.yul\":525:553   */\n  and\n    /* \"#utility.yul\":515:553   */\n  swap1\n  pop\n    /* \"#utility.yul\":457:559   */\n  swap2\n  swap1\n  pop\n  jump\t// out\n    /* \"#utility.yul\":565:745   */\ntag_64:\n    /* \"#utility.yul\":613:690   */\n  0x4e487b7100000000000000000000000000000000000000000000000000000000\n    /* \"#utility.yul\":610:611   */\n  0x00\n    /* \"#utility.yul\":603:691   */\n  mstore\n    /* \"#utility.yul\":710:714   */\n  0x41\n    /* \"#utility.yul\":707:708   */\n  0x04\n    /* \"#utility.yul\":700:715   */\n  mstore\n    /* \"#utility.yul\":734:738   */\n  0x24\n    /* \"#utility.yul\":731:732   */\n  0x00\n    /* \"#utility.yul\":724:739   */\n  revert\n    /* \"#utility.yul\":751:1032   */\ntag_65:\n    /* \"#utility.yul\":834:861   */\n  tag_110\n    /* \"#utility.yul\":856:860   */\n  dup3\n    /* \"#utility.yul\":834:861   */\n  tag_63\n  jump\t// in\ntag_110:\n    /* \"#utility.yul\":826:832   */\n  dup2\n    /* \"#utility.yul\":822:862   */\n  add\n    /* \"#utility.yul\":964:970   */\n  dup2\n    /* \"#utility.yul\":952:962   */\n  dup2\n    /* \"#utility.yul\":949:971   */\n  lt\n    /* \"#utility.yul\":928:946   */\n  0xffffffffffffffff\n    /* \"#utility.yul\":916:926   */\n  dup3\n    /* \"#utility.yul\":913:947   */\n  gt\n    /* \"#utility.yul\":910:972   */\n  or\n    /* \"#utility.yul\":907:995   */\n  iszero\n  tag_111\n  jumpi\n    /* \"#utility.yul\":975:993   */\n  tag_112\n  tag_64\n  jump\t// in\ntag_112:\n    /* \"#utility.yul\":907:995   */\ntag_111:\n    /* \"#utility.yul\":1015:1025   */\n  dup1\n    /* \"#utility.yul\":1011:1013   */\n  0x40\n    /* \"#utility.yul\":1004:1026   */\n  mstore\n    /* \"#utility.yul\":794:1032   */\n  pop\n    /* \"#utility.yul\":751:1032   */\n  pop\n  pop\n  jump\t// out\n    /* \"#utility.yul\":1038:1167   */\ntag_66:\n    /* \"#utility.yul\":1072:1078   */\n  0x00\n    /* \"#utility.yul\":1099:1119   */\n  tag_114\n  tag_59\n  jump\t// in\ntag_114:\n    /* \"#utility.yul\":1089:1119   */\n  swap1\n  pop\n    /* \"#utility.yul\":1128:1161   */\n  tag_115\n    /* \"#utility.yul\":1156:1160   */\n  dup3\n    /* \"#utility.yul\":1148:1154   */\n  dup3\n    /* \"#utility.yul\":1128:1161   */\n  tag_65\n  jump\t// in\ntag_115:\n    /* \"#utility.yul\":1038:1167   */\n  swap2\n  swap1\n  pop\n  jump\t// out\n    /* \"#utility.yul\":1173:1494   */\ntag_67:\n    /* \"#utility.yul\":1260:1264   */\n  0x00\n    /* \"#utility.yul\":1350:1368   */\n  0xffffffffffffffff\n    /* \"#utility.yul\":1342:1348   */\n  dup3\n    /* \"#utility.yul\":1339:1369   */\n  gt\n    /* \"#utility.yul\":1336:1392   */\n  iszero\n  tag_117\n  jumpi\n    /* \"#utility.yul\":1372:1390   */\n  tag_118\n  tag_64\n  jump\t// in\ntag_118:\n    /* \"#utility.yul\":1336:1392   */\ntag_117:\n    /* \"#utility.yul\":1422:1426   */\n  0x20\n    /* \"#utility.yul\":1414:1420   */\n  dup3\n    /* \"#utility.yul\":1410:1427   */\n  mul\n    /* \"#utility.yul\":1402:1427   */\n  swap1\n  pop\n    /* \"#utility.yul\":1482:1486   */\n  0x20\n    /* \"#utility.yul\":1476:1480   */\n  dup2\n    /* \"#utility.yul\":1472:1487   */\n  add\n    /* \"#utility.yul\":1464:1487   */\n  swap1\n  pop\n    /* \"#utility.yul\":1173:1494   */\n  swap2\n  swap1\n  pop\n  jump\t// out\n    /* \"#utility.yul\":1500:1617   */\ntag_68:\n    /* \"#utility.yul\":1609:1610   */\n  0x00\n    /* \"#utility.yul\":1606:1607   */\n  dup1\n    /* \"#utility.yul\":1599:1611   */\n  revert\n    /* \"#utility.yul\":1623:1740   */\ntag_69:\n    /* \"#utility.yul\":1732:1733   */\n  0x00\n    /* \"#utility.yul\":1729:1730   */\n  dup1\n    /* \"#utility.yul\":1722:1734   */\n  revert\n    /* \"#utility.yul\":1746:2054   */\ntag_70:\n    /* \"#utility.yul\":1808:1812   */\n  0x00\n    /* \"#utility.yul\":1898:1916   */\n  0xffffffffffffffff\n    /* \"#utility.yul\":1890:1896   */\n  dup3\n    /* \"#utility.yul\":1887:1917   */\n  gt\n    /* \"#utility.yul\":1884:1940   */\n  iszero\n  tag_122\n  jumpi\n    /* \"#utility.yul\":1920:1938   */\n  tag_123\n  tag_64\n  jump\t// in\ntag_123:\n    /* \"#utility.yul\":1884:1940   */\ntag_122:\n    /* \"#utility.yul\":1958:1987   */\n  tag_124\n    /* \"#utility.yul\":1980:1986   */\n  dup3\n    /* \"#utility.yul\":1958:1987   */\n  tag_63\n  jump\t// in\ntag_124:\n    /* \"#utility.yul\":1950:1987   */\n  swap1\n  pop\n    /* \"#utility.yul\":2042:2046   */\n  0x20\n    /* \"#utility.yul\":2036:2040   */\n  dup2\n    /* \"#utility.yul\":2032:2047   */\n  add\n    /* \"#utility.yul\":2024:2047   */\n  swap1\n  pop\n    /* \"#utility.yul\":1746:2054   */\n  swap2\n  swap1\n  pop\n  jump\t// out\n    /* \"#utility.yul\":2060:2306   */\ntag_71:\n    /* \"#utility.yul\":2141:2142   */\n  0x00\n    /* \"#utility.yul\":2151:2264   */\ntag_126:\n    /* \"#utility.yul\":2165:2171   */\n  dup4\n    /* \"#utility.yul\":2162:2163   */\n  dup2\n    /* \"#utility.yul\":2159:2172   */\n  lt\n    /* \"#utility.yul\":2151:2264   */\n  iszero\n  tag_128\n  jumpi\n    /* \"#utility.yul\":2250:2251   */\n  dup1\n    /* \"#utility.yul\":2245:2248   */\n  dup3\n    /* \"#utility.yul\":2241:2252   */\n  add\n    /* \"#utility.yul\":2235:2253   */\n  mload\n    /* \"#utility.yul\":2231:2232   */\n  dup2\n    /* \"#utility.yul\":2226:2229   */\n  dup5\n    /* \"#utility.yul\":2222:2233   */\n  add\n    /* \"#utility.yul\":2215:2254   */\n  mstore\n    /* \"#utility.yul\":2187:2189   */\n  0x20\n    /* \"#utility.yul\":2184:2185   */\n  dup2\n    /* \"#utility.yul\":2180:2190   */\n  add\n    /* \"#utility.yul\":2175:2190   */\n  swap1\n  pop\n    /* \"#utility.yul\":2151:2264   */\n  jump(tag_126)\ntag_128:\n    /* \"#utility.yul\":2298:2299   */\n  0x00\n    /* \"#utility.yul\":2289:2295   */\n  dup5\n    /* \"#utility.yul\":2284:2287   */\n  dup5\n    /* \"#utility.yul\":2280:2296   */\n  add\n    /* \"#utility.yul\":2273:2300   */\n  mstore\n    /* \"#utility.yul\":2122:2306   */\n  pop\n    /* \"#utility.yul\":2060:2306   */\n  pop\n  pop\n  pop\n  jump\t// out\n    /* \"#utility.yul\":2312:2746   */\ntag_72:\n    /* \"#utility.yul\":2401:2406   */\n  0x00\n    /* \"#utility.yul\":2426:2492   */\n  tag_130\n    /* \"#utility.yul\":2442:2491   */\n  tag_131\n    /* \"#utility.yul\":2484:2490   */\n  dup5\n    /* \"#utility.yul\":2442:2491   */\n  tag_70\n  jump\t// in\ntag_131:\n    /* \"#utility.yul\":2426:2492   */\n  tag_66\n  jump\t// in\ntag_130:\n    /* \"#utility.yul\":2417:2492   */\n  swap1\n  pop\n    /* \"#utility.yul\":2515:2521   */\n  dup3\n    /* \"#utility.yul\":2508:2513   */\n  dup2\n    /* \"#utility.yul\":2501:2522   */\n  mstore\n    /* \"#utility.yul\":2553:2557   */\n  0x20\n    /* \"#utility.yul\":2546:2551   */\n  dup2\n    /* \"#utility.yul\":2542:2558   */\n  add\n    /* \"#utility.yul\":2591:2594   */\n  dup5\n    /* \"#utility.yul\":2582:2588   */\n  dup5\n    /* \"#utility.yul\":2577:2580   */\n  dup5\n    /* \"#utility.yul\":2573:2589   */\n  add\n    /* \"#utility.yul\":2570:2595   */\n  gt\n    /* \"#utility.yul\":2567:2679   */\n  iszero\n  tag_132\n  jumpi\n    /* \"#utility.yul\":2598:2677   */\n  tag_133\n  tag_69\n  jump\t// in\ntag_133:\n    /* \"#utility.yul\":2567:2679   */\ntag_132:\n    /* \"#utility.yul\":2688:2740   */\n  tag_134\n    /* \"#utility.yul\":2733:2739   */\n  dup5\n    /* \"#utility.yul\":2728:2731   */\n  dup3\n    /* \"#utility.yul\":2723:2726   */\n  dup6\n    /* \"#utility.yul\":2688:2740   */\n  tag_71\n  jump\t// in\ntag_134:\n    /* \"#utility.yul\":2407:2746   */\n  pop\n    /* \"#utility.yul\":2312:2746   */\n  swap4\n  swap3\n  pop\n  pop\n  pop\n  jump\t// out\n    /* \"#utility.yul\":2766:3121   */\ntag_73:\n    /* \"#utility.yul\":2833:2838   */\n  0x00\n    /* \"#utility.yul\":2882:2885   */\n  dup3\n    /* \"#utility.yul\":2875:2879   */\n  0x1f\n    /* \"#utility.yul\":2867:2873   */\n  dup4\n    /* \"#utility.yul\":2863:2880   */\n  add\n    /* \"#utility.yul\":2859:2886   */\n  slt\n    /* \"#utility.yul\":2849:2971   */\n  tag_136\n  jumpi\n    /* \"#utility.yul\":2890:2969   */\n  tag_137\n  tag_62\n  jump\t// in\ntag_137:\n    /* \"#utility.yul\":2849:2971   */\ntag_136:\n    /* \"#utility.yul\":3000:3006   */\n  dup2\n    /* \"#utility.yul\":2994:3007   */\n  mload\n    /* \"#utility.yul\":3025:3115   */\n  tag_138\n    /* \"#utility.yul\":3111:3114   */\n  dup5\n    /* \"#utility.yul\":3103:3109   */\n  dup3\n    /* \"#utility.yul\":3096:3100   */\n  0x20\n    /* \"#utility.yul\":3088:3094   */\n  dup7\n    /* \"#utility.yul\":3084:3101   */\n  add\n    /* \"#utility.yul\":3025:3115   */\n  tag_72\n  jump\t// in\ntag_138:\n    /* \"#utility.yul\":3016:3115   */\n  swap2\n  pop\n    /* \"#utility.yul\":2839:3121   */\n  pop\n    /* \"#utility.yul\":2766:3121   */\n  swap3\n  swap2\n  pop\n  pop\n  jump\t// out\n    /* \"#utility.yul\":3143:4103   */\ntag_74:\n    /* \"#utility.yul\":3260:3265   */\n  0x00\n    /* \"#utility.yul\":3285:3376   */\n  tag_140\n    /* \"#utility.yul\":3301:3375   */\n  tag_141\n    /* \"#utility.yul\":3368:3374   */\n  dup5\n    /* \"#utility.yul\":3301:3375   */\n  tag_67\n  jump\t// in\ntag_141:\n    /* \"#utility.yul\":3285:3376   */\n  tag_66\n  jump\t// in\ntag_140:\n    /* \"#utility.yul\":3276:3376   */\n  swap1\n  pop\n    /* \"#utility.yul\":3396:3401   */\n  dup1\n    /* \"#utility.yul\":3425:3431   */\n  dup4\n    /* \"#utility.yul\":3418:3423   */\n  dup3\n    /* \"#utility.yul\":3411:3432   */\n  mstore\n    /* \"#utility.yul\":3459:3463   */\n  0x20\n    /* \"#utility.yul\":3452:3457   */\n  dup3\n    /* \"#utility.yul\":3448:3464   */\n  add\n    /* \"#utility.yul\":3441:3464   */\n  swap1\n  pop\n    /* \"#utility.yul\":3512:3516   */\n  0x20\n    /* \"#utility.yul\":3504:3510   */\n  dup5\n    /* \"#utility.yul\":3500:3517   */\n  mul\n    /* \"#utility.yul\":3492:3498   */\n  dup4\n    /* \"#utility.yul\":3488:3518   */\n  add\n    /* \"#utility.yul\":3541:3544   */\n  dup6\n    /* \"#utility.yul\":3533:3539   */\n  dup2\n    /* \"#utility.yul\":3530:3545   */\n  gt\n    /* \"#utility.yul\":3527:3649   */\n  iszero\n  tag_142\n  jumpi\n    /* \"#utility.yul\":3560:3639   */\n  tag_143\n  tag_68\n  jump\t// in\ntag_143:\n    /* \"#utility.yul\":3527:3649   */\ntag_142:\n    /* \"#utility.yul\":3675:3681   */\n  dup4\n    /* \"#utility.yul\":3658:4097   */\ntag_144:\n    /* \"#utility.yul\":3692:3698   */\n  dup2\n    /* \"#utility.yul\":3687:3690   */\n  dup2\n    /* \"#utility.yul\":3684:3699   */\n  lt\n    /* \"#utility.yul\":3658:4097   */\n  iszero\n  tag_146\n  jumpi\n    /* \"#utility.yul\":3774:3777   */\n  dup1\n    /* \"#utility.yul\":3768:3778   */\n  mload\n    /* \"#utility.yul\":3810:3828   */\n  0xffffffffffffffff\n    /* \"#utility.yul\":3797:3808   */\n  dup2\n    /* \"#utility.yul\":3794:3829   */\n  gt\n    /* \"#utility.yul\":3791:3913   */\n  iszero\n  tag_147\n  jumpi\n    /* \"#utility.yul\":3832:3911   */\n  tag_148\n  tag_62\n  jump\t// in\ntag_148:\n    /* \"#utility.yul\":3791:3913   */\ntag_147:\n    /* \"#utility.yul\":3956:3967   */\n  dup1\n    /* \"#utility.yul\":3948:3954   */\n  dup7\n    /* \"#utility.yul\":3944:3968   */\n  add\n    /* \"#utility.yul\":3994:4052   */\n  tag_149\n    /* \"#utility.yul\":4048:4051   */\n  dup10\n    /* \"#utility.yul\":4036:4046   */\n  dup3\n    /* \"#utility.yul\":3994:4052   */\n  tag_73\n  jump\t// in\ntag_149:\n    /* \"#utility.yul\":3989:3992   */\n  dup6\n    /* \"#utility.yul\":3982:4053   */\n  mstore\n    /* \"#utility.yul\":4082:4086   */\n  0x20\n    /* \"#utility.yul\":4077:4080   */\n  dup6\n    /* \"#utility.yul\":4073:4087   */\n  add\n    /* \"#utility.yul\":4066:4087   */\n  swap5\n  pop\n    /* \"#utility.yul\":3734:4097   */\n  pop\n  pop\n    /* \"#utility.yul\":3718:3722   */\n  0x20\n    /* \"#utility.yul\":3713:3716   */\n  dup2\n    /* \"#utility.yul\":3709:3723   */\n  add\n    /* \"#utility.yul\":3702:3723   */\n  swap1\n  pop\n    /* \"#utility.yul\":3658:4097   */\n  jump(tag_144)\ntag_146:\n    /* \"#utility.yul\":3662:3683   */\n  pop\n    /* \"#utility.yul\":3266:4103   */\n  pop\n  pop\n    /* \"#utility.yul\":3143:4103   */\n  swap4\n  swap3\n  pop\n  pop\n  pop\n  jump\t// out\n    /* \"#utility.yul\":4125:4530   */\ntag_75:\n    /* \"#utility.yul\":4217:4222   */\n  0x00\n    /* \"#utility.yul\":4266:4269   */\n  dup3\n    /* \"#utility.yul\":4259:4263   */\n  0x1f\n    /* \"#utility.yul\":4251:4257   */\n  dup4\n    /* \"#utility.yul\":4247:4264   */\n  add\n    /* \"#utility.yul\":4243:4270   */\n  slt\n    /* \"#utility.yul\":4233:4355   */\n  tag_151\n  jumpi\n    /* \"#utility.yul\":4274:4353   */\n  tag_152\n  tag_62\n  jump\t// in\ntag_152:\n    /* \"#utility.yul\":4233:4355   */\ntag_151:\n    /* \"#utility.yul\":4384:4390   */\n  dup2\n    /* \"#utility.yul\":4378:4391   */\n  mload\n    /* \"#utility.yul\":4409:4524   */\n  tag_153\n    /* \"#utility.yul\":4520:4523   */\n  dup5\n    /* \"#utility.yul\":4512:4518   */\n  dup3\n    /* \"#utility.yul\":4505:4509   */\n  0x20\n    /* \"#utility.yul\":4497:4503   */\n  dup7\n    /* \"#utility.yul\":4493:4510   */\n  add\n    /* \"#utility.yul\":4409:4524   */\n  tag_74\n  jump\t// in\ntag_153:\n    /* \"#utility.yul\":4400:4524   */\n  swap2\n  pop\n    /* \"#utility.yul\":4223:4530   */\n  pop\n    /* \"#utility.yul\":4125:4530   */\n  swap3\n  swap2\n  pop\n  pop\n  jump\t// out\n    /* \"#utility.yul\":4536:4613   */\ntag_76:\n    /* \"#utility.yul\":4573:4580   */\n  0x00\n    /* \"#utility.yul\":4602:4607   */\n  dup2\n    /* \"#utility.yul\":4591:4607   */\n  swap1\n  pop\n    /* \"#utility.yul\":4536:4613   */\n  swap2\n  swap1\n  pop\n  jump\t// out\n    /* \"#utility.yul\":4619:4741   */\ntag_77:\n    /* \"#utility.yul\":4692:4716   */\n  tag_156\n    /* \"#utility.yul\":4710:4715   */\n  dup2\n    /* \"#utility.yul\":4692:4716   */\n  tag_76\n  jump\t// in\ntag_156:\n    /* \"#utility.yul\":4685:4690   */\n  dup2\n    /* \"#utility.yul\":4682:4717   */\n  eq\n    /* \"#utility.yul\":4672:4735   */\n  tag_157\n  jumpi\n    /* \"#utility.yul\":4731:4732   */\n  0x00\n    /* \"#utility.yul\":4728:4729   */\n  dup1\n    /* \"#utility.yul\":4721:4733   */\n  revert\n    /* \"#utility.yul\":4672:4735   */\ntag_157:\n    /* \"#utility.yul\":4619:4741   */\n  pop\n  jump\t// out\n    /* \"#utility.yul\":4747:4890   */\ntag_78:\n    /* \"#utility.yul\":4804:4809   */\n  0x00\n    /* \"#utility.yul\":4835:4841   */\n  dup2\n    /* \"#utility.yul\":4829:4842   */\n  mload\n    /* \"#utility.yul\":4820:4842   */\n  swap1\n  pop\n    /* \"#utility.yul\":4851:4884   */\n  tag_159\n    /* \"#utility.yul\":4878:4883   */\n  dup2\n    /* \"#utility.yul\":4851:4884   */\n  tag_77\n  jump\t// in\ntag_159:\n    /* \"#utility.yul\":4747:4890   */\n  swap3\n  swap2\n  pop\n  pop\n  jump\t// out\n    /* \"#utility.yul\":4896:5782   */\ntag_5:\n    /* \"#utility.yul\":5019:5025   */\n  0x00\n    /* \"#utility.yul\":5027:5033   */\n  dup1\n    /* \"#utility.yul\":5035:5041   */\n  0x00\n    /* \"#utility.yul\":5084:5086   */\n  0x60\n    /* \"#utility.yul\":5072:5081   */\n  dup5\n    /* \"#utility.yul\":5063:5070   */\n  dup7\n    /* \"#utility.yul\":5059:5082   */\n  sub\n    /* \"#utility.yul\":5055:5087   */\n  slt\n    /* \"#utility.yul\":5052:5171   */\n  iszero\n  tag_161\n  jumpi\n    /* \"#utility.yul\":5090:5169   */\n  tag_162\n  tag_60\n  jump\t// in\ntag_162:\n    /* \"#utility.yul\":5052:5171   */\ntag_161:\n    /* \"#utility.yul\":5231:5232   */\n  0x00\n    /* \"#utility.yul\":5220:5229   */\n  dup5\n    /* \"#utility.yul\":5216:5233   */\n  add\n    /* \"#utility.yul\":5210:5234   */\n  mload\n    /* \"#utility.yul\":5261:5279   */\n  0xffffffffffffffff\n    /* \"#utility.yul\":5253:5259   */\n  dup2\n    /* \"#utility.yul\":5250:5280   */\n  gt\n    /* \"#utility.yul\":5247:5364   */\n  iszero\n  tag_163\n  jumpi\n    /* \"#utility.yul\":5283:5362   */\n  tag_164\n  tag_61\n  jump\t// in\ntag_164:\n    /* \"#utility.yul\":5247:5364   */\ntag_163:\n    /* \"#utility.yul\":5388:5487   */\n  tag_165\n    /* \"#utility.yul\":5479:5486   */\n  dup7\n    /* \"#utility.yul\":5470:5476   */\n  dup3\n    /* \"#utility.yul\":5459:5468   */\n  dup8\n    /* \"#utility.yul\":5455:5477   */\n  add\n    /* \"#utility.yul\":5388:5487   */\n  tag_75\n  jump\t// in\ntag_165:\n    /* \"#utility.yul\":5378:5487   */\n  swap4\n  pop\n    /* \"#utility.yul\":5181:5497   */\n  pop\n    /* \"#utility.yul\":5536:5538   */\n  0x20\n    /* \"#utility.yul\":5562:5626   */\n  tag_166\n    /* \"#utility.yul\":5618:5625   */\n  dup7\n    /* \"#utility.yul\":5609:5615   */\n  dup3\n    /* \"#utility.yul\":5598:5607   */\n  dup8\n    /* \"#utility.yul\":5594:5616   */\n  add\n    /* \"#utility.yul\":5562:5626   */\n  tag_78\n  jump\t// in\ntag_166:\n    /* \"#utility.yul\":5552:5626   */\n  swap3\n  pop\n    /* \"#utility.yul\":5507:5636   */\n  pop\n    /* \"#utility.yul\":5675:5677   */\n  0x40\n    /* \"#utility.yul\":5701:5765   */\n  tag_167\n    /* \"#utility.yul\":5757:5764   */\n  dup7\n    /* \"#utility.yul\":5748:5754   */\n  dup3\n    /* \"#utility.yul\":5737:5746   */\n  dup8\n    /* \"#utility.yul\":5733:5755   */\n  add\n    /* \"#utility.yul\":5701:5765   */\n  tag_78\n  jump\t// in\ntag_167:\n    /* \"#utility.yul\":5691:5765   */\n  swap2\n  pop\n    /* \"#utility.yul\":5646:5775   */\n  pop\n    /* \"#utility.yul\":4896:5782   */\n  swap3\n  pop\n  swap3\n  pop\n  swap3\n  jump\t// out\n    /* \"#utility.yul\":5788:5914   */\ntag_79:\n    /* \"#utility.yul\":5825:5832   */\n  0x00\n    /* \"#utility.yul\":5865:5907   */\n  0xffffffffffffffffffffffffffffffffffffffff\n    /* \"#utility.yul\":5858:5863   */\n  dup3\n    /* \"#utility.yul\":5854:5908   */\n  and\n    /* \"#utility.yul\":5843:5908   */\n  swap1\n  pop\n    /* \"#utility.yul\":5788:5914   */\n  swap2\n  swap1\n  pop\n  jump\t// out\n    /* \"#utility.yul\":5920:6016   */\ntag_80:\n    /* \"#utility.yul\":5957:5964   */\n  0x00\n    /* \"#utility.yul\":5986:6010   */\n  tag_170\n    /* \"#utility.yul\":6004:6009   */\n  dup3\n    /* \"#utility.yul\":5986:6010   */\n  tag_79\n  jump\t// in\ntag_170:\n    /* \"#utility.yul\":5975:6010   */\n  swap1\n  pop\n    /* \"#utility.yul\":5920:6016   */\n  swap2\n  swap1\n  pop\n  jump\t// out\n    /* \"#utility.yul\":6022:6140   */\ntag_81:\n    /* \"#utility.yul\":6109:6133   */\n  tag_172\n    /* \"#utility.yul\":6127:6132   */\n  dup2\n    /* \"#utility.yul\":6109:6133   */\n  tag_80\n  jump\t// in\ntag_172:\n    /* \"#utility.yul\":6104:6107   */\n  dup3\n    /* \"#utility.yul\":6097:6134   */\n  mstore\n    /* \"#utility.yul\":6022:6140   */\n  pop\n  pop\n  jump\t// out\n    /* \"#utility.yul\":6146:6368   */\ntag_11:\n    /* \"#utility.yul\":6239:6243   */\n  0x00\n    /* \"#utility.yul\":6277:6279   */\n  0x20\n    /* \"#utility.yul\":6266:6275   */\n  dup3\n    /* \"#utility.yul\":6262:6280   */\n  add\n    /* \"#utility.yul\":6254:6280   */\n  swap1\n  pop\n    /* \"#utility.yul\":6290:6361   */\n  tag_174\n    /* \"#utility.yul\":6358:6359   */\n  0x00\n    /* \"#utility.yul\":6347:6356   */\n  dup4\n    /* \"#utility.yul\":6343:6360   */\n  add\n    /* \"#utility.yul\":6334:6340   */\n  dup5\n    /* \"#utility.yul\":6290:6361   */\n  tag_81\n  jump\t// in\ntag_174:\n    /* \"#utility.yul\":6146:6368   */\n  swap3\n  swap2\n  pop\n  pop\n  jump\t// out\n    /* \"#utility.yul\":6374:6543   */\ntag_82:\n    /* \"#utility.yul\":6458:6469   */\n  0x00\n    /* \"#utility.yul\":6492:6498   */\n  dup3\n    /* \"#utility.yul\":6487:6490   */\n  dup3\n    /* \"#utility.yul\":6480:6499   */\n  mstore\n    /* \"#utility.yul\":6532:6536   */\n  0x20\n    /* \"#utility.yul\":6527:6530   */\n  dup3\n    /* \"#utility.yul\":6523:6537   */\n  add\n    /* \"#utility.yul\":6508:6537   */\n  swap1\n  pop\n    /* \"#utility.yul\":6374:6543   */\n  swap3\n  swap2\n  pop\n  pop\n  jump\t// out\n    /* \"#utility.yul\":6549:6729   */\ntag_83:\n    /* \"#utility.yul\":6689:6721   */\n  0x796f752073686f756c642073657420747275652072696768742074696d650000\n    /* \"#utility.yul\":6685:6686   */\n  0x00\n    /* \"#utility.yul\":6677:6683   */\n  dup3\n    /* \"#utility.yul\":6673:6687   */\n  add\n    /* \"#utility.yul\":6666:6722   */\n  mstore\n    /* \"#utility.yul\":6549:6729   */\n  pop\n  jump\t// out\n    /* \"#utility.yul\":6735:7101   */\ntag_84:\n    /* \"#utility.yul\":6877:6880   */\n  0x00\n    /* \"#utility.yul\":6898:6965   */\n  tag_178\n    /* \"#utility.yul\":6962:6964   */\n  0x1e\n    /* \"#utility.yul\":6957:6960   */\n  dup4\n    /* \"#utility.yul\":6898:6965   */\n  tag_82\n  jump\t// in\ntag_178:\n    /* \"#utility.yul\":6891:6965   */\n  swap2\n  pop\n    /* \"#utility.yul\":6974:7067   */\n  tag_179\n    /* \"#utility.yul\":7063:7066   */\n  dup3\n    /* \"#utility.yul\":6974:7067   */\n  tag_83\n  jump\t// in\ntag_179:\n    /* \"#utility.yul\":7092:7094   */\n  0x20\n    /* \"#utility.yul\":7087:7090   */\n  dup3\n    /* \"#utility.yul\":7083:7095   */\n  add\n    /* \"#utility.yul\":7076:7095   */\n  swap1\n  pop\n    /* \"#utility.yul\":6735:7101   */\n  swap2\n  swap1\n  pop\n  jump\t// out\n    /* \"#utility.yul\":7107:7526   */\ntag_19:\n    /* \"#utility.yul\":7273:7277   */\n  0x00\n    /* \"#utility.yul\":7311:7313   */\n  0x20\n    /* \"#utility.yul\":7300:7309   */\n  dup3\n    /* \"#utility.yul\":7296:7314   */\n  add\n    /* \"#utility.yul\":7288:7314   */\n  swap1\n  pop\n    /* \"#utility.yul\":7360:7369   */\n  dup2\n    /* \"#utility.yul\":7354:7358   */\n  dup2\n    /* \"#utility.yul\":7350:7370   */\n  sub\n    /* \"#utility.yul\":7346:7347   */\n  0x00\n    /* \"#utility.yul\":7335:7344   */\n  dup4\n    /* \"#utility.yul\":7331:7348   */\n  add\n    /* \"#utility.yul\":7324:7371   */\n  mstore\n    /* \"#utility.yul\":7388:7519   */\n  tag_181\n    /* \"#utility.yul\":7514:7518   */\n  dup2\n    /* \"#utility.yul\":7388:7519   */\n  tag_84\n  jump\t// in\ntag_181:\n    /* \"#utility.yul\":7380:7519   */\n  swap1\n  pop\n    /* \"#utility.yul\":7107:7526   */\n  swap2\n  swap1\n  pop\n  jump\t// out\n    /* \"#utility.yul\":7532:7631   */\ntag_85:\n    /* \"#utility.yul\":7584:7590   */\n  0x00\n    /* \"#utility.yul\":7618:7623   */\n  dup2\n    /* \"#utility.yul\":7612:7624   */\n  mload\n    /* \"#utility.yul\":7602:7624   */\n  swap1\n  pop\n    /* \"#utility.yul\":7532:7631   */\n  swap2\n  swap1\n  pop\n  jump\t// out\n    /* \"#utility.yul\":7637:7817   */\ntag_86:\n    /* \"#utility.yul\":7685:7762   */\n  0x4e487b7100000000000000000000000000000000000000000000000000000000\n    /* \"#utility.yul\":7682:7683   */\n  0x00\n    /* \"#utility.yul\":7675:7763   */\n  mstore\n    /* \"#utility.yul\":7782:7786   */\n  0x22\n    /* \"#utility.yul\":7779:7780   */\n  0x04\n    /* \"#utility.yul\":7772:7787   */\n  mstore\n    /* \"#utility.yul\":7806:7810   */\n  0x24\n    /* \"#utility.yul\":7803:7804   */\n  0x00\n    /* \"#utility.yul\":7796:7811   */\n  revert\n    /* \"#utility.yul\":7823:8143   */\ntag_52:\n    /* \"#utility.yul\":7867:7873   */\n  0x00\n    /* \"#utility.yul\":7904:7905   */\n  0x02\n    /* \"#utility.yul\":7898:7902   */\n  dup3\n    /* \"#utility.yul\":7894:7906   */\n  div\n    /* \"#utility.yul\":7884:7906   */\n  swap1\n  pop\n    /* \"#utility.yul\":7951:7952   */\n  0x01\n    /* \"#utility.yul\":7945:7949   */\n  dup3\n    /* \"#utility.yul\":7941:7953   */\n  and\n    /* \"#utility.yul\":7972:7990   */\n  dup1\n    /* \"#utility.yul\":7962:8043   */\n  tag_185\n  jumpi\n    /* \"#utility.yul\":8028:8032   */\n  0x7f\n    /* \"#utility.yul\":8020:8026   */\n  dup3\n    /* \"#utility.yul\":8016:8033   */\n  and\n    /* \"#utility.yul\":8006:8033   */\n  swap2\n  pop\n    /* \"#utility.yul\":7962:8043   */\ntag_185:\n    /* \"#utility.yul\":8090:8092   */\n  0x20\n    /* \"#utility.yul\":8082:8088   */\n  dup3\n    /* \"#utility.yul\":8079:8093   */\n  lt\n    /* \"#utility.yul\":8059:8077   */\n  dup2\n    /* \"#utility.yul\":8056:8094   */\n  sub\n    /* \"#utility.yul\":8053:8137   */\n  tag_186\n  jumpi\n    /* \"#utility.yul\":8109:8127   */\n  tag_187\n  tag_86\n  jump\t// in\ntag_187:\n    /* \"#utility.yul\":8053:8137   */\ntag_186:\n    /* \"#utility.yul\":7874:8143   */\n  pop\n    /* \"#utility.yul\":7823:8143   */\n  swap2\n  swap1\n  pop\n  jump\t// out\n    /* \"#utility.yul\":8149:8290   */\ntag_87:\n    /* \"#utility.yul\":8198:8202   */\n  0x00\n    /* \"#utility.yul\":8221:8224   */\n  dup2\n    /* \"#utility.yul\":8213:8224   */\n  swap1\n  pop\n    /* \"#utility.yul\":8244:8247   */\n  dup2\n    /* \"#utility.yul\":8241:8242   */\n  0x00\n    /* \"#utility.yul\":8234:8248   */\n  mstore\n    /* \"#utility.yul\":8278:8282   */\n  0x20\n    /* \"#utility.yul\":8275:8276   */\n  0x00\n    /* \"#utility.yul\":8265:8283   */\n  keccak256\n    /* \"#utility.yul\":8257:8283   */\n  swap1\n  pop\n    /* \"#utility.yul\":8149:8290   */\n  swap2\n  swap1\n  pop\n  jump\t// out\n    /* \"#utility.yul\":8296:8389   */\ntag_88:\n    /* \"#utility.yul\":8333:8339   */\n  0x00\n    /* \"#utility.yul\":8380:8382   */\n  0x20\n    /* \"#utility.yul\":8375:8377   */\n  0x1f\n    /* \"#utility.yul\":8368:8373   */\n  dup4\n    /* \"#utility.yul\":8364:8378   */\n  add\n    /* \"#utility.yul\":8360:8383   */\n  div\n    /* \"#utility.yul\":8350:8383   */\n  swap1\n  pop\n    /* \"#utility.yul\":8296:8389   */\n  swap2\n  swap1\n  pop\n  jump\t// out\n    /* \"#utility.yul\":8395:8502   */\ntag_89:\n    /* \"#utility.yul\":8439:8447   */\n  0x00\n    /* \"#utility.yul\":8489:8494   */\n  dup3\n    /* \"#utility.yul\":8483:8487   */\n  dup3\n    /* \"#utility.yul\":8479:8495   */\n  shl\n    /* \"#utility.yul\":8458:8495   */\n  swap1\n  pop\n    /* \"#utility.yul\":8395:8502   */\n  swap3\n  swap2\n  pop\n  pop\n  jump\t// out\n    /* \"#utility.yul\":8508:8901   */\ntag_90:\n    /* \"#utility.yul\":8577:8583   */\n  0x00\n    /* \"#utility.yul\":8627:8628   */\n  0x08\n    /* \"#utility.yul\":8615:8625   */\n  dup4\n    /* \"#utility.yul\":8611:8629   */\n  mul\n    /* \"#utility.yul\":8650:8747   */\n  tag_192\n    /* \"#utility.yul\":8680:8746   */\n  0xffffffffffffffffffffffffffffffffffffffffffffffffffffffffffffffff\n    /* \"#utility.yul\":8669:8678   */\n  dup3\n    /* \"#utility.yul\":8650:8747   */\n  tag_89\n  jump\t// in\ntag_192:\n    /* \"#utility.yul\":8768:8807   */\n  tag_193\n    /* \"#utility.yul\":8798:8806   */\n  dup7\n    /* \"#utility.yul\":8787:8796   */\n  dup4\n    /* \"#utility.yul\":8768:8807   */\n  tag_89\n  jump\t// in\ntag_193:\n    /* \"#utility.yul\":8756:8807   */\n  swap6\n  pop\n    /* \"#utility.yul\":8840:8844   */\n  dup1\n    /* \"#utility.yul\":8836:8845   */\n  not\n    /* \"#utility.yul\":8829:8834   */\n  dup5\n    /* \"#utility.yul\":8825:8846   */\n  and\n    /* \"#utility.yul\":8816:8846   */\n  swap4\n  pop\n    /* \"#utility.yul\":8889:8893   */\n  dup1\n    /* \"#utility.yul\":8879:8887   */\n  dup7\n    /* \"#utility.yul\":8875:8894   */\n  and\n    /* \"#utility.yul\":8868:8873   */\n  dup5\n    /* \"#utility.yul\":8865:8895   */\n  or\n    /* \"#utility.yul\":8855:8895   */\n  swap3\n  pop\n    /* \"#utility.yul\":8584:8901   */\n  pop\n  pop\n    /* \"#utility.yul\":8508:8901   */\n  swap4\n  swap3\n  pop\n  pop\n  pop\n  jump\t// out\n    /* \"#utility.yul\":8907:8967   */\ntag_91:\n    /* \"#utility.yul\":8935:8938   */\n  0x00\n    /* \"#utility.yul\":8956:8961   */\n  dup2\n    /* \"#utility.yul\":8949:8961   */\n  swap1\n  pop\n    /* \"#utility.yul\":8907:8967   */\n  swap2\n  swap1\n  pop\n  jump\t// out\n    /* \"#utility.yul\":8973:9115   */\ntag_92:\n    /* \"#utility.yul\":9023:9032   */\n  0x00\n    /* \"#utility.yul\":9056:9109   */\n  tag_196\n    /* \"#utility.yul\":9074:9108   */\n  tag_197\n    /* \"#utility.yul\":9083:9107   */\n  tag_198\n    /* \"#utility.yul\":9101:9106   */\n  dup5\n    /* \"#utility.yul\":9083:9107   */\n  tag_76\n  jump\t// in\ntag_198:\n    /* \"#utility.yul\":9074:9108   */\n  tag_91\n  jump\t// in\ntag_197:\n    /* \"#utility.yul\":9056:9109   */\n  tag_76\n  jump\t// in\ntag_196:\n    /* \"#utility.yul\":9043:9109   */\n  swap1\n  pop\n    /* \"#utility.yul\":8973:9115   */\n  swap2\n  swap1\n  pop\n  jump\t// out\n    /* \"#utility.yul\":9121:9196   */\ntag_93:\n    /* \"#utility.yul\":9164:9167   */\n  0x00\n    /* \"#utility.yul\":9185:9190   */\n  dup2\n    /* \"#utility.yul\":9178:9190   */\n  swap1\n  pop\n    /* \"#utility.yul\":9121:9196   */\n  swap2\n  swap1\n  pop\n  jump\t// out\n    /* \"#utility.yul\":9202:9471   */\ntag_94:\n    /* \"#utility.yul\":9312:9351   */\n  tag_201\n    /* \"#utility.yul\":9343:9350   */\n  dup4\n    /* \"#utility.yul\":9312:9351   */\n  tag_92\n  jump\t// in\ntag_201:\n    /* \"#utility.yul\":9373:9464   */\n  tag_202\n    /* \"#utility.yul\":9422:9463   */\n  tag_203\n    /* \"#utility.yul\":9446:9462   */\n  dup3\n    /* \"#utility.yul\":9422:9463   */\n  tag_93\n  jump\t// in\ntag_203:\n    /* \"#utility.yul\":9414:9420   */\n  dup5\n    /* \"#utility.yul\":9407:9411   */\n  dup5\n    /* \"#utility.yul\":9401:9412   */\n  sload\n    /* \"#utility.yul\":9373:9464   */\n  tag_90\n  jump\t// in\ntag_202:\n    /* \"#utility.yul\":9367:9371   */\n  dup3\n    /* \"#utility.yul\":9360:9465   */\n  sstore\n    /* \"#utility.yul\":9278:9471   */\n  pop\n    /* \"#utility.yul\":9202:9471   */\n  pop\n  pop\n  pop\n  jump\t// out\n    /* \"#utility.yul\":9477:9550   */\ntag_95:\n    /* \"#utility.yul\":9522:9525   */\n  0x00\n    /* \"#utility.yul\":9477:9550   */\n  swap1\n  jump\t// out\n    /* \"#utility.yul\":9556:9745   */\ntag_96:\n    /* \"#utility.yul\":9633:9665   */\n  tag_206\n  tag_95\n  jump\t// in\ntag_206:\n    /* \"#utility.yul\":9674:9739   */\n  tag_207\n    /* \"#utility.yul\":9732:9738   */\n  dup2\n    /* \"#utility.yul\":9724:9730   */\n  dup5\n    /* \"#utility.yul\":9718:9722   */\n  dup5\n    /* \"#utility.yul\":9674:9739   */\n  tag_94\n  jump\t// in\ntag_207:\n    /* \"#utility.yul\":9609:9745   */\n  pop\n    /* \"#utility.yul\":9556:9745   */\n  pop\n  pop\n  jump\t// out\n    /* \"#utility.yul\":9751:9937   */\ntag_97:\n    /* \"#utility.yul\":9811:9931   */\ntag_209:\n    /* \"#utility.yul\":9828:9831   */\n  dup2\n    /* \"#utility.yul\":9821:9826   */\n  dup2\n    /* \"#utility.yul\":9818:9832   */\n  lt\n    /* \"#utility.yul\":9811:9931   */\n  iszero\n  tag_211\n  jumpi\n    /* \"#utility.yul\":9882:9921   */\n  tag_212\n    /* \"#utility.yul\":9919:9920   */\n  0x00\n    /* \"#utility.yul\":9912:9917   */\n  dup3\n    /* \"#utility.yul\":9882:9921   */\n  tag_96\n  jump\t// in\ntag_212:\n    /* \"#utility.yul\":9855:9856   */\n  0x01\n    /* \"#utility.yul\":9848:9853   */\n  dup2\n    /* \"#utility.yul\":9844:9857   */\n  add\n    /* \"#utility.yul\":9835:9857   */\n  swap1\n  pop\n    /* \"#utility.yul\":9811:9931   */\n  jump(tag_209)\ntag_211:\n    /* \"#utility.yul\":9751:9937   */\n  pop\n  pop\n  jump\t// out\n    /* \"#utility.yul\":9943:10486   */\ntag_98:\n    /* \"#utility.yul\":10044:10046   */\n  0x1f\n    /* \"#utility.yul\":10039:10042   */\n  dup3\n    /* \"#utility.yul\":10036:10047   */\n  gt\n    /* \"#utility.yul\":10033:10479   */\n  iszero\n  tag_214\n  jumpi\n    /* \"#utility.yul\":10078:10116   */\n  tag_215\n    /* \"#utility.yul\":10110:10115   */\n  dup2\n    /* \"#utility.yul\":10078:10116   */\n  tag_87\n  jump\t// in\ntag_215:\n    /* \"#utility.yul\":10162:10191   */\n  tag_216\n    /* \"#utility.yul\":10180:10190   */\n  dup5\n    /* \"#utility.yul\":10162:10191   */\n  tag_88\n  jump\t// in\ntag_216:\n    /* \"#utility.yul\":10152:10160   */\n  dup2\n    /* \"#utility.yul\":10148:10192   */\n  add\n    /* \"#utility.yul\":10345:10347   */\n  0x20\n    /* \"#utility.yul\":10333:10343   */\n  dup6\n    /* \"#utility.yul\":10330:10348   */\n  lt\n    /* \"#utility.yul\":10327:10376   */\n  iszero\n  tag_217\n  jumpi\n    /* \"#utility.yul\":10366:10374   */\n  dup2\n    /* \"#utility.yul\":10351:10374   */\n  swap1\n  pop\n    /* \"#utility.yul\":10327:10376   */\ntag_217:\n    /* \"#utility.yul\":10389:10469   */\n  tag_218\n    /* \"#utility.yul\":10445:10467   */\n  tag_219\n    /* \"#utility.yul\":10463:10466   */\n  dup6\n    /* \"#utility.yul\":10445:10467   */\n  tag_88\n  jump\t// in\ntag_219:\n    /* \"#utility.yul\":10435:10443   */\n  dup4\n    /* \"#utility.yul\":10431:10468   */\n  add\n    /* \"#utility.yul\":10418:10429   */\n  dup3\n    /* \"#utility.yul\":10389:10469   */\n  tag_97\n  jump\t// in\ntag_218:\n    /* \"#utility.yul\":10048:10479   */\n  pop\n  pop\n    /* \"#utility.yul\":10033:10479   */\ntag_214:\n    /* \"#utility.yul\":9943:10486   */\n  pop\n  pop\n  pop\n  jump\t// out\n    /* \"#utility.yul\":10492:10609   */\ntag_99:\n    /* \"#utility.yul\":10546:10554   */\n  0x00\n    /* \"#utility.yul\":10596:10601   */\n  dup3\n    /* \"#utility.yul\":10590:10594   */\n  dup3\n    /* \"#utility.yul\":10586:10602   */\n  shr\n    /* \"#utility.yul\":10565:10602   */\n  swap1\n  pop\n    /* \"#utility.yul\":10492:10609   */\n  swap3\n  swap2\n  pop\n  pop\n  jump\t// out\n    /* \"#utility.yul\":10615:10784   */\ntag_100:\n    /* \"#utility.yul\":10659:10665   */\n  0x00\n    /* \"#utility.yul\":10692:10743   */\n  tag_222\n    /* \"#utility.yul\":10740:10741   */\n  0x00\n    /* \"#utility.yul\":10736:10742   */\n  not\n    /* \"#utility.yul\":10728:10733   */\n  dup5\n    /* \"#utility.yul\":10725:10726   */\n  0x08\n    /* \"#utility.yul\":10721:10734   */\n  mul\n    /* \"#utility.yul\":10692:10743   */\n  tag_99\n  jump\t// in\ntag_222:\n    /* \"#utility.yul\":10688:10744   */\n  not\n    /* \"#utility.yul\":10773:10777   */\n  dup1\n    /* \"#utility.yul\":10767:10771   */\n  dup4\n    /* \"#utility.yul\":10763:10778   */\n  and\n    /* \"#utility.yul\":10753:10778   */\n  swap2\n  pop\n    /* \"#utility.yul\":10666:10784   */\n  pop\n    /* \"#utility.yul\":10615:10784   */\n  swap3\n  swap2\n  pop\n  pop\n  jump\t// out\n    /* \"#utility.yul\":10789:11084   */\ntag_101:\n    /* \"#utility.yul\":10865:10869   */\n  0x00\n    /* \"#utility.yul\":11011:11040   */\n  tag_224\n    /* \"#utility.yul\":11036:11039   */\n  dup4\n    /* \"#utility.yul\":11030:11034   */\n  dup4\n    /* \"#utility.yul\":11011:11040   */\n  tag_100\n  jump\t// in\ntag_224:\n    /* \"#utility.yul\":11003:11040   */\n  swap2\n  pop\n    /* \"#utility.yul\":11073:11076   */\n  dup3\n    /* \"#utility.yul\":11070:11071   */\n  0x02\n    /* \"#utility.yul\":11066:11077   */\n  mul\n    /* \"#utility.yul\":11060:11064   */\n  dup3\n    /* \"#utility.yul\":11057:11078   */\n  or\n    /* \"#utility.yul\":11049:11078   */\n  swap1\n  pop\n    /* \"#utility.yul\":10789:11084   */\n  swap3\n  swap2\n  pop\n  pop\n  jump\t// out\n    /* \"#utility.yul\":11089:12484   */\ntag_44:\n    /* \"#utility.yul\":11206:11243   */\n  tag_226\n    /* \"#utility.yul\":11239:11242   */\n  dup3\n    /* \"#utility.yul\":11206:11243   */\n  tag_85\n  jump\t// in\ntag_226:\n    /* \"#utility.yul\":11308:11326   */\n  0xffffffffffffffff\n    /* \"#utility.yul\":11300:11306   */\n  dup2\n    /* \"#utility.yul\":11297:11327   */\n  gt\n    /* \"#utility.yul\":11294:11350   */\n  iszero\n  tag_227\n  jumpi\n    /* \"#utility.yul\":11330:11348   */\n  tag_228\n  tag_64\n  jump\t// in\ntag_228:\n    /* \"#utility.yul\":11294:11350   */\ntag_227:\n    /* \"#utility.yul\":11374:11412   */\n  tag_229\n    /* \"#utility.yul\":11406:11410   */\n  dup3\n    /* \"#utility.yul\":11400:11411   */\n  sload\n    /* \"#utility.yul\":11374:11412   */\n  tag_52\n  jump\t// in\ntag_229:\n    /* \"#utility.yul\":11459:11526   */\n  tag_230\n    /* \"#utility.yul\":11519:11525   */\n  dup3\n    /* \"#utility.yul\":11511:11517   */\n  dup3\n    /* \"#utility.yul\":11505:11509   */\n  dup6\n    /* \"#utility.yul\":11459:11526   */\n  tag_98\n  jump\t// in\ntag_230:\n    /* \"#utility.yul\":11553:11554   */\n  0x00\n    /* \"#utility.yul\":11577:11581   */\n  0x20\n    /* \"#utility.yul\":11564:11581   */\n  swap1\n  pop\n    /* \"#utility.yul\":11609:11611   */\n  0x1f\n    /* \"#utility.yul\":11601:11607   */\n  dup4\n    /* \"#utility.yul\":11598:11612   */\n  gt\n    /* \"#utility.yul\":11626:11627   */\n  0x01\n    /* \"#utility.yul\":11621:12239   */\n  dup2\n  eq\n  tag_232\n  jumpi\n    /* \"#utility.yul\":12283:12284   */\n  0x00\n    /* \"#utility.yul\":12300:12306   */\n  dup5\n    /* \"#utility.yul\":12297:12374   */\n  iszero\n  tag_233\n  jumpi\n    /* \"#utility.yul\":12349:12358   */\n  dup3\n    /* \"#utility.yul\":12344:12347   */\n  dup8\n    /* \"#utility.yul\":12340:12359   */\n  add\n    /* \"#utility.yul\":12334:12360   */\n  mload\n    /* \"#utility.yul\":12325:12360   */\n  swap1\n  pop\n    /* \"#utility.yul\":12297:12374   */\ntag_233:\n    /* \"#utility.yul\":12400:12467   */\n  tag_234\n    /* \"#utility.yul\":12460:12466   */\n  dup6\n    /* \"#utility.yul\":12453:12458   */\n  dup3\n    /* \"#utility.yul\":12400:12467   */\n  tag_101\n  jump\t// in\ntag_234:\n    /* \"#utility.yul\":12394:12398   */\n  dup7\n    /* \"#utility.yul\":12387:12468   */\n  sstore\n    /* \"#utility.yul\":12256:12478   */\n  pop\n    /* \"#utility.yul\":11591:12478   */\n  jump(tag_231)\n    /* \"#utility.yul\":11621:12239   */\ntag_232:\n    /* \"#utility.yul\":11673:11677   */\n  0x1f\n    /* \"#utility.yul\":11669:11678   */\n  not\n    /* \"#utility.yul\":11661:11667   */\n  dup5\n    /* \"#utility.yul\":11657:11679   */\n  and\n    /* \"#utility.yul\":11707:11744   */\n  tag_235\n    /* \"#utility.yul\":11739:11743   */\n  dup7\n    /* \"#utility.yul\":11707:11744   */\n  tag_87\n  jump\t// in\ntag_235:\n    /* \"#utility.yul\":11766:11767   */\n  0x00\n    /* \"#utility.yul\":11780:11988   */\ntag_236:\n    /* \"#utility.yul\":11794:11801   */\n  dup3\n    /* \"#utility.yul\":11791:11792   */\n  dup2\n    /* \"#utility.yul\":11788:11802   */\n  lt\n    /* \"#utility.yul\":11780:11988   */\n  iszero\n  tag_238\n  jumpi\n    /* \"#utility.yul\":11873:11882   */\n  dup5\n    /* \"#utility.yul\":11868:11871   */\n  dup10\n    /* \"#utility.yul\":11864:11883   */\n  add\n    /* \"#utility.yul\":11858:11884   */\n  mload\n    /* \"#utility.yul\":11850:11856   */\n  dup3\n    /* \"#utility.yul\":11843:11885   */\n  sstore\n    /* \"#utility.yul\":11924:11925   */\n  0x01\n    /* \"#utility.yul\":11916:11922   */\n  dup3\n    /* \"#utility.yul\":11912:11926   */\n  add\n    /* \"#utility.yul\":11902:11926   */\n  swap2\n  pop\n    /* \"#utility.yul\":11971:11973   */\n  0x20\n    /* \"#utility.yul\":11960:11969   */\n  dup6\n    /* \"#utility.yul\":11956:11974   */\n  add\n    /* \"#utility.yul\":11943:11974   */\n  swap5\n  pop\n    /* \"#utility.yul\":11817:11821   */\n  0x20\n    /* \"#utility.yul\":11814:11815   */\n  dup2\n    /* \"#utility.yul\":11810:11822   */\n  add\n    /* \"#utility.yul\":11805:11822   */\n  swap1\n  pop\n    /* \"#utility.yul\":11780:11988   */\n  jump(tag_236)\ntag_238:\n    /* \"#utility.yul\":12016:12022   */\n  dup7\n    /* \"#utility.yul\":12007:12014   */\n  dup4\n    /* \"#utility.yul\":12004:12023   */\n  lt\n    /* \"#utility.yul\":12001:12180   */\n  iszero\n  tag_239\n  jumpi\n    /* \"#utility.yul\":12074:12083   */\n  dup5\n    /* \"#utility.yul\":12069:12072   */\n  dup10\n    /* \"#utility.yul\":12065:12084   */\n  add\n    /* \"#utility.yul\":12059:12085   */\n  mload\n    /* \"#utility.yul\":12117:12165   */\n  tag_240\n    /* \"#utility.yul\":12159:12163   */\n  0x1f\n    /* \"#utility.yul\":12151:12157   */\n  dup10\n    /* \"#utility.yul\":12147:12164   */\n  and\n    /* \"#utility.yul\":12136:12145   */\n  dup3\n    /* \"#utility.yul\":12117:12165   */\n  tag_100\n  jump\t// in\ntag_240:\n    /* \"#utility.yul\":12109:12115   */\n  dup4\n    /* \"#utility.yul\":12102:12166   */\n  sstore\n    /* \"#utility.yul\":12024:12180   */\n  pop\n    /* \"#utility.yul\":12001:12180   */\ntag_239:\n    /* \"#utility.yul\":12226:12227   */\n  0x01\n    /* \"#utility.yul\":12222:12223   */\n  0x02\n    /* \"#utility.yul\":12214:12220   */\n  dup9\n    /* \"#utility.yul\":12210:12224   */\n  mul\n    /* \"#utility.yul\":12206:12228   */\n  add\n    /* \"#utility.yul\":12200:12204   */\n  dup9\n    /* \"#utility.yul\":12193:12229   */\n  sstore\n    /* \"#utility.yul\":11628:12239   */\n  pop\n  pop\n  pop\n    /* \"#utility.yul\":11591:12478   */\ntag_231:\n  pop\n    /* \"#utility.yul\":11181:12484   */\n  pop\n  pop\n  pop\n    /* \"#utility.yul\":11089:12484   */\n  pop\n  pop\n  jump\t// out\n    /* \"github\\xe5\\xae\\x9e\\xe6\\x88\\x98\\xe9\\xa1\\xb9\\xe7\\x9b\\xae/github\\xe5\\xae\\x9e\\xe6\\x88\\x98/game.sol\":112:3201  contract Game is Ownable{... */\ntag_20:\n  dataSize(sub_0)\n  dup1\n  dataOffset(sub_0)\n  0x00\n  codecopy\n  0x00\n  return\nstop\n\nsub_0: assembly {\n        /* \"github\\xe5\\xae\\x9e\\xe6\\x88\\x98\\xe9\\xa1\\xb9\\xe7\\x9b\\xae/github\\xe5\\xae\\x9e\\xe6\\x88\\x98/game.sol\":112:3201  contract Game is Ownable{... */\n      mstore(0x40, 0x80)\n      jumpi(tag_1, lt(calldatasize, 0x04))\n      shr(0xe0, calldataload(0x00))\n      dup1\n      0x8da5cb5b\n      gt\n      tag_20\n      jumpi\n      dup1\n      0xc16d3180\n      gt\n      tag_21\n      jumpi\n      dup1\n      0xc16d3180\n      eq\n      tag_15\n      jumpi\n      dup1\n      0xddca3f43\n      eq\n      tag_16\n      jumpi\n      dup1\n      0xf2fde38b\n      eq\n      tag_17\n      jumpi\n      dup1\n      0xf4245d6c\n      eq\n      tag_18\n      jumpi\n      dup1\n      0xf851a440\n      eq\n      tag_19\n      jumpi\n      jump(tag_2)\n    tag_21:\n      dup1\n      0x8da5cb5b\n      eq\n      tag_11\n      jumpi\n      dup1\n      0x94ba859f\n      eq\n      tag_12\n      jumpi\n      dup1\n      0xa5843f8d\n      eq\n      tag_13\n      jumpi\n      dup1\n      0xc0f80921\n      eq\n      tag_14\n      jumpi\n      jump(tag_2)\n    tag_20:\n      dup1\n      0x3f5d8056\n      gt\n      tag_22\n      jumpi\n      dup1\n      0x3f5d8056\n      eq\n      tag_7\n      jumpi\n      dup1\n      0x5b565409\n      eq\n      tag_8\n      jumpi\n      dup1\n      0x715018a6\n      eq\n      tag_9\n      jumpi\n      dup1\n      0x718e6302\n      eq\n      tag_10\n      jumpi\n      jump(tag_2)\n    tag_22:\n      dup1\n      0x08e9daa5\n      eq\n      tag_3\n      jumpi\n      dup1\n      0x29ae3cc3\n      eq\n      tag_4\n      jumpi\n      dup1\n      0x29dcb0cf\n      eq\n      tag_5\n      jumpi\n      dup1\n      0x34330586\n      eq\n      tag_6\n      jumpi\n      jump(tag_2)\n    tag_1:\n      jumpi(tag_2, calldatasize)\n      stop\n    tag_2:\n      0x00\n      dup1\n      revert\n        /* \"github\\xe5\\xae\\x9e\\xe6\\x88\\x98\\xe9\\xa1\\xb9\\xe7\\x9b\\xae/github\\xe5\\xae\\x9e\\xe6\\x88\\x98/game.sol\":382:460  string[] public  countries = [\"GERMANY\", \"FRANCH\", \"CHINA\", \"BRIZAL\", \"KOREA\"] */\n    tag_3:\n      callvalue\n      dup1\n      iszero\n      tag_25\n      jumpi\n      0x00\n      dup1\n      revert\n    tag_25:\n      pop\n      tag_26\n      0x04\n      dup1\n      calldatasize\n      sub\n      dup2\n      add\n      swap1\n      tag_27\n      swap2\n      swap1\n      tag_28\n      jump\t// in\n    tag_27:\n      tag_29\n      jump\t// in\n    tag_26:\n      mload(0x40)\n      tag_30\n      swap2\n      swap1\n      tag_31\n      jump\t// in\n    tag_30:\n      mload(0x40)\n      dup1\n      swap2\n      sub\n      swap1\n      return\n        /* \"github\\xe5\\xae\\x9e\\xe6\\x88\\x98\\xe9\\xa1\\xb9\\xe7\\x9b\\xae/github\\xe5\\xae\\x9e\\xe6\\x88\\x98/game.sol\":2807:2969  function getCountryPlayters(uint256 _round,string memory _country) public view returns(uint256){... */\n    tag_4:\n      callvalue\n      dup1\n      iszero\n      tag_32\n      jumpi\n      0x00\n      dup1\n      revert\n    tag_32:\n      pop\n      tag_33\n      0x04\n      dup1\n      calldatasize\n      sub\n      dup2\n      add\n      swap1\n      tag_34\n      swap2\n      swap1\n      tag_35\n      jump\t// in\n    tag_34:\n      tag_36\n      jump\t// in\n    tag_33:\n      mload(0x40)\n      tag_37\n      swap2\n      swap1\n      tag_38\n      jump\t// in\n    tag_37:\n      mload(0x40)\n      dup1\n      swap2\n      sub\n      swap1\n      return\n        /* \"github\\xe5\\xae\\x9e\\xe6\\x88\\x98\\xe9\\xa1\\xb9\\xe7\\x9b\\xae/github\\xe5\\xae\\x9e\\xe6\\x88\\x98/game.sol\":282:305  uint256 public deadline */\n    tag_5:\n      callvalue\n      dup1\n      iszero\n      tag_39\n      jumpi\n      0x00\n      dup1\n      revert\n    tag_39:\n      pop\n      tag_40\n      tag_41\n      jump\t// in\n    tag_40:\n      mload(0x40)\n      tag_42\n      swap2\n      swap1\n      tag_38\n      jump\t// in\n    tag_42:\n      mload(0x40)\n      dup1\n      swap2\n      sub\n      swap1\n      return\n        /* \"github\\xe5\\xae\\x9e\\xe6\\x88\\x98\\xe9\\xa1\\xb9\\xe7\\x9b\\xae/github\\xe5\\xae\\x9e\\xe6\\x88\\x98/game.sol\":683:730  mapping(address => uint256) public winnerVaults */\n    tag_6:\n      callvalue\n      dup1\n      iszero\n      tag_43\n      jumpi\n      0x00\n      dup1\n      revert\n    tag_43:\n      pop\n      tag_44\n      0x04\n      dup1\n      calldatasize\n      sub\n      dup2\n      add\n      swap1\n      tag_45\n      swap2\n      swap1\n      tag_46\n      jump\t// in\n    tag_45:\n      tag_47\n      jump\t// in\n    tag_44:\n      mload(0x40)\n      tag_48\n      swap2\n      swap1\n      tag_38\n      jump\t// in\n    tag_48:\n      mload(0x40)\n      dup1\n      swap2\n      sub\n      swap1\n      return\n        /* \"github\\xe5\\xae\\x9e\\xe6\\x88\\x98\\xe9\\xa1\\xb9\\xe7\\x9b\\xae/github\\xe5\\xae\\x9e\\xe6\\x88\\x98/game.sol\":230:254  uint256 public currRound */\n    tag_7:\n      callvalue\n      dup1\n      iszero\n      tag_49\n      jumpi\n      0x00\n      dup1\n      revert\n    tag_49:\n      pop\n      tag_50\n      tag_51\n      jump\t// in\n    tag_50:\n      mload(0x40)\n      tag_52\n      swap2\n      swap1\n      tag_38\n      jump\t// in\n    tag_52:\n      mload(0x40)\n      dup1\n      swap2\n      sub\n      swap1\n      return\n        /* \"github\\xe5\\xae\\x9e\\xe6\\x88\\x98\\xe9\\xa1\\xb9\\xe7\\x9b\\xae/github\\xe5\\xae\\x9e\\xe6\\x88\\x98/game.sol\":3025:3198  function getPlayerInfo(uint256 _round,string memory _country,address _player) public view returns(uint256){... */\n    tag_8:\n      callvalue\n      dup1\n      iszero\n      tag_53\n      jumpi\n      0x00\n      dup1\n      revert\n    tag_53:\n      pop\n      tag_54\n      0x04\n      dup1\n      calldatasize\n      sub\n      dup2\n      add\n      swap1\n      tag_55\n      swap2\n      swap1\n      tag_56\n      jump\t// in\n    tag_55:\n      tag_57\n      jump\t// in\n    tag_54:\n      mload(0x40)\n      tag_58\n      swap2\n      swap1\n      tag_38\n      jump\t// in\n    tag_58:\n      mload(0x40)\n      dup1\n      swap2\n      sub\n      swap1\n      return\n        /* \"@openzeppelin/contracts/access/Ownable.sol\":2293:2394  function renounceOwnership() public virtual onlyOwner {... */\n    tag_9:\n      callvalue\n      dup1\n      iszero\n      tag_59\n      jumpi\n      0x00\n      dup1\n      revert\n    tag_59:\n      pop\n      tag_60\n      tag_61\n      jump\t// in\n    tag_60:\n      stop\n        /* \"github\\xe5\\xae\\x9e\\xe6\\x88\\x98\\xe9\\xa1\\xb9\\xe7\\x9b\\xae/github\\xe5\\xae\\x9e\\xe6\\x88\\x98/game.sol\":1407:1913  function play(string memory _country) public payable  {... */\n    tag_10:\n      tag_62\n      0x04\n      dup1\n      calldatasize\n      sub\n      dup2\n      add\n      swap1\n      tag_63\n      swap2\n      swap1\n      tag_64\n      jump\t// in\n    tag_63:\n      tag_65\n      jump\t// in\n    tag_62:\n      stop\n        /* \"@openzeppelin/contracts/access/Ownable.sol\":1638:1723  function owner() public view virtual returns (address) {... */\n    tag_11:\n      callvalue\n      dup1\n      iszero\n      tag_66\n      jumpi\n      0x00\n      dup1\n      revert\n    tag_66:\n      pop\n      tag_67\n      tag_68\n      jump\t// in\n    tag_67:\n      mload(0x40)\n      tag_69\n      swap2\n      swap1\n      tag_70\n      jump\t// in\n    tag_69:\n      mload(0x40)\n      dup1\n      swap2\n      sub\n      swap1\n      return\n        /* \"github\\xe5\\xae\\x9e\\xe6\\x88\\x98\\xe9\\xa1\\xb9\\xe7\\x9b\\xae/github\\xe5\\xae\\x9e\\xe6\\x88\\x98/game.sol\":2661:2763  function getValueBalance() public view returns(uint256){... */\n    tag_12:\n      callvalue\n      dup1\n      iszero\n      tag_71\n      jumpi\n      0x00\n      dup1\n      revert\n    tag_71:\n      pop\n      tag_72\n      tag_73\n      jump\t// in\n    tag_72:\n      mload(0x40)\n      tag_74\n      swap2\n      swap1\n      tag_38\n      jump\t// in\n    tag_74:\n      mload(0x40)\n      dup1\n      swap2\n      sub\n      swap1\n      return\n        /* \"github\\xe5\\xae\\x9e\\xe6\\x88\\x98\\xe9\\xa1\\xb9\\xe7\\x9b\\xae/github\\xe5\\xae\\x9e\\xe6\\x88\\x98/game.sol\":2325:2626  function addCountry(string[] memory country) onlyOwner public {... */\n    tag_13:\n      callvalue\n      dup1\n      iszero\n      tag_75\n      jumpi\n      0x00\n      dup1\n      revert\n    tag_75:\n      pop\n      tag_76\n      0x04\n      dup1\n      calldatasize\n      sub\n      dup2\n      add\n      swap1\n      tag_77\n      swap2\n      swap1\n      tag_78\n      jump\t// in\n    tag_77:\n      tag_79\n      jump\t// in\n    tag_76:\n      stop\n        /* \"github\\xe5\\xae\\x9e\\xe6\\x88\\x98\\xe9\\xa1\\xb9\\xe7\\x9b\\xae/github\\xe5\\xae\\x9e\\xe6\\x88\\x98/game.sol\":482:543  mapping(uint256 => mapping(address => player)) public players */\n    tag_14:\n      callvalue\n      dup1\n      iszero\n      tag_80\n      jumpi\n      0x00\n      dup1\n      revert\n    tag_80:\n      pop\n      tag_81\n      0x04\n      dup1\n      calldatasize\n      sub\n      dup2\n      add\n      swap1\n      tag_82\n      swap2\n      swap1\n      tag_83\n      jump\t// in\n    tag_82:\n      tag_84\n      jump\t// in\n    tag_81:\n      mload(0x40)\n      tag_85\n      swap2\n      swap1\n      tag_86\n      jump\t// in\n    tag_85:\n      mload(0x40)\n      dup1\n      swap2\n      sub\n      swap1\n      return\n        /* \"github\\xe5\\xae\\x9e\\xe6\\x88\\x98\\xe9\\xa1\\xb9\\xe7\\x9b\\xae/github\\xe5\\xae\\x9e\\xe6\\x88\\x98/game.sol\":1921:2296  function winningCountry(string memory _country) onlyOwner external {... */\n    tag_15:\n      callvalue\n      dup1\n      iszero\n      tag_87\n      jumpi\n      0x00\n      dup1\n      revert\n    tag_87:\n      pop\n      tag_88\n      0x04\n      dup1\n      calldatasize\n      sub\n      dup2\n      add\n      swap1\n      tag_89\n      swap2\n      swap1\n      tag_64\n      jump\t// in\n    tag_89:\n      tag_90\n      jump\t// in\n    tag_88:\n      stop\n        /* \"github\\xe5\\xae\\x9e\\xe6\\x88\\x98\\xe9\\xa1\\xb9\\xe7\\x9b\\xae/github\\xe5\\xae\\x9e\\xe6\\x88\\x98/game.sol\":330:348  uint256 public fee */\n    tag_16:\n      callvalue\n      dup1\n      iszero\n      tag_91\n      jumpi\n      0x00\n      dup1\n      revert\n    tag_91:\n      pop\n      tag_92\n      tag_93\n      jump\t// in\n    tag_92:\n      mload(0x40)\n      tag_94\n      swap2\n      swap1\n      tag_38\n      jump\t// in\n    tag_94:\n      mload(0x40)\n      dup1\n      swap2\n      sub\n      swap1\n      return\n        /* \"@openzeppelin/contracts/access/Ownable.sol\":2543:2758  function transferOwnership(address newOwner) public virtual onlyOwner {... */\n    tag_17:\n      callvalue\n      dup1\n      iszero\n      tag_95\n      jumpi\n      0x00\n      dup1\n      revert\n    tag_95:\n      pop\n      tag_96\n      0x04\n      dup1\n      calldatasize\n      sub\n      dup2\n      add\n      swap1\n      tag_97\n      swap2\n      swap1\n      tag_46\n      jump\t// in\n    tag_97:\n      tag_98\n      jump\t// in\n    tag_96:\n      stop\n        /* \"github\\xe5\\xae\\x9e\\xe6\\x88\\x98\\xe9\\xa1\\xb9\\xe7\\x9b\\xae/github\\xe5\\xae\\x9e\\xe6\\x88\\x98/game.sol\":577:649  mapping(uint256 => mapping(string => address[])) public countryToAddress */\n    tag_18:\n      callvalue\n      dup1\n      iszero\n      tag_99\n      jumpi\n      0x00\n      dup1\n      revert\n    tag_99:\n      pop\n      tag_100\n      0x04\n      dup1\n      calldatasize\n      sub\n      dup2\n      add\n      swap1\n      tag_101\n      swap2\n      swap1\n      tag_102\n      jump\t// in\n    tag_101:\n      tag_103\n      jump\t// in\n    tag_100:\n      mload(0x40)\n      tag_104\n      swap2\n      swap1\n      tag_70\n      jump\t// in\n    tag_104:\n      mload(0x40)\n      dup1\n      swap2\n      sub\n      swap1\n      return\n        /* \"github\\xe5\\xae\\x9e\\xe6\\x88\\x98\\xe9\\xa1\\xb9\\xe7\\x9b\\xae/github\\xe5\\xae\\x9e\\xe6\\x88\\x98/game.sol\":182:202  address public admin */\n    tag_19:\n      callvalue\n      dup1\n      iszero\n      tag_105\n      jumpi\n      0x00\n      dup1\n      revert\n    tag_105:\n      pop\n      tag_106\n      tag_107\n      jump\t// in\n    tag_106:\n      mload(0x40)\n      tag_108\n      swap2\n      swap1\n      tag_70\n      jump\t// in\n    tag_108:\n      mload(0x40)\n      dup1\n      swap2\n      sub\n      swap1\n      return\n        /* \"github\\xe5\\xae\\x9e\\xe6\\x88\\x98\\xe9\\xa1\\xb9\\xe7\\x9b\\xae/github\\xe5\\xae\\x9e\\xe6\\x88\\x98/game.sol\":382:460  string[] public  countries = [\"GERMANY\", \"FRANCH\", \"CHINA\", \"BRIZAL\", \"KOREA\"] */\n    tag_29:\n      0x05\n      dup2\n      dup2\n      sload\n      dup2\n      lt\n      tag_109\n      jumpi\n      0x00\n      dup1\n      revert\n    tag_109:\n      swap1\n      0x00\n      mstore\n      keccak256(0x00, 0x20)\n      add\n      0x00\n      swap2\n      pop\n      swap1\n      pop\n      dup1\n      sload\n      tag_111\n      swap1\n      tag_112\n      jump\t// in\n    tag_111:\n      dup1\n      0x1f\n      add\n      0x20\n      dup1\n      swap2\n      div\n      mul\n      0x20\n      add\n      mload(0x40)\n      swap1\n      dup2\n      add\n      0x40\n      mstore\n      dup1\n      swap3\n      swap2\n      swap1\n      dup2\n      dup2\n      mstore\n      0x20\n      add\n      dup3\n      dup1\n      sload\n      tag_113\n      swap1\n      tag_112\n      jump\t// in\n    tag_113:\n      dup1\n      iszero\n      tag_114\n      jumpi\n      dup1\n      0x1f\n      lt\n      tag_115\n      jumpi\n      0x0100\n      dup1\n      dup4\n      sload\n      div\n      mul\n      dup4\n      mstore\n      swap2\n      0x20\n      add\n      swap2\n      jump(tag_114)\n    tag_115:\n      dup3\n      add\n      swap2\n      swap1\n      0x00\n      mstore\n      keccak256(0x00, 0x20)\n      swap1\n    tag_116:\n      dup2\n      sload\n      dup2\n      mstore\n      swap1\n      0x01\n      add\n      swap1\n      0x20\n      add\n      dup1\n      dup4\n      gt\n      tag_116\n      jumpi\n      dup3\n      swap1\n      sub\n      0x1f\n      and\n      dup3\n      add\n      swap2\n    tag_114:\n      pop\n      pop\n      pop\n      pop\n      pop\n      dup2\n      jump\t// out\n        /* \"github\\xe5\\xae\\x9e\\xe6\\x88\\x98\\xe9\\xa1\\xb9\\xe7\\x9b\\xae/github\\xe5\\xae\\x9e\\xe6\\x88\\x98/game.sol\":2807:2969  function getCountryPlayters(uint256 _round,string memory _country) public view returns(uint256){... */\n    tag_36:\n        /* \"github\\xe5\\xae\\x9e\\xe6\\x88\\x98\\xe9\\xa1\\xb9\\xe7\\x9b\\xae/github\\xe5\\xae\\x9e\\xe6\\x88\\x98/game.sol\":2894:2901  uint256 */\n      0x00\n        /* \"github\\xe5\\xae\\x9e\\xe6\\x88\\x98\\xe9\\xa1\\xb9\\xe7\\x9b\\xae/github\\xe5\\xae\\x9e\\xe6\\x88\\x98/game.sol\":2920:2936  countryToAddress */\n      0x07\n        /* \"github\\xe5\\xae\\x9e\\xe6\\x88\\x98\\xe9\\xa1\\xb9\\xe7\\x9b\\xae/github\\xe5\\xae\\x9e\\xe6\\x88\\x98/game.sol\":2920:2944  countryToAddress[_round] */\n      0x00\n        /* \"github\\xe5\\xae\\x9e\\xe6\\x88\\x98\\xe9\\xa1\\xb9\\xe7\\x9b\\xae/github\\xe5\\xae\\x9e\\xe6\\x88\\x98/game.sol\":2937:2943  _round */\n      dup5\n        /* \"github\\xe5\\xae\\x9e\\xe6\\x88\\x98\\xe9\\xa1\\xb9\\xe7\\x9b\\xae/github\\xe5\\xae\\x9e\\xe6\\x88\\x98/game.sol\":2920:2944  countryToAddress[_round] */\n      dup2\n      mstore\n      0x20\n      add\n      swap1\n      dup2\n      mstore\n      0x20\n      add\n      0x00\n      keccak256\n        /* \"github\\xe5\\xae\\x9e\\xe6\\x88\\x98\\xe9\\xa1\\xb9\\xe7\\x9b\\xae/github\\xe5\\xae\\x9e\\xe6\\x88\\x98/game.sol\":2945:2953  _country */\n      dup3\n        /* \"github\\xe5\\xae\\x9e\\xe6\\x88\\x98\\xe9\\xa1\\xb9\\xe7\\x9b\\xae/github\\xe5\\xae\\x9e\\xe6\\x88\\x98/game.sol\":2920:2954  countryToAddress[_round][_country] */\n      mload(0x40)\n      tag_118\n      swap2\n      swap1\n      tag_119\n      jump\t// in\n    tag_118:\n      swap1\n      dup2\n      mstore\n      0x20\n      add\n      mload(0x40)\n      dup1\n      swap2\n      sub\n      swap1\n      keccak256\n        /* \"github\\xe5\\xae\\x9e\\xe6\\x88\\x98\\xe9\\xa1\\xb9\\xe7\\x9b\\xae/github\\xe5\\xae\\x9e\\xe6\\x88\\x98/game.sol\":2920:2961  countryToAddress[_round][_country].length */\n      dup1\n      sload\n      swap1\n      pop\n        /* \"github\\xe5\\xae\\x9e\\xe6\\x88\\x98\\xe9\\xa1\\xb9\\xe7\\x9b\\xae/github\\xe5\\xae\\x9e\\xe6\\x88\\x98/game.sol\":2913:2961  return countryToAddress[_round][_country].length */\n      swap1\n      pop\n        /* \"github\\xe5\\xae\\x9e\\xe6\\x88\\x98\\xe9\\xa1\\xb9\\xe7\\x9b\\xae/github\\xe5\\xae\\x9e\\xe6\\x88\\x98/game.sol\":2807:2969  function getCountryPlayters(uint256 _round,string memory _country) public view returns(uint256){... */\n      swap3\n      swap2\n      pop\n      pop\n      jump\t// out\n        /* \"github\\xe5\\xae\\x9e\\xe6\\x88\\x98\\xe9\\xa1\\xb9\\xe7\\x9b\\xae/github\\xe5\\xae\\x9e\\xe6\\x88\\x98/game.sol\":282:305  uint256 public deadline */\n    tag_41:\n      sload(0x03)\n      dup2\n      jump\t// out\n        /* \"github\\xe5\\xae\\x9e\\xe6\\x88\\x98\\xe9\\xa1\\xb9\\xe7\\x9b\\xae/github\\xe5\\xae\\x9e\\xe6\\x88\\x98/game.sol\":683:730  mapping(address => uint256) public winnerVaults */\n    tag_47:\n      mstore(0x20, 0x08)\n      dup1\n      0x00\n      mstore\n      keccak256(0x00, 0x40)\n      0x00\n      swap2\n      pop\n      swap1\n      pop\n      sload\n      dup2\n      jump\t// out\n        /* \"github\\xe5\\xae\\x9e\\xe6\\x88\\x98\\xe9\\xa1\\xb9\\xe7\\x9b\\xae/github\\xe5\\xae\\x9e\\xe6\\x88\\x98/game.sol\":230:254  uint256 public currRound */\n    tag_51:\n      sload(0x02)\n      dup2\n      jump\t// out\n        /* \"github\\xe5\\xae\\x9e\\xe6\\x88\\x98\\xe9\\xa1\\xb9\\xe7\\x9b\\xae/github\\xe5\\xae\\x9e\\xe6\\x88\\x98/game.sol\":3025:3198  function getPlayerInfo(uint256 _round,string memory _country,address _player) public view returns(uint256){... */\n    tag_57:\n        /* \"github\\xe5\\xae\\x9e\\xe6\\x88\\x98\\xe9\\xa1\\xb9\\xe7\\x9b\\xae/github\\xe5\\xae\\x9e\\xe6\\x88\\x98/game.sol\":3123:3130  uint256 */\n      0x00\n        /* \"github\\xe5\\xae\\x9e\\xe6\\x88\\x98\\xe9\\xa1\\xb9\\xe7\\x9b\\xae/github\\xe5\\xae\\x9e\\xe6\\x88\\x98/game.sol\":3149:3156  players */\n      0x06\n        /* \"github\\xe5\\xae\\x9e\\xe6\\x88\\x98\\xe9\\xa1\\xb9\\xe7\\x9b\\xae/github\\xe5\\xae\\x9e\\xe6\\x88\\x98/game.sol\":3149:3164  players[_round] */\n      0x00\n        /* \"github\\xe5\\xae\\x9e\\xe6\\x88\\x98\\xe9\\xa1\\xb9\\xe7\\x9b\\xae/github\\xe5\\xae\\x9e\\xe6\\x88\\x98/game.sol\":3157:3163  _round */\n      dup6\n        /* \"github\\xe5\\xae\\x9e\\xe6\\x88\\x98\\xe9\\xa1\\xb9\\xe7\\x9b\\xae/github\\xe5\\xae\\x9e\\xe6\\x88\\x98/game.sol\":3149:3164  players[_round] */\n      dup2\n      mstore\n      0x20\n      add\n      swap1\n      dup2\n      mstore\n      0x20\n      add\n      0x00\n      keccak256\n        /* \"github\\xe5\\xae\\x9e\\xe6\\x88\\x98\\xe9\\xa1\\xb9\\xe7\\x9b\\xae/github\\xe5\\xae\\x9e\\xe6\\x88\\x98/game.sol\":3149:3173  players[_round][_player] */\n      0x00\n        /* \"github\\xe5\\xae\\x9e\\xe6\\x88\\x98\\xe9\\xa1\\xb9\\xe7\\x9b\\xae/github\\xe5\\xae\\x9e\\xe6\\x88\\x98/game.sol\":3165:3172  _player */\n      dup4\n        /* \"github\\xe5\\xae\\x9e\\xe6\\x88\\x98\\xe9\\xa1\\xb9\\xe7\\x9b\\xae/github\\xe5\\xae\\x9e\\xe6\\x88\\x98/game.sol\":3149:3173  players[_round][_player] */\n      0xffffffffffffffffffffffffffffffffffffffff\n      and\n      0xffffffffffffffffffffffffffffffffffffffff\n      and\n      dup2\n      mstore\n      0x20\n      add\n      swap1\n      dup2\n      mstore\n      0x20\n      add\n      0x00\n      keccak256\n        /* \"github\\xe5\\xae\\x9e\\xe6\\x88\\x98\\xe9\\xa1\\xb9\\xe7\\x9b\\xae/github\\xe5\\xae\\x9e\\xe6\\x88\\x98/game.sol\":3149:3180  players[_round][_player].counts */\n      0x01\n      add\n        /* \"github\\xe5\\xae\\x9e\\xe6\\x88\\x98\\xe9\\xa1\\xb9\\xe7\\x9b\\xae/github\\xe5\\xae\\x9e\\xe6\\x88\\x98/game.sol\":3181:3189  _country */\n      dup4\n        /* \"github\\xe5\\xae\\x9e\\xe6\\x88\\x98\\xe9\\xa1\\xb9\\xe7\\x9b\\xae/github\\xe5\\xae\\x9e\\xe6\\x88\\x98/game.sol\":3149:3190  players[_round][_player].counts[_country] */\n      mload(0x40)\n      tag_121\n      swap2\n      swap1\n      tag_119\n      jump\t// in\n    tag_121:\n      swap1\n      dup2\n      mstore\n      0x20\n      add\n      mload(0x40)\n      dup1\n      swap2\n      sub\n      swap1\n      keccak256\n      sload\n        /* \"github\\xe5\\xae\\x9e\\xe6\\x88\\x98\\xe9\\xa1\\xb9\\xe7\\x9b\\xae/github\\xe5\\xae\\x9e\\xe6\\x88\\x98/game.sol\":3142:3190  return players[_round][_player].counts[_country] */\n      swap1\n      pop\n        /* \"github\\xe5\\xae\\x9e\\xe6\\x88\\x98\\xe9\\xa1\\xb9\\xe7\\x9b\\xae/github\\xe5\\xae\\x9e\\xe6\\x88\\x98/game.sol\":3025:3198  function getPlayerInfo(uint256 _round,string memory _country,address _player) public view returns(uint256){... */\n      swap4\n      swap3\n      pop\n      pop\n      pop\n      jump\t// out\n        /* \"@openzeppelin/contracts/access/Ownable.sol\":2293:2394  function renounceOwnership() public virtual onlyOwner {... */\n    tag_61:\n        /* \"@openzeppelin/contracts/access/Ownable.sol\":1531:1544  _checkOwner() */\n      tag_123\n        /* \"@openzeppelin/contracts/access/Ownable.sol\":1531:1542  _checkOwner */\n      tag_124\n        /* \"@openzeppelin/contracts/access/Ownable.sol\":1531:1544  _checkOwner() */\n      jump\t// in\n    tag_123:\n        /* \"@openzeppelin/contracts/access/Ownable.sol\":2357:2387  _transferOwnership(address(0)) */\n      tag_126\n        /* \"@openzeppelin/contracts/access/Ownable.sol\":2384:2385  0 */\n      0x00\n        /* \"@openzeppelin/contracts/access/Ownable.sol\":2357:2375  _transferOwnership */\n      tag_127\n        /* \"@openzeppelin/contracts/access/Ownable.sol\":2357:2387  _transferOwnership(address(0)) */\n      jump\t// in\n    tag_126:\n        /* \"@openzeppelin/contracts/access/Ownable.sol\":2293:2394  function renounceOwnership() public virtual onlyOwner {... */\n      jump\t// out\n        /* \"github\\xe5\\xae\\x9e\\xe6\\x88\\x98\\xe9\\xa1\\xb9\\xe7\\x9b\\xae/github\\xe5\\xae\\x9e\\xe6\\x88\\x98/game.sol\":1407:1913  function play(string memory _country) public payable  {... */\n    tag_65:\n        /* \"github\\xe5\\xae\\x9e\\xe6\\x88\\x98\\xe9\\xa1\\xb9\\xe7\\x9b\\xae/github\\xe5\\xae\\x9e\\xe6\\x88\\x98/game.sol\":1518:1523  1 wei */\n      0x01\n        /* \"github\\xe5\\xae\\x9e\\xe6\\x88\\x98\\xe9\\xa1\\xb9\\xe7\\x9b\\xae/github\\xe5\\xae\\x9e\\xe6\\x88\\x98/game.sol\":1505:1514  msg.value */\n      callvalue\n        /* \"github\\xe5\\xae\\x9e\\xe6\\x88\\x98\\xe9\\xa1\\xb9\\xe7\\x9b\\xae/github\\xe5\\xae\\x9e\\xe6\\x88\\x98/game.sol\":1505:1523  msg.value >= 1 wei */\n      lt\n      iszero\n        /* \"github\\xe5\\xae\\x9e\\xe6\\x88\\x98\\xe9\\xa1\\xb9\\xe7\\x9b\\xae/github\\xe5\\xae\\x9e\\xe6\\x88\\x98/game.sol\":1497:1543  require(msg.value >= 1 wei,\"need input value\") */\n      tag_129\n      jumpi\n      mload(0x40)\n      0x08c379a000000000000000000000000000000000000000000000000000000000\n      dup2\n      mstore\n      0x04\n      add\n      tag_130\n      swap1\n      tag_131\n      jump\t// in\n    tag_130:\n      mload(0x40)\n      dup1\n      swap2\n      sub\n      swap1\n      revert\n    tag_129:\n        /* \"github\\xe5\\xae\\x9e\\xe6\\x88\\x98\\xe9\\xa1\\xb9\\xe7\\x9b\\xae/github\\xe5\\xae\\x9e\\xe6\\x88\\x98/game.sol\":1580:1588  deadline */\n      sload(0x03)\n        /* \"github\\xe5\\xae\\x9e\\xe6\\x88\\x98\\xe9\\xa1\\xb9\\xe7\\x9b\\xae/github\\xe5\\xae\\x9e\\xe6\\x88\\x98/game.sol\":1562:1577  block.timestamp */\n      timestamp\n        /* \"github\\xe5\\xae\\x9e\\xe6\\x88\\x98\\xe9\\xa1\\xb9\\xe7\\x9b\\xae/github\\xe5\\xae\\x9e\\xe6\\x88\\x98/game.sol\":1562:1588  block.timestamp < deadline */\n      lt\n        /* \"github\\xe5\\xae\\x9e\\xe6\\x88\\x98\\xe9\\xa1\\xb9\\xe7\\x9b\\xae/github\\xe5\\xae\\x9e\\xe6\\x88\\x98/game.sol\":1554:1602  require(block.timestamp < deadline,\"it is over\") */\n      tag_132\n      jumpi\n      mload(0x40)\n      0x08c379a000000000000000000000000000000000000000000000000000000000\n      dup2\n      mstore\n      0x04\n      add\n      tag_133\n      swap1\n      tag_134\n      jump\t// in\n    tag_133:\n      mload(0x40)\n      dup1\n      swap2\n      sub\n      swap1\n      revert\n    tag_132:\n        /* \"github\\xe5\\xae\\x9e\\xe6\\x88\\x98\\xe9\\xa1\\xb9\\xe7\\x9b\\xae/github\\xe5\\xae\\x9e\\xe6\\x88\\x98/game.sol\":1655:1671  countryToAddress */\n      0x07\n        /* \"github\\xe5\\xae\\x9e\\xe6\\x88\\x98\\xe9\\xa1\\xb9\\xe7\\x9b\\xae/github\\xe5\\xae\\x9e\\xe6\\x88\\x98/game.sol\":1655:1682  countryToAddress[currRound] */\n      0x00\n        /* \"github\\xe5\\xae\\x9e\\xe6\\x88\\x98\\xe9\\xa1\\xb9\\xe7\\x9b\\xae/github\\xe5\\xae\\x9e\\xe6\\x88\\x98/game.sol\":1672:1681  currRound */\n      sload(0x02)\n        /* \"github\\xe5\\xae\\x9e\\xe6\\x88\\x98\\xe9\\xa1\\xb9\\xe7\\x9b\\xae/github\\xe5\\xae\\x9e\\xe6\\x88\\x98/game.sol\":1655:1682  countryToAddress[currRound] */\n      dup2\n      mstore\n      0x20\n      add\n      swap1\n      dup2\n      mstore\n      0x20\n      add\n      0x00\n      keccak256\n        /* \"github\\xe5\\xae\\x9e\\xe6\\x88\\x98\\xe9\\xa1\\xb9\\xe7\\x9b\\xae/github\\xe5\\xae\\x9e\\xe6\\x88\\x98/game.sol\":1683:1691  _country */\n      dup2\n        /* \"github\\xe5\\xae\\x9e\\xe6\\x88\\x98\\xe9\\xa1\\xb9\\xe7\\x9b\\xae/github\\xe5\\xae\\x9e\\xe6\\x88\\x98/game.sol\":1655:1692  countryToAddress[currRound][_country] */\n      mload(0x40)\n      tag_135\n      swap2\n      swap1\n      tag_119\n      jump\t// in\n    tag_135:\n      swap1\n      dup2\n      mstore\n      0x20\n      add\n      mload(0x40)\n      dup1\n      swap2\n      sub\n      swap1\n      keccak256\n        /* \"github\\xe5\\xae\\x9e\\xe6\\x88\\x98\\xe9\\xa1\\xb9\\xe7\\x9b\\xae/github\\xe5\\xae\\x9e\\xe6\\x88\\x98/game.sol\":1698:1708  msg.sender */\n      caller\n        /* \"github\\xe5\\xae\\x9e\\xe6\\x88\\x98\\xe9\\xa1\\xb9\\xe7\\x9b\\xae/github\\xe5\\xae\\x9e\\xe6\\x88\\x98/game.sol\":1655:1709  countryToAddress[currRound][_country].push(msg.sender) */\n      swap1\n      dup1\n      0x01\n      dup2\n      sload\n      add\n      dup1\n      dup3\n      sstore\n      dup1\n      swap2\n      pop\n      pop\n      0x01\n      swap1\n      sub\n      swap1\n      0x00\n      mstore\n      keccak256(0x00, 0x20)\n      add\n      0x00\n      swap1\n      swap2\n      swap1\n      swap2\n      swap1\n      swap2\n      0x0100\n      exp\n      dup2\n      sload\n      dup2\n      0xffffffffffffffffffffffffffffffffffffffff\n      mul\n      not\n      and\n      swap1\n      dup4\n      0xffffffffffffffffffffffffffffffffffffffff\n      and\n      mul\n      or\n      swap1\n      sstore\n      pop\n        /* \"github\\xe5\\xae\\x9e\\xe6\\x88\\x98\\xe9\\xa1\\xb9\\xe7\\x9b\\xae/github\\xe5\\xae\\x9e\\xe6\\x88\\x98/game.sol\":1747:1769  player storage account */\n      0x00\n        /* \"github\\xe5\\xae\\x9e\\xe6\\x88\\x98\\xe9\\xa1\\xb9\\xe7\\x9b\\xae/github\\xe5\\xae\\x9e\\xe6\\x88\\x98/game.sol\":1772:1779  players */\n      0x06\n        /* \"github\\xe5\\xae\\x9e\\xe6\\x88\\x98\\xe9\\xa1\\xb9\\xe7\\x9b\\xae/github\\xe5\\xae\\x9e\\xe6\\x88\\x98/game.sol\":1772:1790  players[currRound] */\n      0x00\n        /* \"github\\xe5\\xae\\x9e\\xe6\\x88\\x98\\xe9\\xa1\\xb9\\xe7\\x9b\\xae/github\\xe5\\xae\\x9e\\xe6\\x88\\x98/game.sol\":1780:1789  currRound */\n      sload(0x02)\n        /* \"github\\xe5\\xae\\x9e\\xe6\\x88\\x98\\xe9\\xa1\\xb9\\xe7\\x9b\\xae/github\\xe5\\xae\\x9e\\xe6\\x88\\x98/game.sol\":1772:1790  players[currRound] */\n      dup2\n      mstore\n      0x20\n      add\n      swap1\n      dup2\n      mstore\n      0x20\n      add\n      0x00\n      keccak256\n        /* \"github\\xe5\\xae\\x9e\\xe6\\x88\\x98\\xe9\\xa1\\xb9\\xe7\\x9b\\xae/github\\xe5\\xae\\x9e\\xe6\\x88\\x98/game.sol\":1772:1802  players[currRound][msg.sender] */\n      0x00\n        /* \"github\\xe5\\xae\\x9e\\xe6\\x88\\x98\\xe9\\xa1\\xb9\\xe7\\x9b\\xae/github\\xe5\\xae\\x9e\\xe6\\x88\\x98/game.sol\":1791:1801  msg.sender */\n      caller\n        /* \"github\\xe5\\xae\\x9e\\xe6\\x88\\x98\\xe9\\xa1\\xb9\\xe7\\x9b\\xae/github\\xe5\\xae\\x9e\\xe6\\x88\\x98/game.sol\":1772:1802  players[currRound][msg.sender] */\n      0xffffffffffffffffffffffffffffffffffffffff\n      and\n      0xffffffffffffffffffffffffffffffffffffffff\n      and\n      dup2\n      mstore\n      0x20\n      add\n      swap1\n      dup2\n      mstore\n      0x20\n      add\n      0x00\n      keccak256\n        /* \"github\\xe5\\xae\\x9e\\xe6\\x88\\x98\\xe9\\xa1\\xb9\\xe7\\x9b\\xae/github\\xe5\\xae\\x9e\\xe6\\x88\\x98/game.sol\":1747:1802  player storage account = players[currRound][msg.sender] */\n      swap1\n      pop\n        /* \"github\\xe5\\xae\\x9e\\xe6\\x88\\x98\\xe9\\xa1\\xb9\\xe7\\x9b\\xae/github\\xe5\\xae\\x9e\\xe6\\x88\\x98/game.sol\":1842:1851  msg.value */\n      callvalue\n        /* \"github\\xe5\\xae\\x9e\\xe6\\x88\\x98\\xe9\\xa1\\xb9\\xe7\\x9b\\xae/github\\xe5\\xae\\x9e\\xe6\\x88\\x98/game.sol\":1815:1822  account */\n      dup2\n        /* \"github\\xe5\\xae\\x9e\\xe6\\x88\\x98\\xe9\\xa1\\xb9\\xe7\\x9b\\xae/github\\xe5\\xae\\x9e\\xe6\\x88\\x98/game.sol\":1815:1829  account.counts */\n      0x01\n      add\n        /* \"github\\xe5\\xae\\x9e\\xe6\\x88\\x98\\xe9\\xa1\\xb9\\xe7\\x9b\\xae/github\\xe5\\xae\\x9e\\xe6\\x88\\x98/game.sol\":1830:1838  _country */\n      dup4\n        /* \"github\\xe5\\xae\\x9e\\xe6\\x88\\x98\\xe9\\xa1\\xb9\\xe7\\x9b\\xae/github\\xe5\\xae\\x9e\\xe6\\x88\\x98/game.sol\":1815:1839  account.counts[_country] */\n      mload(0x40)\n      tag_137\n      swap2\n      swap1\n      tag_119\n      jump\t// in\n    tag_137:\n      swap1\n      dup2\n      mstore\n      0x20\n      add\n      mload(0x40)\n      dup1\n      swap2\n      sub\n      swap1\n      keccak256\n        /* \"github\\xe5\\xae\\x9e\\xe6\\x88\\x98\\xe9\\xa1\\xb9\\xe7\\x9b\\xae/github\\xe5\\xae\\x9e\\xe6\\x88\\x98/game.sol\":1815:1851  account.counts[_country] = msg.value */\n      dup2\n      swap1\n      sstore\n      pop\n        /* \"github\\xe5\\xae\\x9e\\xe6\\x88\\x98\\xe9\\xa1\\xb9\\xe7\\x9b\\xae/github\\xe5\\xae\\x9e\\xe6\\x88\\x98/game.sol\":1869:1904  Play(currRound,msg.sender,_country) */\n      0x4d235e55947e8bf611d22526452b03ff40852006ee0eccd36f7a07a257d6f10d\n        /* \"github\\xe5\\xae\\x9e\\xe6\\x88\\x98\\xe9\\xa1\\xb9\\xe7\\x9b\\xae/github\\xe5\\xae\\x9e\\xe6\\x88\\x98/game.sol\":1874:1883  currRound */\n      sload(0x02)\n        /* \"github\\xe5\\xae\\x9e\\xe6\\x88\\x98\\xe9\\xa1\\xb9\\xe7\\x9b\\xae/github\\xe5\\xae\\x9e\\xe6\\x88\\x98/game.sol\":1884:1894  msg.sender */\n      caller\n        /* \"github\\xe5\\xae\\x9e\\xe6\\x88\\x98\\xe9\\xa1\\xb9\\xe7\\x9b\\xae/github\\xe5\\xae\\x9e\\xe6\\x88\\x98/game.sol\":1895:1903  _country */\n      dup5\n        /* \"github\\xe5\\xae\\x9e\\xe6\\x88\\x98\\xe9\\xa1\\xb9\\xe7\\x9b\\xae/github\\xe5\\xae\\x9e\\xe6\\x88\\x98/game.sol\":1869:1904  Play(currRound,msg.sender,_country) */\n      mload(0x40)\n      tag_138\n      swap4\n      swap3\n      swap2\n      swap1\n      tag_139\n      jump\t// in\n    tag_138:\n      mload(0x40)\n      dup1\n      swap2\n      sub\n      swap1\n      log1\n        /* \"github\\xe5\\xae\\x9e\\xe6\\x88\\x98\\xe9\\xa1\\xb9\\xe7\\x9b\\xae/github\\xe5\\xae\\x9e\\xe6\\x88\\x98/game.sol\":1461:1913  {... */\n      pop\n        /* \"github\\xe5\\xae\\x9e\\xe6\\x88\\x98\\xe9\\xa1\\xb9\\xe7\\x9b\\xae/github\\xe5\\xae\\x9e\\xe6\\x88\\x98/game.sol\":1407:1913  function play(string memory _country) public payable  {... */\n      pop\n      jump\t// out\n        /* \"@openzeppelin/contracts/access/Ownable.sol\":1638:1723  function owner() public view virtual returns (address) {... */\n    tag_68:\n        /* \"@openzeppelin/contracts/access/Ownable.sol\":1684:1691  address */\n      0x00\n        /* \"@openzeppelin/contracts/access/Ownable.sol\":1710:1716  _owner */\n      dup1\n      0x00\n      swap1\n      sload\n      swap1\n      0x0100\n      exp\n      swap1\n      div\n      0xffffffffffffffffffffffffffffffffffffffff\n      and\n        /* \"@openzeppelin/contracts/access/Ownable.sol\":1703:1716  return _owner */\n      swap1\n      pop\n        /* \"@openzeppelin/contracts/access/Ownable.sol\":1638:1723  function owner() public view virtual returns (address) {... */\n      swap1\n      jump\t// out\n        /* \"github\\xe5\\xae\\x9e\\xe6\\x88\\x98\\xe9\\xa1\\xb9\\xe7\\x9b\\xae/github\\xe5\\xae\\x9e\\xe6\\x88\\x98/game.sol\":2661:2763  function getValueBalance() public view returns(uint256){... */\n    tag_73:\n        /* \"github\\xe5\\xae\\x9e\\xe6\\x88\\x98\\xe9\\xa1\\xb9\\xe7\\x9b\\xae/github\\xe5\\xae\\x9e\\xe6\\x88\\x98/game.sol\":2708:2715  uint256 */\n      0x00\n        /* \"github\\xe5\\xae\\x9e\\xe6\\x88\\x98\\xe9\\xa1\\xb9\\xe7\\x9b\\xae/github\\xe5\\xae\\x9e\\xe6\\x88\\x98/game.sol\":2734:2755  address(this).balance */\n      selfbalance\n        /* \"github\\xe5\\xae\\x9e\\xe6\\x88\\x98\\xe9\\xa1\\xb9\\xe7\\x9b\\xae/github\\xe5\\xae\\x9e\\xe6\\x88\\x98/game.sol\":2727:2755  return address(this).balance */\n      swap1\n      pop\n        /* \"github\\xe5\\xae\\x9e\\xe6\\x88\\x98\\xe9\\xa1\\xb9\\xe7\\x9b\\xae/github\\xe5\\xae\\x9e\\xe6\\x88\\x98/game.sol\":2661:2763  function getValueBalance() public view returns(uint256){... */\n      swap1\n      jump\t// out\n        /* \"github\\xe5\\xae\\x9e\\xe6\\x88\\x98\\xe9\\xa1\\xb9\\xe7\\x9b\\xae/github\\xe5\\xae\\x9e\\xe6\\x88\\x98/game.sol\":2325:2626  function addCountry(string[] memory country) onlyOwner public {... */\n    tag_79:\n        /* \"@openzeppelin/contracts/access/Ownable.sol\":1531:1544  _checkOwner() */\n      tag_143\n        /* \"@openzeppelin/contracts/access/Ownable.sol\":1531:1542  _checkOwner */\n      tag_124\n        /* \"@openzeppelin/contracts/access/Ownable.sol\":1531:1544  _checkOwner() */\n      jump\t// in\n    tag_143:\n        /* \"github\\xe5\\xae\\x9e\\xe6\\x88\\x98\\xe9\\xa1\\xb9\\xe7\\x9b\\xae/github\\xe5\\xae\\x9e\\xe6\\x88\\x98/game.sol\":2398:2406  uint len */\n      0x00\n        /* \"github\\xe5\\xae\\x9e\\xe6\\x88\\x98\\xe9\\xa1\\xb9\\xe7\\x9b\\xae/github\\xe5\\xae\\x9e\\xe6\\x88\\x98/game.sol\":2409:2416  country */\n      dup2\n        /* \"github\\xe5\\xae\\x9e\\xe6\\x88\\x98\\xe9\\xa1\\xb9\\xe7\\x9b\\xae/github\\xe5\\xae\\x9e\\xe6\\x88\\x98/game.sol\":2409:2423  country.length */\n      mload\n        /* \"github\\xe5\\xae\\x9e\\xe6\\x88\\x98\\xe9\\xa1\\xb9\\xe7\\x9b\\xae/github\\xe5\\xae\\x9e\\xe6\\x88\\x98/game.sol\":2398:2423  uint len = country.length */\n      swap1\n      pop\n        /* \"github\\xe5\\xae\\x9e\\xe6\\x88\\x98\\xe9\\xa1\\xb9\\xe7\\x9b\\xae/github\\xe5\\xae\\x9e\\xe6\\x88\\x98/game.sol\":2438:2444  uint i */\n      0x00\n        /* \"github\\xe5\\xae\\x9e\\xe6\\x88\\x98\\xe9\\xa1\\xb9\\xe7\\x9b\\xae/github\\xe5\\xae\\x9e\\xe6\\x88\\x98/game.sol\":2434:2609  for(uint i;i < len;){... */\n    tag_145:\n        /* \"github\\xe5\\xae\\x9e\\xe6\\x88\\x98\\xe9\\xa1\\xb9\\xe7\\x9b\\xae/github\\xe5\\xae\\x9e\\xe6\\x88\\x98/game.sol\":2449:2452  len */\n      dup2\n        /* \"github\\xe5\\xae\\x9e\\xe6\\x88\\x98\\xe9\\xa1\\xb9\\xe7\\x9b\\xae/github\\xe5\\xae\\x9e\\xe6\\x88\\x98/game.sol\":2445:2446  i */\n      dup2\n        /* \"github\\xe5\\xae\\x9e\\xe6\\x88\\x98\\xe9\\xa1\\xb9\\xe7\\x9b\\xae/github\\xe5\\xae\\x9e\\xe6\\x88\\x98/game.sol\":2445:2452  i < len */\n      lt\n        /* \"github\\xe5\\xae\\x9e\\xe6\\x88\\x98\\xe9\\xa1\\xb9\\xe7\\x9b\\xae/github\\xe5\\xae\\x9e\\xe6\\x88\\x98/game.sol\":2434:2609  for(uint i;i < len;){... */\n      iszero\n      tag_146\n      jumpi\n        /* \"github\\xe5\\xae\\x9e\\xe6\\x88\\x98\\xe9\\xa1\\xb9\\xe7\\x9b\\xae/github\\xe5\\xae\\x9e\\xe6\\x88\\x98/game.sol\":2469:2478  countries */\n      0x05\n        /* \"github\\xe5\\xae\\x9e\\xe6\\x88\\x98\\xe9\\xa1\\xb9\\xe7\\x9b\\xae/github\\xe5\\xae\\x9e\\xe6\\x88\\x98/game.sol\":2469:2485  countries.push() */\n      0x01\n      dup2\n      0x01\n      dup2\n      sload\n      add\n      dup1\n      dup3\n      sstore\n      dup1\n      swap2\n      pop\n      pop\n      sub\n      swap1\n      0x00\n      mstore\n      pop(keccak256(0x00, 0x20))\n      pop\n        /* \"github\\xe5\\xae\\x9e\\xe6\\x88\\x98\\xe9\\xa1\\xb9\\xe7\\x9b\\xae/github\\xe5\\xae\\x9e\\xe6\\x88\\x98/game.sol\":2579:2582  ++i */\n      dup1\n      0x01\n      add\n      swap1\n      pop\n        /* \"github\\xe5\\xae\\x9e\\xe6\\x88\\x98\\xe9\\xa1\\xb9\\xe7\\x9b\\xae/github\\xe5\\xae\\x9e\\xe6\\x88\\x98/game.sol\":2434:2609  for(uint i;i < len;){... */\n      jump(tag_145)\n    tag_146:\n      pop\n        /* \"github\\xe5\\xae\\x9e\\xe6\\x88\\x98\\xe9\\xa1\\xb9\\xe7\\x9b\\xae/github\\xe5\\xae\\x9e\\xe6\\x88\\x98/game.sol\":2387:2626  {... */\n      pop\n        /* \"github\\xe5\\xae\\x9e\\xe6\\x88\\x98\\xe9\\xa1\\xb9\\xe7\\x9b\\xae/github\\xe5\\xae\\x9e\\xe6\\x88\\x98/game.sol\":2325:2626  function addCountry(string[] memory country) onlyOwner public {... */\n      pop\n      jump\t// out\n        /* \"github\\xe5\\xae\\x9e\\xe6\\x88\\x98\\xe9\\xa1\\xb9\\xe7\\x9b\\xae/github\\xe5\\xae\\x9e\\xe6\\x88\\x98/game.sol\":482:543  mapping(uint256 => mapping(address => player)) public players */\n    tag_84:\n      mstore(0x20, 0x06)\n      dup2\n      0x00\n      mstore\n      mstore(0x20, keccak256(0x00, 0x40))\n      dup1\n      0x00\n      mstore\n      keccak256(0x00, 0x40)\n      0x00\n      swap2\n      pop\n      swap2\n      pop\n      pop\n      dup1\n      0x00\n      add\n      0x00\n      swap1\n      sload\n      swap1\n      0x0100\n      exp\n      swap1\n      div\n      0xff\n      and\n      swap1\n      pop\n      dup2\n      jump\t// out\n        /* \"github\\xe5\\xae\\x9e\\xe6\\x88\\x98\\xe9\\xa1\\xb9\\xe7\\x9b\\xae/github\\xe5\\xae\\x9e\\xe6\\x88\\x98/game.sol\":1921:2296  function winningCountry(string memory _country) onlyOwner external {... */\n    tag_90:\n        /* \"@openzeppelin/contracts/access/Ownable.sol\":1531:1544  _checkOwner() */\n      tag_150\n        /* \"@openzeppelin/contracts/access/Ownable.sol\":1531:1542  _checkOwner */\n      tag_124\n        /* \"@openzeppelin/contracts/access/Ownable.sol\":1531:1544  _checkOwner() */\n      jump\t// in\n    tag_150:\n        /* \"github\\xe5\\xae\\x9e\\xe6\\x88\\x98\\xe9\\xa1\\xb9\\xe7\\x9b\\xae/github\\xe5\\xae\\x9e\\xe6\\x88\\x98/game.sol\":2033:2064  address[] memory winner_account */\n      0x00\n        /* \"github\\xe5\\xae\\x9e\\xe6\\x88\\x98\\xe9\\xa1\\xb9\\xe7\\x9b\\xae/github\\xe5\\xae\\x9e\\xe6\\x88\\x98/game.sol\":2067:2083  countryToAddress */\n      0x07\n        /* \"github\\xe5\\xae\\x9e\\xe6\\x88\\x98\\xe9\\xa1\\xb9\\xe7\\x9b\\xae/github\\xe5\\xae\\x9e\\xe6\\x88\\x98/game.sol\":2067:2094  countryToAddress[currRound] */\n      0x00\n        /* \"github\\xe5\\xae\\x9e\\xe6\\x88\\x98\\xe9\\xa1\\xb9\\xe7\\x9b\\xae/github\\xe5\\xae\\x9e\\xe6\\x88\\x98/game.sol\":2084:2093  currRound */\n      sload(0x02)\n        /* \"github\\xe5\\xae\\x9e\\xe6\\x88\\x98\\xe9\\xa1\\xb9\\xe7\\x9b\\xae/github\\xe5\\xae\\x9e\\xe6\\x88\\x98/game.sol\":2067:2094  countryToAddress[currRound] */\n      dup2\n      mstore\n      0x20\n      add\n      swap1\n      dup2\n      mstore\n      0x20\n      add\n      0x00\n      keccak256\n        /* \"github\\xe5\\xae\\x9e\\xe6\\x88\\x98\\xe9\\xa1\\xb9\\xe7\\x9b\\xae/github\\xe5\\xae\\x9e\\xe6\\x88\\x98/game.sol\":2095:2103  _country */\n      dup3\n        /* \"github\\xe5\\xae\\x9e\\xe6\\x88\\x98\\xe9\\xa1\\xb9\\xe7\\x9b\\xae/github\\xe5\\xae\\x9e\\xe6\\x88\\x98/game.sol\":2067:2104  countryToAddress[currRound][_country] */\n      mload(0x40)\n      tag_152\n      swap2\n      swap1\n      tag_119\n      jump\t// in\n    tag_152:\n      swap1\n      dup2\n      mstore\n      0x20\n      add\n      mload(0x40)\n      dup1\n      swap2\n      sub\n      swap1\n      keccak256\n        /* \"github\\xe5\\xae\\x9e\\xe6\\x88\\x98\\xe9\\xa1\\xb9\\xe7\\x9b\\xae/github\\xe5\\xae\\x9e\\xe6\\x88\\x98/game.sol\":2033:2104  address[] memory winner_account = countryToAddress[currRound][_country] */\n      dup1\n      sload\n      dup1\n      0x20\n      mul\n      0x20\n      add\n      mload(0x40)\n      swap1\n      dup2\n      add\n      0x40\n      mstore\n      dup1\n      swap3\n      swap2\n      swap1\n      dup2\n      dup2\n      mstore\n      0x20\n      add\n      dup3\n      dup1\n      sload\n      dup1\n      iszero\n      tag_153\n      jumpi\n      0x20\n      mul\n      dup3\n      add\n      swap2\n      swap1\n      0x00\n      mstore\n      keccak256(0x00, 0x20)\n      swap1\n    tag_154:\n      dup2\n      0x00\n      swap1\n      sload\n      swap1\n      0x0100\n      exp\n      swap1\n      div\n      0xffffffffffffffffffffffffffffffffffffffff\n      and\n      0xffffffffffffffffffffffffffffffffffffffff\n      and\n      dup2\n      mstore\n      0x20\n      add\n      swap1\n      0x01\n      add\n      swap1\n      dup1\n      dup4\n      gt\n      tag_154\n      jumpi\n    tag_153:\n      pop\n      pop\n      pop\n      pop\n      pop\n      swap1\n      pop\n        /* \"github\\xe5\\xae\\x9e\\xe6\\x88\\x98\\xe9\\xa1\\xb9\\xe7\\x9b\\xae/github\\xe5\\xae\\x9e\\xe6\\x88\\x98/game.sol\":2117:2138  uint256 winnerBalance */\n      0x00\n        /* \"github\\xe5\\xae\\x9e\\xe6\\x88\\x98\\xe9\\xa1\\xb9\\xe7\\x9b\\xae/github\\xe5\\xae\\x9e\\xe6\\x88\\x98/game.sol\":2141:2158  getValueBalance() */\n      tag_155\n        /* \"github\\xe5\\xae\\x9e\\xe6\\x88\\x98\\xe9\\xa1\\xb9\\xe7\\x9b\\xae/github\\xe5\\xae\\x9e\\xe6\\x88\\x98/game.sol\":2141:2156  getValueBalance */\n      tag_73\n        /* \"github\\xe5\\xae\\x9e\\xe6\\x88\\x98\\xe9\\xa1\\xb9\\xe7\\x9b\\xae/github\\xe5\\xae\\x9e\\xe6\\x88\\x98/game.sol\":2141:2158  getValueBalance() */\n      jump\t// in\n    tag_155:\n        /* \"github\\xe5\\xae\\x9e\\xe6\\x88\\x98\\xe9\\xa1\\xb9\\xe7\\x9b\\xae/github\\xe5\\xae\\x9e\\xe6\\x88\\x98/game.sol\":2117:2158  uint256 winnerBalance = getValueBalance() */\n      swap1\n      pop\n        /* \"github\\xe5\\xae\\x9e\\xe6\\x88\\x98\\xe9\\xa1\\xb9\\xe7\\x9b\\xae/github\\xe5\\xae\\x9e\\xe6\\x88\\x98/game.sol\":2175:2181  uint i */\n      0x00\n        /* \"github\\xe5\\xae\\x9e\\xe6\\x88\\x98\\xe9\\xa1\\xb9\\xe7\\x9b\\xae/github\\xe5\\xae\\x9e\\xe6\\x88\\x98/game.sol\":2171:2289  for(uint i = 0 ; i< winner_account.length;){... */\n    tag_156:\n        /* \"github\\xe5\\xae\\x9e\\xe6\\x88\\x98\\xe9\\xa1\\xb9\\xe7\\x9b\\xae/github\\xe5\\xae\\x9e\\xe6\\x88\\x98/game.sol\":2191:2205  winner_account */\n      dup3\n        /* \"github\\xe5\\xae\\x9e\\xe6\\x88\\x98\\xe9\\xa1\\xb9\\xe7\\x9b\\xae/github\\xe5\\xae\\x9e\\xe6\\x88\\x98/game.sol\":2191:2212  winner_account.length */\n      mload\n        /* \"github\\xe5\\xae\\x9e\\xe6\\x88\\x98\\xe9\\xa1\\xb9\\xe7\\x9b\\xae/github\\xe5\\xae\\x9e\\xe6\\x88\\x98/game.sol\":2188:2189  i */\n      dup2\n        /* \"github\\xe5\\xae\\x9e\\xe6\\x88\\x98\\xe9\\xa1\\xb9\\xe7\\x9b\\xae/github\\xe5\\xae\\x9e\\xe6\\x88\\x98/game.sol\":2188:2212  i< winner_account.length */\n      lt\n        /* \"github\\xe5\\xae\\x9e\\xe6\\x88\\x98\\xe9\\xa1\\xb9\\xe7\\x9b\\xae/github\\xe5\\xae\\x9e\\xe6\\x88\\x98/game.sol\":2171:2289  for(uint i = 0 ; i< winner_account.length;){... */\n      iszero\n      tag_157\n      jumpi\n        /* \"github\\xe5\\xae\\x9e\\xe6\\x88\\x98\\xe9\\xa1\\xb9\\xe7\\x9b\\xae/github\\xe5\\xae\\x9e\\xe6\\x88\\x98/game.sol\":2259:2262  ++i */\n      dup1\n      0x01\n      add\n      swap1\n      pop\n        /* \"github\\xe5\\xae\\x9e\\xe6\\x88\\x98\\xe9\\xa1\\xb9\\xe7\\x9b\\xae/github\\xe5\\xae\\x9e\\xe6\\x88\\x98/game.sol\":2171:2289  for(uint i = 0 ; i< winner_account.length;){... */\n      jump(tag_156)\n    tag_157:\n      pop\n        /* \"github\\xe5\\xae\\x9e\\xe6\\x88\\x98\\xe9\\xa1\\xb9\\xe7\\x9b\\xae/github\\xe5\\xae\\x9e\\xe6\\x88\\x98/game.sol\":1988:2296  {... */\n      pop\n      pop\n        /* \"github\\xe5\\xae\\x9e\\xe6\\x88\\x98\\xe9\\xa1\\xb9\\xe7\\x9b\\xae/github\\xe5\\xae\\x9e\\xe6\\x88\\x98/game.sol\":1921:2296  function winningCountry(string memory _country) onlyOwner external {... */\n      pop\n      jump\t// out\n        /* \"github\\xe5\\xae\\x9e\\xe6\\x88\\x98\\xe9\\xa1\\xb9\\xe7\\x9b\\xae/github\\xe5\\xae\\x9e\\xe6\\x88\\x98/game.sol\":330:348  uint256 public fee */\n    tag_93:\n      sload(0x04)\n      dup2\n      jump\t// out\n        /* \"@openzeppelin/contracts/access/Ownable.sol\":2543:2758  function transferOwnership(address newOwner) public virtual onlyOwner {... */\n    tag_98:\n        /* \"@openzeppelin/contracts/access/Ownable.sol\":1531:1544  _checkOwner() */\n      tag_160\n        /* \"@openzeppelin/contracts/access/Ownable.sol\":1531:1542  _checkOwner */\n      tag_124\n        /* \"@openzeppelin/contracts/access/Ownable.sol\":1531:1544  _checkOwner() */\n      jump\t// in\n    tag_160:\n        /* \"@openzeppelin/contracts/access/Ownable.sol\":2647:2648  0 */\n      0x00\n        /* \"@openzeppelin/contracts/access/Ownable.sol\":2627:2649  newOwner == address(0) */\n      0xffffffffffffffffffffffffffffffffffffffff\n      and\n        /* \"@openzeppelin/contracts/access/Ownable.sol\":2627:2635  newOwner */\n      dup2\n        /* \"@openzeppelin/contracts/access/Ownable.sol\":2627:2649  newOwner == address(0) */\n      0xffffffffffffffffffffffffffffffffffffffff\n      and\n      sub\n        /* \"@openzeppelin/contracts/access/Ownable.sol\":2623:2714  if (newOwner == address(0)) {... */\n      tag_162\n      jumpi\n        /* \"@openzeppelin/contracts/access/Ownable.sol\":2700:2701  0 */\n      0x00\n        /* \"@openzeppelin/contracts/access/Ownable.sol\":2672:2703  OwnableInvalidOwner(address(0)) */\n      mload(0x40)\n      0x1e4fbdf700000000000000000000000000000000000000000000000000000000\n      dup2\n      mstore\n      0x04\n      add\n      tag_163\n      swap2\n      swap1\n      tag_70\n      jump\t// in\n    tag_163:\n      mload(0x40)\n      dup1\n      swap2\n      sub\n      swap1\n      revert\n        /* \"@openzeppelin/contracts/access/Ownable.sol\":2623:2714  if (newOwner == address(0)) {... */\n    tag_162:\n        /* \"@openzeppelin/contracts/access/Ownable.sol\":2723:2751  _transferOwnership(newOwner) */\n      tag_164\n        /* \"@openzeppelin/contracts/access/Ownable.sol\":2742:2750  newOwner */\n      dup2\n        /* \"@openzeppelin/contracts/access/Ownable.sol\":2723:2741  _transferOwnership */\n      tag_127\n        /* \"@openzeppelin/contracts/access/Ownable.sol\":2723:2751  _transferOwnership(newOwner) */\n      jump\t// in\n    tag_164:\n        /* \"@openzeppelin/contracts/access/Ownable.sol\":2543:2758  function transferOwnership(address newOwner) public virtual onlyOwner {... */\n      pop\n      jump\t// out\n        /* \"github\\xe5\\xae\\x9e\\xe6\\x88\\x98\\xe9\\xa1\\xb9\\xe7\\x9b\\xae/github\\xe5\\xae\\x9e\\xe6\\x88\\x98/game.sol\":577:649  mapping(uint256 => mapping(string => address[])) public countryToAddress */\n    tag_103:\n      mstore(0x20, 0x07)\n      dup3\n      0x00\n      mstore\n      keccak256(0x00, 0x40)\n      dup3\n      dup1\n      mload\n      0x20\n      dup2\n      add\n      dup3\n      add\n      dup1\n      mload\n      dup5\n      dup3\n      mstore\n      0x20\n      dup4\n      add\n      0x20\n      dup6\n      add\n      keccak256\n      dup2\n      dup4\n      mstore\n      dup1\n      swap6\n      pop\n      pop\n      pop\n      pop\n      pop\n      pop\n      dup2\n      dup2\n      sload\n      dup2\n      lt\n      tag_165\n      jumpi\n      0x00\n      dup1\n      revert\n    tag_165:\n      swap1\n      0x00\n      mstore\n      keccak256(0x00, 0x20)\n      add\n      0x00\n      swap3\n      pop\n      swap3\n      pop\n      pop\n      swap1\n      sload\n      swap1\n      0x0100\n      exp\n      swap1\n      div\n      0xffffffffffffffffffffffffffffffffffffffff\n      and\n      dup2\n      jump\t// out\n        /* \"github\\xe5\\xae\\x9e\\xe6\\x88\\x98\\xe9\\xa1\\xb9\\xe7\\x9b\\xae/github\\xe5\\xae\\x9e\\xe6\\x88\\x98/game.sol\":182:202  address public admin */\n    tag_107:\n      0x01\n      0x00\n      swap1\n      sload\n      swap1\n      0x0100\n      exp\n      swap1\n      div\n      0xffffffffffffffffffffffffffffffffffffffff\n      and\n      dup2\n      jump\t// out\n        /* \"@openzeppelin/contracts/access/Ownable.sol\":1796:1958  function _checkOwner() internal view virtual {... */\n    tag_124:\n        /* \"@openzeppelin/contracts/access/Ownable.sol\":1866:1878  _msgSender() */\n      tag_168\n        /* \"@openzeppelin/contracts/access/Ownable.sol\":1866:1876  _msgSender */\n      tag_169\n        /* \"@openzeppelin/contracts/access/Ownable.sol\":1866:1878  _msgSender() */\n      jump\t// in\n    tag_168:\n        /* \"@openzeppelin/contracts/access/Ownable.sol\":1855:1878  owner() != _msgSender() */\n      0xffffffffffffffffffffffffffffffffffffffff\n      and\n        /* \"@openzeppelin/contracts/access/Ownable.sol\":1855:1862  owner() */\n      tag_170\n        /* \"@openzeppelin/contracts/access/Ownable.sol\":1855:1860  owner */\n      tag_68\n        /* \"@openzeppelin/contracts/access/Ownable.sol\":1855:1862  owner() */\n      jump\t// in\n    tag_170:\n        /* \"@openzeppelin/contracts/access/Ownable.sol\":1855:1878  owner() != _msgSender() */\n      0xffffffffffffffffffffffffffffffffffffffff\n      and\n      eq\n        /* \"@openzeppelin/contracts/access/Ownable.sol\":1851:1952  if (owner() != _msgSender()) {... */\n      tag_171\n      jumpi\n        /* \"@openzeppelin/contracts/access/Ownable.sol\":1928:1940  _msgSender() */\n      tag_172\n        /* \"@openzeppelin/contracts/access/Ownable.sol\":1928:1938  _msgSender */\n      tag_169\n        /* \"@openzeppelin/contracts/access/Ownable.sol\":1928:1940  _msgSender() */\n      jump\t// in\n    tag_172:\n        /* \"@openzeppelin/contracts/access/Ownable.sol\":1901:1941  OwnableUnauthorizedAccount(_msgSender()) */\n      mload(0x40)\n      0x118cdaa700000000000000000000000000000000000000000000000000000000\n      dup2\n      mstore\n      0x04\n      add\n      tag_173\n      swap2\n      swap1\n      tag_70\n      jump\t// in\n    tag_173:\n      mload(0x40)\n      dup1\n      swap2\n      sub\n      swap1\n      revert\n        /* \"@openzeppelin/contracts/access/Ownable.sol\":1851:1952  if (owner() != _msgSender()) {... */\n    tag_171:\n        /* \"@openzeppelin/contracts/access/Ownable.sol\":1796:1958  function _checkOwner() internal view virtual {... */\n      jump\t// out\n        /* \"@openzeppelin/contracts/access/Ownable.sol\":2912:3099  function _transferOwnership(address newOwner) internal virtual {... */\n    tag_127:\n        /* \"@openzeppelin/contracts/access/Ownable.sol\":2985:3001  address oldOwner */\n      0x00\n        /* \"@openzeppelin/contracts/access/Ownable.sol\":3004:3010  _owner */\n      dup1\n      0x00\n      swap1\n      sload\n      swap1\n      0x0100\n      exp\n      swap1\n      div\n      0xffffffffffffffffffffffffffffffffffffffff\n      and\n        /* \"@openzeppelin/contracts/access/Ownable.sol\":2985:3010  address oldOwner = _owner */\n      swap1\n      pop\n        /* \"@openzeppelin/contracts/access/Ownable.sol\":3029:3037  newOwner */\n      dup2\n        /* \"@openzeppelin/contracts/access/Ownable.sol\":3020:3026  _owner */\n      0x00\n      dup1\n        /* \"@openzeppelin/contracts/access/Ownable.sol\":3020:3037  _owner = newOwner */\n      0x0100\n      exp\n      dup2\n      sload\n      dup2\n      0xffffffffffffffffffffffffffffffffffffffff\n      mul\n      not\n      and\n      swap1\n      dup4\n      0xffffffffffffffffffffffffffffffffffffffff\n      and\n      mul\n      or\n      swap1\n      sstore\n      pop\n        /* \"@openzeppelin/contracts/access/Ownable.sol\":3083:3091  newOwner */\n      dup2\n        /* \"@openzeppelin/contracts/access/Ownable.sol\":3052:3092  OwnershipTransferred(oldOwner, newOwner) */\n      0xffffffffffffffffffffffffffffffffffffffff\n      and\n        /* \"@openzeppelin/contracts/access/Ownable.sol\":3073:3081  oldOwner */\n      dup2\n        /* \"@openzeppelin/contracts/access/Ownable.sol\":3052:3092  OwnershipTransferred(oldOwner, newOwner) */\n      0xffffffffffffffffffffffffffffffffffffffff\n      and\n      0x8be0079c531659141344cd1fd0a4f28419497f9722a3daafe3b4186f6b6457e0\n      mload(0x40)\n      mload(0x40)\n      dup1\n      swap2\n      sub\n      swap1\n      log3\n        /* \"@openzeppelin/contracts/access/Ownable.sol\":2975:3099  {... */\n      pop\n        /* \"@openzeppelin/contracts/access/Ownable.sol\":2912:3099  function _transferOwnership(address newOwner) internal virtual {... */\n      pop\n      jump\t// out\n        /* \"@openzeppelin/contracts/utils/Context.sol\":656:752  function _msgSender() internal view virtual returns (address) {... */\n    tag_169:\n        /* \"@openzeppelin/contracts/utils/Context.sol\":709:716  address */\n      0x00\n        /* \"@openzeppelin/contracts/utils/Context.sol\":735:745  msg.sender */\n      caller\n        /* \"@openzeppelin/contracts/utils/Context.sol\":728:745  return msg.sender */\n      swap1\n      pop\n        /* \"@openzeppelin/contracts/utils/Context.sol\":656:752  function _msgSender() internal view virtual returns (address) {... */\n      swap1\n      jump\t// out\n        /* \"#utility.yul\":7:82   */\n    tag_176:\n        /* \"#utility.yul\":40:46   */\n      0x00\n        /* \"#utility.yul\":73:75   */\n      0x40\n        /* \"#utility.yul\":67:76   */\n      mload\n        /* \"#utility.yul\":57:76   */\n      swap1\n      pop\n        /* \"#utility.yul\":7:82   */\n      swap1\n      jump\t// out\n        /* \"#utility.yul\":88:205   */\n    tag_177:\n        /* \"#utility.yul\":197:198   */\n      0x00\n        /* \"#utility.yul\":194:195   */\n      dup1\n        /* \"#utility.yul\":187:199   */\n      revert\n        /* \"#utility.yul\":211:328   */\n    tag_178:\n        /* \"#utility.yul\":320:321   */\n      0x00\n        /* \"#utility.yul\":317:318   */\n      dup1\n        /* \"#utility.yul\":310:322   */\n      revert\n        /* \"#utility.yul\":334:411   */\n    tag_179:\n        /* \"#utility.yul\":371:378   */\n      0x00\n        /* \"#utility.yul\":400:405   */\n      dup2\n        /* \"#utility.yul\":389:405   */\n      swap1\n      pop\n        /* \"#utility.yul\":334:411   */\n      swap2\n      swap1\n      pop\n      jump\t// out\n        /* \"#utility.yul\":417:539   */\n    tag_180:\n        /* \"#utility.yul\":490:514   */\n      tag_221\n        /* \"#utility.yul\":508:513   */\n      dup2\n        /* \"#utility.yul\":490:514   */\n      tag_179\n      jump\t// in\n    tag_221:\n        /* \"#utility.yul\":483:488   */\n      dup2\n        /* \"#utility.yul\":480:515   */\n      eq\n        /* \"#utility.yul\":470:533   */\n      tag_222\n      jumpi\n        /* \"#utility.yul\":529:530   */\n      0x00\n        /* \"#utility.yul\":526:527   */\n      dup1\n        /* \"#utility.yul\":519:531   */\n      revert\n        /* \"#utility.yul\":470:533   */\n    tag_222:\n        /* \"#utility.yul\":417:539   */\n      pop\n      jump\t// out\n        /* \"#utility.yul\":545:684   */\n    tag_181:\n        /* \"#utility.yul\":591:596   */\n      0x00\n        /* \"#utility.yul\":629:635   */\n      dup2\n        /* \"#utility.yul\":616:636   */\n      calldataload\n        /* \"#utility.yul\":607:636   */\n      swap1\n      pop\n        /* \"#utility.yul\":645:678   */\n      tag_224\n        /* \"#utility.yul\":672:677   */\n      dup2\n        /* \"#utility.yul\":645:678   */\n      tag_180\n      jump\t// in\n    tag_224:\n        /* \"#utility.yul\":545:684   */\n      swap3\n      swap2\n      pop\n      pop\n      jump\t// out\n        /* \"#utility.yul\":690:1019   */\n    tag_28:\n        /* \"#utility.yul\":749:755   */\n      0x00\n        /* \"#utility.yul\":798:800   */\n      0x20\n        /* \"#utility.yul\":786:795   */\n      dup3\n        /* \"#utility.yul\":777:784   */\n      dup5\n        /* \"#utility.yul\":773:796   */\n      sub\n        /* \"#utility.yul\":769:801   */\n      slt\n        /* \"#utility.yul\":766:885   */\n      iszero\n      tag_226\n      jumpi\n        /* \"#utility.yul\":804:883   */\n      tag_227\n      tag_177\n      jump\t// in\n    tag_227:\n        /* \"#utility.yul\":766:885   */\n    tag_226:\n        /* \"#utility.yul\":924:925   */\n      0x00\n        /* \"#utility.yul\":949:1002   */\n      tag_228\n        /* \"#utility.yul\":994:1001   */\n      dup5\n        /* \"#utility.yul\":985:991   */\n      dup3\n        /* \"#utility.yul\":974:983   */\n      dup6\n        /* \"#utility.yul\":970:992   */\n      add\n        /* \"#utility.yul\":949:1002   */\n      tag_181\n      jump\t// in\n    tag_228:\n        /* \"#utility.yul\":939:1002   */\n      swap2\n      pop\n        /* \"#utility.yul\":895:1012   */\n      pop\n        /* \"#utility.yul\":690:1019   */\n      swap3\n      swap2\n      pop\n      pop\n      jump\t// out\n        /* \"#utility.yul\":1025:1124   */\n    tag_182:\n        /* \"#utility.yul\":1077:1083   */\n      0x00\n        /* \"#utility.yul\":1111:1116   */\n      dup2\n        /* \"#utility.yul\":1105:1117   */\n      mload\n        /* \"#utility.yul\":1095:1117   */\n      swap1\n      pop\n        /* \"#utility.yul\":1025:1124   */\n      swap2\n      swap1\n      pop\n      jump\t// out\n        /* \"#utility.yul\":1130:1299   */\n    tag_183:\n        /* \"#utility.yul\":1214:1225   */\n      0x00\n        /* \"#utility.yul\":1248:1254   */\n      dup3\n        /* \"#utility.yul\":1243:1246   */\n      dup3\n        /* \"#utility.yul\":1236:1255   */\n      mstore\n        /* \"#utility.yul\":1288:1292   */\n      0x20\n        /* \"#utility.yul\":1283:1286   */\n      dup3\n        /* \"#utility.yul\":1279:1293   */\n      add\n        /* \"#utility.yul\":1264:1293   */\n      swap1\n      pop\n        /* \"#utility.yul\":1130:1299   */\n      swap3\n      swap2\n      pop\n      pop\n      jump\t// out\n        /* \"#utility.yul\":1305:1551   */\n    tag_184:\n        /* \"#utility.yul\":1386:1387   */\n      0x00\n        /* \"#utility.yul\":1396:1509   */\n    tag_232:\n        /* \"#utility.yul\":1410:1416   */\n      dup4\n        /* \"#utility.yul\":1407:1408   */\n      dup2\n        /* \"#utility.yul\":1404:1417   */\n      lt\n        /* \"#utility.yul\":1396:1509   */\n      iszero\n      tag_234\n      jumpi\n        /* \"#utility.yul\":1495:1496   */\n      dup1\n        /* \"#utility.yul\":1490:1493   */\n      dup3\n        /* \"#utility.yul\":1486:1497   */\n      add\n        /* \"#utility.yul\":1480:1498   */\n      mload\n        /* \"#utility.yul\":1476:1477   */\n      dup2\n        /* \"#utility.yul\":1471:1474   */\n      dup5\n        /* \"#utility.yul\":1467:1478   */\n      add\n        /* \"#utility.yul\":1460:1499   */\n      mstore\n        /* \"#utility.yul\":1432:1434   */\n      0x20\n        /* \"#utility.yul\":1429:1430   */\n      dup2\n        /* \"#utility.yul\":1425:1435   */\n      add\n        /* \"#utility.yul\":1420:1435   */\n      swap1\n      pop\n        /* \"#utility.yul\":1396:1509   */\n      jump(tag_232)\n    tag_234:\n        /* \"#utility.yul\":1543:1544   */\n      0x00\n        /* \"#utility.yul\":1534:1540   */\n      dup5\n        /* \"#utility.yul\":1529:1532   */\n      dup5\n        /* \"#utility.yul\":1525:1541   */\n      add\n        /* \"#utility.yul\":1518:1545   */\n      mstore\n        /* \"#utility.yul\":1367:1551   */\n      pop\n        /* \"#utility.yul\":1305:1551   */\n      pop\n      pop\n      pop\n      jump\t// out\n        /* \"#utility.yul\":1557:1659   */\n    tag_185:\n        /* \"#utility.yul\":1598:1604   */\n      0x00\n        /* \"#utility.yul\":1649:1651   */\n      0x1f\n        /* \"#utility.yul\":1645:1652   */\n      not\n        /* \"#utility.yul\":1640:1642   */\n      0x1f\n        /* \"#utility.yul\":1633:1638   */\n      dup4\n        /* \"#utility.yul\":1629:1643   */\n      add\n        /* \"#utility.yul\":1625:1653   */\n      and\n        /* \"#utility.yul\":1615:1653   */\n      swap1\n      pop\n        /* \"#utility.yul\":1557:1659   */\n      swap2\n      swap1\n      pop\n      jump\t// out\n        /* \"#utility.yul\":1665:2042   */\n    tag_186:\n        /* \"#utility.yul\":1753:1756   */\n      0x00\n        /* \"#utility.yul\":1781:1820   */\n      tag_237\n        /* \"#utility.yul\":1814:1819   */\n      dup3\n        /* \"#utility.yul\":1781:1820   */\n      tag_182\n      jump\t// in\n    tag_237:\n        /* \"#utility.yul\":1836:1907   */\n      tag_238\n        /* \"#utility.yul\":1900:1906   */\n      dup2\n        /* \"#utility.yul\":1895:1898   */\n      dup6\n        /* \"#utility.yul\":1836:1907   */\n      tag_183\n      jump\t// in\n    tag_238:\n        /* \"#utility.yul\":1829:1907   */\n      swap4\n      pop\n        /* \"#utility.yul\":1916:1981   */\n      tag_239\n        /* \"#utility.yul\":1974:1980   */\n      dup2\n        /* \"#utility.yul\":1969:1972   */\n      dup6\n        /* \"#utility.yul\":1962:1966   */\n      0x20\n        /* \"#utility.yul\":1955:1960   */\n      dup7\n        /* \"#utility.yul\":1951:1967   */\n      add\n        /* \"#utility.yul\":1916:1981   */\n      tag_184\n      jump\t// in\n    tag_239:\n        /* \"#utility.yul\":2006:2035   */\n      tag_240\n        /* \"#utility.yul\":2028:2034   */\n      dup2\n        /* \"#utility.yul\":2006:2035   */\n      tag_185\n      jump\t// in\n    tag_240:\n        /* \"#utility.yul\":2001:2004   */\n      dup5\n        /* \"#utility.yul\":1997:2036   */\n      add\n        /* \"#utility.yul\":1990:2036   */\n      swap2\n      pop\n        /* \"#utility.yul\":1757:2042   */\n      pop\n        /* \"#utility.yul\":1665:2042   */\n      swap3\n      swap2\n      pop\n      pop\n      jump\t// out\n        /* \"#utility.yul\":2048:2361   */\n    tag_31:\n        /* \"#utility.yul\":2161:2165   */\n      0x00\n        /* \"#utility.yul\":2199:2201   */\n      0x20\n        /* \"#utility.yul\":2188:2197   */\n      dup3\n        /* \"#utility.yul\":2184:2202   */\n      add\n        /* \"#utility.yul\":2176:2202   */\n      swap1\n      pop\n        /* \"#utility.yul\":2248:2257   */\n      dup2\n        /* \"#utility.yul\":2242:2246   */\n      dup2\n        /* \"#utility.yul\":2238:2258   */\n      sub\n        /* \"#utility.yul\":2234:2235   */\n      0x00\n        /* \"#utility.yul\":2223:2232   */\n      dup4\n        /* \"#utility.yul\":2219:2236   */\n      add\n        /* \"#utility.yul\":2212:2259   */\n      mstore\n        /* \"#utility.yul\":2276:2354   */\n      tag_242\n        /* \"#utility.yul\":2349:2353   */\n      dup2\n        /* \"#utility.yul\":2340:2346   */\n      dup5\n        /* \"#utility.yul\":2276:2354   */\n      tag_186\n      jump\t// in\n    tag_242:\n        /* \"#utility.yul\":2268:2354   */\n      swap1\n      pop\n        /* \"#utility.yul\":2048:2361   */\n      swap3\n      swap2\n      pop\n      pop\n      jump\t// out\n        /* \"#utility.yul\":2367:2484   */\n    tag_187:\n        /* \"#utility.yul\":2476:2477   */\n      0x00\n        /* \"#utility.yul\":2473:2474   */\n      dup1\n        /* \"#utility.yul\":2466:2478   */\n      revert\n        /* \"#utility.yul\":2490:2607   */\n    tag_188:\n        /* \"#utility.yul\":2599:2600   */\n      0x00\n        /* \"#utility.yul\":2596:2597   */\n      dup1\n        /* \"#utility.yul\":2589:2601   */\n      revert\n        /* \"#utility.yul\":2613:2793   */\n    tag_189:\n        /* \"#utility.yul\":2661:2738   */\n      0x4e487b7100000000000000000000000000000000000000000000000000000000\n        /* \"#utility.yul\":2658:2659   */\n      0x00\n        /* \"#utility.yul\":2651:2739   */\n      mstore\n        /* \"#utility.yul\":2758:2762   */\n      0x41\n        /* \"#utility.yul\":2755:2756   */\n      0x04\n        /* \"#utility.yul\":2748:2763   */\n      mstore\n        /* \"#utility.yul\":2782:2786   */\n      0x24\n        /* \"#utility.yul\":2779:2780   */\n      0x00\n        /* \"#utility.yul\":2772:2787   */\n      revert\n        /* \"#utility.yul\":2799:3080   */\n    tag_190:\n        /* \"#utility.yul\":2882:2909   */\n      tag_247\n        /* \"#utility.yul\":2904:2908   */\n      dup3\n        /* \"#utility.yul\":2882:2909   */\n      tag_185\n      jump\t// in\n    tag_247:\n        /* \"#utility.yul\":2874:2880   */\n      dup2\n        /* \"#utility.yul\":2870:2910   */\n      add\n        /* \"#utility.yul\":3012:3018   */\n      dup2\n        /* \"#utility.yul\":3000:3010   */\n      dup2\n        /* \"#utility.yul\":2997:3019   */\n      lt\n        /* \"#utility.yul\":2976:2994   */\n      0xffffffffffffffff\n        /* \"#utility.yul\":2964:2974   */\n      dup3\n        /* \"#utility.yul\":2961:2995   */\n      gt\n        /* \"#utility.yul\":2958:3020   */\n      or\n        /* \"#utility.yul\":2955:3043   */\n      iszero\n      tag_248\n      jumpi\n        /* \"#utility.yul\":3023:3041   */\n      tag_249\n      tag_189\n      jump\t// in\n    tag_249:\n        /* \"#utility.yul\":2955:3043   */\n    tag_248:\n        /* \"#utility.yul\":3063:3073   */\n      dup1\n        /* \"#utility.yul\":3059:3061   */\n      0x40\n        /* \"#utility.yul\":3052:3074   */\n      mstore\n        /* \"#utility.yul\":2842:3080   */\n      pop\n        /* \"#utility.yul\":2799:3080   */\n      pop\n      pop\n      jump\t// out\n        /* \"#utility.yul\":3086:3215   */\n    tag_191:\n        /* \"#utility.yul\":3120:3126   */\n      0x00\n        /* \"#utility.yul\":3147:3167   */\n      tag_251\n      tag_176\n      jump\t// in\n    tag_251:\n        /* \"#utility.yul\":3137:3167   */\n      swap1\n      pop\n        /* \"#utility.yul\":3176:3209   */\n      tag_252\n        /* \"#utility.yul\":3204:3208   */\n      dup3\n        /* \"#utility.yul\":3196:3202   */\n      dup3\n        /* \"#utility.yul\":3176:3209   */\n      tag_190\n      jump\t// in\n    tag_252:\n        /* \"#utility.yul\":3086:3215   */\n      swap2\n      swap1\n      pop\n      jump\t// out\n        /* \"#utility.yul\":3221:3529   */\n    tag_192:\n        /* \"#utility.yul\":3283:3287   */\n      0x00\n        /* \"#utility.yul\":3373:3391   */\n      0xffffffffffffffff\n        /* \"#utility.yul\":3365:3371   */\n      dup3\n        /* \"#utility.yul\":3362:3392   */\n      gt\n        /* \"#utility.yul\":3359:3415   */\n      iszero\n      tag_254\n      jumpi\n        /* \"#utility.yul\":3395:3413   */\n      tag_255\n      tag_189\n      jump\t// in\n    tag_255:\n        /* \"#utility.yul\":3359:3415   */\n    tag_254:\n        /* \"#utility.yul\":3433:3462   */\n      tag_256\n        /* \"#utility.yul\":3455:3461   */\n      dup3\n        /* \"#utility.yul\":3433:3462   */\n      tag_185\n      jump\t// in\n    tag_256:\n        /* \"#utility.yul\":3425:3462   */\n      swap1\n      pop\n        /* \"#utility.yul\":3517:3521   */\n      0x20\n        /* \"#utility.yul\":3511:3515   */\n      dup2\n        /* \"#utility.yul\":3507:3522   */\n      add\n        /* \"#utility.yul\":3499:3522   */\n      swap1\n      pop\n        /* \"#utility.yul\":3221:3529   */\n      swap2\n      swap1\n      pop\n      jump\t// out\n        /* \"#utility.yul\":3535:3681   */\n    tag_193:\n        /* \"#utility.yul\":3632:3638   */\n      dup3\n        /* \"#utility.yul\":3627:3630   */\n      dup2\n        /* \"#utility.yul\":3622:3625   */\n      dup4\n        /* \"#utility.yul\":3609:3639   */\n      calldatacopy\n        /* \"#utility.yul\":3673:3674   */\n      0x00\n        /* \"#utility.yul\":3664:3670   */\n      dup4\n        /* \"#utility.yul\":3659:3662   */\n      dup4\n        /* \"#utility.yul\":3655:3671   */\n      add\n        /* \"#utility.yul\":3648:3675   */\n      mstore\n        /* \"#utility.yul\":3535:3681   */\n      pop\n      pop\n      pop\n      jump\t// out\n        /* \"#utility.yul\":3687:4112   */\n    tag_194:\n        /* \"#utility.yul\":3765:3770   */\n      0x00\n        /* \"#utility.yul\":3790:3856   */\n      tag_259\n        /* \"#utility.yul\":3806:3855   */\n      tag_260\n        /* \"#utility.yul\":3848:3854   */\n      dup5\n        /* \"#utility.yul\":3806:3855   */\n      tag_192\n      jump\t// in\n    tag_260:\n        /* \"#utility.yul\":3790:3856   */\n      tag_191\n      jump\t// in\n    tag_259:\n        /* \"#utility.yul\":3781:3856   */\n      swap1\n      pop\n        /* \"#utility.yul\":3879:3885   */\n      dup3\n        /* \"#utility.yul\":3872:3877   */\n      dup2\n        /* \"#utility.yul\":3865:3886   */\n      mstore\n        /* \"#utility.yul\":3917:3921   */\n      0x20\n        /* \"#utility.yul\":3910:3915   */\n      dup2\n        /* \"#utility.yul\":3906:3922   */\n      add\n        /* \"#utility.yul\":3955:3958   */\n      dup5\n        /* \"#utility.yul\":3946:3952   */\n      dup5\n        /* \"#utility.yul\":3941:3944   */\n      dup5\n        /* \"#utility.yul\":3937:3953   */\n      add\n        /* \"#utility.yul\":3934:3959   */\n      gt\n        /* \"#utility.yul\":3931:4043   */\n      iszero\n      tag_261\n      jumpi\n        /* \"#utility.yul\":3962:4041   */\n      tag_262\n      tag_188\n      jump\t// in\n    tag_262:\n        /* \"#utility.yul\":3931:4043   */\n    tag_261:\n        /* \"#utility.yul\":4052:4106   */\n      tag_263\n        /* \"#utility.yul\":4099:4105   */\n      dup5\n        /* \"#utility.yul\":4094:4097   */\n      dup3\n        /* \"#utility.yul\":4089:4092   */\n      dup6\n        /* \"#utility.yul\":4052:4106   */\n      tag_193\n      jump\t// in\n    tag_263:\n        /* \"#utility.yul\":3771:4112   */\n      pop\n        /* \"#utility.yul\":3687:4112   */\n      swap4\n      swap3\n      pop\n      pop\n      pop\n      jump\t// out\n        /* \"#utility.yul\":4132:4472   */\n    tag_195:\n        /* \"#utility.yul\":4188:4193   */\n      0x00\n        /* \"#utility.yul\":4237:4240   */\n      dup3\n        /* \"#utility.yul\":4230:4234   */\n      0x1f\n        /* \"#utility.yul\":4222:4228   */\n      dup4\n        /* \"#utility.yul\":4218:4235   */\n      add\n        /* \"#utility.yul\":4214:4241   */\n      slt\n        /* \"#utility.yul\":4204:4326   */\n      tag_265\n      jumpi\n        /* \"#utility.yul\":4245:4324   */\n      tag_266\n      tag_187\n      jump\t// in\n    tag_266:\n        /* \"#utility.yul\":4204:4326   */\n    tag_265:\n        /* \"#utility.yul\":4362:4368   */\n      dup2\n        /* \"#utility.yul\":4349:4369   */\n      calldataload\n        /* \"#utility.yul\":4387:4466   */\n      tag_267\n        /* \"#utility.yul\":4462:4465   */\n      dup5\n        /* \"#utility.yul\":4454:4460   */\n      dup3\n        /* \"#utility.yul\":4447:4451   */\n      0x20\n        /* \"#utility.yul\":4439:4445   */\n      dup7\n        /* \"#utility.yul\":4435:4452   */\n      add\n        /* \"#utility.yul\":4387:4466   */\n      tag_194\n      jump\t// in\n    tag_267:\n        /* \"#utility.yul\":4378:4466   */\n      swap2\n      pop\n        /* \"#utility.yul\":4194:4472   */\n      pop\n        /* \"#utility.yul\":4132:4472   */\n      swap3\n      swap2\n      pop\n      pop\n      jump\t// out\n        /* \"#utility.yul\":4478:5132   */\n    tag_35:\n        /* \"#utility.yul\":4556:4562   */\n      0x00\n        /* \"#utility.yul\":4564:4570   */\n      dup1\n        /* \"#utility.yul\":4613:4615   */\n      0x40\n        /* \"#utility.yul\":4601:4610   */\n      dup4\n        /* \"#utility.yul\":4592:4599   */\n      dup6\n        /* \"#utility.yul\":4588:4611   */\n      sub\n        /* \"#utility.yul\":4584:4616   */\n      slt\n        /* \"#utility.yul\":4581:4700   */\n      iszero\n      tag_269\n      jumpi\n        /* \"#utility.yul\":4619:4698   */\n      tag_270\n      tag_177\n      jump\t// in\n    tag_270:\n        /* \"#utility.yul\":4581:4700   */\n    tag_269:\n        /* \"#utility.yul\":4739:4740   */\n      0x00\n        /* \"#utility.yul\":4764:4817   */\n      tag_271\n        /* \"#utility.yul\":4809:4816   */\n      dup6\n        /* \"#utility.yul\":4800:4806   */\n      dup3\n        /* \"#utility.yul\":4789:4798   */\n      dup7\n        /* \"#utility.yul\":4785:4807   */\n      add\n        /* \"#utility.yul\":4764:4817   */\n      tag_181\n      jump\t// in\n    tag_271:\n        /* \"#utility.yul\":4754:4817   */\n      swap3\n      pop\n        /* \"#utility.yul\":4710:4827   */\n      pop\n        /* \"#utility.yul\":4894:4896   */\n      0x20\n        /* \"#utility.yul\":4883:4892   */\n      dup4\n        /* \"#utility.yul\":4879:4897   */\n      add\n        /* \"#utility.yul\":4866:4898   */\n      calldataload\n        /* \"#utility.yul\":4925:4943   */\n      0xffffffffffffffff\n        /* \"#utility.yul\":4917:4923   */\n      dup2\n        /* \"#utility.yul\":4914:4944   */\n      gt\n        /* \"#utility.yul\":4911:5028   */\n      iszero\n      tag_272\n      jumpi\n        /* \"#utility.yul\":4947:5026   */\n      tag_273\n      tag_178\n      jump\t// in\n    tag_273:\n        /* \"#utility.yul\":4911:5028   */\n    tag_272:\n        /* \"#utility.yul\":5052:5115   */\n      tag_274\n        /* \"#utility.yul\":5107:5114   */\n      dup6\n        /* \"#utility.yul\":5098:5104   */\n      dup3\n        /* \"#utility.yul\":5087:5096   */\n      dup7\n        /* \"#utility.yul\":5083:5105   */\n      add\n        /* \"#utility.yul\":5052:5115   */\n      tag_195\n      jump\t// in\n    tag_274:\n        /* \"#utility.yul\":5042:5115   */\n      swap2\n      pop\n        /* \"#utility.yul\":4837:5125   */\n      pop\n        /* \"#utility.yul\":4478:5132   */\n      swap3\n      pop\n      swap3\n      swap1\n      pop\n      jump\t// out\n        /* \"#utility.yul\":5138:5256   */\n    tag_196:\n        /* \"#utility.yul\":5225:5249   */\n      tag_276\n        /* \"#utility.yul\":5243:5248   */\n      dup2\n        /* \"#utility.yul\":5225:5249   */\n      tag_179\n      jump\t// in\n    tag_276:\n        /* \"#utility.yul\":5220:5223   */\n      dup3\n        /* \"#utility.yul\":5213:5250   */\n      mstore\n        /* \"#utility.yul\":5138:5256   */\n      pop\n      pop\n      jump\t// out\n        /* \"#utility.yul\":5262:5484   */\n    tag_38:\n        /* \"#utility.yul\":5355:5359   */\n      0x00\n        /* \"#utility.yul\":5393:5395   */\n      0x20\n        /* \"#utility.yul\":5382:5391   */\n      dup3\n        /* \"#utility.yul\":5378:5396   */\n      add\n        /* \"#utility.yul\":5370:5396   */\n      swap1\n      pop\n        /* \"#utility.yul\":5406:5477   */\n      tag_278\n        /* \"#utility.yul\":5474:5475   */\n      0x00\n        /* \"#utility.yul\":5463:5472   */\n      dup4\n        /* \"#utility.yul\":5459:5476   */\n      add\n        /* \"#utility.yul\":5450:5456   */\n      dup5\n        /* \"#utility.yul\":5406:5477   */\n      tag_196\n      jump\t// in\n    tag_278:\n        /* \"#utility.yul\":5262:5484   */\n      swap3\n      swap2\n      pop\n      pop\n      jump\t// out\n        /* \"#utility.yul\":5490:5616   */\n    tag_197:\n        /* \"#utility.yul\":5527:5534   */\n      0x00\n        /* \"#utility.yul\":5567:5609   */\n      0xffffffffffffffffffffffffffffffffffffffff\n        /* \"#utility.yul\":5560:5565   */\n      dup3\n        /* \"#utility.yul\":5556:5610   */\n      and\n        /* \"#utility.yul\":5545:5610   */\n      swap1\n      pop\n        /* \"#utility.yul\":5490:5616   */\n      swap2\n      swap1\n      pop\n      jump\t// out\n        /* \"#utility.yul\":5622:5718   */\n    tag_198:\n        /* \"#utility.yul\":5659:5666   */\n      0x00\n        /* \"#utility.yul\":5688:5712   */\n      tag_281\n        /* \"#utility.yul\":5706:5711   */\n      dup3\n        /* \"#utility.yul\":5688:5712   */\n      tag_197\n      jump\t// in\n    tag_281:\n        /* \"#utility.yul\":5677:5712   */\n      swap1\n      pop\n        /* \"#utility.yul\":5622:5718   */\n      swap2\n      swap1\n      pop\n      jump\t// out\n        /* \"#utility.yul\":5724:5846   */\n    tag_199:\n        /* \"#utility.yul\":5797:5821   */\n      tag_283\n        /* \"#utility.yul\":5815:5820   */\n      dup2\n        /* \"#utility.yul\":5797:5821   */\n      tag_198\n      jump\t// in\n    tag_283:\n        /* \"#utility.yul\":5790:5795   */\n      dup2\n        /* \"#utility.yul\":5787:5822   */\n      eq\n        /* \"#utility.yul\":5777:5840   */\n      tag_284\n      jumpi\n        /* \"#utility.yul\":5836:5837   */\n      0x00\n        /* \"#utility.yul\":5833:5834   */\n      dup1\n        /* \"#utility.yul\":5826:5838   */\n      revert\n        /* \"#utility.yul\":5777:5840   */\n    tag_284:\n        /* \"#utility.yul\":5724:5846   */\n      pop\n      jump\t// out\n        /* \"#utility.yul\":5852:5991   */\n    tag_200:\n        /* \"#utility.yul\":5898:5903   */\n      0x00\n        /* \"#utility.yul\":5936:5942   */\n      dup2\n        /* \"#utility.yul\":5923:5943   */\n      calldataload\n        /* \"#utility.yul\":5914:5943   */\n      swap1\n      pop\n        /* \"#utility.yul\":5952:5985   */\n      tag_286\n        /* \"#utility.yul\":5979:5984   */\n      dup2\n        /* \"#utility.yul\":5952:5985   */\n      tag_199\n      jump\t// in\n    tag_286:\n        /* \"#utility.yul\":5852:5991   */\n      swap3\n      swap2\n      pop\n      pop\n      jump\t// out\n        /* \"#utility.yul\":5997:6326   */\n    tag_46:\n        /* \"#utility.yul\":6056:6062   */\n      0x00\n        /* \"#utility.yul\":6105:6107   */\n      0x20\n        /* \"#utility.yul\":6093:6102   */\n      dup3\n        /* \"#utility.yul\":6084:6091   */\n      dup5\n        /* \"#utility.yul\":6080:6103   */\n      sub\n        /* \"#utility.yul\":6076:6108   */\n      slt\n        /* \"#utility.yul\":6073:6192   */\n      iszero\n      tag_288\n      jumpi\n        /* \"#utility.yul\":6111:6190   */\n      tag_289\n      tag_177\n      jump\t// in\n    tag_289:\n        /* \"#utility.yul\":6073:6192   */\n    tag_288:\n        /* \"#utility.yul\":6231:6232   */\n      0x00\n        /* \"#utility.yul\":6256:6309   */\n      tag_290\n        /* \"#utility.yul\":6301:6308   */\n      dup5\n        /* \"#utility.yul\":6292:6298   */\n      dup3\n        /* \"#utility.yul\":6281:6290   */\n      dup6\n        /* \"#utility.yul\":6277:6299   */\n      add\n        /* \"#utility.yul\":6256:6309   */\n      tag_200\n      jump\t// in\n    tag_290:\n        /* \"#utility.yul\":6246:6309   */\n      swap2\n      pop\n        /* \"#utility.yul\":6202:6319   */\n      pop\n        /* \"#utility.yul\":5997:6326   */\n      swap3\n      swap2\n      pop\n      pop\n      jump\t// out\n        /* \"#utility.yul\":6332:7131   */\n    tag_56:\n        /* \"#utility.yul\":6419:6425   */\n      0x00\n        /* \"#utility.yul\":6427:6433   */\n      dup1\n        /* \"#utility.yul\":6435:6441   */\n      0x00\n        /* \"#utility.yul\":6484:6486   */\n      0x60\n        /* \"#utility.yul\":6472:6481   */\n      dup5\n        /* \"#utility.yul\":6463:6470   */\n      dup7\n        /* \"#utility.yul\":6459:6482   */\n      sub\n        /* \"#utility.yul\":6455:6487   */\n      slt\n        /* \"#utility.yul\":6452:6571   */\n      iszero\n      tag_292\n      jumpi\n        /* \"#utility.yul\":6490:6569   */\n      tag_293\n      tag_177\n      jump\t// in\n    tag_293:\n        /* \"#utility.yul\":6452:6571   */\n    tag_292:\n        /* \"#utility.yul\":6610:6611   */\n      0x00\n        /* \"#utility.yul\":6635:6688   */\n      tag_294\n        /* \"#utility.yul\":6680:6687   */\n      dup7\n        /* \"#utility.yul\":6671:6677   */\n      dup3\n        /* \"#utility.yul\":6660:6669   */\n      dup8\n        /* \"#utility.yul\":6656:6678   */\n      add\n        /* \"#utility.yul\":6635:6688   */\n      tag_181\n      jump\t// in\n    tag_294:\n        /* \"#utility.yul\":6625:6688   */\n      swap4\n      pop\n        /* \"#utility.yul\":6581:6698   */\n      pop\n        /* \"#utility.yul\":6765:6767   */\n      0x20\n        /* \"#utility.yul\":6754:6763   */\n      dup5\n        /* \"#utility.yul\":6750:6768   */\n      add\n        /* \"#utility.yul\":6737:6769   */\n      calldataload\n        /* \"#utility.yul\":6796:6814   */\n      0xffffffffffffffff\n        /* \"#utility.yul\":6788:6794   */\n      dup2\n        /* \"#utility.yul\":6785:6815   */\n      gt\n        /* \"#utility.yul\":6782:6899   */\n      iszero\n      tag_295\n      jumpi\n        /* \"#utility.yul\":6818:6897   */\n      tag_296\n      tag_178\n      jump\t// in\n    tag_296:\n        /* \"#utility.yul\":6782:6899   */\n    tag_295:\n        /* \"#utility.yul\":6923:6986   */\n      tag_297\n        /* \"#utility.yul\":6978:6985   */\n      dup7\n        /* \"#utility.yul\":6969:6975   */\n      dup3\n        /* \"#utility.yul\":6958:6967   */\n      dup8\n        /* \"#utility.yul\":6954:6976   */\n      add\n        /* \"#utility.yul\":6923:6986   */\n      tag_195\n      jump\t// in\n    tag_297:\n        /* \"#utility.yul\":6913:6986   */\n      swap3\n      pop\n        /* \"#utility.yul\":6708:6996   */\n      pop\n        /* \"#utility.yul\":7035:7037   */\n      0x40\n        /* \"#utility.yul\":7061:7114   */\n      tag_298\n        /* \"#utility.yul\":7106:7113   */\n      dup7\n        /* \"#utility.yul\":7097:7103   */\n      dup3\n        /* \"#utility.yul\":7086:7095   */\n      dup8\n        /* \"#utility.yul\":7082:7104   */\n      add\n        /* \"#utility.yul\":7061:7114   */\n      tag_200\n      jump\t// in\n    tag_298:\n        /* \"#utility.yul\":7051:7114   */\n      swap2\n      pop\n        /* \"#utility.yul\":7006:7124   */\n      pop\n        /* \"#utility.yul\":6332:7131   */\n      swap3\n      pop\n      swap3\n      pop\n      swap3\n      jump\t// out\n        /* \"#utility.yul\":7137:7646   */\n    tag_64:\n        /* \"#utility.yul\":7206:7212   */\n      0x00\n        /* \"#utility.yul\":7255:7257   */\n      0x20\n        /* \"#utility.yul\":7243:7252   */\n      dup3\n        /* \"#utility.yul\":7234:7241   */\n      dup5\n        /* \"#utility.yul\":7230:7253   */\n      sub\n        /* \"#utility.yul\":7226:7258   */\n      slt\n        /* \"#utility.yul\":7223:7342   */\n      iszero\n      tag_300\n      jumpi\n        /* \"#utility.yul\":7261:7340   */\n      tag_301\n      tag_177\n      jump\t// in\n    tag_301:\n        /* \"#utility.yul\":7223:7342   */\n    tag_300:\n        /* \"#utility.yul\":7409:7410   */\n      0x00\n        /* \"#utility.yul\":7398:7407   */\n      dup3\n        /* \"#utility.yul\":7394:7411   */\n      add\n        /* \"#utility.yul\":7381:7412   */\n      calldataload\n        /* \"#utility.yul\":7439:7457   */\n      0xffffffffffffffff\n        /* \"#utility.yul\":7431:7437   */\n      dup2\n        /* \"#utility.yul\":7428:7458   */\n      gt\n        /* \"#utility.yul\":7425:7542   */\n      iszero\n      tag_302\n      jumpi\n        /* \"#utility.yul\":7461:7540   */\n      tag_303\n      tag_178\n      jump\t// in\n    tag_303:\n        /* \"#utility.yul\":7425:7542   */\n    tag_302:\n        /* \"#utility.yul\":7566:7629   */\n      tag_304\n        /* \"#utility.yul\":7621:7628   */\n      dup5\n        /* \"#utility.yul\":7612:7618   */\n      dup3\n        /* \"#utility.yul\":7601:7610   */\n      dup6\n        /* \"#utility.yul\":7597:7619   */\n      add\n        /* \"#utility.yul\":7566:7629   */\n      tag_195\n      jump\t// in\n    tag_304:\n        /* \"#utility.yul\":7556:7629   */\n      swap2\n      pop\n        /* \"#utility.yul\":7352:7639   */\n      pop\n        /* \"#utility.yul\":7137:7646   */\n      swap3\n      swap2\n      pop\n      pop\n      jump\t// out\n        /* \"#utility.yul\":7652:7770   */\n    tag_201:\n        /* \"#utility.yul\":7739:7763   */\n      tag_306\n        /* \"#utility.yul\":7757:7762   */\n      dup2\n        /* \"#utility.yul\":7739:7763   */\n      tag_198\n      jump\t// in\n    tag_306:\n        /* \"#utility.yul\":7734:7737   */\n      dup3\n        /* \"#utility.yul\":7727:7764   */\n      mstore\n        /* \"#utility.yul\":7652:7770   */\n      pop\n      pop\n      jump\t// out\n        /* \"#utility.yul\":7776:7998   */\n    tag_70:\n        /* \"#utility.yul\":7869:7873   */\n      0x00\n        /* \"#utility.yul\":7907:7909   */\n      0x20\n        /* \"#utility.yul\":7896:7905   */\n      dup3\n        /* \"#utility.yul\":7892:7910   */\n      add\n        /* \"#utility.yul\":7884:7910   */\n      swap1\n      pop\n        /* \"#utility.yul\":7920:7991   */\n      tag_308\n        /* \"#utility.yul\":7988:7989   */\n      0x00\n        /* \"#utility.yul\":7977:7986   */\n      dup4\n        /* \"#utility.yul\":7973:7990   */\n      add\n        /* \"#utility.yul\":7964:7970   */\n      dup5\n        /* \"#utility.yul\":7920:7991   */\n      tag_201\n      jump\t// in\n    tag_308:\n        /* \"#utility.yul\":7776:7998   */\n      swap3\n      swap2\n      pop\n      pop\n      jump\t// out\n        /* \"#utility.yul\":8004:8325   */\n    tag_202:\n        /* \"#utility.yul\":8091:8095   */\n      0x00\n        /* \"#utility.yul\":8181:8199   */\n      0xffffffffffffffff\n        /* \"#utility.yul\":8173:8179   */\n      dup3\n        /* \"#utility.yul\":8170:8200   */\n      gt\n        /* \"#utility.yul\":8167:8223   */\n      iszero\n      tag_310\n      jumpi\n        /* \"#utility.yul\":8203:8221   */\n      tag_311\n      tag_189\n      jump\t// in\n    tag_311:\n        /* \"#utility.yul\":8167:8223   */\n    tag_310:\n        /* \"#utility.yul\":8253:8257   */\n      0x20\n        /* \"#utility.yul\":8245:8251   */\n      dup3\n        /* \"#utility.yul\":8241:8258   */\n      mul\n        /* \"#utility.yul\":8233:8258   */\n      swap1\n      pop\n        /* \"#utility.yul\":8313:8317   */\n      0x20\n        /* \"#utility.yul\":8307:8311   */\n      dup2\n        /* \"#utility.yul\":8303:8318   */\n      add\n        /* \"#utility.yul\":8295:8318   */\n      swap1\n      pop\n        /* \"#utility.yul\":8004:8325   */\n      swap2\n      swap1\n      pop\n      jump\t// out\n        /* \"#utility.yul\":8331:8448   */\n    tag_203:\n        /* \"#utility.yul\":8440:8441   */\n      0x00\n        /* \"#utility.yul\":8437:8438   */\n      dup1\n        /* \"#utility.yul\":8430:8442   */\n      revert\n        /* \"#utility.yul\":8470:9415   */\n    tag_204:\n        /* \"#utility.yul\":8576:8581   */\n      0x00\n        /* \"#utility.yul\":8601:8692   */\n      tag_314\n        /* \"#utility.yul\":8617:8691   */\n      tag_315\n        /* \"#utility.yul\":8684:8690   */\n      dup5\n        /* \"#utility.yul\":8617:8691   */\n      tag_202\n      jump\t// in\n    tag_315:\n        /* \"#utility.yul\":8601:8692   */\n      tag_191\n      jump\t// in\n    tag_314:\n        /* \"#utility.yul\":8592:8692   */\n      swap1\n      pop\n        /* \"#utility.yul\":8712:8717   */\n      dup1\n        /* \"#utility.yul\":8741:8747   */\n      dup4\n        /* \"#utility.yul\":8734:8739   */\n      dup3\n        /* \"#utility.yul\":8727:8748   */\n      mstore\n        /* \"#utility.yul\":8775:8779   */\n      0x20\n        /* \"#utility.yul\":8768:8773   */\n      dup3\n        /* \"#utility.yul\":8764:8780   */\n      add\n        /* \"#utility.yul\":8757:8780   */\n      swap1\n      pop\n        /* \"#utility.yul\":8828:8832   */\n      0x20\n        /* \"#utility.yul\":8820:8826   */\n      dup5\n        /* \"#utility.yul\":8816:8833   */\n      mul\n        /* \"#utility.yul\":8808:8814   */\n      dup4\n        /* \"#utility.yul\":8804:8834   */\n      add\n        /* \"#utility.yul\":8857:8860   */\n      dup6\n        /* \"#utility.yul\":8849:8855   */\n      dup2\n        /* \"#utility.yul\":8846:8861   */\n      gt\n        /* \"#utility.yul\":8843:8965   */\n      iszero\n      tag_316\n      jumpi\n        /* \"#utility.yul\":8876:8955   */\n      tag_317\n      tag_203\n      jump\t// in\n    tag_317:\n        /* \"#utility.yul\":8843:8965   */\n    tag_316:\n        /* \"#utility.yul\":8991:8997   */\n      dup4\n        /* \"#utility.yul\":8974:9409   */\n    tag_318:\n        /* \"#utility.yul\":9008:9014   */\n      dup2\n        /* \"#utility.yul\":9003:9006   */\n      dup2\n        /* \"#utility.yul\":9000:9015   */\n      lt\n        /* \"#utility.yul\":8974:9409   */\n      iszero\n      tag_320\n      jumpi\n        /* \"#utility.yul\":9097:9100   */\n      dup1\n        /* \"#utility.yul\":9084:9101   */\n      calldataload\n        /* \"#utility.yul\":9133:9151   */\n      0xffffffffffffffff\n        /* \"#utility.yul\":9120:9131   */\n      dup2\n        /* \"#utility.yul\":9117:9152   */\n      gt\n        /* \"#utility.yul\":9114:9236   */\n      iszero\n      tag_321\n      jumpi\n        /* \"#utility.yul\":9155:9234   */\n      tag_322\n      tag_187\n      jump\t// in\n    tag_322:\n        /* \"#utility.yul\":9114:9236   */\n    tag_321:\n        /* \"#utility.yul\":9279:9290   */\n      dup1\n        /* \"#utility.yul\":9271:9277   */\n      dup7\n        /* \"#utility.yul\":9267:9291   */\n      add\n        /* \"#utility.yul\":9317:9364   */\n      tag_323\n        /* \"#utility.yul\":9360:9363   */\n      dup10\n        /* \"#utility.yul\":9348:9358   */\n      dup3\n        /* \"#utility.yul\":9317:9364   */\n      tag_195\n      jump\t// in\n    tag_323:\n        /* \"#utility.yul\":9312:9315   */\n      dup6\n        /* \"#utility.yul\":9305:9365   */\n      mstore\n        /* \"#utility.yul\":9394:9398   */\n      0x20\n        /* \"#utility.yul\":9389:9392   */\n      dup6\n        /* \"#utility.yul\":9385:9399   */\n      add\n        /* \"#utility.yul\":9378:9399   */\n      swap5\n      pop\n        /* \"#utility.yul\":9050:9409   */\n      pop\n      pop\n        /* \"#utility.yul\":9034:9038   */\n      0x20\n        /* \"#utility.yul\":9029:9032   */\n      dup2\n        /* \"#utility.yul\":9025:9039   */\n      add\n        /* \"#utility.yul\":9018:9039   */\n      swap1\n      pop\n        /* \"#utility.yul\":8974:9409   */\n      jump(tag_318)\n    tag_320:\n        /* \"#utility.yul\":8978:8999   */\n      pop\n        /* \"#utility.yul\":8582:9415   */\n      pop\n      pop\n        /* \"#utility.yul\":8470:9415   */\n      swap4\n      swap3\n      pop\n      pop\n      pop\n      jump\t// out\n        /* \"#utility.yul\":9437:9827   */\n    tag_205:\n        /* \"#utility.yul\":9518:9523   */\n      0x00\n        /* \"#utility.yul\":9567:9570   */\n      dup3\n        /* \"#utility.yul\":9560:9564   */\n      0x1f\n        /* \"#utility.yul\":9552:9558   */\n      dup4\n        /* \"#utility.yul\":9548:9565   */\n      add\n        /* \"#utility.yul\":9544:9571   */\n      slt\n        /* \"#utility.yul\":9534:9656   */\n      tag_325\n      jumpi\n        /* \"#utility.yul\":9575:9654   */\n      tag_326\n      tag_187\n      jump\t// in\n    tag_326:\n        /* \"#utility.yul\":9534:9656   */\n    tag_325:\n        /* \"#utility.yul\":9692:9698   */\n      dup2\n        /* \"#utility.yul\":9679:9699   */\n      calldataload\n        /* \"#utility.yul\":9717:9821   */\n      tag_327\n        /* \"#utility.yul\":9817:9820   */\n      dup5\n        /* \"#utility.yul\":9809:9815   */\n      dup3\n        /* \"#utility.yul\":9802:9806   */\n      0x20\n        /* \"#utility.yul\":9794:9800   */\n      dup7\n        /* \"#utility.yul\":9790:9807   */\n      add\n        /* \"#utility.yul\":9717:9821   */\n      tag_204\n      jump\t// in\n    tag_327:\n        /* \"#utility.yul\":9708:9821   */\n      swap2\n      pop\n        /* \"#utility.yul\":9524:9827   */\n      pop\n        /* \"#utility.yul\":9437:9827   */\n      swap3\n      swap2\n      pop\n      pop\n      jump\t// out\n        /* \"#utility.yul\":9833:10392   */\n    tag_78:\n        /* \"#utility.yul\":9927:9933   */\n      0x00\n        /* \"#utility.yul\":9976:9978   */\n      0x20\n        /* \"#utility.yul\":9964:9973   */\n      dup3\n        /* \"#utility.yul\":9955:9962   */\n      dup5\n        /* \"#utility.yul\":9951:9974   */\n      sub\n        /* \"#utility.yul\":9947:9979   */\n      slt\n        /* \"#utility.yul\":9944:10063   */\n      iszero\n      tag_329\n      jumpi\n        /* \"#utility.yul\":9982:10061   */\n      tag_330\n      tag_177\n      jump\t// in\n    tag_330:\n        /* \"#utility.yul\":9944:10063   */\n    tag_329:\n        /* \"#utility.yul\":10130:10131   */\n      0x00\n        /* \"#utility.yul\":10119:10128   */\n      dup3\n        /* \"#utility.yul\":10115:10132   */\n      add\n        /* \"#utility.yul\":10102:10133   */\n      calldataload\n        /* \"#utility.yul\":10160:10178   */\n      0xffffffffffffffff\n        /* \"#utility.yul\":10152:10158   */\n      dup2\n        /* \"#utility.yul\":10149:10179   */\n      gt\n        /* \"#utility.yul\":10146:10263   */\n      iszero\n      tag_331\n      jumpi\n        /* \"#utility.yul\":10182:10261   */\n      tag_332\n      tag_178\n      jump\t// in\n    tag_332:\n        /* \"#utility.yul\":10146:10263   */\n    tag_331:\n        /* \"#utility.yul\":10287:10375   */\n      tag_333\n        /* \"#utility.yul\":10367:10374   */\n      dup5\n        /* \"#utility.yul\":10358:10364   */\n      dup3\n        /* \"#utility.yul\":10347:10356   */\n      dup6\n        /* \"#utility.yul\":10343:10365   */\n      add\n        /* \"#utility.yul\":10287:10375   */\n      tag_205\n      jump\t// in\n    tag_333:\n        /* \"#utility.yul\":10277:10375   */\n      swap2\n      pop\n        /* \"#utility.yul\":10073:10385   */\n      pop\n        /* \"#utility.yul\":9833:10392   */\n      swap3\n      swap2\n      pop\n      pop\n      jump\t// out\n        /* \"#utility.yul\":10398:10872   */\n    tag_83:\n        /* \"#utility.yul\":10466:10472   */\n      0x00\n        /* \"#utility.yul\":10474:10480   */\n      dup1\n        /* \"#utility.yul\":10523:10525   */\n      0x40\n        /* \"#utility.yul\":10511:10520   */\n      dup4\n        /* \"#utility.yul\":10502:10509   */\n      dup6\n        /* \"#utility.yul\":10498:10521   */\n      sub\n        /* \"#utility.yul\":10494:10526   */\n      slt\n        /* \"#utility.yul\":10491:10610   */\n      iszero\n      tag_335\n      jumpi\n        /* \"#utility.yul\":10529:10608   */\n      tag_336\n      tag_177\n      jump\t// in\n    tag_336:\n        /* \"#utility.yul\":10491:10610   */\n    tag_335:\n        /* \"#utility.yul\":10649:10650   */\n      0x00\n        /* \"#utility.yul\":10674:10727   */\n      tag_337\n        /* \"#utility.yul\":10719:10726   */\n      dup6\n        /* \"#utility.yul\":10710:10716   */\n      dup3\n        /* \"#utility.yul\":10699:10708   */\n      dup7\n        /* \"#utility.yul\":10695:10717   */\n      add\n        /* \"#utility.yul\":10674:10727   */\n      tag_181\n      jump\t// in\n    tag_337:\n        /* \"#utility.yul\":10664:10727   */\n      swap3\n      pop\n        /* \"#utility.yul\":10620:10737   */\n      pop\n        /* \"#utility.yul\":10776:10778   */\n      0x20\n        /* \"#utility.yul\":10802:10855   */\n      tag_338\n        /* \"#utility.yul\":10847:10854   */\n      dup6\n        /* \"#utility.yul\":10838:10844   */\n      dup3\n        /* \"#utility.yul\":10827:10836   */\n      dup7\n        /* \"#utility.yul\":10823:10845   */\n      add\n        /* \"#utility.yul\":10802:10855   */\n      tag_200\n      jump\t// in\n    tag_338:\n        /* \"#utility.yul\":10792:10855   */\n      swap2\n      pop\n        /* \"#utility.yul\":10747:10865   */\n      pop\n        /* \"#utility.yul\":10398:10872   */\n      swap3\n      pop\n      swap3\n      swap1\n      pop\n      jump\t// out\n        /* \"#utility.yul\":10878:10968   */\n    tag_206:\n        /* \"#utility.yul\":10912:10919   */\n      0x00\n        /* \"#utility.yul\":10955:10960   */\n      dup2\n        /* \"#utility.yul\":10948:10961   */\n      iszero\n        /* \"#utility.yul\":10941:10962   */\n      iszero\n        /* \"#utility.yul\":10930:10962   */\n      swap1\n      pop\n        /* \"#utility.yul\":10878:10968   */\n      swap2\n      swap1\n      pop\n      jump\t// out\n        /* \"#utility.yul\":10974:11083   */\n    tag_207:\n        /* \"#utility.yul\":11055:11076   */\n      tag_341\n        /* \"#utility.yul\":11070:11075   */\n      dup2\n        /* \"#utility.yul\":11055:11076   */\n      tag_206\n      jump\t// in\n    tag_341:\n        /* \"#utility.yul\":11050:11053   */\n      dup3\n        /* \"#utility.yul\":11043:11077   */\n      mstore\n        /* \"#utility.yul\":10974:11083   */\n      pop\n      pop\n      jump\t// out\n        /* \"#utility.yul\":11089:11299   */\n    tag_86:\n        /* \"#utility.yul\":11176:11180   */\n      0x00\n        /* \"#utility.yul\":11214:11216   */\n      0x20\n        /* \"#utility.yul\":11203:11212   */\n      dup3\n        /* \"#utility.yul\":11199:11217   */\n      add\n        /* \"#utility.yul\":11191:11217   */\n      swap1\n      pop\n        /* \"#utility.yul\":11227:11292   */\n      tag_343\n        /* \"#utility.yul\":11289:11290   */\n      0x00\n        /* \"#utility.yul\":11278:11287   */\n      dup4\n        /* \"#utility.yul\":11274:11291   */\n      add\n        /* \"#utility.yul\":11265:11271   */\n      dup5\n        /* \"#utility.yul\":11227:11292   */\n      tag_207\n      jump\t// in\n    tag_343:\n        /* \"#utility.yul\":11089:11299   */\n      swap3\n      swap2\n      pop\n      pop\n      jump\t// out\n        /* \"#utility.yul\":11305:12104   */\n    tag_102:\n        /* \"#utility.yul\":11392:11398   */\n      0x00\n        /* \"#utility.yul\":11400:11406   */\n      dup1\n        /* \"#utility.yul\":11408:11414   */\n      0x00\n        /* \"#utility.yul\":11457:11459   */\n      0x60\n        /* \"#utility.yul\":11445:11454   */\n      dup5\n        /* \"#utility.yul\":11436:11443   */\n      dup7\n        /* \"#utility.yul\":11432:11455   */\n      sub\n        /* \"#utility.yul\":11428:11460   */\n      slt\n        /* \"#utility.yul\":11425:11544   */\n      iszero\n      tag_345\n      jumpi\n        /* \"#utility.yul\":11463:11542   */\n      tag_346\n      tag_177\n      jump\t// in\n    tag_346:\n        /* \"#utility.yul\":11425:11544   */\n    tag_345:\n        /* \"#utility.yul\":11583:11584   */\n      0x00\n        /* \"#utility.yul\":11608:11661   */\n      tag_347\n        /* \"#utility.yul\":11653:11660   */\n      dup7\n        /* \"#utility.yul\":11644:11650   */\n      dup3\n        /* \"#utility.yul\":11633:11642   */\n      dup8\n        /* \"#utility.yul\":11629:11651   */\n      add\n        /* \"#utility.yul\":11608:11661   */\n      tag_181\n      jump\t// in\n    tag_347:\n        /* \"#utility.yul\":11598:11661   */\n      swap4\n      pop\n        /* \"#utility.yul\":11554:11671   */\n      pop\n        /* \"#utility.yul\":11738:11740   */\n      0x20\n        /* \"#utility.yul\":11727:11736   */\n      dup5\n        /* \"#utility.yul\":11723:11741   */\n      add\n        /* \"#utility.yul\":11710:11742   */\n      calldataload\n        /* \"#utility.yul\":11769:11787   */\n      0xffffffffffffffff\n        /* \"#utility.yul\":11761:11767   */\n      dup2\n        /* \"#utility.yul\":11758:11788   */\n      gt\n        /* \"#utility.yul\":11755:11872   */\n      iszero\n      tag_348\n      jumpi\n        /* \"#utility.yul\":11791:11870   */\n      tag_349\n      tag_178\n      jump\t// in\n    tag_349:\n        /* \"#utility.yul\":11755:11872   */\n    tag_348:\n        /* \"#utility.yul\":11896:11959   */\n      tag_350\n        /* \"#utility.yul\":11951:11958   */\n      dup7\n        /* \"#utility.yul\":11942:11948   */\n      dup3\n        /* \"#utility.yul\":11931:11940   */\n      dup8\n        /* \"#utility.yul\":11927:11949   */\n      add\n        /* \"#utility.yul\":11896:11959   */\n      tag_195\n      jump\t// in\n    tag_350:\n        /* \"#utility.yul\":11886:11959   */\n      swap3\n      pop\n        /* \"#utility.yul\":11681:11969   */\n      pop\n        /* \"#utility.yul\":12008:12010   */\n      0x40\n        /* \"#utility.yul\":12034:12087   */\n      tag_351\n        /* \"#utility.yul\":12079:12086   */\n      dup7\n        /* \"#utility.yul\":12070:12076   */\n      dup3\n        /* \"#utility.yul\":12059:12068   */\n      dup8\n        /* \"#utility.yul\":12055:12077   */\n      add\n        /* \"#utility.yul\":12034:12087   */\n      tag_181\n      jump\t// in\n    tag_351:\n        /* \"#utility.yul\":12024:12087   */\n      swap2\n      pop\n        /* \"#utility.yul\":11979:12097   */\n      pop\n        /* \"#utility.yul\":11305:12104   */\n      swap3\n      pop\n      swap3\n      pop\n      swap3\n      jump\t// out\n        /* \"#utility.yul\":12110:12290   */\n    tag_208:\n        /* \"#utility.yul\":12158:12235   */\n      0x4e487b7100000000000000000000000000000000000000000000000000000000\n        /* \"#utility.yul\":12155:12156   */\n      0x00\n        /* \"#utility.yul\":12148:12236   */\n      mstore\n        /* \"#utility.yul\":12255:12259   */\n      0x22\n        /* \"#utility.yul\":12252:12253   */\n      0x04\n        /* \"#utility.yul\":12245:12260   */\n      mstore\n        /* \"#utility.yul\":12279:12283   */\n      0x24\n        /* \"#utility.yul\":12276:12277   */\n      0x00\n        /* \"#utility.yul\":12269:12284   */\n      revert\n        /* \"#utility.yul\":12296:12616   */\n    tag_112:\n        /* \"#utility.yul\":12340:12346   */\n      0x00\n        /* \"#utility.yul\":12377:12378   */\n      0x02\n        /* \"#utility.yul\":12371:12375   */\n      dup3\n        /* \"#utility.yul\":12367:12379   */\n      div\n        /* \"#utility.yul\":12357:12379   */\n      swap1\n      pop\n        /* \"#utility.yul\":12424:12425   */\n      0x01\n        /* \"#utility.yul\":12418:12422   */\n      dup3\n        /* \"#utility.yul\":12414:12426   */\n      and\n        /* \"#utility.yul\":12445:12463   */\n      dup1\n        /* \"#utility.yul\":12435:12516   */\n      tag_354\n      jumpi\n        /* \"#utility.yul\":12501:12505   */\n      0x7f\n        /* \"#utility.yul\":12493:12499   */\n      dup3\n        /* \"#utility.yul\":12489:12506   */\n      and\n        /* \"#utility.yul\":12479:12506   */\n      swap2\n      pop\n        /* \"#utility.yul\":12435:12516   */\n    tag_354:\n        /* \"#utility.yul\":12563:12565   */\n      0x20\n        /* \"#utility.yul\":12555:12561   */\n      dup3\n        /* \"#utility.yul\":12552:12566   */\n      lt\n        /* \"#utility.yul\":12532:12550   */\n      dup2\n        /* \"#utility.yul\":12529:12567   */\n      sub\n        /* \"#utility.yul\":12526:12610   */\n      tag_355\n      jumpi\n        /* \"#utility.yul\":12582:12600   */\n      tag_356\n      tag_208\n      jump\t// in\n    tag_356:\n        /* \"#utility.yul\":12526:12610   */\n    tag_355:\n        /* \"#utility.yul\":12347:12616   */\n      pop\n        /* \"#utility.yul\":12296:12616   */\n      swap2\n      swap1\n      pop\n      jump\t// out\n        /* \"#utility.yul\":12622:12770   */\n    tag_209:\n        /* \"#utility.yul\":12724:12735   */\n      0x00\n        /* \"#utility.yul\":12761:12764   */\n      dup2\n        /* \"#utility.yul\":12746:12764   */\n      swap1\n      pop\n        /* \"#utility.yul\":12622:12770   */\n      swap3\n      swap2\n      pop\n      pop\n      jump\t// out\n        /* \"#utility.yul\":12776:13166   */\n    tag_210:\n        /* \"#utility.yul\":12882:12885   */\n      0x00\n        /* \"#utility.yul\":12910:12949   */\n      tag_359\n        /* \"#utility.yul\":12943:12948   */\n      dup3\n        /* \"#utility.yul\":12910:12949   */\n      tag_182\n      jump\t// in\n    tag_359:\n        /* \"#utility.yul\":12965:13054   */\n      tag_360\n        /* \"#utility.yul\":13047:13053   */\n      dup2\n        /* \"#utility.yul\":13042:13045   */\n      dup6\n        /* \"#utility.yul\":12965:13054   */\n      tag_209\n      jump\t// in\n    tag_360:\n        /* \"#utility.yul\":12958:13054   */\n      swap4\n      pop\n        /* \"#utility.yul\":13063:13128   */\n      tag_361\n        /* \"#utility.yul\":13121:13127   */\n      dup2\n        /* \"#utility.yul\":13116:13119   */\n      dup6\n        /* \"#utility.yul\":13109:13113   */\n      0x20\n        /* \"#utility.yul\":13102:13107   */\n      dup7\n        /* \"#utility.yul\":13098:13114   */\n      add\n        /* \"#utility.yul\":13063:13128   */\n      tag_184\n      jump\t// in\n    tag_361:\n        /* \"#utility.yul\":13153:13159   */\n      dup1\n        /* \"#utility.yul\":13148:13151   */\n      dup5\n        /* \"#utility.yul\":13144:13160   */\n      add\n        /* \"#utility.yul\":13137:13160   */\n      swap2\n      pop\n        /* \"#utility.yul\":12886:13166   */\n      pop\n        /* \"#utility.yul\":12776:13166   */\n      swap3\n      swap2\n      pop\n      pop\n      jump\t// out\n        /* \"#utility.yul\":13172:13447   */\n    tag_119:\n        /* \"#utility.yul\":13304:13307   */\n      0x00\n        /* \"#utility.yul\":13326:13421   */\n      tag_363\n        /* \"#utility.yul\":13417:13420   */\n      dup3\n        /* \"#utility.yul\":13408:13414   */\n      dup5\n        /* \"#utility.yul\":13326:13421   */\n      tag_210\n      jump\t// in\n    tag_363:\n        /* \"#utility.yul\":13319:13421   */\n      swap2\n      pop\n        /* \"#utility.yul\":13438:13441   */\n      dup2\n        /* \"#utility.yul\":13431:13441   */\n      swap1\n      pop\n        /* \"#utility.yul\":13172:13447   */\n      swap3\n      swap2\n      pop\n      pop\n      jump\t// out\n        /* \"#utility.yul\":13453:13619   */\n    tag_211:\n        /* \"#utility.yul\":13593:13611   */\n      0x6e65656420696e7075742076616c756500000000000000000000000000000000\n        /* \"#utility.yul\":13589:13590   */\n      0x00\n        /* \"#utility.yul\":13581:13587   */\n      dup3\n        /* \"#utility.yul\":13577:13591   */\n      add\n        /* \"#utility.yul\":13570:13612   */\n      mstore\n        /* \"#utility.yul\":13453:13619   */\n      pop\n      jump\t// out\n        /* \"#utility.yul\":13625:13991   */\n    tag_212:\n        /* \"#utility.yul\":13767:13770   */\n      0x00\n        /* \"#utility.yul\":13788:13855   */\n      tag_366\n        /* \"#utility.yul\":13852:13854   */\n      0x10\n        /* \"#utility.yul\":13847:13850   */\n      dup4\n        /* \"#utility.yul\":13788:13855   */\n      tag_183\n      jump\t// in\n    tag_366:\n        /* \"#utility.yul\":13781:13855   */\n      swap2\n      pop\n        /* \"#utility.yul\":13864:13957   */\n      tag_367\n        /* \"#utility.yul\":13953:13956   */\n      dup3\n        /* \"#utility.yul\":13864:13957   */\n      tag_211\n      jump\t// in\n    tag_367:\n        /* \"#utility.yul\":13982:13984   */\n      0x20\n        /* \"#utility.yul\":13977:13980   */\n      dup3\n        /* \"#utility.yul\":13973:13985   */\n      add\n        /* \"#utility.yul\":13966:13985   */\n      swap1\n      pop\n        /* \"#utility.yul\":13625:13991   */\n      swap2\n      swap1\n      pop\n      jump\t// out\n        /* \"#utility.yul\":13997:14416   */\n    tag_131:\n        /* \"#utility.yul\":14163:14167   */\n      0x00\n        /* \"#utility.yul\":14201:14203   */\n      0x20\n        /* \"#utility.yul\":14190:14199   */\n      dup3\n        /* \"#utility.yul\":14186:14204   */\n      add\n        /* \"#utility.yul\":14178:14204   */\n      swap1\n      pop\n        /* \"#utility.yul\":14250:14259   */\n      dup2\n        /* \"#utility.yul\":14244:14248   */\n      dup2\n        /* \"#utility.yul\":14240:14260   */\n      sub\n        /* \"#utility.yul\":14236:14237   */\n      0x00\n        /* \"#utility.yul\":14225:14234   */\n      dup4\n        /* \"#utility.yul\":14221:14238   */\n      add\n        /* \"#utility.yul\":14214:14261   */\n      mstore\n        /* \"#utility.yul\":14278:14409   */\n      tag_369\n        /* \"#utility.yul\":14404:14408   */\n      dup2\n        /* \"#utility.yul\":14278:14409   */\n      tag_212\n      jump\t// in\n    tag_369:\n        /* \"#utility.yul\":14270:14409   */\n      swap1\n      pop\n        /* \"#utility.yul\":13997:14416   */\n      swap2\n      swap1\n      pop\n      jump\t// out\n        /* \"#utility.yul\":14422:14582   */\n    tag_213:\n        /* \"#utility.yul\":14562:14574   */\n      0x6974206973206f76657200000000000000000000000000000000000000000000\n        /* \"#utility.yul\":14558:14559   */\n      0x00\n        /* \"#utility.yul\":14550:14556   */\n      dup3\n        /* \"#utility.yul\":14546:14560   */\n      add\n        /* \"#utility.yul\":14539:14575   */\n      mstore\n        /* \"#utility.yul\":14422:14582   */\n      pop\n      jump\t// out\n        /* \"#utility.yul\":14588:14954   */\n    tag_214:\n        /* \"#utility.yul\":14730:14733   */\n      0x00\n        /* \"#utility.yul\":14751:14818   */\n      tag_372\n        /* \"#utility.yul\":14815:14817   */\n      0x0a\n        /* \"#utility.yul\":14810:14813   */\n      dup4\n        /* \"#utility.yul\":14751:14818   */\n      tag_183\n      jump\t// in\n    tag_372:\n        /* \"#utility.yul\":14744:14818   */\n      swap2\n      pop\n        /* \"#utility.yul\":14827:14920   */\n      tag_373\n        /* \"#utility.yul\":14916:14919   */\n      dup3\n        /* \"#utility.yul\":14827:14920   */\n      tag_213\n      jump\t// in\n    tag_373:\n        /* \"#utility.yul\":14945:14947   */\n      0x20\n        /* \"#utility.yul\":14940:14943   */\n      dup3\n        /* \"#utility.yul\":14936:14948   */\n      add\n        /* \"#utility.yul\":14929:14948   */\n      swap1\n      pop\n        /* \"#utility.yul\":14588:14954   */\n      swap2\n      swap1\n      pop\n      jump\t// out\n        /* \"#utility.yul\":14960:15379   */\n    tag_134:\n        /* \"#utility.yul\":15126:15130   */\n      0x00\n        /* \"#utility.yul\":15164:15166   */\n      0x20\n        /* \"#utility.yul\":15153:15162   */\n      dup3\n        /* \"#utility.yul\":15149:15167   */\n      add\n        /* \"#utility.yul\":15141:15167   */\n      swap1\n      pop\n        /* \"#utility.yul\":15213:15222   */\n      dup2\n        /* \"#utility.yul\":15207:15211   */\n      dup2\n        /* \"#utility.yul\":15203:15223   */\n      sub\n        /* \"#utility.yul\":15199:15200   */\n      0x00\n        /* \"#utility.yul\":15188:15197   */\n      dup4\n        /* \"#utility.yul\":15184:15201   */\n      add\n        /* \"#utility.yul\":15177:15224   */\n      mstore\n        /* \"#utility.yul\":15241:15372   */\n      tag_375\n        /* \"#utility.yul\":15367:15371   */\n      dup2\n        /* \"#utility.yul\":15241:15372   */\n      tag_214\n      jump\t// in\n    tag_375:\n        /* \"#utility.yul\":15233:15372   */\n      swap1\n      pop\n        /* \"#utility.yul\":14960:15379   */\n      swap2\n      swap1\n      pop\n      jump\t// out\n        /* \"#utility.yul\":15385:15918   */\n    tag_139:\n        /* \"#utility.yul\":15554:15558   */\n      0x00\n        /* \"#utility.yul\":15592:15594   */\n      0x60\n        /* \"#utility.yul\":15581:15590   */\n      dup3\n        /* \"#utility.yul\":15577:15595   */\n      add\n        /* \"#utility.yul\":15569:15595   */\n      swap1\n      pop\n        /* \"#utility.yul\":15605:15676   */\n      tag_377\n        /* \"#utility.yul\":15673:15674   */\n      0x00\n        /* \"#utility.yul\":15662:15671   */\n      dup4\n        /* \"#utility.yul\":15658:15675   */\n      add\n        /* \"#utility.yul\":15649:15655   */\n      dup7\n        /* \"#utility.yul\":15605:15676   */\n      tag_196\n      jump\t// in\n    tag_377:\n        /* \"#utility.yul\":15686:15758   */\n      tag_378\n        /* \"#utility.yul\":15754:15756   */\n      0x20\n        /* \"#utility.yul\":15743:15752   */\n      dup4\n        /* \"#utility.yul\":15739:15757   */\n      add\n        /* \"#utility.yul\":15730:15736   */\n      dup6\n        /* \"#utility.yul\":15686:15758   */\n      tag_201\n      jump\t// in\n    tag_378:\n        /* \"#utility.yul\":15805:15814   */\n      dup2\n        /* \"#utility.yul\":15799:15803   */\n      dup2\n        /* \"#utility.yul\":15795:15815   */\n      sub\n        /* \"#utility.yul\":15790:15792   */\n      0x40\n        /* \"#utility.yul\":15779:15788   */\n      dup4\n        /* \"#utility.yul\":15775:15793   */\n      add\n        /* \"#utility.yul\":15768:15816   */\n      mstore\n        /* \"#utility.yul\":15833:15911   */\n      tag_379\n        /* \"#utility.yul\":15906:15910   */\n      dup2\n        /* \"#utility.yul\":15897:15903   */\n      dup5\n        /* \"#utility.yul\":15833:15911   */\n      tag_186\n      jump\t// in\n    tag_379:\n        /* \"#utility.yul\":15825:15911   */\n      swap1\n      pop\n        /* \"#utility.yul\":15385:15918   */\n      swap5\n      swap4\n      pop\n      pop\n      pop\n      pop\n      jump\t// out\n\n    auxdata: 0xa2646970667358221220245c07430a033693ec82d17641fb4fe28d0922d165f8b2fc2e91e1f60dddf46064736f6c63430008160033\n}\n",
				"bytecode": {
					"linkReferences": {},
					"object": "60806040526040518060a001604052806040518060400160405280600781526020017f4745524d414e590000000000000000000000000000000000000000000000000081525081526020016040518060400160405280600681526020017f4652414e4348000000000000000000000000000000000000000000000000000081525081526020016040518060400160405280600581526020017f4348494e4100000000000000000000000000000000000000000000000000000081525081526020016040518060400160405280600681526020017f4252495a414c000000000000000000000000000000000000000000000000000081525081526020016040518060400160405280600581526020017f4b4f52454100000000000000000000000000000000000000000000000000000081525081525060059060056200014692919062000449565b5034801562000153575f80fd5b5060405162001fd038038062001fd08339818101604052810190620001799190620007e3565b335f73ffffffffffffffffffffffffffffffffffffffff168173ffffffffffffffffffffffffffffffffffffffff1603620001ed575f6040517f1e4fbdf7000000000000000000000000000000000000000000000000000000008152600401620001e491906200089e565b60405180910390fd5b620001fe816200026c60201b60201c565b5062000210836200032d60201b60201c565b42821162000255576040517f08c379a00000000000000000000000000000000000000000000000000000000081526004016200024c9062000917565b60405180910390fd5b816003819055508060048190555050505062000c49565b5f805f9054906101000a900473ffffffffffffffffffffffffffffffffffffffff169050815f806101000a81548173ffffffffffffffffffffffffffffffffffffffff021916908373ffffffffffffffffffffffffffffffffffffffff1602179055508173ffffffffffffffffffffffffffffffffffffffff168173ffffffffffffffffffffffffffffffffffffffff167f8be0079c531659141344cd1fd0a4f28419497f9722a3daafe3b4186f6b6457e060405160405180910390a35050565b6200033d6200037960201b60201c565b5f815190505f5b818110156200037457600560018160018154018082558091505003905f5260205f20505080600101905062000344565b505050565b620003896200041b60201b60201c565b73ffffffffffffffffffffffffffffffffffffffff16620003af6200042260201b60201c565b73ffffffffffffffffffffffffffffffffffffffff16146200041957620003db6200041b60201b60201c565b6040517f118cdaa70000000000000000000000000000000000000000000000000000000081526004016200041091906200089e565b60405180910390fd5b565b5f33905090565b5f805f9054906101000a900473ffffffffffffffffffffffffffffffffffffffff16905090565b828054828255905f5260205f2090810192821562000494579160200282015b828111156200049357825182908162000482919062000b65565b509160200191906001019062000468565b5b509050620004a39190620004a7565b5090565b5b80821115620004ca575f8181620004c09190620004ce565b50600101620004a8565b5090565b508054620004dc906200096e565b5f825580601f10620004ef57506200050e565b601f0160209004905f5260205f20908101906200050d919062000511565b5b50565b5b808211156200052a575f815f90555060010162000512565b5090565b5f604051905090565b5f80fd5b5f80fd5b5f80fd5b5f601f19601f8301169050919050565b7f4e487b71000000000000000000000000000000000000000000000000000000005f52604160045260245ffd5b6200058b8262000543565b810181811067ffffffffffffffff82111715620005ad57620005ac62000553565b5b80604052505050565b5f620005c16200052e565b9050620005cf828262000580565b919050565b5f67ffffffffffffffff821115620005f157620005f062000553565b5b602082029050602081019050919050565b5f80fd5b5f80fd5b5f67ffffffffffffffff82111562000627576200062662000553565b5b620006328262000543565b9050602081019050919050565b5f5b838110156200065e57808201518184015260208101905062000641565b5f8484015250505050565b5f6200067f62000679846200060a565b620005b6565b9050828152602081018484840111156200069e576200069d62000606565b5b620006ab8482856200063f565b509392505050565b5f82601f830112620006ca57620006c96200053f565b5b8151620006dc84826020860162000669565b91505092915050565b5f620006fb620006f584620005d4565b620005b6565b9050808382526020820190506020840283018581111562000721576200072062000602565b5b835b818110156200076f57805167ffffffffffffffff8111156200074a57620007496200053f565b5b808601620007598982620006b3565b8552602085019450505060208101905062000723565b5050509392505050565b5f82601f83011262000790576200078f6200053f565b5b8151620007a2848260208601620006e5565b91505092915050565b5f819050919050565b620007bf81620007ab565b8114620007ca575f80fd5b50565b5f81519050620007dd81620007b4565b92915050565b5f805f60608486031215620007fd57620007fc62000537565b5b5f84015167ffffffffffffffff8111156200081d576200081c6200053b565b5b6200082b8682870162000779565b93505060206200083e86828701620007cd565b92505060406200085186828701620007cd565b9150509250925092565b5f73ffffffffffffffffffffffffffffffffffffffff82169050919050565b5f62000886826200085b565b9050919050565b62000898816200087a565b82525050565b5f602082019050620008b35f8301846200088d565b92915050565b5f82825260208201905092915050565b7f796f752073686f756c642073657420747275652072696768742074696d6500005f82015250565b5f620008ff601e83620008b9565b91506200090c82620008c9565b602082019050919050565b5f6020820190508181035f8301526200093081620008f1565b9050919050565b5f81519050919050565b7f4e487b71000000000000000000000000000000000000000000000000000000005f52602260045260245ffd5b5f60028204905060018216806200098657607f821691505b6020821081036200099c576200099b62000941565b5b50919050565b5f819050815f5260205f209050919050565b5f6020601f8301049050919050565b5f82821b905092915050565b5f6008830262000a007fffffffffffffffffffffffffffffffffffffffffffffffffffffffffffffffff82620009c3565b62000a0c8683620009c3565b95508019841693508086168417925050509392505050565b5f819050919050565b5f62000a4d62000a4762000a4184620007ab565b62000a24565b620007ab565b9050919050565b5f819050919050565b62000a688362000a2d565b62000a8062000a778262000a54565b848454620009cf565b825550505050565b5f90565b62000a9662000a88565b62000aa381848462000a5d565b505050565b5b8181101562000aca5762000abe5f8262000a8c565b60018101905062000aa9565b5050565b601f82111562000b195762000ae381620009a2565b62000aee84620009b4565b8101602085101562000afe578190505b62000b1662000b0d85620009b4565b83018262000aa8565b50505b505050565b5f82821c905092915050565b5f62000b3b5f198460080262000b1e565b1980831691505092915050565b5f62000b55838362000b2a565b9150826002028217905092915050565b62000b708262000937565b67ffffffffffffffff81111562000b8c5762000b8b62000553565b5b62000b9882546200096e565b62000ba582828562000ace565b5f60209050601f83116001811462000bdb575f841562000bc6578287015190505b62000bd2858262000b48565b86555062000c41565b601f19841662000beb86620009a2565b5f5b8281101562000c145784890151825560018201915060208501945060208101905062000bed565b8683101562000c34578489015162000c30601f89168262000b2a565b8355505b6001600288020188555050505b505050505050565b6113798062000c575f395ff3fe608060405260043610610101575f3560e01c80638da5cb5b11610094578063c16d318011610063578063c16d31801461033a578063ddca3f4314610362578063f2fde38b1461038c578063f4245d6c146103b4578063f851a440146103f057610108565b80638da5cb5b1461028257806394ba859f146102ac578063a5843f8d146102d6578063c0f80921146102fe57610108565b80633f5d8056116100d05780633f5d8056146101ea5780635b56540914610214578063715018a614610250578063718e63021461026657610108565b806308e9daa51461010c57806329ae3cc31461014857806329dcb0cf1461018457806334330586146101ae57610108565b3661010857005b5f80fd5b348015610117575f80fd5b50610132600480360381019061012d9190610ba1565b61041a565b60405161013f9190610c56565b60405180910390f35b348015610153575f80fd5b5061016e60048036038101906101699190610da2565b6104c0565b60405161017b9190610e0b565b60405180910390f35b34801561018f575f80fd5b506101986104fa565b6040516101a59190610e0b565b60405180910390f35b3480156101b9575f80fd5b506101d460048036038101906101cf9190610e7e565b610500565b6040516101e19190610e0b565b60405180910390f35b3480156101f5575f80fd5b506101fe610515565b60405161020b9190610e0b565b60405180910390f35b34801561021f575f80fd5b5061023a60048036038101906102359190610ea9565b61051b565b6040516102479190610e0b565b60405180910390f35b34801561025b575f80fd5b50610264610591565b005b610280600480360381019061027b9190610f15565b6105a4565b005b34801561028d575f80fd5b50610296610770565b6040516102a39190610f6b565b60405180910390f35b3480156102b7575f80fd5b506102c0610797565b6040516102cd9190610e0b565b60405180910390f35b3480156102e1575f80fd5b506102fc60048036038101906102f79190611066565b61079e565b005b348015610309575f80fd5b50610324600480360381019061031f91906110ad565b6107e0565b6040516103319190611105565b60405180910390f35b348015610345575f80fd5b50610360600480360381019061035b9190610f15565b610811565b005b34801561036d575f80fd5b506103766108f4565b6040516103839190610e0b565b60405180910390f35b348015610397575f80fd5b506103b260048036038101906103ad9190610e7e565b6108fa565b005b3480156103bf575f80fd5b506103da60048036038101906103d5919061111e565b61097e565b6040516103e79190610f6b565b60405180910390f35b3480156103fb575f80fd5b506104046109e9565b6040516104119190610f6b565b60405180910390f35b60058181548110610429575f80fd5b905f5260205f20015f915090508054610441906111b7565b80601f016020809104026020016040519081016040528092919081815260200182805461046d906111b7565b80156104b85780601f1061048f576101008083540402835291602001916104b8565b820191905f5260205f20905b81548152906001019060200180831161049b57829003601f168201915b505050505081565b5f60075f8481526020019081526020015f20826040516104e09190611221565b908152602001604051809103902080549050905092915050565b60035481565b6008602052805f5260405f205f915090505481565b60025481565b5f60065f8581526020019081526020015f205f8373ffffffffffffffffffffffffffffffffffffffff1673ffffffffffffffffffffffffffffffffffffffff1681526020019081526020015f20600101836040516105799190611221565b90815260200160405180910390205490509392505050565b610599610a0e565b6105a25f610a95565b565b60013410156105e8576040517f08c379a00000000000000000000000000000000000000000000000000000000081526004016105df90611281565b60405180910390fd5b600354421061062c576040517f08c379a0000000000000000000000000000000000000000000000000000000008152600401610623906112e9565b60405180910390fd5b60075f60025481526020019081526020015f208160405161064d9190611221565b908152602001604051809103902033908060018154018082558091505060019003905f5260205f20015f9091909190916101000a81548173ffffffffffffffffffffffffffffffffffffffff021916908373ffffffffffffffffffffffffffffffffffffffff1602179055505f60065f60025481526020019081526020015f205f3373ffffffffffffffffffffffffffffffffffffffff1673ffffffffffffffffffffffffffffffffffffffff1681526020019081526020015f20905034816001018360405161071d9190611221565b9081526020016040518091039020819055507f4d235e55947e8bf611d22526452b03ff40852006ee0eccd36f7a07a257d6f10d600254338460405161076493929190611307565b60405180910390a15050565b5f805f9054906101000a900473ffffffffffffffffffffffffffffffffffffffff16905090565b5f47905090565b6107a6610a0e565b5f815190505f5b818110156107db57600560018160018154018082558091505003905f5260205f2050508060010190506107ad565b505050565b6006602052815f5260405f20602052805f5260405f205f9150915050805f015f9054906101000a900460ff16905081565b610819610a0e565b5f60075f60025481526020019081526020015f208260405161083b9190611221565b90815260200160405180910390208054806020026020016040519081016040528092919081815260200182805480156108c657602002820191905f5260205f20905b815f9054906101000a900473ffffffffffffffffffffffffffffffffffffffff1673ffffffffffffffffffffffffffffffffffffffff168152602001906001019080831161087d575b505050505090505f6108d6610797565b90505f5b82518110156108ee578060010190506108da565b50505050565b60045481565b610902610a0e565b5f73ffffffffffffffffffffffffffffffffffffffff168173ffffffffffffffffffffffffffffffffffffffff1603610972575f6040517f1e4fbdf70000000000000000000000000000000000000000000000000000000081526004016109699190610f6b565b60405180910390fd5b61097b81610a95565b50565b6007602052825f5260405f208280516020810182018051848252602083016020850120818352809550505050505081815481106109b9575f80fd5b905f5260205f20015f92509250509054906101000a900473ffffffffffffffffffffffffffffffffffffffff1681565b60015f9054906101000a900473ffffffffffffffffffffffffffffffffffffffff1681565b610a16610b56565b73ffffffffffffffffffffffffffffffffffffffff16610a34610770565b73ffffffffffffffffffffffffffffffffffffffff1614610a9357610a57610b56565b6040517f118cdaa7000000000000000000000000000000000000000000000000000000008152600401610a8a9190610f6b565b60405180910390fd5b565b5f805f9054906101000a900473ffffffffffffffffffffffffffffffffffffffff169050815f806101000a81548173ffffffffffffffffffffffffffffffffffffffff021916908373ffffffffffffffffffffffffffffffffffffffff1602179055508173ffffffffffffffffffffffffffffffffffffffff168173ffffffffffffffffffffffffffffffffffffffff167f8be0079c531659141344cd1fd0a4f28419497f9722a3daafe3b4186f6b6457e060405160405180910390a35050565b5f33905090565b5f604051905090565b5f80fd5b5f80fd5b5f819050919050565b610b8081610b6e565b8114610b8a575f80fd5b50565b5f81359050610b9b81610b77565b92915050565b5f60208284031215610bb657610bb5610b66565b5b5f610bc384828501610b8d565b91505092915050565b5f81519050919050565b5f82825260208201905092915050565b5f5b83811015610c03578082015181840152602081019050610be8565b5f8484015250505050565b5f601f19601f8301169050919050565b5f610c2882610bcc565b610c328185610bd6565b9350610c42818560208601610be6565b610c4b81610c0e565b840191505092915050565b5f6020820190508181035f830152610c6e8184610c1e565b905092915050565b5f80fd5b5f80fd5b7f4e487b71000000000000000000000000000000000000000000000000000000005f52604160045260245ffd5b610cb482610c0e565b810181811067ffffffffffffffff82111715610cd357610cd2610c7e565b5b80604052505050565b5f610ce5610b5d565b9050610cf18282610cab565b919050565b5f67ffffffffffffffff821115610d1057610d0f610c7e565b5b610d1982610c0e565b9050602081019050919050565b828183375f83830152505050565b5f610d46610d4184610cf6565b610cdc565b905082815260208101848484011115610d6257610d61610c7a565b5b610d6d848285610d26565b509392505050565b5f82601f830112610d8957610d88610c76565b5b8135610d99848260208601610d34565b91505092915050565b5f8060408385031215610db857610db7610b66565b5b5f610dc585828601610b8d565b925050602083013567ffffffffffffffff811115610de657610de5610b6a565b5b610df285828601610d75565b9150509250929050565b610e0581610b6e565b82525050565b5f602082019050610e1e5f830184610dfc565b92915050565b5f73ffffffffffffffffffffffffffffffffffffffff82169050919050565b5f610e4d82610e24565b9050919050565b610e5d81610e43565b8114610e67575f80fd5b50565b5f81359050610e7881610e54565b92915050565b5f60208284031215610e9357610e92610b66565b5b5f610ea084828501610e6a565b91505092915050565b5f805f60608486031215610ec057610ebf610b66565b5b5f610ecd86828701610b8d565b935050602084013567ffffffffffffffff811115610eee57610eed610b6a565b5b610efa86828701610d75565b9250506040610f0b86828701610e6a565b9150509250925092565b5f60208284031215610f2a57610f29610b66565b5b5f82013567ffffffffffffffff811115610f4757610f46610b6a565b5b610f5384828501610d75565b91505092915050565b610f6581610e43565b82525050565b5f602082019050610f7e5f830184610f5c565b92915050565b5f67ffffffffffffffff821115610f9e57610f9d610c7e565b5b602082029050602081019050919050565b5f80fd5b5f610fc5610fc084610f84565b610cdc565b90508083825260208201905060208402830185811115610fe857610fe7610faf565b5b835b8181101561102f57803567ffffffffffffffff81111561100d5761100c610c76565b5b80860161101a8982610d75565b85526020850194505050602081019050610fea565b5050509392505050565b5f82601f83011261104d5761104c610c76565b5b813561105d848260208601610fb3565b91505092915050565b5f6020828403121561107b5761107a610b66565b5b5f82013567ffffffffffffffff81111561109857611097610b6a565b5b6110a484828501611039565b91505092915050565b5f80604083850312156110c3576110c2610b66565b5b5f6110d085828601610b8d565b92505060206110e185828601610e6a565b9150509250929050565b5f8115159050919050565b6110ff816110eb565b82525050565b5f6020820190506111185f8301846110f6565b92915050565b5f805f6060848603121561113557611134610b66565b5b5f61114286828701610b8d565b935050602084013567ffffffffffffffff81111561116357611162610b6a565b5b61116f86828701610d75565b925050604061118086828701610b8d565b9150509250925092565b7f4e487b71000000000000000000000000000000000000000000000000000000005f52602260045260245ffd5b5f60028204905060018216806111ce57607f821691505b6020821081036111e1576111e061118a565b5b50919050565b5f81905092915050565b5f6111fb82610bcc565b61120581856111e7565b9350611215818560208601610be6565b80840191505092915050565b5f61122c82846111f1565b915081905092915050565b7f6e65656420696e7075742076616c7565000000000000000000000000000000005f82015250565b5f61126b601083610bd6565b915061127682611237565b602082019050919050565b5f6020820190508181035f8301526112988161125f565b9050919050565b7f6974206973206f766572000000000000000000000000000000000000000000005f82015250565b5f6112d3600a83610bd6565b91506112de8261129f565b602082019050919050565b5f6020820190508181035f830152611300816112c7565b9050919050565b5f60608201905061131a5f830186610dfc565b6113276020830185610f5c565b81810360408301526113398184610c1e565b905094935050505056fea2646970667358221220245c07430a033693ec82d17641fb4fe28d0922d165f8b2fc2e91e1f60dddf46064736f6c63430008160033",
					"opcodes": "PUSH1 0x80 PUSH1 0x40 MSTORE PUSH1 0x40 MLOAD DUP1 PUSH1 0xA0 ADD PUSH1 0x40 MSTORE DUP1 PUSH1 0x40 MLOAD DUP1 PUSH1 0x40 ADD PUSH1 0x40 MSTORE DUP1 PUSH1 0x7 DUP2 MSTORE PUSH1 0x20 ADD PUSH32 0x4745524D414E5900000000000000000000000000000000000000000000000000 DUP2 MSTORE POP DUP2 MSTORE PUSH1 0x20 ADD PUSH1 0x40 MLOAD DUP1 PUSH1 0x40 ADD PUSH1 0x40 MSTORE DUP1 PUSH1 0x6 DUP2 MSTORE PUSH1 0x20 ADD PUSH32 0x4652414E43480000000000000000000000000000000000000000000000000000 DUP2 MSTORE POP DUP2 MSTORE PUSH1 0x20 ADD PUSH1 0x40 MLOAD DUP1 PUSH1 0x40 ADD PUSH1 0x40 MSTORE DUP1 PUSH1 0x5 DUP2 MSTORE PUSH1 0x20 ADD PUSH32 0x4348494E41000000000000000000000000000000000000000000000000000000 DUP2 MSTORE POP DUP2 MSTORE PUSH1 0x20 ADD PUSH1 0x40 MLOAD DUP1 PUSH1 0x40 ADD PUSH1 0x40 MSTORE DUP1 PUSH1 0x6 DUP2 MSTORE PUSH1 0x20 ADD PUSH32 0x4252495A414C0000000000000000000000000000000000000000000000000000 DUP2 MSTORE POP DUP2 MSTORE PUSH1 0x20 ADD PUSH1 0x40 MLOAD DUP1 PUSH1 0x40 ADD PUSH1 0x40 MSTORE DUP1 PUSH1 0x5 DUP2 MSTORE PUSH1 0x20 ADD PUSH32 0x4B4F524541000000000000000000000000000000000000000000000000000000 DUP2 MSTORE POP DUP2 MSTORE POP PUSH1 0x5 SWAP1 PUSH1 0x5 PUSH3 0x146 SWAP3 SWAP2 SWAP1 PUSH3 0x449 JUMP JUMPDEST POP CALLVALUE DUP1 ISZERO PUSH3 0x153 JUMPI PUSH0 DUP1 REVERT JUMPDEST POP PUSH1 0x40 MLOAD PUSH3 0x1FD0 CODESIZE SUB DUP1 PUSH3 0x1FD0 DUP4 CODECOPY DUP2 DUP2 ADD PUSH1 0x40 MSTORE DUP2 ADD SWAP1 PUSH3 0x179 SWAP2 SWAP1 PUSH3 0x7E3 JUMP JUMPDEST CALLER PUSH0 PUSH20 0xFFFFFFFFFFFFFFFFFFFFFFFFFFFFFFFFFFFFFFFF AND DUP2 PUSH20 0xFFFFFFFFFFFFFFFFFFFFFFFFFFFFFFFFFFFFFFFF AND SUB PUSH3 0x1ED JUMPI PUSH0 PUSH1 0x40 MLOAD PUSH32 0x1E4FBDF700000000000000000000000000000000000000000000000000000000 DUP2 MSTORE PUSH1 0x4 ADD PUSH3 0x1E4 SWAP2 SWAP1 PUSH3 0x89E JUMP JUMPDEST PUSH1 0x40 MLOAD DUP1 SWAP2 SUB SWAP1 REVERT JUMPDEST PUSH3 0x1FE DUP2 PUSH3 0x26C PUSH1 0x20 SHL PUSH1 0x20 SHR JUMP JUMPDEST POP PUSH3 0x210 DUP4 PUSH3 0x32D PUSH1 0x20 SHL PUSH1 0x20 SHR JUMP JUMPDEST TIMESTAMP DUP3 GT PUSH3 0x255 JUMPI PUSH1 0x40 MLOAD PUSH32 0x8C379A000000000000000000000000000000000000000000000000000000000 DUP2 MSTORE PUSH1 0x4 ADD PUSH3 0x24C SWAP1 PUSH3 0x917 JUMP JUMPDEST PUSH1 0x40 MLOAD DUP1 SWAP2 SUB SWAP1 REVERT JUMPDEST DUP2 PUSH1 0x3 DUP2 SWAP1 SSTORE POP DUP1 PUSH1 0x4 DUP2 SWAP1 SSTORE POP POP POP POP PUSH3 0xC49 JUMP JUMPDEST PUSH0 DUP1 PUSH0 SWAP1 SLOAD SWAP1 PUSH2 0x100 EXP SWAP1 DIV PUSH20 0xFFFFFFFFFFFFFFFFFFFFFFFFFFFFFFFFFFFFFFFF AND SWAP1 POP DUP2 PUSH0 DUP1 PUSH2 0x100 EXP DUP2 SLOAD DUP2 PUSH20 0xFFFFFFFFFFFFFFFFFFFFFFFFFFFFFFFFFFFFFFFF MUL NOT AND SWAP1 DUP4 PUSH20 0xFFFFFFFFFFFFFFFFFFFFFFFFFFFFFFFFFFFFFFFF AND MUL OR SWAP1 SSTORE POP DUP2 PUSH20 0xFFFFFFFFFFFFFFFFFFFFFFFFFFFFFFFFFFFFFFFF AND DUP2 PUSH20 0xFFFFFFFFFFFFFFFFFFFFFFFFFFFFFFFFFFFFFFFF AND PUSH32 0x8BE0079C531659141344CD1FD0A4F28419497F9722A3DAAFE3B4186F6B6457E0 PUSH1 0x40 MLOAD PUSH1 0x40 MLOAD DUP1 SWAP2 SUB SWAP1 LOG3 POP POP JUMP JUMPDEST PUSH3 0x33D PUSH3 0x379 PUSH1 0x20 SHL PUSH1 0x20 SHR JUMP JUMPDEST PUSH0 DUP2 MLOAD SWAP1 POP PUSH0 JUMPDEST DUP2 DUP2 LT ISZERO PUSH3 0x374 JUMPI PUSH1 0x5 PUSH1 0x1 DUP2 PUSH1 0x1 DUP2 SLOAD ADD DUP1 DUP3 SSTORE DUP1 SWAP2 POP POP SUB SWAP1 PUSH0 MSTORE PUSH1 0x20 PUSH0 KECCAK256 POP POP DUP1 PUSH1 0x1 ADD SWAP1 POP PUSH3 0x344 JUMP JUMPDEST POP POP POP JUMP JUMPDEST PUSH3 0x389 PUSH3 0x41B PUSH1 0x20 SHL PUSH1 0x20 SHR JUMP JUMPDEST PUSH20 0xFFFFFFFFFFFFFFFFFFFFFFFFFFFFFFFFFFFFFFFF AND PUSH3 0x3AF PUSH3 0x422 PUSH1 0x20 SHL PUSH1 0x20 SHR JUMP JUMPDEST PUSH20 0xFFFFFFFFFFFFFFFFFFFFFFFFFFFFFFFFFFFFFFFF AND EQ PUSH3 0x419 JUMPI PUSH3 0x3DB PUSH3 0x41B PUSH1 0x20 SHL PUSH1 0x20 SHR JUMP JUMPDEST PUSH1 0x40 MLOAD PUSH32 0x118CDAA700000000000000000000000000000000000000000000000000000000 DUP2 MSTORE PUSH1 0x4 ADD PUSH3 0x410 SWAP2 SWAP1 PUSH3 0x89E JUMP JUMPDEST PUSH1 0x40 MLOAD DUP1 SWAP2 SUB SWAP1 REVERT JUMPDEST JUMP JUMPDEST PUSH0 CALLER SWAP1 POP SWAP1 JUMP JUMPDEST PUSH0 DUP1 PUSH0 SWAP1 SLOAD SWAP1 PUSH2 0x100 EXP SWAP1 DIV PUSH20 0xFFFFFFFFFFFFFFFFFFFFFFFFFFFFFFFFFFFFFFFF AND SWAP1 POP SWAP1 JUMP JUMPDEST DUP3 DUP1 SLOAD DUP3 DUP3 SSTORE SWAP1 PUSH0 MSTORE PUSH1 0x20 PUSH0 KECCAK256 SWAP1 DUP2 ADD SWAP3 DUP3 ISZERO PUSH3 0x494 JUMPI SWAP2 PUSH1 0x20 MUL DUP3 ADD JUMPDEST DUP3 DUP2 GT ISZERO PUSH3 0x493 JUMPI DUP3 MLOAD DUP3 SWAP1 DUP2 PUSH3 0x482 SWAP2 SWAP1 PUSH3 0xB65 JUMP JUMPDEST POP SWAP2 PUSH1 0x20 ADD SWAP2 SWAP1 PUSH1 0x1 ADD SWAP1 PUSH3 0x468 JUMP JUMPDEST JUMPDEST POP SWAP1 POP PUSH3 0x4A3 SWAP2 SWAP1 PUSH3 0x4A7 JUMP JUMPDEST POP SWAP1 JUMP JUMPDEST JUMPDEST DUP1 DUP3 GT ISZERO PUSH3 0x4CA JUMPI PUSH0 DUP2 DUP2 PUSH3 0x4C0 SWAP2 SWAP1 PUSH3 0x4CE JUMP JUMPDEST POP PUSH1 0x1 ADD PUSH3 0x4A8 JUMP JUMPDEST POP SWAP1 JUMP JUMPDEST POP DUP1 SLOAD PUSH3 0x4DC SWAP1 PUSH3 0x96E JUMP JUMPDEST PUSH0 DUP3 SSTORE DUP1 PUSH1 0x1F LT PUSH3 0x4EF JUMPI POP PUSH3 0x50E JUMP JUMPDEST PUSH1 0x1F ADD PUSH1 0x20 SWAP1 DIV SWAP1 PUSH0 MSTORE PUSH1 0x20 PUSH0 KECCAK256 SWAP1 DUP2 ADD SWAP1 PUSH3 0x50D SWAP2 SWAP1 PUSH3 0x511 JUMP JUMPDEST JUMPDEST POP JUMP JUMPDEST JUMPDEST DUP1 DUP3 GT ISZERO PUSH3 0x52A JUMPI PUSH0 DUP2 PUSH0 SWAP1 SSTORE POP PUSH1 0x1 ADD PUSH3 0x512 JUMP JUMPDEST POP SWAP1 JUMP JUMPDEST PUSH0 PUSH1 0x40 MLOAD SWAP1 POP SWAP1 JUMP JUMPDEST PUSH0 DUP1 REVERT JUMPDEST PUSH0 DUP1 REVERT JUMPDEST PUSH0 DUP1 REVERT JUMPDEST PUSH0 PUSH1 0x1F NOT PUSH1 0x1F DUP4 ADD AND SWAP1 POP SWAP2 SWAP1 POP JUMP JUMPDEST PUSH32 0x4E487B7100000000000000000000000000000000000000000000000000000000 PUSH0 MSTORE PUSH1 0x41 PUSH1 0x4 MSTORE PUSH1 0x24 PUSH0 REVERT JUMPDEST PUSH3 0x58B DUP3 PUSH3 0x543 JUMP JUMPDEST DUP2 ADD DUP2 DUP2 LT PUSH8 0xFFFFFFFFFFFFFFFF DUP3 GT OR ISZERO PUSH3 0x5AD JUMPI PUSH3 0x5AC PUSH3 0x553 JUMP JUMPDEST JUMPDEST DUP1 PUSH1 0x40 MSTORE POP POP POP JUMP JUMPDEST PUSH0 PUSH3 0x5C1 PUSH3 0x52E JUMP JUMPDEST SWAP1 POP PUSH3 0x5CF DUP3 DUP3 PUSH3 0x580 JUMP JUMPDEST SWAP2 SWAP1 POP JUMP JUMPDEST PUSH0 PUSH8 0xFFFFFFFFFFFFFFFF DUP3 GT ISZERO PUSH3 0x5F1 JUMPI PUSH3 0x5F0 PUSH3 0x553 JUMP JUMPDEST JUMPDEST PUSH1 0x20 DUP3 MUL SWAP1 POP PUSH1 0x20 DUP2 ADD SWAP1 POP SWAP2 SWAP1 POP JUMP JUMPDEST PUSH0 DUP1 REVERT JUMPDEST PUSH0 DUP1 REVERT JUMPDEST PUSH0 PUSH8 0xFFFFFFFFFFFFFFFF DUP3 GT ISZERO PUSH3 0x627 JUMPI PUSH3 0x626 PUSH3 0x553 JUMP JUMPDEST JUMPDEST PUSH3 0x632 DUP3 PUSH3 0x543 JUMP JUMPDEST SWAP1 POP PUSH1 0x20 DUP2 ADD SWAP1 POP SWAP2 SWAP1 POP JUMP JUMPDEST PUSH0 JUMPDEST DUP4 DUP2 LT ISZERO PUSH3 0x65E JUMPI DUP1 DUP3 ADD MLOAD DUP2 DUP5 ADD MSTORE PUSH1 0x20 DUP2 ADD SWAP1 POP PUSH3 0x641 JUMP JUMPDEST PUSH0 DUP5 DUP5 ADD MSTORE POP POP POP POP JUMP JUMPDEST PUSH0 PUSH3 0x67F PUSH3 0x679 DUP5 PUSH3 0x60A JUMP JUMPDEST PUSH3 0x5B6 JUMP JUMPDEST SWAP1 POP DUP3 DUP2 MSTORE PUSH1 0x20 DUP2 ADD DUP5 DUP5 DUP5 ADD GT ISZERO PUSH3 0x69E JUMPI PUSH3 0x69D PUSH3 0x606 JUMP JUMPDEST JUMPDEST PUSH3 0x6AB DUP5 DUP3 DUP6 PUSH3 0x63F JUMP JUMPDEST POP SWAP4 SWAP3 POP POP POP JUMP JUMPDEST PUSH0 DUP3 PUSH1 0x1F DUP4 ADD SLT PUSH3 0x6CA JUMPI PUSH3 0x6C9 PUSH3 0x53F JUMP JUMPDEST JUMPDEST DUP2 MLOAD PUSH3 0x6DC DUP5 DUP3 PUSH1 0x20 DUP7 ADD PUSH3 0x669 JUMP JUMPDEST SWAP2 POP POP SWAP3 SWAP2 POP POP JUMP JUMPDEST PUSH0 PUSH3 0x6FB PUSH3 0x6F5 DUP5 PUSH3 0x5D4 JUMP JUMPDEST PUSH3 0x5B6 JUMP JUMPDEST SWAP1 POP DUP1 DUP4 DUP3 MSTORE PUSH1 0x20 DUP3 ADD SWAP1 POP PUSH1 0x20 DUP5 MUL DUP4 ADD DUP6 DUP2 GT ISZERO PUSH3 0x721 JUMPI PUSH3 0x720 PUSH3 0x602 JUMP JUMPDEST JUMPDEST DUP4 JUMPDEST DUP2 DUP2 LT ISZERO PUSH3 0x76F JUMPI DUP1 MLOAD PUSH8 0xFFFFFFFFFFFFFFFF DUP2 GT ISZERO PUSH3 0x74A JUMPI PUSH3 0x749 PUSH3 0x53F JUMP JUMPDEST JUMPDEST DUP1 DUP7 ADD PUSH3 0x759 DUP10 DUP3 PUSH3 0x6B3 JUMP JUMPDEST DUP6 MSTORE PUSH1 0x20 DUP6 ADD SWAP5 POP POP POP PUSH1 0x20 DUP2 ADD SWAP1 POP PUSH3 0x723 JUMP JUMPDEST POP POP POP SWAP4 SWAP3 POP POP POP JUMP JUMPDEST PUSH0 DUP3 PUSH1 0x1F DUP4 ADD SLT PUSH3 0x790 JUMPI PUSH3 0x78F PUSH3 0x53F JUMP JUMPDEST JUMPDEST DUP2 MLOAD PUSH3 0x7A2 DUP5 DUP3 PUSH1 0x20 DUP7 ADD PUSH3 0x6E5 JUMP JUMPDEST SWAP2 POP POP SWAP3 SWAP2 POP POP JUMP JUMPDEST PUSH0 DUP2 SWAP1 POP SWAP2 SWAP1 POP JUMP JUMPDEST PUSH3 0x7BF DUP2 PUSH3 0x7AB JUMP JUMPDEST DUP2 EQ PUSH3 0x7CA JUMPI PUSH0 DUP1 REVERT JUMPDEST POP JUMP JUMPDEST PUSH0 DUP2 MLOAD SWAP1 POP PUSH3 0x7DD DUP2 PUSH3 0x7B4 JUMP JUMPDEST SWAP3 SWAP2 POP POP JUMP JUMPDEST PUSH0 DUP1 PUSH0 PUSH1 0x60 DUP5 DUP7 SUB SLT ISZERO PUSH3 0x7FD JUMPI PUSH3 0x7FC PUSH3 0x537 JUMP JUMPDEST JUMPDEST PUSH0 DUP5 ADD MLOAD PUSH8 0xFFFFFFFFFFFFFFFF DUP2 GT ISZERO PUSH3 0x81D JUMPI PUSH3 0x81C PUSH3 0x53B JUMP JUMPDEST JUMPDEST PUSH3 0x82B DUP7 DUP3 DUP8 ADD PUSH3 0x779 JUMP JUMPDEST SWAP4 POP POP PUSH1 0x20 PUSH3 0x83E DUP7 DUP3 DUP8 ADD PUSH3 0x7CD JUMP JUMPDEST SWAP3 POP POP PUSH1 0x40 PUSH3 0x851 DUP7 DUP3 DUP8 ADD PUSH3 0x7CD JUMP JUMPDEST SWAP2 POP POP SWAP3 POP SWAP3 POP SWAP3 JUMP JUMPDEST PUSH0 PUSH20 0xFFFFFFFFFFFFFFFFFFFFFFFFFFFFFFFFFFFFFFFF DUP3 AND SWAP1 POP SWAP2 SWAP1 POP JUMP JUMPDEST PUSH0 PUSH3 0x886 DUP3 PUSH3 0x85B JUMP JUMPDEST SWAP1 POP SWAP2 SWAP1 POP JUMP JUMPDEST PUSH3 0x898 DUP2 PUSH3 0x87A JUMP JUMPDEST DUP3 MSTORE POP POP JUMP JUMPDEST PUSH0 PUSH1 0x20 DUP3 ADD SWAP1 POP PUSH3 0x8B3 PUSH0 DUP4 ADD DUP5 PUSH3 0x88D JUMP JUMPDEST SWAP3 SWAP2 POP POP JUMP JUMPDEST PUSH0 DUP3 DUP3 MSTORE PUSH1 0x20 DUP3 ADD SWAP1 POP SWAP3 SWAP2 POP POP JUMP JUMPDEST PUSH32 0x796F752073686F756C642073657420747275652072696768742074696D650000 PUSH0 DUP3 ADD MSTORE POP JUMP JUMPDEST PUSH0 PUSH3 0x8FF PUSH1 0x1E DUP4 PUSH3 0x8B9 JUMP JUMPDEST SWAP2 POP PUSH3 0x90C DUP3 PUSH3 0x8C9 JUMP JUMPDEST PUSH1 0x20 DUP3 ADD SWAP1 POP SWAP2 SWAP1 POP JUMP JUMPDEST PUSH0 PUSH1 0x20 DUP3 ADD SWAP1 POP DUP2 DUP2 SUB PUSH0 DUP4 ADD MSTORE PUSH3 0x930 DUP2 PUSH3 0x8F1 JUMP JUMPDEST SWAP1 POP SWAP2 SWAP1 POP JUMP JUMPDEST PUSH0 DUP2 MLOAD SWAP1 POP SWAP2 SWAP1 POP JUMP JUMPDEST PUSH32 0x4E487B7100000000000000000000000000000000000000000000000000000000 PUSH0 MSTORE PUSH1 0x22 PUSH1 0x4 MSTORE PUSH1 0x24 PUSH0 REVERT JUMPDEST PUSH0 PUSH1 0x2 DUP3 DIV SWAP1 POP PUSH1 0x1 DUP3 AND DUP1 PUSH3 0x986 JUMPI PUSH1 0x7F DUP3 AND SWAP2 POP JUMPDEST PUSH1 0x20 DUP3 LT DUP2 SUB PUSH3 0x99C JUMPI PUSH3 0x99B PUSH3 0x941 JUMP JUMPDEST JUMPDEST POP SWAP2 SWAP1 POP JUMP JUMPDEST PUSH0 DUP2 SWAP1 POP DUP2 PUSH0 MSTORE PUSH1 0x20 PUSH0 KECCAK256 SWAP1 POP SWAP2 SWAP1 POP JUMP JUMPDEST PUSH0 PUSH1 0x20 PUSH1 0x1F DUP4 ADD DIV SWAP1 POP SWAP2 SWAP1 POP JUMP JUMPDEST PUSH0 DUP3 DUP3 SHL SWAP1 POP SWAP3 SWAP2 POP POP JUMP JUMPDEST PUSH0 PUSH1 0x8 DUP4 MUL PUSH3 0xA00 PUSH32 0xFFFFFFFFFFFFFFFFFFFFFFFFFFFFFFFFFFFFFFFFFFFFFFFFFFFFFFFFFFFFFFFF DUP3 PUSH3 0x9C3 JUMP JUMPDEST PUSH3 0xA0C DUP7 DUP4 PUSH3 0x9C3 JUMP JUMPDEST SWAP6 POP DUP1 NOT DUP5 AND SWAP4 POP DUP1 DUP7 AND DUP5 OR SWAP3 POP POP POP SWAP4 SWAP3 POP POP POP JUMP JUMPDEST PUSH0 DUP2 SWAP1 POP SWAP2 SWAP1 POP JUMP JUMPDEST PUSH0 PUSH3 0xA4D PUSH3 0xA47 PUSH3 0xA41 DUP5 PUSH3 0x7AB JUMP JUMPDEST PUSH3 0xA24 JUMP JUMPDEST PUSH3 0x7AB JUMP JUMPDEST SWAP1 POP SWAP2 SWAP1 POP JUMP JUMPDEST PUSH0 DUP2 SWAP1 POP SWAP2 SWAP1 POP JUMP JUMPDEST PUSH3 0xA68 DUP4 PUSH3 0xA2D JUMP JUMPDEST PUSH3 0xA80 PUSH3 0xA77 DUP3 PUSH3 0xA54 JUMP JUMPDEST DUP5 DUP5 SLOAD PUSH3 0x9CF JUMP JUMPDEST DUP3 SSTORE POP POP POP POP JUMP JUMPDEST PUSH0 SWAP1 JUMP JUMPDEST PUSH3 0xA96 PUSH3 0xA88 JUMP JUMPDEST PUSH3 0xAA3 DUP2 DUP5 DUP5 PUSH3 0xA5D JUMP JUMPDEST POP POP POP JUMP JUMPDEST JUMPDEST DUP2 DUP2 LT ISZERO PUSH3 0xACA JUMPI PUSH3 0xABE PUSH0 DUP3 PUSH3 0xA8C JUMP JUMPDEST PUSH1 0x1 DUP2 ADD SWAP1 POP PUSH3 0xAA9 JUMP JUMPDEST POP POP JUMP JUMPDEST PUSH1 0x1F DUP3 GT ISZERO PUSH3 0xB19 JUMPI PUSH3 0xAE3 DUP2 PUSH3 0x9A2 JUMP JUMPDEST PUSH3 0xAEE DUP5 PUSH3 0x9B4 JUMP JUMPDEST DUP2 ADD PUSH1 0x20 DUP6 LT ISZERO PUSH3 0xAFE JUMPI DUP2 SWAP1 POP JUMPDEST PUSH3 0xB16 PUSH3 0xB0D DUP6 PUSH3 0x9B4 JUMP JUMPDEST DUP4 ADD DUP3 PUSH3 0xAA8 JUMP JUMPDEST POP POP JUMPDEST POP POP POP JUMP JUMPDEST PUSH0 DUP3 DUP3 SHR SWAP1 POP SWAP3 SWAP2 POP POP JUMP JUMPDEST PUSH0 PUSH3 0xB3B PUSH0 NOT DUP5 PUSH1 0x8 MUL PUSH3 0xB1E JUMP JUMPDEST NOT DUP1 DUP4 AND SWAP2 POP POP SWAP3 SWAP2 POP POP JUMP JUMPDEST PUSH0 PUSH3 0xB55 DUP4 DUP4 PUSH3 0xB2A JUMP JUMPDEST SWAP2 POP DUP3 PUSH1 0x2 MUL DUP3 OR SWAP1 POP SWAP3 SWAP2 POP POP JUMP JUMPDEST PUSH3 0xB70 DUP3 PUSH3 0x937 JUMP JUMPDEST PUSH8 0xFFFFFFFFFFFFFFFF DUP2 GT ISZERO PUSH3 0xB8C JUMPI PUSH3 0xB8B PUSH3 0x553 JUMP JUMPDEST JUMPDEST PUSH3 0xB98 DUP3 SLOAD PUSH3 0x96E JUMP JUMPDEST PUSH3 0xBA5 DUP3 DUP3 DUP6 PUSH3 0xACE JUMP JUMPDEST PUSH0 PUSH1 0x20 SWAP1 POP PUSH1 0x1F DUP4 GT PUSH1 0x1 DUP2 EQ PUSH3 0xBDB JUMPI PUSH0 DUP5 ISZERO PUSH3 0xBC6 JUMPI DUP3 DUP8 ADD MLOAD SWAP1 POP JUMPDEST PUSH3 0xBD2 DUP6 DUP3 PUSH3 0xB48 JUMP JUMPDEST DUP7 SSTORE POP PUSH3 0xC41 JUMP JUMPDEST PUSH1 0x1F NOT DUP5 AND PUSH3 0xBEB DUP7 PUSH3 0x9A2 JUMP JUMPDEST PUSH0 JUMPDEST DUP3 DUP2 LT ISZERO PUSH3 0xC14 JUMPI DUP5 DUP10 ADD MLOAD DUP3 SSTORE PUSH1 0x1 DUP3 ADD SWAP2 POP PUSH1 0x20 DUP6 ADD SWAP5 POP PUSH1 0x20 DUP2 ADD SWAP1 POP PUSH3 0xBED JUMP JUMPDEST DUP7 DUP4 LT ISZERO PUSH3 0xC34 JUMPI DUP5 DUP10 ADD MLOAD PUSH3 0xC30 PUSH1 0x1F DUP10 AND DUP3 PUSH3 0xB2A JUMP JUMPDEST DUP4 SSTORE POP JUMPDEST PUSH1 0x1 PUSH1 0x2 DUP9 MUL ADD DUP9 SSTORE POP POP POP JUMPDEST POP POP POP POP POP POP JUMP JUMPDEST PUSH2 0x1379 DUP1 PUSH3 0xC57 PUSH0 CODECOPY PUSH0 RETURN INVALID PUSH1 0x80 PUSH1 0x40 MSTORE PUSH1 0x4 CALLDATASIZE LT PUSH2 0x101 JUMPI PUSH0 CALLDATALOAD PUSH1 0xE0 SHR DUP1 PUSH4 0x8DA5CB5B GT PUSH2 0x94 JUMPI DUP1 PUSH4 0xC16D3180 GT PUSH2 0x63 JUMPI DUP1 PUSH4 0xC16D3180 EQ PUSH2 0x33A JUMPI DUP1 PUSH4 0xDDCA3F43 EQ PUSH2 0x362 JUMPI DUP1 PUSH4 0xF2FDE38B EQ PUSH2 0x38C JUMPI DUP1 PUSH4 0xF4245D6C EQ PUSH2 0x3B4 JUMPI DUP1 PUSH4 0xF851A440 EQ PUSH2 0x3F0 JUMPI PUSH2 0x108 JUMP JUMPDEST DUP1 PUSH4 0x8DA5CB5B EQ PUSH2 0x282 JUMPI DUP1 PUSH4 0x94BA859F EQ PUSH2 0x2AC JUMPI DUP1 PUSH4 0xA5843F8D EQ PUSH2 0x2D6 JUMPI DUP1 PUSH4 0xC0F80921 EQ PUSH2 0x2FE JUMPI PUSH2 0x108 JUMP JUMPDEST DUP1 PUSH4 0x3F5D8056 GT PUSH2 0xD0 JUMPI DUP1 PUSH4 0x3F5D8056 EQ PUSH2 0x1EA JUMPI DUP1 PUSH4 0x5B565409 EQ PUSH2 0x214 JUMPI DUP1 PUSH4 0x715018A6 EQ PUSH2 0x250 JUMPI DUP1 PUSH4 0x718E6302 EQ PUSH2 0x266 JUMPI PUSH2 0x108 JUMP JUMPDEST DUP1 PUSH4 0x8E9DAA5 EQ PUSH2 0x10C JUMPI DUP1 PUSH4 0x29AE3CC3 EQ PUSH2 0x148 JUMPI DUP1 PUSH4 0x29DCB0CF EQ PUSH2 0x184 JUMPI DUP1 PUSH4 0x34330586 EQ PUSH2 0x1AE JUMPI PUSH2 0x108 JUMP JUMPDEST CALLDATASIZE PUSH2 0x108 JUMPI STOP JUMPDEST PUSH0 DUP1 REVERT JUMPDEST CALLVALUE DUP1 ISZERO PUSH2 0x117 JUMPI PUSH0 DUP1 REVERT JUMPDEST POP PUSH2 0x132 PUSH1 0x4 DUP1 CALLDATASIZE SUB DUP2 ADD SWAP1 PUSH2 0x12D SWAP2 SWAP1 PUSH2 0xBA1 JUMP JUMPDEST PUSH2 0x41A JUMP JUMPDEST PUSH1 0x40 MLOAD PUSH2 0x13F SWAP2 SWAP1 PUSH2 0xC56 JUMP JUMPDEST PUSH1 0x40 MLOAD DUP1 SWAP2 SUB SWAP1 RETURN JUMPDEST CALLVALUE DUP1 ISZERO PUSH2 0x153 JUMPI PUSH0 DUP1 REVERT JUMPDEST POP PUSH2 0x16E PUSH1 0x4 DUP1 CALLDATASIZE SUB DUP2 ADD SWAP1 PUSH2 0x169 SWAP2 SWAP1 PUSH2 0xDA2 JUMP JUMPDEST PUSH2 0x4C0 JUMP JUMPDEST PUSH1 0x40 MLOAD PUSH2 0x17B SWAP2 SWAP1 PUSH2 0xE0B JUMP JUMPDEST PUSH1 0x40 MLOAD DUP1 SWAP2 SUB SWAP1 RETURN JUMPDEST CALLVALUE DUP1 ISZERO PUSH2 0x18F JUMPI PUSH0 DUP1 REVERT JUMPDEST POP PUSH2 0x198 PUSH2 0x4FA JUMP JUMPDEST PUSH1 0x40 MLOAD PUSH2 0x1A5 SWAP2 SWAP1 PUSH2 0xE0B JUMP JUMPDEST PUSH1 0x40 MLOAD DUP1 SWAP2 SUB SWAP1 RETURN JUMPDEST CALLVALUE DUP1 ISZERO PUSH2 0x1B9 JUMPI PUSH0 DUP1 REVERT JUMPDEST POP PUSH2 0x1D4 PUSH1 0x4 DUP1 CALLDATASIZE SUB DUP2 ADD SWAP1 PUSH2 0x1CF SWAP2 SWAP1 PUSH2 0xE7E JUMP JUMPDEST PUSH2 0x500 JUMP JUMPDEST PUSH1 0x40 MLOAD PUSH2 0x1E1 SWAP2 SWAP1 PUSH2 0xE0B JUMP JUMPDEST PUSH1 0x40 MLOAD DUP1 SWAP2 SUB SWAP1 RETURN JUMPDEST CALLVALUE DUP1 ISZERO PUSH2 0x1F5 JUMPI PUSH0 DUP1 REVERT JUMPDEST POP PUSH2 0x1FE PUSH2 0x515 JUMP JUMPDEST PUSH1 0x40 MLOAD PUSH2 0x20B SWAP2 SWAP1 PUSH2 0xE0B JUMP JUMPDEST PUSH1 0x40 MLOAD DUP1 SWAP2 SUB SWAP1 RETURN JUMPDEST CALLVALUE DUP1 ISZERO PUSH2 0x21F JUMPI PUSH0 DUP1 REVERT JUMPDEST POP PUSH2 0x23A PUSH1 0x4 DUP1 CALLDATASIZE SUB DUP2 ADD SWAP1 PUSH2 0x235 SWAP2 SWAP1 PUSH2 0xEA9 JUMP JUMPDEST PUSH2 0x51B JUMP JUMPDEST PUSH1 0x40 MLOAD PUSH2 0x247 SWAP2 SWAP1 PUSH2 0xE0B JUMP JUMPDEST PUSH1 0x40 MLOAD DUP1 SWAP2 SUB SWAP1 RETURN JUMPDEST CALLVALUE DUP1 ISZERO PUSH2 0x25B JUMPI PUSH0 DUP1 REVERT JUMPDEST POP PUSH2 0x264 PUSH2 0x591 JUMP JUMPDEST STOP JUMPDEST PUSH2 0x280 PUSH1 0x4 DUP1 CALLDATASIZE SUB DUP2 ADD SWAP1 PUSH2 0x27B SWAP2 SWAP1 PUSH2 0xF15 JUMP JUMPDEST PUSH2 0x5A4 JUMP JUMPDEST STOP JUMPDEST CALLVALUE DUP1 ISZERO PUSH2 0x28D JUMPI PUSH0 DUP1 REVERT JUMPDEST POP PUSH2 0x296 PUSH2 0x770 JUMP JUMPDEST PUSH1 0x40 MLOAD PUSH2 0x2A3 SWAP2 SWAP1 PUSH2 0xF6B JUMP JUMPDEST PUSH1 0x40 MLOAD DUP1 SWAP2 SUB SWAP1 RETURN JUMPDEST CALLVALUE DUP1 ISZERO PUSH2 0x2B7 JUMPI PUSH0 DUP1 REVERT JUMPDEST POP PUSH2 0x2C0 PUSH2 0x797 JUMP JUMPDEST PUSH1 0x40 MLOAD PUSH2 0x2CD SWAP2 SWAP1 PUSH2 0xE0B JUMP JUMPDEST PUSH1 0x40 MLOAD DUP1 SWAP2 SUB SWAP1 RETURN JUMPDEST CALLVALUE DUP1 ISZERO PUSH2 0x2E1 JUMPI PUSH0 DUP1 REVERT JUMPDEST POP PUSH2 0x2FC PUSH1 0x4 DUP1 CALLDATASIZE SUB DUP2 ADD SWAP1 PUSH2 0x2F7 SWAP2 SWAP1 PUSH2 0x1066 JUMP JUMPDEST PUSH2 0x79E JUMP JUMPDEST STOP JUMPDEST CALLVALUE DUP1 ISZERO PUSH2 0x309 JUMPI PUSH0 DUP1 REVERT JUMPDEST POP PUSH2 0x324 PUSH1 0x4 DUP1 CALLDATASIZE SUB DUP2 ADD SWAP1 PUSH2 0x31F SWAP2 SWAP1 PUSH2 0x10AD JUMP JUMPDEST PUSH2 0x7E0 JUMP JUMPDEST PUSH1 0x40 MLOAD PUSH2 0x331 SWAP2 SWAP1 PUSH2 0x1105 JUMP JUMPDEST PUSH1 0x40 MLOAD DUP1 SWAP2 SUB SWAP1 RETURN JUMPDEST CALLVALUE DUP1 ISZERO PUSH2 0x345 JUMPI PUSH0 DUP1 REVERT JUMPDEST POP PUSH2 0x360 PUSH1 0x4 DUP1 CALLDATASIZE SUB DUP2 ADD SWAP1 PUSH2 0x35B SWAP2 SWAP1 PUSH2 0xF15 JUMP JUMPDEST PUSH2 0x811 JUMP JUMPDEST STOP JUMPDEST CALLVALUE DUP1 ISZERO PUSH2 0x36D JUMPI PUSH0 DUP1 REVERT JUMPDEST POP PUSH2 0x376 PUSH2 0x8F4 JUMP JUMPDEST PUSH1 0x40 MLOAD PUSH2 0x383 SWAP2 SWAP1 PUSH2 0xE0B JUMP JUMPDEST PUSH1 0x40 MLOAD DUP1 SWAP2 SUB SWAP1 RETURN JUMPDEST CALLVALUE DUP1 ISZERO PUSH2 0x397 JUMPI PUSH0 DUP1 REVERT JUMPDEST POP PUSH2 0x3B2 PUSH1 0x4 DUP1 CALLDATASIZE SUB DUP2 ADD SWAP1 PUSH2 0x3AD SWAP2 SWAP1 PUSH2 0xE7E JUMP JUMPDEST PUSH2 0x8FA JUMP JUMPDEST STOP JUMPDEST CALLVALUE DUP1 ISZERO PUSH2 0x3BF JUMPI PUSH0 DUP1 REVERT JUMPDEST POP PUSH2 0x3DA PUSH1 0x4 DUP1 CALLDATASIZE SUB DUP2 ADD SWAP1 PUSH2 0x3D5 SWAP2 SWAP1 PUSH2 0x111E JUMP JUMPDEST PUSH2 0x97E JUMP JUMPDEST PUSH1 0x40 MLOAD PUSH2 0x3E7 SWAP2 SWAP1 PUSH2 0xF6B JUMP JUMPDEST PUSH1 0x40 MLOAD DUP1 SWAP2 SUB SWAP1 RETURN JUMPDEST CALLVALUE DUP1 ISZERO PUSH2 0x3FB JUMPI PUSH0 DUP1 REVERT JUMPDEST POP PUSH2 0x404 PUSH2 0x9E9 JUMP JUMPDEST PUSH1 0x40 MLOAD PUSH2 0x411 SWAP2 SWAP1 PUSH2 0xF6B JUMP JUMPDEST PUSH1 0x40 MLOAD DUP1 SWAP2 SUB SWAP1 RETURN JUMPDEST PUSH1 0x5 DUP2 DUP2 SLOAD DUP2 LT PUSH2 0x429 JUMPI PUSH0 DUP1 REVERT JUMPDEST SWAP1 PUSH0 MSTORE PUSH1 0x20 PUSH0 KECCAK256 ADD PUSH0 SWAP2 POP SWAP1 POP DUP1 SLOAD PUSH2 0x441 SWAP1 PUSH2 0x11B7 JUMP JUMPDEST DUP1 PUSH1 0x1F ADD PUSH1 0x20 DUP1 SWAP2 DIV MUL PUSH1 0x20 ADD PUSH1 0x40 MLOAD SWAP1 DUP2 ADD PUSH1 0x40 MSTORE DUP1 SWAP3 SWAP2 SWAP1 DUP2 DUP2 MSTORE PUSH1 0x20 ADD DUP3 DUP1 SLOAD PUSH2 0x46D SWAP1 PUSH2 0x11B7 JUMP JUMPDEST DUP1 ISZERO PUSH2 0x4B8 JUMPI DUP1 PUSH1 0x1F LT PUSH2 0x48F JUMPI PUSH2 0x100 DUP1 DUP4 SLOAD DIV MUL DUP4 MSTORE SWAP2 PUSH1 0x20 ADD SWAP2 PUSH2 0x4B8 JUMP JUMPDEST DUP3 ADD SWAP2 SWAP1 PUSH0 MSTORE PUSH1 0x20 PUSH0 KECCAK256 SWAP1 JUMPDEST DUP2 SLOAD DUP2 MSTORE SWAP1 PUSH1 0x1 ADD SWAP1 PUSH1 0x20 ADD DUP1 DUP4 GT PUSH2 0x49B JUMPI DUP3 SWAP1 SUB PUSH1 0x1F AND DUP3 ADD SWAP2 JUMPDEST POP POP POP POP POP DUP2 JUMP JUMPDEST PUSH0 PUSH1 0x7 PUSH0 DUP5 DUP2 MSTORE PUSH1 0x20 ADD SWAP1 DUP2 MSTORE PUSH1 0x20 ADD PUSH0 KECCAK256 DUP3 PUSH1 0x40 MLOAD PUSH2 0x4E0 SWAP2 SWAP1 PUSH2 0x1221 JUMP JUMPDEST SWAP1 DUP2 MSTORE PUSH1 0x20 ADD PUSH1 0x40 MLOAD DUP1 SWAP2 SUB SWAP1 KECCAK256 DUP1 SLOAD SWAP1 POP SWAP1 POP SWAP3 SWAP2 POP POP JUMP JUMPDEST PUSH1 0x3 SLOAD DUP2 JUMP JUMPDEST PUSH1 0x8 PUSH1 0x20 MSTORE DUP1 PUSH0 MSTORE PUSH1 0x40 PUSH0 KECCAK256 PUSH0 SWAP2 POP SWAP1 POP SLOAD DUP2 JUMP JUMPDEST PUSH1 0x2 SLOAD DUP2 JUMP JUMPDEST PUSH0 PUSH1 0x6 PUSH0 DUP6 DUP2 MSTORE PUSH1 0x20 ADD SWAP1 DUP2 MSTORE PUSH1 0x20 ADD PUSH0 KECCAK256 PUSH0 DUP4 PUSH20 0xFFFFFFFFFFFFFFFFFFFFFFFFFFFFFFFFFFFFFFFF AND PUSH20 0xFFFFFFFFFFFFFFFFFFFFFFFFFFFFFFFFFFFFFFFF AND DUP2 MSTORE PUSH1 0x20 ADD SWAP1 DUP2 MSTORE PUSH1 0x20 ADD PUSH0 KECCAK256 PUSH1 0x1 ADD DUP4 PUSH1 0x40 MLOAD PUSH2 0x579 SWAP2 SWAP1 PUSH2 0x1221 JUMP JUMPDEST SWAP1 DUP2 MSTORE PUSH1 0x20 ADD PUSH1 0x40 MLOAD DUP1 SWAP2 SUB SWAP1 KECCAK256 SLOAD SWAP1 POP SWAP4 SWAP3 POP POP POP JUMP JUMPDEST PUSH2 0x599 PUSH2 0xA0E JUMP JUMPDEST PUSH2 0x5A2 PUSH0 PUSH2 0xA95 JUMP JUMPDEST JUMP JUMPDEST PUSH1 0x1 CALLVALUE LT ISZERO PUSH2 0x5E8 JUMPI PUSH1 0x40 MLOAD PUSH32 0x8C379A000000000000000000000000000000000000000000000000000000000 DUP2 MSTORE PUSH1 0x4 ADD PUSH2 0x5DF SWAP1 PUSH2 0x1281 JUMP JUMPDEST PUSH1 0x40 MLOAD DUP1 SWAP2 SUB SWAP1 REVERT JUMPDEST PUSH1 0x3 SLOAD TIMESTAMP LT PUSH2 0x62C JUMPI PUSH1 0x40 MLOAD PUSH32 0x8C379A000000000000000000000000000000000000000000000000000000000 DUP2 MSTORE PUSH1 0x4 ADD PUSH2 0x623 SWAP1 PUSH2 0x12E9 JUMP JUMPDEST PUSH1 0x40 MLOAD DUP1 SWAP2 SUB SWAP1 REVERT JUMPDEST PUSH1 0x7 PUSH0 PUSH1 0x2 SLOAD DUP2 MSTORE PUSH1 0x20 ADD SWAP1 DUP2 MSTORE PUSH1 0x20 ADD PUSH0 KECCAK256 DUP2 PUSH1 0x40 MLOAD PUSH2 0x64D SWAP2 SWAP1 PUSH2 0x1221 JUMP JUMPDEST SWAP1 DUP2 MSTORE PUSH1 0x20 ADD PUSH1 0x40 MLOAD DUP1 SWAP2 SUB SWAP1 KECCAK256 CALLER SWAP1 DUP1 PUSH1 0x1 DUP2 SLOAD ADD DUP1 DUP3 SSTORE DUP1 SWAP2 POP POP PUSH1 0x1 SWAP1 SUB SWAP1 PUSH0 MSTORE PUSH1 0x20 PUSH0 KECCAK256 ADD PUSH0 SWAP1 SWAP2 SWAP1 SWAP2 SWAP1 SWAP2 PUSH2 0x100 EXP DUP2 SLOAD DUP2 PUSH20 0xFFFFFFFFFFFFFFFFFFFFFFFFFFFFFFFFFFFFFFFF MUL NOT AND SWAP1 DUP4 PUSH20 0xFFFFFFFFFFFFFFFFFFFFFFFFFFFFFFFFFFFFFFFF AND MUL OR SWAP1 SSTORE POP PUSH0 PUSH1 0x6 PUSH0 PUSH1 0x2 SLOAD DUP2 MSTORE PUSH1 0x20 ADD SWAP1 DUP2 MSTORE PUSH1 0x20 ADD PUSH0 KECCAK256 PUSH0 CALLER PUSH20 0xFFFFFFFFFFFFFFFFFFFFFFFFFFFFFFFFFFFFFFFF AND PUSH20 0xFFFFFFFFFFFFFFFFFFFFFFFFFFFFFFFFFFFFFFFF AND DUP2 MSTORE PUSH1 0x20 ADD SWAP1 DUP2 MSTORE PUSH1 0x20 ADD PUSH0 KECCAK256 SWAP1 POP CALLVALUE DUP2 PUSH1 0x1 ADD DUP4 PUSH1 0x40 MLOAD PUSH2 0x71D SWAP2 SWAP1 PUSH2 0x1221 JUMP JUMPDEST SWAP1 DUP2 MSTORE PUSH1 0x20 ADD PUSH1 0x40 MLOAD DUP1 SWAP2 SUB SWAP1 KECCAK256 DUP2 SWAP1 SSTORE POP PUSH32 0x4D235E55947E8BF611D22526452B03FF40852006EE0ECCD36F7A07A257D6F10D PUSH1 0x2 SLOAD CALLER DUP5 PUSH1 0x40 MLOAD PUSH2 0x764 SWAP4 SWAP3 SWAP2 SWAP1 PUSH2 0x1307 JUMP JUMPDEST PUSH1 0x40 MLOAD DUP1 SWAP2 SUB SWAP1 LOG1 POP POP JUMP JUMPDEST PUSH0 DUP1 PUSH0 SWAP1 SLOAD SWAP1 PUSH2 0x100 EXP SWAP1 DIV PUSH20 0xFFFFFFFFFFFFFFFFFFFFFFFFFFFFFFFFFFFFFFFF AND SWAP1 POP SWAP1 JUMP JUMPDEST PUSH0 SELFBALANCE SWAP1 POP SWAP1 JUMP JUMPDEST PUSH2 0x7A6 PUSH2 0xA0E JUMP JUMPDEST PUSH0 DUP2 MLOAD SWAP1 POP PUSH0 JUMPDEST DUP2 DUP2 LT ISZERO PUSH2 0x7DB JUMPI PUSH1 0x5 PUSH1 0x1 DUP2 PUSH1 0x1 DUP2 SLOAD ADD DUP1 DUP3 SSTORE DUP1 SWAP2 POP POP SUB SWAP1 PUSH0 MSTORE PUSH1 0x20 PUSH0 KECCAK256 POP POP DUP1 PUSH1 0x1 ADD SWAP1 POP PUSH2 0x7AD JUMP JUMPDEST POP POP POP JUMP JUMPDEST PUSH1 0x6 PUSH1 0x20 MSTORE DUP2 PUSH0 MSTORE PUSH1 0x40 PUSH0 KECCAK256 PUSH1 0x20 MSTORE DUP1 PUSH0 MSTORE PUSH1 0x40 PUSH0 KECCAK256 PUSH0 SWAP2 POP SWAP2 POP POP DUP1 PUSH0 ADD PUSH0 SWAP1 SLOAD SWAP1 PUSH2 0x100 EXP SWAP1 DIV PUSH1 0xFF AND SWAP1 POP DUP2 JUMP JUMPDEST PUSH2 0x819 PUSH2 0xA0E JUMP JUMPDEST PUSH0 PUSH1 0x7 PUSH0 PUSH1 0x2 SLOAD DUP2 MSTORE PUSH1 0x20 ADD SWAP1 DUP2 MSTORE PUSH1 0x20 ADD PUSH0 KECCAK256 DUP3 PUSH1 0x40 MLOAD PUSH2 0x83B SWAP2 SWAP1 PUSH2 0x1221 JUMP JUMPDEST SWAP1 DUP2 MSTORE PUSH1 0x20 ADD PUSH1 0x40 MLOAD DUP1 SWAP2 SUB SWAP1 KECCAK256 DUP1 SLOAD DUP1 PUSH1 0x20 MUL PUSH1 0x20 ADD PUSH1 0x40 MLOAD SWAP1 DUP2 ADD PUSH1 0x40 MSTORE DUP1 SWAP3 SWAP2 SWAP1 DUP2 DUP2 MSTORE PUSH1 0x20 ADD DUP3 DUP1 SLOAD DUP1 ISZERO PUSH2 0x8C6 JUMPI PUSH1 0x20 MUL DUP3 ADD SWAP2 SWAP1 PUSH0 MSTORE PUSH1 0x20 PUSH0 KECCAK256 SWAP1 JUMPDEST DUP2 PUSH0 SWAP1 SLOAD SWAP1 PUSH2 0x100 EXP SWAP1 DIV PUSH20 0xFFFFFFFFFFFFFFFFFFFFFFFFFFFFFFFFFFFFFFFF AND PUSH20 0xFFFFFFFFFFFFFFFFFFFFFFFFFFFFFFFFFFFFFFFF AND DUP2 MSTORE PUSH1 0x20 ADD SWAP1 PUSH1 0x1 ADD SWAP1 DUP1 DUP4 GT PUSH2 0x87D JUMPI JUMPDEST POP POP POP POP POP SWAP1 POP PUSH0 PUSH2 0x8D6 PUSH2 0x797 JUMP JUMPDEST SWAP1 POP PUSH0 JUMPDEST DUP3 MLOAD DUP2 LT ISZERO PUSH2 0x8EE JUMPI DUP1 PUSH1 0x1 ADD SWAP1 POP PUSH2 0x8DA JUMP JUMPDEST POP POP POP POP JUMP JUMPDEST PUSH1 0x4 SLOAD DUP2 JUMP JUMPDEST PUSH2 0x902 PUSH2 0xA0E JUMP JUMPDEST PUSH0 PUSH20 0xFFFFFFFFFFFFFFFFFFFFFFFFFFFFFFFFFFFFFFFF AND DUP2 PUSH20 0xFFFFFFFFFFFFFFFFFFFFFFFFFFFFFFFFFFFFFFFF AND SUB PUSH2 0x972 JUMPI PUSH0 PUSH1 0x40 MLOAD PUSH32 0x1E4FBDF700000000000000000000000000000000000000000000000000000000 DUP2 MSTORE PUSH1 0x4 ADD PUSH2 0x969 SWAP2 SWAP1 PUSH2 0xF6B JUMP JUMPDEST PUSH1 0x40 MLOAD DUP1 SWAP2 SUB SWAP1 REVERT JUMPDEST PUSH2 0x97B DUP2 PUSH2 0xA95 JUMP JUMPDEST POP JUMP JUMPDEST PUSH1 0x7 PUSH1 0x20 MSTORE DUP3 PUSH0 MSTORE PUSH1 0x40 PUSH0 KECCAK256 DUP3 DUP1 MLOAD PUSH1 0x20 DUP2 ADD DUP3 ADD DUP1 MLOAD DUP5 DUP3 MSTORE PUSH1 0x20 DUP4 ADD PUSH1 0x20 DUP6 ADD KECCAK256 DUP2 DUP4 MSTORE DUP1 SWAP6 POP POP POP POP POP POP DUP2 DUP2 SLOAD DUP2 LT PUSH2 0x9B9 JUMPI PUSH0 DUP1 REVERT JUMPDEST SWAP1 PUSH0 MSTORE PUSH1 0x20 PUSH0 KECCAK256 ADD PUSH0 SWAP3 POP SWAP3 POP POP SWAP1 SLOAD SWAP1 PUSH2 0x100 EXP SWAP1 DIV PUSH20 0xFFFFFFFFFFFFFFFFFFFFFFFFFFFFFFFFFFFFFFFF AND DUP2 JUMP JUMPDEST PUSH1 0x1 PUSH0 SWAP1 SLOAD SWAP1 PUSH2 0x100 EXP SWAP1 DIV PUSH20 0xFFFFFFFFFFFFFFFFFFFFFFFFFFFFFFFFFFFFFFFF AND DUP2 JUMP JUMPDEST PUSH2 0xA16 PUSH2 0xB56 JUMP JUMPDEST PUSH20 0xFFFFFFFFFFFFFFFFFFFFFFFFFFFFFFFFFFFFFFFF AND PUSH2 0xA34 PUSH2 0x770 JUMP JUMPDEST PUSH20 0xFFFFFFFFFFFFFFFFFFFFFFFFFFFFFFFFFFFFFFFF AND EQ PUSH2 0xA93 JUMPI PUSH2 0xA57 PUSH2 0xB56 JUMP JUMPDEST PUSH1 0x40 MLOAD PUSH32 0x118CDAA700000000000000000000000000000000000000000000000000000000 DUP2 MSTORE PUSH1 0x4 ADD PUSH2 0xA8A SWAP2 SWAP1 PUSH2 0xF6B JUMP JUMPDEST PUSH1 0x40 MLOAD DUP1 SWAP2 SUB SWAP1 REVERT JUMPDEST JUMP JUMPDEST PUSH0 DUP1 PUSH0 SWAP1 SLOAD SWAP1 PUSH2 0x100 EXP SWAP1 DIV PUSH20 0xFFFFFFFFFFFFFFFFFFFFFFFFFFFFFFFFFFFFFFFF AND SWAP1 POP DUP2 PUSH0 DUP1 PUSH2 0x100 EXP DUP2 SLOAD DUP2 PUSH20 0xFFFFFFFFFFFFFFFFFFFFFFFFFFFFFFFFFFFFFFFF MUL NOT AND SWAP1 DUP4 PUSH20 0xFFFFFFFFFFFFFFFFFFFFFFFFFFFFFFFFFFFFFFFF AND MUL OR SWAP1 SSTORE POP DUP2 PUSH20 0xFFFFFFFFFFFFFFFFFFFFFFFFFFFFFFFFFFFFFFFF AND DUP2 PUSH20 0xFFFFFFFFFFFFFFFFFFFFFFFFFFFFFFFFFFFFFFFF AND PUSH32 0x8BE0079C531659141344CD1FD0A4F28419497F9722A3DAAFE3B4186F6B6457E0 PUSH1 0x40 MLOAD PUSH1 0x40 MLOAD DUP1 SWAP2 SUB SWAP1 LOG3 POP POP JUMP JUMPDEST PUSH0 CALLER SWAP1 POP SWAP1 JUMP JUMPDEST PUSH0 PUSH1 0x40 MLOAD SWAP1 POP SWAP1 JUMP JUMPDEST PUSH0 DUP1 REVERT JUMPDEST PUSH0 DUP1 REVERT JUMPDEST PUSH0 DUP2 SWAP1 POP SWAP2 SWAP1 POP JUMP JUMPDEST PUSH2 0xB80 DUP2 PUSH2 0xB6E JUMP JUMPDEST DUP2 EQ PUSH2 0xB8A JUMPI PUSH0 DUP1 REVERT JUMPDEST POP JUMP JUMPDEST PUSH0 DUP2 CALLDATALOAD SWAP1 POP PUSH2 0xB9B DUP2 PUSH2 0xB77 JUMP JUMPDEST SWAP3 SWAP2 POP POP JUMP JUMPDEST PUSH0 PUSH1 0x20 DUP3 DUP5 SUB SLT ISZERO PUSH2 0xBB6 JUMPI PUSH2 0xBB5 PUSH2 0xB66 JUMP JUMPDEST JUMPDEST PUSH0 PUSH2 0xBC3 DUP5 DUP3 DUP6 ADD PUSH2 0xB8D JUMP JUMPDEST SWAP2 POP POP SWAP3 SWAP2 POP POP JUMP JUMPDEST PUSH0 DUP2 MLOAD SWAP1 POP SWAP2 SWAP1 POP JUMP JUMPDEST PUSH0 DUP3 DUP3 MSTORE PUSH1 0x20 DUP3 ADD SWAP1 POP SWAP3 SWAP2 POP POP JUMP JUMPDEST PUSH0 JUMPDEST DUP4 DUP2 LT ISZERO PUSH2 0xC03 JUMPI DUP1 DUP3 ADD MLOAD DUP2 DUP5 ADD MSTORE PUSH1 0x20 DUP2 ADD SWAP1 POP PUSH2 0xBE8 JUMP JUMPDEST PUSH0 DUP5 DUP5 ADD MSTORE POP POP POP POP JUMP JUMPDEST PUSH0 PUSH1 0x1F NOT PUSH1 0x1F DUP4 ADD AND SWAP1 POP SWAP2 SWAP1 POP JUMP JUMPDEST PUSH0 PUSH2 0xC28 DUP3 PUSH2 0xBCC JUMP JUMPDEST PUSH2 0xC32 DUP2 DUP6 PUSH2 0xBD6 JUMP JUMPDEST SWAP4 POP PUSH2 0xC42 DUP2 DUP6 PUSH1 0x20 DUP7 ADD PUSH2 0xBE6 JUMP JUMPDEST PUSH2 0xC4B DUP2 PUSH2 0xC0E JUMP JUMPDEST DUP5 ADD SWAP2 POP POP SWAP3 SWAP2 POP POP JUMP JUMPDEST PUSH0 PUSH1 0x20 DUP3 ADD SWAP1 POP DUP2 DUP2 SUB PUSH0 DUP4 ADD MSTORE PUSH2 0xC6E DUP2 DUP5 PUSH2 0xC1E JUMP JUMPDEST SWAP1 POP SWAP3 SWAP2 POP POP JUMP JUMPDEST PUSH0 DUP1 REVERT JUMPDEST PUSH0 DUP1 REVERT JUMPDEST PUSH32 0x4E487B7100000000000000000000000000000000000000000000000000000000 PUSH0 MSTORE PUSH1 0x41 PUSH1 0x4 MSTORE PUSH1 0x24 PUSH0 REVERT JUMPDEST PUSH2 0xCB4 DUP3 PUSH2 0xC0E JUMP JUMPDEST DUP2 ADD DUP2 DUP2 LT PUSH8 0xFFFFFFFFFFFFFFFF DUP3 GT OR ISZERO PUSH2 0xCD3 JUMPI PUSH2 0xCD2 PUSH2 0xC7E JUMP JUMPDEST JUMPDEST DUP1 PUSH1 0x40 MSTORE POP POP POP JUMP JUMPDEST PUSH0 PUSH2 0xCE5 PUSH2 0xB5D JUMP JUMPDEST SWAP1 POP PUSH2 0xCF1 DUP3 DUP3 PUSH2 0xCAB JUMP JUMPDEST SWAP2 SWAP1 POP JUMP JUMPDEST PUSH0 PUSH8 0xFFFFFFFFFFFFFFFF DUP3 GT ISZERO PUSH2 0xD10 JUMPI PUSH2 0xD0F PUSH2 0xC7E JUMP JUMPDEST JUMPDEST PUSH2 0xD19 DUP3 PUSH2 0xC0E JUMP JUMPDEST SWAP1 POP PUSH1 0x20 DUP2 ADD SWAP1 POP SWAP2 SWAP1 POP JUMP JUMPDEST DUP3 DUP2 DUP4 CALLDATACOPY PUSH0 DUP4 DUP4 ADD MSTORE POP POP POP JUMP JUMPDEST PUSH0 PUSH2 0xD46 PUSH2 0xD41 DUP5 PUSH2 0xCF6 JUMP JUMPDEST PUSH2 0xCDC JUMP JUMPDEST SWAP1 POP DUP3 DUP2 MSTORE PUSH1 0x20 DUP2 ADD DUP5 DUP5 DUP5 ADD GT ISZERO PUSH2 0xD62 JUMPI PUSH2 0xD61 PUSH2 0xC7A JUMP JUMPDEST JUMPDEST PUSH2 0xD6D DUP5 DUP3 DUP6 PUSH2 0xD26 JUMP JUMPDEST POP SWAP4 SWAP3 POP POP POP JUMP JUMPDEST PUSH0 DUP3 PUSH1 0x1F DUP4 ADD SLT PUSH2 0xD89 JUMPI PUSH2 0xD88 PUSH2 0xC76 JUMP JUMPDEST JUMPDEST DUP2 CALLDATALOAD PUSH2 0xD99 DUP5 DUP3 PUSH1 0x20 DUP7 ADD PUSH2 0xD34 JUMP JUMPDEST SWAP2 POP POP SWAP3 SWAP2 POP POP JUMP JUMPDEST PUSH0 DUP1 PUSH1 0x40 DUP4 DUP6 SUB SLT ISZERO PUSH2 0xDB8 JUMPI PUSH2 0xDB7 PUSH2 0xB66 JUMP JUMPDEST JUMPDEST PUSH0 PUSH2 0xDC5 DUP6 DUP3 DUP7 ADD PUSH2 0xB8D JUMP JUMPDEST SWAP3 POP POP PUSH1 0x20 DUP4 ADD CALLDATALOAD PUSH8 0xFFFFFFFFFFFFFFFF DUP2 GT ISZERO PUSH2 0xDE6 JUMPI PUSH2 0xDE5 PUSH2 0xB6A JUMP JUMPDEST JUMPDEST PUSH2 0xDF2 DUP6 DUP3 DUP7 ADD PUSH2 0xD75 JUMP JUMPDEST SWAP2 POP POP SWAP3 POP SWAP3 SWAP1 POP JUMP JUMPDEST PUSH2 0xE05 DUP2 PUSH2 0xB6E JUMP JUMPDEST DUP3 MSTORE POP POP JUMP JUMPDEST PUSH0 PUSH1 0x20 DUP3 ADD SWAP1 POP PUSH2 0xE1E PUSH0 DUP4 ADD DUP5 PUSH2 0xDFC JUMP JUMPDEST SWAP3 SWAP2 POP POP JUMP JUMPDEST PUSH0 PUSH20 0xFFFFFFFFFFFFFFFFFFFFFFFFFFFFFFFFFFFFFFFF DUP3 AND SWAP1 POP SWAP2 SWAP1 POP JUMP JUMPDEST PUSH0 PUSH2 0xE4D DUP3 PUSH2 0xE24 JUMP JUMPDEST SWAP1 POP SWAP2 SWAP1 POP JUMP JUMPDEST PUSH2 0xE5D DUP2 PUSH2 0xE43 JUMP JUMPDEST DUP2 EQ PUSH2 0xE67 JUMPI PUSH0 DUP1 REVERT JUMPDEST POP JUMP JUMPDEST PUSH0 DUP2 CALLDATALOAD SWAP1 POP PUSH2 0xE78 DUP2 PUSH2 0xE54 JUMP JUMPDEST SWAP3 SWAP2 POP POP JUMP JUMPDEST PUSH0 PUSH1 0x20 DUP3 DUP5 SUB SLT ISZERO PUSH2 0xE93 JUMPI PUSH2 0xE92 PUSH2 0xB66 JUMP JUMPDEST JUMPDEST PUSH0 PUSH2 0xEA0 DUP5 DUP3 DUP6 ADD PUSH2 0xE6A JUMP JUMPDEST SWAP2 POP POP SWAP3 SWAP2 POP POP JUMP JUMPDEST PUSH0 DUP1 PUSH0 PUSH1 0x60 DUP5 DUP7 SUB SLT ISZERO PUSH2 0xEC0 JUMPI PUSH2 0xEBF PUSH2 0xB66 JUMP JUMPDEST JUMPDEST PUSH0 PUSH2 0xECD DUP7 DUP3 DUP8 ADD PUSH2 0xB8D JUMP JUMPDEST SWAP4 POP POP PUSH1 0x20 DUP5 ADD CALLDATALOAD PUSH8 0xFFFFFFFFFFFFFFFF DUP2 GT ISZERO PUSH2 0xEEE JUMPI PUSH2 0xEED PUSH2 0xB6A JUMP JUMPDEST JUMPDEST PUSH2 0xEFA DUP7 DUP3 DUP8 ADD PUSH2 0xD75 JUMP JUMPDEST SWAP3 POP POP PUSH1 0x40 PUSH2 0xF0B DUP7 DUP3 DUP8 ADD PUSH2 0xE6A JUMP JUMPDEST SWAP2 POP POP SWAP3 POP SWAP3 POP SWAP3 JUMP JUMPDEST PUSH0 PUSH1 0x20 DUP3 DUP5 SUB SLT ISZERO PUSH2 0xF2A JUMPI PUSH2 0xF29 PUSH2 0xB66 JUMP JUMPDEST JUMPDEST PUSH0 DUP3 ADD CALLDATALOAD PUSH8 0xFFFFFFFFFFFFFFFF DUP2 GT ISZERO PUSH2 0xF47 JUMPI PUSH2 0xF46 PUSH2 0xB6A JUMP JUMPDEST JUMPDEST PUSH2 0xF53 DUP5 DUP3 DUP6 ADD PUSH2 0xD75 JUMP JUMPDEST SWAP2 POP POP SWAP3 SWAP2 POP POP JUMP JUMPDEST PUSH2 0xF65 DUP2 PUSH2 0xE43 JUMP JUMPDEST DUP3 MSTORE POP POP JUMP JUMPDEST PUSH0 PUSH1 0x20 DUP3 ADD SWAP1 POP PUSH2 0xF7E PUSH0 DUP4 ADD DUP5 PUSH2 0xF5C JUMP JUMPDEST SWAP3 SWAP2 POP POP JUMP JUMPDEST PUSH0 PUSH8 0xFFFFFFFFFFFFFFFF DUP3 GT ISZERO PUSH2 0xF9E JUMPI PUSH2 0xF9D PUSH2 0xC7E JUMP JUMPDEST JUMPDEST PUSH1 0x20 DUP3 MUL SWAP1 POP PUSH1 0x20 DUP2 ADD SWAP1 POP SWAP2 SWAP1 POP JUMP JUMPDEST PUSH0 DUP1 REVERT JUMPDEST PUSH0 PUSH2 0xFC5 PUSH2 0xFC0 DUP5 PUSH2 0xF84 JUMP JUMPDEST PUSH2 0xCDC JUMP JUMPDEST SWAP1 POP DUP1 DUP4 DUP3 MSTORE PUSH1 0x20 DUP3 ADD SWAP1 POP PUSH1 0x20 DUP5 MUL DUP4 ADD DUP6 DUP2 GT ISZERO PUSH2 0xFE8 JUMPI PUSH2 0xFE7 PUSH2 0xFAF JUMP JUMPDEST JUMPDEST DUP4 JUMPDEST DUP2 DUP2 LT ISZERO PUSH2 0x102F JUMPI DUP1 CALLDATALOAD PUSH8 0xFFFFFFFFFFFFFFFF DUP2 GT ISZERO PUSH2 0x100D JUMPI PUSH2 0x100C PUSH2 0xC76 JUMP JUMPDEST JUMPDEST DUP1 DUP7 ADD PUSH2 0x101A DUP10 DUP3 PUSH2 0xD75 JUMP JUMPDEST DUP6 MSTORE PUSH1 0x20 DUP6 ADD SWAP5 POP POP POP PUSH1 0x20 DUP2 ADD SWAP1 POP PUSH2 0xFEA JUMP JUMPDEST POP POP POP SWAP4 SWAP3 POP POP POP JUMP JUMPDEST PUSH0 DUP3 PUSH1 0x1F DUP4 ADD SLT PUSH2 0x104D JUMPI PUSH2 0x104C PUSH2 0xC76 JUMP JUMPDEST JUMPDEST DUP2 CALLDATALOAD PUSH2 0x105D DUP5 DUP3 PUSH1 0x20 DUP7 ADD PUSH2 0xFB3 JUMP JUMPDEST SWAP2 POP POP SWAP3 SWAP2 POP POP JUMP JUMPDEST PUSH0 PUSH1 0x20 DUP3 DUP5 SUB SLT ISZERO PUSH2 0x107B JUMPI PUSH2 0x107A PUSH2 0xB66 JUMP JUMPDEST JUMPDEST PUSH0 DUP3 ADD CALLDATALOAD PUSH8 0xFFFFFFFFFFFFFFFF DUP2 GT ISZERO PUSH2 0x1098 JUMPI PUSH2 0x1097 PUSH2 0xB6A JUMP JUMPDEST JUMPDEST PUSH2 0x10A4 DUP5 DUP3 DUP6 ADD PUSH2 0x1039 JUMP JUMPDEST SWAP2 POP POP SWAP3 SWAP2 POP POP JUMP JUMPDEST PUSH0 DUP1 PUSH1 0x40 DUP4 DUP6 SUB SLT ISZERO PUSH2 0x10C3 JUMPI PUSH2 0x10C2 PUSH2 0xB66 JUMP JUMPDEST JUMPDEST PUSH0 PUSH2 0x10D0 DUP6 DUP3 DUP7 ADD PUSH2 0xB8D JUMP JUMPDEST SWAP3 POP POP PUSH1 0x20 PUSH2 0x10E1 DUP6 DUP3 DUP7 ADD PUSH2 0xE6A JUMP JUMPDEST SWAP2 POP POP SWAP3 POP SWAP3 SWAP1 POP JUMP JUMPDEST PUSH0 DUP2 ISZERO ISZERO SWAP1 POP SWAP2 SWAP1 POP JUMP JUMPDEST PUSH2 0x10FF DUP2 PUSH2 0x10EB JUMP JUMPDEST DUP3 MSTORE POP POP JUMP JUMPDEST PUSH0 PUSH1 0x20 DUP3 ADD SWAP1 POP PUSH2 0x1118 PUSH0 DUP4 ADD DUP5 PUSH2 0x10F6 JUMP JUMPDEST SWAP3 SWAP2 POP POP JUMP JUMPDEST PUSH0 DUP1 PUSH0 PUSH1 0x60 DUP5 DUP7 SUB SLT ISZERO PUSH2 0x1135 JUMPI PUSH2 0x1134 PUSH2 0xB66 JUMP JUMPDEST JUMPDEST PUSH0 PUSH2 0x1142 DUP7 DUP3 DUP8 ADD PUSH2 0xB8D JUMP JUMPDEST SWAP4 POP POP PUSH1 0x20 DUP5 ADD CALLDATALOAD PUSH8 0xFFFFFFFFFFFFFFFF DUP2 GT ISZERO PUSH2 0x1163 JUMPI PUSH2 0x1162 PUSH2 0xB6A JUMP JUMPDEST JUMPDEST PUSH2 0x116F DUP7 DUP3 DUP8 ADD PUSH2 0xD75 JUMP JUMPDEST SWAP3 POP POP PUSH1 0x40 PUSH2 0x1180 DUP7 DUP3 DUP8 ADD PUSH2 0xB8D JUMP JUMPDEST SWAP2 POP POP SWAP3 POP SWAP3 POP SWAP3 JUMP JUMPDEST PUSH32 0x4E487B7100000000000000000000000000000000000000000000000000000000 PUSH0 MSTORE PUSH1 0x22 PUSH1 0x4 MSTORE PUSH1 0x24 PUSH0 REVERT JUMPDEST PUSH0 PUSH1 0x2 DUP3 DIV SWAP1 POP PUSH1 0x1 DUP3 AND DUP1 PUSH2 0x11CE JUMPI PUSH1 0x7F DUP3 AND SWAP2 POP JUMPDEST PUSH1 0x20 DUP3 LT DUP2 SUB PUSH2 0x11E1 JUMPI PUSH2 0x11E0 PUSH2 0x118A JUMP JUMPDEST JUMPDEST POP SWAP2 SWAP1 POP JUMP JUMPDEST PUSH0 DUP2 SWAP1 POP SWAP3 SWAP2 POP POP JUMP JUMPDEST PUSH0 PUSH2 0x11FB DUP3 PUSH2 0xBCC JUMP JUMPDEST PUSH2 0x1205 DUP2 DUP6 PUSH2 0x11E7 JUMP JUMPDEST SWAP4 POP PUSH2 0x1215 DUP2 DUP6 PUSH1 0x20 DUP7 ADD PUSH2 0xBE6 JUMP JUMPDEST DUP1 DUP5 ADD SWAP2 POP POP SWAP3 SWAP2 POP POP JUMP JUMPDEST PUSH0 PUSH2 0x122C DUP3 DUP5 PUSH2 0x11F1 JUMP JUMPDEST SWAP2 POP DUP2 SWAP1 POP SWAP3 SWAP2 POP POP JUMP JUMPDEST PUSH32 0x6E65656420696E7075742076616C756500000000000000000000000000000000 PUSH0 DUP3 ADD MSTORE POP JUMP JUMPDEST PUSH0 PUSH2 0x126B PUSH1 0x10 DUP4 PUSH2 0xBD6 JUMP JUMPDEST SWAP2 POP PUSH2 0x1276 DUP3 PUSH2 0x1237 JUMP JUMPDEST PUSH1 0x20 DUP3 ADD SWAP1 POP SWAP2 SWAP1 POP JUMP JUMPDEST PUSH0 PUSH1 0x20 DUP3 ADD SWAP1 POP DUP2 DUP2 SUB PUSH0 DUP4 ADD MSTORE PUSH2 0x1298 DUP2 PUSH2 0x125F JUMP JUMPDEST SWAP1 POP SWAP2 SWAP1 POP JUMP JUMPDEST PUSH32 0x6974206973206F76657200000000000000000000000000000000000000000000 PUSH0 DUP3 ADD MSTORE POP JUMP JUMPDEST PUSH0 PUSH2 0x12D3 PUSH1 0xA DUP4 PUSH2 0xBD6 JUMP JUMPDEST SWAP2 POP PUSH2 0x12DE DUP3 PUSH2 0x129F JUMP JUMPDEST PUSH1 0x20 DUP3 ADD SWAP1 POP SWAP2 SWAP1 POP JUMP JUMPDEST PUSH0 PUSH1 0x20 DUP3 ADD SWAP1 POP DUP2 DUP2 SUB PUSH0 DUP4 ADD MSTORE PUSH2 0x1300 DUP2 PUSH2 0x12C7 JUMP JUMPDEST SWAP1 POP SWAP2 SWAP1 POP JUMP JUMPDEST PUSH0 PUSH1 0x60 DUP3 ADD SWAP1 POP PUSH2 0x131A PUSH0 DUP4 ADD DUP7 PUSH2 0xDFC JUMP JUMPDEST PUSH2 0x1327 PUSH1 0x20 DUP4 ADD DUP6 PUSH2 0xF5C JUMP JUMPDEST DUP2 DUP2 SUB PUSH1 0x40 DUP4 ADD MSTORE PUSH2 0x1339 DUP2 DUP5 PUSH2 0xC1E JUMP JUMPDEST SWAP1 POP SWAP5 SWAP4 POP POP POP POP JUMP INVALID LOG2 PUSH5 0x6970667358 0x22 SLT KECCAK256 0x24 0x5C SMOD NUMBER EXP SUB CALLDATASIZE SWAP4 0xEC DUP3 0xD1 PUSH23 0x41FB4FE28D0922D165F8B2FC2E91E1F60DDDF46064736F PUSH13 0x63430008160033000000000000 "
				},
				"gasEstimates": {
					"creation": {
						"codeDepositCost": "997000",
						"executionCost": "infinite",
						"totalCost": "infinite"
					},
					"external": {
						"addCountry(string[])": "infinite",
						"admin()": "2618",
						"countries(uint256)": "infinite",
						"countryToAddress(uint256,string,uint256)": "infinite",
						"currRound()": "2448",
						"deadline()": "2493",
						"fee()": "2469",
						"getCountryPlayters(uint256,string)": "infinite",
						"getPlayerInfo(uint256,string,address)": "infinite",
						"getValueBalance()": "379",
						"owner()": "2538",
						"play(string)": "infinite",
						"players(uint256,address)": "3177",
						"renounceOwnership()": "infinite",
						"transferOwnership(address)": "infinite",
						"winnerVaults(address)": "2892",
						"winningCountry(string)": "infinite"
					}
				},
				"methodIdentifiers": {
					"addCountry(string[])": "a5843f8d",
					"admin()": "f851a440",
					"countries(uint256)": "08e9daa5",
					"countryToAddress(uint256,string,uint256)": "f4245d6c",
					"currRound()": "3f5d8056",
					"deadline()": "29dcb0cf",
					"fee()": "ddca3f43",
					"getCountryPlayters(uint256,string)": "29ae3cc3",
					"getPlayerInfo(uint256,string,address)": "5b565409",
					"getValueBalance()": "94ba859f",
					"owner()": "8da5cb5b",
					"play(string)": "718e6302",
					"players(uint256,address)": "c0f80921",
					"renounceOwnership()": "715018a6",
					"transferOwnership(address)": "f2fde38b",
					"winnerVaults(address)": "34330586",
					"winningCountry(string)": "c16d3180"
				}
			},
			"storageLayout": {
				"storage": [
					{
						"astId": 8,
						"contract": "github实战项目/github实战/game.sol:Game",
						"label": "_owner",
						"offset": 0,
						"slot": "0",
						"type": "t_address"
					},
					{
						"astId": 176,
						"contract": "github实战项目/github实战/game.sol:Game",
						"label": "admin",
						"offset": 0,
						"slot": "1",
						"type": "t_address"
					},
					{
						"astId": 178,
						"contract": "github实战项目/github实战/game.sol:Game",
						"label": "currRound",
						"offset": 0,
						"slot": "2",
						"type": "t_uint256"
					},
					{
						"astId": 180,
						"contract": "github实战项目/github实战/game.sol:Game",
						"label": "deadline",
						"offset": 0,
						"slot": "3",
						"type": "t_uint256"
					},
					{
						"astId": 182,
						"contract": "github实战项目/github实战/game.sol:Game",
						"label": "fee",
						"offset": 0,
						"slot": "4",
						"type": "t_uint256"
					},
					{
						"astId": 191,
						"contract": "github实战项目/github实战/game.sol:Game",
						"label": "countries",
						"offset": 0,
						"slot": "5",
						"type": "t_array(t_string_storage)dyn_storage"
					},
					{
						"astId": 198,
						"contract": "github实战项目/github实战/game.sol:Game",
						"label": "players",
						"offset": 0,
						"slot": "6",
						"type": "t_mapping(t_uint256,t_mapping(t_address,t_struct(player)216_storage))"
					},
					{
						"astId": 205,
						"contract": "github实战项目/github实战/game.sol:Game",
						"label": "countryToAddress",
						"offset": 0,
						"slot": "7",
						"type": "t_mapping(t_uint256,t_mapping(t_string_memory_ptr,t_array(t_address)dyn_storage))"
					},
					{
						"astId": 209,
						"contract": "github实战项目/github实战/game.sol:Game",
						"label": "winnerVaults",
						"offset": 0,
						"slot": "8",
						"type": "t_mapping(t_address,t_uint256)"
					}
				],
				"types": {
					"t_address": {
						"encoding": "inplace",
						"label": "address",
						"numberOfBytes": "20"
					},
					"t_array(t_address)dyn_storage": {
						"base": "t_address",
						"encoding": "dynamic_array",
						"label": "address[]",
						"numberOfBytes": "32"
					},
					"t_array(t_string_storage)dyn_storage": {
						"base": "t_string_storage",
						"encoding": "dynamic_array",
						"label": "string[]",
						"numberOfBytes": "32"
					},
					"t_bool": {
						"encoding": "inplace",
						"label": "bool",
						"numberOfBytes": "1"
					},
					"t_mapping(t_address,t_struct(player)216_storage)": {
						"encoding": "mapping",
						"key": "t_address",
						"label": "mapping(address => struct Game.player)",
						"numberOfBytes": "32",
						"value": "t_struct(player)216_storage"
					},
					"t_mapping(t_address,t_uint256)": {
						"encoding": "mapping",
						"key": "t_address",
						"label": "mapping(address => uint256)",
						"numberOfBytes": "32",
						"value": "t_uint256"
					},
					"t_mapping(t_string_memory_ptr,t_array(t_address)dyn_storage)": {
						"encoding": "mapping",
						"key": "t_string_memory_ptr",
						"label": "mapping(string => address[])",
						"numberOfBytes": "32",
						"value": "t_array(t_address)dyn_storage"
					},
					"t_mapping(t_string_memory_ptr,t_uint256)": {
						"encoding": "mapping",
						"key": "t_string_memory_ptr",
						"label": "mapping(string => uint256)",
						"numberOfBytes": "32",
						"value": "t_uint256"
					},
					"t_mapping(t_uint256,t_mapping(t_address,t_struct(player)216_storage))": {
						"encoding": "mapping",
						"key": "t_uint256",
						"label": "mapping(uint256 => mapping(address => struct Game.player))",
						"numberOfBytes": "32",
						"value": "t_mapping(t_address,t_struct(player)216_storage)"
					},
					"t_mapping(t_uint256,t_mapping(t_string_memory_ptr,t_array(t_address)dyn_storage))": {
						"encoding": "mapping",
						"key": "t_uint256",
						"label": "mapping(uint256 => mapping(string => address[]))",
						"numberOfBytes": "32",
						"value": "t_mapping(t_string_memory_ptr,t_array(t_address)dyn_storage)"
					},
					"t_string_memory_ptr": {
						"encoding": "bytes",
						"label": "string",
						"numberOfBytes": "32"
					},
					"t_string_storage": {
						"encoding": "bytes",
						"label": "string",
						"numberOfBytes": "32"
					},
					"t_struct(player)216_storage": {
						"encoding": "inplace",
						"label": "struct Game.player",
						"members": [
							{
								"astId": 211,
								"contract": "github实战项目/github实战/game.sol:Game",
								"label": "isSet",
								"offset": 0,
								"slot": "0",
								"type": "t_bool"
							},
							{
								"astId": 215,
								"contract": "github实战项目/github实战/game.sol:Game",
								"label": "counts",
								"offset": 0,
								"slot": "1",
								"type": "t_mapping(t_string_memory_ptr,t_uint256)"
							}
						],
						"numberOfBytes": "64"
					},
					"t_uint256": {
						"encoding": "inplace",
						"label": "uint256",
						"numberOfBytes": "32"
					}
				}
			},
			"userdoc": {
				"kind": "user",
				"methods": {},
				"version": 1
			}
		}
	}
}