{
	"data": {
		"bytecode": {
			"linkReferences": {},
			"object": "608060405234801561001057600080fd5b5061017f806100206000396000f30060806040526004361061004c576000357c0100000000000000000000000000000000000000000000000000000000900463ffffffff16806326121ff01461005157806362a42bf714610068575b600080fd5b34801561005d57600080fd5b50610066610093565b005b34801561007457600080fd5b5061007d6100d6565b6040518082815260200191505060405180910390f35b600080600290806001815401808255809150509060018203906000526020600020016000909192909190915055508060019080546100d29291906100dc565b5050565b60005481565b82805482825590600052602060002090810192821561011d5760005260206000209182015b8281111561011c578254825591600101919060010190610101565b5b50905061012a919061012e565b5090565b61015091905b8082111561014c576000816000905550600101610134565b5090565b905600a165627a7a7230582002695fa52e33696f4d2c92f5801f471fb6b0a45f78b70d74b3f06d2ee93761fe0029",
			"opcodes": "PUSH1 0x80 PUSH1 0x40 MSTORE CALLVALUE DUP1 ISZERO PUSH2 0x10 JUMPI PUSH1 0x0 DUP1 REVERT JUMPDEST POP PUSH2 0x17F DUP1 PUSH2 0x20 PUSH1 0x0 CODECOPY PUSH1 0x0 RETURN STOP PUSH1 0x80 PUSH1 0x40 MSTORE PUSH1 0x4 CALLDATASIZE LT PUSH2 0x4C JUMPI PUSH1 0x0 CALLDATALOAD PUSH29 0x100000000000000000000000000000000000000000000000000000000 SWAP1 DIV PUSH4 0xFFFFFFFF AND DUP1 PUSH4 0x26121FF0 EQ PUSH2 0x51 JUMPI DUP1 PUSH4 0x62A42BF7 EQ PUSH2 0x68 JUMPI JUMPDEST PUSH1 0x0 DUP1 REVERT JUMPDEST CALLVALUE DUP1 ISZERO PUSH2 0x5D JUMPI PUSH1 0x0 DUP1 REVERT JUMPDEST POP PUSH2 0x66 PUSH2 0x93 JUMP JUMPDEST STOP JUMPDEST CALLVALUE DUP1 ISZERO PUSH2 0x74 JUMPI PUSH1 0x0 DUP1 REVERT JUMPDEST POP PUSH2 0x7D PUSH2 0xD6 JUMP JUMPDEST PUSH1 0x40 MLOAD DUP1 DUP3 DUP2 MSTORE PUSH1 0x20 ADD SWAP2 POP POP PUSH1 0x40 MLOAD DUP1 SWAP2 SUB SWAP1 RETURN JUMPDEST PUSH1 0x0 DUP1 PUSH1 0x2 SWAP1 DUP1 PUSH1 0x1 DUP2 SLOAD ADD DUP1 DUP3 SSTORE DUP1 SWAP2 POP POP SWAP1 PUSH1 0x1 DUP3 SUB SWAP1 PUSH1 0x0 MSTORE PUSH1 0x20 PUSH1 0x0 KECCAK256 ADD PUSH1 0x0 SWAP1 SWAP2 SWAP3 SWAP1 SWAP2 SWAP1 SWAP2 POP SSTORE POP DUP1 PUSH1 0x1 SWAP1 DUP1 SLOAD PUSH2 0xD2 SWAP3 SWAP2 SWAP1 PUSH2 0xDC JUMP JUMPDEST POP POP JUMP JUMPDEST PUSH1 0x0 SLOAD DUP2 JUMP JUMPDEST DUP3 DUP1 SLOAD DUP3 DUP3 SSTORE SWAP1 PUSH1 0x0 MSTORE PUSH1 0x20 PUSH1 0x0 KECCAK256 SWAP1 DUP2 ADD SWAP3 DUP3 ISZERO PUSH2 0x11D JUMPI PUSH1 0x0 MSTORE PUSH1 0x20 PUSH1 0x0 KECCAK256 SWAP2 DUP3 ADD JUMPDEST DUP3 DUP2 GT ISZERO PUSH2 0x11C JUMPI DUP3 SLOAD DUP3 SSTORE SWAP2 PUSH1 0x1 ADD SWAP2 SWAP1 PUSH1 0x1 ADD SWAP1 PUSH2 0x101 JUMP JUMPDEST JUMPDEST POP SWAP1 POP PUSH2 0x12A SWAP2 SWAP1 PUSH2 0x12E JUMP JUMPDEST POP SWAP1 JUMP JUMPDEST PUSH2 0x150 SWAP2 SWAP1 JUMPDEST DUP1 DUP3 GT ISZERO PUSH2 0x14C JUMPI PUSH1 0x0 DUP2 PUSH1 0x0 SWAP1 SSTORE POP PUSH1 0x1 ADD PUSH2 0x134 JUMP JUMPDEST POP SWAP1 JUMP JUMPDEST SWAP1 JUMP STOP LOG1 PUSH6 0x627A7A723058 KECCAK256 MUL PUSH10 0x5FA52E33696F4D2C92F5 DUP1 0x1f 0x47 0x1f 0xb6 0xb0 LOG4 0x5f PUSH25 0xB70D74B3F06D2EE93761FE0029000000000000000000000000 "
		},
		"gasEstimates": {
			"creation": {
				"codeDepositCost": "76600",
				"executionCost": "123",
				"totalCost": "76723"
			},
			"external": {
				"f()": "infinite",
				"someVariable()": "416"
			}
		},
		"methodIdentifiers": {
			"f()": "26121ff0",
			"someVariable()": "62a42bf7"
		}
	},
	"abi": [
		{
			"constant": false,
			"inputs": [],
			"name": "f",
			"outputs": [],
			"payable": false,
			"stateMutability": "nonpayable",
			"type": "function"
		},
		{
			"constant": true,
			"inputs": [],
			"name": "someVariable",
			"outputs": [
				{
					"name": "",
					"type": "uint256"
				}
			],
			"payable": false,
			"stateMutability": "view",
			"type": "function"
		}
	]
}