{
	"data": {
		"bytecode": {
			"linkReferences": {},
			"object": "6080604052602a60005533600360006101000a81548173ffffffffffffffffffffffffffffffffffffffff021916908373ffffffffffffffffffffffffffffffffffffffff16021790555034801561005657600080fd5b5061032f806100666000396000f300608060405260043610610062576000357c0100000000000000000000000000000000000000000000000000000000900463ffffffff1680632edcb0201461006757806347799da8146100925780639189fec1146100bd578063d3438aa2146100dd575b600080fd5b34801561007357600080fd5b5061007c610151565b6040518082815260200191505060405180910390f35b34801561009e57600080fd5b506100a761015a565b6040518082815260200191505060405180910390f35b6100db60048036038101908080359060200190929190505050610160565b005b3480156100e957600080fd5b50610108600480360381019080803590602001909291905050506102b0565b604051808373ffffffffffffffffffffffffffffffffffffffff1673ffffffffffffffffffffffffffffffffffffffff1681526020018281526020019250505060405180910390f35b60008054905090565b60015481565b6000338160000160006101000a81548173ffffffffffffffffffffffffffffffffffffffff021916908373ffffffffffffffffffffffffffffffffffffffff160217905550818160010181905550600281908060018154018082558091505090600182039060005260206000209060020201600090919290919091506000820160009054906101000a900473ffffffffffffffffffffffffffffffffffffffff168160000160006101000a81548173ffffffffffffffffffffffffffffffffffffffff021916908373ffffffffffffffffffffffffffffffffffffffff160217905550600182015481600101555050506000548214156102a5573373ffffffffffffffffffffffffffffffffffffffff166108fc600234029081150290604051600060405180830381858888f193505050501580156102a3573d6000803e3d6000fd5b505b436001819055505050565b6002818154811015156102bf57fe5b90600052602060002090600202016000915090508060000160009054906101000a900473ffffffffffffffffffffffffffffffffffffffff169080600101549050825600a165627a7a72305820446e673c496f707498f044a2ad1e7484fffb5b02f93e44d41c553abbf30b3cba0029",
			"opcodes": "PUSH1 0x80 PUSH1 0x40 MSTORE PUSH1 0x2A PUSH1 0x0 SSTORE CALLER PUSH1 0x3 PUSH1 0x0 PUSH2 0x100 EXP DUP2 SLOAD DUP2 PUSH20 0xFFFFFFFFFFFFFFFFFFFFFFFFFFFFFFFFFFFFFFFF MUL NOT AND SWAP1 DUP4 PUSH20 0xFFFFFFFFFFFFFFFFFFFFFFFFFFFFFFFFFFFFFFFF AND MUL OR SWAP1 SSTORE POP CALLVALUE DUP1 ISZERO PUSH2 0x56 JUMPI PUSH1 0x0 DUP1 REVERT JUMPDEST POP PUSH2 0x32F DUP1 PUSH2 0x66 PUSH1 0x0 CODECOPY PUSH1 0x0 RETURN STOP PUSH1 0x80 PUSH1 0x40 MSTORE PUSH1 0x4 CALLDATASIZE LT PUSH2 0x62 JUMPI PUSH1 0x0 CALLDATALOAD PUSH29 0x100000000000000000000000000000000000000000000000000000000 SWAP1 DIV PUSH4 0xFFFFFFFF AND DUP1 PUSH4 0x2EDCB020 EQ PUSH2 0x67 JUMPI DUP1 PUSH4 0x47799DA8 EQ PUSH2 0x92 JUMPI DUP1 PUSH4 0x9189FEC1 EQ PUSH2 0xBD JUMPI DUP1 PUSH4 0xD3438AA2 EQ PUSH2 0xDD JUMPI JUMPDEST PUSH1 0x0 DUP1 REVERT JUMPDEST CALLVALUE DUP1 ISZERO PUSH2 0x73 JUMPI PUSH1 0x0 DUP1 REVERT JUMPDEST POP PUSH2 0x7C PUSH2 0x151 JUMP JUMPDEST PUSH1 0x40 MLOAD DUP1 DUP3 DUP2 MSTORE PUSH1 0x20 ADD SWAP2 POP POP PUSH1 0x40 MLOAD DUP1 SWAP2 SUB SWAP1 RETURN JUMPDEST CALLVALUE DUP1 ISZERO PUSH2 0x9E JUMPI PUSH1 0x0 DUP1 REVERT JUMPDEST POP PUSH2 0xA7 PUSH2 0x15A JUMP JUMPDEST PUSH1 0x40 MLOAD DUP1 DUP3 DUP2 MSTORE PUSH1 0x20 ADD SWAP2 POP POP PUSH1 0x40 MLOAD DUP1 SWAP2 SUB SWAP1 RETURN JUMPDEST PUSH2 0xDB PUSH1 0x4 DUP1 CALLDATASIZE SUB DUP2 ADD SWAP1 DUP1 DUP1 CALLDATALOAD SWAP1 PUSH1 0x20 ADD SWAP1 SWAP3 SWAP2 SWAP1 POP POP POP PUSH2 0x160 JUMP JUMPDEST STOP JUMPDEST CALLVALUE DUP1 ISZERO PUSH2 0xE9 JUMPI PUSH1 0x0 DUP1 REVERT JUMPDEST POP PUSH2 0x108 PUSH1 0x4 DUP1 CALLDATASIZE SUB DUP2 ADD SWAP1 DUP1 DUP1 CALLDATALOAD SWAP1 PUSH1 0x20 ADD SWAP1 SWAP3 SWAP2 SWAP1 POP POP POP PUSH2 0x2B0 JUMP JUMPDEST PUSH1 0x40 MLOAD DUP1 DUP4 PUSH20 0xFFFFFFFFFFFFFFFFFFFFFFFFFFFFFFFFFFFFFFFF AND PUSH20 0xFFFFFFFFFFFFFFFFFFFFFFFFFFFFFFFFFFFFFFFF AND DUP2 MSTORE PUSH1 0x20 ADD DUP3 DUP2 MSTORE PUSH1 0x20 ADD SWAP3 POP POP POP PUSH1 0x40 MLOAD DUP1 SWAP2 SUB SWAP1 RETURN JUMPDEST PUSH1 0x0 DUP1 SLOAD SWAP1 POP SWAP1 JUMP JUMPDEST PUSH1 0x1 SLOAD DUP2 JUMP JUMPDEST PUSH1 0x0 CALLER DUP2 PUSH1 0x0 ADD PUSH1 0x0 PUSH2 0x100 EXP DUP2 SLOAD DUP2 PUSH20 0xFFFFFFFFFFFFFFFFFFFFFFFFFFFFFFFFFFFFFFFF MUL NOT AND SWAP1 DUP4 PUSH20 0xFFFFFFFFFFFFFFFFFFFFFFFFFFFFFFFFFFFFFFFF AND MUL OR SWAP1 SSTORE POP DUP2 DUP2 PUSH1 0x1 ADD DUP2 SWAP1 SSTORE POP PUSH1 0x2 DUP2 SWAP1 DUP1 PUSH1 0x1 DUP2 SLOAD ADD DUP1 DUP3 SSTORE DUP1 SWAP2 POP POP SWAP1 PUSH1 0x1 DUP3 SUB SWAP1 PUSH1 0x0 MSTORE PUSH1 0x20 PUSH1 0x0 KECCAK256 SWAP1 PUSH1 0x2 MUL ADD PUSH1 0x0 SWAP1 SWAP2 SWAP3 SWAP1 SWAP2 SWAP1 SWAP2 POP PUSH1 0x0 DUP3 ADD PUSH1 0x0 SWAP1 SLOAD SWAP1 PUSH2 0x100 EXP SWAP1 DIV PUSH20 0xFFFFFFFFFFFFFFFFFFFFFFFFFFFFFFFFFFFFFFFF AND DUP2 PUSH1 0x0 ADD PUSH1 0x0 PUSH2 0x100 EXP DUP2 SLOAD DUP2 PUSH20 0xFFFFFFFFFFFFFFFFFFFFFFFFFFFFFFFFFFFFFFFF MUL NOT AND SWAP1 DUP4 PUSH20 0xFFFFFFFFFFFFFFFFFFFFFFFFFFFFFFFFFFFFFFFF AND MUL OR SWAP1 SSTORE POP PUSH1 0x1 DUP3 ADD SLOAD DUP2 PUSH1 0x1 ADD SSTORE POP POP POP PUSH1 0x0 SLOAD DUP3 EQ ISZERO PUSH2 0x2A5 JUMPI CALLER PUSH20 0xFFFFFFFFFFFFFFFFFFFFFFFFFFFFFFFFFFFFFFFF AND PUSH2 0x8FC PUSH1 0x2 CALLVALUE MUL SWAP1 DUP2 ISZERO MUL SWAP1 PUSH1 0x40 MLOAD PUSH1 0x0 PUSH1 0x40 MLOAD DUP1 DUP4 SUB DUP2 DUP6 DUP9 DUP9 CALL SWAP4 POP POP POP POP ISZERO DUP1 ISZERO PUSH2 0x2A3 JUMPI RETURNDATASIZE PUSH1 0x0 DUP1 RETURNDATACOPY RETURNDATASIZE PUSH1 0x0 REVERT JUMPDEST POP JUMPDEST NUMBER PUSH1 0x1 DUP2 SWAP1 SSTORE POP POP POP JUMP JUMPDEST PUSH1 0x2 DUP2 DUP2 SLOAD DUP2 LT ISZERO ISZERO PUSH2 0x2BF JUMPI INVALID JUMPDEST SWAP1 PUSH1 0x0 MSTORE PUSH1 0x20 PUSH1 0x0 KECCAK256 SWAP1 PUSH1 0x2 MUL ADD PUSH1 0x0 SWAP2 POP SWAP1 POP DUP1 PUSH1 0x0 ADD PUSH1 0x0 SWAP1 SLOAD SWAP1 PUSH2 0x100 EXP SWAP1 DIV PUSH20 0xFFFFFFFFFFFFFFFFFFFFFFFFFFFFFFFFFFFFFFFF AND SWAP1 DUP1 PUSH1 0x1 ADD SLOAD SWAP1 POP DUP3 JUMP STOP LOG1 PUSH6 0x627A7A723058 KECCAK256 DIFFICULTY PUSH15 0x673C496F707498F044A2AD1E7484FF CREATE2 JUMPDEST MUL 0xf9 RETURNDATACOPY DIFFICULTY 0xd4 SHR SSTORE GASPRICE 0xbb RETURN SIGNEXTEND EXTCODECOPY 0xba STOP 0x29 "
		},
		"gasEstimates": {
			"creation": {
				"codeDepositCost": "163000",
				"executionCost": "40480",
				"totalCost": "203480"
			},
			"external": {
				"gameHistory(uint256)": "1120",
				"getluckNum()": "402",
				"guess(uint256)": "infinite",
				"last()": "416"
			}
		},
		"methodIdentifiers": {
			"gameHistory(uint256)": "d3438aa2",
			"getluckNum()": "2edcb020",
			"guess(uint256)": "9189fec1",
			"last()": "47799da8"
		}
	},
	"abi": [
		{
			"constant": true,
			"inputs": [],
			"name": "getluckNum",
			"outputs": [
				{
					"name": "",
					"type": "uint256"
				}
			],
			"payable": false,
			"stateMutability": "view",
			"type": "function"
		},
		{
			"constant": true,
			"inputs": [],
			"name": "last",
			"outputs": [
				{
					"name": "",
					"type": "uint256"
				}
			],
			"payable": false,
			"stateMutability": "view",
			"type": "function"
		},
		{
			"constant": false,
			"inputs": [
				{
					"name": "_number",
					"type": "uint256"
				}
			],
			"name": "guess",
			"outputs": [],
			"payable": true,
			"stateMutability": "payable",
			"type": "function"
		},
		{
			"constant": true,
			"inputs": [
				{
					"name": "",
					"type": "uint256"
				}
			],
			"name": "gameHistory",
			"outputs": [
				{
					"name": "player",
					"type": "address"
				},
				{
					"name": "number",
					"type": "uint256"
				}
			],
			"payable": false,
			"stateMutability": "view",
			"type": "function"
		}
	]
}