{
	"learn/StringUtil.sol": {
		"StringUtil": {
			"abi": [
				{
					"inputs": [
						{
							"internalType": "string",
							"name": "str1",
							"type": "string"
						},
						{
							"internalType": "string",
							"name": "str2",
							"type": "string"
						}
					],
					"name": "compare",
					"outputs": [
						{
							"internalType": "enum StringUtil.CompareResult",
							"name": "",
							"type": "StringUtil.CompareResult"
						}
					],
					"stateMutability": "pure",
					"type": "function"
				}
			],
			"devdoc": {
				"kind": "dev",
				"methods": {},
				"version": 1
			},
			"evm": {
				"assembly": "    /* \"learn/StringUtil.sol\":58:1151  library StringUtil{... */\n  dataSize(sub_0)\n  dataOffset(sub_0)\n  0x0b\n  dup3\n  dup3\n  dup3\n  codecopy\n  dup1\n  mload\n  0x00\n  byte\n  0x73\n  eq\n  tag_1\n  jumpi\n  mstore(0x00, 0x4e487b7100000000000000000000000000000000000000000000000000000000)\n  mstore(0x04, 0x00)\n  revert(0x00, 0x24)\ntag_1:\n  mstore(0x00, address)\n  0x73\n  dup2\n  mstore8\n  dup3\n  dup2\n  return\nstop\n\nsub_0: assembly {\n        /* \"learn/StringUtil.sol\":58:1151  library StringUtil{... */\n      eq(address, deployTimeAddress())\n      mstore(0x40, 0x80)\n      jumpi(tag_1, lt(calldatasize, 0x04))\n      shr(0xe0, calldataload(0x00))\n      dup1\n      0x3a96fdd7\n      eq\n      tag_2\n      jumpi\n    tag_1:\n      0x00\n      dup1\n      revert\n        /* \"learn/StringUtil.sol\":143:1148  function compare(string memory str1, string memory str2) public pure returns(CompareResult){... */\n    tag_2:\n      tag_3\n      0x04\n      dup1\n      calldatasize\n      sub\n      dup2\n      add\n      swap1\n      tag_4\n      swap2\n      swap1\n      tag_5\n      jump\t// in\n    tag_4:\n      tag_6\n      jump\t// in\n    tag_3:\n      mload(0x40)\n      tag_7\n      swap2\n      swap1\n      tag_8\n      jump\t// in\n    tag_7:\n      mload(0x40)\n      dup1\n      swap2\n      sub\n      swap1\n      return\n    tag_6:\n        /* \"learn/StringUtil.sol\":220:233  CompareResult */\n      0x00\n        /* \"learn/StringUtil.sol\":271:272  0 */\n      dup1\n        /* \"learn/StringUtil.sol\":255:259  str1 */\n      dup4\n        /* \"learn/StringUtil.sol\":249:267  bytes(str1).length */\n      mload\n        /* \"learn/StringUtil.sol\":249:272  bytes(str1).length == 0 */\n      sub\n        /* \"learn/StringUtil.sol\":245:1132  if (bytes(str1).length == 0){... */\n      tag_10\n      jumpi\n        /* \"learn/StringUtil.sol\":295:316  CompareResult.Invalid */\n      0x03\n        /* \"learn/StringUtil.sol\":288:316  return CompareResult.Invalid */\n      swap1\n      pop\n      jump(tag_9)\n        /* \"learn/StringUtil.sol\":245:1132  if (bytes(str1).length == 0){... */\n    tag_10:\n        /* \"learn/StringUtil.sol\":359:360  0 */\n      0x00\n        /* \"learn/StringUtil.sol\":343:347  str2 */\n      dup3\n        /* \"learn/StringUtil.sol\":337:355  bytes(str2).length */\n      mload\n        /* \"learn/StringUtil.sol\":337:360  bytes(str2).length == 0 */\n      sub\n        /* \"learn/StringUtil.sol\":333:1132  if (bytes(str2).length == 0){... */\n      tag_12\n      jumpi\n        /* \"learn/StringUtil.sol\":383:404  CompareResult.Invalid */\n      0x03\n        /* \"learn/StringUtil.sol\":376:404  return CompareResult.Invalid */\n      swap1\n      pop\n      jump(tag_9)\n        /* \"learn/StringUtil.sol\":333:1132  if (bytes(str2).length == 0){... */\n    tag_12:\n        /* \"learn/StringUtil.sol\":489:493  str2 */\n      dup2\n        /* \"learn/StringUtil.sol\":472:494  abi.encodePacked(str2) */\n      add(0x20, mload(0x40))\n      tag_14\n      swap2\n      swap1\n      tag_15\n      jump\t// in\n    tag_14:\n      mload(0x40)\n      0x20\n      dup2\n      dup4\n      sub\n      sub\n      dup2\n      mstore\n      swap1\n      0x40\n      mstore\n        /* \"learn/StringUtil.sol\":462:495  keccak256(abi.encodePacked(str2)) */\n      dup1\n      mload\n      swap1\n      0x20\n      add\n      keccak256\n        /* \"learn/StringUtil.sol\":452:456  str1 */\n      dup4\n        /* \"learn/StringUtil.sol\":435:457  abi.encodePacked(str1) */\n      add(0x20, mload(0x40))\n      tag_16\n      swap2\n      swap1\n      tag_15\n      jump\t// in\n    tag_16:\n      mload(0x40)\n      0x20\n      dup2\n      dup4\n      sub\n      sub\n      dup2\n      mstore\n      swap1\n      0x40\n      mstore\n        /* \"learn/StringUtil.sol\":425:458  keccak256(abi.encodePacked(str1)) */\n      dup1\n      mload\n      swap1\n      0x20\n      add\n      keccak256\n        /* \"learn/StringUtil.sol\":425:495  keccak256(abi.encodePacked(str1)) == keccak256(abi.encodePacked(str2)) */\n      sub\n        /* \"learn/StringUtil.sol\":421:1132  if (keccak256(abi.encodePacked(str1)) == keccak256(abi.encodePacked(str2))){... */\n      tag_17\n      jumpi\n        /* \"learn/StringUtil.sol\":518:537  CompareResult.Equal */\n      0x00\n        /* \"learn/StringUtil.sol\":511:537  return CompareResult.Equal */\n      swap1\n      pop\n      jump(tag_9)\n        /* \"learn/StringUtil.sol\":421:1132  if (keccak256(abi.encodePacked(str1)) == keccak256(abi.encodePacked(str2))){... */\n    tag_17:\n        /* \"learn/StringUtil.sol\":569:575  uint a */\n      0x00\n        /* \"learn/StringUtil.sol\":604:608  str1 */\n      dup4\n        /* \"learn/StringUtil.sol\":598:616  bytes(str1).length */\n      mload\n        /* \"learn/StringUtil.sol\":594:616  a = bytes(str1).length */\n      swap1\n      pop\n        /* \"learn/StringUtil.sol\":646:650  str2 */\n      dup3\n        /* \"learn/StringUtil.sol\":640:658  bytes(str2).length */\n      mload\n        /* \"learn/StringUtil.sol\":636:637  a */\n      dup2\n        /* \"learn/StringUtil.sol\":636:658  a > bytes(str2).length */\n      gt\n        /* \"learn/StringUtil.sol\":631:816  if ( a > bytes(str2).length){... */\n      iszero\n      tag_19\n      jumpi\n        /* \"learn/StringUtil.sol\":685:706  CompareResult.Greater */\n      0x02\n        /* \"learn/StringUtil.sol\":678:706  return CompareResult.Greater */\n      swap2\n      pop\n      pop\n      jump(tag_9)\n        /* \"learn/StringUtil.sol\":631:816  if ( a > bytes(str2).length){... */\n    tag_19:\n        /* \"learn/StringUtil.sol\":743:747  str2 */\n      dup3\n        /* \"learn/StringUtil.sol\":737:755  bytes(str2).length */\n      mload\n        /* \"learn/StringUtil.sol\":733:734  a */\n      dup2\n        /* \"learn/StringUtil.sol\":733:755  a < bytes(str2).length */\n      lt\n        /* \"learn/StringUtil.sol\":728:816  if ( a < bytes(str2).length){... */\n      iszero\n      tag_21\n      jumpi\n        /* \"learn/StringUtil.sol\":782:800  CompareResult.Less */\n      0x01\n        /* \"learn/StringUtil.sol\":775:800  return CompareResult.Less */\n      swap2\n      pop\n      pop\n      jump(tag_9)\n        /* \"learn/StringUtil.sol\":728:816  if ( a < bytes(str2).length){... */\n    tag_21:\n        /* \"learn/StringUtil.sol\":835:841  uint i */\n      0x00\n        /* \"learn/StringUtil.sol\":830:1121  for (uint i = 0; i <a ;i++ ){... */\n    tag_22:\n        /* \"learn/StringUtil.sol\":850:851  a */\n      dup2\n        /* \"learn/StringUtil.sol\":847:848  i */\n      dup2\n        /* \"learn/StringUtil.sol\":847:851  i <a */\n      lt\n        /* \"learn/StringUtil.sol\":830:1121  for (uint i = 0; i <a ;i++ ){... */\n      iszero\n      tag_23\n      jumpi\n        /* \"learn/StringUtil.sol\":904:908  str2 */\n      dup4\n        /* \"learn/StringUtil.sol\":910:911  i */\n      dup2\n        /* \"learn/StringUtil.sol\":898:912  bytes(str2)[i] */\n      dup2\n      mload\n      dup2\n      lt\n      tag_25\n      jumpi\n      tag_26\n      tag_27\n      jump\t// in\n    tag_26:\n    tag_25:\n      0x20\n      add\n      add\n      mload\n      0xf8\n      shr\n      0xf8\n      shl\n        /* \"learn/StringUtil.sol\":881:912  bytes(str1)[i] > bytes(str2)[i] */\n      not(0xffffffffffffffffffffffffffffffffffffffffffffffffffffffffffffff)\n      and\n        /* \"learn/StringUtil.sol\":887:891  str1 */\n      dup6\n        /* \"learn/StringUtil.sol\":893:894  i */\n      dup3\n        /* \"learn/StringUtil.sol\":881:895  bytes(str1)[i] */\n      dup2\n      mload\n      dup2\n      lt\n      tag_28\n      jumpi\n      tag_29\n      tag_27\n      jump\t// in\n    tag_29:\n    tag_28:\n      0x20\n      add\n      add\n      mload\n      0xf8\n      shr\n      0xf8\n      shl\n        /* \"learn/StringUtil.sol\":881:912  bytes(str1)[i] > bytes(str2)[i] */\n      not(0xffffffffffffffffffffffffffffffffffffffffffffffffffffffffffffff)\n      and\n      gt\n        /* \"learn/StringUtil.sol\":877:984  if (bytes(str1)[i] > bytes(str2)[i]){... */\n      iszero\n      tag_30\n      jumpi\n        /* \"learn/StringUtil.sol\":943:964  CompareResult.Greater */\n      0x02\n        /* \"learn/StringUtil.sol\":936:964  return CompareResult.Greater */\n      swap3\n      pop\n      pop\n      pop\n      jump(tag_9)\n        /* \"learn/StringUtil.sol\":877:984  if (bytes(str1)[i] > bytes(str2)[i]){... */\n    tag_30:\n        /* \"learn/StringUtil.sol\":1029:1033  str2 */\n      dup4\n        /* \"learn/StringUtil.sol\":1035:1036  i */\n      dup2\n        /* \"learn/StringUtil.sol\":1023:1037  bytes(str2)[i] */\n      dup2\n      mload\n      dup2\n      lt\n      tag_31\n      jumpi\n      tag_32\n      tag_27\n      jump\t// in\n    tag_32:\n    tag_31:\n      0x20\n      add\n      add\n      mload\n      0xf8\n      shr\n      0xf8\n      shl\n        /* \"learn/StringUtil.sol\":1006:1037  bytes(str1)[i] < bytes(str2)[i] */\n      not(0xffffffffffffffffffffffffffffffffffffffffffffffffffffffffffffff)\n      and\n        /* \"learn/StringUtil.sol\":1012:1016  str1 */\n      dup6\n        /* \"learn/StringUtil.sol\":1018:1019  i */\n      dup3\n        /* \"learn/StringUtil.sol\":1006:1020  bytes(str1)[i] */\n      dup2\n      mload\n      dup2\n      lt\n      tag_33\n      jumpi\n      tag_34\n      tag_27\n      jump\t// in\n    tag_34:\n    tag_33:\n      0x20\n      add\n      add\n      mload\n      0xf8\n      shr\n      0xf8\n      shl\n        /* \"learn/StringUtil.sol\":1006:1037  bytes(str1)[i] < bytes(str2)[i] */\n      not(0xffffffffffffffffffffffffffffffffffffffffffffffffffffffffffffff)\n      and\n      lt\n        /* \"learn/StringUtil.sol\":1002:1106  if (bytes(str1)[i] < bytes(str2)[i]){... */\n      iszero\n      tag_35\n      jumpi\n        /* \"learn/StringUtil.sol\":1068:1086  CompareResult.Less */\n      0x01\n        /* \"learn/StringUtil.sol\":1061:1086  return CompareResult.Less */\n      swap3\n      pop\n      pop\n      pop\n      jump(tag_9)\n        /* \"learn/StringUtil.sol\":1002:1106  if (bytes(str1)[i] < bytes(str2)[i]){... */\n    tag_35:\n        /* \"learn/StringUtil.sol\":853:856  i++ */\n      dup1\n      dup1\n      tag_36\n      swap1\n      tag_37\n      jump\t// in\n    tag_36:\n      swap2\n      pop\n      pop\n        /* \"learn/StringUtil.sol\":830:1121  for (uint i = 0; i <a ;i++ ){... */\n      jump(tag_22)\n    tag_23:\n      pop\n        /* \"learn/StringUtil.sol\":554:1132  {... */\n      pop\n        /* \"learn/StringUtil.sol\":143:1148  function compare(string memory str1, string memory str2) public pure returns(CompareResult){... */\n    tag_9:\n      swap3\n      swap2\n      pop\n      pop\n      jump\t// out\n        /* \"#utility.yul\":7:82   */\n    tag_38:\n        /* \"#utility.yul\":40:46   */\n      0x00\n        /* \"#utility.yul\":73:75   */\n      0x40\n        /* \"#utility.yul\":67:76   */\n      mload\n        /* \"#utility.yul\":57:76   */\n      swap1\n      pop\n        /* \"#utility.yul\":7:82   */\n      swap1\n      jump\t// out\n        /* \"#utility.yul\":88:205   */\n    tag_39:\n        /* \"#utility.yul\":197:198   */\n      0x00\n        /* \"#utility.yul\":194:195   */\n      dup1\n        /* \"#utility.yul\":187:199   */\n      revert\n        /* \"#utility.yul\":211:328   */\n    tag_40:\n        /* \"#utility.yul\":320:321   */\n      0x00\n        /* \"#utility.yul\":317:318   */\n      dup1\n        /* \"#utility.yul\":310:322   */\n      revert\n        /* \"#utility.yul\":334:451   */\n    tag_41:\n        /* \"#utility.yul\":443:444   */\n      0x00\n        /* \"#utility.yul\":440:441   */\n      dup1\n        /* \"#utility.yul\":433:445   */\n      revert\n        /* \"#utility.yul\":457:574   */\n    tag_42:\n        /* \"#utility.yul\":566:567   */\n      0x00\n        /* \"#utility.yul\":563:564   */\n      dup1\n        /* \"#utility.yul\":556:568   */\n      revert\n        /* \"#utility.yul\":580:682   */\n    tag_43:\n        /* \"#utility.yul\":621:627   */\n      0x00\n        /* \"#utility.yul\":672:674   */\n      0x1f\n        /* \"#utility.yul\":668:675   */\n      not\n        /* \"#utility.yul\":663:665   */\n      0x1f\n        /* \"#utility.yul\":656:661   */\n      dup4\n        /* \"#utility.yul\":652:666   */\n      add\n        /* \"#utility.yul\":648:676   */\n      and\n        /* \"#utility.yul\":638:676   */\n      swap1\n      pop\n        /* \"#utility.yul\":580:682   */\n      swap2\n      swap1\n      pop\n      jump\t// out\n        /* \"#utility.yul\":688:868   */\n    tag_44:\n        /* \"#utility.yul\":736:813   */\n      0x4e487b7100000000000000000000000000000000000000000000000000000000\n        /* \"#utility.yul\":733:734   */\n      0x00\n        /* \"#utility.yul\":726:814   */\n      mstore\n        /* \"#utility.yul\":833:837   */\n      0x41\n        /* \"#utility.yul\":830:831   */\n      0x04\n        /* \"#utility.yul\":823:838   */\n      mstore\n        /* \"#utility.yul\":857:861   */\n      0x24\n        /* \"#utility.yul\":854:855   */\n      0x00\n        /* \"#utility.yul\":847:862   */\n      revert\n        /* \"#utility.yul\":874:1155   */\n    tag_45:\n        /* \"#utility.yul\":957:984   */\n      tag_71\n        /* \"#utility.yul\":979:983   */\n      dup3\n        /* \"#utility.yul\":957:984   */\n      tag_43\n      jump\t// in\n    tag_71:\n        /* \"#utility.yul\":949:955   */\n      dup2\n        /* \"#utility.yul\":945:985   */\n      add\n        /* \"#utility.yul\":1087:1093   */\n      dup2\n        /* \"#utility.yul\":1075:1085   */\n      dup2\n        /* \"#utility.yul\":1072:1094   */\n      lt\n        /* \"#utility.yul\":1051:1069   */\n      0xffffffffffffffff\n        /* \"#utility.yul\":1039:1049   */\n      dup3\n        /* \"#utility.yul\":1036:1070   */\n      gt\n        /* \"#utility.yul\":1033:1095   */\n      or\n        /* \"#utility.yul\":1030:1118   */\n      iszero\n      tag_72\n      jumpi\n        /* \"#utility.yul\":1098:1116   */\n      tag_73\n      tag_44\n      jump\t// in\n    tag_73:\n        /* \"#utility.yul\":1030:1118   */\n    tag_72:\n        /* \"#utility.yul\":1138:1148   */\n      dup1\n        /* \"#utility.yul\":1134:1136   */\n      0x40\n        /* \"#utility.yul\":1127:1149   */\n      mstore\n        /* \"#utility.yul\":917:1155   */\n      pop\n        /* \"#utility.yul\":874:1155   */\n      pop\n      pop\n      jump\t// out\n        /* \"#utility.yul\":1161:1290   */\n    tag_46:\n        /* \"#utility.yul\":1195:1201   */\n      0x00\n        /* \"#utility.yul\":1222:1242   */\n      tag_75\n      tag_38\n      jump\t// in\n    tag_75:\n        /* \"#utility.yul\":1212:1242   */\n      swap1\n      pop\n        /* \"#utility.yul\":1251:1284   */\n      tag_76\n        /* \"#utility.yul\":1279:1283   */\n      dup3\n        /* \"#utility.yul\":1271:1277   */\n      dup3\n        /* \"#utility.yul\":1251:1284   */\n      tag_45\n      jump\t// in\n    tag_76:\n        /* \"#utility.yul\":1161:1290   */\n      swap2\n      swap1\n      pop\n      jump\t// out\n        /* \"#utility.yul\":1296:1604   */\n    tag_47:\n        /* \"#utility.yul\":1358:1362   */\n      0x00\n        /* \"#utility.yul\":1448:1466   */\n      0xffffffffffffffff\n        /* \"#utility.yul\":1440:1446   */\n      dup3\n        /* \"#utility.yul\":1437:1467   */\n      gt\n        /* \"#utility.yul\":1434:1490   */\n      iszero\n      tag_78\n      jumpi\n        /* \"#utility.yul\":1470:1488   */\n      tag_79\n      tag_44\n      jump\t// in\n    tag_79:\n        /* \"#utility.yul\":1434:1490   */\n    tag_78:\n        /* \"#utility.yul\":1508:1537   */\n      tag_80\n        /* \"#utility.yul\":1530:1536   */\n      dup3\n        /* \"#utility.yul\":1508:1537   */\n      tag_43\n      jump\t// in\n    tag_80:\n        /* \"#utility.yul\":1500:1537   */\n      swap1\n      pop\n        /* \"#utility.yul\":1592:1596   */\n      0x20\n        /* \"#utility.yul\":1586:1590   */\n      dup2\n        /* \"#utility.yul\":1582:1597   */\n      add\n        /* \"#utility.yul\":1574:1597   */\n      swap1\n      pop\n        /* \"#utility.yul\":1296:1604   */\n      swap2\n      swap1\n      pop\n      jump\t// out\n        /* \"#utility.yul\":1610:1756   */\n    tag_48:\n        /* \"#utility.yul\":1707:1713   */\n      dup3\n        /* \"#utility.yul\":1702:1705   */\n      dup2\n        /* \"#utility.yul\":1697:1700   */\n      dup4\n        /* \"#utility.yul\":1684:1714   */\n      calldatacopy\n        /* \"#utility.yul\":1748:1749   */\n      0x00\n        /* \"#utility.yul\":1739:1745   */\n      dup4\n        /* \"#utility.yul\":1734:1737   */\n      dup4\n        /* \"#utility.yul\":1730:1746   */\n      add\n        /* \"#utility.yul\":1723:1750   */\n      mstore\n        /* \"#utility.yul\":1610:1756   */\n      pop\n      pop\n      pop\n      jump\t// out\n        /* \"#utility.yul\":1762:2187   */\n    tag_49:\n        /* \"#utility.yul\":1840:1845   */\n      0x00\n        /* \"#utility.yul\":1865:1931   */\n      tag_83\n        /* \"#utility.yul\":1881:1930   */\n      tag_84\n        /* \"#utility.yul\":1923:1929   */\n      dup5\n        /* \"#utility.yul\":1881:1930   */\n      tag_47\n      jump\t// in\n    tag_84:\n        /* \"#utility.yul\":1865:1931   */\n      tag_46\n      jump\t// in\n    tag_83:\n        /* \"#utility.yul\":1856:1931   */\n      swap1\n      pop\n        /* \"#utility.yul\":1954:1960   */\n      dup3\n        /* \"#utility.yul\":1947:1952   */\n      dup2\n        /* \"#utility.yul\":1940:1961   */\n      mstore\n        /* \"#utility.yul\":1992:1996   */\n      0x20\n        /* \"#utility.yul\":1985:1990   */\n      dup2\n        /* \"#utility.yul\":1981:1997   */\n      add\n        /* \"#utility.yul\":2030:2033   */\n      dup5\n        /* \"#utility.yul\":2021:2027   */\n      dup5\n        /* \"#utility.yul\":2016:2019   */\n      dup5\n        /* \"#utility.yul\":2012:2028   */\n      add\n        /* \"#utility.yul\":2009:2034   */\n      gt\n        /* \"#utility.yul\":2006:2118   */\n      iszero\n      tag_85\n      jumpi\n        /* \"#utility.yul\":2037:2116   */\n      tag_86\n      tag_42\n      jump\t// in\n    tag_86:\n        /* \"#utility.yul\":2006:2118   */\n    tag_85:\n        /* \"#utility.yul\":2127:2181   */\n      tag_87\n        /* \"#utility.yul\":2174:2180   */\n      dup5\n        /* \"#utility.yul\":2169:2172   */\n      dup3\n        /* \"#utility.yul\":2164:2167   */\n      dup6\n        /* \"#utility.yul\":2127:2181   */\n      tag_48\n      jump\t// in\n    tag_87:\n        /* \"#utility.yul\":1846:2187   */\n      pop\n        /* \"#utility.yul\":1762:2187   */\n      swap4\n      swap3\n      pop\n      pop\n      pop\n      jump\t// out\n        /* \"#utility.yul\":2207:2547   */\n    tag_50:\n        /* \"#utility.yul\":2263:2268   */\n      0x00\n        /* \"#utility.yul\":2312:2315   */\n      dup3\n        /* \"#utility.yul\":2305:2309   */\n      0x1f\n        /* \"#utility.yul\":2297:2303   */\n      dup4\n        /* \"#utility.yul\":2293:2310   */\n      add\n        /* \"#utility.yul\":2289:2316   */\n      slt\n        /* \"#utility.yul\":2279:2401   */\n      tag_89\n      jumpi\n        /* \"#utility.yul\":2320:2399   */\n      tag_90\n      tag_41\n      jump\t// in\n    tag_90:\n        /* \"#utility.yul\":2279:2401   */\n    tag_89:\n        /* \"#utility.yul\":2437:2443   */\n      dup2\n        /* \"#utility.yul\":2424:2444   */\n      calldataload\n        /* \"#utility.yul\":2462:2541   */\n      tag_91\n        /* \"#utility.yul\":2537:2540   */\n      dup5\n        /* \"#utility.yul\":2529:2535   */\n      dup3\n        /* \"#utility.yul\":2522:2526   */\n      0x20\n        /* \"#utility.yul\":2514:2520   */\n      dup7\n        /* \"#utility.yul\":2510:2527   */\n      add\n        /* \"#utility.yul\":2462:2541   */\n      tag_49\n      jump\t// in\n    tag_91:\n        /* \"#utility.yul\":2453:2541   */\n      swap2\n      pop\n        /* \"#utility.yul\":2269:2547   */\n      pop\n        /* \"#utility.yul\":2207:2547   */\n      swap3\n      swap2\n      pop\n      pop\n      jump\t// out\n        /* \"#utility.yul\":2553:3387   */\n    tag_5:\n        /* \"#utility.yul\":2641:2647   */\n      0x00\n        /* \"#utility.yul\":2649:2655   */\n      dup1\n        /* \"#utility.yul\":2698:2700   */\n      0x40\n        /* \"#utility.yul\":2686:2695   */\n      dup4\n        /* \"#utility.yul\":2677:2684   */\n      dup6\n        /* \"#utility.yul\":2673:2696   */\n      sub\n        /* \"#utility.yul\":2669:2701   */\n      slt\n        /* \"#utility.yul\":2666:2785   */\n      iszero\n      tag_93\n      jumpi\n        /* \"#utility.yul\":2704:2783   */\n      tag_94\n      tag_39\n      jump\t// in\n    tag_94:\n        /* \"#utility.yul\":2666:2785   */\n    tag_93:\n        /* \"#utility.yul\":2852:2853   */\n      0x00\n        /* \"#utility.yul\":2841:2850   */\n      dup4\n        /* \"#utility.yul\":2837:2854   */\n      add\n        /* \"#utility.yul\":2824:2855   */\n      calldataload\n        /* \"#utility.yul\":2882:2900   */\n      0xffffffffffffffff\n        /* \"#utility.yul\":2874:2880   */\n      dup2\n        /* \"#utility.yul\":2871:2901   */\n      gt\n        /* \"#utility.yul\":2868:2985   */\n      iszero\n      tag_95\n      jumpi\n        /* \"#utility.yul\":2904:2983   */\n      tag_96\n      tag_40\n      jump\t// in\n    tag_96:\n        /* \"#utility.yul\":2868:2985   */\n    tag_95:\n        /* \"#utility.yul\":3009:3072   */\n      tag_97\n        /* \"#utility.yul\":3064:3071   */\n      dup6\n        /* \"#utility.yul\":3055:3061   */\n      dup3\n        /* \"#utility.yul\":3044:3053   */\n      dup7\n        /* \"#utility.yul\":3040:3062   */\n      add\n        /* \"#utility.yul\":3009:3072   */\n      tag_50\n      jump\t// in\n    tag_97:\n        /* \"#utility.yul\":2999:3072   */\n      swap3\n      pop\n        /* \"#utility.yul\":2795:3082   */\n      pop\n        /* \"#utility.yul\":3149:3151   */\n      0x20\n        /* \"#utility.yul\":3138:3147   */\n      dup4\n        /* \"#utility.yul\":3134:3152   */\n      add\n        /* \"#utility.yul\":3121:3153   */\n      calldataload\n        /* \"#utility.yul\":3180:3198   */\n      0xffffffffffffffff\n        /* \"#utility.yul\":3172:3178   */\n      dup2\n        /* \"#utility.yul\":3169:3199   */\n      gt\n        /* \"#utility.yul\":3166:3283   */\n      iszero\n      tag_98\n      jumpi\n        /* \"#utility.yul\":3202:3281   */\n      tag_99\n      tag_40\n      jump\t// in\n    tag_99:\n        /* \"#utility.yul\":3166:3283   */\n    tag_98:\n        /* \"#utility.yul\":3307:3370   */\n      tag_100\n        /* \"#utility.yul\":3362:3369   */\n      dup6\n        /* \"#utility.yul\":3353:3359   */\n      dup3\n        /* \"#utility.yul\":3342:3351   */\n      dup7\n        /* \"#utility.yul\":3338:3360   */\n      add\n        /* \"#utility.yul\":3307:3370   */\n      tag_50\n      jump\t// in\n    tag_100:\n        /* \"#utility.yul\":3297:3370   */\n      swap2\n      pop\n        /* \"#utility.yul\":3092:3380   */\n      pop\n        /* \"#utility.yul\":2553:3387   */\n      swap3\n      pop\n      swap3\n      swap1\n      pop\n      jump\t// out\n        /* \"#utility.yul\":3393:3573   */\n    tag_51:\n        /* \"#utility.yul\":3441:3518   */\n      0x4e487b7100000000000000000000000000000000000000000000000000000000\n        /* \"#utility.yul\":3438:3439   */\n      0x00\n        /* \"#utility.yul\":3431:3519   */\n      mstore\n        /* \"#utility.yul\":3538:3542   */\n      0x21\n        /* \"#utility.yul\":3535:3536   */\n      0x04\n        /* \"#utility.yul\":3528:3543   */\n      mstore\n        /* \"#utility.yul\":3562:3566   */\n      0x24\n        /* \"#utility.yul\":3559:3560   */\n      0x00\n        /* \"#utility.yul\":3552:3567   */\n      revert\n        /* \"#utility.yul\":3579:3699   */\n    tag_52:\n        /* \"#utility.yul\":3667:3668   */\n      0x04\n        /* \"#utility.yul\":3660:3665   */\n      dup2\n        /* \"#utility.yul\":3657:3669   */\n      lt\n        /* \"#utility.yul\":3647:3693   */\n      tag_103\n      jumpi\n        /* \"#utility.yul\":3673:3691   */\n      tag_104\n      tag_51\n      jump\t// in\n    tag_104:\n        /* \"#utility.yul\":3647:3693   */\n    tag_103:\n        /* \"#utility.yul\":3579:3699   */\n      pop\n      jump\t// out\n        /* \"#utility.yul\":3705:3846   */\n    tag_53:\n        /* \"#utility.yul\":3757:3764   */\n      0x00\n        /* \"#utility.yul\":3786:3791   */\n      dup2\n        /* \"#utility.yul\":3775:3791   */\n      swap1\n      pop\n        /* \"#utility.yul\":3792:3840   */\n      tag_106\n        /* \"#utility.yul\":3834:3839   */\n      dup3\n        /* \"#utility.yul\":3792:3840   */\n      tag_52\n      jump\t// in\n    tag_106:\n        /* \"#utility.yul\":3705:3846   */\n      swap2\n      swap1\n      pop\n      jump\t// out\n        /* \"#utility.yul\":3852:3993   */\n    tag_54:\n        /* \"#utility.yul\":3915:3924   */\n      0x00\n        /* \"#utility.yul\":3948:3987   */\n      tag_108\n        /* \"#utility.yul\":3981:3986   */\n      dup3\n        /* \"#utility.yul\":3948:3987   */\n      tag_53\n      jump\t// in\n    tag_108:\n        /* \"#utility.yul\":3935:3987   */\n      swap1\n      pop\n        /* \"#utility.yul\":3852:3993   */\n      swap2\n      swap1\n      pop\n      jump\t// out\n        /* \"#utility.yul\":3999:4164   */\n    tag_55:\n        /* \"#utility.yul\":4107:4157   */\n      tag_110\n        /* \"#utility.yul\":4151:4156   */\n      dup2\n        /* \"#utility.yul\":4107:4157   */\n      tag_54\n      jump\t// in\n    tag_110:\n        /* \"#utility.yul\":4102:4105   */\n      dup3\n        /* \"#utility.yul\":4095:4158   */\n      mstore\n        /* \"#utility.yul\":3999:4164   */\n      pop\n      pop\n      jump\t// out\n        /* \"#utility.yul\":4170:4434   */\n    tag_8:\n        /* \"#utility.yul\":4284:4288   */\n      0x00\n        /* \"#utility.yul\":4322:4324   */\n      0x20\n        /* \"#utility.yul\":4311:4320   */\n      dup3\n        /* \"#utility.yul\":4307:4325   */\n      add\n        /* \"#utility.yul\":4299:4325   */\n      swap1\n      pop\n        /* \"#utility.yul\":4335:4427   */\n      tag_112\n        /* \"#utility.yul\":4424:4425   */\n      0x00\n        /* \"#utility.yul\":4413:4422   */\n      dup4\n        /* \"#utility.yul\":4409:4426   */\n      add\n        /* \"#utility.yul\":4400:4406   */\n      dup5\n        /* \"#utility.yul\":4335:4427   */\n      tag_55\n      jump\t// in\n    tag_112:\n        /* \"#utility.yul\":4170:4434   */\n      swap3\n      swap2\n      pop\n      pop\n      jump\t// out\n        /* \"#utility.yul\":4440:4539   */\n    tag_56:\n        /* \"#utility.yul\":4492:4498   */\n      0x00\n        /* \"#utility.yul\":4526:4531   */\n      dup2\n        /* \"#utility.yul\":4520:4532   */\n      mload\n        /* \"#utility.yul\":4510:4532   */\n      swap1\n      pop\n        /* \"#utility.yul\":4440:4539   */\n      swap2\n      swap1\n      pop\n      jump\t// out\n        /* \"#utility.yul\":4545:4693   */\n    tag_57:\n        /* \"#utility.yul\":4647:4658   */\n      0x00\n        /* \"#utility.yul\":4684:4687   */\n      dup2\n        /* \"#utility.yul\":4669:4687   */\n      swap1\n      pop\n        /* \"#utility.yul\":4545:4693   */\n      swap3\n      swap2\n      pop\n      pop\n      jump\t// out\n        /* \"#utility.yul\":4699:4945   */\n    tag_58:\n        /* \"#utility.yul\":4780:4781   */\n      0x00\n        /* \"#utility.yul\":4790:4903   */\n    tag_116:\n        /* \"#utility.yul\":4804:4810   */\n      dup4\n        /* \"#utility.yul\":4801:4802   */\n      dup2\n        /* \"#utility.yul\":4798:4811   */\n      lt\n        /* \"#utility.yul\":4790:4903   */\n      iszero\n      tag_118\n      jumpi\n        /* \"#utility.yul\":4889:4890   */\n      dup1\n        /* \"#utility.yul\":4884:4887   */\n      dup3\n        /* \"#utility.yul\":4880:4891   */\n      add\n        /* \"#utility.yul\":4874:4892   */\n      mload\n        /* \"#utility.yul\":4870:4871   */\n      dup2\n        /* \"#utility.yul\":4865:4868   */\n      dup5\n        /* \"#utility.yul\":4861:4872   */\n      add\n        /* \"#utility.yul\":4854:4893   */\n      mstore\n        /* \"#utility.yul\":4826:4828   */\n      0x20\n        /* \"#utility.yul\":4823:4824   */\n      dup2\n        /* \"#utility.yul\":4819:4829   */\n      add\n        /* \"#utility.yul\":4814:4829   */\n      swap1\n      pop\n        /* \"#utility.yul\":4790:4903   */\n      jump(tag_116)\n    tag_118:\n        /* \"#utility.yul\":4937:4938   */\n      0x00\n        /* \"#utility.yul\":4928:4934   */\n      dup5\n        /* \"#utility.yul\":4923:4926   */\n      dup5\n        /* \"#utility.yul\":4919:4935   */\n      add\n        /* \"#utility.yul\":4912:4939   */\n      mstore\n        /* \"#utility.yul\":4761:4945   */\n      pop\n        /* \"#utility.yul\":4699:4945   */\n      pop\n      pop\n      pop\n      jump\t// out\n        /* \"#utility.yul\":4951:5341   */\n    tag_59:\n        /* \"#utility.yul\":5057:5060   */\n      0x00\n        /* \"#utility.yul\":5085:5124   */\n      tag_120\n        /* \"#utility.yul\":5118:5123   */\n      dup3\n        /* \"#utility.yul\":5085:5124   */\n      tag_56\n      jump\t// in\n    tag_120:\n        /* \"#utility.yul\":5140:5229   */\n      tag_121\n        /* \"#utility.yul\":5222:5228   */\n      dup2\n        /* \"#utility.yul\":5217:5220   */\n      dup6\n        /* \"#utility.yul\":5140:5229   */\n      tag_57\n      jump\t// in\n    tag_121:\n        /* \"#utility.yul\":5133:5229   */\n      swap4\n      pop\n        /* \"#utility.yul\":5238:5303   */\n      tag_122\n        /* \"#utility.yul\":5296:5302   */\n      dup2\n        /* \"#utility.yul\":5291:5294   */\n      dup6\n        /* \"#utility.yul\":5284:5288   */\n      0x20\n        /* \"#utility.yul\":5277:5282   */\n      dup7\n        /* \"#utility.yul\":5273:5289   */\n      add\n        /* \"#utility.yul\":5238:5303   */\n      tag_58\n      jump\t// in\n    tag_122:\n        /* \"#utility.yul\":5328:5334   */\n      dup1\n        /* \"#utility.yul\":5323:5326   */\n      dup5\n        /* \"#utility.yul\":5319:5335   */\n      add\n        /* \"#utility.yul\":5312:5335   */\n      swap2\n      pop\n        /* \"#utility.yul\":5061:5341   */\n      pop\n        /* \"#utility.yul\":4951:5341   */\n      swap3\n      swap2\n      pop\n      pop\n      jump\t// out\n        /* \"#utility.yul\":5347:5622   */\n    tag_15:\n        /* \"#utility.yul\":5479:5482   */\n      0x00\n        /* \"#utility.yul\":5501:5596   */\n      tag_124\n        /* \"#utility.yul\":5592:5595   */\n      dup3\n        /* \"#utility.yul\":5583:5589   */\n      dup5\n        /* \"#utility.yul\":5501:5596   */\n      tag_59\n      jump\t// in\n    tag_124:\n        /* \"#utility.yul\":5494:5596   */\n      swap2\n      pop\n        /* \"#utility.yul\":5613:5616   */\n      dup2\n        /* \"#utility.yul\":5606:5616   */\n      swap1\n      pop\n        /* \"#utility.yul\":5347:5622   */\n      swap3\n      swap2\n      pop\n      pop\n      jump\t// out\n        /* \"#utility.yul\":5628:5808   */\n    tag_27:\n        /* \"#utility.yul\":5676:5753   */\n      0x4e487b7100000000000000000000000000000000000000000000000000000000\n        /* \"#utility.yul\":5673:5674   */\n      0x00\n        /* \"#utility.yul\":5666:5754   */\n      mstore\n        /* \"#utility.yul\":5773:5777   */\n      0x32\n        /* \"#utility.yul\":5770:5771   */\n      0x04\n        /* \"#utility.yul\":5763:5778   */\n      mstore\n        /* \"#utility.yul\":5797:5801   */\n      0x24\n        /* \"#utility.yul\":5794:5795   */\n      0x00\n        /* \"#utility.yul\":5787:5802   */\n      revert\n        /* \"#utility.yul\":5814:5994   */\n    tag_60:\n        /* \"#utility.yul\":5862:5939   */\n      0x4e487b7100000000000000000000000000000000000000000000000000000000\n        /* \"#utility.yul\":5859:5860   */\n      0x00\n        /* \"#utility.yul\":5852:5940   */\n      mstore\n        /* \"#utility.yul\":5959:5963   */\n      0x11\n        /* \"#utility.yul\":5956:5957   */\n      0x04\n        /* \"#utility.yul\":5949:5964   */\n      mstore\n        /* \"#utility.yul\":5983:5987   */\n      0x24\n        /* \"#utility.yul\":5980:5981   */\n      0x00\n        /* \"#utility.yul\":5973:5988   */\n      revert\n        /* \"#utility.yul\":6000:6077   */\n    tag_61:\n        /* \"#utility.yul\":6037:6044   */\n      0x00\n        /* \"#utility.yul\":6066:6071   */\n      dup2\n        /* \"#utility.yul\":6055:6071   */\n      swap1\n      pop\n        /* \"#utility.yul\":6000:6077   */\n      swap2\n      swap1\n      pop\n      jump\t// out\n        /* \"#utility.yul\":6083:6316   */\n    tag_37:\n        /* \"#utility.yul\":6122:6125   */\n      0x00\n        /* \"#utility.yul\":6145:6169   */\n      tag_129\n        /* \"#utility.yul\":6163:6168   */\n      dup3\n        /* \"#utility.yul\":6145:6169   */\n      tag_61\n      jump\t// in\n    tag_129:\n        /* \"#utility.yul\":6136:6169   */\n      swap2\n      pop\n        /* \"#utility.yul\":6191:6257   */\n      0xffffffffffffffffffffffffffffffffffffffffffffffffffffffffffffffff\n        /* \"#utility.yul\":6184:6189   */\n      dup3\n        /* \"#utility.yul\":6181:6258   */\n      sub\n        /* \"#utility.yul\":6178:6281   */\n      tag_130\n      jumpi\n        /* \"#utility.yul\":6261:6279   */\n      tag_131\n      tag_60\n      jump\t// in\n    tag_131:\n        /* \"#utility.yul\":6178:6281   */\n    tag_130:\n        /* \"#utility.yul\":6308:6309   */\n      0x01\n        /* \"#utility.yul\":6301:6306   */\n      dup3\n        /* \"#utility.yul\":6297:6310   */\n      add\n        /* \"#utility.yul\":6290:6310   */\n      swap1\n      pop\n        /* \"#utility.yul\":6083:6316   */\n      swap2\n      swap1\n      pop\n      jump\t// out\n\n    auxdata: 0xa2646970667358221220f632e76fdf909d8b78ff8951f02229e670a2ac381ee672fee90fbb155244350364736f6c63430008110033\n}\n",
				"bytecode": {
					"linkReferences": {},
					"object": "610632610053600b82828239805160001a607314610046577f4e487b7100000000000000000000000000000000000000000000000000000000600052600060045260246000fd5b30600052607381538281f3fe73000000000000000000000000000000000000000030146080604052600436106100355760003560e01c80633a96fdd71461003a575b600080fd5b610054600480360381019061004f91906103ba565b61006a565b60405161006191906104a9565b60405180910390f35b60008083510361007d576003905061025a565b600082510361008f576003905061025a565b816040516020016100a09190610535565b60405160208183030381529060405280519060200120836040516020016100c79190610535565b60405160208183030381529060405280519060200120036100eb576000905061025a565b600083519050825181111561010457600291505061025a565b825181101561011757600191505061025a565b60005b81811015610257578381815181106101355761013461054c565b5b602001015160f81c60f81b7effffffffffffffffffffffffffffffffffffffffffffffffffffffffffffff19168582815181106101755761017461054c565b5b602001015160f81c60f81b7effffffffffffffffffffffffffffffffffffffffffffffffffffffffffffff191611156101b35760029250505061025a565b8381815181106101c6576101c561054c565b5b602001015160f81c60f81b7effffffffffffffffffffffffffffffffffffffffffffffffffffffffffffff19168582815181106102065761020561054c565b5b602001015160f81c60f81b7effffffffffffffffffffffffffffffffffffffffffffffffffffffffffffff191610156102445760019250505061025a565b808061024f906105b4565b91505061011a565b50505b92915050565b6000604051905090565b600080fd5b600080fd5b600080fd5b600080fd5b6000601f19601f8301169050919050565b7f4e487b7100000000000000000000000000000000000000000000000000000000600052604160045260246000fd5b6102c78261027e565b810181811067ffffffffffffffff821117156102e6576102e561028f565b5b80604052505050565b60006102f9610260565b905061030582826102be565b919050565b600067ffffffffffffffff8211156103255761032461028f565b5b61032e8261027e565b9050602081019050919050565b82818337600083830152505050565b600061035d6103588461030a565b6102ef565b90508281526020810184848401111561037957610378610279565b5b61038484828561033b565b509392505050565b600082601f8301126103a1576103a0610274565b5b81356103b184826020860161034a565b91505092915050565b600080604083850312156103d1576103d061026a565b5b600083013567ffffffffffffffff8111156103ef576103ee61026f565b5b6103fb8582860161038c565b925050602083013567ffffffffffffffff81111561041c5761041b61026f565b5b6104288582860161038c565b9150509250929050565b7f4e487b7100000000000000000000000000000000000000000000000000000000600052602160045260246000fd5b6004811061047257610471610432565b5b50565b600081905061048382610461565b919050565b600061049382610475565b9050919050565b6104a381610488565b82525050565b60006020820190506104be600083018461049a565b92915050565b600081519050919050565b600081905092915050565b60005b838110156104f85780820151818401526020810190506104dd565b60008484015250505050565b600061050f826104c4565b61051981856104cf565b93506105298185602086016104da565b80840191505092915050565b60006105418284610504565b915081905092915050565b7f4e487b7100000000000000000000000000000000000000000000000000000000600052603260045260246000fd5b7f4e487b7100000000000000000000000000000000000000000000000000000000600052601160045260246000fd5b6000819050919050565b60006105bf826105aa565b91507fffffffffffffffffffffffffffffffffffffffffffffffffffffffffffffffff82036105f1576105f061057b565b5b60018201905091905056fea2646970667358221220f632e76fdf909d8b78ff8951f02229e670a2ac381ee672fee90fbb155244350364736f6c63430008110033",
					"opcodes": "PUSH2 0x632 PUSH2 0x53 PUSH1 0xB DUP3 DUP3 DUP3 CODECOPY DUP1 MLOAD PUSH1 0x0 BYTE PUSH1 0x73 EQ PUSH2 0x46 JUMPI PUSH32 0x4E487B7100000000000000000000000000000000000000000000000000000000 PUSH1 0x0 MSTORE PUSH1 0x0 PUSH1 0x4 MSTORE PUSH1 0x24 PUSH1 0x0 REVERT JUMPDEST ADDRESS PUSH1 0x0 MSTORE PUSH1 0x73 DUP2 MSTORE8 DUP3 DUP2 RETURN INVALID PUSH20 0x0 ADDRESS EQ PUSH1 0x80 PUSH1 0x40 MSTORE PUSH1 0x4 CALLDATASIZE LT PUSH2 0x35 JUMPI PUSH1 0x0 CALLDATALOAD PUSH1 0xE0 SHR DUP1 PUSH4 0x3A96FDD7 EQ PUSH2 0x3A JUMPI JUMPDEST PUSH1 0x0 DUP1 REVERT JUMPDEST PUSH2 0x54 PUSH1 0x4 DUP1 CALLDATASIZE SUB DUP2 ADD SWAP1 PUSH2 0x4F SWAP2 SWAP1 PUSH2 0x3BA JUMP JUMPDEST PUSH2 0x6A JUMP JUMPDEST PUSH1 0x40 MLOAD PUSH2 0x61 SWAP2 SWAP1 PUSH2 0x4A9 JUMP JUMPDEST PUSH1 0x40 MLOAD DUP1 SWAP2 SUB SWAP1 RETURN JUMPDEST PUSH1 0x0 DUP1 DUP4 MLOAD SUB PUSH2 0x7D JUMPI PUSH1 0x3 SWAP1 POP PUSH2 0x25A JUMP JUMPDEST PUSH1 0x0 DUP3 MLOAD SUB PUSH2 0x8F JUMPI PUSH1 0x3 SWAP1 POP PUSH2 0x25A JUMP JUMPDEST DUP2 PUSH1 0x40 MLOAD PUSH1 0x20 ADD PUSH2 0xA0 SWAP2 SWAP1 PUSH2 0x535 JUMP JUMPDEST PUSH1 0x40 MLOAD PUSH1 0x20 DUP2 DUP4 SUB SUB DUP2 MSTORE SWAP1 PUSH1 0x40 MSTORE DUP1 MLOAD SWAP1 PUSH1 0x20 ADD KECCAK256 DUP4 PUSH1 0x40 MLOAD PUSH1 0x20 ADD PUSH2 0xC7 SWAP2 SWAP1 PUSH2 0x535 JUMP JUMPDEST PUSH1 0x40 MLOAD PUSH1 0x20 DUP2 DUP4 SUB SUB DUP2 MSTORE SWAP1 PUSH1 0x40 MSTORE DUP1 MLOAD SWAP1 PUSH1 0x20 ADD KECCAK256 SUB PUSH2 0xEB JUMPI PUSH1 0x0 SWAP1 POP PUSH2 0x25A JUMP JUMPDEST PUSH1 0x0 DUP4 MLOAD SWAP1 POP DUP3 MLOAD DUP2 GT ISZERO PUSH2 0x104 JUMPI PUSH1 0x2 SWAP2 POP POP PUSH2 0x25A JUMP JUMPDEST DUP3 MLOAD DUP2 LT ISZERO PUSH2 0x117 JUMPI PUSH1 0x1 SWAP2 POP POP PUSH2 0x25A JUMP JUMPDEST PUSH1 0x0 JUMPDEST DUP2 DUP2 LT ISZERO PUSH2 0x257 JUMPI DUP4 DUP2 DUP2 MLOAD DUP2 LT PUSH2 0x135 JUMPI PUSH2 0x134 PUSH2 0x54C JUMP JUMPDEST JUMPDEST PUSH1 0x20 ADD ADD MLOAD PUSH1 0xF8 SHR PUSH1 0xF8 SHL PUSH31 0xFFFFFFFFFFFFFFFFFFFFFFFFFFFFFFFFFFFFFFFFFFFFFFFFFFFFFFFFFFFFFF NOT AND DUP6 DUP3 DUP2 MLOAD DUP2 LT PUSH2 0x175 JUMPI PUSH2 0x174 PUSH2 0x54C JUMP JUMPDEST JUMPDEST PUSH1 0x20 ADD ADD MLOAD PUSH1 0xF8 SHR PUSH1 0xF8 SHL PUSH31 0xFFFFFFFFFFFFFFFFFFFFFFFFFFFFFFFFFFFFFFFFFFFFFFFFFFFFFFFFFFFFFF NOT AND GT ISZERO PUSH2 0x1B3 JUMPI PUSH1 0x2 SWAP3 POP POP POP PUSH2 0x25A JUMP JUMPDEST DUP4 DUP2 DUP2 MLOAD DUP2 LT PUSH2 0x1C6 JUMPI PUSH2 0x1C5 PUSH2 0x54C JUMP JUMPDEST JUMPDEST PUSH1 0x20 ADD ADD MLOAD PUSH1 0xF8 SHR PUSH1 0xF8 SHL PUSH31 0xFFFFFFFFFFFFFFFFFFFFFFFFFFFFFFFFFFFFFFFFFFFFFFFFFFFFFFFFFFFFFF NOT AND DUP6 DUP3 DUP2 MLOAD DUP2 LT PUSH2 0x206 JUMPI PUSH2 0x205 PUSH2 0x54C JUMP JUMPDEST JUMPDEST PUSH1 0x20 ADD ADD MLOAD PUSH1 0xF8 SHR PUSH1 0xF8 SHL PUSH31 0xFFFFFFFFFFFFFFFFFFFFFFFFFFFFFFFFFFFFFFFFFFFFFFFFFFFFFFFFFFFFFF NOT AND LT ISZERO PUSH2 0x244 JUMPI PUSH1 0x1 SWAP3 POP POP POP PUSH2 0x25A JUMP JUMPDEST DUP1 DUP1 PUSH2 0x24F SWAP1 PUSH2 0x5B4 JUMP JUMPDEST SWAP2 POP POP PUSH2 0x11A JUMP JUMPDEST POP POP JUMPDEST SWAP3 SWAP2 POP POP JUMP JUMPDEST PUSH1 0x0 PUSH1 0x40 MLOAD SWAP1 POP SWAP1 JUMP JUMPDEST PUSH1 0x0 DUP1 REVERT JUMPDEST PUSH1 0x0 DUP1 REVERT JUMPDEST PUSH1 0x0 DUP1 REVERT JUMPDEST PUSH1 0x0 DUP1 REVERT JUMPDEST PUSH1 0x0 PUSH1 0x1F NOT PUSH1 0x1F DUP4 ADD AND SWAP1 POP SWAP2 SWAP1 POP JUMP JUMPDEST PUSH32 0x4E487B7100000000000000000000000000000000000000000000000000000000 PUSH1 0x0 MSTORE PUSH1 0x41 PUSH1 0x4 MSTORE PUSH1 0x24 PUSH1 0x0 REVERT JUMPDEST PUSH2 0x2C7 DUP3 PUSH2 0x27E JUMP JUMPDEST DUP2 ADD DUP2 DUP2 LT PUSH8 0xFFFFFFFFFFFFFFFF DUP3 GT OR ISZERO PUSH2 0x2E6 JUMPI PUSH2 0x2E5 PUSH2 0x28F JUMP JUMPDEST JUMPDEST DUP1 PUSH1 0x40 MSTORE POP POP POP JUMP JUMPDEST PUSH1 0x0 PUSH2 0x2F9 PUSH2 0x260 JUMP JUMPDEST SWAP1 POP PUSH2 0x305 DUP3 DUP3 PUSH2 0x2BE JUMP JUMPDEST SWAP2 SWAP1 POP JUMP JUMPDEST PUSH1 0x0 PUSH8 0xFFFFFFFFFFFFFFFF DUP3 GT ISZERO PUSH2 0x325 JUMPI PUSH2 0x324 PUSH2 0x28F JUMP JUMPDEST JUMPDEST PUSH2 0x32E DUP3 PUSH2 0x27E JUMP JUMPDEST SWAP1 POP PUSH1 0x20 DUP2 ADD SWAP1 POP SWAP2 SWAP1 POP JUMP JUMPDEST DUP3 DUP2 DUP4 CALLDATACOPY PUSH1 0x0 DUP4 DUP4 ADD MSTORE POP POP POP JUMP JUMPDEST PUSH1 0x0 PUSH2 0x35D PUSH2 0x358 DUP5 PUSH2 0x30A JUMP JUMPDEST PUSH2 0x2EF JUMP JUMPDEST SWAP1 POP DUP3 DUP2 MSTORE PUSH1 0x20 DUP2 ADD DUP5 DUP5 DUP5 ADD GT ISZERO PUSH2 0x379 JUMPI PUSH2 0x378 PUSH2 0x279 JUMP JUMPDEST JUMPDEST PUSH2 0x384 DUP5 DUP3 DUP6 PUSH2 0x33B JUMP JUMPDEST POP SWAP4 SWAP3 POP POP POP JUMP JUMPDEST PUSH1 0x0 DUP3 PUSH1 0x1F DUP4 ADD SLT PUSH2 0x3A1 JUMPI PUSH2 0x3A0 PUSH2 0x274 JUMP JUMPDEST JUMPDEST DUP2 CALLDATALOAD PUSH2 0x3B1 DUP5 DUP3 PUSH1 0x20 DUP7 ADD PUSH2 0x34A JUMP JUMPDEST SWAP2 POP POP SWAP3 SWAP2 POP POP JUMP JUMPDEST PUSH1 0x0 DUP1 PUSH1 0x40 DUP4 DUP6 SUB SLT ISZERO PUSH2 0x3D1 JUMPI PUSH2 0x3D0 PUSH2 0x26A JUMP JUMPDEST JUMPDEST PUSH1 0x0 DUP4 ADD CALLDATALOAD PUSH8 0xFFFFFFFFFFFFFFFF DUP2 GT ISZERO PUSH2 0x3EF JUMPI PUSH2 0x3EE PUSH2 0x26F JUMP JUMPDEST JUMPDEST PUSH2 0x3FB DUP6 DUP3 DUP7 ADD PUSH2 0x38C JUMP JUMPDEST SWAP3 POP POP PUSH1 0x20 DUP4 ADD CALLDATALOAD PUSH8 0xFFFFFFFFFFFFFFFF DUP2 GT ISZERO PUSH2 0x41C JUMPI PUSH2 0x41B PUSH2 0x26F JUMP JUMPDEST JUMPDEST PUSH2 0x428 DUP6 DUP3 DUP7 ADD PUSH2 0x38C JUMP JUMPDEST SWAP2 POP POP SWAP3 POP SWAP3 SWAP1 POP JUMP JUMPDEST PUSH32 0x4E487B7100000000000000000000000000000000000000000000000000000000 PUSH1 0x0 MSTORE PUSH1 0x21 PUSH1 0x4 MSTORE PUSH1 0x24 PUSH1 0x0 REVERT JUMPDEST PUSH1 0x4 DUP2 LT PUSH2 0x472 JUMPI PUSH2 0x471 PUSH2 0x432 JUMP JUMPDEST JUMPDEST POP JUMP JUMPDEST PUSH1 0x0 DUP2 SWAP1 POP PUSH2 0x483 DUP3 PUSH2 0x461 JUMP JUMPDEST SWAP2 SWAP1 POP JUMP JUMPDEST PUSH1 0x0 PUSH2 0x493 DUP3 PUSH2 0x475 JUMP JUMPDEST SWAP1 POP SWAP2 SWAP1 POP JUMP JUMPDEST PUSH2 0x4A3 DUP2 PUSH2 0x488 JUMP JUMPDEST DUP3 MSTORE POP POP JUMP JUMPDEST PUSH1 0x0 PUSH1 0x20 DUP3 ADD SWAP1 POP PUSH2 0x4BE PUSH1 0x0 DUP4 ADD DUP5 PUSH2 0x49A JUMP JUMPDEST SWAP3 SWAP2 POP POP JUMP JUMPDEST PUSH1 0x0 DUP2 MLOAD SWAP1 POP SWAP2 SWAP1 POP JUMP JUMPDEST PUSH1 0x0 DUP2 SWAP1 POP SWAP3 SWAP2 POP POP JUMP JUMPDEST PUSH1 0x0 JUMPDEST DUP4 DUP2 LT ISZERO PUSH2 0x4F8 JUMPI DUP1 DUP3 ADD MLOAD DUP2 DUP5 ADD MSTORE PUSH1 0x20 DUP2 ADD SWAP1 POP PUSH2 0x4DD JUMP JUMPDEST PUSH1 0x0 DUP5 DUP5 ADD MSTORE POP POP POP POP JUMP JUMPDEST PUSH1 0x0 PUSH2 0x50F DUP3 PUSH2 0x4C4 JUMP JUMPDEST PUSH2 0x519 DUP2 DUP6 PUSH2 0x4CF JUMP JUMPDEST SWAP4 POP PUSH2 0x529 DUP2 DUP6 PUSH1 0x20 DUP7 ADD PUSH2 0x4DA JUMP JUMPDEST DUP1 DUP5 ADD SWAP2 POP POP SWAP3 SWAP2 POP POP JUMP JUMPDEST PUSH1 0x0 PUSH2 0x541 DUP3 DUP5 PUSH2 0x504 JUMP JUMPDEST SWAP2 POP DUP2 SWAP1 POP SWAP3 SWAP2 POP POP JUMP JUMPDEST PUSH32 0x4E487B7100000000000000000000000000000000000000000000000000000000 PUSH1 0x0 MSTORE PUSH1 0x32 PUSH1 0x4 MSTORE PUSH1 0x24 PUSH1 0x0 REVERT JUMPDEST PUSH32 0x4E487B7100000000000000000000000000000000000000000000000000000000 PUSH1 0x0 MSTORE PUSH1 0x11 PUSH1 0x4 MSTORE PUSH1 0x24 PUSH1 0x0 REVERT JUMPDEST PUSH1 0x0 DUP2 SWAP1 POP SWAP2 SWAP1 POP JUMP JUMPDEST PUSH1 0x0 PUSH2 0x5BF DUP3 PUSH2 0x5AA JUMP JUMPDEST SWAP2 POP PUSH32 0xFFFFFFFFFFFFFFFFFFFFFFFFFFFFFFFFFFFFFFFFFFFFFFFFFFFFFFFFFFFFFFFF DUP3 SUB PUSH2 0x5F1 JUMPI PUSH2 0x5F0 PUSH2 0x57B JUMP JUMPDEST JUMPDEST PUSH1 0x1 DUP3 ADD SWAP1 POP SWAP2 SWAP1 POP JUMP INVALID LOG2 PUSH5 0x6970667358 0x22 SLT KECCAK256 0xF6 ORIGIN 0xE7 PUSH16 0xDF909D8B78FF8951F02229E670A2AC38 0x1E 0xE6 PUSH19 0xFEE90FBB155244350364736F6C634300081100 CALLER "
				},
				"gasEstimates": {
					"creation": {
						"codeDepositCost": "317200",
						"executionCost": "380",
						"totalCost": "317580"
					},
					"external": {
						"compare(string,string)": "infinite"
					}
				},
				"methodIdentifiers": {
					"compare(string,string)": "3a96fdd7"
				}
			},
			"storageLayout": {
				"storage": [],
				"types": null
			},
			"userdoc": {
				"kind": "user",
				"methods": {},
				"version": 1
			}
		}
	}
}