{
	"learn/TInySolidity.sol": {
		"TinyAuctionEvent": {
			"abi": [
				{
					"anonymous": false,
					"inputs": [
						{
							"indexed": false,
							"internalType": "address",
							"name": "bidder",
							"type": "address"
						},
						{
							"indexed": false,
							"internalType": "uint256",
							"name": "amount",
							"type": "uint256"
						}
					],
					"name": "HighestBidIncreased",
					"type": "event"
				},
				{
					"inputs": [],
					"name": "bid",
					"outputs": [],
					"stateMutability": "payable",
					"type": "function"
				}
			],
			"devdoc": {
				"kind": "dev",
				"methods": {},
				"version": 1
			},
			"evm": {
				"assembly": "    /* \"learn/TInySolidity.sol\":765:1002  contract TinyAuctionEvent {... */\n  mstore(0x40, 0x80)\n  callvalue\n  dup1\n  iszero\n  tag_1\n  jumpi\n  0x00\n  dup1\n  revert\ntag_1:\n  pop\n  dataSize(sub_0)\n  dup1\n  dataOffset(sub_0)\n  0x00\n  codecopy\n  0x00\n  return\nstop\n\nsub_0: assembly {\n        /* \"learn/TInySolidity.sol\":765:1002  contract TinyAuctionEvent {... */\n      mstore(0x40, 0x80)\n      jumpi(tag_1, lt(calldatasize, 0x04))\n      shr(0xe0, calldataload(0x00))\n      dup1\n      0x1998aeef\n      eq\n      tag_2\n      jumpi\n    tag_1:\n      0x00\n      dup1\n      revert\n        /* \"learn/TInySolidity.sol\":871:999  function bid() public payable {... */\n    tag_2:\n      tag_3\n      tag_4\n      jump\t// in\n    tag_3:\n      stop\n    tag_4:\n        /* \"learn/TInySolidity.sol\":933:975  HighestBidIncreased(msg.sender, msg.value) */\n      0xf4757a49b326036464bec6fe419a4ae38c8a02ce3e68bf0809674f6aab8ad300\n        /* \"learn/TInySolidity.sol\":953:963  msg.sender */\n      caller\n        /* \"learn/TInySolidity.sol\":965:974  msg.value */\n      callvalue\n        /* \"learn/TInySolidity.sol\":933:975  HighestBidIncreased(msg.sender, msg.value) */\n      mload(0x40)\n      tag_6\n      swap3\n      swap2\n      swap1\n      tag_7\n      jump\t// in\n    tag_6:\n      mload(0x40)\n      dup1\n      swap2\n      sub\n      swap1\n      log1\n        /* \"learn/TInySolidity.sol\":871:999  function bid() public payable {... */\n      jump\t// out\n        /* \"#utility.yul\":7:133   */\n    tag_8:\n        /* \"#utility.yul\":44:51   */\n      0x00\n        /* \"#utility.yul\":84:126   */\n      0xffffffffffffffffffffffffffffffffffffffff\n        /* \"#utility.yul\":77:82   */\n      dup3\n        /* \"#utility.yul\":73:127   */\n      and\n        /* \"#utility.yul\":62:127   */\n      swap1\n      pop\n        /* \"#utility.yul\":7:133   */\n      swap2\n      swap1\n      pop\n      jump\t// out\n        /* \"#utility.yul\":139:235   */\n    tag_9:\n        /* \"#utility.yul\":176:183   */\n      0x00\n        /* \"#utility.yul\":205:229   */\n      tag_16\n        /* \"#utility.yul\":223:228   */\n      dup3\n        /* \"#utility.yul\":205:229   */\n      tag_8\n      jump\t// in\n    tag_16:\n        /* \"#utility.yul\":194:229   */\n      swap1\n      pop\n        /* \"#utility.yul\":139:235   */\n      swap2\n      swap1\n      pop\n      jump\t// out\n        /* \"#utility.yul\":241:359   */\n    tag_10:\n        /* \"#utility.yul\":328:352   */\n      tag_18\n        /* \"#utility.yul\":346:351   */\n      dup2\n        /* \"#utility.yul\":328:352   */\n      tag_9\n      jump\t// in\n    tag_18:\n        /* \"#utility.yul\":323:326   */\n      dup3\n        /* \"#utility.yul\":316:353   */\n      mstore\n        /* \"#utility.yul\":241:359   */\n      pop\n      pop\n      jump\t// out\n        /* \"#utility.yul\":365:442   */\n    tag_11:\n        /* \"#utility.yul\":402:409   */\n      0x00\n        /* \"#utility.yul\":431:436   */\n      dup2\n        /* \"#utility.yul\":420:436   */\n      swap1\n      pop\n        /* \"#utility.yul\":365:442   */\n      swap2\n      swap1\n      pop\n      jump\t// out\n        /* \"#utility.yul\":448:566   */\n    tag_12:\n        /* \"#utility.yul\":535:559   */\n      tag_21\n        /* \"#utility.yul\":553:558   */\n      dup2\n        /* \"#utility.yul\":535:559   */\n      tag_11\n      jump\t// in\n    tag_21:\n        /* \"#utility.yul\":530:533   */\n      dup3\n        /* \"#utility.yul\":523:560   */\n      mstore\n        /* \"#utility.yul\":448:566   */\n      pop\n      pop\n      jump\t// out\n        /* \"#utility.yul\":572:904   */\n    tag_7:\n        /* \"#utility.yul\":693:697   */\n      0x00\n        /* \"#utility.yul\":731:733   */\n      0x40\n        /* \"#utility.yul\":720:729   */\n      dup3\n        /* \"#utility.yul\":716:734   */\n      add\n        /* \"#utility.yul\":708:734   */\n      swap1\n      pop\n        /* \"#utility.yul\":744:815   */\n      tag_23\n        /* \"#utility.yul\":812:813   */\n      0x00\n        /* \"#utility.yul\":801:810   */\n      dup4\n        /* \"#utility.yul\":797:814   */\n      add\n        /* \"#utility.yul\":788:794   */\n      dup6\n        /* \"#utility.yul\":744:815   */\n      tag_10\n      jump\t// in\n    tag_23:\n        /* \"#utility.yul\":825:897   */\n      tag_24\n        /* \"#utility.yul\":893:895   */\n      0x20\n        /* \"#utility.yul\":882:891   */\n      dup4\n        /* \"#utility.yul\":878:896   */\n      add\n        /* \"#utility.yul\":869:875   */\n      dup5\n        /* \"#utility.yul\":825:897   */\n      tag_12\n      jump\t// in\n    tag_24:\n        /* \"#utility.yul\":572:904   */\n      swap4\n      swap3\n      pop\n      pop\n      pop\n      jump\t// out\n\n    auxdata: 0xa2646970667358221220d3b2ec9fcdab6e84897411bb5fb6c4f182dd064d4c417064daf5ad71a4d38aa964736f6c63430008110033\n}\n",
				"bytecode": {
					"linkReferences": {},
					"object": "608060405234801561001057600080fd5b50610111806100206000396000f3fe608060405260043610601c5760003560e01c80631998aeef146021575b600080fd5b60276029565b005b7ff4757a49b326036464bec6fe419a4ae38c8a02ce3e68bf0809674f6aab8ad3003334604051605892919060b6565b60405180910390a1565b600073ffffffffffffffffffffffffffffffffffffffff82169050919050565b6000608b826062565b9050919050565b6099816082565b82525050565b6000819050919050565b60b081609f565b82525050565b600060408201905060c960008301856092565b60d4602083018460a9565b939250505056fea2646970667358221220d3b2ec9fcdab6e84897411bb5fb6c4f182dd064d4c417064daf5ad71a4d38aa964736f6c63430008110033",
					"opcodes": "PUSH1 0x80 PUSH1 0x40 MSTORE CALLVALUE DUP1 ISZERO PUSH2 0x10 JUMPI PUSH1 0x0 DUP1 REVERT JUMPDEST POP PUSH2 0x111 DUP1 PUSH2 0x20 PUSH1 0x0 CODECOPY PUSH1 0x0 RETURN INVALID PUSH1 0x80 PUSH1 0x40 MSTORE PUSH1 0x4 CALLDATASIZE LT PUSH1 0x1C JUMPI PUSH1 0x0 CALLDATALOAD PUSH1 0xE0 SHR DUP1 PUSH4 0x1998AEEF EQ PUSH1 0x21 JUMPI JUMPDEST PUSH1 0x0 DUP1 REVERT JUMPDEST PUSH1 0x27 PUSH1 0x29 JUMP JUMPDEST STOP JUMPDEST PUSH32 0xF4757A49B326036464BEC6FE419A4AE38C8A02CE3E68BF0809674F6AAB8AD300 CALLER CALLVALUE PUSH1 0x40 MLOAD PUSH1 0x58 SWAP3 SWAP2 SWAP1 PUSH1 0xB6 JUMP JUMPDEST PUSH1 0x40 MLOAD DUP1 SWAP2 SUB SWAP1 LOG1 JUMP JUMPDEST PUSH1 0x0 PUSH20 0xFFFFFFFFFFFFFFFFFFFFFFFFFFFFFFFFFFFFFFFF DUP3 AND SWAP1 POP SWAP2 SWAP1 POP JUMP JUMPDEST PUSH1 0x0 PUSH1 0x8B DUP3 PUSH1 0x62 JUMP JUMPDEST SWAP1 POP SWAP2 SWAP1 POP JUMP JUMPDEST PUSH1 0x99 DUP2 PUSH1 0x82 JUMP JUMPDEST DUP3 MSTORE POP POP JUMP JUMPDEST PUSH1 0x0 DUP2 SWAP1 POP SWAP2 SWAP1 POP JUMP JUMPDEST PUSH1 0xB0 DUP2 PUSH1 0x9F JUMP JUMPDEST DUP3 MSTORE POP POP JUMP JUMPDEST PUSH1 0x0 PUSH1 0x40 DUP3 ADD SWAP1 POP PUSH1 0xC9 PUSH1 0x0 DUP4 ADD DUP6 PUSH1 0x92 JUMP JUMPDEST PUSH1 0xD4 PUSH1 0x20 DUP4 ADD DUP5 PUSH1 0xA9 JUMP JUMPDEST SWAP4 SWAP3 POP POP POP JUMP INVALID LOG2 PUSH5 0x6970667358 0x22 SLT KECCAK256 0xD3 0xB2 0xEC SWAP16 0xCD 0xAB PUSH15 0x84897411BB5FB6C4F182DD064D4C41 PUSH17 0x64DAF5AD71A4D38AA964736F6C63430008 GT STOP CALLER "
				},
				"gasEstimates": {
					"creation": {
						"codeDepositCost": "54600",
						"executionCost": "105",
						"totalCost": "54705"
					},
					"external": {
						"bid()": "1695"
					}
				},
				"methodIdentifiers": {
					"bid()": "1998aeef"
				}
			},
			"storageLayout": {
				"storage": [],
				"types": null
			},
			"userdoc": {
				"kind": "user",
				"methods": {},
				"version": 1
			}
		}
	}
}