{
	"learn/StringUtil.sol": {
		"StringUtil": {
			"abi": [
				{
					"inputs": [
						{
							"internalType": "string",
							"name": "str1",
							"type": "string"
						},
						{
							"internalType": "string",
							"name": "str2",
							"type": "string"
						}
					],
					"name": "compare",
					"outputs": [
						{
							"internalType": "enum StringUtil.CompareResult",
							"name": "",
							"type": "StringUtil.CompareResult"
						}
					],
					"stateMutability": "pure",
					"type": "function"
				}
			],
			"devdoc": {
				"kind": "dev",
				"methods": {},
				"version": 1
			},
			"evm": {
				"assembly": "    /* \"learn/StringUtil.sol\":59:1179  library StringUtil{... */\n  dataSize(sub_0)\n  dataOffset(sub_0)\n  0x0b\n  dup3\n  dup3\n  dup3\n  codecopy\n  dup1\n  mload\n  0x00\n  byte\n  0x73\n  eq\n  tag_1\n  jumpi\n  mstore(0x00, 0x4e487b7100000000000000000000000000000000000000000000000000000000)\n  mstore(0x04, 0x00)\n  revert(0x00, 0x24)\ntag_1:\n  mstore(0x00, address)\n  0x73\n  dup2\n  mstore8\n  dup3\n  dup2\n  return\nstop\n\nsub_0: assembly {\n        /* \"learn/StringUtil.sol\":59:1179  library StringUtil{... */\n      eq(address, deployTimeAddress())\n      mstore(0x40, 0x80)\n      jumpi(tag_1, lt(calldatasize, 0x04))\n      shr(0xe0, calldataload(0x00))\n      dup1\n      0x3a96fdd7\n      eq\n      tag_2\n      jumpi\n    tag_1:\n      0x00\n      dup1\n      revert\n        /* \"learn/StringUtil.sol\":144:1176  function compare(string memory str1, string memory str2) public pure returns(CompareResult){... */\n    tag_2:\n      tag_3\n      0x04\n      dup1\n      calldatasize\n      sub\n      dup2\n      add\n      swap1\n      tag_4\n      swap2\n      swap1\n      tag_5\n      jump\t// in\n    tag_4:\n      tag_6\n      jump\t// in\n    tag_3:\n      mload(0x40)\n      tag_7\n      swap2\n      swap1\n      tag_8\n      jump\t// in\n    tag_7:\n      mload(0x40)\n      dup1\n      swap2\n      sub\n      swap1\n      return\n    tag_6:\n        /* \"learn/StringUtil.sol\":221:234  CompareResult */\n      0x00\n        /* \"learn/StringUtil.sol\":272:273  0 */\n      dup1\n        /* \"learn/StringUtil.sol\":256:260  str1 */\n      dup4\n        /* \"learn/StringUtil.sol\":250:268  bytes(str1).length */\n      mload\n        /* \"learn/StringUtil.sol\":250:273  bytes(str1).length == 0 */\n      sub\n        /* \"learn/StringUtil.sol\":246:1169  if (bytes(str1).length == 0){... */\n      tag_10\n      jumpi\n        /* \"learn/StringUtil.sol\":296:317  CompareResult.Invalid */\n      0x03\n        /* \"learn/StringUtil.sol\":289:317  return CompareResult.Invalid */\n      swap1\n      pop\n      jump(tag_9)\n        /* \"learn/StringUtil.sol\":246:1169  if (bytes(str1).length == 0){... */\n    tag_10:\n        /* \"learn/StringUtil.sol\":360:361  0 */\n      0x00\n        /* \"learn/StringUtil.sol\":344:348  str2 */\n      dup3\n        /* \"learn/StringUtil.sol\":338:356  bytes(str2).length */\n      mload\n        /* \"learn/StringUtil.sol\":338:361  bytes(str2).length == 0 */\n      sub\n        /* \"learn/StringUtil.sol\":334:1169  if (bytes(str2).length == 0){... */\n      tag_12\n      jumpi\n        /* \"learn/StringUtil.sol\":384:405  CompareResult.Invalid */\n      0x03\n        /* \"learn/StringUtil.sol\":377:405  return CompareResult.Invalid */\n      swap1\n      pop\n      jump(tag_9)\n        /* \"learn/StringUtil.sol\":334:1169  if (bytes(str2).length == 0){... */\n    tag_12:\n        /* \"learn/StringUtil.sol\":490:494  str2 */\n      dup2\n        /* \"learn/StringUtil.sol\":473:495  abi.encodePacked(str2) */\n      add(0x20, mload(0x40))\n      tag_14\n      swap2\n      swap1\n      tag_15\n      jump\t// in\n    tag_14:\n      mload(0x40)\n      0x20\n      dup2\n      dup4\n      sub\n      sub\n      dup2\n      mstore\n      swap1\n      0x40\n      mstore\n        /* \"learn/StringUtil.sol\":463:496  keccak256(abi.encodePacked(str2)) */\n      dup1\n      mload\n      swap1\n      0x20\n      add\n      keccak256\n        /* \"learn/StringUtil.sol\":453:457  str1 */\n      dup4\n        /* \"learn/StringUtil.sol\":436:458  abi.encodePacked(str1) */\n      add(0x20, mload(0x40))\n      tag_16\n      swap2\n      swap1\n      tag_15\n      jump\t// in\n    tag_16:\n      mload(0x40)\n      0x20\n      dup2\n      dup4\n      sub\n      sub\n      dup2\n      mstore\n      swap1\n      0x40\n      mstore\n        /* \"learn/StringUtil.sol\":426:459  keccak256(abi.encodePacked(str1)) */\n      dup1\n      mload\n      swap1\n      0x20\n      add\n      keccak256\n        /* \"learn/StringUtil.sol\":426:496  keccak256(abi.encodePacked(str1)) == keccak256(abi.encodePacked(str2)) */\n      sub\n        /* \"learn/StringUtil.sol\":422:1169  if (keccak256(abi.encodePacked(str1)) == keccak256(abi.encodePacked(str2))){... */\n      tag_17\n      jumpi\n        /* \"learn/StringUtil.sol\":519:538  CompareResult.Equal */\n      0x00\n        /* \"learn/StringUtil.sol\":512:538  return CompareResult.Equal */\n      swap1\n      pop\n      jump(tag_9)\n        /* \"learn/StringUtil.sol\":422:1169  if (keccak256(abi.encodePacked(str1)) == keccak256(abi.encodePacked(str2))){... */\n    tag_17:\n        /* \"learn/StringUtil.sol\":570:576  uint a */\n      0x00\n        /* \"learn/StringUtil.sol\":585:589  str1 */\n      dup4\n        /* \"learn/StringUtil.sol\":579:597  bytes(str1).length */\n      mload\n        /* \"learn/StringUtil.sol\":570:597  uint a = bytes(str1).length */\n      swap1\n      pop\n        /* \"learn/StringUtil.sol\":627:631  str2 */\n      dup3\n        /* \"learn/StringUtil.sol\":621:639  bytes(str2).length */\n      mload\n        /* \"learn/StringUtil.sol\":617:618  a */\n      dup2\n        /* \"learn/StringUtil.sol\":617:639  a > bytes(str2).length */\n      gt\n        /* \"learn/StringUtil.sol\":612:1158  if ( a > bytes(str2).length){... */\n      iszero\n      tag_19\n      jumpi\n        /* \"learn/StringUtil.sol\":666:687  CompareResult.Greater */\n      0x02\n        /* \"learn/StringUtil.sol\":659:687  return CompareResult.Greater */\n      swap2\n      pop\n      pop\n      jump(tag_9)\n        /* \"learn/StringUtil.sol\":612:1158  if ( a > bytes(str2).length){... */\n    tag_19:\n        /* \"learn/StringUtil.sol\":724:728  str2 */\n      dup3\n        /* \"learn/StringUtil.sol\":718:736  bytes(str2).length */\n      mload\n        /* \"learn/StringUtil.sol\":714:715  a */\n      dup2\n        /* \"learn/StringUtil.sol\":714:736  a < bytes(str2).length */\n      lt\n        /* \"learn/StringUtil.sol\":709:1158  if ( a < bytes(str2).length){... */\n      iszero\n      tag_21\n      jumpi\n        /* \"learn/StringUtil.sol\":763:781  CompareResult.Less */\n      0x01\n        /* \"learn/StringUtil.sol\":756:781  return CompareResult.Less */\n      swap2\n      pop\n      pop\n      jump(tag_9)\n        /* \"learn/StringUtil.sol\":709:1158  if ( a < bytes(str2).length){... */\n    tag_21:\n        /* \"learn/StringUtil.sol\":825:831  uint i */\n      0x00\n        /* \"learn/StringUtil.sol\":820:1143  for (uint i = 0; i <a ;i++ ){... */\n    tag_23:\n        /* \"learn/StringUtil.sol\":840:841  a */\n      dup2\n        /* \"learn/StringUtil.sol\":837:838  i */\n      dup2\n        /* \"learn/StringUtil.sol\":837:841  i <a */\n      lt\n        /* \"learn/StringUtil.sol\":820:1143  for (uint i = 0; i <a ;i++ ){... */\n      iszero\n      tag_24\n      jumpi\n        /* \"learn/StringUtil.sol\":899:903  str2 */\n      dup4\n        /* \"learn/StringUtil.sol\":905:906  i */\n      dup2\n        /* \"learn/StringUtil.sol\":893:907  bytes(str2)[i] */\n      dup2\n      mload\n      dup2\n      lt\n      tag_26\n      jumpi\n      tag_27\n      tag_28\n      jump\t// in\n    tag_27:\n    tag_26:\n      0x20\n      add\n      add\n      mload\n      0xf8\n      shr\n      0xf8\n      shl\n        /* \"learn/StringUtil.sol\":876:907  bytes(str1)[i] > bytes(str2)[i] */\n      not(0xffffffffffffffffffffffffffffffffffffffffffffffffffffffffffffff)\n      and\n        /* \"learn/StringUtil.sol\":882:886  str1 */\n      dup6\n        /* \"learn/StringUtil.sol\":888:889  i */\n      dup3\n        /* \"learn/StringUtil.sol\":876:890  bytes(str1)[i] */\n      dup2\n      mload\n      dup2\n      lt\n      tag_29\n      jumpi\n      tag_30\n      tag_28\n      jump\t// in\n    tag_30:\n    tag_29:\n      0x20\n      add\n      add\n      mload\n      0xf8\n      shr\n      0xf8\n      shl\n        /* \"learn/StringUtil.sol\":876:907  bytes(str1)[i] > bytes(str2)[i] */\n      not(0xffffffffffffffffffffffffffffffffffffffffffffffffffffffffffffff)\n      and\n      gt\n        /* \"learn/StringUtil.sol\":872:988  if (bytes(str1)[i] > bytes(str2)[i]){... */\n      iszero\n      tag_31\n      jumpi\n        /* \"learn/StringUtil.sol\":943:964  CompareResult.Greater */\n      0x02\n        /* \"learn/StringUtil.sol\":936:964  return CompareResult.Greater */\n      swap3\n      pop\n      pop\n      pop\n      jump(tag_9)\n        /* \"learn/StringUtil.sol\":872:988  if (bytes(str1)[i] > bytes(str2)[i]){... */\n    tag_31:\n        /* \"learn/StringUtil.sol\":1038:1042  str2 */\n      dup4\n        /* \"learn/StringUtil.sol\":1044:1045  i */\n      dup2\n        /* \"learn/StringUtil.sol\":1032:1046  bytes(str2)[i] */\n      dup2\n      mload\n      dup2\n      lt\n      tag_32\n      jumpi\n      tag_33\n      tag_28\n      jump\t// in\n    tag_33:\n    tag_32:\n      0x20\n      add\n      add\n      mload\n      0xf8\n      shr\n      0xf8\n      shl\n        /* \"learn/StringUtil.sol\":1015:1046  bytes(str1)[i] < bytes(str2)[i] */\n      not(0xffffffffffffffffffffffffffffffffffffffffffffffffffffffffffffff)\n      and\n        /* \"learn/StringUtil.sol\":1021:1025  str1 */\n      dup6\n        /* \"learn/StringUtil.sol\":1027:1028  i */\n      dup3\n        /* \"learn/StringUtil.sol\":1015:1029  bytes(str1)[i] */\n      dup2\n      mload\n      dup2\n      lt\n      tag_34\n      jumpi\n      tag_35\n      tag_28\n      jump\t// in\n    tag_35:\n    tag_34:\n      0x20\n      add\n      add\n      mload\n      0xf8\n      shr\n      0xf8\n      shl\n        /* \"learn/StringUtil.sol\":1015:1046  bytes(str1)[i] < bytes(str2)[i] */\n      not(0xffffffffffffffffffffffffffffffffffffffffffffffffffffffffffffff)\n      and\n      lt\n        /* \"learn/StringUtil.sol\":1011:1124  if (bytes(str1)[i] < bytes(str2)[i]){... */\n      iszero\n      tag_36\n      jumpi\n        /* \"learn/StringUtil.sol\":1082:1100  CompareResult.Less */\n      0x01\n        /* \"learn/StringUtil.sol\":1075:1100  return CompareResult.Less */\n      swap3\n      pop\n      pop\n      pop\n      jump(tag_9)\n        /* \"learn/StringUtil.sol\":1011:1124  if (bytes(str1)[i] < bytes(str2)[i]){... */\n    tag_36:\n        /* \"learn/StringUtil.sol\":843:846  i++ */\n      dup1\n      dup1\n      tag_37\n      swap1\n      tag_38\n      jump\t// in\n    tag_37:\n      swap2\n      pop\n      pop\n        /* \"learn/StringUtil.sol\":820:1143  for (uint i = 0; i <a ;i++ ){... */\n      jump(tag_23)\n    tag_24:\n      pop\n        /* \"learn/StringUtil.sol\":555:1169  {... */\n      pop\n        /* \"learn/StringUtil.sol\":144:1176  function compare(string memory str1, string memory str2) public pure returns(CompareResult){... */\n    tag_9:\n      swap3\n      swap2\n      pop\n      pop\n      jump\t// out\n        /* \"#utility.yul\":7:82   */\n    tag_39:\n        /* \"#utility.yul\":40:46   */\n      0x00\n        /* \"#utility.yul\":73:75   */\n      0x40\n        /* \"#utility.yul\":67:76   */\n      mload\n        /* \"#utility.yul\":57:76   */\n      swap1\n      pop\n        /* \"#utility.yul\":7:82   */\n      swap1\n      jump\t// out\n        /* \"#utility.yul\":88:205   */\n    tag_40:\n        /* \"#utility.yul\":197:198   */\n      0x00\n        /* \"#utility.yul\":194:195   */\n      dup1\n        /* \"#utility.yul\":187:199   */\n      revert\n        /* \"#utility.yul\":211:328   */\n    tag_41:\n        /* \"#utility.yul\":320:321   */\n      0x00\n        /* \"#utility.yul\":317:318   */\n      dup1\n        /* \"#utility.yul\":310:322   */\n      revert\n        /* \"#utility.yul\":334:451   */\n    tag_42:\n        /* \"#utility.yul\":443:444   */\n      0x00\n        /* \"#utility.yul\":440:441   */\n      dup1\n        /* \"#utility.yul\":433:445   */\n      revert\n        /* \"#utility.yul\":457:574   */\n    tag_43:\n        /* \"#utility.yul\":566:567   */\n      0x00\n        /* \"#utility.yul\":563:564   */\n      dup1\n        /* \"#utility.yul\":556:568   */\n      revert\n        /* \"#utility.yul\":580:682   */\n    tag_44:\n        /* \"#utility.yul\":621:627   */\n      0x00\n        /* \"#utility.yul\":672:674   */\n      0x1f\n        /* \"#utility.yul\":668:675   */\n      not\n        /* \"#utility.yul\":663:665   */\n      0x1f\n        /* \"#utility.yul\":656:661   */\n      dup4\n        /* \"#utility.yul\":652:666   */\n      add\n        /* \"#utility.yul\":648:676   */\n      and\n        /* \"#utility.yul\":638:676   */\n      swap1\n      pop\n        /* \"#utility.yul\":580:682   */\n      swap2\n      swap1\n      pop\n      jump\t// out\n        /* \"#utility.yul\":688:868   */\n    tag_45:\n        /* \"#utility.yul\":736:813   */\n      0x4e487b7100000000000000000000000000000000000000000000000000000000\n        /* \"#utility.yul\":733:734   */\n      0x00\n        /* \"#utility.yul\":726:814   */\n      mstore\n        /* \"#utility.yul\":833:837   */\n      0x41\n        /* \"#utility.yul\":830:831   */\n      0x04\n        /* \"#utility.yul\":823:838   */\n      mstore\n        /* \"#utility.yul\":857:861   */\n      0x24\n        /* \"#utility.yul\":854:855   */\n      0x00\n        /* \"#utility.yul\":847:862   */\n      revert\n        /* \"#utility.yul\":874:1155   */\n    tag_46:\n        /* \"#utility.yul\":957:984   */\n      tag_72\n        /* \"#utility.yul\":979:983   */\n      dup3\n        /* \"#utility.yul\":957:984   */\n      tag_44\n      jump\t// in\n    tag_72:\n        /* \"#utility.yul\":949:955   */\n      dup2\n        /* \"#utility.yul\":945:985   */\n      add\n        /* \"#utility.yul\":1087:1093   */\n      dup2\n        /* \"#utility.yul\":1075:1085   */\n      dup2\n        /* \"#utility.yul\":1072:1094   */\n      lt\n        /* \"#utility.yul\":1051:1069   */\n      0xffffffffffffffff\n        /* \"#utility.yul\":1039:1049   */\n      dup3\n        /* \"#utility.yul\":1036:1070   */\n      gt\n        /* \"#utility.yul\":1033:1095   */\n      or\n        /* \"#utility.yul\":1030:1118   */\n      iszero\n      tag_73\n      jumpi\n        /* \"#utility.yul\":1098:1116   */\n      tag_74\n      tag_45\n      jump\t// in\n    tag_74:\n        /* \"#utility.yul\":1030:1118   */\n    tag_73:\n        /* \"#utility.yul\":1138:1148   */\n      dup1\n        /* \"#utility.yul\":1134:1136   */\n      0x40\n        /* \"#utility.yul\":1127:1149   */\n      mstore\n        /* \"#utility.yul\":917:1155   */\n      pop\n        /* \"#utility.yul\":874:1155   */\n      pop\n      pop\n      jump\t// out\n        /* \"#utility.yul\":1161:1290   */\n    tag_47:\n        /* \"#utility.yul\":1195:1201   */\n      0x00\n        /* \"#utility.yul\":1222:1242   */\n      tag_76\n      tag_39\n      jump\t// in\n    tag_76:\n        /* \"#utility.yul\":1212:1242   */\n      swap1\n      pop\n        /* \"#utility.yul\":1251:1284   */\n      tag_77\n        /* \"#utility.yul\":1279:1283   */\n      dup3\n        /* \"#utility.yul\":1271:1277   */\n      dup3\n        /* \"#utility.yul\":1251:1284   */\n      tag_46\n      jump\t// in\n    tag_77:\n        /* \"#utility.yul\":1161:1290   */\n      swap2\n      swap1\n      pop\n      jump\t// out\n        /* \"#utility.yul\":1296:1604   */\n    tag_48:\n        /* \"#utility.yul\":1358:1362   */\n      0x00\n        /* \"#utility.yul\":1448:1466   */\n      0xffffffffffffffff\n        /* \"#utility.yul\":1440:1446   */\n      dup3\n        /* \"#utility.yul\":1437:1467   */\n      gt\n        /* \"#utility.yul\":1434:1490   */\n      iszero\n      tag_79\n      jumpi\n        /* \"#utility.yul\":1470:1488   */\n      tag_80\n      tag_45\n      jump\t// in\n    tag_80:\n        /* \"#utility.yul\":1434:1490   */\n    tag_79:\n        /* \"#utility.yul\":1508:1537   */\n      tag_81\n        /* \"#utility.yul\":1530:1536   */\n      dup3\n        /* \"#utility.yul\":1508:1537   */\n      tag_44\n      jump\t// in\n    tag_81:\n        /* \"#utility.yul\":1500:1537   */\n      swap1\n      pop\n        /* \"#utility.yul\":1592:1596   */\n      0x20\n        /* \"#utility.yul\":1586:1590   */\n      dup2\n        /* \"#utility.yul\":1582:1597   */\n      add\n        /* \"#utility.yul\":1574:1597   */\n      swap1\n      pop\n        /* \"#utility.yul\":1296:1604   */\n      swap2\n      swap1\n      pop\n      jump\t// out\n        /* \"#utility.yul\":1610:1756   */\n    tag_49:\n        /* \"#utility.yul\":1707:1713   */\n      dup3\n        /* \"#utility.yul\":1702:1705   */\n      dup2\n        /* \"#utility.yul\":1697:1700   */\n      dup4\n        /* \"#utility.yul\":1684:1714   */\n      calldatacopy\n        /* \"#utility.yul\":1748:1749   */\n      0x00\n        /* \"#utility.yul\":1739:1745   */\n      dup4\n        /* \"#utility.yul\":1734:1737   */\n      dup4\n        /* \"#utility.yul\":1730:1746   */\n      add\n        /* \"#utility.yul\":1723:1750   */\n      mstore\n        /* \"#utility.yul\":1610:1756   */\n      pop\n      pop\n      pop\n      jump\t// out\n        /* \"#utility.yul\":1762:2187   */\n    tag_50:\n        /* \"#utility.yul\":1840:1845   */\n      0x00\n        /* \"#utility.yul\":1865:1931   */\n      tag_84\n        /* \"#utility.yul\":1881:1930   */\n      tag_85\n        /* \"#utility.yul\":1923:1929   */\n      dup5\n        /* \"#utility.yul\":1881:1930   */\n      tag_48\n      jump\t// in\n    tag_85:\n        /* \"#utility.yul\":1865:1931   */\n      tag_47\n      jump\t// in\n    tag_84:\n        /* \"#utility.yul\":1856:1931   */\n      swap1\n      pop\n        /* \"#utility.yul\":1954:1960   */\n      dup3\n        /* \"#utility.yul\":1947:1952   */\n      dup2\n        /* \"#utility.yul\":1940:1961   */\n      mstore\n        /* \"#utility.yul\":1992:1996   */\n      0x20\n        /* \"#utility.yul\":1985:1990   */\n      dup2\n        /* \"#utility.yul\":1981:1997   */\n      add\n        /* \"#utility.yul\":2030:2033   */\n      dup5\n        /* \"#utility.yul\":2021:2027   */\n      dup5\n        /* \"#utility.yul\":2016:2019   */\n      dup5\n        /* \"#utility.yul\":2012:2028   */\n      add\n        /* \"#utility.yul\":2009:2034   */\n      gt\n        /* \"#utility.yul\":2006:2118   */\n      iszero\n      tag_86\n      jumpi\n        /* \"#utility.yul\":2037:2116   */\n      tag_87\n      tag_43\n      jump\t// in\n    tag_87:\n        /* \"#utility.yul\":2006:2118   */\n    tag_86:\n        /* \"#utility.yul\":2127:2181   */\n      tag_88\n        /* \"#utility.yul\":2174:2180   */\n      dup5\n        /* \"#utility.yul\":2169:2172   */\n      dup3\n        /* \"#utility.yul\":2164:2167   */\n      dup6\n        /* \"#utility.yul\":2127:2181   */\n      tag_49\n      jump\t// in\n    tag_88:\n        /* \"#utility.yul\":1846:2187   */\n      pop\n        /* \"#utility.yul\":1762:2187   */\n      swap4\n      swap3\n      pop\n      pop\n      pop\n      jump\t// out\n        /* \"#utility.yul\":2207:2547   */\n    tag_51:\n        /* \"#utility.yul\":2263:2268   */\n      0x00\n        /* \"#utility.yul\":2312:2315   */\n      dup3\n        /* \"#utility.yul\":2305:2309   */\n      0x1f\n        /* \"#utility.yul\":2297:2303   */\n      dup4\n        /* \"#utility.yul\":2293:2310   */\n      add\n        /* \"#utility.yul\":2289:2316   */\n      slt\n        /* \"#utility.yul\":2279:2401   */\n      tag_90\n      jumpi\n        /* \"#utility.yul\":2320:2399   */\n      tag_91\n      tag_42\n      jump\t// in\n    tag_91:\n        /* \"#utility.yul\":2279:2401   */\n    tag_90:\n        /* \"#utility.yul\":2437:2443   */\n      dup2\n        /* \"#utility.yul\":2424:2444   */\n      calldataload\n        /* \"#utility.yul\":2462:2541   */\n      tag_92\n        /* \"#utility.yul\":2537:2540   */\n      dup5\n        /* \"#utility.yul\":2529:2535   */\n      dup3\n        /* \"#utility.yul\":2522:2526   */\n      0x20\n        /* \"#utility.yul\":2514:2520   */\n      dup7\n        /* \"#utility.yul\":2510:2527   */\n      add\n        /* \"#utility.yul\":2462:2541   */\n      tag_50\n      jump\t// in\n    tag_92:\n        /* \"#utility.yul\":2453:2541   */\n      swap2\n      pop\n        /* \"#utility.yul\":2269:2547   */\n      pop\n        /* \"#utility.yul\":2207:2547   */\n      swap3\n      swap2\n      pop\n      pop\n      jump\t// out\n        /* \"#utility.yul\":2553:3387   */\n    tag_5:\n        /* \"#utility.yul\":2641:2647   */\n      0x00\n        /* \"#utility.yul\":2649:2655   */\n      dup1\n        /* \"#utility.yul\":2698:2700   */\n      0x40\n        /* \"#utility.yul\":2686:2695   */\n      dup4\n        /* \"#utility.yul\":2677:2684   */\n      dup6\n        /* \"#utility.yul\":2673:2696   */\n      sub\n        /* \"#utility.yul\":2669:2701   */\n      slt\n        /* \"#utility.yul\":2666:2785   */\n      iszero\n      tag_94\n      jumpi\n        /* \"#utility.yul\":2704:2783   */\n      tag_95\n      tag_40\n      jump\t// in\n    tag_95:\n        /* \"#utility.yul\":2666:2785   */\n    tag_94:\n        /* \"#utility.yul\":2852:2853   */\n      0x00\n        /* \"#utility.yul\":2841:2850   */\n      dup4\n        /* \"#utility.yul\":2837:2854   */\n      add\n        /* \"#utility.yul\":2824:2855   */\n      calldataload\n        /* \"#utility.yul\":2882:2900   */\n      0xffffffffffffffff\n        /* \"#utility.yul\":2874:2880   */\n      dup2\n        /* \"#utility.yul\":2871:2901   */\n      gt\n        /* \"#utility.yul\":2868:2985   */\n      iszero\n      tag_96\n      jumpi\n        /* \"#utility.yul\":2904:2983   */\n      tag_97\n      tag_41\n      jump\t// in\n    tag_97:\n        /* \"#utility.yul\":2868:2985   */\n    tag_96:\n        /* \"#utility.yul\":3009:3072   */\n      tag_98\n        /* \"#utility.yul\":3064:3071   */\n      dup6\n        /* \"#utility.yul\":3055:3061   */\n      dup3\n        /* \"#utility.yul\":3044:3053   */\n      dup7\n        /* \"#utility.yul\":3040:3062   */\n      add\n        /* \"#utility.yul\":3009:3072   */\n      tag_51\n      jump\t// in\n    tag_98:\n        /* \"#utility.yul\":2999:3072   */\n      swap3\n      pop\n        /* \"#utility.yul\":2795:3082   */\n      pop\n        /* \"#utility.yul\":3149:3151   */\n      0x20\n        /* \"#utility.yul\":3138:3147   */\n      dup4\n        /* \"#utility.yul\":3134:3152   */\n      add\n        /* \"#utility.yul\":3121:3153   */\n      calldataload\n        /* \"#utility.yul\":3180:3198   */\n      0xffffffffffffffff\n        /* \"#utility.yul\":3172:3178   */\n      dup2\n        /* \"#utility.yul\":3169:3199   */\n      gt\n        /* \"#utility.yul\":3166:3283   */\n      iszero\n      tag_99\n      jumpi\n        /* \"#utility.yul\":3202:3281   */\n      tag_100\n      tag_41\n      jump\t// in\n    tag_100:\n        /* \"#utility.yul\":3166:3283   */\n    tag_99:\n        /* \"#utility.yul\":3307:3370   */\n      tag_101\n        /* \"#utility.yul\":3362:3369   */\n      dup6\n        /* \"#utility.yul\":3353:3359   */\n      dup3\n        /* \"#utility.yul\":3342:3351   */\n      dup7\n        /* \"#utility.yul\":3338:3360   */\n      add\n        /* \"#utility.yul\":3307:3370   */\n      tag_51\n      jump\t// in\n    tag_101:\n        /* \"#utility.yul\":3297:3370   */\n      swap2\n      pop\n        /* \"#utility.yul\":3092:3380   */\n      pop\n        /* \"#utility.yul\":2553:3387   */\n      swap3\n      pop\n      swap3\n      swap1\n      pop\n      jump\t// out\n        /* \"#utility.yul\":3393:3573   */\n    tag_52:\n        /* \"#utility.yul\":3441:3518   */\n      0x4e487b7100000000000000000000000000000000000000000000000000000000\n        /* \"#utility.yul\":3438:3439   */\n      0x00\n        /* \"#utility.yul\":3431:3519   */\n      mstore\n        /* \"#utility.yul\":3538:3542   */\n      0x21\n        /* \"#utility.yul\":3535:3536   */\n      0x04\n        /* \"#utility.yul\":3528:3543   */\n      mstore\n        /* \"#utility.yul\":3562:3566   */\n      0x24\n        /* \"#utility.yul\":3559:3560   */\n      0x00\n        /* \"#utility.yul\":3552:3567   */\n      revert\n        /* \"#utility.yul\":3579:3700   */\n    tag_53:\n        /* \"#utility.yul\":3668:3669   */\n      0x04\n        /* \"#utility.yul\":3661:3666   */\n      dup2\n        /* \"#utility.yul\":3658:3670   */\n      lt\n        /* \"#utility.yul\":3648:3694   */\n      tag_104\n      jumpi\n        /* \"#utility.yul\":3674:3692   */\n      tag_105\n      tag_52\n      jump\t// in\n    tag_105:\n        /* \"#utility.yul\":3648:3694   */\n    tag_104:\n        /* \"#utility.yul\":3579:3700   */\n      pop\n      jump\t// out\n        /* \"#utility.yul\":3706:3849   */\n    tag_54:\n        /* \"#utility.yul\":3759:3766   */\n      0x00\n        /* \"#utility.yul\":3788:3793   */\n      dup2\n        /* \"#utility.yul\":3777:3793   */\n      swap1\n      pop\n        /* \"#utility.yul\":3794:3843   */\n      tag_107\n        /* \"#utility.yul\":3837:3842   */\n      dup3\n        /* \"#utility.yul\":3794:3843   */\n      tag_53\n      jump\t// in\n    tag_107:\n        /* \"#utility.yul\":3706:3849   */\n      swap2\n      swap1\n      pop\n      jump\t// out\n        /* \"#utility.yul\":3855:3998   */\n    tag_55:\n        /* \"#utility.yul\":3919:3928   */\n      0x00\n        /* \"#utility.yul\":3952:3992   */\n      tag_109\n        /* \"#utility.yul\":3986:3991   */\n      dup3\n        /* \"#utility.yul\":3952:3992   */\n      tag_54\n      jump\t// in\n    tag_109:\n        /* \"#utility.yul\":3939:3992   */\n      swap1\n      pop\n        /* \"#utility.yul\":3855:3998   */\n      swap2\n      swap1\n      pop\n      jump\t// out\n        /* \"#utility.yul\":4004:4171   */\n    tag_56:\n        /* \"#utility.yul\":4113:4164   */\n      tag_111\n        /* \"#utility.yul\":4158:4163   */\n      dup2\n        /* \"#utility.yul\":4113:4164   */\n      tag_55\n      jump\t// in\n    tag_111:\n        /* \"#utility.yul\":4108:4111   */\n      dup3\n        /* \"#utility.yul\":4101:4165   */\n      mstore\n        /* \"#utility.yul\":4004:4171   */\n      pop\n      pop\n      jump\t// out\n        /* \"#utility.yul\":4177:4443   */\n    tag_8:\n        /* \"#utility.yul\":4292:4296   */\n      0x00\n        /* \"#utility.yul\":4330:4332   */\n      0x20\n        /* \"#utility.yul\":4319:4328   */\n      dup3\n        /* \"#utility.yul\":4315:4333   */\n      add\n        /* \"#utility.yul\":4307:4333   */\n      swap1\n      pop\n        /* \"#utility.yul\":4343:4436   */\n      tag_113\n        /* \"#utility.yul\":4433:4434   */\n      0x00\n        /* \"#utility.yul\":4422:4431   */\n      dup4\n        /* \"#utility.yul\":4418:4435   */\n      add\n        /* \"#utility.yul\":4409:4415   */\n      dup5\n        /* \"#utility.yul\":4343:4436   */\n      tag_56\n      jump\t// in\n    tag_113:\n        /* \"#utility.yul\":4177:4443   */\n      swap3\n      swap2\n      pop\n      pop\n      jump\t// out\n        /* \"#utility.yul\":4449:4548   */\n    tag_57:\n        /* \"#utility.yul\":4501:4507   */\n      0x00\n        /* \"#utility.yul\":4535:4540   */\n      dup2\n        /* \"#utility.yul\":4529:4541   */\n      mload\n        /* \"#utility.yul\":4519:4541   */\n      swap1\n      pop\n        /* \"#utility.yul\":4449:4548   */\n      swap2\n      swap1\n      pop\n      jump\t// out\n        /* \"#utility.yul\":4554:4702   */\n    tag_58:\n        /* \"#utility.yul\":4656:4667   */\n      0x00\n        /* \"#utility.yul\":4693:4696   */\n      dup2\n        /* \"#utility.yul\":4678:4696   */\n      swap1\n      pop\n        /* \"#utility.yul\":4554:4702   */\n      swap3\n      swap2\n      pop\n      pop\n      jump\t// out\n        /* \"#utility.yul\":4708:4954   */\n    tag_59:\n        /* \"#utility.yul\":4789:4790   */\n      0x00\n        /* \"#utility.yul\":4799:4912   */\n    tag_117:\n        /* \"#utility.yul\":4813:4819   */\n      dup4\n        /* \"#utility.yul\":4810:4811   */\n      dup2\n        /* \"#utility.yul\":4807:4820   */\n      lt\n        /* \"#utility.yul\":4799:4912   */\n      iszero\n      tag_119\n      jumpi\n        /* \"#utility.yul\":4898:4899   */\n      dup1\n        /* \"#utility.yul\":4893:4896   */\n      dup3\n        /* \"#utility.yul\":4889:4900   */\n      add\n        /* \"#utility.yul\":4883:4901   */\n      mload\n        /* \"#utility.yul\":4879:4880   */\n      dup2\n        /* \"#utility.yul\":4874:4877   */\n      dup5\n        /* \"#utility.yul\":4870:4881   */\n      add\n        /* \"#utility.yul\":4863:4902   */\n      mstore\n        /* \"#utility.yul\":4835:4837   */\n      0x20\n        /* \"#utility.yul\":4832:4833   */\n      dup2\n        /* \"#utility.yul\":4828:4838   */\n      add\n        /* \"#utility.yul\":4823:4838   */\n      swap1\n      pop\n        /* \"#utility.yul\":4799:4912   */\n      jump(tag_117)\n    tag_119:\n        /* \"#utility.yul\":4946:4947   */\n      0x00\n        /* \"#utility.yul\":4937:4943   */\n      dup5\n        /* \"#utility.yul\":4932:4935   */\n      dup5\n        /* \"#utility.yul\":4928:4944   */\n      add\n        /* \"#utility.yul\":4921:4948   */\n      mstore\n        /* \"#utility.yul\":4770:4954   */\n      pop\n        /* \"#utility.yul\":4708:4954   */\n      pop\n      pop\n      pop\n      jump\t// out\n        /* \"#utility.yul\":4960:5350   */\n    tag_60:\n        /* \"#utility.yul\":5066:5069   */\n      0x00\n        /* \"#utility.yul\":5094:5133   */\n      tag_121\n        /* \"#utility.yul\":5127:5132   */\n      dup3\n        /* \"#utility.yul\":5094:5133   */\n      tag_57\n      jump\t// in\n    tag_121:\n        /* \"#utility.yul\":5149:5238   */\n      tag_122\n        /* \"#utility.yul\":5231:5237   */\n      dup2\n        /* \"#utility.yul\":5226:5229   */\n      dup6\n        /* \"#utility.yul\":5149:5238   */\n      tag_58\n      jump\t// in\n    tag_122:\n        /* \"#utility.yul\":5142:5238   */\n      swap4\n      pop\n        /* \"#utility.yul\":5247:5312   */\n      tag_123\n        /* \"#utility.yul\":5305:5311   */\n      dup2\n        /* \"#utility.yul\":5300:5303   */\n      dup6\n        /* \"#utility.yul\":5293:5297   */\n      0x20\n        /* \"#utility.yul\":5286:5291   */\n      dup7\n        /* \"#utility.yul\":5282:5298   */\n      add\n        /* \"#utility.yul\":5247:5312   */\n      tag_59\n      jump\t// in\n    tag_123:\n        /* \"#utility.yul\":5337:5343   */\n      dup1\n        /* \"#utility.yul\":5332:5335   */\n      dup5\n        /* \"#utility.yul\":5328:5344   */\n      add\n        /* \"#utility.yul\":5321:5344   */\n      swap2\n      pop\n        /* \"#utility.yul\":5070:5350   */\n      pop\n        /* \"#utility.yul\":4960:5350   */\n      swap3\n      swap2\n      pop\n      pop\n      jump\t// out\n        /* \"#utility.yul\":5356:5631   */\n    tag_15:\n        /* \"#utility.yul\":5488:5491   */\n      0x00\n        /* \"#utility.yul\":5510:5605   */\n      tag_125\n        /* \"#utility.yul\":5601:5604   */\n      dup3\n        /* \"#utility.yul\":5592:5598   */\n      dup5\n        /* \"#utility.yul\":5510:5605   */\n      tag_60\n      jump\t// in\n    tag_125:\n        /* \"#utility.yul\":5503:5605   */\n      swap2\n      pop\n        /* \"#utility.yul\":5622:5625   */\n      dup2\n        /* \"#utility.yul\":5615:5625   */\n      swap1\n      pop\n        /* \"#utility.yul\":5356:5631   */\n      swap3\n      swap2\n      pop\n      pop\n      jump\t// out\n        /* \"#utility.yul\":5637:5817   */\n    tag_28:\n        /* \"#utility.yul\":5685:5762   */\n      0x4e487b7100000000000000000000000000000000000000000000000000000000\n        /* \"#utility.yul\":5682:5683   */\n      0x00\n        /* \"#utility.yul\":5675:5763   */\n      mstore\n        /* \"#utility.yul\":5782:5786   */\n      0x32\n        /* \"#utility.yul\":5779:5780   */\n      0x04\n        /* \"#utility.yul\":5772:5787   */\n      mstore\n        /* \"#utility.yul\":5806:5810   */\n      0x24\n        /* \"#utility.yul\":5803:5804   */\n      0x00\n        /* \"#utility.yul\":5796:5811   */\n      revert\n        /* \"#utility.yul\":5823:6003   */\n    tag_61:\n        /* \"#utility.yul\":5871:5948   */\n      0x4e487b7100000000000000000000000000000000000000000000000000000000\n        /* \"#utility.yul\":5868:5869   */\n      0x00\n        /* \"#utility.yul\":5861:5949   */\n      mstore\n        /* \"#utility.yul\":5968:5972   */\n      0x11\n        /* \"#utility.yul\":5965:5966   */\n      0x04\n        /* \"#utility.yul\":5958:5973   */\n      mstore\n        /* \"#utility.yul\":5992:5996   */\n      0x24\n        /* \"#utility.yul\":5989:5990   */\n      0x00\n        /* \"#utility.yul\":5982:5997   */\n      revert\n        /* \"#utility.yul\":6009:6086   */\n    tag_62:\n        /* \"#utility.yul\":6046:6053   */\n      0x00\n        /* \"#utility.yul\":6075:6080   */\n      dup2\n        /* \"#utility.yul\":6064:6080   */\n      swap1\n      pop\n        /* \"#utility.yul\":6009:6086   */\n      swap2\n      swap1\n      pop\n      jump\t// out\n        /* \"#utility.yul\":6092:6325   */\n    tag_38:\n        /* \"#utility.yul\":6131:6134   */\n      0x00\n        /* \"#utility.yul\":6154:6178   */\n      tag_130\n        /* \"#utility.yul\":6172:6177   */\n      dup3\n        /* \"#utility.yul\":6154:6178   */\n      tag_62\n      jump\t// in\n    tag_130:\n        /* \"#utility.yul\":6145:6178   */\n      swap2\n      pop\n        /* \"#utility.yul\":6200:6266   */\n      0xffffffffffffffffffffffffffffffffffffffffffffffffffffffffffffffff\n        /* \"#utility.yul\":6193:6198   */\n      dup3\n        /* \"#utility.yul\":6190:6267   */\n      sub\n        /* \"#utility.yul\":6187:6290   */\n      tag_131\n      jumpi\n        /* \"#utility.yul\":6270:6288   */\n      tag_132\n      tag_61\n      jump\t// in\n    tag_132:\n        /* \"#utility.yul\":6187:6290   */\n    tag_131:\n        /* \"#utility.yul\":6317:6318   */\n      0x01\n        /* \"#utility.yul\":6310:6315   */\n      dup3\n        /* \"#utility.yul\":6306:6319   */\n      add\n        /* \"#utility.yul\":6299:6319   */\n      swap1\n      pop\n        /* \"#utility.yul\":6092:6325   */\n      swap2\n      swap1\n      pop\n      jump\t// out\n\n    auxdata: 0xa2646970667358221220f7921c5f767d8ed9bd1298a55fe14052c77ef41c8dd2a6045ec79e509d2a276564736f6c63430008100033\n}\n",
				"bytecode": {
					"linkReferences": {},
					"object": "610632610053600b82828239805160001a607314610046577f4e487b7100000000000000000000000000000000000000000000000000000000600052600060045260246000fd5b30600052607381538281f3fe73000000000000000000000000000000000000000030146080604052600436106100355760003560e01c80633a96fdd71461003a575b600080fd5b610054600480360381019061004f91906103ba565b61006a565b60405161006191906104a9565b60405180910390f35b60008083510361007d576003905061025a565b600082510361008f576003905061025a565b816040516020016100a09190610535565b60405160208183030381529060405280519060200120836040516020016100c79190610535565b60405160208183030381529060405280519060200120036100eb576000905061025a565b600083519050825181111561010457600291505061025a565b825181101561011757600191505061025a565b60005b81811015610257578381815181106101355761013461054c565b5b602001015160f81c60f81b7effffffffffffffffffffffffffffffffffffffffffffffffffffffffffffff19168582815181106101755761017461054c565b5b602001015160f81c60f81b7effffffffffffffffffffffffffffffffffffffffffffffffffffffffffffff191611156101b35760029250505061025a565b8381815181106101c6576101c561054c565b5b602001015160f81c60f81b7effffffffffffffffffffffffffffffffffffffffffffffffffffffffffffff19168582815181106102065761020561054c565b5b602001015160f81c60f81b7effffffffffffffffffffffffffffffffffffffffffffffffffffffffffffff191610156102445760019250505061025a565b808061024f906105b4565b91505061011a565b50505b92915050565b6000604051905090565b600080fd5b600080fd5b600080fd5b600080fd5b6000601f19601f8301169050919050565b7f4e487b7100000000000000000000000000000000000000000000000000000000600052604160045260246000fd5b6102c78261027e565b810181811067ffffffffffffffff821117156102e6576102e561028f565b5b80604052505050565b60006102f9610260565b905061030582826102be565b919050565b600067ffffffffffffffff8211156103255761032461028f565b5b61032e8261027e565b9050602081019050919050565b82818337600083830152505050565b600061035d6103588461030a565b6102ef565b90508281526020810184848401111561037957610378610279565b5b61038484828561033b565b509392505050565b600082601f8301126103a1576103a0610274565b5b81356103b184826020860161034a565b91505092915050565b600080604083850312156103d1576103d061026a565b5b600083013567ffffffffffffffff8111156103ef576103ee61026f565b5b6103fb8582860161038c565b925050602083013567ffffffffffffffff81111561041c5761041b61026f565b5b6104288582860161038c565b9150509250929050565b7f4e487b7100000000000000000000000000000000000000000000000000000000600052602160045260246000fd5b6004811061047257610471610432565b5b50565b600081905061048382610461565b919050565b600061049382610475565b9050919050565b6104a381610488565b82525050565b60006020820190506104be600083018461049a565b92915050565b600081519050919050565b600081905092915050565b60005b838110156104f85780820151818401526020810190506104dd565b60008484015250505050565b600061050f826104c4565b61051981856104cf565b93506105298185602086016104da565b80840191505092915050565b60006105418284610504565b915081905092915050565b7f4e487b7100000000000000000000000000000000000000000000000000000000600052603260045260246000fd5b7f4e487b7100000000000000000000000000000000000000000000000000000000600052601160045260246000fd5b6000819050919050565b60006105bf826105aa565b91507fffffffffffffffffffffffffffffffffffffffffffffffffffffffffffffffff82036105f1576105f061057b565b5b60018201905091905056fea2646970667358221220f7921c5f767d8ed9bd1298a55fe14052c77ef41c8dd2a6045ec79e509d2a276564736f6c63430008100033",
					"opcodes": "PUSH2 0x632 PUSH2 0x53 PUSH1 0xB DUP3 DUP3 DUP3 CODECOPY DUP1 MLOAD PUSH1 0x0 BYTE PUSH1 0x73 EQ PUSH2 0x46 JUMPI PUSH32 0x4E487B7100000000000000000000000000000000000000000000000000000000 PUSH1 0x0 MSTORE PUSH1 0x0 PUSH1 0x4 MSTORE PUSH1 0x24 PUSH1 0x0 REVERT JUMPDEST ADDRESS PUSH1 0x0 MSTORE PUSH1 0x73 DUP2 MSTORE8 DUP3 DUP2 RETURN INVALID PUSH20 0x0 ADDRESS EQ PUSH1 0x80 PUSH1 0x40 MSTORE PUSH1 0x4 CALLDATASIZE LT PUSH2 0x35 JUMPI PUSH1 0x0 CALLDATALOAD PUSH1 0xE0 SHR DUP1 PUSH4 0x3A96FDD7 EQ PUSH2 0x3A JUMPI JUMPDEST PUSH1 0x0 DUP1 REVERT JUMPDEST PUSH2 0x54 PUSH1 0x4 DUP1 CALLDATASIZE SUB DUP2 ADD SWAP1 PUSH2 0x4F SWAP2 SWAP1 PUSH2 0x3BA JUMP JUMPDEST PUSH2 0x6A JUMP JUMPDEST PUSH1 0x40 MLOAD PUSH2 0x61 SWAP2 SWAP1 PUSH2 0x4A9 JUMP JUMPDEST PUSH1 0x40 MLOAD DUP1 SWAP2 SUB SWAP1 RETURN JUMPDEST PUSH1 0x0 DUP1 DUP4 MLOAD SUB PUSH2 0x7D JUMPI PUSH1 0x3 SWAP1 POP PUSH2 0x25A JUMP JUMPDEST PUSH1 0x0 DUP3 MLOAD SUB PUSH2 0x8F JUMPI PUSH1 0x3 SWAP1 POP PUSH2 0x25A JUMP JUMPDEST DUP2 PUSH1 0x40 MLOAD PUSH1 0x20 ADD PUSH2 0xA0 SWAP2 SWAP1 PUSH2 0x535 JUMP JUMPDEST PUSH1 0x40 MLOAD PUSH1 0x20 DUP2 DUP4 SUB SUB DUP2 MSTORE SWAP1 PUSH1 0x40 MSTORE DUP1 MLOAD SWAP1 PUSH1 0x20 ADD KECCAK256 DUP4 PUSH1 0x40 MLOAD PUSH1 0x20 ADD PUSH2 0xC7 SWAP2 SWAP1 PUSH2 0x535 JUMP JUMPDEST PUSH1 0x40 MLOAD PUSH1 0x20 DUP2 DUP4 SUB SUB DUP2 MSTORE SWAP1 PUSH1 0x40 MSTORE DUP1 MLOAD SWAP1 PUSH1 0x20 ADD KECCAK256 SUB PUSH2 0xEB JUMPI PUSH1 0x0 SWAP1 POP PUSH2 0x25A JUMP JUMPDEST PUSH1 0x0 DUP4 MLOAD SWAP1 POP DUP3 MLOAD DUP2 GT ISZERO PUSH2 0x104 JUMPI PUSH1 0x2 SWAP2 POP POP PUSH2 0x25A JUMP JUMPDEST DUP3 MLOAD DUP2 LT ISZERO PUSH2 0x117 JUMPI PUSH1 0x1 SWAP2 POP POP PUSH2 0x25A JUMP JUMPDEST PUSH1 0x0 JUMPDEST DUP2 DUP2 LT ISZERO PUSH2 0x257 JUMPI DUP4 DUP2 DUP2 MLOAD DUP2 LT PUSH2 0x135 JUMPI PUSH2 0x134 PUSH2 0x54C JUMP JUMPDEST JUMPDEST PUSH1 0x20 ADD ADD MLOAD PUSH1 0xF8 SHR PUSH1 0xF8 SHL PUSH31 0xFFFFFFFFFFFFFFFFFFFFFFFFFFFFFFFFFFFFFFFFFFFFFFFFFFFFFFFFFFFFFF NOT AND DUP6 DUP3 DUP2 MLOAD DUP2 LT PUSH2 0x175 JUMPI PUSH2 0x174 PUSH2 0x54C JUMP JUMPDEST JUMPDEST PUSH1 0x20 ADD ADD MLOAD PUSH1 0xF8 SHR PUSH1 0xF8 SHL PUSH31 0xFFFFFFFFFFFFFFFFFFFFFFFFFFFFFFFFFFFFFFFFFFFFFFFFFFFFFFFFFFFFFF NOT AND GT ISZERO PUSH2 0x1B3 JUMPI PUSH1 0x2 SWAP3 POP POP POP PUSH2 0x25A JUMP JUMPDEST DUP4 DUP2 DUP2 MLOAD DUP2 LT PUSH2 0x1C6 JUMPI PUSH2 0x1C5 PUSH2 0x54C JUMP JUMPDEST JUMPDEST PUSH1 0x20 ADD ADD MLOAD PUSH1 0xF8 SHR PUSH1 0xF8 SHL PUSH31 0xFFFFFFFFFFFFFFFFFFFFFFFFFFFFFFFFFFFFFFFFFFFFFFFFFFFFFFFFFFFFFF NOT AND DUP6 DUP3 DUP2 MLOAD DUP2 LT PUSH2 0x206 JUMPI PUSH2 0x205 PUSH2 0x54C JUMP JUMPDEST JUMPDEST PUSH1 0x20 ADD ADD MLOAD PUSH1 0xF8 SHR PUSH1 0xF8 SHL PUSH31 0xFFFFFFFFFFFFFFFFFFFFFFFFFFFFFFFFFFFFFFFFFFFFFFFFFFFFFFFFFFFFFF NOT AND LT ISZERO PUSH2 0x244 JUMPI PUSH1 0x1 SWAP3 POP POP POP PUSH2 0x25A JUMP JUMPDEST DUP1 DUP1 PUSH2 0x24F SWAP1 PUSH2 0x5B4 JUMP JUMPDEST SWAP2 POP POP PUSH2 0x11A JUMP JUMPDEST POP POP JUMPDEST SWAP3 SWAP2 POP POP JUMP JUMPDEST PUSH1 0x0 PUSH1 0x40 MLOAD SWAP1 POP SWAP1 JUMP JUMPDEST PUSH1 0x0 DUP1 REVERT JUMPDEST PUSH1 0x0 DUP1 REVERT JUMPDEST PUSH1 0x0 DUP1 REVERT JUMPDEST PUSH1 0x0 DUP1 REVERT JUMPDEST PUSH1 0x0 PUSH1 0x1F NOT PUSH1 0x1F DUP4 ADD AND SWAP1 POP SWAP2 SWAP1 POP JUMP JUMPDEST PUSH32 0x4E487B7100000000000000000000000000000000000000000000000000000000 PUSH1 0x0 MSTORE PUSH1 0x41 PUSH1 0x4 MSTORE PUSH1 0x24 PUSH1 0x0 REVERT JUMPDEST PUSH2 0x2C7 DUP3 PUSH2 0x27E JUMP JUMPDEST DUP2 ADD DUP2 DUP2 LT PUSH8 0xFFFFFFFFFFFFFFFF DUP3 GT OR ISZERO PUSH2 0x2E6 JUMPI PUSH2 0x2E5 PUSH2 0x28F JUMP JUMPDEST JUMPDEST DUP1 PUSH1 0x40 MSTORE POP POP POP JUMP JUMPDEST PUSH1 0x0 PUSH2 0x2F9 PUSH2 0x260 JUMP JUMPDEST SWAP1 POP PUSH2 0x305 DUP3 DUP3 PUSH2 0x2BE JUMP JUMPDEST SWAP2 SWAP1 POP JUMP JUMPDEST PUSH1 0x0 PUSH8 0xFFFFFFFFFFFFFFFF DUP3 GT ISZERO PUSH2 0x325 JUMPI PUSH2 0x324 PUSH2 0x28F JUMP JUMPDEST JUMPDEST PUSH2 0x32E DUP3 PUSH2 0x27E JUMP JUMPDEST SWAP1 POP PUSH1 0x20 DUP2 ADD SWAP1 POP SWAP2 SWAP1 POP JUMP JUMPDEST DUP3 DUP2 DUP4 CALLDATACOPY PUSH1 0x0 DUP4 DUP4 ADD MSTORE POP POP POP JUMP JUMPDEST PUSH1 0x0 PUSH2 0x35D PUSH2 0x358 DUP5 PUSH2 0x30A JUMP JUMPDEST PUSH2 0x2EF JUMP JUMPDEST SWAP1 POP DUP3 DUP2 MSTORE PUSH1 0x20 DUP2 ADD DUP5 DUP5 DUP5 ADD GT ISZERO PUSH2 0x379 JUMPI PUSH2 0x378 PUSH2 0x279 JUMP JUMPDEST JUMPDEST PUSH2 0x384 DUP5 DUP3 DUP6 PUSH2 0x33B JUMP JUMPDEST POP SWAP4 SWAP3 POP POP POP JUMP JUMPDEST PUSH1 0x0 DUP3 PUSH1 0x1F DUP4 ADD SLT PUSH2 0x3A1 JUMPI PUSH2 0x3A0 PUSH2 0x274 JUMP JUMPDEST JUMPDEST DUP2 CALLDATALOAD PUSH2 0x3B1 DUP5 DUP3 PUSH1 0x20 DUP7 ADD PUSH2 0x34A JUMP JUMPDEST SWAP2 POP POP SWAP3 SWAP2 POP POP JUMP JUMPDEST PUSH1 0x0 DUP1 PUSH1 0x40 DUP4 DUP6 SUB SLT ISZERO PUSH2 0x3D1 JUMPI PUSH2 0x3D0 PUSH2 0x26A JUMP JUMPDEST JUMPDEST PUSH1 0x0 DUP4 ADD CALLDATALOAD PUSH8 0xFFFFFFFFFFFFFFFF DUP2 GT ISZERO PUSH2 0x3EF JUMPI PUSH2 0x3EE PUSH2 0x26F JUMP JUMPDEST JUMPDEST PUSH2 0x3FB DUP6 DUP3 DUP7 ADD PUSH2 0x38C JUMP JUMPDEST SWAP3 POP POP PUSH1 0x20 DUP4 ADD CALLDATALOAD PUSH8 0xFFFFFFFFFFFFFFFF DUP2 GT ISZERO PUSH2 0x41C JUMPI PUSH2 0x41B PUSH2 0x26F JUMP JUMPDEST JUMPDEST PUSH2 0x428 DUP6 DUP3 DUP7 ADD PUSH2 0x38C JUMP JUMPDEST SWAP2 POP POP SWAP3 POP SWAP3 SWAP1 POP JUMP JUMPDEST PUSH32 0x4E487B7100000000000000000000000000000000000000000000000000000000 PUSH1 0x0 MSTORE PUSH1 0x21 PUSH1 0x4 MSTORE PUSH1 0x24 PUSH1 0x0 REVERT JUMPDEST PUSH1 0x4 DUP2 LT PUSH2 0x472 JUMPI PUSH2 0x471 PUSH2 0x432 JUMP JUMPDEST JUMPDEST POP JUMP JUMPDEST PUSH1 0x0 DUP2 SWAP1 POP PUSH2 0x483 DUP3 PUSH2 0x461 JUMP JUMPDEST SWAP2 SWAP1 POP JUMP JUMPDEST PUSH1 0x0 PUSH2 0x493 DUP3 PUSH2 0x475 JUMP JUMPDEST SWAP1 POP SWAP2 SWAP1 POP JUMP JUMPDEST PUSH2 0x4A3 DUP2 PUSH2 0x488 JUMP JUMPDEST DUP3 MSTORE POP POP JUMP JUMPDEST PUSH1 0x0 PUSH1 0x20 DUP3 ADD SWAP1 POP PUSH2 0x4BE PUSH1 0x0 DUP4 ADD DUP5 PUSH2 0x49A JUMP JUMPDEST SWAP3 SWAP2 POP POP JUMP JUMPDEST PUSH1 0x0 DUP2 MLOAD SWAP1 POP SWAP2 SWAP1 POP JUMP JUMPDEST PUSH1 0x0 DUP2 SWAP1 POP SWAP3 SWAP2 POP POP JUMP JUMPDEST PUSH1 0x0 JUMPDEST DUP4 DUP2 LT ISZERO PUSH2 0x4F8 JUMPI DUP1 DUP3 ADD MLOAD DUP2 DUP5 ADD MSTORE PUSH1 0x20 DUP2 ADD SWAP1 POP PUSH2 0x4DD JUMP JUMPDEST PUSH1 0x0 DUP5 DUP5 ADD MSTORE POP POP POP POP JUMP JUMPDEST PUSH1 0x0 PUSH2 0x50F DUP3 PUSH2 0x4C4 JUMP JUMPDEST PUSH2 0x519 DUP2 DUP6 PUSH2 0x4CF JUMP JUMPDEST SWAP4 POP PUSH2 0x529 DUP2 DUP6 PUSH1 0x20 DUP7 ADD PUSH2 0x4DA JUMP JUMPDEST DUP1 DUP5 ADD SWAP2 POP POP SWAP3 SWAP2 POP POP JUMP JUMPDEST PUSH1 0x0 PUSH2 0x541 DUP3 DUP5 PUSH2 0x504 JUMP JUMPDEST SWAP2 POP DUP2 SWAP1 POP SWAP3 SWAP2 POP POP JUMP JUMPDEST PUSH32 0x4E487B7100000000000000000000000000000000000000000000000000000000 PUSH1 0x0 MSTORE PUSH1 0x32 PUSH1 0x4 MSTORE PUSH1 0x24 PUSH1 0x0 REVERT JUMPDEST PUSH32 0x4E487B7100000000000000000000000000000000000000000000000000000000 PUSH1 0x0 MSTORE PUSH1 0x11 PUSH1 0x4 MSTORE PUSH1 0x24 PUSH1 0x0 REVERT JUMPDEST PUSH1 0x0 DUP2 SWAP1 POP SWAP2 SWAP1 POP JUMP JUMPDEST PUSH1 0x0 PUSH2 0x5BF DUP3 PUSH2 0x5AA JUMP JUMPDEST SWAP2 POP PUSH32 0xFFFFFFFFFFFFFFFFFFFFFFFFFFFFFFFFFFFFFFFFFFFFFFFFFFFFFFFFFFFFFFFF DUP3 SUB PUSH2 0x5F1 JUMPI PUSH2 0x5F0 PUSH2 0x57B JUMP JUMPDEST JUMPDEST PUSH1 0x1 DUP3 ADD SWAP1 POP SWAP2 SWAP1 POP JUMP INVALID LOG2 PUSH5 0x6970667358 0x22 SLT KECCAK256 0xF7 SWAP3 SHR 0x5F PUSH23 0x7D8ED9BD1298A55FE14052C77EF41C8DD2A6045EC79E50 SWAP14 0x2A 0x27 PUSH6 0x64736F6C6343 STOP ADDMOD LT STOP CALLER "
				},
				"gasEstimates": {
					"creation": {
						"codeDepositCost": "317200",
						"executionCost": "380",
						"totalCost": "317580"
					},
					"external": {
						"compare(string,string)": "infinite"
					}
				},
				"methodIdentifiers": {
					"compare(string,string)": "3a96fdd7"
				}
			},
			"storageLayout": {
				"storage": [],
				"types": null
			},
			"userdoc": {
				"kind": "user",
				"methods": {},
				"version": 1
			}
		}
	}
}