{
	"learn/HelloWorld.sol": {
		"HelloMyWorld": {
			"abi": [
				{
					"inputs": [],
					"name": "myFirstHelloWorld",
					"outputs": [
						{
							"internalType": "string",
							"name": "",
							"type": "string"
						}
					],
					"stateMutability": "pure",
					"type": "function"
				}
			],
			"devdoc": {
				"kind": "dev",
				"methods": {},
				"version": 1
			},
			"evm": {
				"assembly": "    /* \"learn/HelloWorld.sol\":253:847  contract HelloMyWorld is HelloWorld{... */\n  mstore(0x40, 0x80)\n  callvalue\n  dup1\n  iszero\n  tag_1\n  jumpi\n  0x00\n  dup1\n  revert\ntag_1:\n  pop\n  dataSize(sub_0)\n  dup1\n  dataOffset(sub_0)\n  0x00\n  codecopy\n  0x00\n  return\nstop\n\nsub_0: assembly {\n        /* \"learn/HelloWorld.sol\":253:847  contract HelloMyWorld is HelloWorld{... */\n      mstore(0x40, 0x80)\n      callvalue\n      dup1\n      iszero\n      tag_1\n      jumpi\n      0x00\n      dup1\n      revert\n    tag_1:\n      pop\n      jumpi(tag_2, lt(calldatasize, 0x04))\n      shr(0xe0, calldataload(0x00))\n      dup1\n      0xa00d7b27\n      eq\n      tag_3\n      jumpi\n    tag_2:\n      0x00\n      dup1\n      revert\n        /* \"learn/HelloWorld.sol\":295:844  function myFirstHelloWorld() virtual public pure override returns(string memory){... */\n    tag_3:\n      tag_4\n      tag_5\n      jump\t// in\n    tag_4:\n      mload(0x40)\n      tag_6\n      swap2\n      swap1\n      tag_7\n      jump\t// in\n    tag_6:\n      mload(0x40)\n      dup1\n      swap2\n      sub\n      swap1\n      return\n    tag_5:\n        /* \"learn/HelloWorld.sol\":361:374  string memory */\n      0x60\n        /* \"learn/HelloWorld.sol\":386:404  string memory str1 */\n      0x00\n        /* \"learn/HelloWorld.sol\":407:432  super.myFirstHelloWorld() */\n      tag_9\n        /* \"learn/HelloWorld.sol\":407:430  super.myFirstHelloWorld */\n      tag_10\n        /* \"learn/HelloWorld.sol\":407:432  super.myFirstHelloWorld() */\n      jump\t// in\n    tag_9:\n        /* \"learn/HelloWorld.sol\":386:432  string memory str1 = super.myFirstHelloWorld() */\n      swap1\n      pop\n        /* \"learn/HelloWorld.sol\":443:461  string memory str2 */\n      0x00\n        /* \"learn/HelloWorld.sol\":443:500  string memory str2 = \"Hello World! My name is Zhang San.\" */\n      mload(0x40)\n      dup1\n      0x60\n      add\n      0x40\n      mstore\n      dup1\n      0x22\n      dup2\n      mstore\n      0x20\n      add\n      data_68aadad336316371a2fc17ebf3ac925bdee82bb94548dd870844108bd0bd1114\n      0x22\n      swap2\n      codecopy\n      swap1\n      pop\n        /* \"learn/HelloWorld.sol\":511:529  string memory str3 */\n      0x00\n        /* \"learn/HelloWorld.sol\":511:558  string memory str3 = \" My class number is 201.\" */\n      mload(0x40)\n      dup1\n      0x40\n      add\n      0x40\n      mstore\n      dup1\n      0x18\n      dup2\n      mstore\n      0x20\n      add\n      0x204d7920636c617373206e756d626572206973203230312e0000000000000000\n      dup2\n      mstore\n      pop\n      swap1\n      pop\n        /* \"learn/HelloWorld.sol\":569:584  bytes memory b1 */\n      0x00\n        /* \"learn/HelloWorld.sol\":593:597  str1 */\n      dup4\n        /* \"learn/HelloWorld.sol\":569:598  bytes memory b1 = bytes(str1) */\n      swap1\n      pop\n        /* \"learn/HelloWorld.sol\":609:624  bytes memory b3 */\n      0x00\n        /* \"learn/HelloWorld.sol\":633:637  str3 */\n      dup3\n        /* \"learn/HelloWorld.sol\":609:638  bytes memory b3 = bytes(str3) */\n      swap1\n      pop\n        /* \"learn/HelloWorld.sol\":692:693  0 */\n      0x00\n        /* \"learn/HelloWorld.sol\":658:668  StringUtil */\n      linkerSymbol(\"f9ea28bfc81a9881d84fb11cd8df97a23101b14ccdb065f0af82e19f0677b103\")\n        /* \"learn/HelloWorld.sol\":658:676  StringUtil.compare */\n      0x3a96fdd7\n        /* \"learn/HelloWorld.sol\":677:681  str1 */\n      dup8\n        /* \"learn/HelloWorld.sol\":682:686  str2 */\n      dup8\n        /* \"learn/HelloWorld.sol\":658:687  StringUtil.compare(str1,str2) */\n      mload(0x40)\n      dup4\n      0xffffffff\n      and\n      0xe0\n      shl\n      dup2\n      mstore\n      0x04\n      add\n      tag_11\n      swap3\n      swap2\n      swap1\n      tag_12\n      jump\t// in\n    tag_11:\n      0x20\n      mload(0x40)\n      dup1\n      dup4\n      sub\n      dup2\n      dup7\n      gas\n      delegatecall\n      iszero\n      dup1\n      iszero\n      tag_14\n      jumpi\n      returndatasize\n      0x00\n      dup1\n      returndatacopy\n      revert(0x00, returndatasize)\n    tag_14:\n      pop\n      pop\n      pop\n      pop\n      mload(0x40)\n      returndatasize\n      not(0x1f)\n      0x1f\n      dup3\n      add\n      and\n      dup3\n      add\n      dup1\n      0x40\n      mstore\n      pop\n      dup2\n      add\n      swap1\n      tag_15\n      swap2\n      swap1\n      tag_16\n      jump\t// in\n    tag_15:\n        /* \"learn/HelloWorld.sol\":653:688  uint(StringUtil.compare(str1,str2)) */\n      0x03\n      dup2\n      gt\n      iszero\n      tag_17\n      jumpi\n      tag_18\n      tag_19\n      jump\t// in\n    tag_18:\n    tag_17:\n        /* \"learn/HelloWorld.sol\":653:693  uint(StringUtil.compare(str1,str2)) != 0 */\n      eq\n        /* \"learn/HelloWorld.sol\":649:837  if (uint(StringUtil.compare(str1,str2)) != 0){... */\n      tag_20\n      jumpi\n        /* \"learn/HelloWorld.sol\":740:744  str1 */\n      dup5\n        /* \"learn/HelloWorld.sol\":723:772  abi.encodePacked(str1,\" My class number is 201.\") */\n      add(0x20, mload(0x40))\n      tag_21\n      swap2\n      swap1\n      tag_22\n      jump\t// in\n    tag_21:\n      mload(0x40)\n      0x20\n      dup2\n      dup4\n      sub\n      sub\n      dup2\n      mstore\n      swap1\n      0x40\n      mstore\n        /* \"learn/HelloWorld.sol\":709:773  return string(abi.encodePacked(str1,\" My class number is 201.\")) */\n      swap6\n      pop\n      pop\n      pop\n      pop\n      pop\n      pop\n      jump(tag_8)\n        /* \"learn/HelloWorld.sol\":649:837  if (uint(StringUtil.compare(str1,str2)) != 0){... */\n    tag_20:\n        /* \"learn/HelloWorld.sol\":804:825  return \"It's not me!\" */\n      mload(0x40)\n      dup1\n      0x40\n      add\n      0x40\n      mstore\n      dup1\n      0x0c\n      dup2\n      mstore\n      0x20\n      add\n      0x49742773206e6f74206d65210000000000000000000000000000000000000000\n      dup2\n      mstore\n      pop\n      swap6\n      pop\n      pop\n      pop\n      pop\n      pop\n      pop\n        /* \"learn/HelloWorld.sol\":295:844  function myFirstHelloWorld() virtual public pure override returns(string memory){... */\n    tag_8:\n      swap1\n      jump\t// out\n        /* \"learn/HelloWorld.sol\":114:248  function myFirstHelloWorld() virtual public pure returns (string memory){... */\n    tag_10:\n        /* \"learn/HelloWorld.sol\":172:185  string memory */\n      0x60\n        /* \"learn/HelloWorld.sol\":197:240  return \"Hello World! My name is Zhang Pan.\" */\n      mload(0x40)\n      dup1\n      0x60\n      add\n      0x40\n      mstore\n      dup1\n      0x22\n      dup2\n      mstore\n      0x20\n      add\n      data_3277d6bd57448240e632789f3158161c41c4929cb7e2e0ea7bcd7ecf633a70a5\n      0x22\n      swap2\n      codecopy\n      swap1\n      pop\n        /* \"learn/HelloWorld.sol\":114:248  function myFirstHelloWorld() virtual public pure returns (string memory){... */\n      swap1\n      jump\t// out\n        /* \"#utility.yul\":7:106   */\n    tag_25:\n        /* \"#utility.yul\":59:65   */\n      0x00\n        /* \"#utility.yul\":93:98   */\n      dup2\n        /* \"#utility.yul\":87:99   */\n      mload\n        /* \"#utility.yul\":77:99   */\n      swap1\n      pop\n        /* \"#utility.yul\":7:106   */\n      swap2\n      swap1\n      pop\n      jump\t// out\n        /* \"#utility.yul\":112:281   */\n    tag_26:\n        /* \"#utility.yul\":196:207   */\n      0x00\n        /* \"#utility.yul\":230:236   */\n      dup3\n        /* \"#utility.yul\":225:228   */\n      dup3\n        /* \"#utility.yul\":218:237   */\n      mstore\n        /* \"#utility.yul\":270:274   */\n      0x20\n        /* \"#utility.yul\":265:268   */\n      dup3\n        /* \"#utility.yul\":261:275   */\n      add\n        /* \"#utility.yul\":246:275   */\n      swap1\n      pop\n        /* \"#utility.yul\":112:281   */\n      swap3\n      swap2\n      pop\n      pop\n      jump\t// out\n        /* \"#utility.yul\":287:533   */\n    tag_27:\n        /* \"#utility.yul\":368:369   */\n      0x00\n        /* \"#utility.yul\":378:491   */\n    tag_45:\n        /* \"#utility.yul\":392:398   */\n      dup4\n        /* \"#utility.yul\":389:390   */\n      dup2\n        /* \"#utility.yul\":386:399   */\n      lt\n        /* \"#utility.yul\":378:491   */\n      iszero\n      tag_47\n      jumpi\n        /* \"#utility.yul\":477:478   */\n      dup1\n        /* \"#utility.yul\":472:475   */\n      dup3\n        /* \"#utility.yul\":468:479   */\n      add\n        /* \"#utility.yul\":462:480   */\n      mload\n        /* \"#utility.yul\":458:459   */\n      dup2\n        /* \"#utility.yul\":453:456   */\n      dup5\n        /* \"#utility.yul\":449:460   */\n      add\n        /* \"#utility.yul\":442:481   */\n      mstore\n        /* \"#utility.yul\":414:416   */\n      0x20\n        /* \"#utility.yul\":411:412   */\n      dup2\n        /* \"#utility.yul\":407:417   */\n      add\n        /* \"#utility.yul\":402:417   */\n      swap1\n      pop\n        /* \"#utility.yul\":378:491   */\n      jump(tag_45)\n    tag_47:\n        /* \"#utility.yul\":525:526   */\n      0x00\n        /* \"#utility.yul\":516:522   */\n      dup5\n        /* \"#utility.yul\":511:514   */\n      dup5\n        /* \"#utility.yul\":507:523   */\n      add\n        /* \"#utility.yul\":500:527   */\n      mstore\n        /* \"#utility.yul\":349:533   */\n      pop\n        /* \"#utility.yul\":287:533   */\n      pop\n      pop\n      pop\n      jump\t// out\n        /* \"#utility.yul\":539:641   */\n    tag_28:\n        /* \"#utility.yul\":580:586   */\n      0x00\n        /* \"#utility.yul\":631:633   */\n      0x1f\n        /* \"#utility.yul\":627:634   */\n      not\n        /* \"#utility.yul\":622:624   */\n      0x1f\n        /* \"#utility.yul\":615:620   */\n      dup4\n        /* \"#utility.yul\":611:625   */\n      add\n        /* \"#utility.yul\":607:635   */\n      and\n        /* \"#utility.yul\":597:635   */\n      swap1\n      pop\n        /* \"#utility.yul\":539:641   */\n      swap2\n      swap1\n      pop\n      jump\t// out\n        /* \"#utility.yul\":647:1024   */\n    tag_29:\n        /* \"#utility.yul\":735:738   */\n      0x00\n        /* \"#utility.yul\":763:802   */\n      tag_50\n        /* \"#utility.yul\":796:801   */\n      dup3\n        /* \"#utility.yul\":763:802   */\n      tag_25\n      jump\t// in\n    tag_50:\n        /* \"#utility.yul\":818:889   */\n      tag_51\n        /* \"#utility.yul\":882:888   */\n      dup2\n        /* \"#utility.yul\":877:880   */\n      dup6\n        /* \"#utility.yul\":818:889   */\n      tag_26\n      jump\t// in\n    tag_51:\n        /* \"#utility.yul\":811:889   */\n      swap4\n      pop\n        /* \"#utility.yul\":898:963   */\n      tag_52\n        /* \"#utility.yul\":956:962   */\n      dup2\n        /* \"#utility.yul\":951:954   */\n      dup6\n        /* \"#utility.yul\":944:948   */\n      0x20\n        /* \"#utility.yul\":937:942   */\n      dup7\n        /* \"#utility.yul\":933:949   */\n      add\n        /* \"#utility.yul\":898:963   */\n      tag_27\n      jump\t// in\n    tag_52:\n        /* \"#utility.yul\":988:1017   */\n      tag_53\n        /* \"#utility.yul\":1010:1016   */\n      dup2\n        /* \"#utility.yul\":988:1017   */\n      tag_28\n      jump\t// in\n    tag_53:\n        /* \"#utility.yul\":983:986   */\n      dup5\n        /* \"#utility.yul\":979:1018   */\n      add\n        /* \"#utility.yul\":972:1018   */\n      swap2\n      pop\n        /* \"#utility.yul\":739:1024   */\n      pop\n        /* \"#utility.yul\":647:1024   */\n      swap3\n      swap2\n      pop\n      pop\n      jump\t// out\n        /* \"#utility.yul\":1030:1343   */\n    tag_7:\n        /* \"#utility.yul\":1143:1147   */\n      0x00\n        /* \"#utility.yul\":1181:1183   */\n      0x20\n        /* \"#utility.yul\":1170:1179   */\n      dup3\n        /* \"#utility.yul\":1166:1184   */\n      add\n        /* \"#utility.yul\":1158:1184   */\n      swap1\n      pop\n        /* \"#utility.yul\":1230:1239   */\n      dup2\n        /* \"#utility.yul\":1224:1228   */\n      dup2\n        /* \"#utility.yul\":1220:1240   */\n      sub\n        /* \"#utility.yul\":1216:1217   */\n      0x00\n        /* \"#utility.yul\":1205:1214   */\n      dup4\n        /* \"#utility.yul\":1201:1218   */\n      add\n        /* \"#utility.yul\":1194:1241   */\n      mstore\n        /* \"#utility.yul\":1258:1336   */\n      tag_55\n        /* \"#utility.yul\":1331:1335   */\n      dup2\n        /* \"#utility.yul\":1322:1328   */\n      dup5\n        /* \"#utility.yul\":1258:1336   */\n      tag_29\n      jump\t// in\n    tag_55:\n        /* \"#utility.yul\":1250:1336   */\n      swap1\n      pop\n        /* \"#utility.yul\":1030:1343   */\n      swap3\n      swap2\n      pop\n      pop\n      jump\t// out\n        /* \"#utility.yul\":1349:1526   */\n    tag_30:\n        /* \"#utility.yul\":1441:1452   */\n      0x00\n        /* \"#utility.yul\":1475:1481   */\n      dup3\n        /* \"#utility.yul\":1470:1473   */\n      dup3\n        /* \"#utility.yul\":1463:1482   */\n      mstore\n        /* \"#utility.yul\":1515:1519   */\n      0x20\n        /* \"#utility.yul\":1510:1513   */\n      dup3\n        /* \"#utility.yul\":1506:1520   */\n      add\n        /* \"#utility.yul\":1491:1520   */\n      swap1\n      pop\n        /* \"#utility.yul\":1349:1526   */\n      swap3\n      swap2\n      pop\n      pop\n      jump\t// out\n        /* \"#utility.yul\":1532:1925   */\n    tag_31:\n        /* \"#utility.yul\":1628:1631   */\n      0x00\n        /* \"#utility.yul\":1656:1695   */\n      tag_58\n        /* \"#utility.yul\":1689:1694   */\n      dup3\n        /* \"#utility.yul\":1656:1695   */\n      tag_25\n      jump\t// in\n    tag_58:\n        /* \"#utility.yul\":1711:1790   */\n      tag_59\n        /* \"#utility.yul\":1783:1789   */\n      dup2\n        /* \"#utility.yul\":1778:1781   */\n      dup6\n        /* \"#utility.yul\":1711:1790   */\n      tag_30\n      jump\t// in\n    tag_59:\n        /* \"#utility.yul\":1704:1790   */\n      swap4\n      pop\n        /* \"#utility.yul\":1799:1864   */\n      tag_60\n        /* \"#utility.yul\":1857:1863   */\n      dup2\n        /* \"#utility.yul\":1852:1855   */\n      dup6\n        /* \"#utility.yul\":1845:1849   */\n      0x20\n        /* \"#utility.yul\":1838:1843   */\n      dup7\n        /* \"#utility.yul\":1834:1850   */\n      add\n        /* \"#utility.yul\":1799:1864   */\n      tag_27\n      jump\t// in\n    tag_60:\n        /* \"#utility.yul\":1889:1918   */\n      tag_61\n        /* \"#utility.yul\":1911:1917   */\n      dup2\n        /* \"#utility.yul\":1889:1918   */\n      tag_28\n      jump\t// in\n    tag_61:\n        /* \"#utility.yul\":1884:1887   */\n      dup5\n        /* \"#utility.yul\":1880:1919   */\n      add\n        /* \"#utility.yul\":1873:1919   */\n      swap2\n      pop\n        /* \"#utility.yul\":1632:1925   */\n      pop\n        /* \"#utility.yul\":1532:1925   */\n      swap3\n      swap2\n      pop\n      pop\n      jump\t// out\n        /* \"#utility.yul\":1931:2469   */\n    tag_12:\n        /* \"#utility.yul\":2100:2104   */\n      0x00\n        /* \"#utility.yul\":2138:2140   */\n      0x40\n        /* \"#utility.yul\":2127:2136   */\n      dup3\n        /* \"#utility.yul\":2123:2141   */\n      add\n        /* \"#utility.yul\":2115:2141   */\n      swap1\n      pop\n        /* \"#utility.yul\":2187:2196   */\n      dup2\n        /* \"#utility.yul\":2181:2185   */\n      dup2\n        /* \"#utility.yul\":2177:2197   */\n      sub\n        /* \"#utility.yul\":2173:2174   */\n      0x00\n        /* \"#utility.yul\":2162:2171   */\n      dup4\n        /* \"#utility.yul\":2158:2175   */\n      add\n        /* \"#utility.yul\":2151:2198   */\n      mstore\n        /* \"#utility.yul\":2215:2301   */\n      tag_63\n        /* \"#utility.yul\":2296:2300   */\n      dup2\n        /* \"#utility.yul\":2287:2293   */\n      dup6\n        /* \"#utility.yul\":2215:2301   */\n      tag_31\n      jump\t// in\n    tag_63:\n        /* \"#utility.yul\":2207:2301   */\n      swap1\n      pop\n        /* \"#utility.yul\":2348:2357   */\n      dup2\n        /* \"#utility.yul\":2342:2346   */\n      dup2\n        /* \"#utility.yul\":2338:2358   */\n      sub\n        /* \"#utility.yul\":2333:2335   */\n      0x20\n        /* \"#utility.yul\":2322:2331   */\n      dup4\n        /* \"#utility.yul\":2318:2336   */\n      add\n        /* \"#utility.yul\":2311:2359   */\n      mstore\n        /* \"#utility.yul\":2376:2462   */\n      tag_64\n        /* \"#utility.yul\":2457:2461   */\n      dup2\n        /* \"#utility.yul\":2448:2454   */\n      dup5\n        /* \"#utility.yul\":2376:2462   */\n      tag_31\n      jump\t// in\n    tag_64:\n        /* \"#utility.yul\":2368:2462   */\n      swap1\n      pop\n        /* \"#utility.yul\":1931:2469   */\n      swap4\n      swap3\n      pop\n      pop\n      pop\n      jump\t// out\n        /* \"#utility.yul\":2556:2673   */\n    tag_33:\n        /* \"#utility.yul\":2665:2666   */\n      0x00\n        /* \"#utility.yul\":2662:2663   */\n      dup1\n        /* \"#utility.yul\":2655:2667   */\n      revert\n        /* \"#utility.yul\":2802:2917   */\n    tag_35:\n        /* \"#utility.yul\":2891:2892   */\n      0x04\n        /* \"#utility.yul\":2884:2889   */\n      dup2\n        /* \"#utility.yul\":2881:2893   */\n      lt\n        /* \"#utility.yul\":2871:2911   */\n      tag_69\n      jumpi\n        /* \"#utility.yul\":2907:2908   */\n      0x00\n        /* \"#utility.yul\":2904:2905   */\n      dup1\n        /* \"#utility.yul\":2897:2909   */\n      revert\n        /* \"#utility.yul\":2871:2911   */\n    tag_69:\n        /* \"#utility.yul\":2802:2917   */\n      pop\n      jump\t// out\n        /* \"#utility.yul\":2923:3098   */\n    tag_36:\n        /* \"#utility.yul\":2996:3001   */\n      0x00\n        /* \"#utility.yul\":3027:3033   */\n      dup2\n        /* \"#utility.yul\":3021:3034   */\n      mload\n        /* \"#utility.yul\":3012:3034   */\n      swap1\n      pop\n        /* \"#utility.yul\":3043:3092   */\n      tag_71\n        /* \"#utility.yul\":3086:3091   */\n      dup2\n        /* \"#utility.yul\":3043:3092   */\n      tag_35\n      jump\t// in\n    tag_71:\n        /* \"#utility.yul\":2923:3098   */\n      swap3\n      swap2\n      pop\n      pop\n      jump\t// out\n        /* \"#utility.yul\":3104:3487   */\n    tag_16:\n        /* \"#utility.yul\":3190:3196   */\n      0x00\n        /* \"#utility.yul\":3239:3241   */\n      0x20\n        /* \"#utility.yul\":3227:3236   */\n      dup3\n        /* \"#utility.yul\":3218:3225   */\n      dup5\n        /* \"#utility.yul\":3214:3237   */\n      sub\n        /* \"#utility.yul\":3210:3242   */\n      slt\n        /* \"#utility.yul\":3207:3326   */\n      iszero\n      tag_73\n      jumpi\n        /* \"#utility.yul\":3245:3324   */\n      tag_74\n      tag_33\n      jump\t// in\n    tag_74:\n        /* \"#utility.yul\":3207:3326   */\n    tag_73:\n        /* \"#utility.yul\":3365:3366   */\n      0x00\n        /* \"#utility.yul\":3390:3470   */\n      tag_75\n        /* \"#utility.yul\":3462:3469   */\n      dup5\n        /* \"#utility.yul\":3453:3459   */\n      dup3\n        /* \"#utility.yul\":3442:3451   */\n      dup6\n        /* \"#utility.yul\":3438:3460   */\n      add\n        /* \"#utility.yul\":3390:3470   */\n      tag_36\n      jump\t// in\n    tag_75:\n        /* \"#utility.yul\":3380:3470   */\n      swap2\n      pop\n        /* \"#utility.yul\":3336:3480   */\n      pop\n        /* \"#utility.yul\":3104:3487   */\n      swap3\n      swap2\n      pop\n      pop\n      jump\t// out\n        /* \"#utility.yul\":3493:3673   */\n    tag_19:\n        /* \"#utility.yul\":3541:3618   */\n      0x4e487b7100000000000000000000000000000000000000000000000000000000\n        /* \"#utility.yul\":3538:3539   */\n      0x00\n        /* \"#utility.yul\":3531:3619   */\n      mstore\n        /* \"#utility.yul\":3638:3642   */\n      0x21\n        /* \"#utility.yul\":3635:3636   */\n      0x04\n        /* \"#utility.yul\":3628:3643   */\n      mstore\n        /* \"#utility.yul\":3662:3666   */\n      0x24\n        /* \"#utility.yul\":3659:3660   */\n      0x00\n        /* \"#utility.yul\":3652:3667   */\n      revert\n        /* \"#utility.yul\":3679:3827   */\n    tag_37:\n        /* \"#utility.yul\":3781:3792   */\n      0x00\n        /* \"#utility.yul\":3818:3821   */\n      dup2\n        /* \"#utility.yul\":3803:3821   */\n      swap1\n      pop\n        /* \"#utility.yul\":3679:3827   */\n      swap3\n      swap2\n      pop\n      pop\n      jump\t// out\n        /* \"#utility.yul\":3833:4223   */\n    tag_38:\n        /* \"#utility.yul\":3939:3942   */\n      0x00\n        /* \"#utility.yul\":3967:4006   */\n      tag_79\n        /* \"#utility.yul\":4000:4005   */\n      dup3\n        /* \"#utility.yul\":3967:4006   */\n      tag_25\n      jump\t// in\n    tag_79:\n        /* \"#utility.yul\":4022:4111   */\n      tag_80\n        /* \"#utility.yul\":4104:4110   */\n      dup2\n        /* \"#utility.yul\":4099:4102   */\n      dup6\n        /* \"#utility.yul\":4022:4111   */\n      tag_37\n      jump\t// in\n    tag_80:\n        /* \"#utility.yul\":4015:4111   */\n      swap4\n      pop\n        /* \"#utility.yul\":4120:4185   */\n      tag_81\n        /* \"#utility.yul\":4178:4184   */\n      dup2\n        /* \"#utility.yul\":4173:4176   */\n      dup6\n        /* \"#utility.yul\":4166:4170   */\n      0x20\n        /* \"#utility.yul\":4159:4164   */\n      dup7\n        /* \"#utility.yul\":4155:4171   */\n      add\n        /* \"#utility.yul\":4120:4185   */\n      tag_27\n      jump\t// in\n    tag_81:\n        /* \"#utility.yul\":4210:4216   */\n      dup1\n        /* \"#utility.yul\":4205:4208   */\n      dup5\n        /* \"#utility.yul\":4201:4217   */\n      add\n        /* \"#utility.yul\":4194:4217   */\n      swap2\n      pop\n        /* \"#utility.yul\":3943:4223   */\n      pop\n        /* \"#utility.yul\":3833:4223   */\n      swap3\n      swap2\n      pop\n      pop\n      jump\t// out\n        /* \"#utility.yul\":4229:4403   */\n    tag_39:\n        /* \"#utility.yul\":4369:4395   */\n      0x204d7920636c617373206e756d626572206973203230312e0000000000000000\n        /* \"#utility.yul\":4365:4366   */\n      0x00\n        /* \"#utility.yul\":4357:4363   */\n      dup3\n        /* \"#utility.yul\":4353:4367   */\n      add\n        /* \"#utility.yul\":4346:4396   */\n      mstore\n        /* \"#utility.yul\":4229:4403   */\n      pop\n      jump\t// out\n        /* \"#utility.yul\":4409:4811   */\n    tag_40:\n        /* \"#utility.yul\":4569:4572   */\n      0x00\n        /* \"#utility.yul\":4590:4675   */\n      tag_84\n        /* \"#utility.yul\":4672:4674   */\n      0x18\n        /* \"#utility.yul\":4667:4670   */\n      dup4\n        /* \"#utility.yul\":4590:4675   */\n      tag_37\n      jump\t// in\n    tag_84:\n        /* \"#utility.yul\":4583:4675   */\n      swap2\n      pop\n        /* \"#utility.yul\":4684:4777   */\n      tag_85\n        /* \"#utility.yul\":4773:4776   */\n      dup3\n        /* \"#utility.yul\":4684:4777   */\n      tag_39\n      jump\t// in\n    tag_85:\n        /* \"#utility.yul\":4802:4804   */\n      0x18\n        /* \"#utility.yul\":4797:4800   */\n      dup3\n        /* \"#utility.yul\":4793:4805   */\n      add\n        /* \"#utility.yul\":4786:4805   */\n      swap1\n      pop\n        /* \"#utility.yul\":4409:4811   */\n      swap2\n      swap1\n      pop\n      jump\t// out\n        /* \"#utility.yul\":4817:5358   */\n    tag_22:\n        /* \"#utility.yul\":5050:5053   */\n      0x00\n        /* \"#utility.yul\":5072:5167   */\n      tag_87\n        /* \"#utility.yul\":5163:5166   */\n      dup3\n        /* \"#utility.yul\":5154:5160   */\n      dup5\n        /* \"#utility.yul\":5072:5167   */\n      tag_38\n      jump\t// in\n    tag_87:\n        /* \"#utility.yul\":5065:5167   */\n      swap2\n      pop\n        /* \"#utility.yul\":5184:5332   */\n      tag_88\n        /* \"#utility.yul\":5328:5331   */\n      dup3\n        /* \"#utility.yul\":5184:5332   */\n      tag_40\n      jump\t// in\n    tag_88:\n        /* \"#utility.yul\":5177:5332   */\n      swap2\n      pop\n        /* \"#utility.yul\":5349:5352   */\n      dup2\n        /* \"#utility.yul\":5342:5352   */\n      swap1\n      pop\n        /* \"#utility.yul\":4817:5358   */\n      swap3\n      swap2\n      pop\n      pop\n      jump\t// out\n    stop\n    data_3277d6bd57448240e632789f3158161c41c4929cb7e2e0ea7bcd7ecf633a70a5 48656c6c6f20576f726c6421204d79206e616d65206973205a68616e672050616e2e\n    data_68aadad336316371a2fc17ebf3ac925bdee82bb94548dd870844108bd0bd1114 48656c6c6f20576f726c6421204d79206e616d65206973205a68616e672053616e2e\n\n    auxdata: 0xa26469706673582212200914bbd9b7ea75eb3535de29eec1782fb8e520f31037329943b43e39820aa48d64736f6c63430008100033\n}\n",
				"bytecode": {
					"linkReferences": {
						"learn/StringUtil.sol": {
							"StringUtil": [
								{
									"length": 20,
									"start": 225
								}
							]
						}
					},
					"object": "608060405234801561001057600080fd5b506104ba806100206000396000f3fe608060405234801561001057600080fd5b506004361061002b5760003560e01c8063a00d7b2714610030575b600080fd5b61003861004e565b604051610045919061026d565b60405180910390f35b6060600061005a6101bd565b9050600060405180606001604052806022815260200161046360229139905060006040518060400160405280601881526020017f204d7920636c617373206e756d626572206973203230312e0000000000000000815250905060008390506000829050600073__$f9ea28bfc81a9881d84fb11cd8df97a231$__633a96fdd787876040518363ffffffff1660e01b81526004016100f89291906102d9565b602060405180830381865af4158015610115573d6000803e3d6000fd5b505050506040513d601f19601f82011682018060405250810190610139919061033a565b600381111561014b5761014a610367565b5b1461017c5784604051602001610161919061041e565b604051602081830303815290604052955050505050506101ba565b6040518060400160405280600c81526020017f49742773206e6f74206d65210000000000000000000000000000000000000000815250955050505050505b90565b606060405180606001604052806022815260200161044160229139905090565b600081519050919050565b600082825260208201905092915050565b60005b838110156102175780820151818401526020810190506101fc565b60008484015250505050565b6000601f19601f8301169050919050565b600061023f826101dd565b61024981856101e8565b93506102598185602086016101f9565b61026281610223565b840191505092915050565b600060208201905081810360008301526102878184610234565b905092915050565b600082825260208201905092915050565b60006102ab826101dd565b6102b5818561028f565b93506102c58185602086016101f9565b6102ce81610223565b840191505092915050565b600060408201905081810360008301526102f381856102a0565b9050818103602083015261030781846102a0565b90509392505050565b600080fd5b6004811061032257600080fd5b50565b60008151905061033481610315565b92915050565b6000602082840312156103505761034f610310565b5b600061035e84828501610325565b91505092915050565b7f4e487b7100000000000000000000000000000000000000000000000000000000600052602160045260246000fd5b600081905092915050565b60006103ac826101dd565b6103b68185610396565b93506103c68185602086016101f9565b80840191505092915050565b7f204d7920636c617373206e756d626572206973203230312e0000000000000000600082015250565b6000610408601883610396565b9150610413826103d2565b601882019050919050565b600061042a82846103a1565b9150610435826103fb565b91508190509291505056fe48656c6c6f20576f726c6421204d79206e616d65206973205a68616e672050616e2e48656c6c6f20576f726c6421204d79206e616d65206973205a68616e672053616e2ea26469706673582212200914bbd9b7ea75eb3535de29eec1782fb8e520f31037329943b43e39820aa48d64736f6c63430008100033",
					"opcodes": "PUSH1 0x80 PUSH1 0x40 MSTORE CALLVALUE DUP1 ISZERO PUSH2 0x10 JUMPI PUSH1 0x0 DUP1 REVERT JUMPDEST POP PUSH2 0x4BA DUP1 PUSH2 0x20 PUSH1 0x0 CODECOPY PUSH1 0x0 RETURN INVALID PUSH1 0x80 PUSH1 0x40 MSTORE CALLVALUE DUP1 ISZERO PUSH2 0x10 JUMPI PUSH1 0x0 DUP1 REVERT JUMPDEST POP PUSH1 0x4 CALLDATASIZE LT PUSH2 0x2B JUMPI PUSH1 0x0 CALLDATALOAD PUSH1 0xE0 SHR DUP1 PUSH4 0xA00D7B27 EQ PUSH2 0x30 JUMPI JUMPDEST PUSH1 0x0 DUP1 REVERT JUMPDEST PUSH2 0x38 PUSH2 0x4E JUMP JUMPDEST PUSH1 0x40 MLOAD PUSH2 0x45 SWAP2 SWAP1 PUSH2 0x26D JUMP JUMPDEST PUSH1 0x40 MLOAD DUP1 SWAP2 SUB SWAP1 RETURN JUMPDEST PUSH1 0x60 PUSH1 0x0 PUSH2 0x5A PUSH2 0x1BD JUMP JUMPDEST SWAP1 POP PUSH1 0x0 PUSH1 0x40 MLOAD DUP1 PUSH1 0x60 ADD PUSH1 0x40 MSTORE DUP1 PUSH1 0x22 DUP2 MSTORE PUSH1 0x20 ADD PUSH2 0x463 PUSH1 0x22 SWAP2 CODECOPY SWAP1 POP PUSH1 0x0 PUSH1 0x40 MLOAD DUP1 PUSH1 0x40 ADD PUSH1 0x40 MSTORE DUP1 PUSH1 0x18 DUP2 MSTORE PUSH1 0x20 ADD PUSH32 0x204D7920636C617373206E756D626572206973203230312E0000000000000000 DUP2 MSTORE POP SWAP1 POP PUSH1 0x0 DUP4 SWAP1 POP PUSH1 0x0 DUP3 SWAP1 POP PUSH1 0x0 PUSH20 0x0 PUSH4 0x3A96FDD7 DUP8 DUP8 PUSH1 0x40 MLOAD DUP4 PUSH4 0xFFFFFFFF AND PUSH1 0xE0 SHL DUP2 MSTORE PUSH1 0x4 ADD PUSH2 0xF8 SWAP3 SWAP2 SWAP1 PUSH2 0x2D9 JUMP JUMPDEST PUSH1 0x20 PUSH1 0x40 MLOAD DUP1 DUP4 SUB DUP2 DUP7 GAS DELEGATECALL ISZERO DUP1 ISZERO PUSH2 0x115 JUMPI RETURNDATASIZE PUSH1 0x0 DUP1 RETURNDATACOPY RETURNDATASIZE PUSH1 0x0 REVERT JUMPDEST POP POP POP POP PUSH1 0x40 MLOAD RETURNDATASIZE PUSH1 0x1F NOT PUSH1 0x1F DUP3 ADD AND DUP3 ADD DUP1 PUSH1 0x40 MSTORE POP DUP2 ADD SWAP1 PUSH2 0x139 SWAP2 SWAP1 PUSH2 0x33A JUMP JUMPDEST PUSH1 0x3 DUP2 GT ISZERO PUSH2 0x14B JUMPI PUSH2 0x14A PUSH2 0x367 JUMP JUMPDEST JUMPDEST EQ PUSH2 0x17C JUMPI DUP5 PUSH1 0x40 MLOAD PUSH1 0x20 ADD PUSH2 0x161 SWAP2 SWAP1 PUSH2 0x41E JUMP JUMPDEST PUSH1 0x40 MLOAD PUSH1 0x20 DUP2 DUP4 SUB SUB DUP2 MSTORE SWAP1 PUSH1 0x40 MSTORE SWAP6 POP POP POP POP POP POP PUSH2 0x1BA JUMP JUMPDEST PUSH1 0x40 MLOAD DUP1 PUSH1 0x40 ADD PUSH1 0x40 MSTORE DUP1 PUSH1 0xC DUP2 MSTORE PUSH1 0x20 ADD PUSH32 0x49742773206E6F74206D65210000000000000000000000000000000000000000 DUP2 MSTORE POP SWAP6 POP POP POP POP POP POP JUMPDEST SWAP1 JUMP JUMPDEST PUSH1 0x60 PUSH1 0x40 MLOAD DUP1 PUSH1 0x60 ADD PUSH1 0x40 MSTORE DUP1 PUSH1 0x22 DUP2 MSTORE PUSH1 0x20 ADD PUSH2 0x441 PUSH1 0x22 SWAP2 CODECOPY SWAP1 POP SWAP1 JUMP JUMPDEST PUSH1 0x0 DUP2 MLOAD SWAP1 POP SWAP2 SWAP1 POP JUMP JUMPDEST PUSH1 0x0 DUP3 DUP3 MSTORE PUSH1 0x20 DUP3 ADD SWAP1 POP SWAP3 SWAP2 POP POP JUMP JUMPDEST PUSH1 0x0 JUMPDEST DUP4 DUP2 LT ISZERO PUSH2 0x217 JUMPI DUP1 DUP3 ADD MLOAD DUP2 DUP5 ADD MSTORE PUSH1 0x20 DUP2 ADD SWAP1 POP PUSH2 0x1FC JUMP JUMPDEST PUSH1 0x0 DUP5 DUP5 ADD MSTORE POP POP POP POP JUMP JUMPDEST PUSH1 0x0 PUSH1 0x1F NOT PUSH1 0x1F DUP4 ADD AND SWAP1 POP SWAP2 SWAP1 POP JUMP JUMPDEST PUSH1 0x0 PUSH2 0x23F DUP3 PUSH2 0x1DD JUMP JUMPDEST PUSH2 0x249 DUP2 DUP6 PUSH2 0x1E8 JUMP JUMPDEST SWAP4 POP PUSH2 0x259 DUP2 DUP6 PUSH1 0x20 DUP7 ADD PUSH2 0x1F9 JUMP JUMPDEST PUSH2 0x262 DUP2 PUSH2 0x223 JUMP JUMPDEST DUP5 ADD SWAP2 POP POP SWAP3 SWAP2 POP POP JUMP JUMPDEST PUSH1 0x0 PUSH1 0x20 DUP3 ADD SWAP1 POP DUP2 DUP2 SUB PUSH1 0x0 DUP4 ADD MSTORE PUSH2 0x287 DUP2 DUP5 PUSH2 0x234 JUMP JUMPDEST SWAP1 POP SWAP3 SWAP2 POP POP JUMP JUMPDEST PUSH1 0x0 DUP3 DUP3 MSTORE PUSH1 0x20 DUP3 ADD SWAP1 POP SWAP3 SWAP2 POP POP JUMP JUMPDEST PUSH1 0x0 PUSH2 0x2AB DUP3 PUSH2 0x1DD JUMP JUMPDEST PUSH2 0x2B5 DUP2 DUP6 PUSH2 0x28F JUMP JUMPDEST SWAP4 POP PUSH2 0x2C5 DUP2 DUP6 PUSH1 0x20 DUP7 ADD PUSH2 0x1F9 JUMP JUMPDEST PUSH2 0x2CE DUP2 PUSH2 0x223 JUMP JUMPDEST DUP5 ADD SWAP2 POP POP SWAP3 SWAP2 POP POP JUMP JUMPDEST PUSH1 0x0 PUSH1 0x40 DUP3 ADD SWAP1 POP DUP2 DUP2 SUB PUSH1 0x0 DUP4 ADD MSTORE PUSH2 0x2F3 DUP2 DUP6 PUSH2 0x2A0 JUMP JUMPDEST SWAP1 POP DUP2 DUP2 SUB PUSH1 0x20 DUP4 ADD MSTORE PUSH2 0x307 DUP2 DUP5 PUSH2 0x2A0 JUMP JUMPDEST SWAP1 POP SWAP4 SWAP3 POP POP POP JUMP JUMPDEST PUSH1 0x0 DUP1 REVERT JUMPDEST PUSH1 0x4 DUP2 LT PUSH2 0x322 JUMPI PUSH1 0x0 DUP1 REVERT JUMPDEST POP JUMP JUMPDEST PUSH1 0x0 DUP2 MLOAD SWAP1 POP PUSH2 0x334 DUP2 PUSH2 0x315 JUMP JUMPDEST SWAP3 SWAP2 POP POP JUMP JUMPDEST PUSH1 0x0 PUSH1 0x20 DUP3 DUP5 SUB SLT ISZERO PUSH2 0x350 JUMPI PUSH2 0x34F PUSH2 0x310 JUMP JUMPDEST JUMPDEST PUSH1 0x0 PUSH2 0x35E DUP5 DUP3 DUP6 ADD PUSH2 0x325 JUMP JUMPDEST SWAP2 POP POP SWAP3 SWAP2 POP POP JUMP JUMPDEST PUSH32 0x4E487B7100000000000000000000000000000000000000000000000000000000 PUSH1 0x0 MSTORE PUSH1 0x21 PUSH1 0x4 MSTORE PUSH1 0x24 PUSH1 0x0 REVERT JUMPDEST PUSH1 0x0 DUP2 SWAP1 POP SWAP3 SWAP2 POP POP JUMP JUMPDEST PUSH1 0x0 PUSH2 0x3AC DUP3 PUSH2 0x1DD JUMP JUMPDEST PUSH2 0x3B6 DUP2 DUP6 PUSH2 0x396 JUMP JUMPDEST SWAP4 POP PUSH2 0x3C6 DUP2 DUP6 PUSH1 0x20 DUP7 ADD PUSH2 0x1F9 JUMP JUMPDEST DUP1 DUP5 ADD SWAP2 POP POP SWAP3 SWAP2 POP POP JUMP JUMPDEST PUSH32 0x204D7920636C617373206E756D626572206973203230312E0000000000000000 PUSH1 0x0 DUP3 ADD MSTORE POP JUMP JUMPDEST PUSH1 0x0 PUSH2 0x408 PUSH1 0x18 DUP4 PUSH2 0x396 JUMP JUMPDEST SWAP2 POP PUSH2 0x413 DUP3 PUSH2 0x3D2 JUMP JUMPDEST PUSH1 0x18 DUP3 ADD SWAP1 POP SWAP2 SWAP1 POP JUMP JUMPDEST PUSH1 0x0 PUSH2 0x42A DUP3 DUP5 PUSH2 0x3A1 JUMP JUMPDEST SWAP2 POP PUSH2 0x435 DUP3 PUSH2 0x3FB JUMP JUMPDEST SWAP2 POP DUP2 SWAP1 POP SWAP3 SWAP2 POP POP JUMP INVALID BASEFEE PUSH6 0x6C6C6F20576F PUSH19 0x6C6421204D79206E616D65206973205A68616E PUSH8 0x2050616E2E48656C PUSH13 0x6F20576F726C6421204D79206E PUSH2 0x6D65 KECCAK256 PUSH10 0x73205A68616E67205361 PUSH15 0x2EA26469706673582212200914BBD9 0xB7 0xEA PUSH22 0xEB3535DE29EEC1782FB8E520F31037329943B43E3982 EXP LOG4 DUP14 PUSH5 0x736F6C6343 STOP ADDMOD LT STOP CALLER "
				},
				"gasEstimates": {
					"creation": {
						"codeDepositCost": "242000",
						"executionCost": "281",
						"totalCost": "242281"
					},
					"external": {
						"myFirstHelloWorld()": "infinite"
					}
				},
				"methodIdentifiers": {
					"myFirstHelloWorld()": "a00d7b27"
				}
			},
			"storageLayout": {
				"storage": [],
				"types": null
			},
			"userdoc": {
				"kind": "user",
				"methods": {},
				"version": 1
			}
		}
	}
}