{
	"shijian/1/Zhangpan.sol": {
		"ZhangPan": {
			"abi": [
				{
					"inputs": [
						{
							"internalType": "address",
							"name": "add",
							"type": "address"
						}
					],
					"name": "getBalance",
					"outputs": [
						{
							"internalType": "uint256",
							"name": "",
							"type": "uint256"
						}
					],
					"stateMutability": "view",
					"type": "function"
				},
				{
					"inputs": [],
					"name": "getBlockHash",
					"outputs": [
						{
							"internalType": "bytes32",
							"name": "",
							"type": "bytes32"
						}
					],
					"stateMutability": "view",
					"type": "function"
				},
				{
					"inputs": [],
					"name": "getBlockHeight",
					"outputs": [
						{
							"internalType": "uint256",
							"name": "",
							"type": "uint256"
						}
					],
					"stateMutability": "view",
					"type": "function"
				},
				{
					"inputs": [],
					"name": "getCoinBase",
					"outputs": [
						{
							"internalType": "address",
							"name": "",
							"type": "address"
						}
					],
					"stateMutability": "view",
					"type": "function"
				},
				{
					"inputs": [],
					"name": "getDifficulty",
					"outputs": [
						{
							"internalType": "uint256",
							"name": "",
							"type": "uint256"
						}
					],
					"stateMutability": "view",
					"type": "function"
				},
				{
					"inputs": [],
					"name": "getGasLimit",
					"outputs": [
						{
							"internalType": "uint256",
							"name": "",
							"type": "uint256"
						}
					],
					"stateMutability": "view",
					"type": "function"
				},
				{
					"inputs": [],
					"name": "getLastBlockHash",
					"outputs": [
						{
							"internalType": "bytes32",
							"name": "",
							"type": "bytes32"
						}
					],
					"stateMutability": "view",
					"type": "function"
				},
				{
					"inputs": [],
					"name": "getTime",
					"outputs": [
						{
							"internalType": "uint256",
							"name": "",
							"type": "uint256"
						}
					],
					"stateMutability": "view",
					"type": "function"
				}
			],
			"devdoc": {
				"kind": "dev",
				"methods": {},
				"version": 1
			},
			"evm": {
				"assembly": "    /* \"shijian/1/Zhangpan.sol\":60:889  contract ZhangPan{... */\n  mstore(0x40, 0x80)\n  callvalue\n  dup1\n  iszero\n  tag_1\n  jumpi\n  0x00\n  dup1\n  revert\ntag_1:\n  pop\n  dataSize(sub_0)\n  dup1\n  dataOffset(sub_0)\n  0x00\n  codecopy\n  0x00\n  return\nstop\n\nsub_0: assembly {\n        /* \"shijian/1/Zhangpan.sol\":60:889  contract ZhangPan{... */\n      mstore(0x40, 0x80)\n      callvalue\n      dup1\n      iszero\n      tag_1\n      jumpi\n      0x00\n      dup1\n      revert\n    tag_1:\n      pop\n      jumpi(tag_2, lt(calldatasize, 0x04))\n      shr(0xe0, calldataload(0x00))\n      dup1\n      0x9663f88f\n      gt\n      tag_11\n      jumpi\n      dup1\n      0x9663f88f\n      eq\n      tag_7\n      jumpi\n      dup1\n      0x971ce641\n      eq\n      tag_8\n      jumpi\n      dup1\n      0xb6baffe3\n      eq\n      tag_9\n      jumpi\n      dup1\n      0xf8b2cb4f\n      eq\n      tag_10\n      jumpi\n      jump(tag_2)\n    tag_11:\n      dup1\n      0x1a93d1c3\n      eq\n      tag_3\n      jumpi\n      dup1\n      0x27e86d6e\n      eq\n      tag_4\n      jumpi\n      dup1\n      0x557ed1ba\n      eq\n      tag_5\n      jumpi\n      dup1\n      0x7bb96acb\n      eq\n      tag_6\n      jumpi\n    tag_2:\n      0x00\n      dup1\n      revert\n        /* \"shijian/1/Zhangpan.sol\":701:789  function getGasLimit() public view returns(uint){... */\n    tag_3:\n      tag_12\n      tag_13\n      jump\t// in\n    tag_12:\n      mload(0x40)\n      tag_14\n      swap2\n      swap1\n      tag_15\n      jump\t// in\n    tag_14:\n      mload(0x40)\n      dup1\n      swap2\n      sub\n      swap1\n      return\n        /* \"shijian/1/Zhangpan.sol\":295:402  function getLastBlockHash() public view returns(bytes32){... */\n    tag_4:\n      tag_16\n      tag_17\n      jump\t// in\n    tag_16:\n      mload(0x40)\n      tag_18\n      swap2\n      swap1\n      tag_19\n      jump\t// in\n    tag_18:\n      mload(0x40)\n      dup1\n      swap2\n      sub\n      swap1\n      return\n        /* \"shijian/1/Zhangpan.sol\":408:496  function getTime() public view returns(uint256){... */\n    tag_5:\n      tag_20\n      tag_21\n      jump\t// in\n    tag_20:\n      mload(0x40)\n      tag_22\n      swap2\n      swap1\n      tag_15\n      jump\t// in\n    tag_22:\n      mload(0x40)\n      dup1\n      swap2\n      sub\n      swap1\n      return\n        /* \"shijian/1/Zhangpan.sol\":502:594  function getBlockHeight() public view returns(uint256){... */\n    tag_6:\n      tag_23\n      tag_24\n      jump\t// in\n    tag_23:\n      mload(0x40)\n      tag_25\n      swap2\n      swap1\n      tag_15\n      jump\t// in\n    tag_25:\n      mload(0x40)\n      dup1\n      swap2\n      sub\n      swap1\n      return\n        /* \"shijian/1/Zhangpan.sol\":188:289  function getBlockHash() public view returns(bytes32){... */\n    tag_7:\n      tag_26\n      tag_27\n      jump\t// in\n    tag_26:\n      mload(0x40)\n      tag_28\n      swap2\n      swap1\n      tag_19\n      jump\t// in\n    tag_28:\n      mload(0x40)\n      dup1\n      swap2\n      sub\n      swap1\n      return\n        /* \"shijian/1/Zhangpan.sol\":795:886  function getCoinBase() public view returns(address){... */\n    tag_8:\n      tag_29\n      tag_30\n      jump\t// in\n    tag_29:\n      mload(0x40)\n      tag_31\n      swap2\n      swap1\n      tag_32\n      jump\t// in\n    tag_31:\n      mload(0x40)\n      dup1\n      swap2\n      sub\n      swap1\n      return\n        /* \"shijian/1/Zhangpan.sol\":600:695  function getDifficulty() public view returns(uint256){... */\n    tag_9:\n      tag_33\n      tag_34\n      jump\t// in\n    tag_33:\n      mload(0x40)\n      tag_35\n      swap2\n      swap1\n      tag_15\n      jump\t// in\n    tag_35:\n      mload(0x40)\n      dup1\n      swap2\n      sub\n      swap1\n      return\n        /* \"shijian/1/Zhangpan.sol\":84:182  function getBalance(address add) public view returns(uint256){... */\n    tag_10:\n      tag_36\n      0x04\n      dup1\n      calldatasize\n      sub\n      dup2\n      add\n      swap1\n      tag_37\n      swap2\n      swap1\n      tag_38\n      jump\t// in\n    tag_37:\n      tag_39\n      jump\t// in\n    tag_36:\n      mload(0x40)\n      tag_40\n      swap2\n      swap1\n      tag_15\n      jump\t// in\n    tag_40:\n      mload(0x40)\n      dup1\n      swap2\n      sub\n      swap1\n      return\n        /* \"shijian/1/Zhangpan.sol\":701:789  function getGasLimit() public view returns(uint){... */\n    tag_13:\n        /* \"shijian/1/Zhangpan.sol\":744:748  uint */\n      0x00\n        /* \"shijian/1/Zhangpan.sol\":767:781  block.gaslimit */\n      gaslimit\n        /* \"shijian/1/Zhangpan.sol\":759:781  return  block.gaslimit */\n      swap1\n      pop\n        /* \"shijian/1/Zhangpan.sol\":701:789  function getGasLimit() public view returns(uint){... */\n      swap1\n      jump\t// out\n        /* \"shijian/1/Zhangpan.sol\":295:402  function getLastBlockHash() public view returns(bytes32){... */\n    tag_17:\n        /* \"shijian/1/Zhangpan.sol\":343:350  bytes32 */\n      0x00\n        /* \"shijian/1/Zhangpan.sol\":392:393  1 */\n      0x01\n        /* \"shijian/1/Zhangpan.sol\":379:391  block.number */\n      number\n        /* \"shijian/1/Zhangpan.sol\":379:393  block.number-1 */\n      tag_43\n      swap2\n      swap1\n      tag_44\n      jump\t// in\n    tag_43:\n        /* \"shijian/1/Zhangpan.sol\":369:394  blockhash(block.number-1) */\n      blockhash\n        /* \"shijian/1/Zhangpan.sol\":362:394  return blockhash(block.number-1) */\n      swap1\n      pop\n        /* \"shijian/1/Zhangpan.sol\":295:402  function getLastBlockHash() public view returns(bytes32){... */\n      swap1\n      jump\t// out\n        /* \"shijian/1/Zhangpan.sol\":408:496  function getTime() public view returns(uint256){... */\n    tag_21:\n        /* \"shijian/1/Zhangpan.sol\":447:454  uint256 */\n      0x00\n        /* \"shijian/1/Zhangpan.sol\":473:488  block.timestamp */\n      timestamp\n        /* \"shijian/1/Zhangpan.sol\":466:488  return block.timestamp */\n      swap1\n      pop\n        /* \"shijian/1/Zhangpan.sol\":408:496  function getTime() public view returns(uint256){... */\n      swap1\n      jump\t// out\n        /* \"shijian/1/Zhangpan.sol\":502:594  function getBlockHeight() public view returns(uint256){... */\n    tag_24:\n        /* \"shijian/1/Zhangpan.sol\":548:555  uint256 */\n      0x00\n        /* \"shijian/1/Zhangpan.sol\":574:586  block.number */\n      number\n        /* \"shijian/1/Zhangpan.sol\":567:586  return block.number */\n      swap1\n      pop\n        /* \"shijian/1/Zhangpan.sol\":502:594  function getBlockHeight() public view returns(uint256){... */\n      swap1\n      jump\t// out\n        /* \"shijian/1/Zhangpan.sol\":188:289  function getBlockHash() public view returns(bytes32){... */\n    tag_27:\n        /* \"shijian/1/Zhangpan.sol\":232:239  bytes32 */\n      0x00\n        /* \"shijian/1/Zhangpan.sol\":268:280  block.number */\n      number\n        /* \"shijian/1/Zhangpan.sol\":258:281  blockhash(block.number) */\n      blockhash\n        /* \"shijian/1/Zhangpan.sol\":251:281  return blockhash(block.number) */\n      swap1\n      pop\n        /* \"shijian/1/Zhangpan.sol\":188:289  function getBlockHash() public view returns(bytes32){... */\n      swap1\n      jump\t// out\n        /* \"shijian/1/Zhangpan.sol\":795:886  function getCoinBase() public view returns(address){... */\n    tag_30:\n        /* \"shijian/1/Zhangpan.sol\":838:845  address */\n      0x00\n        /* \"shijian/1/Zhangpan.sol\":864:878  block.coinbase */\n      coinbase\n        /* \"shijian/1/Zhangpan.sol\":857:878  return block.coinbase */\n      swap1\n      pop\n        /* \"shijian/1/Zhangpan.sol\":795:886  function getCoinBase() public view returns(address){... */\n      swap1\n      jump\t// out\n        /* \"shijian/1/Zhangpan.sol\":600:695  function getDifficulty() public view returns(uint256){... */\n    tag_34:\n        /* \"shijian/1/Zhangpan.sol\":645:652  uint256 */\n      0x00\n        /* \"shijian/1/Zhangpan.sol\":671:687  block.difficulty */\n      prevrandao\n        /* \"shijian/1/Zhangpan.sol\":664:687  return block.difficulty */\n      swap1\n      pop\n        /* \"shijian/1/Zhangpan.sol\":600:695  function getDifficulty() public view returns(uint256){... */\n      swap1\n      jump\t// out\n        /* \"shijian/1/Zhangpan.sol\":84:182  function getBalance(address add) public view returns(uint256){... */\n    tag_39:\n        /* \"shijian/1/Zhangpan.sol\":137:144  uint256 */\n      0x00\n        /* \"shijian/1/Zhangpan.sol\":163:166  add */\n      dup2\n        /* \"shijian/1/Zhangpan.sol\":163:174  add.balance */\n      0xffffffffffffffffffffffffffffffffffffffff\n      and\n      balance\n        /* \"shijian/1/Zhangpan.sol\":156:174  return add.balance */\n      swap1\n      pop\n        /* \"shijian/1/Zhangpan.sol\":84:182  function getBalance(address add) public view returns(uint256){... */\n      swap2\n      swap1\n      pop\n      jump\t// out\n        /* \"#utility.yul\":7:84   */\n    tag_51:\n        /* \"#utility.yul\":44:51   */\n      0x00\n        /* \"#utility.yul\":73:78   */\n      dup2\n        /* \"#utility.yul\":62:78   */\n      swap1\n      pop\n        /* \"#utility.yul\":7:84   */\n      swap2\n      swap1\n      pop\n      jump\t// out\n        /* \"#utility.yul\":90:208   */\n    tag_52:\n        /* \"#utility.yul\":177:201   */\n      tag_67\n        /* \"#utility.yul\":195:200   */\n      dup2\n        /* \"#utility.yul\":177:201   */\n      tag_51\n      jump\t// in\n    tag_67:\n        /* \"#utility.yul\":172:175   */\n      dup3\n        /* \"#utility.yul\":165:202   */\n      mstore\n        /* \"#utility.yul\":90:208   */\n      pop\n      pop\n      jump\t// out\n        /* \"#utility.yul\":214:436   */\n    tag_15:\n        /* \"#utility.yul\":307:311   */\n      0x00\n        /* \"#utility.yul\":345:347   */\n      0x20\n        /* \"#utility.yul\":334:343   */\n      dup3\n        /* \"#utility.yul\":330:348   */\n      add\n        /* \"#utility.yul\":322:348   */\n      swap1\n      pop\n        /* \"#utility.yul\":358:429   */\n      tag_69\n        /* \"#utility.yul\":426:427   */\n      0x00\n        /* \"#utility.yul\":415:424   */\n      dup4\n        /* \"#utility.yul\":411:428   */\n      add\n        /* \"#utility.yul\":402:408   */\n      dup5\n        /* \"#utility.yul\":358:429   */\n      tag_52\n      jump\t// in\n    tag_69:\n        /* \"#utility.yul\":214:436   */\n      swap3\n      swap2\n      pop\n      pop\n      jump\t// out\n        /* \"#utility.yul\":442:519   */\n    tag_53:\n        /* \"#utility.yul\":479:486   */\n      0x00\n        /* \"#utility.yul\":508:513   */\n      dup2\n        /* \"#utility.yul\":497:513   */\n      swap1\n      pop\n        /* \"#utility.yul\":442:519   */\n      swap2\n      swap1\n      pop\n      jump\t// out\n        /* \"#utility.yul\":525:643   */\n    tag_54:\n        /* \"#utility.yul\":612:636   */\n      tag_72\n        /* \"#utility.yul\":630:635   */\n      dup2\n        /* \"#utility.yul\":612:636   */\n      tag_53\n      jump\t// in\n    tag_72:\n        /* \"#utility.yul\":607:610   */\n      dup3\n        /* \"#utility.yul\":600:637   */\n      mstore\n        /* \"#utility.yul\":525:643   */\n      pop\n      pop\n      jump\t// out\n        /* \"#utility.yul\":649:871   */\n    tag_19:\n        /* \"#utility.yul\":742:746   */\n      0x00\n        /* \"#utility.yul\":780:782   */\n      0x20\n        /* \"#utility.yul\":769:778   */\n      dup3\n        /* \"#utility.yul\":765:783   */\n      add\n        /* \"#utility.yul\":757:783   */\n      swap1\n      pop\n        /* \"#utility.yul\":793:864   */\n      tag_74\n        /* \"#utility.yul\":861:862   */\n      0x00\n        /* \"#utility.yul\":850:859   */\n      dup4\n        /* \"#utility.yul\":846:863   */\n      add\n        /* \"#utility.yul\":837:843   */\n      dup5\n        /* \"#utility.yul\":793:864   */\n      tag_54\n      jump\t// in\n    tag_74:\n        /* \"#utility.yul\":649:871   */\n      swap3\n      swap2\n      pop\n      pop\n      jump\t// out\n        /* \"#utility.yul\":877:1003   */\n    tag_55:\n        /* \"#utility.yul\":914:921   */\n      0x00\n        /* \"#utility.yul\":954:996   */\n      0xffffffffffffffffffffffffffffffffffffffff\n        /* \"#utility.yul\":947:952   */\n      dup3\n        /* \"#utility.yul\":943:997   */\n      and\n        /* \"#utility.yul\":932:997   */\n      swap1\n      pop\n        /* \"#utility.yul\":877:1003   */\n      swap2\n      swap1\n      pop\n      jump\t// out\n        /* \"#utility.yul\":1009:1105   */\n    tag_56:\n        /* \"#utility.yul\":1046:1053   */\n      0x00\n        /* \"#utility.yul\":1075:1099   */\n      tag_77\n        /* \"#utility.yul\":1093:1098   */\n      dup3\n        /* \"#utility.yul\":1075:1099   */\n      tag_55\n      jump\t// in\n    tag_77:\n        /* \"#utility.yul\":1064:1099   */\n      swap1\n      pop\n        /* \"#utility.yul\":1009:1105   */\n      swap2\n      swap1\n      pop\n      jump\t// out\n        /* \"#utility.yul\":1111:1229   */\n    tag_57:\n        /* \"#utility.yul\":1198:1222   */\n      tag_79\n        /* \"#utility.yul\":1216:1221   */\n      dup2\n        /* \"#utility.yul\":1198:1222   */\n      tag_56\n      jump\t// in\n    tag_79:\n        /* \"#utility.yul\":1193:1196   */\n      dup3\n        /* \"#utility.yul\":1186:1223   */\n      mstore\n        /* \"#utility.yul\":1111:1229   */\n      pop\n      pop\n      jump\t// out\n        /* \"#utility.yul\":1235:1457   */\n    tag_32:\n        /* \"#utility.yul\":1328:1332   */\n      0x00\n        /* \"#utility.yul\":1366:1368   */\n      0x20\n        /* \"#utility.yul\":1355:1364   */\n      dup3\n        /* \"#utility.yul\":1351:1369   */\n      add\n        /* \"#utility.yul\":1343:1369   */\n      swap1\n      pop\n        /* \"#utility.yul\":1379:1450   */\n      tag_81\n        /* \"#utility.yul\":1447:1448   */\n      0x00\n        /* \"#utility.yul\":1436:1445   */\n      dup4\n        /* \"#utility.yul\":1432:1449   */\n      add\n        /* \"#utility.yul\":1423:1429   */\n      dup5\n        /* \"#utility.yul\":1379:1450   */\n      tag_57\n      jump\t// in\n    tag_81:\n        /* \"#utility.yul\":1235:1457   */\n      swap3\n      swap2\n      pop\n      pop\n      jump\t// out\n        /* \"#utility.yul\":1544:1661   */\n    tag_59:\n        /* \"#utility.yul\":1653:1654   */\n      0x00\n        /* \"#utility.yul\":1650:1651   */\n      dup1\n        /* \"#utility.yul\":1643:1655   */\n      revert\n        /* \"#utility.yul\":1790:1912   */\n    tag_61:\n        /* \"#utility.yul\":1863:1887   */\n      tag_86\n        /* \"#utility.yul\":1881:1886   */\n      dup2\n        /* \"#utility.yul\":1863:1887   */\n      tag_56\n      jump\t// in\n    tag_86:\n        /* \"#utility.yul\":1856:1861   */\n      dup2\n        /* \"#utility.yul\":1853:1888   */\n      eq\n        /* \"#utility.yul\":1843:1906   */\n      tag_87\n      jumpi\n        /* \"#utility.yul\":1902:1903   */\n      0x00\n        /* \"#utility.yul\":1899:1900   */\n      dup1\n        /* \"#utility.yul\":1892:1904   */\n      revert\n        /* \"#utility.yul\":1843:1906   */\n    tag_87:\n        /* \"#utility.yul\":1790:1912   */\n      pop\n      jump\t// out\n        /* \"#utility.yul\":1918:2057   */\n    tag_62:\n        /* \"#utility.yul\":1964:1969   */\n      0x00\n        /* \"#utility.yul\":2002:2008   */\n      dup2\n        /* \"#utility.yul\":1989:2009   */\n      calldataload\n        /* \"#utility.yul\":1980:2009   */\n      swap1\n      pop\n        /* \"#utility.yul\":2018:2051   */\n      tag_89\n        /* \"#utility.yul\":2045:2050   */\n      dup2\n        /* \"#utility.yul\":2018:2051   */\n      tag_61\n      jump\t// in\n    tag_89:\n        /* \"#utility.yul\":1918:2057   */\n      swap3\n      swap2\n      pop\n      pop\n      jump\t// out\n        /* \"#utility.yul\":2063:2392   */\n    tag_38:\n        /* \"#utility.yul\":2122:2128   */\n      0x00\n        /* \"#utility.yul\":2171:2173   */\n      0x20\n        /* \"#utility.yul\":2159:2168   */\n      dup3\n        /* \"#utility.yul\":2150:2157   */\n      dup5\n        /* \"#utility.yul\":2146:2169   */\n      sub\n        /* \"#utility.yul\":2142:2174   */\n      slt\n        /* \"#utility.yul\":2139:2258   */\n      iszero\n      tag_91\n      jumpi\n        /* \"#utility.yul\":2177:2256   */\n      tag_92\n      tag_59\n      jump\t// in\n    tag_92:\n        /* \"#utility.yul\":2139:2258   */\n    tag_91:\n        /* \"#utility.yul\":2297:2298   */\n      0x00\n        /* \"#utility.yul\":2322:2375   */\n      tag_93\n        /* \"#utility.yul\":2367:2374   */\n      dup5\n        /* \"#utility.yul\":2358:2364   */\n      dup3\n        /* \"#utility.yul\":2347:2356   */\n      dup6\n        /* \"#utility.yul\":2343:2365   */\n      add\n        /* \"#utility.yul\":2322:2375   */\n      tag_62\n      jump\t// in\n    tag_93:\n        /* \"#utility.yul\":2312:2375   */\n      swap2\n      pop\n        /* \"#utility.yul\":2268:2385   */\n      pop\n        /* \"#utility.yul\":2063:2392   */\n      swap3\n      swap2\n      pop\n      pop\n      jump\t// out\n        /* \"#utility.yul\":2398:2578   */\n    tag_63:\n        /* \"#utility.yul\":2446:2523   */\n      0x4e487b7100000000000000000000000000000000000000000000000000000000\n        /* \"#utility.yul\":2443:2444   */\n      0x00\n        /* \"#utility.yul\":2436:2524   */\n      mstore\n        /* \"#utility.yul\":2543:2547   */\n      0x11\n        /* \"#utility.yul\":2540:2541   */\n      0x04\n        /* \"#utility.yul\":2533:2548   */\n      mstore\n        /* \"#utility.yul\":2567:2571   */\n      0x24\n        /* \"#utility.yul\":2564:2565   */\n      0x00\n        /* \"#utility.yul\":2557:2572   */\n      revert\n        /* \"#utility.yul\":2584:2778   */\n    tag_44:\n        /* \"#utility.yul\":2624:2628   */\n      0x00\n        /* \"#utility.yul\":2644:2664   */\n      tag_96\n        /* \"#utility.yul\":2662:2663   */\n      dup3\n        /* \"#utility.yul\":2644:2664   */\n      tag_51\n      jump\t// in\n    tag_96:\n        /* \"#utility.yul\":2639:2664   */\n      swap2\n      pop\n        /* \"#utility.yul\":2678:2698   */\n      tag_97\n        /* \"#utility.yul\":2696:2697   */\n      dup4\n        /* \"#utility.yul\":2678:2698   */\n      tag_51\n      jump\t// in\n    tag_97:\n        /* \"#utility.yul\":2673:2698   */\n      swap3\n      pop\n        /* \"#utility.yul\":2722:2723   */\n      dup3\n        /* \"#utility.yul\":2719:2720   */\n      dup3\n        /* \"#utility.yul\":2715:2724   */\n      sub\n        /* \"#utility.yul\":2707:2724   */\n      swap1\n      pop\n        /* \"#utility.yul\":2746:2747   */\n      dup2\n        /* \"#utility.yul\":2740:2744   */\n      dup2\n        /* \"#utility.yul\":2737:2748   */\n      gt\n        /* \"#utility.yul\":2734:2771   */\n      iszero\n      tag_98\n      jumpi\n        /* \"#utility.yul\":2751:2769   */\n      tag_99\n      tag_63\n      jump\t// in\n    tag_99:\n        /* \"#utility.yul\":2734:2771   */\n    tag_98:\n        /* \"#utility.yul\":2584:2778   */\n      swap3\n      swap2\n      pop\n      pop\n      jump\t// out\n\n    auxdata: 0xa26469706673582212206de2ee84311b77283e32b949a7be37d60e4bf635b3fe28cab73450b7d7eb582864736f6c63430008130033\n}\n",
				"bytecode": {
					"linkReferences": {},
					"object": "608060405234801561001057600080fd5b506103b1806100206000396000f3fe608060405234801561001057600080fd5b50600436106100885760003560e01c80639663f88f1161005b5780639663f88f14610105578063971ce64114610123578063b6baffe314610141578063f8b2cb4f1461015f57610088565b80631a93d1c31461008d57806327e86d6e146100ab578063557ed1ba146100c95780637bb96acb146100e7575b600080fd5b61009561018f565b6040516100a2919061020f565b60405180910390f35b6100b3610197565b6040516100c09190610243565b60405180910390f35b6100d16101ac565b6040516100de919061020f565b60405180910390f35b6100ef6101b4565b6040516100fc919061020f565b60405180910390f35b61010d6101bc565b60405161011a9190610243565b60405180910390f35b61012b6101c5565b604051610138919061029f565b60405180910390f35b6101496101cd565b604051610156919061020f565b60405180910390f35b610179600480360381019061017491906102eb565b6101d5565b604051610186919061020f565b60405180910390f35b600045905090565b60006001436101a69190610347565b40905090565b600042905090565b600043905090565b60004340905090565b600041905090565b600044905090565b60008173ffffffffffffffffffffffffffffffffffffffff16319050919050565b6000819050919050565b610209816101f6565b82525050565b60006020820190506102246000830184610200565b92915050565b6000819050919050565b61023d8161022a565b82525050565b60006020820190506102586000830184610234565b92915050565b600073ffffffffffffffffffffffffffffffffffffffff82169050919050565b60006102898261025e565b9050919050565b6102998161027e565b82525050565b60006020820190506102b46000830184610290565b92915050565b600080fd5b6102c88161027e565b81146102d357600080fd5b50565b6000813590506102e5816102bf565b92915050565b600060208284031215610301576103006102ba565b5b600061030f848285016102d6565b91505092915050565b7f4e487b7100000000000000000000000000000000000000000000000000000000600052601160045260246000fd5b6000610352826101f6565b915061035d836101f6565b925082820390508181111561037557610374610318565b5b9291505056fea26469706673582212206de2ee84311b77283e32b949a7be37d60e4bf635b3fe28cab73450b7d7eb582864736f6c63430008130033",
					"opcodes": "PUSH1 0x80 PUSH1 0x40 MSTORE CALLVALUE DUP1 ISZERO PUSH2 0x10 JUMPI PUSH1 0x0 DUP1 REVERT JUMPDEST POP PUSH2 0x3B1 DUP1 PUSH2 0x20 PUSH1 0x0 CODECOPY PUSH1 0x0 RETURN INVALID PUSH1 0x80 PUSH1 0x40 MSTORE CALLVALUE DUP1 ISZERO PUSH2 0x10 JUMPI PUSH1 0x0 DUP1 REVERT JUMPDEST POP PUSH1 0x4 CALLDATASIZE LT PUSH2 0x88 JUMPI PUSH1 0x0 CALLDATALOAD PUSH1 0xE0 SHR DUP1 PUSH4 0x9663F88F GT PUSH2 0x5B JUMPI DUP1 PUSH4 0x9663F88F EQ PUSH2 0x105 JUMPI DUP1 PUSH4 0x971CE641 EQ PUSH2 0x123 JUMPI DUP1 PUSH4 0xB6BAFFE3 EQ PUSH2 0x141 JUMPI DUP1 PUSH4 0xF8B2CB4F EQ PUSH2 0x15F JUMPI PUSH2 0x88 JUMP JUMPDEST DUP1 PUSH4 0x1A93D1C3 EQ PUSH2 0x8D JUMPI DUP1 PUSH4 0x27E86D6E EQ PUSH2 0xAB JUMPI DUP1 PUSH4 0x557ED1BA EQ PUSH2 0xC9 JUMPI DUP1 PUSH4 0x7BB96ACB EQ PUSH2 0xE7 JUMPI JUMPDEST PUSH1 0x0 DUP1 REVERT JUMPDEST PUSH2 0x95 PUSH2 0x18F JUMP JUMPDEST PUSH1 0x40 MLOAD PUSH2 0xA2 SWAP2 SWAP1 PUSH2 0x20F JUMP JUMPDEST PUSH1 0x40 MLOAD DUP1 SWAP2 SUB SWAP1 RETURN JUMPDEST PUSH2 0xB3 PUSH2 0x197 JUMP JUMPDEST PUSH1 0x40 MLOAD PUSH2 0xC0 SWAP2 SWAP1 PUSH2 0x243 JUMP JUMPDEST PUSH1 0x40 MLOAD DUP1 SWAP2 SUB SWAP1 RETURN JUMPDEST PUSH2 0xD1 PUSH2 0x1AC JUMP JUMPDEST PUSH1 0x40 MLOAD PUSH2 0xDE SWAP2 SWAP1 PUSH2 0x20F JUMP JUMPDEST PUSH1 0x40 MLOAD DUP1 SWAP2 SUB SWAP1 RETURN JUMPDEST PUSH2 0xEF PUSH2 0x1B4 JUMP JUMPDEST PUSH1 0x40 MLOAD PUSH2 0xFC SWAP2 SWAP1 PUSH2 0x20F JUMP JUMPDEST PUSH1 0x40 MLOAD DUP1 SWAP2 SUB SWAP1 RETURN JUMPDEST PUSH2 0x10D PUSH2 0x1BC JUMP JUMPDEST PUSH1 0x40 MLOAD PUSH2 0x11A SWAP2 SWAP1 PUSH2 0x243 JUMP JUMPDEST PUSH1 0x40 MLOAD DUP1 SWAP2 SUB SWAP1 RETURN JUMPDEST PUSH2 0x12B PUSH2 0x1C5 JUMP JUMPDEST PUSH1 0x40 MLOAD PUSH2 0x138 SWAP2 SWAP1 PUSH2 0x29F JUMP JUMPDEST PUSH1 0x40 MLOAD DUP1 SWAP2 SUB SWAP1 RETURN JUMPDEST PUSH2 0x149 PUSH2 0x1CD JUMP JUMPDEST PUSH1 0x40 MLOAD PUSH2 0x156 SWAP2 SWAP1 PUSH2 0x20F JUMP JUMPDEST PUSH1 0x40 MLOAD DUP1 SWAP2 SUB SWAP1 RETURN JUMPDEST PUSH2 0x179 PUSH1 0x4 DUP1 CALLDATASIZE SUB DUP2 ADD SWAP1 PUSH2 0x174 SWAP2 SWAP1 PUSH2 0x2EB JUMP JUMPDEST PUSH2 0x1D5 JUMP JUMPDEST PUSH1 0x40 MLOAD PUSH2 0x186 SWAP2 SWAP1 PUSH2 0x20F JUMP JUMPDEST PUSH1 0x40 MLOAD DUP1 SWAP2 SUB SWAP1 RETURN JUMPDEST PUSH1 0x0 GASLIMIT SWAP1 POP SWAP1 JUMP JUMPDEST PUSH1 0x0 PUSH1 0x1 NUMBER PUSH2 0x1A6 SWAP2 SWAP1 PUSH2 0x347 JUMP JUMPDEST BLOCKHASH SWAP1 POP SWAP1 JUMP JUMPDEST PUSH1 0x0 TIMESTAMP SWAP1 POP SWAP1 JUMP JUMPDEST PUSH1 0x0 NUMBER SWAP1 POP SWAP1 JUMP JUMPDEST PUSH1 0x0 NUMBER BLOCKHASH SWAP1 POP SWAP1 JUMP JUMPDEST PUSH1 0x0 COINBASE SWAP1 POP SWAP1 JUMP JUMPDEST PUSH1 0x0 PREVRANDAO SWAP1 POP SWAP1 JUMP JUMPDEST PUSH1 0x0 DUP2 PUSH20 0xFFFFFFFFFFFFFFFFFFFFFFFFFFFFFFFFFFFFFFFF AND BALANCE SWAP1 POP SWAP2 SWAP1 POP JUMP JUMPDEST PUSH1 0x0 DUP2 SWAP1 POP SWAP2 SWAP1 POP JUMP JUMPDEST PUSH2 0x209 DUP2 PUSH2 0x1F6 JUMP JUMPDEST DUP3 MSTORE POP POP JUMP JUMPDEST PUSH1 0x0 PUSH1 0x20 DUP3 ADD SWAP1 POP PUSH2 0x224 PUSH1 0x0 DUP4 ADD DUP5 PUSH2 0x200 JUMP JUMPDEST SWAP3 SWAP2 POP POP JUMP JUMPDEST PUSH1 0x0 DUP2 SWAP1 POP SWAP2 SWAP1 POP JUMP JUMPDEST PUSH2 0x23D DUP2 PUSH2 0x22A JUMP JUMPDEST DUP3 MSTORE POP POP JUMP JUMPDEST PUSH1 0x0 PUSH1 0x20 DUP3 ADD SWAP1 POP PUSH2 0x258 PUSH1 0x0 DUP4 ADD DUP5 PUSH2 0x234 JUMP JUMPDEST SWAP3 SWAP2 POP POP JUMP JUMPDEST PUSH1 0x0 PUSH20 0xFFFFFFFFFFFFFFFFFFFFFFFFFFFFFFFFFFFFFFFF DUP3 AND SWAP1 POP SWAP2 SWAP1 POP JUMP JUMPDEST PUSH1 0x0 PUSH2 0x289 DUP3 PUSH2 0x25E JUMP JUMPDEST SWAP1 POP SWAP2 SWAP1 POP JUMP JUMPDEST PUSH2 0x299 DUP2 PUSH2 0x27E JUMP JUMPDEST DUP3 MSTORE POP POP JUMP JUMPDEST PUSH1 0x0 PUSH1 0x20 DUP3 ADD SWAP1 POP PUSH2 0x2B4 PUSH1 0x0 DUP4 ADD DUP5 PUSH2 0x290 JUMP JUMPDEST SWAP3 SWAP2 POP POP JUMP JUMPDEST PUSH1 0x0 DUP1 REVERT JUMPDEST PUSH2 0x2C8 DUP2 PUSH2 0x27E JUMP JUMPDEST DUP2 EQ PUSH2 0x2D3 JUMPI PUSH1 0x0 DUP1 REVERT JUMPDEST POP JUMP JUMPDEST PUSH1 0x0 DUP2 CALLDATALOAD SWAP1 POP PUSH2 0x2E5 DUP2 PUSH2 0x2BF JUMP JUMPDEST SWAP3 SWAP2 POP POP JUMP JUMPDEST PUSH1 0x0 PUSH1 0x20 DUP3 DUP5 SUB SLT ISZERO PUSH2 0x301 JUMPI PUSH2 0x300 PUSH2 0x2BA JUMP JUMPDEST JUMPDEST PUSH1 0x0 PUSH2 0x30F DUP5 DUP3 DUP6 ADD PUSH2 0x2D6 JUMP JUMPDEST SWAP2 POP POP SWAP3 SWAP2 POP POP JUMP JUMPDEST PUSH32 0x4E487B7100000000000000000000000000000000000000000000000000000000 PUSH1 0x0 MSTORE PUSH1 0x11 PUSH1 0x4 MSTORE PUSH1 0x24 PUSH1 0x0 REVERT JUMPDEST PUSH1 0x0 PUSH2 0x352 DUP3 PUSH2 0x1F6 JUMP JUMPDEST SWAP2 POP PUSH2 0x35D DUP4 PUSH2 0x1F6 JUMP JUMPDEST SWAP3 POP DUP3 DUP3 SUB SWAP1 POP DUP2 DUP2 GT ISZERO PUSH2 0x375 JUMPI PUSH2 0x374 PUSH2 0x318 JUMP JUMPDEST JUMPDEST SWAP3 SWAP2 POP POP JUMP INVALID LOG2 PUSH5 0x6970667358 0x22 SLT KECCAK256 PUSH14 0xE2EE84311B77283E32B949A7BE37 0xD6 0xE 0x4B 0xF6 CALLDATALOAD 0xB3 INVALID 0x28 0xCA 0xB7 CALLVALUE POP 0xB7 0xD7 0xEB PC 0x28 PUSH5 0x736F6C6343 STOP ADDMOD SGT STOP CALLER "
				},
				"gasEstimates": {
					"creation": {
						"codeDepositCost": "189000",
						"executionCost": "232",
						"totalCost": "189232"
					},
					"external": {
						"getBalance(address)": "3323",
						"getBlockHash()": "356",
						"getBlockHeight()": "403",
						"getCoinBase()": "407",
						"getDifficulty()": "380",
						"getGasLimit()": "337",
						"getLastBlockHash()": "infinite",
						"getTime()": "381"
					}
				},
				"methodIdentifiers": {
					"getBalance(address)": "f8b2cb4f",
					"getBlockHash()": "9663f88f",
					"getBlockHeight()": "7bb96acb",
					"getCoinBase()": "971ce641",
					"getDifficulty()": "b6baffe3",
					"getGasLimit()": "1a93d1c3",
					"getLastBlockHash()": "27e86d6e",
					"getTime()": "557ed1ba"
				}
			},
			"storageLayout": {
				"storage": [],
				"types": null
			},
			"userdoc": {
				"kind": "user",
				"methods": {},
				"version": 1
			}
		}
	}
}