{
	"defi-theory/contracts/001_Vault_start.sol": {
		"Vault": {
			"abi": [
				{
					"inputs": [
						{
							"internalType": "address",
							"name": "_token",
							"type": "address"
						}
					],
					"stateMutability": "nonpayable",
					"type": "constructor"
				},
				{
					"inputs": [
						{
							"internalType": "address",
							"name": "",
							"type": "address"
						}
					],
					"name": "balanceOf",
					"outputs": [
						{
							"internalType": "uint256",
							"name": "",
							"type": "uint256"
						}
					],
					"stateMutability": "view",
					"type": "function"
				},
				{
					"inputs": [
						{
							"internalType": "uint256",
							"name": "_amount",
							"type": "uint256"
						}
					],
					"name": "deposit",
					"outputs": [],
					"stateMutability": "nonpayable",
					"type": "function"
				},
				{
					"inputs": [],
					"name": "token",
					"outputs": [
						{
							"internalType": "contract IERC20",
							"name": "",
							"type": "address"
						}
					],
					"stateMutability": "view",
					"type": "function"
				},
				{
					"inputs": [],
					"name": "totalSupply",
					"outputs": [
						{
							"internalType": "uint256",
							"name": "",
							"type": "uint256"
						}
					],
					"stateMutability": "view",
					"type": "function"
				},
				{
					"inputs": [
						{
							"internalType": "uint256",
							"name": "_shares",
							"type": "uint256"
						}
					],
					"name": "withdraw",
					"outputs": [],
					"stateMutability": "nonpayable",
					"type": "function"
				}
			],
			"devdoc": {
				"kind": "dev",
				"methods": {},
				"version": 1
			},
			"evm": {
				"assembly": "    /* \"defi-theory/contracts/001_Vault_start.sol\":134:999  contract Vault {... */\n  mstore(0x40, 0xa0)\n    /* \"defi-theory/contracts/001_Vault_start.sol\":260:321  constructor(address _token) {... */\n  callvalue\n  dup1\n  iszero\n  tag_1\n  jumpi\n  0x00\n  dup1\n  revert\ntag_1:\n  pop\n  mload(0x40)\n  sub(codesize, bytecodeSize)\n  dup1\n  bytecodeSize\n  dup4\n  codecopy\n  dup2\n  dup2\n  add\n  0x40\n  mstore\n  dup2\n  add\n  swap1\n  tag_2\n  swap2\n  swap1\n  tag_3\n  jump\t// in\ntag_2:\n    /* \"defi-theory/contracts/001_Vault_start.sol\":309:315  _token */\n  dup1\n    /* \"defi-theory/contracts/001_Vault_start.sol\":294:316  token = IERC20(_token) */\n  0xffffffffffffffffffffffffffffffffffffffff\n  and\n  0x80\n  dup2\n  0xffffffffffffffffffffffffffffffffffffffff\n  and\n  dup2\n  mstore\n  pop\n  pop\n    /* \"defi-theory/contracts/001_Vault_start.sol\":260:321  constructor(address _token) {... */\n  pop\n    /* \"defi-theory/contracts/001_Vault_start.sol\":134:999  contract Vault {... */\n  jump(tag_6)\n    /* \"#utility.yul\":88:205   */\ntag_8:\n    /* \"#utility.yul\":197:198   */\n  0x00\n    /* \"#utility.yul\":194:195   */\n  dup1\n    /* \"#utility.yul\":187:199   */\n  revert\n    /* \"#utility.yul\":334:460   */\ntag_10:\n    /* \"#utility.yul\":371:378   */\n  0x00\n    /* \"#utility.yul\":411:453   */\n  0xffffffffffffffffffffffffffffffffffffffff\n    /* \"#utility.yul\":404:409   */\n  dup3\n    /* \"#utility.yul\":400:454   */\n  and\n    /* \"#utility.yul\":389:454   */\n  swap1\n  pop\n    /* \"#utility.yul\":334:460   */\n  swap2\n  swap1\n  pop\n  jump\t// out\n    /* \"#utility.yul\":466:562   */\ntag_11:\n    /* \"#utility.yul\":503:510   */\n  0x00\n    /* \"#utility.yul\":532:556   */\n  tag_20\n    /* \"#utility.yul\":550:555   */\n  dup3\n    /* \"#utility.yul\":532:556   */\n  tag_10\n  jump\t// in\ntag_20:\n    /* \"#utility.yul\":521:556   */\n  swap1\n  pop\n    /* \"#utility.yul\":466:562   */\n  swap2\n  swap1\n  pop\n  jump\t// out\n    /* \"#utility.yul\":568:690   */\ntag_12:\n    /* \"#utility.yul\":641:665   */\n  tag_22\n    /* \"#utility.yul\":659:664   */\n  dup2\n    /* \"#utility.yul\":641:665   */\n  tag_11\n  jump\t// in\ntag_22:\n    /* \"#utility.yul\":634:639   */\n  dup2\n    /* \"#utility.yul\":631:666   */\n  eq\n    /* \"#utility.yul\":621:684   */\n  tag_23\n  jumpi\n    /* \"#utility.yul\":680:681   */\n  0x00\n    /* \"#utility.yul\":677:678   */\n  dup1\n    /* \"#utility.yul\":670:682   */\n  revert\n    /* \"#utility.yul\":621:684   */\ntag_23:\n    /* \"#utility.yul\":568:690   */\n  pop\n  jump\t// out\n    /* \"#utility.yul\":696:839   */\ntag_13:\n    /* \"#utility.yul\":753:758   */\n  0x00\n    /* \"#utility.yul\":784:790   */\n  dup2\n    /* \"#utility.yul\":778:791   */\n  mload\n    /* \"#utility.yul\":769:791   */\n  swap1\n  pop\n    /* \"#utility.yul\":800:833   */\n  tag_25\n    /* \"#utility.yul\":827:832   */\n  dup2\n    /* \"#utility.yul\":800:833   */\n  tag_12\n  jump\t// in\ntag_25:\n    /* \"#utility.yul\":696:839   */\n  swap3\n  swap2\n  pop\n  pop\n  jump\t// out\n    /* \"#utility.yul\":845:1196   */\ntag_3:\n    /* \"#utility.yul\":915:921   */\n  0x00\n    /* \"#utility.yul\":964:966   */\n  0x20\n    /* \"#utility.yul\":952:961   */\n  dup3\n    /* \"#utility.yul\":943:950   */\n  dup5\n    /* \"#utility.yul\":939:962   */\n  sub\n    /* \"#utility.yul\":935:967   */\n  slt\n    /* \"#utility.yul\":932:1051   */\n  iszero\n  tag_27\n  jumpi\n    /* \"#utility.yul\":970:1049   */\n  tag_28\n  tag_8\n  jump\t// in\ntag_28:\n    /* \"#utility.yul\":932:1051   */\ntag_27:\n    /* \"#utility.yul\":1090:1091   */\n  0x00\n    /* \"#utility.yul\":1115:1179   */\n  tag_29\n    /* \"#utility.yul\":1171:1178   */\n  dup5\n    /* \"#utility.yul\":1162:1168   */\n  dup3\n    /* \"#utility.yul\":1151:1160   */\n  dup6\n    /* \"#utility.yul\":1147:1169   */\n  add\n    /* \"#utility.yul\":1115:1179   */\n  tag_13\n  jump\t// in\ntag_29:\n    /* \"#utility.yul\":1105:1179   */\n  swap2\n  pop\n    /* \"#utility.yul\":1061:1189   */\n  pop\n    /* \"#utility.yul\":845:1196   */\n  swap3\n  swap2\n  pop\n  pop\n  jump\t// out\n    /* \"defi-theory/contracts/001_Vault_start.sol\":134:999  contract Vault {... */\ntag_6:\n  mload(0x80)\n  codecopy(0x00, dataOffset(sub_0), dataSize(sub_0))\n  0x00\n  assignImmutable(\"0xcc193713febc75d3d9bd2f9ce113f403ff19633f15c8cdbcf79756ae23e77f9a\")\n  return(0x00, dataSize(sub_0))\nstop\n\nsub_0: assembly {\n        /* \"defi-theory/contracts/001_Vault_start.sol\":134:999  contract Vault {... */\n      mstore(0x40, 0x80)\n      callvalue\n      dup1\n      iszero\n      tag_1\n      jumpi\n      0x00\n      dup1\n      revert\n    tag_1:\n      pop\n      jumpi(tag_2, lt(calldatasize, 0x04))\n      shr(0xe0, calldataload(0x00))\n      dup1\n      0x18160ddd\n      eq\n      tag_3\n      jumpi\n      dup1\n      0x2e1a7d4d\n      eq\n      tag_4\n      jumpi\n      dup1\n      0x70a08231\n      eq\n      tag_5\n      jumpi\n      dup1\n      0xb6b55f25\n      eq\n      tag_6\n      jumpi\n      dup1\n      0xfc0c546a\n      eq\n      tag_7\n      jumpi\n    tag_2:\n      0x00\n      dup1\n      revert\n        /* \"defi-theory/contracts/001_Vault_start.sol\":187:210  uint public totalSupply */\n    tag_3:\n      tag_8\n      tag_9\n      jump\t// in\n    tag_8:\n      mload(0x40)\n      tag_10\n      swap2\n      swap1\n      tag_11\n      jump\t// in\n    tag_10:\n      mload(0x40)\n      dup1\n      swap2\n      sub\n      swap1\n      return\n        /* \"defi-theory/contracts/001_Vault_start.sol\":752:995  function withdraw(uint _shares) external {... */\n    tag_4:\n      tag_12\n      0x04\n      dup1\n      calldatasize\n      sub\n      dup2\n      add\n      swap1\n      tag_13\n      swap2\n      swap1\n      tag_14\n      jump\t// in\n    tag_13:\n      tag_15\n      jump\t// in\n    tag_12:\n      stop\n        /* \"defi-theory/contracts/001_Vault_start.sol\":214:255  mapping(address => uint) public balanceOf */\n    tag_5:\n      tag_16\n      0x04\n      dup1\n      calldatasize\n      sub\n      dup2\n      add\n      swap1\n      tag_17\n      swap2\n      swap1\n      tag_18\n      jump\t// in\n    tag_17:\n      tag_19\n      jump\t// in\n    tag_16:\n      mload(0x40)\n      tag_20\n      swap2\n      swap1\n      tag_11\n      jump\t// in\n    tag_20:\n      mload(0x40)\n      dup1\n      swap2\n      sub\n      swap1\n      return\n        /* \"defi-theory/contracts/001_Vault_start.sol\":565:748  function deposit(uint _amount) external {... */\n    tag_6:\n      tag_21\n      0x04\n      dup1\n      calldatasize\n      sub\n      dup2\n      add\n      swap1\n      tag_22\n      swap2\n      swap1\n      tag_14\n      jump\t// in\n    tag_22:\n      tag_23\n      jump\t// in\n    tag_21:\n      stop\n        /* \"defi-theory/contracts/001_Vault_start.sol\":153:182  IERC20 public immutable token */\n    tag_7:\n      tag_24\n      tag_25\n      jump\t// in\n    tag_24:\n      mload(0x40)\n      tag_26\n      swap2\n      swap1\n      tag_27\n      jump\t// in\n    tag_26:\n      mload(0x40)\n      dup1\n      swap2\n      sub\n      swap1\n      return\n        /* \"defi-theory/contracts/001_Vault_start.sol\":187:210  uint public totalSupply */\n    tag_9:\n      sload(0x00)\n      dup2\n      jump\t// out\n        /* \"defi-theory/contracts/001_Vault_start.sol\":752:995  function withdraw(uint _shares) external {... */\n    tag_15:\n        /* \"defi-theory/contracts/001_Vault_start.sol\":817:818  0 */\n      0x00\n        /* \"defi-theory/contracts/001_Vault_start.sol\":807:814  _shares */\n      dup2\n        /* \"defi-theory/contracts/001_Vault_start.sol\":807:818  _shares > 0 */\n      gt\n        /* \"defi-theory/contracts/001_Vault_start.sol\":799:839  require(_shares > 0, \"_shares cannot 0\") */\n      tag_29\n      jumpi\n      mload(0x40)\n      0x08c379a000000000000000000000000000000000000000000000000000000000\n      dup2\n      mstore\n      0x04\n      add\n      tag_30\n      swap1\n      tag_31\n      jump\t// in\n    tag_30:\n      mload(0x40)\n      dup1\n      swap2\n      sub\n      swap1\n      revert\n    tag_29:\n        /* \"defi-theory/contracts/001_Vault_start.sol\":845:859  uint256 amount */\n      0x00\n        /* \"defi-theory/contracts/001_Vault_start.sol\":906:917  totalSupply */\n      dup1\n      sload\n        /* \"defi-theory/contracts/001_Vault_start.sol\":896:903  _shares */\n      dup3\n        /* \"defi-theory/contracts/001_Vault_start.sol\":896:917  _shares / totalSupply */\n      tag_32\n      swap2\n      swap1\n      tag_33\n      jump\t// in\n    tag_32:\n        /* \"defi-theory/contracts/001_Vault_start.sol\":862:867  token */\n      immutable(\"0xcc193713febc75d3d9bd2f9ce113f403ff19633f15c8cdbcf79756ae23e77f9a\")\n        /* \"defi-theory/contracts/001_Vault_start.sol\":862:877  token.balanceOf */\n      0xffffffffffffffffffffffffffffffffffffffff\n      and\n      0x70a08231\n        /* \"defi-theory/contracts/001_Vault_start.sol\":886:890  this */\n      address\n        /* \"defi-theory/contracts/001_Vault_start.sol\":862:892  token.balanceOf(address(this)) */\n      mload(0x40)\n      dup3\n      0xffffffff\n      and\n      0xe0\n      shl\n      dup2\n      mstore\n      0x04\n      add\n      tag_34\n      swap2\n      swap1\n      tag_35\n      jump\t// in\n    tag_34:\n      0x20\n      mload(0x40)\n      dup1\n      dup4\n      sub\n      dup2\n      dup7\n      gas\n      staticcall\n      iszero\n      dup1\n      iszero\n      tag_37\n      jumpi\n      returndatasize\n      0x00\n      dup1\n      returndatacopy\n      revert(0x00, returndatasize)\n    tag_37:\n      pop\n      pop\n      pop\n      pop\n      mload(0x40)\n      returndatasize\n      not(0x1f)\n      0x1f\n      dup3\n      add\n      and\n      dup3\n      add\n      dup1\n      0x40\n      mstore\n      pop\n      dup2\n      add\n      swap1\n      tag_38\n      swap2\n      swap1\n      tag_39\n      jump\t// in\n    tag_38:\n        /* \"defi-theory/contracts/001_Vault_start.sol\":862:918  token.balanceOf(address(this)) * (_shares / totalSupply) */\n      tag_40\n      swap2\n      swap1\n      tag_41\n      jump\t// in\n    tag_40:\n        /* \"defi-theory/contracts/001_Vault_start.sol\":845:918  uint256 amount = token.balanceOf(address(this)) * (_shares / totalSupply) */\n      swap1\n      pop\n        /* \"defi-theory/contracts/001_Vault_start.sol\":924:950  _burn(msg.sender, _shares) */\n      tag_42\n        /* \"defi-theory/contracts/001_Vault_start.sol\":930:940  msg.sender */\n      caller\n        /* \"defi-theory/contracts/001_Vault_start.sol\":942:949  _shares */\n      dup4\n        /* \"defi-theory/contracts/001_Vault_start.sol\":924:929  _burn */\n      tag_43\n        /* \"defi-theory/contracts/001_Vault_start.sol\":924:950  _burn(msg.sender, _shares) */\n      jump\t// in\n    tag_42:\n        /* \"defi-theory/contracts/001_Vault_start.sol\":956:961  token */\n      immutable(\"0xcc193713febc75d3d9bd2f9ce113f403ff19633f15c8cdbcf79756ae23e77f9a\")\n        /* \"defi-theory/contracts/001_Vault_start.sol\":956:970  token.transfer */\n      0xffffffffffffffffffffffffffffffffffffffff\n      and\n      0xa9059cbb\n        /* \"defi-theory/contracts/001_Vault_start.sol\":971:981  msg.sender */\n      caller\n        /* \"defi-theory/contracts/001_Vault_start.sol\":983:989  amount */\n      dup4\n        /* \"defi-theory/contracts/001_Vault_start.sol\":956:990  token.transfer(msg.sender, amount) */\n      mload(0x40)\n      dup4\n      0xffffffff\n      and\n      0xe0\n      shl\n      dup2\n      mstore\n      0x04\n      add\n      tag_44\n      swap3\n      swap2\n      swap1\n      tag_45\n      jump\t// in\n    tag_44:\n      0x20\n      mload(0x40)\n      dup1\n      dup4\n      sub\n      dup2\n      0x00\n      dup8\n      gas\n      call\n      iszero\n      dup1\n      iszero\n      tag_47\n      jumpi\n      returndatasize\n      0x00\n      dup1\n      returndatacopy\n      revert(0x00, returndatasize)\n    tag_47:\n      pop\n      pop\n      pop\n      pop\n      mload(0x40)\n      returndatasize\n      not(0x1f)\n      0x1f\n      dup3\n      add\n      and\n      dup3\n      add\n      dup1\n      0x40\n      mstore\n      pop\n      dup2\n      add\n      swap1\n      tag_48\n      swap2\n      swap1\n      tag_49\n      jump\t// in\n    tag_48:\n      pop\n        /* \"defi-theory/contracts/001_Vault_start.sol\":793:995  {... */\n      pop\n        /* \"defi-theory/contracts/001_Vault_start.sol\":752:995  function withdraw(uint _shares) external {... */\n      pop\n      jump\t// out\n        /* \"defi-theory/contracts/001_Vault_start.sol\":214:255  mapping(address => uint) public balanceOf */\n    tag_19:\n      mstore(0x20, 0x01)\n      dup1\n      0x00\n      mstore\n      keccak256(0x00, 0x40)\n      0x00\n      swap2\n      pop\n      swap1\n      pop\n      sload\n      dup2\n      jump\t// out\n        /* \"defi-theory/contracts/001_Vault_start.sol\":565:748  function deposit(uint _amount) external {... */\n    tag_23:\n        /* \"defi-theory/contracts/001_Vault_start.sol\":629:630  0 */\n      0x00\n        /* \"defi-theory/contracts/001_Vault_start.sol\":619:626  _amount */\n      dup2\n        /* \"defi-theory/contracts/001_Vault_start.sol\":619:630  _amount > 0 */\n      gt\n        /* \"defi-theory/contracts/001_Vault_start.sol\":611:651  require(_amount > 0, \"_amount cannot 0\") */\n      tag_51\n      jumpi\n      mload(0x40)\n      0x08c379a000000000000000000000000000000000000000000000000000000000\n      dup2\n      mstore\n      0x04\n      add\n      tag_52\n      swap1\n      tag_53\n      jump\t// in\n    tag_52:\n      mload(0x40)\n      dup1\n      swap2\n      sub\n      swap1\n      revert\n    tag_51:\n        /* \"defi-theory/contracts/001_Vault_start.sol\":657:662  token */\n      immutable(\"0xcc193713febc75d3d9bd2f9ce113f403ff19633f15c8cdbcf79756ae23e77f9a\")\n        /* \"defi-theory/contracts/001_Vault_start.sol\":657:675  token.transferFrom */\n      0xffffffffffffffffffffffffffffffffffffffff\n      and\n      0x23b872dd\n        /* \"defi-theory/contracts/001_Vault_start.sol\":676:686  msg.sender */\n      caller\n        /* \"defi-theory/contracts/001_Vault_start.sol\":696:700  this */\n      address\n        /* \"defi-theory/contracts/001_Vault_start.sol\":703:710  _amount */\n      dup5\n        /* \"defi-theory/contracts/001_Vault_start.sol\":657:711  token.transferFrom(msg.sender, address(this), _amount) */\n      mload(0x40)\n      dup5\n      0xffffffff\n      and\n      0xe0\n      shl\n      dup2\n      mstore\n      0x04\n      add\n      tag_54\n      swap4\n      swap3\n      swap2\n      swap1\n      tag_55\n      jump\t// in\n    tag_54:\n      0x20\n      mload(0x40)\n      dup1\n      dup4\n      sub\n      dup2\n      0x00\n      dup8\n      gas\n      call\n      iszero\n      dup1\n      iszero\n      tag_57\n      jumpi\n      returndatasize\n      0x00\n      dup1\n      returndatacopy\n      revert(0x00, returndatasize)\n    tag_57:\n      pop\n      pop\n      pop\n      pop\n      mload(0x40)\n      returndatasize\n      not(0x1f)\n      0x1f\n      dup3\n      add\n      and\n      dup3\n      add\n      dup1\n      0x40\n      mstore\n      pop\n      dup2\n      add\n      swap1\n      tag_58\n      swap2\n      swap1\n      tag_49\n      jump\t// in\n    tag_58:\n      pop\n        /* \"defi-theory/contracts/001_Vault_start.sol\":717:743  _mint(msg.sender, _amount) */\n      tag_59\n        /* \"defi-theory/contracts/001_Vault_start.sol\":723:733  msg.sender */\n      caller\n        /* \"defi-theory/contracts/001_Vault_start.sol\":735:742  _amount */\n      dup3\n        /* \"defi-theory/contracts/001_Vault_start.sol\":717:722  _mint */\n      tag_60\n        /* \"defi-theory/contracts/001_Vault_start.sol\":717:743  _mint(msg.sender, _amount) */\n      jump\t// in\n    tag_59:\n        /* \"defi-theory/contracts/001_Vault_start.sol\":565:748  function deposit(uint _amount) external {... */\n      pop\n      jump\t// out\n        /* \"defi-theory/contracts/001_Vault_start.sol\":153:182  IERC20 public immutable token */\n    tag_25:\n      immutable(\"0xcc193713febc75d3d9bd2f9ce113f403ff19633f15c8cdbcf79756ae23e77f9a\")\n      dup2\n      jump\t// out\n        /* \"defi-theory/contracts/001_Vault_start.sol\":443:561  function _burn(address _from, uint _amount) private {... */\n    tag_43:\n        /* \"defi-theory/contracts/001_Vault_start.sol\":521:528  _amount */\n      dup1\n        /* \"defi-theory/contracts/001_Vault_start.sol\":501:510  balanceOf */\n      0x01\n        /* \"defi-theory/contracts/001_Vault_start.sol\":501:517  balanceOf[_from] */\n      0x00\n        /* \"defi-theory/contracts/001_Vault_start.sol\":511:516  _from */\n      dup5\n        /* \"defi-theory/contracts/001_Vault_start.sol\":501:517  balanceOf[_from] */\n      0xffffffffffffffffffffffffffffffffffffffff\n      and\n      0xffffffffffffffffffffffffffffffffffffffff\n      and\n      dup2\n      mstore\n      0x20\n      add\n      swap1\n      dup2\n      mstore\n      0x20\n      add\n      0x00\n      keccak256\n      0x00\n        /* \"defi-theory/contracts/001_Vault_start.sol\":501:528  balanceOf[_from] -= _amount */\n      dup3\n      dup3\n      sload\n      tag_62\n      swap2\n      swap1\n      tag_63\n      jump\t// in\n    tag_62:\n      swap3\n      pop\n      pop\n      dup2\n      swap1\n      sstore\n      pop\n        /* \"defi-theory/contracts/001_Vault_start.sol\":549:556  _amount */\n      dup1\n        /* \"defi-theory/contracts/001_Vault_start.sol\":534:545  totalSupply */\n      0x00\n      dup1\n        /* \"defi-theory/contracts/001_Vault_start.sol\":534:556  totalSupply -= _amount */\n      dup3\n      dup3\n      sload\n      tag_64\n      swap2\n      swap1\n      tag_63\n      jump\t// in\n    tag_64:\n      swap3\n      pop\n      pop\n      dup2\n      swap1\n      sstore\n      pop\n        /* \"defi-theory/contracts/001_Vault_start.sol\":443:561  function _burn(address _from, uint _amount) private {... */\n      pop\n      pop\n      jump\t// out\n        /* \"defi-theory/contracts/001_Vault_start.sol\":325:439  function _mint(address _to, uint _amount) private {... */\n    tag_60:\n        /* \"defi-theory/contracts/001_Vault_start.sol\":399:406  _amount */\n      dup1\n        /* \"defi-theory/contracts/001_Vault_start.sol\":381:390  balanceOf */\n      0x01\n        /* \"defi-theory/contracts/001_Vault_start.sol\":381:395  balanceOf[_to] */\n      0x00\n        /* \"defi-theory/contracts/001_Vault_start.sol\":391:394  _to */\n      dup5\n        /* \"defi-theory/contracts/001_Vault_start.sol\":381:395  balanceOf[_to] */\n      0xffffffffffffffffffffffffffffffffffffffff\n      and\n      0xffffffffffffffffffffffffffffffffffffffff\n      and\n      dup2\n      mstore\n      0x20\n      add\n      swap1\n      dup2\n      mstore\n      0x20\n      add\n      0x00\n      keccak256\n      0x00\n        /* \"defi-theory/contracts/001_Vault_start.sol\":381:406  balanceOf[_to] += _amount */\n      dup3\n      dup3\n      sload\n      tag_66\n      swap2\n      swap1\n      tag_67\n      jump\t// in\n    tag_66:\n      swap3\n      pop\n      pop\n      dup2\n      swap1\n      sstore\n      pop\n        /* \"defi-theory/contracts/001_Vault_start.sol\":427:434  _amount */\n      dup1\n        /* \"defi-theory/contracts/001_Vault_start.sol\":412:423  totalSupply */\n      0x00\n      dup1\n        /* \"defi-theory/contracts/001_Vault_start.sol\":412:434  totalSupply += _amount */\n      dup3\n      dup3\n      sload\n      tag_68\n      swap2\n      swap1\n      tag_67\n      jump\t// in\n    tag_68:\n      swap3\n      pop\n      pop\n      dup2\n      swap1\n      sstore\n      pop\n        /* \"defi-theory/contracts/001_Vault_start.sol\":325:439  function _mint(address _to, uint _amount) private {... */\n      pop\n      pop\n      jump\t// out\n        /* \"#utility.yul\":7:84   */\n    tag_69:\n        /* \"#utility.yul\":44:51   */\n      0x00\n        /* \"#utility.yul\":73:78   */\n      dup2\n        /* \"#utility.yul\":62:78   */\n      swap1\n      pop\n        /* \"#utility.yul\":7:84   */\n      swap2\n      swap1\n      pop\n      jump\t// out\n        /* \"#utility.yul\":90:208   */\n    tag_70:\n        /* \"#utility.yul\":177:201   */\n      tag_100\n        /* \"#utility.yul\":195:200   */\n      dup2\n        /* \"#utility.yul\":177:201   */\n      tag_69\n      jump\t// in\n    tag_100:\n        /* \"#utility.yul\":172:175   */\n      dup3\n        /* \"#utility.yul\":165:202   */\n      mstore\n        /* \"#utility.yul\":90:208   */\n      pop\n      pop\n      jump\t// out\n        /* \"#utility.yul\":214:436   */\n    tag_11:\n        /* \"#utility.yul\":307:311   */\n      0x00\n        /* \"#utility.yul\":345:347   */\n      0x20\n        /* \"#utility.yul\":334:343   */\n      dup3\n        /* \"#utility.yul\":330:348   */\n      add\n        /* \"#utility.yul\":322:348   */\n      swap1\n      pop\n        /* \"#utility.yul\":358:429   */\n      tag_102\n        /* \"#utility.yul\":426:427   */\n      0x00\n        /* \"#utility.yul\":415:424   */\n      dup4\n        /* \"#utility.yul\":411:428   */\n      add\n        /* \"#utility.yul\":402:408   */\n      dup5\n        /* \"#utility.yul\":358:429   */\n      tag_70\n      jump\t// in\n    tag_102:\n        /* \"#utility.yul\":214:436   */\n      swap3\n      swap2\n      pop\n      pop\n      jump\t// out\n        /* \"#utility.yul\":523:640   */\n    tag_72:\n        /* \"#utility.yul\":632:633   */\n      0x00\n        /* \"#utility.yul\":629:630   */\n      dup1\n        /* \"#utility.yul\":622:634   */\n      revert\n        /* \"#utility.yul\":769:891   */\n    tag_74:\n        /* \"#utility.yul\":842:866   */\n      tag_107\n        /* \"#utility.yul\":860:865   */\n      dup2\n        /* \"#utility.yul\":842:866   */\n      tag_69\n      jump\t// in\n    tag_107:\n        /* \"#utility.yul\":835:840   */\n      dup2\n        /* \"#utility.yul\":832:867   */\n      eq\n        /* \"#utility.yul\":822:885   */\n      tag_108\n      jumpi\n        /* \"#utility.yul\":881:882   */\n      0x00\n        /* \"#utility.yul\":878:879   */\n      dup1\n        /* \"#utility.yul\":871:883   */\n      revert\n        /* \"#utility.yul\":822:885   */\n    tag_108:\n        /* \"#utility.yul\":769:891   */\n      pop\n      jump\t// out\n        /* \"#utility.yul\":897:1036   */\n    tag_75:\n        /* \"#utility.yul\":943:948   */\n      0x00\n        /* \"#utility.yul\":981:987   */\n      dup2\n        /* \"#utility.yul\":968:988   */\n      calldataload\n        /* \"#utility.yul\":959:988   */\n      swap1\n      pop\n        /* \"#utility.yul\":997:1030   */\n      tag_110\n        /* \"#utility.yul\":1024:1029   */\n      dup2\n        /* \"#utility.yul\":997:1030   */\n      tag_74\n      jump\t// in\n    tag_110:\n        /* \"#utility.yul\":897:1036   */\n      swap3\n      swap2\n      pop\n      pop\n      jump\t// out\n        /* \"#utility.yul\":1042:1371   */\n    tag_14:\n        /* \"#utility.yul\":1101:1107   */\n      0x00\n        /* \"#utility.yul\":1150:1152   */\n      0x20\n        /* \"#utility.yul\":1138:1147   */\n      dup3\n        /* \"#utility.yul\":1129:1136   */\n      dup5\n        /* \"#utility.yul\":1125:1148   */\n      sub\n        /* \"#utility.yul\":1121:1153   */\n      slt\n        /* \"#utility.yul\":1118:1237   */\n      iszero\n      tag_112\n      jumpi\n        /* \"#utility.yul\":1156:1235   */\n      tag_113\n      tag_72\n      jump\t// in\n    tag_113:\n        /* \"#utility.yul\":1118:1237   */\n    tag_112:\n        /* \"#utility.yul\":1276:1277   */\n      0x00\n        /* \"#utility.yul\":1301:1354   */\n      tag_114\n        /* \"#utility.yul\":1346:1353   */\n      dup5\n        /* \"#utility.yul\":1337:1343   */\n      dup3\n        /* \"#utility.yul\":1326:1335   */\n      dup6\n        /* \"#utility.yul\":1322:1344   */\n      add\n        /* \"#utility.yul\":1301:1354   */\n      tag_75\n      jump\t// in\n    tag_114:\n        /* \"#utility.yul\":1291:1354   */\n      swap2\n      pop\n        /* \"#utility.yul\":1247:1364   */\n      pop\n        /* \"#utility.yul\":1042:1371   */\n      swap3\n      swap2\n      pop\n      pop\n      jump\t// out\n        /* \"#utility.yul\":1377:1503   */\n    tag_76:\n        /* \"#utility.yul\":1414:1421   */\n      0x00\n        /* \"#utility.yul\":1454:1496   */\n      0xffffffffffffffffffffffffffffffffffffffff\n        /* \"#utility.yul\":1447:1452   */\n      dup3\n        /* \"#utility.yul\":1443:1497   */\n      and\n        /* \"#utility.yul\":1432:1497   */\n      swap1\n      pop\n        /* \"#utility.yul\":1377:1503   */\n      swap2\n      swap1\n      pop\n      jump\t// out\n        /* \"#utility.yul\":1509:1605   */\n    tag_77:\n        /* \"#utility.yul\":1546:1553   */\n      0x00\n        /* \"#utility.yul\":1575:1599   */\n      tag_117\n        /* \"#utility.yul\":1593:1598   */\n      dup3\n        /* \"#utility.yul\":1575:1599   */\n      tag_76\n      jump\t// in\n    tag_117:\n        /* \"#utility.yul\":1564:1599   */\n      swap1\n      pop\n        /* \"#utility.yul\":1509:1605   */\n      swap2\n      swap1\n      pop\n      jump\t// out\n        /* \"#utility.yul\":1611:1733   */\n    tag_78:\n        /* \"#utility.yul\":1684:1708   */\n      tag_119\n        /* \"#utility.yul\":1702:1707   */\n      dup2\n        /* \"#utility.yul\":1684:1708   */\n      tag_77\n      jump\t// in\n    tag_119:\n        /* \"#utility.yul\":1677:1682   */\n      dup2\n        /* \"#utility.yul\":1674:1709   */\n      eq\n        /* \"#utility.yul\":1664:1727   */\n      tag_120\n      jumpi\n        /* \"#utility.yul\":1723:1724   */\n      0x00\n        /* \"#utility.yul\":1720:1721   */\n      dup1\n        /* \"#utility.yul\":1713:1725   */\n      revert\n        /* \"#utility.yul\":1664:1727   */\n    tag_120:\n        /* \"#utility.yul\":1611:1733   */\n      pop\n      jump\t// out\n        /* \"#utility.yul\":1739:1878   */\n    tag_79:\n        /* \"#utility.yul\":1785:1790   */\n      0x00\n        /* \"#utility.yul\":1823:1829   */\n      dup2\n        /* \"#utility.yul\":1810:1830   */\n      calldataload\n        /* \"#utility.yul\":1801:1830   */\n      swap1\n      pop\n        /* \"#utility.yul\":1839:1872   */\n      tag_122\n        /* \"#utility.yul\":1866:1871   */\n      dup2\n        /* \"#utility.yul\":1839:1872   */\n      tag_78\n      jump\t// in\n    tag_122:\n        /* \"#utility.yul\":1739:1878   */\n      swap3\n      swap2\n      pop\n      pop\n      jump\t// out\n        /* \"#utility.yul\":1884:2213   */\n    tag_18:\n        /* \"#utility.yul\":1943:1949   */\n      0x00\n        /* \"#utility.yul\":1992:1994   */\n      0x20\n        /* \"#utility.yul\":1980:1989   */\n      dup3\n        /* \"#utility.yul\":1971:1978   */\n      dup5\n        /* \"#utility.yul\":1967:1990   */\n      sub\n        /* \"#utility.yul\":1963:1995   */\n      slt\n        /* \"#utility.yul\":1960:2079   */\n      iszero\n      tag_124\n      jumpi\n        /* \"#utility.yul\":1998:2077   */\n      tag_125\n      tag_72\n      jump\t// in\n    tag_125:\n        /* \"#utility.yul\":1960:2079   */\n    tag_124:\n        /* \"#utility.yul\":2118:2119   */\n      0x00\n        /* \"#utility.yul\":2143:2196   */\n      tag_126\n        /* \"#utility.yul\":2188:2195   */\n      dup5\n        /* \"#utility.yul\":2179:2185   */\n      dup3\n        /* \"#utility.yul\":2168:2177   */\n      dup6\n        /* \"#utility.yul\":2164:2186   */\n      add\n        /* \"#utility.yul\":2143:2196   */\n      tag_79\n      jump\t// in\n    tag_126:\n        /* \"#utility.yul\":2133:2196   */\n      swap2\n      pop\n        /* \"#utility.yul\":2089:2206   */\n      pop\n        /* \"#utility.yul\":1884:2213   */\n      swap3\n      swap2\n      pop\n      pop\n      jump\t// out\n        /* \"#utility.yul\":2219:2279   */\n    tag_80:\n        /* \"#utility.yul\":2247:2250   */\n      0x00\n        /* \"#utility.yul\":2268:2273   */\n      dup2\n        /* \"#utility.yul\":2261:2273   */\n      swap1\n      pop\n        /* \"#utility.yul\":2219:2279   */\n      swap2\n      swap1\n      pop\n      jump\t// out\n        /* \"#utility.yul\":2285:2427   */\n    tag_81:\n        /* \"#utility.yul\":2335:2344   */\n      0x00\n        /* \"#utility.yul\":2368:2421   */\n      tag_129\n        /* \"#utility.yul\":2386:2420   */\n      tag_130\n        /* \"#utility.yul\":2395:2419   */\n      tag_131\n        /* \"#utility.yul\":2413:2418   */\n      dup5\n        /* \"#utility.yul\":2395:2419   */\n      tag_76\n      jump\t// in\n    tag_131:\n        /* \"#utility.yul\":2386:2420   */\n      tag_80\n      jump\t// in\n    tag_130:\n        /* \"#utility.yul\":2368:2421   */\n      tag_76\n      jump\t// in\n    tag_129:\n        /* \"#utility.yul\":2355:2421   */\n      swap1\n      pop\n        /* \"#utility.yul\":2285:2427   */\n      swap2\n      swap1\n      pop\n      jump\t// out\n        /* \"#utility.yul\":2433:2559   */\n    tag_82:\n        /* \"#utility.yul\":2483:2492   */\n      0x00\n        /* \"#utility.yul\":2516:2553   */\n      tag_133\n        /* \"#utility.yul\":2547:2552   */\n      dup3\n        /* \"#utility.yul\":2516:2553   */\n      tag_81\n      jump\t// in\n    tag_133:\n        /* \"#utility.yul\":2503:2553   */\n      swap1\n      pop\n        /* \"#utility.yul\":2433:2559   */\n      swap2\n      swap1\n      pop\n      jump\t// out\n        /* \"#utility.yul\":2565:2704   */\n    tag_83:\n        /* \"#utility.yul\":2628:2637   */\n      0x00\n        /* \"#utility.yul\":2661:2698   */\n      tag_135\n        /* \"#utility.yul\":2692:2697   */\n      dup3\n        /* \"#utility.yul\":2661:2698   */\n      tag_82\n      jump\t// in\n    tag_135:\n        /* \"#utility.yul\":2648:2698   */\n      swap1\n      pop\n        /* \"#utility.yul\":2565:2704   */\n      swap2\n      swap1\n      pop\n      jump\t// out\n        /* \"#utility.yul\":2710:2867   */\n    tag_84:\n        /* \"#utility.yul\":2810:2860   */\n      tag_137\n        /* \"#utility.yul\":2854:2859   */\n      dup2\n        /* \"#utility.yul\":2810:2860   */\n      tag_83\n      jump\t// in\n    tag_137:\n        /* \"#utility.yul\":2805:2808   */\n      dup3\n        /* \"#utility.yul\":2798:2861   */\n      mstore\n        /* \"#utility.yul\":2710:2867   */\n      pop\n      pop\n      jump\t// out\n        /* \"#utility.yul\":2873:3121   */\n    tag_27:\n        /* \"#utility.yul\":2979:2983   */\n      0x00\n        /* \"#utility.yul\":3017:3019   */\n      0x20\n        /* \"#utility.yul\":3006:3015   */\n      dup3\n        /* \"#utility.yul\":3002:3020   */\n      add\n        /* \"#utility.yul\":2994:3020   */\n      swap1\n      pop\n        /* \"#utility.yul\":3030:3114   */\n      tag_139\n        /* \"#utility.yul\":3111:3112   */\n      0x00\n        /* \"#utility.yul\":3100:3109   */\n      dup4\n        /* \"#utility.yul\":3096:3113   */\n      add\n        /* \"#utility.yul\":3087:3093   */\n      dup5\n        /* \"#utility.yul\":3030:3114   */\n      tag_84\n      jump\t// in\n    tag_139:\n        /* \"#utility.yul\":2873:3121   */\n      swap3\n      swap2\n      pop\n      pop\n      jump\t// out\n        /* \"#utility.yul\":3127:3296   */\n    tag_85:\n        /* \"#utility.yul\":3211:3222   */\n      0x00\n        /* \"#utility.yul\":3245:3251   */\n      dup3\n        /* \"#utility.yul\":3240:3243   */\n      dup3\n        /* \"#utility.yul\":3233:3252   */\n      mstore\n        /* \"#utility.yul\":3285:3289   */\n      0x20\n        /* \"#utility.yul\":3280:3283   */\n      dup3\n        /* \"#utility.yul\":3276:3290   */\n      add\n        /* \"#utility.yul\":3261:3290   */\n      swap1\n      pop\n        /* \"#utility.yul\":3127:3296   */\n      swap3\n      swap2\n      pop\n      pop\n      jump\t// out\n        /* \"#utility.yul\":3302:3468   */\n    tag_86:\n        /* \"#utility.yul\":3442:3460   */\n      0x5f7368617265732063616e6e6f74203000000000000000000000000000000000\n        /* \"#utility.yul\":3438:3439   */\n      0x00\n        /* \"#utility.yul\":3430:3436   */\n      dup3\n        /* \"#utility.yul\":3426:3440   */\n      add\n        /* \"#utility.yul\":3419:3461   */\n      mstore\n        /* \"#utility.yul\":3302:3468   */\n      pop\n      jump\t// out\n        /* \"#utility.yul\":3474:3840   */\n    tag_87:\n        /* \"#utility.yul\":3616:3619   */\n      0x00\n        /* \"#utility.yul\":3637:3704   */\n      tag_143\n        /* \"#utility.yul\":3701:3703   */\n      0x10\n        /* \"#utility.yul\":3696:3699   */\n      dup4\n        /* \"#utility.yul\":3637:3704   */\n      tag_85\n      jump\t// in\n    tag_143:\n        /* \"#utility.yul\":3630:3704   */\n      swap2\n      pop\n        /* \"#utility.yul\":3713:3806   */\n      tag_144\n        /* \"#utility.yul\":3802:3805   */\n      dup3\n        /* \"#utility.yul\":3713:3806   */\n      tag_86\n      jump\t// in\n    tag_144:\n        /* \"#utility.yul\":3831:3833   */\n      0x20\n        /* \"#utility.yul\":3826:3829   */\n      dup3\n        /* \"#utility.yul\":3822:3834   */\n      add\n        /* \"#utility.yul\":3815:3834   */\n      swap1\n      pop\n        /* \"#utility.yul\":3474:3840   */\n      swap2\n      swap1\n      pop\n      jump\t// out\n        /* \"#utility.yul\":3846:4265   */\n    tag_31:\n        /* \"#utility.yul\":4012:4016   */\n      0x00\n        /* \"#utility.yul\":4050:4052   */\n      0x20\n        /* \"#utility.yul\":4039:4048   */\n      dup3\n        /* \"#utility.yul\":4035:4053   */\n      add\n        /* \"#utility.yul\":4027:4053   */\n      swap1\n      pop\n        /* \"#utility.yul\":4099:4108   */\n      dup2\n        /* \"#utility.yul\":4093:4097   */\n      dup2\n        /* \"#utility.yul\":4089:4109   */\n      sub\n        /* \"#utility.yul\":4085:4086   */\n      0x00\n        /* \"#utility.yul\":4074:4083   */\n      dup4\n        /* \"#utility.yul\":4070:4087   */\n      add\n        /* \"#utility.yul\":4063:4110   */\n      mstore\n        /* \"#utility.yul\":4127:4258   */\n      tag_146\n        /* \"#utility.yul\":4253:4257   */\n      dup2\n        /* \"#utility.yul\":4127:4258   */\n      tag_87\n      jump\t// in\n    tag_146:\n        /* \"#utility.yul\":4119:4258   */\n      swap1\n      pop\n        /* \"#utility.yul\":3846:4265   */\n      swap2\n      swap1\n      pop\n      jump\t// out\n        /* \"#utility.yul\":4271:4451   */\n    tag_88:\n        /* \"#utility.yul\":4319:4396   */\n      0x4e487b7100000000000000000000000000000000000000000000000000000000\n        /* \"#utility.yul\":4316:4317   */\n      0x00\n        /* \"#utility.yul\":4309:4397   */\n      mstore\n        /* \"#utility.yul\":4416:4420   */\n      0x12\n        /* \"#utility.yul\":4413:4414   */\n      0x04\n        /* \"#utility.yul\":4406:4421   */\n      mstore\n        /* \"#utility.yul\":4440:4444   */\n      0x24\n        /* \"#utility.yul\":4437:4438   */\n      0x00\n        /* \"#utility.yul\":4430:4445   */\n      revert\n        /* \"#utility.yul\":4457:4637   */\n    tag_89:\n        /* \"#utility.yul\":4505:4582   */\n      0x4e487b7100000000000000000000000000000000000000000000000000000000\n        /* \"#utility.yul\":4502:4503   */\n      0x00\n        /* \"#utility.yul\":4495:4583   */\n      mstore\n        /* \"#utility.yul\":4602:4606   */\n      0x11\n        /* \"#utility.yul\":4599:4600   */\n      0x04\n        /* \"#utility.yul\":4592:4607   */\n      mstore\n        /* \"#utility.yul\":4626:4630   */\n      0x24\n        /* \"#utility.yul\":4623:4624   */\n      0x00\n        /* \"#utility.yul\":4616:4631   */\n      revert\n        /* \"#utility.yul\":4643:4828   */\n    tag_33:\n        /* \"#utility.yul\":4683:4684   */\n      0x00\n        /* \"#utility.yul\":4700:4720   */\n      tag_150\n        /* \"#utility.yul\":4718:4719   */\n      dup3\n        /* \"#utility.yul\":4700:4720   */\n      tag_69\n      jump\t// in\n    tag_150:\n        /* \"#utility.yul\":4695:4720   */\n      swap2\n      pop\n        /* \"#utility.yul\":4734:4754   */\n      tag_151\n        /* \"#utility.yul\":4752:4753   */\n      dup4\n        /* \"#utility.yul\":4734:4754   */\n      tag_69\n      jump\t// in\n    tag_151:\n        /* \"#utility.yul\":4729:4754   */\n      swap3\n      pop\n        /* \"#utility.yul\":4773:4774   */\n      dup3\n        /* \"#utility.yul\":4763:4798   */\n      tag_152\n      jumpi\n        /* \"#utility.yul\":4778:4796   */\n      tag_153\n      tag_88\n      jump\t// in\n    tag_153:\n        /* \"#utility.yul\":4763:4798   */\n    tag_152:\n        /* \"#utility.yul\":4820:4821   */\n      dup3\n        /* \"#utility.yul\":4817:4818   */\n      dup3\n        /* \"#utility.yul\":4813:4822   */\n      div\n        /* \"#utility.yul\":4808:4822   */\n      swap1\n      pop\n        /* \"#utility.yul\":4643:4828   */\n      swap3\n      swap2\n      pop\n      pop\n      jump\t// out\n        /* \"#utility.yul\":4834:4952   */\n    tag_90:\n        /* \"#utility.yul\":4921:4945   */\n      tag_155\n        /* \"#utility.yul\":4939:4944   */\n      dup2\n        /* \"#utility.yul\":4921:4945   */\n      tag_77\n      jump\t// in\n    tag_155:\n        /* \"#utility.yul\":4916:4919   */\n      dup3\n        /* \"#utility.yul\":4909:4946   */\n      mstore\n        /* \"#utility.yul\":4834:4952   */\n      pop\n      pop\n      jump\t// out\n        /* \"#utility.yul\":4958:5180   */\n    tag_35:\n        /* \"#utility.yul\":5051:5055   */\n      0x00\n        /* \"#utility.yul\":5089:5091   */\n      0x20\n        /* \"#utility.yul\":5078:5087   */\n      dup3\n        /* \"#utility.yul\":5074:5092   */\n      add\n        /* \"#utility.yul\":5066:5092   */\n      swap1\n      pop\n        /* \"#utility.yul\":5102:5173   */\n      tag_157\n        /* \"#utility.yul\":5170:5171   */\n      0x00\n        /* \"#utility.yul\":5159:5168   */\n      dup4\n        /* \"#utility.yul\":5155:5172   */\n      add\n        /* \"#utility.yul\":5146:5152   */\n      dup5\n        /* \"#utility.yul\":5102:5173   */\n      tag_90\n      jump\t// in\n    tag_157:\n        /* \"#utility.yul\":4958:5180   */\n      swap3\n      swap2\n      pop\n      pop\n      jump\t// out\n        /* \"#utility.yul\":5186:5329   */\n    tag_91:\n        /* \"#utility.yul\":5243:5248   */\n      0x00\n        /* \"#utility.yul\":5274:5280   */\n      dup2\n        /* \"#utility.yul\":5268:5281   */\n      mload\n        /* \"#utility.yul\":5259:5281   */\n      swap1\n      pop\n        /* \"#utility.yul\":5290:5323   */\n      tag_159\n        /* \"#utility.yul\":5317:5322   */\n      dup2\n        /* \"#utility.yul\":5290:5323   */\n      tag_74\n      jump\t// in\n    tag_159:\n        /* \"#utility.yul\":5186:5329   */\n      swap3\n      swap2\n      pop\n      pop\n      jump\t// out\n        /* \"#utility.yul\":5335:5686   */\n    tag_39:\n        /* \"#utility.yul\":5405:5411   */\n      0x00\n        /* \"#utility.yul\":5454:5456   */\n      0x20\n        /* \"#utility.yul\":5442:5451   */\n      dup3\n        /* \"#utility.yul\":5433:5440   */\n      dup5\n        /* \"#utility.yul\":5429:5452   */\n      sub\n        /* \"#utility.yul\":5425:5457   */\n      slt\n        /* \"#utility.yul\":5422:5541   */\n      iszero\n      tag_161\n      jumpi\n        /* \"#utility.yul\":5460:5539   */\n      tag_162\n      tag_72\n      jump\t// in\n    tag_162:\n        /* \"#utility.yul\":5422:5541   */\n    tag_161:\n        /* \"#utility.yul\":5580:5581   */\n      0x00\n        /* \"#utility.yul\":5605:5669   */\n      tag_163\n        /* \"#utility.yul\":5661:5668   */\n      dup5\n        /* \"#utility.yul\":5652:5658   */\n      dup3\n        /* \"#utility.yul\":5641:5650   */\n      dup6\n        /* \"#utility.yul\":5637:5659   */\n      add\n        /* \"#utility.yul\":5605:5669   */\n      tag_91\n      jump\t// in\n    tag_163:\n        /* \"#utility.yul\":5595:5669   */\n      swap2\n      pop\n        /* \"#utility.yul\":5551:5679   */\n      pop\n        /* \"#utility.yul\":5335:5686   */\n      swap3\n      swap2\n      pop\n      pop\n      jump\t// out\n        /* \"#utility.yul\":5692:6102   */\n    tag_41:\n        /* \"#utility.yul\":5732:5739   */\n      0x00\n        /* \"#utility.yul\":5755:5775   */\n      tag_165\n        /* \"#utility.yul\":5773:5774   */\n      dup3\n        /* \"#utility.yul\":5755:5775   */\n      tag_69\n      jump\t// in\n    tag_165:\n        /* \"#utility.yul\":5750:5775   */\n      swap2\n      pop\n        /* \"#utility.yul\":5789:5809   */\n      tag_166\n        /* \"#utility.yul\":5807:5808   */\n      dup4\n        /* \"#utility.yul\":5789:5809   */\n      tag_69\n      jump\t// in\n    tag_166:\n        /* \"#utility.yul\":5784:5809   */\n      swap3\n      pop\n        /* \"#utility.yul\":5844:5845   */\n      dup3\n        /* \"#utility.yul\":5841:5842   */\n      dup3\n        /* \"#utility.yul\":5837:5846   */\n      mul\n        /* \"#utility.yul\":5866:5896   */\n      tag_167\n        /* \"#utility.yul\":5884:5895   */\n      dup2\n        /* \"#utility.yul\":5866:5896   */\n      tag_69\n      jump\t// in\n    tag_167:\n        /* \"#utility.yul\":5855:5896   */\n      swap2\n      pop\n        /* \"#utility.yul\":6045:6046   */\n      dup3\n        /* \"#utility.yul\":6036:6043   */\n      dup3\n        /* \"#utility.yul\":6032:6047   */\n      div\n        /* \"#utility.yul\":6029:6030   */\n      dup5\n        /* \"#utility.yul\":6026:6048   */\n      eq\n        /* \"#utility.yul\":6006:6007   */\n      dup4\n        /* \"#utility.yul\":5999:6008   */\n      iszero\n        /* \"#utility.yul\":5979:6062   */\n      or\n        /* \"#utility.yul\":5956:6095   */\n      tag_168\n      jumpi\n        /* \"#utility.yul\":6075:6093   */\n      tag_169\n      tag_89\n      jump\t// in\n    tag_169:\n        /* \"#utility.yul\":5956:6095   */\n    tag_168:\n        /* \"#utility.yul\":5740:6102   */\n      pop\n        /* \"#utility.yul\":5692:6102   */\n      swap3\n      swap2\n      pop\n      pop\n      jump\t// out\n        /* \"#utility.yul\":6108:6440   */\n    tag_45:\n        /* \"#utility.yul\":6229:6233   */\n      0x00\n        /* \"#utility.yul\":6267:6269   */\n      0x40\n        /* \"#utility.yul\":6256:6265   */\n      dup3\n        /* \"#utility.yul\":6252:6270   */\n      add\n        /* \"#utility.yul\":6244:6270   */\n      swap1\n      pop\n        /* \"#utility.yul\":6280:6351   */\n      tag_171\n        /* \"#utility.yul\":6348:6349   */\n      0x00\n        /* \"#utility.yul\":6337:6346   */\n      dup4\n        /* \"#utility.yul\":6333:6350   */\n      add\n        /* \"#utility.yul\":6324:6330   */\n      dup6\n        /* \"#utility.yul\":6280:6351   */\n      tag_90\n      jump\t// in\n    tag_171:\n        /* \"#utility.yul\":6361:6433   */\n      tag_172\n        /* \"#utility.yul\":6429:6431   */\n      0x20\n        /* \"#utility.yul\":6418:6427   */\n      dup4\n        /* \"#utility.yul\":6414:6432   */\n      add\n        /* \"#utility.yul\":6405:6411   */\n      dup5\n        /* \"#utility.yul\":6361:6433   */\n      tag_70\n      jump\t// in\n    tag_172:\n        /* \"#utility.yul\":6108:6440   */\n      swap4\n      swap3\n      pop\n      pop\n      pop\n      jump\t// out\n        /* \"#utility.yul\":6446:6536   */\n    tag_92:\n        /* \"#utility.yul\":6480:6487   */\n      0x00\n        /* \"#utility.yul\":6523:6528   */\n      dup2\n        /* \"#utility.yul\":6516:6529   */\n      iszero\n        /* \"#utility.yul\":6509:6530   */\n      iszero\n        /* \"#utility.yul\":6498:6530   */\n      swap1\n      pop\n        /* \"#utility.yul\":6446:6536   */\n      swap2\n      swap1\n      pop\n      jump\t// out\n        /* \"#utility.yul\":6542:6658   */\n    tag_93:\n        /* \"#utility.yul\":6612:6633   */\n      tag_175\n        /* \"#utility.yul\":6627:6632   */\n      dup2\n        /* \"#utility.yul\":6612:6633   */\n      tag_92\n      jump\t// in\n    tag_175:\n        /* \"#utility.yul\":6605:6610   */\n      dup2\n        /* \"#utility.yul\":6602:6634   */\n      eq\n        /* \"#utility.yul\":6592:6652   */\n      tag_176\n      jumpi\n        /* \"#utility.yul\":6648:6649   */\n      0x00\n        /* \"#utility.yul\":6645:6646   */\n      dup1\n        /* \"#utility.yul\":6638:6650   */\n      revert\n        /* \"#utility.yul\":6592:6652   */\n    tag_176:\n        /* \"#utility.yul\":6542:6658   */\n      pop\n      jump\t// out\n        /* \"#utility.yul\":6664:6801   */\n    tag_94:\n        /* \"#utility.yul\":6718:6723   */\n      0x00\n        /* \"#utility.yul\":6749:6755   */\n      dup2\n        /* \"#utility.yul\":6743:6756   */\n      mload\n        /* \"#utility.yul\":6734:6756   */\n      swap1\n      pop\n        /* \"#utility.yul\":6765:6795   */\n      tag_178\n        /* \"#utility.yul\":6789:6794   */\n      dup2\n        /* \"#utility.yul\":6765:6795   */\n      tag_93\n      jump\t// in\n    tag_178:\n        /* \"#utility.yul\":6664:6801   */\n      swap3\n      swap2\n      pop\n      pop\n      jump\t// out\n        /* \"#utility.yul\":6807:7152   */\n    tag_49:\n        /* \"#utility.yul\":6874:6880   */\n      0x00\n        /* \"#utility.yul\":6923:6925   */\n      0x20\n        /* \"#utility.yul\":6911:6920   */\n      dup3\n        /* \"#utility.yul\":6902:6909   */\n      dup5\n        /* \"#utility.yul\":6898:6921   */\n      sub\n        /* \"#utility.yul\":6894:6926   */\n      slt\n        /* \"#utility.yul\":6891:7010   */\n      iszero\n      tag_180\n      jumpi\n        /* \"#utility.yul\":6929:7008   */\n      tag_181\n      tag_72\n      jump\t// in\n    tag_181:\n        /* \"#utility.yul\":6891:7010   */\n    tag_180:\n        /* \"#utility.yul\":7049:7050   */\n      0x00\n        /* \"#utility.yul\":7074:7135   */\n      tag_182\n        /* \"#utility.yul\":7127:7134   */\n      dup5\n        /* \"#utility.yul\":7118:7124   */\n      dup3\n        /* \"#utility.yul\":7107:7116   */\n      dup6\n        /* \"#utility.yul\":7103:7125   */\n      add\n        /* \"#utility.yul\":7074:7135   */\n      tag_94\n      jump\t// in\n    tag_182:\n        /* \"#utility.yul\":7064:7135   */\n      swap2\n      pop\n        /* \"#utility.yul\":7020:7145   */\n      pop\n        /* \"#utility.yul\":6807:7152   */\n      swap3\n      swap2\n      pop\n      pop\n      jump\t// out\n        /* \"#utility.yul\":7158:7324   */\n    tag_95:\n        /* \"#utility.yul\":7298:7316   */\n      0x5f616d6f756e742063616e6e6f74203000000000000000000000000000000000\n        /* \"#utility.yul\":7294:7295   */\n      0x00\n        /* \"#utility.yul\":7286:7292   */\n      dup3\n        /* \"#utility.yul\":7282:7296   */\n      add\n        /* \"#utility.yul\":7275:7317   */\n      mstore\n        /* \"#utility.yul\":7158:7324   */\n      pop\n      jump\t// out\n        /* \"#utility.yul\":7330:7696   */\n    tag_96:\n        /* \"#utility.yul\":7472:7475   */\n      0x00\n        /* \"#utility.yul\":7493:7560   */\n      tag_185\n        /* \"#utility.yul\":7557:7559   */\n      0x10\n        /* \"#utility.yul\":7552:7555   */\n      dup4\n        /* \"#utility.yul\":7493:7560   */\n      tag_85\n      jump\t// in\n    tag_185:\n        /* \"#utility.yul\":7486:7560   */\n      swap2\n      pop\n        /* \"#utility.yul\":7569:7662   */\n      tag_186\n        /* \"#utility.yul\":7658:7661   */\n      dup3\n        /* \"#utility.yul\":7569:7662   */\n      tag_95\n      jump\t// in\n    tag_186:\n        /* \"#utility.yul\":7687:7689   */\n      0x20\n        /* \"#utility.yul\":7682:7685   */\n      dup3\n        /* \"#utility.yul\":7678:7690   */\n      add\n        /* \"#utility.yul\":7671:7690   */\n      swap1\n      pop\n        /* \"#utility.yul\":7330:7696   */\n      swap2\n      swap1\n      pop\n      jump\t// out\n        /* \"#utility.yul\":7702:8121   */\n    tag_53:\n        /* \"#utility.yul\":7868:7872   */\n      0x00\n        /* \"#utility.yul\":7906:7908   */\n      0x20\n        /* \"#utility.yul\":7895:7904   */\n      dup3\n        /* \"#utility.yul\":7891:7909   */\n      add\n        /* \"#utility.yul\":7883:7909   */\n      swap1\n      pop\n        /* \"#utility.yul\":7955:7964   */\n      dup2\n        /* \"#utility.yul\":7949:7953   */\n      dup2\n        /* \"#utility.yul\":7945:7965   */\n      sub\n        /* \"#utility.yul\":7941:7942   */\n      0x00\n        /* \"#utility.yul\":7930:7939   */\n      dup4\n        /* \"#utility.yul\":7926:7943   */\n      add\n        /* \"#utility.yul\":7919:7966   */\n      mstore\n        /* \"#utility.yul\":7983:8114   */\n      tag_188\n        /* \"#utility.yul\":8109:8113   */\n      dup2\n        /* \"#utility.yul\":7983:8114   */\n      tag_96\n      jump\t// in\n    tag_188:\n        /* \"#utility.yul\":7975:8114   */\n      swap1\n      pop\n        /* \"#utility.yul\":7702:8121   */\n      swap2\n      swap1\n      pop\n      jump\t// out\n        /* \"#utility.yul\":8127:8569   */\n    tag_55:\n        /* \"#utility.yul\":8276:8280   */\n      0x00\n        /* \"#utility.yul\":8314:8316   */\n      0x60\n        /* \"#utility.yul\":8303:8312   */\n      dup3\n        /* \"#utility.yul\":8299:8317   */\n      add\n        /* \"#utility.yul\":8291:8317   */\n      swap1\n      pop\n        /* \"#utility.yul\":8327:8398   */\n      tag_190\n        /* \"#utility.yul\":8395:8396   */\n      0x00\n        /* \"#utility.yul\":8384:8393   */\n      dup4\n        /* \"#utility.yul\":8380:8397   */\n      add\n        /* \"#utility.yul\":8371:8377   */\n      dup7\n        /* \"#utility.yul\":8327:8398   */\n      tag_90\n      jump\t// in\n    tag_190:\n        /* \"#utility.yul\":8408:8480   */\n      tag_191\n        /* \"#utility.yul\":8476:8478   */\n      0x20\n        /* \"#utility.yul\":8465:8474   */\n      dup4\n        /* \"#utility.yul\":8461:8479   */\n      add\n        /* \"#utility.yul\":8452:8458   */\n      dup6\n        /* \"#utility.yul\":8408:8480   */\n      tag_90\n      jump\t// in\n    tag_191:\n        /* \"#utility.yul\":8490:8562   */\n      tag_192\n        /* \"#utility.yul\":8558:8560   */\n      0x40\n        /* \"#utility.yul\":8547:8556   */\n      dup4\n        /* \"#utility.yul\":8543:8561   */\n      add\n        /* \"#utility.yul\":8534:8540   */\n      dup5\n        /* \"#utility.yul\":8490:8562   */\n      tag_70\n      jump\t// in\n    tag_192:\n        /* \"#utility.yul\":8127:8569   */\n      swap5\n      swap4\n      pop\n      pop\n      pop\n      pop\n      jump\t// out\n        /* \"#utility.yul\":8575:8769   */\n    tag_63:\n        /* \"#utility.yul\":8615:8619   */\n      0x00\n        /* \"#utility.yul\":8635:8655   */\n      tag_194\n        /* \"#utility.yul\":8653:8654   */\n      dup3\n        /* \"#utility.yul\":8635:8655   */\n      tag_69\n      jump\t// in\n    tag_194:\n        /* \"#utility.yul\":8630:8655   */\n      swap2\n      pop\n        /* \"#utility.yul\":8669:8689   */\n      tag_195\n        /* \"#utility.yul\":8687:8688   */\n      dup4\n        /* \"#utility.yul\":8669:8689   */\n      tag_69\n      jump\t// in\n    tag_195:\n        /* \"#utility.yul\":8664:8689   */\n      swap3\n      pop\n        /* \"#utility.yul\":8713:8714   */\n      dup3\n        /* \"#utility.yul\":8710:8711   */\n      dup3\n        /* \"#utility.yul\":8706:8715   */\n      sub\n        /* \"#utility.yul\":8698:8715   */\n      swap1\n      pop\n        /* \"#utility.yul\":8737:8738   */\n      dup2\n        /* \"#utility.yul\":8731:8735   */\n      dup2\n        /* \"#utility.yul\":8728:8739   */\n      gt\n        /* \"#utility.yul\":8725:8762   */\n      iszero\n      tag_196\n      jumpi\n        /* \"#utility.yul\":8742:8760   */\n      tag_197\n      tag_89\n      jump\t// in\n    tag_197:\n        /* \"#utility.yul\":8725:8762   */\n    tag_196:\n        /* \"#utility.yul\":8575:8769   */\n      swap3\n      swap2\n      pop\n      pop\n      jump\t// out\n        /* \"#utility.yul\":8775:8966   */\n    tag_67:\n        /* \"#utility.yul\":8815:8818   */\n      0x00\n        /* \"#utility.yul\":8834:8854   */\n      tag_199\n        /* \"#utility.yul\":8852:8853   */\n      dup3\n        /* \"#utility.yul\":8834:8854   */\n      tag_69\n      jump\t// in\n    tag_199:\n        /* \"#utility.yul\":8829:8854   */\n      swap2\n      pop\n        /* \"#utility.yul\":8868:8888   */\n      tag_200\n        /* \"#utility.yul\":8886:8887   */\n      dup4\n        /* \"#utility.yul\":8868:8888   */\n      tag_69\n      jump\t// in\n    tag_200:\n        /* \"#utility.yul\":8863:8888   */\n      swap3\n      pop\n        /* \"#utility.yul\":8911:8912   */\n      dup3\n        /* \"#utility.yul\":8908:8909   */\n      dup3\n        /* \"#utility.yul\":8904:8913   */\n      add\n        /* \"#utility.yul\":8897:8913   */\n      swap1\n      pop\n        /* \"#utility.yul\":8932:8935   */\n      dup1\n        /* \"#utility.yul\":8929:8930   */\n      dup3\n        /* \"#utility.yul\":8926:8936   */\n      gt\n        /* \"#utility.yul\":8923:8959   */\n      iszero\n      tag_201\n      jumpi\n        /* \"#utility.yul\":8939:8957   */\n      tag_202\n      tag_89\n      jump\t// in\n    tag_202:\n        /* \"#utility.yul\":8923:8959   */\n    tag_201:\n        /* \"#utility.yul\":8775:8966   */\n      swap3\n      swap2\n      pop\n      pop\n      jump\t// out\n\n    auxdata: 0xa2646970667358221220b046d44152b0fe375c0d7dc16da74e3c98518fb549c3926eefbc18b00a24a0a764736f6c63430008120033\n}\n",
				"bytecode": {
					"linkReferences": {},
					"object": "60a060405234801561001057600080fd5b50604051610b08380380610b08833981810160405281019061003291906100cf565b8073ffffffffffffffffffffffffffffffffffffffff1660808173ffffffffffffffffffffffffffffffffffffffff1681525050506100fc565b600080fd5b600073ffffffffffffffffffffffffffffffffffffffff82169050919050565b600061009c82610071565b9050919050565b6100ac81610091565b81146100b757600080fd5b50565b6000815190506100c9816100a3565b92915050565b6000602082840312156100e5576100e461006c565b5b60006100f3848285016100ba565b91505092915050565b6080516109dc61012c6000396000818161015a0152818161020a0152818161030801526103b601526109dc6000f3fe608060405234801561001057600080fd5b50600436106100575760003560e01c806318160ddd1461005c5780632e1a7d4d1461007a57806370a0823114610096578063b6b55f25146100c6578063fc0c546a146100e2575b600080fd5b610064610100565b60405161007191906104d5565b60405180910390f35b610094600480360381019061008f9190610521565b610106565b005b6100b060048036038101906100ab91906105ac565b6102ab565b6040516100bd91906104d5565b60405180910390f35b6100e060048036038101906100db9190610521565b6102c3565b005b6100ea6103b4565b6040516100f79190610638565b60405180910390f35b60005481565b60008111610149576040517f08c379a0000000000000000000000000000000000000000000000000000000008152600401610140906106b0565b60405180910390fd5b6000805482610158919061072e565b7f000000000000000000000000000000000000000000000000000000000000000073ffffffffffffffffffffffffffffffffffffffff166370a08231306040518263ffffffff1660e01b81526004016101b1919061076e565b602060405180830381865afa1580156101ce573d6000803e3d6000fd5b505050506040513d601f19601f820116820180604052508101906101f2919061079e565b6101fc91906107cb565b905061020833836103d8565b7f000000000000000000000000000000000000000000000000000000000000000073ffffffffffffffffffffffffffffffffffffffff1663a9059cbb33836040518363ffffffff1660e01b815260040161026392919061080d565b6020604051808303816000875af1158015610282573d6000803e3d6000fd5b505050506040513d601f19601f820116820180604052508101906102a6919061086e565b505050565b60016020528060005260406000206000915090505481565b60008111610306576040517f08c379a00000000000000000000000000000000000000000000000000000000081526004016102fd906108e7565b60405180910390fd5b7f000000000000000000000000000000000000000000000000000000000000000073ffffffffffffffffffffffffffffffffffffffff166323b872dd3330846040518463ffffffff1660e01b815260040161036393929190610907565b6020604051808303816000875af1158015610382573d6000803e3d6000fd5b505050506040513d601f19601f820116820180604052508101906103a6919061086e565b506103b1338261044a565b50565b7f000000000000000000000000000000000000000000000000000000000000000081565b80600160008473ffffffffffffffffffffffffffffffffffffffff1673ffffffffffffffffffffffffffffffffffffffff1681526020019081526020016000206000828254610427919061093e565b925050819055508060008082825461043f919061093e565b925050819055505050565b80600160008473ffffffffffffffffffffffffffffffffffffffff1673ffffffffffffffffffffffffffffffffffffffff16815260200190815260200160002060008282546104999190610972565b92505081905550806000808282546104b19190610972565b925050819055505050565b6000819050919050565b6104cf816104bc565b82525050565b60006020820190506104ea60008301846104c6565b92915050565b600080fd5b6104fe816104bc565b811461050957600080fd5b50565b60008135905061051b816104f5565b92915050565b600060208284031215610537576105366104f0565b5b60006105458482850161050c565b91505092915050565b600073ffffffffffffffffffffffffffffffffffffffff82169050919050565b60006105798261054e565b9050919050565b6105898161056e565b811461059457600080fd5b50565b6000813590506105a681610580565b92915050565b6000602082840312156105c2576105c16104f0565b5b60006105d084828501610597565b91505092915050565b6000819050919050565b60006105fe6105f96105f48461054e565b6105d9565b61054e565b9050919050565b6000610610826105e3565b9050919050565b600061062282610605565b9050919050565b61063281610617565b82525050565b600060208201905061064d6000830184610629565b92915050565b600082825260208201905092915050565b7f5f7368617265732063616e6e6f74203000000000000000000000000000000000600082015250565b600061069a601083610653565b91506106a582610664565b602082019050919050565b600060208201905081810360008301526106c98161068d565b9050919050565b7f4e487b7100000000000000000000000000000000000000000000000000000000600052601260045260246000fd5b7f4e487b7100000000000000000000000000000000000000000000000000000000600052601160045260246000fd5b6000610739826104bc565b9150610744836104bc565b925082610754576107536106d0565b5b828204905092915050565b6107688161056e565b82525050565b6000602082019050610783600083018461075f565b92915050565b600081519050610798816104f5565b92915050565b6000602082840312156107b4576107b36104f0565b5b60006107c284828501610789565b91505092915050565b60006107d6826104bc565b91506107e1836104bc565b92508282026107ef816104bc565b91508282048414831517610806576108056106ff565b5b5092915050565b6000604082019050610822600083018561075f565b61082f60208301846104c6565b9392505050565b60008115159050919050565b61084b81610836565b811461085657600080fd5b50565b60008151905061086881610842565b92915050565b600060208284031215610884576108836104f0565b5b600061089284828501610859565b91505092915050565b7f5f616d6f756e742063616e6e6f74203000000000000000000000000000000000600082015250565b60006108d1601083610653565b91506108dc8261089b565b602082019050919050565b60006020820190508181036000830152610900816108c4565b9050919050565b600060608201905061091c600083018661075f565b610929602083018561075f565b61093660408301846104c6565b949350505050565b6000610949826104bc565b9150610954836104bc565b925082820390508181111561096c5761096b6106ff565b5b92915050565b600061097d826104bc565b9150610988836104bc565b92508282019050808211156109a05761099f6106ff565b5b9291505056fea2646970667358221220b046d44152b0fe375c0d7dc16da74e3c98518fb549c3926eefbc18b00a24a0a764736f6c63430008120033",
					"opcodes": "PUSH1 0xA0 PUSH1 0x40 MSTORE CALLVALUE DUP1 ISZERO PUSH2 0x10 JUMPI PUSH1 0x0 DUP1 REVERT JUMPDEST POP PUSH1 0x40 MLOAD PUSH2 0xB08 CODESIZE SUB DUP1 PUSH2 0xB08 DUP4 CODECOPY DUP2 DUP2 ADD PUSH1 0x40 MSTORE DUP2 ADD SWAP1 PUSH2 0x32 SWAP2 SWAP1 PUSH2 0xCF JUMP JUMPDEST DUP1 PUSH20 0xFFFFFFFFFFFFFFFFFFFFFFFFFFFFFFFFFFFFFFFF AND PUSH1 0x80 DUP2 PUSH20 0xFFFFFFFFFFFFFFFFFFFFFFFFFFFFFFFFFFFFFFFF AND DUP2 MSTORE POP POP POP PUSH2 0xFC JUMP JUMPDEST PUSH1 0x0 DUP1 REVERT JUMPDEST PUSH1 0x0 PUSH20 0xFFFFFFFFFFFFFFFFFFFFFFFFFFFFFFFFFFFFFFFF DUP3 AND SWAP1 POP SWAP2 SWAP1 POP JUMP JUMPDEST PUSH1 0x0 PUSH2 0x9C DUP3 PUSH2 0x71 JUMP JUMPDEST SWAP1 POP SWAP2 SWAP1 POP JUMP JUMPDEST PUSH2 0xAC DUP2 PUSH2 0x91 JUMP JUMPDEST DUP2 EQ PUSH2 0xB7 JUMPI PUSH1 0x0 DUP1 REVERT JUMPDEST POP JUMP JUMPDEST PUSH1 0x0 DUP2 MLOAD SWAP1 POP PUSH2 0xC9 DUP2 PUSH2 0xA3 JUMP JUMPDEST SWAP3 SWAP2 POP POP JUMP JUMPDEST PUSH1 0x0 PUSH1 0x20 DUP3 DUP5 SUB SLT ISZERO PUSH2 0xE5 JUMPI PUSH2 0xE4 PUSH2 0x6C JUMP JUMPDEST JUMPDEST PUSH1 0x0 PUSH2 0xF3 DUP5 DUP3 DUP6 ADD PUSH2 0xBA JUMP JUMPDEST SWAP2 POP POP SWAP3 SWAP2 POP POP JUMP JUMPDEST PUSH1 0x80 MLOAD PUSH2 0x9DC PUSH2 0x12C PUSH1 0x0 CODECOPY PUSH1 0x0 DUP2 DUP2 PUSH2 0x15A ADD MSTORE DUP2 DUP2 PUSH2 0x20A ADD MSTORE DUP2 DUP2 PUSH2 0x308 ADD MSTORE PUSH2 0x3B6 ADD MSTORE PUSH2 0x9DC PUSH1 0x0 RETURN INVALID PUSH1 0x80 PUSH1 0x40 MSTORE CALLVALUE DUP1 ISZERO PUSH2 0x10 JUMPI PUSH1 0x0 DUP1 REVERT JUMPDEST POP PUSH1 0x4 CALLDATASIZE LT PUSH2 0x57 JUMPI PUSH1 0x0 CALLDATALOAD PUSH1 0xE0 SHR DUP1 PUSH4 0x18160DDD EQ PUSH2 0x5C JUMPI DUP1 PUSH4 0x2E1A7D4D EQ PUSH2 0x7A JUMPI DUP1 PUSH4 0x70A08231 EQ PUSH2 0x96 JUMPI DUP1 PUSH4 0xB6B55F25 EQ PUSH2 0xC6 JUMPI DUP1 PUSH4 0xFC0C546A EQ PUSH2 0xE2 JUMPI JUMPDEST PUSH1 0x0 DUP1 REVERT JUMPDEST PUSH2 0x64 PUSH2 0x100 JUMP JUMPDEST PUSH1 0x40 MLOAD PUSH2 0x71 SWAP2 SWAP1 PUSH2 0x4D5 JUMP JUMPDEST PUSH1 0x40 MLOAD DUP1 SWAP2 SUB SWAP1 RETURN JUMPDEST PUSH2 0x94 PUSH1 0x4 DUP1 CALLDATASIZE SUB DUP2 ADD SWAP1 PUSH2 0x8F SWAP2 SWAP1 PUSH2 0x521 JUMP JUMPDEST PUSH2 0x106 JUMP JUMPDEST STOP JUMPDEST PUSH2 0xB0 PUSH1 0x4 DUP1 CALLDATASIZE SUB DUP2 ADD SWAP1 PUSH2 0xAB SWAP2 SWAP1 PUSH2 0x5AC JUMP JUMPDEST PUSH2 0x2AB JUMP JUMPDEST PUSH1 0x40 MLOAD PUSH2 0xBD SWAP2 SWAP1 PUSH2 0x4D5 JUMP JUMPDEST PUSH1 0x40 MLOAD DUP1 SWAP2 SUB SWAP1 RETURN JUMPDEST PUSH2 0xE0 PUSH1 0x4 DUP1 CALLDATASIZE SUB DUP2 ADD SWAP1 PUSH2 0xDB SWAP2 SWAP1 PUSH2 0x521 JUMP JUMPDEST PUSH2 0x2C3 JUMP JUMPDEST STOP JUMPDEST PUSH2 0xEA PUSH2 0x3B4 JUMP JUMPDEST PUSH1 0x40 MLOAD PUSH2 0xF7 SWAP2 SWAP1 PUSH2 0x638 JUMP JUMPDEST PUSH1 0x40 MLOAD DUP1 SWAP2 SUB SWAP1 RETURN JUMPDEST PUSH1 0x0 SLOAD DUP2 JUMP JUMPDEST PUSH1 0x0 DUP2 GT PUSH2 0x149 JUMPI PUSH1 0x40 MLOAD PUSH32 0x8C379A000000000000000000000000000000000000000000000000000000000 DUP2 MSTORE PUSH1 0x4 ADD PUSH2 0x140 SWAP1 PUSH2 0x6B0 JUMP JUMPDEST PUSH1 0x40 MLOAD DUP1 SWAP2 SUB SWAP1 REVERT JUMPDEST PUSH1 0x0 DUP1 SLOAD DUP3 PUSH2 0x158 SWAP2 SWAP1 PUSH2 0x72E JUMP JUMPDEST PUSH32 0x0 PUSH20 0xFFFFFFFFFFFFFFFFFFFFFFFFFFFFFFFFFFFFFFFF AND PUSH4 0x70A08231 ADDRESS PUSH1 0x40 MLOAD DUP3 PUSH4 0xFFFFFFFF AND PUSH1 0xE0 SHL DUP2 MSTORE PUSH1 0x4 ADD PUSH2 0x1B1 SWAP2 SWAP1 PUSH2 0x76E JUMP JUMPDEST PUSH1 0x20 PUSH1 0x40 MLOAD DUP1 DUP4 SUB DUP2 DUP7 GAS STATICCALL ISZERO DUP1 ISZERO PUSH2 0x1CE JUMPI RETURNDATASIZE PUSH1 0x0 DUP1 RETURNDATACOPY RETURNDATASIZE PUSH1 0x0 REVERT JUMPDEST POP POP POP POP PUSH1 0x40 MLOAD RETURNDATASIZE PUSH1 0x1F NOT PUSH1 0x1F DUP3 ADD AND DUP3 ADD DUP1 PUSH1 0x40 MSTORE POP DUP2 ADD SWAP1 PUSH2 0x1F2 SWAP2 SWAP1 PUSH2 0x79E JUMP JUMPDEST PUSH2 0x1FC SWAP2 SWAP1 PUSH2 0x7CB JUMP JUMPDEST SWAP1 POP PUSH2 0x208 CALLER DUP4 PUSH2 0x3D8 JUMP JUMPDEST PUSH32 0x0 PUSH20 0xFFFFFFFFFFFFFFFFFFFFFFFFFFFFFFFFFFFFFFFF AND PUSH4 0xA9059CBB CALLER DUP4 PUSH1 0x40 MLOAD DUP4 PUSH4 0xFFFFFFFF AND PUSH1 0xE0 SHL DUP2 MSTORE PUSH1 0x4 ADD PUSH2 0x263 SWAP3 SWAP2 SWAP1 PUSH2 0x80D JUMP JUMPDEST PUSH1 0x20 PUSH1 0x40 MLOAD DUP1 DUP4 SUB DUP2 PUSH1 0x0 DUP8 GAS CALL ISZERO DUP1 ISZERO PUSH2 0x282 JUMPI RETURNDATASIZE PUSH1 0x0 DUP1 RETURNDATACOPY RETURNDATASIZE PUSH1 0x0 REVERT JUMPDEST POP POP POP POP PUSH1 0x40 MLOAD RETURNDATASIZE PUSH1 0x1F NOT PUSH1 0x1F DUP3 ADD AND DUP3 ADD DUP1 PUSH1 0x40 MSTORE POP DUP2 ADD SWAP1 PUSH2 0x2A6 SWAP2 SWAP1 PUSH2 0x86E JUMP JUMPDEST POP POP POP JUMP JUMPDEST PUSH1 0x1 PUSH1 0x20 MSTORE DUP1 PUSH1 0x0 MSTORE PUSH1 0x40 PUSH1 0x0 KECCAK256 PUSH1 0x0 SWAP2 POP SWAP1 POP SLOAD DUP2 JUMP JUMPDEST PUSH1 0x0 DUP2 GT PUSH2 0x306 JUMPI PUSH1 0x40 MLOAD PUSH32 0x8C379A000000000000000000000000000000000000000000000000000000000 DUP2 MSTORE PUSH1 0x4 ADD PUSH2 0x2FD SWAP1 PUSH2 0x8E7 JUMP JUMPDEST PUSH1 0x40 MLOAD DUP1 SWAP2 SUB SWAP1 REVERT JUMPDEST PUSH32 0x0 PUSH20 0xFFFFFFFFFFFFFFFFFFFFFFFFFFFFFFFFFFFFFFFF AND PUSH4 0x23B872DD CALLER ADDRESS DUP5 PUSH1 0x40 MLOAD DUP5 PUSH4 0xFFFFFFFF AND PUSH1 0xE0 SHL DUP2 MSTORE PUSH1 0x4 ADD PUSH2 0x363 SWAP4 SWAP3 SWAP2 SWAP1 PUSH2 0x907 JUMP JUMPDEST PUSH1 0x20 PUSH1 0x40 MLOAD DUP1 DUP4 SUB DUP2 PUSH1 0x0 DUP8 GAS CALL ISZERO DUP1 ISZERO PUSH2 0x382 JUMPI RETURNDATASIZE PUSH1 0x0 DUP1 RETURNDATACOPY RETURNDATASIZE PUSH1 0x0 REVERT JUMPDEST POP POP POP POP PUSH1 0x40 MLOAD RETURNDATASIZE PUSH1 0x1F NOT PUSH1 0x1F DUP3 ADD AND DUP3 ADD DUP1 PUSH1 0x40 MSTORE POP DUP2 ADD SWAP1 PUSH2 0x3A6 SWAP2 SWAP1 PUSH2 0x86E JUMP JUMPDEST POP PUSH2 0x3B1 CALLER DUP3 PUSH2 0x44A JUMP JUMPDEST POP JUMP JUMPDEST PUSH32 0x0 DUP2 JUMP JUMPDEST DUP1 PUSH1 0x1 PUSH1 0x0 DUP5 PUSH20 0xFFFFFFFFFFFFFFFFFFFFFFFFFFFFFFFFFFFFFFFF AND PUSH20 0xFFFFFFFFFFFFFFFFFFFFFFFFFFFFFFFFFFFFFFFF AND DUP2 MSTORE PUSH1 0x20 ADD SWAP1 DUP2 MSTORE PUSH1 0x20 ADD PUSH1 0x0 KECCAK256 PUSH1 0x0 DUP3 DUP3 SLOAD PUSH2 0x427 SWAP2 SWAP1 PUSH2 0x93E JUMP JUMPDEST SWAP3 POP POP DUP2 SWAP1 SSTORE POP DUP1 PUSH1 0x0 DUP1 DUP3 DUP3 SLOAD PUSH2 0x43F SWAP2 SWAP1 PUSH2 0x93E JUMP JUMPDEST SWAP3 POP POP DUP2 SWAP1 SSTORE POP POP POP JUMP JUMPDEST DUP1 PUSH1 0x1 PUSH1 0x0 DUP5 PUSH20 0xFFFFFFFFFFFFFFFFFFFFFFFFFFFFFFFFFFFFFFFF AND PUSH20 0xFFFFFFFFFFFFFFFFFFFFFFFFFFFFFFFFFFFFFFFF AND DUP2 MSTORE PUSH1 0x20 ADD SWAP1 DUP2 MSTORE PUSH1 0x20 ADD PUSH1 0x0 KECCAK256 PUSH1 0x0 DUP3 DUP3 SLOAD PUSH2 0x499 SWAP2 SWAP1 PUSH2 0x972 JUMP JUMPDEST SWAP3 POP POP DUP2 SWAP1 SSTORE POP DUP1 PUSH1 0x0 DUP1 DUP3 DUP3 SLOAD PUSH2 0x4B1 SWAP2 SWAP1 PUSH2 0x972 JUMP JUMPDEST SWAP3 POP POP DUP2 SWAP1 SSTORE POP POP POP JUMP JUMPDEST PUSH1 0x0 DUP2 SWAP1 POP SWAP2 SWAP1 POP JUMP JUMPDEST PUSH2 0x4CF DUP2 PUSH2 0x4BC JUMP JUMPDEST DUP3 MSTORE POP POP JUMP JUMPDEST PUSH1 0x0 PUSH1 0x20 DUP3 ADD SWAP1 POP PUSH2 0x4EA PUSH1 0x0 DUP4 ADD DUP5 PUSH2 0x4C6 JUMP JUMPDEST SWAP3 SWAP2 POP POP JUMP JUMPDEST PUSH1 0x0 DUP1 REVERT JUMPDEST PUSH2 0x4FE DUP2 PUSH2 0x4BC JUMP JUMPDEST DUP2 EQ PUSH2 0x509 JUMPI PUSH1 0x0 DUP1 REVERT JUMPDEST POP JUMP JUMPDEST PUSH1 0x0 DUP2 CALLDATALOAD SWAP1 POP PUSH2 0x51B DUP2 PUSH2 0x4F5 JUMP JUMPDEST SWAP3 SWAP2 POP POP JUMP JUMPDEST PUSH1 0x0 PUSH1 0x20 DUP3 DUP5 SUB SLT ISZERO PUSH2 0x537 JUMPI PUSH2 0x536 PUSH2 0x4F0 JUMP JUMPDEST JUMPDEST PUSH1 0x0 PUSH2 0x545 DUP5 DUP3 DUP6 ADD PUSH2 0x50C JUMP JUMPDEST SWAP2 POP POP SWAP3 SWAP2 POP POP JUMP JUMPDEST PUSH1 0x0 PUSH20 0xFFFFFFFFFFFFFFFFFFFFFFFFFFFFFFFFFFFFFFFF DUP3 AND SWAP1 POP SWAP2 SWAP1 POP JUMP JUMPDEST PUSH1 0x0 PUSH2 0x579 DUP3 PUSH2 0x54E JUMP JUMPDEST SWAP1 POP SWAP2 SWAP1 POP JUMP JUMPDEST PUSH2 0x589 DUP2 PUSH2 0x56E JUMP JUMPDEST DUP2 EQ PUSH2 0x594 JUMPI PUSH1 0x0 DUP1 REVERT JUMPDEST POP JUMP JUMPDEST PUSH1 0x0 DUP2 CALLDATALOAD SWAP1 POP PUSH2 0x5A6 DUP2 PUSH2 0x580 JUMP JUMPDEST SWAP3 SWAP2 POP POP JUMP JUMPDEST PUSH1 0x0 PUSH1 0x20 DUP3 DUP5 SUB SLT ISZERO PUSH2 0x5C2 JUMPI PUSH2 0x5C1 PUSH2 0x4F0 JUMP JUMPDEST JUMPDEST PUSH1 0x0 PUSH2 0x5D0 DUP5 DUP3 DUP6 ADD PUSH2 0x597 JUMP JUMPDEST SWAP2 POP POP SWAP3 SWAP2 POP POP JUMP JUMPDEST PUSH1 0x0 DUP2 SWAP1 POP SWAP2 SWAP1 POP JUMP JUMPDEST PUSH1 0x0 PUSH2 0x5FE PUSH2 0x5F9 PUSH2 0x5F4 DUP5 PUSH2 0x54E JUMP JUMPDEST PUSH2 0x5D9 JUMP JUMPDEST PUSH2 0x54E JUMP JUMPDEST SWAP1 POP SWAP2 SWAP1 POP JUMP JUMPDEST PUSH1 0x0 PUSH2 0x610 DUP3 PUSH2 0x5E3 JUMP JUMPDEST SWAP1 POP SWAP2 SWAP1 POP JUMP JUMPDEST PUSH1 0x0 PUSH2 0x622 DUP3 PUSH2 0x605 JUMP JUMPDEST SWAP1 POP SWAP2 SWAP1 POP JUMP JUMPDEST PUSH2 0x632 DUP2 PUSH2 0x617 JUMP JUMPDEST DUP3 MSTORE POP POP JUMP JUMPDEST PUSH1 0x0 PUSH1 0x20 DUP3 ADD SWAP1 POP PUSH2 0x64D PUSH1 0x0 DUP4 ADD DUP5 PUSH2 0x629 JUMP JUMPDEST SWAP3 SWAP2 POP POP JUMP JUMPDEST PUSH1 0x0 DUP3 DUP3 MSTORE PUSH1 0x20 DUP3 ADD SWAP1 POP SWAP3 SWAP2 POP POP JUMP JUMPDEST PUSH32 0x5F7368617265732063616E6E6F74203000000000000000000000000000000000 PUSH1 0x0 DUP3 ADD MSTORE POP JUMP JUMPDEST PUSH1 0x0 PUSH2 0x69A PUSH1 0x10 DUP4 PUSH2 0x653 JUMP JUMPDEST SWAP2 POP PUSH2 0x6A5 DUP3 PUSH2 0x664 JUMP JUMPDEST PUSH1 0x20 DUP3 ADD SWAP1 POP SWAP2 SWAP1 POP JUMP JUMPDEST PUSH1 0x0 PUSH1 0x20 DUP3 ADD SWAP1 POP DUP2 DUP2 SUB PUSH1 0x0 DUP4 ADD MSTORE PUSH2 0x6C9 DUP2 PUSH2 0x68D JUMP JUMPDEST SWAP1 POP SWAP2 SWAP1 POP JUMP JUMPDEST PUSH32 0x4E487B7100000000000000000000000000000000000000000000000000000000 PUSH1 0x0 MSTORE PUSH1 0x12 PUSH1 0x4 MSTORE PUSH1 0x24 PUSH1 0x0 REVERT JUMPDEST PUSH32 0x4E487B7100000000000000000000000000000000000000000000000000000000 PUSH1 0x0 MSTORE PUSH1 0x11 PUSH1 0x4 MSTORE PUSH1 0x24 PUSH1 0x0 REVERT JUMPDEST PUSH1 0x0 PUSH2 0x739 DUP3 PUSH2 0x4BC JUMP JUMPDEST SWAP2 POP PUSH2 0x744 DUP4 PUSH2 0x4BC JUMP JUMPDEST SWAP3 POP DUP3 PUSH2 0x754 JUMPI PUSH2 0x753 PUSH2 0x6D0 JUMP JUMPDEST JUMPDEST DUP3 DUP3 DIV SWAP1 POP SWAP3 SWAP2 POP POP JUMP JUMPDEST PUSH2 0x768 DUP2 PUSH2 0x56E JUMP JUMPDEST DUP3 MSTORE POP POP JUMP JUMPDEST PUSH1 0x0 PUSH1 0x20 DUP3 ADD SWAP1 POP PUSH2 0x783 PUSH1 0x0 DUP4 ADD DUP5 PUSH2 0x75F JUMP JUMPDEST SWAP3 SWAP2 POP POP JUMP JUMPDEST PUSH1 0x0 DUP2 MLOAD SWAP1 POP PUSH2 0x798 DUP2 PUSH2 0x4F5 JUMP JUMPDEST SWAP3 SWAP2 POP POP JUMP JUMPDEST PUSH1 0x0 PUSH1 0x20 DUP3 DUP5 SUB SLT ISZERO PUSH2 0x7B4 JUMPI PUSH2 0x7B3 PUSH2 0x4F0 JUMP JUMPDEST JUMPDEST PUSH1 0x0 PUSH2 0x7C2 DUP5 DUP3 DUP6 ADD PUSH2 0x789 JUMP JUMPDEST SWAP2 POP POP SWAP3 SWAP2 POP POP JUMP JUMPDEST PUSH1 0x0 PUSH2 0x7D6 DUP3 PUSH2 0x4BC JUMP JUMPDEST SWAP2 POP PUSH2 0x7E1 DUP4 PUSH2 0x4BC JUMP JUMPDEST SWAP3 POP DUP3 DUP3 MUL PUSH2 0x7EF DUP2 PUSH2 0x4BC JUMP JUMPDEST SWAP2 POP DUP3 DUP3 DIV DUP5 EQ DUP4 ISZERO OR PUSH2 0x806 JUMPI PUSH2 0x805 PUSH2 0x6FF JUMP JUMPDEST JUMPDEST POP SWAP3 SWAP2 POP POP JUMP JUMPDEST PUSH1 0x0 PUSH1 0x40 DUP3 ADD SWAP1 POP PUSH2 0x822 PUSH1 0x0 DUP4 ADD DUP6 PUSH2 0x75F JUMP JUMPDEST PUSH2 0x82F PUSH1 0x20 DUP4 ADD DUP5 PUSH2 0x4C6 JUMP JUMPDEST SWAP4 SWAP3 POP POP POP JUMP JUMPDEST PUSH1 0x0 DUP2 ISZERO ISZERO SWAP1 POP SWAP2 SWAP1 POP JUMP JUMPDEST PUSH2 0x84B DUP2 PUSH2 0x836 JUMP JUMPDEST DUP2 EQ PUSH2 0x856 JUMPI PUSH1 0x0 DUP1 REVERT JUMPDEST POP JUMP JUMPDEST PUSH1 0x0 DUP2 MLOAD SWAP1 POP PUSH2 0x868 DUP2 PUSH2 0x842 JUMP JUMPDEST SWAP3 SWAP2 POP POP JUMP JUMPDEST PUSH1 0x0 PUSH1 0x20 DUP3 DUP5 SUB SLT ISZERO PUSH2 0x884 JUMPI PUSH2 0x883 PUSH2 0x4F0 JUMP JUMPDEST JUMPDEST PUSH1 0x0 PUSH2 0x892 DUP5 DUP3 DUP6 ADD PUSH2 0x859 JUMP JUMPDEST SWAP2 POP POP SWAP3 SWAP2 POP POP JUMP JUMPDEST PUSH32 0x5F616D6F756E742063616E6E6F74203000000000000000000000000000000000 PUSH1 0x0 DUP3 ADD MSTORE POP JUMP JUMPDEST PUSH1 0x0 PUSH2 0x8D1 PUSH1 0x10 DUP4 PUSH2 0x653 JUMP JUMPDEST SWAP2 POP PUSH2 0x8DC DUP3 PUSH2 0x89B JUMP JUMPDEST PUSH1 0x20 DUP3 ADD SWAP1 POP SWAP2 SWAP1 POP JUMP JUMPDEST PUSH1 0x0 PUSH1 0x20 DUP3 ADD SWAP1 POP DUP2 DUP2 SUB PUSH1 0x0 DUP4 ADD MSTORE PUSH2 0x900 DUP2 PUSH2 0x8C4 JUMP JUMPDEST SWAP1 POP SWAP2 SWAP1 POP JUMP JUMPDEST PUSH1 0x0 PUSH1 0x60 DUP3 ADD SWAP1 POP PUSH2 0x91C PUSH1 0x0 DUP4 ADD DUP7 PUSH2 0x75F JUMP JUMPDEST PUSH2 0x929 PUSH1 0x20 DUP4 ADD DUP6 PUSH2 0x75F JUMP JUMPDEST PUSH2 0x936 PUSH1 0x40 DUP4 ADD DUP5 PUSH2 0x4C6 JUMP JUMPDEST SWAP5 SWAP4 POP POP POP POP JUMP JUMPDEST PUSH1 0x0 PUSH2 0x949 DUP3 PUSH2 0x4BC JUMP JUMPDEST SWAP2 POP PUSH2 0x954 DUP4 PUSH2 0x4BC JUMP JUMPDEST SWAP3 POP DUP3 DUP3 SUB SWAP1 POP DUP2 DUP2 GT ISZERO PUSH2 0x96C JUMPI PUSH2 0x96B PUSH2 0x6FF JUMP JUMPDEST JUMPDEST SWAP3 SWAP2 POP POP JUMP JUMPDEST PUSH1 0x0 PUSH2 0x97D DUP3 PUSH2 0x4BC JUMP JUMPDEST SWAP2 POP PUSH2 0x988 DUP4 PUSH2 0x4BC JUMP JUMPDEST SWAP3 POP DUP3 DUP3 ADD SWAP1 POP DUP1 DUP3 GT ISZERO PUSH2 0x9A0 JUMPI PUSH2 0x99F PUSH2 0x6FF JUMP JUMPDEST JUMPDEST SWAP3 SWAP2 POP POP JUMP INVALID LOG2 PUSH5 0x6970667358 0x22 SLT KECCAK256 0xB0 CHAINID 0xD4 COINBASE MSTORE 0xB0 INVALID CALLDATACOPY 0x5C 0xD PUSH30 0xC16DA74E3C98518FB549C3926EEFBC18B00A24A0A764736F6C6343000812 STOP CALLER "
				},
				"gasEstimates": {
					"creation": {
						"codeDepositCost": "504800",
						"executionCost": "infinite",
						"totalCost": "infinite"
					},
					"external": {
						"balanceOf(address)": "2836",
						"deposit(uint256)": "infinite",
						"token()": "infinite",
						"totalSupply()": "2407",
						"withdraw(uint256)": "infinite"
					},
					"internal": {
						"_burn(address,uint256)": "infinite",
						"_mint(address,uint256)": "infinite"
					}
				},
				"methodIdentifiers": {
					"balanceOf(address)": "70a08231",
					"deposit(uint256)": "b6b55f25",
					"token()": "fc0c546a",
					"totalSupply()": "18160ddd",
					"withdraw(uint256)": "2e1a7d4d"
				}
			},
			"storageLayout": {
				"storage": [
					{
						"astId": 88,
						"contract": "defi-theory/contracts/001_Vault_start.sol:Vault",
						"label": "totalSupply",
						"offset": 0,
						"slot": "0",
						"type": "t_uint256"
					},
					{
						"astId": 92,
						"contract": "defi-theory/contracts/001_Vault_start.sol:Vault",
						"label": "balanceOf",
						"offset": 0,
						"slot": "1",
						"type": "t_mapping(t_address,t_uint256)"
					}
				],
				"types": {
					"t_address": {
						"encoding": "inplace",
						"label": "address",
						"numberOfBytes": "20"
					},
					"t_mapping(t_address,t_uint256)": {
						"encoding": "mapping",
						"key": "t_address",
						"label": "mapping(address => uint256)",
						"numberOfBytes": "32",
						"value": "t_uint256"
					},
					"t_uint256": {
						"encoding": "inplace",
						"label": "uint256",
						"numberOfBytes": "32"
					}
				}
			},
			"userdoc": {
				"kind": "user",
				"methods": {},
				"version": 1
			}
		}
	}
}