{
	"defi-practice/contracts/04_Exchange.sol": {
		"Exchange": {
			"abi": [
				{
					"inputs": [
						{
							"internalType": "address",
							"name": "token",
							"type": "address"
						},
						{
							"internalType": "address",
							"name": "usdt",
							"type": "address"
						}
					],
					"stateMutability": "nonpayable",
					"type": "constructor"
				},
				{
					"anonymous": false,
					"inputs": [
						{
							"indexed": true,
							"internalType": "address",
							"name": "provider",
							"type": "address"
						},
						{
							"indexed": true,
							"internalType": "uint256",
							"name": "usdtAmount",
							"type": "uint256"
						},
						{
							"indexed": true,
							"internalType": "uint256",
							"name": "tokenAmount",
							"type": "uint256"
						}
					],
					"name": "AddLiquidity",
					"type": "event"
				},
				{
					"anonymous": false,
					"inputs": [
						{
							"indexed": true,
							"internalType": "address",
							"name": "owner",
							"type": "address"
						},
						{
							"indexed": true,
							"internalType": "address",
							"name": "spender",
							"type": "address"
						},
						{
							"indexed": false,
							"internalType": "uint256",
							"name": "value",
							"type": "uint256"
						}
					],
					"name": "Approval",
					"type": "event"
				},
				{
					"anonymous": false,
					"inputs": [
						{
							"indexed": true,
							"internalType": "address",
							"name": "provider",
							"type": "address"
						},
						{
							"indexed": true,
							"internalType": "uint256",
							"name": "usdtAmount",
							"type": "uint256"
						},
						{
							"indexed": true,
							"internalType": "uint256",
							"name": "tokenAmount",
							"type": "uint256"
						}
					],
					"name": "RemoveLiquidity",
					"type": "event"
				},
				{
					"anonymous": false,
					"inputs": [
						{
							"indexed": true,
							"internalType": "address",
							"name": "buyer",
							"type": "address"
						},
						{
							"indexed": true,
							"internalType": "uint256",
							"name": "usdtSold",
							"type": "uint256"
						},
						{
							"indexed": false,
							"internalType": "uint256",
							"name": "tokenBought",
							"type": "uint256"
						}
					],
					"name": "TokenPurchase",
					"type": "event"
				},
				{
					"anonymous": false,
					"inputs": [
						{
							"indexed": true,
							"internalType": "address",
							"name": "from",
							"type": "address"
						},
						{
							"indexed": true,
							"internalType": "address",
							"name": "to",
							"type": "address"
						},
						{
							"indexed": false,
							"internalType": "uint256",
							"name": "value",
							"type": "uint256"
						}
					],
					"name": "Transfer",
					"type": "event"
				},
				{
					"anonymous": false,
					"inputs": [
						{
							"indexed": true,
							"internalType": "address",
							"name": "buyer",
							"type": "address"
						},
						{
							"indexed": true,
							"internalType": "uint256",
							"name": "tokenSold",
							"type": "uint256"
						},
						{
							"indexed": false,
							"internalType": "uint256",
							"name": "usdtBought",
							"type": "uint256"
						}
					],
					"name": "UsdtPurchase",
					"type": "event"
				},
				{
					"inputs": [
						{
							"internalType": "uint256",
							"name": "tokenAmount",
							"type": "uint256"
						},
						{
							"internalType": "uint256",
							"name": "usdtAmount",
							"type": "uint256"
						}
					],
					"name": "addLiquidity",
					"outputs": [
						{
							"internalType": "uint256",
							"name": "liquidity",
							"type": "uint256"
						}
					],
					"stateMutability": "nonpayable",
					"type": "function"
				},
				{
					"inputs": [
						{
							"internalType": "address",
							"name": "owner",
							"type": "address"
						},
						{
							"internalType": "address",
							"name": "spender",
							"type": "address"
						}
					],
					"name": "allowance",
					"outputs": [
						{
							"internalType": "uint256",
							"name": "",
							"type": "uint256"
						}
					],
					"stateMutability": "view",
					"type": "function"
				},
				{
					"inputs": [
						{
							"internalType": "address",
							"name": "spender",
							"type": "address"
						},
						{
							"internalType": "uint256",
							"name": "amount",
							"type": "uint256"
						}
					],
					"name": "approve",
					"outputs": [
						{
							"internalType": "bool",
							"name": "",
							"type": "bool"
						}
					],
					"stateMutability": "nonpayable",
					"type": "function"
				},
				{
					"inputs": [
						{
							"internalType": "address",
							"name": "account",
							"type": "address"
						}
					],
					"name": "balanceOf",
					"outputs": [
						{
							"internalType": "uint256",
							"name": "",
							"type": "uint256"
						}
					],
					"stateMutability": "view",
					"type": "function"
				},
				{
					"inputs": [],
					"name": "decimals",
					"outputs": [
						{
							"internalType": "uint8",
							"name": "",
							"type": "uint8"
						}
					],
					"stateMutability": "view",
					"type": "function"
				},
				{
					"inputs": [
						{
							"internalType": "address",
							"name": "spender",
							"type": "address"
						},
						{
							"internalType": "uint256",
							"name": "subtractedValue",
							"type": "uint256"
						}
					],
					"name": "decreaseAllowance",
					"outputs": [
						{
							"internalType": "bool",
							"name": "",
							"type": "bool"
						}
					],
					"stateMutability": "nonpayable",
					"type": "function"
				},
				{
					"inputs": [],
					"name": "factoryAddress",
					"outputs": [
						{
							"internalType": "address",
							"name": "",
							"type": "address"
						}
					],
					"stateMutability": "view",
					"type": "function"
				},
				{
					"inputs": [
						{
							"internalType": "uint256",
							"name": "outputAmount",
							"type": "uint256"
						},
						{
							"internalType": "address",
							"name": "outputToken",
							"type": "address"
						}
					],
					"name": "getAmountIn",
					"outputs": [
						{
							"internalType": "uint256",
							"name": "inputAmount",
							"type": "uint256"
						}
					],
					"stateMutability": "view",
					"type": "function"
				},
				{
					"inputs": [
						{
							"internalType": "uint256",
							"name": "inputAmount",
							"type": "uint256"
						},
						{
							"internalType": "address",
							"name": "inputToken",
							"type": "address"
						}
					],
					"name": "getAmountOut",
					"outputs": [
						{
							"internalType": "uint256",
							"name": "outputAmount",
							"type": "uint256"
						}
					],
					"stateMutability": "view",
					"type": "function"
				},
				{
					"inputs": [],
					"name": "getReserves",
					"outputs": [
						{
							"internalType": "uint256",
							"name": "tokenReserve",
							"type": "uint256"
						},
						{
							"internalType": "uint256",
							"name": "usdtReserve",
							"type": "uint256"
						}
					],
					"stateMutability": "view",
					"type": "function"
				},
				{
					"inputs": [
						{
							"internalType": "address",
							"name": "spender",
							"type": "address"
						},
						{
							"internalType": "uint256",
							"name": "addedValue",
							"type": "uint256"
						}
					],
					"name": "increaseAllowance",
					"outputs": [
						{
							"internalType": "bool",
							"name": "",
							"type": "bool"
						}
					],
					"stateMutability": "nonpayable",
					"type": "function"
				},
				{
					"inputs": [],
					"name": "name",
					"outputs": [
						{
							"internalType": "string",
							"name": "",
							"type": "string"
						}
					],
					"stateMutability": "view",
					"type": "function"
				},
				{
					"inputs": [
						{
							"internalType": "uint256",
							"name": "liquidity",
							"type": "uint256"
						}
					],
					"name": "removeLiquidity",
					"outputs": [
						{
							"internalType": "uint256",
							"name": "usdtAmount",
							"type": "uint256"
						},
						{
							"internalType": "uint256",
							"name": "tokenAmount",
							"type": "uint256"
						}
					],
					"stateMutability": "nonpayable",
					"type": "function"
				},
				{
					"inputs": [
						{
							"internalType": "uint256",
							"name": "amountTokenIn",
							"type": "uint256"
						},
						{
							"internalType": "uint256",
							"name": "expectedUsdtAmount",
							"type": "uint256"
						},
						{
							"internalType": "address",
							"name": "to",
							"type": "address"
						}
					],
					"name": "swapExactTokenToUsdt",
					"outputs": [],
					"stateMutability": "nonpayable",
					"type": "function"
				},
				{
					"inputs": [
						{
							"internalType": "uint256",
							"name": "amountUsdtIn",
							"type": "uint256"
						},
						{
							"internalType": "uint256",
							"name": "expectedTokenAmount",
							"type": "uint256"
						},
						{
							"internalType": "address",
							"name": "to",
							"type": "address"
						}
					],
					"name": "swapExactUsdtToToken",
					"outputs": [],
					"stateMutability": "nonpayable",
					"type": "function"
				},
				{
					"inputs": [
						{
							"internalType": "uint256",
							"name": "amountUsdtOut",
							"type": "uint256"
						},
						{
							"internalType": "uint256",
							"name": "maxTokenAmountIn",
							"type": "uint256"
						},
						{
							"internalType": "address",
							"name": "to",
							"type": "address"
						}
					],
					"name": "swapTokenToExactUsdt",
					"outputs": [],
					"stateMutability": "nonpayable",
					"type": "function"
				},
				{
					"inputs": [
						{
							"internalType": "uint256",
							"name": "amountTokenOut",
							"type": "uint256"
						},
						{
							"internalType": "uint256",
							"name": "maxUsdtAmountIn",
							"type": "uint256"
						},
						{
							"internalType": "address",
							"name": "to",
							"type": "address"
						}
					],
					"name": "swapUsdtToExactToken",
					"outputs": [],
					"stateMutability": "nonpayable",
					"type": "function"
				},
				{
					"inputs": [],
					"name": "symbol",
					"outputs": [
						{
							"internalType": "string",
							"name": "",
							"type": "string"
						}
					],
					"stateMutability": "view",
					"type": "function"
				},
				{
					"inputs": [],
					"name": "tokenAddress",
					"outputs": [
						{
							"internalType": "address",
							"name": "",
							"type": "address"
						}
					],
					"stateMutability": "view",
					"type": "function"
				},
				{
					"inputs": [],
					"name": "totalSupply",
					"outputs": [
						{
							"internalType": "uint256",
							"name": "",
							"type": "uint256"
						}
					],
					"stateMutability": "view",
					"type": "function"
				},
				{
					"inputs": [
						{
							"internalType": "address",
							"name": "to",
							"type": "address"
						},
						{
							"internalType": "uint256",
							"name": "amount",
							"type": "uint256"
						}
					],
					"name": "transfer",
					"outputs": [
						{
							"internalType": "bool",
							"name": "",
							"type": "bool"
						}
					],
					"stateMutability": "nonpayable",
					"type": "function"
				},
				{
					"inputs": [
						{
							"internalType": "address",
							"name": "from",
							"type": "address"
						},
						{
							"internalType": "address",
							"name": "to",
							"type": "address"
						},
						{
							"internalType": "uint256",
							"name": "amount",
							"type": "uint256"
						}
					],
					"name": "transferFrom",
					"outputs": [
						{
							"internalType": "bool",
							"name": "",
							"type": "bool"
						}
					],
					"stateMutability": "nonpayable",
					"type": "function"
				},
				{
					"inputs": [],
					"name": "usdtAddress",
					"outputs": [
						{
							"internalType": "address",
							"name": "",
							"type": "address"
						}
					],
					"stateMutability": "view",
					"type": "function"
				}
			],
			"devdoc": {
				"events": {
					"Approval(address,address,uint256)": {
						"details": "Emitted when the allowance of a `spender` for an `owner` is set by a call to {approve}. `value` is the new allowance."
					},
					"Transfer(address,address,uint256)": {
						"details": "Emitted when `value` tokens are moved from one account (`from`) to another (`to`). Note that `value` may be zero."
					}
				},
				"kind": "dev",
				"methods": {
					"allowance(address,address)": {
						"details": "See {IERC20-allowance}."
					},
					"approve(address,uint256)": {
						"details": "See {IERC20-approve}. NOTE: If `amount` is the maximum `uint256`, the allowance is not updated on `transferFrom`. This is semantically equivalent to an infinite approval. Requirements: - `spender` cannot be the zero address."
					},
					"balanceOf(address)": {
						"details": "See {IERC20-balanceOf}."
					},
					"decimals()": {
						"details": "Returns the number of decimals used to get its user representation. For example, if `decimals` equals `2`, a balance of `505` tokens should be displayed to a user as `5.05` (`505 / 10 ** 2`). Tokens usually opt for a value of 18, imitating the relationship between Ether and Wei. This is the default value returned by this function, unless it's overridden. NOTE: This information is only used for _display_ purposes: it in no way affects any of the arithmetic of the contract, including {IERC20-balanceOf} and {IERC20-transfer}."
					},
					"decreaseAllowance(address,uint256)": {
						"details": "Atomically decreases the allowance granted to `spender` by the caller. This is an alternative to {approve} that can be used as a mitigation for problems described in {IERC20-approve}. Emits an {Approval} event indicating the updated allowance. Requirements: - `spender` cannot be the zero address. - `spender` must have allowance for the caller of at least `subtractedValue`."
					},
					"increaseAllowance(address,uint256)": {
						"details": "Atomically increases the allowance granted to `spender` by the caller. This is an alternative to {approve} that can be used as a mitigation for problems described in {IERC20-approve}. Emits an {Approval} event indicating the updated allowance. Requirements: - `spender` cannot be the zero address."
					},
					"name()": {
						"details": "Returns the name of the token."
					},
					"symbol()": {
						"details": "Returns the symbol of the token, usually a shorter version of the name."
					},
					"totalSupply()": {
						"details": "See {IERC20-totalSupply}."
					},
					"transfer(address,uint256)": {
						"details": "See {IERC20-transfer}. Requirements: - `to` cannot be the zero address. - the caller must have a balance of at least `amount`."
					},
					"transferFrom(address,address,uint256)": {
						"details": "See {IERC20-transferFrom}. Emits an {Approval} event indicating the updated allowance. This is not required by the EIP. See the note at the beginning of {ERC20}. NOTE: Does not update the allowance if the current allowance is the maximum `uint256`. Requirements: - `from` and `to` cannot be the zero address. - `from` must have a balance of at least `amount`. - the caller must have allowance for ``from``'s tokens of at least `amount`."
					}
				},
				"version": 1
			},
			"evm": {
				"assembly": "    /* \"defi-practice/contracts/04_Exchange.sol\":171:9465  contract Exchange is ERC20 {... */\n  mstore(0x40, 0x80)\n    /* \"defi-practice/contracts/04_Exchange.sol\":846:1076  constructor(address token, address usdt) ERC20(\"cbiswap\", \"CBI\") {... */\n  callvalue\n  dup1\n  iszero\n  tag_1\n  jumpi\n  0x00\n  dup1\n  revert\ntag_1:\n  pop\n  mload(0x40)\n  sub(codesize, bytecodeSize)\n  dup1\n  bytecodeSize\n  dup4\n  codecopy\n  dup2\n  dup2\n  add\n  0x40\n  mstore\n  dup2\n  add\n  swap1\n  tag_2\n  swap2\n  swap1\n  tag_3\n  jump\t// in\ntag_2:\n    /* \"@openzeppelin/contracts/token/ERC20/ERC20.sol\":1980:2093  constructor(string memory name_, string memory symbol_) {... */\n  mload(0x40)\n  dup1\n  0x40\n  add\n  0x40\n  mstore\n  dup1\n  0x07\n  dup2\n  mstore\n  0x20\n  add\n  0x6362697377617000000000000000000000000000000000000000000000000000\n  dup2\n  mstore\n  pop\n  mload(0x40)\n  dup1\n  0x40\n  add\n  0x40\n  mstore\n  dup1\n  0x03\n  dup2\n  mstore\n  0x20\n  add\n  0x4342490000000000000000000000000000000000000000000000000000000000\n  dup2\n  mstore\n  pop\n    /* \"@openzeppelin/contracts/token/ERC20/ERC20.sol\":2054:2059  name_ */\n  dup2\n    /* \"@openzeppelin/contracts/token/ERC20/ERC20.sol\":2046:2051  _name */\n  0x03\n    /* \"@openzeppelin/contracts/token/ERC20/ERC20.sol\":2046:2059  _name = name_ */\n  swap1\n  dup2\n  tag_7\n  swap2\n  swap1\n  tag_8\n  jump\t// in\ntag_7:\n  pop\n    /* \"@openzeppelin/contracts/token/ERC20/ERC20.sol\":2079:2086  symbol_ */\n  dup1\n    /* \"@openzeppelin/contracts/token/ERC20/ERC20.sol\":2069:2076  _symbol */\n  0x04\n    /* \"@openzeppelin/contracts/token/ERC20/ERC20.sol\":2069:2086  _symbol = symbol_ */\n  swap1\n  dup2\n  tag_9\n  swap2\n  swap1\n  tag_8\n  jump\t// in\ntag_9:\n  pop\n    /* \"@openzeppelin/contracts/token/ERC20/ERC20.sol\":1980:2093  constructor(string memory name_, string memory symbol_) {... */\n  pop\n  pop\n    /* \"defi-practice/contracts/04_Exchange.sol\":946:947  0 */\n  0x00\n    /* \"defi-practice/contracts/04_Exchange.sol\":929:948  token != address(0) */\n  0xffffffffffffffffffffffffffffffffffffffff\n  and\n    /* \"defi-practice/contracts/04_Exchange.sol\":929:934  token */\n  dup3\n    /* \"defi-practice/contracts/04_Exchange.sol\":929:948  token != address(0) */\n  0xffffffffffffffffffffffffffffffffffffffff\n  and\n  sub\n    /* \"defi-practice/contracts/04_Exchange.sol\":921:974  require(token != address(0), \"invalid token address\") */\n  tag_11\n  jumpi\n  mload(0x40)\n  0x08c379a000000000000000000000000000000000000000000000000000000000\n  dup2\n  mstore\n  0x04\n  add\n  tag_12\n  swap1\n  tag_13\n  jump\t// in\ntag_12:\n  mload(0x40)\n  dup1\n  swap2\n  sub\n  swap1\n  revert\ntag_11:\n    /* \"defi-practice/contracts/04_Exchange.sol\":999:1004  token */\n  dup2\n    /* \"defi-practice/contracts/04_Exchange.sol\":984:996  tokenAddress */\n  0x05\n  0x00\n    /* \"defi-practice/contracts/04_Exchange.sol\":984:1004  tokenAddress = token */\n  0x0100\n  exp\n  dup2\n  sload\n  dup2\n  0xffffffffffffffffffffffffffffffffffffffff\n  mul\n  not\n  and\n  swap1\n  dup4\n  0xffffffffffffffffffffffffffffffffffffffff\n  and\n  mul\n  or\n  swap1\n  sstore\n  pop\n    /* \"defi-practice/contracts/04_Exchange.sol\":1028:1032  usdt */\n  dup1\n    /* \"defi-practice/contracts/04_Exchange.sol\":1014:1025  usdtAddress */\n  0x06\n  0x00\n    /* \"defi-practice/contracts/04_Exchange.sol\":1014:1032  usdtAddress = usdt */\n  0x0100\n  exp\n  dup2\n  sload\n  dup2\n  0xffffffffffffffffffffffffffffffffffffffff\n  mul\n  not\n  and\n  swap1\n  dup4\n  0xffffffffffffffffffffffffffffffffffffffff\n  and\n  mul\n  or\n  swap1\n  sstore\n  pop\n    /* \"defi-practice/contracts/04_Exchange.sol\":1059:1069  msg.sender */\n  caller\n    /* \"defi-practice/contracts/04_Exchange.sol\":1042:1056  factoryAddress */\n  0x07\n  0x00\n    /* \"defi-practice/contracts/04_Exchange.sol\":1042:1069  factoryAddress = msg.sender */\n  0x0100\n  exp\n  dup2\n  sload\n  dup2\n  0xffffffffffffffffffffffffffffffffffffffff\n  mul\n  not\n  and\n  swap1\n  dup4\n  0xffffffffffffffffffffffffffffffffffffffff\n  and\n  mul\n  or\n  swap1\n  sstore\n  pop\n    /* \"defi-practice/contracts/04_Exchange.sol\":846:1076  constructor(address token, address usdt) ERC20(\"cbiswap\", \"CBI\") {... */\n  pop\n  pop\n    /* \"defi-practice/contracts/04_Exchange.sol\":171:9465  contract Exchange is ERC20 {... */\n  jump(tag_14)\n    /* \"#utility.yul\":88:205   */\ntag_16:\n    /* \"#utility.yul\":197:198   */\n  0x00\n    /* \"#utility.yul\":194:195   */\n  dup1\n    /* \"#utility.yul\":187:199   */\n  revert\n    /* \"#utility.yul\":334:460   */\ntag_18:\n    /* \"#utility.yul\":371:378   */\n  0x00\n    /* \"#utility.yul\":411:453   */\n  0xffffffffffffffffffffffffffffffffffffffff\n    /* \"#utility.yul\":404:409   */\n  dup3\n    /* \"#utility.yul\":400:454   */\n  and\n    /* \"#utility.yul\":389:454   */\n  swap1\n  pop\n    /* \"#utility.yul\":334:460   */\n  swap2\n  swap1\n  pop\n  jump\t// out\n    /* \"#utility.yul\":466:562   */\ntag_19:\n    /* \"#utility.yul\":503:510   */\n  0x00\n    /* \"#utility.yul\":532:556   */\n  tag_51\n    /* \"#utility.yul\":550:555   */\n  dup3\n    /* \"#utility.yul\":532:556   */\n  tag_18\n  jump\t// in\ntag_51:\n    /* \"#utility.yul\":521:556   */\n  swap1\n  pop\n    /* \"#utility.yul\":466:562   */\n  swap2\n  swap1\n  pop\n  jump\t// out\n    /* \"#utility.yul\":568:690   */\ntag_20:\n    /* \"#utility.yul\":641:665   */\n  tag_53\n    /* \"#utility.yul\":659:664   */\n  dup2\n    /* \"#utility.yul\":641:665   */\n  tag_19\n  jump\t// in\ntag_53:\n    /* \"#utility.yul\":634:639   */\n  dup2\n    /* \"#utility.yul\":631:666   */\n  eq\n    /* \"#utility.yul\":621:684   */\n  tag_54\n  jumpi\n    /* \"#utility.yul\":680:681   */\n  0x00\n    /* \"#utility.yul\":677:678   */\n  dup1\n    /* \"#utility.yul\":670:682   */\n  revert\n    /* \"#utility.yul\":621:684   */\ntag_54:\n    /* \"#utility.yul\":568:690   */\n  pop\n  jump\t// out\n    /* \"#utility.yul\":696:839   */\ntag_21:\n    /* \"#utility.yul\":753:758   */\n  0x00\n    /* \"#utility.yul\":784:790   */\n  dup2\n    /* \"#utility.yul\":778:791   */\n  mload\n    /* \"#utility.yul\":769:791   */\n  swap1\n  pop\n    /* \"#utility.yul\":800:833   */\n  tag_56\n    /* \"#utility.yul\":827:832   */\n  dup2\n    /* \"#utility.yul\":800:833   */\n  tag_20\n  jump\t// in\ntag_56:\n    /* \"#utility.yul\":696:839   */\n  swap3\n  swap2\n  pop\n  pop\n  jump\t// out\n    /* \"#utility.yul\":845:1352   */\ntag_3:\n    /* \"#utility.yul\":924:930   */\n  0x00\n    /* \"#utility.yul\":932:938   */\n  dup1\n    /* \"#utility.yul\":981:983   */\n  0x40\n    /* \"#utility.yul\":969:978   */\n  dup4\n    /* \"#utility.yul\":960:967   */\n  dup6\n    /* \"#utility.yul\":956:979   */\n  sub\n    /* \"#utility.yul\":952:984   */\n  slt\n    /* \"#utility.yul\":949:1068   */\n  iszero\n  tag_58\n  jumpi\n    /* \"#utility.yul\":987:1066   */\n  tag_59\n  tag_16\n  jump\t// in\ntag_59:\n    /* \"#utility.yul\":949:1068   */\ntag_58:\n    /* \"#utility.yul\":1107:1108   */\n  0x00\n    /* \"#utility.yul\":1132:1196   */\n  tag_60\n    /* \"#utility.yul\":1188:1195   */\n  dup6\n    /* \"#utility.yul\":1179:1185   */\n  dup3\n    /* \"#utility.yul\":1168:1177   */\n  dup7\n    /* \"#utility.yul\":1164:1186   */\n  add\n    /* \"#utility.yul\":1132:1196   */\n  tag_21\n  jump\t// in\ntag_60:\n    /* \"#utility.yul\":1122:1196   */\n  swap3\n  pop\n    /* \"#utility.yul\":1078:1206   */\n  pop\n    /* \"#utility.yul\":1245:1247   */\n  0x20\n    /* \"#utility.yul\":1271:1335   */\n  tag_61\n    /* \"#utility.yul\":1327:1334   */\n  dup6\n    /* \"#utility.yul\":1318:1324   */\n  dup3\n    /* \"#utility.yul\":1307:1316   */\n  dup7\n    /* \"#utility.yul\":1303:1325   */\n  add\n    /* \"#utility.yul\":1271:1335   */\n  tag_21\n  jump\t// in\ntag_61:\n    /* \"#utility.yul\":1261:1335   */\n  swap2\n  pop\n    /* \"#utility.yul\":1216:1345   */\n  pop\n    /* \"#utility.yul\":845:1352   */\n  swap3\n  pop\n  swap3\n  swap1\n  pop\n  jump\t// out\n    /* \"#utility.yul\":1358:1457   */\ntag_22:\n    /* \"#utility.yul\":1410:1416   */\n  0x00\n    /* \"#utility.yul\":1444:1449   */\n  dup2\n    /* \"#utility.yul\":1438:1450   */\n  mload\n    /* \"#utility.yul\":1428:1450   */\n  swap1\n  pop\n    /* \"#utility.yul\":1358:1457   */\n  swap2\n  swap1\n  pop\n  jump\t// out\n    /* \"#utility.yul\":1463:1643   */\ntag_23:\n    /* \"#utility.yul\":1511:1588   */\n  0x4e487b7100000000000000000000000000000000000000000000000000000000\n    /* \"#utility.yul\":1508:1509   */\n  0x00\n    /* \"#utility.yul\":1501:1589   */\n  mstore\n    /* \"#utility.yul\":1608:1612   */\n  0x41\n    /* \"#utility.yul\":1605:1606   */\n  0x04\n    /* \"#utility.yul\":1598:1613   */\n  mstore\n    /* \"#utility.yul\":1632:1636   */\n  0x24\n    /* \"#utility.yul\":1629:1630   */\n  0x00\n    /* \"#utility.yul\":1622:1637   */\n  revert\n    /* \"#utility.yul\":1649:1829   */\ntag_24:\n    /* \"#utility.yul\":1697:1774   */\n  0x4e487b7100000000000000000000000000000000000000000000000000000000\n    /* \"#utility.yul\":1694:1695   */\n  0x00\n    /* \"#utility.yul\":1687:1775   */\n  mstore\n    /* \"#utility.yul\":1794:1798   */\n  0x22\n    /* \"#utility.yul\":1791:1792   */\n  0x04\n    /* \"#utility.yul\":1784:1799   */\n  mstore\n    /* \"#utility.yul\":1818:1822   */\n  0x24\n    /* \"#utility.yul\":1815:1816   */\n  0x00\n    /* \"#utility.yul\":1808:1823   */\n  revert\n    /* \"#utility.yul\":1835:2155   */\ntag_25:\n    /* \"#utility.yul\":1879:1885   */\n  0x00\n    /* \"#utility.yul\":1916:1917   */\n  0x02\n    /* \"#utility.yul\":1910:1914   */\n  dup3\n    /* \"#utility.yul\":1906:1918   */\n  div\n    /* \"#utility.yul\":1896:1918   */\n  swap1\n  pop\n    /* \"#utility.yul\":1963:1964   */\n  0x01\n    /* \"#utility.yul\":1957:1961   */\n  dup3\n    /* \"#utility.yul\":1953:1965   */\n  and\n    /* \"#utility.yul\":1984:2002   */\n  dup1\n    /* \"#utility.yul\":1974:2055   */\n  tag_66\n  jumpi\n    /* \"#utility.yul\":2040:2044   */\n  0x7f\n    /* \"#utility.yul\":2032:2038   */\n  dup3\n    /* \"#utility.yul\":2028:2045   */\n  and\n    /* \"#utility.yul\":2018:2045   */\n  swap2\n  pop\n    /* \"#utility.yul\":1974:2055   */\ntag_66:\n    /* \"#utility.yul\":2102:2104   */\n  0x20\n    /* \"#utility.yul\":2094:2100   */\n  dup3\n    /* \"#utility.yul\":2091:2105   */\n  lt\n    /* \"#utility.yul\":2071:2089   */\n  dup2\n    /* \"#utility.yul\":2068:2106   */\n  sub\n    /* \"#utility.yul\":2065:2149   */\n  tag_67\n  jumpi\n    /* \"#utility.yul\":2121:2139   */\n  tag_68\n  tag_24\n  jump\t// in\ntag_68:\n    /* \"#utility.yul\":2065:2149   */\ntag_67:\n    /* \"#utility.yul\":1886:2155   */\n  pop\n    /* \"#utility.yul\":1835:2155   */\n  swap2\n  swap1\n  pop\n  jump\t// out\n    /* \"#utility.yul\":2161:2302   */\ntag_26:\n    /* \"#utility.yul\":2210:2214   */\n  0x00\n    /* \"#utility.yul\":2233:2236   */\n  dup2\n    /* \"#utility.yul\":2225:2236   */\n  swap1\n  pop\n    /* \"#utility.yul\":2256:2259   */\n  dup2\n    /* \"#utility.yul\":2253:2254   */\n  0x00\n    /* \"#utility.yul\":2246:2260   */\n  mstore\n    /* \"#utility.yul\":2290:2294   */\n  0x20\n    /* \"#utility.yul\":2287:2288   */\n  0x00\n    /* \"#utility.yul\":2277:2295   */\n  keccak256\n    /* \"#utility.yul\":2269:2295   */\n  swap1\n  pop\n    /* \"#utility.yul\":2161:2302   */\n  swap2\n  swap1\n  pop\n  jump\t// out\n    /* \"#utility.yul\":2308:2401   */\ntag_27:\n    /* \"#utility.yul\":2345:2351   */\n  0x00\n    /* \"#utility.yul\":2392:2394   */\n  0x20\n    /* \"#utility.yul\":2387:2389   */\n  0x1f\n    /* \"#utility.yul\":2380:2385   */\n  dup4\n    /* \"#utility.yul\":2376:2390   */\n  add\n    /* \"#utility.yul\":2372:2395   */\n  div\n    /* \"#utility.yul\":2362:2395   */\n  swap1\n  pop\n    /* \"#utility.yul\":2308:2401   */\n  swap2\n  swap1\n  pop\n  jump\t// out\n    /* \"#utility.yul\":2407:2514   */\ntag_28:\n    /* \"#utility.yul\":2451:2459   */\n  0x00\n    /* \"#utility.yul\":2501:2506   */\n  dup3\n    /* \"#utility.yul\":2495:2499   */\n  dup3\n    /* \"#utility.yul\":2491:2507   */\n  shl\n    /* \"#utility.yul\":2470:2507   */\n  swap1\n  pop\n    /* \"#utility.yul\":2407:2514   */\n  swap3\n  swap2\n  pop\n  pop\n  jump\t// out\n    /* \"#utility.yul\":2520:2913   */\ntag_29:\n    /* \"#utility.yul\":2589:2595   */\n  0x00\n    /* \"#utility.yul\":2639:2640   */\n  0x08\n    /* \"#utility.yul\":2627:2637   */\n  dup4\n    /* \"#utility.yul\":2623:2641   */\n  mul\n    /* \"#utility.yul\":2662:2759   */\n  tag_73\n    /* \"#utility.yul\":2692:2758   */\n  0xffffffffffffffffffffffffffffffffffffffffffffffffffffffffffffffff\n    /* \"#utility.yul\":2681:2690   */\n  dup3\n    /* \"#utility.yul\":2662:2759   */\n  tag_28\n  jump\t// in\ntag_73:\n    /* \"#utility.yul\":2780:2819   */\n  tag_74\n    /* \"#utility.yul\":2810:2818   */\n  dup7\n    /* \"#utility.yul\":2799:2808   */\n  dup4\n    /* \"#utility.yul\":2780:2819   */\n  tag_28\n  jump\t// in\ntag_74:\n    /* \"#utility.yul\":2768:2819   */\n  swap6\n  pop\n    /* \"#utility.yul\":2852:2856   */\n  dup1\n    /* \"#utility.yul\":2848:2857   */\n  not\n    /* \"#utility.yul\":2841:2846   */\n  dup5\n    /* \"#utility.yul\":2837:2858   */\n  and\n    /* \"#utility.yul\":2828:2858   */\n  swap4\n  pop\n    /* \"#utility.yul\":2901:2905   */\n  dup1\n    /* \"#utility.yul\":2891:2899   */\n  dup7\n    /* \"#utility.yul\":2887:2906   */\n  and\n    /* \"#utility.yul\":2880:2885   */\n  dup5\n    /* \"#utility.yul\":2877:2907   */\n  or\n    /* \"#utility.yul\":2867:2907   */\n  swap3\n  pop\n    /* \"#utility.yul\":2596:2913   */\n  pop\n  pop\n    /* \"#utility.yul\":2520:2913   */\n  swap4\n  swap3\n  pop\n  pop\n  pop\n  jump\t// out\n    /* \"#utility.yul\":2919:2996   */\ntag_30:\n    /* \"#utility.yul\":2956:2963   */\n  0x00\n    /* \"#utility.yul\":2985:2990   */\n  dup2\n    /* \"#utility.yul\":2974:2990   */\n  swap1\n  pop\n    /* \"#utility.yul\":2919:2996   */\n  swap2\n  swap1\n  pop\n  jump\t// out\n    /* \"#utility.yul\":3002:3062   */\ntag_31:\n    /* \"#utility.yul\":3030:3033   */\n  0x00\n    /* \"#utility.yul\":3051:3056   */\n  dup2\n    /* \"#utility.yul\":3044:3056   */\n  swap1\n  pop\n    /* \"#utility.yul\":3002:3062   */\n  swap2\n  swap1\n  pop\n  jump\t// out\n    /* \"#utility.yul\":3068:3210   */\ntag_32:\n    /* \"#utility.yul\":3118:3127   */\n  0x00\n    /* \"#utility.yul\":3151:3204   */\n  tag_78\n    /* \"#utility.yul\":3169:3203   */\n  tag_79\n    /* \"#utility.yul\":3178:3202   */\n  tag_80\n    /* \"#utility.yul\":3196:3201   */\n  dup5\n    /* \"#utility.yul\":3178:3202   */\n  tag_30\n  jump\t// in\ntag_80:\n    /* \"#utility.yul\":3169:3203   */\n  tag_31\n  jump\t// in\ntag_79:\n    /* \"#utility.yul\":3151:3204   */\n  tag_30\n  jump\t// in\ntag_78:\n    /* \"#utility.yul\":3138:3204   */\n  swap1\n  pop\n    /* \"#utility.yul\":3068:3210   */\n  swap2\n  swap1\n  pop\n  jump\t// out\n    /* \"#utility.yul\":3216:3291   */\ntag_33:\n    /* \"#utility.yul\":3259:3262   */\n  0x00\n    /* \"#utility.yul\":3280:3285   */\n  dup2\n    /* \"#utility.yul\":3273:3285   */\n  swap1\n  pop\n    /* \"#utility.yul\":3216:3291   */\n  swap2\n  swap1\n  pop\n  jump\t// out\n    /* \"#utility.yul\":3297:3566   */\ntag_34:\n    /* \"#utility.yul\":3407:3446   */\n  tag_83\n    /* \"#utility.yul\":3438:3445   */\n  dup4\n    /* \"#utility.yul\":3407:3446   */\n  tag_32\n  jump\t// in\ntag_83:\n    /* \"#utility.yul\":3468:3559   */\n  tag_84\n    /* \"#utility.yul\":3517:3558   */\n  tag_85\n    /* \"#utility.yul\":3541:3557   */\n  dup3\n    /* \"#utility.yul\":3517:3558   */\n  tag_33\n  jump\t// in\ntag_85:\n    /* \"#utility.yul\":3509:3515   */\n  dup5\n    /* \"#utility.yul\":3502:3506   */\n  dup5\n    /* \"#utility.yul\":3496:3507   */\n  sload\n    /* \"#utility.yul\":3468:3559   */\n  tag_29\n  jump\t// in\ntag_84:\n    /* \"#utility.yul\":3462:3466   */\n  dup3\n    /* \"#utility.yul\":3455:3560   */\n  sstore\n    /* \"#utility.yul\":3373:3566   */\n  pop\n    /* \"#utility.yul\":3297:3566   */\n  pop\n  pop\n  pop\n  jump\t// out\n    /* \"#utility.yul\":3572:3645   */\ntag_35:\n    /* \"#utility.yul\":3617:3620   */\n  0x00\n    /* \"#utility.yul\":3572:3645   */\n  swap1\n  jump\t// out\n    /* \"#utility.yul\":3651:3840   */\ntag_36:\n    /* \"#utility.yul\":3728:3760   */\n  tag_88\n  tag_35\n  jump\t// in\ntag_88:\n    /* \"#utility.yul\":3769:3834   */\n  tag_89\n    /* \"#utility.yul\":3827:3833   */\n  dup2\n    /* \"#utility.yul\":3819:3825   */\n  dup5\n    /* \"#utility.yul\":3813:3817   */\n  dup5\n    /* \"#utility.yul\":3769:3834   */\n  tag_34\n  jump\t// in\ntag_89:\n    /* \"#utility.yul\":3704:3840   */\n  pop\n    /* \"#utility.yul\":3651:3840   */\n  pop\n  pop\n  jump\t// out\n    /* \"#utility.yul\":3846:4032   */\ntag_37:\n    /* \"#utility.yul\":3906:4026   */\ntag_91:\n    /* \"#utility.yul\":3923:3926   */\n  dup2\n    /* \"#utility.yul\":3916:3921   */\n  dup2\n    /* \"#utility.yul\":3913:3927   */\n  lt\n    /* \"#utility.yul\":3906:4026   */\n  iszero\n  tag_93\n  jumpi\n    /* \"#utility.yul\":3977:4016   */\n  tag_94\n    /* \"#utility.yul\":4014:4015   */\n  0x00\n    /* \"#utility.yul\":4007:4012   */\n  dup3\n    /* \"#utility.yul\":3977:4016   */\n  tag_36\n  jump\t// in\ntag_94:\n    /* \"#utility.yul\":3950:3951   */\n  0x01\n    /* \"#utility.yul\":3943:3948   */\n  dup2\n    /* \"#utility.yul\":3939:3952   */\n  add\n    /* \"#utility.yul\":3930:3952   */\n  swap1\n  pop\n    /* \"#utility.yul\":3906:4026   */\n  jump(tag_91)\ntag_93:\n    /* \"#utility.yul\":3846:4032   */\n  pop\n  pop\n  jump\t// out\n    /* \"#utility.yul\":4038:4581   */\ntag_38:\n    /* \"#utility.yul\":4139:4141   */\n  0x1f\n    /* \"#utility.yul\":4134:4137   */\n  dup3\n    /* \"#utility.yul\":4131:4142   */\n  gt\n    /* \"#utility.yul\":4128:4574   */\n  iszero\n  tag_96\n  jumpi\n    /* \"#utility.yul\":4173:4211   */\n  tag_97\n    /* \"#utility.yul\":4205:4210   */\n  dup2\n    /* \"#utility.yul\":4173:4211   */\n  tag_26\n  jump\t// in\ntag_97:\n    /* \"#utility.yul\":4257:4286   */\n  tag_98\n    /* \"#utility.yul\":4275:4285   */\n  dup5\n    /* \"#utility.yul\":4257:4286   */\n  tag_27\n  jump\t// in\ntag_98:\n    /* \"#utility.yul\":4247:4255   */\n  dup2\n    /* \"#utility.yul\":4243:4287   */\n  add\n    /* \"#utility.yul\":4440:4442   */\n  0x20\n    /* \"#utility.yul\":4428:4438   */\n  dup6\n    /* \"#utility.yul\":4425:4443   */\n  lt\n    /* \"#utility.yul\":4422:4471   */\n  iszero\n  tag_99\n  jumpi\n    /* \"#utility.yul\":4461:4469   */\n  dup2\n    /* \"#utility.yul\":4446:4469   */\n  swap1\n  pop\n    /* \"#utility.yul\":4422:4471   */\ntag_99:\n    /* \"#utility.yul\":4484:4564   */\n  tag_100\n    /* \"#utility.yul\":4540:4562   */\n  tag_101\n    /* \"#utility.yul\":4558:4561   */\n  dup6\n    /* \"#utility.yul\":4540:4562   */\n  tag_27\n  jump\t// in\ntag_101:\n    /* \"#utility.yul\":4530:4538   */\n  dup4\n    /* \"#utility.yul\":4526:4563   */\n  add\n    /* \"#utility.yul\":4513:4524   */\n  dup3\n    /* \"#utility.yul\":4484:4564   */\n  tag_37\n  jump\t// in\ntag_100:\n    /* \"#utility.yul\":4143:4574   */\n  pop\n  pop\n    /* \"#utility.yul\":4128:4574   */\ntag_96:\n    /* \"#utility.yul\":4038:4581   */\n  pop\n  pop\n  pop\n  jump\t// out\n    /* \"#utility.yul\":4587:4704   */\ntag_39:\n    /* \"#utility.yul\":4641:4649   */\n  0x00\n    /* \"#utility.yul\":4691:4696   */\n  dup3\n    /* \"#utility.yul\":4685:4689   */\n  dup3\n    /* \"#utility.yul\":4681:4697   */\n  shr\n    /* \"#utility.yul\":4660:4697   */\n  swap1\n  pop\n    /* \"#utility.yul\":4587:4704   */\n  swap3\n  swap2\n  pop\n  pop\n  jump\t// out\n    /* \"#utility.yul\":4710:4879   */\ntag_40:\n    /* \"#utility.yul\":4754:4760   */\n  0x00\n    /* \"#utility.yul\":4787:4838   */\n  tag_104\n    /* \"#utility.yul\":4835:4836   */\n  0x00\n    /* \"#utility.yul\":4831:4837   */\n  not\n    /* \"#utility.yul\":4823:4828   */\n  dup5\n    /* \"#utility.yul\":4820:4821   */\n  0x08\n    /* \"#utility.yul\":4816:4829   */\n  mul\n    /* \"#utility.yul\":4787:4838   */\n  tag_39\n  jump\t// in\ntag_104:\n    /* \"#utility.yul\":4783:4839   */\n  not\n    /* \"#utility.yul\":4868:4872   */\n  dup1\n    /* \"#utility.yul\":4862:4866   */\n  dup4\n    /* \"#utility.yul\":4858:4873   */\n  and\n    /* \"#utility.yul\":4848:4873   */\n  swap2\n  pop\n    /* \"#utility.yul\":4761:4879   */\n  pop\n    /* \"#utility.yul\":4710:4879   */\n  swap3\n  swap2\n  pop\n  pop\n  jump\t// out\n    /* \"#utility.yul\":4884:5179   */\ntag_41:\n    /* \"#utility.yul\":4960:4964   */\n  0x00\n    /* \"#utility.yul\":5106:5135   */\n  tag_106\n    /* \"#utility.yul\":5131:5134   */\n  dup4\n    /* \"#utility.yul\":5125:5129   */\n  dup4\n    /* \"#utility.yul\":5106:5135   */\n  tag_40\n  jump\t// in\ntag_106:\n    /* \"#utility.yul\":5098:5135   */\n  swap2\n  pop\n    /* \"#utility.yul\":5168:5171   */\n  dup3\n    /* \"#utility.yul\":5165:5166   */\n  0x02\n    /* \"#utility.yul\":5161:5172   */\n  mul\n    /* \"#utility.yul\":5155:5159   */\n  dup3\n    /* \"#utility.yul\":5152:5173   */\n  or\n    /* \"#utility.yul\":5144:5173   */\n  swap1\n  pop\n    /* \"#utility.yul\":4884:5179   */\n  swap3\n  swap2\n  pop\n  pop\n  jump\t// out\n    /* \"#utility.yul\":5184:6579   */\ntag_8:\n    /* \"#utility.yul\":5301:5338   */\n  tag_108\n    /* \"#utility.yul\":5334:5337   */\n  dup3\n    /* \"#utility.yul\":5301:5338   */\n  tag_22\n  jump\t// in\ntag_108:\n    /* \"#utility.yul\":5403:5421   */\n  0xffffffffffffffff\n    /* \"#utility.yul\":5395:5401   */\n  dup2\n    /* \"#utility.yul\":5392:5422   */\n  gt\n    /* \"#utility.yul\":5389:5445   */\n  iszero\n  tag_109\n  jumpi\n    /* \"#utility.yul\":5425:5443   */\n  tag_110\n  tag_23\n  jump\t// in\ntag_110:\n    /* \"#utility.yul\":5389:5445   */\ntag_109:\n    /* \"#utility.yul\":5469:5507   */\n  tag_111\n    /* \"#utility.yul\":5501:5505   */\n  dup3\n    /* \"#utility.yul\":5495:5506   */\n  sload\n    /* \"#utility.yul\":5469:5507   */\n  tag_25\n  jump\t// in\ntag_111:\n    /* \"#utility.yul\":5554:5621   */\n  tag_112\n    /* \"#utility.yul\":5614:5620   */\n  dup3\n    /* \"#utility.yul\":5606:5612   */\n  dup3\n    /* \"#utility.yul\":5600:5604   */\n  dup6\n    /* \"#utility.yul\":5554:5621   */\n  tag_38\n  jump\t// in\ntag_112:\n    /* \"#utility.yul\":5648:5649   */\n  0x00\n    /* \"#utility.yul\":5672:5676   */\n  0x20\n    /* \"#utility.yul\":5659:5676   */\n  swap1\n  pop\n    /* \"#utility.yul\":5704:5706   */\n  0x1f\n    /* \"#utility.yul\":5696:5702   */\n  dup4\n    /* \"#utility.yul\":5693:5707   */\n  gt\n    /* \"#utility.yul\":5721:5722   */\n  0x01\n    /* \"#utility.yul\":5716:6334   */\n  dup2\n  eq\n  tag_114\n  jumpi\n    /* \"#utility.yul\":6378:6379   */\n  0x00\n    /* \"#utility.yul\":6395:6401   */\n  dup5\n    /* \"#utility.yul\":6392:6469   */\n  iszero\n  tag_115\n  jumpi\n    /* \"#utility.yul\":6444:6453   */\n  dup3\n    /* \"#utility.yul\":6439:6442   */\n  dup8\n    /* \"#utility.yul\":6435:6454   */\n  add\n    /* \"#utility.yul\":6429:6455   */\n  mload\n    /* \"#utility.yul\":6420:6455   */\n  swap1\n  pop\n    /* \"#utility.yul\":6392:6469   */\ntag_115:\n    /* \"#utility.yul\":6495:6562   */\n  tag_116\n    /* \"#utility.yul\":6555:6561   */\n  dup6\n    /* \"#utility.yul\":6548:6553   */\n  dup3\n    /* \"#utility.yul\":6495:6562   */\n  tag_41\n  jump\t// in\ntag_116:\n    /* \"#utility.yul\":6489:6493   */\n  dup7\n    /* \"#utility.yul\":6482:6563   */\n  sstore\n    /* \"#utility.yul\":6351:6573   */\n  pop\n    /* \"#utility.yul\":5686:6573   */\n  jump(tag_113)\n    /* \"#utility.yul\":5716:6334   */\ntag_114:\n    /* \"#utility.yul\":5768:5772   */\n  0x1f\n    /* \"#utility.yul\":5764:5773   */\n  not\n    /* \"#utility.yul\":5756:5762   */\n  dup5\n    /* \"#utility.yul\":5752:5774   */\n  and\n    /* \"#utility.yul\":5802:5839   */\n  tag_117\n    /* \"#utility.yul\":5834:5838   */\n  dup7\n    /* \"#utility.yul\":5802:5839   */\n  tag_26\n  jump\t// in\ntag_117:\n    /* \"#utility.yul\":5861:5862   */\n  0x00\n    /* \"#utility.yul\":5875:6083   */\ntag_118:\n    /* \"#utility.yul\":5889:5896   */\n  dup3\n    /* \"#utility.yul\":5886:5887   */\n  dup2\n    /* \"#utility.yul\":5883:5897   */\n  lt\n    /* \"#utility.yul\":5875:6083   */\n  iszero\n  tag_120\n  jumpi\n    /* \"#utility.yul\":5968:5977   */\n  dup5\n    /* \"#utility.yul\":5963:5966   */\n  dup10\n    /* \"#utility.yul\":5959:5978   */\n  add\n    /* \"#utility.yul\":5953:5979   */\n  mload\n    /* \"#utility.yul\":5945:5951   */\n  dup3\n    /* \"#utility.yul\":5938:5980   */\n  sstore\n    /* \"#utility.yul\":6019:6020   */\n  0x01\n    /* \"#utility.yul\":6011:6017   */\n  dup3\n    /* \"#utility.yul\":6007:6021   */\n  add\n    /* \"#utility.yul\":5997:6021   */\n  swap2\n  pop\n    /* \"#utility.yul\":6066:6068   */\n  0x20\n    /* \"#utility.yul\":6055:6064   */\n  dup6\n    /* \"#utility.yul\":6051:6069   */\n  add\n    /* \"#utility.yul\":6038:6069   */\n  swap5\n  pop\n    /* \"#utility.yul\":5912:5916   */\n  0x20\n    /* \"#utility.yul\":5909:5910   */\n  dup2\n    /* \"#utility.yul\":5905:5917   */\n  add\n    /* \"#utility.yul\":5900:5917   */\n  swap1\n  pop\n    /* \"#utility.yul\":5875:6083   */\n  jump(tag_118)\ntag_120:\n    /* \"#utility.yul\":6111:6117   */\n  dup7\n    /* \"#utility.yul\":6102:6109   */\n  dup4\n    /* \"#utility.yul\":6099:6118   */\n  lt\n    /* \"#utility.yul\":6096:6275   */\n  iszero\n  tag_121\n  jumpi\n    /* \"#utility.yul\":6169:6178   */\n  dup5\n    /* \"#utility.yul\":6164:6167   */\n  dup10\n    /* \"#utility.yul\":6160:6179   */\n  add\n    /* \"#utility.yul\":6154:6180   */\n  mload\n    /* \"#utility.yul\":6212:6260   */\n  tag_122\n    /* \"#utility.yul\":6254:6258   */\n  0x1f\n    /* \"#utility.yul\":6246:6252   */\n  dup10\n    /* \"#utility.yul\":6242:6259   */\n  and\n    /* \"#utility.yul\":6231:6240   */\n  dup3\n    /* \"#utility.yul\":6212:6260   */\n  tag_40\n  jump\t// in\ntag_122:\n    /* \"#utility.yul\":6204:6210   */\n  dup4\n    /* \"#utility.yul\":6197:6261   */\n  sstore\n    /* \"#utility.yul\":6119:6275   */\n  pop\n    /* \"#utility.yul\":6096:6275   */\ntag_121:\n    /* \"#utility.yul\":6321:6322   */\n  0x01\n    /* \"#utility.yul\":6317:6318   */\n  0x02\n    /* \"#utility.yul\":6309:6315   */\n  dup9\n    /* \"#utility.yul\":6305:6319   */\n  mul\n    /* \"#utility.yul\":6301:6323   */\n  add\n    /* \"#utility.yul\":6295:6299   */\n  dup9\n    /* \"#utility.yul\":6288:6324   */\n  sstore\n    /* \"#utility.yul\":5723:6334   */\n  pop\n  pop\n  pop\n    /* \"#utility.yul\":5686:6573   */\ntag_113:\n  pop\n    /* \"#utility.yul\":5276:6579   */\n  pop\n  pop\n  pop\n    /* \"#utility.yul\":5184:6579   */\n  pop\n  pop\n  jump\t// out\n    /* \"#utility.yul\":6585:6754   */\ntag_42:\n    /* \"#utility.yul\":6669:6680   */\n  0x00\n    /* \"#utility.yul\":6703:6709   */\n  dup3\n    /* \"#utility.yul\":6698:6701   */\n  dup3\n    /* \"#utility.yul\":6691:6710   */\n  mstore\n    /* \"#utility.yul\":6743:6747   */\n  0x20\n    /* \"#utility.yul\":6738:6741   */\n  dup3\n    /* \"#utility.yul\":6734:6748   */\n  add\n    /* \"#utility.yul\":6719:6748   */\n  swap1\n  pop\n    /* \"#utility.yul\":6585:6754   */\n  swap3\n  swap2\n  pop\n  pop\n  jump\t// out\n    /* \"#utility.yul\":6760:6931   */\ntag_43:\n    /* \"#utility.yul\":6900:6923   */\n  0x696e76616c696420746f6b656e20616464726573730000000000000000000000\n    /* \"#utility.yul\":6896:6897   */\n  0x00\n    /* \"#utility.yul\":6888:6894   */\n  dup3\n    /* \"#utility.yul\":6884:6898   */\n  add\n    /* \"#utility.yul\":6877:6924   */\n  mstore\n    /* \"#utility.yul\":6760:6931   */\n  pop\n  jump\t// out\n    /* \"#utility.yul\":6937:7303   */\ntag_44:\n    /* \"#utility.yul\":7079:7082   */\n  0x00\n    /* \"#utility.yul\":7100:7167   */\n  tag_126\n    /* \"#utility.yul\":7164:7166   */\n  0x15\n    /* \"#utility.yul\":7159:7162   */\n  dup4\n    /* \"#utility.yul\":7100:7167   */\n  tag_42\n  jump\t// in\ntag_126:\n    /* \"#utility.yul\":7093:7167   */\n  swap2\n  pop\n    /* \"#utility.yul\":7176:7269   */\n  tag_127\n    /* \"#utility.yul\":7265:7268   */\n  dup3\n    /* \"#utility.yul\":7176:7269   */\n  tag_43\n  jump\t// in\ntag_127:\n    /* \"#utility.yul\":7294:7296   */\n  0x20\n    /* \"#utility.yul\":7289:7292   */\n  dup3\n    /* \"#utility.yul\":7285:7297   */\n  add\n    /* \"#utility.yul\":7278:7297   */\n  swap1\n  pop\n    /* \"#utility.yul\":6937:7303   */\n  swap2\n  swap1\n  pop\n  jump\t// out\n    /* \"#utility.yul\":7309:7728   */\ntag_13:\n    /* \"#utility.yul\":7475:7479   */\n  0x00\n    /* \"#utility.yul\":7513:7515   */\n  0x20\n    /* \"#utility.yul\":7502:7511   */\n  dup3\n    /* \"#utility.yul\":7498:7516   */\n  add\n    /* \"#utility.yul\":7490:7516   */\n  swap1\n  pop\n    /* \"#utility.yul\":7562:7571   */\n  dup2\n    /* \"#utility.yul\":7556:7560   */\n  dup2\n    /* \"#utility.yul\":7552:7572   */\n  sub\n    /* \"#utility.yul\":7548:7549   */\n  0x00\n    /* \"#utility.yul\":7537:7546   */\n  dup4\n    /* \"#utility.yul\":7533:7550   */\n  add\n    /* \"#utility.yul\":7526:7573   */\n  mstore\n    /* \"#utility.yul\":7590:7721   */\n  tag_129\n    /* \"#utility.yul\":7716:7720   */\n  dup2\n    /* \"#utility.yul\":7590:7721   */\n  tag_44\n  jump\t// in\ntag_129:\n    /* \"#utility.yul\":7582:7721   */\n  swap1\n  pop\n    /* \"#utility.yul\":7309:7728   */\n  swap2\n  swap1\n  pop\n  jump\t// out\n    /* \"defi-practice/contracts/04_Exchange.sol\":171:9465  contract Exchange is ERC20 {... */\ntag_14:\n  dataSize(sub_0)\n  dup1\n  dataOffset(sub_0)\n  0x00\n  codecopy\n  0x00\n  return\nstop\n\nsub_0: assembly {\n        /* \"defi-practice/contracts/04_Exchange.sol\":171:9465  contract Exchange is ERC20 {... */\n      mstore(0x40, 0x80)\n      callvalue\n      dup1\n      iszero\n      tag_1\n      jumpi\n      0x00\n      dup1\n      revert\n    tag_1:\n      pop\n      jumpi(tag_2, lt(calldatasize, 0x04))\n      shr(0xe0, calldataload(0x00))\n      dup1\n      0x70a08231\n      gt\n      tag_26\n      jumpi\n      dup1\n      0x9d76ea58\n      gt\n      tag_27\n      jumpi\n      dup1\n      0x9d76ea58\n      eq\n      tag_20\n      jumpi\n      dup1\n      0xa457c2d7\n      eq\n      tag_21\n      jumpi\n      dup1\n      0xa9059cbb\n      eq\n      tag_22\n      jumpi\n      dup1\n      0xab26daf8\n      eq\n      tag_23\n      jumpi\n      dup1\n      0xdd62ed3e\n      eq\n      tag_24\n      jumpi\n      dup1\n      0xf140a35a\n      eq\n      tag_25\n      jumpi\n      jump(tag_2)\n    tag_27:\n      dup1\n      0x70a08231\n      eq\n      tag_14\n      jumpi\n      dup1\n      0x95d89b41\n      eq\n      tag_15\n      jumpi\n      dup1\n      0x966dae0e\n      eq\n      tag_16\n      jumpi\n      dup1\n      0x9ab4a445\n      eq\n      tag_17\n      jumpi\n      dup1\n      0x9c8f9f23\n      eq\n      tag_18\n      jumpi\n      dup1\n      0x9cd441da\n      eq\n      tag_19\n      jumpi\n      jump(tag_2)\n    tag_26:\n      dup1\n      0x18160ddd\n      gt\n      tag_28\n      jumpi\n      dup1\n      0x18160ddd\n      eq\n      tag_8\n      jumpi\n      dup1\n      0x23b872dd\n      eq\n      tag_9\n      jumpi\n      dup1\n      0x29f10c7e\n      eq\n      tag_10\n      jumpi\n      dup1\n      0x313ce567\n      eq\n      tag_11\n      jumpi\n      dup1\n      0x39509351\n      eq\n      tag_12\n      jumpi\n      dup1\n      0x6a877f7b\n      eq\n      tag_13\n      jumpi\n      jump(tag_2)\n    tag_28:\n      dup1\n      0x06fdde03\n      eq\n      tag_3\n      jumpi\n      dup1\n      0x0902f1ac\n      eq\n      tag_4\n      jumpi\n      dup1\n      0x095ea7b3\n      eq\n      tag_5\n      jumpi\n      dup1\n      0x0b855c95\n      eq\n      tag_6\n      jumpi\n      dup1\n      0x1125f13f\n      eq\n      tag_7\n      jumpi\n    tag_2:\n      0x00\n      dup1\n      revert\n        /* \"@openzeppelin/contracts/token/ERC20/ERC20.sol\":2158:2256  function name() public view virtual override returns (string memory) {... */\n    tag_3:\n      tag_29\n      tag_30\n      jump\t// in\n    tag_29:\n      mload(0x40)\n      tag_31\n      swap2\n      swap1\n      tag_32\n      jump\t// in\n    tag_31:\n      mload(0x40)\n      dup1\n      swap2\n      sub\n      swap1\n      return\n        /* \"defi-practice/contracts/04_Exchange.sol\":7826:8086  function getReserves()... */\n    tag_4:\n      tag_33\n      tag_34\n      jump\t// in\n    tag_33:\n      mload(0x40)\n      tag_35\n      swap3\n      swap2\n      swap1\n      tag_36\n      jump\t// in\n    tag_35:\n      mload(0x40)\n      dup1\n      swap2\n      sub\n      swap1\n      return\n        /* \"@openzeppelin/contracts/token/ERC20/ERC20.sol\":4444:4641  function approve(address spender, uint256 amount) public virtual override returns (bool) {... */\n    tag_5:\n      tag_37\n      0x04\n      dup1\n      calldatasize\n      sub\n      dup2\n      add\n      swap1\n      tag_38\n      swap2\n      swap1\n      tag_39\n      jump\t// in\n    tag_38:\n      tag_40\n      jump\t// in\n    tag_37:\n      mload(0x40)\n      tag_41\n      swap2\n      swap1\n      tag_42\n      jump\t// in\n    tag_41:\n      mload(0x40)\n      dup1\n      swap2\n      sub\n      swap1\n      return\n        /* \"defi-practice/contracts/04_Exchange.sol\":6588:7820  function swapTokenToExactUsdt(... */\n    tag_6:\n      tag_43\n      0x04\n      dup1\n      calldatasize\n      sub\n      dup2\n      add\n      swap1\n      tag_44\n      swap2\n      swap1\n      tag_45\n      jump\t// in\n    tag_44:\n      tag_46\n      jump\t// in\n    tag_43:\n      stop\n        /* \"defi-practice/contracts/04_Exchange.sol\":8712:9165  function getAmountIn(... */\n    tag_7:\n      tag_47\n      0x04\n      dup1\n      calldatasize\n      sub\n      dup2\n      add\n      swap1\n      tag_48\n      swap2\n      swap1\n      tag_49\n      jump\t// in\n    tag_48:\n      tag_50\n      jump\t// in\n    tag_47:\n      mload(0x40)\n      tag_51\n      swap2\n      swap1\n      tag_52\n      jump\t// in\n    tag_51:\n      mload(0x40)\n      dup1\n      swap2\n      sub\n      swap1\n      return\n        /* \"@openzeppelin/contracts/token/ERC20/ERC20.sol\":3255:3361  function totalSupply() public view virtual override returns (uint256) {... */\n    tag_8:\n      tag_53\n      tag_54\n      jump\t// in\n    tag_53:\n      mload(0x40)\n      tag_55\n      swap2\n      swap1\n      tag_52\n      jump\t// in\n    tag_55:\n      mload(0x40)\n      dup1\n      swap2\n      sub\n      swap1\n      return\n        /* \"@openzeppelin/contracts/token/ERC20/ERC20.sol\":5203:5459  function transferFrom(address from, address to, uint256 amount) public virtual override returns (bool) {... */\n    tag_9:\n      tag_56\n      0x04\n      dup1\n      calldatasize\n      sub\n      dup2\n      add\n      swap1\n      tag_57\n      swap2\n      swap1\n      tag_58\n      jump\t// in\n    tag_57:\n      tag_59\n      jump\t// in\n    tag_56:\n      mload(0x40)\n      tag_60\n      swap2\n      swap1\n      tag_42\n      jump\t// in\n    tag_60:\n      mload(0x40)\n      dup1\n      swap2\n      sub\n      swap1\n      return\n        /* \"defi-practice/contracts/04_Exchange.sol\":5275:6538  function swapExactTokenToUsdt(... */\n    tag_10:\n      tag_61\n      0x04\n      dup1\n      calldatasize\n      sub\n      dup2\n      add\n      swap1\n      tag_62\n      swap2\n      swap1\n      tag_45\n      jump\t// in\n    tag_62:\n      tag_63\n      jump\t// in\n    tag_61:\n      stop\n        /* \"@openzeppelin/contracts/token/ERC20/ERC20.sol\":3104:3195  function decimals() public view virtual override returns (uint8) {... */\n    tag_11:\n      tag_64\n      tag_65\n      jump\t// in\n    tag_64:\n      mload(0x40)\n      tag_66\n      swap2\n      swap1\n      tag_67\n      jump\t// in\n    tag_66:\n      mload(0x40)\n      dup1\n      swap2\n      sub\n      swap1\n      return\n        /* \"@openzeppelin/contracts/token/ERC20/ERC20.sol\":5854:6088  function increaseAllowance(address spender, uint256 addedValue) public virtual returns (bool) {... */\n    tag_12:\n      tag_68\n      0x04\n      dup1\n      calldatasize\n      sub\n      dup2\n      add\n      swap1\n      tag_69\n      swap2\n      swap1\n      tag_39\n      jump\t// in\n    tag_69:\n      tag_70\n      jump\t// in\n    tag_68:\n      mload(0x40)\n      tag_71\n      swap2\n      swap1\n      tag_42\n      jump\t// in\n    tag_71:\n      mload(0x40)\n      dup1\n      swap2\n      sub\n      swap1\n      return\n        /* \"defi-practice/contracts/04_Exchange.sol\":4005:5225  function swapUsdtToExactToken(... */\n    tag_13:\n      tag_72\n      0x04\n      dup1\n      calldatasize\n      sub\n      dup2\n      add\n      swap1\n      tag_73\n      swap2\n      swap1\n      tag_45\n      jump\t// in\n    tag_73:\n      tag_74\n      jump\t// in\n    tag_72:\n      stop\n        /* \"@openzeppelin/contracts/token/ERC20/ERC20.sol\":3419:3544  function balanceOf(address account) public view virtual override returns (uint256) {... */\n    tag_14:\n      tag_75\n      0x04\n      dup1\n      calldatasize\n      sub\n      dup2\n      add\n      swap1\n      tag_76\n      swap2\n      swap1\n      tag_77\n      jump\t// in\n    tag_76:\n      tag_78\n      jump\t// in\n    tag_75:\n      mload(0x40)\n      tag_79\n      swap2\n      swap1\n      tag_52\n      jump\t// in\n    tag_79:\n      mload(0x40)\n      dup1\n      swap2\n      sub\n      swap1\n      return\n        /* \"@openzeppelin/contracts/token/ERC20/ERC20.sol\":2369:2471  function symbol() public view virtual override returns (string memory) {... */\n    tag_15:\n      tag_80\n      tag_81\n      jump\t// in\n    tag_80:\n      mload(0x40)\n      tag_82\n      swap2\n      swap1\n      tag_32\n      jump\t// in\n    tag_82:\n      mload(0x40)\n      dup1\n      swap2\n      sub\n      swap1\n      return\n        /* \"defi-practice/contracts/04_Exchange.sol\":269:298  address public factoryAddress */\n    tag_16:\n      tag_83\n      tag_84\n      jump\t// in\n    tag_83:\n      mload(0x40)\n      tag_85\n      swap2\n      swap1\n      tag_86\n      jump\t// in\n    tag_85:\n      mload(0x40)\n      dup1\n      swap2\n      sub\n      swap1\n      return\n        /* \"defi-practice/contracts/04_Exchange.sol\":237:263  address public usdtAddress */\n    tag_17:\n      tag_87\n      tag_88\n      jump\t// in\n    tag_87:\n      mload(0x40)\n      tag_89\n      swap2\n      swap1\n      tag_86\n      jump\t// in\n    tag_89:\n      mload(0x40)\n      dup1\n      swap2\n      sub\n      swap1\n      return\n        /* \"defi-practice/contracts/04_Exchange.sol\":1812:2627  function removeLiquidity(... */\n    tag_18:\n      tag_90\n      0x04\n      dup1\n      calldatasize\n      sub\n      dup2\n      add\n      swap1\n      tag_91\n      swap2\n      swap1\n      tag_92\n      jump\t// in\n    tag_91:\n      tag_93\n      jump\t// in\n    tag_90:\n      mload(0x40)\n      tag_94\n      swap3\n      swap2\n      swap1\n      tag_36\n      jump\t// in\n    tag_94:\n      mload(0x40)\n      dup1\n      swap2\n      sub\n      swap1\n      return\n        /* \"defi-practice/contracts/04_Exchange.sol\":1082:1806  function addLiquidity(... */\n    tag_19:\n      tag_95\n      0x04\n      dup1\n      calldatasize\n      sub\n      dup2\n      add\n      swap1\n      tag_96\n      swap2\n      swap1\n      tag_97\n      jump\t// in\n    tag_96:\n      tag_98\n      jump\t// in\n    tag_95:\n      mload(0x40)\n      tag_99\n      swap2\n      swap1\n      tag_52\n      jump\t// in\n    tag_99:\n      mload(0x40)\n      dup1\n      swap2\n      sub\n      swap1\n      return\n        /* \"defi-practice/contracts/04_Exchange.sol\":204:231  address public tokenAddress */\n    tag_20:\n      tag_100\n      tag_101\n      jump\t// in\n    tag_100:\n      mload(0x40)\n      tag_102\n      swap2\n      swap1\n      tag_86\n      jump\t// in\n    tag_102:\n      mload(0x40)\n      dup1\n      swap2\n      sub\n      swap1\n      return\n        /* \"@openzeppelin/contracts/token/ERC20/ERC20.sol\":6575:7002  function decreaseAllowance(address spender, uint256 subtractedValue) public virtual returns (bool) {... */\n    tag_21:\n      tag_103\n      0x04\n      dup1\n      calldatasize\n      sub\n      dup2\n      add\n      swap1\n      tag_104\n      swap2\n      swap1\n      tag_39\n      jump\t// in\n    tag_104:\n      tag_105\n      jump\t// in\n    tag_103:\n      mload(0x40)\n      tag_106\n      swap2\n      swap1\n      tag_42\n      jump\t// in\n    tag_106:\n      mload(0x40)\n      dup1\n      swap2\n      sub\n      swap1\n      return\n        /* \"@openzeppelin/contracts/token/ERC20/ERC20.sol\":3740:3929  function transfer(address to, uint256 amount) public virtual override returns (bool) {... */\n    tag_22:\n      tag_107\n      0x04\n      dup1\n      calldatasize\n      sub\n      dup2\n      add\n      swap1\n      tag_108\n      swap2\n      swap1\n      tag_39\n      jump\t// in\n    tag_108:\n      tag_109\n      jump\t// in\n    tag_107:\n      mload(0x40)\n      tag_110\n      swap2\n      swap1\n      tag_42\n      jump\t// in\n    tag_110:\n      mload(0x40)\n      dup1\n      swap2\n      sub\n      swap1\n      return\n        /* \"defi-practice/contracts/04_Exchange.sol\":2729:3955  function swapExactUsdtToToken(... */\n    tag_23:\n      tag_111\n      0x04\n      dup1\n      calldatasize\n      sub\n      dup2\n      add\n      swap1\n      tag_112\n      swap2\n      swap1\n      tag_45\n      jump\t// in\n    tag_112:\n      tag_113\n      jump\t// in\n    tag_111:\n      stop\n        /* \"@openzeppelin/contracts/token/ERC20/ERC20.sol\":3987:4136  function allowance(address owner, address spender) public view virtual override returns (uint256) {... */\n    tag_24:\n      tag_114\n      0x04\n      dup1\n      calldatasize\n      sub\n      dup2\n      add\n      swap1\n      tag_115\n      swap2\n      swap1\n      tag_116\n      jump\t// in\n    tag_115:\n      tag_117\n      jump\t// in\n    tag_114:\n      mload(0x40)\n      tag_118\n      swap2\n      swap1\n      tag_52\n      jump\t// in\n    tag_118:\n      mload(0x40)\n      dup1\n      swap2\n      sub\n      swap1\n      return\n        /* \"defi-practice/contracts/04_Exchange.sol\":8192:8641  function getAmountOut(... */\n    tag_25:\n      tag_119\n      0x04\n      dup1\n      calldatasize\n      sub\n      dup2\n      add\n      swap1\n      tag_120\n      swap2\n      swap1\n      tag_49\n      jump\t// in\n    tag_120:\n      tag_121\n      jump\t// in\n    tag_119:\n      mload(0x40)\n      tag_122\n      swap2\n      swap1\n      tag_52\n      jump\t// in\n    tag_122:\n      mload(0x40)\n      dup1\n      swap2\n      sub\n      swap1\n      return\n        /* \"@openzeppelin/contracts/token/ERC20/ERC20.sol\":2158:2256  function name() public view virtual override returns (string memory) {... */\n    tag_30:\n        /* \"@openzeppelin/contracts/token/ERC20/ERC20.sol\":2212:2225  string memory */\n      0x60\n        /* \"@openzeppelin/contracts/token/ERC20/ERC20.sol\":2244:2249  _name */\n      0x03\n        /* \"@openzeppelin/contracts/token/ERC20/ERC20.sol\":2237:2249  return _name */\n      dup1\n      sload\n      tag_124\n      swap1\n      tag_125\n      jump\t// in\n    tag_124:\n      dup1\n      0x1f\n      add\n      0x20\n      dup1\n      swap2\n      div\n      mul\n      0x20\n      add\n      mload(0x40)\n      swap1\n      dup2\n      add\n      0x40\n      mstore\n      dup1\n      swap3\n      swap2\n      swap1\n      dup2\n      dup2\n      mstore\n      0x20\n      add\n      dup3\n      dup1\n      sload\n      tag_126\n      swap1\n      tag_125\n      jump\t// in\n    tag_126:\n      dup1\n      iszero\n      tag_127\n      jumpi\n      dup1\n      0x1f\n      lt\n      tag_128\n      jumpi\n      0x0100\n      dup1\n      dup4\n      sload\n      div\n      mul\n      dup4\n      mstore\n      swap2\n      0x20\n      add\n      swap2\n      jump(tag_127)\n    tag_128:\n      dup3\n      add\n      swap2\n      swap1\n      0x00\n      mstore\n      keccak256(0x00, 0x20)\n      swap1\n    tag_129:\n      dup2\n      sload\n      dup2\n      mstore\n      swap1\n      0x01\n      add\n      swap1\n      0x20\n      add\n      dup1\n      dup4\n      gt\n      tag_129\n      jumpi\n      dup3\n      swap1\n      sub\n      0x1f\n      and\n      dup3\n      add\n      swap2\n    tag_127:\n      pop\n      pop\n      pop\n      pop\n      pop\n      swap1\n      pop\n        /* \"@openzeppelin/contracts/token/ERC20/ERC20.sol\":2158:2256  function name() public view virtual override returns (string memory) {... */\n      swap1\n      jump\t// out\n        /* \"defi-practice/contracts/04_Exchange.sol\":7826:8086  function getReserves()... */\n    tag_34:\n        /* \"defi-practice/contracts/04_Exchange.sol\":7894:7914  uint256 tokenReserve */\n      0x00\n        /* \"defi-practice/contracts/04_Exchange.sol\":7916:7935  uint256 usdtReserve */\n      dup1\n        /* \"defi-practice/contracts/04_Exchange.sol\":7973:7985  tokenAddress */\n      0x05\n      0x00\n      swap1\n      sload\n      swap1\n      0x0100\n      exp\n      swap1\n      div\n      0xffffffffffffffffffffffffffffffffffffffff\n      and\n        /* \"defi-practice/contracts/04_Exchange.sol\":7966:7996  IERC20(tokenAddress).balanceOf */\n      0xffffffffffffffffffffffffffffffffffffffff\n      and\n      0x70a08231\n        /* \"defi-practice/contracts/04_Exchange.sol\":8005:8009  this */\n      address\n        /* \"defi-practice/contracts/04_Exchange.sol\":7966:8011  IERC20(tokenAddress).balanceOf(address(this)) */\n      mload(0x40)\n      dup3\n      0xffffffff\n      and\n      0xe0\n      shl\n      dup2\n      mstore\n      0x04\n      add\n      tag_131\n      swap2\n      swap1\n      tag_86\n      jump\t// in\n    tag_131:\n      0x20\n      mload(0x40)\n      dup1\n      dup4\n      sub\n      dup2\n      dup7\n      gas\n      staticcall\n      iszero\n      dup1\n      iszero\n      tag_133\n      jumpi\n      returndatasize\n      0x00\n      dup1\n      returndatacopy\n      revert(0x00, returndatasize)\n    tag_133:\n      pop\n      pop\n      pop\n      pop\n      mload(0x40)\n      returndatasize\n      not(0x1f)\n      0x1f\n      dup3\n      add\n      and\n      dup3\n      add\n      dup1\n      0x40\n      mstore\n      pop\n      dup2\n      add\n      swap1\n      tag_134\n      swap2\n      swap1\n      tag_135\n      jump\t// in\n    tag_134:\n        /* \"defi-practice/contracts/04_Exchange.sol\":7951:8011  tokenReserve = IERC20(tokenAddress).balanceOf(address(this)) */\n      swap2\n      pop\n        /* \"defi-practice/contracts/04_Exchange.sol\":8042:8053  usdtAddress */\n      0x06\n      0x00\n      swap1\n      sload\n      swap1\n      0x0100\n      exp\n      swap1\n      div\n      0xffffffffffffffffffffffffffffffffffffffff\n      and\n        /* \"defi-practice/contracts/04_Exchange.sol\":8035:8064  IERC20(usdtAddress).balanceOf */\n      0xffffffffffffffffffffffffffffffffffffffff\n      and\n      0x70a08231\n        /* \"defi-practice/contracts/04_Exchange.sol\":8073:8077  this */\n      address\n        /* \"defi-practice/contracts/04_Exchange.sol\":8035:8079  IERC20(usdtAddress).balanceOf(address(this)) */\n      mload(0x40)\n      dup3\n      0xffffffff\n      and\n      0xe0\n      shl\n      dup2\n      mstore\n      0x04\n      add\n      tag_136\n      swap2\n      swap1\n      tag_86\n      jump\t// in\n    tag_136:\n      0x20\n      mload(0x40)\n      dup1\n      dup4\n      sub\n      dup2\n      dup7\n      gas\n      staticcall\n      iszero\n      dup1\n      iszero\n      tag_138\n      jumpi\n      returndatasize\n      0x00\n      dup1\n      returndatacopy\n      revert(0x00, returndatasize)\n    tag_138:\n      pop\n      pop\n      pop\n      pop\n      mload(0x40)\n      returndatasize\n      not(0x1f)\n      0x1f\n      dup3\n      add\n      and\n      dup3\n      add\n      dup1\n      0x40\n      mstore\n      pop\n      dup2\n      add\n      swap1\n      tag_139\n      swap2\n      swap1\n      tag_135\n      jump\t// in\n    tag_139:\n        /* \"defi-practice/contracts/04_Exchange.sol\":8021:8079  usdtReserve = IERC20(usdtAddress).balanceOf(address(this)) */\n      swap1\n      pop\n        /* \"defi-practice/contracts/04_Exchange.sol\":7826:8086  function getReserves()... */\n      swap1\n      swap2\n      jump\t// out\n        /* \"@openzeppelin/contracts/token/ERC20/ERC20.sol\":4444:4641  function approve(address spender, uint256 amount) public virtual override returns (bool) {... */\n    tag_40:\n        /* \"@openzeppelin/contracts/token/ERC20/ERC20.sol\":4527:4531  bool */\n      0x00\n        /* \"@openzeppelin/contracts/token/ERC20/ERC20.sol\":4543:4556  address owner */\n      dup1\n        /* \"@openzeppelin/contracts/token/ERC20/ERC20.sol\":4559:4571  _msgSender() */\n      tag_141\n        /* \"@openzeppelin/contracts/token/ERC20/ERC20.sol\":4559:4569  _msgSender */\n      tag_142\n        /* \"@openzeppelin/contracts/token/ERC20/ERC20.sol\":4559:4571  _msgSender() */\n      jump\t// in\n    tag_141:\n        /* \"@openzeppelin/contracts/token/ERC20/ERC20.sol\":4543:4571  address owner = _msgSender() */\n      swap1\n      pop\n        /* \"@openzeppelin/contracts/token/ERC20/ERC20.sol\":4581:4613  _approve(owner, spender, amount) */\n      tag_143\n        /* \"@openzeppelin/contracts/token/ERC20/ERC20.sol\":4590:4595  owner */\n      dup2\n        /* \"@openzeppelin/contracts/token/ERC20/ERC20.sol\":4597:4604  spender */\n      dup6\n        /* \"@openzeppelin/contracts/token/ERC20/ERC20.sol\":4606:4612  amount */\n      dup6\n        /* \"@openzeppelin/contracts/token/ERC20/ERC20.sol\":4581:4589  _approve */\n      tag_144\n        /* \"@openzeppelin/contracts/token/ERC20/ERC20.sol\":4581:4613  _approve(owner, spender, amount) */\n      jump\t// in\n    tag_143:\n        /* \"@openzeppelin/contracts/token/ERC20/ERC20.sol\":4630:4634  true */\n      0x01\n        /* \"@openzeppelin/contracts/token/ERC20/ERC20.sol\":4623:4634  return true */\n      swap2\n      pop\n      pop\n        /* \"@openzeppelin/contracts/token/ERC20/ERC20.sol\":4444:4641  function approve(address spender, uint256 amount) public virtual override returns (bool) {... */\n      swap3\n      swap2\n      pop\n      pop\n      jump\t// out\n        /* \"defi-practice/contracts/04_Exchange.sol\":6588:7820  function swapTokenToExactUsdt(... */\n    tag_46:\n        /* \"defi-practice/contracts/04_Exchange.sol\":6930:6931  0 */\n      0x00\n        /* \"defi-practice/contracts/04_Exchange.sol\":6911:6927  maxTokenAmountIn */\n      dup3\n        /* \"defi-practice/contracts/04_Exchange.sol\":6911:6931  maxTokenAmountIn > 0 */\n      gt\n        /* \"defi-practice/contracts/04_Exchange.sol\":6903:6975  require(maxTokenAmountIn > 0 , \"Amount of maxTokenAmountIn cannot be 0\") */\n      tag_146\n      jumpi\n      mload(0x40)\n      0x08c379a000000000000000000000000000000000000000000000000000000000\n      dup2\n      mstore\n      0x04\n      add\n      tag_147\n      swap1\n      tag_148\n      jump\t// in\n    tag_147:\n      mload(0x40)\n      dup1\n      swap2\n      sub\n      swap1\n      revert\n    tag_146:\n        /* \"defi-practice/contracts/04_Exchange.sol\":7019:7039  uint256 reserveToken */\n      0x00\n        /* \"defi-practice/contracts/04_Exchange.sol\":7041:7060  uint256 reserveUsdt */\n      dup1\n        /* \"defi-practice/contracts/04_Exchange.sol\":7064:7077  getReserves() */\n      tag_149\n        /* \"defi-practice/contracts/04_Exchange.sol\":7064:7075  getReserves */\n      tag_34\n        /* \"defi-practice/contracts/04_Exchange.sol\":7064:7077  getReserves() */\n      jump\t// in\n    tag_149:\n        /* \"defi-practice/contracts/04_Exchange.sol\":7018:7077  (uint256 reserveToken ,uint256 reserveUsdt) = getReserves() */\n      swap2\n      pop\n      swap2\n      pop\n        /* \"defi-practice/contracts/04_Exchange.sol\":7112:7124  tokenAddress */\n      0x05\n      0x00\n      swap1\n      sload\n      swap1\n      0x0100\n      exp\n      swap1\n      div\n      0xffffffffffffffffffffffffffffffffffffffff\n      and\n        /* \"defi-practice/contracts/04_Exchange.sol\":7105:7138  IERC20(tokenAddress).transferFrom */\n      0xffffffffffffffffffffffffffffffffffffffff\n      and\n      0x23b872dd\n        /* \"defi-practice/contracts/04_Exchange.sol\":7139:7149  msg.sender */\n      caller\n        /* \"defi-practice/contracts/04_Exchange.sol\":7159:7163  this */\n      address\n        /* \"defi-practice/contracts/04_Exchange.sol\":7166:7182  maxTokenAmountIn */\n      dup8\n        /* \"defi-practice/contracts/04_Exchange.sol\":7105:7183  IERC20(tokenAddress).transferFrom(msg.sender, address(this), maxTokenAmountIn) */\n      mload(0x40)\n      dup5\n      0xffffffff\n      and\n      0xe0\n      shl\n      dup2\n      mstore\n      0x04\n      add\n      tag_150\n      swap4\n      swap3\n      swap2\n      swap1\n      tag_151\n      jump\t// in\n    tag_150:\n      0x20\n      mload(0x40)\n      dup1\n      dup4\n      sub\n      dup2\n      0x00\n      dup8\n      gas\n      call\n      iszero\n      dup1\n      iszero\n      tag_153\n      jumpi\n      returndatasize\n      0x00\n      dup1\n      returndatacopy\n      revert(0x00, returndatasize)\n    tag_153:\n      pop\n      pop\n      pop\n      pop\n      mload(0x40)\n      returndatasize\n      not(0x1f)\n      0x1f\n      dup3\n      add\n      and\n      dup3\n      add\n      dup1\n      0x40\n      mstore\n      pop\n      dup2\n      add\n      swap1\n      tag_154\n      swap2\n      swap1\n      tag_155\n      jump\t// in\n    tag_154:\n      pop\n        /* \"defi-practice/contracts/04_Exchange.sol\":7329:7352  uint256 exAmountUsdtOut */\n      0x00\n        /* \"defi-practice/contracts/04_Exchange.sol\":7411:7423  reserveToken */\n      dup3\n        /* \"defi-practice/contracts/04_Exchange.sol\":7392:7408  maxTokenAmountIn */\n      dup6\n        /* \"defi-practice/contracts/04_Exchange.sol\":7392:7423  maxTokenAmountIn + reserveToken */\n      tag_156\n      swap2\n      swap1\n      tag_157\n      jump\t// in\n    tag_156:\n        /* \"defi-practice/contracts/04_Exchange.sol\":7375:7386  reserveUsdt */\n      dup3\n        /* \"defi-practice/contracts/04_Exchange.sol\":7356:7372  maxTokenAmountIn */\n      dup7\n        /* \"defi-practice/contracts/04_Exchange.sol\":7356:7386  maxTokenAmountIn * reserveUsdt */\n      tag_158\n      swap2\n      swap1\n      tag_159\n      jump\t// in\n    tag_158:\n        /* \"defi-practice/contracts/04_Exchange.sol\":7355:7425  (maxTokenAmountIn * reserveUsdt) / ( maxTokenAmountIn + reserveToken ) */\n      tag_160\n      swap2\n      swap1\n      tag_161\n      jump\t// in\n    tag_160:\n        /* \"defi-practice/contracts/04_Exchange.sol\":7329:7425  uint256 exAmountUsdtOut = (maxTokenAmountIn * reserveUsdt) / ( maxTokenAmountIn + reserveToken ) */\n      swap1\n      pop\n        /* \"defi-practice/contracts/04_Exchange.sol\":7637:7652  exAmountUsdtOut */\n      dup1\n        /* \"defi-practice/contracts/04_Exchange.sol\":7621:7634  amountUsdtOut */\n      dup7\n        /* \"defi-practice/contracts/04_Exchange.sol\":7621:7652  amountUsdtOut<= exAmountUsdtOut */\n      gt\n      iszero\n        /* \"defi-practice/contracts/04_Exchange.sol\":7613:7687  require(amountUsdtOut<= exAmountUsdtOut,\"Amount of maxTokenAmountIn less\") */\n      tag_162\n      jumpi\n      mload(0x40)\n      0x08c379a000000000000000000000000000000000000000000000000000000000\n      dup2\n      mstore\n      0x04\n      add\n      tag_163\n      swap1\n      tag_164\n      jump\t// in\n    tag_163:\n      mload(0x40)\n      dup1\n      swap2\n      sub\n      swap1\n      revert\n    tag_162:\n        /* \"defi-practice/contracts/04_Exchange.sol\":7709:7720  usdtAddress */\n      0x06\n      0x00\n      swap1\n      sload\n      swap1\n      0x0100\n      exp\n      swap1\n      div\n      0xffffffffffffffffffffffffffffffffffffffff\n      and\n        /* \"defi-practice/contracts/04_Exchange.sol\":7702:7730  IERC20(usdtAddress).transfer */\n      0xffffffffffffffffffffffffffffffffffffffff\n      and\n      0xa9059cbb\n        /* \"defi-practice/contracts/04_Exchange.sol\":7731:7733  to */\n      dup6\n        /* \"defi-practice/contracts/04_Exchange.sol\":7735:7748  amountUsdtOut */\n      dup9\n        /* \"defi-practice/contracts/04_Exchange.sol\":7702:7749  IERC20(usdtAddress).transfer(to, amountUsdtOut) */\n      mload(0x40)\n      dup4\n      0xffffffff\n      and\n      0xe0\n      shl\n      dup2\n      mstore\n      0x04\n      add\n      tag_165\n      swap3\n      swap2\n      swap1\n      tag_166\n      jump\t// in\n    tag_165:\n      0x20\n      mload(0x40)\n      dup1\n      dup4\n      sub\n      dup2\n      0x00\n      dup8\n      gas\n      call\n      iszero\n      dup1\n      iszero\n      tag_168\n      jumpi\n      returndatasize\n      0x00\n      dup1\n      returndatacopy\n      revert(0x00, returndatasize)\n    tag_168:\n      pop\n      pop\n      pop\n      pop\n      mload(0x40)\n      returndatasize\n      not(0x1f)\n      0x1f\n      dup3\n      add\n      and\n      dup3\n      add\n      dup1\n      0x40\n      mstore\n      pop\n      dup2\n      add\n      swap1\n      tag_169\n      swap2\n      swap1\n      tag_155\n      jump\t// in\n    tag_169:\n      pop\n        /* \"defi-practice/contracts/04_Exchange.sol\":7781:7797  maxTokenAmountIn */\n      dup5\n        /* \"defi-practice/contracts/04_Exchange.sol\":7777:7779  to */\n      dup5\n        /* \"defi-practice/contracts/04_Exchange.sol\":7764:7813  UsdtPurchase(to, maxTokenAmountIn, amountUsdtOut) */\n      0xffffffffffffffffffffffffffffffffffffffff\n      and\n      0xa0d6b74e5d650f4ca2beb1b87bed5bede5a1a8c6037f5a7f4ccd7844b0cf5829\n        /* \"defi-practice/contracts/04_Exchange.sol\":7799:7812  amountUsdtOut */\n      dup9\n        /* \"defi-practice/contracts/04_Exchange.sol\":7764:7813  UsdtPurchase(to, maxTokenAmountIn, amountUsdtOut) */\n      mload(0x40)\n      tag_170\n      swap2\n      swap1\n      tag_52\n      jump\t// in\n    tag_170:\n      mload(0x40)\n      dup1\n      swap2\n      sub\n      swap1\n      log3\n        /* \"defi-practice/contracts/04_Exchange.sol\":6716:7820  {... */\n      pop\n      pop\n      pop\n        /* \"defi-practice/contracts/04_Exchange.sol\":6588:7820  function swapTokenToExactUsdt(... */\n      pop\n      pop\n      pop\n      jump\t// out\n        /* \"defi-practice/contracts/04_Exchange.sol\":8712:9165  function getAmountIn(... */\n    tag_50:\n        /* \"defi-practice/contracts/04_Exchange.sol\":8819:8838  uint256 inputAmount */\n      0x00\n        /* \"defi-practice/contracts/04_Exchange.sol\":8869:8889  uint256 reserveToken */\n      dup1\n        /* \"defi-practice/contracts/04_Exchange.sol\":8891:8910  uint256 reserveUsdt */\n      0x00\n        /* \"defi-practice/contracts/04_Exchange.sol\":8914:8927  getReserves() */\n      tag_172\n        /* \"defi-practice/contracts/04_Exchange.sol\":8914:8925  getReserves */\n      tag_34\n        /* \"defi-practice/contracts/04_Exchange.sol\":8914:8927  getReserves() */\n      jump\t// in\n    tag_172:\n        /* \"defi-practice/contracts/04_Exchange.sol\":8868:8927  (uint256 reserveToken ,uint256 reserveUsdt) = getReserves() */\n      swap2\n      pop\n      swap2\n      pop\n        /* \"defi-practice/contracts/04_Exchange.sol\":8937:8949  bool istoken */\n      0x00\n        /* \"defi-practice/contracts/04_Exchange.sol\":8967:8979  tokenAddress */\n      0x05\n      0x00\n      swap1\n      sload\n      swap1\n      0x0100\n      exp\n      swap1\n      div\n      0xffffffffffffffffffffffffffffffffffffffff\n      and\n        /* \"defi-practice/contracts/04_Exchange.sol\":8952:8979  outputToken == tokenAddress */\n      0xffffffffffffffffffffffffffffffffffffffff\n      and\n        /* \"defi-practice/contracts/04_Exchange.sol\":8952:8963  outputToken */\n      dup6\n        /* \"defi-practice/contracts/04_Exchange.sol\":8952:8979  outputToken == tokenAddress */\n      0xffffffffffffffffffffffffffffffffffffffff\n      and\n      eq\n        /* \"defi-practice/contracts/04_Exchange.sol\":8937:8979  bool istoken = outputToken == tokenAddress */\n      swap1\n      pop\n        /* \"defi-practice/contracts/04_Exchange.sol\":9003:9010  istoken */\n      dup1\n        /* \"defi-practice/contracts/04_Exchange.sol\":9003:9158  istoken?... */\n      tag_173\n      jumpi\n        /* \"defi-practice/contracts/04_Exchange.sol\":9143:9155  outputAmount */\n      dup6\n        /* \"defi-practice/contracts/04_Exchange.sol\":9129:9140  reserveUsdt */\n      dup3\n        /* \"defi-practice/contracts/04_Exchange.sol\":9129:9155  reserveUsdt - outputAmount */\n      tag_174\n      swap2\n      swap1\n      tag_175\n      jump\t// in\n    tag_174:\n        /* \"defi-practice/contracts/04_Exchange.sol\":9112:9123  reserveUsdt */\n      dup3\n        /* \"defi-practice/contracts/04_Exchange.sol\":9097:9109  outputAmount */\n      dup8\n        /* \"defi-practice/contracts/04_Exchange.sol\":9097:9123  outputAmount * reserveUsdt */\n      tag_176\n      swap2\n      swap1\n      tag_159\n      jump\t// in\n    tag_176:\n        /* \"defi-practice/contracts/04_Exchange.sol\":9096:9157  (outputAmount * reserveUsdt) / ( reserveUsdt - outputAmount ) */\n      tag_177\n      swap2\n      swap1\n      tag_161\n      jump\t// in\n    tag_177:\n        /* \"defi-practice/contracts/04_Exchange.sol\":9003:9158  istoken?... */\n      jump(tag_178)\n    tag_173:\n        /* \"defi-practice/contracts/04_Exchange.sol\":9070:9082  outputAmount */\n      dup6\n        /* \"defi-practice/contracts/04_Exchange.sol\":9055:9067  reserveToken */\n      dup4\n        /* \"defi-practice/contracts/04_Exchange.sol\":9055:9082  reserveToken - outputAmount */\n      tag_179\n      swap2\n      swap1\n      tag_175\n      jump\t// in\n    tag_179:\n        /* \"defi-practice/contracts/04_Exchange.sol\":9037:9049  reserveToken */\n      dup4\n        /* \"defi-practice/contracts/04_Exchange.sol\":9022:9034  outputAmount */\n      dup8\n        /* \"defi-practice/contracts/04_Exchange.sol\":9022:9049  outputAmount * reserveToken */\n      tag_180\n      swap2\n      swap1\n      tag_159\n      jump\t// in\n    tag_180:\n        /* \"defi-practice/contracts/04_Exchange.sol\":9021:9084  (outputAmount * reserveToken) / ( reserveToken - outputAmount ) */\n      tag_181\n      swap2\n      swap1\n      tag_161\n      jump\t// in\n    tag_181:\n        /* \"defi-practice/contracts/04_Exchange.sol\":9003:9158  istoken?... */\n    tag_178:\n        /* \"defi-practice/contracts/04_Exchange.sol\":8989:9158  inputAmount = istoken?... */\n      swap4\n      pop\n        /* \"defi-practice/contracts/04_Exchange.sol\":8840:9165  {... */\n      pop\n      pop\n      pop\n        /* \"defi-practice/contracts/04_Exchange.sol\":8712:9165  function getAmountIn(... */\n      swap3\n      swap2\n      pop\n      pop\n      jump\t// out\n        /* \"@openzeppelin/contracts/token/ERC20/ERC20.sol\":3255:3361  function totalSupply() public view virtual override returns (uint256) {... */\n    tag_54:\n        /* \"@openzeppelin/contracts/token/ERC20/ERC20.sol\":3316:3323  uint256 */\n      0x00\n        /* \"@openzeppelin/contracts/token/ERC20/ERC20.sol\":3342:3354  _totalSupply */\n      sload(0x02)\n        /* \"@openzeppelin/contracts/token/ERC20/ERC20.sol\":3335:3354  return _totalSupply */\n      swap1\n      pop\n        /* \"@openzeppelin/contracts/token/ERC20/ERC20.sol\":3255:3361  function totalSupply() public view virtual override returns (uint256) {... */\n      swap1\n      jump\t// out\n        /* \"@openzeppelin/contracts/token/ERC20/ERC20.sol\":5203:5459  function transferFrom(address from, address to, uint256 amount) public virtual override returns (bool) {... */\n    tag_59:\n        /* \"@openzeppelin/contracts/token/ERC20/ERC20.sol\":5300:5304  bool */\n      0x00\n        /* \"@openzeppelin/contracts/token/ERC20/ERC20.sol\":5316:5331  address spender */\n      dup1\n        /* \"@openzeppelin/contracts/token/ERC20/ERC20.sol\":5334:5346  _msgSender() */\n      tag_184\n        /* \"@openzeppelin/contracts/token/ERC20/ERC20.sol\":5334:5344  _msgSender */\n      tag_142\n        /* \"@openzeppelin/contracts/token/ERC20/ERC20.sol\":5334:5346  _msgSender() */\n      jump\t// in\n    tag_184:\n        /* \"@openzeppelin/contracts/token/ERC20/ERC20.sol\":5316:5346  address spender = _msgSender() */\n      swap1\n      pop\n        /* \"@openzeppelin/contracts/token/ERC20/ERC20.sol\":5356:5394  _spendAllowance(from, spender, amount) */\n      tag_185\n        /* \"@openzeppelin/contracts/token/ERC20/ERC20.sol\":5372:5376  from */\n      dup6\n        /* \"@openzeppelin/contracts/token/ERC20/ERC20.sol\":5378:5385  spender */\n      dup3\n        /* \"@openzeppelin/contracts/token/ERC20/ERC20.sol\":5387:5393  amount */\n      dup6\n        /* \"@openzeppelin/contracts/token/ERC20/ERC20.sol\":5356:5371  _spendAllowance */\n      tag_186\n        /* \"@openzeppelin/contracts/token/ERC20/ERC20.sol\":5356:5394  _spendAllowance(from, spender, amount) */\n      jump\t// in\n    tag_185:\n        /* \"@openzeppelin/contracts/token/ERC20/ERC20.sol\":5404:5431  _transfer(from, to, amount) */\n      tag_187\n        /* \"@openzeppelin/contracts/token/ERC20/ERC20.sol\":5414:5418  from */\n      dup6\n        /* \"@openzeppelin/contracts/token/ERC20/ERC20.sol\":5420:5422  to */\n      dup6\n        /* \"@openzeppelin/contracts/token/ERC20/ERC20.sol\":5424:5430  amount */\n      dup6\n        /* \"@openzeppelin/contracts/token/ERC20/ERC20.sol\":5404:5413  _transfer */\n      tag_188\n        /* \"@openzeppelin/contracts/token/ERC20/ERC20.sol\":5404:5431  _transfer(from, to, amount) */\n      jump\t// in\n    tag_187:\n        /* \"@openzeppelin/contracts/token/ERC20/ERC20.sol\":5448:5452  true */\n      0x01\n        /* \"@openzeppelin/contracts/token/ERC20/ERC20.sol\":5441:5452  return true */\n      swap2\n      pop\n      pop\n        /* \"@openzeppelin/contracts/token/ERC20/ERC20.sol\":5203:5459  function transferFrom(address from, address to, uint256 amount) public virtual override returns (bool) {... */\n      swap4\n      swap3\n      pop\n      pop\n      pop\n      jump\t// out\n        /* \"defi-practice/contracts/04_Exchange.sol\":5275:6538  function swapExactTokenToUsdt(... */\n    tag_63:\n        /* \"defi-practice/contracts/04_Exchange.sol\":5595:5596  0 */\n      0x00\n        /* \"defi-practice/contracts/04_Exchange.sol\":5579:5592  amountTokenIn */\n      dup4\n        /* \"defi-practice/contracts/04_Exchange.sol\":5579:5596  amountTokenIn > 0 */\n      gt\n        /* \"defi-practice/contracts/04_Exchange.sol\":5571:5637  require(amountTokenIn > 0 , \"Amount of amountTokenIn cannot be 0\") */\n      tag_190\n      jumpi\n      mload(0x40)\n      0x08c379a000000000000000000000000000000000000000000000000000000000\n      dup2\n      mstore\n      0x04\n      add\n      tag_191\n      swap1\n      tag_192\n      jump\t// in\n    tag_191:\n      mload(0x40)\n      dup1\n      swap2\n      sub\n      swap1\n      revert\n    tag_190:\n        /* \"defi-practice/contracts/04_Exchange.sol\":5681:5701  uint256 reserveToken */\n      0x00\n        /* \"defi-practice/contracts/04_Exchange.sol\":5703:5722  uint256 reserveUsdt */\n      dup1\n        /* \"defi-practice/contracts/04_Exchange.sol\":5726:5739  getReserves() */\n      tag_193\n        /* \"defi-practice/contracts/04_Exchange.sol\":5726:5737  getReserves */\n      tag_34\n        /* \"defi-practice/contracts/04_Exchange.sol\":5726:5739  getReserves() */\n      jump\t// in\n    tag_193:\n        /* \"defi-practice/contracts/04_Exchange.sol\":5680:5739  (uint256 reserveToken ,uint256 reserveUsdt) = getReserves() */\n      swap2\n      pop\n      swap2\n      pop\n        /* \"defi-practice/contracts/04_Exchange.sol\":5774:5786  tokenAddress */\n      0x05\n      0x00\n      swap1\n      sload\n      swap1\n      0x0100\n      exp\n      swap1\n      div\n      0xffffffffffffffffffffffffffffffffffffffff\n      and\n        /* \"defi-practice/contracts/04_Exchange.sol\":5767:5800  IERC20(tokenAddress).transferFrom */\n      0xffffffffffffffffffffffffffffffffffffffff\n      and\n      0x23b872dd\n        /* \"defi-practice/contracts/04_Exchange.sol\":5801:5811  msg.sender */\n      caller\n        /* \"defi-practice/contracts/04_Exchange.sol\":5821:5825  this */\n      address\n        /* \"defi-practice/contracts/04_Exchange.sol\":5828:5841  amountTokenIn */\n      dup9\n        /* \"defi-practice/contracts/04_Exchange.sol\":5767:5842  IERC20(tokenAddress).transferFrom(msg.sender, address(this), amountTokenIn) */\n      mload(0x40)\n      dup5\n      0xffffffff\n      and\n      0xe0\n      shl\n      dup2\n      mstore\n      0x04\n      add\n      tag_194\n      swap4\n      swap3\n      swap2\n      swap1\n      tag_151\n      jump\t// in\n    tag_194:\n      0x20\n      mload(0x40)\n      dup1\n      dup4\n      sub\n      dup2\n      0x00\n      dup8\n      gas\n      call\n      iszero\n      dup1\n      iszero\n      tag_196\n      jumpi\n      returndatasize\n      0x00\n      dup1\n      returndatacopy\n      revert(0x00, returndatasize)\n    tag_196:\n      pop\n      pop\n      pop\n      pop\n      mload(0x40)\n      returndatasize\n      not(0x1f)\n      0x1f\n      dup3\n      add\n      and\n      dup3\n      add\n      dup1\n      0x40\n      mstore\n      pop\n      dup2\n      add\n      swap1\n      tag_197\n      swap2\n      swap1\n      tag_155\n      jump\t// in\n    tag_197:\n      pop\n        /* \"defi-practice/contracts/04_Exchange.sol\":5988:6009  uint256 amountUsdtOut */\n      0x00\n        /* \"defi-practice/contracts/04_Exchange.sol\":6063:6074  reserveUsdt */\n      dup2\n        /* \"defi-practice/contracts/04_Exchange.sol\":6047:6060  amountTokenIn */\n      dup7\n        /* \"defi-practice/contracts/04_Exchange.sol\":6047:6074  amountTokenIn + reserveUsdt */\n      tag_198\n      swap2\n      swap1\n      tag_157\n      jump\t// in\n    tag_198:\n        /* \"defi-practice/contracts/04_Exchange.sol\":6029:6041  reserveToken */\n      dup4\n        /* \"defi-practice/contracts/04_Exchange.sol\":6013:6026  amountTokenIn */\n      dup8\n        /* \"defi-practice/contracts/04_Exchange.sol\":6013:6041  amountTokenIn * reserveToken */\n      tag_199\n      swap2\n      swap1\n      tag_159\n      jump\t// in\n    tag_199:\n        /* \"defi-practice/contracts/04_Exchange.sol\":6012:6076  (amountTokenIn * reserveToken) / ( amountTokenIn + reserveUsdt ) */\n      tag_200\n      swap2\n      swap1\n      tag_161\n      jump\t// in\n    tag_200:\n        /* \"defi-practice/contracts/04_Exchange.sol\":5988:6076  uint256 amountUsdtOut = (amountTokenIn * reserveToken) / ( amountTokenIn + reserveUsdt ) */\n      swap1\n      pop\n        /* \"defi-practice/contracts/04_Exchange.sol\":6246:6264  expectedUsdtAmount */\n      dup5\n        /* \"defi-practice/contracts/04_Exchange.sol\":6230:6243  amountUsdtOut */\n      dup2\n        /* \"defi-practice/contracts/04_Exchange.sol\":6230:6264  amountUsdtOut < expectedUsdtAmount */\n      lt\n        /* \"defi-practice/contracts/04_Exchange.sol\":6227:6461  if(amountUsdtOut < expectedUsdtAmount){... */\n      iszero\n      tag_201\n      jumpi\n        /* \"defi-practice/contracts/04_Exchange.sol\":6286:6297  usdtAddress */\n      0x06\n      0x00\n      swap1\n      sload\n      swap1\n      0x0100\n      exp\n      swap1\n      div\n      0xffffffffffffffffffffffffffffffffffffffff\n      and\n        /* \"defi-practice/contracts/04_Exchange.sol\":6279:6307  IERC20(usdtAddress).transfer */\n      0xffffffffffffffffffffffffffffffffffffffff\n      and\n      0xa9059cbb\n        /* \"defi-practice/contracts/04_Exchange.sol\":6308:6310  to */\n      dup6\n        /* \"defi-practice/contracts/04_Exchange.sol\":6312:6325  amountUsdtOut */\n      dup4\n        /* \"defi-practice/contracts/04_Exchange.sol\":6279:6326  IERC20(usdtAddress).transfer(to, amountUsdtOut) */\n      mload(0x40)\n      dup4\n      0xffffffff\n      and\n      0xe0\n      shl\n      dup2\n      mstore\n      0x04\n      add\n      tag_202\n      swap3\n      swap2\n      swap1\n      tag_166\n      jump\t// in\n    tag_202:\n      0x20\n      mload(0x40)\n      dup1\n      dup4\n      sub\n      dup2\n      0x00\n      dup8\n      gas\n      call\n      iszero\n      dup1\n      iszero\n      tag_204\n      jumpi\n      returndatasize\n      0x00\n      dup1\n      returndatacopy\n      revert(0x00, returndatasize)\n    tag_204:\n      pop\n      pop\n      pop\n      pop\n      mload(0x40)\n      returndatasize\n      not(0x1f)\n      0x1f\n      dup3\n      add\n      and\n      dup3\n      add\n      dup1\n      0x40\n      mstore\n      pop\n      dup2\n      add\n      swap1\n      tag_205\n      swap2\n      swap1\n      tag_155\n      jump\t// in\n    tag_205:\n      pop\n        /* \"defi-practice/contracts/04_Exchange.sol\":6227:6461  if(amountUsdtOut < expectedUsdtAmount){... */\n      jump(tag_206)\n    tag_201:\n        /* \"defi-practice/contracts/04_Exchange.sol\":6371:6389  expectedUsdtAmount */\n      dup5\n        /* \"defi-practice/contracts/04_Exchange.sol\":6355:6389  amountUsdtOut = expectedUsdtAmount */\n      swap1\n      pop\n        /* \"defi-practice/contracts/04_Exchange.sol\":6410:6421  usdtAddress */\n      0x06\n      0x00\n      swap1\n      sload\n      swap1\n      0x0100\n      exp\n      swap1\n      div\n      0xffffffffffffffffffffffffffffffffffffffff\n      and\n        /* \"defi-practice/contracts/04_Exchange.sol\":6403:6431  IERC20(usdtAddress).transfer */\n      0xffffffffffffffffffffffffffffffffffffffff\n      and\n      0xa9059cbb\n        /* \"defi-practice/contracts/04_Exchange.sol\":6432:6434  to */\n      dup6\n        /* \"defi-practice/contracts/04_Exchange.sol\":6436:6449  amountUsdtOut */\n      dup4\n        /* \"defi-practice/contracts/04_Exchange.sol\":6403:6450  IERC20(usdtAddress).transfer(to, amountUsdtOut) */\n      mload(0x40)\n      dup4\n      0xffffffff\n      and\n      0xe0\n      shl\n      dup2\n      mstore\n      0x04\n      add\n      tag_207\n      swap3\n      swap2\n      swap1\n      tag_166\n      jump\t// in\n    tag_207:\n      0x20\n      mload(0x40)\n      dup1\n      dup4\n      sub\n      dup2\n      0x00\n      dup8\n      gas\n      call\n      iszero\n      dup1\n      iszero\n      tag_209\n      jumpi\n      returndatasize\n      0x00\n      dup1\n      returndatacopy\n      revert(0x00, returndatasize)\n    tag_209:\n      pop\n      pop\n      pop\n      pop\n      mload(0x40)\n      returndatasize\n      not(0x1f)\n      0x1f\n      dup3\n      add\n      and\n      dup3\n      add\n      dup1\n      0x40\n      mstore\n      pop\n      dup2\n      add\n      swap1\n      tag_210\n      swap2\n      swap1\n      tag_155\n      jump\t// in\n    tag_210:\n      pop\n        /* \"defi-practice/contracts/04_Exchange.sol\":6227:6461  if(amountUsdtOut < expectedUsdtAmount){... */\n    tag_206:\n        /* \"defi-practice/contracts/04_Exchange.sol\":6502:6515  amountTokenIn */\n      dup6\n        /* \"defi-practice/contracts/04_Exchange.sol\":6498:6500  to */\n      dup5\n        /* \"defi-practice/contracts/04_Exchange.sol\":6485:6531  UsdtPurchase(to, amountTokenIn, amountUsdtOut) */\n      0xffffffffffffffffffffffffffffffffffffffff\n      and\n      0xa0d6b74e5d650f4ca2beb1b87bed5bede5a1a8c6037f5a7f4ccd7844b0cf5829\n        /* \"defi-practice/contracts/04_Exchange.sol\":6517:6530  amountUsdtOut */\n      dup4\n        /* \"defi-practice/contracts/04_Exchange.sol\":6485:6531  UsdtPurchase(to, amountTokenIn, amountUsdtOut) */\n      mload(0x40)\n      tag_211\n      swap2\n      swap1\n      tag_52\n      jump\t// in\n    tag_211:\n      mload(0x40)\n      dup1\n      swap2\n      sub\n      swap1\n      log3\n        /* \"defi-practice/contracts/04_Exchange.sol\":5405:6538  {... */\n      pop\n      pop\n      pop\n        /* \"defi-practice/contracts/04_Exchange.sol\":5275:6538  function swapExactTokenToUsdt(... */\n      pop\n      pop\n      pop\n      jump\t// out\n        /* \"@openzeppelin/contracts/token/ERC20/ERC20.sol\":3104:3195  function decimals() public view virtual override returns (uint8) {... */\n    tag_65:\n        /* \"@openzeppelin/contracts/token/ERC20/ERC20.sol\":3162:3167  uint8 */\n      0x00\n        /* \"@openzeppelin/contracts/token/ERC20/ERC20.sol\":3186:3188  18 */\n      0x12\n        /* \"@openzeppelin/contracts/token/ERC20/ERC20.sol\":3179:3188  return 18 */\n      swap1\n      pop\n        /* \"@openzeppelin/contracts/token/ERC20/ERC20.sol\":3104:3195  function decimals() public view virtual override returns (uint8) {... */\n      swap1\n      jump\t// out\n        /* \"@openzeppelin/contracts/token/ERC20/ERC20.sol\":5854:6088  function increaseAllowance(address spender, uint256 addedValue) public virtual returns (bool) {... */\n    tag_70:\n        /* \"@openzeppelin/contracts/token/ERC20/ERC20.sol\":5942:5946  bool */\n      0x00\n        /* \"@openzeppelin/contracts/token/ERC20/ERC20.sol\":5958:5971  address owner */\n      dup1\n        /* \"@openzeppelin/contracts/token/ERC20/ERC20.sol\":5974:5986  _msgSender() */\n      tag_214\n        /* \"@openzeppelin/contracts/token/ERC20/ERC20.sol\":5974:5984  _msgSender */\n      tag_142\n        /* \"@openzeppelin/contracts/token/ERC20/ERC20.sol\":5974:5986  _msgSender() */\n      jump\t// in\n    tag_214:\n        /* \"@openzeppelin/contracts/token/ERC20/ERC20.sol\":5958:5986  address owner = _msgSender() */\n      swap1\n      pop\n        /* \"@openzeppelin/contracts/token/ERC20/ERC20.sol\":5996:6060  _approve(owner, spender, allowance(owner, spender) + addedValue) */\n      tag_215\n        /* \"@openzeppelin/contracts/token/ERC20/ERC20.sol\":6005:6010  owner */\n      dup2\n        /* \"@openzeppelin/contracts/token/ERC20/ERC20.sol\":6012:6019  spender */\n      dup6\n        /* \"@openzeppelin/contracts/token/ERC20/ERC20.sol\":6049:6059  addedValue */\n      dup6\n        /* \"@openzeppelin/contracts/token/ERC20/ERC20.sol\":6021:6046  allowance(owner, spender) */\n      tag_216\n        /* \"@openzeppelin/contracts/token/ERC20/ERC20.sol\":6031:6036  owner */\n      dup6\n        /* \"@openzeppelin/contracts/token/ERC20/ERC20.sol\":6038:6045  spender */\n      dup10\n        /* \"@openzeppelin/contracts/token/ERC20/ERC20.sol\":6021:6030  allowance */\n      tag_117\n        /* \"@openzeppelin/contracts/token/ERC20/ERC20.sol\":6021:6046  allowance(owner, spender) */\n      jump\t// in\n    tag_216:\n        /* \"@openzeppelin/contracts/token/ERC20/ERC20.sol\":6021:6059  allowance(owner, spender) + addedValue */\n      tag_217\n      swap2\n      swap1\n      tag_157\n      jump\t// in\n    tag_217:\n        /* \"@openzeppelin/contracts/token/ERC20/ERC20.sol\":5996:6004  _approve */\n      tag_144\n        /* \"@openzeppelin/contracts/token/ERC20/ERC20.sol\":5996:6060  _approve(owner, spender, allowance(owner, spender) + addedValue) */\n      jump\t// in\n    tag_215:\n        /* \"@openzeppelin/contracts/token/ERC20/ERC20.sol\":6077:6081  true */\n      0x01\n        /* \"@openzeppelin/contracts/token/ERC20/ERC20.sol\":6070:6081  return true */\n      swap2\n      pop\n      pop\n        /* \"@openzeppelin/contracts/token/ERC20/ERC20.sol\":5854:6088  function increaseAllowance(address spender, uint256 addedValue) public virtual returns (bool) {... */\n      swap3\n      swap2\n      pop\n      pop\n      jump\t// out\n        /* \"defi-practice/contracts/04_Exchange.sol\":4005:5225  function swapUsdtToExactToken(... */\n    tag_74:\n        /* \"defi-practice/contracts/04_Exchange.sol\":4335:4336  0 */\n      0x00\n        /* \"defi-practice/contracts/04_Exchange.sol\":4317:4332  maxUsdtAmountIn */\n      dup3\n        /* \"defi-practice/contracts/04_Exchange.sol\":4317:4336  maxUsdtAmountIn > 0 */\n      gt\n        /* \"defi-practice/contracts/04_Exchange.sol\":4309:4379  require(maxUsdtAmountIn > 0 , \"Amount of maxUsdtAmountIn cannot be 0\") */\n      tag_219\n      jumpi\n      mload(0x40)\n      0x08c379a000000000000000000000000000000000000000000000000000000000\n      dup2\n      mstore\n      0x04\n      add\n      tag_220\n      swap1\n      tag_221\n      jump\t// in\n    tag_220:\n      mload(0x40)\n      dup1\n      swap2\n      sub\n      swap1\n      revert\n    tag_219:\n        /* \"defi-practice/contracts/04_Exchange.sol\":4423:4443  uint256 reserveToken */\n      0x00\n        /* \"defi-practice/contracts/04_Exchange.sol\":4445:4464  uint256 reserveUsdt */\n      dup1\n        /* \"defi-practice/contracts/04_Exchange.sol\":4468:4481  getReserves() */\n      tag_222\n        /* \"defi-practice/contracts/04_Exchange.sol\":4468:4479  getReserves */\n      tag_34\n        /* \"defi-practice/contracts/04_Exchange.sol\":4468:4481  getReserves() */\n      jump\t// in\n    tag_222:\n        /* \"defi-practice/contracts/04_Exchange.sol\":4422:4481  (uint256 reserveToken ,uint256 reserveUsdt) = getReserves() */\n      swap2\n      pop\n      swap2\n      pop\n        /* \"defi-practice/contracts/04_Exchange.sol\":4516:4527  usdtAddress */\n      0x06\n      0x00\n      swap1\n      sload\n      swap1\n      0x0100\n      exp\n      swap1\n      div\n      0xffffffffffffffffffffffffffffffffffffffff\n      and\n        /* \"defi-practice/contracts/04_Exchange.sol\":4509:4541  IERC20(usdtAddress).transferFrom */\n      0xffffffffffffffffffffffffffffffffffffffff\n      and\n      0x23b872dd\n        /* \"defi-practice/contracts/04_Exchange.sol\":4542:4552  msg.sender */\n      caller\n        /* \"defi-practice/contracts/04_Exchange.sol\":4562:4566  this */\n      address\n        /* \"defi-practice/contracts/04_Exchange.sol\":4569:4584  maxUsdtAmountIn */\n      dup8\n        /* \"defi-practice/contracts/04_Exchange.sol\":4509:4585  IERC20(usdtAddress).transferFrom(msg.sender, address(this), maxUsdtAmountIn) */\n      mload(0x40)\n      dup5\n      0xffffffff\n      and\n      0xe0\n      shl\n      dup2\n      mstore\n      0x04\n      add\n      tag_223\n      swap4\n      swap3\n      swap2\n      swap1\n      tag_151\n      jump\t// in\n    tag_223:\n      0x20\n      mload(0x40)\n      dup1\n      dup4\n      sub\n      dup2\n      0x00\n      dup8\n      gas\n      call\n      iszero\n      dup1\n      iszero\n      tag_225\n      jumpi\n      returndatasize\n      0x00\n      dup1\n      returndatacopy\n      revert(0x00, returndatasize)\n    tag_225:\n      pop\n      pop\n      pop\n      pop\n      mload(0x40)\n      returndatasize\n      not(0x1f)\n      0x1f\n      dup3\n      add\n      and\n      dup3\n      add\n      dup1\n      0x40\n      mstore\n      pop\n      dup2\n      add\n      swap1\n      tag_226\n      swap2\n      swap1\n      tag_155\n      jump\t// in\n    tag_226:\n      pop\n        /* \"defi-practice/contracts/04_Exchange.sol\":4731:4755  uint256 exAmountTokenOut */\n      0x00\n        /* \"defi-practice/contracts/04_Exchange.sol\":4813:4824  reserveUsdt */\n      dup2\n        /* \"defi-practice/contracts/04_Exchange.sol\":4795:4810  maxUsdtAmountIn */\n      dup6\n        /* \"defi-practice/contracts/04_Exchange.sol\":4795:4824  maxUsdtAmountIn + reserveUsdt */\n      tag_227\n      swap2\n      swap1\n      tag_157\n      jump\t// in\n    tag_227:\n        /* \"defi-practice/contracts/04_Exchange.sol\":4777:4789  reserveToken */\n      dup4\n        /* \"defi-practice/contracts/04_Exchange.sol\":4759:4774  maxUsdtAmountIn */\n      dup7\n        /* \"defi-practice/contracts/04_Exchange.sol\":4759:4789  maxUsdtAmountIn * reserveToken */\n      tag_228\n      swap2\n      swap1\n      tag_159\n      jump\t// in\n    tag_228:\n        /* \"defi-practice/contracts/04_Exchange.sol\":4758:4826  (maxUsdtAmountIn * reserveToken) / ( maxUsdtAmountIn + reserveUsdt ) */\n      tag_229\n      swap2\n      swap1\n      tag_161\n      jump\t// in\n    tag_229:\n        /* \"defi-practice/contracts/04_Exchange.sol\":4731:4826  uint256 exAmountTokenOut = (maxUsdtAmountIn * reserveToken) / ( maxUsdtAmountIn + reserveUsdt ) */\n      swap1\n      pop\n        /* \"defi-practice/contracts/04_Exchange.sol\":5038:5054  exAmountTokenOut */\n      dup1\n        /* \"defi-practice/contracts/04_Exchange.sol\":5021:5035  amountTokenOut */\n      dup7\n        /* \"defi-practice/contracts/04_Exchange.sol\":5021:5054  amountTokenOut<= exAmountTokenOut */\n      gt\n      iszero\n        /* \"defi-practice/contracts/04_Exchange.sol\":5013:5088  require(amountTokenOut<= exAmountTokenOut,\"Amount of maxUsdtAmountIn less\") */\n      tag_230\n      jumpi\n      mload(0x40)\n      0x08c379a000000000000000000000000000000000000000000000000000000000\n      dup2\n      mstore\n      0x04\n      add\n      tag_231\n      swap1\n      tag_232\n      jump\t// in\n    tag_231:\n      mload(0x40)\n      dup1\n      swap2\n      sub\n      swap1\n      revert\n    tag_230:\n        /* \"defi-practice/contracts/04_Exchange.sol\":5110:5122  tokenAddress */\n      0x05\n      0x00\n      swap1\n      sload\n      swap1\n      0x0100\n      exp\n      swap1\n      div\n      0xffffffffffffffffffffffffffffffffffffffff\n      and\n        /* \"defi-practice/contracts/04_Exchange.sol\":5103:5132  IERC20(tokenAddress).transfer */\n      0xffffffffffffffffffffffffffffffffffffffff\n      and\n      0xa9059cbb\n        /* \"defi-practice/contracts/04_Exchange.sol\":5133:5135  to */\n      dup6\n        /* \"defi-practice/contracts/04_Exchange.sol\":5137:5151  amountTokenOut */\n      dup9\n        /* \"defi-practice/contracts/04_Exchange.sol\":5103:5152  IERC20(tokenAddress).transfer(to, amountTokenOut) */\n      mload(0x40)\n      dup4\n      0xffffffff\n      and\n      0xe0\n      shl\n      dup2\n      mstore\n      0x04\n      add\n      tag_233\n      swap3\n      swap2\n      swap1\n      tag_166\n      jump\t// in\n    tag_233:\n      0x20\n      mload(0x40)\n      dup1\n      dup4\n      sub\n      dup2\n      0x00\n      dup8\n      gas\n      call\n      iszero\n      dup1\n      iszero\n      tag_235\n      jumpi\n      returndatasize\n      0x00\n      dup1\n      returndatacopy\n      revert(0x00, returndatasize)\n    tag_235:\n      pop\n      pop\n      pop\n      pop\n      mload(0x40)\n      returndatasize\n      not(0x1f)\n      0x1f\n      dup3\n      add\n      and\n      dup3\n      add\n      dup1\n      0x40\n      mstore\n      pop\n      dup2\n      add\n      swap1\n      tag_236\n      swap2\n      swap1\n      tag_155\n      jump\t// in\n    tag_236:\n      pop\n        /* \"defi-practice/contracts/04_Exchange.sol\":5186:5201  maxUsdtAmountIn */\n      dup5\n        /* \"defi-practice/contracts/04_Exchange.sol\":5182:5184  to */\n      dup5\n        /* \"defi-practice/contracts/04_Exchange.sol\":5168:5218  TokenPurchase(to, maxUsdtAmountIn, amountTokenOut) */\n      0xffffffffffffffffffffffffffffffffffffffff\n      and\n      0xcd60aa75dea3072fbc07ae6d7d856b5dc5f4eee88854f5b4abf7b680ef8bc50f\n        /* \"defi-practice/contracts/04_Exchange.sol\":5203:5217  amountTokenOut */\n      dup9\n        /* \"defi-practice/contracts/04_Exchange.sol\":5168:5218  TokenPurchase(to, maxUsdtAmountIn, amountTokenOut) */\n      mload(0x40)\n      tag_237\n      swap2\n      swap1\n      tag_52\n      jump\t// in\n    tag_237:\n      mload(0x40)\n      dup1\n      swap2\n      sub\n      swap1\n      log3\n        /* \"defi-practice/contracts/04_Exchange.sol\":4133:5225  {... */\n      pop\n      pop\n      pop\n        /* \"defi-practice/contracts/04_Exchange.sol\":4005:5225  function swapUsdtToExactToken(... */\n      pop\n      pop\n      pop\n      jump\t// out\n        /* \"@openzeppelin/contracts/token/ERC20/ERC20.sol\":3419:3544  function balanceOf(address account) public view virtual override returns (uint256) {... */\n    tag_78:\n        /* \"@openzeppelin/contracts/token/ERC20/ERC20.sol\":3493:3500  uint256 */\n      0x00\n        /* \"@openzeppelin/contracts/token/ERC20/ERC20.sol\":3519:3528  _balances */\n      dup1\n        /* \"@openzeppelin/contracts/token/ERC20/ERC20.sol\":3519:3537  _balances[account] */\n      0x00\n        /* \"@openzeppelin/contracts/token/ERC20/ERC20.sol\":3529:3536  account */\n      dup4\n        /* \"@openzeppelin/contracts/token/ERC20/ERC20.sol\":3519:3537  _balances[account] */\n      0xffffffffffffffffffffffffffffffffffffffff\n      and\n      0xffffffffffffffffffffffffffffffffffffffff\n      and\n      dup2\n      mstore\n      0x20\n      add\n      swap1\n      dup2\n      mstore\n      0x20\n      add\n      0x00\n      keccak256\n      sload\n        /* \"@openzeppelin/contracts/token/ERC20/ERC20.sol\":3512:3537  return _balances[account] */\n      swap1\n      pop\n        /* \"@openzeppelin/contracts/token/ERC20/ERC20.sol\":3419:3544  function balanceOf(address account) public view virtual override returns (uint256) {... */\n      swap2\n      swap1\n      pop\n      jump\t// out\n        /* \"@openzeppelin/contracts/token/ERC20/ERC20.sol\":2369:2471  function symbol() public view virtual override returns (string memory) {... */\n    tag_81:\n        /* \"@openzeppelin/contracts/token/ERC20/ERC20.sol\":2425:2438  string memory */\n      0x60\n        /* \"@openzeppelin/contracts/token/ERC20/ERC20.sol\":2457:2464  _symbol */\n      0x04\n        /* \"@openzeppelin/contracts/token/ERC20/ERC20.sol\":2450:2464  return _symbol */\n      dup1\n      sload\n      tag_240\n      swap1\n      tag_125\n      jump\t// in\n    tag_240:\n      dup1\n      0x1f\n      add\n      0x20\n      dup1\n      swap2\n      div\n      mul\n      0x20\n      add\n      mload(0x40)\n      swap1\n      dup2\n      add\n      0x40\n      mstore\n      dup1\n      swap3\n      swap2\n      swap1\n      dup2\n      dup2\n      mstore\n      0x20\n      add\n      dup3\n      dup1\n      sload\n      tag_241\n      swap1\n      tag_125\n      jump\t// in\n    tag_241:\n      dup1\n      iszero\n      tag_242\n      jumpi\n      dup1\n      0x1f\n      lt\n      tag_243\n      jumpi\n      0x0100\n      dup1\n      dup4\n      sload\n      div\n      mul\n      dup4\n      mstore\n      swap2\n      0x20\n      add\n      swap2\n      jump(tag_242)\n    tag_243:\n      dup3\n      add\n      swap2\n      swap1\n      0x00\n      mstore\n      keccak256(0x00, 0x20)\n      swap1\n    tag_244:\n      dup2\n      sload\n      dup2\n      mstore\n      swap1\n      0x01\n      add\n      swap1\n      0x20\n      add\n      dup1\n      dup4\n      gt\n      tag_244\n      jumpi\n      dup3\n      swap1\n      sub\n      0x1f\n      and\n      dup3\n      add\n      swap2\n    tag_242:\n      pop\n      pop\n      pop\n      pop\n      pop\n      swap1\n      pop\n        /* \"@openzeppelin/contracts/token/ERC20/ERC20.sol\":2369:2471  function symbol() public view virtual override returns (string memory) {... */\n      swap1\n      jump\t// out\n        /* \"defi-practice/contracts/04_Exchange.sol\":269:298  address public factoryAddress */\n    tag_84:\n      0x07\n      0x00\n      swap1\n      sload\n      swap1\n      0x0100\n      exp\n      swap1\n      div\n      0xffffffffffffffffffffffffffffffffffffffff\n      and\n      dup2\n      jump\t// out\n        /* \"defi-practice/contracts/04_Exchange.sol\":237:263  address public usdtAddress */\n    tag_88:\n      0x06\n      0x00\n      swap1\n      sload\n      swap1\n      0x0100\n      exp\n      swap1\n      div\n      0xffffffffffffffffffffffffffffffffffffffff\n      and\n      dup2\n      jump\t// out\n        /* \"defi-practice/contracts/04_Exchange.sol\":1812:2627  function removeLiquidity(... */\n    tag_93:\n        /* \"defi-practice/contracts/04_Exchange.sol\":1886:1904  uint256 usdtAmount */\n      0x00\n        /* \"defi-practice/contracts/04_Exchange.sol\":1906:1925  uint256 tokenAmount */\n      dup1\n        /* \"defi-practice/contracts/04_Exchange.sol\":1957:1958  0 */\n      0x00\n        /* \"defi-practice/contracts/04_Exchange.sol\":1945:1954  liquidity */\n      dup4\n        /* \"defi-practice/contracts/04_Exchange.sol\":1945:1958  liquidity > 0 */\n      gt\n        /* \"defi-practice/contracts/04_Exchange.sol\":1937:1994  require(liquidity > 0, \"Amount of liquidity cannot be 0\") */\n      tag_246\n      jumpi\n      mload(0x40)\n      0x08c379a000000000000000000000000000000000000000000000000000000000\n      dup2\n      mstore\n      0x04\n      add\n      tag_247\n      swap1\n      tag_248\n      jump\t// in\n    tag_247:\n      mload(0x40)\n      dup1\n      swap2\n      sub\n      swap1\n      revert\n    tag_246:\n        /* \"defi-practice/contracts/04_Exchange.sol\":2034:2054  uint256 tokenReserve */\n      0x00\n        /* \"defi-practice/contracts/04_Exchange.sol\":2056:2075  uint256 usdtReserve */\n      dup1\n        /* \"defi-practice/contracts/04_Exchange.sol\":2079:2092  getReserves() */\n      tag_249\n        /* \"defi-practice/contracts/04_Exchange.sol\":2079:2090  getReserves */\n      tag_34\n        /* \"defi-practice/contracts/04_Exchange.sol\":2079:2092  getReserves() */\n      jump\t// in\n    tag_249:\n        /* \"defi-practice/contracts/04_Exchange.sol\":2033:2092  (uint256 tokenReserve, uint256 usdtReserve) = getReserves() */\n      swap2\n      pop\n      swap2\n      pop\n        /* \"defi-practice/contracts/04_Exchange.sol\":2211:2224  totalSupply() */\n      tag_250\n        /* \"defi-practice/contracts/04_Exchange.sol\":2211:2222  totalSupply */\n      tag_54\n        /* \"defi-practice/contracts/04_Exchange.sol\":2211:2224  totalSupply() */\n      jump\t// in\n    tag_250:\n        /* \"defi-practice/contracts/04_Exchange.sol\":2198:2207  liquidity */\n      dup6\n        /* \"defi-practice/contracts/04_Exchange.sol\":2184:2195  usdtReserve */\n      dup3\n        /* \"defi-practice/contracts/04_Exchange.sol\":2184:2207  usdtReserve * liquidity */\n      tag_251\n      swap2\n      swap1\n      tag_159\n      jump\t// in\n    tag_251:\n        /* \"defi-practice/contracts/04_Exchange.sol\":2183:2224  (usdtReserve * liquidity) / totalSupply() */\n      tag_252\n      swap2\n      swap1\n      tag_161\n      jump\t// in\n    tag_252:\n        /* \"defi-practice/contracts/04_Exchange.sol\":2170:2224  usdtAmount = (usdtReserve * liquidity) / totalSupply() */\n      swap4\n      pop\n        /* \"defi-practice/contracts/04_Exchange.sol\":2277:2290  totalSupply() */\n      tag_253\n        /* \"defi-practice/contracts/04_Exchange.sol\":2277:2288  totalSupply */\n      tag_54\n        /* \"defi-practice/contracts/04_Exchange.sol\":2277:2290  totalSupply() */\n      jump\t// in\n    tag_253:\n        /* \"defi-practice/contracts/04_Exchange.sol\":2264:2273  liquidity */\n      dup6\n        /* \"defi-practice/contracts/04_Exchange.sol\":2249:2261  tokenReserve */\n      dup4\n        /* \"defi-practice/contracts/04_Exchange.sol\":2249:2273  tokenReserve * liquidity */\n      tag_254\n      swap2\n      swap1\n      tag_159\n      jump\t// in\n    tag_254:\n        /* \"defi-practice/contracts/04_Exchange.sol\":2248:2290  (tokenReserve * liquidity) / totalSupply() */\n      tag_255\n      swap2\n      swap1\n      tag_161\n      jump\t// in\n    tag_255:\n        /* \"defi-practice/contracts/04_Exchange.sol\":2234:2290  tokenAmount = (tokenReserve * liquidity) / totalSupply() */\n      swap3\n      pop\n        /* \"defi-practice/contracts/04_Exchange.sol\":2341:2369  _burn(msg.sender, liquidity) */\n      tag_256\n        /* \"defi-practice/contracts/04_Exchange.sol\":2347:2357  msg.sender */\n      caller\n        /* \"defi-practice/contracts/04_Exchange.sol\":2359:2368  liquidity */\n      dup7\n        /* \"defi-practice/contracts/04_Exchange.sol\":2341:2346  _burn */\n      tag_257\n        /* \"defi-practice/contracts/04_Exchange.sol\":2341:2369  _burn(msg.sender, liquidity) */\n      jump\t// in\n    tag_256:\n        /* \"defi-practice/contracts/04_Exchange.sol\":2444:2455  usdtAddress */\n      0x06\n      0x00\n      swap1\n      sload\n      swap1\n      0x0100\n      exp\n      swap1\n      div\n      0xffffffffffffffffffffffffffffffffffffffff\n      and\n        /* \"defi-practice/contracts/04_Exchange.sol\":2437:2465  IERC20(usdtAddress).transfer */\n      0xffffffffffffffffffffffffffffffffffffffff\n      and\n      0xa9059cbb\n        /* \"defi-practice/contracts/04_Exchange.sol\":2466:2476  msg.sender */\n      caller\n        /* \"defi-practice/contracts/04_Exchange.sol\":2478:2488  usdtAmount */\n      dup7\n        /* \"defi-practice/contracts/04_Exchange.sol\":2437:2489  IERC20(usdtAddress).transfer(msg.sender, usdtAmount) */\n      mload(0x40)\n      dup4\n      0xffffffff\n      and\n      0xe0\n      shl\n      dup2\n      mstore\n      0x04\n      add\n      tag_258\n      swap3\n      swap2\n      swap1\n      tag_166\n      jump\t// in\n    tag_258:\n      0x20\n      mload(0x40)\n      dup1\n      dup4\n      sub\n      dup2\n      0x00\n      dup8\n      gas\n      call\n      iszero\n      dup1\n      iszero\n      tag_260\n      jumpi\n      returndatasize\n      0x00\n      dup1\n      returndatacopy\n      revert(0x00, returndatasize)\n    tag_260:\n      pop\n      pop\n      pop\n      pop\n      mload(0x40)\n      returndatasize\n      not(0x1f)\n      0x1f\n      dup3\n      add\n      and\n      dup3\n      add\n      dup1\n      0x40\n      mstore\n      pop\n      dup2\n      add\n      swap1\n      tag_261\n      swap2\n      swap1\n      tag_155\n      jump\t// in\n    tag_261:\n      pop\n        /* \"defi-practice/contracts/04_Exchange.sol\":2506:2518  tokenAddress */\n      0x05\n      0x00\n      swap1\n      sload\n      swap1\n      0x0100\n      exp\n      swap1\n      div\n      0xffffffffffffffffffffffffffffffffffffffff\n      and\n        /* \"defi-practice/contracts/04_Exchange.sol\":2499:2528  IERC20(tokenAddress).transfer */\n      0xffffffffffffffffffffffffffffffffffffffff\n      and\n      0xa9059cbb\n        /* \"defi-practice/contracts/04_Exchange.sol\":2529:2539  msg.sender */\n      caller\n        /* \"defi-practice/contracts/04_Exchange.sol\":2541:2552  tokenAmount */\n      dup6\n        /* \"defi-practice/contracts/04_Exchange.sol\":2499:2553  IERC20(tokenAddress).transfer(msg.sender, tokenAmount) */\n      mload(0x40)\n      dup4\n      0xffffffff\n      and\n      0xe0\n      shl\n      dup2\n      mstore\n      0x04\n      add\n      tag_262\n      swap3\n      swap2\n      swap1\n      tag_166\n      jump\t// in\n    tag_262:\n      0x20\n      mload(0x40)\n      dup1\n      dup4\n      sub\n      dup2\n      0x00\n      dup8\n      gas\n      call\n      iszero\n      dup1\n      iszero\n      tag_264\n      jumpi\n      returndatasize\n      0x00\n      dup1\n      returndatacopy\n      revert(0x00, returndatasize)\n    tag_264:\n      pop\n      pop\n      pop\n      pop\n      mload(0x40)\n      returndatasize\n      not(0x1f)\n      0x1f\n      dup3\n      add\n      and\n      dup3\n      add\n      dup1\n      0x40\n      mstore\n      pop\n      dup2\n      add\n      swap1\n      tag_265\n      swap2\n      swap1\n      tag_155\n      jump\t// in\n    tag_265:\n      pop\n        /* \"defi-practice/contracts/04_Exchange.sol\":2608:2619  tokenAmount */\n      dup3\n        /* \"defi-practice/contracts/04_Exchange.sol\":2596:2606  usdtAmount */\n      dup5\n        /* \"defi-practice/contracts/04_Exchange.sol\":2584:2594  msg.sender */\n      caller\n        /* \"defi-practice/contracts/04_Exchange.sol\":2568:2620  RemoveLiquidity(msg.sender, usdtAmount, tokenAmount) */\n      0xffffffffffffffffffffffffffffffffffffffff\n      and\n      0x0fbf06c058b90cb038a618f8c2acbf6145f8b3570fd1fa56abb8f0f3f05b36e8\n      mload(0x40)\n      mload(0x40)\n      dup1\n      swap2\n      sub\n      swap1\n      log4\n        /* \"defi-practice/contracts/04_Exchange.sol\":1927:2627  {... */\n      pop\n      pop\n        /* \"defi-practice/contracts/04_Exchange.sol\":1812:2627  function removeLiquidity(... */\n      swap2\n      pop\n      swap2\n      jump\t// out\n        /* \"defi-practice/contracts/04_Exchange.sol\":1082:1806  function addLiquidity(... */\n    tag_98:\n        /* \"defi-practice/contracts/04_Exchange.sol\":1183:1200  uint256 liquidity */\n      0x00\n        /* \"defi-practice/contracts/04_Exchange.sol\":1242:1262  uint256 tokenReserve */\n      dup1\n        /* \"defi-practice/contracts/04_Exchange.sol\":1264:1283  uint256 usdtReserve */\n      0x00\n        /* \"defi-practice/contracts/04_Exchange.sol\":1287:1300  getReserves() */\n      tag_267\n        /* \"defi-practice/contracts/04_Exchange.sol\":1287:1298  getReserves */\n      tag_34\n        /* \"defi-practice/contracts/04_Exchange.sol\":1287:1300  getReserves() */\n      jump\t// in\n    tag_267:\n        /* \"defi-practice/contracts/04_Exchange.sol\":1241:1300  (uint256 tokenReserve, uint256 usdtReserve) = getReserves() */\n      swap2\n      pop\n      swap2\n      pop\n        /* \"defi-practice/contracts/04_Exchange.sol\":1330:1331  0 */\n      0x00\n        /* \"defi-practice/contracts/04_Exchange.sol\":1314:1326  tokenReserve */\n      dup3\n        /* \"defi-practice/contracts/04_Exchange.sol\":1314:1331  tokenReserve == 0 */\n      sub\n        /* \"defi-practice/contracts/04_Exchange.sol\":1310:1697  if (tokenReserve == 0) {... */\n      tag_268\n      jumpi\n        /* \"defi-practice/contracts/04_Exchange.sol\":1354:1366  tokenAddress */\n      0x05\n      0x00\n      swap1\n      sload\n      swap1\n      0x0100\n      exp\n      swap1\n      div\n      0xffffffffffffffffffffffffffffffffffffffff\n      and\n        /* \"defi-practice/contracts/04_Exchange.sol\":1347:1380  IERC20(tokenAddress).transferFrom */\n      0xffffffffffffffffffffffffffffffffffffffff\n      and\n      0x23b872dd\n        /* \"defi-practice/contracts/04_Exchange.sol\":1398:1408  msg.sender */\n      caller\n        /* \"defi-practice/contracts/04_Exchange.sol\":1434:1438  this */\n      address\n        /* \"defi-practice/contracts/04_Exchange.sol\":1457:1468  tokenAmount */\n      dup9\n        /* \"defi-practice/contracts/04_Exchange.sol\":1347:1482  IERC20(tokenAddress).transferFrom(... */\n      mload(0x40)\n      dup5\n      0xffffffff\n      and\n      0xe0\n      shl\n      dup2\n      mstore\n      0x04\n      add\n      tag_269\n      swap4\n      swap3\n      swap2\n      swap1\n      tag_151\n      jump\t// in\n    tag_269:\n      0x20\n      mload(0x40)\n      dup1\n      dup4\n      sub\n      dup2\n      0x00\n      dup8\n      gas\n      call\n      iszero\n      dup1\n      iszero\n      tag_271\n      jumpi\n      returndatasize\n      0x00\n      dup1\n      returndatacopy\n      revert(0x00, returndatasize)\n    tag_271:\n      pop\n      pop\n      pop\n      pop\n      mload(0x40)\n      returndatasize\n      not(0x1f)\n      0x1f\n      dup3\n      add\n      and\n      dup3\n      add\n      dup1\n      0x40\n      mstore\n      pop\n      dup2\n      add\n      swap1\n      tag_272\n      swap2\n      swap1\n      tag_155\n      jump\t// in\n    tag_272:\n      pop\n        /* \"defi-practice/contracts/04_Exchange.sol\":1503:1514  usdtAddress */\n      0x06\n      0x00\n      swap1\n      sload\n      swap1\n      0x0100\n      exp\n      swap1\n      div\n      0xffffffffffffffffffffffffffffffffffffffff\n      and\n        /* \"defi-practice/contracts/04_Exchange.sol\":1496:1528  IERC20(usdtAddress).transferFrom */\n      0xffffffffffffffffffffffffffffffffffffffff\n      and\n      0x23b872dd\n        /* \"defi-practice/contracts/04_Exchange.sol\":1546:1556  msg.sender */\n      caller\n        /* \"defi-practice/contracts/04_Exchange.sol\":1582:1586  this */\n      address\n        /* \"defi-practice/contracts/04_Exchange.sol\":1605:1615  usdtAmount */\n      dup8\n        /* \"defi-practice/contracts/04_Exchange.sol\":1496:1629  IERC20(usdtAddress).transferFrom(... */\n      mload(0x40)\n      dup5\n      0xffffffff\n      and\n      0xe0\n      shl\n      dup2\n      mstore\n      0x04\n      add\n      tag_273\n      swap4\n      swap3\n      swap2\n      swap1\n      tag_151\n      jump\t// in\n    tag_273:\n      0x20\n      mload(0x40)\n      dup1\n      dup4\n      sub\n      dup2\n      0x00\n      dup8\n      gas\n      call\n      iszero\n      dup1\n      iszero\n      tag_275\n      jumpi\n      returndatasize\n      0x00\n      dup1\n      returndatacopy\n      revert(0x00, returndatasize)\n    tag_275:\n      pop\n      pop\n      pop\n      pop\n      mload(0x40)\n      returndatasize\n      not(0x1f)\n      0x1f\n      dup3\n      add\n      and\n      dup3\n      add\n      dup1\n      0x40\n      mstore\n      pop\n      dup2\n      add\n      swap1\n      tag_276\n      swap2\n      swap1\n      tag_155\n      jump\t// in\n    tag_276:\n      pop\n        /* \"defi-practice/contracts/04_Exchange.sol\":1655:1686  _sqrt(tokenAmount * usdtAmount) */\n      tag_277\n        /* \"defi-practice/contracts/04_Exchange.sol\":1675:1685  usdtAmount */\n      dup5\n        /* \"defi-practice/contracts/04_Exchange.sol\":1661:1672  tokenAmount */\n      dup7\n        /* \"defi-practice/contracts/04_Exchange.sol\":1661:1685  tokenAmount * usdtAmount */\n      tag_278\n      swap2\n      swap1\n      tag_159\n      jump\t// in\n    tag_278:\n        /* \"defi-practice/contracts/04_Exchange.sol\":1655:1660  _sqrt */\n      tag_279\n        /* \"defi-practice/contracts/04_Exchange.sol\":1655:1686  _sqrt(tokenAmount * usdtAmount) */\n      jump\t// in\n    tag_277:\n        /* \"defi-practice/contracts/04_Exchange.sol\":1643:1686  liquidity = _sqrt(tokenAmount * usdtAmount) */\n      swap3\n      pop\n        /* \"defi-practice/contracts/04_Exchange.sol\":1310:1697  if (tokenReserve == 0) {... */\n    tag_268:\n        /* \"defi-practice/contracts/04_Exchange.sol\":1707:1735  _mint(msg.sender, liquidity) */\n      tag_280\n        /* \"defi-practice/contracts/04_Exchange.sol\":1713:1723  msg.sender */\n      caller\n        /* \"defi-practice/contracts/04_Exchange.sol\":1725:1734  liquidity */\n      dup5\n        /* \"defi-practice/contracts/04_Exchange.sol\":1707:1712  _mint */\n      tag_281\n        /* \"defi-practice/contracts/04_Exchange.sol\":1707:1735  _mint(msg.sender, liquidity) */\n      jump\t// in\n    tag_280:\n        /* \"defi-practice/contracts/04_Exchange.sol\":1787:1798  tokenAmount */\n      dup5\n        /* \"defi-practice/contracts/04_Exchange.sol\":1775:1785  usdtAmount */\n      dup5\n        /* \"defi-practice/contracts/04_Exchange.sol\":1763:1773  msg.sender */\n      caller\n        /* \"defi-practice/contracts/04_Exchange.sol\":1750:1799  AddLiquidity(msg.sender, usdtAmount, tokenAmount) */\n      0xffffffffffffffffffffffffffffffffffffffff\n      and\n      0x06239653922ac7bea6aa2b19dc486b9361821d37712eb796adfd38d81de278ca\n      mload(0x40)\n      mload(0x40)\n      dup1\n      swap2\n      sub\n      swap1\n      log4\n        /* \"defi-practice/contracts/04_Exchange.sol\":1202:1806  {... */\n      pop\n      pop\n        /* \"defi-practice/contracts/04_Exchange.sol\":1082:1806  function addLiquidity(... */\n      swap3\n      swap2\n      pop\n      pop\n      jump\t// out\n        /* \"defi-practice/contracts/04_Exchange.sol\":204:231  address public tokenAddress */\n    tag_101:\n      0x05\n      0x00\n      swap1\n      sload\n      swap1\n      0x0100\n      exp\n      swap1\n      div\n      0xffffffffffffffffffffffffffffffffffffffff\n      and\n      dup2\n      jump\t// out\n        /* \"@openzeppelin/contracts/token/ERC20/ERC20.sol\":6575:7002  function decreaseAllowance(address spender, uint256 subtractedValue) public virtual returns (bool) {... */\n    tag_105:\n        /* \"@openzeppelin/contracts/token/ERC20/ERC20.sol\":6668:6672  bool */\n      0x00\n        /* \"@openzeppelin/contracts/token/ERC20/ERC20.sol\":6684:6697  address owner */\n      dup1\n        /* \"@openzeppelin/contracts/token/ERC20/ERC20.sol\":6700:6712  _msgSender() */\n      tag_283\n        /* \"@openzeppelin/contracts/token/ERC20/ERC20.sol\":6700:6710  _msgSender */\n      tag_142\n        /* \"@openzeppelin/contracts/token/ERC20/ERC20.sol\":6700:6712  _msgSender() */\n      jump\t// in\n    tag_283:\n        /* \"@openzeppelin/contracts/token/ERC20/ERC20.sol\":6684:6712  address owner = _msgSender() */\n      swap1\n      pop\n        /* \"@openzeppelin/contracts/token/ERC20/ERC20.sol\":6722:6746  uint256 currentAllowance */\n      0x00\n        /* \"@openzeppelin/contracts/token/ERC20/ERC20.sol\":6749:6774  allowance(owner, spender) */\n      tag_284\n        /* \"@openzeppelin/contracts/token/ERC20/ERC20.sol\":6759:6764  owner */\n      dup3\n        /* \"@openzeppelin/contracts/token/ERC20/ERC20.sol\":6766:6773  spender */\n      dup7\n        /* \"@openzeppelin/contracts/token/ERC20/ERC20.sol\":6749:6758  allowance */\n      tag_117\n        /* \"@openzeppelin/contracts/token/ERC20/ERC20.sol\":6749:6774  allowance(owner, spender) */\n      jump\t// in\n    tag_284:\n        /* \"@openzeppelin/contracts/token/ERC20/ERC20.sol\":6722:6774  uint256 currentAllowance = allowance(owner, spender) */\n      swap1\n      pop\n        /* \"@openzeppelin/contracts/token/ERC20/ERC20.sol\":6812:6827  subtractedValue */\n      dup4\n        /* \"@openzeppelin/contracts/token/ERC20/ERC20.sol\":6792:6808  currentAllowance */\n      dup2\n        /* \"@openzeppelin/contracts/token/ERC20/ERC20.sol\":6792:6827  currentAllowance >= subtractedValue */\n      lt\n      iszero\n        /* \"@openzeppelin/contracts/token/ERC20/ERC20.sol\":6784:6869  require(currentAllowance >= subtractedValue, \"ERC20: decreased allowance below zero\") */\n      tag_285\n      jumpi\n      mload(0x40)\n      0x08c379a000000000000000000000000000000000000000000000000000000000\n      dup2\n      mstore\n      0x04\n      add\n      tag_286\n      swap1\n      tag_287\n      jump\t// in\n    tag_286:\n      mload(0x40)\n      dup1\n      swap2\n      sub\n      swap1\n      revert\n    tag_285:\n        /* \"@openzeppelin/contracts/token/ERC20/ERC20.sol\":6903:6963  _approve(owner, spender, currentAllowance - subtractedValue) */\n      tag_288\n        /* \"@openzeppelin/contracts/token/ERC20/ERC20.sol\":6912:6917  owner */\n      dup3\n        /* \"@openzeppelin/contracts/token/ERC20/ERC20.sol\":6919:6926  spender */\n      dup7\n        /* \"@openzeppelin/contracts/token/ERC20/ERC20.sol\":6947:6962  subtractedValue */\n      dup7\n        /* \"@openzeppelin/contracts/token/ERC20/ERC20.sol\":6928:6944  currentAllowance */\n      dup5\n        /* \"@openzeppelin/contracts/token/ERC20/ERC20.sol\":6928:6962  currentAllowance - subtractedValue */\n      sub\n        /* \"@openzeppelin/contracts/token/ERC20/ERC20.sol\":6903:6911  _approve */\n      tag_144\n        /* \"@openzeppelin/contracts/token/ERC20/ERC20.sol\":6903:6963  _approve(owner, spender, currentAllowance - subtractedValue) */\n      jump\t// in\n    tag_288:\n        /* \"@openzeppelin/contracts/token/ERC20/ERC20.sol\":6991:6995  true */\n      0x01\n        /* \"@openzeppelin/contracts/token/ERC20/ERC20.sol\":6984:6995  return true */\n      swap3\n      pop\n      pop\n      pop\n        /* \"@openzeppelin/contracts/token/ERC20/ERC20.sol\":6575:7002  function decreaseAllowance(address spender, uint256 subtractedValue) public virtual returns (bool) {... */\n      swap3\n      swap2\n      pop\n      pop\n      jump\t// out\n        /* \"@openzeppelin/contracts/token/ERC20/ERC20.sol\":3740:3929  function transfer(address to, uint256 amount) public virtual override returns (bool) {... */\n    tag_109:\n        /* \"@openzeppelin/contracts/token/ERC20/ERC20.sol\":3819:3823  bool */\n      0x00\n        /* \"@openzeppelin/contracts/token/ERC20/ERC20.sol\":3835:3848  address owner */\n      dup1\n        /* \"@openzeppelin/contracts/token/ERC20/ERC20.sol\":3851:3863  _msgSender() */\n      tag_290\n        /* \"@openzeppelin/contracts/token/ERC20/ERC20.sol\":3851:3861  _msgSender */\n      tag_142\n        /* \"@openzeppelin/contracts/token/ERC20/ERC20.sol\":3851:3863  _msgSender() */\n      jump\t// in\n    tag_290:\n        /* \"@openzeppelin/contracts/token/ERC20/ERC20.sol\":3835:3863  address owner = _msgSender() */\n      swap1\n      pop\n        /* \"@openzeppelin/contracts/token/ERC20/ERC20.sol\":3873:3901  _transfer(owner, to, amount) */\n      tag_291\n        /* \"@openzeppelin/contracts/token/ERC20/ERC20.sol\":3883:3888  owner */\n      dup2\n        /* \"@openzeppelin/contracts/token/ERC20/ERC20.sol\":3890:3892  to */\n      dup6\n        /* \"@openzeppelin/contracts/token/ERC20/ERC20.sol\":3894:3900  amount */\n      dup6\n        /* \"@openzeppelin/contracts/token/ERC20/ERC20.sol\":3873:3882  _transfer */\n      tag_188\n        /* \"@openzeppelin/contracts/token/ERC20/ERC20.sol\":3873:3901  _transfer(owner, to, amount) */\n      jump\t// in\n    tag_291:\n        /* \"@openzeppelin/contracts/token/ERC20/ERC20.sol\":3918:3922  true */\n      0x01\n        /* \"@openzeppelin/contracts/token/ERC20/ERC20.sol\":3911:3922  return true */\n      swap2\n      pop\n      pop\n        /* \"@openzeppelin/contracts/token/ERC20/ERC20.sol\":3740:3929  function transfer(address to, uint256 amount) public virtual override returns (bool) {... */\n      swap3\n      swap2\n      pop\n      pop\n      jump\t// out\n        /* \"defi-practice/contracts/04_Exchange.sol\":2729:3955  function swapExactUsdtToToken(... */\n    tag_113:\n        /* \"defi-practice/contracts/04_Exchange.sol\":3014:3015  0 */\n      0x00\n        /* \"defi-practice/contracts/04_Exchange.sol\":2999:3011  amountUsdtIn */\n      dup4\n        /* \"defi-practice/contracts/04_Exchange.sol\":2999:3015  amountUsdtIn > 0 */\n      gt\n        /* \"defi-practice/contracts/04_Exchange.sol\":2991:3055  require(amountUsdtIn > 0 , \"Amount of amountUsdtIn cannot be 0\") */\n      tag_293\n      jumpi\n      mload(0x40)\n      0x08c379a000000000000000000000000000000000000000000000000000000000\n      dup2\n      mstore\n      0x04\n      add\n      tag_294\n      swap1\n      tag_295\n      jump\t// in\n    tag_294:\n      mload(0x40)\n      dup1\n      swap2\n      sub\n      swap1\n      revert\n    tag_293:\n        /* \"defi-practice/contracts/04_Exchange.sol\":3099:3119  uint256 reserveToken */\n      0x00\n        /* \"defi-practice/contracts/04_Exchange.sol\":3121:3140  uint256 reserveUsdt */\n      dup1\n        /* \"defi-practice/contracts/04_Exchange.sol\":3144:3157  getReserves() */\n      tag_296\n        /* \"defi-practice/contracts/04_Exchange.sol\":3144:3155  getReserves */\n      tag_34\n        /* \"defi-practice/contracts/04_Exchange.sol\":3144:3157  getReserves() */\n      jump\t// in\n    tag_296:\n        /* \"defi-practice/contracts/04_Exchange.sol\":3098:3157  (uint256 reserveToken ,uint256 reserveUsdt) = getReserves() */\n      swap2\n      pop\n      swap2\n      pop\n        /* \"defi-practice/contracts/04_Exchange.sol\":3192:3203  usdtAddress */\n      0x06\n      0x00\n      swap1\n      sload\n      swap1\n      0x0100\n      exp\n      swap1\n      div\n      0xffffffffffffffffffffffffffffffffffffffff\n      and\n        /* \"defi-practice/contracts/04_Exchange.sol\":3185:3217  IERC20(usdtAddress).transferFrom */\n      0xffffffffffffffffffffffffffffffffffffffff\n      and\n      0x23b872dd\n        /* \"defi-practice/contracts/04_Exchange.sol\":3218:3228  msg.sender */\n      caller\n        /* \"defi-practice/contracts/04_Exchange.sol\":3238:3242  this */\n      address\n        /* \"defi-practice/contracts/04_Exchange.sol\":3245:3257  amountUsdtIn */\n      dup9\n        /* \"defi-practice/contracts/04_Exchange.sol\":3185:3258  IERC20(usdtAddress).transferFrom(msg.sender, address(this), amountUsdtIn) */\n      mload(0x40)\n      dup5\n      0xffffffff\n      and\n      0xe0\n      shl\n      dup2\n      mstore\n      0x04\n      add\n      tag_297\n      swap4\n      swap3\n      swap2\n      swap1\n      tag_151\n      jump\t// in\n    tag_297:\n      0x20\n      mload(0x40)\n      dup1\n      dup4\n      sub\n      dup2\n      0x00\n      dup8\n      gas\n      call\n      iszero\n      dup1\n      iszero\n      tag_299\n      jumpi\n      returndatasize\n      0x00\n      dup1\n      returndatacopy\n      revert(0x00, returndatasize)\n    tag_299:\n      pop\n      pop\n      pop\n      pop\n      mload(0x40)\n      returndatasize\n      not(0x1f)\n      0x1f\n      dup3\n      add\n      and\n      dup3\n      add\n      dup1\n      0x40\n      mstore\n      pop\n      dup2\n      add\n      swap1\n      tag_300\n      swap2\n      swap1\n      tag_155\n      jump\t// in\n    tag_300:\n      pop\n        /* \"defi-practice/contracts/04_Exchange.sol\":3404:3426  uint256 amountTokenOut */\n      0x00\n        /* \"defi-practice/contracts/04_Exchange.sol\":3478:3489  reserveUsdt */\n      dup2\n        /* \"defi-practice/contracts/04_Exchange.sol\":3463:3475  amountUsdtIn */\n      dup7\n        /* \"defi-practice/contracts/04_Exchange.sol\":3463:3489  amountUsdtIn + reserveUsdt */\n      tag_301\n      swap2\n      swap1\n      tag_157\n      jump\t// in\n    tag_301:\n        /* \"defi-practice/contracts/04_Exchange.sol\":3445:3457  reserveToken */\n      dup4\n        /* \"defi-practice/contracts/04_Exchange.sol\":3430:3442  amountUsdtIn */\n      dup8\n        /* \"defi-practice/contracts/04_Exchange.sol\":3430:3457  amountUsdtIn * reserveToken */\n      tag_302\n      swap2\n      swap1\n      tag_159\n      jump\t// in\n    tag_302:\n        /* \"defi-practice/contracts/04_Exchange.sol\":3429:3491  (amountUsdtIn * reserveToken) / ( amountUsdtIn + reserveUsdt ) */\n      tag_303\n      swap2\n      swap1\n      tag_161\n      jump\t// in\n    tag_303:\n        /* \"defi-practice/contracts/04_Exchange.sol\":3404:3491  uint256 amountTokenOut = (amountUsdtIn * reserveToken) / ( amountUsdtIn + reserveUsdt ) */\n      swap1\n      pop\n        /* \"defi-practice/contracts/04_Exchange.sol\":3664:3683  expectedTokenAmount */\n      dup5\n        /* \"defi-practice/contracts/04_Exchange.sol\":3647:3661  amountTokenOut */\n      dup2\n        /* \"defi-practice/contracts/04_Exchange.sol\":3647:3683  amountTokenOut < expectedTokenAmount */\n      lt\n        /* \"defi-practice/contracts/04_Exchange.sol\":3644:3886  if(amountTokenOut < expectedTokenAmount){... */\n      iszero\n      tag_304\n      jumpi\n        /* \"defi-practice/contracts/04_Exchange.sol\":3705:3717  tokenAddress */\n      0x05\n      0x00\n      swap1\n      sload\n      swap1\n      0x0100\n      exp\n      swap1\n      div\n      0xffffffffffffffffffffffffffffffffffffffff\n      and\n        /* \"defi-practice/contracts/04_Exchange.sol\":3698:3727  IERC20(tokenAddress).transfer */\n      0xffffffffffffffffffffffffffffffffffffffff\n      and\n      0xa9059cbb\n        /* \"defi-practice/contracts/04_Exchange.sol\":3728:3730  to */\n      dup6\n        /* \"defi-practice/contracts/04_Exchange.sol\":3732:3746  amountTokenOut */\n      dup4\n        /* \"defi-practice/contracts/04_Exchange.sol\":3698:3747  IERC20(tokenAddress).transfer(to, amountTokenOut) */\n      mload(0x40)\n      dup4\n      0xffffffff\n      and\n      0xe0\n      shl\n      dup2\n      mstore\n      0x04\n      add\n      tag_305\n      swap3\n      swap2\n      swap1\n      tag_166\n      jump\t// in\n    tag_305:\n      0x20\n      mload(0x40)\n      dup1\n      dup4\n      sub\n      dup2\n      0x00\n      dup8\n      gas\n      call\n      iszero\n      dup1\n      iszero\n      tag_307\n      jumpi\n      returndatasize\n      0x00\n      dup1\n      returndatacopy\n      revert(0x00, returndatasize)\n    tag_307:\n      pop\n      pop\n      pop\n      pop\n      mload(0x40)\n      returndatasize\n      not(0x1f)\n      0x1f\n      dup3\n      add\n      and\n      dup3\n      add\n      dup1\n      0x40\n      mstore\n      pop\n      dup2\n      add\n      swap1\n      tag_308\n      swap2\n      swap1\n      tag_155\n      jump\t// in\n    tag_308:\n      pop\n        /* \"defi-practice/contracts/04_Exchange.sol\":3644:3886  if(amountTokenOut < expectedTokenAmount){... */\n      jump(tag_309)\n    tag_304:\n        /* \"defi-practice/contracts/04_Exchange.sol\":3793:3812  expectedTokenAmount */\n      dup5\n        /* \"defi-practice/contracts/04_Exchange.sol\":3776:3812  amountTokenOut = expectedTokenAmount */\n      swap1\n      pop\n        /* \"defi-practice/contracts/04_Exchange.sol\":3833:3845  tokenAddress */\n      0x05\n      0x00\n      swap1\n      sload\n      swap1\n      0x0100\n      exp\n      swap1\n      div\n      0xffffffffffffffffffffffffffffffffffffffff\n      and\n        /* \"defi-practice/contracts/04_Exchange.sol\":3826:3855  IERC20(tokenAddress).transfer */\n      0xffffffffffffffffffffffffffffffffffffffff\n      and\n      0xa9059cbb\n        /* \"defi-practice/contracts/04_Exchange.sol\":3856:3858  to */\n      dup6\n        /* \"defi-practice/contracts/04_Exchange.sol\":3860:3874  amountTokenOut */\n      dup4\n        /* \"defi-practice/contracts/04_Exchange.sol\":3826:3875  IERC20(tokenAddress).transfer(to, amountTokenOut) */\n      mload(0x40)\n      dup4\n      0xffffffff\n      and\n      0xe0\n      shl\n      dup2\n      mstore\n      0x04\n      add\n      tag_310\n      swap3\n      swap2\n      swap1\n      tag_166\n      jump\t// in\n    tag_310:\n      0x20\n      mload(0x40)\n      dup1\n      dup4\n      sub\n      dup2\n      0x00\n      dup8\n      gas\n      call\n      iszero\n      dup1\n      iszero\n      tag_312\n      jumpi\n      returndatasize\n      0x00\n      dup1\n      returndatacopy\n      revert(0x00, returndatasize)\n    tag_312:\n      pop\n      pop\n      pop\n      pop\n      mload(0x40)\n      returndatasize\n      not(0x1f)\n      0x1f\n      dup3\n      add\n      and\n      dup3\n      add\n      dup1\n      0x40\n      mstore\n      pop\n      dup2\n      add\n      swap1\n      tag_313\n      swap2\n      swap1\n      tag_155\n      jump\t// in\n    tag_313:\n      pop\n        /* \"defi-practice/contracts/04_Exchange.sol\":3644:3886  if(amountTokenOut < expectedTokenAmount){... */\n    tag_309:\n        /* \"defi-practice/contracts/04_Exchange.sol\":3919:3931  amountUsdtIn */\n      dup6\n        /* \"defi-practice/contracts/04_Exchange.sol\":3915:3917  to */\n      dup5\n        /* \"defi-practice/contracts/04_Exchange.sol\":3901:3948  TokenPurchase(to, amountUsdtIn, amountTokenOut) */\n      0xffffffffffffffffffffffffffffffffffffffff\n      and\n      0xcd60aa75dea3072fbc07ae6d7d856b5dc5f4eee88854f5b4abf7b680ef8bc50f\n        /* \"defi-practice/contracts/04_Exchange.sol\":3933:3947  amountTokenOut */\n      dup4\n        /* \"defi-practice/contracts/04_Exchange.sol\":3901:3948  TokenPurchase(to, amountUsdtIn, amountTokenOut) */\n      mload(0x40)\n      tag_314\n      swap2\n      swap1\n      tag_52\n      jump\t// in\n    tag_314:\n      mload(0x40)\n      dup1\n      swap2\n      sub\n      swap1\n      log3\n        /* \"defi-practice/contracts/04_Exchange.sol\":2859:3955  {... */\n      pop\n      pop\n      pop\n        /* \"defi-practice/contracts/04_Exchange.sol\":2729:3955  function swapExactUsdtToToken(... */\n      pop\n      pop\n      pop\n      jump\t// out\n        /* \"@openzeppelin/contracts/token/ERC20/ERC20.sol\":3987:4136  function allowance(address owner, address spender) public view virtual override returns (uint256) {... */\n    tag_117:\n        /* \"@openzeppelin/contracts/token/ERC20/ERC20.sol\":4076:4083  uint256 */\n      0x00\n        /* \"@openzeppelin/contracts/token/ERC20/ERC20.sol\":4102:4113  _allowances */\n      0x01\n        /* \"@openzeppelin/contracts/token/ERC20/ERC20.sol\":4102:4120  _allowances[owner] */\n      0x00\n        /* \"@openzeppelin/contracts/token/ERC20/ERC20.sol\":4114:4119  owner */\n      dup5\n        /* \"@openzeppelin/contracts/token/ERC20/ERC20.sol\":4102:4120  _allowances[owner] */\n      0xffffffffffffffffffffffffffffffffffffffff\n      and\n      0xffffffffffffffffffffffffffffffffffffffff\n      and\n      dup2\n      mstore\n      0x20\n      add\n      swap1\n      dup2\n      mstore\n      0x20\n      add\n      0x00\n      keccak256\n        /* \"@openzeppelin/contracts/token/ERC20/ERC20.sol\":4102:4129  _allowances[owner][spender] */\n      0x00\n        /* \"@openzeppelin/contracts/token/ERC20/ERC20.sol\":4121:4128  spender */\n      dup4\n        /* \"@openzeppelin/contracts/token/ERC20/ERC20.sol\":4102:4129  _allowances[owner][spender] */\n      0xffffffffffffffffffffffffffffffffffffffff\n      and\n      0xffffffffffffffffffffffffffffffffffffffff\n      and\n      dup2\n      mstore\n      0x20\n      add\n      swap1\n      dup2\n      mstore\n      0x20\n      add\n      0x00\n      keccak256\n      sload\n        /* \"@openzeppelin/contracts/token/ERC20/ERC20.sol\":4095:4129  return _allowances[owner][spender] */\n      swap1\n      pop\n        /* \"@openzeppelin/contracts/token/ERC20/ERC20.sol\":3987:4136  function allowance(address owner, address spender) public view virtual override returns (uint256) {... */\n      swap3\n      swap2\n      pop\n      pop\n      jump\t// out\n        /* \"defi-practice/contracts/04_Exchange.sol\":8192:8641  function getAmountOut(... */\n    tag_121:\n        /* \"defi-practice/contracts/04_Exchange.sol\":8298:8318  uint256 outputAmount */\n      0x00\n        /* \"defi-practice/contracts/04_Exchange.sol\":8349:8369  uint256 reserveToken */\n      dup1\n        /* \"defi-practice/contracts/04_Exchange.sol\":8371:8390  uint256 reserveUsdt */\n      0x00\n        /* \"defi-practice/contracts/04_Exchange.sol\":8394:8407  getReserves() */\n      tag_317\n        /* \"defi-practice/contracts/04_Exchange.sol\":8394:8405  getReserves */\n      tag_34\n        /* \"defi-practice/contracts/04_Exchange.sol\":8394:8407  getReserves() */\n      jump\t// in\n    tag_317:\n        /* \"defi-practice/contracts/04_Exchange.sol\":8348:8407  (uint256 reserveToken ,uint256 reserveUsdt) = getReserves() */\n      swap2\n      pop\n      swap2\n      pop\n        /* \"defi-practice/contracts/04_Exchange.sol\":8417:8429  bool istoken */\n      0x00\n        /* \"defi-practice/contracts/04_Exchange.sol\":8446:8458  tokenAddress */\n      0x05\n      0x00\n      swap1\n      sload\n      swap1\n      0x0100\n      exp\n      swap1\n      div\n      0xffffffffffffffffffffffffffffffffffffffff\n      and\n        /* \"defi-practice/contracts/04_Exchange.sol\":8432:8458  inputToken == tokenAddress */\n      0xffffffffffffffffffffffffffffffffffffffff\n      and\n        /* \"defi-practice/contracts/04_Exchange.sol\":8432:8442  inputToken */\n      dup6\n        /* \"defi-practice/contracts/04_Exchange.sol\":8432:8458  inputToken == tokenAddress */\n      0xffffffffffffffffffffffffffffffffffffffff\n      and\n      eq\n        /* \"defi-practice/contracts/04_Exchange.sol\":8417:8458  bool istoken = inputToken == tokenAddress */\n      swap1\n      pop\n        /* \"defi-practice/contracts/04_Exchange.sol\":8483:8490  istoken */\n      dup1\n        /* \"defi-practice/contracts/04_Exchange.sol\":8483:8634  istoken?... */\n      tag_318\n      jumpi\n        /* \"defi-practice/contracts/04_Exchange.sol\":8620:8631  reserveUsdt */\n      dup2\n        /* \"defi-practice/contracts/04_Exchange.sol\":8606:8617  inputAmount */\n      dup7\n        /* \"defi-practice/contracts/04_Exchange.sol\":8606:8631  inputAmount + reserveUsdt */\n      tag_319\n      swap2\n      swap1\n      tag_157\n      jump\t// in\n    tag_319:\n        /* \"defi-practice/contracts/04_Exchange.sol\":8588:8600  reserveToken */\n      dup4\n        /* \"defi-practice/contracts/04_Exchange.sol\":8574:8585  inputAmount */\n      dup8\n        /* \"defi-practice/contracts/04_Exchange.sol\":8574:8600  inputAmount * reserveToken */\n      tag_320\n      swap2\n      swap1\n      tag_159\n      jump\t// in\n    tag_320:\n        /* \"defi-practice/contracts/04_Exchange.sol\":8573:8633  (inputAmount * reserveToken) / ( inputAmount + reserveUsdt ) */\n      tag_321\n      swap2\n      swap1\n      tag_161\n      jump\t// in\n    tag_321:\n        /* \"defi-practice/contracts/04_Exchange.sol\":8483:8634  istoken?... */\n      jump(tag_322)\n    tag_318:\n        /* \"defi-practice/contracts/04_Exchange.sol\":8547:8559  reserveToken */\n      dup3\n        /* \"defi-practice/contracts/04_Exchange.sol\":8533:8544  inputAmount */\n      dup7\n        /* \"defi-practice/contracts/04_Exchange.sol\":8533:8559  inputAmount + reserveToken */\n      tag_323\n      swap2\n      swap1\n      tag_157\n      jump\t// in\n    tag_323:\n        /* \"defi-practice/contracts/04_Exchange.sol\":8516:8527  reserveUsdt */\n      dup3\n        /* \"defi-practice/contracts/04_Exchange.sol\":8502:8513  inputAmount */\n      dup8\n        /* \"defi-practice/contracts/04_Exchange.sol\":8502:8527  inputAmount * reserveUsdt */\n      tag_324\n      swap2\n      swap1\n      tag_159\n      jump\t// in\n    tag_324:\n        /* \"defi-practice/contracts/04_Exchange.sol\":8501:8561  (inputAmount * reserveUsdt) / ( inputAmount + reserveToken ) */\n      tag_325\n      swap2\n      swap1\n      tag_161\n      jump\t// in\n    tag_325:\n        /* \"defi-practice/contracts/04_Exchange.sol\":8483:8634  istoken?... */\n    tag_322:\n        /* \"defi-practice/contracts/04_Exchange.sol\":8468:8634  outputAmount = istoken?... */\n      swap4\n      pop\n        /* \"defi-practice/contracts/04_Exchange.sol\":8320:8641  {... */\n      pop\n      pop\n      pop\n        /* \"defi-practice/contracts/04_Exchange.sol\":8192:8641  function getAmountOut(... */\n      swap3\n      swap2\n      pop\n      pop\n      jump\t// out\n        /* \"@openzeppelin/contracts/utils/Context.sol\":640:736  function _msgSender() internal view virtual returns (address) {... */\n    tag_142:\n        /* \"@openzeppelin/contracts/utils/Context.sol\":693:700  address */\n      0x00\n        /* \"@openzeppelin/contracts/utils/Context.sol\":719:729  msg.sender */\n      caller\n        /* \"@openzeppelin/contracts/utils/Context.sol\":712:729  return msg.sender */\n      swap1\n      pop\n        /* \"@openzeppelin/contracts/utils/Context.sol\":640:736  function _msgSender() internal view virtual returns (address) {... */\n      swap1\n      jump\t// out\n        /* \"@openzeppelin/contracts/token/ERC20/ERC20.sol\":10457:10797  function _approve(address owner, address spender, uint256 amount) internal virtual {... */\n    tag_144:\n        /* \"@openzeppelin/contracts/token/ERC20/ERC20.sol\":10575:10576  0 */\n      0x00\n        /* \"@openzeppelin/contracts/token/ERC20/ERC20.sol\":10558:10577  owner != address(0) */\n      0xffffffffffffffffffffffffffffffffffffffff\n      and\n        /* \"@openzeppelin/contracts/token/ERC20/ERC20.sol\":10558:10563  owner */\n      dup4\n        /* \"@openzeppelin/contracts/token/ERC20/ERC20.sol\":10558:10577  owner != address(0) */\n      0xffffffffffffffffffffffffffffffffffffffff\n      and\n      sub\n        /* \"@openzeppelin/contracts/token/ERC20/ERC20.sol\":10550:10618  require(owner != address(0), \"ERC20: approve from the zero address\") */\n      tag_328\n      jumpi\n      mload(0x40)\n      0x08c379a000000000000000000000000000000000000000000000000000000000\n      dup2\n      mstore\n      0x04\n      add\n      tag_329\n      swap1\n      tag_330\n      jump\t// in\n    tag_329:\n      mload(0x40)\n      dup1\n      swap2\n      sub\n      swap1\n      revert\n    tag_328:\n        /* \"@openzeppelin/contracts/token/ERC20/ERC20.sol\":10655:10656  0 */\n      0x00\n        /* \"@openzeppelin/contracts/token/ERC20/ERC20.sol\":10636:10657  spender != address(0) */\n      0xffffffffffffffffffffffffffffffffffffffff\n      and\n        /* \"@openzeppelin/contracts/token/ERC20/ERC20.sol\":10636:10643  spender */\n      dup3\n        /* \"@openzeppelin/contracts/token/ERC20/ERC20.sol\":10636:10657  spender != address(0) */\n      0xffffffffffffffffffffffffffffffffffffffff\n      and\n      sub\n        /* \"@openzeppelin/contracts/token/ERC20/ERC20.sol\":10628:10696  require(spender != address(0), \"ERC20: approve to the zero address\") */\n      tag_331\n      jumpi\n      mload(0x40)\n      0x08c379a000000000000000000000000000000000000000000000000000000000\n      dup2\n      mstore\n      0x04\n      add\n      tag_332\n      swap1\n      tag_333\n      jump\t// in\n    tag_332:\n      mload(0x40)\n      dup1\n      swap2\n      sub\n      swap1\n      revert\n    tag_331:\n        /* \"@openzeppelin/contracts/token/ERC20/ERC20.sol\":10737:10743  amount */\n      dup1\n        /* \"@openzeppelin/contracts/token/ERC20/ERC20.sol\":10707:10718  _allowances */\n      0x01\n        /* \"@openzeppelin/contracts/token/ERC20/ERC20.sol\":10707:10725  _allowances[owner] */\n      0x00\n        /* \"@openzeppelin/contracts/token/ERC20/ERC20.sol\":10719:10724  owner */\n      dup6\n        /* \"@openzeppelin/contracts/token/ERC20/ERC20.sol\":10707:10725  _allowances[owner] */\n      0xffffffffffffffffffffffffffffffffffffffff\n      and\n      0xffffffffffffffffffffffffffffffffffffffff\n      and\n      dup2\n      mstore\n      0x20\n      add\n      swap1\n      dup2\n      mstore\n      0x20\n      add\n      0x00\n      keccak256\n        /* \"@openzeppelin/contracts/token/ERC20/ERC20.sol\":10707:10734  _allowances[owner][spender] */\n      0x00\n        /* \"@openzeppelin/contracts/token/ERC20/ERC20.sol\":10726:10733  spender */\n      dup5\n        /* \"@openzeppelin/contracts/token/ERC20/ERC20.sol\":10707:10734  _allowances[owner][spender] */\n      0xffffffffffffffffffffffffffffffffffffffff\n      and\n      0xffffffffffffffffffffffffffffffffffffffff\n      and\n      dup2\n      mstore\n      0x20\n      add\n      swap1\n      dup2\n      mstore\n      0x20\n      add\n      0x00\n      keccak256\n        /* \"@openzeppelin/contracts/token/ERC20/ERC20.sol\":10707:10743  _allowances[owner][spender] = amount */\n      dup2\n      swap1\n      sstore\n      pop\n        /* \"@openzeppelin/contracts/token/ERC20/ERC20.sol\":10774:10781  spender */\n      dup2\n        /* \"@openzeppelin/contracts/token/ERC20/ERC20.sol\":10758:10790  Approval(owner, spender, amount) */\n      0xffffffffffffffffffffffffffffffffffffffff\n      and\n        /* \"@openzeppelin/contracts/token/ERC20/ERC20.sol\":10767:10772  owner */\n      dup4\n        /* \"@openzeppelin/contracts/token/ERC20/ERC20.sol\":10758:10790  Approval(owner, spender, amount) */\n      0xffffffffffffffffffffffffffffffffffffffff\n      and\n      0x8c5be1e5ebec7d5bd14f71427d1e84f3dd0314c0f7b2291e5b200ac8c7c3b925\n        /* \"@openzeppelin/contracts/token/ERC20/ERC20.sol\":10783:10789  amount */\n      dup4\n        /* \"@openzeppelin/contracts/token/ERC20/ERC20.sol\":10758:10790  Approval(owner, spender, amount) */\n      mload(0x40)\n      tag_334\n      swap2\n      swap1\n      tag_52\n      jump\t// in\n    tag_334:\n      mload(0x40)\n      dup1\n      swap2\n      sub\n      swap1\n      log3\n        /* \"@openzeppelin/contracts/token/ERC20/ERC20.sol\":10457:10797  function _approve(address owner, address spender, uint256 amount) internal virtual {... */\n      pop\n      pop\n      pop\n      jump\t// out\n        /* \"@openzeppelin/contracts/token/ERC20/ERC20.sol\":11078:11489  function _spendAllowance(address owner, address spender, uint256 amount) internal virtual {... */\n    tag_186:\n        /* \"@openzeppelin/contracts/token/ERC20/ERC20.sol\":11178:11202  uint256 currentAllowance */\n      0x00\n        /* \"@openzeppelin/contracts/token/ERC20/ERC20.sol\":11205:11230  allowance(owner, spender) */\n      tag_336\n        /* \"@openzeppelin/contracts/token/ERC20/ERC20.sol\":11215:11220  owner */\n      dup5\n        /* \"@openzeppelin/contracts/token/ERC20/ERC20.sol\":11222:11229  spender */\n      dup5\n        /* \"@openzeppelin/contracts/token/ERC20/ERC20.sol\":11205:11214  allowance */\n      tag_117\n        /* \"@openzeppelin/contracts/token/ERC20/ERC20.sol\":11205:11230  allowance(owner, spender) */\n      jump\t// in\n    tag_336:\n        /* \"@openzeppelin/contracts/token/ERC20/ERC20.sol\":11178:11230  uint256 currentAllowance = allowance(owner, spender) */\n      swap1\n      pop\n        /* \"@openzeppelin/contracts/token/ERC20/ERC20.sol\":11264:11281  type(uint256).max */\n      0xffffffffffffffffffffffffffffffffffffffffffffffffffffffffffffffff\n        /* \"@openzeppelin/contracts/token/ERC20/ERC20.sol\":11244:11260  currentAllowance */\n      dup2\n        /* \"@openzeppelin/contracts/token/ERC20/ERC20.sol\":11244:11281  currentAllowance != type(uint256).max */\n      eq\n        /* \"@openzeppelin/contracts/token/ERC20/ERC20.sol\":11240:11483  if (currentAllowance != type(uint256).max) {... */\n      tag_337\n      jumpi\n        /* \"@openzeppelin/contracts/token/ERC20/ERC20.sol\":11325:11331  amount */\n      dup2\n        /* \"@openzeppelin/contracts/token/ERC20/ERC20.sol\":11305:11321  currentAllowance */\n      dup2\n        /* \"@openzeppelin/contracts/token/ERC20/ERC20.sol\":11305:11331  currentAllowance >= amount */\n      lt\n      iszero\n        /* \"@openzeppelin/contracts/token/ERC20/ERC20.sol\":11297:11365  require(currentAllowance >= amount, \"ERC20: insufficient allowance\") */\n      tag_338\n      jumpi\n      mload(0x40)\n      0x08c379a000000000000000000000000000000000000000000000000000000000\n      dup2\n      mstore\n      0x04\n      add\n      tag_339\n      swap1\n      tag_340\n      jump\t// in\n    tag_339:\n      mload(0x40)\n      dup1\n      swap2\n      sub\n      swap1\n      revert\n    tag_338:\n        /* \"@openzeppelin/contracts/token/ERC20/ERC20.sol\":11407:11458  _approve(owner, spender, currentAllowance - amount) */\n      tag_341\n        /* \"@openzeppelin/contracts/token/ERC20/ERC20.sol\":11416:11421  owner */\n      dup5\n        /* \"@openzeppelin/contracts/token/ERC20/ERC20.sol\":11423:11430  spender */\n      dup5\n        /* \"@openzeppelin/contracts/token/ERC20/ERC20.sol\":11451:11457  amount */\n      dup5\n        /* \"@openzeppelin/contracts/token/ERC20/ERC20.sol\":11432:11448  currentAllowance */\n      dup5\n        /* \"@openzeppelin/contracts/token/ERC20/ERC20.sol\":11432:11457  currentAllowance - amount */\n      sub\n        /* \"@openzeppelin/contracts/token/ERC20/ERC20.sol\":11407:11415  _approve */\n      tag_144\n        /* \"@openzeppelin/contracts/token/ERC20/ERC20.sol\":11407:11458  _approve(owner, spender, currentAllowance - amount) */\n      jump\t// in\n    tag_341:\n        /* \"@openzeppelin/contracts/token/ERC20/ERC20.sol\":11240:11483  if (currentAllowance != type(uint256).max) {... */\n    tag_337:\n        /* \"@openzeppelin/contracts/token/ERC20/ERC20.sol\":11168:11489  {... */\n      pop\n        /* \"@openzeppelin/contracts/token/ERC20/ERC20.sol\":11078:11489  function _spendAllowance(address owner, address spender, uint256 amount) internal virtual {... */\n      pop\n      pop\n      pop\n      jump\t// out\n        /* \"@openzeppelin/contracts/token/ERC20/ERC20.sol\":7456:8244  function _transfer(address from, address to, uint256 amount) internal virtual {... */\n    tag_188:\n        /* \"@openzeppelin/contracts/token/ERC20/ERC20.sol\":7568:7569  0 */\n      0x00\n        /* \"@openzeppelin/contracts/token/ERC20/ERC20.sol\":7552:7570  from != address(0) */\n      0xffffffffffffffffffffffffffffffffffffffff\n      and\n        /* \"@openzeppelin/contracts/token/ERC20/ERC20.sol\":7552:7556  from */\n      dup4\n        /* \"@openzeppelin/contracts/token/ERC20/ERC20.sol\":7552:7570  from != address(0) */\n      0xffffffffffffffffffffffffffffffffffffffff\n      and\n      sub\n        /* \"@openzeppelin/contracts/token/ERC20/ERC20.sol\":7544:7612  require(from != address(0), \"ERC20: transfer from the zero address\") */\n      tag_343\n      jumpi\n      mload(0x40)\n      0x08c379a000000000000000000000000000000000000000000000000000000000\n      dup2\n      mstore\n      0x04\n      add\n      tag_344\n      swap1\n      tag_345\n      jump\t// in\n    tag_344:\n      mload(0x40)\n      dup1\n      swap2\n      sub\n      swap1\n      revert\n    tag_343:\n        /* \"@openzeppelin/contracts/token/ERC20/ERC20.sol\":7644:7645  0 */\n      0x00\n        /* \"@openzeppelin/contracts/token/ERC20/ERC20.sol\":7630:7646  to != address(0) */\n      0xffffffffffffffffffffffffffffffffffffffff\n      and\n        /* \"@openzeppelin/contracts/token/ERC20/ERC20.sol\":7630:7632  to */\n      dup3\n        /* \"@openzeppelin/contracts/token/ERC20/ERC20.sol\":7630:7646  to != address(0) */\n      0xffffffffffffffffffffffffffffffffffffffff\n      and\n      sub\n        /* \"@openzeppelin/contracts/token/ERC20/ERC20.sol\":7622:7686  require(to != address(0), \"ERC20: transfer to the zero address\") */\n      tag_346\n      jumpi\n      mload(0x40)\n      0x08c379a000000000000000000000000000000000000000000000000000000000\n      dup2\n      mstore\n      0x04\n      add\n      tag_347\n      swap1\n      tag_348\n      jump\t// in\n    tag_347:\n      mload(0x40)\n      dup1\n      swap2\n      sub\n      swap1\n      revert\n    tag_346:\n        /* \"@openzeppelin/contracts/token/ERC20/ERC20.sol\":7697:7735  _beforeTokenTransfer(from, to, amount) */\n      tag_349\n        /* \"@openzeppelin/contracts/token/ERC20/ERC20.sol\":7718:7722  from */\n      dup4\n        /* \"@openzeppelin/contracts/token/ERC20/ERC20.sol\":7724:7726  to */\n      dup4\n        /* \"@openzeppelin/contracts/token/ERC20/ERC20.sol\":7728:7734  amount */\n      dup4\n        /* \"@openzeppelin/contracts/token/ERC20/ERC20.sol\":7697:7717  _beforeTokenTransfer */\n      tag_350\n        /* \"@openzeppelin/contracts/token/ERC20/ERC20.sol\":7697:7735  _beforeTokenTransfer(from, to, amount) */\n      jump\t// in\n    tag_349:\n        /* \"@openzeppelin/contracts/token/ERC20/ERC20.sol\":7746:7765  uint256 fromBalance */\n      0x00\n        /* \"@openzeppelin/contracts/token/ERC20/ERC20.sol\":7768:7777  _balances */\n      dup1\n        /* \"@openzeppelin/contracts/token/ERC20/ERC20.sol\":7768:7783  _balances[from] */\n      0x00\n        /* \"@openzeppelin/contracts/token/ERC20/ERC20.sol\":7778:7782  from */\n      dup6\n        /* \"@openzeppelin/contracts/token/ERC20/ERC20.sol\":7768:7783  _balances[from] */\n      0xffffffffffffffffffffffffffffffffffffffff\n      and\n      0xffffffffffffffffffffffffffffffffffffffff\n      and\n      dup2\n      mstore\n      0x20\n      add\n      swap1\n      dup2\n      mstore\n      0x20\n      add\n      0x00\n      keccak256\n      sload\n        /* \"@openzeppelin/contracts/token/ERC20/ERC20.sol\":7746:7783  uint256 fromBalance = _balances[from] */\n      swap1\n      pop\n        /* \"@openzeppelin/contracts/token/ERC20/ERC20.sol\":7816:7822  amount */\n      dup2\n        /* \"@openzeppelin/contracts/token/ERC20/ERC20.sol\":7801:7812  fromBalance */\n      dup2\n        /* \"@openzeppelin/contracts/token/ERC20/ERC20.sol\":7801:7822  fromBalance >= amount */\n      lt\n      iszero\n        /* \"@openzeppelin/contracts/token/ERC20/ERC20.sol\":7793:7865  require(fromBalance >= amount, \"ERC20: transfer amount exceeds balance\") */\n      tag_351\n      jumpi\n      mload(0x40)\n      0x08c379a000000000000000000000000000000000000000000000000000000000\n      dup2\n      mstore\n      0x04\n      add\n      tag_352\n      swap1\n      tag_353\n      jump\t// in\n    tag_352:\n      mload(0x40)\n      dup1\n      swap2\n      sub\n      swap1\n      revert\n    tag_351:\n        /* \"@openzeppelin/contracts/token/ERC20/ERC20.sol\":7931:7937  amount */\n      dup2\n        /* \"@openzeppelin/contracts/token/ERC20/ERC20.sol\":7917:7928  fromBalance */\n      dup2\n        /* \"@openzeppelin/contracts/token/ERC20/ERC20.sol\":7917:7937  fromBalance - amount */\n      sub\n        /* \"@openzeppelin/contracts/token/ERC20/ERC20.sol\":7899:7908  _balances */\n      0x00\n        /* \"@openzeppelin/contracts/token/ERC20/ERC20.sol\":7899:7914  _balances[from] */\n      dup1\n        /* \"@openzeppelin/contracts/token/ERC20/ERC20.sol\":7909:7913  from */\n      dup7\n        /* \"@openzeppelin/contracts/token/ERC20/ERC20.sol\":7899:7914  _balances[from] */\n      0xffffffffffffffffffffffffffffffffffffffff\n      and\n      0xffffffffffffffffffffffffffffffffffffffff\n      and\n      dup2\n      mstore\n      0x20\n      add\n      swap1\n      dup2\n      mstore\n      0x20\n      add\n      0x00\n      keccak256\n        /* \"@openzeppelin/contracts/token/ERC20/ERC20.sol\":7899:7937  _balances[from] = fromBalance - amount */\n      dup2\n      swap1\n      sstore\n      pop\n        /* \"@openzeppelin/contracts/token/ERC20/ERC20.sol\":8131:8137  amount */\n      dup2\n        /* \"@openzeppelin/contracts/token/ERC20/ERC20.sol\":8114:8123  _balances */\n      0x00\n        /* \"@openzeppelin/contracts/token/ERC20/ERC20.sol\":8114:8127  _balances[to] */\n      dup1\n        /* \"@openzeppelin/contracts/token/ERC20/ERC20.sol\":8124:8126  to */\n      dup6\n        /* \"@openzeppelin/contracts/token/ERC20/ERC20.sol\":8114:8127  _balances[to] */\n      0xffffffffffffffffffffffffffffffffffffffff\n      and\n      0xffffffffffffffffffffffffffffffffffffffff\n      and\n      dup2\n      mstore\n      0x20\n      add\n      swap1\n      dup2\n      mstore\n      0x20\n      add\n      0x00\n      keccak256\n      0x00\n        /* \"@openzeppelin/contracts/token/ERC20/ERC20.sol\":8114:8137  _balances[to] += amount */\n      dup3\n      dup3\n      sload\n      add\n      swap3\n      pop\n      pop\n      dup2\n      swap1\n      sstore\n      pop\n        /* \"@openzeppelin/contracts/token/ERC20/ERC20.sol\":8178:8180  to */\n      dup3\n        /* \"@openzeppelin/contracts/token/ERC20/ERC20.sol\":8163:8189  Transfer(from, to, amount) */\n      0xffffffffffffffffffffffffffffffffffffffff\n      and\n        /* \"@openzeppelin/contracts/token/ERC20/ERC20.sol\":8172:8176  from */\n      dup5\n        /* \"@openzeppelin/contracts/token/ERC20/ERC20.sol\":8163:8189  Transfer(from, to, amount) */\n      0xffffffffffffffffffffffffffffffffffffffff\n      and\n      0xddf252ad1be2c89b69c2b068fc378daa952ba7f163c4a11628f55a4df523b3ef\n        /* \"@openzeppelin/contracts/token/ERC20/ERC20.sol\":8182:8188  amount */\n      dup5\n        /* \"@openzeppelin/contracts/token/ERC20/ERC20.sol\":8163:8189  Transfer(from, to, amount) */\n      mload(0x40)\n      tag_354\n      swap2\n      swap1\n      tag_52\n      jump\t// in\n    tag_354:\n      mload(0x40)\n      dup1\n      swap2\n      sub\n      swap1\n      log3\n        /* \"@openzeppelin/contracts/token/ERC20/ERC20.sol\":8200:8237  _afterTokenTransfer(from, to, amount) */\n      tag_355\n        /* \"@openzeppelin/contracts/token/ERC20/ERC20.sol\":8220:8224  from */\n      dup5\n        /* \"@openzeppelin/contracts/token/ERC20/ERC20.sol\":8226:8228  to */\n      dup5\n        /* \"@openzeppelin/contracts/token/ERC20/ERC20.sol\":8230:8236  amount */\n      dup5\n        /* \"@openzeppelin/contracts/token/ERC20/ERC20.sol\":8200:8219  _afterTokenTransfer */\n      tag_356\n        /* \"@openzeppelin/contracts/token/ERC20/ERC20.sol\":8200:8237  _afterTokenTransfer(from, to, amount) */\n      jump\t// in\n    tag_355:\n        /* \"@openzeppelin/contracts/token/ERC20/ERC20.sol\":7534:8244  {... */\n      pop\n        /* \"@openzeppelin/contracts/token/ERC20/ERC20.sol\":7456:8244  function _transfer(address from, address to, uint256 amount) internal virtual {... */\n      pop\n      pop\n      pop\n      jump\t// out\n        /* \"@openzeppelin/contracts/token/ERC20/ERC20.sol\":9375:10034  function _burn(address account, uint256 amount) internal virtual {... */\n    tag_257:\n        /* \"@openzeppelin/contracts/token/ERC20/ERC20.sol\":9477:9478  0 */\n      0x00\n        /* \"@openzeppelin/contracts/token/ERC20/ERC20.sol\":9458:9479  account != address(0) */\n      0xffffffffffffffffffffffffffffffffffffffff\n      and\n        /* \"@openzeppelin/contracts/token/ERC20/ERC20.sol\":9458:9465  account */\n      dup3\n        /* \"@openzeppelin/contracts/token/ERC20/ERC20.sol\":9458:9479  account != address(0) */\n      0xffffffffffffffffffffffffffffffffffffffff\n      and\n      sub\n        /* \"@openzeppelin/contracts/token/ERC20/ERC20.sol\":9450:9517  require(account != address(0), \"ERC20: burn from the zero address\") */\n      tag_358\n      jumpi\n      mload(0x40)\n      0x08c379a000000000000000000000000000000000000000000000000000000000\n      dup2\n      mstore\n      0x04\n      add\n      tag_359\n      swap1\n      tag_360\n      jump\t// in\n    tag_359:\n      mload(0x40)\n      dup1\n      swap2\n      sub\n      swap1\n      revert\n    tag_358:\n        /* \"@openzeppelin/contracts/token/ERC20/ERC20.sol\":9528:9577  _beforeTokenTransfer(account, address(0), amount) */\n      tag_361\n        /* \"@openzeppelin/contracts/token/ERC20/ERC20.sol\":9549:9556  account */\n      dup3\n        /* \"@openzeppelin/contracts/token/ERC20/ERC20.sol\":9566:9567  0 */\n      0x00\n        /* \"@openzeppelin/contracts/token/ERC20/ERC20.sol\":9570:9576  amount */\n      dup4\n        /* \"@openzeppelin/contracts/token/ERC20/ERC20.sol\":9528:9548  _beforeTokenTransfer */\n      tag_350\n        /* \"@openzeppelin/contracts/token/ERC20/ERC20.sol\":9528:9577  _beforeTokenTransfer(account, address(0), amount) */\n      jump\t// in\n    tag_361:\n        /* \"@openzeppelin/contracts/token/ERC20/ERC20.sol\":9588:9610  uint256 accountBalance */\n      0x00\n        /* \"@openzeppelin/contracts/token/ERC20/ERC20.sol\":9613:9622  _balances */\n      dup1\n        /* \"@openzeppelin/contracts/token/ERC20/ERC20.sol\":9613:9631  _balances[account] */\n      0x00\n        /* \"@openzeppelin/contracts/token/ERC20/ERC20.sol\":9623:9630  account */\n      dup5\n        /* \"@openzeppelin/contracts/token/ERC20/ERC20.sol\":9613:9631  _balances[account] */\n      0xffffffffffffffffffffffffffffffffffffffff\n      and\n      0xffffffffffffffffffffffffffffffffffffffff\n      and\n      dup2\n      mstore\n      0x20\n      add\n      swap1\n      dup2\n      mstore\n      0x20\n      add\n      0x00\n      keccak256\n      sload\n        /* \"@openzeppelin/contracts/token/ERC20/ERC20.sol\":9588:9631  uint256 accountBalance = _balances[account] */\n      swap1\n      pop\n        /* \"@openzeppelin/contracts/token/ERC20/ERC20.sol\":9667:9673  amount */\n      dup2\n        /* \"@openzeppelin/contracts/token/ERC20/ERC20.sol\":9649:9663  accountBalance */\n      dup2\n        /* \"@openzeppelin/contracts/token/ERC20/ERC20.sol\":9649:9673  accountBalance >= amount */\n      lt\n      iszero\n        /* \"@openzeppelin/contracts/token/ERC20/ERC20.sol\":9641:9712  require(accountBalance >= amount, \"ERC20: burn amount exceeds balance\") */\n      tag_362\n      jumpi\n      mload(0x40)\n      0x08c379a000000000000000000000000000000000000000000000000000000000\n      dup2\n      mstore\n      0x04\n      add\n      tag_363\n      swap1\n      tag_364\n      jump\t// in\n    tag_363:\n      mload(0x40)\n      dup1\n      swap2\n      sub\n      swap1\n      revert\n    tag_362:\n        /* \"@openzeppelin/contracts/token/ERC20/ERC20.sol\":9784:9790  amount */\n      dup2\n        /* \"@openzeppelin/contracts/token/ERC20/ERC20.sol\":9767:9781  accountBalance */\n      dup2\n        /* \"@openzeppelin/contracts/token/ERC20/ERC20.sol\":9767:9790  accountBalance - amount */\n      sub\n        /* \"@openzeppelin/contracts/token/ERC20/ERC20.sol\":9746:9755  _balances */\n      0x00\n        /* \"@openzeppelin/contracts/token/ERC20/ERC20.sol\":9746:9764  _balances[account] */\n      dup1\n        /* \"@openzeppelin/contracts/token/ERC20/ERC20.sol\":9756:9763  account */\n      dup6\n        /* \"@openzeppelin/contracts/token/ERC20/ERC20.sol\":9746:9764  _balances[account] */\n      0xffffffffffffffffffffffffffffffffffffffff\n      and\n      0xffffffffffffffffffffffffffffffffffffffff\n      and\n      dup2\n      mstore\n      0x20\n      add\n      swap1\n      dup2\n      mstore\n      0x20\n      add\n      0x00\n      keccak256\n        /* \"@openzeppelin/contracts/token/ERC20/ERC20.sol\":9746:9790  _balances[account] = accountBalance - amount */\n      dup2\n      swap1\n      sstore\n      pop\n        /* \"@openzeppelin/contracts/token/ERC20/ERC20.sol\":9899:9905  amount */\n      dup2\n        /* \"@openzeppelin/contracts/token/ERC20/ERC20.sol\":9883:9895  _totalSupply */\n      0x02\n      0x00\n        /* \"@openzeppelin/contracts/token/ERC20/ERC20.sol\":9883:9905  _totalSupply -= amount */\n      dup3\n      dup3\n      sload\n      sub\n      swap3\n      pop\n      pop\n      dup2\n      swap1\n      sstore\n      pop\n        /* \"@openzeppelin/contracts/token/ERC20/ERC20.sol\":9957:9958  0 */\n      0x00\n        /* \"@openzeppelin/contracts/token/ERC20/ERC20.sol\":9931:9968  Transfer(account, address(0), amount) */\n      0xffffffffffffffffffffffffffffffffffffffff\n      and\n        /* \"@openzeppelin/contracts/token/ERC20/ERC20.sol\":9940:9947  account */\n      dup4\n        /* \"@openzeppelin/contracts/token/ERC20/ERC20.sol\":9931:9968  Transfer(account, address(0), amount) */\n      0xffffffffffffffffffffffffffffffffffffffff\n      and\n      0xddf252ad1be2c89b69c2b068fc378daa952ba7f163c4a11628f55a4df523b3ef\n        /* \"@openzeppelin/contracts/token/ERC20/ERC20.sol\":9961:9967  amount */\n      dup5\n        /* \"@openzeppelin/contracts/token/ERC20/ERC20.sol\":9931:9968  Transfer(account, address(0), amount) */\n      mload(0x40)\n      tag_365\n      swap2\n      swap1\n      tag_52\n      jump\t// in\n    tag_365:\n      mload(0x40)\n      dup1\n      swap2\n      sub\n      swap1\n      log3\n        /* \"@openzeppelin/contracts/token/ERC20/ERC20.sol\":9979:10027  _afterTokenTransfer(account, address(0), amount) */\n      tag_366\n        /* \"@openzeppelin/contracts/token/ERC20/ERC20.sol\":9999:10006  account */\n      dup4\n        /* \"@openzeppelin/contracts/token/ERC20/ERC20.sol\":10016:10017  0 */\n      0x00\n        /* \"@openzeppelin/contracts/token/ERC20/ERC20.sol\":10020:10026  amount */\n      dup5\n        /* \"@openzeppelin/contracts/token/ERC20/ERC20.sol\":9979:9998  _afterTokenTransfer */\n      tag_356\n        /* \"@openzeppelin/contracts/token/ERC20/ERC20.sol\":9979:10027  _afterTokenTransfer(account, address(0), amount) */\n      jump\t// in\n    tag_366:\n        /* \"@openzeppelin/contracts/token/ERC20/ERC20.sol\":9440:10034  {... */\n      pop\n        /* \"@openzeppelin/contracts/token/ERC20/ERC20.sol\":9375:10034  function _burn(address account, uint256 amount) internal virtual {... */\n      pop\n      pop\n      jump\t// out\n        /* \"defi-practice/contracts/04_Exchange.sol\":9171:9463  function _sqrt(uint y) private pure returns (uint z) {... */\n    tag_279:\n        /* \"defi-practice/contracts/04_Exchange.sol\":9216:9222  uint z */\n      0x00\n        /* \"defi-practice/contracts/04_Exchange.sol\":9242:9243  3 */\n      0x03\n        /* \"defi-practice/contracts/04_Exchange.sol\":9238:9239  y */\n      dup3\n        /* \"defi-practice/contracts/04_Exchange.sol\":9238:9243  y > 3 */\n      gt\n        /* \"defi-practice/contracts/04_Exchange.sol\":9234:9457  if (y > 3) {... */\n      iszero\n      tag_368\n      jumpi\n        /* \"defi-practice/contracts/04_Exchange.sol\":9263:9264  y */\n      dup2\n        /* \"defi-practice/contracts/04_Exchange.sol\":9259:9264  z = y */\n      swap1\n      pop\n        /* \"defi-practice/contracts/04_Exchange.sol\":9278:9284  uint x */\n      0x00\n        /* \"defi-practice/contracts/04_Exchange.sol\":9295:9296  1 */\n      0x01\n        /* \"defi-practice/contracts/04_Exchange.sol\":9291:9292  2 */\n      0x02\n        /* \"defi-practice/contracts/04_Exchange.sol\":9287:9288  y */\n      dup5\n        /* \"defi-practice/contracts/04_Exchange.sol\":9287:9292  y / 2 */\n      tag_369\n      swap2\n      swap1\n      tag_161\n      jump\t// in\n    tag_369:\n        /* \"defi-practice/contracts/04_Exchange.sol\":9287:9296  y / 2 + 1 */\n      tag_370\n      swap2\n      swap1\n      tag_157\n      jump\t// in\n    tag_370:\n        /* \"defi-practice/contracts/04_Exchange.sol\":9278:9296  uint x = y / 2 + 1 */\n      swap1\n      pop\n        /* \"defi-practice/contracts/04_Exchange.sol\":9310:9399  while (x < z) {... */\n    tag_371:\n        /* \"defi-practice/contracts/04_Exchange.sol\":9321:9322  z */\n      dup2\n        /* \"defi-practice/contracts/04_Exchange.sol\":9317:9318  x */\n      dup2\n        /* \"defi-practice/contracts/04_Exchange.sol\":9317:9322  x < z */\n      lt\n        /* \"defi-practice/contracts/04_Exchange.sol\":9310:9399  while (x < z) {... */\n      iszero\n      tag_372\n      jumpi\n        /* \"defi-practice/contracts/04_Exchange.sol\":9346:9347  x */\n      dup1\n        /* \"defi-practice/contracts/04_Exchange.sol\":9342:9347  z = x */\n      swap2\n      pop\n        /* \"defi-practice/contracts/04_Exchange.sol\":9383:9384  2 */\n      0x02\n        /* \"defi-practice/contracts/04_Exchange.sol\":9378:9379  x */\n      dup2\n        /* \"defi-practice/contracts/04_Exchange.sol\":9374:9375  x */\n      dup3\n        /* \"defi-practice/contracts/04_Exchange.sol\":9370:9371  y */\n      dup6\n        /* \"defi-practice/contracts/04_Exchange.sol\":9370:9375  y / x */\n      tag_373\n      swap2\n      swap1\n      tag_161\n      jump\t// in\n    tag_373:\n        /* \"defi-practice/contracts/04_Exchange.sol\":9370:9379  y / x + x */\n      tag_374\n      swap2\n      swap1\n      tag_157\n      jump\t// in\n    tag_374:\n        /* \"defi-practice/contracts/04_Exchange.sol\":9369:9384  (y / x + x) / 2 */\n      tag_375\n      swap2\n      swap1\n      tag_161\n      jump\t// in\n    tag_375:\n        /* \"defi-practice/contracts/04_Exchange.sol\":9365:9384  x = (y / x + x) / 2 */\n      swap1\n      pop\n        /* \"defi-practice/contracts/04_Exchange.sol\":9310:9399  while (x < z) {... */\n      jump(tag_371)\n    tag_372:\n        /* \"defi-practice/contracts/04_Exchange.sol\":9245:9409  {... */\n      pop\n        /* \"defi-practice/contracts/04_Exchange.sol\":9234:9457  if (y > 3) {... */\n      jump(tag_376)\n    tag_368:\n        /* \"defi-practice/contracts/04_Exchange.sol\":9424:9425  0 */\n      0x00\n        /* \"defi-practice/contracts/04_Exchange.sol\":9419:9420  y */\n      dup3\n        /* \"defi-practice/contracts/04_Exchange.sol\":9419:9425  y != 0 */\n      eq\n        /* \"defi-practice/contracts/04_Exchange.sol\":9415:9457  if (y != 0) {... */\n      tag_377\n      jumpi\n        /* \"defi-practice/contracts/04_Exchange.sol\":9445:9446  1 */\n      0x01\n        /* \"defi-practice/contracts/04_Exchange.sol\":9441:9446  z = 1 */\n      swap1\n      pop\n        /* \"defi-practice/contracts/04_Exchange.sol\":9415:9457  if (y != 0) {... */\n    tag_377:\n        /* \"defi-practice/contracts/04_Exchange.sol\":9234:9457  if (y > 3) {... */\n    tag_376:\n        /* \"defi-practice/contracts/04_Exchange.sol\":9171:9463  function _sqrt(uint y) private pure returns (uint z) {... */\n      swap2\n      swap1\n      pop\n      jump\t// out\n        /* \"@openzeppelin/contracts/token/ERC20/ERC20.sol\":8520:9055  function _mint(address account, uint256 amount) internal virtual {... */\n    tag_281:\n        /* \"@openzeppelin/contracts/token/ERC20/ERC20.sol\":8622:8623  0 */\n      0x00\n        /* \"@openzeppelin/contracts/token/ERC20/ERC20.sol\":8603:8624  account != address(0) */\n      0xffffffffffffffffffffffffffffffffffffffff\n      and\n        /* \"@openzeppelin/contracts/token/ERC20/ERC20.sol\":8603:8610  account */\n      dup3\n        /* \"@openzeppelin/contracts/token/ERC20/ERC20.sol\":8603:8624  account != address(0) */\n      0xffffffffffffffffffffffffffffffffffffffff\n      and\n      sub\n        /* \"@openzeppelin/contracts/token/ERC20/ERC20.sol\":8595:8660  require(account != address(0), \"ERC20: mint to the zero address\") */\n      tag_379\n      jumpi\n      mload(0x40)\n      0x08c379a000000000000000000000000000000000000000000000000000000000\n      dup2\n      mstore\n      0x04\n      add\n      tag_380\n      swap1\n      tag_381\n      jump\t// in\n    tag_380:\n      mload(0x40)\n      dup1\n      swap2\n      sub\n      swap1\n      revert\n    tag_379:\n        /* \"@openzeppelin/contracts/token/ERC20/ERC20.sol\":8671:8720  _beforeTokenTransfer(address(0), account, amount) */\n      tag_382\n        /* \"@openzeppelin/contracts/token/ERC20/ERC20.sol\":8700:8701  0 */\n      0x00\n        /* \"@openzeppelin/contracts/token/ERC20/ERC20.sol\":8704:8711  account */\n      dup4\n        /* \"@openzeppelin/contracts/token/ERC20/ERC20.sol\":8713:8719  amount */\n      dup4\n        /* \"@openzeppelin/contracts/token/ERC20/ERC20.sol\":8671:8691  _beforeTokenTransfer */\n      tag_350\n        /* \"@openzeppelin/contracts/token/ERC20/ERC20.sol\":8671:8720  _beforeTokenTransfer(address(0), account, amount) */\n      jump\t// in\n    tag_382:\n        /* \"@openzeppelin/contracts/token/ERC20/ERC20.sol\":8747:8753  amount */\n      dup1\n        /* \"@openzeppelin/contracts/token/ERC20/ERC20.sol\":8731:8743  _totalSupply */\n      0x02\n      0x00\n        /* \"@openzeppelin/contracts/token/ERC20/ERC20.sol\":8731:8753  _totalSupply += amount */\n      dup3\n      dup3\n      sload\n      tag_383\n      swap2\n      swap1\n      tag_157\n      jump\t// in\n    tag_383:\n      swap3\n      pop\n      pop\n      dup2\n      swap1\n      sstore\n      pop\n        /* \"@openzeppelin/contracts/token/ERC20/ERC20.sol\":8921:8927  amount */\n      dup1\n        /* \"@openzeppelin/contracts/token/ERC20/ERC20.sol\":8899:8908  _balances */\n      0x00\n        /* \"@openzeppelin/contracts/token/ERC20/ERC20.sol\":8899:8917  _balances[account] */\n      dup1\n        /* \"@openzeppelin/contracts/token/ERC20/ERC20.sol\":8909:8916  account */\n      dup5\n        /* \"@openzeppelin/contracts/token/ERC20/ERC20.sol\":8899:8917  _balances[account] */\n      0xffffffffffffffffffffffffffffffffffffffff\n      and\n      0xffffffffffffffffffffffffffffffffffffffff\n      and\n      dup2\n      mstore\n      0x20\n      add\n      swap1\n      dup2\n      mstore\n      0x20\n      add\n      0x00\n      keccak256\n      0x00\n        /* \"@openzeppelin/contracts/token/ERC20/ERC20.sol\":8899:8927  _balances[account] += amount */\n      dup3\n      dup3\n      sload\n      add\n      swap3\n      pop\n      pop\n      dup2\n      swap1\n      sstore\n      pop\n        /* \"@openzeppelin/contracts/token/ERC20/ERC20.sol\":8973:8980  account */\n      dup2\n        /* \"@openzeppelin/contracts/token/ERC20/ERC20.sol\":8952:8989  Transfer(address(0), account, amount) */\n      0xffffffffffffffffffffffffffffffffffffffff\n      and\n        /* \"@openzeppelin/contracts/token/ERC20/ERC20.sol\":8969:8970  0 */\n      0x00\n        /* \"@openzeppelin/contracts/token/ERC20/ERC20.sol\":8952:8989  Transfer(address(0), account, amount) */\n      0xffffffffffffffffffffffffffffffffffffffff\n      and\n      0xddf252ad1be2c89b69c2b068fc378daa952ba7f163c4a11628f55a4df523b3ef\n        /* \"@openzeppelin/contracts/token/ERC20/ERC20.sol\":8982:8988  amount */\n      dup4\n        /* \"@openzeppelin/contracts/token/ERC20/ERC20.sol\":8952:8989  Transfer(address(0), account, amount) */\n      mload(0x40)\n      tag_384\n      swap2\n      swap1\n      tag_52\n      jump\t// in\n    tag_384:\n      mload(0x40)\n      dup1\n      swap2\n      sub\n      swap1\n      log3\n        /* \"@openzeppelin/contracts/token/ERC20/ERC20.sol\":9000:9048  _afterTokenTransfer(address(0), account, amount) */\n      tag_385\n        /* \"@openzeppelin/contracts/token/ERC20/ERC20.sol\":9028:9029  0 */\n      0x00\n        /* \"@openzeppelin/contracts/token/ERC20/ERC20.sol\":9032:9039  account */\n      dup4\n        /* \"@openzeppelin/contracts/token/ERC20/ERC20.sol\":9041:9047  amount */\n      dup4\n        /* \"@openzeppelin/contracts/token/ERC20/ERC20.sol\":9000:9019  _afterTokenTransfer */\n      tag_356\n        /* \"@openzeppelin/contracts/token/ERC20/ERC20.sol\":9000:9048  _afterTokenTransfer(address(0), account, amount) */\n      jump\t// in\n    tag_385:\n        /* \"@openzeppelin/contracts/token/ERC20/ERC20.sol\":8520:9055  function _mint(address account, uint256 amount) internal virtual {... */\n      pop\n      pop\n      jump\t// out\n        /* \"@openzeppelin/contracts/token/ERC20/ERC20.sol\":12073:12164  function _beforeTokenTransfer(address from, address to, uint256 amount) internal virtual {} */\n    tag_350:\n      pop\n      pop\n      pop\n      jump\t// out\n        /* \"@openzeppelin/contracts/token/ERC20/ERC20.sol\":12752:12842  function _afterTokenTransfer(address from, address to, uint256 amount) internal virtual {} */\n    tag_356:\n      pop\n      pop\n      pop\n      jump\t// out\n        /* \"#utility.yul\":7:106   */\n    tag_388:\n        /* \"#utility.yul\":59:65   */\n      0x00\n        /* \"#utility.yul\":93:98   */\n      dup2\n        /* \"#utility.yul\":87:99   */\n      mload\n        /* \"#utility.yul\":77:99   */\n      swap1\n      pop\n        /* \"#utility.yul\":7:106   */\n      swap2\n      swap1\n      pop\n      jump\t// out\n        /* \"#utility.yul\":112:281   */\n    tag_389:\n        /* \"#utility.yul\":196:207   */\n      0x00\n        /* \"#utility.yul\":230:236   */\n      dup3\n        /* \"#utility.yul\":225:228   */\n      dup3\n        /* \"#utility.yul\":218:237   */\n      mstore\n        /* \"#utility.yul\":270:274   */\n      0x20\n        /* \"#utility.yul\":265:268   */\n      dup3\n        /* \"#utility.yul\":261:275   */\n      add\n        /* \"#utility.yul\":246:275   */\n      swap1\n      pop\n        /* \"#utility.yul\":112:281   */\n      swap3\n      swap2\n      pop\n      pop\n      jump\t// out\n        /* \"#utility.yul\":287:533   */\n    tag_390:\n        /* \"#utility.yul\":368:369   */\n      0x00\n        /* \"#utility.yul\":378:491   */\n    tag_453:\n        /* \"#utility.yul\":392:398   */\n      dup4\n        /* \"#utility.yul\":389:390   */\n      dup2\n        /* \"#utility.yul\":386:399   */\n      lt\n        /* \"#utility.yul\":378:491   */\n      iszero\n      tag_455\n      jumpi\n        /* \"#utility.yul\":477:478   */\n      dup1\n        /* \"#utility.yul\":472:475   */\n      dup3\n        /* \"#utility.yul\":468:479   */\n      add\n        /* \"#utility.yul\":462:480   */\n      mload\n        /* \"#utility.yul\":458:459   */\n      dup2\n        /* \"#utility.yul\":453:456   */\n      dup5\n        /* \"#utility.yul\":449:460   */\n      add\n        /* \"#utility.yul\":442:481   */\n      mstore\n        /* \"#utility.yul\":414:416   */\n      0x20\n        /* \"#utility.yul\":411:412   */\n      dup2\n        /* \"#utility.yul\":407:417   */\n      add\n        /* \"#utility.yul\":402:417   */\n      swap1\n      pop\n        /* \"#utility.yul\":378:491   */\n      jump(tag_453)\n    tag_455:\n        /* \"#utility.yul\":525:526   */\n      0x00\n        /* \"#utility.yul\":516:522   */\n      dup5\n        /* \"#utility.yul\":511:514   */\n      dup5\n        /* \"#utility.yul\":507:523   */\n      add\n        /* \"#utility.yul\":500:527   */\n      mstore\n        /* \"#utility.yul\":349:533   */\n      pop\n        /* \"#utility.yul\":287:533   */\n      pop\n      pop\n      pop\n      jump\t// out\n        /* \"#utility.yul\":539:641   */\n    tag_391:\n        /* \"#utility.yul\":580:586   */\n      0x00\n        /* \"#utility.yul\":631:633   */\n      0x1f\n        /* \"#utility.yul\":627:634   */\n      not\n        /* \"#utility.yul\":622:624   */\n      0x1f\n        /* \"#utility.yul\":615:620   */\n      dup4\n        /* \"#utility.yul\":611:625   */\n      add\n        /* \"#utility.yul\":607:635   */\n      and\n        /* \"#utility.yul\":597:635   */\n      swap1\n      pop\n        /* \"#utility.yul\":539:641   */\n      swap2\n      swap1\n      pop\n      jump\t// out\n        /* \"#utility.yul\":647:1024   */\n    tag_392:\n        /* \"#utility.yul\":735:738   */\n      0x00\n        /* \"#utility.yul\":763:802   */\n      tag_458\n        /* \"#utility.yul\":796:801   */\n      dup3\n        /* \"#utility.yul\":763:802   */\n      tag_388\n      jump\t// in\n    tag_458:\n        /* \"#utility.yul\":818:889   */\n      tag_459\n        /* \"#utility.yul\":882:888   */\n      dup2\n        /* \"#utility.yul\":877:880   */\n      dup6\n        /* \"#utility.yul\":818:889   */\n      tag_389\n      jump\t// in\n    tag_459:\n        /* \"#utility.yul\":811:889   */\n      swap4\n      pop\n        /* \"#utility.yul\":898:963   */\n      tag_460\n        /* \"#utility.yul\":956:962   */\n      dup2\n        /* \"#utility.yul\":951:954   */\n      dup6\n        /* \"#utility.yul\":944:948   */\n      0x20\n        /* \"#utility.yul\":937:942   */\n      dup7\n        /* \"#utility.yul\":933:949   */\n      add\n        /* \"#utility.yul\":898:963   */\n      tag_390\n      jump\t// in\n    tag_460:\n        /* \"#utility.yul\":988:1017   */\n      tag_461\n        /* \"#utility.yul\":1010:1016   */\n      dup2\n        /* \"#utility.yul\":988:1017   */\n      tag_391\n      jump\t// in\n    tag_461:\n        /* \"#utility.yul\":983:986   */\n      dup5\n        /* \"#utility.yul\":979:1018   */\n      add\n        /* \"#utility.yul\":972:1018   */\n      swap2\n      pop\n        /* \"#utility.yul\":739:1024   */\n      pop\n        /* \"#utility.yul\":647:1024   */\n      swap3\n      swap2\n      pop\n      pop\n      jump\t// out\n        /* \"#utility.yul\":1030:1343   */\n    tag_32:\n        /* \"#utility.yul\":1143:1147   */\n      0x00\n        /* \"#utility.yul\":1181:1183   */\n      0x20\n        /* \"#utility.yul\":1170:1179   */\n      dup3\n        /* \"#utility.yul\":1166:1184   */\n      add\n        /* \"#utility.yul\":1158:1184   */\n      swap1\n      pop\n        /* \"#utility.yul\":1230:1239   */\n      dup2\n        /* \"#utility.yul\":1224:1228   */\n      dup2\n        /* \"#utility.yul\":1220:1240   */\n      sub\n        /* \"#utility.yul\":1216:1217   */\n      0x00\n        /* \"#utility.yul\":1205:1214   */\n      dup4\n        /* \"#utility.yul\":1201:1218   */\n      add\n        /* \"#utility.yul\":1194:1241   */\n      mstore\n        /* \"#utility.yul\":1258:1336   */\n      tag_463\n        /* \"#utility.yul\":1331:1335   */\n      dup2\n        /* \"#utility.yul\":1322:1328   */\n      dup5\n        /* \"#utility.yul\":1258:1336   */\n      tag_392\n      jump\t// in\n    tag_463:\n        /* \"#utility.yul\":1250:1336   */\n      swap1\n      pop\n        /* \"#utility.yul\":1030:1343   */\n      swap3\n      swap2\n      pop\n      pop\n      jump\t// out\n        /* \"#utility.yul\":1349:1426   */\n    tag_393:\n        /* \"#utility.yul\":1386:1393   */\n      0x00\n        /* \"#utility.yul\":1415:1420   */\n      dup2\n        /* \"#utility.yul\":1404:1420   */\n      swap1\n      pop\n        /* \"#utility.yul\":1349:1426   */\n      swap2\n      swap1\n      pop\n      jump\t// out\n        /* \"#utility.yul\":1432:1550   */\n    tag_394:\n        /* \"#utility.yul\":1519:1543   */\n      tag_466\n        /* \"#utility.yul\":1537:1542   */\n      dup2\n        /* \"#utility.yul\":1519:1543   */\n      tag_393\n      jump\t// in\n    tag_466:\n        /* \"#utility.yul\":1514:1517   */\n      dup3\n        /* \"#utility.yul\":1507:1544   */\n      mstore\n        /* \"#utility.yul\":1432:1550   */\n      pop\n      pop\n      jump\t// out\n        /* \"#utility.yul\":1556:1888   */\n    tag_36:\n        /* \"#utility.yul\":1677:1681   */\n      0x00\n        /* \"#utility.yul\":1715:1717   */\n      0x40\n        /* \"#utility.yul\":1704:1713   */\n      dup3\n        /* \"#utility.yul\":1700:1718   */\n      add\n        /* \"#utility.yul\":1692:1718   */\n      swap1\n      pop\n        /* \"#utility.yul\":1728:1799   */\n      tag_468\n        /* \"#utility.yul\":1796:1797   */\n      0x00\n        /* \"#utility.yul\":1785:1794   */\n      dup4\n        /* \"#utility.yul\":1781:1798   */\n      add\n        /* \"#utility.yul\":1772:1778   */\n      dup6\n        /* \"#utility.yul\":1728:1799   */\n      tag_394\n      jump\t// in\n    tag_468:\n        /* \"#utility.yul\":1809:1881   */\n      tag_469\n        /* \"#utility.yul\":1877:1879   */\n      0x20\n        /* \"#utility.yul\":1866:1875   */\n      dup4\n        /* \"#utility.yul\":1862:1880   */\n      add\n        /* \"#utility.yul\":1853:1859   */\n      dup5\n        /* \"#utility.yul\":1809:1881   */\n      tag_394\n      jump\t// in\n    tag_469:\n        /* \"#utility.yul\":1556:1888   */\n      swap4\n      swap3\n      pop\n      pop\n      pop\n      jump\t// out\n        /* \"#utility.yul\":1975:2092   */\n    tag_396:\n        /* \"#utility.yul\":2084:2085   */\n      0x00\n        /* \"#utility.yul\":2081:2082   */\n      dup1\n        /* \"#utility.yul\":2074:2086   */\n      revert\n        /* \"#utility.yul\":2221:2347   */\n    tag_398:\n        /* \"#utility.yul\":2258:2265   */\n      0x00\n        /* \"#utility.yul\":2298:2340   */\n      0xffffffffffffffffffffffffffffffffffffffff\n        /* \"#utility.yul\":2291:2296   */\n      dup3\n        /* \"#utility.yul\":2287:2341   */\n      and\n        /* \"#utility.yul\":2276:2341   */\n      swap1\n      pop\n        /* \"#utility.yul\":2221:2347   */\n      swap2\n      swap1\n      pop\n      jump\t// out\n        /* \"#utility.yul\":2353:2449   */\n    tag_399:\n        /* \"#utility.yul\":2390:2397   */\n      0x00\n        /* \"#utility.yul\":2419:2443   */\n      tag_475\n        /* \"#utility.yul\":2437:2442   */\n      dup3\n        /* \"#utility.yul\":2419:2443   */\n      tag_398\n      jump\t// in\n    tag_475:\n        /* \"#utility.yul\":2408:2443   */\n      swap1\n      pop\n        /* \"#utility.yul\":2353:2449   */\n      swap2\n      swap1\n      pop\n      jump\t// out\n        /* \"#utility.yul\":2455:2577   */\n    tag_400:\n        /* \"#utility.yul\":2528:2552   */\n      tag_477\n        /* \"#utility.yul\":2546:2551   */\n      dup2\n        /* \"#utility.yul\":2528:2552   */\n      tag_399\n      jump\t// in\n    tag_477:\n        /* \"#utility.yul\":2521:2526   */\n      dup2\n        /* \"#utility.yul\":2518:2553   */\n      eq\n        /* \"#utility.yul\":2508:2571   */\n      tag_478\n      jumpi\n        /* \"#utility.yul\":2567:2568   */\n      0x00\n        /* \"#utility.yul\":2564:2565   */\n      dup1\n        /* \"#utility.yul\":2557:2569   */\n      revert\n        /* \"#utility.yul\":2508:2571   */\n    tag_478:\n        /* \"#utility.yul\":2455:2577   */\n      pop\n      jump\t// out\n        /* \"#utility.yul\":2583:2722   */\n    tag_401:\n        /* \"#utility.yul\":2629:2634   */\n      0x00\n        /* \"#utility.yul\":2667:2673   */\n      dup2\n        /* \"#utility.yul\":2654:2674   */\n      calldataload\n        /* \"#utility.yul\":2645:2674   */\n      swap1\n      pop\n        /* \"#utility.yul\":2683:2716   */\n      tag_480\n        /* \"#utility.yul\":2710:2715   */\n      dup2\n        /* \"#utility.yul\":2683:2716   */\n      tag_400\n      jump\t// in\n    tag_480:\n        /* \"#utility.yul\":2583:2722   */\n      swap3\n      swap2\n      pop\n      pop\n      jump\t// out\n        /* \"#utility.yul\":2728:2850   */\n    tag_402:\n        /* \"#utility.yul\":2801:2825   */\n      tag_482\n        /* \"#utility.yul\":2819:2824   */\n      dup2\n        /* \"#utility.yul\":2801:2825   */\n      tag_393\n      jump\t// in\n    tag_482:\n        /* \"#utility.yul\":2794:2799   */\n      dup2\n        /* \"#utility.yul\":2791:2826   */\n      eq\n        /* \"#utility.yul\":2781:2844   */\n      tag_483\n      jumpi\n        /* \"#utility.yul\":2840:2841   */\n      0x00\n        /* \"#utility.yul\":2837:2838   */\n      dup1\n        /* \"#utility.yul\":2830:2842   */\n      revert\n        /* \"#utility.yul\":2781:2844   */\n    tag_483:\n        /* \"#utility.yul\":2728:2850   */\n      pop\n      jump\t// out\n        /* \"#utility.yul\":2856:2995   */\n    tag_403:\n        /* \"#utility.yul\":2902:2907   */\n      0x00\n        /* \"#utility.yul\":2940:2946   */\n      dup2\n        /* \"#utility.yul\":2927:2947   */\n      calldataload\n        /* \"#utility.yul\":2918:2947   */\n      swap1\n      pop\n        /* \"#utility.yul\":2956:2989   */\n      tag_485\n        /* \"#utility.yul\":2983:2988   */\n      dup2\n        /* \"#utility.yul\":2956:2989   */\n      tag_402\n      jump\t// in\n    tag_485:\n        /* \"#utility.yul\":2856:2995   */\n      swap3\n      swap2\n      pop\n      pop\n      jump\t// out\n        /* \"#utility.yul\":3001:3475   */\n    tag_39:\n        /* \"#utility.yul\":3069:3075   */\n      0x00\n        /* \"#utility.yul\":3077:3083   */\n      dup1\n        /* \"#utility.yul\":3126:3128   */\n      0x40\n        /* \"#utility.yul\":3114:3123   */\n      dup4\n        /* \"#utility.yul\":3105:3112   */\n      dup6\n        /* \"#utility.yul\":3101:3124   */\n      sub\n        /* \"#utility.yul\":3097:3129   */\n      slt\n        /* \"#utility.yul\":3094:3213   */\n      iszero\n      tag_487\n      jumpi\n        /* \"#utility.yul\":3132:3211   */\n      tag_488\n      tag_396\n      jump\t// in\n    tag_488:\n        /* \"#utility.yul\":3094:3213   */\n    tag_487:\n        /* \"#utility.yul\":3252:3253   */\n      0x00\n        /* \"#utility.yul\":3277:3330   */\n      tag_489\n        /* \"#utility.yul\":3322:3329   */\n      dup6\n        /* \"#utility.yul\":3313:3319   */\n      dup3\n        /* \"#utility.yul\":3302:3311   */\n      dup7\n        /* \"#utility.yul\":3298:3320   */\n      add\n        /* \"#utility.yul\":3277:3330   */\n      tag_401\n      jump\t// in\n    tag_489:\n        /* \"#utility.yul\":3267:3330   */\n      swap3\n      pop\n        /* \"#utility.yul\":3223:3340   */\n      pop\n        /* \"#utility.yul\":3379:3381   */\n      0x20\n        /* \"#utility.yul\":3405:3458   */\n      tag_490\n        /* \"#utility.yul\":3450:3457   */\n      dup6\n        /* \"#utility.yul\":3441:3447   */\n      dup3\n        /* \"#utility.yul\":3430:3439   */\n      dup7\n        /* \"#utility.yul\":3426:3448   */\n      add\n        /* \"#utility.yul\":3405:3458   */\n      tag_403\n      jump\t// in\n    tag_490:\n        /* \"#utility.yul\":3395:3458   */\n      swap2\n      pop\n        /* \"#utility.yul\":3350:3468   */\n      pop\n        /* \"#utility.yul\":3001:3475   */\n      swap3\n      pop\n      swap3\n      swap1\n      pop\n      jump\t// out\n        /* \"#utility.yul\":3481:3571   */\n    tag_404:\n        /* \"#utility.yul\":3515:3522   */\n      0x00\n        /* \"#utility.yul\":3558:3563   */\n      dup2\n        /* \"#utility.yul\":3551:3564   */\n      iszero\n        /* \"#utility.yul\":3544:3565   */\n      iszero\n        /* \"#utility.yul\":3533:3565   */\n      swap1\n      pop\n        /* \"#utility.yul\":3481:3571   */\n      swap2\n      swap1\n      pop\n      jump\t// out\n        /* \"#utility.yul\":3577:3686   */\n    tag_405:\n        /* \"#utility.yul\":3658:3679   */\n      tag_493\n        /* \"#utility.yul\":3673:3678   */\n      dup2\n        /* \"#utility.yul\":3658:3679   */\n      tag_404\n      jump\t// in\n    tag_493:\n        /* \"#utility.yul\":3653:3656   */\n      dup3\n        /* \"#utility.yul\":3646:3680   */\n      mstore\n        /* \"#utility.yul\":3577:3686   */\n      pop\n      pop\n      jump\t// out\n        /* \"#utility.yul\":3692:3902   */\n    tag_42:\n        /* \"#utility.yul\":3779:3783   */\n      0x00\n        /* \"#utility.yul\":3817:3819   */\n      0x20\n        /* \"#utility.yul\":3806:3815   */\n      dup3\n        /* \"#utility.yul\":3802:3820   */\n      add\n        /* \"#utility.yul\":3794:3820   */\n      swap1\n      pop\n        /* \"#utility.yul\":3830:3895   */\n      tag_495\n        /* \"#utility.yul\":3892:3893   */\n      0x00\n        /* \"#utility.yul\":3881:3890   */\n      dup4\n        /* \"#utility.yul\":3877:3894   */\n      add\n        /* \"#utility.yul\":3868:3874   */\n      dup5\n        /* \"#utility.yul\":3830:3895   */\n      tag_405\n      jump\t// in\n    tag_495:\n        /* \"#utility.yul\":3692:3902   */\n      swap3\n      swap2\n      pop\n      pop\n      jump\t// out\n        /* \"#utility.yul\":3908:4527   */\n    tag_45:\n        /* \"#utility.yul\":3985:3991   */\n      0x00\n        /* \"#utility.yul\":3993:3999   */\n      dup1\n        /* \"#utility.yul\":4001:4007   */\n      0x00\n        /* \"#utility.yul\":4050:4052   */\n      0x60\n        /* \"#utility.yul\":4038:4047   */\n      dup5\n        /* \"#utility.yul\":4029:4036   */\n      dup7\n        /* \"#utility.yul\":4025:4048   */\n      sub\n        /* \"#utility.yul\":4021:4053   */\n      slt\n        /* \"#utility.yul\":4018:4137   */\n      iszero\n      tag_497\n      jumpi\n        /* \"#utility.yul\":4056:4135   */\n      tag_498\n      tag_396\n      jump\t// in\n    tag_498:\n        /* \"#utility.yul\":4018:4137   */\n    tag_497:\n        /* \"#utility.yul\":4176:4177   */\n      0x00\n        /* \"#utility.yul\":4201:4254   */\n      tag_499\n        /* \"#utility.yul\":4246:4253   */\n      dup7\n        /* \"#utility.yul\":4237:4243   */\n      dup3\n        /* \"#utility.yul\":4226:4235   */\n      dup8\n        /* \"#utility.yul\":4222:4244   */\n      add\n        /* \"#utility.yul\":4201:4254   */\n      tag_403\n      jump\t// in\n    tag_499:\n        /* \"#utility.yul\":4191:4254   */\n      swap4\n      pop\n        /* \"#utility.yul\":4147:4264   */\n      pop\n        /* \"#utility.yul\":4303:4305   */\n      0x20\n        /* \"#utility.yul\":4329:4382   */\n      tag_500\n        /* \"#utility.yul\":4374:4381   */\n      dup7\n        /* \"#utility.yul\":4365:4371   */\n      dup3\n        /* \"#utility.yul\":4354:4363   */\n      dup8\n        /* \"#utility.yul\":4350:4372   */\n      add\n        /* \"#utility.yul\":4329:4382   */\n      tag_403\n      jump\t// in\n    tag_500:\n        /* \"#utility.yul\":4319:4382   */\n      swap3\n      pop\n        /* \"#utility.yul\":4274:4392   */\n      pop\n        /* \"#utility.yul\":4431:4433   */\n      0x40\n        /* \"#utility.yul\":4457:4510   */\n      tag_501\n        /* \"#utility.yul\":4502:4509   */\n      dup7\n        /* \"#utility.yul\":4493:4499   */\n      dup3\n        /* \"#utility.yul\":4482:4491   */\n      dup8\n        /* \"#utility.yul\":4478:4500   */\n      add\n        /* \"#utility.yul\":4457:4510   */\n      tag_401\n      jump\t// in\n    tag_501:\n        /* \"#utility.yul\":4447:4510   */\n      swap2\n      pop\n        /* \"#utility.yul\":4402:4520   */\n      pop\n        /* \"#utility.yul\":3908:4527   */\n      swap3\n      pop\n      swap3\n      pop\n      swap3\n      jump\t// out\n        /* \"#utility.yul\":4533:5007   */\n    tag_49:\n        /* \"#utility.yul\":4601:4607   */\n      0x00\n        /* \"#utility.yul\":4609:4615   */\n      dup1\n        /* \"#utility.yul\":4658:4660   */\n      0x40\n        /* \"#utility.yul\":4646:4655   */\n      dup4\n        /* \"#utility.yul\":4637:4644   */\n      dup6\n        /* \"#utility.yul\":4633:4656   */\n      sub\n        /* \"#utility.yul\":4629:4661   */\n      slt\n        /* \"#utility.yul\":4626:4745   */\n      iszero\n      tag_503\n      jumpi\n        /* \"#utility.yul\":4664:4743   */\n      tag_504\n      tag_396\n      jump\t// in\n    tag_504:\n        /* \"#utility.yul\":4626:4745   */\n    tag_503:\n        /* \"#utility.yul\":4784:4785   */\n      0x00\n        /* \"#utility.yul\":4809:4862   */\n      tag_505\n        /* \"#utility.yul\":4854:4861   */\n      dup6\n        /* \"#utility.yul\":4845:4851   */\n      dup3\n        /* \"#utility.yul\":4834:4843   */\n      dup7\n        /* \"#utility.yul\":4830:4852   */\n      add\n        /* \"#utility.yul\":4809:4862   */\n      tag_403\n      jump\t// in\n    tag_505:\n        /* \"#utility.yul\":4799:4862   */\n      swap3\n      pop\n        /* \"#utility.yul\":4755:4872   */\n      pop\n        /* \"#utility.yul\":4911:4913   */\n      0x20\n        /* \"#utility.yul\":4937:4990   */\n      tag_506\n        /* \"#utility.yul\":4982:4989   */\n      dup6\n        /* \"#utility.yul\":4973:4979   */\n      dup3\n        /* \"#utility.yul\":4962:4971   */\n      dup7\n        /* \"#utility.yul\":4958:4980   */\n      add\n        /* \"#utility.yul\":4937:4990   */\n      tag_401\n      jump\t// in\n    tag_506:\n        /* \"#utility.yul\":4927:4990   */\n      swap2\n      pop\n        /* \"#utility.yul\":4882:5000   */\n      pop\n        /* \"#utility.yul\":4533:5007   */\n      swap3\n      pop\n      swap3\n      swap1\n      pop\n      jump\t// out\n        /* \"#utility.yul\":5013:5235   */\n    tag_52:\n        /* \"#utility.yul\":5106:5110   */\n      0x00\n        /* \"#utility.yul\":5144:5146   */\n      0x20\n        /* \"#utility.yul\":5133:5142   */\n      dup3\n        /* \"#utility.yul\":5129:5147   */\n      add\n        /* \"#utility.yul\":5121:5147   */\n      swap1\n      pop\n        /* \"#utility.yul\":5157:5228   */\n      tag_508\n        /* \"#utility.yul\":5225:5226   */\n      0x00\n        /* \"#utility.yul\":5214:5223   */\n      dup4\n        /* \"#utility.yul\":5210:5227   */\n      add\n        /* \"#utility.yul\":5201:5207   */\n      dup5\n        /* \"#utility.yul\":5157:5228   */\n      tag_394\n      jump\t// in\n    tag_508:\n        /* \"#utility.yul\":5013:5235   */\n      swap3\n      swap2\n      pop\n      pop\n      jump\t// out\n        /* \"#utility.yul\":5241:5860   */\n    tag_58:\n        /* \"#utility.yul\":5318:5324   */\n      0x00\n        /* \"#utility.yul\":5326:5332   */\n      dup1\n        /* \"#utility.yul\":5334:5340   */\n      0x00\n        /* \"#utility.yul\":5383:5385   */\n      0x60\n        /* \"#utility.yul\":5371:5380   */\n      dup5\n        /* \"#utility.yul\":5362:5369   */\n      dup7\n        /* \"#utility.yul\":5358:5381   */\n      sub\n        /* \"#utility.yul\":5354:5386   */\n      slt\n        /* \"#utility.yul\":5351:5470   */\n      iszero\n      tag_510\n      jumpi\n        /* \"#utility.yul\":5389:5468   */\n      tag_511\n      tag_396\n      jump\t// in\n    tag_511:\n        /* \"#utility.yul\":5351:5470   */\n    tag_510:\n        /* \"#utility.yul\":5509:5510   */\n      0x00\n        /* \"#utility.yul\":5534:5587   */\n      tag_512\n        /* \"#utility.yul\":5579:5586   */\n      dup7\n        /* \"#utility.yul\":5570:5576   */\n      dup3\n        /* \"#utility.yul\":5559:5568   */\n      dup8\n        /* \"#utility.yul\":5555:5577   */\n      add\n        /* \"#utility.yul\":5534:5587   */\n      tag_401\n      jump\t// in\n    tag_512:\n        /* \"#utility.yul\":5524:5587   */\n      swap4\n      pop\n        /* \"#utility.yul\":5480:5597   */\n      pop\n        /* \"#utility.yul\":5636:5638   */\n      0x20\n        /* \"#utility.yul\":5662:5715   */\n      tag_513\n        /* \"#utility.yul\":5707:5714   */\n      dup7\n        /* \"#utility.yul\":5698:5704   */\n      dup3\n        /* \"#utility.yul\":5687:5696   */\n      dup8\n        /* \"#utility.yul\":5683:5705   */\n      add\n        /* \"#utility.yul\":5662:5715   */\n      tag_401\n      jump\t// in\n    tag_513:\n        /* \"#utility.yul\":5652:5715   */\n      swap3\n      pop\n        /* \"#utility.yul\":5607:5725   */\n      pop\n        /* \"#utility.yul\":5764:5766   */\n      0x40\n        /* \"#utility.yul\":5790:5843   */\n      tag_514\n        /* \"#utility.yul\":5835:5842   */\n      dup7\n        /* \"#utility.yul\":5826:5832   */\n      dup3\n        /* \"#utility.yul\":5815:5824   */\n      dup8\n        /* \"#utility.yul\":5811:5833   */\n      add\n        /* \"#utility.yul\":5790:5843   */\n      tag_403\n      jump\t// in\n    tag_514:\n        /* \"#utility.yul\":5780:5843   */\n      swap2\n      pop\n        /* \"#utility.yul\":5735:5853   */\n      pop\n        /* \"#utility.yul\":5241:5860   */\n      swap3\n      pop\n      swap3\n      pop\n      swap3\n      jump\t// out\n        /* \"#utility.yul\":5866:5952   */\n    tag_406:\n        /* \"#utility.yul\":5901:5908   */\n      0x00\n        /* \"#utility.yul\":5941:5945   */\n      0xff\n        /* \"#utility.yul\":5934:5939   */\n      dup3\n        /* \"#utility.yul\":5930:5946   */\n      and\n        /* \"#utility.yul\":5919:5946   */\n      swap1\n      pop\n        /* \"#utility.yul\":5866:5952   */\n      swap2\n      swap1\n      pop\n      jump\t// out\n        /* \"#utility.yul\":5958:6070   */\n    tag_407:\n        /* \"#utility.yul\":6041:6063   */\n      tag_517\n        /* \"#utility.yul\":6057:6062   */\n      dup2\n        /* \"#utility.yul\":6041:6063   */\n      tag_406\n      jump\t// in\n    tag_517:\n        /* \"#utility.yul\":6036:6039   */\n      dup3\n        /* \"#utility.yul\":6029:6064   */\n      mstore\n        /* \"#utility.yul\":5958:6070   */\n      pop\n      pop\n      jump\t// out\n        /* \"#utility.yul\":6076:6290   */\n    tag_67:\n        /* \"#utility.yul\":6165:6169   */\n      0x00\n        /* \"#utility.yul\":6203:6205   */\n      0x20\n        /* \"#utility.yul\":6192:6201   */\n      dup3\n        /* \"#utility.yul\":6188:6206   */\n      add\n        /* \"#utility.yul\":6180:6206   */\n      swap1\n      pop\n        /* \"#utility.yul\":6216:6283   */\n      tag_519\n        /* \"#utility.yul\":6280:6281   */\n      0x00\n        /* \"#utility.yul\":6269:6278   */\n      dup4\n        /* \"#utility.yul\":6265:6282   */\n      add\n        /* \"#utility.yul\":6256:6262   */\n      dup5\n        /* \"#utility.yul\":6216:6283   */\n      tag_407\n      jump\t// in\n    tag_519:\n        /* \"#utility.yul\":6076:6290   */\n      swap3\n      swap2\n      pop\n      pop\n      jump\t// out\n        /* \"#utility.yul\":6296:6625   */\n    tag_77:\n        /* \"#utility.yul\":6355:6361   */\n      0x00\n        /* \"#utility.yul\":6404:6406   */\n      0x20\n        /* \"#utility.yul\":6392:6401   */\n      dup3\n        /* \"#utility.yul\":6383:6390   */\n      dup5\n        /* \"#utility.yul\":6379:6402   */\n      sub\n        /* \"#utility.yul\":6375:6407   */\n      slt\n        /* \"#utility.yul\":6372:6491   */\n      iszero\n      tag_521\n      jumpi\n        /* \"#utility.yul\":6410:6489   */\n      tag_522\n      tag_396\n      jump\t// in\n    tag_522:\n        /* \"#utility.yul\":6372:6491   */\n    tag_521:\n        /* \"#utility.yul\":6530:6531   */\n      0x00\n        /* \"#utility.yul\":6555:6608   */\n      tag_523\n        /* \"#utility.yul\":6600:6607   */\n      dup5\n        /* \"#utility.yul\":6591:6597   */\n      dup3\n        /* \"#utility.yul\":6580:6589   */\n      dup6\n        /* \"#utility.yul\":6576:6598   */\n      add\n        /* \"#utility.yul\":6555:6608   */\n      tag_401\n      jump\t// in\n    tag_523:\n        /* \"#utility.yul\":6545:6608   */\n      swap2\n      pop\n        /* \"#utility.yul\":6501:6618   */\n      pop\n        /* \"#utility.yul\":6296:6625   */\n      swap3\n      swap2\n      pop\n      pop\n      jump\t// out\n        /* \"#utility.yul\":6631:6749   */\n    tag_408:\n        /* \"#utility.yul\":6718:6742   */\n      tag_525\n        /* \"#utility.yul\":6736:6741   */\n      dup2\n        /* \"#utility.yul\":6718:6742   */\n      tag_399\n      jump\t// in\n    tag_525:\n        /* \"#utility.yul\":6713:6716   */\n      dup3\n        /* \"#utility.yul\":6706:6743   */\n      mstore\n        /* \"#utility.yul\":6631:6749   */\n      pop\n      pop\n      jump\t// out\n        /* \"#utility.yul\":6755:6977   */\n    tag_86:\n        /* \"#utility.yul\":6848:6852   */\n      0x00\n        /* \"#utility.yul\":6886:6888   */\n      0x20\n        /* \"#utility.yul\":6875:6884   */\n      dup3\n        /* \"#utility.yul\":6871:6889   */\n      add\n        /* \"#utility.yul\":6863:6889   */\n      swap1\n      pop\n        /* \"#utility.yul\":6899:6970   */\n      tag_527\n        /* \"#utility.yul\":6967:6968   */\n      0x00\n        /* \"#utility.yul\":6956:6965   */\n      dup4\n        /* \"#utility.yul\":6952:6969   */\n      add\n        /* \"#utility.yul\":6943:6949   */\n      dup5\n        /* \"#utility.yul\":6899:6970   */\n      tag_408\n      jump\t// in\n    tag_527:\n        /* \"#utility.yul\":6755:6977   */\n      swap3\n      swap2\n      pop\n      pop\n      jump\t// out\n        /* \"#utility.yul\":6983:7312   */\n    tag_92:\n        /* \"#utility.yul\":7042:7048   */\n      0x00\n        /* \"#utility.yul\":7091:7093   */\n      0x20\n        /* \"#utility.yul\":7079:7088   */\n      dup3\n        /* \"#utility.yul\":7070:7077   */\n      dup5\n        /* \"#utility.yul\":7066:7089   */\n      sub\n        /* \"#utility.yul\":7062:7094   */\n      slt\n        /* \"#utility.yul\":7059:7178   */\n      iszero\n      tag_529\n      jumpi\n        /* \"#utility.yul\":7097:7176   */\n      tag_530\n      tag_396\n      jump\t// in\n    tag_530:\n        /* \"#utility.yul\":7059:7178   */\n    tag_529:\n        /* \"#utility.yul\":7217:7218   */\n      0x00\n        /* \"#utility.yul\":7242:7295   */\n      tag_531\n        /* \"#utility.yul\":7287:7294   */\n      dup5\n        /* \"#utility.yul\":7278:7284   */\n      dup3\n        /* \"#utility.yul\":7267:7276   */\n      dup6\n        /* \"#utility.yul\":7263:7285   */\n      add\n        /* \"#utility.yul\":7242:7295   */\n      tag_403\n      jump\t// in\n    tag_531:\n        /* \"#utility.yul\":7232:7295   */\n      swap2\n      pop\n        /* \"#utility.yul\":7188:7305   */\n      pop\n        /* \"#utility.yul\":6983:7312   */\n      swap3\n      swap2\n      pop\n      pop\n      jump\t// out\n        /* \"#utility.yul\":7318:7792   */\n    tag_97:\n        /* \"#utility.yul\":7386:7392   */\n      0x00\n        /* \"#utility.yul\":7394:7400   */\n      dup1\n        /* \"#utility.yul\":7443:7445   */\n      0x40\n        /* \"#utility.yul\":7431:7440   */\n      dup4\n        /* \"#utility.yul\":7422:7429   */\n      dup6\n        /* \"#utility.yul\":7418:7441   */\n      sub\n        /* \"#utility.yul\":7414:7446   */\n      slt\n        /* \"#utility.yul\":7411:7530   */\n      iszero\n      tag_533\n      jumpi\n        /* \"#utility.yul\":7449:7528   */\n      tag_534\n      tag_396\n      jump\t// in\n    tag_534:\n        /* \"#utility.yul\":7411:7530   */\n    tag_533:\n        /* \"#utility.yul\":7569:7570   */\n      0x00\n        /* \"#utility.yul\":7594:7647   */\n      tag_535\n        /* \"#utility.yul\":7639:7646   */\n      dup6\n        /* \"#utility.yul\":7630:7636   */\n      dup3\n        /* \"#utility.yul\":7619:7628   */\n      dup7\n        /* \"#utility.yul\":7615:7637   */\n      add\n        /* \"#utility.yul\":7594:7647   */\n      tag_403\n      jump\t// in\n    tag_535:\n        /* \"#utility.yul\":7584:7647   */\n      swap3\n      pop\n        /* \"#utility.yul\":7540:7657   */\n      pop\n        /* \"#utility.yul\":7696:7698   */\n      0x20\n        /* \"#utility.yul\":7722:7775   */\n      tag_536\n        /* \"#utility.yul\":7767:7774   */\n      dup6\n        /* \"#utility.yul\":7758:7764   */\n      dup3\n        /* \"#utility.yul\":7747:7756   */\n      dup7\n        /* \"#utility.yul\":7743:7765   */\n      add\n        /* \"#utility.yul\":7722:7775   */\n      tag_403\n      jump\t// in\n    tag_536:\n        /* \"#utility.yul\":7712:7775   */\n      swap2\n      pop\n        /* \"#utility.yul\":7667:7785   */\n      pop\n        /* \"#utility.yul\":7318:7792   */\n      swap3\n      pop\n      swap3\n      swap1\n      pop\n      jump\t// out\n        /* \"#utility.yul\":7798:8272   */\n    tag_116:\n        /* \"#utility.yul\":7866:7872   */\n      0x00\n        /* \"#utility.yul\":7874:7880   */\n      dup1\n        /* \"#utility.yul\":7923:7925   */\n      0x40\n        /* \"#utility.yul\":7911:7920   */\n      dup4\n        /* \"#utility.yul\":7902:7909   */\n      dup6\n        /* \"#utility.yul\":7898:7921   */\n      sub\n        /* \"#utility.yul\":7894:7926   */\n      slt\n        /* \"#utility.yul\":7891:8010   */\n      iszero\n      tag_538\n      jumpi\n        /* \"#utility.yul\":7929:8008   */\n      tag_539\n      tag_396\n      jump\t// in\n    tag_539:\n        /* \"#utility.yul\":7891:8010   */\n    tag_538:\n        /* \"#utility.yul\":8049:8050   */\n      0x00\n        /* \"#utility.yul\":8074:8127   */\n      tag_540\n        /* \"#utility.yul\":8119:8126   */\n      dup6\n        /* \"#utility.yul\":8110:8116   */\n      dup3\n        /* \"#utility.yul\":8099:8108   */\n      dup7\n        /* \"#utility.yul\":8095:8117   */\n      add\n        /* \"#utility.yul\":8074:8127   */\n      tag_401\n      jump\t// in\n    tag_540:\n        /* \"#utility.yul\":8064:8127   */\n      swap3\n      pop\n        /* \"#utility.yul\":8020:8137   */\n      pop\n        /* \"#utility.yul\":8176:8178   */\n      0x20\n        /* \"#utility.yul\":8202:8255   */\n      tag_541\n        /* \"#utility.yul\":8247:8254   */\n      dup6\n        /* \"#utility.yul\":8238:8244   */\n      dup3\n        /* \"#utility.yul\":8227:8236   */\n      dup7\n        /* \"#utility.yul\":8223:8245   */\n      add\n        /* \"#utility.yul\":8202:8255   */\n      tag_401\n      jump\t// in\n    tag_541:\n        /* \"#utility.yul\":8192:8255   */\n      swap2\n      pop\n        /* \"#utility.yul\":8147:8265   */\n      pop\n        /* \"#utility.yul\":7798:8272   */\n      swap3\n      pop\n      swap3\n      swap1\n      pop\n      jump\t// out\n        /* \"#utility.yul\":8278:8458   */\n    tag_409:\n        /* \"#utility.yul\":8326:8403   */\n      0x4e487b7100000000000000000000000000000000000000000000000000000000\n        /* \"#utility.yul\":8323:8324   */\n      0x00\n        /* \"#utility.yul\":8316:8404   */\n      mstore\n        /* \"#utility.yul\":8423:8427   */\n      0x22\n        /* \"#utility.yul\":8420:8421   */\n      0x04\n        /* \"#utility.yul\":8413:8428   */\n      mstore\n        /* \"#utility.yul\":8447:8451   */\n      0x24\n        /* \"#utility.yul\":8444:8445   */\n      0x00\n        /* \"#utility.yul\":8437:8452   */\n      revert\n        /* \"#utility.yul\":8464:8784   */\n    tag_125:\n        /* \"#utility.yul\":8508:8514   */\n      0x00\n        /* \"#utility.yul\":8545:8546   */\n      0x02\n        /* \"#utility.yul\":8539:8543   */\n      dup3\n        /* \"#utility.yul\":8535:8547   */\n      div\n        /* \"#utility.yul\":8525:8547   */\n      swap1\n      pop\n        /* \"#utility.yul\":8592:8593   */\n      0x01\n        /* \"#utility.yul\":8586:8590   */\n      dup3\n        /* \"#utility.yul\":8582:8594   */\n      and\n        /* \"#utility.yul\":8613:8631   */\n      dup1\n        /* \"#utility.yul\":8603:8684   */\n      tag_544\n      jumpi\n        /* \"#utility.yul\":8669:8673   */\n      0x7f\n        /* \"#utility.yul\":8661:8667   */\n      dup3\n        /* \"#utility.yul\":8657:8674   */\n      and\n        /* \"#utility.yul\":8647:8674   */\n      swap2\n      pop\n        /* \"#utility.yul\":8603:8684   */\n    tag_544:\n        /* \"#utility.yul\":8731:8733   */\n      0x20\n        /* \"#utility.yul\":8723:8729   */\n      dup3\n        /* \"#utility.yul\":8720:8734   */\n      lt\n        /* \"#utility.yul\":8700:8718   */\n      dup2\n        /* \"#utility.yul\":8697:8735   */\n      sub\n        /* \"#utility.yul\":8694:8778   */\n      tag_545\n      jumpi\n        /* \"#utility.yul\":8750:8768   */\n      tag_546\n      tag_409\n      jump\t// in\n    tag_546:\n        /* \"#utility.yul\":8694:8778   */\n    tag_545:\n        /* \"#utility.yul\":8515:8784   */\n      pop\n        /* \"#utility.yul\":8464:8784   */\n      swap2\n      swap1\n      pop\n      jump\t// out\n        /* \"#utility.yul\":8790:8933   */\n    tag_410:\n        /* \"#utility.yul\":8847:8852   */\n      0x00\n        /* \"#utility.yul\":8878:8884   */\n      dup2\n        /* \"#utility.yul\":8872:8885   */\n      mload\n        /* \"#utility.yul\":8863:8885   */\n      swap1\n      pop\n        /* \"#utility.yul\":8894:8927   */\n      tag_548\n        /* \"#utility.yul\":8921:8926   */\n      dup2\n        /* \"#utility.yul\":8894:8927   */\n      tag_402\n      jump\t// in\n    tag_548:\n        /* \"#utility.yul\":8790:8933   */\n      swap3\n      swap2\n      pop\n      pop\n      jump\t// out\n        /* \"#utility.yul\":8939:9290   */\n    tag_135:\n        /* \"#utility.yul\":9009:9015   */\n      0x00\n        /* \"#utility.yul\":9058:9060   */\n      0x20\n        /* \"#utility.yul\":9046:9055   */\n      dup3\n        /* \"#utility.yul\":9037:9044   */\n      dup5\n        /* \"#utility.yul\":9033:9056   */\n      sub\n        /* \"#utility.yul\":9029:9061   */\n      slt\n        /* \"#utility.yul\":9026:9145   */\n      iszero\n      tag_550\n      jumpi\n        /* \"#utility.yul\":9064:9143   */\n      tag_551\n      tag_396\n      jump\t// in\n    tag_551:\n        /* \"#utility.yul\":9026:9145   */\n    tag_550:\n        /* \"#utility.yul\":9184:9185   */\n      0x00\n        /* \"#utility.yul\":9209:9273   */\n      tag_552\n        /* \"#utility.yul\":9265:9272   */\n      dup5\n        /* \"#utility.yul\":9256:9262   */\n      dup3\n        /* \"#utility.yul\":9245:9254   */\n      dup6\n        /* \"#utility.yul\":9241:9263   */\n      add\n        /* \"#utility.yul\":9209:9273   */\n      tag_410\n      jump\t// in\n    tag_552:\n        /* \"#utility.yul\":9199:9273   */\n      swap2\n      pop\n        /* \"#utility.yul\":9155:9283   */\n      pop\n        /* \"#utility.yul\":8939:9290   */\n      swap3\n      swap2\n      pop\n      pop\n      jump\t// out\n        /* \"#utility.yul\":9296:9521   */\n    tag_411:\n        /* \"#utility.yul\":9436:9470   */\n      0x416d6f756e74206f66206d6178546f6b656e416d6f756e74496e2063616e6e6f\n        /* \"#utility.yul\":9432:9433   */\n      0x00\n        /* \"#utility.yul\":9424:9430   */\n      dup3\n        /* \"#utility.yul\":9420:9434   */\n      add\n        /* \"#utility.yul\":9413:9471   */\n      mstore\n        /* \"#utility.yul\":9505:9513   */\n      0x7420626520300000000000000000000000000000000000000000000000000000\n        /* \"#utility.yul\":9500:9502   */\n      0x20\n        /* \"#utility.yul\":9492:9498   */\n      dup3\n        /* \"#utility.yul\":9488:9503   */\n      add\n        /* \"#utility.yul\":9481:9514   */\n      mstore\n        /* \"#utility.yul\":9296:9521   */\n      pop\n      jump\t// out\n        /* \"#utility.yul\":9527:9893   */\n    tag_412:\n        /* \"#utility.yul\":9669:9672   */\n      0x00\n        /* \"#utility.yul\":9690:9757   */\n      tag_555\n        /* \"#utility.yul\":9754:9756   */\n      0x26\n        /* \"#utility.yul\":9749:9752   */\n      dup4\n        /* \"#utility.yul\":9690:9757   */\n      tag_389\n      jump\t// in\n    tag_555:\n        /* \"#utility.yul\":9683:9757   */\n      swap2\n      pop\n        /* \"#utility.yul\":9766:9859   */\n      tag_556\n        /* \"#utility.yul\":9855:9858   */\n      dup3\n        /* \"#utility.yul\":9766:9859   */\n      tag_411\n      jump\t// in\n    tag_556:\n        /* \"#utility.yul\":9884:9886   */\n      0x40\n        /* \"#utility.yul\":9879:9882   */\n      dup3\n        /* \"#utility.yul\":9875:9887   */\n      add\n        /* \"#utility.yul\":9868:9887   */\n      swap1\n      pop\n        /* \"#utility.yul\":9527:9893   */\n      swap2\n      swap1\n      pop\n      jump\t// out\n        /* \"#utility.yul\":9899:10318   */\n    tag_148:\n        /* \"#utility.yul\":10065:10069   */\n      0x00\n        /* \"#utility.yul\":10103:10105   */\n      0x20\n        /* \"#utility.yul\":10092:10101   */\n      dup3\n        /* \"#utility.yul\":10088:10106   */\n      add\n        /* \"#utility.yul\":10080:10106   */\n      swap1\n      pop\n        /* \"#utility.yul\":10152:10161   */\n      dup2\n        /* \"#utility.yul\":10146:10150   */\n      dup2\n        /* \"#utility.yul\":10142:10162   */\n      sub\n        /* \"#utility.yul\":10138:10139   */\n      0x00\n        /* \"#utility.yul\":10127:10136   */\n      dup4\n        /* \"#utility.yul\":10123:10140   */\n      add\n        /* \"#utility.yul\":10116:10163   */\n      mstore\n        /* \"#utility.yul\":10180:10311   */\n      tag_558\n        /* \"#utility.yul\":10306:10310   */\n      dup2\n        /* \"#utility.yul\":10180:10311   */\n      tag_412\n      jump\t// in\n    tag_558:\n        /* \"#utility.yul\":10172:10311   */\n      swap1\n      pop\n        /* \"#utility.yul\":9899:10318   */\n      swap2\n      swap1\n      pop\n      jump\t// out\n        /* \"#utility.yul\":10324:10766   */\n    tag_151:\n        /* \"#utility.yul\":10473:10477   */\n      0x00\n        /* \"#utility.yul\":10511:10513   */\n      0x60\n        /* \"#utility.yul\":10500:10509   */\n      dup3\n        /* \"#utility.yul\":10496:10514   */\n      add\n        /* \"#utility.yul\":10488:10514   */\n      swap1\n      pop\n        /* \"#utility.yul\":10524:10595   */\n      tag_560\n        /* \"#utility.yul\":10592:10593   */\n      0x00\n        /* \"#utility.yul\":10581:10590   */\n      dup4\n        /* \"#utility.yul\":10577:10594   */\n      add\n        /* \"#utility.yul\":10568:10574   */\n      dup7\n        /* \"#utility.yul\":10524:10595   */\n      tag_408\n      jump\t// in\n    tag_560:\n        /* \"#utility.yul\":10605:10677   */\n      tag_561\n        /* \"#utility.yul\":10673:10675   */\n      0x20\n        /* \"#utility.yul\":10662:10671   */\n      dup4\n        /* \"#utility.yul\":10658:10676   */\n      add\n        /* \"#utility.yul\":10649:10655   */\n      dup6\n        /* \"#utility.yul\":10605:10677   */\n      tag_408\n      jump\t// in\n    tag_561:\n        /* \"#utility.yul\":10687:10759   */\n      tag_562\n        /* \"#utility.yul\":10755:10757   */\n      0x40\n        /* \"#utility.yul\":10744:10753   */\n      dup4\n        /* \"#utility.yul\":10740:10758   */\n      add\n        /* \"#utility.yul\":10731:10737   */\n      dup5\n        /* \"#utility.yul\":10687:10759   */\n      tag_394\n      jump\t// in\n    tag_562:\n        /* \"#utility.yul\":10324:10766   */\n      swap5\n      swap4\n      pop\n      pop\n      pop\n      pop\n      jump\t// out\n        /* \"#utility.yul\":10772:10888   */\n    tag_413:\n        /* \"#utility.yul\":10842:10863   */\n      tag_564\n        /* \"#utility.yul\":10857:10862   */\n      dup2\n        /* \"#utility.yul\":10842:10863   */\n      tag_404\n      jump\t// in\n    tag_564:\n        /* \"#utility.yul\":10835:10840   */\n      dup2\n        /* \"#utility.yul\":10832:10864   */\n      eq\n        /* \"#utility.yul\":10822:10882   */\n      tag_565\n      jumpi\n        /* \"#utility.yul\":10878:10879   */\n      0x00\n        /* \"#utility.yul\":10875:10876   */\n      dup1\n        /* \"#utility.yul\":10868:10880   */\n      revert\n        /* \"#utility.yul\":10822:10882   */\n    tag_565:\n        /* \"#utility.yul\":10772:10888   */\n      pop\n      jump\t// out\n        /* \"#utility.yul\":10894:11031   */\n    tag_414:\n        /* \"#utility.yul\":10948:10953   */\n      0x00\n        /* \"#utility.yul\":10979:10985   */\n      dup2\n        /* \"#utility.yul\":10973:10986   */\n      mload\n        /* \"#utility.yul\":10964:10986   */\n      swap1\n      pop\n        /* \"#utility.yul\":10995:11025   */\n      tag_567\n        /* \"#utility.yul\":11019:11024   */\n      dup2\n        /* \"#utility.yul\":10995:11025   */\n      tag_413\n      jump\t// in\n    tag_567:\n        /* \"#utility.yul\":10894:11031   */\n      swap3\n      swap2\n      pop\n      pop\n      jump\t// out\n        /* \"#utility.yul\":11037:11382   */\n    tag_155:\n        /* \"#utility.yul\":11104:11110   */\n      0x00\n        /* \"#utility.yul\":11153:11155   */\n      0x20\n        /* \"#utility.yul\":11141:11150   */\n      dup3\n        /* \"#utility.yul\":11132:11139   */\n      dup5\n        /* \"#utility.yul\":11128:11151   */\n      sub\n        /* \"#utility.yul\":11124:11156   */\n      slt\n        /* \"#utility.yul\":11121:11240   */\n      iszero\n      tag_569\n      jumpi\n        /* \"#utility.yul\":11159:11238   */\n      tag_570\n      tag_396\n      jump\t// in\n    tag_570:\n        /* \"#utility.yul\":11121:11240   */\n    tag_569:\n        /* \"#utility.yul\":11279:11280   */\n      0x00\n        /* \"#utility.yul\":11304:11365   */\n      tag_571\n        /* \"#utility.yul\":11357:11364   */\n      dup5\n        /* \"#utility.yul\":11348:11354   */\n      dup3\n        /* \"#utility.yul\":11337:11346   */\n      dup6\n        /* \"#utility.yul\":11333:11355   */\n      add\n        /* \"#utility.yul\":11304:11365   */\n      tag_414\n      jump\t// in\n    tag_571:\n        /* \"#utility.yul\":11294:11365   */\n      swap2\n      pop\n        /* \"#utility.yul\":11250:11375   */\n      pop\n        /* \"#utility.yul\":11037:11382   */\n      swap3\n      swap2\n      pop\n      pop\n      jump\t// out\n        /* \"#utility.yul\":11388:11568   */\n    tag_415:\n        /* \"#utility.yul\":11436:11513   */\n      0x4e487b7100000000000000000000000000000000000000000000000000000000\n        /* \"#utility.yul\":11433:11434   */\n      0x00\n        /* \"#utility.yul\":11426:11514   */\n      mstore\n        /* \"#utility.yul\":11533:11537   */\n      0x11\n        /* \"#utility.yul\":11530:11531   */\n      0x04\n        /* \"#utility.yul\":11523:11538   */\n      mstore\n        /* \"#utility.yul\":11557:11561   */\n      0x24\n        /* \"#utility.yul\":11554:11555   */\n      0x00\n        /* \"#utility.yul\":11547:11562   */\n      revert\n        /* \"#utility.yul\":11574:11765   */\n    tag_157:\n        /* \"#utility.yul\":11614:11617   */\n      0x00\n        /* \"#utility.yul\":11633:11653   */\n      tag_574\n        /* \"#utility.yul\":11651:11652   */\n      dup3\n        /* \"#utility.yul\":11633:11653   */\n      tag_393\n      jump\t// in\n    tag_574:\n        /* \"#utility.yul\":11628:11653   */\n      swap2\n      pop\n        /* \"#utility.yul\":11667:11687   */\n      tag_575\n        /* \"#utility.yul\":11685:11686   */\n      dup4\n        /* \"#utility.yul\":11667:11687   */\n      tag_393\n      jump\t// in\n    tag_575:\n        /* \"#utility.yul\":11662:11687   */\n      swap3\n      pop\n        /* \"#utility.yul\":11710:11711   */\n      dup3\n        /* \"#utility.yul\":11707:11708   */\n      dup3\n        /* \"#utility.yul\":11703:11712   */\n      add\n        /* \"#utility.yul\":11696:11712   */\n      swap1\n      pop\n        /* \"#utility.yul\":11731:11734   */\n      dup1\n        /* \"#utility.yul\":11728:11729   */\n      dup3\n        /* \"#utility.yul\":11725:11735   */\n      gt\n        /* \"#utility.yul\":11722:11758   */\n      iszero\n      tag_576\n      jumpi\n        /* \"#utility.yul\":11738:11756   */\n      tag_577\n      tag_415\n      jump\t// in\n    tag_577:\n        /* \"#utility.yul\":11722:11758   */\n    tag_576:\n        /* \"#utility.yul\":11574:11765   */\n      swap3\n      swap2\n      pop\n      pop\n      jump\t// out\n        /* \"#utility.yul\":11771:12181   */\n    tag_159:\n        /* \"#utility.yul\":11811:11818   */\n      0x00\n        /* \"#utility.yul\":11834:11854   */\n      tag_579\n        /* \"#utility.yul\":11852:11853   */\n      dup3\n        /* \"#utility.yul\":11834:11854   */\n      tag_393\n      jump\t// in\n    tag_579:\n        /* \"#utility.yul\":11829:11854   */\n      swap2\n      pop\n        /* \"#utility.yul\":11868:11888   */\n      tag_580\n        /* \"#utility.yul\":11886:11887   */\n      dup4\n        /* \"#utility.yul\":11868:11888   */\n      tag_393\n      jump\t// in\n    tag_580:\n        /* \"#utility.yul\":11863:11888   */\n      swap3\n      pop\n        /* \"#utility.yul\":11923:11924   */\n      dup3\n        /* \"#utility.yul\":11920:11921   */\n      dup3\n        /* \"#utility.yul\":11916:11925   */\n      mul\n        /* \"#utility.yul\":11945:11975   */\n      tag_581\n        /* \"#utility.yul\":11963:11974   */\n      dup2\n        /* \"#utility.yul\":11945:11975   */\n      tag_393\n      jump\t// in\n    tag_581:\n        /* \"#utility.yul\":11934:11975   */\n      swap2\n      pop\n        /* \"#utility.yul\":12124:12125   */\n      dup3\n        /* \"#utility.yul\":12115:12122   */\n      dup3\n        /* \"#utility.yul\":12111:12126   */\n      div\n        /* \"#utility.yul\":12108:12109   */\n      dup5\n        /* \"#utility.yul\":12105:12127   */\n      eq\n        /* \"#utility.yul\":12085:12086   */\n      dup4\n        /* \"#utility.yul\":12078:12087   */\n      iszero\n        /* \"#utility.yul\":12058:12141   */\n      or\n        /* \"#utility.yul\":12035:12174   */\n      tag_582\n      jumpi\n        /* \"#utility.yul\":12154:12172   */\n      tag_583\n      tag_415\n      jump\t// in\n    tag_583:\n        /* \"#utility.yul\":12035:12174   */\n    tag_582:\n        /* \"#utility.yul\":11819:12181   */\n      pop\n        /* \"#utility.yul\":11771:12181   */\n      swap3\n      swap2\n      pop\n      pop\n      jump\t// out\n        /* \"#utility.yul\":12187:12367   */\n    tag_416:\n        /* \"#utility.yul\":12235:12312   */\n      0x4e487b7100000000000000000000000000000000000000000000000000000000\n        /* \"#utility.yul\":12232:12233   */\n      0x00\n        /* \"#utility.yul\":12225:12313   */\n      mstore\n        /* \"#utility.yul\":12332:12336   */\n      0x12\n        /* \"#utility.yul\":12329:12330   */\n      0x04\n        /* \"#utility.yul\":12322:12337   */\n      mstore\n        /* \"#utility.yul\":12356:12360   */\n      0x24\n        /* \"#utility.yul\":12353:12354   */\n      0x00\n        /* \"#utility.yul\":12346:12361   */\n      revert\n        /* \"#utility.yul\":12373:12558   */\n    tag_161:\n        /* \"#utility.yul\":12413:12414   */\n      0x00\n        /* \"#utility.yul\":12430:12450   */\n      tag_586\n        /* \"#utility.yul\":12448:12449   */\n      dup3\n        /* \"#utility.yul\":12430:12450   */\n      tag_393\n      jump\t// in\n    tag_586:\n        /* \"#utility.yul\":12425:12450   */\n      swap2\n      pop\n        /* \"#utility.yul\":12464:12484   */\n      tag_587\n        /* \"#utility.yul\":12482:12483   */\n      dup4\n        /* \"#utility.yul\":12464:12484   */\n      tag_393\n      jump\t// in\n    tag_587:\n        /* \"#utility.yul\":12459:12484   */\n      swap3\n      pop\n        /* \"#utility.yul\":12503:12504   */\n      dup3\n        /* \"#utility.yul\":12493:12528   */\n      tag_588\n      jumpi\n        /* \"#utility.yul\":12508:12526   */\n      tag_589\n      tag_416\n      jump\t// in\n    tag_589:\n        /* \"#utility.yul\":12493:12528   */\n    tag_588:\n        /* \"#utility.yul\":12550:12551   */\n      dup3\n        /* \"#utility.yul\":12547:12548   */\n      dup3\n        /* \"#utility.yul\":12543:12552   */\n      div\n        /* \"#utility.yul\":12538:12552   */\n      swap1\n      pop\n        /* \"#utility.yul\":12373:12558   */\n      swap3\n      swap2\n      pop\n      pop\n      jump\t// out\n        /* \"#utility.yul\":12564:12745   */\n    tag_417:\n        /* \"#utility.yul\":12704:12737   */\n      0x416d6f756e74206f66206d6178546f6b656e416d6f756e74496e206c65737300\n        /* \"#utility.yul\":12700:12701   */\n      0x00\n        /* \"#utility.yul\":12692:12698   */\n      dup3\n        /* \"#utility.yul\":12688:12702   */\n      add\n        /* \"#utility.yul\":12681:12738   */\n      mstore\n        /* \"#utility.yul\":12564:12745   */\n      pop\n      jump\t// out\n        /* \"#utility.yul\":12751:13117   */\n    tag_418:\n        /* \"#utility.yul\":12893:12896   */\n      0x00\n        /* \"#utility.yul\":12914:12981   */\n      tag_592\n        /* \"#utility.yul\":12978:12980   */\n      0x1f\n        /* \"#utility.yul\":12973:12976   */\n      dup4\n        /* \"#utility.yul\":12914:12981   */\n      tag_389\n      jump\t// in\n    tag_592:\n        /* \"#utility.yul\":12907:12981   */\n      swap2\n      pop\n        /* \"#utility.yul\":12990:13083   */\n      tag_593\n        /* \"#utility.yul\":13079:13082   */\n      dup3\n        /* \"#utility.yul\":12990:13083   */\n      tag_417\n      jump\t// in\n    tag_593:\n        /* \"#utility.yul\":13108:13110   */\n      0x20\n        /* \"#utility.yul\":13103:13106   */\n      dup3\n        /* \"#utility.yul\":13099:13111   */\n      add\n        /* \"#utility.yul\":13092:13111   */\n      swap1\n      pop\n        /* \"#utility.yul\":12751:13117   */\n      swap2\n      swap1\n      pop\n      jump\t// out\n        /* \"#utility.yul\":13123:13542   */\n    tag_164:\n        /* \"#utility.yul\":13289:13293   */\n      0x00\n        /* \"#utility.yul\":13327:13329   */\n      0x20\n        /* \"#utility.yul\":13316:13325   */\n      dup3\n        /* \"#utility.yul\":13312:13330   */\n      add\n        /* \"#utility.yul\":13304:13330   */\n      swap1\n      pop\n        /* \"#utility.yul\":13376:13385   */\n      dup2\n        /* \"#utility.yul\":13370:13374   */\n      dup2\n        /* \"#utility.yul\":13366:13386   */\n      sub\n        /* \"#utility.yul\":13362:13363   */\n      0x00\n        /* \"#utility.yul\":13351:13360   */\n      dup4\n        /* \"#utility.yul\":13347:13364   */\n      add\n        /* \"#utility.yul\":13340:13387   */\n      mstore\n        /* \"#utility.yul\":13404:13535   */\n      tag_595\n        /* \"#utility.yul\":13530:13534   */\n      dup2\n        /* \"#utility.yul\":13404:13535   */\n      tag_418\n      jump\t// in\n    tag_595:\n        /* \"#utility.yul\":13396:13535   */\n      swap1\n      pop\n        /* \"#utility.yul\":13123:13542   */\n      swap2\n      swap1\n      pop\n      jump\t// out\n        /* \"#utility.yul\":13548:13880   */\n    tag_166:\n        /* \"#utility.yul\":13669:13673   */\n      0x00\n        /* \"#utility.yul\":13707:13709   */\n      0x40\n        /* \"#utility.yul\":13696:13705   */\n      dup3\n        /* \"#utility.yul\":13692:13710   */\n      add\n        /* \"#utility.yul\":13684:13710   */\n      swap1\n      pop\n        /* \"#utility.yul\":13720:13791   */\n      tag_597\n        /* \"#utility.yul\":13788:13789   */\n      0x00\n        /* \"#utility.yul\":13777:13786   */\n      dup4\n        /* \"#utility.yul\":13773:13790   */\n      add\n        /* \"#utility.yul\":13764:13770   */\n      dup6\n        /* \"#utility.yul\":13720:13791   */\n      tag_408\n      jump\t// in\n    tag_597:\n        /* \"#utility.yul\":13801:13873   */\n      tag_598\n        /* \"#utility.yul\":13869:13871   */\n      0x20\n        /* \"#utility.yul\":13858:13867   */\n      dup4\n        /* \"#utility.yul\":13854:13872   */\n      add\n        /* \"#utility.yul\":13845:13851   */\n      dup5\n        /* \"#utility.yul\":13801:13873   */\n      tag_394\n      jump\t// in\n    tag_598:\n        /* \"#utility.yul\":13548:13880   */\n      swap4\n      swap3\n      pop\n      pop\n      pop\n      jump\t// out\n        /* \"#utility.yul\":13886:14080   */\n    tag_175:\n        /* \"#utility.yul\":13926:13930   */\n      0x00\n        /* \"#utility.yul\":13946:13966   */\n      tag_600\n        /* \"#utility.yul\":13964:13965   */\n      dup3\n        /* \"#utility.yul\":13946:13966   */\n      tag_393\n      jump\t// in\n    tag_600:\n        /* \"#utility.yul\":13941:13966   */\n      swap2\n      pop\n        /* \"#utility.yul\":13980:14000   */\n      tag_601\n        /* \"#utility.yul\":13998:13999   */\n      dup4\n        /* \"#utility.yul\":13980:14000   */\n      tag_393\n      jump\t// in\n    tag_601:\n        /* \"#utility.yul\":13975:14000   */\n      swap3\n      pop\n        /* \"#utility.yul\":14024:14025   */\n      dup3\n        /* \"#utility.yul\":14021:14022   */\n      dup3\n        /* \"#utility.yul\":14017:14026   */\n      sub\n        /* \"#utility.yul\":14009:14026   */\n      swap1\n      pop\n        /* \"#utility.yul\":14048:14049   */\n      dup2\n        /* \"#utility.yul\":14042:14046   */\n      dup2\n        /* \"#utility.yul\":14039:14050   */\n      gt\n        /* \"#utility.yul\":14036:14073   */\n      iszero\n      tag_602\n      jumpi\n        /* \"#utility.yul\":14053:14071   */\n      tag_603\n      tag_415\n      jump\t// in\n    tag_603:\n        /* \"#utility.yul\":14036:14073   */\n    tag_602:\n        /* \"#utility.yul\":13886:14080   */\n      swap3\n      swap2\n      pop\n      pop\n      jump\t// out\n        /* \"#utility.yul\":14086:14308   */\n    tag_419:\n        /* \"#utility.yul\":14226:14260   */\n      0x416d6f756e74206f6620616d6f756e74546f6b656e496e2063616e6e6f742062\n        /* \"#utility.yul\":14222:14223   */\n      0x00\n        /* \"#utility.yul\":14214:14220   */\n      dup3\n        /* \"#utility.yul\":14210:14224   */\n      add\n        /* \"#utility.yul\":14203:14261   */\n      mstore\n        /* \"#utility.yul\":14295:14300   */\n      0x6520300000000000000000000000000000000000000000000000000000000000\n        /* \"#utility.yul\":14290:14292   */\n      0x20\n        /* \"#utility.yul\":14282:14288   */\n      dup3\n        /* \"#utility.yul\":14278:14293   */\n      add\n        /* \"#utility.yul\":14271:14301   */\n      mstore\n        /* \"#utility.yul\":14086:14308   */\n      pop\n      jump\t// out\n        /* \"#utility.yul\":14314:14680   */\n    tag_420:\n        /* \"#utility.yul\":14456:14459   */\n      0x00\n        /* \"#utility.yul\":14477:14544   */\n      tag_606\n        /* \"#utility.yul\":14541:14543   */\n      0x23\n        /* \"#utility.yul\":14536:14539   */\n      dup4\n        /* \"#utility.yul\":14477:14544   */\n      tag_389\n      jump\t// in\n    tag_606:\n        /* \"#utility.yul\":14470:14544   */\n      swap2\n      pop\n        /* \"#utility.yul\":14553:14646   */\n      tag_607\n        /* \"#utility.yul\":14642:14645   */\n      dup3\n        /* \"#utility.yul\":14553:14646   */\n      tag_419\n      jump\t// in\n    tag_607:\n        /* \"#utility.yul\":14671:14673   */\n      0x40\n        /* \"#utility.yul\":14666:14669   */\n      dup3\n        /* \"#utility.yul\":14662:14674   */\n      add\n        /* \"#utility.yul\":14655:14674   */\n      swap1\n      pop\n        /* \"#utility.yul\":14314:14680   */\n      swap2\n      swap1\n      pop\n      jump\t// out\n        /* \"#utility.yul\":14686:15105   */\n    tag_192:\n        /* \"#utility.yul\":14852:14856   */\n      0x00\n        /* \"#utility.yul\":14890:14892   */\n      0x20\n        /* \"#utility.yul\":14879:14888   */\n      dup3\n        /* \"#utility.yul\":14875:14893   */\n      add\n        /* \"#utility.yul\":14867:14893   */\n      swap1\n      pop\n        /* \"#utility.yul\":14939:14948   */\n      dup2\n        /* \"#utility.yul\":14933:14937   */\n      dup2\n        /* \"#utility.yul\":14929:14949   */\n      sub\n        /* \"#utility.yul\":14925:14926   */\n      0x00\n        /* \"#utility.yul\":14914:14923   */\n      dup4\n        /* \"#utility.yul\":14910:14927   */\n      add\n        /* \"#utility.yul\":14903:14950   */\n      mstore\n        /* \"#utility.yul\":14967:15098   */\n      tag_609\n        /* \"#utility.yul\":15093:15097   */\n      dup2\n        /* \"#utility.yul\":14967:15098   */\n      tag_420\n      jump\t// in\n    tag_609:\n        /* \"#utility.yul\":14959:15098   */\n      swap1\n      pop\n        /* \"#utility.yul\":14686:15105   */\n      swap2\n      swap1\n      pop\n      jump\t// out\n        /* \"#utility.yul\":15111:15335   */\n    tag_421:\n        /* \"#utility.yul\":15251:15285   */\n      0x416d6f756e74206f66206d617855736474416d6f756e74496e2063616e6e6f74\n        /* \"#utility.yul\":15247:15248   */\n      0x00\n        /* \"#utility.yul\":15239:15245   */\n      dup3\n        /* \"#utility.yul\":15235:15249   */\n      add\n        /* \"#utility.yul\":15228:15286   */\n      mstore\n        /* \"#utility.yul\":15320:15327   */\n      0x2062652030000000000000000000000000000000000000000000000000000000\n        /* \"#utility.yul\":15315:15317   */\n      0x20\n        /* \"#utility.yul\":15307:15313   */\n      dup3\n        /* \"#utility.yul\":15303:15318   */\n      add\n        /* \"#utility.yul\":15296:15328   */\n      mstore\n        /* \"#utility.yul\":15111:15335   */\n      pop\n      jump\t// out\n        /* \"#utility.yul\":15341:15707   */\n    tag_422:\n        /* \"#utility.yul\":15483:15486   */\n      0x00\n        /* \"#utility.yul\":15504:15571   */\n      tag_612\n        /* \"#utility.yul\":15568:15570   */\n      0x25\n        /* \"#utility.yul\":15563:15566   */\n      dup4\n        /* \"#utility.yul\":15504:15571   */\n      tag_389\n      jump\t// in\n    tag_612:\n        /* \"#utility.yul\":15497:15571   */\n      swap2\n      pop\n        /* \"#utility.yul\":15580:15673   */\n      tag_613\n        /* \"#utility.yul\":15669:15672   */\n      dup3\n        /* \"#utility.yul\":15580:15673   */\n      tag_421\n      jump\t// in\n    tag_613:\n        /* \"#utility.yul\":15698:15700   */\n      0x40\n        /* \"#utility.yul\":15693:15696   */\n      dup3\n        /* \"#utility.yul\":15689:15701   */\n      add\n        /* \"#utility.yul\":15682:15701   */\n      swap1\n      pop\n        /* \"#utility.yul\":15341:15707   */\n      swap2\n      swap1\n      pop\n      jump\t// out\n        /* \"#utility.yul\":15713:16132   */\n    tag_221:\n        /* \"#utility.yul\":15879:15883   */\n      0x00\n        /* \"#utility.yul\":15917:15919   */\n      0x20\n        /* \"#utility.yul\":15906:15915   */\n      dup3\n        /* \"#utility.yul\":15902:15920   */\n      add\n        /* \"#utility.yul\":15894:15920   */\n      swap1\n      pop\n        /* \"#utility.yul\":15966:15975   */\n      dup2\n        /* \"#utility.yul\":15960:15964   */\n      dup2\n        /* \"#utility.yul\":15956:15976   */\n      sub\n        /* \"#utility.yul\":15952:15953   */\n      0x00\n        /* \"#utility.yul\":15941:15950   */\n      dup4\n        /* \"#utility.yul\":15937:15954   */\n      add\n        /* \"#utility.yul\":15930:15977   */\n      mstore\n        /* \"#utility.yul\":15994:16125   */\n      tag_615\n        /* \"#utility.yul\":16120:16124   */\n      dup2\n        /* \"#utility.yul\":15994:16125   */\n      tag_422\n      jump\t// in\n    tag_615:\n        /* \"#utility.yul\":15986:16125   */\n      swap1\n      pop\n        /* \"#utility.yul\":15713:16132   */\n      swap2\n      swap1\n      pop\n      jump\t// out\n        /* \"#utility.yul\":16138:16318   */\n    tag_423:\n        /* \"#utility.yul\":16278:16310   */\n      0x416d6f756e74206f66206d617855736474416d6f756e74496e206c6573730000\n        /* \"#utility.yul\":16274:16275   */\n      0x00\n        /* \"#utility.yul\":16266:16272   */\n      dup3\n        /* \"#utility.yul\":16262:16276   */\n      add\n        /* \"#utility.yul\":16255:16311   */\n      mstore\n        /* \"#utility.yul\":16138:16318   */\n      pop\n      jump\t// out\n        /* \"#utility.yul\":16324:16690   */\n    tag_424:\n        /* \"#utility.yul\":16466:16469   */\n      0x00\n        /* \"#utility.yul\":16487:16554   */\n      tag_618\n        /* \"#utility.yul\":16551:16553   */\n      0x1e\n        /* \"#utility.yul\":16546:16549   */\n      dup4\n        /* \"#utility.yul\":16487:16554   */\n      tag_389\n      jump\t// in\n    tag_618:\n        /* \"#utility.yul\":16480:16554   */\n      swap2\n      pop\n        /* \"#utility.yul\":16563:16656   */\n      tag_619\n        /* \"#utility.yul\":16652:16655   */\n      dup3\n        /* \"#utility.yul\":16563:16656   */\n      tag_423\n      jump\t// in\n    tag_619:\n        /* \"#utility.yul\":16681:16683   */\n      0x20\n        /* \"#utility.yul\":16676:16679   */\n      dup3\n        /* \"#utility.yul\":16672:16684   */\n      add\n        /* \"#utility.yul\":16665:16684   */\n      swap1\n      pop\n        /* \"#utility.yul\":16324:16690   */\n      swap2\n      swap1\n      pop\n      jump\t// out\n        /* \"#utility.yul\":16696:17115   */\n    tag_232:\n        /* \"#utility.yul\":16862:16866   */\n      0x00\n        /* \"#utility.yul\":16900:16902   */\n      0x20\n        /* \"#utility.yul\":16889:16898   */\n      dup3\n        /* \"#utility.yul\":16885:16903   */\n      add\n        /* \"#utility.yul\":16877:16903   */\n      swap1\n      pop\n        /* \"#utility.yul\":16949:16958   */\n      dup2\n        /* \"#utility.yul\":16943:16947   */\n      dup2\n        /* \"#utility.yul\":16939:16959   */\n      sub\n        /* \"#utility.yul\":16935:16936   */\n      0x00\n        /* \"#utility.yul\":16924:16933   */\n      dup4\n        /* \"#utility.yul\":16920:16937   */\n      add\n        /* \"#utility.yul\":16913:16960   */\n      mstore\n        /* \"#utility.yul\":16977:17108   */\n      tag_621\n        /* \"#utility.yul\":17103:17107   */\n      dup2\n        /* \"#utility.yul\":16977:17108   */\n      tag_424\n      jump\t// in\n    tag_621:\n        /* \"#utility.yul\":16969:17108   */\n      swap1\n      pop\n        /* \"#utility.yul\":16696:17115   */\n      swap2\n      swap1\n      pop\n      jump\t// out\n        /* \"#utility.yul\":17121:17302   */\n    tag_425:\n        /* \"#utility.yul\":17261:17294   */\n      0x416d6f756e74206f66206c69717569646974792063616e6e6f74206265203000\n        /* \"#utility.yul\":17257:17258   */\n      0x00\n        /* \"#utility.yul\":17249:17255   */\n      dup3\n        /* \"#utility.yul\":17245:17259   */\n      add\n        /* \"#utility.yul\":17238:17295   */\n      mstore\n        /* \"#utility.yul\":17121:17302   */\n      pop\n      jump\t// out\n        /* \"#utility.yul\":17308:17674   */\n    tag_426:\n        /* \"#utility.yul\":17450:17453   */\n      0x00\n        /* \"#utility.yul\":17471:17538   */\n      tag_624\n        /* \"#utility.yul\":17535:17537   */\n      0x1f\n        /* \"#utility.yul\":17530:17533   */\n      dup4\n        /* \"#utility.yul\":17471:17538   */\n      tag_389\n      jump\t// in\n    tag_624:\n        /* \"#utility.yul\":17464:17538   */\n      swap2\n      pop\n        /* \"#utility.yul\":17547:17640   */\n      tag_625\n        /* \"#utility.yul\":17636:17639   */\n      dup3\n        /* \"#utility.yul\":17547:17640   */\n      tag_425\n      jump\t// in\n    tag_625:\n        /* \"#utility.yul\":17665:17667   */\n      0x20\n        /* \"#utility.yul\":17660:17663   */\n      dup3\n        /* \"#utility.yul\":17656:17668   */\n      add\n        /* \"#utility.yul\":17649:17668   */\n      swap1\n      pop\n        /* \"#utility.yul\":17308:17674   */\n      swap2\n      swap1\n      pop\n      jump\t// out\n        /* \"#utility.yul\":17680:18099   */\n    tag_248:\n        /* \"#utility.yul\":17846:17850   */\n      0x00\n        /* \"#utility.yul\":17884:17886   */\n      0x20\n        /* \"#utility.yul\":17873:17882   */\n      dup3\n        /* \"#utility.yul\":17869:17887   */\n      add\n        /* \"#utility.yul\":17861:17887   */\n      swap1\n      pop\n        /* \"#utility.yul\":17933:17942   */\n      dup2\n        /* \"#utility.yul\":17927:17931   */\n      dup2\n        /* \"#utility.yul\":17923:17943   */\n      sub\n        /* \"#utility.yul\":17919:17920   */\n      0x00\n        /* \"#utility.yul\":17908:17917   */\n      dup4\n        /* \"#utility.yul\":17904:17921   */\n      add\n        /* \"#utility.yul\":17897:17944   */\n      mstore\n        /* \"#utility.yul\":17961:18092   */\n      tag_627\n        /* \"#utility.yul\":18087:18091   */\n      dup2\n        /* \"#utility.yul\":17961:18092   */\n      tag_426\n      jump\t// in\n    tag_627:\n        /* \"#utility.yul\":17953:18092   */\n      swap1\n      pop\n        /* \"#utility.yul\":17680:18099   */\n      swap2\n      swap1\n      pop\n      jump\t// out\n        /* \"#utility.yul\":18105:18329   */\n    tag_427:\n        /* \"#utility.yul\":18245:18279   */\n      0x45524332303a2064656372656173656420616c6c6f77616e63652062656c6f77\n        /* \"#utility.yul\":18241:18242   */\n      0x00\n        /* \"#utility.yul\":18233:18239   */\n      dup3\n        /* \"#utility.yul\":18229:18243   */\n      add\n        /* \"#utility.yul\":18222:18280   */\n      mstore\n        /* \"#utility.yul\":18314:18321   */\n      0x207a65726f000000000000000000000000000000000000000000000000000000\n        /* \"#utility.yul\":18309:18311   */\n      0x20\n        /* \"#utility.yul\":18301:18307   */\n      dup3\n        /* \"#utility.yul\":18297:18312   */\n      add\n        /* \"#utility.yul\":18290:18322   */\n      mstore\n        /* \"#utility.yul\":18105:18329   */\n      pop\n      jump\t// out\n        /* \"#utility.yul\":18335:18701   */\n    tag_428:\n        /* \"#utility.yul\":18477:18480   */\n      0x00\n        /* \"#utility.yul\":18498:18565   */\n      tag_630\n        /* \"#utility.yul\":18562:18564   */\n      0x25\n        /* \"#utility.yul\":18557:18560   */\n      dup4\n        /* \"#utility.yul\":18498:18565   */\n      tag_389\n      jump\t// in\n    tag_630:\n        /* \"#utility.yul\":18491:18565   */\n      swap2\n      pop\n        /* \"#utility.yul\":18574:18667   */\n      tag_631\n        /* \"#utility.yul\":18663:18666   */\n      dup3\n        /* \"#utility.yul\":18574:18667   */\n      tag_427\n      jump\t// in\n    tag_631:\n        /* \"#utility.yul\":18692:18694   */\n      0x40\n        /* \"#utility.yul\":18687:18690   */\n      dup3\n        /* \"#utility.yul\":18683:18695   */\n      add\n        /* \"#utility.yul\":18676:18695   */\n      swap1\n      pop\n        /* \"#utility.yul\":18335:18701   */\n      swap2\n      swap1\n      pop\n      jump\t// out\n        /* \"#utility.yul\":18707:19126   */\n    tag_287:\n        /* \"#utility.yul\":18873:18877   */\n      0x00\n        /* \"#utility.yul\":18911:18913   */\n      0x20\n        /* \"#utility.yul\":18900:18909   */\n      dup3\n        /* \"#utility.yul\":18896:18914   */\n      add\n        /* \"#utility.yul\":18888:18914   */\n      swap1\n      pop\n        /* \"#utility.yul\":18960:18969   */\n      dup2\n        /* \"#utility.yul\":18954:18958   */\n      dup2\n        /* \"#utility.yul\":18950:18970   */\n      sub\n        /* \"#utility.yul\":18946:18947   */\n      0x00\n        /* \"#utility.yul\":18935:18944   */\n      dup4\n        /* \"#utility.yul\":18931:18948   */\n      add\n        /* \"#utility.yul\":18924:18971   */\n      mstore\n        /* \"#utility.yul\":18988:19119   */\n      tag_633\n        /* \"#utility.yul\":19114:19118   */\n      dup2\n        /* \"#utility.yul\":18988:19119   */\n      tag_428\n      jump\t// in\n    tag_633:\n        /* \"#utility.yul\":18980:19119   */\n      swap1\n      pop\n        /* \"#utility.yul\":18707:19126   */\n      swap2\n      swap1\n      pop\n      jump\t// out\n        /* \"#utility.yul\":19132:19353   */\n    tag_429:\n        /* \"#utility.yul\":19272:19306   */\n      0x416d6f756e74206f6620616d6f756e7455736474496e2063616e6e6f74206265\n        /* \"#utility.yul\":19268:19269   */\n      0x00\n        /* \"#utility.yul\":19260:19266   */\n      dup3\n        /* \"#utility.yul\":19256:19270   */\n      add\n        /* \"#utility.yul\":19249:19307   */\n      mstore\n        /* \"#utility.yul\":19341:19345   */\n      0x2030000000000000000000000000000000000000000000000000000000000000\n        /* \"#utility.yul\":19336:19338   */\n      0x20\n        /* \"#utility.yul\":19328:19334   */\n      dup3\n        /* \"#utility.yul\":19324:19339   */\n      add\n        /* \"#utility.yul\":19317:19346   */\n      mstore\n        /* \"#utility.yul\":19132:19353   */\n      pop\n      jump\t// out\n        /* \"#utility.yul\":19359:19725   */\n    tag_430:\n        /* \"#utility.yul\":19501:19504   */\n      0x00\n        /* \"#utility.yul\":19522:19589   */\n      tag_636\n        /* \"#utility.yul\":19586:19588   */\n      0x22\n        /* \"#utility.yul\":19581:19584   */\n      dup4\n        /* \"#utility.yul\":19522:19589   */\n      tag_389\n      jump\t// in\n    tag_636:\n        /* \"#utility.yul\":19515:19589   */\n      swap2\n      pop\n        /* \"#utility.yul\":19598:19691   */\n      tag_637\n        /* \"#utility.yul\":19687:19690   */\n      dup3\n        /* \"#utility.yul\":19598:19691   */\n      tag_429\n      jump\t// in\n    tag_637:\n        /* \"#utility.yul\":19716:19718   */\n      0x40\n        /* \"#utility.yul\":19711:19714   */\n      dup3\n        /* \"#utility.yul\":19707:19719   */\n      add\n        /* \"#utility.yul\":19700:19719   */\n      swap1\n      pop\n        /* \"#utility.yul\":19359:19725   */\n      swap2\n      swap1\n      pop\n      jump\t// out\n        /* \"#utility.yul\":19731:20150   */\n    tag_295:\n        /* \"#utility.yul\":19897:19901   */\n      0x00\n        /* \"#utility.yul\":19935:19937   */\n      0x20\n        /* \"#utility.yul\":19924:19933   */\n      dup3\n        /* \"#utility.yul\":19920:19938   */\n      add\n        /* \"#utility.yul\":19912:19938   */\n      swap1\n      pop\n        /* \"#utility.yul\":19984:19993   */\n      dup2\n        /* \"#utility.yul\":19978:19982   */\n      dup2\n        /* \"#utility.yul\":19974:19994   */\n      sub\n        /* \"#utility.yul\":19970:19971   */\n      0x00\n        /* \"#utility.yul\":19959:19968   */\n      dup4\n        /* \"#utility.yul\":19955:19972   */\n      add\n        /* \"#utility.yul\":19948:19995   */\n      mstore\n        /* \"#utility.yul\":20012:20143   */\n      tag_639\n        /* \"#utility.yul\":20138:20142   */\n      dup2\n        /* \"#utility.yul\":20012:20143   */\n      tag_430\n      jump\t// in\n    tag_639:\n        /* \"#utility.yul\":20004:20143   */\n      swap1\n      pop\n        /* \"#utility.yul\":19731:20150   */\n      swap2\n      swap1\n      pop\n      jump\t// out\n        /* \"#utility.yul\":20156:20379   */\n    tag_431:\n        /* \"#utility.yul\":20296:20330   */\n      0x45524332303a20617070726f76652066726f6d20746865207a65726f20616464\n        /* \"#utility.yul\":20292:20293   */\n      0x00\n        /* \"#utility.yul\":20284:20290   */\n      dup3\n        /* \"#utility.yul\":20280:20294   */\n      add\n        /* \"#utility.yul\":20273:20331   */\n      mstore\n        /* \"#utility.yul\":20365:20371   */\n      0x7265737300000000000000000000000000000000000000000000000000000000\n        /* \"#utility.yul\":20360:20362   */\n      0x20\n        /* \"#utility.yul\":20352:20358   */\n      dup3\n        /* \"#utility.yul\":20348:20363   */\n      add\n        /* \"#utility.yul\":20341:20372   */\n      mstore\n        /* \"#utility.yul\":20156:20379   */\n      pop\n      jump\t// out\n        /* \"#utility.yul\":20385:20751   */\n    tag_432:\n        /* \"#utility.yul\":20527:20530   */\n      0x00\n        /* \"#utility.yul\":20548:20615   */\n      tag_642\n        /* \"#utility.yul\":20612:20614   */\n      0x24\n        /* \"#utility.yul\":20607:20610   */\n      dup4\n        /* \"#utility.yul\":20548:20615   */\n      tag_389\n      jump\t// in\n    tag_642:\n        /* \"#utility.yul\":20541:20615   */\n      swap2\n      pop\n        /* \"#utility.yul\":20624:20717   */\n      tag_643\n        /* \"#utility.yul\":20713:20716   */\n      dup3\n        /* \"#utility.yul\":20624:20717   */\n      tag_431\n      jump\t// in\n    tag_643:\n        /* \"#utility.yul\":20742:20744   */\n      0x40\n        /* \"#utility.yul\":20737:20740   */\n      dup3\n        /* \"#utility.yul\":20733:20745   */\n      add\n        /* \"#utility.yul\":20726:20745   */\n      swap1\n      pop\n        /* \"#utility.yul\":20385:20751   */\n      swap2\n      swap1\n      pop\n      jump\t// out\n        /* \"#utility.yul\":20757:21176   */\n    tag_330:\n        /* \"#utility.yul\":20923:20927   */\n      0x00\n        /* \"#utility.yul\":20961:20963   */\n      0x20\n        /* \"#utility.yul\":20950:20959   */\n      dup3\n        /* \"#utility.yul\":20946:20964   */\n      add\n        /* \"#utility.yul\":20938:20964   */\n      swap1\n      pop\n        /* \"#utility.yul\":21010:21019   */\n      dup2\n        /* \"#utility.yul\":21004:21008   */\n      dup2\n        /* \"#utility.yul\":21000:21020   */\n      sub\n        /* \"#utility.yul\":20996:20997   */\n      0x00\n        /* \"#utility.yul\":20985:20994   */\n      dup4\n        /* \"#utility.yul\":20981:20998   */\n      add\n        /* \"#utility.yul\":20974:21021   */\n      mstore\n        /* \"#utility.yul\":21038:21169   */\n      tag_645\n        /* \"#utility.yul\":21164:21168   */\n      dup2\n        /* \"#utility.yul\":21038:21169   */\n      tag_432\n      jump\t// in\n    tag_645:\n        /* \"#utility.yul\":21030:21169   */\n      swap1\n      pop\n        /* \"#utility.yul\":20757:21176   */\n      swap2\n      swap1\n      pop\n      jump\t// out\n        /* \"#utility.yul\":21182:21403   */\n    tag_433:\n        /* \"#utility.yul\":21322:21356   */\n      0x45524332303a20617070726f766520746f20746865207a65726f206164647265\n        /* \"#utility.yul\":21318:21319   */\n      0x00\n        /* \"#utility.yul\":21310:21316   */\n      dup3\n        /* \"#utility.yul\":21306:21320   */\n      add\n        /* \"#utility.yul\":21299:21357   */\n      mstore\n        /* \"#utility.yul\":21391:21395   */\n      0x7373000000000000000000000000000000000000000000000000000000000000\n        /* \"#utility.yul\":21386:21388   */\n      0x20\n        /* \"#utility.yul\":21378:21384   */\n      dup3\n        /* \"#utility.yul\":21374:21389   */\n      add\n        /* \"#utility.yul\":21367:21396   */\n      mstore\n        /* \"#utility.yul\":21182:21403   */\n      pop\n      jump\t// out\n        /* \"#utility.yul\":21409:21775   */\n    tag_434:\n        /* \"#utility.yul\":21551:21554   */\n      0x00\n        /* \"#utility.yul\":21572:21639   */\n      tag_648\n        /* \"#utility.yul\":21636:21638   */\n      0x22\n        /* \"#utility.yul\":21631:21634   */\n      dup4\n        /* \"#utility.yul\":21572:21639   */\n      tag_389\n      jump\t// in\n    tag_648:\n        /* \"#utility.yul\":21565:21639   */\n      swap2\n      pop\n        /* \"#utility.yul\":21648:21741   */\n      tag_649\n        /* \"#utility.yul\":21737:21740   */\n      dup3\n        /* \"#utility.yul\":21648:21741   */\n      tag_433\n      jump\t// in\n    tag_649:\n        /* \"#utility.yul\":21766:21768   */\n      0x40\n        /* \"#utility.yul\":21761:21764   */\n      dup3\n        /* \"#utility.yul\":21757:21769   */\n      add\n        /* \"#utility.yul\":21750:21769   */\n      swap1\n      pop\n        /* \"#utility.yul\":21409:21775   */\n      swap2\n      swap1\n      pop\n      jump\t// out\n        /* \"#utility.yul\":21781:22200   */\n    tag_333:\n        /* \"#utility.yul\":21947:21951   */\n      0x00\n        /* \"#utility.yul\":21985:21987   */\n      0x20\n        /* \"#utility.yul\":21974:21983   */\n      dup3\n        /* \"#utility.yul\":21970:21988   */\n      add\n        /* \"#utility.yul\":21962:21988   */\n      swap1\n      pop\n        /* \"#utility.yul\":22034:22043   */\n      dup2\n        /* \"#utility.yul\":22028:22032   */\n      dup2\n        /* \"#utility.yul\":22024:22044   */\n      sub\n        /* \"#utility.yul\":22020:22021   */\n      0x00\n        /* \"#utility.yul\":22009:22018   */\n      dup4\n        /* \"#utility.yul\":22005:22022   */\n      add\n        /* \"#utility.yul\":21998:22045   */\n      mstore\n        /* \"#utility.yul\":22062:22193   */\n      tag_651\n        /* \"#utility.yul\":22188:22192   */\n      dup2\n        /* \"#utility.yul\":22062:22193   */\n      tag_434\n      jump\t// in\n    tag_651:\n        /* \"#utility.yul\":22054:22193   */\n      swap1\n      pop\n        /* \"#utility.yul\":21781:22200   */\n      swap2\n      swap1\n      pop\n      jump\t// out\n        /* \"#utility.yul\":22206:22385   */\n    tag_435:\n        /* \"#utility.yul\":22346:22377   */\n      0x45524332303a20696e73756666696369656e7420616c6c6f77616e6365000000\n        /* \"#utility.yul\":22342:22343   */\n      0x00\n        /* \"#utility.yul\":22334:22340   */\n      dup3\n        /* \"#utility.yul\":22330:22344   */\n      add\n        /* \"#utility.yul\":22323:22378   */\n      mstore\n        /* \"#utility.yul\":22206:22385   */\n      pop\n      jump\t// out\n        /* \"#utility.yul\":22391:22757   */\n    tag_436:\n        /* \"#utility.yul\":22533:22536   */\n      0x00\n        /* \"#utility.yul\":22554:22621   */\n      tag_654\n        /* \"#utility.yul\":22618:22620   */\n      0x1d\n        /* \"#utility.yul\":22613:22616   */\n      dup4\n        /* \"#utility.yul\":22554:22621   */\n      tag_389\n      jump\t// in\n    tag_654:\n        /* \"#utility.yul\":22547:22621   */\n      swap2\n      pop\n        /* \"#utility.yul\":22630:22723   */\n      tag_655\n        /* \"#utility.yul\":22719:22722   */\n      dup3\n        /* \"#utility.yul\":22630:22723   */\n      tag_435\n      jump\t// in\n    tag_655:\n        /* \"#utility.yul\":22748:22750   */\n      0x20\n        /* \"#utility.yul\":22743:22746   */\n      dup3\n        /* \"#utility.yul\":22739:22751   */\n      add\n        /* \"#utility.yul\":22732:22751   */\n      swap1\n      pop\n        /* \"#utility.yul\":22391:22757   */\n      swap2\n      swap1\n      pop\n      jump\t// out\n        /* \"#utility.yul\":22763:23182   */\n    tag_340:\n        /* \"#utility.yul\":22929:22933   */\n      0x00\n        /* \"#utility.yul\":22967:22969   */\n      0x20\n        /* \"#utility.yul\":22956:22965   */\n      dup3\n        /* \"#utility.yul\":22952:22970   */\n      add\n        /* \"#utility.yul\":22944:22970   */\n      swap1\n      pop\n        /* \"#utility.yul\":23016:23025   */\n      dup2\n        /* \"#utility.yul\":23010:23014   */\n      dup2\n        /* \"#utility.yul\":23006:23026   */\n      sub\n        /* \"#utility.yul\":23002:23003   */\n      0x00\n        /* \"#utility.yul\":22991:23000   */\n      dup4\n        /* \"#utility.yul\":22987:23004   */\n      add\n        /* \"#utility.yul\":22980:23027   */\n      mstore\n        /* \"#utility.yul\":23044:23175   */\n      tag_657\n        /* \"#utility.yul\":23170:23174   */\n      dup2\n        /* \"#utility.yul\":23044:23175   */\n      tag_436\n      jump\t// in\n    tag_657:\n        /* \"#utility.yul\":23036:23175   */\n      swap1\n      pop\n        /* \"#utility.yul\":22763:23182   */\n      swap2\n      swap1\n      pop\n      jump\t// out\n        /* \"#utility.yul\":23188:23412   */\n    tag_437:\n        /* \"#utility.yul\":23328:23362   */\n      0x45524332303a207472616e736665722066726f6d20746865207a65726f206164\n        /* \"#utility.yul\":23324:23325   */\n      0x00\n        /* \"#utility.yul\":23316:23322   */\n      dup3\n        /* \"#utility.yul\":23312:23326   */\n      add\n        /* \"#utility.yul\":23305:23363   */\n      mstore\n        /* \"#utility.yul\":23397:23404   */\n      0x6472657373000000000000000000000000000000000000000000000000000000\n        /* \"#utility.yul\":23392:23394   */\n      0x20\n        /* \"#utility.yul\":23384:23390   */\n      dup3\n        /* \"#utility.yul\":23380:23395   */\n      add\n        /* \"#utility.yul\":23373:23405   */\n      mstore\n        /* \"#utility.yul\":23188:23412   */\n      pop\n      jump\t// out\n        /* \"#utility.yul\":23418:23784   */\n    tag_438:\n        /* \"#utility.yul\":23560:23563   */\n      0x00\n        /* \"#utility.yul\":23581:23648   */\n      tag_660\n        /* \"#utility.yul\":23645:23647   */\n      0x25\n        /* \"#utility.yul\":23640:23643   */\n      dup4\n        /* \"#utility.yul\":23581:23648   */\n      tag_389\n      jump\t// in\n    tag_660:\n        /* \"#utility.yul\":23574:23648   */\n      swap2\n      pop\n        /* \"#utility.yul\":23657:23750   */\n      tag_661\n        /* \"#utility.yul\":23746:23749   */\n      dup3\n        /* \"#utility.yul\":23657:23750   */\n      tag_437\n      jump\t// in\n    tag_661:\n        /* \"#utility.yul\":23775:23777   */\n      0x40\n        /* \"#utility.yul\":23770:23773   */\n      dup3\n        /* \"#utility.yul\":23766:23778   */\n      add\n        /* \"#utility.yul\":23759:23778   */\n      swap1\n      pop\n        /* \"#utility.yul\":23418:23784   */\n      swap2\n      swap1\n      pop\n      jump\t// out\n        /* \"#utility.yul\":23790:24209   */\n    tag_345:\n        /* \"#utility.yul\":23956:23960   */\n      0x00\n        /* \"#utility.yul\":23994:23996   */\n      0x20\n        /* \"#utility.yul\":23983:23992   */\n      dup3\n        /* \"#utility.yul\":23979:23997   */\n      add\n        /* \"#utility.yul\":23971:23997   */\n      swap1\n      pop\n        /* \"#utility.yul\":24043:24052   */\n      dup2\n        /* \"#utility.yul\":24037:24041   */\n      dup2\n        /* \"#utility.yul\":24033:24053   */\n      sub\n        /* \"#utility.yul\":24029:24030   */\n      0x00\n        /* \"#utility.yul\":24018:24027   */\n      dup4\n        /* \"#utility.yul\":24014:24031   */\n      add\n        /* \"#utility.yul\":24007:24054   */\n      mstore\n        /* \"#utility.yul\":24071:24202   */\n      tag_663\n        /* \"#utility.yul\":24197:24201   */\n      dup2\n        /* \"#utility.yul\":24071:24202   */\n      tag_438\n      jump\t// in\n    tag_663:\n        /* \"#utility.yul\":24063:24202   */\n      swap1\n      pop\n        /* \"#utility.yul\":23790:24209   */\n      swap2\n      swap1\n      pop\n      jump\t// out\n        /* \"#utility.yul\":24215:24437   */\n    tag_439:\n        /* \"#utility.yul\":24355:24389   */\n      0x45524332303a207472616e7366657220746f20746865207a65726f2061646472\n        /* \"#utility.yul\":24351:24352   */\n      0x00\n        /* \"#utility.yul\":24343:24349   */\n      dup3\n        /* \"#utility.yul\":24339:24353   */\n      add\n        /* \"#utility.yul\":24332:24390   */\n      mstore\n        /* \"#utility.yul\":24424:24429   */\n      0x6573730000000000000000000000000000000000000000000000000000000000\n        /* \"#utility.yul\":24419:24421   */\n      0x20\n        /* \"#utility.yul\":24411:24417   */\n      dup3\n        /* \"#utility.yul\":24407:24422   */\n      add\n        /* \"#utility.yul\":24400:24430   */\n      mstore\n        /* \"#utility.yul\":24215:24437   */\n      pop\n      jump\t// out\n        /* \"#utility.yul\":24443:24809   */\n    tag_440:\n        /* \"#utility.yul\":24585:24588   */\n      0x00\n        /* \"#utility.yul\":24606:24673   */\n      tag_666\n        /* \"#utility.yul\":24670:24672   */\n      0x23\n        /* \"#utility.yul\":24665:24668   */\n      dup4\n        /* \"#utility.yul\":24606:24673   */\n      tag_389\n      jump\t// in\n    tag_666:\n        /* \"#utility.yul\":24599:24673   */\n      swap2\n      pop\n        /* \"#utility.yul\":24682:24775   */\n      tag_667\n        /* \"#utility.yul\":24771:24774   */\n      dup3\n        /* \"#utility.yul\":24682:24775   */\n      tag_439\n      jump\t// in\n    tag_667:\n        /* \"#utility.yul\":24800:24802   */\n      0x40\n        /* \"#utility.yul\":24795:24798   */\n      dup3\n        /* \"#utility.yul\":24791:24803   */\n      add\n        /* \"#utility.yul\":24784:24803   */\n      swap1\n      pop\n        /* \"#utility.yul\":24443:24809   */\n      swap2\n      swap1\n      pop\n      jump\t// out\n        /* \"#utility.yul\":24815:25234   */\n    tag_348:\n        /* \"#utility.yul\":24981:24985   */\n      0x00\n        /* \"#utility.yul\":25019:25021   */\n      0x20\n        /* \"#utility.yul\":25008:25017   */\n      dup3\n        /* \"#utility.yul\":25004:25022   */\n      add\n        /* \"#utility.yul\":24996:25022   */\n      swap1\n      pop\n        /* \"#utility.yul\":25068:25077   */\n      dup2\n        /* \"#utility.yul\":25062:25066   */\n      dup2\n        /* \"#utility.yul\":25058:25078   */\n      sub\n        /* \"#utility.yul\":25054:25055   */\n      0x00\n        /* \"#utility.yul\":25043:25052   */\n      dup4\n        /* \"#utility.yul\":25039:25056   */\n      add\n        /* \"#utility.yul\":25032:25079   */\n      mstore\n        /* \"#utility.yul\":25096:25227   */\n      tag_669\n        /* \"#utility.yul\":25222:25226   */\n      dup2\n        /* \"#utility.yul\":25096:25227   */\n      tag_440\n      jump\t// in\n    tag_669:\n        /* \"#utility.yul\":25088:25227   */\n      swap1\n      pop\n        /* \"#utility.yul\":24815:25234   */\n      swap2\n      swap1\n      pop\n      jump\t// out\n        /* \"#utility.yul\":25240:25465   */\n    tag_441:\n        /* \"#utility.yul\":25380:25414   */\n      0x45524332303a207472616e7366657220616d6f756e7420657863656564732062\n        /* \"#utility.yul\":25376:25377   */\n      0x00\n        /* \"#utility.yul\":25368:25374   */\n      dup3\n        /* \"#utility.yul\":25364:25378   */\n      add\n        /* \"#utility.yul\":25357:25415   */\n      mstore\n        /* \"#utility.yul\":25449:25457   */\n      0x616c616e63650000000000000000000000000000000000000000000000000000\n        /* \"#utility.yul\":25444:25446   */\n      0x20\n        /* \"#utility.yul\":25436:25442   */\n      dup3\n        /* \"#utility.yul\":25432:25447   */\n      add\n        /* \"#utility.yul\":25425:25458   */\n      mstore\n        /* \"#utility.yul\":25240:25465   */\n      pop\n      jump\t// out\n        /* \"#utility.yul\":25471:25837   */\n    tag_442:\n        /* \"#utility.yul\":25613:25616   */\n      0x00\n        /* \"#utility.yul\":25634:25701   */\n      tag_672\n        /* \"#utility.yul\":25698:25700   */\n      0x26\n        /* \"#utility.yul\":25693:25696   */\n      dup4\n        /* \"#utility.yul\":25634:25701   */\n      tag_389\n      jump\t// in\n    tag_672:\n        /* \"#utility.yul\":25627:25701   */\n      swap2\n      pop\n        /* \"#utility.yul\":25710:25803   */\n      tag_673\n        /* \"#utility.yul\":25799:25802   */\n      dup3\n        /* \"#utility.yul\":25710:25803   */\n      tag_441\n      jump\t// in\n    tag_673:\n        /* \"#utility.yul\":25828:25830   */\n      0x40\n        /* \"#utility.yul\":25823:25826   */\n      dup3\n        /* \"#utility.yul\":25819:25831   */\n      add\n        /* \"#utility.yul\":25812:25831   */\n      swap1\n      pop\n        /* \"#utility.yul\":25471:25837   */\n      swap2\n      swap1\n      pop\n      jump\t// out\n        /* \"#utility.yul\":25843:26262   */\n    tag_353:\n        /* \"#utility.yul\":26009:26013   */\n      0x00\n        /* \"#utility.yul\":26047:26049   */\n      0x20\n        /* \"#utility.yul\":26036:26045   */\n      dup3\n        /* \"#utility.yul\":26032:26050   */\n      add\n        /* \"#utility.yul\":26024:26050   */\n      swap1\n      pop\n        /* \"#utility.yul\":26096:26105   */\n      dup2\n        /* \"#utility.yul\":26090:26094   */\n      dup2\n        /* \"#utility.yul\":26086:26106   */\n      sub\n        /* \"#utility.yul\":26082:26083   */\n      0x00\n        /* \"#utility.yul\":26071:26080   */\n      dup4\n        /* \"#utility.yul\":26067:26084   */\n      add\n        /* \"#utility.yul\":26060:26107   */\n      mstore\n        /* \"#utility.yul\":26124:26255   */\n      tag_675\n        /* \"#utility.yul\":26250:26254   */\n      dup2\n        /* \"#utility.yul\":26124:26255   */\n      tag_442\n      jump\t// in\n    tag_675:\n        /* \"#utility.yul\":26116:26255   */\n      swap1\n      pop\n        /* \"#utility.yul\":25843:26262   */\n      swap2\n      swap1\n      pop\n      jump\t// out\n        /* \"#utility.yul\":26268:26488   */\n    tag_443:\n        /* \"#utility.yul\":26408:26442   */\n      0x45524332303a206275726e2066726f6d20746865207a65726f20616464726573\n        /* \"#utility.yul\":26404:26405   */\n      0x00\n        /* \"#utility.yul\":26396:26402   */\n      dup3\n        /* \"#utility.yul\":26392:26406   */\n      add\n        /* \"#utility.yul\":26385:26443   */\n      mstore\n        /* \"#utility.yul\":26477:26480   */\n      0x7300000000000000000000000000000000000000000000000000000000000000\n        /* \"#utility.yul\":26472:26474   */\n      0x20\n        /* \"#utility.yul\":26464:26470   */\n      dup3\n        /* \"#utility.yul\":26460:26475   */\n      add\n        /* \"#utility.yul\":26453:26481   */\n      mstore\n        /* \"#utility.yul\":26268:26488   */\n      pop\n      jump\t// out\n        /* \"#utility.yul\":26494:26860   */\n    tag_444:\n        /* \"#utility.yul\":26636:26639   */\n      0x00\n        /* \"#utility.yul\":26657:26724   */\n      tag_678\n        /* \"#utility.yul\":26721:26723   */\n      0x21\n        /* \"#utility.yul\":26716:26719   */\n      dup4\n        /* \"#utility.yul\":26657:26724   */\n      tag_389\n      jump\t// in\n    tag_678:\n        /* \"#utility.yul\":26650:26724   */\n      swap2\n      pop\n        /* \"#utility.yul\":26733:26826   */\n      tag_679\n        /* \"#utility.yul\":26822:26825   */\n      dup3\n        /* \"#utility.yul\":26733:26826   */\n      tag_443\n      jump\t// in\n    tag_679:\n        /* \"#utility.yul\":26851:26853   */\n      0x40\n        /* \"#utility.yul\":26846:26849   */\n      dup3\n        /* \"#utility.yul\":26842:26854   */\n      add\n        /* \"#utility.yul\":26835:26854   */\n      swap1\n      pop\n        /* \"#utility.yul\":26494:26860   */\n      swap2\n      swap1\n      pop\n      jump\t// out\n        /* \"#utility.yul\":26866:27285   */\n    tag_360:\n        /* \"#utility.yul\":27032:27036   */\n      0x00\n        /* \"#utility.yul\":27070:27072   */\n      0x20\n        /* \"#utility.yul\":27059:27068   */\n      dup3\n        /* \"#utility.yul\":27055:27073   */\n      add\n        /* \"#utility.yul\":27047:27073   */\n      swap1\n      pop\n        /* \"#utility.yul\":27119:27128   */\n      dup2\n        /* \"#utility.yul\":27113:27117   */\n      dup2\n        /* \"#utility.yul\":27109:27129   */\n      sub\n        /* \"#utility.yul\":27105:27106   */\n      0x00\n        /* \"#utility.yul\":27094:27103   */\n      dup4\n        /* \"#utility.yul\":27090:27107   */\n      add\n        /* \"#utility.yul\":27083:27130   */\n      mstore\n        /* \"#utility.yul\":27147:27278   */\n      tag_681\n        /* \"#utility.yul\":27273:27277   */\n      dup2\n        /* \"#utility.yul\":27147:27278   */\n      tag_444\n      jump\t// in\n    tag_681:\n        /* \"#utility.yul\":27139:27278   */\n      swap1\n      pop\n        /* \"#utility.yul\":26866:27285   */\n      swap2\n      swap1\n      pop\n      jump\t// out\n        /* \"#utility.yul\":27291:27512   */\n    tag_445:\n        /* \"#utility.yul\":27431:27465   */\n      0x45524332303a206275726e20616d6f756e7420657863656564732062616c616e\n        /* \"#utility.yul\":27427:27428   */\n      0x00\n        /* \"#utility.yul\":27419:27425   */\n      dup3\n        /* \"#utility.yul\":27415:27429   */\n      add\n        /* \"#utility.yul\":27408:27466   */\n      mstore\n        /* \"#utility.yul\":27500:27504   */\n      0x6365000000000000000000000000000000000000000000000000000000000000\n        /* \"#utility.yul\":27495:27497   */\n      0x20\n        /* \"#utility.yul\":27487:27493   */\n      dup3\n        /* \"#utility.yul\":27483:27498   */\n      add\n        /* \"#utility.yul\":27476:27505   */\n      mstore\n        /* \"#utility.yul\":27291:27512   */\n      pop\n      jump\t// out\n        /* \"#utility.yul\":27518:27884   */\n    tag_446:\n        /* \"#utility.yul\":27660:27663   */\n      0x00\n        /* \"#utility.yul\":27681:27748   */\n      tag_684\n        /* \"#utility.yul\":27745:27747   */\n      0x22\n        /* \"#utility.yul\":27740:27743   */\n      dup4\n        /* \"#utility.yul\":27681:27748   */\n      tag_389\n      jump\t// in\n    tag_684:\n        /* \"#utility.yul\":27674:27748   */\n      swap2\n      pop\n        /* \"#utility.yul\":27757:27850   */\n      tag_685\n        /* \"#utility.yul\":27846:27849   */\n      dup3\n        /* \"#utility.yul\":27757:27850   */\n      tag_445\n      jump\t// in\n    tag_685:\n        /* \"#utility.yul\":27875:27877   */\n      0x40\n        /* \"#utility.yul\":27870:27873   */\n      dup3\n        /* \"#utility.yul\":27866:27878   */\n      add\n        /* \"#utility.yul\":27859:27878   */\n      swap1\n      pop\n        /* \"#utility.yul\":27518:27884   */\n      swap2\n      swap1\n      pop\n      jump\t// out\n        /* \"#utility.yul\":27890:28309   */\n    tag_364:\n        /* \"#utility.yul\":28056:28060   */\n      0x00\n        /* \"#utility.yul\":28094:28096   */\n      0x20\n        /* \"#utility.yul\":28083:28092   */\n      dup3\n        /* \"#utility.yul\":28079:28097   */\n      add\n        /* \"#utility.yul\":28071:28097   */\n      swap1\n      pop\n        /* \"#utility.yul\":28143:28152   */\n      dup2\n        /* \"#utility.yul\":28137:28141   */\n      dup2\n        /* \"#utility.yul\":28133:28153   */\n      sub\n        /* \"#utility.yul\":28129:28130   */\n      0x00\n        /* \"#utility.yul\":28118:28127   */\n      dup4\n        /* \"#utility.yul\":28114:28131   */\n      add\n        /* \"#utility.yul\":28107:28154   */\n      mstore\n        /* \"#utility.yul\":28171:28302   */\n      tag_687\n        /* \"#utility.yul\":28297:28301   */\n      dup2\n        /* \"#utility.yul\":28171:28302   */\n      tag_446\n      jump\t// in\n    tag_687:\n        /* \"#utility.yul\":28163:28302   */\n      swap1\n      pop\n        /* \"#utility.yul\":27890:28309   */\n      swap2\n      swap1\n      pop\n      jump\t// out\n        /* \"#utility.yul\":28315:28496   */\n    tag_447:\n        /* \"#utility.yul\":28455:28488   */\n      0x45524332303a206d696e7420746f20746865207a65726f206164647265737300\n        /* \"#utility.yul\":28451:28452   */\n      0x00\n        /* \"#utility.yul\":28443:28449   */\n      dup3\n        /* \"#utility.yul\":28439:28453   */\n      add\n        /* \"#utility.yul\":28432:28489   */\n      mstore\n        /* \"#utility.yul\":28315:28496   */\n      pop\n      jump\t// out\n        /* \"#utility.yul\":28502:28868   */\n    tag_448:\n        /* \"#utility.yul\":28644:28647   */\n      0x00\n        /* \"#utility.yul\":28665:28732   */\n      tag_690\n        /* \"#utility.yul\":28729:28731   */\n      0x1f\n        /* \"#utility.yul\":28724:28727   */\n      dup4\n        /* \"#utility.yul\":28665:28732   */\n      tag_389\n      jump\t// in\n    tag_690:\n        /* \"#utility.yul\":28658:28732   */\n      swap2\n      pop\n        /* \"#utility.yul\":28741:28834   */\n      tag_691\n        /* \"#utility.yul\":28830:28833   */\n      dup3\n        /* \"#utility.yul\":28741:28834   */\n      tag_447\n      jump\t// in\n    tag_691:\n        /* \"#utility.yul\":28859:28861   */\n      0x20\n        /* \"#utility.yul\":28854:28857   */\n      dup3\n        /* \"#utility.yul\":28850:28862   */\n      add\n        /* \"#utility.yul\":28843:28862   */\n      swap1\n      pop\n        /* \"#utility.yul\":28502:28868   */\n      swap2\n      swap1\n      pop\n      jump\t// out\n        /* \"#utility.yul\":28874:29293   */\n    tag_381:\n        /* \"#utility.yul\":29040:29044   */\n      0x00\n        /* \"#utility.yul\":29078:29080   */\n      0x20\n        /* \"#utility.yul\":29067:29076   */\n      dup3\n        /* \"#utility.yul\":29063:29081   */\n      add\n        /* \"#utility.yul\":29055:29081   */\n      swap1\n      pop\n        /* \"#utility.yul\":29127:29136   */\n      dup2\n        /* \"#utility.yul\":29121:29125   */\n      dup2\n        /* \"#utility.yul\":29117:29137   */\n      sub\n        /* \"#utility.yul\":29113:29114   */\n      0x00\n        /* \"#utility.yul\":29102:29111   */\n      dup4\n        /* \"#utility.yul\":29098:29115   */\n      add\n        /* \"#utility.yul\":29091:29138   */\n      mstore\n        /* \"#utility.yul\":29155:29286   */\n      tag_693\n        /* \"#utility.yul\":29281:29285   */\n      dup2\n        /* \"#utility.yul\":29155:29286   */\n      tag_448\n      jump\t// in\n    tag_693:\n        /* \"#utility.yul\":29147:29286   */\n      swap1\n      pop\n        /* \"#utility.yul\":28874:29293   */\n      swap2\n      swap1\n      pop\n      jump\t// out\n\n    auxdata: 0xa2646970667358221220c153c56fc2effc01470242365bfc961bb6b6493cfdcfb48833b0e9d8689f811f64736f6c63430008120033\n}\n",
				"bytecode": {
					"linkReferences": {},
					"object": "60806040523480156200001157600080fd5b506040516200386a3803806200386a833981810160405281019062000037919062000270565b6040518060400160405280600781526020017f63626973776170000000000000000000000000000000000000000000000000008152506040518060400160405280600381526020017f43424900000000000000000000000000000000000000000000000000000000008152508160039081620000b4919062000531565b508060049081620000c6919062000531565b505050600073ffffffffffffffffffffffffffffffffffffffff168273ffffffffffffffffffffffffffffffffffffffff16036200013b576040517f08c379a0000000000000000000000000000000000000000000000000000000008152600401620001329062000679565b60405180910390fd5b81600560006101000a81548173ffffffffffffffffffffffffffffffffffffffff021916908373ffffffffffffffffffffffffffffffffffffffff16021790555080600660006101000a81548173ffffffffffffffffffffffffffffffffffffffff021916908373ffffffffffffffffffffffffffffffffffffffff16021790555033600760006101000a81548173ffffffffffffffffffffffffffffffffffffffff021916908373ffffffffffffffffffffffffffffffffffffffff16021790555050506200069b565b600080fd5b600073ffffffffffffffffffffffffffffffffffffffff82169050919050565b600062000238826200020b565b9050919050565b6200024a816200022b565b81146200025657600080fd5b50565b6000815190506200026a816200023f565b92915050565b600080604083850312156200028a576200028962000206565b5b60006200029a8582860162000259565b9250506020620002ad8582860162000259565b9150509250929050565b600081519050919050565b7f4e487b7100000000000000000000000000000000000000000000000000000000600052604160045260246000fd5b7f4e487b7100000000000000000000000000000000000000000000000000000000600052602260045260246000fd5b600060028204905060018216806200033957607f821691505b6020821081036200034f576200034e620002f1565b5b50919050565b60008190508160005260206000209050919050565b60006020601f8301049050919050565b600082821b905092915050565b600060088302620003b97fffffffffffffffffffffffffffffffffffffffffffffffffffffffffffffffff826200037a565b620003c586836200037a565b95508019841693508086168417925050509392505050565b6000819050919050565b6000819050919050565b6000620004126200040c6200040684620003dd565b620003e7565b620003dd565b9050919050565b6000819050919050565b6200042e83620003f1565b620004466200043d8262000419565b84845462000387565b825550505050565b600090565b6200045d6200044e565b6200046a81848462000423565b505050565b5b8181101562000492576200048660008262000453565b60018101905062000470565b5050565b601f821115620004e157620004ab8162000355565b620004b6846200036a565b81016020851015620004c6578190505b620004de620004d5856200036a565b8301826200046f565b50505b505050565b600082821c905092915050565b60006200050660001984600802620004e6565b1980831691505092915050565b6000620005218383620004f3565b9150826002028217905092915050565b6200053c82620002b7565b67ffffffffffffffff811115620005585762000557620002c2565b5b62000564825462000320565b6200057182828562000496565b600060209050601f831160018114620005a9576000841562000594578287015190505b620005a0858262000513565b86555062000610565b601f198416620005b98662000355565b60005b82811015620005e357848901518255600182019150602085019450602081019050620005bc565b86831015620006035784890151620005ff601f891682620004f3565b8355505b6001600288020188555050505b505050505050565b600082825260208201905092915050565b7f696e76616c696420746f6b656e20616464726573730000000000000000000000600082015250565b60006200066160158362000618565b91506200066e8262000629565b602082019050919050565b60006020820190508181036000830152620006948162000652565b9050919050565b6131bf80620006ab6000396000f3fe608060405234801561001057600080fd5b506004361061014d5760003560e01c806370a08231116100c35780639d76ea581161007c5780639d76ea58146103ca578063a457c2d7146103e8578063a9059cbb14610418578063ab26daf814610448578063dd62ed3e14610464578063f140a35a146104945761014d565b806370a08231146102df57806395d89b411461030f578063966dae0e1461032d5780639ab4a4451461034b5780639c8f9f23146103695780639cd441da1461039a5761014d565b806318160ddd1161011557806318160ddd1461020b57806323b872dd1461022957806329f10c7e14610259578063313ce5671461027557806339509351146102935780636a877f7b146102c35761014d565b806306fdde03146101525780630902f1ac14610170578063095ea7b31461018f5780630b855c95146101bf5780631125f13f146101db575b600080fd5b61015a6104c4565b604051610167919061225c565b60405180910390f35b610178610556565b604051610186929190612297565b60405180910390f35b6101a960048036038101906101a4919061234f565b610699565b6040516101b691906123aa565b60405180910390f35b6101d960048036038101906101d491906123c5565b6106bc565b005b6101f560048036038101906101f09190612418565b610912565b6040516102029190612458565b60405180910390f35b6102136109d2565b6040516102209190612458565b60405180910390f35b610243600480360381019061023e9190612473565b6109dc565b60405161025091906123aa565b60405180910390f35b610273600480360381019061026e91906123c5565b610a0b565b005b61027d610cd0565b60405161028a91906124e2565b60405180910390f35b6102ad60048036038101906102a8919061234f565b610cd9565b6040516102ba91906123aa565b60405180910390f35b6102dd60048036038101906102d891906123c5565b610d10565b005b6102f960048036038101906102f491906124fd565b610f66565b6040516103069190612458565b60405180910390f35b610317610fae565b604051610324919061225c565b60405180910390f35b610335611040565b6040516103429190612539565b60405180910390f35b610353611066565b6040516103609190612539565b60405180910390f35b610383600480360381019061037e9190612554565b61108c565b604051610391929190612297565b60405180910390f35b6103b460048036038101906103af9190612581565b6112b9565b6040516103c19190612458565b60405180910390f35b6103d2611486565b6040516103df9190612539565b60405180910390f35b61040260048036038101906103fd919061234f565b6114ac565b60405161040f91906123aa565b60405180910390f35b610432600480360381019061042d919061234f565b611523565b60405161043f91906123aa565b60405180910390f35b610462600480360381019061045d91906123c5565b611546565b005b61047e600480360381019061047991906125c1565b61180b565b60405161048b9190612458565b60405180910390f35b6104ae60048036038101906104a99190612418565b611892565b6040516104bb9190612458565b60405180910390f35b6060600380546104d390612630565b80601f01602080910402602001604051908101604052809291908181526020018280546104ff90612630565b801561054c5780601f106105215761010080835404028352916020019161054c565b820191906000526020600020905b81548152906001019060200180831161052f57829003601f168201915b5050505050905090565b600080600560009054906101000a900473ffffffffffffffffffffffffffffffffffffffff1673ffffffffffffffffffffffffffffffffffffffff166370a08231306040518263ffffffff1660e01b81526004016105b49190612539565b602060405180830381865afa1580156105d1573d6000803e3d6000fd5b505050506040513d601f19601f820116820180604052508101906105f59190612676565b9150600660009054906101000a900473ffffffffffffffffffffffffffffffffffffffff1673ffffffffffffffffffffffffffffffffffffffff166370a08231306040518263ffffffff1660e01b81526004016106529190612539565b602060405180830381865afa15801561066f573d6000803e3d6000fd5b505050506040513d601f19601f820116820180604052508101906106939190612676565b90509091565b6000806106a4611952565b90506106b181858561195a565b600191505092915050565b600082116106ff576040517f08c379a00000000000000000000000000000000000000000000000000000000081526004016106f690612715565b60405180910390fd5b60008061070a610556565b91509150600560009054906101000a900473ffffffffffffffffffffffffffffffffffffffff1673ffffffffffffffffffffffffffffffffffffffff166323b872dd3330876040518463ffffffff1660e01b815260040161076d93929190612735565b6020604051808303816000875af115801561078c573d6000803e3d6000fd5b505050506040513d601f19601f820116820180604052508101906107b09190612798565b50600082856107bf91906127f4565b82866107cb9190612828565b6107d59190612899565b90508086111561081a576040517f08c379a000000000000000000000000000000000000000000000000000000000815260040161081190612916565b60405180910390fd5b600660009054906101000a900473ffffffffffffffffffffffffffffffffffffffff1673ffffffffffffffffffffffffffffffffffffffff1663a9059cbb85886040518363ffffffff1660e01b8152600401610877929190612936565b6020604051808303816000875af1158015610896573d6000803e3d6000fd5b505050506040513d601f19601f820116820180604052508101906108ba9190612798565b50848473ffffffffffffffffffffffffffffffffffffffff167fa0d6b74e5d650f4ca2beb1b87bed5bede5a1a8c6037f5a7f4ccd7844b0cf5829886040516109029190612458565b60405180910390a3505050505050565b600080600061091f610556565b915091506000600560009054906101000a900473ffffffffffffffffffffffffffffffffffffffff1673ffffffffffffffffffffffffffffffffffffffff168573ffffffffffffffffffffffffffffffffffffffff16149050806109a4578582610989919061295f565b82876109959190612828565b61099f9190612899565b6109c7565b85836109b0919061295f565b83876109bc9190612828565b6109c69190612899565b5b935050505092915050565b6000600254905090565b6000806109e7611952565b90506109f4858285611b23565b6109ff858585611baf565b60019150509392505050565b60008311610a4e576040517f08c379a0000000000000000000000000000000000000000000000000000000008152600401610a4590612a05565b60405180910390fd5b600080610a59610556565b91509150600560009054906101000a900473ffffffffffffffffffffffffffffffffffffffff1673ffffffffffffffffffffffffffffffffffffffff166323b872dd3330886040518463ffffffff1660e01b8152600401610abc93929190612735565b6020604051808303816000875af1158015610adb573d6000803e3d6000fd5b505050506040513d601f19601f82011682018060405250810190610aff9190612798565b5060008186610b0e91906127f4565b8387610b1a9190612828565b610b249190612899565b905084811015610bd457600660009054906101000a900473ffffffffffffffffffffffffffffffffffffffff1673ffffffffffffffffffffffffffffffffffffffff1663a9059cbb85836040518363ffffffff1660e01b8152600401610b8b929190612936565b6020604051808303816000875af1158015610baa573d6000803e3d6000fd5b505050506040513d601f19601f82011682018060405250810190610bce9190612798565b50610c79565b849050600660009054906101000a900473ffffffffffffffffffffffffffffffffffffffff1673ffffffffffffffffffffffffffffffffffffffff1663a9059cbb85836040518363ffffffff1660e01b8152600401610c34929190612936565b6020604051808303816000875af1158015610c53573d6000803e3d6000fd5b505050506040513d601f19601f82011682018060405250810190610c779190612798565b505b858473ffffffffffffffffffffffffffffffffffffffff167fa0d6b74e5d650f4ca2beb1b87bed5bede5a1a8c6037f5a7f4ccd7844b0cf582983604051610cc09190612458565b60405180910390a3505050505050565b60006012905090565b600080610ce4611952565b9050610d05818585610cf6858961180b565b610d0091906127f4565b61195a565b600191505092915050565b60008211610d53576040517f08c379a0000000000000000000000000000000000000000000000000000000008152600401610d4a90612a97565b60405180910390fd5b600080610d5e610556565b91509150600660009054906101000a900473ffffffffffffffffffffffffffffffffffffffff1673ffffffffffffffffffffffffffffffffffffffff166323b872dd3330876040518463ffffffff1660e01b8152600401610dc193929190612735565b6020604051808303816000875af1158015610de0573d6000803e3d6000fd5b505050506040513d601f19601f82011682018060405250810190610e049190612798565b5060008185610e1391906127f4565b8386610e1f9190612828565b610e299190612899565b905080861115610e6e576040517f08c379a0000000000000000000000000000000000000000000000000000000008152600401610e6590612b03565b60405180910390fd5b600560009054906101000a900473ffffffffffffffffffffffffffffffffffffffff1673ffffffffffffffffffffffffffffffffffffffff1663a9059cbb85886040518363ffffffff1660e01b8152600401610ecb929190612936565b6020604051808303816000875af1158015610eea573d6000803e3d6000fd5b505050506040513d601f19601f82011682018060405250810190610f0e9190612798565b50848473ffffffffffffffffffffffffffffffffffffffff167fcd60aa75dea3072fbc07ae6d7d856b5dc5f4eee88854f5b4abf7b680ef8bc50f88604051610f569190612458565b60405180910390a3505050505050565b60008060008373ffffffffffffffffffffffffffffffffffffffff1673ffffffffffffffffffffffffffffffffffffffff168152602001908152602001600020549050919050565b606060048054610fbd90612630565b80601f0160208091040260200160405190810160405280929190818152602001828054610fe990612630565b80156110365780601f1061100b57610100808354040283529160200191611036565b820191906000526020600020905b81548152906001019060200180831161101957829003601f168201915b5050505050905090565b600760009054906101000a900473ffffffffffffffffffffffffffffffffffffffff1681565b600660009054906101000a900473ffffffffffffffffffffffffffffffffffffffff1681565b600080600083116110d2576040517f08c379a00000000000000000000000000000000000000000000000000000000081526004016110c990612b6f565b60405180910390fd5b6000806110dd610556565b915091506110e96109d2565b85826110f59190612828565b6110ff9190612899565b93506111096109d2565b85836111159190612828565b61111f9190612899565b925061112b3386611e25565b600660009054906101000a900473ffffffffffffffffffffffffffffffffffffffff1673ffffffffffffffffffffffffffffffffffffffff1663a9059cbb33866040518363ffffffff1660e01b8152600401611188929190612936565b6020604051808303816000875af11580156111a7573d6000803e3d6000fd5b505050506040513d601f19601f820116820180604052508101906111cb9190612798565b50600560009054906101000a900473ffffffffffffffffffffffffffffffffffffffff1673ffffffffffffffffffffffffffffffffffffffff1663a9059cbb33856040518363ffffffff1660e01b8152600401611229929190612936565b6020604051808303816000875af1158015611248573d6000803e3d6000fd5b505050506040513d601f19601f8201168201806040525081019061126c9190612798565b5082843373ffffffffffffffffffffffffffffffffffffffff167f0fbf06c058b90cb038a618f8c2acbf6145f8b3570fd1fa56abb8f0f3f05b36e860405160405180910390a45050915091565b60008060006112c6610556565b915091506000820361142f57600560009054906101000a900473ffffffffffffffffffffffffffffffffffffffff1673ffffffffffffffffffffffffffffffffffffffff166323b872dd3330886040518463ffffffff1660e01b815260040161133193929190612735565b6020604051808303816000875af1158015611350573d6000803e3d6000fd5b505050506040513d601f19601f820116820180604052508101906113749190612798565b50600660009054906101000a900473ffffffffffffffffffffffffffffffffffffffff1673ffffffffffffffffffffffffffffffffffffffff166323b872dd3330876040518463ffffffff1660e01b81526004016113d493929190612735565b6020604051808303816000875af11580156113f3573d6000803e3d6000fd5b505050506040513d601f19601f820116820180604052508101906114179190612798565b5061142c84866114279190612828565b611ff2565b92505b611439338461206c565b84843373ffffffffffffffffffffffffffffffffffffffff167f06239653922ac7bea6aa2b19dc486b9361821d37712eb796adfd38d81de278ca60405160405180910390a4505092915050565b600560009054906101000a900473ffffffffffffffffffffffffffffffffffffffff1681565b6000806114b7611952565b905060006114c5828661180b565b90508381101561150a576040517f08c379a000000000000000000000000000000000000000000000000000000000815260040161150190612c01565b60405180910390fd5b611517828686840361195a565b60019250505092915050565b60008061152e611952565b905061153b818585611baf565b600191505092915050565b60008311611589576040517f08c379a000000000000000000000000000000000000000000000000000000000815260040161158090612c93565b60405180910390fd5b600080611594610556565b91509150600660009054906101000a900473ffffffffffffffffffffffffffffffffffffffff1673ffffffffffffffffffffffffffffffffffffffff166323b872dd3330886040518463ffffffff1660e01b81526004016115f793929190612735565b6020604051808303816000875af1158015611616573d6000803e3d6000fd5b505050506040513d601f19601f8201168201806040525081019061163a9190612798565b506000818661164991906127f4565b83876116559190612828565b61165f9190612899565b90508481101561170f57600560009054906101000a900473ffffffffffffffffffffffffffffffffffffffff1673ffffffffffffffffffffffffffffffffffffffff1663a9059cbb85836040518363ffffffff1660e01b81526004016116c6929190612936565b6020604051808303816000875af11580156116e5573d6000803e3d6000fd5b505050506040513d601f19601f820116820180604052508101906117099190612798565b506117b4565b849050600560009054906101000a900473ffffffffffffffffffffffffffffffffffffffff1673ffffffffffffffffffffffffffffffffffffffff1663a9059cbb85836040518363ffffffff1660e01b815260040161176f929190612936565b6020604051808303816000875af115801561178e573d6000803e3d6000fd5b505050506040513d601f19601f820116820180604052508101906117b29190612798565b505b858473ffffffffffffffffffffffffffffffffffffffff167fcd60aa75dea3072fbc07ae6d7d856b5dc5f4eee88854f5b4abf7b680ef8bc50f836040516117fb9190612458565b60405180910390a3505050505050565b6000600160008473ffffffffffffffffffffffffffffffffffffffff1673ffffffffffffffffffffffffffffffffffffffff16815260200190815260200160002060008373ffffffffffffffffffffffffffffffffffffffff1673ffffffffffffffffffffffffffffffffffffffff16815260200190815260200160002054905092915050565b600080600061189f610556565b915091506000600560009054906101000a900473ffffffffffffffffffffffffffffffffffffffff1673ffffffffffffffffffffffffffffffffffffffff168573ffffffffffffffffffffffffffffffffffffffff161490508061192457818661190991906127f4565b83876119159190612828565b61191f9190612899565b611947565b828661193091906127f4565b828761193c9190612828565b6119469190612899565b5b935050505092915050565b600033905090565b600073ffffffffffffffffffffffffffffffffffffffff168373ffffffffffffffffffffffffffffffffffffffff16036119c9576040517f08c379a00000000000000000000000000000000000000000000000000000000081526004016119c090612d25565b60405180910390fd5b600073ffffffffffffffffffffffffffffffffffffffff168273ffffffffffffffffffffffffffffffffffffffff1603611a38576040517f08c379a0000000000000000000000000000000000000000000000000000000008152600401611a2f90612db7565b60405180910390fd5b80600160008573ffffffffffffffffffffffffffffffffffffffff1673ffffffffffffffffffffffffffffffffffffffff16815260200190815260200160002060008473ffffffffffffffffffffffffffffffffffffffff1673ffffffffffffffffffffffffffffffffffffffff168152602001908152602001600020819055508173ffffffffffffffffffffffffffffffffffffffff168373ffffffffffffffffffffffffffffffffffffffff167f8c5be1e5ebec7d5bd14f71427d1e84f3dd0314c0f7b2291e5b200ac8c7c3b92583604051611b169190612458565b60405180910390a3505050565b6000611b2f848461180b565b90507fffffffffffffffffffffffffffffffffffffffffffffffffffffffffffffffff8114611ba95781811015611b9b576040517f08c379a0000000000000000000000000000000000000000000000000000000008152600401611b9290612e23565b60405180910390fd5b611ba8848484840361195a565b5b50505050565b600073ffffffffffffffffffffffffffffffffffffffff168373ffffffffffffffffffffffffffffffffffffffff1603611c1e576040517f08c379a0000000000000000000000000000000000000000000000000000000008152600401611c1590612eb5565b60405180910390fd5b600073ffffffffffffffffffffffffffffffffffffffff168273ffffffffffffffffffffffffffffffffffffffff1603611c8d576040517f08c379a0000000000000000000000000000000000000000000000000000000008152600401611c8490612f47565b60405180910390fd5b611c988383836121c2565b60008060008573ffffffffffffffffffffffffffffffffffffffff1673ffffffffffffffffffffffffffffffffffffffff16815260200190815260200160002054905081811015611d1e576040517f08c379a0000000000000000000000000000000000000000000000000000000008152600401611d1590612fd9565b60405180910390fd5b8181036000808673ffffffffffffffffffffffffffffffffffffffff1673ffffffffffffffffffffffffffffffffffffffff16815260200190815260200160002081905550816000808573ffffffffffffffffffffffffffffffffffffffff1673ffffffffffffffffffffffffffffffffffffffff168152602001908152602001600020600082825401925050819055508273ffffffffffffffffffffffffffffffffffffffff168473ffffffffffffffffffffffffffffffffffffffff167fddf252ad1be2c89b69c2b068fc378daa952ba7f163c4a11628f55a4df523b3ef84604051611e0c9190612458565b60405180910390a3611e1f8484846121c7565b50505050565b600073ffffffffffffffffffffffffffffffffffffffff168273ffffffffffffffffffffffffffffffffffffffff1603611e94576040517f08c379a0000000000000000000000000000000000000000000000000000000008152600401611e8b9061306b565b60405180910390fd5b611ea0826000836121c2565b60008060008473ffffffffffffffffffffffffffffffffffffffff1673ffffffffffffffffffffffffffffffffffffffff16815260200190815260200160002054905081811015611f26576040517f08c379a0000000000000000000000000000000000000000000000000000000008152600401611f1d906130fd565b60405180910390fd5b8181036000808573ffffffffffffffffffffffffffffffffffffffff1673ffffffffffffffffffffffffffffffffffffffff1681526020019081526020016000208190555081600260008282540392505081905550600073ffffffffffffffffffffffffffffffffffffffff168373ffffffffffffffffffffffffffffffffffffffff167fddf252ad1be2c89b69c2b068fc378daa952ba7f163c4a11628f55a4df523b3ef84604051611fd99190612458565b60405180910390a3611fed836000846121c7565b505050565b6000600382111561205957819050600060016002846120119190612899565b61201b91906127f4565b90505b818110156120535780915060028182856120389190612899565b61204291906127f4565b61204c9190612899565b905061201e565b50612067565b6000821461206657600190505b5b919050565b600073ffffffffffffffffffffffffffffffffffffffff168273ffffffffffffffffffffffffffffffffffffffff16036120db576040517f08c379a00000000000000000000000000000000000000000000000000000000081526004016120d290613169565b60405180910390fd5b6120e7600083836121c2565b80600260008282546120f991906127f4565b92505081905550806000808473ffffffffffffffffffffffffffffffffffffffff1673ffffffffffffffffffffffffffffffffffffffff168152602001908152602001600020600082825401925050819055508173ffffffffffffffffffffffffffffffffffffffff16600073ffffffffffffffffffffffffffffffffffffffff167fddf252ad1be2c89b69c2b068fc378daa952ba7f163c4a11628f55a4df523b3ef836040516121aa9190612458565b60405180910390a36121be600083836121c7565b5050565b505050565b505050565b600081519050919050565b600082825260208201905092915050565b60005b838110156122065780820151818401526020810190506121eb565b60008484015250505050565b6000601f19601f8301169050919050565b600061222e826121cc565b61223881856121d7565b93506122488185602086016121e8565b61225181612212565b840191505092915050565b600060208201905081810360008301526122768184612223565b905092915050565b6000819050919050565b6122918161227e565b82525050565b60006040820190506122ac6000830185612288565b6122b96020830184612288565b9392505050565b600080fd5b600073ffffffffffffffffffffffffffffffffffffffff82169050919050565b60006122f0826122c5565b9050919050565b612300816122e5565b811461230b57600080fd5b50565b60008135905061231d816122f7565b92915050565b61232c8161227e565b811461233757600080fd5b50565b60008135905061234981612323565b92915050565b60008060408385031215612366576123656122c0565b5b60006123748582860161230e565b92505060206123858582860161233a565b9150509250929050565b60008115159050919050565b6123a48161238f565b82525050565b60006020820190506123bf600083018461239b565b92915050565b6000806000606084860312156123de576123dd6122c0565b5b60006123ec8682870161233a565b93505060206123fd8682870161233a565b925050604061240e8682870161230e565b9150509250925092565b6000806040838503121561242f5761242e6122c0565b5b600061243d8582860161233a565b925050602061244e8582860161230e565b9150509250929050565b600060208201905061246d6000830184612288565b92915050565b60008060006060848603121561248c5761248b6122c0565b5b600061249a8682870161230e565b93505060206124ab8682870161230e565b92505060406124bc8682870161233a565b9150509250925092565b600060ff82169050919050565b6124dc816124c6565b82525050565b60006020820190506124f760008301846124d3565b92915050565b600060208284031215612513576125126122c0565b5b60006125218482850161230e565b91505092915050565b612533816122e5565b82525050565b600060208201905061254e600083018461252a565b92915050565b60006020828403121561256a576125696122c0565b5b60006125788482850161233a565b91505092915050565b60008060408385031215612598576125976122c0565b5b60006125a68582860161233a565b92505060206125b78582860161233a565b9150509250929050565b600080604083850312156125d8576125d76122c0565b5b60006125e68582860161230e565b92505060206125f78582860161230e565b9150509250929050565b7f4e487b7100000000000000000000000000000000000000000000000000000000600052602260045260246000fd5b6000600282049050600182168061264857607f821691505b60208210810361265b5761265a612601565b5b50919050565b60008151905061267081612323565b92915050565b60006020828403121561268c5761268b6122c0565b5b600061269a84828501612661565b91505092915050565b7f416d6f756e74206f66206d6178546f6b656e416d6f756e74496e2063616e6e6f60008201527f7420626520300000000000000000000000000000000000000000000000000000602082015250565b60006126ff6026836121d7565b915061270a826126a3565b604082019050919050565b6000602082019050818103600083015261272e816126f2565b9050919050565b600060608201905061274a600083018661252a565b612757602083018561252a565b6127646040830184612288565b949350505050565b6127758161238f565b811461278057600080fd5b50565b6000815190506127928161276c565b92915050565b6000602082840312156127ae576127ad6122c0565b5b60006127bc84828501612783565b91505092915050565b7f4e487b7100000000000000000000000000000000000000000000000000000000600052601160045260246000fd5b60006127ff8261227e565b915061280a8361227e565b9250828201905080821115612822576128216127c5565b5b92915050565b60006128338261227e565b915061283e8361227e565b925082820261284c8161227e565b91508282048414831517612863576128626127c5565b5b5092915050565b7f4e487b7100000000000000000000000000000000000000000000000000000000600052601260045260246000fd5b60006128a48261227e565b91506128af8361227e565b9250826128bf576128be61286a565b5b828204905092915050565b7f416d6f756e74206f66206d6178546f6b656e416d6f756e74496e206c65737300600082015250565b6000612900601f836121d7565b915061290b826128ca565b602082019050919050565b6000602082019050818103600083015261292f816128f3565b9050919050565b600060408201905061294b600083018561252a565b6129586020830184612288565b9392505050565b600061296a8261227e565b91506129758361227e565b925082820390508181111561298d5761298c6127c5565b5b92915050565b7f416d6f756e74206f6620616d6f756e74546f6b656e496e2063616e6e6f74206260008201527f6520300000000000000000000000000000000000000000000000000000000000602082015250565b60006129ef6023836121d7565b91506129fa82612993565b604082019050919050565b60006020820190508181036000830152612a1e816129e2565b9050919050565b7f416d6f756e74206f66206d617855736474416d6f756e74496e2063616e6e6f7460008201527f2062652030000000000000000000000000000000000000000000000000000000602082015250565b6000612a816025836121d7565b9150612a8c82612a25565b604082019050919050565b60006020820190508181036000830152612ab081612a74565b9050919050565b7f416d6f756e74206f66206d617855736474416d6f756e74496e206c6573730000600082015250565b6000612aed601e836121d7565b9150612af882612ab7565b602082019050919050565b60006020820190508181036000830152612b1c81612ae0565b9050919050565b7f416d6f756e74206f66206c69717569646974792063616e6e6f74206265203000600082015250565b6000612b59601f836121d7565b9150612b6482612b23565b602082019050919050565b60006020820190508181036000830152612b8881612b4c565b9050919050565b7f45524332303a2064656372656173656420616c6c6f77616e63652062656c6f7760008201527f207a65726f000000000000000000000000000000000000000000000000000000602082015250565b6000612beb6025836121d7565b9150612bf682612b8f565b604082019050919050565b60006020820190508181036000830152612c1a81612bde565b9050919050565b7f416d6f756e74206f6620616d6f756e7455736474496e2063616e6e6f7420626560008201527f2030000000000000000000000000000000000000000000000000000000000000602082015250565b6000612c7d6022836121d7565b9150612c8882612c21565b604082019050919050565b60006020820190508181036000830152612cac81612c70565b9050919050565b7f45524332303a20617070726f76652066726f6d20746865207a65726f2061646460008201527f7265737300000000000000000000000000000000000000000000000000000000602082015250565b6000612d0f6024836121d7565b9150612d1a82612cb3565b604082019050919050565b60006020820190508181036000830152612d3e81612d02565b9050919050565b7f45524332303a20617070726f766520746f20746865207a65726f20616464726560008201527f7373000000000000000000000000000000000000000000000000000000000000602082015250565b6000612da16022836121d7565b9150612dac82612d45565b604082019050919050565b60006020820190508181036000830152612dd081612d94565b9050919050565b7f45524332303a20696e73756666696369656e7420616c6c6f77616e6365000000600082015250565b6000612e0d601d836121d7565b9150612e1882612dd7565b602082019050919050565b60006020820190508181036000830152612e3c81612e00565b9050919050565b7f45524332303a207472616e736665722066726f6d20746865207a65726f20616460008201527f6472657373000000000000000000000000000000000000000000000000000000602082015250565b6000612e9f6025836121d7565b9150612eaa82612e43565b604082019050919050565b60006020820190508181036000830152612ece81612e92565b9050919050565b7f45524332303a207472616e7366657220746f20746865207a65726f206164647260008201527f6573730000000000000000000000000000000000000000000000000000000000602082015250565b6000612f316023836121d7565b9150612f3c82612ed5565b604082019050919050565b60006020820190508181036000830152612f6081612f24565b9050919050565b7f45524332303a207472616e7366657220616d6f756e742065786365656473206260008201527f616c616e63650000000000000000000000000000000000000000000000000000602082015250565b6000612fc36026836121d7565b9150612fce82612f67565b604082019050919050565b60006020820190508181036000830152612ff281612fb6565b9050919050565b7f45524332303a206275726e2066726f6d20746865207a65726f2061646472657360008201527f7300000000000000000000000000000000000000000000000000000000000000602082015250565b60006130556021836121d7565b915061306082612ff9565b604082019050919050565b6000602082019050818103600083015261308481613048565b9050919050565b7f45524332303a206275726e20616d6f756e7420657863656564732062616c616e60008201527f6365000000000000000000000000000000000000000000000000000000000000602082015250565b60006130e76022836121d7565b91506130f28261308b565b604082019050919050565b60006020820190508181036000830152613116816130da565b9050919050565b7f45524332303a206d696e7420746f20746865207a65726f206164647265737300600082015250565b6000613153601f836121d7565b915061315e8261311d565b602082019050919050565b6000602082019050818103600083015261318281613146565b905091905056fea2646970667358221220c153c56fc2effc01470242365bfc961bb6b6493cfdcfb48833b0e9d8689f811f64736f6c63430008120033",
					"opcodes": "PUSH1 0x80 PUSH1 0x40 MSTORE CALLVALUE DUP1 ISZERO PUSH3 0x11 JUMPI PUSH1 0x0 DUP1 REVERT JUMPDEST POP PUSH1 0x40 MLOAD PUSH3 0x386A CODESIZE SUB DUP1 PUSH3 0x386A DUP4 CODECOPY DUP2 DUP2 ADD PUSH1 0x40 MSTORE DUP2 ADD SWAP1 PUSH3 0x37 SWAP2 SWAP1 PUSH3 0x270 JUMP JUMPDEST PUSH1 0x40 MLOAD DUP1 PUSH1 0x40 ADD PUSH1 0x40 MSTORE DUP1 PUSH1 0x7 DUP2 MSTORE PUSH1 0x20 ADD PUSH32 0x6362697377617000000000000000000000000000000000000000000000000000 DUP2 MSTORE POP PUSH1 0x40 MLOAD DUP1 PUSH1 0x40 ADD PUSH1 0x40 MSTORE DUP1 PUSH1 0x3 DUP2 MSTORE PUSH1 0x20 ADD PUSH32 0x4342490000000000000000000000000000000000000000000000000000000000 DUP2 MSTORE POP DUP2 PUSH1 0x3 SWAP1 DUP2 PUSH3 0xB4 SWAP2 SWAP1 PUSH3 0x531 JUMP JUMPDEST POP DUP1 PUSH1 0x4 SWAP1 DUP2 PUSH3 0xC6 SWAP2 SWAP1 PUSH3 0x531 JUMP JUMPDEST POP POP POP PUSH1 0x0 PUSH20 0xFFFFFFFFFFFFFFFFFFFFFFFFFFFFFFFFFFFFFFFF AND DUP3 PUSH20 0xFFFFFFFFFFFFFFFFFFFFFFFFFFFFFFFFFFFFFFFF AND SUB PUSH3 0x13B JUMPI PUSH1 0x40 MLOAD PUSH32 0x8C379A000000000000000000000000000000000000000000000000000000000 DUP2 MSTORE PUSH1 0x4 ADD PUSH3 0x132 SWAP1 PUSH3 0x679 JUMP JUMPDEST PUSH1 0x40 MLOAD DUP1 SWAP2 SUB SWAP1 REVERT JUMPDEST DUP2 PUSH1 0x5 PUSH1 0x0 PUSH2 0x100 EXP DUP2 SLOAD DUP2 PUSH20 0xFFFFFFFFFFFFFFFFFFFFFFFFFFFFFFFFFFFFFFFF MUL NOT AND SWAP1 DUP4 PUSH20 0xFFFFFFFFFFFFFFFFFFFFFFFFFFFFFFFFFFFFFFFF AND MUL OR SWAP1 SSTORE POP DUP1 PUSH1 0x6 PUSH1 0x0 PUSH2 0x100 EXP DUP2 SLOAD DUP2 PUSH20 0xFFFFFFFFFFFFFFFFFFFFFFFFFFFFFFFFFFFFFFFF MUL NOT AND SWAP1 DUP4 PUSH20 0xFFFFFFFFFFFFFFFFFFFFFFFFFFFFFFFFFFFFFFFF AND MUL OR SWAP1 SSTORE POP CALLER PUSH1 0x7 PUSH1 0x0 PUSH2 0x100 EXP DUP2 SLOAD DUP2 PUSH20 0xFFFFFFFFFFFFFFFFFFFFFFFFFFFFFFFFFFFFFFFF MUL NOT AND SWAP1 DUP4 PUSH20 0xFFFFFFFFFFFFFFFFFFFFFFFFFFFFFFFFFFFFFFFF AND MUL OR SWAP1 SSTORE POP POP POP PUSH3 0x69B JUMP JUMPDEST PUSH1 0x0 DUP1 REVERT JUMPDEST PUSH1 0x0 PUSH20 0xFFFFFFFFFFFFFFFFFFFFFFFFFFFFFFFFFFFFFFFF DUP3 AND SWAP1 POP SWAP2 SWAP1 POP JUMP JUMPDEST PUSH1 0x0 PUSH3 0x238 DUP3 PUSH3 0x20B JUMP JUMPDEST SWAP1 POP SWAP2 SWAP1 POP JUMP JUMPDEST PUSH3 0x24A DUP2 PUSH3 0x22B JUMP JUMPDEST DUP2 EQ PUSH3 0x256 JUMPI PUSH1 0x0 DUP1 REVERT JUMPDEST POP JUMP JUMPDEST PUSH1 0x0 DUP2 MLOAD SWAP1 POP PUSH3 0x26A DUP2 PUSH3 0x23F JUMP JUMPDEST SWAP3 SWAP2 POP POP JUMP JUMPDEST PUSH1 0x0 DUP1 PUSH1 0x40 DUP4 DUP6 SUB SLT ISZERO PUSH3 0x28A JUMPI PUSH3 0x289 PUSH3 0x206 JUMP JUMPDEST JUMPDEST PUSH1 0x0 PUSH3 0x29A DUP6 DUP3 DUP7 ADD PUSH3 0x259 JUMP JUMPDEST SWAP3 POP POP PUSH1 0x20 PUSH3 0x2AD DUP6 DUP3 DUP7 ADD PUSH3 0x259 JUMP JUMPDEST SWAP2 POP POP SWAP3 POP SWAP3 SWAP1 POP JUMP JUMPDEST PUSH1 0x0 DUP2 MLOAD SWAP1 POP SWAP2 SWAP1 POP JUMP JUMPDEST PUSH32 0x4E487B7100000000000000000000000000000000000000000000000000000000 PUSH1 0x0 MSTORE PUSH1 0x41 PUSH1 0x4 MSTORE PUSH1 0x24 PUSH1 0x0 REVERT JUMPDEST PUSH32 0x4E487B7100000000000000000000000000000000000000000000000000000000 PUSH1 0x0 MSTORE PUSH1 0x22 PUSH1 0x4 MSTORE PUSH1 0x24 PUSH1 0x0 REVERT JUMPDEST PUSH1 0x0 PUSH1 0x2 DUP3 DIV SWAP1 POP PUSH1 0x1 DUP3 AND DUP1 PUSH3 0x339 JUMPI PUSH1 0x7F DUP3 AND SWAP2 POP JUMPDEST PUSH1 0x20 DUP3 LT DUP2 SUB PUSH3 0x34F JUMPI PUSH3 0x34E PUSH3 0x2F1 JUMP JUMPDEST JUMPDEST POP SWAP2 SWAP1 POP JUMP JUMPDEST PUSH1 0x0 DUP2 SWAP1 POP DUP2 PUSH1 0x0 MSTORE PUSH1 0x20 PUSH1 0x0 KECCAK256 SWAP1 POP SWAP2 SWAP1 POP JUMP JUMPDEST PUSH1 0x0 PUSH1 0x20 PUSH1 0x1F DUP4 ADD DIV SWAP1 POP SWAP2 SWAP1 POP JUMP JUMPDEST PUSH1 0x0 DUP3 DUP3 SHL SWAP1 POP SWAP3 SWAP2 POP POP JUMP JUMPDEST PUSH1 0x0 PUSH1 0x8 DUP4 MUL PUSH3 0x3B9 PUSH32 0xFFFFFFFFFFFFFFFFFFFFFFFFFFFFFFFFFFFFFFFFFFFFFFFFFFFFFFFFFFFFFFFF DUP3 PUSH3 0x37A JUMP JUMPDEST PUSH3 0x3C5 DUP7 DUP4 PUSH3 0x37A JUMP JUMPDEST SWAP6 POP DUP1 NOT DUP5 AND SWAP4 POP DUP1 DUP7 AND DUP5 OR SWAP3 POP POP POP SWAP4 SWAP3 POP POP POP JUMP JUMPDEST PUSH1 0x0 DUP2 SWAP1 POP SWAP2 SWAP1 POP JUMP JUMPDEST PUSH1 0x0 DUP2 SWAP1 POP SWAP2 SWAP1 POP JUMP JUMPDEST PUSH1 0x0 PUSH3 0x412 PUSH3 0x40C PUSH3 0x406 DUP5 PUSH3 0x3DD JUMP JUMPDEST PUSH3 0x3E7 JUMP JUMPDEST PUSH3 0x3DD JUMP JUMPDEST SWAP1 POP SWAP2 SWAP1 POP JUMP JUMPDEST PUSH1 0x0 DUP2 SWAP1 POP SWAP2 SWAP1 POP JUMP JUMPDEST PUSH3 0x42E DUP4 PUSH3 0x3F1 JUMP JUMPDEST PUSH3 0x446 PUSH3 0x43D DUP3 PUSH3 0x419 JUMP JUMPDEST DUP5 DUP5 SLOAD PUSH3 0x387 JUMP JUMPDEST DUP3 SSTORE POP POP POP POP JUMP JUMPDEST PUSH1 0x0 SWAP1 JUMP JUMPDEST PUSH3 0x45D PUSH3 0x44E JUMP JUMPDEST PUSH3 0x46A DUP2 DUP5 DUP5 PUSH3 0x423 JUMP JUMPDEST POP POP POP JUMP JUMPDEST JUMPDEST DUP2 DUP2 LT ISZERO PUSH3 0x492 JUMPI PUSH3 0x486 PUSH1 0x0 DUP3 PUSH3 0x453 JUMP JUMPDEST PUSH1 0x1 DUP2 ADD SWAP1 POP PUSH3 0x470 JUMP JUMPDEST POP POP JUMP JUMPDEST PUSH1 0x1F DUP3 GT ISZERO PUSH3 0x4E1 JUMPI PUSH3 0x4AB DUP2 PUSH3 0x355 JUMP JUMPDEST PUSH3 0x4B6 DUP5 PUSH3 0x36A JUMP JUMPDEST DUP2 ADD PUSH1 0x20 DUP6 LT ISZERO PUSH3 0x4C6 JUMPI DUP2 SWAP1 POP JUMPDEST PUSH3 0x4DE PUSH3 0x4D5 DUP6 PUSH3 0x36A JUMP JUMPDEST DUP4 ADD DUP3 PUSH3 0x46F JUMP JUMPDEST POP POP JUMPDEST POP POP POP JUMP JUMPDEST PUSH1 0x0 DUP3 DUP3 SHR SWAP1 POP SWAP3 SWAP2 POP POP JUMP JUMPDEST PUSH1 0x0 PUSH3 0x506 PUSH1 0x0 NOT DUP5 PUSH1 0x8 MUL PUSH3 0x4E6 JUMP JUMPDEST NOT DUP1 DUP4 AND SWAP2 POP POP SWAP3 SWAP2 POP POP JUMP JUMPDEST PUSH1 0x0 PUSH3 0x521 DUP4 DUP4 PUSH3 0x4F3 JUMP JUMPDEST SWAP2 POP DUP3 PUSH1 0x2 MUL DUP3 OR SWAP1 POP SWAP3 SWAP2 POP POP JUMP JUMPDEST PUSH3 0x53C DUP3 PUSH3 0x2B7 JUMP JUMPDEST PUSH8 0xFFFFFFFFFFFFFFFF DUP2 GT ISZERO PUSH3 0x558 JUMPI PUSH3 0x557 PUSH3 0x2C2 JUMP JUMPDEST JUMPDEST PUSH3 0x564 DUP3 SLOAD PUSH3 0x320 JUMP JUMPDEST PUSH3 0x571 DUP3 DUP3 DUP6 PUSH3 0x496 JUMP JUMPDEST PUSH1 0x0 PUSH1 0x20 SWAP1 POP PUSH1 0x1F DUP4 GT PUSH1 0x1 DUP2 EQ PUSH3 0x5A9 JUMPI PUSH1 0x0 DUP5 ISZERO PUSH3 0x594 JUMPI DUP3 DUP8 ADD MLOAD SWAP1 POP JUMPDEST PUSH3 0x5A0 DUP6 DUP3 PUSH3 0x513 JUMP JUMPDEST DUP7 SSTORE POP PUSH3 0x610 JUMP JUMPDEST PUSH1 0x1F NOT DUP5 AND PUSH3 0x5B9 DUP7 PUSH3 0x355 JUMP JUMPDEST PUSH1 0x0 JUMPDEST DUP3 DUP2 LT ISZERO PUSH3 0x5E3 JUMPI DUP5 DUP10 ADD MLOAD DUP3 SSTORE PUSH1 0x1 DUP3 ADD SWAP2 POP PUSH1 0x20 DUP6 ADD SWAP5 POP PUSH1 0x20 DUP2 ADD SWAP1 POP PUSH3 0x5BC JUMP JUMPDEST DUP7 DUP4 LT ISZERO PUSH3 0x603 JUMPI DUP5 DUP10 ADD MLOAD PUSH3 0x5FF PUSH1 0x1F DUP10 AND DUP3 PUSH3 0x4F3 JUMP JUMPDEST DUP4 SSTORE POP JUMPDEST PUSH1 0x1 PUSH1 0x2 DUP9 MUL ADD DUP9 SSTORE POP POP POP JUMPDEST POP POP POP POP POP POP JUMP JUMPDEST PUSH1 0x0 DUP3 DUP3 MSTORE PUSH1 0x20 DUP3 ADD SWAP1 POP SWAP3 SWAP2 POP POP JUMP JUMPDEST PUSH32 0x696E76616C696420746F6B656E20616464726573730000000000000000000000 PUSH1 0x0 DUP3 ADD MSTORE POP JUMP JUMPDEST PUSH1 0x0 PUSH3 0x661 PUSH1 0x15 DUP4 PUSH3 0x618 JUMP JUMPDEST SWAP2 POP PUSH3 0x66E DUP3 PUSH3 0x629 JUMP JUMPDEST PUSH1 0x20 DUP3 ADD SWAP1 POP SWAP2 SWAP1 POP JUMP JUMPDEST PUSH1 0x0 PUSH1 0x20 DUP3 ADD SWAP1 POP DUP2 DUP2 SUB PUSH1 0x0 DUP4 ADD MSTORE PUSH3 0x694 DUP2 PUSH3 0x652 JUMP JUMPDEST SWAP1 POP SWAP2 SWAP1 POP JUMP JUMPDEST PUSH2 0x31BF DUP1 PUSH3 0x6AB PUSH1 0x0 CODECOPY PUSH1 0x0 RETURN INVALID PUSH1 0x80 PUSH1 0x40 MSTORE CALLVALUE DUP1 ISZERO PUSH2 0x10 JUMPI PUSH1 0x0 DUP1 REVERT JUMPDEST POP PUSH1 0x4 CALLDATASIZE LT PUSH2 0x14D JUMPI PUSH1 0x0 CALLDATALOAD PUSH1 0xE0 SHR DUP1 PUSH4 0x70A08231 GT PUSH2 0xC3 JUMPI DUP1 PUSH4 0x9D76EA58 GT PUSH2 0x7C JUMPI DUP1 PUSH4 0x9D76EA58 EQ PUSH2 0x3CA JUMPI DUP1 PUSH4 0xA457C2D7 EQ PUSH2 0x3E8 JUMPI DUP1 PUSH4 0xA9059CBB EQ PUSH2 0x418 JUMPI DUP1 PUSH4 0xAB26DAF8 EQ PUSH2 0x448 JUMPI DUP1 PUSH4 0xDD62ED3E EQ PUSH2 0x464 JUMPI DUP1 PUSH4 0xF140A35A EQ PUSH2 0x494 JUMPI PUSH2 0x14D JUMP JUMPDEST DUP1 PUSH4 0x70A08231 EQ PUSH2 0x2DF JUMPI DUP1 PUSH4 0x95D89B41 EQ PUSH2 0x30F JUMPI DUP1 PUSH4 0x966DAE0E EQ PUSH2 0x32D JUMPI DUP1 PUSH4 0x9AB4A445 EQ PUSH2 0x34B JUMPI DUP1 PUSH4 0x9C8F9F23 EQ PUSH2 0x369 JUMPI DUP1 PUSH4 0x9CD441DA EQ PUSH2 0x39A JUMPI PUSH2 0x14D JUMP JUMPDEST DUP1 PUSH4 0x18160DDD GT PUSH2 0x115 JUMPI DUP1 PUSH4 0x18160DDD EQ PUSH2 0x20B JUMPI DUP1 PUSH4 0x23B872DD EQ PUSH2 0x229 JUMPI DUP1 PUSH4 0x29F10C7E EQ PUSH2 0x259 JUMPI DUP1 PUSH4 0x313CE567 EQ PUSH2 0x275 JUMPI DUP1 PUSH4 0x39509351 EQ PUSH2 0x293 JUMPI DUP1 PUSH4 0x6A877F7B EQ PUSH2 0x2C3 JUMPI PUSH2 0x14D JUMP JUMPDEST DUP1 PUSH4 0x6FDDE03 EQ PUSH2 0x152 JUMPI DUP1 PUSH4 0x902F1AC EQ PUSH2 0x170 JUMPI DUP1 PUSH4 0x95EA7B3 EQ PUSH2 0x18F JUMPI DUP1 PUSH4 0xB855C95 EQ PUSH2 0x1BF JUMPI DUP1 PUSH4 0x1125F13F EQ PUSH2 0x1DB JUMPI JUMPDEST PUSH1 0x0 DUP1 REVERT JUMPDEST PUSH2 0x15A PUSH2 0x4C4 JUMP JUMPDEST PUSH1 0x40 MLOAD PUSH2 0x167 SWAP2 SWAP1 PUSH2 0x225C JUMP JUMPDEST PUSH1 0x40 MLOAD DUP1 SWAP2 SUB SWAP1 RETURN JUMPDEST PUSH2 0x178 PUSH2 0x556 JUMP JUMPDEST PUSH1 0x40 MLOAD PUSH2 0x186 SWAP3 SWAP2 SWAP1 PUSH2 0x2297 JUMP JUMPDEST PUSH1 0x40 MLOAD DUP1 SWAP2 SUB SWAP1 RETURN JUMPDEST PUSH2 0x1A9 PUSH1 0x4 DUP1 CALLDATASIZE SUB DUP2 ADD SWAP1 PUSH2 0x1A4 SWAP2 SWAP1 PUSH2 0x234F JUMP JUMPDEST PUSH2 0x699 JUMP JUMPDEST PUSH1 0x40 MLOAD PUSH2 0x1B6 SWAP2 SWAP1 PUSH2 0x23AA JUMP JUMPDEST PUSH1 0x40 MLOAD DUP1 SWAP2 SUB SWAP1 RETURN JUMPDEST PUSH2 0x1D9 PUSH1 0x4 DUP1 CALLDATASIZE SUB DUP2 ADD SWAP1 PUSH2 0x1D4 SWAP2 SWAP1 PUSH2 0x23C5 JUMP JUMPDEST PUSH2 0x6BC JUMP JUMPDEST STOP JUMPDEST PUSH2 0x1F5 PUSH1 0x4 DUP1 CALLDATASIZE SUB DUP2 ADD SWAP1 PUSH2 0x1F0 SWAP2 SWAP1 PUSH2 0x2418 JUMP JUMPDEST PUSH2 0x912 JUMP JUMPDEST PUSH1 0x40 MLOAD PUSH2 0x202 SWAP2 SWAP1 PUSH2 0x2458 JUMP JUMPDEST PUSH1 0x40 MLOAD DUP1 SWAP2 SUB SWAP1 RETURN JUMPDEST PUSH2 0x213 PUSH2 0x9D2 JUMP JUMPDEST PUSH1 0x40 MLOAD PUSH2 0x220 SWAP2 SWAP1 PUSH2 0x2458 JUMP JUMPDEST PUSH1 0x40 MLOAD DUP1 SWAP2 SUB SWAP1 RETURN JUMPDEST PUSH2 0x243 PUSH1 0x4 DUP1 CALLDATASIZE SUB DUP2 ADD SWAP1 PUSH2 0x23E SWAP2 SWAP1 PUSH2 0x2473 JUMP JUMPDEST PUSH2 0x9DC JUMP JUMPDEST PUSH1 0x40 MLOAD PUSH2 0x250 SWAP2 SWAP1 PUSH2 0x23AA JUMP JUMPDEST PUSH1 0x40 MLOAD DUP1 SWAP2 SUB SWAP1 RETURN JUMPDEST PUSH2 0x273 PUSH1 0x4 DUP1 CALLDATASIZE SUB DUP2 ADD SWAP1 PUSH2 0x26E SWAP2 SWAP1 PUSH2 0x23C5 JUMP JUMPDEST PUSH2 0xA0B JUMP JUMPDEST STOP JUMPDEST PUSH2 0x27D PUSH2 0xCD0 JUMP JUMPDEST PUSH1 0x40 MLOAD PUSH2 0x28A SWAP2 SWAP1 PUSH2 0x24E2 JUMP JUMPDEST PUSH1 0x40 MLOAD DUP1 SWAP2 SUB SWAP1 RETURN JUMPDEST PUSH2 0x2AD PUSH1 0x4 DUP1 CALLDATASIZE SUB DUP2 ADD SWAP1 PUSH2 0x2A8 SWAP2 SWAP1 PUSH2 0x234F JUMP JUMPDEST PUSH2 0xCD9 JUMP JUMPDEST PUSH1 0x40 MLOAD PUSH2 0x2BA SWAP2 SWAP1 PUSH2 0x23AA JUMP JUMPDEST PUSH1 0x40 MLOAD DUP1 SWAP2 SUB SWAP1 RETURN JUMPDEST PUSH2 0x2DD PUSH1 0x4 DUP1 CALLDATASIZE SUB DUP2 ADD SWAP1 PUSH2 0x2D8 SWAP2 SWAP1 PUSH2 0x23C5 JUMP JUMPDEST PUSH2 0xD10 JUMP JUMPDEST STOP JUMPDEST PUSH2 0x2F9 PUSH1 0x4 DUP1 CALLDATASIZE SUB DUP2 ADD SWAP1 PUSH2 0x2F4 SWAP2 SWAP1 PUSH2 0x24FD JUMP JUMPDEST PUSH2 0xF66 JUMP JUMPDEST PUSH1 0x40 MLOAD PUSH2 0x306 SWAP2 SWAP1 PUSH2 0x2458 JUMP JUMPDEST PUSH1 0x40 MLOAD DUP1 SWAP2 SUB SWAP1 RETURN JUMPDEST PUSH2 0x317 PUSH2 0xFAE JUMP JUMPDEST PUSH1 0x40 MLOAD PUSH2 0x324 SWAP2 SWAP1 PUSH2 0x225C JUMP JUMPDEST PUSH1 0x40 MLOAD DUP1 SWAP2 SUB SWAP1 RETURN JUMPDEST PUSH2 0x335 PUSH2 0x1040 JUMP JUMPDEST PUSH1 0x40 MLOAD PUSH2 0x342 SWAP2 SWAP1 PUSH2 0x2539 JUMP JUMPDEST PUSH1 0x40 MLOAD DUP1 SWAP2 SUB SWAP1 RETURN JUMPDEST PUSH2 0x353 PUSH2 0x1066 JUMP JUMPDEST PUSH1 0x40 MLOAD PUSH2 0x360 SWAP2 SWAP1 PUSH2 0x2539 JUMP JUMPDEST PUSH1 0x40 MLOAD DUP1 SWAP2 SUB SWAP1 RETURN JUMPDEST PUSH2 0x383 PUSH1 0x4 DUP1 CALLDATASIZE SUB DUP2 ADD SWAP1 PUSH2 0x37E SWAP2 SWAP1 PUSH2 0x2554 JUMP JUMPDEST PUSH2 0x108C JUMP JUMPDEST PUSH1 0x40 MLOAD PUSH2 0x391 SWAP3 SWAP2 SWAP1 PUSH2 0x2297 JUMP JUMPDEST PUSH1 0x40 MLOAD DUP1 SWAP2 SUB SWAP1 RETURN JUMPDEST PUSH2 0x3B4 PUSH1 0x4 DUP1 CALLDATASIZE SUB DUP2 ADD SWAP1 PUSH2 0x3AF SWAP2 SWAP1 PUSH2 0x2581 JUMP JUMPDEST PUSH2 0x12B9 JUMP JUMPDEST PUSH1 0x40 MLOAD PUSH2 0x3C1 SWAP2 SWAP1 PUSH2 0x2458 JUMP JUMPDEST PUSH1 0x40 MLOAD DUP1 SWAP2 SUB SWAP1 RETURN JUMPDEST PUSH2 0x3D2 PUSH2 0x1486 JUMP JUMPDEST PUSH1 0x40 MLOAD PUSH2 0x3DF SWAP2 SWAP1 PUSH2 0x2539 JUMP JUMPDEST PUSH1 0x40 MLOAD DUP1 SWAP2 SUB SWAP1 RETURN JUMPDEST PUSH2 0x402 PUSH1 0x4 DUP1 CALLDATASIZE SUB DUP2 ADD SWAP1 PUSH2 0x3FD SWAP2 SWAP1 PUSH2 0x234F JUMP JUMPDEST PUSH2 0x14AC JUMP JUMPDEST PUSH1 0x40 MLOAD PUSH2 0x40F SWAP2 SWAP1 PUSH2 0x23AA JUMP JUMPDEST PUSH1 0x40 MLOAD DUP1 SWAP2 SUB SWAP1 RETURN JUMPDEST PUSH2 0x432 PUSH1 0x4 DUP1 CALLDATASIZE SUB DUP2 ADD SWAP1 PUSH2 0x42D SWAP2 SWAP1 PUSH2 0x234F JUMP JUMPDEST PUSH2 0x1523 JUMP JUMPDEST PUSH1 0x40 MLOAD PUSH2 0x43F SWAP2 SWAP1 PUSH2 0x23AA JUMP JUMPDEST PUSH1 0x40 MLOAD DUP1 SWAP2 SUB SWAP1 RETURN JUMPDEST PUSH2 0x462 PUSH1 0x4 DUP1 CALLDATASIZE SUB DUP2 ADD SWAP1 PUSH2 0x45D SWAP2 SWAP1 PUSH2 0x23C5 JUMP JUMPDEST PUSH2 0x1546 JUMP JUMPDEST STOP JUMPDEST PUSH2 0x47E PUSH1 0x4 DUP1 CALLDATASIZE SUB DUP2 ADD SWAP1 PUSH2 0x479 SWAP2 SWAP1 PUSH2 0x25C1 JUMP JUMPDEST PUSH2 0x180B JUMP JUMPDEST PUSH1 0x40 MLOAD PUSH2 0x48B SWAP2 SWAP1 PUSH2 0x2458 JUMP JUMPDEST PUSH1 0x40 MLOAD DUP1 SWAP2 SUB SWAP1 RETURN JUMPDEST PUSH2 0x4AE PUSH1 0x4 DUP1 CALLDATASIZE SUB DUP2 ADD SWAP1 PUSH2 0x4A9 SWAP2 SWAP1 PUSH2 0x2418 JUMP JUMPDEST PUSH2 0x1892 JUMP JUMPDEST PUSH1 0x40 MLOAD PUSH2 0x4BB SWAP2 SWAP1 PUSH2 0x2458 JUMP JUMPDEST PUSH1 0x40 MLOAD DUP1 SWAP2 SUB SWAP1 RETURN JUMPDEST PUSH1 0x60 PUSH1 0x3 DUP1 SLOAD PUSH2 0x4D3 SWAP1 PUSH2 0x2630 JUMP JUMPDEST DUP1 PUSH1 0x1F ADD PUSH1 0x20 DUP1 SWAP2 DIV MUL PUSH1 0x20 ADD PUSH1 0x40 MLOAD SWAP1 DUP2 ADD PUSH1 0x40 MSTORE DUP1 SWAP3 SWAP2 SWAP1 DUP2 DUP2 MSTORE PUSH1 0x20 ADD DUP3 DUP1 SLOAD PUSH2 0x4FF SWAP1 PUSH2 0x2630 JUMP JUMPDEST DUP1 ISZERO PUSH2 0x54C JUMPI DUP1 PUSH1 0x1F LT PUSH2 0x521 JUMPI PUSH2 0x100 DUP1 DUP4 SLOAD DIV MUL DUP4 MSTORE SWAP2 PUSH1 0x20 ADD SWAP2 PUSH2 0x54C JUMP JUMPDEST DUP3 ADD SWAP2 SWAP1 PUSH1 0x0 MSTORE PUSH1 0x20 PUSH1 0x0 KECCAK256 SWAP1 JUMPDEST DUP2 SLOAD DUP2 MSTORE SWAP1 PUSH1 0x1 ADD SWAP1 PUSH1 0x20 ADD DUP1 DUP4 GT PUSH2 0x52F JUMPI DUP3 SWAP1 SUB PUSH1 0x1F AND DUP3 ADD SWAP2 JUMPDEST POP POP POP POP POP SWAP1 POP SWAP1 JUMP JUMPDEST PUSH1 0x0 DUP1 PUSH1 0x5 PUSH1 0x0 SWAP1 SLOAD SWAP1 PUSH2 0x100 EXP SWAP1 DIV PUSH20 0xFFFFFFFFFFFFFFFFFFFFFFFFFFFFFFFFFFFFFFFF AND PUSH20 0xFFFFFFFFFFFFFFFFFFFFFFFFFFFFFFFFFFFFFFFF AND PUSH4 0x70A08231 ADDRESS PUSH1 0x40 MLOAD DUP3 PUSH4 0xFFFFFFFF AND PUSH1 0xE0 SHL DUP2 MSTORE PUSH1 0x4 ADD PUSH2 0x5B4 SWAP2 SWAP1 PUSH2 0x2539 JUMP JUMPDEST PUSH1 0x20 PUSH1 0x40 MLOAD DUP1 DUP4 SUB DUP2 DUP7 GAS STATICCALL ISZERO DUP1 ISZERO PUSH2 0x5D1 JUMPI RETURNDATASIZE PUSH1 0x0 DUP1 RETURNDATACOPY RETURNDATASIZE PUSH1 0x0 REVERT JUMPDEST POP POP POP POP PUSH1 0x40 MLOAD RETURNDATASIZE PUSH1 0x1F NOT PUSH1 0x1F DUP3 ADD AND DUP3 ADD DUP1 PUSH1 0x40 MSTORE POP DUP2 ADD SWAP1 PUSH2 0x5F5 SWAP2 SWAP1 PUSH2 0x2676 JUMP JUMPDEST SWAP2 POP PUSH1 0x6 PUSH1 0x0 SWAP1 SLOAD SWAP1 PUSH2 0x100 EXP SWAP1 DIV PUSH20 0xFFFFFFFFFFFFFFFFFFFFFFFFFFFFFFFFFFFFFFFF AND PUSH20 0xFFFFFFFFFFFFFFFFFFFFFFFFFFFFFFFFFFFFFFFF AND PUSH4 0x70A08231 ADDRESS PUSH1 0x40 MLOAD DUP3 PUSH4 0xFFFFFFFF AND PUSH1 0xE0 SHL DUP2 MSTORE PUSH1 0x4 ADD PUSH2 0x652 SWAP2 SWAP1 PUSH2 0x2539 JUMP JUMPDEST PUSH1 0x20 PUSH1 0x40 MLOAD DUP1 DUP4 SUB DUP2 DUP7 GAS STATICCALL ISZERO DUP1 ISZERO PUSH2 0x66F JUMPI RETURNDATASIZE PUSH1 0x0 DUP1 RETURNDATACOPY RETURNDATASIZE PUSH1 0x0 REVERT JUMPDEST POP POP POP POP PUSH1 0x40 MLOAD RETURNDATASIZE PUSH1 0x1F NOT PUSH1 0x1F DUP3 ADD AND DUP3 ADD DUP1 PUSH1 0x40 MSTORE POP DUP2 ADD SWAP1 PUSH2 0x693 SWAP2 SWAP1 PUSH2 0x2676 JUMP JUMPDEST SWAP1 POP SWAP1 SWAP2 JUMP JUMPDEST PUSH1 0x0 DUP1 PUSH2 0x6A4 PUSH2 0x1952 JUMP JUMPDEST SWAP1 POP PUSH2 0x6B1 DUP2 DUP6 DUP6 PUSH2 0x195A JUMP JUMPDEST PUSH1 0x1 SWAP2 POP POP SWAP3 SWAP2 POP POP JUMP JUMPDEST PUSH1 0x0 DUP3 GT PUSH2 0x6FF JUMPI PUSH1 0x40 MLOAD PUSH32 0x8C379A000000000000000000000000000000000000000000000000000000000 DUP2 MSTORE PUSH1 0x4 ADD PUSH2 0x6F6 SWAP1 PUSH2 0x2715 JUMP JUMPDEST PUSH1 0x40 MLOAD DUP1 SWAP2 SUB SWAP1 REVERT JUMPDEST PUSH1 0x0 DUP1 PUSH2 0x70A PUSH2 0x556 JUMP JUMPDEST SWAP2 POP SWAP2 POP PUSH1 0x5 PUSH1 0x0 SWAP1 SLOAD SWAP1 PUSH2 0x100 EXP SWAP1 DIV PUSH20 0xFFFFFFFFFFFFFFFFFFFFFFFFFFFFFFFFFFFFFFFF AND PUSH20 0xFFFFFFFFFFFFFFFFFFFFFFFFFFFFFFFFFFFFFFFF AND PUSH4 0x23B872DD CALLER ADDRESS DUP8 PUSH1 0x40 MLOAD DUP5 PUSH4 0xFFFFFFFF AND PUSH1 0xE0 SHL DUP2 MSTORE PUSH1 0x4 ADD PUSH2 0x76D SWAP4 SWAP3 SWAP2 SWAP1 PUSH2 0x2735 JUMP JUMPDEST PUSH1 0x20 PUSH1 0x40 MLOAD DUP1 DUP4 SUB DUP2 PUSH1 0x0 DUP8 GAS CALL ISZERO DUP1 ISZERO PUSH2 0x78C JUMPI RETURNDATASIZE PUSH1 0x0 DUP1 RETURNDATACOPY RETURNDATASIZE PUSH1 0x0 REVERT JUMPDEST POP POP POP POP PUSH1 0x40 MLOAD RETURNDATASIZE PUSH1 0x1F NOT PUSH1 0x1F DUP3 ADD AND DUP3 ADD DUP1 PUSH1 0x40 MSTORE POP DUP2 ADD SWAP1 PUSH2 0x7B0 SWAP2 SWAP1 PUSH2 0x2798 JUMP JUMPDEST POP PUSH1 0x0 DUP3 DUP6 PUSH2 0x7BF SWAP2 SWAP1 PUSH2 0x27F4 JUMP JUMPDEST DUP3 DUP7 PUSH2 0x7CB SWAP2 SWAP1 PUSH2 0x2828 JUMP JUMPDEST PUSH2 0x7D5 SWAP2 SWAP1 PUSH2 0x2899 JUMP JUMPDEST SWAP1 POP DUP1 DUP7 GT ISZERO PUSH2 0x81A JUMPI PUSH1 0x40 MLOAD PUSH32 0x8C379A000000000000000000000000000000000000000000000000000000000 DUP2 MSTORE PUSH1 0x4 ADD PUSH2 0x811 SWAP1 PUSH2 0x2916 JUMP JUMPDEST PUSH1 0x40 MLOAD DUP1 SWAP2 SUB SWAP1 REVERT JUMPDEST PUSH1 0x6 PUSH1 0x0 SWAP1 SLOAD SWAP1 PUSH2 0x100 EXP SWAP1 DIV PUSH20 0xFFFFFFFFFFFFFFFFFFFFFFFFFFFFFFFFFFFFFFFF AND PUSH20 0xFFFFFFFFFFFFFFFFFFFFFFFFFFFFFFFFFFFFFFFF AND PUSH4 0xA9059CBB DUP6 DUP9 PUSH1 0x40 MLOAD DUP4 PUSH4 0xFFFFFFFF AND PUSH1 0xE0 SHL DUP2 MSTORE PUSH1 0x4 ADD PUSH2 0x877 SWAP3 SWAP2 SWAP1 PUSH2 0x2936 JUMP JUMPDEST PUSH1 0x20 PUSH1 0x40 MLOAD DUP1 DUP4 SUB DUP2 PUSH1 0x0 DUP8 GAS CALL ISZERO DUP1 ISZERO PUSH2 0x896 JUMPI RETURNDATASIZE PUSH1 0x0 DUP1 RETURNDATACOPY RETURNDATASIZE PUSH1 0x0 REVERT JUMPDEST POP POP POP POP PUSH1 0x40 MLOAD RETURNDATASIZE PUSH1 0x1F NOT PUSH1 0x1F DUP3 ADD AND DUP3 ADD DUP1 PUSH1 0x40 MSTORE POP DUP2 ADD SWAP1 PUSH2 0x8BA SWAP2 SWAP1 PUSH2 0x2798 JUMP JUMPDEST POP DUP5 DUP5 PUSH20 0xFFFFFFFFFFFFFFFFFFFFFFFFFFFFFFFFFFFFFFFF AND PUSH32 0xA0D6B74E5D650F4CA2BEB1B87BED5BEDE5A1A8C6037F5A7F4CCD7844B0CF5829 DUP9 PUSH1 0x40 MLOAD PUSH2 0x902 SWAP2 SWAP1 PUSH2 0x2458 JUMP JUMPDEST PUSH1 0x40 MLOAD DUP1 SWAP2 SUB SWAP1 LOG3 POP POP POP POP POP POP JUMP JUMPDEST PUSH1 0x0 DUP1 PUSH1 0x0 PUSH2 0x91F PUSH2 0x556 JUMP JUMPDEST SWAP2 POP SWAP2 POP PUSH1 0x0 PUSH1 0x5 PUSH1 0x0 SWAP1 SLOAD SWAP1 PUSH2 0x100 EXP SWAP1 DIV PUSH20 0xFFFFFFFFFFFFFFFFFFFFFFFFFFFFFFFFFFFFFFFF AND PUSH20 0xFFFFFFFFFFFFFFFFFFFFFFFFFFFFFFFFFFFFFFFF AND DUP6 PUSH20 0xFFFFFFFFFFFFFFFFFFFFFFFFFFFFFFFFFFFFFFFF AND EQ SWAP1 POP DUP1 PUSH2 0x9A4 JUMPI DUP6 DUP3 PUSH2 0x989 SWAP2 SWAP1 PUSH2 0x295F JUMP JUMPDEST DUP3 DUP8 PUSH2 0x995 SWAP2 SWAP1 PUSH2 0x2828 JUMP JUMPDEST PUSH2 0x99F SWAP2 SWAP1 PUSH2 0x2899 JUMP JUMPDEST PUSH2 0x9C7 JUMP JUMPDEST DUP6 DUP4 PUSH2 0x9B0 SWAP2 SWAP1 PUSH2 0x295F JUMP JUMPDEST DUP4 DUP8 PUSH2 0x9BC SWAP2 SWAP1 PUSH2 0x2828 JUMP JUMPDEST PUSH2 0x9C6 SWAP2 SWAP1 PUSH2 0x2899 JUMP JUMPDEST JUMPDEST SWAP4 POP POP POP POP SWAP3 SWAP2 POP POP JUMP JUMPDEST PUSH1 0x0 PUSH1 0x2 SLOAD SWAP1 POP SWAP1 JUMP JUMPDEST PUSH1 0x0 DUP1 PUSH2 0x9E7 PUSH2 0x1952 JUMP JUMPDEST SWAP1 POP PUSH2 0x9F4 DUP6 DUP3 DUP6 PUSH2 0x1B23 JUMP JUMPDEST PUSH2 0x9FF DUP6 DUP6 DUP6 PUSH2 0x1BAF JUMP JUMPDEST PUSH1 0x1 SWAP2 POP POP SWAP4 SWAP3 POP POP POP JUMP JUMPDEST PUSH1 0x0 DUP4 GT PUSH2 0xA4E JUMPI PUSH1 0x40 MLOAD PUSH32 0x8C379A000000000000000000000000000000000000000000000000000000000 DUP2 MSTORE PUSH1 0x4 ADD PUSH2 0xA45 SWAP1 PUSH2 0x2A05 JUMP JUMPDEST PUSH1 0x40 MLOAD DUP1 SWAP2 SUB SWAP1 REVERT JUMPDEST PUSH1 0x0 DUP1 PUSH2 0xA59 PUSH2 0x556 JUMP JUMPDEST SWAP2 POP SWAP2 POP PUSH1 0x5 PUSH1 0x0 SWAP1 SLOAD SWAP1 PUSH2 0x100 EXP SWAP1 DIV PUSH20 0xFFFFFFFFFFFFFFFFFFFFFFFFFFFFFFFFFFFFFFFF AND PUSH20 0xFFFFFFFFFFFFFFFFFFFFFFFFFFFFFFFFFFFFFFFF AND PUSH4 0x23B872DD CALLER ADDRESS DUP9 PUSH1 0x40 MLOAD DUP5 PUSH4 0xFFFFFFFF AND PUSH1 0xE0 SHL DUP2 MSTORE PUSH1 0x4 ADD PUSH2 0xABC SWAP4 SWAP3 SWAP2 SWAP1 PUSH2 0x2735 JUMP JUMPDEST PUSH1 0x20 PUSH1 0x40 MLOAD DUP1 DUP4 SUB DUP2 PUSH1 0x0 DUP8 GAS CALL ISZERO DUP1 ISZERO PUSH2 0xADB JUMPI RETURNDATASIZE PUSH1 0x0 DUP1 RETURNDATACOPY RETURNDATASIZE PUSH1 0x0 REVERT JUMPDEST POP POP POP POP PUSH1 0x40 MLOAD RETURNDATASIZE PUSH1 0x1F NOT PUSH1 0x1F DUP3 ADD AND DUP3 ADD DUP1 PUSH1 0x40 MSTORE POP DUP2 ADD SWAP1 PUSH2 0xAFF SWAP2 SWAP1 PUSH2 0x2798 JUMP JUMPDEST POP PUSH1 0x0 DUP2 DUP7 PUSH2 0xB0E SWAP2 SWAP1 PUSH2 0x27F4 JUMP JUMPDEST DUP4 DUP8 PUSH2 0xB1A SWAP2 SWAP1 PUSH2 0x2828 JUMP JUMPDEST PUSH2 0xB24 SWAP2 SWAP1 PUSH2 0x2899 JUMP JUMPDEST SWAP1 POP DUP5 DUP2 LT ISZERO PUSH2 0xBD4 JUMPI PUSH1 0x6 PUSH1 0x0 SWAP1 SLOAD SWAP1 PUSH2 0x100 EXP SWAP1 DIV PUSH20 0xFFFFFFFFFFFFFFFFFFFFFFFFFFFFFFFFFFFFFFFF AND PUSH20 0xFFFFFFFFFFFFFFFFFFFFFFFFFFFFFFFFFFFFFFFF AND PUSH4 0xA9059CBB DUP6 DUP4 PUSH1 0x40 MLOAD DUP4 PUSH4 0xFFFFFFFF AND PUSH1 0xE0 SHL DUP2 MSTORE PUSH1 0x4 ADD PUSH2 0xB8B SWAP3 SWAP2 SWAP1 PUSH2 0x2936 JUMP JUMPDEST PUSH1 0x20 PUSH1 0x40 MLOAD DUP1 DUP4 SUB DUP2 PUSH1 0x0 DUP8 GAS CALL ISZERO DUP1 ISZERO PUSH2 0xBAA JUMPI RETURNDATASIZE PUSH1 0x0 DUP1 RETURNDATACOPY RETURNDATASIZE PUSH1 0x0 REVERT JUMPDEST POP POP POP POP PUSH1 0x40 MLOAD RETURNDATASIZE PUSH1 0x1F NOT PUSH1 0x1F DUP3 ADD AND DUP3 ADD DUP1 PUSH1 0x40 MSTORE POP DUP2 ADD SWAP1 PUSH2 0xBCE SWAP2 SWAP1 PUSH2 0x2798 JUMP JUMPDEST POP PUSH2 0xC79 JUMP JUMPDEST DUP5 SWAP1 POP PUSH1 0x6 PUSH1 0x0 SWAP1 SLOAD SWAP1 PUSH2 0x100 EXP SWAP1 DIV PUSH20 0xFFFFFFFFFFFFFFFFFFFFFFFFFFFFFFFFFFFFFFFF AND PUSH20 0xFFFFFFFFFFFFFFFFFFFFFFFFFFFFFFFFFFFFFFFF AND PUSH4 0xA9059CBB DUP6 DUP4 PUSH1 0x40 MLOAD DUP4 PUSH4 0xFFFFFFFF AND PUSH1 0xE0 SHL DUP2 MSTORE PUSH1 0x4 ADD PUSH2 0xC34 SWAP3 SWAP2 SWAP1 PUSH2 0x2936 JUMP JUMPDEST PUSH1 0x20 PUSH1 0x40 MLOAD DUP1 DUP4 SUB DUP2 PUSH1 0x0 DUP8 GAS CALL ISZERO DUP1 ISZERO PUSH2 0xC53 JUMPI RETURNDATASIZE PUSH1 0x0 DUP1 RETURNDATACOPY RETURNDATASIZE PUSH1 0x0 REVERT JUMPDEST POP POP POP POP PUSH1 0x40 MLOAD RETURNDATASIZE PUSH1 0x1F NOT PUSH1 0x1F DUP3 ADD AND DUP3 ADD DUP1 PUSH1 0x40 MSTORE POP DUP2 ADD SWAP1 PUSH2 0xC77 SWAP2 SWAP1 PUSH2 0x2798 JUMP JUMPDEST POP JUMPDEST DUP6 DUP5 PUSH20 0xFFFFFFFFFFFFFFFFFFFFFFFFFFFFFFFFFFFFFFFF AND PUSH32 0xA0D6B74E5D650F4CA2BEB1B87BED5BEDE5A1A8C6037F5A7F4CCD7844B0CF5829 DUP4 PUSH1 0x40 MLOAD PUSH2 0xCC0 SWAP2 SWAP1 PUSH2 0x2458 JUMP JUMPDEST PUSH1 0x40 MLOAD DUP1 SWAP2 SUB SWAP1 LOG3 POP POP POP POP POP POP JUMP JUMPDEST PUSH1 0x0 PUSH1 0x12 SWAP1 POP SWAP1 JUMP JUMPDEST PUSH1 0x0 DUP1 PUSH2 0xCE4 PUSH2 0x1952 JUMP JUMPDEST SWAP1 POP PUSH2 0xD05 DUP2 DUP6 DUP6 PUSH2 0xCF6 DUP6 DUP10 PUSH2 0x180B JUMP JUMPDEST PUSH2 0xD00 SWAP2 SWAP1 PUSH2 0x27F4 JUMP JUMPDEST PUSH2 0x195A JUMP JUMPDEST PUSH1 0x1 SWAP2 POP POP SWAP3 SWAP2 POP POP JUMP JUMPDEST PUSH1 0x0 DUP3 GT PUSH2 0xD53 JUMPI PUSH1 0x40 MLOAD PUSH32 0x8C379A000000000000000000000000000000000000000000000000000000000 DUP2 MSTORE PUSH1 0x4 ADD PUSH2 0xD4A SWAP1 PUSH2 0x2A97 JUMP JUMPDEST PUSH1 0x40 MLOAD DUP1 SWAP2 SUB SWAP1 REVERT JUMPDEST PUSH1 0x0 DUP1 PUSH2 0xD5E PUSH2 0x556 JUMP JUMPDEST SWAP2 POP SWAP2 POP PUSH1 0x6 PUSH1 0x0 SWAP1 SLOAD SWAP1 PUSH2 0x100 EXP SWAP1 DIV PUSH20 0xFFFFFFFFFFFFFFFFFFFFFFFFFFFFFFFFFFFFFFFF AND PUSH20 0xFFFFFFFFFFFFFFFFFFFFFFFFFFFFFFFFFFFFFFFF AND PUSH4 0x23B872DD CALLER ADDRESS DUP8 PUSH1 0x40 MLOAD DUP5 PUSH4 0xFFFFFFFF AND PUSH1 0xE0 SHL DUP2 MSTORE PUSH1 0x4 ADD PUSH2 0xDC1 SWAP4 SWAP3 SWAP2 SWAP1 PUSH2 0x2735 JUMP JUMPDEST PUSH1 0x20 PUSH1 0x40 MLOAD DUP1 DUP4 SUB DUP2 PUSH1 0x0 DUP8 GAS CALL ISZERO DUP1 ISZERO PUSH2 0xDE0 JUMPI RETURNDATASIZE PUSH1 0x0 DUP1 RETURNDATACOPY RETURNDATASIZE PUSH1 0x0 REVERT JUMPDEST POP POP POP POP PUSH1 0x40 MLOAD RETURNDATASIZE PUSH1 0x1F NOT PUSH1 0x1F DUP3 ADD AND DUP3 ADD DUP1 PUSH1 0x40 MSTORE POP DUP2 ADD SWAP1 PUSH2 0xE04 SWAP2 SWAP1 PUSH2 0x2798 JUMP JUMPDEST POP PUSH1 0x0 DUP2 DUP6 PUSH2 0xE13 SWAP2 SWAP1 PUSH2 0x27F4 JUMP JUMPDEST DUP4 DUP7 PUSH2 0xE1F SWAP2 SWAP1 PUSH2 0x2828 JUMP JUMPDEST PUSH2 0xE29 SWAP2 SWAP1 PUSH2 0x2899 JUMP JUMPDEST SWAP1 POP DUP1 DUP7 GT ISZERO PUSH2 0xE6E JUMPI PUSH1 0x40 MLOAD PUSH32 0x8C379A000000000000000000000000000000000000000000000000000000000 DUP2 MSTORE PUSH1 0x4 ADD PUSH2 0xE65 SWAP1 PUSH2 0x2B03 JUMP JUMPDEST PUSH1 0x40 MLOAD DUP1 SWAP2 SUB SWAP1 REVERT JUMPDEST PUSH1 0x5 PUSH1 0x0 SWAP1 SLOAD SWAP1 PUSH2 0x100 EXP SWAP1 DIV PUSH20 0xFFFFFFFFFFFFFFFFFFFFFFFFFFFFFFFFFFFFFFFF AND PUSH20 0xFFFFFFFFFFFFFFFFFFFFFFFFFFFFFFFFFFFFFFFF AND PUSH4 0xA9059CBB DUP6 DUP9 PUSH1 0x40 MLOAD DUP4 PUSH4 0xFFFFFFFF AND PUSH1 0xE0 SHL DUP2 MSTORE PUSH1 0x4 ADD PUSH2 0xECB SWAP3 SWAP2 SWAP1 PUSH2 0x2936 JUMP JUMPDEST PUSH1 0x20 PUSH1 0x40 MLOAD DUP1 DUP4 SUB DUP2 PUSH1 0x0 DUP8 GAS CALL ISZERO DUP1 ISZERO PUSH2 0xEEA JUMPI RETURNDATASIZE PUSH1 0x0 DUP1 RETURNDATACOPY RETURNDATASIZE PUSH1 0x0 REVERT JUMPDEST POP POP POP POP PUSH1 0x40 MLOAD RETURNDATASIZE PUSH1 0x1F NOT PUSH1 0x1F DUP3 ADD AND DUP3 ADD DUP1 PUSH1 0x40 MSTORE POP DUP2 ADD SWAP1 PUSH2 0xF0E SWAP2 SWAP1 PUSH2 0x2798 JUMP JUMPDEST POP DUP5 DUP5 PUSH20 0xFFFFFFFFFFFFFFFFFFFFFFFFFFFFFFFFFFFFFFFF AND PUSH32 0xCD60AA75DEA3072FBC07AE6D7D856B5DC5F4EEE88854F5B4ABF7B680EF8BC50F DUP9 PUSH1 0x40 MLOAD PUSH2 0xF56 SWAP2 SWAP1 PUSH2 0x2458 JUMP JUMPDEST PUSH1 0x40 MLOAD DUP1 SWAP2 SUB SWAP1 LOG3 POP POP POP POP POP POP JUMP JUMPDEST PUSH1 0x0 DUP1 PUSH1 0x0 DUP4 PUSH20 0xFFFFFFFFFFFFFFFFFFFFFFFFFFFFFFFFFFFFFFFF AND PUSH20 0xFFFFFFFFFFFFFFFFFFFFFFFFFFFFFFFFFFFFFFFF AND DUP2 MSTORE PUSH1 0x20 ADD SWAP1 DUP2 MSTORE PUSH1 0x20 ADD PUSH1 0x0 KECCAK256 SLOAD SWAP1 POP SWAP2 SWAP1 POP JUMP JUMPDEST PUSH1 0x60 PUSH1 0x4 DUP1 SLOAD PUSH2 0xFBD SWAP1 PUSH2 0x2630 JUMP JUMPDEST DUP1 PUSH1 0x1F ADD PUSH1 0x20 DUP1 SWAP2 DIV MUL PUSH1 0x20 ADD PUSH1 0x40 MLOAD SWAP1 DUP2 ADD PUSH1 0x40 MSTORE DUP1 SWAP3 SWAP2 SWAP1 DUP2 DUP2 MSTORE PUSH1 0x20 ADD DUP3 DUP1 SLOAD PUSH2 0xFE9 SWAP1 PUSH2 0x2630 JUMP JUMPDEST DUP1 ISZERO PUSH2 0x1036 JUMPI DUP1 PUSH1 0x1F LT PUSH2 0x100B JUMPI PUSH2 0x100 DUP1 DUP4 SLOAD DIV MUL DUP4 MSTORE SWAP2 PUSH1 0x20 ADD SWAP2 PUSH2 0x1036 JUMP JUMPDEST DUP3 ADD SWAP2 SWAP1 PUSH1 0x0 MSTORE PUSH1 0x20 PUSH1 0x0 KECCAK256 SWAP1 JUMPDEST DUP2 SLOAD DUP2 MSTORE SWAP1 PUSH1 0x1 ADD SWAP1 PUSH1 0x20 ADD DUP1 DUP4 GT PUSH2 0x1019 JUMPI DUP3 SWAP1 SUB PUSH1 0x1F AND DUP3 ADD SWAP2 JUMPDEST POP POP POP POP POP SWAP1 POP SWAP1 JUMP JUMPDEST PUSH1 0x7 PUSH1 0x0 SWAP1 SLOAD SWAP1 PUSH2 0x100 EXP SWAP1 DIV PUSH20 0xFFFFFFFFFFFFFFFFFFFFFFFFFFFFFFFFFFFFFFFF AND DUP2 JUMP JUMPDEST PUSH1 0x6 PUSH1 0x0 SWAP1 SLOAD SWAP1 PUSH2 0x100 EXP SWAP1 DIV PUSH20 0xFFFFFFFFFFFFFFFFFFFFFFFFFFFFFFFFFFFFFFFF AND DUP2 JUMP JUMPDEST PUSH1 0x0 DUP1 PUSH1 0x0 DUP4 GT PUSH2 0x10D2 JUMPI PUSH1 0x40 MLOAD PUSH32 0x8C379A000000000000000000000000000000000000000000000000000000000 DUP2 MSTORE PUSH1 0x4 ADD PUSH2 0x10C9 SWAP1 PUSH2 0x2B6F JUMP JUMPDEST PUSH1 0x40 MLOAD DUP1 SWAP2 SUB SWAP1 REVERT JUMPDEST PUSH1 0x0 DUP1 PUSH2 0x10DD PUSH2 0x556 JUMP JUMPDEST SWAP2 POP SWAP2 POP PUSH2 0x10E9 PUSH2 0x9D2 JUMP JUMPDEST DUP6 DUP3 PUSH2 0x10F5 SWAP2 SWAP1 PUSH2 0x2828 JUMP JUMPDEST PUSH2 0x10FF SWAP2 SWAP1 PUSH2 0x2899 JUMP JUMPDEST SWAP4 POP PUSH2 0x1109 PUSH2 0x9D2 JUMP JUMPDEST DUP6 DUP4 PUSH2 0x1115 SWAP2 SWAP1 PUSH2 0x2828 JUMP JUMPDEST PUSH2 0x111F SWAP2 SWAP1 PUSH2 0x2899 JUMP JUMPDEST SWAP3 POP PUSH2 0x112B CALLER DUP7 PUSH2 0x1E25 JUMP JUMPDEST PUSH1 0x6 PUSH1 0x0 SWAP1 SLOAD SWAP1 PUSH2 0x100 EXP SWAP1 DIV PUSH20 0xFFFFFFFFFFFFFFFFFFFFFFFFFFFFFFFFFFFFFFFF AND PUSH20 0xFFFFFFFFFFFFFFFFFFFFFFFFFFFFFFFFFFFFFFFF AND PUSH4 0xA9059CBB CALLER DUP7 PUSH1 0x40 MLOAD DUP4 PUSH4 0xFFFFFFFF AND PUSH1 0xE0 SHL DUP2 MSTORE PUSH1 0x4 ADD PUSH2 0x1188 SWAP3 SWAP2 SWAP1 PUSH2 0x2936 JUMP JUMPDEST PUSH1 0x20 PUSH1 0x40 MLOAD DUP1 DUP4 SUB DUP2 PUSH1 0x0 DUP8 GAS CALL ISZERO DUP1 ISZERO PUSH2 0x11A7 JUMPI RETURNDATASIZE PUSH1 0x0 DUP1 RETURNDATACOPY RETURNDATASIZE PUSH1 0x0 REVERT JUMPDEST POP POP POP POP PUSH1 0x40 MLOAD RETURNDATASIZE PUSH1 0x1F NOT PUSH1 0x1F DUP3 ADD AND DUP3 ADD DUP1 PUSH1 0x40 MSTORE POP DUP2 ADD SWAP1 PUSH2 0x11CB SWAP2 SWAP1 PUSH2 0x2798 JUMP JUMPDEST POP PUSH1 0x5 PUSH1 0x0 SWAP1 SLOAD SWAP1 PUSH2 0x100 EXP SWAP1 DIV PUSH20 0xFFFFFFFFFFFFFFFFFFFFFFFFFFFFFFFFFFFFFFFF AND PUSH20 0xFFFFFFFFFFFFFFFFFFFFFFFFFFFFFFFFFFFFFFFF AND PUSH4 0xA9059CBB CALLER DUP6 PUSH1 0x40 MLOAD DUP4 PUSH4 0xFFFFFFFF AND PUSH1 0xE0 SHL DUP2 MSTORE PUSH1 0x4 ADD PUSH2 0x1229 SWAP3 SWAP2 SWAP1 PUSH2 0x2936 JUMP JUMPDEST PUSH1 0x20 PUSH1 0x40 MLOAD DUP1 DUP4 SUB DUP2 PUSH1 0x0 DUP8 GAS CALL ISZERO DUP1 ISZERO PUSH2 0x1248 JUMPI RETURNDATASIZE PUSH1 0x0 DUP1 RETURNDATACOPY RETURNDATASIZE PUSH1 0x0 REVERT JUMPDEST POP POP POP POP PUSH1 0x40 MLOAD RETURNDATASIZE PUSH1 0x1F NOT PUSH1 0x1F DUP3 ADD AND DUP3 ADD DUP1 PUSH1 0x40 MSTORE POP DUP2 ADD SWAP1 PUSH2 0x126C SWAP2 SWAP1 PUSH2 0x2798 JUMP JUMPDEST POP DUP3 DUP5 CALLER PUSH20 0xFFFFFFFFFFFFFFFFFFFFFFFFFFFFFFFFFFFFFFFF AND PUSH32 0xFBF06C058B90CB038A618F8C2ACBF6145F8B3570FD1FA56ABB8F0F3F05B36E8 PUSH1 0x40 MLOAD PUSH1 0x40 MLOAD DUP1 SWAP2 SUB SWAP1 LOG4 POP POP SWAP2 POP SWAP2 JUMP JUMPDEST PUSH1 0x0 DUP1 PUSH1 0x0 PUSH2 0x12C6 PUSH2 0x556 JUMP JUMPDEST SWAP2 POP SWAP2 POP PUSH1 0x0 DUP3 SUB PUSH2 0x142F JUMPI PUSH1 0x5 PUSH1 0x0 SWAP1 SLOAD SWAP1 PUSH2 0x100 EXP SWAP1 DIV PUSH20 0xFFFFFFFFFFFFFFFFFFFFFFFFFFFFFFFFFFFFFFFF AND PUSH20 0xFFFFFFFFFFFFFFFFFFFFFFFFFFFFFFFFFFFFFFFF AND PUSH4 0x23B872DD CALLER ADDRESS DUP9 PUSH1 0x40 MLOAD DUP5 PUSH4 0xFFFFFFFF AND PUSH1 0xE0 SHL DUP2 MSTORE PUSH1 0x4 ADD PUSH2 0x1331 SWAP4 SWAP3 SWAP2 SWAP1 PUSH2 0x2735 JUMP JUMPDEST PUSH1 0x20 PUSH1 0x40 MLOAD DUP1 DUP4 SUB DUP2 PUSH1 0x0 DUP8 GAS CALL ISZERO DUP1 ISZERO PUSH2 0x1350 JUMPI RETURNDATASIZE PUSH1 0x0 DUP1 RETURNDATACOPY RETURNDATASIZE PUSH1 0x0 REVERT JUMPDEST POP POP POP POP PUSH1 0x40 MLOAD RETURNDATASIZE PUSH1 0x1F NOT PUSH1 0x1F DUP3 ADD AND DUP3 ADD DUP1 PUSH1 0x40 MSTORE POP DUP2 ADD SWAP1 PUSH2 0x1374 SWAP2 SWAP1 PUSH2 0x2798 JUMP JUMPDEST POP PUSH1 0x6 PUSH1 0x0 SWAP1 SLOAD SWAP1 PUSH2 0x100 EXP SWAP1 DIV PUSH20 0xFFFFFFFFFFFFFFFFFFFFFFFFFFFFFFFFFFFFFFFF AND PUSH20 0xFFFFFFFFFFFFFFFFFFFFFFFFFFFFFFFFFFFFFFFF AND PUSH4 0x23B872DD CALLER ADDRESS DUP8 PUSH1 0x40 MLOAD DUP5 PUSH4 0xFFFFFFFF AND PUSH1 0xE0 SHL DUP2 MSTORE PUSH1 0x4 ADD PUSH2 0x13D4 SWAP4 SWAP3 SWAP2 SWAP1 PUSH2 0x2735 JUMP JUMPDEST PUSH1 0x20 PUSH1 0x40 MLOAD DUP1 DUP4 SUB DUP2 PUSH1 0x0 DUP8 GAS CALL ISZERO DUP1 ISZERO PUSH2 0x13F3 JUMPI RETURNDATASIZE PUSH1 0x0 DUP1 RETURNDATACOPY RETURNDATASIZE PUSH1 0x0 REVERT JUMPDEST POP POP POP POP PUSH1 0x40 MLOAD RETURNDATASIZE PUSH1 0x1F NOT PUSH1 0x1F DUP3 ADD AND DUP3 ADD DUP1 PUSH1 0x40 MSTORE POP DUP2 ADD SWAP1 PUSH2 0x1417 SWAP2 SWAP1 PUSH2 0x2798 JUMP JUMPDEST POP PUSH2 0x142C DUP5 DUP7 PUSH2 0x1427 SWAP2 SWAP1 PUSH2 0x2828 JUMP JUMPDEST PUSH2 0x1FF2 JUMP JUMPDEST SWAP3 POP JUMPDEST PUSH2 0x1439 CALLER DUP5 PUSH2 0x206C JUMP JUMPDEST DUP5 DUP5 CALLER PUSH20 0xFFFFFFFFFFFFFFFFFFFFFFFFFFFFFFFFFFFFFFFF AND PUSH32 0x6239653922AC7BEA6AA2B19DC486B9361821D37712EB796ADFD38D81DE278CA PUSH1 0x40 MLOAD PUSH1 0x40 MLOAD DUP1 SWAP2 SUB SWAP1 LOG4 POP POP SWAP3 SWAP2 POP POP JUMP JUMPDEST PUSH1 0x5 PUSH1 0x0 SWAP1 SLOAD SWAP1 PUSH2 0x100 EXP SWAP1 DIV PUSH20 0xFFFFFFFFFFFFFFFFFFFFFFFFFFFFFFFFFFFFFFFF AND DUP2 JUMP JUMPDEST PUSH1 0x0 DUP1 PUSH2 0x14B7 PUSH2 0x1952 JUMP JUMPDEST SWAP1 POP PUSH1 0x0 PUSH2 0x14C5 DUP3 DUP7 PUSH2 0x180B JUMP JUMPDEST SWAP1 POP DUP4 DUP2 LT ISZERO PUSH2 0x150A JUMPI PUSH1 0x40 MLOAD PUSH32 0x8C379A000000000000000000000000000000000000000000000000000000000 DUP2 MSTORE PUSH1 0x4 ADD PUSH2 0x1501 SWAP1 PUSH2 0x2C01 JUMP JUMPDEST PUSH1 0x40 MLOAD DUP1 SWAP2 SUB SWAP1 REVERT JUMPDEST PUSH2 0x1517 DUP3 DUP7 DUP7 DUP5 SUB PUSH2 0x195A JUMP JUMPDEST PUSH1 0x1 SWAP3 POP POP POP SWAP3 SWAP2 POP POP JUMP JUMPDEST PUSH1 0x0 DUP1 PUSH2 0x152E PUSH2 0x1952 JUMP JUMPDEST SWAP1 POP PUSH2 0x153B DUP2 DUP6 DUP6 PUSH2 0x1BAF JUMP JUMPDEST PUSH1 0x1 SWAP2 POP POP SWAP3 SWAP2 POP POP JUMP JUMPDEST PUSH1 0x0 DUP4 GT PUSH2 0x1589 JUMPI PUSH1 0x40 MLOAD PUSH32 0x8C379A000000000000000000000000000000000000000000000000000000000 DUP2 MSTORE PUSH1 0x4 ADD PUSH2 0x1580 SWAP1 PUSH2 0x2C93 JUMP JUMPDEST PUSH1 0x40 MLOAD DUP1 SWAP2 SUB SWAP1 REVERT JUMPDEST PUSH1 0x0 DUP1 PUSH2 0x1594 PUSH2 0x556 JUMP JUMPDEST SWAP2 POP SWAP2 POP PUSH1 0x6 PUSH1 0x0 SWAP1 SLOAD SWAP1 PUSH2 0x100 EXP SWAP1 DIV PUSH20 0xFFFFFFFFFFFFFFFFFFFFFFFFFFFFFFFFFFFFFFFF AND PUSH20 0xFFFFFFFFFFFFFFFFFFFFFFFFFFFFFFFFFFFFFFFF AND PUSH4 0x23B872DD CALLER ADDRESS DUP9 PUSH1 0x40 MLOAD DUP5 PUSH4 0xFFFFFFFF AND PUSH1 0xE0 SHL DUP2 MSTORE PUSH1 0x4 ADD PUSH2 0x15F7 SWAP4 SWAP3 SWAP2 SWAP1 PUSH2 0x2735 JUMP JUMPDEST PUSH1 0x20 PUSH1 0x40 MLOAD DUP1 DUP4 SUB DUP2 PUSH1 0x0 DUP8 GAS CALL ISZERO DUP1 ISZERO PUSH2 0x1616 JUMPI RETURNDATASIZE PUSH1 0x0 DUP1 RETURNDATACOPY RETURNDATASIZE PUSH1 0x0 REVERT JUMPDEST POP POP POP POP PUSH1 0x40 MLOAD RETURNDATASIZE PUSH1 0x1F NOT PUSH1 0x1F DUP3 ADD AND DUP3 ADD DUP1 PUSH1 0x40 MSTORE POP DUP2 ADD SWAP1 PUSH2 0x163A SWAP2 SWAP1 PUSH2 0x2798 JUMP JUMPDEST POP PUSH1 0x0 DUP2 DUP7 PUSH2 0x1649 SWAP2 SWAP1 PUSH2 0x27F4 JUMP JUMPDEST DUP4 DUP8 PUSH2 0x1655 SWAP2 SWAP1 PUSH2 0x2828 JUMP JUMPDEST PUSH2 0x165F SWAP2 SWAP1 PUSH2 0x2899 JUMP JUMPDEST SWAP1 POP DUP5 DUP2 LT ISZERO PUSH2 0x170F JUMPI PUSH1 0x5 PUSH1 0x0 SWAP1 SLOAD SWAP1 PUSH2 0x100 EXP SWAP1 DIV PUSH20 0xFFFFFFFFFFFFFFFFFFFFFFFFFFFFFFFFFFFFFFFF AND PUSH20 0xFFFFFFFFFFFFFFFFFFFFFFFFFFFFFFFFFFFFFFFF AND PUSH4 0xA9059CBB DUP6 DUP4 PUSH1 0x40 MLOAD DUP4 PUSH4 0xFFFFFFFF AND PUSH1 0xE0 SHL DUP2 MSTORE PUSH1 0x4 ADD PUSH2 0x16C6 SWAP3 SWAP2 SWAP1 PUSH2 0x2936 JUMP JUMPDEST PUSH1 0x20 PUSH1 0x40 MLOAD DUP1 DUP4 SUB DUP2 PUSH1 0x0 DUP8 GAS CALL ISZERO DUP1 ISZERO PUSH2 0x16E5 JUMPI RETURNDATASIZE PUSH1 0x0 DUP1 RETURNDATACOPY RETURNDATASIZE PUSH1 0x0 REVERT JUMPDEST POP POP POP POP PUSH1 0x40 MLOAD RETURNDATASIZE PUSH1 0x1F NOT PUSH1 0x1F DUP3 ADD AND DUP3 ADD DUP1 PUSH1 0x40 MSTORE POP DUP2 ADD SWAP1 PUSH2 0x1709 SWAP2 SWAP1 PUSH2 0x2798 JUMP JUMPDEST POP PUSH2 0x17B4 JUMP JUMPDEST DUP5 SWAP1 POP PUSH1 0x5 PUSH1 0x0 SWAP1 SLOAD SWAP1 PUSH2 0x100 EXP SWAP1 DIV PUSH20 0xFFFFFFFFFFFFFFFFFFFFFFFFFFFFFFFFFFFFFFFF AND PUSH20 0xFFFFFFFFFFFFFFFFFFFFFFFFFFFFFFFFFFFFFFFF AND PUSH4 0xA9059CBB DUP6 DUP4 PUSH1 0x40 MLOAD DUP4 PUSH4 0xFFFFFFFF AND PUSH1 0xE0 SHL DUP2 MSTORE PUSH1 0x4 ADD PUSH2 0x176F SWAP3 SWAP2 SWAP1 PUSH2 0x2936 JUMP JUMPDEST PUSH1 0x20 PUSH1 0x40 MLOAD DUP1 DUP4 SUB DUP2 PUSH1 0x0 DUP8 GAS CALL ISZERO DUP1 ISZERO PUSH2 0x178E JUMPI RETURNDATASIZE PUSH1 0x0 DUP1 RETURNDATACOPY RETURNDATASIZE PUSH1 0x0 REVERT JUMPDEST POP POP POP POP PUSH1 0x40 MLOAD RETURNDATASIZE PUSH1 0x1F NOT PUSH1 0x1F DUP3 ADD AND DUP3 ADD DUP1 PUSH1 0x40 MSTORE POP DUP2 ADD SWAP1 PUSH2 0x17B2 SWAP2 SWAP1 PUSH2 0x2798 JUMP JUMPDEST POP JUMPDEST DUP6 DUP5 PUSH20 0xFFFFFFFFFFFFFFFFFFFFFFFFFFFFFFFFFFFFFFFF AND PUSH32 0xCD60AA75DEA3072FBC07AE6D7D856B5DC5F4EEE88854F5B4ABF7B680EF8BC50F DUP4 PUSH1 0x40 MLOAD PUSH2 0x17FB SWAP2 SWAP1 PUSH2 0x2458 JUMP JUMPDEST PUSH1 0x40 MLOAD DUP1 SWAP2 SUB SWAP1 LOG3 POP POP POP POP POP POP JUMP JUMPDEST PUSH1 0x0 PUSH1 0x1 PUSH1 0x0 DUP5 PUSH20 0xFFFFFFFFFFFFFFFFFFFFFFFFFFFFFFFFFFFFFFFF AND PUSH20 0xFFFFFFFFFFFFFFFFFFFFFFFFFFFFFFFFFFFFFFFF AND DUP2 MSTORE PUSH1 0x20 ADD SWAP1 DUP2 MSTORE PUSH1 0x20 ADD PUSH1 0x0 KECCAK256 PUSH1 0x0 DUP4 PUSH20 0xFFFFFFFFFFFFFFFFFFFFFFFFFFFFFFFFFFFFFFFF AND PUSH20 0xFFFFFFFFFFFFFFFFFFFFFFFFFFFFFFFFFFFFFFFF AND DUP2 MSTORE PUSH1 0x20 ADD SWAP1 DUP2 MSTORE PUSH1 0x20 ADD PUSH1 0x0 KECCAK256 SLOAD SWAP1 POP SWAP3 SWAP2 POP POP JUMP JUMPDEST PUSH1 0x0 DUP1 PUSH1 0x0 PUSH2 0x189F PUSH2 0x556 JUMP JUMPDEST SWAP2 POP SWAP2 POP PUSH1 0x0 PUSH1 0x5 PUSH1 0x0 SWAP1 SLOAD SWAP1 PUSH2 0x100 EXP SWAP1 DIV PUSH20 0xFFFFFFFFFFFFFFFFFFFFFFFFFFFFFFFFFFFFFFFF AND PUSH20 0xFFFFFFFFFFFFFFFFFFFFFFFFFFFFFFFFFFFFFFFF AND DUP6 PUSH20 0xFFFFFFFFFFFFFFFFFFFFFFFFFFFFFFFFFFFFFFFF AND EQ SWAP1 POP DUP1 PUSH2 0x1924 JUMPI DUP2 DUP7 PUSH2 0x1909 SWAP2 SWAP1 PUSH2 0x27F4 JUMP JUMPDEST DUP4 DUP8 PUSH2 0x1915 SWAP2 SWAP1 PUSH2 0x2828 JUMP JUMPDEST PUSH2 0x191F SWAP2 SWAP1 PUSH2 0x2899 JUMP JUMPDEST PUSH2 0x1947 JUMP JUMPDEST DUP3 DUP7 PUSH2 0x1930 SWAP2 SWAP1 PUSH2 0x27F4 JUMP JUMPDEST DUP3 DUP8 PUSH2 0x193C SWAP2 SWAP1 PUSH2 0x2828 JUMP JUMPDEST PUSH2 0x1946 SWAP2 SWAP1 PUSH2 0x2899 JUMP JUMPDEST JUMPDEST SWAP4 POP POP POP POP SWAP3 SWAP2 POP POP JUMP JUMPDEST PUSH1 0x0 CALLER SWAP1 POP SWAP1 JUMP JUMPDEST PUSH1 0x0 PUSH20 0xFFFFFFFFFFFFFFFFFFFFFFFFFFFFFFFFFFFFFFFF AND DUP4 PUSH20 0xFFFFFFFFFFFFFFFFFFFFFFFFFFFFFFFFFFFFFFFF AND SUB PUSH2 0x19C9 JUMPI PUSH1 0x40 MLOAD PUSH32 0x8C379A000000000000000000000000000000000000000000000000000000000 DUP2 MSTORE PUSH1 0x4 ADD PUSH2 0x19C0 SWAP1 PUSH2 0x2D25 JUMP JUMPDEST PUSH1 0x40 MLOAD DUP1 SWAP2 SUB SWAP1 REVERT JUMPDEST PUSH1 0x0 PUSH20 0xFFFFFFFFFFFFFFFFFFFFFFFFFFFFFFFFFFFFFFFF AND DUP3 PUSH20 0xFFFFFFFFFFFFFFFFFFFFFFFFFFFFFFFFFFFFFFFF AND SUB PUSH2 0x1A38 JUMPI PUSH1 0x40 MLOAD PUSH32 0x8C379A000000000000000000000000000000000000000000000000000000000 DUP2 MSTORE PUSH1 0x4 ADD PUSH2 0x1A2F SWAP1 PUSH2 0x2DB7 JUMP JUMPDEST PUSH1 0x40 MLOAD DUP1 SWAP2 SUB SWAP1 REVERT JUMPDEST DUP1 PUSH1 0x1 PUSH1 0x0 DUP6 PUSH20 0xFFFFFFFFFFFFFFFFFFFFFFFFFFFFFFFFFFFFFFFF AND PUSH20 0xFFFFFFFFFFFFFFFFFFFFFFFFFFFFFFFFFFFFFFFF AND DUP2 MSTORE PUSH1 0x20 ADD SWAP1 DUP2 MSTORE PUSH1 0x20 ADD PUSH1 0x0 KECCAK256 PUSH1 0x0 DUP5 PUSH20 0xFFFFFFFFFFFFFFFFFFFFFFFFFFFFFFFFFFFFFFFF AND PUSH20 0xFFFFFFFFFFFFFFFFFFFFFFFFFFFFFFFFFFFFFFFF AND DUP2 MSTORE PUSH1 0x20 ADD SWAP1 DUP2 MSTORE PUSH1 0x20 ADD PUSH1 0x0 KECCAK256 DUP2 SWAP1 SSTORE POP DUP2 PUSH20 0xFFFFFFFFFFFFFFFFFFFFFFFFFFFFFFFFFFFFFFFF AND DUP4 PUSH20 0xFFFFFFFFFFFFFFFFFFFFFFFFFFFFFFFFFFFFFFFF AND PUSH32 0x8C5BE1E5EBEC7D5BD14F71427D1E84F3DD0314C0F7B2291E5B200AC8C7C3B925 DUP4 PUSH1 0x40 MLOAD PUSH2 0x1B16 SWAP2 SWAP1 PUSH2 0x2458 JUMP JUMPDEST PUSH1 0x40 MLOAD DUP1 SWAP2 SUB SWAP1 LOG3 POP POP POP JUMP JUMPDEST PUSH1 0x0 PUSH2 0x1B2F DUP5 DUP5 PUSH2 0x180B JUMP JUMPDEST SWAP1 POP PUSH32 0xFFFFFFFFFFFFFFFFFFFFFFFFFFFFFFFFFFFFFFFFFFFFFFFFFFFFFFFFFFFFFFFF DUP2 EQ PUSH2 0x1BA9 JUMPI DUP2 DUP2 LT ISZERO PUSH2 0x1B9B JUMPI PUSH1 0x40 MLOAD PUSH32 0x8C379A000000000000000000000000000000000000000000000000000000000 DUP2 MSTORE PUSH1 0x4 ADD PUSH2 0x1B92 SWAP1 PUSH2 0x2E23 JUMP JUMPDEST PUSH1 0x40 MLOAD DUP1 SWAP2 SUB SWAP1 REVERT JUMPDEST PUSH2 0x1BA8 DUP5 DUP5 DUP5 DUP5 SUB PUSH2 0x195A JUMP JUMPDEST JUMPDEST POP POP POP POP JUMP JUMPDEST PUSH1 0x0 PUSH20 0xFFFFFFFFFFFFFFFFFFFFFFFFFFFFFFFFFFFFFFFF AND DUP4 PUSH20 0xFFFFFFFFFFFFFFFFFFFFFFFFFFFFFFFFFFFFFFFF AND SUB PUSH2 0x1C1E JUMPI PUSH1 0x40 MLOAD PUSH32 0x8C379A000000000000000000000000000000000000000000000000000000000 DUP2 MSTORE PUSH1 0x4 ADD PUSH2 0x1C15 SWAP1 PUSH2 0x2EB5 JUMP JUMPDEST PUSH1 0x40 MLOAD DUP1 SWAP2 SUB SWAP1 REVERT JUMPDEST PUSH1 0x0 PUSH20 0xFFFFFFFFFFFFFFFFFFFFFFFFFFFFFFFFFFFFFFFF AND DUP3 PUSH20 0xFFFFFFFFFFFFFFFFFFFFFFFFFFFFFFFFFFFFFFFF AND SUB PUSH2 0x1C8D JUMPI PUSH1 0x40 MLOAD PUSH32 0x8C379A000000000000000000000000000000000000000000000000000000000 DUP2 MSTORE PUSH1 0x4 ADD PUSH2 0x1C84 SWAP1 PUSH2 0x2F47 JUMP JUMPDEST PUSH1 0x40 MLOAD DUP1 SWAP2 SUB SWAP1 REVERT JUMPDEST PUSH2 0x1C98 DUP4 DUP4 DUP4 PUSH2 0x21C2 JUMP JUMPDEST PUSH1 0x0 DUP1 PUSH1 0x0 DUP6 PUSH20 0xFFFFFFFFFFFFFFFFFFFFFFFFFFFFFFFFFFFFFFFF AND PUSH20 0xFFFFFFFFFFFFFFFFFFFFFFFFFFFFFFFFFFFFFFFF AND DUP2 MSTORE PUSH1 0x20 ADD SWAP1 DUP2 MSTORE PUSH1 0x20 ADD PUSH1 0x0 KECCAK256 SLOAD SWAP1 POP DUP2 DUP2 LT ISZERO PUSH2 0x1D1E JUMPI PUSH1 0x40 MLOAD PUSH32 0x8C379A000000000000000000000000000000000000000000000000000000000 DUP2 MSTORE PUSH1 0x4 ADD PUSH2 0x1D15 SWAP1 PUSH2 0x2FD9 JUMP JUMPDEST PUSH1 0x40 MLOAD DUP1 SWAP2 SUB SWAP1 REVERT JUMPDEST DUP2 DUP2 SUB PUSH1 0x0 DUP1 DUP7 PUSH20 0xFFFFFFFFFFFFFFFFFFFFFFFFFFFFFFFFFFFFFFFF AND PUSH20 0xFFFFFFFFFFFFFFFFFFFFFFFFFFFFFFFFFFFFFFFF AND DUP2 MSTORE PUSH1 0x20 ADD SWAP1 DUP2 MSTORE PUSH1 0x20 ADD PUSH1 0x0 KECCAK256 DUP2 SWAP1 SSTORE POP DUP2 PUSH1 0x0 DUP1 DUP6 PUSH20 0xFFFFFFFFFFFFFFFFFFFFFFFFFFFFFFFFFFFFFFFF AND PUSH20 0xFFFFFFFFFFFFFFFFFFFFFFFFFFFFFFFFFFFFFFFF AND DUP2 MSTORE PUSH1 0x20 ADD SWAP1 DUP2 MSTORE PUSH1 0x20 ADD PUSH1 0x0 KECCAK256 PUSH1 0x0 DUP3 DUP3 SLOAD ADD SWAP3 POP POP DUP2 SWAP1 SSTORE POP DUP3 PUSH20 0xFFFFFFFFFFFFFFFFFFFFFFFFFFFFFFFFFFFFFFFF AND DUP5 PUSH20 0xFFFFFFFFFFFFFFFFFFFFFFFFFFFFFFFFFFFFFFFF AND PUSH32 0xDDF252AD1BE2C89B69C2B068FC378DAA952BA7F163C4A11628F55A4DF523B3EF DUP5 PUSH1 0x40 MLOAD PUSH2 0x1E0C SWAP2 SWAP1 PUSH2 0x2458 JUMP JUMPDEST PUSH1 0x40 MLOAD DUP1 SWAP2 SUB SWAP1 LOG3 PUSH2 0x1E1F DUP5 DUP5 DUP5 PUSH2 0x21C7 JUMP JUMPDEST POP POP POP POP JUMP JUMPDEST PUSH1 0x0 PUSH20 0xFFFFFFFFFFFFFFFFFFFFFFFFFFFFFFFFFFFFFFFF AND DUP3 PUSH20 0xFFFFFFFFFFFFFFFFFFFFFFFFFFFFFFFFFFFFFFFF AND SUB PUSH2 0x1E94 JUMPI PUSH1 0x40 MLOAD PUSH32 0x8C379A000000000000000000000000000000000000000000000000000000000 DUP2 MSTORE PUSH1 0x4 ADD PUSH2 0x1E8B SWAP1 PUSH2 0x306B JUMP JUMPDEST PUSH1 0x40 MLOAD DUP1 SWAP2 SUB SWAP1 REVERT JUMPDEST PUSH2 0x1EA0 DUP3 PUSH1 0x0 DUP4 PUSH2 0x21C2 JUMP JUMPDEST PUSH1 0x0 DUP1 PUSH1 0x0 DUP5 PUSH20 0xFFFFFFFFFFFFFFFFFFFFFFFFFFFFFFFFFFFFFFFF AND PUSH20 0xFFFFFFFFFFFFFFFFFFFFFFFFFFFFFFFFFFFFFFFF AND DUP2 MSTORE PUSH1 0x20 ADD SWAP1 DUP2 MSTORE PUSH1 0x20 ADD PUSH1 0x0 KECCAK256 SLOAD SWAP1 POP DUP2 DUP2 LT ISZERO PUSH2 0x1F26 JUMPI PUSH1 0x40 MLOAD PUSH32 0x8C379A000000000000000000000000000000000000000000000000000000000 DUP2 MSTORE PUSH1 0x4 ADD PUSH2 0x1F1D SWAP1 PUSH2 0x30FD JUMP JUMPDEST PUSH1 0x40 MLOAD DUP1 SWAP2 SUB SWAP1 REVERT JUMPDEST DUP2 DUP2 SUB PUSH1 0x0 DUP1 DUP6 PUSH20 0xFFFFFFFFFFFFFFFFFFFFFFFFFFFFFFFFFFFFFFFF AND PUSH20 0xFFFFFFFFFFFFFFFFFFFFFFFFFFFFFFFFFFFFFFFF AND DUP2 MSTORE PUSH1 0x20 ADD SWAP1 DUP2 MSTORE PUSH1 0x20 ADD PUSH1 0x0 KECCAK256 DUP2 SWAP1 SSTORE POP DUP2 PUSH1 0x2 PUSH1 0x0 DUP3 DUP3 SLOAD SUB SWAP3 POP POP DUP2 SWAP1 SSTORE POP PUSH1 0x0 PUSH20 0xFFFFFFFFFFFFFFFFFFFFFFFFFFFFFFFFFFFFFFFF AND DUP4 PUSH20 0xFFFFFFFFFFFFFFFFFFFFFFFFFFFFFFFFFFFFFFFF AND PUSH32 0xDDF252AD1BE2C89B69C2B068FC378DAA952BA7F163C4A11628F55A4DF523B3EF DUP5 PUSH1 0x40 MLOAD PUSH2 0x1FD9 SWAP2 SWAP1 PUSH2 0x2458 JUMP JUMPDEST PUSH1 0x40 MLOAD DUP1 SWAP2 SUB SWAP1 LOG3 PUSH2 0x1FED DUP4 PUSH1 0x0 DUP5 PUSH2 0x21C7 JUMP JUMPDEST POP POP POP JUMP JUMPDEST PUSH1 0x0 PUSH1 0x3 DUP3 GT ISZERO PUSH2 0x2059 JUMPI DUP2 SWAP1 POP PUSH1 0x0 PUSH1 0x1 PUSH1 0x2 DUP5 PUSH2 0x2011 SWAP2 SWAP1 PUSH2 0x2899 JUMP JUMPDEST PUSH2 0x201B SWAP2 SWAP1 PUSH2 0x27F4 JUMP JUMPDEST SWAP1 POP JUMPDEST DUP2 DUP2 LT ISZERO PUSH2 0x2053 JUMPI DUP1 SWAP2 POP PUSH1 0x2 DUP2 DUP3 DUP6 PUSH2 0x2038 SWAP2 SWAP1 PUSH2 0x2899 JUMP JUMPDEST PUSH2 0x2042 SWAP2 SWAP1 PUSH2 0x27F4 JUMP JUMPDEST PUSH2 0x204C SWAP2 SWAP1 PUSH2 0x2899 JUMP JUMPDEST SWAP1 POP PUSH2 0x201E JUMP JUMPDEST POP PUSH2 0x2067 JUMP JUMPDEST PUSH1 0x0 DUP3 EQ PUSH2 0x2066 JUMPI PUSH1 0x1 SWAP1 POP JUMPDEST JUMPDEST SWAP2 SWAP1 POP JUMP JUMPDEST PUSH1 0x0 PUSH20 0xFFFFFFFFFFFFFFFFFFFFFFFFFFFFFFFFFFFFFFFF AND DUP3 PUSH20 0xFFFFFFFFFFFFFFFFFFFFFFFFFFFFFFFFFFFFFFFF AND SUB PUSH2 0x20DB JUMPI PUSH1 0x40 MLOAD PUSH32 0x8C379A000000000000000000000000000000000000000000000000000000000 DUP2 MSTORE PUSH1 0x4 ADD PUSH2 0x20D2 SWAP1 PUSH2 0x3169 JUMP JUMPDEST PUSH1 0x40 MLOAD DUP1 SWAP2 SUB SWAP1 REVERT JUMPDEST PUSH2 0x20E7 PUSH1 0x0 DUP4 DUP4 PUSH2 0x21C2 JUMP JUMPDEST DUP1 PUSH1 0x2 PUSH1 0x0 DUP3 DUP3 SLOAD PUSH2 0x20F9 SWAP2 SWAP1 PUSH2 0x27F4 JUMP JUMPDEST SWAP3 POP POP DUP2 SWAP1 SSTORE POP DUP1 PUSH1 0x0 DUP1 DUP5 PUSH20 0xFFFFFFFFFFFFFFFFFFFFFFFFFFFFFFFFFFFFFFFF AND PUSH20 0xFFFFFFFFFFFFFFFFFFFFFFFFFFFFFFFFFFFFFFFF AND DUP2 MSTORE PUSH1 0x20 ADD SWAP1 DUP2 MSTORE PUSH1 0x20 ADD PUSH1 0x0 KECCAK256 PUSH1 0x0 DUP3 DUP3 SLOAD ADD SWAP3 POP POP DUP2 SWAP1 SSTORE POP DUP2 PUSH20 0xFFFFFFFFFFFFFFFFFFFFFFFFFFFFFFFFFFFFFFFF AND PUSH1 0x0 PUSH20 0xFFFFFFFFFFFFFFFFFFFFFFFFFFFFFFFFFFFFFFFF AND PUSH32 0xDDF252AD1BE2C89B69C2B068FC378DAA952BA7F163C4A11628F55A4DF523B3EF DUP4 PUSH1 0x40 MLOAD PUSH2 0x21AA SWAP2 SWAP1 PUSH2 0x2458 JUMP JUMPDEST PUSH1 0x40 MLOAD DUP1 SWAP2 SUB SWAP1 LOG3 PUSH2 0x21BE PUSH1 0x0 DUP4 DUP4 PUSH2 0x21C7 JUMP JUMPDEST POP POP JUMP JUMPDEST POP POP POP JUMP JUMPDEST POP POP POP JUMP JUMPDEST PUSH1 0x0 DUP2 MLOAD SWAP1 POP SWAP2 SWAP1 POP JUMP JUMPDEST PUSH1 0x0 DUP3 DUP3 MSTORE PUSH1 0x20 DUP3 ADD SWAP1 POP SWAP3 SWAP2 POP POP JUMP JUMPDEST PUSH1 0x0 JUMPDEST DUP4 DUP2 LT ISZERO PUSH2 0x2206 JUMPI DUP1 DUP3 ADD MLOAD DUP2 DUP5 ADD MSTORE PUSH1 0x20 DUP2 ADD SWAP1 POP PUSH2 0x21EB JUMP JUMPDEST PUSH1 0x0 DUP5 DUP5 ADD MSTORE POP POP POP POP JUMP JUMPDEST PUSH1 0x0 PUSH1 0x1F NOT PUSH1 0x1F DUP4 ADD AND SWAP1 POP SWAP2 SWAP1 POP JUMP JUMPDEST PUSH1 0x0 PUSH2 0x222E DUP3 PUSH2 0x21CC JUMP JUMPDEST PUSH2 0x2238 DUP2 DUP6 PUSH2 0x21D7 JUMP JUMPDEST SWAP4 POP PUSH2 0x2248 DUP2 DUP6 PUSH1 0x20 DUP7 ADD PUSH2 0x21E8 JUMP JUMPDEST PUSH2 0x2251 DUP2 PUSH2 0x2212 JUMP JUMPDEST DUP5 ADD SWAP2 POP POP SWAP3 SWAP2 POP POP JUMP JUMPDEST PUSH1 0x0 PUSH1 0x20 DUP3 ADD SWAP1 POP DUP2 DUP2 SUB PUSH1 0x0 DUP4 ADD MSTORE PUSH2 0x2276 DUP2 DUP5 PUSH2 0x2223 JUMP JUMPDEST SWAP1 POP SWAP3 SWAP2 POP POP JUMP JUMPDEST PUSH1 0x0 DUP2 SWAP1 POP SWAP2 SWAP1 POP JUMP JUMPDEST PUSH2 0x2291 DUP2 PUSH2 0x227E JUMP JUMPDEST DUP3 MSTORE POP POP JUMP JUMPDEST PUSH1 0x0 PUSH1 0x40 DUP3 ADD SWAP1 POP PUSH2 0x22AC PUSH1 0x0 DUP4 ADD DUP6 PUSH2 0x2288 JUMP JUMPDEST PUSH2 0x22B9 PUSH1 0x20 DUP4 ADD DUP5 PUSH2 0x2288 JUMP JUMPDEST SWAP4 SWAP3 POP POP POP JUMP JUMPDEST PUSH1 0x0 DUP1 REVERT JUMPDEST PUSH1 0x0 PUSH20 0xFFFFFFFFFFFFFFFFFFFFFFFFFFFFFFFFFFFFFFFF DUP3 AND SWAP1 POP SWAP2 SWAP1 POP JUMP JUMPDEST PUSH1 0x0 PUSH2 0x22F0 DUP3 PUSH2 0x22C5 JUMP JUMPDEST SWAP1 POP SWAP2 SWAP1 POP JUMP JUMPDEST PUSH2 0x2300 DUP2 PUSH2 0x22E5 JUMP JUMPDEST DUP2 EQ PUSH2 0x230B JUMPI PUSH1 0x0 DUP1 REVERT JUMPDEST POP JUMP JUMPDEST PUSH1 0x0 DUP2 CALLDATALOAD SWAP1 POP PUSH2 0x231D DUP2 PUSH2 0x22F7 JUMP JUMPDEST SWAP3 SWAP2 POP POP JUMP JUMPDEST PUSH2 0x232C DUP2 PUSH2 0x227E JUMP JUMPDEST DUP2 EQ PUSH2 0x2337 JUMPI PUSH1 0x0 DUP1 REVERT JUMPDEST POP JUMP JUMPDEST PUSH1 0x0 DUP2 CALLDATALOAD SWAP1 POP PUSH2 0x2349 DUP2 PUSH2 0x2323 JUMP JUMPDEST SWAP3 SWAP2 POP POP JUMP JUMPDEST PUSH1 0x0 DUP1 PUSH1 0x40 DUP4 DUP6 SUB SLT ISZERO PUSH2 0x2366 JUMPI PUSH2 0x2365 PUSH2 0x22C0 JUMP JUMPDEST JUMPDEST PUSH1 0x0 PUSH2 0x2374 DUP6 DUP3 DUP7 ADD PUSH2 0x230E JUMP JUMPDEST SWAP3 POP POP PUSH1 0x20 PUSH2 0x2385 DUP6 DUP3 DUP7 ADD PUSH2 0x233A JUMP JUMPDEST SWAP2 POP POP SWAP3 POP SWAP3 SWAP1 POP JUMP JUMPDEST PUSH1 0x0 DUP2 ISZERO ISZERO SWAP1 POP SWAP2 SWAP1 POP JUMP JUMPDEST PUSH2 0x23A4 DUP2 PUSH2 0x238F JUMP JUMPDEST DUP3 MSTORE POP POP JUMP JUMPDEST PUSH1 0x0 PUSH1 0x20 DUP3 ADD SWAP1 POP PUSH2 0x23BF PUSH1 0x0 DUP4 ADD DUP5 PUSH2 0x239B JUMP JUMPDEST SWAP3 SWAP2 POP POP JUMP JUMPDEST PUSH1 0x0 DUP1 PUSH1 0x0 PUSH1 0x60 DUP5 DUP7 SUB SLT ISZERO PUSH2 0x23DE JUMPI PUSH2 0x23DD PUSH2 0x22C0 JUMP JUMPDEST JUMPDEST PUSH1 0x0 PUSH2 0x23EC DUP7 DUP3 DUP8 ADD PUSH2 0x233A JUMP JUMPDEST SWAP4 POP POP PUSH1 0x20 PUSH2 0x23FD DUP7 DUP3 DUP8 ADD PUSH2 0x233A JUMP JUMPDEST SWAP3 POP POP PUSH1 0x40 PUSH2 0x240E DUP7 DUP3 DUP8 ADD PUSH2 0x230E JUMP JUMPDEST SWAP2 POP POP SWAP3 POP SWAP3 POP SWAP3 JUMP JUMPDEST PUSH1 0x0 DUP1 PUSH1 0x40 DUP4 DUP6 SUB SLT ISZERO PUSH2 0x242F JUMPI PUSH2 0x242E PUSH2 0x22C0 JUMP JUMPDEST JUMPDEST PUSH1 0x0 PUSH2 0x243D DUP6 DUP3 DUP7 ADD PUSH2 0x233A JUMP JUMPDEST SWAP3 POP POP PUSH1 0x20 PUSH2 0x244E DUP6 DUP3 DUP7 ADD PUSH2 0x230E JUMP JUMPDEST SWAP2 POP POP SWAP3 POP SWAP3 SWAP1 POP JUMP JUMPDEST PUSH1 0x0 PUSH1 0x20 DUP3 ADD SWAP1 POP PUSH2 0x246D PUSH1 0x0 DUP4 ADD DUP5 PUSH2 0x2288 JUMP JUMPDEST SWAP3 SWAP2 POP POP JUMP JUMPDEST PUSH1 0x0 DUP1 PUSH1 0x0 PUSH1 0x60 DUP5 DUP7 SUB SLT ISZERO PUSH2 0x248C JUMPI PUSH2 0x248B PUSH2 0x22C0 JUMP JUMPDEST JUMPDEST PUSH1 0x0 PUSH2 0x249A DUP7 DUP3 DUP8 ADD PUSH2 0x230E JUMP JUMPDEST SWAP4 POP POP PUSH1 0x20 PUSH2 0x24AB DUP7 DUP3 DUP8 ADD PUSH2 0x230E JUMP JUMPDEST SWAP3 POP POP PUSH1 0x40 PUSH2 0x24BC DUP7 DUP3 DUP8 ADD PUSH2 0x233A JUMP JUMPDEST SWAP2 POP POP SWAP3 POP SWAP3 POP SWAP3 JUMP JUMPDEST PUSH1 0x0 PUSH1 0xFF DUP3 AND SWAP1 POP SWAP2 SWAP1 POP JUMP JUMPDEST PUSH2 0x24DC DUP2 PUSH2 0x24C6 JUMP JUMPDEST DUP3 MSTORE POP POP JUMP JUMPDEST PUSH1 0x0 PUSH1 0x20 DUP3 ADD SWAP1 POP PUSH2 0x24F7 PUSH1 0x0 DUP4 ADD DUP5 PUSH2 0x24D3 JUMP JUMPDEST SWAP3 SWAP2 POP POP JUMP JUMPDEST PUSH1 0x0 PUSH1 0x20 DUP3 DUP5 SUB SLT ISZERO PUSH2 0x2513 JUMPI PUSH2 0x2512 PUSH2 0x22C0 JUMP JUMPDEST JUMPDEST PUSH1 0x0 PUSH2 0x2521 DUP5 DUP3 DUP6 ADD PUSH2 0x230E JUMP JUMPDEST SWAP2 POP POP SWAP3 SWAP2 POP POP JUMP JUMPDEST PUSH2 0x2533 DUP2 PUSH2 0x22E5 JUMP JUMPDEST DUP3 MSTORE POP POP JUMP JUMPDEST PUSH1 0x0 PUSH1 0x20 DUP3 ADD SWAP1 POP PUSH2 0x254E PUSH1 0x0 DUP4 ADD DUP5 PUSH2 0x252A JUMP JUMPDEST SWAP3 SWAP2 POP POP JUMP JUMPDEST PUSH1 0x0 PUSH1 0x20 DUP3 DUP5 SUB SLT ISZERO PUSH2 0x256A JUMPI PUSH2 0x2569 PUSH2 0x22C0 JUMP JUMPDEST JUMPDEST PUSH1 0x0 PUSH2 0x2578 DUP5 DUP3 DUP6 ADD PUSH2 0x233A JUMP JUMPDEST SWAP2 POP POP SWAP3 SWAP2 POP POP JUMP JUMPDEST PUSH1 0x0 DUP1 PUSH1 0x40 DUP4 DUP6 SUB SLT ISZERO PUSH2 0x2598 JUMPI PUSH2 0x2597 PUSH2 0x22C0 JUMP JUMPDEST JUMPDEST PUSH1 0x0 PUSH2 0x25A6 DUP6 DUP3 DUP7 ADD PUSH2 0x233A JUMP JUMPDEST SWAP3 POP POP PUSH1 0x20 PUSH2 0x25B7 DUP6 DUP3 DUP7 ADD PUSH2 0x233A JUMP JUMPDEST SWAP2 POP POP SWAP3 POP SWAP3 SWAP1 POP JUMP JUMPDEST PUSH1 0x0 DUP1 PUSH1 0x40 DUP4 DUP6 SUB SLT ISZERO PUSH2 0x25D8 JUMPI PUSH2 0x25D7 PUSH2 0x22C0 JUMP JUMPDEST JUMPDEST PUSH1 0x0 PUSH2 0x25E6 DUP6 DUP3 DUP7 ADD PUSH2 0x230E JUMP JUMPDEST SWAP3 POP POP PUSH1 0x20 PUSH2 0x25F7 DUP6 DUP3 DUP7 ADD PUSH2 0x230E JUMP JUMPDEST SWAP2 POP POP SWAP3 POP SWAP3 SWAP1 POP JUMP JUMPDEST PUSH32 0x4E487B7100000000000000000000000000000000000000000000000000000000 PUSH1 0x0 MSTORE PUSH1 0x22 PUSH1 0x4 MSTORE PUSH1 0x24 PUSH1 0x0 REVERT JUMPDEST PUSH1 0x0 PUSH1 0x2 DUP3 DIV SWAP1 POP PUSH1 0x1 DUP3 AND DUP1 PUSH2 0x2648 JUMPI PUSH1 0x7F DUP3 AND SWAP2 POP JUMPDEST PUSH1 0x20 DUP3 LT DUP2 SUB PUSH2 0x265B JUMPI PUSH2 0x265A PUSH2 0x2601 JUMP JUMPDEST JUMPDEST POP SWAP2 SWAP1 POP JUMP JUMPDEST PUSH1 0x0 DUP2 MLOAD SWAP1 POP PUSH2 0x2670 DUP2 PUSH2 0x2323 JUMP JUMPDEST SWAP3 SWAP2 POP POP JUMP JUMPDEST PUSH1 0x0 PUSH1 0x20 DUP3 DUP5 SUB SLT ISZERO PUSH2 0x268C JUMPI PUSH2 0x268B PUSH2 0x22C0 JUMP JUMPDEST JUMPDEST PUSH1 0x0 PUSH2 0x269A DUP5 DUP3 DUP6 ADD PUSH2 0x2661 JUMP JUMPDEST SWAP2 POP POP SWAP3 SWAP2 POP POP JUMP JUMPDEST PUSH32 0x416D6F756E74206F66206D6178546F6B656E416D6F756E74496E2063616E6E6F PUSH1 0x0 DUP3 ADD MSTORE PUSH32 0x7420626520300000000000000000000000000000000000000000000000000000 PUSH1 0x20 DUP3 ADD MSTORE POP JUMP JUMPDEST PUSH1 0x0 PUSH2 0x26FF PUSH1 0x26 DUP4 PUSH2 0x21D7 JUMP JUMPDEST SWAP2 POP PUSH2 0x270A DUP3 PUSH2 0x26A3 JUMP JUMPDEST PUSH1 0x40 DUP3 ADD SWAP1 POP SWAP2 SWAP1 POP JUMP JUMPDEST PUSH1 0x0 PUSH1 0x20 DUP3 ADD SWAP1 POP DUP2 DUP2 SUB PUSH1 0x0 DUP4 ADD MSTORE PUSH2 0x272E DUP2 PUSH2 0x26F2 JUMP JUMPDEST SWAP1 POP SWAP2 SWAP1 POP JUMP JUMPDEST PUSH1 0x0 PUSH1 0x60 DUP3 ADD SWAP1 POP PUSH2 0x274A PUSH1 0x0 DUP4 ADD DUP7 PUSH2 0x252A JUMP JUMPDEST PUSH2 0x2757 PUSH1 0x20 DUP4 ADD DUP6 PUSH2 0x252A JUMP JUMPDEST PUSH2 0x2764 PUSH1 0x40 DUP4 ADD DUP5 PUSH2 0x2288 JUMP JUMPDEST SWAP5 SWAP4 POP POP POP POP JUMP JUMPDEST PUSH2 0x2775 DUP2 PUSH2 0x238F JUMP JUMPDEST DUP2 EQ PUSH2 0x2780 JUMPI PUSH1 0x0 DUP1 REVERT JUMPDEST POP JUMP JUMPDEST PUSH1 0x0 DUP2 MLOAD SWAP1 POP PUSH2 0x2792 DUP2 PUSH2 0x276C JUMP JUMPDEST SWAP3 SWAP2 POP POP JUMP JUMPDEST PUSH1 0x0 PUSH1 0x20 DUP3 DUP5 SUB SLT ISZERO PUSH2 0x27AE JUMPI PUSH2 0x27AD PUSH2 0x22C0 JUMP JUMPDEST JUMPDEST PUSH1 0x0 PUSH2 0x27BC DUP5 DUP3 DUP6 ADD PUSH2 0x2783 JUMP JUMPDEST SWAP2 POP POP SWAP3 SWAP2 POP POP JUMP JUMPDEST PUSH32 0x4E487B7100000000000000000000000000000000000000000000000000000000 PUSH1 0x0 MSTORE PUSH1 0x11 PUSH1 0x4 MSTORE PUSH1 0x24 PUSH1 0x0 REVERT JUMPDEST PUSH1 0x0 PUSH2 0x27FF DUP3 PUSH2 0x227E JUMP JUMPDEST SWAP2 POP PUSH2 0x280A DUP4 PUSH2 0x227E JUMP JUMPDEST SWAP3 POP DUP3 DUP3 ADD SWAP1 POP DUP1 DUP3 GT ISZERO PUSH2 0x2822 JUMPI PUSH2 0x2821 PUSH2 0x27C5 JUMP JUMPDEST JUMPDEST SWAP3 SWAP2 POP POP JUMP JUMPDEST PUSH1 0x0 PUSH2 0x2833 DUP3 PUSH2 0x227E JUMP JUMPDEST SWAP2 POP PUSH2 0x283E DUP4 PUSH2 0x227E JUMP JUMPDEST SWAP3 POP DUP3 DUP3 MUL PUSH2 0x284C DUP2 PUSH2 0x227E JUMP JUMPDEST SWAP2 POP DUP3 DUP3 DIV DUP5 EQ DUP4 ISZERO OR PUSH2 0x2863 JUMPI PUSH2 0x2862 PUSH2 0x27C5 JUMP JUMPDEST JUMPDEST POP SWAP3 SWAP2 POP POP JUMP JUMPDEST PUSH32 0x4E487B7100000000000000000000000000000000000000000000000000000000 PUSH1 0x0 MSTORE PUSH1 0x12 PUSH1 0x4 MSTORE PUSH1 0x24 PUSH1 0x0 REVERT JUMPDEST PUSH1 0x0 PUSH2 0x28A4 DUP3 PUSH2 0x227E JUMP JUMPDEST SWAP2 POP PUSH2 0x28AF DUP4 PUSH2 0x227E JUMP JUMPDEST SWAP3 POP DUP3 PUSH2 0x28BF JUMPI PUSH2 0x28BE PUSH2 0x286A JUMP JUMPDEST JUMPDEST DUP3 DUP3 DIV SWAP1 POP SWAP3 SWAP2 POP POP JUMP JUMPDEST PUSH32 0x416D6F756E74206F66206D6178546F6B656E416D6F756E74496E206C65737300 PUSH1 0x0 DUP3 ADD MSTORE POP JUMP JUMPDEST PUSH1 0x0 PUSH2 0x2900 PUSH1 0x1F DUP4 PUSH2 0x21D7 JUMP JUMPDEST SWAP2 POP PUSH2 0x290B DUP3 PUSH2 0x28CA JUMP JUMPDEST PUSH1 0x20 DUP3 ADD SWAP1 POP SWAP2 SWAP1 POP JUMP JUMPDEST PUSH1 0x0 PUSH1 0x20 DUP3 ADD SWAP1 POP DUP2 DUP2 SUB PUSH1 0x0 DUP4 ADD MSTORE PUSH2 0x292F DUP2 PUSH2 0x28F3 JUMP JUMPDEST SWAP1 POP SWAP2 SWAP1 POP JUMP JUMPDEST PUSH1 0x0 PUSH1 0x40 DUP3 ADD SWAP1 POP PUSH2 0x294B PUSH1 0x0 DUP4 ADD DUP6 PUSH2 0x252A JUMP JUMPDEST PUSH2 0x2958 PUSH1 0x20 DUP4 ADD DUP5 PUSH2 0x2288 JUMP JUMPDEST SWAP4 SWAP3 POP POP POP JUMP JUMPDEST PUSH1 0x0 PUSH2 0x296A DUP3 PUSH2 0x227E JUMP JUMPDEST SWAP2 POP PUSH2 0x2975 DUP4 PUSH2 0x227E JUMP JUMPDEST SWAP3 POP DUP3 DUP3 SUB SWAP1 POP DUP2 DUP2 GT ISZERO PUSH2 0x298D JUMPI PUSH2 0x298C PUSH2 0x27C5 JUMP JUMPDEST JUMPDEST SWAP3 SWAP2 POP POP JUMP JUMPDEST PUSH32 0x416D6F756E74206F6620616D6F756E74546F6B656E496E2063616E6E6F742062 PUSH1 0x0 DUP3 ADD MSTORE PUSH32 0x6520300000000000000000000000000000000000000000000000000000000000 PUSH1 0x20 DUP3 ADD MSTORE POP JUMP JUMPDEST PUSH1 0x0 PUSH2 0x29EF PUSH1 0x23 DUP4 PUSH2 0x21D7 JUMP JUMPDEST SWAP2 POP PUSH2 0x29FA DUP3 PUSH2 0x2993 JUMP JUMPDEST PUSH1 0x40 DUP3 ADD SWAP1 POP SWAP2 SWAP1 POP JUMP JUMPDEST PUSH1 0x0 PUSH1 0x20 DUP3 ADD SWAP1 POP DUP2 DUP2 SUB PUSH1 0x0 DUP4 ADD MSTORE PUSH2 0x2A1E DUP2 PUSH2 0x29E2 JUMP JUMPDEST SWAP1 POP SWAP2 SWAP1 POP JUMP JUMPDEST PUSH32 0x416D6F756E74206F66206D617855736474416D6F756E74496E2063616E6E6F74 PUSH1 0x0 DUP3 ADD MSTORE PUSH32 0x2062652030000000000000000000000000000000000000000000000000000000 PUSH1 0x20 DUP3 ADD MSTORE POP JUMP JUMPDEST PUSH1 0x0 PUSH2 0x2A81 PUSH1 0x25 DUP4 PUSH2 0x21D7 JUMP JUMPDEST SWAP2 POP PUSH2 0x2A8C DUP3 PUSH2 0x2A25 JUMP JUMPDEST PUSH1 0x40 DUP3 ADD SWAP1 POP SWAP2 SWAP1 POP JUMP JUMPDEST PUSH1 0x0 PUSH1 0x20 DUP3 ADD SWAP1 POP DUP2 DUP2 SUB PUSH1 0x0 DUP4 ADD MSTORE PUSH2 0x2AB0 DUP2 PUSH2 0x2A74 JUMP JUMPDEST SWAP1 POP SWAP2 SWAP1 POP JUMP JUMPDEST PUSH32 0x416D6F756E74206F66206D617855736474416D6F756E74496E206C6573730000 PUSH1 0x0 DUP3 ADD MSTORE POP JUMP JUMPDEST PUSH1 0x0 PUSH2 0x2AED PUSH1 0x1E DUP4 PUSH2 0x21D7 JUMP JUMPDEST SWAP2 POP PUSH2 0x2AF8 DUP3 PUSH2 0x2AB7 JUMP JUMPDEST PUSH1 0x20 DUP3 ADD SWAP1 POP SWAP2 SWAP1 POP JUMP JUMPDEST PUSH1 0x0 PUSH1 0x20 DUP3 ADD SWAP1 POP DUP2 DUP2 SUB PUSH1 0x0 DUP4 ADD MSTORE PUSH2 0x2B1C DUP2 PUSH2 0x2AE0 JUMP JUMPDEST SWAP1 POP SWAP2 SWAP1 POP JUMP JUMPDEST PUSH32 0x416D6F756E74206F66206C69717569646974792063616E6E6F74206265203000 PUSH1 0x0 DUP3 ADD MSTORE POP JUMP JUMPDEST PUSH1 0x0 PUSH2 0x2B59 PUSH1 0x1F DUP4 PUSH2 0x21D7 JUMP JUMPDEST SWAP2 POP PUSH2 0x2B64 DUP3 PUSH2 0x2B23 JUMP JUMPDEST PUSH1 0x20 DUP3 ADD SWAP1 POP SWAP2 SWAP1 POP JUMP JUMPDEST PUSH1 0x0 PUSH1 0x20 DUP3 ADD SWAP1 POP DUP2 DUP2 SUB PUSH1 0x0 DUP4 ADD MSTORE PUSH2 0x2B88 DUP2 PUSH2 0x2B4C JUMP JUMPDEST SWAP1 POP SWAP2 SWAP1 POP JUMP JUMPDEST PUSH32 0x45524332303A2064656372656173656420616C6C6F77616E63652062656C6F77 PUSH1 0x0 DUP3 ADD MSTORE PUSH32 0x207A65726F000000000000000000000000000000000000000000000000000000 PUSH1 0x20 DUP3 ADD MSTORE POP JUMP JUMPDEST PUSH1 0x0 PUSH2 0x2BEB PUSH1 0x25 DUP4 PUSH2 0x21D7 JUMP JUMPDEST SWAP2 POP PUSH2 0x2BF6 DUP3 PUSH2 0x2B8F JUMP JUMPDEST PUSH1 0x40 DUP3 ADD SWAP1 POP SWAP2 SWAP1 POP JUMP JUMPDEST PUSH1 0x0 PUSH1 0x20 DUP3 ADD SWAP1 POP DUP2 DUP2 SUB PUSH1 0x0 DUP4 ADD MSTORE PUSH2 0x2C1A DUP2 PUSH2 0x2BDE JUMP JUMPDEST SWAP1 POP SWAP2 SWAP1 POP JUMP JUMPDEST PUSH32 0x416D6F756E74206F6620616D6F756E7455736474496E2063616E6E6F74206265 PUSH1 0x0 DUP3 ADD MSTORE PUSH32 0x2030000000000000000000000000000000000000000000000000000000000000 PUSH1 0x20 DUP3 ADD MSTORE POP JUMP JUMPDEST PUSH1 0x0 PUSH2 0x2C7D PUSH1 0x22 DUP4 PUSH2 0x21D7 JUMP JUMPDEST SWAP2 POP PUSH2 0x2C88 DUP3 PUSH2 0x2C21 JUMP JUMPDEST PUSH1 0x40 DUP3 ADD SWAP1 POP SWAP2 SWAP1 POP JUMP JUMPDEST PUSH1 0x0 PUSH1 0x20 DUP3 ADD SWAP1 POP DUP2 DUP2 SUB PUSH1 0x0 DUP4 ADD MSTORE PUSH2 0x2CAC DUP2 PUSH2 0x2C70 JUMP JUMPDEST SWAP1 POP SWAP2 SWAP1 POP JUMP JUMPDEST PUSH32 0x45524332303A20617070726F76652066726F6D20746865207A65726F20616464 PUSH1 0x0 DUP3 ADD MSTORE PUSH32 0x7265737300000000000000000000000000000000000000000000000000000000 PUSH1 0x20 DUP3 ADD MSTORE POP JUMP JUMPDEST PUSH1 0x0 PUSH2 0x2D0F PUSH1 0x24 DUP4 PUSH2 0x21D7 JUMP JUMPDEST SWAP2 POP PUSH2 0x2D1A DUP3 PUSH2 0x2CB3 JUMP JUMPDEST PUSH1 0x40 DUP3 ADD SWAP1 POP SWAP2 SWAP1 POP JUMP JUMPDEST PUSH1 0x0 PUSH1 0x20 DUP3 ADD SWAP1 POP DUP2 DUP2 SUB PUSH1 0x0 DUP4 ADD MSTORE PUSH2 0x2D3E DUP2 PUSH2 0x2D02 JUMP JUMPDEST SWAP1 POP SWAP2 SWAP1 POP JUMP JUMPDEST PUSH32 0x45524332303A20617070726F766520746F20746865207A65726F206164647265 PUSH1 0x0 DUP3 ADD MSTORE PUSH32 0x7373000000000000000000000000000000000000000000000000000000000000 PUSH1 0x20 DUP3 ADD MSTORE POP JUMP JUMPDEST PUSH1 0x0 PUSH2 0x2DA1 PUSH1 0x22 DUP4 PUSH2 0x21D7 JUMP JUMPDEST SWAP2 POP PUSH2 0x2DAC DUP3 PUSH2 0x2D45 JUMP JUMPDEST PUSH1 0x40 DUP3 ADD SWAP1 POP SWAP2 SWAP1 POP JUMP JUMPDEST PUSH1 0x0 PUSH1 0x20 DUP3 ADD SWAP1 POP DUP2 DUP2 SUB PUSH1 0x0 DUP4 ADD MSTORE PUSH2 0x2DD0 DUP2 PUSH2 0x2D94 JUMP JUMPDEST SWAP1 POP SWAP2 SWAP1 POP JUMP JUMPDEST PUSH32 0x45524332303A20696E73756666696369656E7420616C6C6F77616E6365000000 PUSH1 0x0 DUP3 ADD MSTORE POP JUMP JUMPDEST PUSH1 0x0 PUSH2 0x2E0D PUSH1 0x1D DUP4 PUSH2 0x21D7 JUMP JUMPDEST SWAP2 POP PUSH2 0x2E18 DUP3 PUSH2 0x2DD7 JUMP JUMPDEST PUSH1 0x20 DUP3 ADD SWAP1 POP SWAP2 SWAP1 POP JUMP JUMPDEST PUSH1 0x0 PUSH1 0x20 DUP3 ADD SWAP1 POP DUP2 DUP2 SUB PUSH1 0x0 DUP4 ADD MSTORE PUSH2 0x2E3C DUP2 PUSH2 0x2E00 JUMP JUMPDEST SWAP1 POP SWAP2 SWAP1 POP JUMP JUMPDEST PUSH32 0x45524332303A207472616E736665722066726F6D20746865207A65726F206164 PUSH1 0x0 DUP3 ADD MSTORE PUSH32 0x6472657373000000000000000000000000000000000000000000000000000000 PUSH1 0x20 DUP3 ADD MSTORE POP JUMP JUMPDEST PUSH1 0x0 PUSH2 0x2E9F PUSH1 0x25 DUP4 PUSH2 0x21D7 JUMP JUMPDEST SWAP2 POP PUSH2 0x2EAA DUP3 PUSH2 0x2E43 JUMP JUMPDEST PUSH1 0x40 DUP3 ADD SWAP1 POP SWAP2 SWAP1 POP JUMP JUMPDEST PUSH1 0x0 PUSH1 0x20 DUP3 ADD SWAP1 POP DUP2 DUP2 SUB PUSH1 0x0 DUP4 ADD MSTORE PUSH2 0x2ECE DUP2 PUSH2 0x2E92 JUMP JUMPDEST SWAP1 POP SWAP2 SWAP1 POP JUMP JUMPDEST PUSH32 0x45524332303A207472616E7366657220746F20746865207A65726F2061646472 PUSH1 0x0 DUP3 ADD MSTORE PUSH32 0x6573730000000000000000000000000000000000000000000000000000000000 PUSH1 0x20 DUP3 ADD MSTORE POP JUMP JUMPDEST PUSH1 0x0 PUSH2 0x2F31 PUSH1 0x23 DUP4 PUSH2 0x21D7 JUMP JUMPDEST SWAP2 POP PUSH2 0x2F3C DUP3 PUSH2 0x2ED5 JUMP JUMPDEST PUSH1 0x40 DUP3 ADD SWAP1 POP SWAP2 SWAP1 POP JUMP JUMPDEST PUSH1 0x0 PUSH1 0x20 DUP3 ADD SWAP1 POP DUP2 DUP2 SUB PUSH1 0x0 DUP4 ADD MSTORE PUSH2 0x2F60 DUP2 PUSH2 0x2F24 JUMP JUMPDEST SWAP1 POP SWAP2 SWAP1 POP JUMP JUMPDEST PUSH32 0x45524332303A207472616E7366657220616D6F756E7420657863656564732062 PUSH1 0x0 DUP3 ADD MSTORE PUSH32 0x616C616E63650000000000000000000000000000000000000000000000000000 PUSH1 0x20 DUP3 ADD MSTORE POP JUMP JUMPDEST PUSH1 0x0 PUSH2 0x2FC3 PUSH1 0x26 DUP4 PUSH2 0x21D7 JUMP JUMPDEST SWAP2 POP PUSH2 0x2FCE DUP3 PUSH2 0x2F67 JUMP JUMPDEST PUSH1 0x40 DUP3 ADD SWAP1 POP SWAP2 SWAP1 POP JUMP JUMPDEST PUSH1 0x0 PUSH1 0x20 DUP3 ADD SWAP1 POP DUP2 DUP2 SUB PUSH1 0x0 DUP4 ADD MSTORE PUSH2 0x2FF2 DUP2 PUSH2 0x2FB6 JUMP JUMPDEST SWAP1 POP SWAP2 SWAP1 POP JUMP JUMPDEST PUSH32 0x45524332303A206275726E2066726F6D20746865207A65726F20616464726573 PUSH1 0x0 DUP3 ADD MSTORE PUSH32 0x7300000000000000000000000000000000000000000000000000000000000000 PUSH1 0x20 DUP3 ADD MSTORE POP JUMP JUMPDEST PUSH1 0x0 PUSH2 0x3055 PUSH1 0x21 DUP4 PUSH2 0x21D7 JUMP JUMPDEST SWAP2 POP PUSH2 0x3060 DUP3 PUSH2 0x2FF9 JUMP JUMPDEST PUSH1 0x40 DUP3 ADD SWAP1 POP SWAP2 SWAP1 POP JUMP JUMPDEST PUSH1 0x0 PUSH1 0x20 DUP3 ADD SWAP1 POP DUP2 DUP2 SUB PUSH1 0x0 DUP4 ADD MSTORE PUSH2 0x3084 DUP2 PUSH2 0x3048 JUMP JUMPDEST SWAP1 POP SWAP2 SWAP1 POP JUMP JUMPDEST PUSH32 0x45524332303A206275726E20616D6F756E7420657863656564732062616C616E PUSH1 0x0 DUP3 ADD MSTORE PUSH32 0x6365000000000000000000000000000000000000000000000000000000000000 PUSH1 0x20 DUP3 ADD MSTORE POP JUMP JUMPDEST PUSH1 0x0 PUSH2 0x30E7 PUSH1 0x22 DUP4 PUSH2 0x21D7 JUMP JUMPDEST SWAP2 POP PUSH2 0x30F2 DUP3 PUSH2 0x308B JUMP JUMPDEST PUSH1 0x40 DUP3 ADD SWAP1 POP SWAP2 SWAP1 POP JUMP JUMPDEST PUSH1 0x0 PUSH1 0x20 DUP3 ADD SWAP1 POP DUP2 DUP2 SUB PUSH1 0x0 DUP4 ADD MSTORE PUSH2 0x3116 DUP2 PUSH2 0x30DA JUMP JUMPDEST SWAP1 POP SWAP2 SWAP1 POP JUMP JUMPDEST PUSH32 0x45524332303A206D696E7420746F20746865207A65726F206164647265737300 PUSH1 0x0 DUP3 ADD MSTORE POP JUMP JUMPDEST PUSH1 0x0 PUSH2 0x3153 PUSH1 0x1F DUP4 PUSH2 0x21D7 JUMP JUMPDEST SWAP2 POP PUSH2 0x315E DUP3 PUSH2 0x311D JUMP JUMPDEST PUSH1 0x20 DUP3 ADD SWAP1 POP SWAP2 SWAP1 POP JUMP JUMPDEST PUSH1 0x0 PUSH1 0x20 DUP3 ADD SWAP1 POP DUP2 DUP2 SUB PUSH1 0x0 DUP4 ADD MSTORE PUSH2 0x3182 DUP2 PUSH2 0x3146 JUMP JUMPDEST SWAP1 POP SWAP2 SWAP1 POP JUMP INVALID LOG2 PUSH5 0x6970667358 0x22 SLT KECCAK256 0xC1 MSTORE8 0xC5 PUSH16 0xC2EFFC01470242365BFC961BB6B6493C REVERT 0xCF 0xB4 DUP9 CALLER 0xB0 0xE9 0xD8 PUSH9 0x9F811F64736F6C6343 STOP ADDMOD SLT STOP CALLER "
				},
				"gasEstimates": {
					"creation": {
						"codeDepositCost": "2547000",
						"executionCost": "infinite",
						"totalCost": "infinite"
					},
					"external": {
						"addLiquidity(uint256,uint256)": "infinite",
						"allowance(address,address)": "infinite",
						"approve(address,uint256)": "infinite",
						"balanceOf(address)": "2864",
						"decimals()": "432",
						"decreaseAllowance(address,uint256)": "infinite",
						"factoryAddress()": "2581",
						"getAmountIn(uint256,address)": "infinite",
						"getAmountOut(uint256,address)": "infinite",
						"getReserves()": "infinite",
						"increaseAllowance(address,uint256)": "infinite",
						"name()": "infinite",
						"removeLiquidity(uint256)": "infinite",
						"swapExactTokenToUsdt(uint256,uint256,address)": "infinite",
						"swapExactUsdtToToken(uint256,uint256,address)": "infinite",
						"swapTokenToExactUsdt(uint256,uint256,address)": "infinite",
						"swapUsdtToExactToken(uint256,uint256,address)": "infinite",
						"symbol()": "infinite",
						"tokenAddress()": "2536",
						"totalSupply()": "2460",
						"transfer(address,uint256)": "infinite",
						"transferFrom(address,address,uint256)": "infinite",
						"usdtAddress()": "2603"
					},
					"internal": {
						"_sqrt(uint256)": "infinite"
					}
				},
				"methodIdentifiers": {
					"addLiquidity(uint256,uint256)": "9cd441da",
					"allowance(address,address)": "dd62ed3e",
					"approve(address,uint256)": "095ea7b3",
					"balanceOf(address)": "70a08231",
					"decimals()": "313ce567",
					"decreaseAllowance(address,uint256)": "a457c2d7",
					"factoryAddress()": "966dae0e",
					"getAmountIn(uint256,address)": "1125f13f",
					"getAmountOut(uint256,address)": "f140a35a",
					"getReserves()": "0902f1ac",
					"increaseAllowance(address,uint256)": "39509351",
					"name()": "06fdde03",
					"removeLiquidity(uint256)": "9c8f9f23",
					"swapExactTokenToUsdt(uint256,uint256,address)": "29f10c7e",
					"swapExactUsdtToToken(uint256,uint256,address)": "ab26daf8",
					"swapTokenToExactUsdt(uint256,uint256,address)": "0b855c95",
					"swapUsdtToExactToken(uint256,uint256,address)": "6a877f7b",
					"symbol()": "95d89b41",
					"tokenAddress()": "9d76ea58",
					"totalSupply()": "18160ddd",
					"transfer(address,uint256)": "a9059cbb",
					"transferFrom(address,address,uint256)": "23b872dd",
					"usdtAddress()": "9ab4a445"
				}
			},
			"storageLayout": {
				"storage": [
					{
						"astId": 15,
						"contract": "defi-practice/contracts/04_Exchange.sol:Exchange",
						"label": "_balances",
						"offset": 0,
						"slot": "0",
						"type": "t_mapping(t_address,t_uint256)"
					},
					{
						"astId": 21,
						"contract": "defi-practice/contracts/04_Exchange.sol:Exchange",
						"label": "_allowances",
						"offset": 0,
						"slot": "1",
						"type": "t_mapping(t_address,t_mapping(t_address,t_uint256))"
					},
					{
						"astId": 23,
						"contract": "defi-practice/contracts/04_Exchange.sol:Exchange",
						"label": "_totalSupply",
						"offset": 0,
						"slot": "2",
						"type": "t_uint256"
					},
					{
						"astId": 25,
						"contract": "defi-practice/contracts/04_Exchange.sol:Exchange",
						"label": "_name",
						"offset": 0,
						"slot": "3",
						"type": "t_string_storage"
					},
					{
						"astId": 27,
						"contract": "defi-practice/contracts/04_Exchange.sol:Exchange",
						"label": "_symbol",
						"offset": 0,
						"slot": "4",
						"type": "t_string_storage"
					},
					{
						"astId": 719,
						"contract": "defi-practice/contracts/04_Exchange.sol:Exchange",
						"label": "tokenAddress",
						"offset": 0,
						"slot": "5",
						"type": "t_address"
					},
					{
						"astId": 721,
						"contract": "defi-practice/contracts/04_Exchange.sol:Exchange",
						"label": "usdtAddress",
						"offset": 0,
						"slot": "6",
						"type": "t_address"
					},
					{
						"astId": 723,
						"contract": "defi-practice/contracts/04_Exchange.sol:Exchange",
						"label": "factoryAddress",
						"offset": 0,
						"slot": "7",
						"type": "t_address"
					}
				],
				"types": {
					"t_address": {
						"encoding": "inplace",
						"label": "address",
						"numberOfBytes": "20"
					},
					"t_mapping(t_address,t_mapping(t_address,t_uint256))": {
						"encoding": "mapping",
						"key": "t_address",
						"label": "mapping(address => mapping(address => uint256))",
						"numberOfBytes": "32",
						"value": "t_mapping(t_address,t_uint256)"
					},
					"t_mapping(t_address,t_uint256)": {
						"encoding": "mapping",
						"key": "t_address",
						"label": "mapping(address => uint256)",
						"numberOfBytes": "32",
						"value": "t_uint256"
					},
					"t_string_storage": {
						"encoding": "bytes",
						"label": "string",
						"numberOfBytes": "32"
					},
					"t_uint256": {
						"encoding": "inplace",
						"label": "uint256",
						"numberOfBytes": "32"
					}
				}
			},
			"userdoc": {
				"kind": "user",
				"methods": {},
				"version": 1
			}
		}
	}
}