{
	"shijian/6/CBI.sol": {
		"CBI": {
			"abi": [
				{
					"inputs": [
						{
							"internalType": "string",
							"name": "name_",
							"type": "string"
						},
						{
							"internalType": "string",
							"name": "symbol_",
							"type": "string"
						}
					],
					"stateMutability": "nonpayable",
					"type": "constructor"
				},
				{
					"anonymous": false,
					"inputs": [
						{
							"indexed": true,
							"internalType": "address",
							"name": "owner",
							"type": "address"
						},
						{
							"indexed": true,
							"internalType": "address",
							"name": "approved",
							"type": "address"
						},
						{
							"indexed": true,
							"internalType": "uint256",
							"name": "tokenId",
							"type": "uint256"
						}
					],
					"name": "Approval",
					"type": "event"
				},
				{
					"anonymous": false,
					"inputs": [
						{
							"indexed": true,
							"internalType": "address",
							"name": "owner",
							"type": "address"
						},
						{
							"indexed": true,
							"internalType": "address",
							"name": "operator",
							"type": "address"
						},
						{
							"indexed": false,
							"internalType": "bool",
							"name": "approved",
							"type": "bool"
						}
					],
					"name": "ApprovalForAll",
					"type": "event"
				},
				{
					"anonymous": false,
					"inputs": [
						{
							"indexed": true,
							"internalType": "address",
							"name": "from",
							"type": "address"
						},
						{
							"indexed": true,
							"internalType": "address",
							"name": "to",
							"type": "address"
						},
						{
							"indexed": true,
							"internalType": "uint256",
							"name": "tokenId",
							"type": "uint256"
						}
					],
					"name": "Transfer",
					"type": "event"
				},
				{
					"inputs": [],
					"name": "MAX_CBIS",
					"outputs": [
						{
							"internalType": "uint256",
							"name": "",
							"type": "uint256"
						}
					],
					"stateMutability": "view",
					"type": "function"
				},
				{
					"inputs": [
						{
							"internalType": "address",
							"name": "to",
							"type": "address"
						},
						{
							"internalType": "uint256",
							"name": "tokenId",
							"type": "uint256"
						}
					],
					"name": "approve",
					"outputs": [],
					"stateMutability": "nonpayable",
					"type": "function"
				},
				{
					"inputs": [
						{
							"internalType": "address",
							"name": "owner",
							"type": "address"
						}
					],
					"name": "balanceOf",
					"outputs": [
						{
							"internalType": "uint256",
							"name": "",
							"type": "uint256"
						}
					],
					"stateMutability": "view",
					"type": "function"
				},
				{
					"inputs": [
						{
							"internalType": "uint256",
							"name": "tokenId",
							"type": "uint256"
						}
					],
					"name": "getApproved",
					"outputs": [
						{
							"internalType": "address",
							"name": "",
							"type": "address"
						}
					],
					"stateMutability": "view",
					"type": "function"
				},
				{
					"inputs": [
						{
							"internalType": "address",
							"name": "owner",
							"type": "address"
						},
						{
							"internalType": "address",
							"name": "operator",
							"type": "address"
						}
					],
					"name": "isApprovedForAll",
					"outputs": [
						{
							"internalType": "bool",
							"name": "",
							"type": "bool"
						}
					],
					"stateMutability": "view",
					"type": "function"
				},
				{
					"inputs": [
						{
							"internalType": "address",
							"name": "to",
							"type": "address"
						},
						{
							"internalType": "uint256",
							"name": "tokenId",
							"type": "uint256"
						}
					],
					"name": "mint",
					"outputs": [],
					"stateMutability": "nonpayable",
					"type": "function"
				},
				{
					"inputs": [],
					"name": "name",
					"outputs": [
						{
							"internalType": "string",
							"name": "",
							"type": "string"
						}
					],
					"stateMutability": "view",
					"type": "function"
				},
				{
					"inputs": [
						{
							"internalType": "uint256",
							"name": "tokenId",
							"type": "uint256"
						}
					],
					"name": "ownerOf",
					"outputs": [
						{
							"internalType": "address",
							"name": "owner",
							"type": "address"
						}
					],
					"stateMutability": "view",
					"type": "function"
				},
				{
					"inputs": [
						{
							"internalType": "address",
							"name": "from",
							"type": "address"
						},
						{
							"internalType": "address",
							"name": "to",
							"type": "address"
						},
						{
							"internalType": "uint256",
							"name": "tokenId",
							"type": "uint256"
						}
					],
					"name": "safeTransferFrom",
					"outputs": [],
					"stateMutability": "nonpayable",
					"type": "function"
				},
				{
					"inputs": [
						{
							"internalType": "address",
							"name": "from",
							"type": "address"
						},
						{
							"internalType": "address",
							"name": "to",
							"type": "address"
						},
						{
							"internalType": "uint256",
							"name": "tokenId",
							"type": "uint256"
						},
						{
							"internalType": "bytes",
							"name": "_data",
							"type": "bytes"
						}
					],
					"name": "safeTransferFrom",
					"outputs": [],
					"stateMutability": "nonpayable",
					"type": "function"
				},
				{
					"inputs": [
						{
							"internalType": "address",
							"name": "operator",
							"type": "address"
						},
						{
							"internalType": "bool",
							"name": "approved",
							"type": "bool"
						}
					],
					"name": "setApprovalForAll",
					"outputs": [],
					"stateMutability": "nonpayable",
					"type": "function"
				},
				{
					"inputs": [
						{
							"internalType": "bytes4",
							"name": "interfaceId",
							"type": "bytes4"
						}
					],
					"name": "supportsInterface",
					"outputs": [
						{
							"internalType": "bool",
							"name": "",
							"type": "bool"
						}
					],
					"stateMutability": "pure",
					"type": "function"
				},
				{
					"inputs": [],
					"name": "symbol",
					"outputs": [
						{
							"internalType": "string",
							"name": "",
							"type": "string"
						}
					],
					"stateMutability": "view",
					"type": "function"
				},
				{
					"inputs": [
						{
							"internalType": "uint256",
							"name": "tokenId",
							"type": "uint256"
						}
					],
					"name": "tokenURI",
					"outputs": [
						{
							"internalType": "string",
							"name": "",
							"type": "string"
						}
					],
					"stateMutability": "view",
					"type": "function"
				},
				{
					"inputs": [
						{
							"internalType": "address",
							"name": "from",
							"type": "address"
						},
						{
							"internalType": "address",
							"name": "to",
							"type": "address"
						},
						{
							"internalType": "uint256",
							"name": "tokenId",
							"type": "uint256"
						}
					],
					"name": "transferFrom",
					"outputs": [],
					"stateMutability": "nonpayable",
					"type": "function"
				}
			],
			"devdoc": {
				"kind": "dev",
				"methods": {
					"supportsInterface(bytes4)": {
						"details": "如果合约实现了查询的`interfaceId`，则返回true 规则详见：https://eips.ethereum.org/EIPS/eip-165#how-interfaces-are-identified[EIP section]"
					}
				},
				"version": 1
			},
			"evm": {
				"assembly": "    /* \"shijian/6/CBI.sol\":87:564  contract CBI is ERC721 {... */\n  mstore(0x40, 0x80)\n    /* \"shijian/6/CBI.sol\":139:142  100 */\n  0x64\n    /* \"shijian/6/CBI.sol\":116:142  uint public MAX_CBIS = 100 */\n  0x06\n  sstore\n    /* \"shijian/6/CBI.sol\":159:252  constructor(string memory name_, string memory symbol_)... */\n  callvalue\n  dup1\n  iszero\n  tag_1\n  jumpi\n  0x00\n  dup1\n  revert\ntag_1:\n  pop\n  mload(0x40)\n  sub(codesize, bytecodeSize)\n  dup1\n  bytecodeSize\n  dup4\n  codecopy\n  dup2\n  dup2\n  add\n  0x40\n  mstore\n  dup2\n  add\n  swap1\n  tag_2\n  swap2\n  swap1\n  tag_3\n  jump\t// in\ntag_2:\n    /* \"shijian/6/CBI.sol\":230:235  name_ */\n  dup2\n    /* \"shijian/6/CBI.sol\":237:244  symbol_ */\n  dup2\n    /* \"shijian/6/tokens/ERC721.sol\":1234:1239  name_ */\n  dup2\n    /* \"shijian/6/tokens/ERC721.sol\":1227:1231  name */\n  0x00\n    /* \"shijian/6/tokens/ERC721.sol\":1227:1239  name = name_ */\n  swap1\n  dup1\n  mload\n  swap1\n  0x20\n  add\n  swap1\n  tag_7\n  swap3\n  swap2\n  swap1\n  tag_8\n  jump\t// in\ntag_7:\n  pop\n    /* \"shijian/6/tokens/ERC721.sol\":1258:1265  symbol_ */\n  dup1\n    /* \"shijian/6/tokens/ERC721.sol\":1249:1255  symbol */\n  0x01\n    /* \"shijian/6/tokens/ERC721.sol\":1249:1265  symbol = symbol_ */\n  swap1\n  dup1\n  mload\n  swap1\n  0x20\n  add\n  swap1\n  tag_9\n  swap3\n  swap2\n  swap1\n  tag_8\n  jump\t// in\ntag_9:\n  pop\n    /* \"shijian/6/tokens/ERC721.sol\":1161:1272  constructor(string memory name_, string memory symbol_) {... */\n  pop\n  pop\n    /* \"shijian/6/CBI.sol\":159:252  constructor(string memory name_, string memory symbol_)... */\n  pop\n  pop\n    /* \"shijian/6/CBI.sol\":87:564  contract CBI is ERC721 {... */\n  jump(tag_11)\ntag_8:\n  dup3\n  dup1\n  sload\n  tag_12\n  swap1\n  tag_13\n  jump\t// in\ntag_12:\n  swap1\n  0x00\n  mstore\n  keccak256(0x00, 0x20)\n  swap1\n  0x1f\n  add\n  0x20\n  swap1\n  div\n  dup2\n  add\n  swap3\n  dup3\n  tag_15\n  jumpi\n  0x00\n  dup6\n  sstore\n  jump(tag_14)\ntag_15:\n  dup3\n  0x1f\n  lt\n  tag_16\n  jumpi\n  dup1\n  mload\n  not(0xff)\n  and\n  dup4\n  dup1\n  add\n  or\n  dup6\n  sstore\n  jump(tag_14)\ntag_16:\n  dup3\n  dup1\n  add\n  0x01\n  add\n  dup6\n  sstore\n  dup3\n  iszero\n  tag_14\n  jumpi\n  swap2\n  dup3\n  add\ntag_17:\n  dup3\n  dup2\n  gt\n  iszero\n  tag_18\n  jumpi\n  dup3\n  mload\n  dup3\n  sstore\n  swap2\n  0x20\n  add\n  swap2\n  swap1\n  0x01\n  add\n  swap1\n  jump(tag_17)\ntag_18:\ntag_14:\n  pop\n  swap1\n  pop\n  tag_19\n  swap2\n  swap1\n  tag_20\n  jump\t// in\ntag_19:\n  pop\n  swap1\n  jump\t// out\ntag_20:\ntag_21:\n  dup1\n  dup3\n  gt\n  iszero\n  tag_22\n  jumpi\n  0x00\n  dup2\n  0x00\n  swap1\n  sstore\n  pop\n  0x01\n  add\n  jump(tag_21)\ntag_22:\n  pop\n  swap1\n  jump\t// out\n    /* \"#utility.yul\":7:361   */\ntag_24:\n    /* \"#utility.yul\":96:101   */\n  0x00\n    /* \"#utility.yul\":121:187   */\n  tag_26\n    /* \"#utility.yul\":137:186   */\n  tag_27\n    /* \"#utility.yul\":179:185   */\n  dup5\n    /* \"#utility.yul\":137:186   */\n  tag_28\n  jump\t// in\ntag_27:\n    /* \"#utility.yul\":121:187   */\n  tag_29\n  jump\t// in\ntag_26:\n    /* \"#utility.yul\":112:187   */\n  swap1\n  pop\n    /* \"#utility.yul\":210:216   */\n  dup3\n    /* \"#utility.yul\":203:208   */\n  dup2\n    /* \"#utility.yul\":196:217   */\n  mstore\n    /* \"#utility.yul\":248:252   */\n  0x20\n    /* \"#utility.yul\":241:246   */\n  dup2\n    /* \"#utility.yul\":237:253   */\n  add\n    /* \"#utility.yul\":286:289   */\n  dup5\n    /* \"#utility.yul\":277:283   */\n  dup5\n    /* \"#utility.yul\":272:275   */\n  dup5\n    /* \"#utility.yul\":268:284   */\n  add\n    /* \"#utility.yul\":265:290   */\n  gt\n    /* \"#utility.yul\":262:264   */\n  iszero\n  tag_30\n  jumpi\n    /* \"#utility.yul\":303:304   */\n  0x00\n    /* \"#utility.yul\":300:301   */\n  dup1\n    /* \"#utility.yul\":293:305   */\n  revert\n    /* \"#utility.yul\":262:264   */\ntag_30:\n    /* \"#utility.yul\":316:355   */\n  tag_31\n    /* \"#utility.yul\":348:354   */\n  dup5\n    /* \"#utility.yul\":343:346   */\n  dup3\n    /* \"#utility.yul\":338:341   */\n  dup6\n    /* \"#utility.yul\":316:355   */\n  tag_32\n  jump\t// in\ntag_31:\n    /* \"#utility.yul\":102:361   */\n  pop\n  swap4\n  swap3\n  pop\n  pop\n  pop\n  jump\t// out\n    /* \"#utility.yul\":381:669   */\ntag_33:\n    /* \"#utility.yul\":448:453   */\n  0x00\n    /* \"#utility.yul\":497:500   */\n  dup3\n    /* \"#utility.yul\":490:494   */\n  0x1f\n    /* \"#utility.yul\":482:488   */\n  dup4\n    /* \"#utility.yul\":478:495   */\n  add\n    /* \"#utility.yul\":474:501   */\n  slt\n    /* \"#utility.yul\":464:466   */\n  tag_35\n  jumpi\n    /* \"#utility.yul\":515:516   */\n  0x00\n    /* \"#utility.yul\":512:513   */\n  dup1\n    /* \"#utility.yul\":505:517   */\n  revert\n    /* \"#utility.yul\":464:466   */\ntag_35:\n    /* \"#utility.yul\":548:554   */\n  dup2\n    /* \"#utility.yul\":542:555   */\n  mload\n    /* \"#utility.yul\":573:663   */\n  tag_36\n    /* \"#utility.yul\":659:662   */\n  dup5\n    /* \"#utility.yul\":651:657   */\n  dup3\n    /* \"#utility.yul\":644:648   */\n  0x20\n    /* \"#utility.yul\":636:642   */\n  dup7\n    /* \"#utility.yul\":632:649   */\n  add\n    /* \"#utility.yul\":573:663   */\n  tag_24\n  jump\t// in\ntag_36:\n    /* \"#utility.yul\":564:663   */\n  swap2\n  pop\n    /* \"#utility.yul\":454:669   */\n  pop\n  swap3\n  swap2\n  pop\n  pop\n  jump\t// out\n    /* \"#utility.yul\":675:1327   */\ntag_3:\n    /* \"#utility.yul\":774:780   */\n  0x00\n    /* \"#utility.yul\":782:788   */\n  dup1\n    /* \"#utility.yul\":831:833   */\n  0x40\n    /* \"#utility.yul\":819:828   */\n  dup4\n    /* \"#utility.yul\":810:817   */\n  dup6\n    /* \"#utility.yul\":806:829   */\n  sub\n    /* \"#utility.yul\":802:834   */\n  slt\n    /* \"#utility.yul\":799:801   */\n  iszero\n  tag_38\n  jumpi\n    /* \"#utility.yul\":847:848   */\n  0x00\n    /* \"#utility.yul\":844:845   */\n  dup1\n    /* \"#utility.yul\":837:849   */\n  revert\n    /* \"#utility.yul\":799:801   */\ntag_38:\n    /* \"#utility.yul\":911:912   */\n  0x00\n    /* \"#utility.yul\":900:909   */\n  dup4\n    /* \"#utility.yul\":896:913   */\n  add\n    /* \"#utility.yul\":890:914   */\n  mload\n    /* \"#utility.yul\":941:959   */\n  0xffffffffffffffff\n    /* \"#utility.yul\":933:939   */\n  dup2\n    /* \"#utility.yul\":930:960   */\n  gt\n    /* \"#utility.yul\":927:929   */\n  iszero\n  tag_39\n  jumpi\n    /* \"#utility.yul\":973:974   */\n  0x00\n    /* \"#utility.yul\":970:971   */\n  dup1\n    /* \"#utility.yul\":963:975   */\n  revert\n    /* \"#utility.yul\":927:929   */\ntag_39:\n    /* \"#utility.yul\":1001:1075   */\n  tag_40\n    /* \"#utility.yul\":1067:1074   */\n  dup6\n    /* \"#utility.yul\":1058:1064   */\n  dup3\n    /* \"#utility.yul\":1047:1056   */\n  dup7\n    /* \"#utility.yul\":1043:1065   */\n  add\n    /* \"#utility.yul\":1001:1075   */\n  tag_33\n  jump\t// in\ntag_40:\n    /* \"#utility.yul\":991:1075   */\n  swap3\n  pop\n    /* \"#utility.yul\":861:1085   */\n  pop\n    /* \"#utility.yul\":1145:1147   */\n  0x20\n    /* \"#utility.yul\":1134:1143   */\n  dup4\n    /* \"#utility.yul\":1130:1148   */\n  add\n    /* \"#utility.yul\":1124:1149   */\n  mload\n    /* \"#utility.yul\":1176:1194   */\n  0xffffffffffffffff\n    /* \"#utility.yul\":1168:1174   */\n  dup2\n    /* \"#utility.yul\":1165:1195   */\n  gt\n    /* \"#utility.yul\":1162:1164   */\n  iszero\n  tag_41\n  jumpi\n    /* \"#utility.yul\":1208:1209   */\n  0x00\n    /* \"#utility.yul\":1205:1206   */\n  dup1\n    /* \"#utility.yul\":1198:1210   */\n  revert\n    /* \"#utility.yul\":1162:1164   */\ntag_41:\n    /* \"#utility.yul\":1236:1310   */\n  tag_42\n    /* \"#utility.yul\":1302:1309   */\n  dup6\n    /* \"#utility.yul\":1293:1299   */\n  dup3\n    /* \"#utility.yul\":1282:1291   */\n  dup7\n    /* \"#utility.yul\":1278:1300   */\n  add\n    /* \"#utility.yul\":1236:1310   */\n  tag_33\n  jump\t// in\ntag_42:\n    /* \"#utility.yul\":1226:1310   */\n  swap2\n  pop\n    /* \"#utility.yul\":1095:1320   */\n  pop\n    /* \"#utility.yul\":789:1327   */\n  swap3\n  pop\n  swap3\n  swap1\n  pop\n  jump\t// out\n    /* \"#utility.yul\":1333:1462   */\ntag_29:\n    /* \"#utility.yul\":1367:1373   */\n  0x00\n    /* \"#utility.yul\":1394:1414   */\n  tag_44\n  tag_45\n  jump\t// in\ntag_44:\n    /* \"#utility.yul\":1384:1414   */\n  swap1\n  pop\n    /* \"#utility.yul\":1423:1456   */\n  tag_46\n    /* \"#utility.yul\":1451:1455   */\n  dup3\n    /* \"#utility.yul\":1443:1449   */\n  dup3\n    /* \"#utility.yul\":1423:1456   */\n  tag_47\n  jump\t// in\ntag_46:\n    /* \"#utility.yul\":1374:1462   */\n  swap2\n  swap1\n  pop\n  jump\t// out\n    /* \"#utility.yul\":1468:1543   */\ntag_45:\n    /* \"#utility.yul\":1501:1507   */\n  0x00\n    /* \"#utility.yul\":1534:1536   */\n  0x40\n    /* \"#utility.yul\":1528:1537   */\n  mload\n    /* \"#utility.yul\":1518:1537   */\n  swap1\n  pop\n    /* \"#utility.yul\":1508:1543   */\n  swap1\n  jump\t// out\n    /* \"#utility.yul\":1549:1857   */\ntag_28:\n    /* \"#utility.yul\":1611:1615   */\n  0x00\n    /* \"#utility.yul\":1701:1719   */\n  0xffffffffffffffff\n    /* \"#utility.yul\":1693:1699   */\n  dup3\n    /* \"#utility.yul\":1690:1720   */\n  gt\n    /* \"#utility.yul\":1687:1689   */\n  iszero\n  tag_50\n  jumpi\n    /* \"#utility.yul\":1723:1741   */\n  tag_51\n  tag_52\n  jump\t// in\ntag_51:\n    /* \"#utility.yul\":1687:1689   */\ntag_50:\n    /* \"#utility.yul\":1761:1790   */\n  tag_53\n    /* \"#utility.yul\":1783:1789   */\n  dup3\n    /* \"#utility.yul\":1761:1790   */\n  tag_54\n  jump\t// in\ntag_53:\n    /* \"#utility.yul\":1753:1790   */\n  swap1\n  pop\n    /* \"#utility.yul\":1845:1849   */\n  0x20\n    /* \"#utility.yul\":1839:1843   */\n  dup2\n    /* \"#utility.yul\":1835:1850   */\n  add\n    /* \"#utility.yul\":1827:1850   */\n  swap1\n  pop\n    /* \"#utility.yul\":1616:1857   */\n  swap2\n  swap1\n  pop\n  jump\t// out\n    /* \"#utility.yul\":1863:2170   */\ntag_32:\n    /* \"#utility.yul\":1931:1932   */\n  0x00\n    /* \"#utility.yul\":1941:2054   */\ntag_56:\n    /* \"#utility.yul\":1955:1961   */\n  dup4\n    /* \"#utility.yul\":1952:1953   */\n  dup2\n    /* \"#utility.yul\":1949:1962   */\n  lt\n    /* \"#utility.yul\":1941:2054   */\n  iszero\n  tag_58\n  jumpi\n    /* \"#utility.yul\":2040:2041   */\n  dup1\n    /* \"#utility.yul\":2035:2038   */\n  dup3\n    /* \"#utility.yul\":2031:2042   */\n  add\n    /* \"#utility.yul\":2025:2043   */\n  mload\n    /* \"#utility.yul\":2021:2022   */\n  dup2\n    /* \"#utility.yul\":2016:2019   */\n  dup5\n    /* \"#utility.yul\":2012:2023   */\n  add\n    /* \"#utility.yul\":2005:2044   */\n  mstore\n    /* \"#utility.yul\":1977:1979   */\n  0x20\n    /* \"#utility.yul\":1974:1975   */\n  dup2\n    /* \"#utility.yul\":1970:1980   */\n  add\n    /* \"#utility.yul\":1965:1980   */\n  swap1\n  pop\n    /* \"#utility.yul\":1941:2054   */\n  jump(tag_56)\ntag_58:\n    /* \"#utility.yul\":2072:2078   */\n  dup4\n    /* \"#utility.yul\":2069:2070   */\n  dup2\n    /* \"#utility.yul\":2066:2079   */\n  gt\n    /* \"#utility.yul\":2063:2065   */\n  iszero\n  tag_59\n  jumpi\n    /* \"#utility.yul\":2152:2153   */\n  0x00\n    /* \"#utility.yul\":2143:2149   */\n  dup5\n    /* \"#utility.yul\":2138:2141   */\n  dup5\n    /* \"#utility.yul\":2134:2150   */\n  add\n    /* \"#utility.yul\":2127:2154   */\n  mstore\n    /* \"#utility.yul\":2063:2065   */\ntag_59:\n    /* \"#utility.yul\":1912:2170   */\n  pop\n  pop\n  pop\n  pop\n  jump\t// out\n    /* \"#utility.yul\":2176:2496   */\ntag_13:\n    /* \"#utility.yul\":2220:2226   */\n  0x00\n    /* \"#utility.yul\":2257:2258   */\n  0x02\n    /* \"#utility.yul\":2251:2255   */\n  dup3\n    /* \"#utility.yul\":2247:2259   */\n  div\n    /* \"#utility.yul\":2237:2259   */\n  swap1\n  pop\n    /* \"#utility.yul\":2304:2305   */\n  0x01\n    /* \"#utility.yul\":2298:2302   */\n  dup3\n    /* \"#utility.yul\":2294:2306   */\n  and\n    /* \"#utility.yul\":2325:2343   */\n  dup1\n    /* \"#utility.yul\":2315:2317   */\n  tag_61\n  jumpi\n    /* \"#utility.yul\":2381:2385   */\n  0x7f\n    /* \"#utility.yul\":2373:2379   */\n  dup3\n    /* \"#utility.yul\":2369:2386   */\n  and\n    /* \"#utility.yul\":2359:2386   */\n  swap2\n  pop\n    /* \"#utility.yul\":2315:2317   */\ntag_61:\n    /* \"#utility.yul\":2443:2445   */\n  0x20\n    /* \"#utility.yul\":2435:2441   */\n  dup3\n    /* \"#utility.yul\":2432:2446   */\n  lt\n    /* \"#utility.yul\":2412:2430   */\n  dup2\n    /* \"#utility.yul\":2409:2447   */\n  eq\n    /* \"#utility.yul\":2406:2408   */\n  iszero\n  tag_62\n  jumpi\n    /* \"#utility.yul\":2462:2480   */\n  tag_63\n  tag_64\n  jump\t// in\ntag_63:\n    /* \"#utility.yul\":2406:2408   */\ntag_62:\n    /* \"#utility.yul\":2227:2496   */\n  pop\n  swap2\n  swap1\n  pop\n  jump\t// out\n    /* \"#utility.yul\":2502:2783   */\ntag_47:\n    /* \"#utility.yul\":2585:2612   */\n  tag_66\n    /* \"#utility.yul\":2607:2611   */\n  dup3\n    /* \"#utility.yul\":2585:2612   */\n  tag_54\n  jump\t// in\ntag_66:\n    /* \"#utility.yul\":2577:2583   */\n  dup2\n    /* \"#utility.yul\":2573:2613   */\n  add\n    /* \"#utility.yul\":2715:2721   */\n  dup2\n    /* \"#utility.yul\":2703:2713   */\n  dup2\n    /* \"#utility.yul\":2700:2722   */\n  lt\n    /* \"#utility.yul\":2679:2697   */\n  0xffffffffffffffff\n    /* \"#utility.yul\":2667:2677   */\n  dup3\n    /* \"#utility.yul\":2664:2698   */\n  gt\n    /* \"#utility.yul\":2661:2723   */\n  or\n    /* \"#utility.yul\":2658:2660   */\n  iszero\n  tag_67\n  jumpi\n    /* \"#utility.yul\":2726:2744   */\n  tag_68\n  tag_52\n  jump\t// in\ntag_68:\n    /* \"#utility.yul\":2658:2660   */\ntag_67:\n    /* \"#utility.yul\":2766:2776   */\n  dup1\n    /* \"#utility.yul\":2762:2764   */\n  0x40\n    /* \"#utility.yul\":2755:2777   */\n  mstore\n    /* \"#utility.yul\":2545:2783   */\n  pop\n  pop\n  pop\n  jump\t// out\n    /* \"#utility.yul\":2789:2969   */\ntag_64:\n    /* \"#utility.yul\":2837:2914   */\n  0x4e487b7100000000000000000000000000000000000000000000000000000000\n    /* \"#utility.yul\":2834:2835   */\n  0x00\n    /* \"#utility.yul\":2827:2915   */\n  mstore\n    /* \"#utility.yul\":2934:2938   */\n  0x22\n    /* \"#utility.yul\":2931:2932   */\n  0x04\n    /* \"#utility.yul\":2924:2939   */\n  mstore\n    /* \"#utility.yul\":2958:2962   */\n  0x24\n    /* \"#utility.yul\":2955:2956   */\n  0x00\n    /* \"#utility.yul\":2948:2963   */\n  revert\n    /* \"#utility.yul\":2975:3155   */\ntag_52:\n    /* \"#utility.yul\":3023:3100   */\n  0x4e487b7100000000000000000000000000000000000000000000000000000000\n    /* \"#utility.yul\":3020:3021   */\n  0x00\n    /* \"#utility.yul\":3013:3101   */\n  mstore\n    /* \"#utility.yul\":3120:3124   */\n  0x41\n    /* \"#utility.yul\":3117:3118   */\n  0x04\n    /* \"#utility.yul\":3110:3125   */\n  mstore\n    /* \"#utility.yul\":3144:3148   */\n  0x24\n    /* \"#utility.yul\":3141:3142   */\n  0x00\n    /* \"#utility.yul\":3134:3149   */\n  revert\n    /* \"#utility.yul\":3161:3263   */\ntag_54:\n    /* \"#utility.yul\":3202:3208   */\n  0x00\n    /* \"#utility.yul\":3253:3255   */\n  0x1f\n    /* \"#utility.yul\":3249:3256   */\n  not\n    /* \"#utility.yul\":3244:3246   */\n  0x1f\n    /* \"#utility.yul\":3237:3242   */\n  dup4\n    /* \"#utility.yul\":3233:3247   */\n  add\n    /* \"#utility.yul\":3229:3257   */\n  and\n    /* \"#utility.yul\":3219:3257   */\n  swap1\n  pop\n    /* \"#utility.yul\":3209:3263   */\n  swap2\n  swap1\n  pop\n  jump\t// out\n    /* \"shijian/6/CBI.sol\":87:564  contract CBI is ERC721 {... */\ntag_11:\n  dataSize(sub_0)\n  dup1\n  dataOffset(sub_0)\n  0x00\n  codecopy\n  0x00\n  return\nstop\n\nsub_0: assembly {\n        /* \"shijian/6/CBI.sol\":87:564  contract CBI is ERC721 {... */\n      mstore(0x40, 0x80)\n      callvalue\n      dup1\n      iszero\n      tag_1\n      jumpi\n      0x00\n      dup1\n      revert\n    tag_1:\n      pop\n      jumpi(tag_2, lt(calldatasize, 0x04))\n      shr(0xe0, calldataload(0x00))\n      dup1\n      0x6352211e\n      gt\n      tag_18\n      jumpi\n      dup1\n      0xb1a3a695\n      gt\n      tag_19\n      jumpi\n      dup1\n      0xb1a3a695\n      eq\n      tag_14\n      jumpi\n      dup1\n      0xb88d4fde\n      eq\n      tag_15\n      jumpi\n      dup1\n      0xc87b56dd\n      eq\n      tag_16\n      jumpi\n      dup1\n      0xe985e9c5\n      eq\n      tag_17\n      jumpi\n      jump(tag_2)\n    tag_19:\n      dup1\n      0x6352211e\n      eq\n      tag_10\n      jumpi\n      dup1\n      0x70a08231\n      eq\n      tag_11\n      jumpi\n      dup1\n      0x95d89b41\n      eq\n      tag_12\n      jumpi\n      dup1\n      0xa22cb465\n      eq\n      tag_13\n      jumpi\n      jump(tag_2)\n    tag_18:\n      dup1\n      0x095ea7b3\n      gt\n      tag_20\n      jumpi\n      dup1\n      0x095ea7b3\n      eq\n      tag_6\n      jumpi\n      dup1\n      0x23b872dd\n      eq\n      tag_7\n      jumpi\n      dup1\n      0x40c10f19\n      eq\n      tag_8\n      jumpi\n      dup1\n      0x42842e0e\n      eq\n      tag_9\n      jumpi\n      jump(tag_2)\n    tag_20:\n      dup1\n      0x01ffc9a7\n      eq\n      tag_3\n      jumpi\n      dup1\n      0x06fdde03\n      eq\n      tag_4\n      jumpi\n      dup1\n      0x081812fc\n      eq\n      tag_5\n      jumpi\n    tag_2:\n      0x00\n      dup1\n      revert\n        /* \"shijian/6/tokens/ERC721.sol\":1322:1639  function supportsInterface(bytes4 interfaceId)... */\n    tag_3:\n      tag_21\n      0x04\n      dup1\n      calldatasize\n      sub\n      dup2\n      add\n      swap1\n      tag_22\n      swap2\n      swap1\n      tag_23\n      jump\t// in\n    tag_22:\n      tag_24\n      jump\t// in\n    tag_21:\n      mload(0x40)\n      tag_25\n      swap2\n      swap1\n      tag_26\n      jump\t// in\n    tag_25:\n      mload(0x40)\n      dup1\n      swap2\n      sub\n      swap1\n      return\n        /* \"shijian/6/tokens/ERC721.sol\":498:525  string public override name */\n    tag_4:\n      tag_27\n      tag_28\n      jump\t// in\n    tag_27:\n      mload(0x40)\n      tag_29\n      swap2\n      swap1\n      tag_30\n      jump\t// in\n    tag_29:\n      mload(0x40)\n      dup1\n      swap2\n      sub\n      swap1\n      return\n        /* \"shijian/6/tokens/ERC721.sol\":3003:3235  function getApproved(uint tokenId)... */\n    tag_5:\n      tag_31\n      0x04\n      dup1\n      calldatasize\n      sub\n      dup2\n      add\n      swap1\n      tag_32\n      swap2\n      swap1\n      tag_33\n      jump\t// in\n    tag_32:\n      tag_34\n      jump\t// in\n    tag_31:\n      mload(0x40)\n      tag_35\n      swap2\n      swap1\n      tag_36\n      jump\t// in\n    tag_35:\n      mload(0x40)\n      dup1\n      swap2\n      sub\n      swap1\n      return\n        /* \"shijian/6/tokens/ERC721.sol\":3704:3999  function approve(address to, uint tokenId) external override {... */\n    tag_6:\n      tag_37\n      0x04\n      dup1\n      calldatasize\n      sub\n      dup2\n      add\n      swap1\n      tag_38\n      swap2\n      swap1\n      tag_39\n      jump\t// in\n    tag_38:\n      tag_40\n      jump\t// in\n    tag_37:\n      stop\n        /* \"shijian/6/tokens/ERC721.sol\":5113:5442  function transferFrom(... */\n    tag_7:\n      tag_41\n      0x04\n      dup1\n      calldatasize\n      sub\n      dup2\n      add\n      swap1\n      tag_42\n      swap2\n      swap1\n      tag_43\n      jump\t// in\n    tag_42:\n      tag_44\n      jump\t// in\n    tag_41:\n      stop\n        /* \"shijian/6/CBI.sol\":401:562  function mint(address to, uint tokenId) external {... */\n    tag_8:\n      tag_45\n      0x04\n      dup1\n      calldatasize\n      sub\n      dup2\n      add\n      swap1\n      tag_46\n      swap2\n      swap1\n      tag_39\n      jump\t// in\n    tag_46:\n      tag_47\n      jump\t// in\n    tag_45:\n      stop\n        /* \"shijian/6/tokens/ERC721.sol\":6741:6911  function safeTransferFrom(... */\n    tag_9:\n      tag_48\n      0x04\n      dup1\n      calldatasize\n      sub\n      dup2\n      add\n      swap1\n      tag_49\n      swap2\n      swap1\n      tag_43\n      jump\t// in\n    tag_49:\n      tag_50\n      jump\t// in\n    tag_48:\n      stop\n        /* \"shijian/6/tokens/ERC721.sol\":1989:2203  function ownerOf(uint tokenId)... */\n    tag_10:\n      tag_51\n      0x04\n      dup1\n      calldatasize\n      sub\n      dup2\n      add\n      swap1\n      tag_52\n      swap2\n      swap1\n      tag_33\n      jump\t// in\n    tag_52:\n      tag_53\n      jump\t// in\n    tag_51:\n      mload(0x40)\n      tag_54\n      swap2\n      swap1\n      tag_36\n      jump\t// in\n    tag_54:\n      mload(0x40)\n      dup1\n      swap2\n      sub\n      swap1\n      return\n        /* \"shijian/6/tokens/ERC721.sol\":1732:1906  function balanceOf(address owner) external view override returns (uint) {... */\n    tag_11:\n      tag_55\n      0x04\n      dup1\n      calldatasize\n      sub\n      dup2\n      add\n      swap1\n      tag_56\n      swap2\n      swap1\n      tag_57\n      jump\t// in\n    tag_56:\n      tag_58\n      jump\t// in\n    tag_55:\n      mload(0x40)\n      tag_59\n      swap2\n      swap1\n      tag_60\n      jump\t// in\n    tag_59:\n      mload(0x40)\n      dup1\n      swap2\n      sub\n      swap1\n      return\n        /* \"shijian/6/tokens/ERC721.sol\":550:579  string public override symbol */\n    tag_12:\n      tag_61\n      tag_62\n      jump\t// in\n    tag_61:\n      mload(0x40)\n      tag_63\n      swap2\n      swap1\n      tag_30\n      jump\t// in\n    tag_63:\n      mload(0x40)\n      dup1\n      swap2\n      sub\n      swap1\n      return\n        /* \"shijian/6/tokens/ERC721.sol\":2674:2901  function setApprovalForAll(address operator, bool approved)... */\n    tag_13:\n      tag_64\n      0x04\n      dup1\n      calldatasize\n      sub\n      dup2\n      add\n      swap1\n      tag_65\n      swap2\n      swap1\n      tag_66\n      jump\t// in\n    tag_65:\n      tag_67\n      jump\t// in\n    tag_64:\n      stop\n        /* \"shijian/6/CBI.sol\":116:142  uint public MAX_CBIS = 100 */\n    tag_14:\n      tag_68\n      tag_69\n      jump\t// in\n    tag_68:\n      mload(0x40)\n      tag_70\n      swap2\n      swap1\n      tag_60\n      jump\t// in\n    tag_70:\n      mload(0x40)\n      dup1\n      swap2\n      sub\n      swap1\n      return\n        /* \"shijian/6/tokens/ERC721.sol\":6329:6699  function safeTransferFrom(... */\n    tag_15:\n      tag_71\n      0x04\n      dup1\n      calldatasize\n      sub\n      dup2\n      add\n      swap1\n      tag_72\n      swap2\n      swap1\n      tag_73\n      jump\t// in\n    tag_72:\n      tag_74\n      jump\t// in\n    tag_71:\n      stop\n        /* \"shijian/6/tokens/ERC721.sol\":8845:9298  function tokenURI(uint256 tokenId)... */\n    tag_16:\n      tag_75\n      0x04\n      dup1\n      calldatasize\n      sub\n      dup2\n      add\n      swap1\n      tag_76\n      swap2\n      swap1\n      tag_33\n      jump\t// in\n    tag_76:\n      tag_77\n      jump\t// in\n    tag_75:\n      mload(0x40)\n      tag_78\n      swap2\n      swap1\n      tag_30\n      jump\t// in\n    tag_78:\n      mload(0x40)\n      dup1\n      swap2\n      sub\n      swap1\n      return\n        /* \"shijian/6/tokens/ERC721.sol\":2352:2544  function isApprovedForAll(address owner, address operator)... */\n    tag_17:\n      tag_79\n      0x04\n      dup1\n      calldatasize\n      sub\n      dup2\n      add\n      swap1\n      tag_80\n      swap2\n      swap1\n      tag_81\n      jump\t// in\n    tag_80:\n      tag_82\n      jump\t// in\n    tag_79:\n      mload(0x40)\n      tag_83\n      swap2\n      swap1\n      tag_26\n      jump\t// in\n    tag_83:\n      mload(0x40)\n      dup1\n      swap2\n      sub\n      swap1\n      return\n        /* \"shijian/6/tokens/ERC721.sol\":1322:1639  function supportsInterface(bytes4 interfaceId)... */\n    tag_24:\n        /* \"shijian/6/tokens/ERC721.sol\":1433:1437  bool */\n      0x00\n        /* \"shijian/6/tokens/ERC721.sol\":1487:1512  type(IERC721).interfaceId */\n      0x80ac58cd00000000000000000000000000000000000000000000000000000000\n        /* \"shijian/6/tokens/ERC721.sol\":1472:1512  interfaceId == type(IERC721).interfaceId */\n      not(0xffffffffffffffffffffffffffffffffffffffffffffffffffffffff)\n      and\n        /* \"shijian/6/tokens/ERC721.sol\":1472:1483  interfaceId */\n      dup3\n        /* \"shijian/6/tokens/ERC721.sol\":1472:1512  interfaceId == type(IERC721).interfaceId */\n      not(0xffffffffffffffffffffffffffffffffffffffffffffffffffffffff)\n      and\n      eq\n        /* \"shijian/6/tokens/ERC721.sol\":1472:1568  interfaceId == type(IERC721).interfaceId ||... */\n      dup1\n      tag_85\n      jumpi\n      pop\n        /* \"shijian/6/tokens/ERC721.sol\":1543:1568  type(IERC165).interfaceId */\n      0x01ffc9a700000000000000000000000000000000000000000000000000000000\n        /* \"shijian/6/tokens/ERC721.sol\":1528:1568  interfaceId == type(IERC165).interfaceId */\n      not(0xffffffffffffffffffffffffffffffffffffffffffffffffffffffff)\n      and\n        /* \"shijian/6/tokens/ERC721.sol\":1528:1539  interfaceId */\n      dup3\n        /* \"shijian/6/tokens/ERC721.sol\":1528:1568  interfaceId == type(IERC165).interfaceId */\n      not(0xffffffffffffffffffffffffffffffffffffffffffffffffffffffff)\n      and\n      eq\n        /* \"shijian/6/tokens/ERC721.sol\":1472:1568  interfaceId == type(IERC721).interfaceId ||... */\n    tag_85:\n        /* \"shijian/6/tokens/ERC721.sol\":1472:1632  interfaceId == type(IERC721).interfaceId ||... */\n      dup1\n      tag_86\n      jumpi\n      pop\n        /* \"shijian/6/tokens/ERC721.sol\":1599:1632  type(IERC721Metadata).interfaceId */\n      0x5b5e139f00000000000000000000000000000000000000000000000000000000\n        /* \"shijian/6/tokens/ERC721.sol\":1584:1632  interfaceId == type(IERC721Metadata).interfaceId */\n      not(0xffffffffffffffffffffffffffffffffffffffffffffffffffffffff)\n      and\n        /* \"shijian/6/tokens/ERC721.sol\":1584:1595  interfaceId */\n      dup3\n        /* \"shijian/6/tokens/ERC721.sol\":1584:1632  interfaceId == type(IERC721Metadata).interfaceId */\n      not(0xffffffffffffffffffffffffffffffffffffffffffffffffffffffff)\n      and\n      eq\n        /* \"shijian/6/tokens/ERC721.sol\":1472:1632  interfaceId == type(IERC721).interfaceId ||... */\n    tag_86:\n        /* \"shijian/6/tokens/ERC721.sol\":1453:1632  return... */\n      swap1\n      pop\n        /* \"shijian/6/tokens/ERC721.sol\":1322:1639  function supportsInterface(bytes4 interfaceId)... */\n      swap2\n      swap1\n      pop\n      jump\t// out\n        /* \"shijian/6/tokens/ERC721.sol\":498:525  string public override name */\n    tag_28:\n      0x00\n      dup1\n      sload\n      tag_87\n      swap1\n      tag_88\n      jump\t// in\n    tag_87:\n      dup1\n      0x1f\n      add\n      0x20\n      dup1\n      swap2\n      div\n      mul\n      0x20\n      add\n      mload(0x40)\n      swap1\n      dup2\n      add\n      0x40\n      mstore\n      dup1\n      swap3\n      swap2\n      swap1\n      dup2\n      dup2\n      mstore\n      0x20\n      add\n      dup3\n      dup1\n      sload\n      tag_89\n      swap1\n      tag_88\n      jump\t// in\n    tag_89:\n      dup1\n      iszero\n      tag_90\n      jumpi\n      dup1\n      0x1f\n      lt\n      tag_91\n      jumpi\n      0x0100\n      dup1\n      dup4\n      sload\n      div\n      mul\n      dup4\n      mstore\n      swap2\n      0x20\n      add\n      swap2\n      jump(tag_90)\n    tag_91:\n      dup3\n      add\n      swap2\n      swap1\n      0x00\n      mstore\n      keccak256(0x00, 0x20)\n      swap1\n    tag_92:\n      dup2\n      sload\n      dup2\n      mstore\n      swap1\n      0x01\n      add\n      swap1\n      0x20\n      add\n      dup1\n      dup4\n      gt\n      tag_92\n      jumpi\n      dup3\n      swap1\n      sub\n      0x1f\n      and\n      dup3\n      add\n      swap2\n    tag_90:\n      pop\n      pop\n      pop\n      pop\n      pop\n      dup2\n      jump\t// out\n        /* \"shijian/6/tokens/ERC721.sol\":3003:3235  function getApproved(uint tokenId)... */\n    tag_34:\n        /* \"shijian/6/tokens/ERC721.sol\":3102:3109  address */\n      0x00\n        /* \"shijian/6/tokens/ERC721.sol\":3161:3162  0 */\n      dup1\n        /* \"shijian/6/tokens/ERC721.sol\":3133:3163  _owners[tokenId] != address(0) */\n      0xffffffffffffffffffffffffffffffffffffffff\n      and\n        /* \"shijian/6/tokens/ERC721.sol\":3133:3140  _owners */\n      0x02\n        /* \"shijian/6/tokens/ERC721.sol\":3133:3149  _owners[tokenId] */\n      0x00\n        /* \"shijian/6/tokens/ERC721.sol\":3141:3148  tokenId */\n      dup5\n        /* \"shijian/6/tokens/ERC721.sol\":3133:3149  _owners[tokenId] */\n      dup2\n      mstore\n      0x20\n      add\n      swap1\n      dup2\n      mstore\n      0x20\n      add\n      0x00\n      keccak256\n      0x00\n      swap1\n      sload\n      swap1\n      0x0100\n      exp\n      swap1\n      div\n      0xffffffffffffffffffffffffffffffffffffffff\n      and\n        /* \"shijian/6/tokens/ERC721.sol\":3133:3163  _owners[tokenId] != address(0) */\n      0xffffffffffffffffffffffffffffffffffffffff\n      and\n      eq\n      iszero\n        /* \"shijian/6/tokens/ERC721.sol\":3125:3187  require(_owners[tokenId] != address(0), \"token doesn't exist\") */\n      tag_94\n      jumpi\n      mload(0x40)\n      0x08c379a000000000000000000000000000000000000000000000000000000000\n      dup2\n      mstore\n      0x04\n      add\n      tag_95\n      swap1\n      tag_96\n      jump\t// in\n    tag_95:\n      mload(0x40)\n      dup1\n      swap2\n      sub\n      swap1\n      revert\n    tag_94:\n        /* \"shijian/6/tokens/ERC721.sol\":3204:3219  _tokenApprovals */\n      0x04\n        /* \"shijian/6/tokens/ERC721.sol\":3204:3228  _tokenApprovals[tokenId] */\n      0x00\n        /* \"shijian/6/tokens/ERC721.sol\":3220:3227  tokenId */\n      dup4\n        /* \"shijian/6/tokens/ERC721.sol\":3204:3228  _tokenApprovals[tokenId] */\n      dup2\n      mstore\n      0x20\n      add\n      swap1\n      dup2\n      mstore\n      0x20\n      add\n      0x00\n      keccak256\n      0x00\n      swap1\n      sload\n      swap1\n      0x0100\n      exp\n      swap1\n      div\n      0xffffffffffffffffffffffffffffffffffffffff\n      and\n        /* \"shijian/6/tokens/ERC721.sol\":3197:3228  return _tokenApprovals[tokenId] */\n      swap1\n      pop\n        /* \"shijian/6/tokens/ERC721.sol\":3003:3235  function getApproved(uint tokenId)... */\n      swap2\n      swap1\n      pop\n      jump\t// out\n        /* \"shijian/6/tokens/ERC721.sol\":3704:3999  function approve(address to, uint tokenId) external override {... */\n    tag_40:\n        /* \"shijian/6/tokens/ERC721.sol\":3775:3788  address owner */\n      0x00\n        /* \"shijian/6/tokens/ERC721.sol\":3791:3798  _owners */\n      0x02\n        /* \"shijian/6/tokens/ERC721.sol\":3791:3807  _owners[tokenId] */\n      0x00\n        /* \"shijian/6/tokens/ERC721.sol\":3799:3806  tokenId */\n      dup4\n        /* \"shijian/6/tokens/ERC721.sol\":3791:3807  _owners[tokenId] */\n      dup2\n      mstore\n      0x20\n      add\n      swap1\n      dup2\n      mstore\n      0x20\n      add\n      0x00\n      keccak256\n      0x00\n      swap1\n      sload\n      swap1\n      0x0100\n      exp\n      swap1\n      div\n      0xffffffffffffffffffffffffffffffffffffffff\n      and\n        /* \"shijian/6/tokens/ERC721.sol\":3775:3807  address owner = _owners[tokenId] */\n      swap1\n      pop\n        /* \"shijian/6/tokens/ERC721.sol\":3852:3857  owner */\n      dup1\n        /* \"shijian/6/tokens/ERC721.sol\":3838:3857  msg.sender == owner */\n      0xffffffffffffffffffffffffffffffffffffffff\n      and\n        /* \"shijian/6/tokens/ERC721.sol\":3838:3848  msg.sender */\n      caller\n        /* \"shijian/6/tokens/ERC721.sol\":3838:3857  msg.sender == owner */\n      0xffffffffffffffffffffffffffffffffffffffff\n      and\n      eq\n        /* \"shijian/6/tokens/ERC721.sol\":3838:3898  msg.sender == owner || _operatorApprovals[owner][msg.sender] */\n      dup1\n      tag_98\n      jumpi\n      pop\n        /* \"shijian/6/tokens/ERC721.sol\":3861:3879  _operatorApprovals */\n      0x05\n        /* \"shijian/6/tokens/ERC721.sol\":3861:3886  _operatorApprovals[owner] */\n      0x00\n        /* \"shijian/6/tokens/ERC721.sol\":3880:3885  owner */\n      dup3\n        /* \"shijian/6/tokens/ERC721.sol\":3861:3886  _operatorApprovals[owner] */\n      0xffffffffffffffffffffffffffffffffffffffff\n      and\n      0xffffffffffffffffffffffffffffffffffffffff\n      and\n      dup2\n      mstore\n      0x20\n      add\n      swap1\n      dup2\n      mstore\n      0x20\n      add\n      0x00\n      keccak256\n        /* \"shijian/6/tokens/ERC721.sol\":3861:3898  _operatorApprovals[owner][msg.sender] */\n      0x00\n        /* \"shijian/6/tokens/ERC721.sol\":3887:3897  msg.sender */\n      caller\n        /* \"shijian/6/tokens/ERC721.sol\":3861:3898  _operatorApprovals[owner][msg.sender] */\n      0xffffffffffffffffffffffffffffffffffffffff\n      and\n      0xffffffffffffffffffffffffffffffffffffffff\n      and\n      dup2\n      mstore\n      0x20\n      add\n      swap1\n      dup2\n      mstore\n      0x20\n      add\n      0x00\n      keccak256\n      0x00\n      swap1\n      sload\n      swap1\n      0x0100\n      exp\n      swap1\n      div\n      0xff\n      and\n        /* \"shijian/6/tokens/ERC721.sol\":3838:3898  msg.sender == owner || _operatorApprovals[owner][msg.sender] */\n    tag_98:\n        /* \"shijian/6/tokens/ERC721.sol\":3817:3954  require(... */\n      tag_99\n      jumpi\n      mload(0x40)\n      0x08c379a000000000000000000000000000000000000000000000000000000000\n      dup2\n      mstore\n      0x04\n      add\n      tag_100\n      swap1\n      tag_101\n      jump\t// in\n    tag_100:\n      mload(0x40)\n      dup1\n      swap2\n      sub\n      swap1\n      revert\n    tag_99:\n        /* \"shijian/6/tokens/ERC721.sol\":3964:3992  _approve(owner, to, tokenId) */\n      tag_102\n        /* \"shijian/6/tokens/ERC721.sol\":3973:3978  owner */\n      dup2\n        /* \"shijian/6/tokens/ERC721.sol\":3980:3982  to */\n      dup5\n        /* \"shijian/6/tokens/ERC721.sol\":3984:3991  tokenId */\n      dup5\n        /* \"shijian/6/tokens/ERC721.sol\":3964:3972  _approve */\n      tag_103\n        /* \"shijian/6/tokens/ERC721.sol\":3964:3992  _approve(owner, to, tokenId) */\n      jump\t// in\n    tag_102:\n        /* \"shijian/6/tokens/ERC721.sol\":3704:3999  function approve(address to, uint tokenId) external override {... */\n      pop\n      pop\n      pop\n      jump\t// out\n        /* \"shijian/6/tokens/ERC721.sol\":5113:5442  function transferFrom(... */\n    tag_44:\n        /* \"shijian/6/tokens/ERC721.sol\":5233:5246  address owner */\n      0x00\n        /* \"shijian/6/tokens/ERC721.sol\":5249:5265  ownerOf(tokenId) */\n      tag_105\n        /* \"shijian/6/tokens/ERC721.sol\":5257:5264  tokenId */\n      dup3\n        /* \"shijian/6/tokens/ERC721.sol\":5249:5256  ownerOf */\n      tag_53\n        /* \"shijian/6/tokens/ERC721.sol\":5249:5265  ownerOf(tokenId) */\n      jump\t// in\n    tag_105:\n        /* \"shijian/6/tokens/ERC721.sol\":5233:5265  address owner = ownerOf(tokenId) */\n      swap1\n      pop\n        /* \"shijian/6/tokens/ERC721.sol\":5296:5342  _isApprovedOrOwner(owner, msg.sender, tokenId) */\n      tag_106\n        /* \"shijian/6/tokens/ERC721.sol\":5315:5320  owner */\n      dup2\n        /* \"shijian/6/tokens/ERC721.sol\":5322:5332  msg.sender */\n      caller\n        /* \"shijian/6/tokens/ERC721.sol\":5334:5341  tokenId */\n      dup5\n        /* \"shijian/6/tokens/ERC721.sol\":5296:5314  _isApprovedOrOwner */\n      tag_107\n        /* \"shijian/6/tokens/ERC721.sol\":5296:5342  _isApprovedOrOwner(owner, msg.sender, tokenId) */\n      jump\t// in\n    tag_106:\n        /* \"shijian/6/tokens/ERC721.sol\":5275:5390  require(... */\n      tag_108\n      jumpi\n      mload(0x40)\n      0x08c379a000000000000000000000000000000000000000000000000000000000\n      dup2\n      mstore\n      0x04\n      add\n      tag_109\n      swap1\n      tag_110\n      jump\t// in\n    tag_109:\n      mload(0x40)\n      dup1\n      swap2\n      sub\n      swap1\n      revert\n    tag_108:\n        /* \"shijian/6/tokens/ERC721.sol\":5400:5435  _transfer(owner, from, to, tokenId) */\n      tag_111\n        /* \"shijian/6/tokens/ERC721.sol\":5410:5415  owner */\n      dup2\n        /* \"shijian/6/tokens/ERC721.sol\":5417:5421  from */\n      dup6\n        /* \"shijian/6/tokens/ERC721.sol\":5423:5425  to */\n      dup6\n        /* \"shijian/6/tokens/ERC721.sol\":5427:5434  tokenId */\n      dup6\n        /* \"shijian/6/tokens/ERC721.sol\":5400:5409  _transfer */\n      tag_112\n        /* \"shijian/6/tokens/ERC721.sol\":5400:5435  _transfer(owner, from, to, tokenId) */\n      jump\t// in\n    tag_111:\n        /* \"shijian/6/tokens/ERC721.sol\":5113:5442  function transferFrom(... */\n      pop\n      pop\n      pop\n      pop\n      jump\t// out\n        /* \"shijian/6/CBI.sol\":401:562  function mint(address to, uint tokenId) external {... */\n    tag_47:\n        /* \"shijian/6/CBI.sol\":479:480  0 */\n      0x00\n        /* \"shijian/6/CBI.sol\":468:475  tokenId */\n      dup2\n        /* \"shijian/6/CBI.sol\":468:480  tokenId >= 0 */\n      lt\n      iszero\n        /* \"shijian/6/CBI.sol\":468:502  tokenId >= 0 && tokenId < MAX_CBIS */\n      dup1\n      iszero\n      tag_114\n      jumpi\n      pop\n        /* \"shijian/6/CBI.sol\":494:502  MAX_CBIS */\n      sload(0x06)\n        /* \"shijian/6/CBI.sol\":484:491  tokenId */\n      dup2\n        /* \"shijian/6/CBI.sol\":484:502  tokenId < MAX_CBIS */\n      lt\n        /* \"shijian/6/CBI.sol\":468:502  tokenId >= 0 && tokenId < MAX_CBIS */\n    tag_114:\n        /* \"shijian/6/CBI.sol\":460:527  require(tokenId >= 0 && tokenId < MAX_CBIS, \"tokenId out of range\") */\n      tag_115\n      jumpi\n      mload(0x40)\n      0x08c379a000000000000000000000000000000000000000000000000000000000\n      dup2\n      mstore\n      0x04\n      add\n      tag_116\n      swap1\n      tag_117\n      jump\t// in\n    tag_116:\n      mload(0x40)\n      dup1\n      swap2\n      sub\n      swap1\n      revert\n    tag_115:\n        /* \"shijian/6/CBI.sol\":537:555  _mint(to, tokenId) */\n      tag_118\n        /* \"shijian/6/CBI.sol\":543:545  to */\n      dup3\n        /* \"shijian/6/CBI.sol\":547:554  tokenId */\n      dup3\n        /* \"shijian/6/CBI.sol\":537:542  _mint */\n      tag_119\n        /* \"shijian/6/CBI.sol\":537:555  _mint(to, tokenId) */\n      jump\t// in\n    tag_118:\n        /* \"shijian/6/CBI.sol\":401:562  function mint(address to, uint tokenId) external {... */\n      pop\n      pop\n      jump\t// out\n        /* \"shijian/6/tokens/ERC721.sol\":6741:6911  function safeTransferFrom(... */\n    tag_50:\n        /* \"shijian/6/tokens/ERC721.sol\":6865:6904  safeTransferFrom(from, to, tokenId, \"\") */\n      tag_121\n        /* \"shijian/6/tokens/ERC721.sol\":6882:6886  from */\n      dup4\n        /* \"shijian/6/tokens/ERC721.sol\":6888:6890  to */\n      dup4\n        /* \"shijian/6/tokens/ERC721.sol\":6892:6899  tokenId */\n      dup4\n        /* \"shijian/6/tokens/ERC721.sol\":6865:6904  safeTransferFrom(from, to, tokenId, \"\") */\n      mload(0x40)\n      dup1\n      0x20\n      add\n      0x40\n      mstore\n      dup1\n      0x00\n      dup2\n      mstore\n      pop\n        /* \"shijian/6/tokens/ERC721.sol\":6865:6881  safeTransferFrom */\n      tag_74\n        /* \"shijian/6/tokens/ERC721.sol\":6865:6904  safeTransferFrom(from, to, tokenId, \"\") */\n      jump\t// in\n    tag_121:\n        /* \"shijian/6/tokens/ERC721.sol\":6741:6911  function safeTransferFrom(... */\n      pop\n      pop\n      pop\n      jump\t// out\n        /* \"shijian/6/tokens/ERC721.sol\":1989:2203  function ownerOf(uint tokenId)... */\n    tag_53:\n        /* \"shijian/6/tokens/ERC721.sol\":2082:2095  address owner */\n      0x00\n        /* \"shijian/6/tokens/ERC721.sol\":2119:2126  _owners */\n      0x02\n        /* \"shijian/6/tokens/ERC721.sol\":2119:2135  _owners[tokenId] */\n      0x00\n        /* \"shijian/6/tokens/ERC721.sol\":2127:2134  tokenId */\n      dup4\n        /* \"shijian/6/tokens/ERC721.sol\":2119:2135  _owners[tokenId] */\n      dup2\n      mstore\n      0x20\n      add\n      swap1\n      dup2\n      mstore\n      0x20\n      add\n      0x00\n      keccak256\n      0x00\n      swap1\n      sload\n      swap1\n      0x0100\n      exp\n      swap1\n      div\n      0xffffffffffffffffffffffffffffffffffffffff\n      and\n        /* \"shijian/6/tokens/ERC721.sol\":2111:2135  owner = _owners[tokenId] */\n      swap1\n      pop\n        /* \"shijian/6/tokens/ERC721.sol\":2170:2171  0 */\n      0x00\n        /* \"shijian/6/tokens/ERC721.sol\":2153:2172  owner != address(0) */\n      0xffffffffffffffffffffffffffffffffffffffff\n      and\n        /* \"shijian/6/tokens/ERC721.sol\":2153:2158  owner */\n      dup2\n        /* \"shijian/6/tokens/ERC721.sol\":2153:2172  owner != address(0) */\n      0xffffffffffffffffffffffffffffffffffffffff\n      and\n      eq\n      iszero\n        /* \"shijian/6/tokens/ERC721.sol\":2145:2196  require(owner != address(0), \"token doesn't exist\") */\n      tag_123\n      jumpi\n      mload(0x40)\n      0x08c379a000000000000000000000000000000000000000000000000000000000\n      dup2\n      mstore\n      0x04\n      add\n      tag_124\n      swap1\n      tag_96\n      jump\t// in\n    tag_124:\n      mload(0x40)\n      dup1\n      swap2\n      sub\n      swap1\n      revert\n    tag_123:\n        /* \"shijian/6/tokens/ERC721.sol\":1989:2203  function ownerOf(uint tokenId)... */\n      swap2\n      swap1\n      pop\n      jump\t// out\n        /* \"shijian/6/tokens/ERC721.sol\":1732:1906  function balanceOf(address owner) external view override returns (uint) {... */\n    tag_58:\n        /* \"shijian/6/tokens/ERC721.sol\":1798:1802  uint */\n      0x00\n        /* \"shijian/6/tokens/ERC721.sol\":1839:1840  0 */\n      dup1\n        /* \"shijian/6/tokens/ERC721.sol\":1822:1841  owner != address(0) */\n      0xffffffffffffffffffffffffffffffffffffffff\n      and\n        /* \"shijian/6/tokens/ERC721.sol\":1822:1827  owner */\n      dup3\n        /* \"shijian/6/tokens/ERC721.sol\":1822:1841  owner != address(0) */\n      0xffffffffffffffffffffffffffffffffffffffff\n      and\n      eq\n      iszero\n        /* \"shijian/6/tokens/ERC721.sol\":1814:1866  require(owner != address(0), \"owner = zero address\") */\n      tag_126\n      jumpi\n      mload(0x40)\n      0x08c379a000000000000000000000000000000000000000000000000000000000\n      dup2\n      mstore\n      0x04\n      add\n      tag_127\n      swap1\n      tag_128\n      jump\t// in\n    tag_127:\n      mload(0x40)\n      dup1\n      swap2\n      sub\n      swap1\n      revert\n    tag_126:\n        /* \"shijian/6/tokens/ERC721.sol\":1883:1892  _balances */\n      0x03\n        /* \"shijian/6/tokens/ERC721.sol\":1883:1899  _balances[owner] */\n      0x00\n        /* \"shijian/6/tokens/ERC721.sol\":1893:1898  owner */\n      dup4\n        /* \"shijian/6/tokens/ERC721.sol\":1883:1899  _balances[owner] */\n      0xffffffffffffffffffffffffffffffffffffffff\n      and\n      0xffffffffffffffffffffffffffffffffffffffff\n      and\n      dup2\n      mstore\n      0x20\n      add\n      swap1\n      dup2\n      mstore\n      0x20\n      add\n      0x00\n      keccak256\n      sload\n        /* \"shijian/6/tokens/ERC721.sol\":1876:1899  return _balances[owner] */\n      swap1\n      pop\n        /* \"shijian/6/tokens/ERC721.sol\":1732:1906  function balanceOf(address owner) external view override returns (uint) {... */\n      swap2\n      swap1\n      pop\n      jump\t// out\n        /* \"shijian/6/tokens/ERC721.sol\":550:579  string public override symbol */\n    tag_62:\n      0x01\n      dup1\n      sload\n      tag_129\n      swap1\n      tag_88\n      jump\t// in\n    tag_129:\n      dup1\n      0x1f\n      add\n      0x20\n      dup1\n      swap2\n      div\n      mul\n      0x20\n      add\n      mload(0x40)\n      swap1\n      dup2\n      add\n      0x40\n      mstore\n      dup1\n      swap3\n      swap2\n      swap1\n      dup2\n      dup2\n      mstore\n      0x20\n      add\n      dup3\n      dup1\n      sload\n      tag_130\n      swap1\n      tag_88\n      jump\t// in\n    tag_130:\n      dup1\n      iszero\n      tag_131\n      jumpi\n      dup1\n      0x1f\n      lt\n      tag_132\n      jumpi\n      0x0100\n      dup1\n      dup4\n      sload\n      div\n      mul\n      dup4\n      mstore\n      swap2\n      0x20\n      add\n      swap2\n      jump(tag_131)\n    tag_132:\n      dup3\n      add\n      swap2\n      swap1\n      0x00\n      mstore\n      keccak256(0x00, 0x20)\n      swap1\n    tag_133:\n      dup2\n      sload\n      dup2\n      mstore\n      swap1\n      0x01\n      add\n      swap1\n      0x20\n      add\n      dup1\n      dup4\n      gt\n      tag_133\n      jumpi\n      dup3\n      swap1\n      sub\n      0x1f\n      and\n      dup3\n      add\n      swap2\n    tag_131:\n      pop\n      pop\n      pop\n      pop\n      pop\n      dup2\n      jump\t// out\n        /* \"shijian/6/tokens/ERC721.sol\":2674:2901  function setApprovalForAll(address operator, bool approved)... */\n    tag_67:\n        /* \"shijian/6/tokens/ERC721.sol\":2825:2833  approved */\n      dup1\n        /* \"shijian/6/tokens/ERC721.sol\":2782:2800  _operatorApprovals */\n      0x05\n        /* \"shijian/6/tokens/ERC721.sol\":2782:2812  _operatorApprovals[msg.sender] */\n      0x00\n        /* \"shijian/6/tokens/ERC721.sol\":2801:2811  msg.sender */\n      caller\n        /* \"shijian/6/tokens/ERC721.sol\":2782:2812  _operatorApprovals[msg.sender] */\n      0xffffffffffffffffffffffffffffffffffffffff\n      and\n      0xffffffffffffffffffffffffffffffffffffffff\n      and\n      dup2\n      mstore\n      0x20\n      add\n      swap1\n      dup2\n      mstore\n      0x20\n      add\n      0x00\n      keccak256\n        /* \"shijian/6/tokens/ERC721.sol\":2782:2822  _operatorApprovals[msg.sender][operator] */\n      0x00\n        /* \"shijian/6/tokens/ERC721.sol\":2813:2821  operator */\n      dup5\n        /* \"shijian/6/tokens/ERC721.sol\":2782:2822  _operatorApprovals[msg.sender][operator] */\n      0xffffffffffffffffffffffffffffffffffffffff\n      and\n      0xffffffffffffffffffffffffffffffffffffffff\n      and\n      dup2\n      mstore\n      0x20\n      add\n      swap1\n      dup2\n      mstore\n      0x20\n      add\n      0x00\n      keccak256\n      0x00\n        /* \"shijian/6/tokens/ERC721.sol\":2782:2833  _operatorApprovals[msg.sender][operator] = approved */\n      0x0100\n      exp\n      dup2\n      sload\n      dup2\n      0xff\n      mul\n      not\n      and\n      swap1\n      dup4\n      iszero\n      iszero\n      mul\n      or\n      swap1\n      sstore\n      pop\n        /* \"shijian/6/tokens/ERC721.sol\":2875:2883  operator */\n      dup2\n        /* \"shijian/6/tokens/ERC721.sol\":2848:2894  ApprovalForAll(msg.sender, operator, approved) */\n      0xffffffffffffffffffffffffffffffffffffffff\n      and\n        /* \"shijian/6/tokens/ERC721.sol\":2863:2873  msg.sender */\n      caller\n        /* \"shijian/6/tokens/ERC721.sol\":2848:2894  ApprovalForAll(msg.sender, operator, approved) */\n      0xffffffffffffffffffffffffffffffffffffffff\n      and\n      0x17307eab39ab6107e8899845ad3d59bd9653f200f220920489ca2b5937696c31\n        /* \"shijian/6/tokens/ERC721.sol\":2885:2893  approved */\n      dup4\n        /* \"shijian/6/tokens/ERC721.sol\":2848:2894  ApprovalForAll(msg.sender, operator, approved) */\n      mload(0x40)\n      tag_135\n      swap2\n      swap1\n      tag_26\n      jump\t// in\n    tag_135:\n      mload(0x40)\n      dup1\n      swap2\n      sub\n      swap1\n      log3\n        /* \"shijian/6/tokens/ERC721.sol\":2674:2901  function setApprovalForAll(address operator, bool approved)... */\n      pop\n      pop\n      jump\t// out\n        /* \"shijian/6/CBI.sol\":116:142  uint public MAX_CBIS = 100 */\n    tag_69:\n      sload(0x06)\n      dup2\n      jump\t// out\n        /* \"shijian/6/tokens/ERC721.sol\":6329:6699  function safeTransferFrom(... */\n    tag_74:\n        /* \"shijian/6/tokens/ERC721.sol\":6479:6492  address owner */\n      0x00\n        /* \"shijian/6/tokens/ERC721.sol\":6495:6511  ownerOf(tokenId) */\n      tag_137\n        /* \"shijian/6/tokens/ERC721.sol\":6503:6510  tokenId */\n      dup4\n        /* \"shijian/6/tokens/ERC721.sol\":6495:6502  ownerOf */\n      tag_53\n        /* \"shijian/6/tokens/ERC721.sol\":6495:6511  ownerOf(tokenId) */\n      jump\t// in\n    tag_137:\n        /* \"shijian/6/tokens/ERC721.sol\":6479:6511  address owner = ownerOf(tokenId) */\n      swap1\n      pop\n        /* \"shijian/6/tokens/ERC721.sol\":6542:6588  _isApprovedOrOwner(owner, msg.sender, tokenId) */\n      tag_138\n        /* \"shijian/6/tokens/ERC721.sol\":6561:6566  owner */\n      dup2\n        /* \"shijian/6/tokens/ERC721.sol\":6568:6578  msg.sender */\n      caller\n        /* \"shijian/6/tokens/ERC721.sol\":6580:6587  tokenId */\n      dup6\n        /* \"shijian/6/tokens/ERC721.sol\":6542:6560  _isApprovedOrOwner */\n      tag_107\n        /* \"shijian/6/tokens/ERC721.sol\":6542:6588  _isApprovedOrOwner(owner, msg.sender, tokenId) */\n      jump\t// in\n    tag_138:\n        /* \"shijian/6/tokens/ERC721.sol\":6521:6636  require(... */\n      tag_139\n      jumpi\n      mload(0x40)\n      0x08c379a000000000000000000000000000000000000000000000000000000000\n      dup2\n      mstore\n      0x04\n      add\n      tag_140\n      swap1\n      tag_110\n      jump\t// in\n    tag_140:\n      mload(0x40)\n      dup1\n      swap2\n      sub\n      swap1\n      revert\n    tag_139:\n        /* \"shijian/6/tokens/ERC721.sol\":6646:6692  _safeTransfer(owner, from, to, tokenId, _data) */\n      tag_141\n        /* \"shijian/6/tokens/ERC721.sol\":6660:6665  owner */\n      dup2\n        /* \"shijian/6/tokens/ERC721.sol\":6667:6671  from */\n      dup7\n        /* \"shijian/6/tokens/ERC721.sol\":6673:6675  to */\n      dup7\n        /* \"shijian/6/tokens/ERC721.sol\":6677:6684  tokenId */\n      dup7\n        /* \"shijian/6/tokens/ERC721.sol\":6686:6691  _data */\n      dup7\n        /* \"shijian/6/tokens/ERC721.sol\":6646:6659  _safeTransfer */\n      tag_142\n        /* \"shijian/6/tokens/ERC721.sol\":6646:6692  _safeTransfer(owner, from, to, tokenId, _data) */\n      jump\t// in\n    tag_141:\n        /* \"shijian/6/tokens/ERC721.sol\":6329:6699  function safeTransferFrom(... */\n      pop\n      pop\n      pop\n      pop\n      pop\n      jump\t// out\n        /* \"shijian/6/tokens/ERC721.sol\":8845:9298  function tokenURI(uint256 tokenId)... */\n    tag_77:\n        /* \"shijian/6/tokens/ERC721.sol\":8958:8971  string memory */\n      0x60\n        /* \"shijian/6/tokens/ERC721.sol\":9023:9024  0 */\n      0x00\n        /* \"shijian/6/tokens/ERC721.sol\":8995:9025  _owners[tokenId] != address(0) */\n      0xffffffffffffffffffffffffffffffffffffffff\n      and\n        /* \"shijian/6/tokens/ERC721.sol\":8995:9002  _owners */\n      0x02\n        /* \"shijian/6/tokens/ERC721.sol\":8995:9011  _owners[tokenId] */\n      0x00\n        /* \"shijian/6/tokens/ERC721.sol\":9003:9010  tokenId */\n      dup5\n        /* \"shijian/6/tokens/ERC721.sol\":8995:9011  _owners[tokenId] */\n      dup2\n      mstore\n      0x20\n      add\n      swap1\n      dup2\n      mstore\n      0x20\n      add\n      0x00\n      keccak256\n      0x00\n      swap1\n      sload\n      swap1\n      0x0100\n      exp\n      swap1\n      div\n      0xffffffffffffffffffffffffffffffffffffffff\n      and\n        /* \"shijian/6/tokens/ERC721.sol\":8995:9025  _owners[tokenId] != address(0) */\n      0xffffffffffffffffffffffffffffffffffffffff\n      and\n      eq\n      iszero\n        /* \"shijian/6/tokens/ERC721.sol\":8987:9045  require(_owners[tokenId] != address(0), \"Token Not Exist\") */\n      tag_144\n      jumpi\n      mload(0x40)\n      0x08c379a000000000000000000000000000000000000000000000000000000000\n      dup2\n      mstore\n      0x04\n      add\n      tag_145\n      swap1\n      tag_146\n      jump\t// in\n    tag_145:\n      mload(0x40)\n      dup1\n      swap2\n      sub\n      swap1\n      revert\n    tag_144:\n        /* \"shijian/6/tokens/ERC721.sol\":9056:9077  string memory baseURI */\n      0x00\n        /* \"shijian/6/tokens/ERC721.sol\":9080:9090  _baseURI() */\n      tag_147\n        /* \"shijian/6/tokens/ERC721.sol\":9080:9088  _baseURI */\n      tag_148\n        /* \"shijian/6/tokens/ERC721.sol\":9080:9090  _baseURI() */\n      jump\t// in\n    tag_147:\n        /* \"shijian/6/tokens/ERC721.sol\":9056:9090  string memory baseURI = _baseURI() */\n      swap1\n      pop\n        /* \"shijian/6/tokens/ERC721.sol\":9249:9250  0 */\n      0x00\n        /* \"shijian/6/tokens/ERC721.sol\":9231:9238  baseURI */\n      dup2\n        /* \"shijian/6/tokens/ERC721.sol\":9225:9246  bytes(baseURI).length */\n      mload\n        /* \"shijian/6/tokens/ERC721.sol\":9225:9250  bytes(baseURI).length > 0 */\n      gt\n        /* \"shijian/6/tokens/ERC721.sol\":9225:9291  bytes(baseURI).length > 0 ? string(abi.encodePacked(baseURI)) : \"\" */\n      tag_149\n      jumpi\n      mload(0x40)\n      dup1\n      0x20\n      add\n      0x40\n      mstore\n      dup1\n      0x00\n      dup2\n      mstore\n      pop\n      jump(tag_150)\n    tag_149:\n        /* \"shijian/6/tokens/ERC721.sol\":9277:9284  baseURI */\n      dup1\n        /* \"shijian/6/tokens/ERC721.sol\":9260:9285  abi.encodePacked(baseURI) */\n      add(0x20, mload(0x40))\n      tag_151\n      swap2\n      swap1\n      tag_152\n      jump\t// in\n    tag_151:\n      mload(0x40)\n      0x20\n      dup2\n      dup4\n      sub\n      sub\n      dup2\n      mstore\n      swap1\n      0x40\n      mstore\n        /* \"shijian/6/tokens/ERC721.sol\":9225:9291  bytes(baseURI).length > 0 ? string(abi.encodePacked(baseURI)) : \"\" */\n    tag_150:\n        /* \"shijian/6/tokens/ERC721.sol\":9206:9291  return... */\n      swap2\n      pop\n      pop\n        /* \"shijian/6/tokens/ERC721.sol\":8845:9298  function tokenURI(uint256 tokenId)... */\n      swap2\n      swap1\n      pop\n      jump\t// out\n        /* \"shijian/6/tokens/ERC721.sol\":2352:2544  function isApprovedForAll(address owner, address operator)... */\n    tag_82:\n        /* \"shijian/6/tokens/ERC721.sol\":2475:2479  bool */\n      0x00\n        /* \"shijian/6/tokens/ERC721.sol\":2502:2520  _operatorApprovals */\n      0x05\n        /* \"shijian/6/tokens/ERC721.sol\":2502:2527  _operatorApprovals[owner] */\n      0x00\n        /* \"shijian/6/tokens/ERC721.sol\":2521:2526  owner */\n      dup5\n        /* \"shijian/6/tokens/ERC721.sol\":2502:2527  _operatorApprovals[owner] */\n      0xffffffffffffffffffffffffffffffffffffffff\n      and\n      0xffffffffffffffffffffffffffffffffffffffff\n      and\n      dup2\n      mstore\n      0x20\n      add\n      swap1\n      dup2\n      mstore\n      0x20\n      add\n      0x00\n      keccak256\n        /* \"shijian/6/tokens/ERC721.sol\":2502:2537  _operatorApprovals[owner][operator] */\n      0x00\n        /* \"shijian/6/tokens/ERC721.sol\":2528:2536  operator */\n      dup4\n        /* \"shijian/6/tokens/ERC721.sol\":2502:2537  _operatorApprovals[owner][operator] */\n      0xffffffffffffffffffffffffffffffffffffffff\n      and\n      0xffffffffffffffffffffffffffffffffffffffff\n      and\n      dup2\n      mstore\n      0x20\n      add\n      swap1\n      dup2\n      mstore\n      0x20\n      add\n      0x00\n      keccak256\n      0x00\n      swap1\n      sload\n      swap1\n      0x0100\n      exp\n      swap1\n      div\n      0xff\n      and\n        /* \"shijian/6/tokens/ERC721.sol\":2495:2537  return _operatorApprovals[owner][operator] */\n      swap1\n      pop\n        /* \"shijian/6/tokens/ERC721.sol\":2352:2544  function isApprovedForAll(address owner, address operator)... */\n      swap3\n      swap2\n      pop\n      pop\n      jump\t// out\n        /* \"shijian/6/tokens/ERC721.sol\":3359:3545  function _approve(... */\n    tag_103:\n        /* \"shijian/6/tokens/ERC721.sol\":3493:3495  to */\n      dup2\n        /* \"shijian/6/tokens/ERC721.sol\":3466:3481  _tokenApprovals */\n      0x04\n        /* \"shijian/6/tokens/ERC721.sol\":3466:3490  _tokenApprovals[tokenId] */\n      0x00\n        /* \"shijian/6/tokens/ERC721.sol\":3482:3489  tokenId */\n      dup4\n        /* \"shijian/6/tokens/ERC721.sol\":3466:3490  _tokenApprovals[tokenId] */\n      dup2\n      mstore\n      0x20\n      add\n      swap1\n      dup2\n      mstore\n      0x20\n      add\n      0x00\n      keccak256\n      0x00\n        /* \"shijian/6/tokens/ERC721.sol\":3466:3495  _tokenApprovals[tokenId] = to */\n      0x0100\n      exp\n      dup2\n      sload\n      dup2\n      0xffffffffffffffffffffffffffffffffffffffff\n      mul\n      not\n      and\n      swap1\n      dup4\n      0xffffffffffffffffffffffffffffffffffffffff\n      and\n      mul\n      or\n      swap1\n      sstore\n      pop\n        /* \"shijian/6/tokens/ERC721.sol\":3530:3537  tokenId */\n      dup1\n        /* \"shijian/6/tokens/ERC721.sol\":3526:3528  to */\n      dup3\n        /* \"shijian/6/tokens/ERC721.sol\":3510:3538  Approval(owner, to, tokenId) */\n      0xffffffffffffffffffffffffffffffffffffffff\n      and\n        /* \"shijian/6/tokens/ERC721.sol\":3519:3524  owner */\n      dup5\n        /* \"shijian/6/tokens/ERC721.sol\":3510:3538  Approval(owner, to, tokenId) */\n      0xffffffffffffffffffffffffffffffffffffffff\n      and\n      0x8c5be1e5ebec7d5bd14f71427d1e84f3dd0314c0f7b2291e5b200ac8c7c3b925\n      mload(0x40)\n      mload(0x40)\n      dup1\n      swap2\n      sub\n      swap1\n      log4\n        /* \"shijian/6/tokens/ERC721.sol\":3359:3545  function _approve(... */\n      pop\n      pop\n      pop\n      jump\t// out\n        /* \"shijian/6/tokens/ERC721.sol\":4096:4371  function _isApprovedOrOwner(... */\n    tag_107:\n        /* \"shijian/6/tokens/ERC721.sol\":4222:4226  bool */\n      0x00\n        /* \"shijian/6/tokens/ERC721.sol\":4257:4262  owner */\n      dup4\n        /* \"shijian/6/tokens/ERC721.sol\":4246:4262  spender == owner */\n      0xffffffffffffffffffffffffffffffffffffffff\n      and\n        /* \"shijian/6/tokens/ERC721.sol\":4246:4253  spender */\n      dup4\n        /* \"shijian/6/tokens/ERC721.sol\":4246:4262  spender == owner */\n      0xffffffffffffffffffffffffffffffffffffffff\n      and\n      eq\n        /* \"shijian/6/tokens/ERC721.sol\":4246:4313  spender == owner ||... */\n      dup1\n      tag_156\n      jumpi\n      pop\n        /* \"shijian/6/tokens/ERC721.sol\":4306:4313  spender */\n      dup3\n        /* \"shijian/6/tokens/ERC721.sol\":4278:4313  _tokenApprovals[tokenId] == spender */\n      0xffffffffffffffffffffffffffffffffffffffff\n      and\n        /* \"shijian/6/tokens/ERC721.sol\":4278:4293  _tokenApprovals */\n      0x04\n        /* \"shijian/6/tokens/ERC721.sol\":4278:4302  _tokenApprovals[tokenId] */\n      0x00\n        /* \"shijian/6/tokens/ERC721.sol\":4294:4301  tokenId */\n      dup5\n        /* \"shijian/6/tokens/ERC721.sol\":4278:4302  _tokenApprovals[tokenId] */\n      dup2\n      mstore\n      0x20\n      add\n      swap1\n      dup2\n      mstore\n      0x20\n      add\n      0x00\n      keccak256\n      0x00\n      swap1\n      sload\n      swap1\n      0x0100\n      exp\n      swap1\n      div\n      0xffffffffffffffffffffffffffffffffffffffff\n      and\n        /* \"shijian/6/tokens/ERC721.sol\":4278:4313  _tokenApprovals[tokenId] == spender */\n      0xffffffffffffffffffffffffffffffffffffffff\n      and\n      eq\n        /* \"shijian/6/tokens/ERC721.sol\":4246:4313  spender == owner ||... */\n    tag_156:\n        /* \"shijian/6/tokens/ERC721.sol\":4246:4363  spender == owner ||... */\n      dup1\n      tag_157\n      jumpi\n      pop\n        /* \"shijian/6/tokens/ERC721.sol\":4329:4347  _operatorApprovals */\n      0x05\n        /* \"shijian/6/tokens/ERC721.sol\":4329:4354  _operatorApprovals[owner] */\n      0x00\n        /* \"shijian/6/tokens/ERC721.sol\":4348:4353  owner */\n      dup6\n        /* \"shijian/6/tokens/ERC721.sol\":4329:4354  _operatorApprovals[owner] */\n      0xffffffffffffffffffffffffffffffffffffffff\n      and\n      0xffffffffffffffffffffffffffffffffffffffff\n      and\n      dup2\n      mstore\n      0x20\n      add\n      swap1\n      dup2\n      mstore\n      0x20\n      add\n      0x00\n      keccak256\n        /* \"shijian/6/tokens/ERC721.sol\":4329:4363  _operatorApprovals[owner][spender] */\n      0x00\n        /* \"shijian/6/tokens/ERC721.sol\":4355:4362  spender */\n      dup5\n        /* \"shijian/6/tokens/ERC721.sol\":4329:4363  _operatorApprovals[owner][spender] */\n      0xffffffffffffffffffffffffffffffffffffffff\n      and\n      0xffffffffffffffffffffffffffffffffffffffff\n      and\n      dup2\n      mstore\n      0x20\n      add\n      swap1\n      dup2\n      mstore\n      0x20\n      add\n      0x00\n      keccak256\n      0x00\n      swap1\n      sload\n      swap1\n      0x0100\n      exp\n      swap1\n      div\n      0xff\n      and\n        /* \"shijian/6/tokens/ERC721.sol\":4246:4363  spender == owner ||... */\n    tag_157:\n        /* \"shijian/6/tokens/ERC721.sol\":4238:4364  return (spender == owner ||... */\n      swap1\n      pop\n        /* \"shijian/6/tokens/ERC721.sol\":4096:4371  function _isApprovedOrOwner(... */\n      swap4\n      swap3\n      pop\n      pop\n      pop\n      jump\t// out\n        /* \"shijian/6/tokens/ERC721.sol\":4592:5011  function _transfer(... */\n    tag_112:\n        /* \"shijian/6/tokens/ERC721.sol\":4738:4743  owner */\n      dup4\n        /* \"shijian/6/tokens/ERC721.sol\":4730:4743  from == owner */\n      0xffffffffffffffffffffffffffffffffffffffff\n      and\n        /* \"shijian/6/tokens/ERC721.sol\":4730:4734  from */\n      dup4\n        /* \"shijian/6/tokens/ERC721.sol\":4730:4743  from == owner */\n      0xffffffffffffffffffffffffffffffffffffffff\n      and\n      eq\n        /* \"shijian/6/tokens/ERC721.sol\":4722:4757  require(from == owner, \"not owner\") */\n      tag_159\n      jumpi\n      mload(0x40)\n      0x08c379a000000000000000000000000000000000000000000000000000000000\n      dup2\n      mstore\n      0x04\n      add\n      tag_160\n      swap1\n      tag_161\n      jump\t// in\n    tag_160:\n      mload(0x40)\n      dup1\n      swap2\n      sub\n      swap1\n      revert\n    tag_159:\n        /* \"shijian/6/tokens/ERC721.sol\":4789:4790  0 */\n      0x00\n        /* \"shijian/6/tokens/ERC721.sol\":4775:4791  to != address(0) */\n      0xffffffffffffffffffffffffffffffffffffffff\n      and\n        /* \"shijian/6/tokens/ERC721.sol\":4775:4777  to */\n      dup3\n        /* \"shijian/6/tokens/ERC721.sol\":4775:4791  to != address(0) */\n      0xffffffffffffffffffffffffffffffffffffffff\n      and\n      eq\n      iszero\n        /* \"shijian/6/tokens/ERC721.sol\":4767:4824  require(to != address(0), \"transfer to the zero address\") */\n      tag_162\n      jumpi\n      mload(0x40)\n      0x08c379a000000000000000000000000000000000000000000000000000000000\n      dup2\n      mstore\n      0x04\n      add\n      tag_163\n      swap1\n      tag_164\n      jump\t// in\n    tag_163:\n      mload(0x40)\n      dup1\n      swap2\n      sub\n      swap1\n      revert\n    tag_162:\n        /* \"shijian/6/tokens/ERC721.sol\":4835:4871  _approve(owner, address(0), tokenId) */\n      tag_165\n        /* \"shijian/6/tokens/ERC721.sol\":4844:4849  owner */\n      dup5\n        /* \"shijian/6/tokens/ERC721.sol\":4859:4860  0 */\n      0x00\n        /* \"shijian/6/tokens/ERC721.sol\":4863:4870  tokenId */\n      dup4\n        /* \"shijian/6/tokens/ERC721.sol\":4835:4843  _approve */\n      tag_103\n        /* \"shijian/6/tokens/ERC721.sol\":4835:4871  _approve(owner, address(0), tokenId) */\n      jump\t// in\n    tag_165:\n        /* \"shijian/6/tokens/ERC721.sol\":4901:4902  1 */\n      0x01\n        /* \"shijian/6/tokens/ERC721.sol\":4882:4891  _balances */\n      0x03\n        /* \"shijian/6/tokens/ERC721.sol\":4882:4897  _balances[from] */\n      0x00\n        /* \"shijian/6/tokens/ERC721.sol\":4892:4896  from */\n      dup6\n        /* \"shijian/6/tokens/ERC721.sol\":4882:4897  _balances[from] */\n      0xffffffffffffffffffffffffffffffffffffffff\n      and\n      0xffffffffffffffffffffffffffffffffffffffff\n      and\n      dup2\n      mstore\n      0x20\n      add\n      swap1\n      dup2\n      mstore\n      0x20\n      add\n      0x00\n      keccak256\n      0x00\n        /* \"shijian/6/tokens/ERC721.sol\":4882:4902  _balances[from] -= 1 */\n      dup3\n      dup3\n      sload\n      tag_166\n      swap2\n      swap1\n      tag_167\n      jump\t// in\n    tag_166:\n      swap3\n      pop\n      pop\n      dup2\n      swap1\n      sstore\n      pop\n        /* \"shijian/6/tokens/ERC721.sol\":4929:4930  1 */\n      0x01\n        /* \"shijian/6/tokens/ERC721.sol\":4912:4921  _balances */\n      0x03\n        /* \"shijian/6/tokens/ERC721.sol\":4912:4925  _balances[to] */\n      0x00\n        /* \"shijian/6/tokens/ERC721.sol\":4922:4924  to */\n      dup5\n        /* \"shijian/6/tokens/ERC721.sol\":4912:4925  _balances[to] */\n      0xffffffffffffffffffffffffffffffffffffffff\n      and\n      0xffffffffffffffffffffffffffffffffffffffff\n      and\n      dup2\n      mstore\n      0x20\n      add\n      swap1\n      dup2\n      mstore\n      0x20\n      add\n      0x00\n      keccak256\n      0x00\n        /* \"shijian/6/tokens/ERC721.sol\":4912:4930  _balances[to] += 1 */\n      dup3\n      dup3\n      sload\n      tag_168\n      swap2\n      swap1\n      tag_169\n      jump\t// in\n    tag_168:\n      swap3\n      pop\n      pop\n      dup2\n      swap1\n      sstore\n      pop\n        /* \"shijian/6/tokens/ERC721.sol\":4959:4961  to */\n      dup2\n        /* \"shijian/6/tokens/ERC721.sol\":4940:4947  _owners */\n      0x02\n        /* \"shijian/6/tokens/ERC721.sol\":4940:4956  _owners[tokenId] */\n      0x00\n        /* \"shijian/6/tokens/ERC721.sol\":4948:4955  tokenId */\n      dup4\n        /* \"shijian/6/tokens/ERC721.sol\":4940:4956  _owners[tokenId] */\n      dup2\n      mstore\n      0x20\n      add\n      swap1\n      dup2\n      mstore\n      0x20\n      add\n      0x00\n      keccak256\n      0x00\n        /* \"shijian/6/tokens/ERC721.sol\":4940:4961  _owners[tokenId] = to */\n      0x0100\n      exp\n      dup2\n      sload\n      dup2\n      0xffffffffffffffffffffffffffffffffffffffff\n      mul\n      not\n      and\n      swap1\n      dup4\n      0xffffffffffffffffffffffffffffffffffffffff\n      and\n      mul\n      or\n      swap1\n      sstore\n      pop\n        /* \"shijian/6/tokens/ERC721.sol\":4996:5003  tokenId */\n      dup1\n        /* \"shijian/6/tokens/ERC721.sol\":4992:4994  to */\n      dup3\n        /* \"shijian/6/tokens/ERC721.sol\":4977:5004  Transfer(from, to, tokenId) */\n      0xffffffffffffffffffffffffffffffffffffffff\n      and\n        /* \"shijian/6/tokens/ERC721.sol\":4986:4990  from */\n      dup5\n        /* \"shijian/6/tokens/ERC721.sol\":4977:5004  Transfer(from, to, tokenId) */\n      0xffffffffffffffffffffffffffffffffffffffff\n      and\n      0xddf252ad1be2c89b69c2b068fc378daa952ba7f163c4a11628f55a4df523b3ef\n      mload(0x40)\n      mload(0x40)\n      dup1\n      swap2\n      sub\n      swap1\n      log4\n        /* \"shijian/6/tokens/ERC721.sol\":4592:5011  function _transfer(... */\n      pop\n      pop\n      pop\n      pop\n      jump\t// out\n        /* \"shijian/6/tokens/ERC721.sol\":7354:7660  function _mint(address to, uint tokenId) internal virtual {... */\n    tag_119:\n        /* \"shijian/6/tokens/ERC721.sol\":7444:7445  0 */\n      0x00\n        /* \"shijian/6/tokens/ERC721.sol\":7430:7446  to != address(0) */\n      0xffffffffffffffffffffffffffffffffffffffff\n      and\n        /* \"shijian/6/tokens/ERC721.sol\":7430:7432  to */\n      dup3\n        /* \"shijian/6/tokens/ERC721.sol\":7430:7446  to != address(0) */\n      0xffffffffffffffffffffffffffffffffffffffff\n      and\n      eq\n      iszero\n        /* \"shijian/6/tokens/ERC721.sol\":7422:7471  require(to != address(0), \"mint to zero address\") */\n      tag_171\n      jumpi\n      mload(0x40)\n      0x08c379a000000000000000000000000000000000000000000000000000000000\n      dup2\n      mstore\n      0x04\n      add\n      tag_172\n      swap1\n      tag_173\n      jump\t// in\n    tag_172:\n      mload(0x40)\n      dup1\n      swap2\n      sub\n      swap1\n      revert\n    tag_171:\n        /* \"shijian/6/tokens/ERC721.sol\":7517:7518  0 */\n      0x00\n        /* \"shijian/6/tokens/ERC721.sol\":7489:7519  _owners[tokenId] == address(0) */\n      0xffffffffffffffffffffffffffffffffffffffff\n      and\n        /* \"shijian/6/tokens/ERC721.sol\":7489:7496  _owners */\n      0x02\n        /* \"shijian/6/tokens/ERC721.sol\":7489:7505  _owners[tokenId] */\n      0x00\n        /* \"shijian/6/tokens/ERC721.sol\":7497:7504  tokenId */\n      dup4\n        /* \"shijian/6/tokens/ERC721.sol\":7489:7505  _owners[tokenId] */\n      dup2\n      mstore\n      0x20\n      add\n      swap1\n      dup2\n      mstore\n      0x20\n      add\n      0x00\n      keccak256\n      0x00\n      swap1\n      sload\n      swap1\n      0x0100\n      exp\n      swap1\n      div\n      0xffffffffffffffffffffffffffffffffffffffff\n      and\n        /* \"shijian/6/tokens/ERC721.sol\":7489:7519  _owners[tokenId] == address(0) */\n      0xffffffffffffffffffffffffffffffffffffffff\n      and\n      eq\n        /* \"shijian/6/tokens/ERC721.sol\":7481:7544  require(_owners[tokenId] == address(0), \"token already minted\") */\n      tag_174\n      jumpi\n      mload(0x40)\n      0x08c379a000000000000000000000000000000000000000000000000000000000\n      dup2\n      mstore\n      0x04\n      add\n      tag_175\n      swap1\n      tag_176\n      jump\t// in\n    tag_175:\n      mload(0x40)\n      dup1\n      swap2\n      sub\n      swap1\n      revert\n    tag_174:\n        /* \"shijian/6/tokens/ERC721.sol\":7572:7573  1 */\n      0x01\n        /* \"shijian/6/tokens/ERC721.sol\":7555:7564  _balances */\n      0x03\n        /* \"shijian/6/tokens/ERC721.sol\":7555:7568  _balances[to] */\n      0x00\n        /* \"shijian/6/tokens/ERC721.sol\":7565:7567  to */\n      dup5\n        /* \"shijian/6/tokens/ERC721.sol\":7555:7568  _balances[to] */\n      0xffffffffffffffffffffffffffffffffffffffff\n      and\n      0xffffffffffffffffffffffffffffffffffffffff\n      and\n      dup2\n      mstore\n      0x20\n      add\n      swap1\n      dup2\n      mstore\n      0x20\n      add\n      0x00\n      keccak256\n      0x00\n        /* \"shijian/6/tokens/ERC721.sol\":7555:7573  _balances[to] += 1 */\n      dup3\n      dup3\n      sload\n      tag_177\n      swap2\n      swap1\n      tag_169\n      jump\t// in\n    tag_177:\n      swap3\n      pop\n      pop\n      dup2\n      swap1\n      sstore\n      pop\n        /* \"shijian/6/tokens/ERC721.sol\":7602:7604  to */\n      dup2\n        /* \"shijian/6/tokens/ERC721.sol\":7583:7590  _owners */\n      0x02\n        /* \"shijian/6/tokens/ERC721.sol\":7583:7599  _owners[tokenId] */\n      0x00\n        /* \"shijian/6/tokens/ERC721.sol\":7591:7598  tokenId */\n      dup4\n        /* \"shijian/6/tokens/ERC721.sol\":7583:7599  _owners[tokenId] */\n      dup2\n      mstore\n      0x20\n      add\n      swap1\n      dup2\n      mstore\n      0x20\n      add\n      0x00\n      keccak256\n      0x00\n        /* \"shijian/6/tokens/ERC721.sol\":7583:7604  _owners[tokenId] = to */\n      0x0100\n      exp\n      dup2\n      sload\n      dup2\n      0xffffffffffffffffffffffffffffffffffffffff\n      mul\n      not\n      and\n      swap1\n      dup4\n      0xffffffffffffffffffffffffffffffffffffffff\n      and\n      mul\n      or\n      swap1\n      sstore\n      pop\n        /* \"shijian/6/tokens/ERC721.sol\":7645:7652  tokenId */\n      dup1\n        /* \"shijian/6/tokens/ERC721.sol\":7641:7643  to */\n      dup3\n        /* \"shijian/6/tokens/ERC721.sol\":7620:7653  Transfer(address(0), to, tokenId) */\n      0xffffffffffffffffffffffffffffffffffffffff\n      and\n        /* \"shijian/6/tokens/ERC721.sol\":7637:7638  0 */\n      0x00\n        /* \"shijian/6/tokens/ERC721.sol\":7620:7653  Transfer(address(0), to, tokenId) */\n      0xffffffffffffffffffffffffffffffffffffffff\n      and\n      0xddf252ad1be2c89b69c2b068fc378daa952ba7f163c4a11628f55a4df523b3ef\n      mload(0x40)\n      mload(0x40)\n      dup1\n      swap2\n      sub\n      swap1\n      log4\n        /* \"shijian/6/tokens/ERC721.sol\":7354:7660  function _mint(address to, uint tokenId) internal virtual {... */\n      pop\n      pop\n      jump\t// out\n        /* \"shijian/6/tokens/ERC721.sol\":5891:6218  function _safeTransfer(... */\n    tag_142:\n        /* \"shijian/6/tokens/ERC721.sol\":6053:6088  _transfer(owner, from, to, tokenId) */\n      tag_179\n        /* \"shijian/6/tokens/ERC721.sol\":6063:6068  owner */\n      dup6\n        /* \"shijian/6/tokens/ERC721.sol\":6070:6074  from */\n      dup6\n        /* \"shijian/6/tokens/ERC721.sol\":6076:6078  to */\n      dup6\n        /* \"shijian/6/tokens/ERC721.sol\":6080:6087  tokenId */\n      dup6\n        /* \"shijian/6/tokens/ERC721.sol\":6053:6062  _transfer */\n      tag_112\n        /* \"shijian/6/tokens/ERC721.sol\":6053:6088  _transfer(owner, from, to, tokenId) */\n      jump\t// in\n    tag_179:\n        /* \"shijian/6/tokens/ERC721.sol\":6119:6167  _checkOnERC721Received(from, to, tokenId, _data) */\n      tag_180\n        /* \"shijian/6/tokens/ERC721.sol\":6142:6146  from */\n      dup5\n        /* \"shijian/6/tokens/ERC721.sol\":6148:6150  to */\n      dup5\n        /* \"shijian/6/tokens/ERC721.sol\":6152:6159  tokenId */\n      dup5\n        /* \"shijian/6/tokens/ERC721.sol\":6161:6166  _data */\n      dup5\n        /* \"shijian/6/tokens/ERC721.sol\":6119:6141  _checkOnERC721Received */\n      tag_181\n        /* \"shijian/6/tokens/ERC721.sol\":6119:6167  _checkOnERC721Received(from, to, tokenId, _data) */\n      jump\t// in\n    tag_180:\n        /* \"shijian/6/tokens/ERC721.sol\":6098:6211  require(... */\n      tag_182\n      jumpi\n      mload(0x40)\n      0x08c379a000000000000000000000000000000000000000000000000000000000\n      dup2\n      mstore\n      0x04\n      add\n      tag_183\n      swap1\n      tag_184\n      jump\t// in\n    tag_183:\n      mload(0x40)\n      dup1\n      swap2\n      sub\n      swap1\n      revert\n    tag_182:\n        /* \"shijian/6/tokens/ERC721.sol\":5891:6218  function _safeTransfer(... */\n      pop\n      pop\n      pop\n      pop\n      pop\n      jump\t// out\n        /* \"shijian/6/CBI.sol\":258:395  function _baseURI() internal pure override returns (string memory) {... */\n    tag_148:\n        /* \"shijian/6/CBI.sol\":310:323  string memory */\n      0x60\n        /* \"shijian/6/CBI.sol\":335:388  return \"https://voidtech.cn/i/2022/11/20/nwjv7t.jpeg\" */\n      mload(0x40)\n      dup1\n      0x60\n      add\n      0x40\n      mstore\n      dup1\n      0x2c\n      dup2\n      mstore\n      0x20\n      add\n      data_8d6a7f2c994761469c8f64f9407d3704e2dc9f2ea919b9fa50afe2f79bcd7cd3\n      0x2c\n      swap2\n      codecopy\n      swap1\n      pop\n        /* \"shijian/6/CBI.sol\":258:395  function _baseURI() internal pure override returns (string memory) {... */\n      swap1\n      jump\t// out\n        /* \"shijian/6/tokens/ERC721.sol\":8279:8757  function _checkOnERC721Received(... */\n    tag_181:\n        /* \"shijian/6/tokens/ERC721.sol\":8426:8430  bool */\n      0x00\n        /* \"shijian/6/tokens/ERC721.sol\":8446:8461  to.isContract() */\n      tag_187\n        /* \"shijian/6/tokens/ERC721.sol\":8446:8448  to */\n      dup5\n        /* \"shijian/6/tokens/ERC721.sol\":8446:8459  to.isContract */\n      0xffffffffffffffffffffffffffffffffffffffff\n      and\n      tag_188\n        /* \"shijian/6/tokens/ERC721.sol\":8446:8461  to.isContract() */\n      jump\t// in\n    tag_187:\n        /* \"shijian/6/tokens/ERC721.sol\":8442:8751  if (to.isContract()) {... */\n      iszero\n      tag_189\n      jumpi\n        /* \"shijian/6/tokens/ERC721.sol\":8477:8490  bytes4 retval */\n      0x00\n        /* \"shijian/6/tokens/ERC721.sol\":8509:8511  to */\n      dup5\n        /* \"shijian/6/tokens/ERC721.sol\":8493:8529  IERC721Receiver(to).onERC721Received */\n      0xffffffffffffffffffffffffffffffffffffffff\n      and\n      0x150b7a02\n        /* \"shijian/6/tokens/ERC721.sol\":8547:8557  msg.sender */\n      caller\n        /* \"shijian/6/tokens/ERC721.sol\":8575:8579  from */\n      dup9\n        /* \"shijian/6/tokens/ERC721.sol\":8597:8604  tokenId */\n      dup8\n        /* \"shijian/6/tokens/ERC721.sol\":8622:8627  _data */\n      dup8\n        /* \"shijian/6/tokens/ERC721.sol\":8493:8641  IERC721Receiver(to).onERC721Received(... */\n      mload(0x40)\n      dup6\n      0xffffffff\n      and\n      0xe0\n      shl\n      dup2\n      mstore\n      0x04\n      add\n      tag_190\n      swap5\n      swap4\n      swap3\n      swap2\n      swap1\n      tag_191\n      jump\t// in\n    tag_190:\n      0x20\n      mload(0x40)\n      dup1\n      dup4\n      sub\n      dup2\n      0x00\n      dup8\n      dup1\n      extcodesize\n      iszero\n      dup1\n      iszero\n      tag_192\n      jumpi\n      0x00\n      dup1\n      revert\n    tag_192:\n      pop\n      gas\n      call\n      iszero\n      dup1\n      iszero\n      tag_194\n      jumpi\n      returndatasize\n      0x00\n      dup1\n      returndatacopy\n      revert(0x00, returndatasize)\n    tag_194:\n      pop\n      pop\n      pop\n      pop\n      mload(0x40)\n      returndatasize\n      not(0x1f)\n      0x1f\n      dup3\n      add\n      and\n      dup3\n      add\n      dup1\n      0x40\n      mstore\n      pop\n      dup2\n      add\n      swap1\n      tag_195\n      swap2\n      swap1\n      tag_196\n      jump\t// in\n    tag_195:\n        /* \"shijian/6/tokens/ERC721.sol\":8477:8641  bytes4 retval = IERC721Receiver(to).onERC721Received(... */\n      swap1\n      pop\n        /* \"shijian/6/tokens/ERC721.sol\":1076:1086  0x150b7a02 */\n      0x150b7a02\n        /* \"shijian/6/tokens/ERC721.sol\":8673:8697  MAGIC_ON_ERC721_RECEIVED */\n      0xe0\n      shl\n        /* \"shijian/6/tokens/ERC721.sol\":8663:8697  retval == MAGIC_ON_ERC721_RECEIVED */\n      not(0xffffffffffffffffffffffffffffffffffffffffffffffffffffffff)\n      and\n        /* \"shijian/6/tokens/ERC721.sol\":8663:8669  retval */\n      dup2\n        /* \"shijian/6/tokens/ERC721.sol\":8663:8697  retval == MAGIC_ON_ERC721_RECEIVED */\n      not(0xffffffffffffffffffffffffffffffffffffffffffffffffffffffff)\n      and\n      eq\n        /* \"shijian/6/tokens/ERC721.sol\":8655:8698  return (retval == MAGIC_ON_ERC721_RECEIVED) */\n      swap2\n      pop\n      pop\n      jump(tag_186)\n        /* \"shijian/6/tokens/ERC721.sol\":8442:8751  if (to.isContract()) {... */\n    tag_189:\n        /* \"shijian/6/tokens/ERC721.sol\":8736:8740  true */\n      0x01\n        /* \"shijian/6/tokens/ERC721.sol\":8729:8740  return true */\n      swap1\n      pop\n        /* \"shijian/6/tokens/ERC721.sol\":8279:8757  function _checkOnERC721Received(... */\n    tag_186:\n      swap5\n      swap4\n      pop\n      pop\n      pop\n      pop\n      jump\t// out\n        /* \"shijian/6/utils/Address.sol\":156:343  function isContract(address account) internal view returns (bool) {... */\n    tag_188:\n        /* \"shijian/6/utils/Address.sol\":216:220  bool */\n      0x00\n        /* \"shijian/6/utils/Address.sol\":232:241  uint size */\n      dup1\n        /* \"shijian/6/utils/Address.sol\":294:301  account */\n      dup3\n        /* \"shijian/6/utils/Address.sol\":282:302  extcodesize(account) */\n      extcodesize\n        /* \"shijian/6/utils/Address.sol\":274:302  size := extcodesize(account) */\n      swap1\n      pop\n        /* \"shijian/6/utils/Address.sol\":335:336  0 */\n      0x00\n        /* \"shijian/6/utils/Address.sol\":328:332  size */\n      dup2\n        /* \"shijian/6/utils/Address.sol\":328:336  size > 0 */\n      gt\n        /* \"shijian/6/utils/Address.sol\":321:336  return size > 0 */\n      swap2\n      pop\n      pop\n        /* \"shijian/6/utils/Address.sol\":156:343  function isContract(address account) internal view returns (bool) {... */\n      swap2\n      swap1\n      pop\n      jump\t// out\n        /* \"#utility.yul\":7:350   */\n    tag_200:\n        /* \"#utility.yul\":84:89   */\n      0x00\n        /* \"#utility.yul\":109:174   */\n      tag_202\n        /* \"#utility.yul\":125:173   */\n      tag_203\n        /* \"#utility.yul\":166:172   */\n      dup5\n        /* \"#utility.yul\":125:173   */\n      tag_204\n      jump\t// in\n    tag_203:\n        /* \"#utility.yul\":109:174   */\n      tag_205\n      jump\t// in\n    tag_202:\n        /* \"#utility.yul\":100:174   */\n      swap1\n      pop\n        /* \"#utility.yul\":197:203   */\n      dup3\n        /* \"#utility.yul\":190:195   */\n      dup2\n        /* \"#utility.yul\":183:204   */\n      mstore\n        /* \"#utility.yul\":235:239   */\n      0x20\n        /* \"#utility.yul\":228:233   */\n      dup2\n        /* \"#utility.yul\":224:240   */\n      add\n        /* \"#utility.yul\":273:276   */\n      dup5\n        /* \"#utility.yul\":264:270   */\n      dup5\n        /* \"#utility.yul\":259:262   */\n      dup5\n        /* \"#utility.yul\":255:271   */\n      add\n        /* \"#utility.yul\":252:277   */\n      gt\n        /* \"#utility.yul\":249:251   */\n      iszero\n      tag_206\n      jumpi\n        /* \"#utility.yul\":290:291   */\n      0x00\n        /* \"#utility.yul\":287:288   */\n      dup1\n        /* \"#utility.yul\":280:292   */\n      revert\n        /* \"#utility.yul\":249:251   */\n    tag_206:\n        /* \"#utility.yul\":303:344   */\n      tag_207\n        /* \"#utility.yul\":337:343   */\n      dup5\n        /* \"#utility.yul\":332:335   */\n      dup3\n        /* \"#utility.yul\":327:330   */\n      dup6\n        /* \"#utility.yul\":303:344   */\n      tag_208\n      jump\t// in\n    tag_207:\n        /* \"#utility.yul\":90:350   */\n      pop\n      swap4\n      swap3\n      pop\n      pop\n      pop\n      jump\t// out\n        /* \"#utility.yul\":356:495   */\n    tag_209:\n        /* \"#utility.yul\":402:407   */\n      0x00\n        /* \"#utility.yul\":440:446   */\n      dup2\n        /* \"#utility.yul\":427:447   */\n      calldataload\n        /* \"#utility.yul\":418:447   */\n      swap1\n      pop\n        /* \"#utility.yul\":456:489   */\n      tag_211\n        /* \"#utility.yul\":483:488   */\n      dup2\n        /* \"#utility.yul\":456:489   */\n      tag_212\n      jump\t// in\n    tag_211:\n        /* \"#utility.yul\":408:495   */\n      swap3\n      swap2\n      pop\n      pop\n      jump\t// out\n        /* \"#utility.yul\":501:634   */\n    tag_213:\n        /* \"#utility.yul\":544:549   */\n      0x00\n        /* \"#utility.yul\":582:588   */\n      dup2\n        /* \"#utility.yul\":569:589   */\n      calldataload\n        /* \"#utility.yul\":560:589   */\n      swap1\n      pop\n        /* \"#utility.yul\":598:628   */\n      tag_215\n        /* \"#utility.yul\":622:627   */\n      dup2\n        /* \"#utility.yul\":598:628   */\n      tag_216\n      jump\t// in\n    tag_215:\n        /* \"#utility.yul\":550:634   */\n      swap3\n      swap2\n      pop\n      pop\n      jump\t// out\n        /* \"#utility.yul\":640:777   */\n    tag_217:\n        /* \"#utility.yul\":685:690   */\n      0x00\n        /* \"#utility.yul\":723:729   */\n      dup2\n        /* \"#utility.yul\":710:730   */\n      calldataload\n        /* \"#utility.yul\":701:730   */\n      swap1\n      pop\n        /* \"#utility.yul\":739:771   */\n      tag_219\n        /* \"#utility.yul\":765:770   */\n      dup2\n        /* \"#utility.yul\":739:771   */\n      tag_220\n      jump\t// in\n    tag_219:\n        /* \"#utility.yul\":691:777   */\n      swap3\n      swap2\n      pop\n      pop\n      jump\t// out\n        /* \"#utility.yul\":783:924   */\n    tag_221:\n        /* \"#utility.yul\":839:844   */\n      0x00\n        /* \"#utility.yul\":870:876   */\n      dup2\n        /* \"#utility.yul\":864:877   */\n      mload\n        /* \"#utility.yul\":855:877   */\n      swap1\n      pop\n        /* \"#utility.yul\":886:918   */\n      tag_223\n        /* \"#utility.yul\":912:917   */\n      dup2\n        /* \"#utility.yul\":886:918   */\n      tag_220\n      jump\t// in\n    tag_223:\n        /* \"#utility.yul\":845:924   */\n      swap3\n      swap2\n      pop\n      pop\n      jump\t// out\n        /* \"#utility.yul\":943:1214   */\n    tag_224:\n        /* \"#utility.yul\":998:1003   */\n      0x00\n        /* \"#utility.yul\":1047:1050   */\n      dup3\n        /* \"#utility.yul\":1040:1044   */\n      0x1f\n        /* \"#utility.yul\":1032:1038   */\n      dup4\n        /* \"#utility.yul\":1028:1045   */\n      add\n        /* \"#utility.yul\":1024:1051   */\n      slt\n        /* \"#utility.yul\":1014:1016   */\n      tag_226\n      jumpi\n        /* \"#utility.yul\":1065:1066   */\n      0x00\n        /* \"#utility.yul\":1062:1063   */\n      dup1\n        /* \"#utility.yul\":1055:1067   */\n      revert\n        /* \"#utility.yul\":1014:1016   */\n    tag_226:\n        /* \"#utility.yul\":1105:1111   */\n      dup2\n        /* \"#utility.yul\":1092:1112   */\n      calldataload\n        /* \"#utility.yul\":1130:1208   */\n      tag_227\n        /* \"#utility.yul\":1204:1207   */\n      dup5\n        /* \"#utility.yul\":1196:1202   */\n      dup3\n        /* \"#utility.yul\":1189:1193   */\n      0x20\n        /* \"#utility.yul\":1181:1187   */\n      dup7\n        /* \"#utility.yul\":1177:1194   */\n      add\n        /* \"#utility.yul\":1130:1208   */\n      tag_200\n      jump\t// in\n    tag_227:\n        /* \"#utility.yul\":1121:1208   */\n      swap2\n      pop\n        /* \"#utility.yul\":1004:1214   */\n      pop\n      swap3\n      swap2\n      pop\n      pop\n      jump\t// out\n        /* \"#utility.yul\":1220:1359   */\n    tag_228:\n        /* \"#utility.yul\":1266:1271   */\n      0x00\n        /* \"#utility.yul\":1304:1310   */\n      dup2\n        /* \"#utility.yul\":1291:1311   */\n      calldataload\n        /* \"#utility.yul\":1282:1311   */\n      swap1\n      pop\n        /* \"#utility.yul\":1320:1353   */\n      tag_230\n        /* \"#utility.yul\":1347:1352   */\n      dup2\n        /* \"#utility.yul\":1320:1353   */\n      tag_231\n      jump\t// in\n    tag_230:\n        /* \"#utility.yul\":1272:1359   */\n      swap3\n      swap2\n      pop\n      pop\n      jump\t// out\n        /* \"#utility.yul\":1365:1627   */\n    tag_57:\n        /* \"#utility.yul\":1424:1430   */\n      0x00\n        /* \"#utility.yul\":1473:1475   */\n      0x20\n        /* \"#utility.yul\":1461:1470   */\n      dup3\n        /* \"#utility.yul\":1452:1459   */\n      dup5\n        /* \"#utility.yul\":1448:1471   */\n      sub\n        /* \"#utility.yul\":1444:1476   */\n      slt\n        /* \"#utility.yul\":1441:1443   */\n      iszero\n      tag_233\n      jumpi\n        /* \"#utility.yul\":1489:1490   */\n      0x00\n        /* \"#utility.yul\":1486:1487   */\n      dup1\n        /* \"#utility.yul\":1479:1491   */\n      revert\n        /* \"#utility.yul\":1441:1443   */\n    tag_233:\n        /* \"#utility.yul\":1532:1533   */\n      0x00\n        /* \"#utility.yul\":1557:1610   */\n      tag_234\n        /* \"#utility.yul\":1602:1609   */\n      dup5\n        /* \"#utility.yul\":1593:1599   */\n      dup3\n        /* \"#utility.yul\":1582:1591   */\n      dup6\n        /* \"#utility.yul\":1578:1600   */\n      add\n        /* \"#utility.yul\":1557:1610   */\n      tag_209\n      jump\t// in\n    tag_234:\n        /* \"#utility.yul\":1547:1610   */\n      swap2\n      pop\n        /* \"#utility.yul\":1503:1620   */\n      pop\n        /* \"#utility.yul\":1431:1627   */\n      swap3\n      swap2\n      pop\n      pop\n      jump\t// out\n        /* \"#utility.yul\":1633:2040   */\n    tag_81:\n        /* \"#utility.yul\":1701:1707   */\n      0x00\n        /* \"#utility.yul\":1709:1715   */\n      dup1\n        /* \"#utility.yul\":1758:1760   */\n      0x40\n        /* \"#utility.yul\":1746:1755   */\n      dup4\n        /* \"#utility.yul\":1737:1744   */\n      dup6\n        /* \"#utility.yul\":1733:1756   */\n      sub\n        /* \"#utility.yul\":1729:1761   */\n      slt\n        /* \"#utility.yul\":1726:1728   */\n      iszero\n      tag_236\n      jumpi\n        /* \"#utility.yul\":1774:1775   */\n      0x00\n        /* \"#utility.yul\":1771:1772   */\n      dup1\n        /* \"#utility.yul\":1764:1776   */\n      revert\n        /* \"#utility.yul\":1726:1728   */\n    tag_236:\n        /* \"#utility.yul\":1817:1818   */\n      0x00\n        /* \"#utility.yul\":1842:1895   */\n      tag_237\n        /* \"#utility.yul\":1887:1894   */\n      dup6\n        /* \"#utility.yul\":1878:1884   */\n      dup3\n        /* \"#utility.yul\":1867:1876   */\n      dup7\n        /* \"#utility.yul\":1863:1885   */\n      add\n        /* \"#utility.yul\":1842:1895   */\n      tag_209\n      jump\t// in\n    tag_237:\n        /* \"#utility.yul\":1832:1895   */\n      swap3\n      pop\n        /* \"#utility.yul\":1788:1905   */\n      pop\n        /* \"#utility.yul\":1944:1946   */\n      0x20\n        /* \"#utility.yul\":1970:2023   */\n      tag_238\n        /* \"#utility.yul\":2015:2022   */\n      dup6\n        /* \"#utility.yul\":2006:2012   */\n      dup3\n        /* \"#utility.yul\":1995:2004   */\n      dup7\n        /* \"#utility.yul\":1991:2013   */\n      add\n        /* \"#utility.yul\":1970:2023   */\n      tag_209\n      jump\t// in\n    tag_238:\n        /* \"#utility.yul\":1960:2023   */\n      swap2\n      pop\n        /* \"#utility.yul\":1915:2033   */\n      pop\n        /* \"#utility.yul\":1716:2040   */\n      swap3\n      pop\n      swap3\n      swap1\n      pop\n      jump\t// out\n        /* \"#utility.yul\":2046:2598   */\n    tag_43:\n        /* \"#utility.yul\":2123:2129   */\n      0x00\n        /* \"#utility.yul\":2131:2137   */\n      dup1\n        /* \"#utility.yul\":2139:2145   */\n      0x00\n        /* \"#utility.yul\":2188:2190   */\n      0x60\n        /* \"#utility.yul\":2176:2185   */\n      dup5\n        /* \"#utility.yul\":2167:2174   */\n      dup7\n        /* \"#utility.yul\":2163:2186   */\n      sub\n        /* \"#utility.yul\":2159:2191   */\n      slt\n        /* \"#utility.yul\":2156:2158   */\n      iszero\n      tag_240\n      jumpi\n        /* \"#utility.yul\":2204:2205   */\n      0x00\n        /* \"#utility.yul\":2201:2202   */\n      dup1\n        /* \"#utility.yul\":2194:2206   */\n      revert\n        /* \"#utility.yul\":2156:2158   */\n    tag_240:\n        /* \"#utility.yul\":2247:2248   */\n      0x00\n        /* \"#utility.yul\":2272:2325   */\n      tag_241\n        /* \"#utility.yul\":2317:2324   */\n      dup7\n        /* \"#utility.yul\":2308:2314   */\n      dup3\n        /* \"#utility.yul\":2297:2306   */\n      dup8\n        /* \"#utility.yul\":2293:2315   */\n      add\n        /* \"#utility.yul\":2272:2325   */\n      tag_209\n      jump\t// in\n    tag_241:\n        /* \"#utility.yul\":2262:2325   */\n      swap4\n      pop\n        /* \"#utility.yul\":2218:2335   */\n      pop\n        /* \"#utility.yul\":2374:2376   */\n      0x20\n        /* \"#utility.yul\":2400:2453   */\n      tag_242\n        /* \"#utility.yul\":2445:2452   */\n      dup7\n        /* \"#utility.yul\":2436:2442   */\n      dup3\n        /* \"#utility.yul\":2425:2434   */\n      dup8\n        /* \"#utility.yul\":2421:2443   */\n      add\n        /* \"#utility.yul\":2400:2453   */\n      tag_209\n      jump\t// in\n    tag_242:\n        /* \"#utility.yul\":2390:2453   */\n      swap3\n      pop\n        /* \"#utility.yul\":2345:2463   */\n      pop\n        /* \"#utility.yul\":2502:2504   */\n      0x40\n        /* \"#utility.yul\":2528:2581   */\n      tag_243\n        /* \"#utility.yul\":2573:2580   */\n      dup7\n        /* \"#utility.yul\":2564:2570   */\n      dup3\n        /* \"#utility.yul\":2553:2562   */\n      dup8\n        /* \"#utility.yul\":2549:2571   */\n      add\n        /* \"#utility.yul\":2528:2581   */\n      tag_228\n      jump\t// in\n    tag_243:\n        /* \"#utility.yul\":2518:2581   */\n      swap2\n      pop\n        /* \"#utility.yul\":2473:2591   */\n      pop\n        /* \"#utility.yul\":2146:2598   */\n      swap3\n      pop\n      swap3\n      pop\n      swap3\n      jump\t// out\n        /* \"#utility.yul\":2604:3413   */\n    tag_73:\n        /* \"#utility.yul\":2699:2705   */\n      0x00\n        /* \"#utility.yul\":2707:2713   */\n      dup1\n        /* \"#utility.yul\":2715:2721   */\n      0x00\n        /* \"#utility.yul\":2723:2729   */\n      dup1\n        /* \"#utility.yul\":2772:2775   */\n      0x80\n        /* \"#utility.yul\":2760:2769   */\n      dup6\n        /* \"#utility.yul\":2751:2758   */\n      dup8\n        /* \"#utility.yul\":2747:2770   */\n      sub\n        /* \"#utility.yul\":2743:2776   */\n      slt\n        /* \"#utility.yul\":2740:2742   */\n      iszero\n      tag_245\n      jumpi\n        /* \"#utility.yul\":2789:2790   */\n      0x00\n        /* \"#utility.yul\":2786:2787   */\n      dup1\n        /* \"#utility.yul\":2779:2791   */\n      revert\n        /* \"#utility.yul\":2740:2742   */\n    tag_245:\n        /* \"#utility.yul\":2832:2833   */\n      0x00\n        /* \"#utility.yul\":2857:2910   */\n      tag_246\n        /* \"#utility.yul\":2902:2909   */\n      dup8\n        /* \"#utility.yul\":2893:2899   */\n      dup3\n        /* \"#utility.yul\":2882:2891   */\n      dup9\n        /* \"#utility.yul\":2878:2900   */\n      add\n        /* \"#utility.yul\":2857:2910   */\n      tag_209\n      jump\t// in\n    tag_246:\n        /* \"#utility.yul\":2847:2910   */\n      swap5\n      pop\n        /* \"#utility.yul\":2803:2920   */\n      pop\n        /* \"#utility.yul\":2959:2961   */\n      0x20\n        /* \"#utility.yul\":2985:3038   */\n      tag_247\n        /* \"#utility.yul\":3030:3037   */\n      dup8\n        /* \"#utility.yul\":3021:3027   */\n      dup3\n        /* \"#utility.yul\":3010:3019   */\n      dup9\n        /* \"#utility.yul\":3006:3028   */\n      add\n        /* \"#utility.yul\":2985:3038   */\n      tag_209\n      jump\t// in\n    tag_247:\n        /* \"#utility.yul\":2975:3038   */\n      swap4\n      pop\n        /* \"#utility.yul\":2930:3048   */\n      pop\n        /* \"#utility.yul\":3087:3089   */\n      0x40\n        /* \"#utility.yul\":3113:3166   */\n      tag_248\n        /* \"#utility.yul\":3158:3165   */\n      dup8\n        /* \"#utility.yul\":3149:3155   */\n      dup3\n        /* \"#utility.yul\":3138:3147   */\n      dup9\n        /* \"#utility.yul\":3134:3156   */\n      add\n        /* \"#utility.yul\":3113:3166   */\n      tag_228\n      jump\t// in\n    tag_248:\n        /* \"#utility.yul\":3103:3166   */\n      swap3\n      pop\n        /* \"#utility.yul\":3058:3176   */\n      pop\n        /* \"#utility.yul\":3243:3245   */\n      0x60\n        /* \"#utility.yul\":3232:3241   */\n      dup6\n        /* \"#utility.yul\":3228:3246   */\n      add\n        /* \"#utility.yul\":3215:3247   */\n      calldataload\n        /* \"#utility.yul\":3274:3292   */\n      0xffffffffffffffff\n        /* \"#utility.yul\":3266:3272   */\n      dup2\n        /* \"#utility.yul\":3263:3293   */\n      gt\n        /* \"#utility.yul\":3260:3262   */\n      iszero\n      tag_249\n      jumpi\n        /* \"#utility.yul\":3306:3307   */\n      0x00\n        /* \"#utility.yul\":3303:3304   */\n      dup1\n        /* \"#utility.yul\":3296:3308   */\n      revert\n        /* \"#utility.yul\":3260:3262   */\n    tag_249:\n        /* \"#utility.yul\":3334:3396   */\n      tag_250\n        /* \"#utility.yul\":3388:3395   */\n      dup8\n        /* \"#utility.yul\":3379:3385   */\n      dup3\n        /* \"#utility.yul\":3368:3377   */\n      dup9\n        /* \"#utility.yul\":3364:3386   */\n      add\n        /* \"#utility.yul\":3334:3396   */\n      tag_224\n      jump\t// in\n    tag_250:\n        /* \"#utility.yul\":3324:3396   */\n      swap2\n      pop\n        /* \"#utility.yul\":3186:3406   */\n      pop\n        /* \"#utility.yul\":2730:3413   */\n      swap3\n      swap6\n      swap2\n      swap5\n      pop\n      swap3\n      pop\n      jump\t// out\n        /* \"#utility.yul\":3419:3820   */\n    tag_66:\n        /* \"#utility.yul\":3484:3490   */\n      0x00\n        /* \"#utility.yul\":3492:3498   */\n      dup1\n        /* \"#utility.yul\":3541:3543   */\n      0x40\n        /* \"#utility.yul\":3529:3538   */\n      dup4\n        /* \"#utility.yul\":3520:3527   */\n      dup6\n        /* \"#utility.yul\":3516:3539   */\n      sub\n        /* \"#utility.yul\":3512:3544   */\n      slt\n        /* \"#utility.yul\":3509:3511   */\n      iszero\n      tag_252\n      jumpi\n        /* \"#utility.yul\":3557:3558   */\n      0x00\n        /* \"#utility.yul\":3554:3555   */\n      dup1\n        /* \"#utility.yul\":3547:3559   */\n      revert\n        /* \"#utility.yul\":3509:3511   */\n    tag_252:\n        /* \"#utility.yul\":3600:3601   */\n      0x00\n        /* \"#utility.yul\":3625:3678   */\n      tag_253\n        /* \"#utility.yul\":3670:3677   */\n      dup6\n        /* \"#utility.yul\":3661:3667   */\n      dup3\n        /* \"#utility.yul\":3650:3659   */\n      dup7\n        /* \"#utility.yul\":3646:3668   */\n      add\n        /* \"#utility.yul\":3625:3678   */\n      tag_209\n      jump\t// in\n    tag_253:\n        /* \"#utility.yul\":3615:3678   */\n      swap3\n      pop\n        /* \"#utility.yul\":3571:3688   */\n      pop\n        /* \"#utility.yul\":3727:3729   */\n      0x20\n        /* \"#utility.yul\":3753:3803   */\n      tag_254\n        /* \"#utility.yul\":3795:3802   */\n      dup6\n        /* \"#utility.yul\":3786:3792   */\n      dup3\n        /* \"#utility.yul\":3775:3784   */\n      dup7\n        /* \"#utility.yul\":3771:3793   */\n      add\n        /* \"#utility.yul\":3753:3803   */\n      tag_213\n      jump\t// in\n    tag_254:\n        /* \"#utility.yul\":3743:3803   */\n      swap2\n      pop\n        /* \"#utility.yul\":3698:3813   */\n      pop\n        /* \"#utility.yul\":3499:3820   */\n      swap3\n      pop\n      swap3\n      swap1\n      pop\n      jump\t// out\n        /* \"#utility.yul\":3826:4233   */\n    tag_39:\n        /* \"#utility.yul\":3894:3900   */\n      0x00\n        /* \"#utility.yul\":3902:3908   */\n      dup1\n        /* \"#utility.yul\":3951:3953   */\n      0x40\n        /* \"#utility.yul\":3939:3948   */\n      dup4\n        /* \"#utility.yul\":3930:3937   */\n      dup6\n        /* \"#utility.yul\":3926:3949   */\n      sub\n        /* \"#utility.yul\":3922:3954   */\n      slt\n        /* \"#utility.yul\":3919:3921   */\n      iszero\n      tag_256\n      jumpi\n        /* \"#utility.yul\":3967:3968   */\n      0x00\n        /* \"#utility.yul\":3964:3965   */\n      dup1\n        /* \"#utility.yul\":3957:3969   */\n      revert\n        /* \"#utility.yul\":3919:3921   */\n    tag_256:\n        /* \"#utility.yul\":4010:4011   */\n      0x00\n        /* \"#utility.yul\":4035:4088   */\n      tag_257\n        /* \"#utility.yul\":4080:4087   */\n      dup6\n        /* \"#utility.yul\":4071:4077   */\n      dup3\n        /* \"#utility.yul\":4060:4069   */\n      dup7\n        /* \"#utility.yul\":4056:4078   */\n      add\n        /* \"#utility.yul\":4035:4088   */\n      tag_209\n      jump\t// in\n    tag_257:\n        /* \"#utility.yul\":4025:4088   */\n      swap3\n      pop\n        /* \"#utility.yul\":3981:4098   */\n      pop\n        /* \"#utility.yul\":4137:4139   */\n      0x20\n        /* \"#utility.yul\":4163:4216   */\n      tag_258\n        /* \"#utility.yul\":4208:4215   */\n      dup6\n        /* \"#utility.yul\":4199:4205   */\n      dup3\n        /* \"#utility.yul\":4188:4197   */\n      dup7\n        /* \"#utility.yul\":4184:4206   */\n      add\n        /* \"#utility.yul\":4163:4216   */\n      tag_228\n      jump\t// in\n    tag_258:\n        /* \"#utility.yul\":4153:4216   */\n      swap2\n      pop\n        /* \"#utility.yul\":4108:4226   */\n      pop\n        /* \"#utility.yul\":3909:4233   */\n      swap3\n      pop\n      swap3\n      swap1\n      pop\n      jump\t// out\n        /* \"#utility.yul\":4239:4499   */\n    tag_23:\n        /* \"#utility.yul\":4297:4303   */\n      0x00\n        /* \"#utility.yul\":4346:4348   */\n      0x20\n        /* \"#utility.yul\":4334:4343   */\n      dup3\n        /* \"#utility.yul\":4325:4332   */\n      dup5\n        /* \"#utility.yul\":4321:4344   */\n      sub\n        /* \"#utility.yul\":4317:4349   */\n      slt\n        /* \"#utility.yul\":4314:4316   */\n      iszero\n      tag_260\n      jumpi\n        /* \"#utility.yul\":4362:4363   */\n      0x00\n        /* \"#utility.yul\":4359:4360   */\n      dup1\n        /* \"#utility.yul\":4352:4364   */\n      revert\n        /* \"#utility.yul\":4314:4316   */\n    tag_260:\n        /* \"#utility.yul\":4405:4406   */\n      0x00\n        /* \"#utility.yul\":4430:4482   */\n      tag_261\n        /* \"#utility.yul\":4474:4481   */\n      dup5\n        /* \"#utility.yul\":4465:4471   */\n      dup3\n        /* \"#utility.yul\":4454:4463   */\n      dup6\n        /* \"#utility.yul\":4450:4472   */\n      add\n        /* \"#utility.yul\":4430:4482   */\n      tag_217\n      jump\t// in\n    tag_261:\n        /* \"#utility.yul\":4420:4482   */\n      swap2\n      pop\n        /* \"#utility.yul\":4376:4492   */\n      pop\n        /* \"#utility.yul\":4304:4499   */\n      swap3\n      swap2\n      pop\n      pop\n      jump\t// out\n        /* \"#utility.yul\":4505:4787   */\n    tag_196:\n        /* \"#utility.yul\":4574:4580   */\n      0x00\n        /* \"#utility.yul\":4623:4625   */\n      0x20\n        /* \"#utility.yul\":4611:4620   */\n      dup3\n        /* \"#utility.yul\":4602:4609   */\n      dup5\n        /* \"#utility.yul\":4598:4621   */\n      sub\n        /* \"#utility.yul\":4594:4626   */\n      slt\n        /* \"#utility.yul\":4591:4593   */\n      iszero\n      tag_263\n      jumpi\n        /* \"#utility.yul\":4639:4640   */\n      0x00\n        /* \"#utility.yul\":4636:4637   */\n      dup1\n        /* \"#utility.yul\":4629:4641   */\n      revert\n        /* \"#utility.yul\":4591:4593   */\n    tag_263:\n        /* \"#utility.yul\":4682:4683   */\n      0x00\n        /* \"#utility.yul\":4707:4770   */\n      tag_264\n        /* \"#utility.yul\":4762:4769   */\n      dup5\n        /* \"#utility.yul\":4753:4759   */\n      dup3\n        /* \"#utility.yul\":4742:4751   */\n      dup6\n        /* \"#utility.yul\":4738:4760   */\n      add\n        /* \"#utility.yul\":4707:4770   */\n      tag_221\n      jump\t// in\n    tag_264:\n        /* \"#utility.yul\":4697:4770   */\n      swap2\n      pop\n        /* \"#utility.yul\":4653:4780   */\n      pop\n        /* \"#utility.yul\":4581:4787   */\n      swap3\n      swap2\n      pop\n      pop\n      jump\t// out\n        /* \"#utility.yul\":4793:5055   */\n    tag_33:\n        /* \"#utility.yul\":4852:4858   */\n      0x00\n        /* \"#utility.yul\":4901:4903   */\n      0x20\n        /* \"#utility.yul\":4889:4898   */\n      dup3\n        /* \"#utility.yul\":4880:4887   */\n      dup5\n        /* \"#utility.yul\":4876:4899   */\n      sub\n        /* \"#utility.yul\":4872:4904   */\n      slt\n        /* \"#utility.yul\":4869:4871   */\n      iszero\n      tag_266\n      jumpi\n        /* \"#utility.yul\":4917:4918   */\n      0x00\n        /* \"#utility.yul\":4914:4915   */\n      dup1\n        /* \"#utility.yul\":4907:4919   */\n      revert\n        /* \"#utility.yul\":4869:4871   */\n    tag_266:\n        /* \"#utility.yul\":4960:4961   */\n      0x00\n        /* \"#utility.yul\":4985:5038   */\n      tag_267\n        /* \"#utility.yul\":5030:5037   */\n      dup5\n        /* \"#utility.yul\":5021:5027   */\n      dup3\n        /* \"#utility.yul\":5010:5019   */\n      dup6\n        /* \"#utility.yul\":5006:5028   */\n      add\n        /* \"#utility.yul\":4985:5038   */\n      tag_228\n      jump\t// in\n    tag_267:\n        /* \"#utility.yul\":4975:5038   */\n      swap2\n      pop\n        /* \"#utility.yul\":4931:5048   */\n      pop\n        /* \"#utility.yul\":4859:5055   */\n      swap3\n      swap2\n      pop\n      pop\n      jump\t// out\n        /* \"#utility.yul\":5061:5179   */\n    tag_268:\n        /* \"#utility.yul\":5148:5172   */\n      tag_270\n        /* \"#utility.yul\":5166:5171   */\n      dup2\n        /* \"#utility.yul\":5148:5172   */\n      tag_271\n      jump\t// in\n    tag_270:\n        /* \"#utility.yul\":5143:5146   */\n      dup3\n        /* \"#utility.yul\":5136:5173   */\n      mstore\n        /* \"#utility.yul\":5126:5179   */\n      pop\n      pop\n      jump\t// out\n        /* \"#utility.yul\":5185:5294   */\n    tag_272:\n        /* \"#utility.yul\":5266:5287   */\n      tag_274\n        /* \"#utility.yul\":5281:5286   */\n      dup2\n        /* \"#utility.yul\":5266:5287   */\n      tag_275\n      jump\t// in\n    tag_274:\n        /* \"#utility.yul\":5261:5264   */\n      dup3\n        /* \"#utility.yul\":5254:5288   */\n      mstore\n        /* \"#utility.yul\":5244:5294   */\n      pop\n      pop\n      jump\t// out\n        /* \"#utility.yul\":5300:5660   */\n    tag_276:\n        /* \"#utility.yul\":5386:5389   */\n      0x00\n        /* \"#utility.yul\":5414:5452   */\n      tag_278\n        /* \"#utility.yul\":5446:5451   */\n      dup3\n        /* \"#utility.yul\":5414:5452   */\n      tag_279\n      jump\t// in\n    tag_278:\n        /* \"#utility.yul\":5468:5538   */\n      tag_280\n        /* \"#utility.yul\":5531:5537   */\n      dup2\n        /* \"#utility.yul\":5526:5529   */\n      dup6\n        /* \"#utility.yul\":5468:5538   */\n      tag_281\n      jump\t// in\n    tag_280:\n        /* \"#utility.yul\":5461:5538   */\n      swap4\n      pop\n        /* \"#utility.yul\":5547:5599   */\n      tag_282\n        /* \"#utility.yul\":5592:5598   */\n      dup2\n        /* \"#utility.yul\":5587:5590   */\n      dup6\n        /* \"#utility.yul\":5580:5584   */\n      0x20\n        /* \"#utility.yul\":5573:5578   */\n      dup7\n        /* \"#utility.yul\":5569:5585   */\n      add\n        /* \"#utility.yul\":5547:5599   */\n      tag_283\n      jump\t// in\n    tag_282:\n        /* \"#utility.yul\":5624:5653   */\n      tag_284\n        /* \"#utility.yul\":5646:5652   */\n      dup2\n        /* \"#utility.yul\":5624:5653   */\n      tag_285\n      jump\t// in\n    tag_284:\n        /* \"#utility.yul\":5619:5622   */\n      dup5\n        /* \"#utility.yul\":5615:5654   */\n      add\n        /* \"#utility.yul\":5608:5654   */\n      swap2\n      pop\n        /* \"#utility.yul\":5390:5660   */\n      pop\n      swap3\n      swap2\n      pop\n      pop\n      jump\t// out\n        /* \"#utility.yul\":5666:6030   */\n    tag_286:\n        /* \"#utility.yul\":5754:5757   */\n      0x00\n        /* \"#utility.yul\":5782:5821   */\n      tag_288\n        /* \"#utility.yul\":5815:5820   */\n      dup3\n        /* \"#utility.yul\":5782:5821   */\n      tag_289\n      jump\t// in\n    tag_288:\n        /* \"#utility.yul\":5837:5908   */\n      tag_290\n        /* \"#utility.yul\":5901:5907   */\n      dup2\n        /* \"#utility.yul\":5896:5899   */\n      dup6\n        /* \"#utility.yul\":5837:5908   */\n      tag_291\n      jump\t// in\n    tag_290:\n        /* \"#utility.yul\":5830:5908   */\n      swap4\n      pop\n        /* \"#utility.yul\":5917:5969   */\n      tag_292\n        /* \"#utility.yul\":5962:5968   */\n      dup2\n        /* \"#utility.yul\":5957:5960   */\n      dup6\n        /* \"#utility.yul\":5950:5954   */\n      0x20\n        /* \"#utility.yul\":5943:5948   */\n      dup7\n        /* \"#utility.yul\":5939:5955   */\n      add\n        /* \"#utility.yul\":5917:5969   */\n      tag_283\n      jump\t// in\n    tag_292:\n        /* \"#utility.yul\":5994:6023   */\n      tag_293\n        /* \"#utility.yul\":6016:6022   */\n      dup2\n        /* \"#utility.yul\":5994:6023   */\n      tag_285\n      jump\t// in\n    tag_293:\n        /* \"#utility.yul\":5989:5992   */\n      dup5\n        /* \"#utility.yul\":5985:6024   */\n      add\n        /* \"#utility.yul\":5978:6024   */\n      swap2\n      pop\n        /* \"#utility.yul\":5758:6030   */\n      pop\n      swap3\n      swap2\n      pop\n      pop\n      jump\t// out\n        /* \"#utility.yul\":6036:6413   */\n    tag_294:\n        /* \"#utility.yul\":6142:6145   */\n      0x00\n        /* \"#utility.yul\":6170:6209   */\n      tag_296\n        /* \"#utility.yul\":6203:6208   */\n      dup3\n        /* \"#utility.yul\":6170:6209   */\n      tag_289\n      jump\t// in\n    tag_296:\n        /* \"#utility.yul\":6225:6314   */\n      tag_297\n        /* \"#utility.yul\":6307:6313   */\n      dup2\n        /* \"#utility.yul\":6302:6305   */\n      dup6\n        /* \"#utility.yul\":6225:6314   */\n      tag_298\n      jump\t// in\n    tag_297:\n        /* \"#utility.yul\":6218:6314   */\n      swap4\n      pop\n        /* \"#utility.yul\":6323:6375   */\n      tag_299\n        /* \"#utility.yul\":6368:6374   */\n      dup2\n        /* \"#utility.yul\":6363:6366   */\n      dup6\n        /* \"#utility.yul\":6356:6360   */\n      0x20\n        /* \"#utility.yul\":6349:6354   */\n      dup7\n        /* \"#utility.yul\":6345:6361   */\n      add\n        /* \"#utility.yul\":6323:6375   */\n      tag_283\n      jump\t// in\n    tag_299:\n        /* \"#utility.yul\":6400:6406   */\n      dup1\n        /* \"#utility.yul\":6395:6398   */\n      dup5\n        /* \"#utility.yul\":6391:6407   */\n      add\n        /* \"#utility.yul\":6384:6407   */\n      swap2\n      pop\n        /* \"#utility.yul\":6146:6413   */\n      pop\n      swap3\n      swap2\n      pop\n      pop\n      jump\t// out\n        /* \"#utility.yul\":6419:6785   */\n    tag_300:\n        /* \"#utility.yul\":6561:6564   */\n      0x00\n        /* \"#utility.yul\":6582:6649   */\n      tag_302\n        /* \"#utility.yul\":6646:6648   */\n      0x14\n        /* \"#utility.yul\":6641:6644   */\n      dup4\n        /* \"#utility.yul\":6582:6649   */\n      tag_291\n      jump\t// in\n    tag_302:\n        /* \"#utility.yul\":6575:6649   */\n      swap2\n      pop\n        /* \"#utility.yul\":6658:6751   */\n      tag_303\n        /* \"#utility.yul\":6747:6750   */\n      dup3\n        /* \"#utility.yul\":6658:6751   */\n      tag_304\n      jump\t// in\n    tag_303:\n        /* \"#utility.yul\":6776:6778   */\n      0x20\n        /* \"#utility.yul\":6771:6774   */\n      dup3\n        /* \"#utility.yul\":6767:6779   */\n      add\n        /* \"#utility.yul\":6760:6779   */\n      swap1\n      pop\n        /* \"#utility.yul\":6565:6785   */\n      swap2\n      swap1\n      pop\n      jump\t// out\n        /* \"#utility.yul\":6791:7157   */\n    tag_305:\n        /* \"#utility.yul\":6933:6936   */\n      0x00\n        /* \"#utility.yul\":6954:7021   */\n      tag_307\n        /* \"#utility.yul\":7018:7020   */\n      0x16\n        /* \"#utility.yul\":7013:7016   */\n      dup4\n        /* \"#utility.yul\":6954:7021   */\n      tag_291\n      jump\t// in\n    tag_307:\n        /* \"#utility.yul\":6947:7021   */\n      swap2\n      pop\n        /* \"#utility.yul\":7030:7123   */\n      tag_308\n        /* \"#utility.yul\":7119:7122   */\n      dup3\n        /* \"#utility.yul\":7030:7123   */\n      tag_309\n      jump\t// in\n    tag_308:\n        /* \"#utility.yul\":7148:7150   */\n      0x20\n        /* \"#utility.yul\":7143:7146   */\n      dup3\n        /* \"#utility.yul\":7139:7151   */\n      add\n        /* \"#utility.yul\":7132:7151   */\n      swap1\n      pop\n        /* \"#utility.yul\":6937:7157   */\n      swap2\n      swap1\n      pop\n      jump\t// out\n        /* \"#utility.yul\":7163:7529   */\n    tag_310:\n        /* \"#utility.yul\":7305:7308   */\n      0x00\n        /* \"#utility.yul\":7326:7393   */\n      tag_312\n        /* \"#utility.yul\":7390:7392   */\n      0x1c\n        /* \"#utility.yul\":7385:7388   */\n      dup4\n        /* \"#utility.yul\":7326:7393   */\n      tag_291\n      jump\t// in\n    tag_312:\n        /* \"#utility.yul\":7319:7393   */\n      swap2\n      pop\n        /* \"#utility.yul\":7402:7495   */\n      tag_313\n        /* \"#utility.yul\":7491:7494   */\n      dup3\n        /* \"#utility.yul\":7402:7495   */\n      tag_314\n      jump\t// in\n    tag_313:\n        /* \"#utility.yul\":7520:7522   */\n      0x20\n        /* \"#utility.yul\":7515:7518   */\n      dup3\n        /* \"#utility.yul\":7511:7523   */\n      add\n        /* \"#utility.yul\":7504:7523   */\n      swap1\n      pop\n        /* \"#utility.yul\":7309:7529   */\n      swap2\n      swap1\n      pop\n      jump\t// out\n        /* \"#utility.yul\":7535:7901   */\n    tag_315:\n        /* \"#utility.yul\":7677:7680   */\n      0x00\n        /* \"#utility.yul\":7698:7765   */\n      tag_317\n        /* \"#utility.yul\":7762:7764   */\n      0x1e\n        /* \"#utility.yul\":7757:7760   */\n      dup4\n        /* \"#utility.yul\":7698:7765   */\n      tag_291\n      jump\t// in\n    tag_317:\n        /* \"#utility.yul\":7691:7765   */\n      swap2\n      pop\n        /* \"#utility.yul\":7774:7867   */\n      tag_318\n        /* \"#utility.yul\":7863:7866   */\n      dup3\n        /* \"#utility.yul\":7774:7867   */\n      tag_319\n      jump\t// in\n    tag_318:\n        /* \"#utility.yul\":7892:7894   */\n      0x20\n        /* \"#utility.yul\":7887:7890   */\n      dup3\n        /* \"#utility.yul\":7883:7895   */\n      add\n        /* \"#utility.yul\":7876:7895   */\n      swap1\n      pop\n        /* \"#utility.yul\":7681:7901   */\n      swap2\n      swap1\n      pop\n      jump\t// out\n        /* \"#utility.yul\":7907:8273   */\n    tag_320:\n        /* \"#utility.yul\":8049:8052   */\n      0x00\n        /* \"#utility.yul\":8070:8137   */\n      tag_322\n        /* \"#utility.yul\":8134:8136   */\n      0x14\n        /* \"#utility.yul\":8129:8132   */\n      dup4\n        /* \"#utility.yul\":8070:8137   */\n      tag_291\n      jump\t// in\n    tag_322:\n        /* \"#utility.yul\":8063:8137   */\n      swap2\n      pop\n        /* \"#utility.yul\":8146:8239   */\n      tag_323\n        /* \"#utility.yul\":8235:8238   */\n      dup3\n        /* \"#utility.yul\":8146:8239   */\n      tag_324\n      jump\t// in\n    tag_323:\n        /* \"#utility.yul\":8264:8266   */\n      0x20\n        /* \"#utility.yul\":8259:8262   */\n      dup3\n        /* \"#utility.yul\":8255:8267   */\n      add\n        /* \"#utility.yul\":8248:8267   */\n      swap1\n      pop\n        /* \"#utility.yul\":8053:8273   */\n      swap2\n      swap1\n      pop\n      jump\t// out\n        /* \"#utility.yul\":8279:8645   */\n    tag_325:\n        /* \"#utility.yul\":8421:8424   */\n      0x00\n        /* \"#utility.yul\":8442:8509   */\n      tag_327\n        /* \"#utility.yul\":8506:8508   */\n      0x13\n        /* \"#utility.yul\":8501:8504   */\n      dup4\n        /* \"#utility.yul\":8442:8509   */\n      tag_291\n      jump\t// in\n    tag_327:\n        /* \"#utility.yul\":8435:8509   */\n      swap2\n      pop\n        /* \"#utility.yul\":8518:8611   */\n      tag_328\n        /* \"#utility.yul\":8607:8610   */\n      dup3\n        /* \"#utility.yul\":8518:8611   */\n      tag_329\n      jump\t// in\n    tag_328:\n        /* \"#utility.yul\":8636:8638   */\n      0x20\n        /* \"#utility.yul\":8631:8634   */\n      dup3\n        /* \"#utility.yul\":8627:8639   */\n      add\n        /* \"#utility.yul\":8620:8639   */\n      swap1\n      pop\n        /* \"#utility.yul\":8425:8645   */\n      swap2\n      swap1\n      pop\n      jump\t// out\n        /* \"#utility.yul\":8651:9017   */\n    tag_330:\n        /* \"#utility.yul\":8793:8796   */\n      0x00\n        /* \"#utility.yul\":8814:8881   */\n      tag_332\n        /* \"#utility.yul\":8878:8880   */\n      0x14\n        /* \"#utility.yul\":8873:8876   */\n      dup4\n        /* \"#utility.yul\":8814:8881   */\n      tag_291\n      jump\t// in\n    tag_332:\n        /* \"#utility.yul\":8807:8881   */\n      swap2\n      pop\n        /* \"#utility.yul\":8890:8983   */\n      tag_333\n        /* \"#utility.yul\":8979:8982   */\n      dup3\n        /* \"#utility.yul\":8890:8983   */\n      tag_334\n      jump\t// in\n    tag_333:\n        /* \"#utility.yul\":9008:9010   */\n      0x20\n        /* \"#utility.yul\":9003:9006   */\n      dup3\n        /* \"#utility.yul\":8999:9011   */\n      add\n        /* \"#utility.yul\":8992:9011   */\n      swap1\n      pop\n        /* \"#utility.yul\":8797:9017   */\n      swap2\n      swap1\n      pop\n      jump\t// out\n        /* \"#utility.yul\":9023:9389   */\n    tag_335:\n        /* \"#utility.yul\":9165:9168   */\n      0x00\n        /* \"#utility.yul\":9186:9253   */\n      tag_337\n        /* \"#utility.yul\":9250:9252   */\n      0x0f\n        /* \"#utility.yul\":9245:9248   */\n      dup4\n        /* \"#utility.yul\":9186:9253   */\n      tag_291\n      jump\t// in\n    tag_337:\n        /* \"#utility.yul\":9179:9253   */\n      swap2\n      pop\n        /* \"#utility.yul\":9262:9355   */\n      tag_338\n        /* \"#utility.yul\":9351:9354   */\n      dup3\n        /* \"#utility.yul\":9262:9355   */\n      tag_339\n      jump\t// in\n    tag_338:\n        /* \"#utility.yul\":9380:9382   */\n      0x20\n        /* \"#utility.yul\":9375:9378   */\n      dup3\n        /* \"#utility.yul\":9371:9383   */\n      add\n        /* \"#utility.yul\":9364:9383   */\n      swap1\n      pop\n        /* \"#utility.yul\":9169:9389   */\n      swap2\n      swap1\n      pop\n      jump\t// out\n        /* \"#utility.yul\":9395:9761   */\n    tag_340:\n        /* \"#utility.yul\":9537:9540   */\n      0x00\n        /* \"#utility.yul\":9558:9625   */\n      tag_342\n        /* \"#utility.yul\":9622:9624   */\n      0x14\n        /* \"#utility.yul\":9617:9620   */\n      dup4\n        /* \"#utility.yul\":9558:9625   */\n      tag_291\n      jump\t// in\n    tag_342:\n        /* \"#utility.yul\":9551:9625   */\n      swap2\n      pop\n        /* \"#utility.yul\":9634:9727   */\n      tag_343\n        /* \"#utility.yul\":9723:9726   */\n      dup3\n        /* \"#utility.yul\":9634:9727   */\n      tag_344\n      jump\t// in\n    tag_343:\n        /* \"#utility.yul\":9752:9754   */\n      0x20\n        /* \"#utility.yul\":9747:9750   */\n      dup3\n        /* \"#utility.yul\":9743:9755   */\n      add\n        /* \"#utility.yul\":9736:9755   */\n      swap1\n      pop\n        /* \"#utility.yul\":9541:9761   */\n      swap2\n      swap1\n      pop\n      jump\t// out\n        /* \"#utility.yul\":9767:10133   */\n    tag_345:\n        /* \"#utility.yul\":9909:9912   */\n      0x00\n        /* \"#utility.yul\":9930:9997   */\n      tag_347\n        /* \"#utility.yul\":9994:9996   */\n      0x12\n        /* \"#utility.yul\":9989:9992   */\n      dup4\n        /* \"#utility.yul\":9930:9997   */\n      tag_291\n      jump\t// in\n    tag_347:\n        /* \"#utility.yul\":9923:9997   */\n      swap2\n      pop\n        /* \"#utility.yul\":10006:10099   */\n      tag_348\n        /* \"#utility.yul\":10095:10098   */\n      dup3\n        /* \"#utility.yul\":10006:10099   */\n      tag_349\n      jump\t// in\n    tag_348:\n        /* \"#utility.yul\":10124:10126   */\n      0x20\n        /* \"#utility.yul\":10119:10122   */\n      dup3\n        /* \"#utility.yul\":10115:10127   */\n      add\n        /* \"#utility.yul\":10108:10127   */\n      swap1\n      pop\n        /* \"#utility.yul\":9913:10133   */\n      swap2\n      swap1\n      pop\n      jump\t// out\n        /* \"#utility.yul\":10139:10504   */\n    tag_350:\n        /* \"#utility.yul\":10281:10284   */\n      0x00\n        /* \"#utility.yul\":10302:10368   */\n      tag_352\n        /* \"#utility.yul\":10366:10367   */\n      0x09\n        /* \"#utility.yul\":10361:10364   */\n      dup4\n        /* \"#utility.yul\":10302:10368   */\n      tag_291\n      jump\t// in\n    tag_352:\n        /* \"#utility.yul\":10295:10368   */\n      swap2\n      pop\n        /* \"#utility.yul\":10377:10470   */\n      tag_353\n        /* \"#utility.yul\":10466:10469   */\n      dup3\n        /* \"#utility.yul\":10377:10470   */\n      tag_354\n      jump\t// in\n    tag_353:\n        /* \"#utility.yul\":10495:10497   */\n      0x20\n        /* \"#utility.yul\":10490:10493   */\n      dup3\n        /* \"#utility.yul\":10486:10498   */\n      add\n        /* \"#utility.yul\":10479:10498   */\n      swap1\n      pop\n        /* \"#utility.yul\":10285:10504   */\n      swap2\n      swap1\n      pop\n      jump\t// out\n        /* \"#utility.yul\":10510:10628   */\n    tag_355:\n        /* \"#utility.yul\":10597:10621   */\n      tag_357\n        /* \"#utility.yul\":10615:10620   */\n      dup2\n        /* \"#utility.yul\":10597:10621   */\n      tag_358\n      jump\t// in\n    tag_357:\n        /* \"#utility.yul\":10592:10595   */\n      dup3\n        /* \"#utility.yul\":10585:10622   */\n      mstore\n        /* \"#utility.yul\":10575:10628   */\n      pop\n      pop\n      jump\t// out\n        /* \"#utility.yul\":10634:10909   */\n    tag_152:\n        /* \"#utility.yul\":10766:10769   */\n      0x00\n        /* \"#utility.yul\":10788:10883   */\n      tag_360\n        /* \"#utility.yul\":10879:10882   */\n      dup3\n        /* \"#utility.yul\":10870:10876   */\n      dup5\n        /* \"#utility.yul\":10788:10883   */\n      tag_294\n      jump\t// in\n    tag_360:\n        /* \"#utility.yul\":10781:10883   */\n      swap2\n      pop\n        /* \"#utility.yul\":10900:10903   */\n      dup2\n        /* \"#utility.yul\":10893:10903   */\n      swap1\n      pop\n        /* \"#utility.yul\":10770:10909   */\n      swap3\n      swap2\n      pop\n      pop\n      jump\t// out\n        /* \"#utility.yul\":10915:11137   */\n    tag_36:\n        /* \"#utility.yul\":11008:11012   */\n      0x00\n        /* \"#utility.yul\":11046:11048   */\n      0x20\n        /* \"#utility.yul\":11035:11044   */\n      dup3\n        /* \"#utility.yul\":11031:11049   */\n      add\n        /* \"#utility.yul\":11023:11049   */\n      swap1\n      pop\n        /* \"#utility.yul\":11059:11130   */\n      tag_362\n        /* \"#utility.yul\":11127:11128   */\n      0x00\n        /* \"#utility.yul\":11116:11125   */\n      dup4\n        /* \"#utility.yul\":11112:11129   */\n      add\n        /* \"#utility.yul\":11103:11109   */\n      dup5\n        /* \"#utility.yul\":11059:11130   */\n      tag_268\n      jump\t// in\n    tag_362:\n        /* \"#utility.yul\":11013:11137   */\n      swap3\n      swap2\n      pop\n      pop\n      jump\t// out\n        /* \"#utility.yul\":11143:11783   */\n    tag_191:\n        /* \"#utility.yul\":11338:11342   */\n      0x00\n        /* \"#utility.yul\":11376:11379   */\n      0x80\n        /* \"#utility.yul\":11365:11374   */\n      dup3\n        /* \"#utility.yul\":11361:11380   */\n      add\n        /* \"#utility.yul\":11353:11380   */\n      swap1\n      pop\n        /* \"#utility.yul\":11390:11461   */\n      tag_364\n        /* \"#utility.yul\":11458:11459   */\n      0x00\n        /* \"#utility.yul\":11447:11456   */\n      dup4\n        /* \"#utility.yul\":11443:11460   */\n      add\n        /* \"#utility.yul\":11434:11440   */\n      dup8\n        /* \"#utility.yul\":11390:11461   */\n      tag_268\n      jump\t// in\n    tag_364:\n        /* \"#utility.yul\":11471:11543   */\n      tag_365\n        /* \"#utility.yul\":11539:11541   */\n      0x20\n        /* \"#utility.yul\":11528:11537   */\n      dup4\n        /* \"#utility.yul\":11524:11542   */\n      add\n        /* \"#utility.yul\":11515:11521   */\n      dup7\n        /* \"#utility.yul\":11471:11543   */\n      tag_268\n      jump\t// in\n    tag_365:\n        /* \"#utility.yul\":11553:11625   */\n      tag_366\n        /* \"#utility.yul\":11621:11623   */\n      0x40\n        /* \"#utility.yul\":11610:11619   */\n      dup4\n        /* \"#utility.yul\":11606:11624   */\n      add\n        /* \"#utility.yul\":11597:11603   */\n      dup6\n        /* \"#utility.yul\":11553:11625   */\n      tag_355\n      jump\t// in\n    tag_366:\n        /* \"#utility.yul\":11672:11681   */\n      dup2\n        /* \"#utility.yul\":11666:11670   */\n      dup2\n        /* \"#utility.yul\":11662:11682   */\n      sub\n        /* \"#utility.yul\":11657:11659   */\n      0x60\n        /* \"#utility.yul\":11646:11655   */\n      dup4\n        /* \"#utility.yul\":11642:11660   */\n      add\n        /* \"#utility.yul\":11635:11683   */\n      mstore\n        /* \"#utility.yul\":11700:11776   */\n      tag_367\n        /* \"#utility.yul\":11771:11775   */\n      dup2\n        /* \"#utility.yul\":11762:11768   */\n      dup5\n        /* \"#utility.yul\":11700:11776   */\n      tag_276\n      jump\t// in\n    tag_367:\n        /* \"#utility.yul\":11692:11776   */\n      swap1\n      pop\n        /* \"#utility.yul\":11343:11783   */\n      swap6\n      swap5\n      pop\n      pop\n      pop\n      pop\n      pop\n      jump\t// out\n        /* \"#utility.yul\":11789:11999   */\n    tag_26:\n        /* \"#utility.yul\":11876:11880   */\n      0x00\n        /* \"#utility.yul\":11914:11916   */\n      0x20\n        /* \"#utility.yul\":11903:11912   */\n      dup3\n        /* \"#utility.yul\":11899:11917   */\n      add\n        /* \"#utility.yul\":11891:11917   */\n      swap1\n      pop\n        /* \"#utility.yul\":11927:11992   */\n      tag_369\n        /* \"#utility.yul\":11989:11990   */\n      0x00\n        /* \"#utility.yul\":11978:11987   */\n      dup4\n        /* \"#utility.yul\":11974:11991   */\n      add\n        /* \"#utility.yul\":11965:11971   */\n      dup5\n        /* \"#utility.yul\":11927:11992   */\n      tag_272\n      jump\t// in\n    tag_369:\n        /* \"#utility.yul\":11881:11999   */\n      swap3\n      swap2\n      pop\n      pop\n      jump\t// out\n        /* \"#utility.yul\":12005:12318   */\n    tag_30:\n        /* \"#utility.yul\":12118:12122   */\n      0x00\n        /* \"#utility.yul\":12156:12158   */\n      0x20\n        /* \"#utility.yul\":12145:12154   */\n      dup3\n        /* \"#utility.yul\":12141:12159   */\n      add\n        /* \"#utility.yul\":12133:12159   */\n      swap1\n      pop\n        /* \"#utility.yul\":12205:12214   */\n      dup2\n        /* \"#utility.yul\":12199:12203   */\n      dup2\n        /* \"#utility.yul\":12195:12215   */\n      sub\n        /* \"#utility.yul\":12191:12192   */\n      0x00\n        /* \"#utility.yul\":12180:12189   */\n      dup4\n        /* \"#utility.yul\":12176:12193   */\n      add\n        /* \"#utility.yul\":12169:12216   */\n      mstore\n        /* \"#utility.yul\":12233:12311   */\n      tag_371\n        /* \"#utility.yul\":12306:12310   */\n      dup2\n        /* \"#utility.yul\":12297:12303   */\n      dup5\n        /* \"#utility.yul\":12233:12311   */\n      tag_286\n      jump\t// in\n    tag_371:\n        /* \"#utility.yul\":12225:12311   */\n      swap1\n      pop\n        /* \"#utility.yul\":12123:12318   */\n      swap3\n      swap2\n      pop\n      pop\n      jump\t// out\n        /* \"#utility.yul\":12324:12743   */\n    tag_117:\n        /* \"#utility.yul\":12490:12494   */\n      0x00\n        /* \"#utility.yul\":12528:12530   */\n      0x20\n        /* \"#utility.yul\":12517:12526   */\n      dup3\n        /* \"#utility.yul\":12513:12531   */\n      add\n        /* \"#utility.yul\":12505:12531   */\n      swap1\n      pop\n        /* \"#utility.yul\":12577:12586   */\n      dup2\n        /* \"#utility.yul\":12571:12575   */\n      dup2\n        /* \"#utility.yul\":12567:12587   */\n      sub\n        /* \"#utility.yul\":12563:12564   */\n      0x00\n        /* \"#utility.yul\":12552:12561   */\n      dup4\n        /* \"#utility.yul\":12548:12565   */\n      add\n        /* \"#utility.yul\":12541:12588   */\n      mstore\n        /* \"#utility.yul\":12605:12736   */\n      tag_373\n        /* \"#utility.yul\":12731:12735   */\n      dup2\n        /* \"#utility.yul\":12605:12736   */\n      tag_300\n      jump\t// in\n    tag_373:\n        /* \"#utility.yul\":12597:12736   */\n      swap1\n      pop\n        /* \"#utility.yul\":12495:12743   */\n      swap2\n      swap1\n      pop\n      jump\t// out\n        /* \"#utility.yul\":12749:13168   */\n    tag_110:\n        /* \"#utility.yul\":12915:12919   */\n      0x00\n        /* \"#utility.yul\":12953:12955   */\n      0x20\n        /* \"#utility.yul\":12942:12951   */\n      dup3\n        /* \"#utility.yul\":12938:12956   */\n      add\n        /* \"#utility.yul\":12930:12956   */\n      swap1\n      pop\n        /* \"#utility.yul\":13002:13011   */\n      dup2\n        /* \"#utility.yul\":12996:13000   */\n      dup2\n        /* \"#utility.yul\":12992:13012   */\n      sub\n        /* \"#utility.yul\":12988:12989   */\n      0x00\n        /* \"#utility.yul\":12977:12986   */\n      dup4\n        /* \"#utility.yul\":12973:12990   */\n      add\n        /* \"#utility.yul\":12966:13013   */\n      mstore\n        /* \"#utility.yul\":13030:13161   */\n      tag_375\n        /* \"#utility.yul\":13156:13160   */\n      dup2\n        /* \"#utility.yul\":13030:13161   */\n      tag_305\n      jump\t// in\n    tag_375:\n        /* \"#utility.yul\":13022:13161   */\n      swap1\n      pop\n        /* \"#utility.yul\":12920:13168   */\n      swap2\n      swap1\n      pop\n      jump\t// out\n        /* \"#utility.yul\":13174:13593   */\n    tag_164:\n        /* \"#utility.yul\":13340:13344   */\n      0x00\n        /* \"#utility.yul\":13378:13380   */\n      0x20\n        /* \"#utility.yul\":13367:13376   */\n      dup3\n        /* \"#utility.yul\":13363:13381   */\n      add\n        /* \"#utility.yul\":13355:13381   */\n      swap1\n      pop\n        /* \"#utility.yul\":13427:13436   */\n      dup2\n        /* \"#utility.yul\":13421:13425   */\n      dup2\n        /* \"#utility.yul\":13417:13437   */\n      sub\n        /* \"#utility.yul\":13413:13414   */\n      0x00\n        /* \"#utility.yul\":13402:13411   */\n      dup4\n        /* \"#utility.yul\":13398:13415   */\n      add\n        /* \"#utility.yul\":13391:13438   */\n      mstore\n        /* \"#utility.yul\":13455:13586   */\n      tag_377\n        /* \"#utility.yul\":13581:13585   */\n      dup2\n        /* \"#utility.yul\":13455:13586   */\n      tag_310\n      jump\t// in\n    tag_377:\n        /* \"#utility.yul\":13447:13586   */\n      swap1\n      pop\n        /* \"#utility.yul\":13345:13593   */\n      swap2\n      swap1\n      pop\n      jump\t// out\n        /* \"#utility.yul\":13599:14018   */\n    tag_101:\n        /* \"#utility.yul\":13765:13769   */\n      0x00\n        /* \"#utility.yul\":13803:13805   */\n      0x20\n        /* \"#utility.yul\":13792:13801   */\n      dup3\n        /* \"#utility.yul\":13788:13806   */\n      add\n        /* \"#utility.yul\":13780:13806   */\n      swap1\n      pop\n        /* \"#utility.yul\":13852:13861   */\n      dup2\n        /* \"#utility.yul\":13846:13850   */\n      dup2\n        /* \"#utility.yul\":13842:13862   */\n      sub\n        /* \"#utility.yul\":13838:13839   */\n      0x00\n        /* \"#utility.yul\":13827:13836   */\n      dup4\n        /* \"#utility.yul\":13823:13840   */\n      add\n        /* \"#utility.yul\":13816:13863   */\n      mstore\n        /* \"#utility.yul\":13880:14011   */\n      tag_379\n        /* \"#utility.yul\":14006:14010   */\n      dup2\n        /* \"#utility.yul\":13880:14011   */\n      tag_315\n      jump\t// in\n    tag_379:\n        /* \"#utility.yul\":13872:14011   */\n      swap1\n      pop\n        /* \"#utility.yul\":13770:14018   */\n      swap2\n      swap1\n      pop\n      jump\t// out\n        /* \"#utility.yul\":14024:14443   */\n    tag_173:\n        /* \"#utility.yul\":14190:14194   */\n      0x00\n        /* \"#utility.yul\":14228:14230   */\n      0x20\n        /* \"#utility.yul\":14217:14226   */\n      dup3\n        /* \"#utility.yul\":14213:14231   */\n      add\n        /* \"#utility.yul\":14205:14231   */\n      swap1\n      pop\n        /* \"#utility.yul\":14277:14286   */\n      dup2\n        /* \"#utility.yul\":14271:14275   */\n      dup2\n        /* \"#utility.yul\":14267:14287   */\n      sub\n        /* \"#utility.yul\":14263:14264   */\n      0x00\n        /* \"#utility.yul\":14252:14261   */\n      dup4\n        /* \"#utility.yul\":14248:14265   */\n      add\n        /* \"#utility.yul\":14241:14288   */\n      mstore\n        /* \"#utility.yul\":14305:14436   */\n      tag_381\n        /* \"#utility.yul\":14431:14435   */\n      dup2\n        /* \"#utility.yul\":14305:14436   */\n      tag_320\n      jump\t// in\n    tag_381:\n        /* \"#utility.yul\":14297:14436   */\n      swap1\n      pop\n        /* \"#utility.yul\":14195:14443   */\n      swap2\n      swap1\n      pop\n      jump\t// out\n        /* \"#utility.yul\":14449:14868   */\n    tag_96:\n        /* \"#utility.yul\":14615:14619   */\n      0x00\n        /* \"#utility.yul\":14653:14655   */\n      0x20\n        /* \"#utility.yul\":14642:14651   */\n      dup3\n        /* \"#utility.yul\":14638:14656   */\n      add\n        /* \"#utility.yul\":14630:14656   */\n      swap1\n      pop\n        /* \"#utility.yul\":14702:14711   */\n      dup2\n        /* \"#utility.yul\":14696:14700   */\n      dup2\n        /* \"#utility.yul\":14692:14712   */\n      sub\n        /* \"#utility.yul\":14688:14689   */\n      0x00\n        /* \"#utility.yul\":14677:14686   */\n      dup4\n        /* \"#utility.yul\":14673:14690   */\n      add\n        /* \"#utility.yul\":14666:14713   */\n      mstore\n        /* \"#utility.yul\":14730:14861   */\n      tag_383\n        /* \"#utility.yul\":14856:14860   */\n      dup2\n        /* \"#utility.yul\":14730:14861   */\n      tag_325\n      jump\t// in\n    tag_383:\n        /* \"#utility.yul\":14722:14861   */\n      swap1\n      pop\n        /* \"#utility.yul\":14620:14868   */\n      swap2\n      swap1\n      pop\n      jump\t// out\n        /* \"#utility.yul\":14874:15293   */\n    tag_128:\n        /* \"#utility.yul\":15040:15044   */\n      0x00\n        /* \"#utility.yul\":15078:15080   */\n      0x20\n        /* \"#utility.yul\":15067:15076   */\n      dup3\n        /* \"#utility.yul\":15063:15081   */\n      add\n        /* \"#utility.yul\":15055:15081   */\n      swap1\n      pop\n        /* \"#utility.yul\":15127:15136   */\n      dup2\n        /* \"#utility.yul\":15121:15125   */\n      dup2\n        /* \"#utility.yul\":15117:15137   */\n      sub\n        /* \"#utility.yul\":15113:15114   */\n      0x00\n        /* \"#utility.yul\":15102:15111   */\n      dup4\n        /* \"#utility.yul\":15098:15115   */\n      add\n        /* \"#utility.yul\":15091:15138   */\n      mstore\n        /* \"#utility.yul\":15155:15286   */\n      tag_385\n        /* \"#utility.yul\":15281:15285   */\n      dup2\n        /* \"#utility.yul\":15155:15286   */\n      tag_330\n      jump\t// in\n    tag_385:\n        /* \"#utility.yul\":15147:15286   */\n      swap1\n      pop\n        /* \"#utility.yul\":15045:15293   */\n      swap2\n      swap1\n      pop\n      jump\t// out\n        /* \"#utility.yul\":15299:15718   */\n    tag_146:\n        /* \"#utility.yul\":15465:15469   */\n      0x00\n        /* \"#utility.yul\":15503:15505   */\n      0x20\n        /* \"#utility.yul\":15492:15501   */\n      dup3\n        /* \"#utility.yul\":15488:15506   */\n      add\n        /* \"#utility.yul\":15480:15506   */\n      swap1\n      pop\n        /* \"#utility.yul\":15552:15561   */\n      dup2\n        /* \"#utility.yul\":15546:15550   */\n      dup2\n        /* \"#utility.yul\":15542:15562   */\n      sub\n        /* \"#utility.yul\":15538:15539   */\n      0x00\n        /* \"#utility.yul\":15527:15536   */\n      dup4\n        /* \"#utility.yul\":15523:15540   */\n      add\n        /* \"#utility.yul\":15516:15563   */\n      mstore\n        /* \"#utility.yul\":15580:15711   */\n      tag_387\n        /* \"#utility.yul\":15706:15710   */\n      dup2\n        /* \"#utility.yul\":15580:15711   */\n      tag_335\n      jump\t// in\n    tag_387:\n        /* \"#utility.yul\":15572:15711   */\n      swap1\n      pop\n        /* \"#utility.yul\":15470:15718   */\n      swap2\n      swap1\n      pop\n      jump\t// out\n        /* \"#utility.yul\":15724:16143   */\n    tag_176:\n        /* \"#utility.yul\":15890:15894   */\n      0x00\n        /* \"#utility.yul\":15928:15930   */\n      0x20\n        /* \"#utility.yul\":15917:15926   */\n      dup3\n        /* \"#utility.yul\":15913:15931   */\n      add\n        /* \"#utility.yul\":15905:15931   */\n      swap1\n      pop\n        /* \"#utility.yul\":15977:15986   */\n      dup2\n        /* \"#utility.yul\":15971:15975   */\n      dup2\n        /* \"#utility.yul\":15967:15987   */\n      sub\n        /* \"#utility.yul\":15963:15964   */\n      0x00\n        /* \"#utility.yul\":15952:15961   */\n      dup4\n        /* \"#utility.yul\":15948:15965   */\n      add\n        /* \"#utility.yul\":15941:15988   */\n      mstore\n        /* \"#utility.yul\":16005:16136   */\n      tag_389\n        /* \"#utility.yul\":16131:16135   */\n      dup2\n        /* \"#utility.yul\":16005:16136   */\n      tag_340\n      jump\t// in\n    tag_389:\n        /* \"#utility.yul\":15997:16136   */\n      swap1\n      pop\n        /* \"#utility.yul\":15895:16143   */\n      swap2\n      swap1\n      pop\n      jump\t// out\n        /* \"#utility.yul\":16149:16568   */\n    tag_184:\n        /* \"#utility.yul\":16315:16319   */\n      0x00\n        /* \"#utility.yul\":16353:16355   */\n      0x20\n        /* \"#utility.yul\":16342:16351   */\n      dup3\n        /* \"#utility.yul\":16338:16356   */\n      add\n        /* \"#utility.yul\":16330:16356   */\n      swap1\n      pop\n        /* \"#utility.yul\":16402:16411   */\n      dup2\n        /* \"#utility.yul\":16396:16400   */\n      dup2\n        /* \"#utility.yul\":16392:16412   */\n      sub\n        /* \"#utility.yul\":16388:16389   */\n      0x00\n        /* \"#utility.yul\":16377:16386   */\n      dup4\n        /* \"#utility.yul\":16373:16390   */\n      add\n        /* \"#utility.yul\":16366:16413   */\n      mstore\n        /* \"#utility.yul\":16430:16561   */\n      tag_391\n        /* \"#utility.yul\":16556:16560   */\n      dup2\n        /* \"#utility.yul\":16430:16561   */\n      tag_345\n      jump\t// in\n    tag_391:\n        /* \"#utility.yul\":16422:16561   */\n      swap1\n      pop\n        /* \"#utility.yul\":16320:16568   */\n      swap2\n      swap1\n      pop\n      jump\t// out\n        /* \"#utility.yul\":16574:16993   */\n    tag_161:\n        /* \"#utility.yul\":16740:16744   */\n      0x00\n        /* \"#utility.yul\":16778:16780   */\n      0x20\n        /* \"#utility.yul\":16767:16776   */\n      dup3\n        /* \"#utility.yul\":16763:16781   */\n      add\n        /* \"#utility.yul\":16755:16781   */\n      swap1\n      pop\n        /* \"#utility.yul\":16827:16836   */\n      dup2\n        /* \"#utility.yul\":16821:16825   */\n      dup2\n        /* \"#utility.yul\":16817:16837   */\n      sub\n        /* \"#utility.yul\":16813:16814   */\n      0x00\n        /* \"#utility.yul\":16802:16811   */\n      dup4\n        /* \"#utility.yul\":16798:16815   */\n      add\n        /* \"#utility.yul\":16791:16838   */\n      mstore\n        /* \"#utility.yul\":16855:16986   */\n      tag_393\n        /* \"#utility.yul\":16981:16985   */\n      dup2\n        /* \"#utility.yul\":16855:16986   */\n      tag_350\n      jump\t// in\n    tag_393:\n        /* \"#utility.yul\":16847:16986   */\n      swap1\n      pop\n        /* \"#utility.yul\":16745:16993   */\n      swap2\n      swap1\n      pop\n      jump\t// out\n        /* \"#utility.yul\":16999:17221   */\n    tag_60:\n        /* \"#utility.yul\":17092:17096   */\n      0x00\n        /* \"#utility.yul\":17130:17132   */\n      0x20\n        /* \"#utility.yul\":17119:17128   */\n      dup3\n        /* \"#utility.yul\":17115:17133   */\n      add\n        /* \"#utility.yul\":17107:17133   */\n      swap1\n      pop\n        /* \"#utility.yul\":17143:17214   */\n      tag_395\n        /* \"#utility.yul\":17211:17212   */\n      0x00\n        /* \"#utility.yul\":17200:17209   */\n      dup4\n        /* \"#utility.yul\":17196:17213   */\n      add\n        /* \"#utility.yul\":17187:17193   */\n      dup5\n        /* \"#utility.yul\":17143:17214   */\n      tag_355\n      jump\t// in\n    tag_395:\n        /* \"#utility.yul\":17097:17221   */\n      swap3\n      swap2\n      pop\n      pop\n      jump\t// out\n        /* \"#utility.yul\":17227:17356   */\n    tag_205:\n        /* \"#utility.yul\":17261:17267   */\n      0x00\n        /* \"#utility.yul\":17288:17308   */\n      tag_397\n      tag_398\n      jump\t// in\n    tag_397:\n        /* \"#utility.yul\":17278:17308   */\n      swap1\n      pop\n        /* \"#utility.yul\":17317:17350   */\n      tag_399\n        /* \"#utility.yul\":17345:17349   */\n      dup3\n        /* \"#utility.yul\":17337:17343   */\n      dup3\n        /* \"#utility.yul\":17317:17350   */\n      tag_400\n      jump\t// in\n    tag_399:\n        /* \"#utility.yul\":17268:17356   */\n      swap2\n      swap1\n      pop\n      jump\t// out\n        /* \"#utility.yul\":17362:17437   */\n    tag_398:\n        /* \"#utility.yul\":17395:17401   */\n      0x00\n        /* \"#utility.yul\":17428:17430   */\n      0x40\n        /* \"#utility.yul\":17422:17431   */\n      mload\n        /* \"#utility.yul\":17412:17431   */\n      swap1\n      pop\n        /* \"#utility.yul\":17402:17437   */\n      swap1\n      jump\t// out\n        /* \"#utility.yul\":17443:17750   */\n    tag_204:\n        /* \"#utility.yul\":17504:17508   */\n      0x00\n        /* \"#utility.yul\":17594:17612   */\n      0xffffffffffffffff\n        /* \"#utility.yul\":17586:17592   */\n      dup3\n        /* \"#utility.yul\":17583:17613   */\n      gt\n        /* \"#utility.yul\":17580:17582   */\n      iszero\n      tag_403\n      jumpi\n        /* \"#utility.yul\":17616:17634   */\n      tag_404\n      tag_405\n      jump\t// in\n    tag_404:\n        /* \"#utility.yul\":17580:17582   */\n    tag_403:\n        /* \"#utility.yul\":17654:17683   */\n      tag_406\n        /* \"#utility.yul\":17676:17682   */\n      dup3\n        /* \"#utility.yul\":17654:17683   */\n      tag_285\n      jump\t// in\n    tag_406:\n        /* \"#utility.yul\":17646:17683   */\n      swap1\n      pop\n        /* \"#utility.yul\":17738:17742   */\n      0x20\n        /* \"#utility.yul\":17732:17736   */\n      dup2\n        /* \"#utility.yul\":17728:17743   */\n      add\n        /* \"#utility.yul\":17720:17743   */\n      swap1\n      pop\n        /* \"#utility.yul\":17509:17750   */\n      swap2\n      swap1\n      pop\n      jump\t// out\n        /* \"#utility.yul\":17756:17854   */\n    tag_279:\n        /* \"#utility.yul\":17807:17813   */\n      0x00\n        /* \"#utility.yul\":17841:17846   */\n      dup2\n        /* \"#utility.yul\":17835:17847   */\n      mload\n        /* \"#utility.yul\":17825:17847   */\n      swap1\n      pop\n        /* \"#utility.yul\":17814:17854   */\n      swap2\n      swap1\n      pop\n      jump\t// out\n        /* \"#utility.yul\":17860:17959   */\n    tag_289:\n        /* \"#utility.yul\":17912:17918   */\n      0x00\n        /* \"#utility.yul\":17946:17951   */\n      dup2\n        /* \"#utility.yul\":17940:17952   */\n      mload\n        /* \"#utility.yul\":17930:17952   */\n      swap1\n      pop\n        /* \"#utility.yul\":17919:17959   */\n      swap2\n      swap1\n      pop\n      jump\t// out\n        /* \"#utility.yul\":17965:18133   */\n    tag_281:\n        /* \"#utility.yul\":18048:18059   */\n      0x00\n        /* \"#utility.yul\":18082:18088   */\n      dup3\n        /* \"#utility.yul\":18077:18080   */\n      dup3\n        /* \"#utility.yul\":18070:18089   */\n      mstore\n        /* \"#utility.yul\":18122:18126   */\n      0x20\n        /* \"#utility.yul\":18117:18120   */\n      dup3\n        /* \"#utility.yul\":18113:18127   */\n      add\n        /* \"#utility.yul\":18098:18127   */\n      swap1\n      pop\n        /* \"#utility.yul\":18060:18133   */\n      swap3\n      swap2\n      pop\n      pop\n      jump\t// out\n        /* \"#utility.yul\":18139:18308   */\n    tag_291:\n        /* \"#utility.yul\":18223:18234   */\n      0x00\n        /* \"#utility.yul\":18257:18263   */\n      dup3\n        /* \"#utility.yul\":18252:18255   */\n      dup3\n        /* \"#utility.yul\":18245:18264   */\n      mstore\n        /* \"#utility.yul\":18297:18301   */\n      0x20\n        /* \"#utility.yul\":18292:18295   */\n      dup3\n        /* \"#utility.yul\":18288:18302   */\n      add\n        /* \"#utility.yul\":18273:18302   */\n      swap1\n      pop\n        /* \"#utility.yul\":18235:18308   */\n      swap3\n      swap2\n      pop\n      pop\n      jump\t// out\n        /* \"#utility.yul\":18314:18462   */\n    tag_298:\n        /* \"#utility.yul\":18416:18427   */\n      0x00\n        /* \"#utility.yul\":18453:18456   */\n      dup2\n        /* \"#utility.yul\":18438:18456   */\n      swap1\n      pop\n        /* \"#utility.yul\":18428:18462   */\n      swap3\n      swap2\n      pop\n      pop\n      jump\t// out\n        /* \"#utility.yul\":18468:18773   */\n    tag_169:\n        /* \"#utility.yul\":18508:18511   */\n      0x00\n        /* \"#utility.yul\":18527:18547   */\n      tag_413\n        /* \"#utility.yul\":18545:18546   */\n      dup3\n        /* \"#utility.yul\":18527:18547   */\n      tag_358\n      jump\t// in\n    tag_413:\n        /* \"#utility.yul\":18522:18547   */\n      swap2\n      pop\n        /* \"#utility.yul\":18561:18581   */\n      tag_414\n        /* \"#utility.yul\":18579:18580   */\n      dup4\n        /* \"#utility.yul\":18561:18581   */\n      tag_358\n      jump\t// in\n    tag_414:\n        /* \"#utility.yul\":18556:18581   */\n      swap3\n      pop\n        /* \"#utility.yul\":18715:18716   */\n      dup3\n        /* \"#utility.yul\":18647:18713   */\n      0xffffffffffffffffffffffffffffffffffffffffffffffffffffffffffffffff\n        /* \"#utility.yul\":18643:18717   */\n      sub\n        /* \"#utility.yul\":18640:18641   */\n      dup3\n        /* \"#utility.yul\":18637:18718   */\n      gt\n        /* \"#utility.yul\":18634:18636   */\n      iszero\n      tag_415\n      jumpi\n        /* \"#utility.yul\":18721:18739   */\n      tag_416\n      tag_417\n      jump\t// in\n    tag_416:\n        /* \"#utility.yul\":18634:18636   */\n    tag_415:\n        /* \"#utility.yul\":18765:18766   */\n      dup3\n        /* \"#utility.yul\":18762:18763   */\n      dup3\n        /* \"#utility.yul\":18758:18767   */\n      add\n        /* \"#utility.yul\":18751:18767   */\n      swap1\n      pop\n        /* \"#utility.yul\":18512:18773   */\n      swap3\n      swap2\n      pop\n      pop\n      jump\t// out\n        /* \"#utility.yul\":18779:18970   */\n    tag_167:\n        /* \"#utility.yul\":18819:18823   */\n      0x00\n        /* \"#utility.yul\":18839:18859   */\n      tag_419\n        /* \"#utility.yul\":18857:18858   */\n      dup3\n        /* \"#utility.yul\":18839:18859   */\n      tag_358\n      jump\t// in\n    tag_419:\n        /* \"#utility.yul\":18834:18859   */\n      swap2\n      pop\n        /* \"#utility.yul\":18873:18893   */\n      tag_420\n        /* \"#utility.yul\":18891:18892   */\n      dup4\n        /* \"#utility.yul\":18873:18893   */\n      tag_358\n      jump\t// in\n    tag_420:\n        /* \"#utility.yul\":18868:18893   */\n      swap3\n      pop\n        /* \"#utility.yul\":18912:18913   */\n      dup3\n        /* \"#utility.yul\":18909:18910   */\n      dup3\n        /* \"#utility.yul\":18906:18914   */\n      lt\n        /* \"#utility.yul\":18903:18905   */\n      iszero\n      tag_421\n      jumpi\n        /* \"#utility.yul\":18917:18935   */\n      tag_422\n      tag_417\n      jump\t// in\n    tag_422:\n        /* \"#utility.yul\":18903:18905   */\n    tag_421:\n        /* \"#utility.yul\":18962:18963   */\n      dup3\n        /* \"#utility.yul\":18959:18960   */\n      dup3\n        /* \"#utility.yul\":18955:18964   */\n      sub\n        /* \"#utility.yul\":18947:18964   */\n      swap1\n      pop\n        /* \"#utility.yul\":18824:18970   */\n      swap3\n      swap2\n      pop\n      pop\n      jump\t// out\n        /* \"#utility.yul\":18976:19072   */\n    tag_271:\n        /* \"#utility.yul\":19013:19020   */\n      0x00\n        /* \"#utility.yul\":19042:19066   */\n      tag_424\n        /* \"#utility.yul\":19060:19065   */\n      dup3\n        /* \"#utility.yul\":19042:19066   */\n      tag_425\n      jump\t// in\n    tag_424:\n        /* \"#utility.yul\":19031:19066   */\n      swap1\n      pop\n        /* \"#utility.yul\":19021:19072   */\n      swap2\n      swap1\n      pop\n      jump\t// out\n        /* \"#utility.yul\":19078:19168   */\n    tag_275:\n        /* \"#utility.yul\":19112:19119   */\n      0x00\n        /* \"#utility.yul\":19155:19160   */\n      dup2\n        /* \"#utility.yul\":19148:19161   */\n      iszero\n        /* \"#utility.yul\":19141:19162   */\n      iszero\n        /* \"#utility.yul\":19130:19162   */\n      swap1\n      pop\n        /* \"#utility.yul\":19120:19168   */\n      swap2\n      swap1\n      pop\n      jump\t// out\n        /* \"#utility.yul\":19174:19323   */\n    tag_427:\n        /* \"#utility.yul\":19210:19217   */\n      0x00\n        /* \"#utility.yul\":19250:19316   */\n      0xffffffff00000000000000000000000000000000000000000000000000000000\n        /* \"#utility.yul\":19243:19248   */\n      dup3\n        /* \"#utility.yul\":19239:19317   */\n      and\n        /* \"#utility.yul\":19228:19317   */\n      swap1\n      pop\n        /* \"#utility.yul\":19218:19323   */\n      swap2\n      swap1\n      pop\n      jump\t// out\n        /* \"#utility.yul\":19329:19455   */\n    tag_425:\n        /* \"#utility.yul\":19366:19373   */\n      0x00\n        /* \"#utility.yul\":19406:19448   */\n      0xffffffffffffffffffffffffffffffffffffffff\n        /* \"#utility.yul\":19399:19404   */\n      dup3\n        /* \"#utility.yul\":19395:19449   */\n      and\n        /* \"#utility.yul\":19384:19449   */\n      swap1\n      pop\n        /* \"#utility.yul\":19374:19455   */\n      swap2\n      swap1\n      pop\n      jump\t// out\n        /* \"#utility.yul\":19461:19538   */\n    tag_358:\n        /* \"#utility.yul\":19498:19505   */\n      0x00\n        /* \"#utility.yul\":19527:19532   */\n      dup2\n        /* \"#utility.yul\":19516:19532   */\n      swap1\n      pop\n        /* \"#utility.yul\":19506:19538   */\n      swap2\n      swap1\n      pop\n      jump\t// out\n        /* \"#utility.yul\":19544:19698   */\n    tag_208:\n        /* \"#utility.yul\":19628:19634   */\n      dup3\n        /* \"#utility.yul\":19623:19626   */\n      dup2\n        /* \"#utility.yul\":19618:19621   */\n      dup4\n        /* \"#utility.yul\":19605:19635   */\n      calldatacopy\n        /* \"#utility.yul\":19690:19691   */\n      0x00\n        /* \"#utility.yul\":19681:19687   */\n      dup4\n        /* \"#utility.yul\":19676:19679   */\n      dup4\n        /* \"#utility.yul\":19672:19688   */\n      add\n        /* \"#utility.yul\":19665:19692   */\n      mstore\n        /* \"#utility.yul\":19595:19698   */\n      pop\n      pop\n      pop\n      jump\t// out\n        /* \"#utility.yul\":19704:20011   */\n    tag_283:\n        /* \"#utility.yul\":19772:19773   */\n      0x00\n        /* \"#utility.yul\":19782:19895   */\n    tag_433:\n        /* \"#utility.yul\":19796:19802   */\n      dup4\n        /* \"#utility.yul\":19793:19794   */\n      dup2\n        /* \"#utility.yul\":19790:19803   */\n      lt\n        /* \"#utility.yul\":19782:19895   */\n      iszero\n      tag_435\n      jumpi\n        /* \"#utility.yul\":19881:19882   */\n      dup1\n        /* \"#utility.yul\":19876:19879   */\n      dup3\n        /* \"#utility.yul\":19872:19883   */\n      add\n        /* \"#utility.yul\":19866:19884   */\n      mload\n        /* \"#utility.yul\":19862:19863   */\n      dup2\n        /* \"#utility.yul\":19857:19860   */\n      dup5\n        /* \"#utility.yul\":19853:19864   */\n      add\n        /* \"#utility.yul\":19846:19885   */\n      mstore\n        /* \"#utility.yul\":19818:19820   */\n      0x20\n        /* \"#utility.yul\":19815:19816   */\n      dup2\n        /* \"#utility.yul\":19811:19821   */\n      add\n        /* \"#utility.yul\":19806:19821   */\n      swap1\n      pop\n        /* \"#utility.yul\":19782:19895   */\n      jump(tag_433)\n    tag_435:\n        /* \"#utility.yul\":19913:19919   */\n      dup4\n        /* \"#utility.yul\":19910:19911   */\n      dup2\n        /* \"#utility.yul\":19907:19920   */\n      gt\n        /* \"#utility.yul\":19904:19906   */\n      iszero\n      tag_436\n      jumpi\n        /* \"#utility.yul\":19993:19994   */\n      0x00\n        /* \"#utility.yul\":19984:19990   */\n      dup5\n        /* \"#utility.yul\":19979:19982   */\n      dup5\n        /* \"#utility.yul\":19975:19991   */\n      add\n        /* \"#utility.yul\":19968:19995   */\n      mstore\n        /* \"#utility.yul\":19904:19906   */\n    tag_436:\n        /* \"#utility.yul\":19753:20011   */\n      pop\n      pop\n      pop\n      pop\n      jump\t// out\n        /* \"#utility.yul\":20017:20337   */\n    tag_88:\n        /* \"#utility.yul\":20061:20067   */\n      0x00\n        /* \"#utility.yul\":20098:20099   */\n      0x02\n        /* \"#utility.yul\":20092:20096   */\n      dup3\n        /* \"#utility.yul\":20088:20100   */\n      div\n        /* \"#utility.yul\":20078:20100   */\n      swap1\n      pop\n        /* \"#utility.yul\":20145:20146   */\n      0x01\n        /* \"#utility.yul\":20139:20143   */\n      dup3\n        /* \"#utility.yul\":20135:20147   */\n      and\n        /* \"#utility.yul\":20166:20184   */\n      dup1\n        /* \"#utility.yul\":20156:20158   */\n      tag_438\n      jumpi\n        /* \"#utility.yul\":20222:20226   */\n      0x7f\n        /* \"#utility.yul\":20214:20220   */\n      dup3\n        /* \"#utility.yul\":20210:20227   */\n      and\n        /* \"#utility.yul\":20200:20227   */\n      swap2\n      pop\n        /* \"#utility.yul\":20156:20158   */\n    tag_438:\n        /* \"#utility.yul\":20284:20286   */\n      0x20\n        /* \"#utility.yul\":20276:20282   */\n      dup3\n        /* \"#utility.yul\":20273:20287   */\n      lt\n        /* \"#utility.yul\":20253:20271   */\n      dup2\n        /* \"#utility.yul\":20250:20288   */\n      eq\n        /* \"#utility.yul\":20247:20249   */\n      iszero\n      tag_439\n      jumpi\n        /* \"#utility.yul\":20303:20321   */\n      tag_440\n      tag_441\n      jump\t// in\n    tag_440:\n        /* \"#utility.yul\":20247:20249   */\n    tag_439:\n        /* \"#utility.yul\":20068:20337   */\n      pop\n      swap2\n      swap1\n      pop\n      jump\t// out\n        /* \"#utility.yul\":20343:20624   */\n    tag_400:\n        /* \"#utility.yul\":20426:20453   */\n      tag_443\n        /* \"#utility.yul\":20448:20452   */\n      dup3\n        /* \"#utility.yul\":20426:20453   */\n      tag_285\n      jump\t// in\n    tag_443:\n        /* \"#utility.yul\":20418:20424   */\n      dup2\n        /* \"#utility.yul\":20414:20454   */\n      add\n        /* \"#utility.yul\":20556:20562   */\n      dup2\n        /* \"#utility.yul\":20544:20554   */\n      dup2\n        /* \"#utility.yul\":20541:20563   */\n      lt\n        /* \"#utility.yul\":20520:20538   */\n      0xffffffffffffffff\n        /* \"#utility.yul\":20508:20518   */\n      dup3\n        /* \"#utility.yul\":20505:20539   */\n      gt\n        /* \"#utility.yul\":20502:20564   */\n      or\n        /* \"#utility.yul\":20499:20501   */\n      iszero\n      tag_444\n      jumpi\n        /* \"#utility.yul\":20567:20585   */\n      tag_445\n      tag_405\n      jump\t// in\n    tag_445:\n        /* \"#utility.yul\":20499:20501   */\n    tag_444:\n        /* \"#utility.yul\":20607:20617   */\n      dup1\n        /* \"#utility.yul\":20603:20605   */\n      0x40\n        /* \"#utility.yul\":20596:20618   */\n      mstore\n        /* \"#utility.yul\":20386:20624   */\n      pop\n      pop\n      pop\n      jump\t// out\n        /* \"#utility.yul\":20630:20810   */\n    tag_417:\n        /* \"#utility.yul\":20678:20755   */\n      0x4e487b7100000000000000000000000000000000000000000000000000000000\n        /* \"#utility.yul\":20675:20676   */\n      0x00\n        /* \"#utility.yul\":20668:20756   */\n      mstore\n        /* \"#utility.yul\":20775:20779   */\n      0x11\n        /* \"#utility.yul\":20772:20773   */\n      0x04\n        /* \"#utility.yul\":20765:20780   */\n      mstore\n        /* \"#utility.yul\":20799:20803   */\n      0x24\n        /* \"#utility.yul\":20796:20797   */\n      0x00\n        /* \"#utility.yul\":20789:20804   */\n      revert\n        /* \"#utility.yul\":20816:20996   */\n    tag_441:\n        /* \"#utility.yul\":20864:20941   */\n      0x4e487b7100000000000000000000000000000000000000000000000000000000\n        /* \"#utility.yul\":20861:20862   */\n      0x00\n        /* \"#utility.yul\":20854:20942   */\n      mstore\n        /* \"#utility.yul\":20961:20965   */\n      0x22\n        /* \"#utility.yul\":20958:20959   */\n      0x04\n        /* \"#utility.yul\":20951:20966   */\n      mstore\n        /* \"#utility.yul\":20985:20989   */\n      0x24\n        /* \"#utility.yul\":20982:20983   */\n      0x00\n        /* \"#utility.yul\":20975:20990   */\n      revert\n        /* \"#utility.yul\":21002:21182   */\n    tag_405:\n        /* \"#utility.yul\":21050:21127   */\n      0x4e487b7100000000000000000000000000000000000000000000000000000000\n        /* \"#utility.yul\":21047:21048   */\n      0x00\n        /* \"#utility.yul\":21040:21128   */\n      mstore\n        /* \"#utility.yul\":21147:21151   */\n      0x41\n        /* \"#utility.yul\":21144:21145   */\n      0x04\n        /* \"#utility.yul\":21137:21152   */\n      mstore\n        /* \"#utility.yul\":21171:21175   */\n      0x24\n        /* \"#utility.yul\":21168:21169   */\n      0x00\n        /* \"#utility.yul\":21161:21176   */\n      revert\n        /* \"#utility.yul\":21188:21290   */\n    tag_285:\n        /* \"#utility.yul\":21229:21235   */\n      0x00\n        /* \"#utility.yul\":21280:21282   */\n      0x1f\n        /* \"#utility.yul\":21276:21283   */\n      not\n        /* \"#utility.yul\":21271:21273   */\n      0x1f\n        /* \"#utility.yul\":21264:21269   */\n      dup4\n        /* \"#utility.yul\":21260:21274   */\n      add\n        /* \"#utility.yul\":21256:21284   */\n      and\n        /* \"#utility.yul\":21246:21284   */\n      swap1\n      pop\n        /* \"#utility.yul\":21236:21290   */\n      swap2\n      swap1\n      pop\n      jump\t// out\n        /* \"#utility.yul\":21296:21466   */\n    tag_304:\n        /* \"#utility.yul\":21436:21458   */\n      0x746f6b656e4964206f7574206f662072616e6765000000000000000000000000\n        /* \"#utility.yul\":21432:21433   */\n      0x00\n        /* \"#utility.yul\":21424:21430   */\n      dup3\n        /* \"#utility.yul\":21420:21434   */\n      add\n        /* \"#utility.yul\":21413:21459   */\n      mstore\n        /* \"#utility.yul\":21402:21466   */\n      pop\n      jump\t// out\n        /* \"#utility.yul\":21472:21644   */\n    tag_309:\n        /* \"#utility.yul\":21612:21636   */\n      0x6e6f74206f776e6572206e6f7220617070726f76656400000000000000000000\n        /* \"#utility.yul\":21608:21609   */\n      0x00\n        /* \"#utility.yul\":21600:21606   */\n      dup3\n        /* \"#utility.yul\":21596:21610   */\n      add\n        /* \"#utility.yul\":21589:21637   */\n      mstore\n        /* \"#utility.yul\":21578:21644   */\n      pop\n      jump\t// out\n        /* \"#utility.yul\":21650:21828   */\n    tag_314:\n        /* \"#utility.yul\":21790:21820   */\n      0x7472616e7366657220746f20746865207a65726f206164647265737300000000\n        /* \"#utility.yul\":21786:21787   */\n      0x00\n        /* \"#utility.yul\":21778:21784   */\n      dup3\n        /* \"#utility.yul\":21774:21788   */\n      add\n        /* \"#utility.yul\":21767:21821   */\n      mstore\n        /* \"#utility.yul\":21756:21828   */\n      pop\n      jump\t// out\n        /* \"#utility.yul\":21834:22014   */\n    tag_319:\n        /* \"#utility.yul\":21974:22006   */\n      0x6e6f74206f776e6572206e6f7220617070726f76656420666f7220616c6c0000\n        /* \"#utility.yul\":21970:21971   */\n      0x00\n        /* \"#utility.yul\":21962:21968   */\n      dup3\n        /* \"#utility.yul\":21958:21972   */\n      add\n        /* \"#utility.yul\":21951:22007   */\n      mstore\n        /* \"#utility.yul\":21940:22014   */\n      pop\n      jump\t// out\n        /* \"#utility.yul\":22020:22190   */\n    tag_324:\n        /* \"#utility.yul\":22160:22182   */\n      0x6d696e7420746f207a65726f2061646472657373000000000000000000000000\n        /* \"#utility.yul\":22156:22157   */\n      0x00\n        /* \"#utility.yul\":22148:22154   */\n      dup3\n        /* \"#utility.yul\":22144:22158   */\n      add\n        /* \"#utility.yul\":22137:22183   */\n      mstore\n        /* \"#utility.yul\":22126:22190   */\n      pop\n      jump\t// out\n        /* \"#utility.yul\":22196:22365   */\n    tag_329:\n        /* \"#utility.yul\":22336:22357   */\n      0x746f6b656e20646f65736e277420657869737400000000000000000000000000\n        /* \"#utility.yul\":22332:22333   */\n      0x00\n        /* \"#utility.yul\":22324:22330   */\n      dup3\n        /* \"#utility.yul\":22320:22334   */\n      add\n        /* \"#utility.yul\":22313:22358   */\n      mstore\n        /* \"#utility.yul\":22302:22365   */\n      pop\n      jump\t// out\n        /* \"#utility.yul\":22371:22541   */\n    tag_334:\n        /* \"#utility.yul\":22511:22533   */\n      0x6f776e6572203d207a65726f2061646472657373000000000000000000000000\n        /* \"#utility.yul\":22507:22508   */\n      0x00\n        /* \"#utility.yul\":22499:22505   */\n      dup3\n        /* \"#utility.yul\":22495:22509   */\n      add\n        /* \"#utility.yul\":22488:22534   */\n      mstore\n        /* \"#utility.yul\":22477:22541   */\n      pop\n      jump\t// out\n        /* \"#utility.yul\":22547:22712   */\n    tag_339:\n        /* \"#utility.yul\":22687:22704   */\n      0x546f6b656e204e6f742045786973740000000000000000000000000000000000\n        /* \"#utility.yul\":22683:22684   */\n      0x00\n        /* \"#utility.yul\":22675:22681   */\n      dup3\n        /* \"#utility.yul\":22671:22685   */\n      add\n        /* \"#utility.yul\":22664:22705   */\n      mstore\n        /* \"#utility.yul\":22653:22712   */\n      pop\n      jump\t// out\n        /* \"#utility.yul\":22718:22888   */\n    tag_344:\n        /* \"#utility.yul\":22858:22880   */\n      0x746f6b656e20616c7265616479206d696e746564000000000000000000000000\n        /* \"#utility.yul\":22854:22855   */\n      0x00\n        /* \"#utility.yul\":22846:22852   */\n      dup3\n        /* \"#utility.yul\":22842:22856   */\n      add\n        /* \"#utility.yul\":22835:22881   */\n      mstore\n        /* \"#utility.yul\":22824:22888   */\n      pop\n      jump\t// out\n        /* \"#utility.yul\":22894:23062   */\n    tag_349:\n        /* \"#utility.yul\":23034:23054   */\n      0x6e6f742045524337323152656365697665720000000000000000000000000000\n        /* \"#utility.yul\":23030:23031   */\n      0x00\n        /* \"#utility.yul\":23022:23028   */\n      dup3\n        /* \"#utility.yul\":23018:23032   */\n      add\n        /* \"#utility.yul\":23011:23055   */\n      mstore\n        /* \"#utility.yul\":23000:23062   */\n      pop\n      jump\t// out\n        /* \"#utility.yul\":23068:23227   */\n    tag_354:\n        /* \"#utility.yul\":23208:23219   */\n      0x6e6f74206f776e65720000000000000000000000000000000000000000000000\n        /* \"#utility.yul\":23204:23205   */\n      0x00\n        /* \"#utility.yul\":23196:23202   */\n      dup3\n        /* \"#utility.yul\":23192:23206   */\n      add\n        /* \"#utility.yul\":23185:23220   */\n      mstore\n        /* \"#utility.yul\":23174:23227   */\n      pop\n      jump\t// out\n        /* \"#utility.yul\":23233:23355   */\n    tag_212:\n        /* \"#utility.yul\":23306:23330   */\n      tag_462\n        /* \"#utility.yul\":23324:23329   */\n      dup2\n        /* \"#utility.yul\":23306:23330   */\n      tag_271\n      jump\t// in\n    tag_462:\n        /* \"#utility.yul\":23299:23304   */\n      dup2\n        /* \"#utility.yul\":23296:23331   */\n      eq\n        /* \"#utility.yul\":23286:23288   */\n      tag_463\n      jumpi\n        /* \"#utility.yul\":23345:23346   */\n      0x00\n        /* \"#utility.yul\":23342:23343   */\n      dup1\n        /* \"#utility.yul\":23335:23347   */\n      revert\n        /* \"#utility.yul\":23286:23288   */\n    tag_463:\n        /* \"#utility.yul\":23276:23355   */\n      pop\n      jump\t// out\n        /* \"#utility.yul\":23361:23477   */\n    tag_216:\n        /* \"#utility.yul\":23431:23452   */\n      tag_465\n        /* \"#utility.yul\":23446:23451   */\n      dup2\n        /* \"#utility.yul\":23431:23452   */\n      tag_275\n      jump\t// in\n    tag_465:\n        /* \"#utility.yul\":23424:23429   */\n      dup2\n        /* \"#utility.yul\":23421:23453   */\n      eq\n        /* \"#utility.yul\":23411:23413   */\n      tag_466\n      jumpi\n        /* \"#utility.yul\":23467:23468   */\n      0x00\n        /* \"#utility.yul\":23464:23465   */\n      dup1\n        /* \"#utility.yul\":23457:23469   */\n      revert\n        /* \"#utility.yul\":23411:23413   */\n    tag_466:\n        /* \"#utility.yul\":23401:23477   */\n      pop\n      jump\t// out\n        /* \"#utility.yul\":23483:23603   */\n    tag_220:\n        /* \"#utility.yul\":23555:23578   */\n      tag_468\n        /* \"#utility.yul\":23572:23577   */\n      dup2\n        /* \"#utility.yul\":23555:23578   */\n      tag_427\n      jump\t// in\n    tag_468:\n        /* \"#utility.yul\":23548:23553   */\n      dup2\n        /* \"#utility.yul\":23545:23579   */\n      eq\n        /* \"#utility.yul\":23535:23537   */\n      tag_469\n      jumpi\n        /* \"#utility.yul\":23593:23594   */\n      0x00\n        /* \"#utility.yul\":23590:23591   */\n      dup1\n        /* \"#utility.yul\":23583:23595   */\n      revert\n        /* \"#utility.yul\":23535:23537   */\n    tag_469:\n        /* \"#utility.yul\":23525:23603   */\n      pop\n      jump\t// out\n        /* \"#utility.yul\":23609:23731   */\n    tag_231:\n        /* \"#utility.yul\":23682:23706   */\n      tag_471\n        /* \"#utility.yul\":23700:23705   */\n      dup2\n        /* \"#utility.yul\":23682:23706   */\n      tag_358\n      jump\t// in\n    tag_471:\n        /* \"#utility.yul\":23675:23680   */\n      dup2\n        /* \"#utility.yul\":23672:23707   */\n      eq\n        /* \"#utility.yul\":23662:23664   */\n      tag_472\n      jumpi\n        /* \"#utility.yul\":23721:23722   */\n      0x00\n        /* \"#utility.yul\":23718:23719   */\n      dup1\n        /* \"#utility.yul\":23711:23723   */\n      revert\n        /* \"#utility.yul\":23662:23664   */\n    tag_472:\n        /* \"#utility.yul\":23652:23731   */\n      pop\n      jump\t// out\n    stop\n    data_8d6a7f2c994761469c8f64f9407d3704e2dc9f2ea919b9fa50afe2f79bcd7cd3 68747470733a2f2f766f6964746563682e636e2f692f323032322f31312f32302f6e776a7637742e6a706567\n\n    auxdata: 0xa2646970667358221220befdb00827f5e501598f92ee2964d8665252310c49b27e3c458b3e4f324f6c2964736f6c63430008040033\n}\n",
				"bytecode": {
					"linkReferences": {},
					"object": "608060405260646006553480156200001657600080fd5b50604051620025383803806200253883398181016040528101906200003c91906200019c565b81818160009080519060200190620000569291906200007a565b5080600190805190602001906200006f9291906200007a565b50505050506200037f565b8280546200008890620002a4565b90600052602060002090601f016020900481019282620000ac5760008555620000f8565b82601f10620000c757805160ff1916838001178555620000f8565b82800160010185558215620000f8579182015b82811115620000f7578251825591602001919060010190620000da565b5b5090506200010791906200010b565b5090565b5b80821115620001265760008160009055506001016200010c565b5090565b6000620001416200013b8462000238565b6200020f565b9050828152602081018484840111156200015a57600080fd5b620001678482856200026e565b509392505050565b600082601f8301126200018157600080fd5b8151620001938482602086016200012a565b91505092915050565b60008060408385031215620001b057600080fd5b600083015167ffffffffffffffff811115620001cb57600080fd5b620001d9858286016200016f565b925050602083015167ffffffffffffffff811115620001f757600080fd5b62000205858286016200016f565b9150509250929050565b60006200021b6200022e565b9050620002298282620002da565b919050565b6000604051905090565b600067ffffffffffffffff8211156200025657620002556200033f565b5b62000261826200036e565b9050602081019050919050565b60005b838110156200028e57808201518184015260208101905062000271565b838111156200029e576000848401525b50505050565b60006002820490506001821680620002bd57607f821691505b60208210811415620002d457620002d362000310565b5b50919050565b620002e5826200036e565b810181811067ffffffffffffffff821117156200030757620003066200033f565b5b80604052505050565b7f4e487b7100000000000000000000000000000000000000000000000000000000600052602260045260246000fd5b7f4e487b7100000000000000000000000000000000000000000000000000000000600052604160045260246000fd5b6000601f19601f8301169050919050565b6121a9806200038f6000396000f3fe608060405234801561001057600080fd5b50600436106100f55760003560e01c80636352211e11610097578063b1a3a69511610066578063b1a3a69514610282578063b88d4fde146102a0578063c87b56dd146102bc578063e985e9c5146102ec576100f5565b80636352211e146101e857806370a082311461021857806395d89b4114610248578063a22cb46514610266576100f5565b8063095ea7b3116100d3578063095ea7b31461017857806323b872dd1461019457806340c10f19146101b057806342842e0e146101cc576100f5565b806301ffc9a7146100fa57806306fdde031461012a578063081812fc14610148575b600080fd5b610114600480360381019061010f919061174c565b61031c565b6040516101219190611a96565b60405180910390f35b610132610456565b60405161013f9190611ab1565b60405180910390f35b610162600480360381019061015d919061179e565b6104e4565b60405161016f9190611a2f565b60405180910390f35b610192600480360381019061018d9190611710565b6105c3565b005b6101ae60048036038101906101a9919061160a565b61070a565b005b6101ca60048036038101906101c59190611710565b610773565b005b6101e660048036038101906101e1919061160a565b6107d2565b005b61020260048036038101906101fd919061179e565b6107f2565b60405161020f9190611a2f565b60405180910390f35b610232600480360381019061022d91906115a5565b61089f565b60405161023f9190611c33565b60405180910390f35b610250610957565b60405161025d9190611ab1565b60405180910390f35b610280600480360381019061027b91906116d4565b6109e5565b005b61028a610ae2565b6040516102979190611c33565b60405180910390f35b6102ba60048036038101906102b59190611659565b610ae8565b005b6102d660048036038101906102d1919061179e565b610b53565b6040516102e39190611ab1565b60405180910390f35b610306600480360381019061030191906115ce565b610c4b565b6040516103139190611a96565b60405180910390f35b60007f80ac58cd000000000000000000000000000000000000000000000000000000007bffffffffffffffffffffffffffffffffffffffffffffffffffffffff1916827bffffffffffffffffffffffffffffffffffffffffffffffffffffffff191614806103e757507f01ffc9a7000000000000000000000000000000000000000000000000000000007bffffffffffffffffffffffffffffffffffffffffffffffffffffffff1916827bffffffffffffffffffffffffffffffffffffffffffffffffffffffff1916145b8061044f57507f5b5e139f000000000000000000000000000000000000000000000000000000007bffffffffffffffffffffffffffffffffffffffffffffffffffffffff1916827bffffffffffffffffffffffffffffffffffffffffffffffffffffffff1916145b9050919050565b6000805461046390611e27565b80601f016020809104026020016040519081016040528092919081815260200182805461048f90611e27565b80156104dc5780601f106104b1576101008083540402835291602001916104dc565b820191906000526020600020905b8154815290600101906020018083116104bf57829003601f168201915b505050505081565b60008073ffffffffffffffffffffffffffffffffffffffff166002600084815260200190815260200160002060009054906101000a900473ffffffffffffffffffffffffffffffffffffffff1673ffffffffffffffffffffffffffffffffffffffff161415610588576040517f08c379a000000000000000000000000000000000000000000000000000000000815260040161057f90611b73565b60405180910390fd5b6004600083815260200190815260200160002060009054906101000a900473ffffffffffffffffffffffffffffffffffffffff169050919050565b60006002600083815260200190815260200160002060009054906101000a900473ffffffffffffffffffffffffffffffffffffffff1690508073ffffffffffffffffffffffffffffffffffffffff163373ffffffffffffffffffffffffffffffffffffffff1614806106bb5750600560008273ffffffffffffffffffffffffffffffffffffffff1673ffffffffffffffffffffffffffffffffffffffff16815260200190815260200160002060003373ffffffffffffffffffffffffffffffffffffffff1673ffffffffffffffffffffffffffffffffffffffff16815260200190815260200160002060009054906101000a900460ff165b6106fa576040517f08c379a00000000000000000000000000000000000000000000000000000000081526004016106f190611b33565b60405180910390fd5b610705818484610cdf565b505050565b6000610715826107f2565b9050610722813384610d91565b610761576040517f08c379a000000000000000000000000000000000000000000000000000000000815260040161075890611af3565b60405180910390fd5b61076d81858585610ec5565b50505050565b60008110158015610785575060065481105b6107c4576040517f08c379a00000000000000000000000000000000000000000000000000000000081526004016107bb90611ad3565b60405180910390fd5b6107ce8282611110565b5050565b6107ed83838360405180602001604052806000815250610ae8565b505050565b60006002600083815260200190815260200160002060009054906101000a900473ffffffffffffffffffffffffffffffffffffffff169050600073ffffffffffffffffffffffffffffffffffffffff168173ffffffffffffffffffffffffffffffffffffffff16141561089a576040517f08c379a000000000000000000000000000000000000000000000000000000000815260040161089190611b73565b60405180910390fd5b919050565b60008073ffffffffffffffffffffffffffffffffffffffff168273ffffffffffffffffffffffffffffffffffffffff161415610910576040517f08c379a000000000000000000000000000000000000000000000000000000000815260040161090790611b93565b60405180910390fd5b600360008373ffffffffffffffffffffffffffffffffffffffff1673ffffffffffffffffffffffffffffffffffffffff168152602001908152602001600020549050919050565b6001805461096490611e27565b80601f016020809104026020016040519081016040528092919081815260200182805461099090611e27565b80156109dd5780601f106109b2576101008083540402835291602001916109dd565b820191906000526020600020905b8154815290600101906020018083116109c057829003601f168201915b505050505081565b80600560003373ffffffffffffffffffffffffffffffffffffffff1673ffffffffffffffffffffffffffffffffffffffff16815260200190815260200160002060008473ffffffffffffffffffffffffffffffffffffffff1673ffffffffffffffffffffffffffffffffffffffff16815260200190815260200160002060006101000a81548160ff0219169083151502179055508173ffffffffffffffffffffffffffffffffffffffff163373ffffffffffffffffffffffffffffffffffffffff167f17307eab39ab6107e8899845ad3d59bd9653f200f220920489ca2b5937696c3183604051610ad69190611a96565b60405180910390a35050565b60065481565b6000610af3836107f2565b9050610b00813385610d91565b610b3f576040517f08c379a0000000000000000000000000000000000000000000000000000000008152600401610b3690611af3565b60405180910390fd5b610b4c818686868661132b565b5050505050565b6060600073ffffffffffffffffffffffffffffffffffffffff166002600084815260200190815260200160002060009054906101000a900473ffffffffffffffffffffffffffffffffffffffff1673ffffffffffffffffffffffffffffffffffffffff161415610bf8576040517f08c379a0000000000000000000000000000000000000000000000000000000008152600401610bef90611bb3565b60405180910390fd5b6000610c02611389565b90506000815111610c225760405180602001604052806000815250610c43565b80604051602001610c339190611a18565b6040516020818303038152906040525b915050919050565b6000600560008473ffffffffffffffffffffffffffffffffffffffff1673ffffffffffffffffffffffffffffffffffffffff16815260200190815260200160002060008373ffffffffffffffffffffffffffffffffffffffff1673ffffffffffffffffffffffffffffffffffffffff16815260200190815260200160002060009054906101000a900460ff16905092915050565b816004600083815260200190815260200160002060006101000a81548173ffffffffffffffffffffffffffffffffffffffff021916908373ffffffffffffffffffffffffffffffffffffffff160217905550808273ffffffffffffffffffffffffffffffffffffffff168473ffffffffffffffffffffffffffffffffffffffff167f8c5be1e5ebec7d5bd14f71427d1e84f3dd0314c0f7b2291e5b200ac8c7c3b92560405160405180910390a4505050565b60008373ffffffffffffffffffffffffffffffffffffffff168373ffffffffffffffffffffffffffffffffffffffff161480610e2b57508273ffffffffffffffffffffffffffffffffffffffff166004600084815260200190815260200160002060009054906101000a900473ffffffffffffffffffffffffffffffffffffffff1673ffffffffffffffffffffffffffffffffffffffff16145b80610ebc5750600560008573ffffffffffffffffffffffffffffffffffffffff1673ffffffffffffffffffffffffffffffffffffffff16815260200190815260200160002060008473ffffffffffffffffffffffffffffffffffffffff1673ffffffffffffffffffffffffffffffffffffffff16815260200190815260200160002060009054906101000a900460ff165b90509392505050565b8373ffffffffffffffffffffffffffffffffffffffff168373ffffffffffffffffffffffffffffffffffffffff1614610f33576040517f08c379a0000000000000000000000000000000000000000000000000000000008152600401610f2a90611c13565b60405180910390fd5b600073ffffffffffffffffffffffffffffffffffffffff168273ffffffffffffffffffffffffffffffffffffffff161415610fa3576040517f08c379a0000000000000000000000000000000000000000000000000000000008152600401610f9a90611b13565b60405180910390fd5b610faf84600083610cdf565b6001600360008573ffffffffffffffffffffffffffffffffffffffff1673ffffffffffffffffffffffffffffffffffffffff1681526020019081526020016000206000828254610fff9190611d3d565b925050819055506001600360008473ffffffffffffffffffffffffffffffffffffffff1673ffffffffffffffffffffffffffffffffffffffff16815260200190815260200160002060008282546110569190611ce7565b92505081905550816002600083815260200190815260200160002060006101000a81548173ffffffffffffffffffffffffffffffffffffffff021916908373ffffffffffffffffffffffffffffffffffffffff160217905550808273ffffffffffffffffffffffffffffffffffffffff168473ffffffffffffffffffffffffffffffffffffffff167fddf252ad1be2c89b69c2b068fc378daa952ba7f163c4a11628f55a4df523b3ef60405160405180910390a450505050565b600073ffffffffffffffffffffffffffffffffffffffff168273ffffffffffffffffffffffffffffffffffffffff161415611180576040517f08c379a000000000000000000000000000000000000000000000000000000000815260040161117790611b53565b60405180910390fd5b600073ffffffffffffffffffffffffffffffffffffffff166002600083815260200190815260200160002060009054906101000a900473ffffffffffffffffffffffffffffffffffffffff1673ffffffffffffffffffffffffffffffffffffffff1614611222576040517f08c379a000000000000000000000000000000000000000000000000000000000815260040161121990611bd3565b60405180910390fd5b6001600360008473ffffffffffffffffffffffffffffffffffffffff1673ffffffffffffffffffffffffffffffffffffffff16815260200190815260200160002060008282546112729190611ce7565b92505081905550816002600083815260200190815260200160002060006101000a81548173ffffffffffffffffffffffffffffffffffffffff021916908373ffffffffffffffffffffffffffffffffffffffff160217905550808273ffffffffffffffffffffffffffffffffffffffff16600073ffffffffffffffffffffffffffffffffffffffff167fddf252ad1be2c89b69c2b068fc378daa952ba7f163c4a11628f55a4df523b3ef60405160405180910390a45050565b61133785858585610ec5565b611343848484846113a9565b611382576040517f08c379a000000000000000000000000000000000000000000000000000000000815260040161137990611bf3565b60405180910390fd5b5050505050565b60606040518060600160405280602c8152602001612148602c9139905090565b60006113ca8473ffffffffffffffffffffffffffffffffffffffff166114c1565b156114b45760008473ffffffffffffffffffffffffffffffffffffffff1663150b7a02338887876040518563ffffffff1660e01b81526004016114109493929190611a4a565b602060405180830381600087803b15801561142a57600080fd5b505af115801561143e573d6000803e3d6000fd5b505050506040513d601f19601f820116820180604052508101906114629190611775565b905063150b7a0260e01b7bffffffffffffffffffffffffffffffffffffffffffffffffffffffff1916817bffffffffffffffffffffffffffffffffffffffffffffffffffffffff1916149150506114b9565b600190505b949350505050565b600080823b905060008111915050919050565b60006114e76114e284611c73565b611c4e565b9050828152602081018484840111156114ff57600080fd5b61150a848285611de5565b509392505050565b600081359050611521816120eb565b92915050565b60008135905061153681612102565b92915050565b60008135905061154b81612119565b92915050565b60008151905061156081612119565b92915050565b600082601f83011261157757600080fd5b81356115878482602086016114d4565b91505092915050565b60008135905061159f81612130565b92915050565b6000602082840312156115b757600080fd5b60006115c584828501611512565b91505092915050565b600080604083850312156115e157600080fd5b60006115ef85828601611512565b925050602061160085828601611512565b9150509250929050565b60008060006060848603121561161f57600080fd5b600061162d86828701611512565b935050602061163e86828701611512565b925050604061164f86828701611590565b9150509250925092565b6000806000806080858703121561166f57600080fd5b600061167d87828801611512565b945050602061168e87828801611512565b935050604061169f87828801611590565b925050606085013567ffffffffffffffff8111156116bc57600080fd5b6116c887828801611566565b91505092959194509250565b600080604083850312156116e757600080fd5b60006116f585828601611512565b925050602061170685828601611527565b9150509250929050565b6000806040838503121561172357600080fd5b600061173185828601611512565b925050602061174285828601611590565b9150509250929050565b60006020828403121561175e57600080fd5b600061176c8482850161153c565b91505092915050565b60006020828403121561178757600080fd5b600061179584828501611551565b91505092915050565b6000602082840312156117b057600080fd5b60006117be84828501611590565b91505092915050565b6117d081611d71565b82525050565b6117df81611d83565b82525050565b60006117f082611ca4565b6117fa8185611cba565b935061180a818560208601611df4565b61181381611f17565b840191505092915050565b600061182982611caf565b6118338185611ccb565b9350611843818560208601611df4565b61184c81611f17565b840191505092915050565b600061186282611caf565b61186c8185611cdc565b935061187c818560208601611df4565b80840191505092915050565b6000611895601483611ccb565b91506118a082611f28565b602082019050919050565b60006118b8601683611ccb565b91506118c382611f51565b602082019050919050565b60006118db601c83611ccb565b91506118e682611f7a565b602082019050919050565b60006118fe601e83611ccb565b915061190982611fa3565b602082019050919050565b6000611921601483611ccb565b915061192c82611fcc565b602082019050919050565b6000611944601383611ccb565b915061194f82611ff5565b602082019050919050565b6000611967601483611ccb565b91506119728261201e565b602082019050919050565b600061198a600f83611ccb565b915061199582612047565b602082019050919050565b60006119ad601483611ccb565b91506119b882612070565b602082019050919050565b60006119d0601283611ccb565b91506119db82612099565b602082019050919050565b60006119f3600983611ccb565b91506119fe826120c2565b602082019050919050565b611a1281611ddb565b82525050565b6000611a248284611857565b915081905092915050565b6000602082019050611a4460008301846117c7565b92915050565b6000608082019050611a5f60008301876117c7565b611a6c60208301866117c7565b611a796040830185611a09565b8181036060830152611a8b81846117e5565b905095945050505050565b6000602082019050611aab60008301846117d6565b92915050565b60006020820190508181036000830152611acb818461181e565b905092915050565b60006020820190508181036000830152611aec81611888565b9050919050565b60006020820190508181036000830152611b0c816118ab565b9050919050565b60006020820190508181036000830152611b2c816118ce565b9050919050565b60006020820190508181036000830152611b4c816118f1565b9050919050565b60006020820190508181036000830152611b6c81611914565b9050919050565b60006020820190508181036000830152611b8c81611937565b9050919050565b60006020820190508181036000830152611bac8161195a565b9050919050565b60006020820190508181036000830152611bcc8161197d565b9050919050565b60006020820190508181036000830152611bec816119a0565b9050919050565b60006020820190508181036000830152611c0c816119c3565b9050919050565b60006020820190508181036000830152611c2c816119e6565b9050919050565b6000602082019050611c486000830184611a09565b92915050565b6000611c58611c69565b9050611c648282611e59565b919050565b6000604051905090565b600067ffffffffffffffff821115611c8e57611c8d611ee8565b5b611c9782611f17565b9050602081019050919050565b600081519050919050565b600081519050919050565b600082825260208201905092915050565b600082825260208201905092915050565b600081905092915050565b6000611cf282611ddb565b9150611cfd83611ddb565b9250827fffffffffffffffffffffffffffffffffffffffffffffffffffffffffffffffff03821115611d3257611d31611e8a565b5b828201905092915050565b6000611d4882611ddb565b9150611d5383611ddb565b925082821015611d6657611d65611e8a565b5b828203905092915050565b6000611d7c82611dbb565b9050919050565b60008115159050919050565b60007fffffffff0000000000000000000000000000000000000000000000000000000082169050919050565b600073ffffffffffffffffffffffffffffffffffffffff82169050919050565b6000819050919050565b82818337600083830152505050565b60005b83811015611e12578082015181840152602081019050611df7565b83811115611e21576000848401525b50505050565b60006002820490506001821680611e3f57607f821691505b60208210811415611e5357611e52611eb9565b5b50919050565b611e6282611f17565b810181811067ffffffffffffffff82111715611e8157611e80611ee8565b5b80604052505050565b7f4e487b7100000000000000000000000000000000000000000000000000000000600052601160045260246000fd5b7f4e487b7100000000000000000000000000000000000000000000000000000000600052602260045260246000fd5b7f4e487b7100000000000000000000000000000000000000000000000000000000600052604160045260246000fd5b6000601f19601f8301169050919050565b7f746f6b656e4964206f7574206f662072616e6765000000000000000000000000600082015250565b7f6e6f74206f776e6572206e6f7220617070726f76656400000000000000000000600082015250565b7f7472616e7366657220746f20746865207a65726f206164647265737300000000600082015250565b7f6e6f74206f776e6572206e6f7220617070726f76656420666f7220616c6c0000600082015250565b7f6d696e7420746f207a65726f2061646472657373000000000000000000000000600082015250565b7f746f6b656e20646f65736e277420657869737400000000000000000000000000600082015250565b7f6f776e6572203d207a65726f2061646472657373000000000000000000000000600082015250565b7f546f6b656e204e6f742045786973740000000000000000000000000000000000600082015250565b7f746f6b656e20616c7265616479206d696e746564000000000000000000000000600082015250565b7f6e6f742045524337323152656365697665720000000000000000000000000000600082015250565b7f6e6f74206f776e65720000000000000000000000000000000000000000000000600082015250565b6120f481611d71565b81146120ff57600080fd5b50565b61210b81611d83565b811461211657600080fd5b50565b61212281611d8f565b811461212d57600080fd5b50565b61213981611ddb565b811461214457600080fd5b5056fe68747470733a2f2f766f6964746563682e636e2f692f323032322f31312f32302f6e776a7637742e6a706567a2646970667358221220befdb00827f5e501598f92ee2964d8665252310c49b27e3c458b3e4f324f6c2964736f6c63430008040033",
					"opcodes": "PUSH1 0x80 PUSH1 0x40 MSTORE PUSH1 0x64 PUSH1 0x6 SSTORE CALLVALUE DUP1 ISZERO PUSH3 0x16 JUMPI PUSH1 0x0 DUP1 REVERT JUMPDEST POP PUSH1 0x40 MLOAD PUSH3 0x2538 CODESIZE SUB DUP1 PUSH3 0x2538 DUP4 CODECOPY DUP2 DUP2 ADD PUSH1 0x40 MSTORE DUP2 ADD SWAP1 PUSH3 0x3C SWAP2 SWAP1 PUSH3 0x19C JUMP JUMPDEST DUP2 DUP2 DUP2 PUSH1 0x0 SWAP1 DUP1 MLOAD SWAP1 PUSH1 0x20 ADD SWAP1 PUSH3 0x56 SWAP3 SWAP2 SWAP1 PUSH3 0x7A JUMP JUMPDEST POP DUP1 PUSH1 0x1 SWAP1 DUP1 MLOAD SWAP1 PUSH1 0x20 ADD SWAP1 PUSH3 0x6F SWAP3 SWAP2 SWAP1 PUSH3 0x7A JUMP JUMPDEST POP POP POP POP POP PUSH3 0x37F JUMP JUMPDEST DUP3 DUP1 SLOAD PUSH3 0x88 SWAP1 PUSH3 0x2A4 JUMP JUMPDEST SWAP1 PUSH1 0x0 MSTORE PUSH1 0x20 PUSH1 0x0 KECCAK256 SWAP1 PUSH1 0x1F ADD PUSH1 0x20 SWAP1 DIV DUP2 ADD SWAP3 DUP3 PUSH3 0xAC JUMPI PUSH1 0x0 DUP6 SSTORE PUSH3 0xF8 JUMP JUMPDEST DUP3 PUSH1 0x1F LT PUSH3 0xC7 JUMPI DUP1 MLOAD PUSH1 0xFF NOT AND DUP4 DUP1 ADD OR DUP6 SSTORE PUSH3 0xF8 JUMP JUMPDEST DUP3 DUP1 ADD PUSH1 0x1 ADD DUP6 SSTORE DUP3 ISZERO PUSH3 0xF8 JUMPI SWAP2 DUP3 ADD JUMPDEST DUP3 DUP2 GT ISZERO PUSH3 0xF7 JUMPI DUP3 MLOAD DUP3 SSTORE SWAP2 PUSH1 0x20 ADD SWAP2 SWAP1 PUSH1 0x1 ADD SWAP1 PUSH3 0xDA JUMP JUMPDEST JUMPDEST POP SWAP1 POP PUSH3 0x107 SWAP2 SWAP1 PUSH3 0x10B JUMP JUMPDEST POP SWAP1 JUMP JUMPDEST JUMPDEST DUP1 DUP3 GT ISZERO PUSH3 0x126 JUMPI PUSH1 0x0 DUP2 PUSH1 0x0 SWAP1 SSTORE POP PUSH1 0x1 ADD PUSH3 0x10C JUMP JUMPDEST POP SWAP1 JUMP JUMPDEST PUSH1 0x0 PUSH3 0x141 PUSH3 0x13B DUP5 PUSH3 0x238 JUMP JUMPDEST PUSH3 0x20F JUMP JUMPDEST SWAP1 POP DUP3 DUP2 MSTORE PUSH1 0x20 DUP2 ADD DUP5 DUP5 DUP5 ADD GT ISZERO PUSH3 0x15A JUMPI PUSH1 0x0 DUP1 REVERT JUMPDEST PUSH3 0x167 DUP5 DUP3 DUP6 PUSH3 0x26E JUMP JUMPDEST POP SWAP4 SWAP3 POP POP POP JUMP JUMPDEST PUSH1 0x0 DUP3 PUSH1 0x1F DUP4 ADD SLT PUSH3 0x181 JUMPI PUSH1 0x0 DUP1 REVERT JUMPDEST DUP2 MLOAD PUSH3 0x193 DUP5 DUP3 PUSH1 0x20 DUP7 ADD PUSH3 0x12A JUMP JUMPDEST SWAP2 POP POP SWAP3 SWAP2 POP POP JUMP JUMPDEST PUSH1 0x0 DUP1 PUSH1 0x40 DUP4 DUP6 SUB SLT ISZERO PUSH3 0x1B0 JUMPI PUSH1 0x0 DUP1 REVERT JUMPDEST PUSH1 0x0 DUP4 ADD MLOAD PUSH8 0xFFFFFFFFFFFFFFFF DUP2 GT ISZERO PUSH3 0x1CB JUMPI PUSH1 0x0 DUP1 REVERT JUMPDEST PUSH3 0x1D9 DUP6 DUP3 DUP7 ADD PUSH3 0x16F JUMP JUMPDEST SWAP3 POP POP PUSH1 0x20 DUP4 ADD MLOAD PUSH8 0xFFFFFFFFFFFFFFFF DUP2 GT ISZERO PUSH3 0x1F7 JUMPI PUSH1 0x0 DUP1 REVERT JUMPDEST PUSH3 0x205 DUP6 DUP3 DUP7 ADD PUSH3 0x16F JUMP JUMPDEST SWAP2 POP POP SWAP3 POP SWAP3 SWAP1 POP JUMP JUMPDEST PUSH1 0x0 PUSH3 0x21B PUSH3 0x22E JUMP JUMPDEST SWAP1 POP PUSH3 0x229 DUP3 DUP3 PUSH3 0x2DA JUMP JUMPDEST SWAP2 SWAP1 POP JUMP JUMPDEST PUSH1 0x0 PUSH1 0x40 MLOAD SWAP1 POP SWAP1 JUMP JUMPDEST PUSH1 0x0 PUSH8 0xFFFFFFFFFFFFFFFF DUP3 GT ISZERO PUSH3 0x256 JUMPI PUSH3 0x255 PUSH3 0x33F JUMP JUMPDEST JUMPDEST PUSH3 0x261 DUP3 PUSH3 0x36E JUMP JUMPDEST SWAP1 POP PUSH1 0x20 DUP2 ADD SWAP1 POP SWAP2 SWAP1 POP JUMP JUMPDEST PUSH1 0x0 JUMPDEST DUP4 DUP2 LT ISZERO PUSH3 0x28E JUMPI DUP1 DUP3 ADD MLOAD DUP2 DUP5 ADD MSTORE PUSH1 0x20 DUP2 ADD SWAP1 POP PUSH3 0x271 JUMP JUMPDEST DUP4 DUP2 GT ISZERO PUSH3 0x29E JUMPI PUSH1 0x0 DUP5 DUP5 ADD MSTORE JUMPDEST POP POP POP POP JUMP JUMPDEST PUSH1 0x0 PUSH1 0x2 DUP3 DIV SWAP1 POP PUSH1 0x1 DUP3 AND DUP1 PUSH3 0x2BD JUMPI PUSH1 0x7F DUP3 AND SWAP2 POP JUMPDEST PUSH1 0x20 DUP3 LT DUP2 EQ ISZERO PUSH3 0x2D4 JUMPI PUSH3 0x2D3 PUSH3 0x310 JUMP JUMPDEST JUMPDEST POP SWAP2 SWAP1 POP JUMP JUMPDEST PUSH3 0x2E5 DUP3 PUSH3 0x36E JUMP JUMPDEST DUP2 ADD DUP2 DUP2 LT PUSH8 0xFFFFFFFFFFFFFFFF DUP3 GT OR ISZERO PUSH3 0x307 JUMPI PUSH3 0x306 PUSH3 0x33F JUMP JUMPDEST JUMPDEST DUP1 PUSH1 0x40 MSTORE POP POP POP JUMP JUMPDEST PUSH32 0x4E487B7100000000000000000000000000000000000000000000000000000000 PUSH1 0x0 MSTORE PUSH1 0x22 PUSH1 0x4 MSTORE PUSH1 0x24 PUSH1 0x0 REVERT JUMPDEST PUSH32 0x4E487B7100000000000000000000000000000000000000000000000000000000 PUSH1 0x0 MSTORE PUSH1 0x41 PUSH1 0x4 MSTORE PUSH1 0x24 PUSH1 0x0 REVERT JUMPDEST PUSH1 0x0 PUSH1 0x1F NOT PUSH1 0x1F DUP4 ADD AND SWAP1 POP SWAP2 SWAP1 POP JUMP JUMPDEST PUSH2 0x21A9 DUP1 PUSH3 0x38F PUSH1 0x0 CODECOPY PUSH1 0x0 RETURN INVALID PUSH1 0x80 PUSH1 0x40 MSTORE CALLVALUE DUP1 ISZERO PUSH2 0x10 JUMPI PUSH1 0x0 DUP1 REVERT JUMPDEST POP PUSH1 0x4 CALLDATASIZE LT PUSH2 0xF5 JUMPI PUSH1 0x0 CALLDATALOAD PUSH1 0xE0 SHR DUP1 PUSH4 0x6352211E GT PUSH2 0x97 JUMPI DUP1 PUSH4 0xB1A3A695 GT PUSH2 0x66 JUMPI DUP1 PUSH4 0xB1A3A695 EQ PUSH2 0x282 JUMPI DUP1 PUSH4 0xB88D4FDE EQ PUSH2 0x2A0 JUMPI DUP1 PUSH4 0xC87B56DD EQ PUSH2 0x2BC JUMPI DUP1 PUSH4 0xE985E9C5 EQ PUSH2 0x2EC JUMPI PUSH2 0xF5 JUMP JUMPDEST DUP1 PUSH4 0x6352211E EQ PUSH2 0x1E8 JUMPI DUP1 PUSH4 0x70A08231 EQ PUSH2 0x218 JUMPI DUP1 PUSH4 0x95D89B41 EQ PUSH2 0x248 JUMPI DUP1 PUSH4 0xA22CB465 EQ PUSH2 0x266 JUMPI PUSH2 0xF5 JUMP JUMPDEST DUP1 PUSH4 0x95EA7B3 GT PUSH2 0xD3 JUMPI DUP1 PUSH4 0x95EA7B3 EQ PUSH2 0x178 JUMPI DUP1 PUSH4 0x23B872DD EQ PUSH2 0x194 JUMPI DUP1 PUSH4 0x40C10F19 EQ PUSH2 0x1B0 JUMPI DUP1 PUSH4 0x42842E0E EQ PUSH2 0x1CC JUMPI PUSH2 0xF5 JUMP JUMPDEST DUP1 PUSH4 0x1FFC9A7 EQ PUSH2 0xFA JUMPI DUP1 PUSH4 0x6FDDE03 EQ PUSH2 0x12A JUMPI DUP1 PUSH4 0x81812FC EQ PUSH2 0x148 JUMPI JUMPDEST PUSH1 0x0 DUP1 REVERT JUMPDEST PUSH2 0x114 PUSH1 0x4 DUP1 CALLDATASIZE SUB DUP2 ADD SWAP1 PUSH2 0x10F SWAP2 SWAP1 PUSH2 0x174C JUMP JUMPDEST PUSH2 0x31C JUMP JUMPDEST PUSH1 0x40 MLOAD PUSH2 0x121 SWAP2 SWAP1 PUSH2 0x1A96 JUMP JUMPDEST PUSH1 0x40 MLOAD DUP1 SWAP2 SUB SWAP1 RETURN JUMPDEST PUSH2 0x132 PUSH2 0x456 JUMP JUMPDEST PUSH1 0x40 MLOAD PUSH2 0x13F SWAP2 SWAP1 PUSH2 0x1AB1 JUMP JUMPDEST PUSH1 0x40 MLOAD DUP1 SWAP2 SUB SWAP1 RETURN JUMPDEST PUSH2 0x162 PUSH1 0x4 DUP1 CALLDATASIZE SUB DUP2 ADD SWAP1 PUSH2 0x15D SWAP2 SWAP1 PUSH2 0x179E JUMP JUMPDEST PUSH2 0x4E4 JUMP JUMPDEST PUSH1 0x40 MLOAD PUSH2 0x16F SWAP2 SWAP1 PUSH2 0x1A2F JUMP JUMPDEST PUSH1 0x40 MLOAD DUP1 SWAP2 SUB SWAP1 RETURN JUMPDEST PUSH2 0x192 PUSH1 0x4 DUP1 CALLDATASIZE SUB DUP2 ADD SWAP1 PUSH2 0x18D SWAP2 SWAP1 PUSH2 0x1710 JUMP JUMPDEST PUSH2 0x5C3 JUMP JUMPDEST STOP JUMPDEST PUSH2 0x1AE PUSH1 0x4 DUP1 CALLDATASIZE SUB DUP2 ADD SWAP1 PUSH2 0x1A9 SWAP2 SWAP1 PUSH2 0x160A JUMP JUMPDEST PUSH2 0x70A JUMP JUMPDEST STOP JUMPDEST PUSH2 0x1CA PUSH1 0x4 DUP1 CALLDATASIZE SUB DUP2 ADD SWAP1 PUSH2 0x1C5 SWAP2 SWAP1 PUSH2 0x1710 JUMP JUMPDEST PUSH2 0x773 JUMP JUMPDEST STOP JUMPDEST PUSH2 0x1E6 PUSH1 0x4 DUP1 CALLDATASIZE SUB DUP2 ADD SWAP1 PUSH2 0x1E1 SWAP2 SWAP1 PUSH2 0x160A JUMP JUMPDEST PUSH2 0x7D2 JUMP JUMPDEST STOP JUMPDEST PUSH2 0x202 PUSH1 0x4 DUP1 CALLDATASIZE SUB DUP2 ADD SWAP1 PUSH2 0x1FD SWAP2 SWAP1 PUSH2 0x179E JUMP JUMPDEST PUSH2 0x7F2 JUMP JUMPDEST PUSH1 0x40 MLOAD PUSH2 0x20F SWAP2 SWAP1 PUSH2 0x1A2F JUMP JUMPDEST PUSH1 0x40 MLOAD DUP1 SWAP2 SUB SWAP1 RETURN JUMPDEST PUSH2 0x232 PUSH1 0x4 DUP1 CALLDATASIZE SUB DUP2 ADD SWAP1 PUSH2 0x22D SWAP2 SWAP1 PUSH2 0x15A5 JUMP JUMPDEST PUSH2 0x89F JUMP JUMPDEST PUSH1 0x40 MLOAD PUSH2 0x23F SWAP2 SWAP1 PUSH2 0x1C33 JUMP JUMPDEST PUSH1 0x40 MLOAD DUP1 SWAP2 SUB SWAP1 RETURN JUMPDEST PUSH2 0x250 PUSH2 0x957 JUMP JUMPDEST PUSH1 0x40 MLOAD PUSH2 0x25D SWAP2 SWAP1 PUSH2 0x1AB1 JUMP JUMPDEST PUSH1 0x40 MLOAD DUP1 SWAP2 SUB SWAP1 RETURN JUMPDEST PUSH2 0x280 PUSH1 0x4 DUP1 CALLDATASIZE SUB DUP2 ADD SWAP1 PUSH2 0x27B SWAP2 SWAP1 PUSH2 0x16D4 JUMP JUMPDEST PUSH2 0x9E5 JUMP JUMPDEST STOP JUMPDEST PUSH2 0x28A PUSH2 0xAE2 JUMP JUMPDEST PUSH1 0x40 MLOAD PUSH2 0x297 SWAP2 SWAP1 PUSH2 0x1C33 JUMP JUMPDEST PUSH1 0x40 MLOAD DUP1 SWAP2 SUB SWAP1 RETURN JUMPDEST PUSH2 0x2BA PUSH1 0x4 DUP1 CALLDATASIZE SUB DUP2 ADD SWAP1 PUSH2 0x2B5 SWAP2 SWAP1 PUSH2 0x1659 JUMP JUMPDEST PUSH2 0xAE8 JUMP JUMPDEST STOP JUMPDEST PUSH2 0x2D6 PUSH1 0x4 DUP1 CALLDATASIZE SUB DUP2 ADD SWAP1 PUSH2 0x2D1 SWAP2 SWAP1 PUSH2 0x179E JUMP JUMPDEST PUSH2 0xB53 JUMP JUMPDEST PUSH1 0x40 MLOAD PUSH2 0x2E3 SWAP2 SWAP1 PUSH2 0x1AB1 JUMP JUMPDEST PUSH1 0x40 MLOAD DUP1 SWAP2 SUB SWAP1 RETURN JUMPDEST PUSH2 0x306 PUSH1 0x4 DUP1 CALLDATASIZE SUB DUP2 ADD SWAP1 PUSH2 0x301 SWAP2 SWAP1 PUSH2 0x15CE JUMP JUMPDEST PUSH2 0xC4B JUMP JUMPDEST PUSH1 0x40 MLOAD PUSH2 0x313 SWAP2 SWAP1 PUSH2 0x1A96 JUMP JUMPDEST PUSH1 0x40 MLOAD DUP1 SWAP2 SUB SWAP1 RETURN JUMPDEST PUSH1 0x0 PUSH32 0x80AC58CD00000000000000000000000000000000000000000000000000000000 PUSH28 0xFFFFFFFFFFFFFFFFFFFFFFFFFFFFFFFFFFFFFFFFFFFFFFFFFFFFFFFF NOT AND DUP3 PUSH28 0xFFFFFFFFFFFFFFFFFFFFFFFFFFFFFFFFFFFFFFFFFFFFFFFFFFFFFFFF NOT AND EQ DUP1 PUSH2 0x3E7 JUMPI POP PUSH32 0x1FFC9A700000000000000000000000000000000000000000000000000000000 PUSH28 0xFFFFFFFFFFFFFFFFFFFFFFFFFFFFFFFFFFFFFFFFFFFFFFFFFFFFFFFF NOT AND DUP3 PUSH28 0xFFFFFFFFFFFFFFFFFFFFFFFFFFFFFFFFFFFFFFFFFFFFFFFFFFFFFFFF NOT AND EQ JUMPDEST DUP1 PUSH2 0x44F JUMPI POP PUSH32 0x5B5E139F00000000000000000000000000000000000000000000000000000000 PUSH28 0xFFFFFFFFFFFFFFFFFFFFFFFFFFFFFFFFFFFFFFFFFFFFFFFFFFFFFFFF NOT AND DUP3 PUSH28 0xFFFFFFFFFFFFFFFFFFFFFFFFFFFFFFFFFFFFFFFFFFFFFFFFFFFFFFFF NOT AND EQ JUMPDEST SWAP1 POP SWAP2 SWAP1 POP JUMP JUMPDEST PUSH1 0x0 DUP1 SLOAD PUSH2 0x463 SWAP1 PUSH2 0x1E27 JUMP JUMPDEST DUP1 PUSH1 0x1F ADD PUSH1 0x20 DUP1 SWAP2 DIV MUL PUSH1 0x20 ADD PUSH1 0x40 MLOAD SWAP1 DUP2 ADD PUSH1 0x40 MSTORE DUP1 SWAP3 SWAP2 SWAP1 DUP2 DUP2 MSTORE PUSH1 0x20 ADD DUP3 DUP1 SLOAD PUSH2 0x48F SWAP1 PUSH2 0x1E27 JUMP JUMPDEST DUP1 ISZERO PUSH2 0x4DC JUMPI DUP1 PUSH1 0x1F LT PUSH2 0x4B1 JUMPI PUSH2 0x100 DUP1 DUP4 SLOAD DIV MUL DUP4 MSTORE SWAP2 PUSH1 0x20 ADD SWAP2 PUSH2 0x4DC JUMP JUMPDEST DUP3 ADD SWAP2 SWAP1 PUSH1 0x0 MSTORE PUSH1 0x20 PUSH1 0x0 KECCAK256 SWAP1 JUMPDEST DUP2 SLOAD DUP2 MSTORE SWAP1 PUSH1 0x1 ADD SWAP1 PUSH1 0x20 ADD DUP1 DUP4 GT PUSH2 0x4BF JUMPI DUP3 SWAP1 SUB PUSH1 0x1F AND DUP3 ADD SWAP2 JUMPDEST POP POP POP POP POP DUP2 JUMP JUMPDEST PUSH1 0x0 DUP1 PUSH20 0xFFFFFFFFFFFFFFFFFFFFFFFFFFFFFFFFFFFFFFFF AND PUSH1 0x2 PUSH1 0x0 DUP5 DUP2 MSTORE PUSH1 0x20 ADD SWAP1 DUP2 MSTORE PUSH1 0x20 ADD PUSH1 0x0 KECCAK256 PUSH1 0x0 SWAP1 SLOAD SWAP1 PUSH2 0x100 EXP SWAP1 DIV PUSH20 0xFFFFFFFFFFFFFFFFFFFFFFFFFFFFFFFFFFFFFFFF AND PUSH20 0xFFFFFFFFFFFFFFFFFFFFFFFFFFFFFFFFFFFFFFFF AND EQ ISZERO PUSH2 0x588 JUMPI PUSH1 0x40 MLOAD PUSH32 0x8C379A000000000000000000000000000000000000000000000000000000000 DUP2 MSTORE PUSH1 0x4 ADD PUSH2 0x57F SWAP1 PUSH2 0x1B73 JUMP JUMPDEST PUSH1 0x40 MLOAD DUP1 SWAP2 SUB SWAP1 REVERT JUMPDEST PUSH1 0x4 PUSH1 0x0 DUP4 DUP2 MSTORE PUSH1 0x20 ADD SWAP1 DUP2 MSTORE PUSH1 0x20 ADD PUSH1 0x0 KECCAK256 PUSH1 0x0 SWAP1 SLOAD SWAP1 PUSH2 0x100 EXP SWAP1 DIV PUSH20 0xFFFFFFFFFFFFFFFFFFFFFFFFFFFFFFFFFFFFFFFF AND SWAP1 POP SWAP2 SWAP1 POP JUMP JUMPDEST PUSH1 0x0 PUSH1 0x2 PUSH1 0x0 DUP4 DUP2 MSTORE PUSH1 0x20 ADD SWAP1 DUP2 MSTORE PUSH1 0x20 ADD PUSH1 0x0 KECCAK256 PUSH1 0x0 SWAP1 SLOAD SWAP1 PUSH2 0x100 EXP SWAP1 DIV PUSH20 0xFFFFFFFFFFFFFFFFFFFFFFFFFFFFFFFFFFFFFFFF AND SWAP1 POP DUP1 PUSH20 0xFFFFFFFFFFFFFFFFFFFFFFFFFFFFFFFFFFFFFFFF AND CALLER PUSH20 0xFFFFFFFFFFFFFFFFFFFFFFFFFFFFFFFFFFFFFFFF AND EQ DUP1 PUSH2 0x6BB JUMPI POP PUSH1 0x5 PUSH1 0x0 DUP3 PUSH20 0xFFFFFFFFFFFFFFFFFFFFFFFFFFFFFFFFFFFFFFFF AND PUSH20 0xFFFFFFFFFFFFFFFFFFFFFFFFFFFFFFFFFFFFFFFF AND DUP2 MSTORE PUSH1 0x20 ADD SWAP1 DUP2 MSTORE PUSH1 0x20 ADD PUSH1 0x0 KECCAK256 PUSH1 0x0 CALLER PUSH20 0xFFFFFFFFFFFFFFFFFFFFFFFFFFFFFFFFFFFFFFFF AND PUSH20 0xFFFFFFFFFFFFFFFFFFFFFFFFFFFFFFFFFFFFFFFF AND DUP2 MSTORE PUSH1 0x20 ADD SWAP1 DUP2 MSTORE PUSH1 0x20 ADD PUSH1 0x0 KECCAK256 PUSH1 0x0 SWAP1 SLOAD SWAP1 PUSH2 0x100 EXP SWAP1 DIV PUSH1 0xFF AND JUMPDEST PUSH2 0x6FA JUMPI PUSH1 0x40 MLOAD PUSH32 0x8C379A000000000000000000000000000000000000000000000000000000000 DUP2 MSTORE PUSH1 0x4 ADD PUSH2 0x6F1 SWAP1 PUSH2 0x1B33 JUMP JUMPDEST PUSH1 0x40 MLOAD DUP1 SWAP2 SUB SWAP1 REVERT JUMPDEST PUSH2 0x705 DUP2 DUP5 DUP5 PUSH2 0xCDF JUMP JUMPDEST POP POP POP JUMP JUMPDEST PUSH1 0x0 PUSH2 0x715 DUP3 PUSH2 0x7F2 JUMP JUMPDEST SWAP1 POP PUSH2 0x722 DUP2 CALLER DUP5 PUSH2 0xD91 JUMP JUMPDEST PUSH2 0x761 JUMPI PUSH1 0x40 MLOAD PUSH32 0x8C379A000000000000000000000000000000000000000000000000000000000 DUP2 MSTORE PUSH1 0x4 ADD PUSH2 0x758 SWAP1 PUSH2 0x1AF3 JUMP JUMPDEST PUSH1 0x40 MLOAD DUP1 SWAP2 SUB SWAP1 REVERT JUMPDEST PUSH2 0x76D DUP2 DUP6 DUP6 DUP6 PUSH2 0xEC5 JUMP JUMPDEST POP POP POP POP JUMP JUMPDEST PUSH1 0x0 DUP2 LT ISZERO DUP1 ISZERO PUSH2 0x785 JUMPI POP PUSH1 0x6 SLOAD DUP2 LT JUMPDEST PUSH2 0x7C4 JUMPI PUSH1 0x40 MLOAD PUSH32 0x8C379A000000000000000000000000000000000000000000000000000000000 DUP2 MSTORE PUSH1 0x4 ADD PUSH2 0x7BB SWAP1 PUSH2 0x1AD3 JUMP JUMPDEST PUSH1 0x40 MLOAD DUP1 SWAP2 SUB SWAP1 REVERT JUMPDEST PUSH2 0x7CE DUP3 DUP3 PUSH2 0x1110 JUMP JUMPDEST POP POP JUMP JUMPDEST PUSH2 0x7ED DUP4 DUP4 DUP4 PUSH1 0x40 MLOAD DUP1 PUSH1 0x20 ADD PUSH1 0x40 MSTORE DUP1 PUSH1 0x0 DUP2 MSTORE POP PUSH2 0xAE8 JUMP JUMPDEST POP POP POP JUMP JUMPDEST PUSH1 0x0 PUSH1 0x2 PUSH1 0x0 DUP4 DUP2 MSTORE PUSH1 0x20 ADD SWAP1 DUP2 MSTORE PUSH1 0x20 ADD PUSH1 0x0 KECCAK256 PUSH1 0x0 SWAP1 SLOAD SWAP1 PUSH2 0x100 EXP SWAP1 DIV PUSH20 0xFFFFFFFFFFFFFFFFFFFFFFFFFFFFFFFFFFFFFFFF AND SWAP1 POP PUSH1 0x0 PUSH20 0xFFFFFFFFFFFFFFFFFFFFFFFFFFFFFFFFFFFFFFFF AND DUP2 PUSH20 0xFFFFFFFFFFFFFFFFFFFFFFFFFFFFFFFFFFFFFFFF AND EQ ISZERO PUSH2 0x89A JUMPI PUSH1 0x40 MLOAD PUSH32 0x8C379A000000000000000000000000000000000000000000000000000000000 DUP2 MSTORE PUSH1 0x4 ADD PUSH2 0x891 SWAP1 PUSH2 0x1B73 JUMP JUMPDEST PUSH1 0x40 MLOAD DUP1 SWAP2 SUB SWAP1 REVERT JUMPDEST SWAP2 SWAP1 POP JUMP JUMPDEST PUSH1 0x0 DUP1 PUSH20 0xFFFFFFFFFFFFFFFFFFFFFFFFFFFFFFFFFFFFFFFF AND DUP3 PUSH20 0xFFFFFFFFFFFFFFFFFFFFFFFFFFFFFFFFFFFFFFFF AND EQ ISZERO PUSH2 0x910 JUMPI PUSH1 0x40 MLOAD PUSH32 0x8C379A000000000000000000000000000000000000000000000000000000000 DUP2 MSTORE PUSH1 0x4 ADD PUSH2 0x907 SWAP1 PUSH2 0x1B93 JUMP JUMPDEST PUSH1 0x40 MLOAD DUP1 SWAP2 SUB SWAP1 REVERT JUMPDEST PUSH1 0x3 PUSH1 0x0 DUP4 PUSH20 0xFFFFFFFFFFFFFFFFFFFFFFFFFFFFFFFFFFFFFFFF AND PUSH20 0xFFFFFFFFFFFFFFFFFFFFFFFFFFFFFFFFFFFFFFFF AND DUP2 MSTORE PUSH1 0x20 ADD SWAP1 DUP2 MSTORE PUSH1 0x20 ADD PUSH1 0x0 KECCAK256 SLOAD SWAP1 POP SWAP2 SWAP1 POP JUMP JUMPDEST PUSH1 0x1 DUP1 SLOAD PUSH2 0x964 SWAP1 PUSH2 0x1E27 JUMP JUMPDEST DUP1 PUSH1 0x1F ADD PUSH1 0x20 DUP1 SWAP2 DIV MUL PUSH1 0x20 ADD PUSH1 0x40 MLOAD SWAP1 DUP2 ADD PUSH1 0x40 MSTORE DUP1 SWAP3 SWAP2 SWAP1 DUP2 DUP2 MSTORE PUSH1 0x20 ADD DUP3 DUP1 SLOAD PUSH2 0x990 SWAP1 PUSH2 0x1E27 JUMP JUMPDEST DUP1 ISZERO PUSH2 0x9DD JUMPI DUP1 PUSH1 0x1F LT PUSH2 0x9B2 JUMPI PUSH2 0x100 DUP1 DUP4 SLOAD DIV MUL DUP4 MSTORE SWAP2 PUSH1 0x20 ADD SWAP2 PUSH2 0x9DD JUMP JUMPDEST DUP3 ADD SWAP2 SWAP1 PUSH1 0x0 MSTORE PUSH1 0x20 PUSH1 0x0 KECCAK256 SWAP1 JUMPDEST DUP2 SLOAD DUP2 MSTORE SWAP1 PUSH1 0x1 ADD SWAP1 PUSH1 0x20 ADD DUP1 DUP4 GT PUSH2 0x9C0 JUMPI DUP3 SWAP1 SUB PUSH1 0x1F AND DUP3 ADD SWAP2 JUMPDEST POP POP POP POP POP DUP2 JUMP JUMPDEST DUP1 PUSH1 0x5 PUSH1 0x0 CALLER PUSH20 0xFFFFFFFFFFFFFFFFFFFFFFFFFFFFFFFFFFFFFFFF AND PUSH20 0xFFFFFFFFFFFFFFFFFFFFFFFFFFFFFFFFFFFFFFFF AND DUP2 MSTORE PUSH1 0x20 ADD SWAP1 DUP2 MSTORE PUSH1 0x20 ADD PUSH1 0x0 KECCAK256 PUSH1 0x0 DUP5 PUSH20 0xFFFFFFFFFFFFFFFFFFFFFFFFFFFFFFFFFFFFFFFF AND PUSH20 0xFFFFFFFFFFFFFFFFFFFFFFFFFFFFFFFFFFFFFFFF AND DUP2 MSTORE PUSH1 0x20 ADD SWAP1 DUP2 MSTORE PUSH1 0x20 ADD PUSH1 0x0 KECCAK256 PUSH1 0x0 PUSH2 0x100 EXP DUP2 SLOAD DUP2 PUSH1 0xFF MUL NOT AND SWAP1 DUP4 ISZERO ISZERO MUL OR SWAP1 SSTORE POP DUP2 PUSH20 0xFFFFFFFFFFFFFFFFFFFFFFFFFFFFFFFFFFFFFFFF AND CALLER PUSH20 0xFFFFFFFFFFFFFFFFFFFFFFFFFFFFFFFFFFFFFFFF AND PUSH32 0x17307EAB39AB6107E8899845AD3D59BD9653F200F220920489CA2B5937696C31 DUP4 PUSH1 0x40 MLOAD PUSH2 0xAD6 SWAP2 SWAP1 PUSH2 0x1A96 JUMP JUMPDEST PUSH1 0x40 MLOAD DUP1 SWAP2 SUB SWAP1 LOG3 POP POP JUMP JUMPDEST PUSH1 0x6 SLOAD DUP2 JUMP JUMPDEST PUSH1 0x0 PUSH2 0xAF3 DUP4 PUSH2 0x7F2 JUMP JUMPDEST SWAP1 POP PUSH2 0xB00 DUP2 CALLER DUP6 PUSH2 0xD91 JUMP JUMPDEST PUSH2 0xB3F JUMPI PUSH1 0x40 MLOAD PUSH32 0x8C379A000000000000000000000000000000000000000000000000000000000 DUP2 MSTORE PUSH1 0x4 ADD PUSH2 0xB36 SWAP1 PUSH2 0x1AF3 JUMP JUMPDEST PUSH1 0x40 MLOAD DUP1 SWAP2 SUB SWAP1 REVERT JUMPDEST PUSH2 0xB4C DUP2 DUP7 DUP7 DUP7 DUP7 PUSH2 0x132B JUMP JUMPDEST POP POP POP POP POP JUMP JUMPDEST PUSH1 0x60 PUSH1 0x0 PUSH20 0xFFFFFFFFFFFFFFFFFFFFFFFFFFFFFFFFFFFFFFFF AND PUSH1 0x2 PUSH1 0x0 DUP5 DUP2 MSTORE PUSH1 0x20 ADD SWAP1 DUP2 MSTORE PUSH1 0x20 ADD PUSH1 0x0 KECCAK256 PUSH1 0x0 SWAP1 SLOAD SWAP1 PUSH2 0x100 EXP SWAP1 DIV PUSH20 0xFFFFFFFFFFFFFFFFFFFFFFFFFFFFFFFFFFFFFFFF AND PUSH20 0xFFFFFFFFFFFFFFFFFFFFFFFFFFFFFFFFFFFFFFFF AND EQ ISZERO PUSH2 0xBF8 JUMPI PUSH1 0x40 MLOAD PUSH32 0x8C379A000000000000000000000000000000000000000000000000000000000 DUP2 MSTORE PUSH1 0x4 ADD PUSH2 0xBEF SWAP1 PUSH2 0x1BB3 JUMP JUMPDEST PUSH1 0x40 MLOAD DUP1 SWAP2 SUB SWAP1 REVERT JUMPDEST PUSH1 0x0 PUSH2 0xC02 PUSH2 0x1389 JUMP JUMPDEST SWAP1 POP PUSH1 0x0 DUP2 MLOAD GT PUSH2 0xC22 JUMPI PUSH1 0x40 MLOAD DUP1 PUSH1 0x20 ADD PUSH1 0x40 MSTORE DUP1 PUSH1 0x0 DUP2 MSTORE POP PUSH2 0xC43 JUMP JUMPDEST DUP1 PUSH1 0x40 MLOAD PUSH1 0x20 ADD PUSH2 0xC33 SWAP2 SWAP1 PUSH2 0x1A18 JUMP JUMPDEST PUSH1 0x40 MLOAD PUSH1 0x20 DUP2 DUP4 SUB SUB DUP2 MSTORE SWAP1 PUSH1 0x40 MSTORE JUMPDEST SWAP2 POP POP SWAP2 SWAP1 POP JUMP JUMPDEST PUSH1 0x0 PUSH1 0x5 PUSH1 0x0 DUP5 PUSH20 0xFFFFFFFFFFFFFFFFFFFFFFFFFFFFFFFFFFFFFFFF AND PUSH20 0xFFFFFFFFFFFFFFFFFFFFFFFFFFFFFFFFFFFFFFFF AND DUP2 MSTORE PUSH1 0x20 ADD SWAP1 DUP2 MSTORE PUSH1 0x20 ADD PUSH1 0x0 KECCAK256 PUSH1 0x0 DUP4 PUSH20 0xFFFFFFFFFFFFFFFFFFFFFFFFFFFFFFFFFFFFFFFF AND PUSH20 0xFFFFFFFFFFFFFFFFFFFFFFFFFFFFFFFFFFFFFFFF AND DUP2 MSTORE PUSH1 0x20 ADD SWAP1 DUP2 MSTORE PUSH1 0x20 ADD PUSH1 0x0 KECCAK256 PUSH1 0x0 SWAP1 SLOAD SWAP1 PUSH2 0x100 EXP SWAP1 DIV PUSH1 0xFF AND SWAP1 POP SWAP3 SWAP2 POP POP JUMP JUMPDEST DUP2 PUSH1 0x4 PUSH1 0x0 DUP4 DUP2 MSTORE PUSH1 0x20 ADD SWAP1 DUP2 MSTORE PUSH1 0x20 ADD PUSH1 0x0 KECCAK256 PUSH1 0x0 PUSH2 0x100 EXP DUP2 SLOAD DUP2 PUSH20 0xFFFFFFFFFFFFFFFFFFFFFFFFFFFFFFFFFFFFFFFF MUL NOT AND SWAP1 DUP4 PUSH20 0xFFFFFFFFFFFFFFFFFFFFFFFFFFFFFFFFFFFFFFFF AND MUL OR SWAP1 SSTORE POP DUP1 DUP3 PUSH20 0xFFFFFFFFFFFFFFFFFFFFFFFFFFFFFFFFFFFFFFFF AND DUP5 PUSH20 0xFFFFFFFFFFFFFFFFFFFFFFFFFFFFFFFFFFFFFFFF AND PUSH32 0x8C5BE1E5EBEC7D5BD14F71427D1E84F3DD0314C0F7B2291E5B200AC8C7C3B925 PUSH1 0x40 MLOAD PUSH1 0x40 MLOAD DUP1 SWAP2 SUB SWAP1 LOG4 POP POP POP JUMP JUMPDEST PUSH1 0x0 DUP4 PUSH20 0xFFFFFFFFFFFFFFFFFFFFFFFFFFFFFFFFFFFFFFFF AND DUP4 PUSH20 0xFFFFFFFFFFFFFFFFFFFFFFFFFFFFFFFFFFFFFFFF AND EQ DUP1 PUSH2 0xE2B JUMPI POP DUP3 PUSH20 0xFFFFFFFFFFFFFFFFFFFFFFFFFFFFFFFFFFFFFFFF AND PUSH1 0x4 PUSH1 0x0 DUP5 DUP2 MSTORE PUSH1 0x20 ADD SWAP1 DUP2 MSTORE PUSH1 0x20 ADD PUSH1 0x0 KECCAK256 PUSH1 0x0 SWAP1 SLOAD SWAP1 PUSH2 0x100 EXP SWAP1 DIV PUSH20 0xFFFFFFFFFFFFFFFFFFFFFFFFFFFFFFFFFFFFFFFF AND PUSH20 0xFFFFFFFFFFFFFFFFFFFFFFFFFFFFFFFFFFFFFFFF AND EQ JUMPDEST DUP1 PUSH2 0xEBC JUMPI POP PUSH1 0x5 PUSH1 0x0 DUP6 PUSH20 0xFFFFFFFFFFFFFFFFFFFFFFFFFFFFFFFFFFFFFFFF AND PUSH20 0xFFFFFFFFFFFFFFFFFFFFFFFFFFFFFFFFFFFFFFFF AND DUP2 MSTORE PUSH1 0x20 ADD SWAP1 DUP2 MSTORE PUSH1 0x20 ADD PUSH1 0x0 KECCAK256 PUSH1 0x0 DUP5 PUSH20 0xFFFFFFFFFFFFFFFFFFFFFFFFFFFFFFFFFFFFFFFF AND PUSH20 0xFFFFFFFFFFFFFFFFFFFFFFFFFFFFFFFFFFFFFFFF AND DUP2 MSTORE PUSH1 0x20 ADD SWAP1 DUP2 MSTORE PUSH1 0x20 ADD PUSH1 0x0 KECCAK256 PUSH1 0x0 SWAP1 SLOAD SWAP1 PUSH2 0x100 EXP SWAP1 DIV PUSH1 0xFF AND JUMPDEST SWAP1 POP SWAP4 SWAP3 POP POP POP JUMP JUMPDEST DUP4 PUSH20 0xFFFFFFFFFFFFFFFFFFFFFFFFFFFFFFFFFFFFFFFF AND DUP4 PUSH20 0xFFFFFFFFFFFFFFFFFFFFFFFFFFFFFFFFFFFFFFFF AND EQ PUSH2 0xF33 JUMPI PUSH1 0x40 MLOAD PUSH32 0x8C379A000000000000000000000000000000000000000000000000000000000 DUP2 MSTORE PUSH1 0x4 ADD PUSH2 0xF2A SWAP1 PUSH2 0x1C13 JUMP JUMPDEST PUSH1 0x40 MLOAD DUP1 SWAP2 SUB SWAP1 REVERT JUMPDEST PUSH1 0x0 PUSH20 0xFFFFFFFFFFFFFFFFFFFFFFFFFFFFFFFFFFFFFFFF AND DUP3 PUSH20 0xFFFFFFFFFFFFFFFFFFFFFFFFFFFFFFFFFFFFFFFF AND EQ ISZERO PUSH2 0xFA3 JUMPI PUSH1 0x40 MLOAD PUSH32 0x8C379A000000000000000000000000000000000000000000000000000000000 DUP2 MSTORE PUSH1 0x4 ADD PUSH2 0xF9A SWAP1 PUSH2 0x1B13 JUMP JUMPDEST PUSH1 0x40 MLOAD DUP1 SWAP2 SUB SWAP1 REVERT JUMPDEST PUSH2 0xFAF DUP5 PUSH1 0x0 DUP4 PUSH2 0xCDF JUMP JUMPDEST PUSH1 0x1 PUSH1 0x3 PUSH1 0x0 DUP6 PUSH20 0xFFFFFFFFFFFFFFFFFFFFFFFFFFFFFFFFFFFFFFFF AND PUSH20 0xFFFFFFFFFFFFFFFFFFFFFFFFFFFFFFFFFFFFFFFF AND DUP2 MSTORE PUSH1 0x20 ADD SWAP1 DUP2 MSTORE PUSH1 0x20 ADD PUSH1 0x0 KECCAK256 PUSH1 0x0 DUP3 DUP3 SLOAD PUSH2 0xFFF SWAP2 SWAP1 PUSH2 0x1D3D JUMP JUMPDEST SWAP3 POP POP DUP2 SWAP1 SSTORE POP PUSH1 0x1 PUSH1 0x3 PUSH1 0x0 DUP5 PUSH20 0xFFFFFFFFFFFFFFFFFFFFFFFFFFFFFFFFFFFFFFFF AND PUSH20 0xFFFFFFFFFFFFFFFFFFFFFFFFFFFFFFFFFFFFFFFF AND DUP2 MSTORE PUSH1 0x20 ADD SWAP1 DUP2 MSTORE PUSH1 0x20 ADD PUSH1 0x0 KECCAK256 PUSH1 0x0 DUP3 DUP3 SLOAD PUSH2 0x1056 SWAP2 SWAP1 PUSH2 0x1CE7 JUMP JUMPDEST SWAP3 POP POP DUP2 SWAP1 SSTORE POP DUP2 PUSH1 0x2 PUSH1 0x0 DUP4 DUP2 MSTORE PUSH1 0x20 ADD SWAP1 DUP2 MSTORE PUSH1 0x20 ADD PUSH1 0x0 KECCAK256 PUSH1 0x0 PUSH2 0x100 EXP DUP2 SLOAD DUP2 PUSH20 0xFFFFFFFFFFFFFFFFFFFFFFFFFFFFFFFFFFFFFFFF MUL NOT AND SWAP1 DUP4 PUSH20 0xFFFFFFFFFFFFFFFFFFFFFFFFFFFFFFFFFFFFFFFF AND MUL OR SWAP1 SSTORE POP DUP1 DUP3 PUSH20 0xFFFFFFFFFFFFFFFFFFFFFFFFFFFFFFFFFFFFFFFF AND DUP5 PUSH20 0xFFFFFFFFFFFFFFFFFFFFFFFFFFFFFFFFFFFFFFFF AND PUSH32 0xDDF252AD1BE2C89B69C2B068FC378DAA952BA7F163C4A11628F55A4DF523B3EF PUSH1 0x40 MLOAD PUSH1 0x40 MLOAD DUP1 SWAP2 SUB SWAP1 LOG4 POP POP POP POP JUMP JUMPDEST PUSH1 0x0 PUSH20 0xFFFFFFFFFFFFFFFFFFFFFFFFFFFFFFFFFFFFFFFF AND DUP3 PUSH20 0xFFFFFFFFFFFFFFFFFFFFFFFFFFFFFFFFFFFFFFFF AND EQ ISZERO PUSH2 0x1180 JUMPI PUSH1 0x40 MLOAD PUSH32 0x8C379A000000000000000000000000000000000000000000000000000000000 DUP2 MSTORE PUSH1 0x4 ADD PUSH2 0x1177 SWAP1 PUSH2 0x1B53 JUMP JUMPDEST PUSH1 0x40 MLOAD DUP1 SWAP2 SUB SWAP1 REVERT JUMPDEST PUSH1 0x0 PUSH20 0xFFFFFFFFFFFFFFFFFFFFFFFFFFFFFFFFFFFFFFFF AND PUSH1 0x2 PUSH1 0x0 DUP4 DUP2 MSTORE PUSH1 0x20 ADD SWAP1 DUP2 MSTORE PUSH1 0x20 ADD PUSH1 0x0 KECCAK256 PUSH1 0x0 SWAP1 SLOAD SWAP1 PUSH2 0x100 EXP SWAP1 DIV PUSH20 0xFFFFFFFFFFFFFFFFFFFFFFFFFFFFFFFFFFFFFFFF AND PUSH20 0xFFFFFFFFFFFFFFFFFFFFFFFFFFFFFFFFFFFFFFFF AND EQ PUSH2 0x1222 JUMPI PUSH1 0x40 MLOAD PUSH32 0x8C379A000000000000000000000000000000000000000000000000000000000 DUP2 MSTORE PUSH1 0x4 ADD PUSH2 0x1219 SWAP1 PUSH2 0x1BD3 JUMP JUMPDEST PUSH1 0x40 MLOAD DUP1 SWAP2 SUB SWAP1 REVERT JUMPDEST PUSH1 0x1 PUSH1 0x3 PUSH1 0x0 DUP5 PUSH20 0xFFFFFFFFFFFFFFFFFFFFFFFFFFFFFFFFFFFFFFFF AND PUSH20 0xFFFFFFFFFFFFFFFFFFFFFFFFFFFFFFFFFFFFFFFF AND DUP2 MSTORE PUSH1 0x20 ADD SWAP1 DUP2 MSTORE PUSH1 0x20 ADD PUSH1 0x0 KECCAK256 PUSH1 0x0 DUP3 DUP3 SLOAD PUSH2 0x1272 SWAP2 SWAP1 PUSH2 0x1CE7 JUMP JUMPDEST SWAP3 POP POP DUP2 SWAP1 SSTORE POP DUP2 PUSH1 0x2 PUSH1 0x0 DUP4 DUP2 MSTORE PUSH1 0x20 ADD SWAP1 DUP2 MSTORE PUSH1 0x20 ADD PUSH1 0x0 KECCAK256 PUSH1 0x0 PUSH2 0x100 EXP DUP2 SLOAD DUP2 PUSH20 0xFFFFFFFFFFFFFFFFFFFFFFFFFFFFFFFFFFFFFFFF MUL NOT AND SWAP1 DUP4 PUSH20 0xFFFFFFFFFFFFFFFFFFFFFFFFFFFFFFFFFFFFFFFF AND MUL OR SWAP1 SSTORE POP DUP1 DUP3 PUSH20 0xFFFFFFFFFFFFFFFFFFFFFFFFFFFFFFFFFFFFFFFF AND PUSH1 0x0 PUSH20 0xFFFFFFFFFFFFFFFFFFFFFFFFFFFFFFFFFFFFFFFF AND PUSH32 0xDDF252AD1BE2C89B69C2B068FC378DAA952BA7F163C4A11628F55A4DF523B3EF PUSH1 0x40 MLOAD PUSH1 0x40 MLOAD DUP1 SWAP2 SUB SWAP1 LOG4 POP POP JUMP JUMPDEST PUSH2 0x1337 DUP6 DUP6 DUP6 DUP6 PUSH2 0xEC5 JUMP JUMPDEST PUSH2 0x1343 DUP5 DUP5 DUP5 DUP5 PUSH2 0x13A9 JUMP JUMPDEST PUSH2 0x1382 JUMPI PUSH1 0x40 MLOAD PUSH32 0x8C379A000000000000000000000000000000000000000000000000000000000 DUP2 MSTORE PUSH1 0x4 ADD PUSH2 0x1379 SWAP1 PUSH2 0x1BF3 JUMP JUMPDEST PUSH1 0x40 MLOAD DUP1 SWAP2 SUB SWAP1 REVERT JUMPDEST POP POP POP POP POP JUMP JUMPDEST PUSH1 0x60 PUSH1 0x40 MLOAD DUP1 PUSH1 0x60 ADD PUSH1 0x40 MSTORE DUP1 PUSH1 0x2C DUP2 MSTORE PUSH1 0x20 ADD PUSH2 0x2148 PUSH1 0x2C SWAP2 CODECOPY SWAP1 POP SWAP1 JUMP JUMPDEST PUSH1 0x0 PUSH2 0x13CA DUP5 PUSH20 0xFFFFFFFFFFFFFFFFFFFFFFFFFFFFFFFFFFFFFFFF AND PUSH2 0x14C1 JUMP JUMPDEST ISZERO PUSH2 0x14B4 JUMPI PUSH1 0x0 DUP5 PUSH20 0xFFFFFFFFFFFFFFFFFFFFFFFFFFFFFFFFFFFFFFFF AND PUSH4 0x150B7A02 CALLER DUP9 DUP8 DUP8 PUSH1 0x40 MLOAD DUP6 PUSH4 0xFFFFFFFF AND PUSH1 0xE0 SHL DUP2 MSTORE PUSH1 0x4 ADD PUSH2 0x1410 SWAP5 SWAP4 SWAP3 SWAP2 SWAP1 PUSH2 0x1A4A JUMP JUMPDEST PUSH1 0x20 PUSH1 0x40 MLOAD DUP1 DUP4 SUB DUP2 PUSH1 0x0 DUP8 DUP1 EXTCODESIZE ISZERO DUP1 ISZERO PUSH2 0x142A JUMPI PUSH1 0x0 DUP1 REVERT JUMPDEST POP GAS CALL ISZERO DUP1 ISZERO PUSH2 0x143E JUMPI RETURNDATASIZE PUSH1 0x0 DUP1 RETURNDATACOPY RETURNDATASIZE PUSH1 0x0 REVERT JUMPDEST POP POP POP POP PUSH1 0x40 MLOAD RETURNDATASIZE PUSH1 0x1F NOT PUSH1 0x1F DUP3 ADD AND DUP3 ADD DUP1 PUSH1 0x40 MSTORE POP DUP2 ADD SWAP1 PUSH2 0x1462 SWAP2 SWAP1 PUSH2 0x1775 JUMP JUMPDEST SWAP1 POP PUSH4 0x150B7A02 PUSH1 0xE0 SHL PUSH28 0xFFFFFFFFFFFFFFFFFFFFFFFFFFFFFFFFFFFFFFFFFFFFFFFFFFFFFFFF NOT AND DUP2 PUSH28 0xFFFFFFFFFFFFFFFFFFFFFFFFFFFFFFFFFFFFFFFFFFFFFFFFFFFFFFFF NOT AND EQ SWAP2 POP POP PUSH2 0x14B9 JUMP JUMPDEST PUSH1 0x1 SWAP1 POP JUMPDEST SWAP5 SWAP4 POP POP POP POP JUMP JUMPDEST PUSH1 0x0 DUP1 DUP3 EXTCODESIZE SWAP1 POP PUSH1 0x0 DUP2 GT SWAP2 POP POP SWAP2 SWAP1 POP JUMP JUMPDEST PUSH1 0x0 PUSH2 0x14E7 PUSH2 0x14E2 DUP5 PUSH2 0x1C73 JUMP JUMPDEST PUSH2 0x1C4E JUMP JUMPDEST SWAP1 POP DUP3 DUP2 MSTORE PUSH1 0x20 DUP2 ADD DUP5 DUP5 DUP5 ADD GT ISZERO PUSH2 0x14FF JUMPI PUSH1 0x0 DUP1 REVERT JUMPDEST PUSH2 0x150A DUP5 DUP3 DUP6 PUSH2 0x1DE5 JUMP JUMPDEST POP SWAP4 SWAP3 POP POP POP JUMP JUMPDEST PUSH1 0x0 DUP2 CALLDATALOAD SWAP1 POP PUSH2 0x1521 DUP2 PUSH2 0x20EB JUMP JUMPDEST SWAP3 SWAP2 POP POP JUMP JUMPDEST PUSH1 0x0 DUP2 CALLDATALOAD SWAP1 POP PUSH2 0x1536 DUP2 PUSH2 0x2102 JUMP JUMPDEST SWAP3 SWAP2 POP POP JUMP JUMPDEST PUSH1 0x0 DUP2 CALLDATALOAD SWAP1 POP PUSH2 0x154B DUP2 PUSH2 0x2119 JUMP JUMPDEST SWAP3 SWAP2 POP POP JUMP JUMPDEST PUSH1 0x0 DUP2 MLOAD SWAP1 POP PUSH2 0x1560 DUP2 PUSH2 0x2119 JUMP JUMPDEST SWAP3 SWAP2 POP POP JUMP JUMPDEST PUSH1 0x0 DUP3 PUSH1 0x1F DUP4 ADD SLT PUSH2 0x1577 JUMPI PUSH1 0x0 DUP1 REVERT JUMPDEST DUP2 CALLDATALOAD PUSH2 0x1587 DUP5 DUP3 PUSH1 0x20 DUP7 ADD PUSH2 0x14D4 JUMP JUMPDEST SWAP2 POP POP SWAP3 SWAP2 POP POP JUMP JUMPDEST PUSH1 0x0 DUP2 CALLDATALOAD SWAP1 POP PUSH2 0x159F DUP2 PUSH2 0x2130 JUMP JUMPDEST SWAP3 SWAP2 POP POP JUMP JUMPDEST PUSH1 0x0 PUSH1 0x20 DUP3 DUP5 SUB SLT ISZERO PUSH2 0x15B7 JUMPI PUSH1 0x0 DUP1 REVERT JUMPDEST PUSH1 0x0 PUSH2 0x15C5 DUP5 DUP3 DUP6 ADD PUSH2 0x1512 JUMP JUMPDEST SWAP2 POP POP SWAP3 SWAP2 POP POP JUMP JUMPDEST PUSH1 0x0 DUP1 PUSH1 0x40 DUP4 DUP6 SUB SLT ISZERO PUSH2 0x15E1 JUMPI PUSH1 0x0 DUP1 REVERT JUMPDEST PUSH1 0x0 PUSH2 0x15EF DUP6 DUP3 DUP7 ADD PUSH2 0x1512 JUMP JUMPDEST SWAP3 POP POP PUSH1 0x20 PUSH2 0x1600 DUP6 DUP3 DUP7 ADD PUSH2 0x1512 JUMP JUMPDEST SWAP2 POP POP SWAP3 POP SWAP3 SWAP1 POP JUMP JUMPDEST PUSH1 0x0 DUP1 PUSH1 0x0 PUSH1 0x60 DUP5 DUP7 SUB SLT ISZERO PUSH2 0x161F JUMPI PUSH1 0x0 DUP1 REVERT JUMPDEST PUSH1 0x0 PUSH2 0x162D DUP7 DUP3 DUP8 ADD PUSH2 0x1512 JUMP JUMPDEST SWAP4 POP POP PUSH1 0x20 PUSH2 0x163E DUP7 DUP3 DUP8 ADD PUSH2 0x1512 JUMP JUMPDEST SWAP3 POP POP PUSH1 0x40 PUSH2 0x164F DUP7 DUP3 DUP8 ADD PUSH2 0x1590 JUMP JUMPDEST SWAP2 POP POP SWAP3 POP SWAP3 POP SWAP3 JUMP JUMPDEST PUSH1 0x0 DUP1 PUSH1 0x0 DUP1 PUSH1 0x80 DUP6 DUP8 SUB SLT ISZERO PUSH2 0x166F JUMPI PUSH1 0x0 DUP1 REVERT JUMPDEST PUSH1 0x0 PUSH2 0x167D DUP8 DUP3 DUP9 ADD PUSH2 0x1512 JUMP JUMPDEST SWAP5 POP POP PUSH1 0x20 PUSH2 0x168E DUP8 DUP3 DUP9 ADD PUSH2 0x1512 JUMP JUMPDEST SWAP4 POP POP PUSH1 0x40 PUSH2 0x169F DUP8 DUP3 DUP9 ADD PUSH2 0x1590 JUMP JUMPDEST SWAP3 POP POP PUSH1 0x60 DUP6 ADD CALLDATALOAD PUSH8 0xFFFFFFFFFFFFFFFF DUP2 GT ISZERO PUSH2 0x16BC JUMPI PUSH1 0x0 DUP1 REVERT JUMPDEST PUSH2 0x16C8 DUP8 DUP3 DUP9 ADD PUSH2 0x1566 JUMP JUMPDEST SWAP2 POP POP SWAP3 SWAP6 SWAP2 SWAP5 POP SWAP3 POP JUMP JUMPDEST PUSH1 0x0 DUP1 PUSH1 0x40 DUP4 DUP6 SUB SLT ISZERO PUSH2 0x16E7 JUMPI PUSH1 0x0 DUP1 REVERT JUMPDEST PUSH1 0x0 PUSH2 0x16F5 DUP6 DUP3 DUP7 ADD PUSH2 0x1512 JUMP JUMPDEST SWAP3 POP POP PUSH1 0x20 PUSH2 0x1706 DUP6 DUP3 DUP7 ADD PUSH2 0x1527 JUMP JUMPDEST SWAP2 POP POP SWAP3 POP SWAP3 SWAP1 POP JUMP JUMPDEST PUSH1 0x0 DUP1 PUSH1 0x40 DUP4 DUP6 SUB SLT ISZERO PUSH2 0x1723 JUMPI PUSH1 0x0 DUP1 REVERT JUMPDEST PUSH1 0x0 PUSH2 0x1731 DUP6 DUP3 DUP7 ADD PUSH2 0x1512 JUMP JUMPDEST SWAP3 POP POP PUSH1 0x20 PUSH2 0x1742 DUP6 DUP3 DUP7 ADD PUSH2 0x1590 JUMP JUMPDEST SWAP2 POP POP SWAP3 POP SWAP3 SWAP1 POP JUMP JUMPDEST PUSH1 0x0 PUSH1 0x20 DUP3 DUP5 SUB SLT ISZERO PUSH2 0x175E JUMPI PUSH1 0x0 DUP1 REVERT JUMPDEST PUSH1 0x0 PUSH2 0x176C DUP5 DUP3 DUP6 ADD PUSH2 0x153C JUMP JUMPDEST SWAP2 POP POP SWAP3 SWAP2 POP POP JUMP JUMPDEST PUSH1 0x0 PUSH1 0x20 DUP3 DUP5 SUB SLT ISZERO PUSH2 0x1787 JUMPI PUSH1 0x0 DUP1 REVERT JUMPDEST PUSH1 0x0 PUSH2 0x1795 DUP5 DUP3 DUP6 ADD PUSH2 0x1551 JUMP JUMPDEST SWAP2 POP POP SWAP3 SWAP2 POP POP JUMP JUMPDEST PUSH1 0x0 PUSH1 0x20 DUP3 DUP5 SUB SLT ISZERO PUSH2 0x17B0 JUMPI PUSH1 0x0 DUP1 REVERT JUMPDEST PUSH1 0x0 PUSH2 0x17BE DUP5 DUP3 DUP6 ADD PUSH2 0x1590 JUMP JUMPDEST SWAP2 POP POP SWAP3 SWAP2 POP POP JUMP JUMPDEST PUSH2 0x17D0 DUP2 PUSH2 0x1D71 JUMP JUMPDEST DUP3 MSTORE POP POP JUMP JUMPDEST PUSH2 0x17DF DUP2 PUSH2 0x1D83 JUMP JUMPDEST DUP3 MSTORE POP POP JUMP JUMPDEST PUSH1 0x0 PUSH2 0x17F0 DUP3 PUSH2 0x1CA4 JUMP JUMPDEST PUSH2 0x17FA DUP2 DUP6 PUSH2 0x1CBA JUMP JUMPDEST SWAP4 POP PUSH2 0x180A DUP2 DUP6 PUSH1 0x20 DUP7 ADD PUSH2 0x1DF4 JUMP JUMPDEST PUSH2 0x1813 DUP2 PUSH2 0x1F17 JUMP JUMPDEST DUP5 ADD SWAP2 POP POP SWAP3 SWAP2 POP POP JUMP JUMPDEST PUSH1 0x0 PUSH2 0x1829 DUP3 PUSH2 0x1CAF JUMP JUMPDEST PUSH2 0x1833 DUP2 DUP6 PUSH2 0x1CCB JUMP JUMPDEST SWAP4 POP PUSH2 0x1843 DUP2 DUP6 PUSH1 0x20 DUP7 ADD PUSH2 0x1DF4 JUMP JUMPDEST PUSH2 0x184C DUP2 PUSH2 0x1F17 JUMP JUMPDEST DUP5 ADD SWAP2 POP POP SWAP3 SWAP2 POP POP JUMP JUMPDEST PUSH1 0x0 PUSH2 0x1862 DUP3 PUSH2 0x1CAF JUMP JUMPDEST PUSH2 0x186C DUP2 DUP6 PUSH2 0x1CDC JUMP JUMPDEST SWAP4 POP PUSH2 0x187C DUP2 DUP6 PUSH1 0x20 DUP7 ADD PUSH2 0x1DF4 JUMP JUMPDEST DUP1 DUP5 ADD SWAP2 POP POP SWAP3 SWAP2 POP POP JUMP JUMPDEST PUSH1 0x0 PUSH2 0x1895 PUSH1 0x14 DUP4 PUSH2 0x1CCB JUMP JUMPDEST SWAP2 POP PUSH2 0x18A0 DUP3 PUSH2 0x1F28 JUMP JUMPDEST PUSH1 0x20 DUP3 ADD SWAP1 POP SWAP2 SWAP1 POP JUMP JUMPDEST PUSH1 0x0 PUSH2 0x18B8 PUSH1 0x16 DUP4 PUSH2 0x1CCB JUMP JUMPDEST SWAP2 POP PUSH2 0x18C3 DUP3 PUSH2 0x1F51 JUMP JUMPDEST PUSH1 0x20 DUP3 ADD SWAP1 POP SWAP2 SWAP1 POP JUMP JUMPDEST PUSH1 0x0 PUSH2 0x18DB PUSH1 0x1C DUP4 PUSH2 0x1CCB JUMP JUMPDEST SWAP2 POP PUSH2 0x18E6 DUP3 PUSH2 0x1F7A JUMP JUMPDEST PUSH1 0x20 DUP3 ADD SWAP1 POP SWAP2 SWAP1 POP JUMP JUMPDEST PUSH1 0x0 PUSH2 0x18FE PUSH1 0x1E DUP4 PUSH2 0x1CCB JUMP JUMPDEST SWAP2 POP PUSH2 0x1909 DUP3 PUSH2 0x1FA3 JUMP JUMPDEST PUSH1 0x20 DUP3 ADD SWAP1 POP SWAP2 SWAP1 POP JUMP JUMPDEST PUSH1 0x0 PUSH2 0x1921 PUSH1 0x14 DUP4 PUSH2 0x1CCB JUMP JUMPDEST SWAP2 POP PUSH2 0x192C DUP3 PUSH2 0x1FCC JUMP JUMPDEST PUSH1 0x20 DUP3 ADD SWAP1 POP SWAP2 SWAP1 POP JUMP JUMPDEST PUSH1 0x0 PUSH2 0x1944 PUSH1 0x13 DUP4 PUSH2 0x1CCB JUMP JUMPDEST SWAP2 POP PUSH2 0x194F DUP3 PUSH2 0x1FF5 JUMP JUMPDEST PUSH1 0x20 DUP3 ADD SWAP1 POP SWAP2 SWAP1 POP JUMP JUMPDEST PUSH1 0x0 PUSH2 0x1967 PUSH1 0x14 DUP4 PUSH2 0x1CCB JUMP JUMPDEST SWAP2 POP PUSH2 0x1972 DUP3 PUSH2 0x201E JUMP JUMPDEST PUSH1 0x20 DUP3 ADD SWAP1 POP SWAP2 SWAP1 POP JUMP JUMPDEST PUSH1 0x0 PUSH2 0x198A PUSH1 0xF DUP4 PUSH2 0x1CCB JUMP JUMPDEST SWAP2 POP PUSH2 0x1995 DUP3 PUSH2 0x2047 JUMP JUMPDEST PUSH1 0x20 DUP3 ADD SWAP1 POP SWAP2 SWAP1 POP JUMP JUMPDEST PUSH1 0x0 PUSH2 0x19AD PUSH1 0x14 DUP4 PUSH2 0x1CCB JUMP JUMPDEST SWAP2 POP PUSH2 0x19B8 DUP3 PUSH2 0x2070 JUMP JUMPDEST PUSH1 0x20 DUP3 ADD SWAP1 POP SWAP2 SWAP1 POP JUMP JUMPDEST PUSH1 0x0 PUSH2 0x19D0 PUSH1 0x12 DUP4 PUSH2 0x1CCB JUMP JUMPDEST SWAP2 POP PUSH2 0x19DB DUP3 PUSH2 0x2099 JUMP JUMPDEST PUSH1 0x20 DUP3 ADD SWAP1 POP SWAP2 SWAP1 POP JUMP JUMPDEST PUSH1 0x0 PUSH2 0x19F3 PUSH1 0x9 DUP4 PUSH2 0x1CCB JUMP JUMPDEST SWAP2 POP PUSH2 0x19FE DUP3 PUSH2 0x20C2 JUMP JUMPDEST PUSH1 0x20 DUP3 ADD SWAP1 POP SWAP2 SWAP1 POP JUMP JUMPDEST PUSH2 0x1A12 DUP2 PUSH2 0x1DDB JUMP JUMPDEST DUP3 MSTORE POP POP JUMP JUMPDEST PUSH1 0x0 PUSH2 0x1A24 DUP3 DUP5 PUSH2 0x1857 JUMP JUMPDEST SWAP2 POP DUP2 SWAP1 POP SWAP3 SWAP2 POP POP JUMP JUMPDEST PUSH1 0x0 PUSH1 0x20 DUP3 ADD SWAP1 POP PUSH2 0x1A44 PUSH1 0x0 DUP4 ADD DUP5 PUSH2 0x17C7 JUMP JUMPDEST SWAP3 SWAP2 POP POP JUMP JUMPDEST PUSH1 0x0 PUSH1 0x80 DUP3 ADD SWAP1 POP PUSH2 0x1A5F PUSH1 0x0 DUP4 ADD DUP8 PUSH2 0x17C7 JUMP JUMPDEST PUSH2 0x1A6C PUSH1 0x20 DUP4 ADD DUP7 PUSH2 0x17C7 JUMP JUMPDEST PUSH2 0x1A79 PUSH1 0x40 DUP4 ADD DUP6 PUSH2 0x1A09 JUMP JUMPDEST DUP2 DUP2 SUB PUSH1 0x60 DUP4 ADD MSTORE PUSH2 0x1A8B DUP2 DUP5 PUSH2 0x17E5 JUMP JUMPDEST SWAP1 POP SWAP6 SWAP5 POP POP POP POP POP JUMP JUMPDEST PUSH1 0x0 PUSH1 0x20 DUP3 ADD SWAP1 POP PUSH2 0x1AAB PUSH1 0x0 DUP4 ADD DUP5 PUSH2 0x17D6 JUMP JUMPDEST SWAP3 SWAP2 POP POP JUMP JUMPDEST PUSH1 0x0 PUSH1 0x20 DUP3 ADD SWAP1 POP DUP2 DUP2 SUB PUSH1 0x0 DUP4 ADD MSTORE PUSH2 0x1ACB DUP2 DUP5 PUSH2 0x181E JUMP JUMPDEST SWAP1 POP SWAP3 SWAP2 POP POP JUMP JUMPDEST PUSH1 0x0 PUSH1 0x20 DUP3 ADD SWAP1 POP DUP2 DUP2 SUB PUSH1 0x0 DUP4 ADD MSTORE PUSH2 0x1AEC DUP2 PUSH2 0x1888 JUMP JUMPDEST SWAP1 POP SWAP2 SWAP1 POP JUMP JUMPDEST PUSH1 0x0 PUSH1 0x20 DUP3 ADD SWAP1 POP DUP2 DUP2 SUB PUSH1 0x0 DUP4 ADD MSTORE PUSH2 0x1B0C DUP2 PUSH2 0x18AB JUMP JUMPDEST SWAP1 POP SWAP2 SWAP1 POP JUMP JUMPDEST PUSH1 0x0 PUSH1 0x20 DUP3 ADD SWAP1 POP DUP2 DUP2 SUB PUSH1 0x0 DUP4 ADD MSTORE PUSH2 0x1B2C DUP2 PUSH2 0x18CE JUMP JUMPDEST SWAP1 POP SWAP2 SWAP1 POP JUMP JUMPDEST PUSH1 0x0 PUSH1 0x20 DUP3 ADD SWAP1 POP DUP2 DUP2 SUB PUSH1 0x0 DUP4 ADD MSTORE PUSH2 0x1B4C DUP2 PUSH2 0x18F1 JUMP JUMPDEST SWAP1 POP SWAP2 SWAP1 POP JUMP JUMPDEST PUSH1 0x0 PUSH1 0x20 DUP3 ADD SWAP1 POP DUP2 DUP2 SUB PUSH1 0x0 DUP4 ADD MSTORE PUSH2 0x1B6C DUP2 PUSH2 0x1914 JUMP JUMPDEST SWAP1 POP SWAP2 SWAP1 POP JUMP JUMPDEST PUSH1 0x0 PUSH1 0x20 DUP3 ADD SWAP1 POP DUP2 DUP2 SUB PUSH1 0x0 DUP4 ADD MSTORE PUSH2 0x1B8C DUP2 PUSH2 0x1937 JUMP JUMPDEST SWAP1 POP SWAP2 SWAP1 POP JUMP JUMPDEST PUSH1 0x0 PUSH1 0x20 DUP3 ADD SWAP1 POP DUP2 DUP2 SUB PUSH1 0x0 DUP4 ADD MSTORE PUSH2 0x1BAC DUP2 PUSH2 0x195A JUMP JUMPDEST SWAP1 POP SWAP2 SWAP1 POP JUMP JUMPDEST PUSH1 0x0 PUSH1 0x20 DUP3 ADD SWAP1 POP DUP2 DUP2 SUB PUSH1 0x0 DUP4 ADD MSTORE PUSH2 0x1BCC DUP2 PUSH2 0x197D JUMP JUMPDEST SWAP1 POP SWAP2 SWAP1 POP JUMP JUMPDEST PUSH1 0x0 PUSH1 0x20 DUP3 ADD SWAP1 POP DUP2 DUP2 SUB PUSH1 0x0 DUP4 ADD MSTORE PUSH2 0x1BEC DUP2 PUSH2 0x19A0 JUMP JUMPDEST SWAP1 POP SWAP2 SWAP1 POP JUMP JUMPDEST PUSH1 0x0 PUSH1 0x20 DUP3 ADD SWAP1 POP DUP2 DUP2 SUB PUSH1 0x0 DUP4 ADD MSTORE PUSH2 0x1C0C DUP2 PUSH2 0x19C3 JUMP JUMPDEST SWAP1 POP SWAP2 SWAP1 POP JUMP JUMPDEST PUSH1 0x0 PUSH1 0x20 DUP3 ADD SWAP1 POP DUP2 DUP2 SUB PUSH1 0x0 DUP4 ADD MSTORE PUSH2 0x1C2C DUP2 PUSH2 0x19E6 JUMP JUMPDEST SWAP1 POP SWAP2 SWAP1 POP JUMP JUMPDEST PUSH1 0x0 PUSH1 0x20 DUP3 ADD SWAP1 POP PUSH2 0x1C48 PUSH1 0x0 DUP4 ADD DUP5 PUSH2 0x1A09 JUMP JUMPDEST SWAP3 SWAP2 POP POP JUMP JUMPDEST PUSH1 0x0 PUSH2 0x1C58 PUSH2 0x1C69 JUMP JUMPDEST SWAP1 POP PUSH2 0x1C64 DUP3 DUP3 PUSH2 0x1E59 JUMP JUMPDEST SWAP2 SWAP1 POP JUMP JUMPDEST PUSH1 0x0 PUSH1 0x40 MLOAD SWAP1 POP SWAP1 JUMP JUMPDEST PUSH1 0x0 PUSH8 0xFFFFFFFFFFFFFFFF DUP3 GT ISZERO PUSH2 0x1C8E JUMPI PUSH2 0x1C8D PUSH2 0x1EE8 JUMP JUMPDEST JUMPDEST PUSH2 0x1C97 DUP3 PUSH2 0x1F17 JUMP JUMPDEST SWAP1 POP PUSH1 0x20 DUP2 ADD SWAP1 POP SWAP2 SWAP1 POP JUMP JUMPDEST PUSH1 0x0 DUP2 MLOAD SWAP1 POP SWAP2 SWAP1 POP JUMP JUMPDEST PUSH1 0x0 DUP2 MLOAD SWAP1 POP SWAP2 SWAP1 POP JUMP JUMPDEST PUSH1 0x0 DUP3 DUP3 MSTORE PUSH1 0x20 DUP3 ADD SWAP1 POP SWAP3 SWAP2 POP POP JUMP JUMPDEST PUSH1 0x0 DUP3 DUP3 MSTORE PUSH1 0x20 DUP3 ADD SWAP1 POP SWAP3 SWAP2 POP POP JUMP JUMPDEST PUSH1 0x0 DUP2 SWAP1 POP SWAP3 SWAP2 POP POP JUMP JUMPDEST PUSH1 0x0 PUSH2 0x1CF2 DUP3 PUSH2 0x1DDB JUMP JUMPDEST SWAP2 POP PUSH2 0x1CFD DUP4 PUSH2 0x1DDB JUMP JUMPDEST SWAP3 POP DUP3 PUSH32 0xFFFFFFFFFFFFFFFFFFFFFFFFFFFFFFFFFFFFFFFFFFFFFFFFFFFFFFFFFFFFFFFF SUB DUP3 GT ISZERO PUSH2 0x1D32 JUMPI PUSH2 0x1D31 PUSH2 0x1E8A JUMP JUMPDEST JUMPDEST DUP3 DUP3 ADD SWAP1 POP SWAP3 SWAP2 POP POP JUMP JUMPDEST PUSH1 0x0 PUSH2 0x1D48 DUP3 PUSH2 0x1DDB JUMP JUMPDEST SWAP2 POP PUSH2 0x1D53 DUP4 PUSH2 0x1DDB JUMP JUMPDEST SWAP3 POP DUP3 DUP3 LT ISZERO PUSH2 0x1D66 JUMPI PUSH2 0x1D65 PUSH2 0x1E8A JUMP JUMPDEST JUMPDEST DUP3 DUP3 SUB SWAP1 POP SWAP3 SWAP2 POP POP JUMP JUMPDEST PUSH1 0x0 PUSH2 0x1D7C DUP3 PUSH2 0x1DBB JUMP JUMPDEST SWAP1 POP SWAP2 SWAP1 POP JUMP JUMPDEST PUSH1 0x0 DUP2 ISZERO ISZERO SWAP1 POP SWAP2 SWAP1 POP JUMP JUMPDEST PUSH1 0x0 PUSH32 0xFFFFFFFF00000000000000000000000000000000000000000000000000000000 DUP3 AND SWAP1 POP SWAP2 SWAP1 POP JUMP JUMPDEST PUSH1 0x0 PUSH20 0xFFFFFFFFFFFFFFFFFFFFFFFFFFFFFFFFFFFFFFFF DUP3 AND SWAP1 POP SWAP2 SWAP1 POP JUMP JUMPDEST PUSH1 0x0 DUP2 SWAP1 POP SWAP2 SWAP1 POP JUMP JUMPDEST DUP3 DUP2 DUP4 CALLDATACOPY PUSH1 0x0 DUP4 DUP4 ADD MSTORE POP POP POP JUMP JUMPDEST PUSH1 0x0 JUMPDEST DUP4 DUP2 LT ISZERO PUSH2 0x1E12 JUMPI DUP1 DUP3 ADD MLOAD DUP2 DUP5 ADD MSTORE PUSH1 0x20 DUP2 ADD SWAP1 POP PUSH2 0x1DF7 JUMP JUMPDEST DUP4 DUP2 GT ISZERO PUSH2 0x1E21 JUMPI PUSH1 0x0 DUP5 DUP5 ADD MSTORE JUMPDEST POP POP POP POP JUMP JUMPDEST PUSH1 0x0 PUSH1 0x2 DUP3 DIV SWAP1 POP PUSH1 0x1 DUP3 AND DUP1 PUSH2 0x1E3F JUMPI PUSH1 0x7F DUP3 AND SWAP2 POP JUMPDEST PUSH1 0x20 DUP3 LT DUP2 EQ ISZERO PUSH2 0x1E53 JUMPI PUSH2 0x1E52 PUSH2 0x1EB9 JUMP JUMPDEST JUMPDEST POP SWAP2 SWAP1 POP JUMP JUMPDEST PUSH2 0x1E62 DUP3 PUSH2 0x1F17 JUMP JUMPDEST DUP2 ADD DUP2 DUP2 LT PUSH8 0xFFFFFFFFFFFFFFFF DUP3 GT OR ISZERO PUSH2 0x1E81 JUMPI PUSH2 0x1E80 PUSH2 0x1EE8 JUMP JUMPDEST JUMPDEST DUP1 PUSH1 0x40 MSTORE POP POP POP JUMP JUMPDEST PUSH32 0x4E487B7100000000000000000000000000000000000000000000000000000000 PUSH1 0x0 MSTORE PUSH1 0x11 PUSH1 0x4 MSTORE PUSH1 0x24 PUSH1 0x0 REVERT JUMPDEST PUSH32 0x4E487B7100000000000000000000000000000000000000000000000000000000 PUSH1 0x0 MSTORE PUSH1 0x22 PUSH1 0x4 MSTORE PUSH1 0x24 PUSH1 0x0 REVERT JUMPDEST PUSH32 0x4E487B7100000000000000000000000000000000000000000000000000000000 PUSH1 0x0 MSTORE PUSH1 0x41 PUSH1 0x4 MSTORE PUSH1 0x24 PUSH1 0x0 REVERT JUMPDEST PUSH1 0x0 PUSH1 0x1F NOT PUSH1 0x1F DUP4 ADD AND SWAP1 POP SWAP2 SWAP1 POP JUMP JUMPDEST PUSH32 0x746F6B656E4964206F7574206F662072616E6765000000000000000000000000 PUSH1 0x0 DUP3 ADD MSTORE POP JUMP JUMPDEST PUSH32 0x6E6F74206F776E6572206E6F7220617070726F76656400000000000000000000 PUSH1 0x0 DUP3 ADD MSTORE POP JUMP JUMPDEST PUSH32 0x7472616E7366657220746F20746865207A65726F206164647265737300000000 PUSH1 0x0 DUP3 ADD MSTORE POP JUMP JUMPDEST PUSH32 0x6E6F74206F776E6572206E6F7220617070726F76656420666F7220616C6C0000 PUSH1 0x0 DUP3 ADD MSTORE POP JUMP JUMPDEST PUSH32 0x6D696E7420746F207A65726F2061646472657373000000000000000000000000 PUSH1 0x0 DUP3 ADD MSTORE POP JUMP JUMPDEST PUSH32 0x746F6B656E20646F65736E277420657869737400000000000000000000000000 PUSH1 0x0 DUP3 ADD MSTORE POP JUMP JUMPDEST PUSH32 0x6F776E6572203D207A65726F2061646472657373000000000000000000000000 PUSH1 0x0 DUP3 ADD MSTORE POP JUMP JUMPDEST PUSH32 0x546F6B656E204E6F742045786973740000000000000000000000000000000000 PUSH1 0x0 DUP3 ADD MSTORE POP JUMP JUMPDEST PUSH32 0x746F6B656E20616C7265616479206D696E746564000000000000000000000000 PUSH1 0x0 DUP3 ADD MSTORE POP JUMP JUMPDEST PUSH32 0x6E6F742045524337323152656365697665720000000000000000000000000000 PUSH1 0x0 DUP3 ADD MSTORE POP JUMP JUMPDEST PUSH32 0x6E6F74206F776E65720000000000000000000000000000000000000000000000 PUSH1 0x0 DUP3 ADD MSTORE POP JUMP JUMPDEST PUSH2 0x20F4 DUP2 PUSH2 0x1D71 JUMP JUMPDEST DUP2 EQ PUSH2 0x20FF JUMPI PUSH1 0x0 DUP1 REVERT JUMPDEST POP JUMP JUMPDEST PUSH2 0x210B DUP2 PUSH2 0x1D83 JUMP JUMPDEST DUP2 EQ PUSH2 0x2116 JUMPI PUSH1 0x0 DUP1 REVERT JUMPDEST POP JUMP JUMPDEST PUSH2 0x2122 DUP2 PUSH2 0x1D8F JUMP JUMPDEST DUP2 EQ PUSH2 0x212D JUMPI PUSH1 0x0 DUP1 REVERT JUMPDEST POP JUMP JUMPDEST PUSH2 0x2139 DUP2 PUSH2 0x1DDB JUMP JUMPDEST DUP2 EQ PUSH2 0x2144 JUMPI PUSH1 0x0 DUP1 REVERT JUMPDEST POP JUMP INVALID PUSH9 0x747470733A2F2F766F PUSH10 0x64746563682E636E2F69 0x2F ORIGIN ADDRESS ORIGIN ORIGIN 0x2F BALANCE BALANCE 0x2F ORIGIN ADDRESS 0x2F PUSH15 0x776A7637742E6A706567A264697066 PUSH20 0x58221220BEFDB00827F5E501598F92EE2964D866 MSTORE MSTORE BALANCE 0xC 0x49 0xB2 PUSH31 0x3C458B3E4F324F6C2964736F6C634300080400330000000000000000000000 "
				},
				"gasEstimates": {
					"creation": {
						"codeDepositCost": "1723400",
						"executionCost": "infinite",
						"totalCost": "infinite"
					},
					"external": {
						"MAX_CBIS()": "1151",
						"approve(address,uint256)": "25556",
						"balanceOf(address)": "1624",
						"getApproved(uint256)": "2585",
						"isApprovedForAll(address,address)": "infinite",
						"mint(address,uint256)": "infinite",
						"name()": "infinite",
						"ownerOf(uint256)": "1679",
						"safeTransferFrom(address,address,uint256)": "infinite",
						"safeTransferFrom(address,address,uint256,bytes)": "infinite",
						"setApprovalForAll(address,bool)": "infinite",
						"supportsInterface(bytes4)": "754",
						"symbol()": "infinite",
						"tokenURI(uint256)": "infinite",
						"transferFrom(address,address,uint256)": "infinite"
					},
					"internal": {
						"_baseURI()": "infinite"
					}
				},
				"methodIdentifiers": {
					"MAX_CBIS()": "b1a3a695",
					"approve(address,uint256)": "095ea7b3",
					"balanceOf(address)": "70a08231",
					"getApproved(uint256)": "081812fc",
					"isApprovedForAll(address,address)": "e985e9c5",
					"mint(address,uint256)": "40c10f19",
					"name()": "06fdde03",
					"ownerOf(uint256)": "6352211e",
					"safeTransferFrom(address,address,uint256)": "42842e0e",
					"safeTransferFrom(address,address,uint256,bytes)": "b88d4fde",
					"setApprovalForAll(address,bool)": "a22cb465",
					"supportsInterface(bytes4)": "01ffc9a7",
					"symbol()": "95d89b41",
					"tokenURI(uint256)": "c87b56dd",
					"transferFrom(address,address,uint256)": "23b872dd"
				}
			},
			"storageLayout": {
				"storage": [
					{
						"astId": 230,
						"contract": "shijian/6/CBI.sol:CBI",
						"label": "name",
						"offset": 0,
						"slot": "0",
						"type": "t_string_storage"
					},
					{
						"astId": 233,
						"contract": "shijian/6/CBI.sol:CBI",
						"label": "symbol",
						"offset": 0,
						"slot": "1",
						"type": "t_string_storage"
					},
					{
						"astId": 237,
						"contract": "shijian/6/CBI.sol:CBI",
						"label": "_owners",
						"offset": 0,
						"slot": "2",
						"type": "t_mapping(t_uint256,t_address)"
					},
					{
						"astId": 241,
						"contract": "shijian/6/CBI.sol:CBI",
						"label": "_balances",
						"offset": 0,
						"slot": "3",
						"type": "t_mapping(t_address,t_uint256)"
					},
					{
						"astId": 245,
						"contract": "shijian/6/CBI.sol:CBI",
						"label": "_tokenApprovals",
						"offset": 0,
						"slot": "4",
						"type": "t_mapping(t_uint256,t_address)"
					},
					{
						"astId": 251,
						"contract": "shijian/6/CBI.sol:CBI",
						"label": "_operatorApprovals",
						"offset": 0,
						"slot": "5",
						"type": "t_mapping(t_address,t_mapping(t_address,t_bool))"
					},
					{
						"astId": 7,
						"contract": "shijian/6/CBI.sol:CBI",
						"label": "MAX_CBIS",
						"offset": 0,
						"slot": "6",
						"type": "t_uint256"
					}
				],
				"types": {
					"t_address": {
						"encoding": "inplace",
						"label": "address",
						"numberOfBytes": "20"
					},
					"t_bool": {
						"encoding": "inplace",
						"label": "bool",
						"numberOfBytes": "1"
					},
					"t_mapping(t_address,t_bool)": {
						"encoding": "mapping",
						"key": "t_address",
						"label": "mapping(address => bool)",
						"numberOfBytes": "32",
						"value": "t_bool"
					},
					"t_mapping(t_address,t_mapping(t_address,t_bool))": {
						"encoding": "mapping",
						"key": "t_address",
						"label": "mapping(address => mapping(address => bool))",
						"numberOfBytes": "32",
						"value": "t_mapping(t_address,t_bool)"
					},
					"t_mapping(t_address,t_uint256)": {
						"encoding": "mapping",
						"key": "t_address",
						"label": "mapping(address => uint256)",
						"numberOfBytes": "32",
						"value": "t_uint256"
					},
					"t_mapping(t_uint256,t_address)": {
						"encoding": "mapping",
						"key": "t_uint256",
						"label": "mapping(uint256 => address)",
						"numberOfBytes": "32",
						"value": "t_address"
					},
					"t_string_storage": {
						"encoding": "bytes",
						"label": "string",
						"numberOfBytes": "32"
					},
					"t_uint256": {
						"encoding": "inplace",
						"label": "uint256",
						"numberOfBytes": "32"
					}
				}
			},
			"userdoc": {
				"kind": "user",
				"methods": {
					"safeTransferFrom(address,address,uint256,bytes)": {
						"notice": "实现IERC721的safeTransferFrom，安全转账，调用了_safeTransfer函数。"
					},
					"tokenURI(uint256)": {
						"notice": "实现IERC721Metadata的tokenURI函数，查询metadata。"
					}
				},
				"version": 1
			}
		}
	}
}