{
	"data": {
		"bytecode": {
			"linkReferences": {},
			"object": "6101ce61004e600b8282823980515f1a607314610042577f4e487b71000000000000000000000000000000000000000000000000000000005f525f60045260245ffd5b305f52607381538281f3fe730000000000000000000000000000000000000000301460806040526004361061003f575f3560e01c806380533cd514610043578063f6baafa51461007f575b5f80fd5b81801561004e575f80fd5b50610069600480360381019061006491906100fe565b6100af565b6040516100769190610154565b60405180910390f35b6100996004803603810190610094919061016d565b6100bd565b6040516100a69190610154565b60405180910390f35b5f8183558254905092915050565b5f81549050919050565b5f80fd5b5f819050919050565b6100dd816100cb565b81146100e7575f80fd5b50565b5f813590506100f8816100d4565b92915050565b5f8060408385031215610114576101136100c7565b5b5f610121858286016100ea565b9250506020610132858286016100ea565b9150509250929050565b5f819050919050565b61014e8161013c565b82525050565b5f6020820190506101675f830184610145565b92915050565b5f60208284031215610182576101816100c7565b5b5f61018f848285016100ea565b9150509291505056fea26469706673582212201583bda48bc79c4d45189dafd7c70bc6c721cb9bbfbbe2a7570081d7460bb52864736f6c63430008150033",
			"opcodes": "PUSH2 0x1CE PUSH2 0x4E PUSH1 0xB DUP3 DUP3 DUP3 CODECOPY DUP1 MLOAD PUSH0 BYTE PUSH1 0x73 EQ PUSH2 0x42 JUMPI PUSH32 0x4E487B7100000000000000000000000000000000000000000000000000000000 PUSH0 MSTORE PUSH0 PUSH1 0x4 MSTORE PUSH1 0x24 PUSH0 REVERT JUMPDEST ADDRESS PUSH0 MSTORE PUSH1 0x73 DUP2 MSTORE8 DUP3 DUP2 RETURN INVALID PUSH20 0x0 ADDRESS EQ PUSH1 0x80 PUSH1 0x40 MSTORE PUSH1 0x4 CALLDATASIZE LT PUSH2 0x3F JUMPI PUSH0 CALLDATALOAD PUSH1 0xE0 SHR DUP1 PUSH4 0x80533CD5 EQ PUSH2 0x43 JUMPI DUP1 PUSH4 0xF6BAAFA5 EQ PUSH2 0x7F JUMPI JUMPDEST PUSH0 DUP1 REVERT JUMPDEST DUP2 DUP1 ISZERO PUSH2 0x4E JUMPI PUSH0 DUP1 REVERT JUMPDEST POP PUSH2 0x69 PUSH1 0x4 DUP1 CALLDATASIZE SUB DUP2 ADD SWAP1 PUSH2 0x64 SWAP2 SWAP1 PUSH2 0xFE JUMP JUMPDEST PUSH2 0xAF JUMP JUMPDEST PUSH1 0x40 MLOAD PUSH2 0x76 SWAP2 SWAP1 PUSH2 0x154 JUMP JUMPDEST PUSH1 0x40 MLOAD DUP1 SWAP2 SUB SWAP1 RETURN JUMPDEST PUSH2 0x99 PUSH1 0x4 DUP1 CALLDATASIZE SUB DUP2 ADD SWAP1 PUSH2 0x94 SWAP2 SWAP1 PUSH2 0x16D JUMP JUMPDEST PUSH2 0xBD JUMP JUMPDEST PUSH1 0x40 MLOAD PUSH2 0xA6 SWAP2 SWAP1 PUSH2 0x154 JUMP JUMPDEST PUSH1 0x40 MLOAD DUP1 SWAP2 SUB SWAP1 RETURN JUMPDEST PUSH0 DUP2 DUP4 SSTORE DUP3 SLOAD SWAP1 POP SWAP3 SWAP2 POP POP JUMP JUMPDEST PUSH0 DUP2 SLOAD SWAP1 POP SWAP2 SWAP1 POP JUMP JUMPDEST PUSH0 DUP1 REVERT JUMPDEST PUSH0 DUP2 SWAP1 POP SWAP2 SWAP1 POP JUMP JUMPDEST PUSH2 0xDD DUP2 PUSH2 0xCB JUMP JUMPDEST DUP2 EQ PUSH2 0xE7 JUMPI PUSH0 DUP1 REVERT JUMPDEST POP JUMP JUMPDEST PUSH0 DUP2 CALLDATALOAD SWAP1 POP PUSH2 0xF8 DUP2 PUSH2 0xD4 JUMP JUMPDEST SWAP3 SWAP2 POP POP JUMP JUMPDEST PUSH0 DUP1 PUSH1 0x40 DUP4 DUP6 SUB SLT ISZERO PUSH2 0x114 JUMPI PUSH2 0x113 PUSH2 0xC7 JUMP JUMPDEST JUMPDEST PUSH0 PUSH2 0x121 DUP6 DUP3 DUP7 ADD PUSH2 0xEA JUMP JUMPDEST SWAP3 POP POP PUSH1 0x20 PUSH2 0x132 DUP6 DUP3 DUP7 ADD PUSH2 0xEA JUMP JUMPDEST SWAP2 POP POP SWAP3 POP SWAP3 SWAP1 POP JUMP JUMPDEST PUSH0 DUP2 SWAP1 POP SWAP2 SWAP1 POP JUMP JUMPDEST PUSH2 0x14E DUP2 PUSH2 0x13C JUMP JUMPDEST DUP3 MSTORE POP POP JUMP JUMPDEST PUSH0 PUSH1 0x20 DUP3 ADD SWAP1 POP PUSH2 0x167 PUSH0 DUP4 ADD DUP5 PUSH2 0x145 JUMP JUMPDEST SWAP3 SWAP2 POP POP JUMP JUMPDEST PUSH0 PUSH1 0x20 DUP3 DUP5 SUB SLT ISZERO PUSH2 0x182 JUMPI PUSH2 0x181 PUSH2 0xC7 JUMP JUMPDEST JUMPDEST PUSH0 PUSH2 0x18F DUP5 DUP3 DUP6 ADD PUSH2 0xEA JUMP JUMPDEST SWAP2 POP POP SWAP3 SWAP2 POP POP JUMP INVALID LOG2 PUSH5 0x6970667358 0x22 SLT KECCAK256 ISZERO DUP4 0xBD LOG4 DUP12 0xC7 SWAP13 0x4D GASLIMIT XOR SWAP14 0xAF 0xD7 0xC7 SIGNEXTEND 0xC6 0xC7 0x21 0xCB SWAP12 0xBF 0xBB 0xE2 0xA7 JUMPI STOP DUP2 0xD7 CHAINID SIGNEXTEND 0xB5 0x28 PUSH5 0x736F6C6343 STOP ADDMOD ISZERO STOP CALLER "
		},
		"gasEstimates": {
			"creation": {
				"codeDepositCost": "92400",
				"executionCost": "164",
				"totalCost": "92564"
			},
			"external": {
				"getStorageAt(uint256)": "2677",
				"setStorageAt(uint256,uint256)": "infinite"
			}
		},
		"methodIdentifiers": {
			"getStorageAt(uint256)": "f6baafa5",
			"setStorageAt(uint256,uint256)": "80533cd5"
		}
	},
	"abi": [
		{
			"inputs": [
				{
					"internalType": "uint256",
					"name": "slot",
					"type": "uint256"
				}
			],
			"name": "getStorageAt",
			"outputs": [
				{
					"internalType": "bytes32",
					"name": "ret",
					"type": "bytes32"
				}
			],
			"stateMutability": "view",
			"type": "function"
		}
	]
}