{
	"data": {
		"bytecode": {
			"linkReferences": {
				"class/storage/UseStorage.sol": {
					"Storage": [
						{
							"length": 20,
							"start": 1744
						},
						{
							"length": 20,
							"start": 1985
						}
					]
				}
			},
			"object": "60a060405260015f5560026001556040518060400160405280601a81526020017f6368656e67647578696e7869676f6e676368656e6764617875650000000000008152506002908162000053919062000426565b5034801562000060575f80fd5b50600360808181525050604051806060016040528060056fffffffffffffffffffffffffffffffff16815260200160066fffffffffffffffffffffffffffffffff168152602001604051806040016040528060078152602001600881525081525060035f820151815f015f6101000a8154816fffffffffffffffffffffffffffffffff02191690836fffffffffffffffffffffffffffffffff1602179055506020820151815f0160106101000a8154816fffffffffffffffffffffffffffffffff02191690836fffffffffffffffffffffffffffffffff1602179055506040820151816001019060026200015692919062000160565b509050506200050a565b826002810192821562000192579160200282015b828111156200019157825182559160200191906001019062000174565b5b509050620001a19190620001a5565b5090565b5b80821115620001be575f815f905550600101620001a6565b5090565b5f81519050919050565b7f4e487b71000000000000000000000000000000000000000000000000000000005f52604160045260245ffd5b7f4e487b71000000000000000000000000000000000000000000000000000000005f52602260045260245ffd5b5f60028204905060018216806200023e57607f821691505b602082108103620002545762000253620001f9565b5b50919050565b5f819050815f5260205f209050919050565b5f6020601f8301049050919050565b5f82821b905092915050565b5f60088302620002b87fffffffffffffffffffffffffffffffffffffffffffffffffffffffffffffffff826200027b565b620002c486836200027b565b95508019841693508086168417925050509392505050565b5f819050919050565b5f819050919050565b5f6200030e620003086200030284620002dc565b620002e5565b620002dc565b9050919050565b5f819050919050565b6200032983620002ee565b62000341620003388262000315565b84845462000287565b825550505050565b5f90565b6200035762000349565b620003648184846200031e565b505050565b5b818110156200038b576200037f5f826200034d565b6001810190506200036a565b5050565b601f821115620003da57620003a4816200025a565b620003af846200026c565b81016020851015620003bf578190505b620003d7620003ce856200026c565b83018262000369565b50505b505050565b5f82821c905092915050565b5f620003fc5f1984600802620003df565b1980831691505092915050565b5f620004168383620003eb565b9150826002028217905092915050565b6200043182620001c2565b67ffffffffffffffff8111156200044d576200044c620001cc565b5b62000459825462000226565b620004668282856200038f565b5f60209050601f8311600181146200049c575f841562000487578287015190505b62000493858262000409565b86555062000502565b601f198416620004ac866200025a565b5f5b82811015620004d557848901518255600182019150602085019450602081019050620004ae565b86831015620004f55784890151620004f1601f891682620003eb565b8355505b6001600288020188555050505b505050505050565b6080516106d0620005235f395f61023201526106d05ff3fe608060405234801561000f575f80fd5b5060043610610086575f3560e01c8063c3da42b811610059578063c3da42b814610114578063e5aa3d5814610132578063f6baafa514610151578063ffae15ba1461018157610086565b80630dbe671f1461008a5780634df7e3d0146100a857806380533cd5146100c65780638a054ac2146100f6575b5f80fd5b61009261019f565b60405161009f91906103bd565b60405180910390f35b6100b06101a4565b6040516100bd91906103bd565b60405180910390f35b6100e060048036038101906100db9190610404565b6101aa565b6040516100ed919061045a565b60405180910390f35b6100fe61022b565b60405161010b91906103bd565b60405180910390f35b61011c610230565b60405161012991906103bd565b60405180910390f35b61013a610254565b60405161014892919061049d565b60405180910390f35b61016b600480360381019061016691906104c4565b61029b565b604051610178919061045a565b60405180910390f35b610189610319565b6040516101969190610579565b60405180910390f35b5f5481565b60015481565b5f73__$25d14137b98adc835ffb7349e3ed0842da$__6380533cd584846040518363ffffffff1660e01b81526004016101e49291906105a8565b602060405180830381865af41580156101ff573d5f803e3d5ffd5b505050506040513d601f19601f8201168201806040525081019061022391906105f9565b905092915050565b600481565b7f000000000000000000000000000000000000000000000000000000000000000081565b6003805f015f9054906101000a90046fffffffffffffffffffffffffffffffff1690805f0160109054906101000a90046fffffffffffffffffffffffffffffffff16905082565b5f73__$25d14137b98adc835ffb7349e3ed0842da$__63f6baafa5836040518263ffffffff1660e01b81526004016102d39190610624565b602060405180830381865af41580156102ee573d5f803e3d5ffd5b505050506040513d601f19601f8201168201806040525081019061031291906105f9565b9050919050565b600280546103269061066a565b80601f01602080910402602001604051908101604052809291908181526020018280546103529061066a565b801561039d5780601f106103745761010080835404028352916020019161039d565b820191905f5260205f20905b81548152906001019060200180831161038057829003601f168201915b505050505081565b5f819050919050565b6103b7816103a5565b82525050565b5f6020820190506103d05f8301846103ae565b92915050565b5f80fd5b6103e3816103a5565b81146103ed575f80fd5b50565b5f813590506103fe816103da565b92915050565b5f806040838503121561041a576104196103d6565b5b5f610427858286016103f0565b9250506020610438858286016103f0565b9150509250929050565b5f819050919050565b61045481610442565b82525050565b5f60208201905061046d5f83018461044b565b92915050565b5f6fffffffffffffffffffffffffffffffff82169050919050565b61049781610473565b82525050565b5f6040820190506104b05f83018561048e565b6104bd602083018461048e565b9392505050565b5f602082840312156104d9576104d86103d6565b5b5f6104e6848285016103f0565b91505092915050565b5f81519050919050565b5f82825260208201905092915050565b5f5b8381101561052657808201518184015260208101905061050b565b5f8484015250505050565b5f601f19601f8301169050919050565b5f61054b826104ef565b61055581856104f9565b9350610565818560208601610509565b61056e81610531565b840191505092915050565b5f6020820190508181035f8301526105918184610541565b905092915050565b6105a2816103a5565b82525050565b5f6040820190506105bb5f830185610599565b6105c86020830184610599565b9392505050565b6105d881610442565b81146105e2575f80fd5b50565b5f815190506105f3816105cf565b92915050565b5f6020828403121561060e5761060d6103d6565b5b5f61061b848285016105e5565b91505092915050565b5f6020820190506106375f830184610599565b92915050565b7f4e487b71000000000000000000000000000000000000000000000000000000005f52602260045260245ffd5b5f600282049050600182168061068157607f821691505b6020821081036106945761069361063d565b5b5091905056fea2646970667358221220ff3d1a360a90950fdd972afbfd792a655b59f602cc92ca3928ed58784c84d8bd64736f6c63430008150033",
			"opcodes": "PUSH1 0xA0 PUSH1 0x40 MSTORE PUSH1 0x1 PUSH0 SSTORE PUSH1 0x2 PUSH1 0x1 SSTORE PUSH1 0x40 MLOAD DUP1 PUSH1 0x40 ADD PUSH1 0x40 MSTORE DUP1 PUSH1 0x1A DUP2 MSTORE PUSH1 0x20 ADD PUSH32 0x6368656E67647578696E7869676F6E676368656E676461787565000000000000 DUP2 MSTORE POP PUSH1 0x2 SWAP1 DUP2 PUSH3 0x53 SWAP2 SWAP1 PUSH3 0x426 JUMP JUMPDEST POP CALLVALUE DUP1 ISZERO PUSH3 0x60 JUMPI PUSH0 DUP1 REVERT JUMPDEST POP PUSH1 0x3 PUSH1 0x80 DUP2 DUP2 MSTORE POP POP PUSH1 0x40 MLOAD DUP1 PUSH1 0x60 ADD PUSH1 0x40 MSTORE DUP1 PUSH1 0x5 PUSH16 0xFFFFFFFFFFFFFFFFFFFFFFFFFFFFFFFF AND DUP2 MSTORE PUSH1 0x20 ADD PUSH1 0x6 PUSH16 0xFFFFFFFFFFFFFFFFFFFFFFFFFFFFFFFF AND DUP2 MSTORE PUSH1 0x20 ADD PUSH1 0x40 MLOAD DUP1 PUSH1 0x40 ADD PUSH1 0x40 MSTORE DUP1 PUSH1 0x7 DUP2 MSTORE PUSH1 0x20 ADD PUSH1 0x8 DUP2 MSTORE POP DUP2 MSTORE POP PUSH1 0x3 PUSH0 DUP3 ADD MLOAD DUP2 PUSH0 ADD PUSH0 PUSH2 0x100 EXP DUP2 SLOAD DUP2 PUSH16 0xFFFFFFFFFFFFFFFFFFFFFFFFFFFFFFFF MUL NOT AND SWAP1 DUP4 PUSH16 0xFFFFFFFFFFFFFFFFFFFFFFFFFFFFFFFF AND MUL OR SWAP1 SSTORE POP PUSH1 0x20 DUP3 ADD MLOAD DUP2 PUSH0 ADD PUSH1 0x10 PUSH2 0x100 EXP DUP2 SLOAD DUP2 PUSH16 0xFFFFFFFFFFFFFFFFFFFFFFFFFFFFFFFF MUL NOT AND SWAP1 DUP4 PUSH16 0xFFFFFFFFFFFFFFFFFFFFFFFFFFFFFFFF AND MUL OR SWAP1 SSTORE POP PUSH1 0x40 DUP3 ADD MLOAD DUP2 PUSH1 0x1 ADD SWAP1 PUSH1 0x2 PUSH3 0x156 SWAP3 SWAP2 SWAP1 PUSH3 0x160 JUMP JUMPDEST POP SWAP1 POP POP PUSH3 0x50A JUMP JUMPDEST DUP3 PUSH1 0x2 DUP2 ADD SWAP3 DUP3 ISZERO PUSH3 0x192 JUMPI SWAP2 PUSH1 0x20 MUL DUP3 ADD JUMPDEST DUP3 DUP2 GT ISZERO PUSH3 0x191 JUMPI DUP3 MLOAD DUP3 SSTORE SWAP2 PUSH1 0x20 ADD SWAP2 SWAP1 PUSH1 0x1 ADD SWAP1 PUSH3 0x174 JUMP JUMPDEST JUMPDEST POP SWAP1 POP PUSH3 0x1A1 SWAP2 SWAP1 PUSH3 0x1A5 JUMP JUMPDEST POP SWAP1 JUMP JUMPDEST JUMPDEST DUP1 DUP3 GT ISZERO PUSH3 0x1BE JUMPI PUSH0 DUP2 PUSH0 SWAP1 SSTORE POP PUSH1 0x1 ADD PUSH3 0x1A6 JUMP JUMPDEST POP SWAP1 JUMP JUMPDEST PUSH0 DUP2 MLOAD SWAP1 POP SWAP2 SWAP1 POP JUMP JUMPDEST PUSH32 0x4E487B7100000000000000000000000000000000000000000000000000000000 PUSH0 MSTORE PUSH1 0x41 PUSH1 0x4 MSTORE PUSH1 0x24 PUSH0 REVERT JUMPDEST PUSH32 0x4E487B7100000000000000000000000000000000000000000000000000000000 PUSH0 MSTORE PUSH1 0x22 PUSH1 0x4 MSTORE PUSH1 0x24 PUSH0 REVERT JUMPDEST PUSH0 PUSH1 0x2 DUP3 DIV SWAP1 POP PUSH1 0x1 DUP3 AND DUP1 PUSH3 0x23E JUMPI PUSH1 0x7F DUP3 AND SWAP2 POP JUMPDEST PUSH1 0x20 DUP3 LT DUP2 SUB PUSH3 0x254 JUMPI PUSH3 0x253 PUSH3 0x1F9 JUMP JUMPDEST JUMPDEST POP SWAP2 SWAP1 POP JUMP JUMPDEST PUSH0 DUP2 SWAP1 POP DUP2 PUSH0 MSTORE PUSH1 0x20 PUSH0 KECCAK256 SWAP1 POP SWAP2 SWAP1 POP JUMP JUMPDEST PUSH0 PUSH1 0x20 PUSH1 0x1F DUP4 ADD DIV SWAP1 POP SWAP2 SWAP1 POP JUMP JUMPDEST PUSH0 DUP3 DUP3 SHL SWAP1 POP SWAP3 SWAP2 POP POP JUMP JUMPDEST PUSH0 PUSH1 0x8 DUP4 MUL PUSH3 0x2B8 PUSH32 0xFFFFFFFFFFFFFFFFFFFFFFFFFFFFFFFFFFFFFFFFFFFFFFFFFFFFFFFFFFFFFFFF DUP3 PUSH3 0x27B JUMP JUMPDEST PUSH3 0x2C4 DUP7 DUP4 PUSH3 0x27B JUMP JUMPDEST SWAP6 POP DUP1 NOT DUP5 AND SWAP4 POP DUP1 DUP7 AND DUP5 OR SWAP3 POP POP POP SWAP4 SWAP3 POP POP POP JUMP JUMPDEST PUSH0 DUP2 SWAP1 POP SWAP2 SWAP1 POP JUMP JUMPDEST PUSH0 DUP2 SWAP1 POP SWAP2 SWAP1 POP JUMP JUMPDEST PUSH0 PUSH3 0x30E PUSH3 0x308 PUSH3 0x302 DUP5 PUSH3 0x2DC JUMP JUMPDEST PUSH3 0x2E5 JUMP JUMPDEST PUSH3 0x2DC JUMP JUMPDEST SWAP1 POP SWAP2 SWAP1 POP JUMP JUMPDEST PUSH0 DUP2 SWAP1 POP SWAP2 SWAP1 POP JUMP JUMPDEST PUSH3 0x329 DUP4 PUSH3 0x2EE JUMP JUMPDEST PUSH3 0x341 PUSH3 0x338 DUP3 PUSH3 0x315 JUMP JUMPDEST DUP5 DUP5 SLOAD PUSH3 0x287 JUMP JUMPDEST DUP3 SSTORE POP POP POP POP JUMP JUMPDEST PUSH0 SWAP1 JUMP JUMPDEST PUSH3 0x357 PUSH3 0x349 JUMP JUMPDEST PUSH3 0x364 DUP2 DUP5 DUP5 PUSH3 0x31E JUMP JUMPDEST POP POP POP JUMP JUMPDEST JUMPDEST DUP2 DUP2 LT ISZERO PUSH3 0x38B JUMPI PUSH3 0x37F PUSH0 DUP3 PUSH3 0x34D JUMP JUMPDEST PUSH1 0x1 DUP2 ADD SWAP1 POP PUSH3 0x36A JUMP JUMPDEST POP POP JUMP JUMPDEST PUSH1 0x1F DUP3 GT ISZERO PUSH3 0x3DA JUMPI PUSH3 0x3A4 DUP2 PUSH3 0x25A JUMP JUMPDEST PUSH3 0x3AF DUP5 PUSH3 0x26C JUMP JUMPDEST DUP2 ADD PUSH1 0x20 DUP6 LT ISZERO PUSH3 0x3BF JUMPI DUP2 SWAP1 POP JUMPDEST PUSH3 0x3D7 PUSH3 0x3CE DUP6 PUSH3 0x26C JUMP JUMPDEST DUP4 ADD DUP3 PUSH3 0x369 JUMP JUMPDEST POP POP JUMPDEST POP POP POP JUMP JUMPDEST PUSH0 DUP3 DUP3 SHR SWAP1 POP SWAP3 SWAP2 POP POP JUMP JUMPDEST PUSH0 PUSH3 0x3FC PUSH0 NOT DUP5 PUSH1 0x8 MUL PUSH3 0x3DF JUMP JUMPDEST NOT DUP1 DUP4 AND SWAP2 POP POP SWAP3 SWAP2 POP POP JUMP JUMPDEST PUSH0 PUSH3 0x416 DUP4 DUP4 PUSH3 0x3EB JUMP JUMPDEST SWAP2 POP DUP3 PUSH1 0x2 MUL DUP3 OR SWAP1 POP SWAP3 SWAP2 POP POP JUMP JUMPDEST PUSH3 0x431 DUP3 PUSH3 0x1C2 JUMP JUMPDEST PUSH8 0xFFFFFFFFFFFFFFFF DUP2 GT ISZERO PUSH3 0x44D JUMPI PUSH3 0x44C PUSH3 0x1CC JUMP JUMPDEST JUMPDEST PUSH3 0x459 DUP3 SLOAD PUSH3 0x226 JUMP JUMPDEST PUSH3 0x466 DUP3 DUP3 DUP6 PUSH3 0x38F JUMP JUMPDEST PUSH0 PUSH1 0x20 SWAP1 POP PUSH1 0x1F DUP4 GT PUSH1 0x1 DUP2 EQ PUSH3 0x49C JUMPI PUSH0 DUP5 ISZERO PUSH3 0x487 JUMPI DUP3 DUP8 ADD MLOAD SWAP1 POP JUMPDEST PUSH3 0x493 DUP6 DUP3 PUSH3 0x409 JUMP JUMPDEST DUP7 SSTORE POP PUSH3 0x502 JUMP JUMPDEST PUSH1 0x1F NOT DUP5 AND PUSH3 0x4AC DUP7 PUSH3 0x25A JUMP JUMPDEST PUSH0 JUMPDEST DUP3 DUP2 LT ISZERO PUSH3 0x4D5 JUMPI DUP5 DUP10 ADD MLOAD DUP3 SSTORE PUSH1 0x1 DUP3 ADD SWAP2 POP PUSH1 0x20 DUP6 ADD SWAP5 POP PUSH1 0x20 DUP2 ADD SWAP1 POP PUSH3 0x4AE JUMP JUMPDEST DUP7 DUP4 LT ISZERO PUSH3 0x4F5 JUMPI DUP5 DUP10 ADD MLOAD PUSH3 0x4F1 PUSH1 0x1F DUP10 AND DUP3 PUSH3 0x3EB JUMP JUMPDEST DUP4 SSTORE POP JUMPDEST PUSH1 0x1 PUSH1 0x2 DUP9 MUL ADD DUP9 SSTORE POP POP POP JUMPDEST POP POP POP POP POP POP JUMP JUMPDEST PUSH1 0x80 MLOAD PUSH2 0x6D0 PUSH3 0x523 PUSH0 CODECOPY PUSH0 PUSH2 0x232 ADD MSTORE PUSH2 0x6D0 PUSH0 RETURN INVALID PUSH1 0x80 PUSH1 0x40 MSTORE CALLVALUE DUP1 ISZERO PUSH2 0xF JUMPI PUSH0 DUP1 REVERT JUMPDEST POP PUSH1 0x4 CALLDATASIZE LT PUSH2 0x86 JUMPI PUSH0 CALLDATALOAD PUSH1 0xE0 SHR DUP1 PUSH4 0xC3DA42B8 GT PUSH2 0x59 JUMPI DUP1 PUSH4 0xC3DA42B8 EQ PUSH2 0x114 JUMPI DUP1 PUSH4 0xE5AA3D58 EQ PUSH2 0x132 JUMPI DUP1 PUSH4 0xF6BAAFA5 EQ PUSH2 0x151 JUMPI DUP1 PUSH4 0xFFAE15BA EQ PUSH2 0x181 JUMPI PUSH2 0x86 JUMP JUMPDEST DUP1 PUSH4 0xDBE671F EQ PUSH2 0x8A JUMPI DUP1 PUSH4 0x4DF7E3D0 EQ PUSH2 0xA8 JUMPI DUP1 PUSH4 0x80533CD5 EQ PUSH2 0xC6 JUMPI DUP1 PUSH4 0x8A054AC2 EQ PUSH2 0xF6 JUMPI JUMPDEST PUSH0 DUP1 REVERT JUMPDEST PUSH2 0x92 PUSH2 0x19F JUMP JUMPDEST PUSH1 0x40 MLOAD PUSH2 0x9F SWAP2 SWAP1 PUSH2 0x3BD JUMP JUMPDEST PUSH1 0x40 MLOAD DUP1 SWAP2 SUB SWAP1 RETURN JUMPDEST PUSH2 0xB0 PUSH2 0x1A4 JUMP JUMPDEST PUSH1 0x40 MLOAD PUSH2 0xBD SWAP2 SWAP1 PUSH2 0x3BD JUMP JUMPDEST PUSH1 0x40 MLOAD DUP1 SWAP2 SUB SWAP1 RETURN JUMPDEST PUSH2 0xE0 PUSH1 0x4 DUP1 CALLDATASIZE SUB DUP2 ADD SWAP1 PUSH2 0xDB SWAP2 SWAP1 PUSH2 0x404 JUMP JUMPDEST PUSH2 0x1AA JUMP JUMPDEST PUSH1 0x40 MLOAD PUSH2 0xED SWAP2 SWAP1 PUSH2 0x45A JUMP JUMPDEST PUSH1 0x40 MLOAD DUP1 SWAP2 SUB SWAP1 RETURN JUMPDEST PUSH2 0xFE PUSH2 0x22B JUMP JUMPDEST PUSH1 0x40 MLOAD PUSH2 0x10B SWAP2 SWAP1 PUSH2 0x3BD JUMP JUMPDEST PUSH1 0x40 MLOAD DUP1 SWAP2 SUB SWAP1 RETURN JUMPDEST PUSH2 0x11C PUSH2 0x230 JUMP JUMPDEST PUSH1 0x40 MLOAD PUSH2 0x129 SWAP2 SWAP1 PUSH2 0x3BD JUMP JUMPDEST PUSH1 0x40 MLOAD DUP1 SWAP2 SUB SWAP1 RETURN JUMPDEST PUSH2 0x13A PUSH2 0x254 JUMP JUMPDEST PUSH1 0x40 MLOAD PUSH2 0x148 SWAP3 SWAP2 SWAP1 PUSH2 0x49D JUMP JUMPDEST PUSH1 0x40 MLOAD DUP1 SWAP2 SUB SWAP1 RETURN JUMPDEST PUSH2 0x16B PUSH1 0x4 DUP1 CALLDATASIZE SUB DUP2 ADD SWAP1 PUSH2 0x166 SWAP2 SWAP1 PUSH2 0x4C4 JUMP JUMPDEST PUSH2 0x29B JUMP JUMPDEST PUSH1 0x40 MLOAD PUSH2 0x178 SWAP2 SWAP1 PUSH2 0x45A JUMP JUMPDEST PUSH1 0x40 MLOAD DUP1 SWAP2 SUB SWAP1 RETURN JUMPDEST PUSH2 0x189 PUSH2 0x319 JUMP JUMPDEST PUSH1 0x40 MLOAD PUSH2 0x196 SWAP2 SWAP1 PUSH2 0x579 JUMP JUMPDEST PUSH1 0x40 MLOAD DUP1 SWAP2 SUB SWAP1 RETURN JUMPDEST PUSH0 SLOAD DUP2 JUMP JUMPDEST PUSH1 0x1 SLOAD DUP2 JUMP JUMPDEST PUSH0 PUSH20 0x0 PUSH4 0x80533CD5 DUP5 DUP5 PUSH1 0x40 MLOAD DUP4 PUSH4 0xFFFFFFFF AND PUSH1 0xE0 SHL DUP2 MSTORE PUSH1 0x4 ADD PUSH2 0x1E4 SWAP3 SWAP2 SWAP1 PUSH2 0x5A8 JUMP JUMPDEST PUSH1 0x20 PUSH1 0x40 MLOAD DUP1 DUP4 SUB DUP2 DUP7 GAS DELEGATECALL ISZERO DUP1 ISZERO PUSH2 0x1FF JUMPI RETURNDATASIZE PUSH0 DUP1 RETURNDATACOPY RETURNDATASIZE PUSH0 REVERT JUMPDEST POP POP POP POP PUSH1 0x40 MLOAD RETURNDATASIZE PUSH1 0x1F NOT PUSH1 0x1F DUP3 ADD AND DUP3 ADD DUP1 PUSH1 0x40 MSTORE POP DUP2 ADD SWAP1 PUSH2 0x223 SWAP2 SWAP1 PUSH2 0x5F9 JUMP JUMPDEST SWAP1 POP SWAP3 SWAP2 POP POP JUMP JUMPDEST PUSH1 0x4 DUP2 JUMP JUMPDEST PUSH32 0x0 DUP2 JUMP JUMPDEST PUSH1 0x3 DUP1 PUSH0 ADD PUSH0 SWAP1 SLOAD SWAP1 PUSH2 0x100 EXP SWAP1 DIV PUSH16 0xFFFFFFFFFFFFFFFFFFFFFFFFFFFFFFFF AND SWAP1 DUP1 PUSH0 ADD PUSH1 0x10 SWAP1 SLOAD SWAP1 PUSH2 0x100 EXP SWAP1 DIV PUSH16 0xFFFFFFFFFFFFFFFFFFFFFFFFFFFFFFFF AND SWAP1 POP DUP3 JUMP JUMPDEST PUSH0 PUSH20 0x0 PUSH4 0xF6BAAFA5 DUP4 PUSH1 0x40 MLOAD DUP3 PUSH4 0xFFFFFFFF AND PUSH1 0xE0 SHL DUP2 MSTORE PUSH1 0x4 ADD PUSH2 0x2D3 SWAP2 SWAP1 PUSH2 0x624 JUMP JUMPDEST PUSH1 0x20 PUSH1 0x40 MLOAD DUP1 DUP4 SUB DUP2 DUP7 GAS DELEGATECALL ISZERO DUP1 ISZERO PUSH2 0x2EE JUMPI RETURNDATASIZE PUSH0 DUP1 RETURNDATACOPY RETURNDATASIZE PUSH0 REVERT JUMPDEST POP POP POP POP PUSH1 0x40 MLOAD RETURNDATASIZE PUSH1 0x1F NOT PUSH1 0x1F DUP3 ADD AND DUP3 ADD DUP1 PUSH1 0x40 MSTORE POP DUP2 ADD SWAP1 PUSH2 0x312 SWAP2 SWAP1 PUSH2 0x5F9 JUMP JUMPDEST SWAP1 POP SWAP2 SWAP1 POP JUMP JUMPDEST PUSH1 0x2 DUP1 SLOAD PUSH2 0x326 SWAP1 PUSH2 0x66A JUMP JUMPDEST DUP1 PUSH1 0x1F ADD PUSH1 0x20 DUP1 SWAP2 DIV MUL PUSH1 0x20 ADD PUSH1 0x40 MLOAD SWAP1 DUP2 ADD PUSH1 0x40 MSTORE DUP1 SWAP3 SWAP2 SWAP1 DUP2 DUP2 MSTORE PUSH1 0x20 ADD DUP3 DUP1 SLOAD PUSH2 0x352 SWAP1 PUSH2 0x66A JUMP JUMPDEST DUP1 ISZERO PUSH2 0x39D JUMPI DUP1 PUSH1 0x1F LT PUSH2 0x374 JUMPI PUSH2 0x100 DUP1 DUP4 SLOAD DIV MUL DUP4 MSTORE SWAP2 PUSH1 0x20 ADD SWAP2 PUSH2 0x39D JUMP JUMPDEST DUP3 ADD SWAP2 SWAP1 PUSH0 MSTORE PUSH1 0x20 PUSH0 KECCAK256 SWAP1 JUMPDEST DUP2 SLOAD DUP2 MSTORE SWAP1 PUSH1 0x1 ADD SWAP1 PUSH1 0x20 ADD DUP1 DUP4 GT PUSH2 0x380 JUMPI DUP3 SWAP1 SUB PUSH1 0x1F AND DUP3 ADD SWAP2 JUMPDEST POP POP POP POP POP DUP2 JUMP JUMPDEST PUSH0 DUP2 SWAP1 POP SWAP2 SWAP1 POP JUMP JUMPDEST PUSH2 0x3B7 DUP2 PUSH2 0x3A5 JUMP JUMPDEST DUP3 MSTORE POP POP JUMP JUMPDEST PUSH0 PUSH1 0x20 DUP3 ADD SWAP1 POP PUSH2 0x3D0 PUSH0 DUP4 ADD DUP5 PUSH2 0x3AE JUMP JUMPDEST SWAP3 SWAP2 POP POP JUMP JUMPDEST PUSH0 DUP1 REVERT JUMPDEST PUSH2 0x3E3 DUP2 PUSH2 0x3A5 JUMP JUMPDEST DUP2 EQ PUSH2 0x3ED JUMPI PUSH0 DUP1 REVERT JUMPDEST POP JUMP JUMPDEST PUSH0 DUP2 CALLDATALOAD SWAP1 POP PUSH2 0x3FE DUP2 PUSH2 0x3DA JUMP JUMPDEST SWAP3 SWAP2 POP POP JUMP JUMPDEST PUSH0 DUP1 PUSH1 0x40 DUP4 DUP6 SUB SLT ISZERO PUSH2 0x41A JUMPI PUSH2 0x419 PUSH2 0x3D6 JUMP JUMPDEST JUMPDEST PUSH0 PUSH2 0x427 DUP6 DUP3 DUP7 ADD PUSH2 0x3F0 JUMP JUMPDEST SWAP3 POP POP PUSH1 0x20 PUSH2 0x438 DUP6 DUP3 DUP7 ADD PUSH2 0x3F0 JUMP JUMPDEST SWAP2 POP POP SWAP3 POP SWAP3 SWAP1 POP JUMP JUMPDEST PUSH0 DUP2 SWAP1 POP SWAP2 SWAP1 POP JUMP JUMPDEST PUSH2 0x454 DUP2 PUSH2 0x442 JUMP JUMPDEST DUP3 MSTORE POP POP JUMP JUMPDEST PUSH0 PUSH1 0x20 DUP3 ADD SWAP1 POP PUSH2 0x46D PUSH0 DUP4 ADD DUP5 PUSH2 0x44B JUMP JUMPDEST SWAP3 SWAP2 POP POP JUMP JUMPDEST PUSH0 PUSH16 0xFFFFFFFFFFFFFFFFFFFFFFFFFFFFFFFF DUP3 AND SWAP1 POP SWAP2 SWAP1 POP JUMP JUMPDEST PUSH2 0x497 DUP2 PUSH2 0x473 JUMP JUMPDEST DUP3 MSTORE POP POP JUMP JUMPDEST PUSH0 PUSH1 0x40 DUP3 ADD SWAP1 POP PUSH2 0x4B0 PUSH0 DUP4 ADD DUP6 PUSH2 0x48E JUMP JUMPDEST PUSH2 0x4BD PUSH1 0x20 DUP4 ADD DUP5 PUSH2 0x48E JUMP JUMPDEST SWAP4 SWAP3 POP POP POP JUMP JUMPDEST PUSH0 PUSH1 0x20 DUP3 DUP5 SUB SLT ISZERO PUSH2 0x4D9 JUMPI PUSH2 0x4D8 PUSH2 0x3D6 JUMP JUMPDEST JUMPDEST PUSH0 PUSH2 0x4E6 DUP5 DUP3 DUP6 ADD PUSH2 0x3F0 JUMP JUMPDEST SWAP2 POP POP SWAP3 SWAP2 POP POP JUMP JUMPDEST PUSH0 DUP2 MLOAD SWAP1 POP SWAP2 SWAP1 POP JUMP JUMPDEST PUSH0 DUP3 DUP3 MSTORE PUSH1 0x20 DUP3 ADD SWAP1 POP SWAP3 SWAP2 POP POP JUMP JUMPDEST PUSH0 JUMPDEST DUP4 DUP2 LT ISZERO PUSH2 0x526 JUMPI DUP1 DUP3 ADD MLOAD DUP2 DUP5 ADD MSTORE PUSH1 0x20 DUP2 ADD SWAP1 POP PUSH2 0x50B JUMP JUMPDEST PUSH0 DUP5 DUP5 ADD MSTORE POP POP POP POP JUMP JUMPDEST PUSH0 PUSH1 0x1F NOT PUSH1 0x1F DUP4 ADD AND SWAP1 POP SWAP2 SWAP1 POP JUMP JUMPDEST PUSH0 PUSH2 0x54B DUP3 PUSH2 0x4EF JUMP JUMPDEST PUSH2 0x555 DUP2 DUP6 PUSH2 0x4F9 JUMP JUMPDEST SWAP4 POP PUSH2 0x565 DUP2 DUP6 PUSH1 0x20 DUP7 ADD PUSH2 0x509 JUMP JUMPDEST PUSH2 0x56E DUP2 PUSH2 0x531 JUMP JUMPDEST DUP5 ADD SWAP2 POP POP SWAP3 SWAP2 POP POP JUMP JUMPDEST PUSH0 PUSH1 0x20 DUP3 ADD SWAP1 POP DUP2 DUP2 SUB PUSH0 DUP4 ADD MSTORE PUSH2 0x591 DUP2 DUP5 PUSH2 0x541 JUMP JUMPDEST SWAP1 POP SWAP3 SWAP2 POP POP JUMP JUMPDEST PUSH2 0x5A2 DUP2 PUSH2 0x3A5 JUMP JUMPDEST DUP3 MSTORE POP POP JUMP JUMPDEST PUSH0 PUSH1 0x40 DUP3 ADD SWAP1 POP PUSH2 0x5BB PUSH0 DUP4 ADD DUP6 PUSH2 0x599 JUMP JUMPDEST PUSH2 0x5C8 PUSH1 0x20 DUP4 ADD DUP5 PUSH2 0x599 JUMP JUMPDEST SWAP4 SWAP3 POP POP POP JUMP JUMPDEST PUSH2 0x5D8 DUP2 PUSH2 0x442 JUMP JUMPDEST DUP2 EQ PUSH2 0x5E2 JUMPI PUSH0 DUP1 REVERT JUMPDEST POP JUMP JUMPDEST PUSH0 DUP2 MLOAD SWAP1 POP PUSH2 0x5F3 DUP2 PUSH2 0x5CF JUMP JUMPDEST SWAP3 SWAP2 POP POP JUMP JUMPDEST PUSH0 PUSH1 0x20 DUP3 DUP5 SUB SLT ISZERO PUSH2 0x60E JUMPI PUSH2 0x60D PUSH2 0x3D6 JUMP JUMPDEST JUMPDEST PUSH0 PUSH2 0x61B DUP5 DUP3 DUP6 ADD PUSH2 0x5E5 JUMP JUMPDEST SWAP2 POP POP SWAP3 SWAP2 POP POP JUMP JUMPDEST PUSH0 PUSH1 0x20 DUP3 ADD SWAP1 POP PUSH2 0x637 PUSH0 DUP4 ADD DUP5 PUSH2 0x599 JUMP JUMPDEST SWAP3 SWAP2 POP POP JUMP JUMPDEST PUSH32 0x4E487B7100000000000000000000000000000000000000000000000000000000 PUSH0 MSTORE PUSH1 0x22 PUSH1 0x4 MSTORE PUSH1 0x24 PUSH0 REVERT JUMPDEST PUSH0 PUSH1 0x2 DUP3 DIV SWAP1 POP PUSH1 0x1 DUP3 AND DUP1 PUSH2 0x681 JUMPI PUSH1 0x7F DUP3 AND SWAP2 POP JUMPDEST PUSH1 0x20 DUP3 LT DUP2 SUB PUSH2 0x694 JUMPI PUSH2 0x693 PUSH2 0x63D JUMP JUMPDEST JUMPDEST POP SWAP2 SWAP1 POP JUMP INVALID LOG2 PUSH5 0x6970667358 0x22 SLT KECCAK256 SELFDESTRUCT RETURNDATASIZE BYTE CALLDATASIZE EXP SWAP1 SWAP6 0xF 0xDD SWAP8 0x2A 0xFB REVERT PUSH26 0x2A655B59F602CC92CA3928ED58784C84D8BD64736F6C63430008 ISZERO STOP CALLER "
		},
		"gasEstimates": {
			"creation": {
				"codeDepositCost": "348800",
				"executionCost": "infinite",
				"totalCost": "infinite"
			},
			"external": {
				"a()": "2425",
				"b()": "2448",
				"c()": "infinite",
				"d()": "392",
				"e()": "infinite",
				"getStorageAt(uint256)": "infinite",
				"i()": "infinite",
				"setStorageAt(uint256,uint256)": "infinite"
			}
		},
		"methodIdentifiers": {
			"a()": "0dbe671f",
			"b()": "4df7e3d0",
			"c()": "c3da42b8",
			"d()": "8a054ac2",
			"e()": "ffae15ba",
			"getStorageAt(uint256)": "f6baafa5",
			"i()": "e5aa3d58",
			"setStorageAt(uint256,uint256)": "80533cd5"
		}
	},
	"abi": [
		{
			"inputs": [],
			"stateMutability": "nonpayable",
			"type": "constructor"
		},
		{
			"inputs": [],
			"name": "a",
			"outputs": [
				{
					"internalType": "uint256",
					"name": "",
					"type": "uint256"
				}
			],
			"stateMutability": "view",
			"type": "function"
		},
		{
			"inputs": [],
			"name": "b",
			"outputs": [
				{
					"internalType": "uint256",
					"name": "",
					"type": "uint256"
				}
			],
			"stateMutability": "view",
			"type": "function"
		},
		{
			"inputs": [],
			"name": "c",
			"outputs": [
				{
					"internalType": "uint256",
					"name": "",
					"type": "uint256"
				}
			],
			"stateMutability": "view",
			"type": "function"
		},
		{
			"inputs": [],
			"name": "d",
			"outputs": [
				{
					"internalType": "uint256",
					"name": "",
					"type": "uint256"
				}
			],
			"stateMutability": "view",
			"type": "function"
		},
		{
			"inputs": [],
			"name": "e",
			"outputs": [
				{
					"internalType": "string",
					"name": "",
					"type": "string"
				}
			],
			"stateMutability": "view",
			"type": "function"
		},
		{
			"inputs": [
				{
					"internalType": "uint256",
					"name": "slot",
					"type": "uint256"
				}
			],
			"name": "getStorageAt",
			"outputs": [
				{
					"internalType": "bytes32",
					"name": "ret",
					"type": "bytes32"
				}
			],
			"stateMutability": "view",
			"type": "function"
		},
		{
			"inputs": [],
			"name": "i",
			"outputs": [
				{
					"internalType": "uint128",
					"name": "f",
					"type": "uint128"
				},
				{
					"internalType": "uint128",
					"name": "g",
					"type": "uint128"
				}
			],
			"stateMutability": "view",
			"type": "function"
		},
		{
			"inputs": [
				{
					"internalType": "uint256",
					"name": "slot",
					"type": "uint256"
				},
				{
					"internalType": "uint256",
					"name": "data",
					"type": "uint256"
				}
			],
			"name": "setStorageAt",
			"outputs": [
				{
					"internalType": "bytes32",
					"name": "ret",
					"type": "bytes32"
				}
			],
			"stateMutability": "nonpayable",
			"type": "function"
		}
	]
}