{
	"shijian/zhangpan.sol": {
		"zhangpan": {
			"abi": [
				{
					"inputs": [],
					"name": "_number",
					"outputs": [
						{
							"internalType": "uint256",
							"name": "",
							"type": "uint256"
						}
					],
					"stateMutability": "view",
					"type": "function"
				},
				{
					"inputs": [
						{
							"internalType": "address",
							"name": "add",
							"type": "address"
						}
					],
					"name": "getBalance",
					"outputs": [
						{
							"internalType": "uint256",
							"name": "",
							"type": "uint256"
						}
					],
					"stateMutability": "view",
					"type": "function"
				},
				{
					"inputs": [],
					"name": "getBlockH",
					"outputs": [
						{
							"internalType": "uint256",
							"name": "",
							"type": "uint256"
						}
					],
					"stateMutability": "view",
					"type": "function"
				},
				{
					"inputs": [],
					"name": "getBlockHash",
					"outputs": [
						{
							"internalType": "bytes32",
							"name": "",
							"type": "bytes32"
						}
					],
					"stateMutability": "view",
					"type": "function"
				},
				{
					"inputs": [],
					"name": "getCoinbase",
					"outputs": [
						{
							"internalType": "address",
							"name": "",
							"type": "address"
						}
					],
					"stateMutability": "view",
					"type": "function"
				},
				{
					"inputs": [],
					"name": "getDifficulty",
					"outputs": [
						{
							"internalType": "uint256",
							"name": "",
							"type": "uint256"
						}
					],
					"stateMutability": "view",
					"type": "function"
				},
				{
					"inputs": [],
					"name": "getLastBlockHash",
					"outputs": [
						{
							"internalType": "bytes32",
							"name": "",
							"type": "bytes32"
						}
					],
					"stateMutability": "view",
					"type": "function"
				},
				{
					"inputs": [],
					"name": "getLimit",
					"outputs": [
						{
							"internalType": "uint256",
							"name": "",
							"type": "uint256"
						}
					],
					"stateMutability": "view",
					"type": "function"
				},
				{
					"inputs": [],
					"name": "getTimestamp",
					"outputs": [
						{
							"internalType": "uint256",
							"name": "",
							"type": "uint256"
						}
					],
					"stateMutability": "view",
					"type": "function"
				}
			],
			"devdoc": {
				"kind": "dev",
				"methods": {},
				"version": 1
			},
			"evm": {
				"assembly": "    /* \"shijian/zhangpan.sol\":58:905  contract zhangpan{\r... */\n  mstore(0x40, 0x80)\n    /* \"shijian/zhangpan.sol\":104:116  block.number */\n  number\n    /* \"shijian/zhangpan.sol\":82:116  uint public _number = block.number */\n  0x00\n  sstore\n    /* \"shijian/zhangpan.sol\":58:905  contract zhangpan{\r... */\n  callvalue\n  dup1\n  iszero\n  tag_1\n  jumpi\n  0x00\n  dup1\n  revert\ntag_1:\n  pop\n  dataSize(sub_0)\n  dup1\n  dataOffset(sub_0)\n  0x00\n  codecopy\n  0x00\n  return\nstop\n\nsub_0: assembly {\n        /* \"shijian/zhangpan.sol\":58:905  contract zhangpan{\r... */\n      mstore(0x40, 0x80)\n      callvalue\n      dup1\n      iszero\n      tag_1\n      jumpi\n      0x00\n      dup1\n      revert\n    tag_1:\n      pop\n      jumpi(tag_2, lt(calldatasize, 0x04))\n      shr(0xe0, calldataload(0x00))\n      dup1\n      0xb295a00e\n      gt\n      tag_12\n      jumpi\n      dup1\n      0xb295a00e\n      eq\n      tag_7\n      jumpi\n      dup1\n      0xb6baffe3\n      eq\n      tag_8\n      jumpi\n      dup1\n      0xd1a82a9d\n      eq\n      tag_9\n      jumpi\n      dup1\n      0xf8b2cb4f\n      eq\n      tag_10\n      jumpi\n      dup1\n      0xf9bd55cc\n      eq\n      tag_11\n      jumpi\n      jump(tag_2)\n    tag_12:\n      dup1\n      0x188ec356\n      eq\n      tag_3\n      jumpi\n      dup1\n      0x27e86d6e\n      eq\n      tag_4\n      jumpi\n      dup1\n      0x412d151a\n      eq\n      tag_5\n      jumpi\n      dup1\n      0x9663f88f\n      eq\n      tag_6\n      jumpi\n    tag_2:\n      0x00\n      dup1\n      revert\n        /* \"shijian/zhangpan.sol\":436:526  function getTimestamp() public view returns(uint){\r... */\n    tag_3:\n      tag_13\n      tag_14\n      jump\t// in\n    tag_13:\n      mload(0x40)\n      tag_15\n      swap2\n      swap1\n      tag_16\n      jump\t// in\n    tag_15:\n      mload(0x40)\n      dup1\n      swap2\n      sub\n      swap1\n      return\n        /* \"shijian/zhangpan.sol\":326:430  function getLastBlockHash() public view returns(bytes32){\r... */\n    tag_4:\n      tag_17\n      tag_18\n      jump\t// in\n    tag_17:\n      mload(0x40)\n      tag_19\n      swap2\n      swap1\n      tag_20\n      jump\t// in\n    tag_19:\n      mload(0x40)\n      dup1\n      swap2\n      sub\n      swap1\n      return\n        /* \"shijian/zhangpan.sol\":532:616  function getBlockH() public view returns(uint){\r... */\n    tag_5:\n      tag_21\n      tag_22\n      jump\t// in\n    tag_21:\n      mload(0x40)\n      tag_23\n      swap2\n      swap1\n      tag_16\n      jump\t// in\n    tag_23:\n      mload(0x40)\n      dup1\n      swap2\n      sub\n      swap1\n      return\n        /* \"shijian/zhangpan.sol\":224:320  function getBlockHash() public view returns(bytes32){\r... */\n    tag_6:\n      tag_24\n      tag_25\n      jump\t// in\n    tag_24:\n      mload(0x40)\n      tag_26\n      swap2\n      swap1\n      tag_20\n      jump\t// in\n    tag_26:\n      mload(0x40)\n      dup1\n      swap2\n      sub\n      swap1\n      return\n        /* \"shijian/zhangpan.sol\":720:805  function getLimit() public view returns(uint){\r... */\n    tag_7:\n      tag_27\n      tag_28\n      jump\t// in\n    tag_27:\n      mload(0x40)\n      tag_29\n      swap2\n      swap1\n      tag_16\n      jump\t// in\n    tag_29:\n      mload(0x40)\n      dup1\n      swap2\n      sub\n      swap1\n      return\n        /* \"shijian/zhangpan.sol\":622:714  function getDifficulty() public view returns(uint){\r... */\n    tag_8:\n      tag_30\n      tag_31\n      jump\t// in\n    tag_30:\n      mload(0x40)\n      tag_32\n      swap2\n      swap1\n      tag_16\n      jump\t// in\n    tag_32:\n      mload(0x40)\n      dup1\n      swap2\n      sub\n      swap1\n      return\n        /* \"shijian/zhangpan.sol\":811:902  function getCoinbase() public view returns(address){\r... */\n    tag_9:\n      tag_33\n      tag_34\n      jump\t// in\n    tag_33:\n      mload(0x40)\n      tag_35\n      swap2\n      swap1\n      tag_36\n      jump\t// in\n    tag_35:\n      mload(0x40)\n      dup1\n      swap2\n      sub\n      swap1\n      return\n        /* \"shijian/zhangpan.sol\":123:218  function getBalance(address add) public view returns(uint){\r... */\n    tag_10:\n      tag_37\n      0x04\n      dup1\n      calldatasize\n      sub\n      dup2\n      add\n      swap1\n      tag_38\n      swap2\n      swap1\n      tag_39\n      jump\t// in\n    tag_38:\n      tag_40\n      jump\t// in\n    tag_37:\n      mload(0x40)\n      tag_41\n      swap2\n      swap1\n      tag_16\n      jump\t// in\n    tag_41:\n      mload(0x40)\n      dup1\n      swap2\n      sub\n      swap1\n      return\n        /* \"shijian/zhangpan.sol\":82:116  uint public _number = block.number */\n    tag_11:\n      tag_42\n      tag_43\n      jump\t// in\n    tag_42:\n      mload(0x40)\n      tag_44\n      swap2\n      swap1\n      tag_16\n      jump\t// in\n    tag_44:\n      mload(0x40)\n      dup1\n      swap2\n      sub\n      swap1\n      return\n        /* \"shijian/zhangpan.sol\":436:526  function getTimestamp() public view returns(uint){\r... */\n    tag_14:\n        /* \"shijian/zhangpan.sol\":480:484  uint */\n      0x00\n        /* \"shijian/zhangpan.sol\":503:518  block.timestamp */\n      timestamp\n        /* \"shijian/zhangpan.sol\":496:518  return block.timestamp */\n      swap1\n      pop\n        /* \"shijian/zhangpan.sol\":436:526  function getTimestamp() public view returns(uint){\r... */\n      swap1\n      jump\t// out\n        /* \"shijian/zhangpan.sol\":326:430  function getLastBlockHash() public view returns(bytes32){\r... */\n    tag_18:\n        /* \"shijian/zhangpan.sol\":374:381  bytes32 */\n      0x00\n        /* \"shijian/zhangpan.sol\":420:421  1 */\n      0x01\n        /* \"shijian/zhangpan.sol\":410:417  _number */\n      sload(0x00)\n        /* \"shijian/zhangpan.sol\":410:421  _number - 1 */\n      tag_47\n      swap2\n      swap1\n      tag_48\n      jump\t// in\n    tag_47:\n        /* \"shijian/zhangpan.sol\":400:422  blockhash(_number - 1) */\n      blockhash\n        /* \"shijian/zhangpan.sol\":393:422  return blockhash(_number - 1) */\n      swap1\n      pop\n        /* \"shijian/zhangpan.sol\":326:430  function getLastBlockHash() public view returns(bytes32){\r... */\n      swap1\n      jump\t// out\n        /* \"shijian/zhangpan.sol\":532:616  function getBlockH() public view returns(uint){\r... */\n    tag_22:\n        /* \"shijian/zhangpan.sol\":573:577  uint */\n      0x00\n        /* \"shijian/zhangpan.sol\":596:608  block.number */\n      number\n        /* \"shijian/zhangpan.sol\":589:608  return block.number */\n      swap1\n      pop\n        /* \"shijian/zhangpan.sol\":532:616  function getBlockH() public view returns(uint){\r... */\n      swap1\n      jump\t// out\n        /* \"shijian/zhangpan.sol\":224:320  function getBlockHash() public view returns(bytes32){\r... */\n    tag_25:\n        /* \"shijian/zhangpan.sol\":268:275  bytes32 */\n      0x00\n        /* \"shijian/zhangpan.sol\":304:311  _number */\n      dup1\n      sload\n        /* \"shijian/zhangpan.sol\":294:312  blockhash(_number) */\n      blockhash\n        /* \"shijian/zhangpan.sol\":287:312  return blockhash(_number) */\n      swap1\n      pop\n        /* \"shijian/zhangpan.sol\":224:320  function getBlockHash() public view returns(bytes32){\r... */\n      swap1\n      jump\t// out\n        /* \"shijian/zhangpan.sol\":720:805  function getLimit() public view returns(uint){\r... */\n    tag_28:\n        /* \"shijian/zhangpan.sol\":760:764  uint */\n      0x00\n        /* \"shijian/zhangpan.sol\":783:797  block.gaslimit */\n      gaslimit\n        /* \"shijian/zhangpan.sol\":776:797  return block.gaslimit */\n      swap1\n      pop\n        /* \"shijian/zhangpan.sol\":720:805  function getLimit() public view returns(uint){\r... */\n      swap1\n      jump\t// out\n        /* \"shijian/zhangpan.sol\":622:714  function getDifficulty() public view returns(uint){\r... */\n    tag_31:\n        /* \"shijian/zhangpan.sol\":667:671  uint */\n      0x00\n        /* \"shijian/zhangpan.sol\":690:706  block.difficulty */\n      difficulty\n        /* \"shijian/zhangpan.sol\":683:706  return block.difficulty */\n      swap1\n      pop\n        /* \"shijian/zhangpan.sol\":622:714  function getDifficulty() public view returns(uint){\r... */\n      swap1\n      jump\t// out\n        /* \"shijian/zhangpan.sol\":811:902  function getCoinbase() public view returns(address){\r... */\n    tag_34:\n        /* \"shijian/zhangpan.sol\":854:861  address */\n      0x00\n        /* \"shijian/zhangpan.sol\":880:894  block.coinbase */\n      coinbase\n        /* \"shijian/zhangpan.sol\":873:894  return block.coinbase */\n      swap1\n      pop\n        /* \"shijian/zhangpan.sol\":811:902  function getCoinbase() public view returns(address){\r... */\n      swap1\n      jump\t// out\n        /* \"shijian/zhangpan.sol\":123:218  function getBalance(address add) public view returns(uint){\r... */\n    tag_40:\n        /* \"shijian/zhangpan.sol\":176:180  uint */\n      0x00\n        /* \"shijian/zhangpan.sol\":199:202  add */\n      dup2\n        /* \"shijian/zhangpan.sol\":199:210  add.balance */\n      0xffffffffffffffffffffffffffffffffffffffff\n      and\n      balance\n        /* \"shijian/zhangpan.sol\":192:210  return add.balance */\n      swap1\n      pop\n        /* \"shijian/zhangpan.sol\":123:218  function getBalance(address add) public view returns(uint){\r... */\n      swap2\n      swap1\n      pop\n      jump\t// out\n        /* \"shijian/zhangpan.sol\":82:116  uint public _number = block.number */\n    tag_43:\n      sload(0x00)\n      dup2\n      jump\t// out\n        /* \"#utility.yul\":7:146   */\n    tag_56:\n        /* \"#utility.yul\":53:58   */\n      0x00\n        /* \"#utility.yul\":91:97   */\n      dup2\n        /* \"#utility.yul\":78:98   */\n      calldataload\n        /* \"#utility.yul\":69:98   */\n      swap1\n      pop\n        /* \"#utility.yul\":107:140   */\n      tag_58\n        /* \"#utility.yul\":134:139   */\n      dup2\n        /* \"#utility.yul\":107:140   */\n      tag_59\n      jump\t// in\n    tag_58:\n        /* \"#utility.yul\":7:146   */\n      swap3\n      swap2\n      pop\n      pop\n      jump\t// out\n        /* \"#utility.yul\":152:481   */\n    tag_39:\n        /* \"#utility.yul\":211:217   */\n      0x00\n        /* \"#utility.yul\":260:262   */\n      0x20\n        /* \"#utility.yul\":248:257   */\n      dup3\n        /* \"#utility.yul\":239:246   */\n      dup5\n        /* \"#utility.yul\":235:258   */\n      sub\n        /* \"#utility.yul\":231:263   */\n      slt\n        /* \"#utility.yul\":228:347   */\n      iszero\n      tag_61\n      jumpi\n        /* \"#utility.yul\":266:345   */\n      tag_62\n      tag_63\n      jump\t// in\n    tag_62:\n        /* \"#utility.yul\":228:347   */\n    tag_61:\n        /* \"#utility.yul\":386:387   */\n      0x00\n        /* \"#utility.yul\":411:464   */\n      tag_64\n        /* \"#utility.yul\":456:463   */\n      dup5\n        /* \"#utility.yul\":447:453   */\n      dup3\n        /* \"#utility.yul\":436:445   */\n      dup6\n        /* \"#utility.yul\":432:454   */\n      add\n        /* \"#utility.yul\":411:464   */\n      tag_56\n      jump\t// in\n    tag_64:\n        /* \"#utility.yul\":401:464   */\n      swap2\n      pop\n        /* \"#utility.yul\":357:474   */\n      pop\n        /* \"#utility.yul\":152:481   */\n      swap3\n      swap2\n      pop\n      pop\n      jump\t// out\n        /* \"#utility.yul\":487:605   */\n    tag_65:\n        /* \"#utility.yul\":574:598   */\n      tag_67\n        /* \"#utility.yul\":592:597   */\n      dup2\n        /* \"#utility.yul\":574:598   */\n      tag_68\n      jump\t// in\n    tag_67:\n        /* \"#utility.yul\":569:572   */\n      dup3\n        /* \"#utility.yul\":562:599   */\n      mstore\n        /* \"#utility.yul\":487:605   */\n      pop\n      pop\n      jump\t// out\n        /* \"#utility.yul\":611:729   */\n    tag_69:\n        /* \"#utility.yul\":698:722   */\n      tag_71\n        /* \"#utility.yul\":716:721   */\n      dup2\n        /* \"#utility.yul\":698:722   */\n      tag_72\n      jump\t// in\n    tag_71:\n        /* \"#utility.yul\":693:696   */\n      dup3\n        /* \"#utility.yul\":686:723   */\n      mstore\n        /* \"#utility.yul\":611:729   */\n      pop\n      pop\n      jump\t// out\n        /* \"#utility.yul\":735:853   */\n    tag_73:\n        /* \"#utility.yul\":822:846   */\n      tag_75\n        /* \"#utility.yul\":840:845   */\n      dup2\n        /* \"#utility.yul\":822:846   */\n      tag_76\n      jump\t// in\n    tag_75:\n        /* \"#utility.yul\":817:820   */\n      dup3\n        /* \"#utility.yul\":810:847   */\n      mstore\n        /* \"#utility.yul\":735:853   */\n      pop\n      pop\n      jump\t// out\n        /* \"#utility.yul\":859:1081   */\n    tag_36:\n        /* \"#utility.yul\":952:956   */\n      0x00\n        /* \"#utility.yul\":990:992   */\n      0x20\n        /* \"#utility.yul\":979:988   */\n      dup3\n        /* \"#utility.yul\":975:993   */\n      add\n        /* \"#utility.yul\":967:993   */\n      swap1\n      pop\n        /* \"#utility.yul\":1003:1074   */\n      tag_78\n        /* \"#utility.yul\":1071:1072   */\n      0x00\n        /* \"#utility.yul\":1060:1069   */\n      dup4\n        /* \"#utility.yul\":1056:1073   */\n      add\n        /* \"#utility.yul\":1047:1053   */\n      dup5\n        /* \"#utility.yul\":1003:1074   */\n      tag_65\n      jump\t// in\n    tag_78:\n        /* \"#utility.yul\":859:1081   */\n      swap3\n      swap2\n      pop\n      pop\n      jump\t// out\n        /* \"#utility.yul\":1087:1309   */\n    tag_20:\n        /* \"#utility.yul\":1180:1184   */\n      0x00\n        /* \"#utility.yul\":1218:1220   */\n      0x20\n        /* \"#utility.yul\":1207:1216   */\n      dup3\n        /* \"#utility.yul\":1203:1221   */\n      add\n        /* \"#utility.yul\":1195:1221   */\n      swap1\n      pop\n        /* \"#utility.yul\":1231:1302   */\n      tag_80\n        /* \"#utility.yul\":1299:1300   */\n      0x00\n        /* \"#utility.yul\":1288:1297   */\n      dup4\n        /* \"#utility.yul\":1284:1301   */\n      add\n        /* \"#utility.yul\":1275:1281   */\n      dup5\n        /* \"#utility.yul\":1231:1302   */\n      tag_69\n      jump\t// in\n    tag_80:\n        /* \"#utility.yul\":1087:1309   */\n      swap3\n      swap2\n      pop\n      pop\n      jump\t// out\n        /* \"#utility.yul\":1315:1537   */\n    tag_16:\n        /* \"#utility.yul\":1408:1412   */\n      0x00\n        /* \"#utility.yul\":1446:1448   */\n      0x20\n        /* \"#utility.yul\":1435:1444   */\n      dup3\n        /* \"#utility.yul\":1431:1449   */\n      add\n        /* \"#utility.yul\":1423:1449   */\n      swap1\n      pop\n        /* \"#utility.yul\":1459:1530   */\n      tag_82\n        /* \"#utility.yul\":1527:1528   */\n      0x00\n        /* \"#utility.yul\":1516:1525   */\n      dup4\n        /* \"#utility.yul\":1512:1529   */\n      add\n        /* \"#utility.yul\":1503:1509   */\n      dup5\n        /* \"#utility.yul\":1459:1530   */\n      tag_73\n      jump\t// in\n    tag_82:\n        /* \"#utility.yul\":1315:1537   */\n      swap3\n      swap2\n      pop\n      pop\n      jump\t// out\n        /* \"#utility.yul\":1624:1815   */\n    tag_48:\n        /* \"#utility.yul\":1664:1668   */\n      0x00\n        /* \"#utility.yul\":1684:1704   */\n      tag_86\n        /* \"#utility.yul\":1702:1703   */\n      dup3\n        /* \"#utility.yul\":1684:1704   */\n      tag_76\n      jump\t// in\n    tag_86:\n        /* \"#utility.yul\":1679:1704   */\n      swap2\n      pop\n        /* \"#utility.yul\":1718:1738   */\n      tag_87\n        /* \"#utility.yul\":1736:1737   */\n      dup4\n        /* \"#utility.yul\":1718:1738   */\n      tag_76\n      jump\t// in\n    tag_87:\n        /* \"#utility.yul\":1713:1738   */\n      swap3\n      pop\n        /* \"#utility.yul\":1757:1758   */\n      dup3\n        /* \"#utility.yul\":1754:1755   */\n      dup3\n        /* \"#utility.yul\":1751:1759   */\n      lt\n        /* \"#utility.yul\":1748:1782   */\n      iszero\n      tag_88\n      jumpi\n        /* \"#utility.yul\":1762:1780   */\n      tag_89\n      tag_90\n      jump\t// in\n    tag_89:\n        /* \"#utility.yul\":1748:1782   */\n    tag_88:\n        /* \"#utility.yul\":1807:1808   */\n      dup3\n        /* \"#utility.yul\":1804:1805   */\n      dup3\n        /* \"#utility.yul\":1800:1809   */\n      sub\n        /* \"#utility.yul\":1792:1809   */\n      swap1\n      pop\n        /* \"#utility.yul\":1624:1815   */\n      swap3\n      swap2\n      pop\n      pop\n      jump\t// out\n        /* \"#utility.yul\":1821:1917   */\n    tag_68:\n        /* \"#utility.yul\":1858:1865   */\n      0x00\n        /* \"#utility.yul\":1887:1911   */\n      tag_92\n        /* \"#utility.yul\":1905:1910   */\n      dup3\n        /* \"#utility.yul\":1887:1911   */\n      tag_93\n      jump\t// in\n    tag_92:\n        /* \"#utility.yul\":1876:1911   */\n      swap1\n      pop\n        /* \"#utility.yul\":1821:1917   */\n      swap2\n      swap1\n      pop\n      jump\t// out\n        /* \"#utility.yul\":1923:2000   */\n    tag_72:\n        /* \"#utility.yul\":1960:1967   */\n      0x00\n        /* \"#utility.yul\":1989:1994   */\n      dup2\n        /* \"#utility.yul\":1978:1994   */\n      swap1\n      pop\n        /* \"#utility.yul\":1923:2000   */\n      swap2\n      swap1\n      pop\n      jump\t// out\n        /* \"#utility.yul\":2006:2132   */\n    tag_93:\n        /* \"#utility.yul\":2043:2050   */\n      0x00\n        /* \"#utility.yul\":2083:2125   */\n      0xffffffffffffffffffffffffffffffffffffffff\n        /* \"#utility.yul\":2076:2081   */\n      dup3\n        /* \"#utility.yul\":2072:2126   */\n      and\n        /* \"#utility.yul\":2061:2126   */\n      swap1\n      pop\n        /* \"#utility.yul\":2006:2132   */\n      swap2\n      swap1\n      pop\n      jump\t// out\n        /* \"#utility.yul\":2138:2215   */\n    tag_76:\n        /* \"#utility.yul\":2175:2182   */\n      0x00\n        /* \"#utility.yul\":2204:2209   */\n      dup2\n        /* \"#utility.yul\":2193:2209   */\n      swap1\n      pop\n        /* \"#utility.yul\":2138:2215   */\n      swap2\n      swap1\n      pop\n      jump\t// out\n        /* \"#utility.yul\":2221:2401   */\n    tag_90:\n        /* \"#utility.yul\":2269:2346   */\n      0x4e487b7100000000000000000000000000000000000000000000000000000000\n        /* \"#utility.yul\":2266:2267   */\n      0x00\n        /* \"#utility.yul\":2259:2347   */\n      mstore\n        /* \"#utility.yul\":2366:2370   */\n      0x11\n        /* \"#utility.yul\":2363:2364   */\n      0x04\n        /* \"#utility.yul\":2356:2371   */\n      mstore\n        /* \"#utility.yul\":2390:2394   */\n      0x24\n        /* \"#utility.yul\":2387:2388   */\n      0x00\n        /* \"#utility.yul\":2380:2395   */\n      revert\n        /* \"#utility.yul\":2530:2647   */\n    tag_63:\n        /* \"#utility.yul\":2639:2640   */\n      0x00\n        /* \"#utility.yul\":2636:2637   */\n      dup1\n        /* \"#utility.yul\":2629:2641   */\n      revert\n        /* \"#utility.yul\":2653:2775   */\n    tag_59:\n        /* \"#utility.yul\":2726:2750   */\n      tag_102\n        /* \"#utility.yul\":2744:2749   */\n      dup2\n        /* \"#utility.yul\":2726:2750   */\n      tag_68\n      jump\t// in\n    tag_102:\n        /* \"#utility.yul\":2719:2724   */\n      dup2\n        /* \"#utility.yul\":2716:2751   */\n      eq\n        /* \"#utility.yul\":2706:2769   */\n      tag_103\n      jumpi\n        /* \"#utility.yul\":2765:2766   */\n      0x00\n        /* \"#utility.yul\":2762:2763   */\n      dup1\n        /* \"#utility.yul\":2755:2767   */\n      revert\n        /* \"#utility.yul\":2706:2769   */\n    tag_103:\n        /* \"#utility.yul\":2653:2775   */\n      pop\n      jump\t// out\n\n    auxdata: 0xa2646970667358221220d5eedc78612360c5eb705ee7bfafb70b4dc6998a0849803c0b326d8c6cf3de8964736f6c63430008070033\n}\n",
				"bytecode": {
					"linkReferences": {},
					"object": "60806040524360005534801561001457600080fd5b506103e3806100246000396000f3fe608060405234801561001057600080fd5b50600436106100935760003560e01c8063b295a00e11610066578063b295a00e14610110578063b6baffe31461012e578063d1a82a9d1461014c578063f8b2cb4f1461016a578063f9bd55cc1461019a57610093565b8063188ec3561461009857806327e86d6e146100b6578063412d151a146100d45780639663f88f146100f2575b600080fd5b6100a06101b8565b6040516100ad91906102cd565b60405180910390f35b6100be6101c0565b6040516100cb91906102b2565b60405180910390f35b6100dc6101d7565b6040516100e991906102cd565b60405180910390f35b6100fa6101df565b60405161010791906102b2565b60405180910390f35b6101186101e9565b60405161012591906102cd565b60405180910390f35b6101366101f1565b60405161014391906102cd565b60405180910390f35b6101546101f9565b6040516101619190610297565b60405180910390f35b610184600480360381019061017f919061023d565b610201565b60405161019191906102cd565b60405180910390f35b6101a2610222565b6040516101af91906102cd565b60405180910390f35b600042905090565b600060016000546101d191906102e8565b40905090565b600043905090565b6000805440905090565b600045905090565b600044905090565b600041905090565b60008173ffffffffffffffffffffffffffffffffffffffff16319050919050565b60005481565b60008135905061023781610396565b92915050565b60006020828403121561025357610252610391565b5b600061026184828501610228565b91505092915050565b6102738161031c565b82525050565b6102828161032e565b82525050565b61029181610358565b82525050565b60006020820190506102ac600083018461026a565b92915050565b60006020820190506102c76000830184610279565b92915050565b60006020820190506102e26000830184610288565b92915050565b60006102f382610358565b91506102fe83610358565b92508282101561031157610310610362565b5b828203905092915050565b600061032782610338565b9050919050565b6000819050919050565b600073ffffffffffffffffffffffffffffffffffffffff82169050919050565b6000819050919050565b7f4e487b7100000000000000000000000000000000000000000000000000000000600052601160045260246000fd5b600080fd5b61039f8161031c565b81146103aa57600080fd5b5056fea2646970667358221220d5eedc78612360c5eb705ee7bfafb70b4dc6998a0849803c0b326d8c6cf3de8964736f6c63430008070033",
					"opcodes": "PUSH1 0x80 PUSH1 0x40 MSTORE NUMBER PUSH1 0x0 SSTORE CALLVALUE DUP1 ISZERO PUSH2 0x14 JUMPI PUSH1 0x0 DUP1 REVERT JUMPDEST POP PUSH2 0x3E3 DUP1 PUSH2 0x24 PUSH1 0x0 CODECOPY PUSH1 0x0 RETURN INVALID PUSH1 0x80 PUSH1 0x40 MSTORE CALLVALUE DUP1 ISZERO PUSH2 0x10 JUMPI PUSH1 0x0 DUP1 REVERT JUMPDEST POP PUSH1 0x4 CALLDATASIZE LT PUSH2 0x93 JUMPI PUSH1 0x0 CALLDATALOAD PUSH1 0xE0 SHR DUP1 PUSH4 0xB295A00E GT PUSH2 0x66 JUMPI DUP1 PUSH4 0xB295A00E EQ PUSH2 0x110 JUMPI DUP1 PUSH4 0xB6BAFFE3 EQ PUSH2 0x12E JUMPI DUP1 PUSH4 0xD1A82A9D EQ PUSH2 0x14C JUMPI DUP1 PUSH4 0xF8B2CB4F EQ PUSH2 0x16A JUMPI DUP1 PUSH4 0xF9BD55CC EQ PUSH2 0x19A JUMPI PUSH2 0x93 JUMP JUMPDEST DUP1 PUSH4 0x188EC356 EQ PUSH2 0x98 JUMPI DUP1 PUSH4 0x27E86D6E EQ PUSH2 0xB6 JUMPI DUP1 PUSH4 0x412D151A EQ PUSH2 0xD4 JUMPI DUP1 PUSH4 0x9663F88F EQ PUSH2 0xF2 JUMPI JUMPDEST PUSH1 0x0 DUP1 REVERT JUMPDEST PUSH2 0xA0 PUSH2 0x1B8 JUMP JUMPDEST PUSH1 0x40 MLOAD PUSH2 0xAD SWAP2 SWAP1 PUSH2 0x2CD JUMP JUMPDEST PUSH1 0x40 MLOAD DUP1 SWAP2 SUB SWAP1 RETURN JUMPDEST PUSH2 0xBE PUSH2 0x1C0 JUMP JUMPDEST PUSH1 0x40 MLOAD PUSH2 0xCB SWAP2 SWAP1 PUSH2 0x2B2 JUMP JUMPDEST PUSH1 0x40 MLOAD DUP1 SWAP2 SUB SWAP1 RETURN JUMPDEST PUSH2 0xDC PUSH2 0x1D7 JUMP JUMPDEST PUSH1 0x40 MLOAD PUSH2 0xE9 SWAP2 SWAP1 PUSH2 0x2CD JUMP JUMPDEST PUSH1 0x40 MLOAD DUP1 SWAP2 SUB SWAP1 RETURN JUMPDEST PUSH2 0xFA PUSH2 0x1DF JUMP JUMPDEST PUSH1 0x40 MLOAD PUSH2 0x107 SWAP2 SWAP1 PUSH2 0x2B2 JUMP JUMPDEST PUSH1 0x40 MLOAD DUP1 SWAP2 SUB SWAP1 RETURN JUMPDEST PUSH2 0x118 PUSH2 0x1E9 JUMP JUMPDEST PUSH1 0x40 MLOAD PUSH2 0x125 SWAP2 SWAP1 PUSH2 0x2CD JUMP JUMPDEST PUSH1 0x40 MLOAD DUP1 SWAP2 SUB SWAP1 RETURN JUMPDEST PUSH2 0x136 PUSH2 0x1F1 JUMP JUMPDEST PUSH1 0x40 MLOAD PUSH2 0x143 SWAP2 SWAP1 PUSH2 0x2CD JUMP JUMPDEST PUSH1 0x40 MLOAD DUP1 SWAP2 SUB SWAP1 RETURN JUMPDEST PUSH2 0x154 PUSH2 0x1F9 JUMP JUMPDEST PUSH1 0x40 MLOAD PUSH2 0x161 SWAP2 SWAP1 PUSH2 0x297 JUMP JUMPDEST PUSH1 0x40 MLOAD DUP1 SWAP2 SUB SWAP1 RETURN JUMPDEST PUSH2 0x184 PUSH1 0x4 DUP1 CALLDATASIZE SUB DUP2 ADD SWAP1 PUSH2 0x17F SWAP2 SWAP1 PUSH2 0x23D JUMP JUMPDEST PUSH2 0x201 JUMP JUMPDEST PUSH1 0x40 MLOAD PUSH2 0x191 SWAP2 SWAP1 PUSH2 0x2CD JUMP JUMPDEST PUSH1 0x40 MLOAD DUP1 SWAP2 SUB SWAP1 RETURN JUMPDEST PUSH2 0x1A2 PUSH2 0x222 JUMP JUMPDEST PUSH1 0x40 MLOAD PUSH2 0x1AF SWAP2 SWAP1 PUSH2 0x2CD JUMP JUMPDEST PUSH1 0x40 MLOAD DUP1 SWAP2 SUB SWAP1 RETURN JUMPDEST PUSH1 0x0 TIMESTAMP SWAP1 POP SWAP1 JUMP JUMPDEST PUSH1 0x0 PUSH1 0x1 PUSH1 0x0 SLOAD PUSH2 0x1D1 SWAP2 SWAP1 PUSH2 0x2E8 JUMP JUMPDEST BLOCKHASH SWAP1 POP SWAP1 JUMP JUMPDEST PUSH1 0x0 NUMBER SWAP1 POP SWAP1 JUMP JUMPDEST PUSH1 0x0 DUP1 SLOAD BLOCKHASH SWAP1 POP SWAP1 JUMP JUMPDEST PUSH1 0x0 GASLIMIT SWAP1 POP SWAP1 JUMP JUMPDEST PUSH1 0x0 DIFFICULTY SWAP1 POP SWAP1 JUMP JUMPDEST PUSH1 0x0 COINBASE SWAP1 POP SWAP1 JUMP JUMPDEST PUSH1 0x0 DUP2 PUSH20 0xFFFFFFFFFFFFFFFFFFFFFFFFFFFFFFFFFFFFFFFF AND BALANCE SWAP1 POP SWAP2 SWAP1 POP JUMP JUMPDEST PUSH1 0x0 SLOAD DUP2 JUMP JUMPDEST PUSH1 0x0 DUP2 CALLDATALOAD SWAP1 POP PUSH2 0x237 DUP2 PUSH2 0x396 JUMP JUMPDEST SWAP3 SWAP2 POP POP JUMP JUMPDEST PUSH1 0x0 PUSH1 0x20 DUP3 DUP5 SUB SLT ISZERO PUSH2 0x253 JUMPI PUSH2 0x252 PUSH2 0x391 JUMP JUMPDEST JUMPDEST PUSH1 0x0 PUSH2 0x261 DUP5 DUP3 DUP6 ADD PUSH2 0x228 JUMP JUMPDEST SWAP2 POP POP SWAP3 SWAP2 POP POP JUMP JUMPDEST PUSH2 0x273 DUP2 PUSH2 0x31C JUMP JUMPDEST DUP3 MSTORE POP POP JUMP JUMPDEST PUSH2 0x282 DUP2 PUSH2 0x32E JUMP JUMPDEST DUP3 MSTORE POP POP JUMP JUMPDEST PUSH2 0x291 DUP2 PUSH2 0x358 JUMP JUMPDEST DUP3 MSTORE POP POP JUMP JUMPDEST PUSH1 0x0 PUSH1 0x20 DUP3 ADD SWAP1 POP PUSH2 0x2AC PUSH1 0x0 DUP4 ADD DUP5 PUSH2 0x26A JUMP JUMPDEST SWAP3 SWAP2 POP POP JUMP JUMPDEST PUSH1 0x0 PUSH1 0x20 DUP3 ADD SWAP1 POP PUSH2 0x2C7 PUSH1 0x0 DUP4 ADD DUP5 PUSH2 0x279 JUMP JUMPDEST SWAP3 SWAP2 POP POP JUMP JUMPDEST PUSH1 0x0 PUSH1 0x20 DUP3 ADD SWAP1 POP PUSH2 0x2E2 PUSH1 0x0 DUP4 ADD DUP5 PUSH2 0x288 JUMP JUMPDEST SWAP3 SWAP2 POP POP JUMP JUMPDEST PUSH1 0x0 PUSH2 0x2F3 DUP3 PUSH2 0x358 JUMP JUMPDEST SWAP2 POP PUSH2 0x2FE DUP4 PUSH2 0x358 JUMP JUMPDEST SWAP3 POP DUP3 DUP3 LT ISZERO PUSH2 0x311 JUMPI PUSH2 0x310 PUSH2 0x362 JUMP JUMPDEST JUMPDEST DUP3 DUP3 SUB SWAP1 POP SWAP3 SWAP2 POP POP JUMP JUMPDEST PUSH1 0x0 PUSH2 0x327 DUP3 PUSH2 0x338 JUMP JUMPDEST SWAP1 POP SWAP2 SWAP1 POP JUMP JUMPDEST PUSH1 0x0 DUP2 SWAP1 POP SWAP2 SWAP1 POP JUMP JUMPDEST PUSH1 0x0 PUSH20 0xFFFFFFFFFFFFFFFFFFFFFFFFFFFFFFFFFFFFFFFF DUP3 AND SWAP1 POP SWAP2 SWAP1 POP JUMP JUMPDEST PUSH1 0x0 DUP2 SWAP1 POP SWAP2 SWAP1 POP JUMP JUMPDEST PUSH32 0x4E487B7100000000000000000000000000000000000000000000000000000000 PUSH1 0x0 MSTORE PUSH1 0x11 PUSH1 0x4 MSTORE PUSH1 0x24 PUSH1 0x0 REVERT JUMPDEST PUSH1 0x0 DUP1 REVERT JUMPDEST PUSH2 0x39F DUP2 PUSH2 0x31C JUMP JUMPDEST DUP2 EQ PUSH2 0x3AA JUMPI PUSH1 0x0 DUP1 REVERT JUMPDEST POP JUMP INVALID LOG2 PUSH5 0x6970667358 0x22 SLT KECCAK256 0xD5 0xEE 0xDC PUSH25 0x612360C5EB705EE7BFAFB70B4DC6998A0849803C0B326D8C6C RETURN 0xDE DUP10 PUSH5 0x736F6C6343 STOP ADDMOD SMOD STOP CALLER "
				},
				"gasEstimates": {
					"creation": {
						"codeDepositCost": "199000",
						"executionCost": "22350",
						"totalCost": "221350"
					},
					"external": {
						"_number()": "2517",
						"getBalance(address)": "3323",
						"getBlockH()": "381",
						"getBlockHash()": "2524",
						"getCoinbase()": "429",
						"getDifficulty()": "358",
						"getLastBlockHash()": "infinite",
						"getLimit()": "336",
						"getTimestamp()": "337"
					}
				},
				"methodIdentifiers": {
					"_number()": "f9bd55cc",
					"getBalance(address)": "f8b2cb4f",
					"getBlockH()": "412d151a",
					"getBlockHash()": "9663f88f",
					"getCoinbase()": "d1a82a9d",
					"getDifficulty()": "b6baffe3",
					"getLastBlockHash()": "27e86d6e",
					"getLimit()": "b295a00e",
					"getTimestamp()": "188ec356"
				}
			},
			"storageLayout": {
				"storage": [
					{
						"astId": 5,
						"contract": "shijian/zhangpan.sol:zhangpan",
						"label": "_number",
						"offset": 0,
						"slot": "0",
						"type": "t_uint256"
					}
				],
				"types": {
					"t_uint256": {
						"encoding": "inplace",
						"label": "uint256",
						"numberOfBytes": "32"
					}
				}
			},
			"userdoc": {
				"kind": "user",
				"methods": {},
				"version": 1
			}
		}
	}
}