{
	"shijian/zengcheng.sol": {
		"zengcheng": {
			"abi": [
				{
					"inputs": [
						{
							"internalType": "uint256",
							"name": "id",
							"type": "uint256"
						}
					],
					"name": "getBlockHash",
					"outputs": [
						{
							"internalType": "bytes32",
							"name": "",
							"type": "bytes32"
						}
					],
					"stateMutability": "view",
					"type": "function"
				},
				{
					"inputs": [],
					"name": "getBlockHeight",
					"outputs": [
						{
							"internalType": "uint256",
							"name": "",
							"type": "uint256"
						}
					],
					"stateMutability": "view",
					"type": "function"
				},
				{
					"inputs": [
						{
							"internalType": "address",
							"name": "person",
							"type": "address"
						}
					],
					"name": "getCBIBalance",
					"outputs": [
						{
							"internalType": "uint256",
							"name": "",
							"type": "uint256"
						}
					],
					"stateMutability": "view",
					"type": "function"
				},
				{
					"inputs": [],
					"name": "getCoinBase",
					"outputs": [
						{
							"internalType": "address",
							"name": "",
							"type": "address"
						}
					],
					"stateMutability": "view",
					"type": "function"
				},
				{
					"inputs": [],
					"name": "getDifficulty",
					"outputs": [
						{
							"internalType": "uint256",
							"name": "",
							"type": "uint256"
						}
					],
					"stateMutability": "view",
					"type": "function"
				},
				{
					"inputs": [],
					"name": "getGasLimit",
					"outputs": [
						{
							"internalType": "uint256",
							"name": "",
							"type": "uint256"
						}
					],
					"stateMutability": "view",
					"type": "function"
				},
				{
					"inputs": [],
					"name": "getLastBlockHash",
					"outputs": [
						{
							"internalType": "bytes32",
							"name": "",
							"type": "bytes32"
						}
					],
					"stateMutability": "view",
					"type": "function"
				},
				{
					"inputs": [],
					"name": "getTime",
					"outputs": [
						{
							"internalType": "uint256",
							"name": "",
							"type": "uint256"
						}
					],
					"stateMutability": "view",
					"type": "function"
				}
			],
			"devdoc": {
				"kind": "dev",
				"methods": {},
				"version": 1
			},
			"evm": {
				"assembly": "    /* \"shijian/zengcheng.sol\":61:898  contract zengcheng{... */\n  mstore(0x40, 0x80)\n  callvalue\n  dup1\n  iszero\n  tag_1\n  jumpi\n  0x00\n  dup1\n  revert\ntag_1:\n  pop\n  dataSize(sub_0)\n  dup1\n  dataOffset(sub_0)\n  0x00\n  codecopy\n  0x00\n  return\nstop\n\nsub_0: assembly {\n        /* \"shijian/zengcheng.sol\":61:898  contract zengcheng{... */\n      mstore(0x40, 0x80)\n      callvalue\n      dup1\n      iszero\n      tag_1\n      jumpi\n      0x00\n      dup1\n      revert\n    tag_1:\n      pop\n      jumpi(tag_2, lt(calldatasize, 0x04))\n      shr(0xe0, calldataload(0x00))\n      dup1\n      0x7bb96acb\n      gt\n      tag_11\n      jumpi\n      dup1\n      0x7bb96acb\n      eq\n      tag_7\n      jumpi\n      dup1\n      0x971ce641\n      eq\n      tag_8\n      jumpi\n      dup1\n      0xb6baffe3\n      eq\n      tag_9\n      jumpi\n      dup1\n      0xee82ac5e\n      eq\n      tag_10\n      jumpi\n      jump(tag_2)\n    tag_11:\n      dup1\n      0x1a93d1c3\n      eq\n      tag_3\n      jumpi\n      dup1\n      0x27e86d6e\n      eq\n      tag_4\n      jumpi\n      dup1\n      0x557ed1ba\n      eq\n      tag_5\n      jumpi\n      dup1\n      0x7092b2d8\n      eq\n      tag_6\n      jumpi\n    tag_2:\n      0x00\n      dup1\n      revert\n        /* \"shijian/zengcheng.sol\":710:798  function getGasLimit() public view returns(uint){... */\n    tag_3:\n      tag_12\n      tag_13\n      jump\t// in\n    tag_12:\n      mload(0x40)\n      tag_14\n      swap2\n      swap1\n      tag_15\n      jump\t// in\n    tag_14:\n      mload(0x40)\n      dup1\n      swap2\n      sub\n      swap1\n      return\n        /* \"shijian/zengcheng.sol\":304:411  function getLastBlockHash() public view returns(bytes32){... */\n    tag_4:\n      tag_16\n      tag_17\n      jump\t// in\n    tag_16:\n      mload(0x40)\n      tag_18\n      swap2\n      swap1\n      tag_19\n      jump\t// in\n    tag_18:\n      mload(0x40)\n      dup1\n      swap2\n      sub\n      swap1\n      return\n        /* \"shijian/zengcheng.sol\":417:505  function getTime() public view returns(uint256){... */\n    tag_5:\n      tag_20\n      tag_21\n      jump\t// in\n    tag_20:\n      mload(0x40)\n      tag_22\n      swap2\n      swap1\n      tag_15\n      jump\t// in\n    tag_22:\n      mload(0x40)\n      dup1\n      swap2\n      sub\n      swap1\n      return\n        /* \"shijian/zengcheng.sol\":86:193  function getCBIBalance(address person) public view returns(uint256){... */\n    tag_6:\n      tag_23\n      0x04\n      dup1\n      calldatasize\n      sub\n      dup2\n      add\n      swap1\n      tag_24\n      swap2\n      swap1\n      tag_25\n      jump\t// in\n    tag_24:\n      tag_26\n      jump\t// in\n    tag_23:\n      mload(0x40)\n      tag_27\n      swap2\n      swap1\n      tag_15\n      jump\t// in\n    tag_27:\n      mload(0x40)\n      dup1\n      swap2\n      sub\n      swap1\n      return\n        /* \"shijian/zengcheng.sol\":511:603  function getBlockHeight() public view returns(uint256){... */\n    tag_7:\n      tag_28\n      tag_29\n      jump\t// in\n    tag_28:\n      mload(0x40)\n      tag_30\n      swap2\n      swap1\n      tag_15\n      jump\t// in\n    tag_30:\n      mload(0x40)\n      dup1\n      swap2\n      sub\n      swap1\n      return\n        /* \"shijian/zengcheng.sol\":804:895  function getCoinBase() public view returns(address){... */\n    tag_8:\n      tag_31\n      tag_32\n      jump\t// in\n    tag_31:\n      mload(0x40)\n      tag_33\n      swap2\n      swap1\n      tag_34\n      jump\t// in\n    tag_33:\n      mload(0x40)\n      dup1\n      swap2\n      sub\n      swap1\n      return\n        /* \"shijian/zengcheng.sol\":609:704  function getDifficulty() public view returns(uint256){... */\n    tag_9:\n      tag_35\n      tag_36\n      jump\t// in\n    tag_35:\n      mload(0x40)\n      tag_37\n      swap2\n      swap1\n      tag_15\n      jump\t// in\n    tag_37:\n      mload(0x40)\n      dup1\n      swap2\n      sub\n      swap1\n      return\n        /* \"shijian/zengcheng.sol\":199:297  function getBlockHash(uint id) public view returns(bytes32){... */\n    tag_10:\n      tag_38\n      0x04\n      dup1\n      calldatasize\n      sub\n      dup2\n      add\n      swap1\n      tag_39\n      swap2\n      swap1\n      tag_40\n      jump\t// in\n    tag_39:\n      tag_41\n      jump\t// in\n    tag_38:\n      mload(0x40)\n      tag_42\n      swap2\n      swap1\n      tag_19\n      jump\t// in\n    tag_42:\n      mload(0x40)\n      dup1\n      swap2\n      sub\n      swap1\n      return\n        /* \"shijian/zengcheng.sol\":710:798  function getGasLimit() public view returns(uint){... */\n    tag_13:\n        /* \"shijian/zengcheng.sol\":753:757  uint */\n      0x00\n        /* \"shijian/zengcheng.sol\":776:790  block.gaslimit */\n      gaslimit\n        /* \"shijian/zengcheng.sol\":768:790  return  block.gaslimit */\n      swap1\n      pop\n        /* \"shijian/zengcheng.sol\":710:798  function getGasLimit() public view returns(uint){... */\n      swap1\n      jump\t// out\n        /* \"shijian/zengcheng.sol\":304:411  function getLastBlockHash() public view returns(bytes32){... */\n    tag_17:\n        /* \"shijian/zengcheng.sol\":352:359  bytes32 */\n      0x00\n        /* \"shijian/zengcheng.sol\":401:402  1 */\n      0x01\n        /* \"shijian/zengcheng.sol\":388:400  block.number */\n      number\n        /* \"shijian/zengcheng.sol\":388:402  block.number-1 */\n      tag_45\n      swap2\n      swap1\n      tag_46\n      jump\t// in\n    tag_45:\n        /* \"shijian/zengcheng.sol\":378:403  blockhash(block.number-1) */\n      blockhash\n        /* \"shijian/zengcheng.sol\":371:403  return blockhash(block.number-1) */\n      swap1\n      pop\n        /* \"shijian/zengcheng.sol\":304:411  function getLastBlockHash() public view returns(bytes32){... */\n      swap1\n      jump\t// out\n        /* \"shijian/zengcheng.sol\":417:505  function getTime() public view returns(uint256){... */\n    tag_21:\n        /* \"shijian/zengcheng.sol\":456:463  uint256 */\n      0x00\n        /* \"shijian/zengcheng.sol\":482:497  block.timestamp */\n      timestamp\n        /* \"shijian/zengcheng.sol\":475:497  return block.timestamp */\n      swap1\n      pop\n        /* \"shijian/zengcheng.sol\":417:505  function getTime() public view returns(uint256){... */\n      swap1\n      jump\t// out\n        /* \"shijian/zengcheng.sol\":86:193  function getCBIBalance(address person) public view returns(uint256){... */\n    tag_26:\n        /* \"shijian/zengcheng.sol\":145:152  uint256 */\n      0x00\n        /* \"shijian/zengcheng.sol\":171:177  person */\n      dup2\n        /* \"shijian/zengcheng.sol\":171:185  person.balance */\n      0xffffffffffffffffffffffffffffffffffffffff\n      and\n      balance\n        /* \"shijian/zengcheng.sol\":164:185  return person.balance */\n      swap1\n      pop\n        /* \"shijian/zengcheng.sol\":86:193  function getCBIBalance(address person) public view returns(uint256){... */\n      swap2\n      swap1\n      pop\n      jump\t// out\n        /* \"shijian/zengcheng.sol\":511:603  function getBlockHeight() public view returns(uint256){... */\n    tag_29:\n        /* \"shijian/zengcheng.sol\":557:564  uint256 */\n      0x00\n        /* \"shijian/zengcheng.sol\":583:595  block.number */\n      number\n        /* \"shijian/zengcheng.sol\":576:595  return block.number */\n      swap1\n      pop\n        /* \"shijian/zengcheng.sol\":511:603  function getBlockHeight() public view returns(uint256){... */\n      swap1\n      jump\t// out\n        /* \"shijian/zengcheng.sol\":804:895  function getCoinBase() public view returns(address){... */\n    tag_32:\n        /* \"shijian/zengcheng.sol\":847:854  address */\n      0x00\n        /* \"shijian/zengcheng.sol\":873:887  block.coinbase */\n      coinbase\n        /* \"shijian/zengcheng.sol\":866:887  return block.coinbase */\n      swap1\n      pop\n        /* \"shijian/zengcheng.sol\":804:895  function getCoinBase() public view returns(address){... */\n      swap1\n      jump\t// out\n        /* \"shijian/zengcheng.sol\":609:704  function getDifficulty() public view returns(uint256){... */\n    tag_36:\n        /* \"shijian/zengcheng.sol\":654:661  uint256 */\n      0x00\n        /* \"shijian/zengcheng.sol\":680:696  block.difficulty */\n      difficulty\n        /* \"shijian/zengcheng.sol\":673:696  return block.difficulty */\n      swap1\n      pop\n        /* \"shijian/zengcheng.sol\":609:704  function getDifficulty() public view returns(uint256){... */\n      swap1\n      jump\t// out\n        /* \"shijian/zengcheng.sol\":199:297  function getBlockHash(uint id) public view returns(bytes32){... */\n    tag_41:\n        /* \"shijian/zengcheng.sol\":250:257  bytes32 */\n      0x00\n        /* \"shijian/zengcheng.sol\":286:288  id */\n      dup2\n        /* \"shijian/zengcheng.sol\":276:289  blockhash(id) */\n      blockhash\n        /* \"shijian/zengcheng.sol\":269:289  return blockhash(id) */\n      swap1\n      pop\n        /* \"shijian/zengcheng.sol\":199:297  function getBlockHash(uint id) public view returns(bytes32){... */\n      swap2\n      swap1\n      pop\n      jump\t// out\n        /* \"#utility.yul\":7:84   */\n    tag_53:\n        /* \"#utility.yul\":44:51   */\n      0x00\n        /* \"#utility.yul\":73:78   */\n      dup2\n        /* \"#utility.yul\":62:78   */\n      swap1\n      pop\n        /* \"#utility.yul\":7:84   */\n      swap2\n      swap1\n      pop\n      jump\t// out\n        /* \"#utility.yul\":90:208   */\n    tag_54:\n        /* \"#utility.yul\":177:201   */\n      tag_71\n        /* \"#utility.yul\":195:200   */\n      dup2\n        /* \"#utility.yul\":177:201   */\n      tag_53\n      jump\t// in\n    tag_71:\n        /* \"#utility.yul\":172:175   */\n      dup3\n        /* \"#utility.yul\":165:202   */\n      mstore\n        /* \"#utility.yul\":90:208   */\n      pop\n      pop\n      jump\t// out\n        /* \"#utility.yul\":214:436   */\n    tag_15:\n        /* \"#utility.yul\":307:311   */\n      0x00\n        /* \"#utility.yul\":345:347   */\n      0x20\n        /* \"#utility.yul\":334:343   */\n      dup3\n        /* \"#utility.yul\":330:348   */\n      add\n        /* \"#utility.yul\":322:348   */\n      swap1\n      pop\n        /* \"#utility.yul\":358:429   */\n      tag_73\n        /* \"#utility.yul\":426:427   */\n      0x00\n        /* \"#utility.yul\":415:424   */\n      dup4\n        /* \"#utility.yul\":411:428   */\n      add\n        /* \"#utility.yul\":402:408   */\n      dup5\n        /* \"#utility.yul\":358:429   */\n      tag_54\n      jump\t// in\n    tag_73:\n        /* \"#utility.yul\":214:436   */\n      swap3\n      swap2\n      pop\n      pop\n      jump\t// out\n        /* \"#utility.yul\":442:519   */\n    tag_55:\n        /* \"#utility.yul\":479:486   */\n      0x00\n        /* \"#utility.yul\":508:513   */\n      dup2\n        /* \"#utility.yul\":497:513   */\n      swap1\n      pop\n        /* \"#utility.yul\":442:519   */\n      swap2\n      swap1\n      pop\n      jump\t// out\n        /* \"#utility.yul\":525:643   */\n    tag_56:\n        /* \"#utility.yul\":612:636   */\n      tag_76\n        /* \"#utility.yul\":630:635   */\n      dup2\n        /* \"#utility.yul\":612:636   */\n      tag_55\n      jump\t// in\n    tag_76:\n        /* \"#utility.yul\":607:610   */\n      dup3\n        /* \"#utility.yul\":600:637   */\n      mstore\n        /* \"#utility.yul\":525:643   */\n      pop\n      pop\n      jump\t// out\n        /* \"#utility.yul\":649:871   */\n    tag_19:\n        /* \"#utility.yul\":742:746   */\n      0x00\n        /* \"#utility.yul\":780:782   */\n      0x20\n        /* \"#utility.yul\":769:778   */\n      dup3\n        /* \"#utility.yul\":765:783   */\n      add\n        /* \"#utility.yul\":757:783   */\n      swap1\n      pop\n        /* \"#utility.yul\":793:864   */\n      tag_78\n        /* \"#utility.yul\":861:862   */\n      0x00\n        /* \"#utility.yul\":850:859   */\n      dup4\n        /* \"#utility.yul\":846:863   */\n      add\n        /* \"#utility.yul\":837:843   */\n      dup5\n        /* \"#utility.yul\":793:864   */\n      tag_56\n      jump\t// in\n    tag_78:\n        /* \"#utility.yul\":649:871   */\n      swap3\n      swap2\n      pop\n      pop\n      jump\t// out\n        /* \"#utility.yul\":958:1075   */\n    tag_58:\n        /* \"#utility.yul\":1067:1068   */\n      0x00\n        /* \"#utility.yul\":1064:1065   */\n      dup1\n        /* \"#utility.yul\":1057:1069   */\n      revert\n        /* \"#utility.yul\":1204:1330   */\n    tag_60:\n        /* \"#utility.yul\":1241:1248   */\n      0x00\n        /* \"#utility.yul\":1281:1323   */\n      0xffffffffffffffffffffffffffffffffffffffff\n        /* \"#utility.yul\":1274:1279   */\n      dup3\n        /* \"#utility.yul\":1270:1324   */\n      and\n        /* \"#utility.yul\":1259:1324   */\n      swap1\n      pop\n        /* \"#utility.yul\":1204:1330   */\n      swap2\n      swap1\n      pop\n      jump\t// out\n        /* \"#utility.yul\":1336:1432   */\n    tag_61:\n        /* \"#utility.yul\":1373:1380   */\n      0x00\n        /* \"#utility.yul\":1402:1426   */\n      tag_84\n        /* \"#utility.yul\":1420:1425   */\n      dup3\n        /* \"#utility.yul\":1402:1426   */\n      tag_60\n      jump\t// in\n    tag_84:\n        /* \"#utility.yul\":1391:1426   */\n      swap1\n      pop\n        /* \"#utility.yul\":1336:1432   */\n      swap2\n      swap1\n      pop\n      jump\t// out\n        /* \"#utility.yul\":1438:1560   */\n    tag_62:\n        /* \"#utility.yul\":1511:1535   */\n      tag_86\n        /* \"#utility.yul\":1529:1534   */\n      dup2\n        /* \"#utility.yul\":1511:1535   */\n      tag_61\n      jump\t// in\n    tag_86:\n        /* \"#utility.yul\":1504:1509   */\n      dup2\n        /* \"#utility.yul\":1501:1536   */\n      eq\n        /* \"#utility.yul\":1491:1554   */\n      tag_87\n      jumpi\n        /* \"#utility.yul\":1550:1551   */\n      0x00\n        /* \"#utility.yul\":1547:1548   */\n      dup1\n        /* \"#utility.yul\":1540:1552   */\n      revert\n        /* \"#utility.yul\":1491:1554   */\n    tag_87:\n        /* \"#utility.yul\":1438:1560   */\n      pop\n      jump\t// out\n        /* \"#utility.yul\":1566:1705   */\n    tag_63:\n        /* \"#utility.yul\":1612:1617   */\n      0x00\n        /* \"#utility.yul\":1650:1656   */\n      dup2\n        /* \"#utility.yul\":1637:1657   */\n      calldataload\n        /* \"#utility.yul\":1628:1657   */\n      swap1\n      pop\n        /* \"#utility.yul\":1666:1699   */\n      tag_89\n        /* \"#utility.yul\":1693:1698   */\n      dup2\n        /* \"#utility.yul\":1666:1699   */\n      tag_62\n      jump\t// in\n    tag_89:\n        /* \"#utility.yul\":1566:1705   */\n      swap3\n      swap2\n      pop\n      pop\n      jump\t// out\n        /* \"#utility.yul\":1711:2040   */\n    tag_25:\n        /* \"#utility.yul\":1770:1776   */\n      0x00\n        /* \"#utility.yul\":1819:1821   */\n      0x20\n        /* \"#utility.yul\":1807:1816   */\n      dup3\n        /* \"#utility.yul\":1798:1805   */\n      dup5\n        /* \"#utility.yul\":1794:1817   */\n      sub\n        /* \"#utility.yul\":1790:1822   */\n      slt\n        /* \"#utility.yul\":1787:1906   */\n      iszero\n      tag_91\n      jumpi\n        /* \"#utility.yul\":1825:1904   */\n      tag_92\n      tag_58\n      jump\t// in\n    tag_92:\n        /* \"#utility.yul\":1787:1906   */\n    tag_91:\n        /* \"#utility.yul\":1945:1946   */\n      0x00\n        /* \"#utility.yul\":1970:2023   */\n      tag_93\n        /* \"#utility.yul\":2015:2022   */\n      dup5\n        /* \"#utility.yul\":2006:2012   */\n      dup3\n        /* \"#utility.yul\":1995:2004   */\n      dup6\n        /* \"#utility.yul\":1991:2013   */\n      add\n        /* \"#utility.yul\":1970:2023   */\n      tag_63\n      jump\t// in\n    tag_93:\n        /* \"#utility.yul\":1960:2023   */\n      swap2\n      pop\n        /* \"#utility.yul\":1916:2033   */\n      pop\n        /* \"#utility.yul\":1711:2040   */\n      swap3\n      swap2\n      pop\n      pop\n      jump\t// out\n        /* \"#utility.yul\":2046:2164   */\n    tag_64:\n        /* \"#utility.yul\":2133:2157   */\n      tag_95\n        /* \"#utility.yul\":2151:2156   */\n      dup2\n        /* \"#utility.yul\":2133:2157   */\n      tag_61\n      jump\t// in\n    tag_95:\n        /* \"#utility.yul\":2128:2131   */\n      dup3\n        /* \"#utility.yul\":2121:2158   */\n      mstore\n        /* \"#utility.yul\":2046:2164   */\n      pop\n      pop\n      jump\t// out\n        /* \"#utility.yul\":2170:2392   */\n    tag_34:\n        /* \"#utility.yul\":2263:2267   */\n      0x00\n        /* \"#utility.yul\":2301:2303   */\n      0x20\n        /* \"#utility.yul\":2290:2299   */\n      dup3\n        /* \"#utility.yul\":2286:2304   */\n      add\n        /* \"#utility.yul\":2278:2304   */\n      swap1\n      pop\n        /* \"#utility.yul\":2314:2385   */\n      tag_97\n        /* \"#utility.yul\":2382:2383   */\n      0x00\n        /* \"#utility.yul\":2371:2380   */\n      dup4\n        /* \"#utility.yul\":2367:2384   */\n      add\n        /* \"#utility.yul\":2358:2364   */\n      dup5\n        /* \"#utility.yul\":2314:2385   */\n      tag_64\n      jump\t// in\n    tag_97:\n        /* \"#utility.yul\":2170:2392   */\n      swap3\n      swap2\n      pop\n      pop\n      jump\t// out\n        /* \"#utility.yul\":2398:2520   */\n    tag_65:\n        /* \"#utility.yul\":2471:2495   */\n      tag_99\n        /* \"#utility.yul\":2489:2494   */\n      dup2\n        /* \"#utility.yul\":2471:2495   */\n      tag_53\n      jump\t// in\n    tag_99:\n        /* \"#utility.yul\":2464:2469   */\n      dup2\n        /* \"#utility.yul\":2461:2496   */\n      eq\n        /* \"#utility.yul\":2451:2514   */\n      tag_100\n      jumpi\n        /* \"#utility.yul\":2510:2511   */\n      0x00\n        /* \"#utility.yul\":2507:2508   */\n      dup1\n        /* \"#utility.yul\":2500:2512   */\n      revert\n        /* \"#utility.yul\":2451:2514   */\n    tag_100:\n        /* \"#utility.yul\":2398:2520   */\n      pop\n      jump\t// out\n        /* \"#utility.yul\":2526:2665   */\n    tag_66:\n        /* \"#utility.yul\":2572:2577   */\n      0x00\n        /* \"#utility.yul\":2610:2616   */\n      dup2\n        /* \"#utility.yul\":2597:2617   */\n      calldataload\n        /* \"#utility.yul\":2588:2617   */\n      swap1\n      pop\n        /* \"#utility.yul\":2626:2659   */\n      tag_102\n        /* \"#utility.yul\":2653:2658   */\n      dup2\n        /* \"#utility.yul\":2626:2659   */\n      tag_65\n      jump\t// in\n    tag_102:\n        /* \"#utility.yul\":2526:2665   */\n      swap3\n      swap2\n      pop\n      pop\n      jump\t// out\n        /* \"#utility.yul\":2671:3000   */\n    tag_40:\n        /* \"#utility.yul\":2730:2736   */\n      0x00\n        /* \"#utility.yul\":2779:2781   */\n      0x20\n        /* \"#utility.yul\":2767:2776   */\n      dup3\n        /* \"#utility.yul\":2758:2765   */\n      dup5\n        /* \"#utility.yul\":2754:2777   */\n      sub\n        /* \"#utility.yul\":2750:2782   */\n      slt\n        /* \"#utility.yul\":2747:2866   */\n      iszero\n      tag_104\n      jumpi\n        /* \"#utility.yul\":2785:2864   */\n      tag_105\n      tag_58\n      jump\t// in\n    tag_105:\n        /* \"#utility.yul\":2747:2866   */\n    tag_104:\n        /* \"#utility.yul\":2905:2906   */\n      0x00\n        /* \"#utility.yul\":2930:2983   */\n      tag_106\n        /* \"#utility.yul\":2975:2982   */\n      dup5\n        /* \"#utility.yul\":2966:2972   */\n      dup3\n        /* \"#utility.yul\":2955:2964   */\n      dup6\n        /* \"#utility.yul\":2951:2973   */\n      add\n        /* \"#utility.yul\":2930:2983   */\n      tag_66\n      jump\t// in\n    tag_106:\n        /* \"#utility.yul\":2920:2983   */\n      swap2\n      pop\n        /* \"#utility.yul\":2876:2993   */\n      pop\n        /* \"#utility.yul\":2671:3000   */\n      swap3\n      swap2\n      pop\n      pop\n      jump\t// out\n        /* \"#utility.yul\":3006:3186   */\n    tag_67:\n        /* \"#utility.yul\":3054:3131   */\n      0x4e487b7100000000000000000000000000000000000000000000000000000000\n        /* \"#utility.yul\":3051:3052   */\n      0x00\n        /* \"#utility.yul\":3044:3132   */\n      mstore\n        /* \"#utility.yul\":3151:3155   */\n      0x11\n        /* \"#utility.yul\":3148:3149   */\n      0x04\n        /* \"#utility.yul\":3141:3156   */\n      mstore\n        /* \"#utility.yul\":3175:3179   */\n      0x24\n        /* \"#utility.yul\":3172:3173   */\n      0x00\n        /* \"#utility.yul\":3165:3180   */\n      revert\n        /* \"#utility.yul\":3192:3386   */\n    tag_46:\n        /* \"#utility.yul\":3232:3236   */\n      0x00\n        /* \"#utility.yul\":3252:3272   */\n      tag_109\n        /* \"#utility.yul\":3270:3271   */\n      dup3\n        /* \"#utility.yul\":3252:3272   */\n      tag_53\n      jump\t// in\n    tag_109:\n        /* \"#utility.yul\":3247:3272   */\n      swap2\n      pop\n        /* \"#utility.yul\":3286:3306   */\n      tag_110\n        /* \"#utility.yul\":3304:3305   */\n      dup4\n        /* \"#utility.yul\":3286:3306   */\n      tag_53\n      jump\t// in\n    tag_110:\n        /* \"#utility.yul\":3281:3306   */\n      swap3\n      pop\n        /* \"#utility.yul\":3330:3331   */\n      dup3\n        /* \"#utility.yul\":3327:3328   */\n      dup3\n        /* \"#utility.yul\":3323:3332   */\n      sub\n        /* \"#utility.yul\":3315:3332   */\n      swap1\n      pop\n        /* \"#utility.yul\":3354:3355   */\n      dup2\n        /* \"#utility.yul\":3348:3352   */\n      dup2\n        /* \"#utility.yul\":3345:3356   */\n      gt\n        /* \"#utility.yul\":3342:3379   */\n      iszero\n      tag_111\n      jumpi\n        /* \"#utility.yul\":3359:3377   */\n      tag_112\n      tag_67\n      jump\t// in\n    tag_112:\n        /* \"#utility.yul\":3342:3379   */\n    tag_111:\n        /* \"#utility.yul\":3192:3386   */\n      swap3\n      swap2\n      pop\n      pop\n      jump\t// out\n\n    auxdata: 0xa2646970667358221220dbce8a2b3512feac81d23dfd50469aef7cb987e2a97f3fd734bb602b48f2286464736f6c63430008100033\n}\n",
				"bytecode": {
					"linkReferences": {},
					"object": "608060405234801561001057600080fd5b5061041e806100206000396000f3fe608060405234801561001057600080fd5b50600436106100885760003560e01c80637bb96acb1161005b5780637bb96acb14610117578063971ce64114610135578063b6baffe314610153578063ee82ac5e1461017157610088565b80631a93d1c31461008d57806327e86d6e146100ab578063557ed1ba146100c95780637092b2d8146100e7575b600080fd5b6100956101a1565b6040516100a29190610223565b60405180910390f35b6100b36101a9565b6040516100c09190610257565b60405180910390f35b6100d16101be565b6040516100de9190610223565b60405180910390f35b61010160048036038101906100fc91906102d5565b6101c6565b60405161010e9190610223565b60405180910390f35b61011f6101e7565b60405161012c9190610223565b60405180910390f35b61013d6101ef565b60405161014a9190610311565b60405180910390f35b61015b6101f7565b6040516101689190610223565b60405180910390f35b61018b60048036038101906101869190610358565b6101ff565b6040516101989190610257565b60405180910390f35b600045905090565b60006001436101b891906103b4565b40905090565b600042905090565b60008173ffffffffffffffffffffffffffffffffffffffff16319050919050565b600043905090565b600041905090565b600044905090565b600081409050919050565b6000819050919050565b61021d8161020a565b82525050565b60006020820190506102386000830184610214565b92915050565b6000819050919050565b6102518161023e565b82525050565b600060208201905061026c6000830184610248565b92915050565b600080fd5b600073ffffffffffffffffffffffffffffffffffffffff82169050919050565b60006102a282610277565b9050919050565b6102b281610297565b81146102bd57600080fd5b50565b6000813590506102cf816102a9565b92915050565b6000602082840312156102eb576102ea610272565b5b60006102f9848285016102c0565b91505092915050565b61030b81610297565b82525050565b60006020820190506103266000830184610302565b92915050565b6103358161020a565b811461034057600080fd5b50565b6000813590506103528161032c565b92915050565b60006020828403121561036e5761036d610272565b5b600061037c84828501610343565b91505092915050565b7f4e487b7100000000000000000000000000000000000000000000000000000000600052601160045260246000fd5b60006103bf8261020a565b91506103ca8361020a565b92508282039050818111156103e2576103e1610385565b5b9291505056fea2646970667358221220dbce8a2b3512feac81d23dfd50469aef7cb987e2a97f3fd734bb602b48f2286464736f6c63430008100033",
					"opcodes": "PUSH1 0x80 PUSH1 0x40 MSTORE CALLVALUE DUP1 ISZERO PUSH2 0x10 JUMPI PUSH1 0x0 DUP1 REVERT JUMPDEST POP PUSH2 0x41E DUP1 PUSH2 0x20 PUSH1 0x0 CODECOPY PUSH1 0x0 RETURN INVALID PUSH1 0x80 PUSH1 0x40 MSTORE CALLVALUE DUP1 ISZERO PUSH2 0x10 JUMPI PUSH1 0x0 DUP1 REVERT JUMPDEST POP PUSH1 0x4 CALLDATASIZE LT PUSH2 0x88 JUMPI PUSH1 0x0 CALLDATALOAD PUSH1 0xE0 SHR DUP1 PUSH4 0x7BB96ACB GT PUSH2 0x5B JUMPI DUP1 PUSH4 0x7BB96ACB EQ PUSH2 0x117 JUMPI DUP1 PUSH4 0x971CE641 EQ PUSH2 0x135 JUMPI DUP1 PUSH4 0xB6BAFFE3 EQ PUSH2 0x153 JUMPI DUP1 PUSH4 0xEE82AC5E EQ PUSH2 0x171 JUMPI PUSH2 0x88 JUMP JUMPDEST DUP1 PUSH4 0x1A93D1C3 EQ PUSH2 0x8D JUMPI DUP1 PUSH4 0x27E86D6E EQ PUSH2 0xAB JUMPI DUP1 PUSH4 0x557ED1BA EQ PUSH2 0xC9 JUMPI DUP1 PUSH4 0x7092B2D8 EQ PUSH2 0xE7 JUMPI JUMPDEST PUSH1 0x0 DUP1 REVERT JUMPDEST PUSH2 0x95 PUSH2 0x1A1 JUMP JUMPDEST PUSH1 0x40 MLOAD PUSH2 0xA2 SWAP2 SWAP1 PUSH2 0x223 JUMP JUMPDEST PUSH1 0x40 MLOAD DUP1 SWAP2 SUB SWAP1 RETURN JUMPDEST PUSH2 0xB3 PUSH2 0x1A9 JUMP JUMPDEST PUSH1 0x40 MLOAD PUSH2 0xC0 SWAP2 SWAP1 PUSH2 0x257 JUMP JUMPDEST PUSH1 0x40 MLOAD DUP1 SWAP2 SUB SWAP1 RETURN JUMPDEST PUSH2 0xD1 PUSH2 0x1BE JUMP JUMPDEST PUSH1 0x40 MLOAD PUSH2 0xDE SWAP2 SWAP1 PUSH2 0x223 JUMP JUMPDEST PUSH1 0x40 MLOAD DUP1 SWAP2 SUB SWAP1 RETURN JUMPDEST PUSH2 0x101 PUSH1 0x4 DUP1 CALLDATASIZE SUB DUP2 ADD SWAP1 PUSH2 0xFC SWAP2 SWAP1 PUSH2 0x2D5 JUMP JUMPDEST PUSH2 0x1C6 JUMP JUMPDEST PUSH1 0x40 MLOAD PUSH2 0x10E SWAP2 SWAP1 PUSH2 0x223 JUMP JUMPDEST PUSH1 0x40 MLOAD DUP1 SWAP2 SUB SWAP1 RETURN JUMPDEST PUSH2 0x11F PUSH2 0x1E7 JUMP JUMPDEST PUSH1 0x40 MLOAD PUSH2 0x12C SWAP2 SWAP1 PUSH2 0x223 JUMP JUMPDEST PUSH1 0x40 MLOAD DUP1 SWAP2 SUB SWAP1 RETURN JUMPDEST PUSH2 0x13D PUSH2 0x1EF JUMP JUMPDEST PUSH1 0x40 MLOAD PUSH2 0x14A SWAP2 SWAP1 PUSH2 0x311 JUMP JUMPDEST PUSH1 0x40 MLOAD DUP1 SWAP2 SUB SWAP1 RETURN JUMPDEST PUSH2 0x15B PUSH2 0x1F7 JUMP JUMPDEST PUSH1 0x40 MLOAD PUSH2 0x168 SWAP2 SWAP1 PUSH2 0x223 JUMP JUMPDEST PUSH1 0x40 MLOAD DUP1 SWAP2 SUB SWAP1 RETURN JUMPDEST PUSH2 0x18B PUSH1 0x4 DUP1 CALLDATASIZE SUB DUP2 ADD SWAP1 PUSH2 0x186 SWAP2 SWAP1 PUSH2 0x358 JUMP JUMPDEST PUSH2 0x1FF JUMP JUMPDEST PUSH1 0x40 MLOAD PUSH2 0x198 SWAP2 SWAP1 PUSH2 0x257 JUMP JUMPDEST PUSH1 0x40 MLOAD DUP1 SWAP2 SUB SWAP1 RETURN JUMPDEST PUSH1 0x0 GASLIMIT SWAP1 POP SWAP1 JUMP JUMPDEST PUSH1 0x0 PUSH1 0x1 NUMBER PUSH2 0x1B8 SWAP2 SWAP1 PUSH2 0x3B4 JUMP JUMPDEST BLOCKHASH SWAP1 POP SWAP1 JUMP JUMPDEST PUSH1 0x0 TIMESTAMP SWAP1 POP SWAP1 JUMP JUMPDEST PUSH1 0x0 DUP2 PUSH20 0xFFFFFFFFFFFFFFFFFFFFFFFFFFFFFFFFFFFFFFFF AND BALANCE SWAP1 POP SWAP2 SWAP1 POP JUMP JUMPDEST PUSH1 0x0 NUMBER SWAP1 POP SWAP1 JUMP JUMPDEST PUSH1 0x0 COINBASE SWAP1 POP SWAP1 JUMP JUMPDEST PUSH1 0x0 DIFFICULTY SWAP1 POP SWAP1 JUMP JUMPDEST PUSH1 0x0 DUP2 BLOCKHASH SWAP1 POP SWAP2 SWAP1 POP JUMP JUMPDEST PUSH1 0x0 DUP2 SWAP1 POP SWAP2 SWAP1 POP JUMP JUMPDEST PUSH2 0x21D DUP2 PUSH2 0x20A JUMP JUMPDEST DUP3 MSTORE POP POP JUMP JUMPDEST PUSH1 0x0 PUSH1 0x20 DUP3 ADD SWAP1 POP PUSH2 0x238 PUSH1 0x0 DUP4 ADD DUP5 PUSH2 0x214 JUMP JUMPDEST SWAP3 SWAP2 POP POP JUMP JUMPDEST PUSH1 0x0 DUP2 SWAP1 POP SWAP2 SWAP1 POP JUMP JUMPDEST PUSH2 0x251 DUP2 PUSH2 0x23E JUMP JUMPDEST DUP3 MSTORE POP POP JUMP JUMPDEST PUSH1 0x0 PUSH1 0x20 DUP3 ADD SWAP1 POP PUSH2 0x26C PUSH1 0x0 DUP4 ADD DUP5 PUSH2 0x248 JUMP JUMPDEST SWAP3 SWAP2 POP POP JUMP JUMPDEST PUSH1 0x0 DUP1 REVERT JUMPDEST PUSH1 0x0 PUSH20 0xFFFFFFFFFFFFFFFFFFFFFFFFFFFFFFFFFFFFFFFF DUP3 AND SWAP1 POP SWAP2 SWAP1 POP JUMP JUMPDEST PUSH1 0x0 PUSH2 0x2A2 DUP3 PUSH2 0x277 JUMP JUMPDEST SWAP1 POP SWAP2 SWAP1 POP JUMP JUMPDEST PUSH2 0x2B2 DUP2 PUSH2 0x297 JUMP JUMPDEST DUP2 EQ PUSH2 0x2BD JUMPI PUSH1 0x0 DUP1 REVERT JUMPDEST POP JUMP JUMPDEST PUSH1 0x0 DUP2 CALLDATALOAD SWAP1 POP PUSH2 0x2CF DUP2 PUSH2 0x2A9 JUMP JUMPDEST SWAP3 SWAP2 POP POP JUMP JUMPDEST PUSH1 0x0 PUSH1 0x20 DUP3 DUP5 SUB SLT ISZERO PUSH2 0x2EB JUMPI PUSH2 0x2EA PUSH2 0x272 JUMP JUMPDEST JUMPDEST PUSH1 0x0 PUSH2 0x2F9 DUP5 DUP3 DUP6 ADD PUSH2 0x2C0 JUMP JUMPDEST SWAP2 POP POP SWAP3 SWAP2 POP POP JUMP JUMPDEST PUSH2 0x30B DUP2 PUSH2 0x297 JUMP JUMPDEST DUP3 MSTORE POP POP JUMP JUMPDEST PUSH1 0x0 PUSH1 0x20 DUP3 ADD SWAP1 POP PUSH2 0x326 PUSH1 0x0 DUP4 ADD DUP5 PUSH2 0x302 JUMP JUMPDEST SWAP3 SWAP2 POP POP JUMP JUMPDEST PUSH2 0x335 DUP2 PUSH2 0x20A JUMP JUMPDEST DUP2 EQ PUSH2 0x340 JUMPI PUSH1 0x0 DUP1 REVERT JUMPDEST POP JUMP JUMPDEST PUSH1 0x0 DUP2 CALLDATALOAD SWAP1 POP PUSH2 0x352 DUP2 PUSH2 0x32C JUMP JUMPDEST SWAP3 SWAP2 POP POP JUMP JUMPDEST PUSH1 0x0 PUSH1 0x20 DUP3 DUP5 SUB SLT ISZERO PUSH2 0x36E JUMPI PUSH2 0x36D PUSH2 0x272 JUMP JUMPDEST JUMPDEST PUSH1 0x0 PUSH2 0x37C DUP5 DUP3 DUP6 ADD PUSH2 0x343 JUMP JUMPDEST SWAP2 POP POP SWAP3 SWAP2 POP POP JUMP JUMPDEST PUSH32 0x4E487B7100000000000000000000000000000000000000000000000000000000 PUSH1 0x0 MSTORE PUSH1 0x11 PUSH1 0x4 MSTORE PUSH1 0x24 PUSH1 0x0 REVERT JUMPDEST PUSH1 0x0 PUSH2 0x3BF DUP3 PUSH2 0x20A JUMP JUMPDEST SWAP2 POP PUSH2 0x3CA DUP4 PUSH2 0x20A JUMP JUMPDEST SWAP3 POP DUP3 DUP3 SUB SWAP1 POP DUP2 DUP2 GT ISZERO PUSH2 0x3E2 JUMPI PUSH2 0x3E1 PUSH2 0x385 JUMP JUMPDEST JUMPDEST SWAP3 SWAP2 POP POP JUMP INVALID LOG2 PUSH5 0x6970667358 0x22 SLT KECCAK256 0xDB 0xCE DUP11 0x2B CALLDATALOAD SLT INVALID 0xAC DUP2 0xD2 RETURNDATASIZE REVERT POP CHAINID SWAP11 0xEF PUSH29 0xB987E2A97F3FD734BB602B48F2286464736F6C63430008100033000000 "
				},
				"gasEstimates": {
					"creation": {
						"codeDepositCost": "210800",
						"executionCost": "251",
						"totalCost": "211051"
					},
					"external": {
						"getBlockHash(uint256)": "688",
						"getBlockHeight()": "336",
						"getCBIBalance(address)": "3324",
						"getCoinBase()": "407",
						"getDifficulty()": "380",
						"getGasLimit()": "337",
						"getLastBlockHash()": "infinite",
						"getTime()": "381"
					}
				},
				"methodIdentifiers": {
					"getBlockHash(uint256)": "ee82ac5e",
					"getBlockHeight()": "7bb96acb",
					"getCBIBalance(address)": "7092b2d8",
					"getCoinBase()": "971ce641",
					"getDifficulty()": "b6baffe3",
					"getGasLimit()": "1a93d1c3",
					"getLastBlockHash()": "27e86d6e",
					"getTime()": "557ed1ba"
				}
			},
			"storageLayout": {
				"storage": [],
				"types": null
			},
			"userdoc": {
				"kind": "user",
				"methods": {},
				"version": 1
			}
		}
	}
}