{
	"shijian/ERC20Sample.sol": {
		"ERC20": {
			"abi": [
				{
					"inputs": [
						{
							"internalType": "string",
							"name": "_name",
							"type": "string"
						},
						{
							"internalType": "string",
							"name": "_symbol",
							"type": "string"
						},
						{
							"internalType": "uint8",
							"name": "_decimals",
							"type": "uint8"
						}
					],
					"stateMutability": "nonpayable",
					"type": "constructor"
				},
				{
					"anonymous": false,
					"inputs": [
						{
							"indexed": true,
							"internalType": "address",
							"name": "owner",
							"type": "address"
						},
						{
							"indexed": true,
							"internalType": "address",
							"name": "spender",
							"type": "address"
						},
						{
							"indexed": false,
							"internalType": "uint256",
							"name": "amount",
							"type": "uint256"
						}
					],
					"name": "Approval",
					"type": "event"
				},
				{
					"anonymous": false,
					"inputs": [
						{
							"indexed": true,
							"internalType": "address",
							"name": "from",
							"type": "address"
						},
						{
							"indexed": true,
							"internalType": "address",
							"name": "to",
							"type": "address"
						},
						{
							"indexed": false,
							"internalType": "uint256",
							"name": "amount",
							"type": "uint256"
						}
					],
					"name": "Transfer",
					"type": "event"
				},
				{
					"inputs": [
						{
							"internalType": "address",
							"name": "account",
							"type": "address"
						}
					],
					"name": "_creatmanage",
					"outputs": [],
					"stateMutability": "nonpayable",
					"type": "function"
				},
				{
					"inputs": [
						{
							"internalType": "address",
							"name": "account",
							"type": "address"
						},
						{
							"internalType": "uint256",
							"name": "amount",
							"type": "uint256"
						}
					],
					"name": "_randommint",
					"outputs": [],
					"stateMutability": "nonpayable",
					"type": "function"
				},
				{
					"inputs": [
						{
							"internalType": "address",
							"name": "owner",
							"type": "address"
						},
						{
							"internalType": "address",
							"name": "spender",
							"type": "address"
						}
					],
					"name": "allowance",
					"outputs": [
						{
							"internalType": "uint256",
							"name": "",
							"type": "uint256"
						}
					],
					"stateMutability": "view",
					"type": "function"
				},
				{
					"inputs": [
						{
							"internalType": "address",
							"name": "spender",
							"type": "address"
						},
						{
							"internalType": "uint256",
							"name": "amount",
							"type": "uint256"
						}
					],
					"name": "approve",
					"outputs": [
						{
							"internalType": "bool",
							"name": "",
							"type": "bool"
						}
					],
					"stateMutability": "nonpayable",
					"type": "function"
				},
				{
					"inputs": [
						{
							"internalType": "address",
							"name": "account",
							"type": "address"
						}
					],
					"name": "balanceOf",
					"outputs": [
						{
							"internalType": "uint256",
							"name": "",
							"type": "uint256"
						}
					],
					"stateMutability": "view",
					"type": "function"
				},
				{
					"inputs": [
						{
							"internalType": "address",
							"name": "account",
							"type": "address"
						},
						{
							"internalType": "uint256",
							"name": "amount",
							"type": "uint256"
						}
					],
					"name": "burn",
					"outputs": [],
					"stateMutability": "nonpayable",
					"type": "function"
				},
				{
					"inputs": [],
					"name": "decimals",
					"outputs": [
						{
							"internalType": "uint8",
							"name": "",
							"type": "uint8"
						}
					],
					"stateMutability": "view",
					"type": "function"
				},
				{
					"inputs": [
						{
							"internalType": "address",
							"name": "account",
							"type": "address"
						}
					],
					"name": "getTotelTransfer",
					"outputs": [
						{
							"internalType": "uint256",
							"name": "",
							"type": "uint256"
						}
					],
					"stateMutability": "view",
					"type": "function"
				},
				{
					"inputs": [],
					"name": "name",
					"outputs": [
						{
							"internalType": "string",
							"name": "",
							"type": "string"
						}
					],
					"stateMutability": "view",
					"type": "function"
				},
				{
					"inputs": [],
					"name": "symbol",
					"outputs": [
						{
							"internalType": "string",
							"name": "",
							"type": "string"
						}
					],
					"stateMutability": "view",
					"type": "function"
				},
				{
					"inputs": [
						{
							"internalType": "address",
							"name": "",
							"type": "address"
						}
					],
					"name": "tokenmanage",
					"outputs": [
						{
							"internalType": "bool",
							"name": "",
							"type": "bool"
						}
					],
					"stateMutability": "view",
					"type": "function"
				},
				{
					"inputs": [
						{
							"internalType": "address",
							"name": "",
							"type": "address"
						}
					],
					"name": "toralTransfer",
					"outputs": [
						{
							"internalType": "uint256",
							"name": "",
							"type": "uint256"
						}
					],
					"stateMutability": "view",
					"type": "function"
				},
				{
					"inputs": [],
					"name": "totalSupply",
					"outputs": [
						{
							"internalType": "uint256",
							"name": "",
							"type": "uint256"
						}
					],
					"stateMutability": "view",
					"type": "function"
				},
				{
					"inputs": [
						{
							"internalType": "address",
							"name": "recipient",
							"type": "address"
						},
						{
							"internalType": "uint256",
							"name": "amount",
							"type": "uint256"
						}
					],
					"name": "transfer",
					"outputs": [
						{
							"internalType": "bool",
							"name": "",
							"type": "bool"
						}
					],
					"stateMutability": "nonpayable",
					"type": "function"
				},
				{
					"inputs": [
						{
							"internalType": "address",
							"name": "sender",
							"type": "address"
						},
						{
							"internalType": "address",
							"name": "recipient",
							"type": "address"
						},
						{
							"internalType": "uint256",
							"name": "amount",
							"type": "uint256"
						}
					],
					"name": "transferFrom",
					"outputs": [
						{
							"internalType": "bool",
							"name": "",
							"type": "bool"
						}
					],
					"stateMutability": "nonpayable",
					"type": "function"
				}
			],
			"devdoc": {
				"kind": "dev",
				"methods": {},
				"version": 1
			},
			"evm": {
				"assembly": "    /* \"shijian/ERC20Sample.sol\":2793:7220  contract ERC20 is IERC20 {... */\n  mstore(0x40, 0x80)\n    /* \"shijian/ERC20Sample.sol\":3231:3419  constructor(... */\n  callvalue\n  dup1\n  iszero\n  tag_1\n  jumpi\n  0x00\n  dup1\n  revert\ntag_1:\n  pop\n  mload(0x40)\n  sub(codesize, bytecodeSize)\n  dup1\n  bytecodeSize\n  dup4\n  codecopy\n  dup2\n  dup2\n  add\n  0x40\n  mstore\n  dup2\n  add\n  swap1\n  tag_2\n  swap2\n  swap1\n  tag_3\n  jump\t// in\ntag_2:\n    /* \"shijian/ERC20Sample.sol\":3351:3356  _name */\n  dup3\n    /* \"shijian/ERC20Sample.sol\":3344:3348  name */\n  0x00\n    /* \"shijian/ERC20Sample.sol\":3344:3356  name = _name */\n  swap1\n  dup1\n  mload\n  swap1\n  0x20\n  add\n  swap1\n  tag_6\n  swap3\n  swap2\n  swap1\n  tag_7\n  jump\t// in\ntag_6:\n  pop\n    /* \"shijian/ERC20Sample.sol\":3375:3382  _symbol */\n  dup2\n    /* \"shijian/ERC20Sample.sol\":3366:3372  symbol */\n  0x01\n    /* \"shijian/ERC20Sample.sol\":3366:3382  symbol = _symbol */\n  swap1\n  dup1\n  mload\n  swap1\n  0x20\n  add\n  swap1\n  tag_8\n  swap3\n  swap2\n  swap1\n  tag_7\n  jump\t// in\ntag_8:\n  pop\n    /* \"shijian/ERC20Sample.sol\":3403:3412  _decimals */\n  dup1\n    /* \"shijian/ERC20Sample.sol\":3392:3400  decimals */\n  0x02\n  0x00\n    /* \"shijian/ERC20Sample.sol\":3392:3412  decimals = _decimals */\n  0x0100\n  exp\n  dup2\n  sload\n  dup2\n  0xff\n  mul\n  not\n  and\n  swap1\n  dup4\n  0xff\n  and\n  mul\n  or\n  swap1\n  sstore\n  pop\n    /* \"shijian/ERC20Sample.sol\":3231:3419  constructor(... */\n  pop\n  pop\n  pop\n    /* \"shijian/ERC20Sample.sol\":2793:7220  contract ERC20 is IERC20 {... */\n  jump(tag_9)\ntag_7:\n  dup3\n  dup1\n  sload\n  tag_10\n  swap1\n  tag_11\n  jump\t// in\ntag_10:\n  swap1\n  0x00\n  mstore\n  keccak256(0x00, 0x20)\n  swap1\n  0x1f\n  add\n  0x20\n  swap1\n  div\n  dup2\n  add\n  swap3\n  dup3\n  tag_13\n  jumpi\n  0x00\n  dup6\n  sstore\n  jump(tag_12)\ntag_13:\n  dup3\n  0x1f\n  lt\n  tag_14\n  jumpi\n  dup1\n  mload\n  not(0xff)\n  and\n  dup4\n  dup1\n  add\n  or\n  dup6\n  sstore\n  jump(tag_12)\ntag_14:\n  dup3\n  dup1\n  add\n  0x01\n  add\n  dup6\n  sstore\n  dup3\n  iszero\n  tag_12\n  jumpi\n  swap2\n  dup3\n  add\ntag_15:\n  dup3\n  dup2\n  gt\n  iszero\n  tag_16\n  jumpi\n  dup3\n  mload\n  dup3\n  sstore\n  swap2\n  0x20\n  add\n  swap2\n  swap1\n  0x01\n  add\n  swap1\n  jump(tag_15)\ntag_16:\ntag_12:\n  pop\n  swap1\n  pop\n  tag_17\n  swap2\n  swap1\n  tag_18\n  jump\t// in\ntag_17:\n  pop\n  swap1\n  jump\t// out\ntag_18:\ntag_19:\n  dup1\n  dup3\n  gt\n  iszero\n  tag_20\n  jumpi\n  0x00\n  dup2\n  0x00\n  swap1\n  sstore\n  pop\n  0x01\n  add\n  jump(tag_19)\ntag_20:\n  pop\n  swap1\n  jump\t// out\n    /* \"#utility.yul\":7:360   */\ntag_22:\n  0x00\n    /* \"#utility.yul\":121:186   */\n  tag_24\n    /* \"#utility.yul\":136:185   */\n  tag_25\n    /* \"#utility.yul\":178:184   */\n  dup5\n    /* \"#utility.yul\":136:185   */\n  tag_26\n  jump\t// in\ntag_25:\n    /* \"#utility.yul\":121:186   */\n  tag_27\n  jump\t// in\ntag_24:\n    /* \"#utility.yul\":112:186   */\n  swap1\n  pop\n    /* \"#utility.yul\":209:215   */\n  dup3\n    /* \"#utility.yul\":202:207   */\n  dup2\n    /* \"#utility.yul\":195:216   */\n  mstore\n    /* \"#utility.yul\":247:251   */\n  0x20\n    /* \"#utility.yul\":240:245   */\n  dup2\n    /* \"#utility.yul\":236:252   */\n  add\n    /* \"#utility.yul\":285:288   */\n  dup5\n    /* \"#utility.yul\":276:282   */\n  dup5\n    /* \"#utility.yul\":271:274   */\n  dup5\n    /* \"#utility.yul\":267:283   */\n  add\n    /* \"#utility.yul\":264:289   */\n  gt\n    /* \"#utility.yul\":261:263   */\n  iszero\n  tag_28\n  jumpi\n    /* \"#utility.yul\":302:303   */\n  0x00\n    /* \"#utility.yul\":299:300   */\n  dup1\n    /* \"#utility.yul\":292:304   */\n  revert\n    /* \"#utility.yul\":261:263   */\ntag_28:\n    /* \"#utility.yul\":315:354   */\n  tag_29\n    /* \"#utility.yul\":347:353   */\n  dup5\n    /* \"#utility.yul\":342:345   */\n  dup3\n    /* \"#utility.yul\":337:340   */\n  dup6\n    /* \"#utility.yul\":315:354   */\n  tag_30\n  jump\t// in\ntag_29:\n    /* \"#utility.yul\":102:360   */\n  pop\n  swap4\n  swap3\n  pop\n  pop\n  pop\n  jump\t// out\n    /* \"#utility.yul\":380:668   */\ntag_31:\n  0x00\n    /* \"#utility.yul\":496:499   */\n  dup3\n    /* \"#utility.yul\":489:493   */\n  0x1f\n    /* \"#utility.yul\":481:487   */\n  dup4\n    /* \"#utility.yul\":477:494   */\n  add\n    /* \"#utility.yul\":473:500   */\n  slt\n    /* \"#utility.yul\":463:465   */\n  tag_33\n  jumpi\n    /* \"#utility.yul\":514:515   */\n  0x00\n    /* \"#utility.yul\":511:512   */\n  dup1\n    /* \"#utility.yul\":504:516   */\n  revert\n    /* \"#utility.yul\":463:465   */\ntag_33:\n    /* \"#utility.yul\":547:553   */\n  dup2\n    /* \"#utility.yul\":541:554   */\n  mload\n    /* \"#utility.yul\":572:662   */\n  tag_34\n    /* \"#utility.yul\":658:661   */\n  dup5\n    /* \"#utility.yul\":650:656   */\n  dup3\n    /* \"#utility.yul\":643:647   */\n  0x20\n    /* \"#utility.yul\":635:641   */\n  dup7\n    /* \"#utility.yul\":631:648   */\n  add\n    /* \"#utility.yul\":572:662   */\n  tag_22\n  jump\t// in\ntag_34:\n    /* \"#utility.yul\":563:662   */\n  swap2\n  pop\n    /* \"#utility.yul\":453:668   */\n  pop\n  swap3\n  swap2\n  pop\n  pop\n  jump\t// out\n    /* \"#utility.yul\":674:813   */\ntag_35:\n  0x00\n    /* \"#utility.yul\":760:766   */\n  dup2\n    /* \"#utility.yul\":754:767   */\n  mload\n    /* \"#utility.yul\":745:767   */\n  swap1\n  pop\n    /* \"#utility.yul\":776:807   */\n  tag_37\n    /* \"#utility.yul\":801:806   */\n  dup2\n    /* \"#utility.yul\":776:807   */\n  tag_38\n  jump\t// in\ntag_37:\n    /* \"#utility.yul\":735:813   */\n  swap3\n  swap2\n  pop\n  pop\n  jump\t// out\n    /* \"#utility.yul\":819:1623   */\ntag_3:\n  0x00\n  dup1\n  0x00\n    /* \"#utility.yul\":990:992   */\n  0x60\n    /* \"#utility.yul\":978:987   */\n  dup5\n    /* \"#utility.yul\":969:976   */\n  dup7\n    /* \"#utility.yul\":965:988   */\n  sub\n    /* \"#utility.yul\":961:993   */\n  slt\n    /* \"#utility.yul\":958:960   */\n  iszero\n  tag_40\n  jumpi\n    /* \"#utility.yul\":1006:1007   */\n  0x00\n    /* \"#utility.yul\":1003:1004   */\n  dup1\n    /* \"#utility.yul\":996:1008   */\n  revert\n    /* \"#utility.yul\":958:960   */\ntag_40:\n    /* \"#utility.yul\":1070:1071   */\n  0x00\n    /* \"#utility.yul\":1059:1068   */\n  dup5\n    /* \"#utility.yul\":1055:1072   */\n  add\n    /* \"#utility.yul\":1049:1073   */\n  mload\n    /* \"#utility.yul\":1100:1118   */\n  0xffffffffffffffff\n    /* \"#utility.yul\":1092:1098   */\n  dup2\n    /* \"#utility.yul\":1089:1119   */\n  gt\n    /* \"#utility.yul\":1086:1088   */\n  iszero\n  tag_41\n  jumpi\n    /* \"#utility.yul\":1132:1133   */\n  0x00\n    /* \"#utility.yul\":1129:1130   */\n  dup1\n    /* \"#utility.yul\":1122:1134   */\n  revert\n    /* \"#utility.yul\":1086:1088   */\ntag_41:\n    /* \"#utility.yul\":1160:1234   */\n  tag_42\n    /* \"#utility.yul\":1226:1233   */\n  dup7\n    /* \"#utility.yul\":1217:1223   */\n  dup3\n    /* \"#utility.yul\":1206:1215   */\n  dup8\n    /* \"#utility.yul\":1202:1224   */\n  add\n    /* \"#utility.yul\":1160:1234   */\n  tag_31\n  jump\t// in\ntag_42:\n    /* \"#utility.yul\":1150:1234   */\n  swap4\n  pop\n    /* \"#utility.yul\":1020:1244   */\n  pop\n    /* \"#utility.yul\":1304:1306   */\n  0x20\n    /* \"#utility.yul\":1293:1302   */\n  dup5\n    /* \"#utility.yul\":1289:1307   */\n  add\n    /* \"#utility.yul\":1283:1308   */\n  mload\n    /* \"#utility.yul\":1335:1353   */\n  0xffffffffffffffff\n    /* \"#utility.yul\":1327:1333   */\n  dup2\n    /* \"#utility.yul\":1324:1354   */\n  gt\n    /* \"#utility.yul\":1321:1323   */\n  iszero\n  tag_43\n  jumpi\n    /* \"#utility.yul\":1367:1368   */\n  0x00\n    /* \"#utility.yul\":1364:1365   */\n  dup1\n    /* \"#utility.yul\":1357:1369   */\n  revert\n    /* \"#utility.yul\":1321:1323   */\ntag_43:\n    /* \"#utility.yul\":1395:1469   */\n  tag_44\n    /* \"#utility.yul\":1461:1468   */\n  dup7\n    /* \"#utility.yul\":1452:1458   */\n  dup3\n    /* \"#utility.yul\":1441:1450   */\n  dup8\n    /* \"#utility.yul\":1437:1459   */\n  add\n    /* \"#utility.yul\":1395:1469   */\n  tag_31\n  jump\t// in\ntag_44:\n    /* \"#utility.yul\":1385:1469   */\n  swap3\n  pop\n    /* \"#utility.yul\":1254:1479   */\n  pop\n    /* \"#utility.yul\":1518:1520   */\n  0x40\n    /* \"#utility.yul\":1544:1606   */\n  tag_45\n    /* \"#utility.yul\":1598:1605   */\n  dup7\n    /* \"#utility.yul\":1589:1595   */\n  dup3\n    /* \"#utility.yul\":1578:1587   */\n  dup8\n    /* \"#utility.yul\":1574:1596   */\n  add\n    /* \"#utility.yul\":1544:1606   */\n  tag_35\n  jump\t// in\ntag_45:\n    /* \"#utility.yul\":1534:1606   */\n  swap2\n  pop\n    /* \"#utility.yul\":1489:1616   */\n  pop\n    /* \"#utility.yul\":948:1623   */\n  swap3\n  pop\n  swap3\n  pop\n  swap3\n  jump\t// out\n    /* \"#utility.yul\":1629:1912   */\ntag_27:\n  0x00\n    /* \"#utility.yul\":1695:1697   */\n  0x40\n    /* \"#utility.yul\":1689:1698   */\n  mload\n    /* \"#utility.yul\":1679:1698   */\n  swap1\n  pop\n    /* \"#utility.yul\":1737:1741   */\n  dup2\n    /* \"#utility.yul\":1729:1735   */\n  dup2\n    /* \"#utility.yul\":1725:1742   */\n  add\n    /* \"#utility.yul\":1844:1850   */\n  dup2\n    /* \"#utility.yul\":1832:1842   */\n  dup2\n    /* \"#utility.yul\":1829:1851   */\n  lt\n    /* \"#utility.yul\":1808:1826   */\n  0xffffffffffffffff\n    /* \"#utility.yul\":1796:1806   */\n  dup3\n    /* \"#utility.yul\":1793:1827   */\n  gt\n    /* \"#utility.yul\":1790:1852   */\n  or\n    /* \"#utility.yul\":1787:1789   */\n  iszero\n  tag_47\n  jumpi\n    /* \"#utility.yul\":1855:1873   */\n  tag_48\n  tag_49\n  jump\t// in\ntag_48:\n    /* \"#utility.yul\":1787:1789   */\ntag_47:\n    /* \"#utility.yul\":1895:1905   */\n  dup1\n    /* \"#utility.yul\":1891:1893   */\n  0x40\n    /* \"#utility.yul\":1884:1906   */\n  mstore\n    /* \"#utility.yul\":1669:1912   */\n  pop\n  swap2\n  swap1\n  pop\n  jump\t// out\n    /* \"#utility.yul\":1918:2250   */\ntag_26:\n  0x00\n    /* \"#utility.yul\":2070:2088   */\n  0xffffffffffffffff\n    /* \"#utility.yul\":2062:2068   */\n  dup3\n    /* \"#utility.yul\":2059:2089   */\n  gt\n    /* \"#utility.yul\":2056:2058   */\n  iszero\n  tag_51\n  jumpi\n    /* \"#utility.yul\":2092:2110   */\n  tag_52\n  tag_49\n  jump\t// in\ntag_52:\n    /* \"#utility.yul\":2056:2058   */\ntag_51:\n    /* \"#utility.yul\":2177:2181   */\n  0x1f\n    /* \"#utility.yul\":2173:2182   */\n  not\n    /* \"#utility.yul\":2166:2170   */\n  0x1f\n    /* \"#utility.yul\":2158:2164   */\n  dup4\n    /* \"#utility.yul\":2154:2171   */\n  add\n    /* \"#utility.yul\":2150:2183   */\n  and\n    /* \"#utility.yul\":2142:2183   */\n  swap1\n  pop\n    /* \"#utility.yul\":2238:2242   */\n  0x20\n    /* \"#utility.yul\":2232:2236   */\n  dup2\n    /* \"#utility.yul\":2228:2243   */\n  add\n    /* \"#utility.yul\":2220:2243   */\n  swap1\n  pop\n    /* \"#utility.yul\":1985:2250   */\n  swap2\n  swap1\n  pop\n  jump\t// out\n    /* \"#utility.yul\":2256:2342   */\ntag_53:\n  0x00\n    /* \"#utility.yul\":2331:2335   */\n  0xff\n    /* \"#utility.yul\":2324:2329   */\n  dup3\n    /* \"#utility.yul\":2320:2336   */\n  and\n    /* \"#utility.yul\":2309:2336   */\n  swap1\n  pop\n    /* \"#utility.yul\":2299:2342   */\n  swap2\n  swap1\n  pop\n  jump\t// out\n    /* \"#utility.yul\":2348:2655   */\ntag_30:\n    /* \"#utility.yul\":2416:2417   */\n  0x00\n    /* \"#utility.yul\":2426:2539   */\ntag_56:\n    /* \"#utility.yul\":2440:2446   */\n  dup4\n    /* \"#utility.yul\":2437:2438   */\n  dup2\n    /* \"#utility.yul\":2434:2447   */\n  lt\n    /* \"#utility.yul\":2426:2539   */\n  iszero\n  tag_58\n  jumpi\n    /* \"#utility.yul\":2525:2526   */\n  dup1\n    /* \"#utility.yul\":2520:2523   */\n  dup3\n    /* \"#utility.yul\":2516:2527   */\n  add\n    /* \"#utility.yul\":2510:2528   */\n  mload\n    /* \"#utility.yul\":2506:2507   */\n  dup2\n    /* \"#utility.yul\":2501:2504   */\n  dup5\n    /* \"#utility.yul\":2497:2508   */\n  add\n    /* \"#utility.yul\":2490:2529   */\n  mstore\n    /* \"#utility.yul\":2462:2464   */\n  0x20\n    /* \"#utility.yul\":2459:2460   */\n  dup2\n    /* \"#utility.yul\":2455:2465   */\n  add\n    /* \"#utility.yul\":2450:2465   */\n  swap1\n  pop\n    /* \"#utility.yul\":2426:2539   */\n  jump(tag_56)\ntag_58:\n    /* \"#utility.yul\":2557:2563   */\n  dup4\n    /* \"#utility.yul\":2554:2555   */\n  dup2\n    /* \"#utility.yul\":2551:2564   */\n  gt\n    /* \"#utility.yul\":2548:2550   */\n  iszero\n  tag_59\n  jumpi\n    /* \"#utility.yul\":2637:2638   */\n  0x00\n    /* \"#utility.yul\":2628:2634   */\n  dup5\n    /* \"#utility.yul\":2623:2626   */\n  dup5\n    /* \"#utility.yul\":2619:2635   */\n  add\n    /* \"#utility.yul\":2612:2639   */\n  mstore\n    /* \"#utility.yul\":2548:2550   */\ntag_59:\n    /* \"#utility.yul\":2397:2655   */\n  pop\n  pop\n  pop\n  pop\n  jump\t// out\n    /* \"#utility.yul\":2661:2981   */\ntag_11:\n  0x00\n    /* \"#utility.yul\":2742:2743   */\n  0x02\n    /* \"#utility.yul\":2736:2740   */\n  dup3\n    /* \"#utility.yul\":2732:2744   */\n  div\n    /* \"#utility.yul\":2722:2744   */\n  swap1\n  pop\n    /* \"#utility.yul\":2789:2790   */\n  0x01\n    /* \"#utility.yul\":2783:2787   */\n  dup3\n    /* \"#utility.yul\":2779:2791   */\n  and\n    /* \"#utility.yul\":2810:2828   */\n  dup1\n    /* \"#utility.yul\":2800:2802   */\n  tag_61\n  jumpi\n    /* \"#utility.yul\":2866:2870   */\n  0x7f\n    /* \"#utility.yul\":2858:2864   */\n  dup3\n    /* \"#utility.yul\":2854:2871   */\n  and\n    /* \"#utility.yul\":2844:2871   */\n  swap2\n  pop\n    /* \"#utility.yul\":2800:2802   */\ntag_61:\n    /* \"#utility.yul\":2928:2930   */\n  0x20\n    /* \"#utility.yul\":2920:2926   */\n  dup3\n    /* \"#utility.yul\":2917:2931   */\n  lt\n    /* \"#utility.yul\":2897:2915   */\n  dup2\n    /* \"#utility.yul\":2894:2932   */\n  eq\n    /* \"#utility.yul\":2891:2893   */\n  iszero\n  tag_62\n  jumpi\n    /* \"#utility.yul\":2947:2965   */\n  tag_63\n  tag_64\n  jump\t// in\ntag_63:\n    /* \"#utility.yul\":2891:2893   */\ntag_62:\n    /* \"#utility.yul\":2712:2981   */\n  pop\n  swap2\n  swap1\n  pop\n  jump\t// out\n    /* \"#utility.yul\":2987:3167   */\ntag_64:\n    /* \"#utility.yul\":3035:3112   */\n  0x4e487b7100000000000000000000000000000000000000000000000000000000\n    /* \"#utility.yul\":3032:3033   */\n  0x00\n    /* \"#utility.yul\":3025:3113   */\n  mstore\n    /* \"#utility.yul\":3132:3136   */\n  0x22\n    /* \"#utility.yul\":3129:3130   */\n  0x04\n    /* \"#utility.yul\":3122:3137   */\n  mstore\n    /* \"#utility.yul\":3156:3160   */\n  0x24\n    /* \"#utility.yul\":3153:3154   */\n  0x00\n    /* \"#utility.yul\":3146:3161   */\n  revert\n    /* \"#utility.yul\":3173:3353   */\ntag_49:\n    /* \"#utility.yul\":3221:3298   */\n  0x4e487b7100000000000000000000000000000000000000000000000000000000\n    /* \"#utility.yul\":3218:3219   */\n  0x00\n    /* \"#utility.yul\":3211:3299   */\n  mstore\n    /* \"#utility.yul\":3318:3322   */\n  0x41\n    /* \"#utility.yul\":3315:3316   */\n  0x04\n    /* \"#utility.yul\":3308:3323   */\n  mstore\n    /* \"#utility.yul\":3342:3346   */\n  0x24\n    /* \"#utility.yul\":3339:3340   */\n  0x00\n    /* \"#utility.yul\":3332:3347   */\n  revert\n    /* \"#utility.yul\":3359:3477   */\ntag_38:\n    /* \"#utility.yul\":3430:3452   */\n  tag_68\n    /* \"#utility.yul\":3446:3451   */\n  dup2\n    /* \"#utility.yul\":3430:3452   */\n  tag_53\n  jump\t// in\ntag_68:\n    /* \"#utility.yul\":3423:3428   */\n  dup2\n    /* \"#utility.yul\":3420:3453   */\n  eq\n    /* \"#utility.yul\":3410:3412   */\n  tag_69\n  jumpi\n    /* \"#utility.yul\":3467:3468   */\n  0x00\n    /* \"#utility.yul\":3464:3465   */\n  dup1\n    /* \"#utility.yul\":3457:3469   */\n  revert\n    /* \"#utility.yul\":3410:3412   */\ntag_69:\n    /* \"#utility.yul\":3400:3477   */\n  pop\n  jump\t// out\n    /* \"shijian/ERC20Sample.sol\":2793:7220  contract ERC20 is IERC20 {... */\ntag_9:\n  dataSize(sub_0)\n  dup1\n  dataOffset(sub_0)\n  0x00\n  codecopy\n  0x00\n  return\nstop\n\nsub_0: assembly {\n        /* \"shijian/ERC20Sample.sol\":2793:7220  contract ERC20 is IERC20 {... */\n      mstore(0x40, 0x80)\n      callvalue\n      dup1\n      iszero\n      tag_1\n      jumpi\n      0x00\n      dup1\n      revert\n    tag_1:\n      pop\n      jumpi(tag_2, lt(calldatasize, 0x04))\n      shr(0xe0, calldataload(0x00))\n      dup1\n      0x95d89b41\n      gt\n      tag_18\n      jumpi\n      dup1\n      0xb94072f6\n      gt\n      tag_19\n      jumpi\n      dup1\n      0xb94072f6\n      eq\n      tag_14\n      jumpi\n      dup1\n      0xdd62ed3e\n      eq\n      tag_15\n      jumpi\n      dup1\n      0xe27cedf3\n      eq\n      tag_16\n      jumpi\n      dup1\n      0xf9db1562\n      eq\n      tag_17\n      jumpi\n      jump(tag_2)\n    tag_19:\n      dup1\n      0x95d89b41\n      eq\n      tag_10\n      jumpi\n      dup1\n      0x9dc29fac\n      eq\n      tag_11\n      jumpi\n      dup1\n      0xa80b2004\n      eq\n      tag_12\n      jumpi\n      dup1\n      0xa9059cbb\n      eq\n      tag_13\n      jumpi\n      jump(tag_2)\n    tag_18:\n      dup1\n      0x18160ddd\n      gt\n      tag_20\n      jumpi\n      dup1\n      0x18160ddd\n      eq\n      tag_6\n      jumpi\n      dup1\n      0x23b872dd\n      eq\n      tag_7\n      jumpi\n      dup1\n      0x313ce567\n      eq\n      tag_8\n      jumpi\n      dup1\n      0x70a08231\n      eq\n      tag_9\n      jumpi\n      jump(tag_2)\n    tag_20:\n      dup1\n      0x06fdde03\n      eq\n      tag_3\n      jumpi\n      dup1\n      0x095ea7b3\n      eq\n      tag_4\n      jumpi\n      dup1\n      0x11eb7b7d\n      eq\n      tag_5\n      jumpi\n    tag_2:\n      0x00\n      dup1\n      revert\n        /* \"shijian/ERC20Sample.sol\":2857:2884  string public override name */\n    tag_3:\n      tag_21\n      tag_22\n      jump\t// in\n    tag_21:\n      mload(0x40)\n      tag_23\n      swap2\n      swap1\n      tag_24\n      jump\t// in\n    tag_23:\n      mload(0x40)\n      dup1\n      swap2\n      sub\n      swap1\n      return\n        /* \"shijian/ERC20Sample.sol\":3975:4131  function approve(address spender, uint256 amount) public override returns (bool) {... */\n    tag_4:\n      tag_25\n      0x04\n      dup1\n      calldatasize\n      sub\n      dup2\n      add\n      swap1\n      tag_26\n      swap2\n      swap1\n      tag_27\n      jump\t// in\n    tag_26:\n      tag_28\n      jump\t// in\n    tag_25:\n      mload(0x40)\n      tag_29\n      swap2\n      swap1\n      tag_30\n      jump\t// in\n    tag_29:\n      mload(0x40)\n      dup1\n      swap2\n      sub\n      swap1\n      return\n        /* \"shijian/ERC20Sample.sol\":3175:3224  mapping (address => uint256) public toralTransfer */\n    tag_5:\n      tag_31\n      0x04\n      dup1\n      calldatasize\n      sub\n      dup2\n      add\n      swap1\n      tag_32\n      swap2\n      swap1\n      tag_33\n      jump\t// in\n    tag_32:\n      tag_34\n      jump\t// in\n    tag_31:\n      mload(0x40)\n      tag_35\n      swap2\n      swap1\n      tag_36\n      jump\t// in\n    tag_35:\n      mload(0x40)\n      dup1\n      swap2\n      sub\n      swap1\n      return\n        /* \"shijian/ERC20Sample.sol\":3425:3523  function totalSupply() public view override returns (uint256) {... */\n    tag_6:\n      tag_37\n      tag_38\n      jump\t// in\n    tag_37:\n      mload(0x40)\n      tag_39\n      swap2\n      swap1\n      tag_36\n      jump\t// in\n    tag_39:\n      mload(0x40)\n      dup1\n      swap2\n      sub\n      swap1\n      return\n        /* \"shijian/ERC20Sample.sol\":4137:4527  function transferFrom(... */\n    tag_7:\n      tag_40\n      0x04\n      dup1\n      calldatasize\n      sub\n      dup2\n      add\n      swap1\n      tag_41\n      swap2\n      swap1\n      tag_42\n      jump\t// in\n    tag_41:\n      tag_43\n      jump\t// in\n    tag_40:\n      mload(0x40)\n      tag_44\n      swap2\n      swap1\n      tag_30\n      jump\t// in\n    tag_44:\n      mload(0x40)\n      dup1\n      swap2\n      sub\n      swap1\n      return\n        /* \"shijian/ERC20Sample.sol\":2925:2955  uint8 public override decimals */\n    tag_8:\n      tag_45\n      tag_46\n      jump\t// in\n    tag_45:\n      mload(0x40)\n      tag_47\n      swap2\n      swap1\n      tag_48\n      jump\t// in\n    tag_47:\n      mload(0x40)\n      dup1\n      swap2\n      sub\n      swap1\n      return\n        /* \"shijian/ERC20Sample.sol\":3529:3646  function balanceOf(address account) public view override returns (uint256) {... */\n    tag_9:\n      tag_49\n      0x04\n      dup1\n      calldatasize\n      sub\n      dup2\n      add\n      swap1\n      tag_50\n      swap2\n      swap1\n      tag_33\n      jump\t// in\n    tag_50:\n      tag_51\n      jump\t// in\n    tag_49:\n      mload(0x40)\n      tag_52\n      swap2\n      swap1\n      tag_36\n      jump\t// in\n    tag_52:\n      mload(0x40)\n      dup1\n      swap2\n      sub\n      swap1\n      return\n        /* \"shijian/ERC20Sample.sol\":2890:2919  string public override symbol */\n    tag_10:\n      tag_53\n      tag_54\n      jump\t// in\n    tag_53:\n      mload(0x40)\n      tag_55\n      swap2\n      swap1\n      tag_24\n      jump\t// in\n    tag_55:\n      mload(0x40)\n      dup1\n      swap2\n      sub\n      swap1\n      return\n        /* \"shijian/ERC20Sample.sol\":6200:6502  function burn(address account, uint amount) external {... */\n    tag_11:\n      tag_56\n      0x04\n      dup1\n      calldatasize\n      sub\n      dup2\n      add\n      swap1\n      tag_57\n      swap2\n      swap1\n      tag_27\n      jump\t// in\n    tag_57:\n      tag_58\n      jump\t// in\n    tag_56:\n      stop\n        /* \"shijian/ERC20Sample.sol\":5834:6102  function _randommint(address account,uint256 amount) external{... */\n    tag_12:\n      tag_59\n      0x04\n      dup1\n      calldatasize\n      sub\n      dup2\n      add\n      swap1\n      tag_60\n      swap2\n      swap1\n      tag_27\n      jump\t// in\n    tag_60:\n      tag_61\n      jump\t// in\n    tag_59:\n      stop\n        /* \"shijian/ERC20Sample.sol\":3652:3822  function transfer(address recipient, uint256 amount) public virtual override returns (bool) {... */\n    tag_13:\n      tag_62\n      0x04\n      dup1\n      calldatasize\n      sub\n      dup2\n      add\n      swap1\n      tag_63\n      swap2\n      swap1\n      tag_27\n      jump\t// in\n    tag_63:\n      tag_64\n      jump\t// in\n    tag_62:\n      mload(0x40)\n      tag_65\n      swap2\n      swap1\n      tag_30\n      jump\t// in\n    tag_65:\n      mload(0x40)\n      dup1\n      swap2\n      sub\n      swap1\n      return\n        /* \"shijian/ERC20Sample.sol\":6107:6194  function _creatmanage(address account) public{... */\n    tag_14:\n      tag_66\n      0x04\n      dup1\n      calldatasize\n      sub\n      dup2\n      add\n      swap1\n      tag_67\n      swap2\n      swap1\n      tag_33\n      jump\t// in\n    tag_67:\n      tag_68\n      jump\t// in\n    tag_66:\n      stop\n        /* \"shijian/ERC20Sample.sol\":3828:3969  function allowance(address owner, address spender) public view override returns (uint256) {... */\n    tag_15:\n      tag_69\n      0x04\n      dup1\n      calldatasize\n      sub\n      dup2\n      add\n      swap1\n      tag_70\n      swap2\n      swap1\n      tag_71\n      jump\t// in\n    tag_70:\n      tag_72\n      jump\t// in\n    tag_69:\n      mload(0x40)\n      tag_73\n      swap2\n      swap1\n      tag_36\n      jump\t// in\n    tag_73:\n      mload(0x40)\n      dup1\n      swap2\n      sub\n      swap1\n      return\n        /* \"shijian/ERC20Sample.sol\":3125:3169  mapping (address => bool) public tokenmanage */\n    tag_16:\n      tag_74\n      0x04\n      dup1\n      calldatasize\n      sub\n      dup2\n      add\n      swap1\n      tag_75\n      swap2\n      swap1\n      tag_33\n      jump\t// in\n    tag_75:\n      tag_76\n      jump\t// in\n    tag_74:\n      mload(0x40)\n      tag_77\n      swap2\n      swap1\n      tag_30\n      jump\t// in\n    tag_77:\n      mload(0x40)\n      dup1\n      swap2\n      sub\n      swap1\n      return\n        /* \"shijian/ERC20Sample.sol\":6507:6684  function getTotelTransfer(address account) external view returns(uint256){... */\n    tag_17:\n      tag_78\n      0x04\n      dup1\n      calldatasize\n      sub\n      dup2\n      add\n      swap1\n      tag_79\n      swap2\n      swap1\n      tag_33\n      jump\t// in\n    tag_79:\n      tag_80\n      jump\t// in\n    tag_78:\n      mload(0x40)\n      tag_81\n      swap2\n      swap1\n      tag_36\n      jump\t// in\n    tag_81:\n      mload(0x40)\n      dup1\n      swap2\n      sub\n      swap1\n      return\n        /* \"shijian/ERC20Sample.sol\":2857:2884  string public override name */\n    tag_22:\n      0x00\n      dup1\n      sload\n      tag_82\n      swap1\n      tag_83\n      jump\t// in\n    tag_82:\n      dup1\n      0x1f\n      add\n      0x20\n      dup1\n      swap2\n      div\n      mul\n      0x20\n      add\n      mload(0x40)\n      swap1\n      dup2\n      add\n      0x40\n      mstore\n      dup1\n      swap3\n      swap2\n      swap1\n      dup2\n      dup2\n      mstore\n      0x20\n      add\n      dup3\n      dup1\n      sload\n      tag_84\n      swap1\n      tag_83\n      jump\t// in\n    tag_84:\n      dup1\n      iszero\n      tag_85\n      jumpi\n      dup1\n      0x1f\n      lt\n      tag_86\n      jumpi\n      0x0100\n      dup1\n      dup4\n      sload\n      div\n      mul\n      dup4\n      mstore\n      swap2\n      0x20\n      add\n      swap2\n      jump(tag_85)\n    tag_86:\n      dup3\n      add\n      swap2\n      swap1\n      0x00\n      mstore\n      keccak256(0x00, 0x20)\n      swap1\n    tag_87:\n      dup2\n      sload\n      dup2\n      mstore\n      swap1\n      0x01\n      add\n      swap1\n      0x20\n      add\n      dup1\n      dup4\n      gt\n      tag_87\n      jumpi\n      dup3\n      swap1\n      sub\n      0x1f\n      and\n      dup3\n      add\n      swap2\n    tag_85:\n      pop\n      pop\n      pop\n      pop\n      pop\n      dup2\n      jump\t// out\n        /* \"shijian/ERC20Sample.sol\":3975:4131  function approve(address spender, uint256 amount) public override returns (bool) {... */\n    tag_28:\n        /* \"shijian/ERC20Sample.sol\":4050:4054  bool */\n      0x00\n        /* \"shijian/ERC20Sample.sol\":4066:4103  _approve(msg.sender, spender, amount) */\n      tag_89\n        /* \"shijian/ERC20Sample.sol\":4075:4085  msg.sender */\n      caller\n        /* \"shijian/ERC20Sample.sol\":4087:4094  spender */\n      dup5\n        /* \"shijian/ERC20Sample.sol\":4096:4102  amount */\n      dup5\n        /* \"shijian/ERC20Sample.sol\":4066:4074  _approve */\n      tag_90\n        /* \"shijian/ERC20Sample.sol\":4066:4103  _approve(msg.sender, spender, amount) */\n      jump\t// in\n    tag_89:\n        /* \"shijian/ERC20Sample.sol\":4120:4124  true */\n      0x01\n        /* \"shijian/ERC20Sample.sol\":4113:4124  return true */\n      swap1\n      pop\n        /* \"shijian/ERC20Sample.sol\":3975:4131  function approve(address spender, uint256 amount) public override returns (bool) {... */\n      swap3\n      swap2\n      pop\n      pop\n      jump\t// out\n        /* \"shijian/ERC20Sample.sol\":3175:3224  mapping (address => uint256) public toralTransfer */\n    tag_34:\n      mstore(0x20, 0x07)\n      dup1\n      0x00\n      mstore\n      keccak256(0x00, 0x40)\n      0x00\n      swap2\n      pop\n      swap1\n      pop\n      sload\n      dup2\n      jump\t// out\n        /* \"shijian/ERC20Sample.sol\":3425:3523  function totalSupply() public view override returns (uint256) {... */\n    tag_38:\n        /* \"shijian/ERC20Sample.sol\":3478:3485  uint256 */\n      0x00\n        /* \"shijian/ERC20Sample.sol\":3504:3516  _totalSupply */\n      sload(0x05)\n        /* \"shijian/ERC20Sample.sol\":3497:3516  return _totalSupply */\n      swap1\n      pop\n        /* \"shijian/ERC20Sample.sol\":3425:3523  function totalSupply() public view override returns (uint256) {... */\n      swap1\n      jump\t// out\n        /* \"shijian/ERC20Sample.sol\":4137:4527  function transferFrom(... */\n    tag_43:\n        /* \"shijian/ERC20Sample.sol\":4273:4277  bool */\n      0x00\n        /* \"shijian/ERC20Sample.sol\":4289:4325  _transfer(sender, recipient, amount) */\n      tag_93\n        /* \"shijian/ERC20Sample.sol\":4299:4305  sender */\n      dup5\n        /* \"shijian/ERC20Sample.sol\":4307:4316  recipient */\n      dup5\n        /* \"shijian/ERC20Sample.sol\":4318:4324  amount */\n      dup5\n        /* \"shijian/ERC20Sample.sol\":4289:4298  _transfer */\n      tag_94\n        /* \"shijian/ERC20Sample.sol\":4289:4325  _transfer(sender, recipient, amount) */\n      jump\t// in\n    tag_93:\n        /* \"shijian/ERC20Sample.sol\":4335:4499  _approve(... */\n      tag_95\n        /* \"shijian/ERC20Sample.sol\":4357:4363  sender */\n      dup5\n        /* \"shijian/ERC20Sample.sol\":4377:4387  msg.sender */\n      caller\n        /* \"shijian/ERC20Sample.sol\":4401:4489  _allowances[sender][msg.sender].sub(amount, ' ERC20: transfer amount exceeds allowance') */\n      tag_96\n        /* \"shijian/ERC20Sample.sol\":4437:4443  amount */\n      dup6\n        /* \"shijian/ERC20Sample.sol\":4401:4489  _allowances[sender][msg.sender].sub(amount, ' ERC20: transfer amount exceeds allowance') */\n      mload(0x40)\n      dup1\n      0x60\n      add\n      0x40\n      mstore\n      dup1\n      0x29\n      dup2\n      mstore\n      0x20\n      add\n      data_6f43ab5b93acbe5a4d41eb9aeeb8e02ac743ff99843411f153fc4ad216e69e48\n      0x29\n      swap2\n      codecopy\n        /* \"shijian/ERC20Sample.sol\":4401:4412  _allowances */\n      0x04\n        /* \"shijian/ERC20Sample.sol\":4401:4420  _allowances[sender] */\n      0x00\n        /* \"shijian/ERC20Sample.sol\":4413:4419  sender */\n      dup12\n        /* \"shijian/ERC20Sample.sol\":4401:4420  _allowances[sender] */\n      0xffffffffffffffffffffffffffffffffffffffff\n      and\n      0xffffffffffffffffffffffffffffffffffffffff\n      and\n      dup2\n      mstore\n      0x20\n      add\n      swap1\n      dup2\n      mstore\n      0x20\n      add\n      0x00\n      keccak256\n        /* \"shijian/ERC20Sample.sol\":4401:4432  _allowances[sender][msg.sender] */\n      0x00\n        /* \"shijian/ERC20Sample.sol\":4421:4431  msg.sender */\n      caller\n        /* \"shijian/ERC20Sample.sol\":4401:4432  _allowances[sender][msg.sender] */\n      0xffffffffffffffffffffffffffffffffffffffff\n      and\n      0xffffffffffffffffffffffffffffffffffffffff\n      and\n      dup2\n      mstore\n      0x20\n      add\n      swap1\n      dup2\n      mstore\n      0x20\n      add\n      0x00\n      keccak256\n      sload\n        /* \"shijian/ERC20Sample.sol\":4401:4436  _allowances[sender][msg.sender].sub */\n      tag_97\n      swap1\n        /* \"shijian/ERC20Sample.sol\":4401:4489  _allowances[sender][msg.sender].sub(amount, ' ERC20: transfer amount exceeds allowance') */\n      swap3\n      swap2\n      swap1\n      0xffffffff\n      and\n      jump\t// in\n    tag_96:\n        /* \"shijian/ERC20Sample.sol\":4335:4343  _approve */\n      tag_90\n        /* \"shijian/ERC20Sample.sol\":4335:4499  _approve(... */\n      jump\t// in\n    tag_95:\n        /* \"shijian/ERC20Sample.sol\":4516:4520  true */\n      0x01\n        /* \"shijian/ERC20Sample.sol\":4509:4520  return true */\n      swap1\n      pop\n        /* \"shijian/ERC20Sample.sol\":4137:4527  function transferFrom(... */\n      swap4\n      swap3\n      pop\n      pop\n      pop\n      jump\t// out\n        /* \"shijian/ERC20Sample.sol\":2925:2955  uint8 public override decimals */\n    tag_46:\n      0x02\n      0x00\n      swap1\n      sload\n      swap1\n      0x0100\n      exp\n      swap1\n      div\n      0xff\n      and\n      dup2\n      jump\t// out\n        /* \"shijian/ERC20Sample.sol\":3529:3646  function balanceOf(address account) public view override returns (uint256) {... */\n    tag_51:\n        /* \"shijian/ERC20Sample.sol\":3595:3602  uint256 */\n      0x00\n        /* \"shijian/ERC20Sample.sol\":3621:3630  _balances */\n      0x03\n        /* \"shijian/ERC20Sample.sol\":3621:3639  _balances[account] */\n      0x00\n        /* \"shijian/ERC20Sample.sol\":3631:3638  account */\n      dup4\n        /* \"shijian/ERC20Sample.sol\":3621:3639  _balances[account] */\n      0xffffffffffffffffffffffffffffffffffffffff\n      and\n      0xffffffffffffffffffffffffffffffffffffffff\n      and\n      dup2\n      mstore\n      0x20\n      add\n      swap1\n      dup2\n      mstore\n      0x20\n      add\n      0x00\n      keccak256\n      sload\n        /* \"shijian/ERC20Sample.sol\":3614:3639  return _balances[account] */\n      swap1\n      pop\n        /* \"shijian/ERC20Sample.sol\":3529:3646  function balanceOf(address account) public view override returns (uint256) {... */\n      swap2\n      swap1\n      pop\n      jump\t// out\n        /* \"shijian/ERC20Sample.sol\":2890:2919  string public override symbol */\n    tag_54:\n      0x01\n      dup1\n      sload\n      tag_99\n      swap1\n      tag_83\n      jump\t// in\n    tag_99:\n      dup1\n      0x1f\n      add\n      0x20\n      dup1\n      swap2\n      div\n      mul\n      0x20\n      add\n      mload(0x40)\n      swap1\n      dup2\n      add\n      0x40\n      mstore\n      dup1\n      swap3\n      swap2\n      swap1\n      dup2\n      dup2\n      mstore\n      0x20\n      add\n      dup3\n      dup1\n      sload\n      tag_100\n      swap1\n      tag_83\n      jump\t// in\n    tag_100:\n      dup1\n      iszero\n      tag_101\n      jumpi\n      dup1\n      0x1f\n      lt\n      tag_102\n      jumpi\n      0x0100\n      dup1\n      dup4\n      sload\n      div\n      mul\n      dup4\n      mstore\n      swap2\n      0x20\n      add\n      swap2\n      jump(tag_101)\n    tag_102:\n      dup3\n      add\n      swap2\n      swap1\n      0x00\n      mstore\n      keccak256(0x00, 0x20)\n      swap1\n    tag_103:\n      dup2\n      sload\n      dup2\n      mstore\n      swap1\n      0x01\n      add\n      swap1\n      0x20\n      add\n      dup1\n      dup4\n      gt\n      tag_103\n      jumpi\n      dup3\n      swap1\n      sub\n      0x1f\n      and\n      dup3\n      add\n      swap2\n    tag_101:\n      pop\n      pop\n      pop\n      pop\n      pop\n      dup2\n      jump\t// out\n        /* \"shijian/ERC20Sample.sol\":6200:6502  function burn(address account, uint amount) external {... */\n    tag_58:\n        /* \"shijian/ERC20Sample.sol\":6298:6302  true */\n      0x01\n        /* \"shijian/ERC20Sample.sol\":6271:6302  tokenmanage[msg.sender] == true */\n      iszero\n      iszero\n        /* \"shijian/ERC20Sample.sol\":6271:6282  tokenmanage */\n      0x06\n        /* \"shijian/ERC20Sample.sol\":6271:6294  tokenmanage[msg.sender] */\n      0x00\n        /* \"shijian/ERC20Sample.sol\":6283:6293  msg.sender */\n      caller\n        /* \"shijian/ERC20Sample.sol\":6271:6294  tokenmanage[msg.sender] */\n      0xffffffffffffffffffffffffffffffffffffffff\n      and\n      0xffffffffffffffffffffffffffffffffffffffff\n      and\n      dup2\n      mstore\n      0x20\n      add\n      swap1\n      dup2\n      mstore\n      0x20\n      add\n      0x00\n      keccak256\n      0x00\n      swap1\n      sload\n      swap1\n      0x0100\n      exp\n      swap1\n      div\n      0xff\n      and\n        /* \"shijian/ERC20Sample.sol\":6271:6302  tokenmanage[msg.sender] == true */\n      iszero\n      iszero\n      eq\n        /* \"shijian/ERC20Sample.sol\":6263:6316  require(tokenmanage[msg.sender] == true,'not manage') */\n      tag_105\n      jumpi\n      mload(0x40)\n      0x08c379a000000000000000000000000000000000000000000000000000000000\n      dup2\n      mstore\n      0x04\n      add\n      tag_106\n      swap1\n      tag_107\n      jump\t// in\n    tag_106:\n      mload(0x40)\n      dup1\n      swap2\n      sub\n      swap1\n      revert\n    tag_105:\n        /* \"shijian/ERC20Sample.sol\":6356:6362  amount */\n      dup1\n        /* \"shijian/ERC20Sample.sol\":6334:6343  _balances */\n      0x03\n        /* \"shijian/ERC20Sample.sol\":6334:6352  _balances[account] */\n      0x00\n        /* \"shijian/ERC20Sample.sol\":6344:6351  account */\n      dup5\n        /* \"shijian/ERC20Sample.sol\":6334:6352  _balances[account] */\n      0xffffffffffffffffffffffffffffffffffffffff\n      and\n      0xffffffffffffffffffffffffffffffffffffffff\n      and\n      dup2\n      mstore\n      0x20\n      add\n      swap1\n      dup2\n      mstore\n      0x20\n      add\n      0x00\n      keccak256\n      sload\n        /* \"shijian/ERC20Sample.sol\":6334:6362  _balances[account] >= amount */\n      lt\n      iszero\n        /* \"shijian/ERC20Sample.sol\":6326:6373  require(_balances[account] >= amount,'no more') */\n      tag_108\n      jumpi\n      mload(0x40)\n      0x08c379a000000000000000000000000000000000000000000000000000000000\n      dup2\n      mstore\n      0x04\n      add\n      tag_109\n      swap1\n      tag_110\n      jump\t// in\n    tag_109:\n      mload(0x40)\n      dup1\n      swap2\n      sub\n      swap1\n      revert\n    tag_108:\n        /* \"shijian/ERC20Sample.sol\":6405:6411  amount */\n      dup1\n        /* \"shijian/ERC20Sample.sol\":6383:6392  _balances */\n      0x03\n        /* \"shijian/ERC20Sample.sol\":6383:6401  _balances[account] */\n      0x00\n        /* \"shijian/ERC20Sample.sol\":6393:6400  account */\n      dup5\n        /* \"shijian/ERC20Sample.sol\":6383:6401  _balances[account] */\n      0xffffffffffffffffffffffffffffffffffffffff\n      and\n      0xffffffffffffffffffffffffffffffffffffffff\n      and\n      dup2\n      mstore\n      0x20\n      add\n      swap1\n      dup2\n      mstore\n      0x20\n      add\n      0x00\n      keccak256\n      0x00\n        /* \"shijian/ERC20Sample.sol\":6383:6411  _balances[account] -= amount */\n      dup3\n      dup3\n      sload\n      tag_111\n      swap2\n      swap1\n      tag_112\n      jump\t// in\n    tag_111:\n      swap3\n      pop\n      pop\n      dup2\n      swap1\n      sstore\n      pop\n        /* \"shijian/ERC20Sample.sol\":6437:6443  amount */\n      dup1\n        /* \"shijian/ERC20Sample.sol\":6421:6433  _totalSupply */\n      0x05\n      0x00\n        /* \"shijian/ERC20Sample.sol\":6421:6443  _totalSupply -= amount */\n      dup3\n      dup3\n      sload\n      tag_113\n      swap2\n      swap1\n      tag_112\n      jump\t// in\n    tag_113:\n      swap3\n      pop\n      pop\n      dup2\n      swap1\n      sstore\n      pop\n        /* \"shijian/ERC20Sample.sol\":6484:6485  0 */\n      0x00\n        /* \"shijian/ERC20Sample.sol\":6458:6495  Transfer(account, address(0), amount) */\n      0xffffffffffffffffffffffffffffffffffffffff\n      and\n        /* \"shijian/ERC20Sample.sol\":6467:6474  account */\n      dup3\n        /* \"shijian/ERC20Sample.sol\":6458:6495  Transfer(account, address(0), amount) */\n      0xffffffffffffffffffffffffffffffffffffffff\n      and\n      0xddf252ad1be2c89b69c2b068fc378daa952ba7f163c4a11628f55a4df523b3ef\n        /* \"shijian/ERC20Sample.sol\":6488:6494  amount */\n      dup4\n        /* \"shijian/ERC20Sample.sol\":6458:6495  Transfer(account, address(0), amount) */\n      mload(0x40)\n      tag_114\n      swap2\n      swap1\n      tag_36\n      jump\t// in\n    tag_114:\n      mload(0x40)\n      dup1\n      swap2\n      sub\n      swap1\n      log3\n        /* \"shijian/ERC20Sample.sol\":6200:6502  function burn(address account, uint amount) external {... */\n      pop\n      pop\n      jump\t// out\n        /* \"shijian/ERC20Sample.sol\":5834:6102  function _randommint(address account,uint256 amount) external{... */\n    tag_61:\n        /* \"shijian/ERC20Sample.sol\":5940:5944  true */\n      0x01\n        /* \"shijian/ERC20Sample.sol\":5913:5944  tokenmanage[msg.sender] == true */\n      iszero\n      iszero\n        /* \"shijian/ERC20Sample.sol\":5913:5924  tokenmanage */\n      0x06\n        /* \"shijian/ERC20Sample.sol\":5913:5936  tokenmanage[msg.sender] */\n      0x00\n        /* \"shijian/ERC20Sample.sol\":5925:5935  msg.sender */\n      caller\n        /* \"shijian/ERC20Sample.sol\":5913:5936  tokenmanage[msg.sender] */\n      0xffffffffffffffffffffffffffffffffffffffff\n      and\n      0xffffffffffffffffffffffffffffffffffffffff\n      and\n      dup2\n      mstore\n      0x20\n      add\n      swap1\n      dup2\n      mstore\n      0x20\n      add\n      0x00\n      keccak256\n      0x00\n      swap1\n      sload\n      swap1\n      0x0100\n      exp\n      swap1\n      div\n      0xff\n      and\n        /* \"shijian/ERC20Sample.sol\":5913:5944  tokenmanage[msg.sender] == true */\n      iszero\n      iszero\n      eq\n        /* \"shijian/ERC20Sample.sol\":5905:5958  require(tokenmanage[msg.sender] == true,'not manage') */\n      tag_116\n      jumpi\n      mload(0x40)\n      0x08c379a000000000000000000000000000000000000000000000000000000000\n      dup2\n      mstore\n      0x04\n      add\n      tag_117\n      swap1\n      tag_107\n      jump\t// in\n    tag_117:\n      mload(0x40)\n      dup1\n      swap2\n      sub\n      swap1\n      revert\n    tag_116:\n        /* \"shijian/ERC20Sample.sol\":5990:5996  amount */\n      dup1\n        /* \"shijian/ERC20Sample.sol\":5968:5977  _balances */\n      0x03\n        /* \"shijian/ERC20Sample.sol\":5968:5986  _balances[account] */\n      0x00\n        /* \"shijian/ERC20Sample.sol\":5978:5985  account */\n      dup5\n        /* \"shijian/ERC20Sample.sol\":5968:5986  _balances[account] */\n      0xffffffffffffffffffffffffffffffffffffffff\n      and\n      0xffffffffffffffffffffffffffffffffffffffff\n      and\n      dup2\n      mstore\n      0x20\n      add\n      swap1\n      dup2\n      mstore\n      0x20\n      add\n      0x00\n      keccak256\n      0x00\n        /* \"shijian/ERC20Sample.sol\":5968:5996  _balances[account] += amount */\n      dup3\n      dup3\n      sload\n      tag_118\n      swap2\n      swap1\n      tag_119\n      jump\t// in\n    tag_118:\n      swap3\n      pop\n      pop\n      dup2\n      swap1\n      sstore\n      pop\n        /* \"shijian/ERC20Sample.sol\":6021:6045  _totalSupply.add(amount) */\n      tag_120\n        /* \"shijian/ERC20Sample.sol\":6038:6044  amount */\n      dup2\n        /* \"shijian/ERC20Sample.sol\":6021:6033  _totalSupply */\n      sload(0x05)\n        /* \"shijian/ERC20Sample.sol\":6021:6037  _totalSupply.add */\n      tag_121\n      swap1\n        /* \"shijian/ERC20Sample.sol\":6021:6045  _totalSupply.add(amount) */\n      swap2\n      swap1\n      0xffffffff\n      and\n      jump\t// in\n    tag_120:\n        /* \"shijian/ERC20Sample.sol\":6006:6018  _totalSupply */\n      0x05\n        /* \"shijian/ERC20Sample.sol\":6006:6045  _totalSupply = _totalSupply.add(amount) */\n      dup2\n      swap1\n      sstore\n      pop\n        /* \"shijian/ERC20Sample.sol\":6080:6087  account */\n      dup2\n        /* \"shijian/ERC20Sample.sol\":6060:6095  Transfer(address(0),account,amount) */\n      0xffffffffffffffffffffffffffffffffffffffff\n      and\n        /* \"shijian/ERC20Sample.sol\":6077:6078  0 */\n      0x00\n        /* \"shijian/ERC20Sample.sol\":6060:6095  Transfer(address(0),account,amount) */\n      0xffffffffffffffffffffffffffffffffffffffff\n      and\n      0xddf252ad1be2c89b69c2b068fc378daa952ba7f163c4a11628f55a4df523b3ef\n        /* \"shijian/ERC20Sample.sol\":6088:6094  amount */\n      dup4\n        /* \"shijian/ERC20Sample.sol\":6060:6095  Transfer(address(0),account,amount) */\n      mload(0x40)\n      tag_122\n      swap2\n      swap1\n      tag_36\n      jump\t// in\n    tag_122:\n      mload(0x40)\n      dup1\n      swap2\n      sub\n      swap1\n      log3\n        /* \"shijian/ERC20Sample.sol\":5834:6102  function _randommint(address account,uint256 amount) external{... */\n      pop\n      pop\n      jump\t// out\n        /* \"shijian/ERC20Sample.sol\":3652:3822  function transfer(address recipient, uint256 amount) public virtual override returns (bool) {... */\n    tag_64:\n        /* \"shijian/ERC20Sample.sol\":3738:3742  bool */\n      0x00\n        /* \"shijian/ERC20Sample.sol\":3754:3794  _transfer(msg.sender, recipient, amount) */\n      tag_124\n        /* \"shijian/ERC20Sample.sol\":3764:3774  msg.sender */\n      caller\n        /* \"shijian/ERC20Sample.sol\":3776:3785  recipient */\n      dup5\n        /* \"shijian/ERC20Sample.sol\":3787:3793  amount */\n      dup5\n        /* \"shijian/ERC20Sample.sol\":3754:3763  _transfer */\n      tag_94\n        /* \"shijian/ERC20Sample.sol\":3754:3794  _transfer(msg.sender, recipient, amount) */\n      jump\t// in\n    tag_124:\n        /* \"shijian/ERC20Sample.sol\":3811:3815  true */\n      0x01\n        /* \"shijian/ERC20Sample.sol\":3804:3815  return true */\n      swap1\n      pop\n        /* \"shijian/ERC20Sample.sol\":3652:3822  function transfer(address recipient, uint256 amount) public virtual override returns (bool) {... */\n      swap3\n      swap2\n      pop\n      pop\n      jump\t// out\n        /* \"shijian/ERC20Sample.sol\":6107:6194  function _creatmanage(address account) public{... */\n    tag_68:\n        /* \"shijian/ERC20Sample.sol\":6183:6187  true */\n      0x01\n        /* \"shijian/ERC20Sample.sol\":6162:6173  tokenmanage */\n      0x06\n        /* \"shijian/ERC20Sample.sol\":6162:6182  tokenmanage[account] */\n      0x00\n        /* \"shijian/ERC20Sample.sol\":6174:6181  account */\n      dup4\n        /* \"shijian/ERC20Sample.sol\":6162:6182  tokenmanage[account] */\n      0xffffffffffffffffffffffffffffffffffffffff\n      and\n      0xffffffffffffffffffffffffffffffffffffffff\n      and\n      dup2\n      mstore\n      0x20\n      add\n      swap1\n      dup2\n      mstore\n      0x20\n      add\n      0x00\n      keccak256\n      0x00\n        /* \"shijian/ERC20Sample.sol\":6162:6187  tokenmanage[account]=true */\n      0x0100\n      exp\n      dup2\n      sload\n      dup2\n      0xff\n      mul\n      not\n      and\n      swap1\n      dup4\n      iszero\n      iszero\n      mul\n      or\n      swap1\n      sstore\n      pop\n        /* \"shijian/ERC20Sample.sol\":6107:6194  function _creatmanage(address account) public{... */\n      pop\n      jump\t// out\n        /* \"shijian/ERC20Sample.sol\":3828:3969  function allowance(address owner, address spender) public view override returns (uint256) {... */\n    tag_72:\n        /* \"shijian/ERC20Sample.sol\":3909:3916  uint256 */\n      0x00\n        /* \"shijian/ERC20Sample.sol\":3935:3946  _allowances */\n      0x04\n        /* \"shijian/ERC20Sample.sol\":3935:3953  _allowances[owner] */\n      0x00\n        /* \"shijian/ERC20Sample.sol\":3947:3952  owner */\n      dup5\n        /* \"shijian/ERC20Sample.sol\":3935:3953  _allowances[owner] */\n      0xffffffffffffffffffffffffffffffffffffffff\n      and\n      0xffffffffffffffffffffffffffffffffffffffff\n      and\n      dup2\n      mstore\n      0x20\n      add\n      swap1\n      dup2\n      mstore\n      0x20\n      add\n      0x00\n      keccak256\n        /* \"shijian/ERC20Sample.sol\":3935:3962  _allowances[owner][spender] */\n      0x00\n        /* \"shijian/ERC20Sample.sol\":3954:3961  spender */\n      dup4\n        /* \"shijian/ERC20Sample.sol\":3935:3962  _allowances[owner][spender] */\n      0xffffffffffffffffffffffffffffffffffffffff\n      and\n      0xffffffffffffffffffffffffffffffffffffffff\n      and\n      dup2\n      mstore\n      0x20\n      add\n      swap1\n      dup2\n      mstore\n      0x20\n      add\n      0x00\n      keccak256\n      sload\n        /* \"shijian/ERC20Sample.sol\":3928:3962  return _allowances[owner][spender] */\n      swap1\n      pop\n        /* \"shijian/ERC20Sample.sol\":3828:3969  function allowance(address owner, address spender) public view override returns (uint256) {... */\n      swap3\n      swap2\n      pop\n      pop\n      jump\t// out\n        /* \"shijian/ERC20Sample.sol\":3125:3169  mapping (address => bool) public tokenmanage */\n    tag_76:\n      mstore(0x20, 0x06)\n      dup1\n      0x00\n      mstore\n      keccak256(0x00, 0x40)\n      0x00\n      swap2\n      pop\n      sload\n      swap1\n      0x0100\n      exp\n      swap1\n      div\n      0xff\n      and\n      dup2\n      jump\t// out\n        /* \"shijian/ERC20Sample.sol\":6507:6684  function getTotelTransfer(address account) external view returns(uint256){... */\n    tag_80:\n        /* \"shijian/ERC20Sample.sol\":6572:6579  uint256 */\n      0x00\n        /* \"shijian/ERC20Sample.sol\":6617:6618  0 */\n      dup1\n        /* \"shijian/ERC20Sample.sol\":6598:6619  account != address(0) */\n      0xffffffffffffffffffffffffffffffffffffffff\n      and\n        /* \"shijian/ERC20Sample.sol\":6598:6605  account */\n      dup3\n        /* \"shijian/ERC20Sample.sol\":6598:6619  account != address(0) */\n      0xffffffffffffffffffffffffffffffffffffffff\n      and\n      eq\n      iszero\n        /* \"shijian/ERC20Sample.sol\":6590:6638  require(account != address(0),'it is 0 address') */\n      tag_128\n      jumpi\n      mload(0x40)\n      0x08c379a000000000000000000000000000000000000000000000000000000000\n      dup2\n      mstore\n      0x04\n      add\n      tag_129\n      swap1\n      tag_130\n      jump\t// in\n    tag_129:\n      mload(0x40)\n      dup1\n      swap2\n      sub\n      swap1\n      revert\n    tag_128:\n        /* \"shijian/ERC20Sample.sol\":6655:6668  toralTransfer */\n      0x07\n        /* \"shijian/ERC20Sample.sol\":6655:6677  toralTransfer[account] */\n      0x00\n        /* \"shijian/ERC20Sample.sol\":6669:6676  account */\n      dup4\n        /* \"shijian/ERC20Sample.sol\":6655:6677  toralTransfer[account] */\n      0xffffffffffffffffffffffffffffffffffffffff\n      and\n      0xffffffffffffffffffffffffffffffffffffffff\n      and\n      dup2\n      mstore\n      0x20\n      add\n      swap1\n      dup2\n      mstore\n      0x20\n      add\n      0x00\n      keccak256\n      sload\n        /* \"shijian/ERC20Sample.sol\":6648:6677  return toralTransfer[account] */\n      swap1\n      pop\n        /* \"shijian/ERC20Sample.sol\":6507:6684  function getTotelTransfer(address account) external view returns(uint256){... */\n      swap2\n      swap1\n      pop\n      jump\t// out\n        /* \"shijian/ERC20Sample.sol\":6689:7218  function _approve(... */\n    tag_90:\n        /* \"shijian/ERC20Sample.sol\":6829:6830  0 */\n      0x00\n        /* \"shijian/ERC20Sample.sol\":6812:6831  owner != address(0) */\n      0xffffffffffffffffffffffffffffffffffffffff\n      and\n        /* \"shijian/ERC20Sample.sol\":6812:6817  owner */\n      dup4\n        /* \"shijian/ERC20Sample.sol\":6812:6831  owner != address(0) */\n      0xffffffffffffffffffffffffffffffffffffffff\n      and\n      eq\n      iszero\n        /* \"shijian/ERC20Sample.sol\":6804:6872  require(owner != address(0), 'ERC20: approve from the zero address') */\n      tag_132\n      jumpi\n      mload(0x40)\n      0x08c379a000000000000000000000000000000000000000000000000000000000\n      dup2\n      mstore\n      0x04\n      add\n      tag_133\n      swap1\n      tag_134\n      jump\t// in\n    tag_133:\n      mload(0x40)\n      dup1\n      swap2\n      sub\n      swap1\n      revert\n    tag_132:\n        /* \"shijian/ERC20Sample.sol\":6909:6910  0 */\n      0x00\n        /* \"shijian/ERC20Sample.sol\":6890:6911  spender != address(0) */\n      0xffffffffffffffffffffffffffffffffffffffff\n      and\n        /* \"shijian/ERC20Sample.sol\":6890:6897  spender */\n      dup3\n        /* \"shijian/ERC20Sample.sol\":6890:6911  spender != address(0) */\n      0xffffffffffffffffffffffffffffffffffffffff\n      and\n      eq\n      iszero\n        /* \"shijian/ERC20Sample.sol\":6882:6950  require(spender != address(0), 'ERC20: approve to the zero address') */\n      tag_135\n      jumpi\n      mload(0x40)\n      0x08c379a000000000000000000000000000000000000000000000000000000000\n      dup2\n      mstore\n      0x04\n      add\n      tag_136\n      swap1\n      tag_137\n      jump\t// in\n    tag_136:\n      mload(0x40)\n      dup1\n      swap2\n      sub\n      swap1\n      revert\n    tag_135:\n        /* \"shijian/ERC20Sample.sol\":7061:7069  decimals */\n      0x02\n      0x00\n      swap1\n      sload\n      swap1\n      0x0100\n      exp\n      swap1\n      div\n      0xff\n      and\n        /* \"shijian/ERC20Sample.sol\":7055:7057  10 */\n      0x0a\n        /* \"shijian/ERC20Sample.sol\":7055:7069  10 ** decimals */\n      tag_138\n      swap2\n      swap1\n      tag_139\n      jump\t// in\n    tag_138:\n        /* \"shijian/ERC20Sample.sol\":7046:7052  123456 */\n      0x01e240\n        /* \"shijian/ERC20Sample.sol\":7046:7069  123456 * 10 ** decimals */\n      tag_140\n      swap2\n      swap1\n      tag_141\n      jump\t// in\n    tag_140:\n        /* \"shijian/ERC20Sample.sol\":7036:7042  amount */\n      dup2\n        /* \"shijian/ERC20Sample.sol\":7036:7069  amount <= 123456 * 10 ** decimals */\n      gt\n      iszero\n        /* \"shijian/ERC20Sample.sol\":7036:7164  amount <= 123456 * 10 ** decimals ? _allowances[owner][spender] = amount : _allowances[owner][spender] = 123456 * 10 ** decimals */\n      tag_142\n      jumpi\n        /* \"shijian/ERC20Sample.sol\":7156:7164  decimals */\n      0x02\n      0x00\n      swap1\n      sload\n      swap1\n      0x0100\n      exp\n      swap1\n      div\n      0xff\n      and\n        /* \"shijian/ERC20Sample.sol\":7150:7152  10 */\n      0x0a\n        /* \"shijian/ERC20Sample.sol\":7150:7164  10 ** decimals */\n      tag_143\n      swap2\n      swap1\n      tag_139\n      jump\t// in\n    tag_143:\n        /* \"shijian/ERC20Sample.sol\":7141:7147  123456 */\n      0x01e240\n        /* \"shijian/ERC20Sample.sol\":7141:7164  123456 * 10 ** decimals */\n      tag_144\n      swap2\n      swap1\n      tag_141\n      jump\t// in\n    tag_144:\n        /* \"shijian/ERC20Sample.sol\":7111:7122  _allowances */\n      0x04\n        /* \"shijian/ERC20Sample.sol\":7111:7129  _allowances[owner] */\n      0x00\n        /* \"shijian/ERC20Sample.sol\":7123:7128  owner */\n      dup6\n        /* \"shijian/ERC20Sample.sol\":7111:7129  _allowances[owner] */\n      0xffffffffffffffffffffffffffffffffffffffff\n      and\n      0xffffffffffffffffffffffffffffffffffffffff\n      and\n      dup2\n      mstore\n      0x20\n      add\n      swap1\n      dup2\n      mstore\n      0x20\n      add\n      0x00\n      keccak256\n        /* \"shijian/ERC20Sample.sol\":7111:7138  _allowances[owner][spender] */\n      0x00\n        /* \"shijian/ERC20Sample.sol\":7130:7137  spender */\n      dup5\n        /* \"shijian/ERC20Sample.sol\":7111:7138  _allowances[owner][spender] */\n      0xffffffffffffffffffffffffffffffffffffffff\n      and\n      0xffffffffffffffffffffffffffffffffffffffff\n      and\n      dup2\n      mstore\n      0x20\n      add\n      swap1\n      dup2\n      mstore\n      0x20\n      add\n      0x00\n      keccak256\n        /* \"shijian/ERC20Sample.sol\":7111:7164  _allowances[owner][spender] = 123456 * 10 ** decimals */\n      dup2\n      swap1\n      sstore\n        /* \"shijian/ERC20Sample.sol\":7036:7164  amount <= 123456 * 10 ** decimals ? _allowances[owner][spender] = amount : _allowances[owner][spender] = 123456 * 10 ** decimals */\n      jump(tag_145)\n    tag_142:\n        /* \"shijian/ERC20Sample.sol\":7102:7108  amount */\n      dup1\n        /* \"shijian/ERC20Sample.sol\":7072:7083  _allowances */\n      0x04\n        /* \"shijian/ERC20Sample.sol\":7072:7090  _allowances[owner] */\n      0x00\n        /* \"shijian/ERC20Sample.sol\":7084:7089  owner */\n      dup6\n        /* \"shijian/ERC20Sample.sol\":7072:7090  _allowances[owner] */\n      0xffffffffffffffffffffffffffffffffffffffff\n      and\n      0xffffffffffffffffffffffffffffffffffffffff\n      and\n      dup2\n      mstore\n      0x20\n      add\n      swap1\n      dup2\n      mstore\n      0x20\n      add\n      0x00\n      keccak256\n        /* \"shijian/ERC20Sample.sol\":7072:7099  _allowances[owner][spender] */\n      0x00\n        /* \"shijian/ERC20Sample.sol\":7091:7098  spender */\n      dup5\n        /* \"shijian/ERC20Sample.sol\":7072:7099  _allowances[owner][spender] */\n      0xffffffffffffffffffffffffffffffffffffffff\n      and\n      0xffffffffffffffffffffffffffffffffffffffff\n      and\n      dup2\n      mstore\n      0x20\n      add\n      swap1\n      dup2\n      mstore\n      0x20\n      add\n      0x00\n      keccak256\n        /* \"shijian/ERC20Sample.sol\":7072:7108  _allowances[owner][spender] = amount */\n      dup2\n      swap1\n      sstore\n        /* \"shijian/ERC20Sample.sol\":7036:7164  amount <= 123456 * 10 ** decimals ? _allowances[owner][spender] = amount : _allowances[owner][spender] = 123456 * 10 ** decimals */\n    tag_145:\n      pop\n        /* \"shijian/ERC20Sample.sol\":7195:7202  spender */\n      dup2\n        /* \"shijian/ERC20Sample.sol\":7179:7211  Approval(owner, spender, amount) */\n      0xffffffffffffffffffffffffffffffffffffffff\n      and\n        /* \"shijian/ERC20Sample.sol\":7188:7193  owner */\n      dup4\n        /* \"shijian/ERC20Sample.sol\":7179:7211  Approval(owner, spender, amount) */\n      0xffffffffffffffffffffffffffffffffffffffff\n      and\n      0x8c5be1e5ebec7d5bd14f71427d1e84f3dd0314c0f7b2291e5b200ac8c7c3b925\n        /* \"shijian/ERC20Sample.sol\":7204:7210  amount */\n      dup4\n        /* \"shijian/ERC20Sample.sol\":7179:7211  Approval(owner, spender, amount) */\n      mload(0x40)\n      tag_146\n      swap2\n      swap1\n      tag_36\n      jump\t// in\n    tag_146:\n      mload(0x40)\n      dup1\n      swap2\n      sub\n      swap1\n      log3\n        /* \"shijian/ERC20Sample.sol\":6689:7218  function _approve(... */\n      pop\n      pop\n      pop\n      jump\t// out\n        /* \"shijian/ERC20Sample.sol\":4533:5095  function _transfer(... */\n    tag_94:\n        /* \"shijian/ERC20Sample.sol\":4678:4679  0 */\n      0x00\n        /* \"shijian/ERC20Sample.sol\":4660:4680  sender != address(0) */\n      0xffffffffffffffffffffffffffffffffffffffff\n      and\n        /* \"shijian/ERC20Sample.sol\":4660:4666  sender */\n      dup4\n        /* \"shijian/ERC20Sample.sol\":4660:4680  sender != address(0) */\n      0xffffffffffffffffffffffffffffffffffffffff\n      and\n      eq\n      iszero\n        /* \"shijian/ERC20Sample.sol\":4652:4722  require(sender != address(0), 'ERC20: transfer from the zero address') */\n      tag_148\n      jumpi\n      mload(0x40)\n      0x08c379a000000000000000000000000000000000000000000000000000000000\n      dup2\n      mstore\n      0x04\n      add\n      tag_149\n      swap1\n      tag_150\n      jump\t// in\n    tag_149:\n      mload(0x40)\n      dup1\n      swap2\n      sub\n      swap1\n      revert\n    tag_148:\n        /* \"shijian/ERC20Sample.sol\":4761:4762  0 */\n      0x00\n        /* \"shijian/ERC20Sample.sol\":4740:4763  recipient != address(0) */\n      0xffffffffffffffffffffffffffffffffffffffff\n      and\n        /* \"shijian/ERC20Sample.sol\":4740:4749  recipient */\n      dup3\n        /* \"shijian/ERC20Sample.sol\":4740:4763  recipient != address(0) */\n      0xffffffffffffffffffffffffffffffffffffffff\n      and\n      eq\n      iszero\n        /* \"shijian/ERC20Sample.sol\":4732:4803  require(recipient != address(0), 'ERC20: transfer to the zero address') */\n      tag_151\n      jumpi\n      mload(0x40)\n      0x08c379a000000000000000000000000000000000000000000000000000000000\n      dup2\n      mstore\n      0x04\n      add\n      tag_152\n      swap1\n      tag_153\n      jump\t// in\n    tag_152:\n      mload(0x40)\n      dup1\n      swap2\n      sub\n      swap1\n      revert\n    tag_151:\n        /* \"shijian/ERC20Sample.sol\":4834:4905  _balances[sender].sub(amount, 'ERC20: transfer amount exceeds balance') */\n      tag_154\n        /* \"shijian/ERC20Sample.sol\":4856:4862  amount */\n      dup2\n        /* \"shijian/ERC20Sample.sol\":4834:4905  _balances[sender].sub(amount, 'ERC20: transfer amount exceeds balance') */\n      mload(0x40)\n      dup1\n      0x60\n      add\n      0x40\n      mstore\n      dup1\n      0x26\n      dup2\n      mstore\n      0x20\n      add\n      data_4107e8a8b9e94bf8ff83080ddec1c0bffe897ebc2241b89d44f66b3d274088b6\n      0x26\n      swap2\n      codecopy\n        /* \"shijian/ERC20Sample.sol\":4834:4843  _balances */\n      0x03\n        /* \"shijian/ERC20Sample.sol\":4834:4851  _balances[sender] */\n      0x00\n        /* \"shijian/ERC20Sample.sol\":4844:4850  sender */\n      dup8\n        /* \"shijian/ERC20Sample.sol\":4834:4851  _balances[sender] */\n      0xffffffffffffffffffffffffffffffffffffffff\n      and\n      0xffffffffffffffffffffffffffffffffffffffff\n      and\n      dup2\n      mstore\n      0x20\n      add\n      swap1\n      dup2\n      mstore\n      0x20\n      add\n      0x00\n      keccak256\n      sload\n        /* \"shijian/ERC20Sample.sol\":4834:4855  _balances[sender].sub */\n      tag_97\n      swap1\n        /* \"shijian/ERC20Sample.sol\":4834:4905  _balances[sender].sub(amount, 'ERC20: transfer amount exceeds balance') */\n      swap3\n      swap2\n      swap1\n      0xffffffff\n      and\n      jump\t// in\n    tag_154:\n        /* \"shijian/ERC20Sample.sol\":4814:4823  _balances */\n      0x03\n        /* \"shijian/ERC20Sample.sol\":4814:4831  _balances[sender] */\n      0x00\n        /* \"shijian/ERC20Sample.sol\":4824:4830  sender */\n      dup6\n        /* \"shijian/ERC20Sample.sol\":4814:4831  _balances[sender] */\n      0xffffffffffffffffffffffffffffffffffffffff\n      and\n      0xffffffffffffffffffffffffffffffffffffffff\n      and\n      dup2\n      mstore\n      0x20\n      add\n      swap1\n      dup2\n      mstore\n      0x20\n      add\n      0x00\n      keccak256\n        /* \"shijian/ERC20Sample.sol\":4814:4905  _balances[sender] = _balances[sender].sub(amount, 'ERC20: transfer amount exceeds balance') */\n      dup2\n      swap1\n      sstore\n      pop\n        /* \"shijian/ERC20Sample.sol\":4938:4970  _balances[recipient].add(amount) */\n      tag_155\n        /* \"shijian/ERC20Sample.sol\":4963:4969  amount */\n      dup2\n        /* \"shijian/ERC20Sample.sol\":4938:4947  _balances */\n      0x03\n        /* \"shijian/ERC20Sample.sol\":4938:4958  _balances[recipient] */\n      0x00\n        /* \"shijian/ERC20Sample.sol\":4948:4957  recipient */\n      dup6\n        /* \"shijian/ERC20Sample.sol\":4938:4958  _balances[recipient] */\n      0xffffffffffffffffffffffffffffffffffffffff\n      and\n      0xffffffffffffffffffffffffffffffffffffffff\n      and\n      dup2\n      mstore\n      0x20\n      add\n      swap1\n      dup2\n      mstore\n      0x20\n      add\n      0x00\n      keccak256\n      sload\n        /* \"shijian/ERC20Sample.sol\":4938:4962  _balances[recipient].add */\n      tag_121\n      swap1\n        /* \"shijian/ERC20Sample.sol\":4938:4970  _balances[recipient].add(amount) */\n      swap2\n      swap1\n      0xffffffff\n      and\n      jump\t// in\n    tag_155:\n        /* \"shijian/ERC20Sample.sol\":4915:4924  _balances */\n      0x03\n        /* \"shijian/ERC20Sample.sol\":4915:4935  _balances[recipient] */\n      0x00\n        /* \"shijian/ERC20Sample.sol\":4925:4934  recipient */\n      dup5\n        /* \"shijian/ERC20Sample.sol\":4915:4935  _balances[recipient] */\n      0xffffffffffffffffffffffffffffffffffffffff\n      and\n      0xffffffffffffffffffffffffffffffffffffffff\n      and\n      dup2\n      mstore\n      0x20\n      add\n      swap1\n      dup2\n      mstore\n      0x20\n      add\n      0x00\n      keccak256\n        /* \"shijian/ERC20Sample.sol\":4915:4970  _balances[recipient] = _balances[recipient].add(amount) */\n      dup2\n      swap1\n      sstore\n      pop\n        /* \"shijian/ERC20Sample.sol\":5003:5012  recipient */\n      dup2\n        /* \"shijian/ERC20Sample.sol\":4986:5021  Transfer(sender, recipient, amount) */\n      0xffffffffffffffffffffffffffffffffffffffff\n      and\n        /* \"shijian/ERC20Sample.sol\":4995:5001  sender */\n      dup4\n        /* \"shijian/ERC20Sample.sol\":4986:5021  Transfer(sender, recipient, amount) */\n      0xffffffffffffffffffffffffffffffffffffffff\n      and\n      0xddf252ad1be2c89b69c2b068fc378daa952ba7f163c4a11628f55a4df523b3ef\n        /* \"shijian/ERC20Sample.sol\":5014:5020  amount */\n      dup4\n        /* \"shijian/ERC20Sample.sol\":4986:5021  Transfer(sender, recipient, amount) */\n      mload(0x40)\n      tag_156\n      swap2\n      swap1\n      tag_36\n      jump\t// in\n    tag_156:\n      mload(0x40)\n      dup1\n      swap2\n      sub\n      swap1\n      log3\n        /* \"shijian/ERC20Sample.sol\":5055:5088  toralTransfer[sender].add(amount) */\n      tag_157\n        /* \"shijian/ERC20Sample.sol\":5081:5087  amount */\n      dup2\n        /* \"shijian/ERC20Sample.sol\":5055:5068  toralTransfer */\n      0x07\n        /* \"shijian/ERC20Sample.sol\":5055:5076  toralTransfer[sender] */\n      0x00\n        /* \"shijian/ERC20Sample.sol\":5069:5075  sender */\n      dup7\n        /* \"shijian/ERC20Sample.sol\":5055:5076  toralTransfer[sender] */\n      0xffffffffffffffffffffffffffffffffffffffff\n      and\n      0xffffffffffffffffffffffffffffffffffffffff\n      and\n      dup2\n      mstore\n      0x20\n      add\n      swap1\n      dup2\n      mstore\n      0x20\n      add\n      0x00\n      keccak256\n      sload\n        /* \"shijian/ERC20Sample.sol\":5055:5080  toralTransfer[sender].add */\n      tag_121\n      swap1\n        /* \"shijian/ERC20Sample.sol\":5055:5088  toralTransfer[sender].add(amount) */\n      swap2\n      swap1\n      0xffffffff\n      and\n      jump\t// in\n    tag_157:\n        /* \"shijian/ERC20Sample.sol\":5031:5044  toralTransfer */\n      0x07\n        /* \"shijian/ERC20Sample.sol\":5031:5052  toralTransfer[sender] */\n      0x00\n        /* \"shijian/ERC20Sample.sol\":5045:5051  sender */\n      dup6\n        /* \"shijian/ERC20Sample.sol\":5031:5052  toralTransfer[sender] */\n      0xffffffffffffffffffffffffffffffffffffffff\n      and\n      0xffffffffffffffffffffffffffffffffffffffff\n      and\n      dup2\n      mstore\n      0x20\n      add\n      swap1\n      dup2\n      mstore\n      0x20\n      add\n      0x00\n      keccak256\n        /* \"shijian/ERC20Sample.sol\":5031:5088  toralTransfer[sender] = toralTransfer[sender].add(amount) */\n      dup2\n      swap1\n      sstore\n      pop\n        /* \"shijian/ERC20Sample.sol\":4533:5095  function _transfer(... */\n      pop\n      pop\n      pop\n      jump\t// out\n        /* \"shijian/ERC20Sample.sol\":1264:1481  function sub(... */\n    tag_97:\n        /* \"shijian/ERC20Sample.sol\":1380:1387  uint256 */\n      0x00\n        /* \"shijian/ERC20Sample.sol\":1412:1413  a */\n      dup4\n        /* \"shijian/ERC20Sample.sol\":1407:1408  b */\n      dup4\n        /* \"shijian/ERC20Sample.sol\":1407:1413  b <= a */\n      gt\n      iszero\n        /* \"shijian/ERC20Sample.sol\":1415:1427  errorMessage */\n      dup3\n        /* \"shijian/ERC20Sample.sol\":1399:1428  require(b <= a, errorMessage) */\n      swap1\n      tag_159\n      jumpi\n      mload(0x40)\n      0x08c379a000000000000000000000000000000000000000000000000000000000\n      dup2\n      mstore\n      0x04\n      add\n      tag_160\n      swap2\n      swap1\n      tag_24\n      jump\t// in\n    tag_160:\n      mload(0x40)\n      dup1\n      swap2\n      sub\n      swap1\n      revert\n    tag_159:\n      pop\n        /* \"shijian/ERC20Sample.sol\":1438:1447  uint256 c */\n      0x00\n        /* \"shijian/ERC20Sample.sol\":1454:1455  b */\n      dup4\n        /* \"shijian/ERC20Sample.sol\":1450:1451  a */\n      dup6\n        /* \"shijian/ERC20Sample.sol\":1450:1455  a - b */\n      tag_161\n      swap2\n      swap1\n      tag_112\n      jump\t// in\n    tag_161:\n        /* \"shijian/ERC20Sample.sol\":1438:1455  uint256 c = a - b */\n      swap1\n      pop\n        /* \"shijian/ERC20Sample.sol\":1473:1474  c */\n      dup1\n        /* \"shijian/ERC20Sample.sol\":1466:1474  return c */\n      swap2\n      pop\n      pop\n        /* \"shijian/ERC20Sample.sol\":1264:1481  function sub(... */\n      swap4\n      swap3\n      pop\n      pop\n      pop\n      jump\t// out\n        /* \"shijian/ERC20Sample.sol\":942:1118  function add(uint256 a, uint256 b) internal pure returns (uint256) {... */\n    tag_121:\n        /* \"shijian/ERC20Sample.sol\":1000:1007  uint256 */\n      0x00\n        /* \"shijian/ERC20Sample.sol\":1019:1028  uint256 c */\n      dup1\n        /* \"shijian/ERC20Sample.sol\":1035:1036  b */\n      dup3\n        /* \"shijian/ERC20Sample.sol\":1031:1032  a */\n      dup5\n        /* \"shijian/ERC20Sample.sol\":1031:1036  a + b */\n      tag_163\n      swap2\n      swap1\n      tag_119\n      jump\t// in\n    tag_163:\n        /* \"shijian/ERC20Sample.sol\":1019:1036  uint256 c = a + b */\n      swap1\n      pop\n        /* \"shijian/ERC20Sample.sol\":1059:1060  a */\n      dup4\n        /* \"shijian/ERC20Sample.sol\":1054:1055  c */\n      dup2\n        /* \"shijian/ERC20Sample.sol\":1054:1060  c >= a */\n      lt\n      iszero\n        /* \"shijian/ERC20Sample.sol\":1046:1092  require(c >= a, 'SafeMath: addition overflow') */\n      tag_164\n      jumpi\n      mload(0x40)\n      0x08c379a000000000000000000000000000000000000000000000000000000000\n      dup2\n      mstore\n      0x04\n      add\n      tag_165\n      swap1\n      tag_166\n      jump\t// in\n    tag_165:\n      mload(0x40)\n      dup1\n      swap2\n      sub\n      swap1\n      revert\n    tag_164:\n        /* \"shijian/ERC20Sample.sol\":1110:1111  c */\n      dup1\n        /* \"shijian/ERC20Sample.sol\":1103:1111  return c */\n      swap2\n      pop\n      pop\n        /* \"shijian/ERC20Sample.sol\":942:1118  function add(uint256 a, uint256 b) internal pure returns (uint256) {... */\n      swap3\n      swap2\n      pop\n      pop\n      jump\t// out\n        /* \"#utility.yul\":7:146   */\n    tag_168:\n      0x00\n        /* \"#utility.yul\":91:97   */\n      dup2\n        /* \"#utility.yul\":78:98   */\n      calldataload\n        /* \"#utility.yul\":69:98   */\n      swap1\n      pop\n        /* \"#utility.yul\":107:140   */\n      tag_170\n        /* \"#utility.yul\":134:139   */\n      dup2\n        /* \"#utility.yul\":107:140   */\n      tag_171\n      jump\t// in\n    tag_170:\n        /* \"#utility.yul\":59:146   */\n      swap3\n      swap2\n      pop\n      pop\n      jump\t// out\n        /* \"#utility.yul\":152:291   */\n    tag_172:\n      0x00\n        /* \"#utility.yul\":236:242   */\n      dup2\n        /* \"#utility.yul\":223:243   */\n      calldataload\n        /* \"#utility.yul\":214:243   */\n      swap1\n      pop\n        /* \"#utility.yul\":252:285   */\n      tag_174\n        /* \"#utility.yul\":279:284   */\n      dup2\n        /* \"#utility.yul\":252:285   */\n      tag_175\n      jump\t// in\n    tag_174:\n        /* \"#utility.yul\":204:291   */\n      swap3\n      swap2\n      pop\n      pop\n      jump\t// out\n        /* \"#utility.yul\":297:559   */\n    tag_33:\n      0x00\n        /* \"#utility.yul\":405:407   */\n      0x20\n        /* \"#utility.yul\":393:402   */\n      dup3\n        /* \"#utility.yul\":384:391   */\n      dup5\n        /* \"#utility.yul\":380:403   */\n      sub\n        /* \"#utility.yul\":376:408   */\n      slt\n        /* \"#utility.yul\":373:375   */\n      iszero\n      tag_177\n      jumpi\n        /* \"#utility.yul\":421:422   */\n      0x00\n        /* \"#utility.yul\":418:419   */\n      dup1\n        /* \"#utility.yul\":411:423   */\n      revert\n        /* \"#utility.yul\":373:375   */\n    tag_177:\n        /* \"#utility.yul\":464:465   */\n      0x00\n        /* \"#utility.yul\":489:542   */\n      tag_178\n        /* \"#utility.yul\":534:541   */\n      dup5\n        /* \"#utility.yul\":525:531   */\n      dup3\n        /* \"#utility.yul\":514:523   */\n      dup6\n        /* \"#utility.yul\":510:532   */\n      add\n        /* \"#utility.yul\":489:542   */\n      tag_168\n      jump\t// in\n    tag_178:\n        /* \"#utility.yul\":479:542   */\n      swap2\n      pop\n        /* \"#utility.yul\":435:552   */\n      pop\n        /* \"#utility.yul\":363:559   */\n      swap3\n      swap2\n      pop\n      pop\n      jump\t// out\n        /* \"#utility.yul\":565:972   */\n    tag_71:\n      0x00\n      dup1\n        /* \"#utility.yul\":690:692   */\n      0x40\n        /* \"#utility.yul\":678:687   */\n      dup4\n        /* \"#utility.yul\":669:676   */\n      dup6\n        /* \"#utility.yul\":665:688   */\n      sub\n        /* \"#utility.yul\":661:693   */\n      slt\n        /* \"#utility.yul\":658:660   */\n      iszero\n      tag_180\n      jumpi\n        /* \"#utility.yul\":706:707   */\n      0x00\n        /* \"#utility.yul\":703:704   */\n      dup1\n        /* \"#utility.yul\":696:708   */\n      revert\n        /* \"#utility.yul\":658:660   */\n    tag_180:\n        /* \"#utility.yul\":749:750   */\n      0x00\n        /* \"#utility.yul\":774:827   */\n      tag_181\n        /* \"#utility.yul\":819:826   */\n      dup6\n        /* \"#utility.yul\":810:816   */\n      dup3\n        /* \"#utility.yul\":799:808   */\n      dup7\n        /* \"#utility.yul\":795:817   */\n      add\n        /* \"#utility.yul\":774:827   */\n      tag_168\n      jump\t// in\n    tag_181:\n        /* \"#utility.yul\":764:827   */\n      swap3\n      pop\n        /* \"#utility.yul\":720:837   */\n      pop\n        /* \"#utility.yul\":876:878   */\n      0x20\n        /* \"#utility.yul\":902:955   */\n      tag_182\n        /* \"#utility.yul\":947:954   */\n      dup6\n        /* \"#utility.yul\":938:944   */\n      dup3\n        /* \"#utility.yul\":927:936   */\n      dup7\n        /* \"#utility.yul\":923:945   */\n      add\n        /* \"#utility.yul\":902:955   */\n      tag_168\n      jump\t// in\n    tag_182:\n        /* \"#utility.yul\":892:955   */\n      swap2\n      pop\n        /* \"#utility.yul\":847:965   */\n      pop\n        /* \"#utility.yul\":648:972   */\n      swap3\n      pop\n      swap3\n      swap1\n      pop\n      jump\t// out\n        /* \"#utility.yul\":978:1530   */\n    tag_42:\n      0x00\n      dup1\n      0x00\n        /* \"#utility.yul\":1120:1122   */\n      0x60\n        /* \"#utility.yul\":1108:1117   */\n      dup5\n        /* \"#utility.yul\":1099:1106   */\n      dup7\n        /* \"#utility.yul\":1095:1118   */\n      sub\n        /* \"#utility.yul\":1091:1123   */\n      slt\n        /* \"#utility.yul\":1088:1090   */\n      iszero\n      tag_184\n      jumpi\n        /* \"#utility.yul\":1136:1137   */\n      0x00\n        /* \"#utility.yul\":1133:1134   */\n      dup1\n        /* \"#utility.yul\":1126:1138   */\n      revert\n        /* \"#utility.yul\":1088:1090   */\n    tag_184:\n        /* \"#utility.yul\":1179:1180   */\n      0x00\n        /* \"#utility.yul\":1204:1257   */\n      tag_185\n        /* \"#utility.yul\":1249:1256   */\n      dup7\n        /* \"#utility.yul\":1240:1246   */\n      dup3\n        /* \"#utility.yul\":1229:1238   */\n      dup8\n        /* \"#utility.yul\":1225:1247   */\n      add\n        /* \"#utility.yul\":1204:1257   */\n      tag_168\n      jump\t// in\n    tag_185:\n        /* \"#utility.yul\":1194:1257   */\n      swap4\n      pop\n        /* \"#utility.yul\":1150:1267   */\n      pop\n        /* \"#utility.yul\":1306:1308   */\n      0x20\n        /* \"#utility.yul\":1332:1385   */\n      tag_186\n        /* \"#utility.yul\":1377:1384   */\n      dup7\n        /* \"#utility.yul\":1368:1374   */\n      dup3\n        /* \"#utility.yul\":1357:1366   */\n      dup8\n        /* \"#utility.yul\":1353:1375   */\n      add\n        /* \"#utility.yul\":1332:1385   */\n      tag_168\n      jump\t// in\n    tag_186:\n        /* \"#utility.yul\":1322:1385   */\n      swap3\n      pop\n        /* \"#utility.yul\":1277:1395   */\n      pop\n        /* \"#utility.yul\":1434:1436   */\n      0x40\n        /* \"#utility.yul\":1460:1513   */\n      tag_187\n        /* \"#utility.yul\":1505:1512   */\n      dup7\n        /* \"#utility.yul\":1496:1502   */\n      dup3\n        /* \"#utility.yul\":1485:1494   */\n      dup8\n        /* \"#utility.yul\":1481:1503   */\n      add\n        /* \"#utility.yul\":1460:1513   */\n      tag_172\n      jump\t// in\n    tag_187:\n        /* \"#utility.yul\":1450:1513   */\n      swap2\n      pop\n        /* \"#utility.yul\":1405:1523   */\n      pop\n        /* \"#utility.yul\":1078:1530   */\n      swap3\n      pop\n      swap3\n      pop\n      swap3\n      jump\t// out\n        /* \"#utility.yul\":1536:1943   */\n    tag_27:\n      0x00\n      dup1\n        /* \"#utility.yul\":1661:1663   */\n      0x40\n        /* \"#utility.yul\":1649:1658   */\n      dup4\n        /* \"#utility.yul\":1640:1647   */\n      dup6\n        /* \"#utility.yul\":1636:1659   */\n      sub\n        /* \"#utility.yul\":1632:1664   */\n      slt\n        /* \"#utility.yul\":1629:1631   */\n      iszero\n      tag_189\n      jumpi\n        /* \"#utility.yul\":1677:1678   */\n      0x00\n        /* \"#utility.yul\":1674:1675   */\n      dup1\n        /* \"#utility.yul\":1667:1679   */\n      revert\n        /* \"#utility.yul\":1629:1631   */\n    tag_189:\n        /* \"#utility.yul\":1720:1721   */\n      0x00\n        /* \"#utility.yul\":1745:1798   */\n      tag_190\n        /* \"#utility.yul\":1790:1797   */\n      dup6\n        /* \"#utility.yul\":1781:1787   */\n      dup3\n        /* \"#utility.yul\":1770:1779   */\n      dup7\n        /* \"#utility.yul\":1766:1788   */\n      add\n        /* \"#utility.yul\":1745:1798   */\n      tag_168\n      jump\t// in\n    tag_190:\n        /* \"#utility.yul\":1735:1798   */\n      swap3\n      pop\n        /* \"#utility.yul\":1691:1808   */\n      pop\n        /* \"#utility.yul\":1847:1849   */\n      0x20\n        /* \"#utility.yul\":1873:1926   */\n      tag_191\n        /* \"#utility.yul\":1918:1925   */\n      dup6\n        /* \"#utility.yul\":1909:1915   */\n      dup3\n        /* \"#utility.yul\":1898:1907   */\n      dup7\n        /* \"#utility.yul\":1894:1916   */\n      add\n        /* \"#utility.yul\":1873:1926   */\n      tag_172\n      jump\t// in\n    tag_191:\n        /* \"#utility.yul\":1863:1926   */\n      swap2\n      pop\n        /* \"#utility.yul\":1818:1936   */\n      pop\n        /* \"#utility.yul\":1619:1943   */\n      swap3\n      pop\n      swap3\n      swap1\n      pop\n      jump\t// out\n        /* \"#utility.yul\":1949:2058   */\n    tag_192:\n        /* \"#utility.yul\":2030:2051   */\n      tag_194\n        /* \"#utility.yul\":2045:2050   */\n      dup2\n        /* \"#utility.yul\":2030:2051   */\n      tag_195\n      jump\t// in\n    tag_194:\n        /* \"#utility.yul\":2025:2028   */\n      dup3\n        /* \"#utility.yul\":2018:2052   */\n      mstore\n        /* \"#utility.yul\":2008:2058   */\n      pop\n      pop\n      jump\t// out\n        /* \"#utility.yul\":2064:2428   */\n    tag_196:\n      0x00\n        /* \"#utility.yul\":2180:2219   */\n      tag_198\n        /* \"#utility.yul\":2213:2218   */\n      dup3\n        /* \"#utility.yul\":2180:2219   */\n      tag_199\n      jump\t// in\n    tag_198:\n        /* \"#utility.yul\":2235:2306   */\n      tag_200\n        /* \"#utility.yul\":2299:2305   */\n      dup2\n        /* \"#utility.yul\":2294:2297   */\n      dup6\n        /* \"#utility.yul\":2235:2306   */\n      tag_201\n      jump\t// in\n    tag_200:\n        /* \"#utility.yul\":2228:2306   */\n      swap4\n      pop\n        /* \"#utility.yul\":2315:2367   */\n      tag_202\n        /* \"#utility.yul\":2360:2366   */\n      dup2\n        /* \"#utility.yul\":2355:2358   */\n      dup6\n        /* \"#utility.yul\":2348:2352   */\n      0x20\n        /* \"#utility.yul\":2341:2346   */\n      dup7\n        /* \"#utility.yul\":2337:2353   */\n      add\n        /* \"#utility.yul\":2315:2367   */\n      tag_203\n      jump\t// in\n    tag_202:\n        /* \"#utility.yul\":2392:2421   */\n      tag_204\n        /* \"#utility.yul\":2414:2420   */\n      dup2\n        /* \"#utility.yul\":2392:2421   */\n      tag_205\n      jump\t// in\n    tag_204:\n        /* \"#utility.yul\":2387:2390   */\n      dup5\n        /* \"#utility.yul\":2383:2422   */\n      add\n        /* \"#utility.yul\":2376:2422   */\n      swap2\n      pop\n        /* \"#utility.yul\":2156:2428   */\n      pop\n      swap3\n      swap2\n      pop\n      pop\n      jump\t// out\n        /* \"#utility.yul\":2434:2801   */\n    tag_206:\n      0x00\n        /* \"#utility.yul\":2597:2664   */\n      tag_208\n        /* \"#utility.yul\":2661:2663   */\n      0x23\n        /* \"#utility.yul\":2656:2659   */\n      dup4\n        /* \"#utility.yul\":2597:2664   */\n      tag_201\n      jump\t// in\n    tag_208:\n        /* \"#utility.yul\":2590:2664   */\n      swap2\n      pop\n        /* \"#utility.yul\":2694:2728   */\n      0x45524332303a207472616e7366657220746f20746865207a65726f2061646472\n        /* \"#utility.yul\":2690:2691   */\n      0x00\n        /* \"#utility.yul\":2685:2688   */\n      dup4\n        /* \"#utility.yul\":2681:2692   */\n      add\n        /* \"#utility.yul\":2674:2729   */\n      mstore\n        /* \"#utility.yul\":2760:2765   */\n      0x6573730000000000000000000000000000000000000000000000000000000000\n        /* \"#utility.yul\":2755:2757   */\n      0x20\n        /* \"#utility.yul\":2750:2753   */\n      dup4\n        /* \"#utility.yul\":2746:2758   */\n      add\n        /* \"#utility.yul\":2739:2766   */\n      mstore\n        /* \"#utility.yul\":2792:2794   */\n      0x40\n        /* \"#utility.yul\":2787:2790   */\n      dup3\n        /* \"#utility.yul\":2783:2795   */\n      add\n        /* \"#utility.yul\":2776:2795   */\n      swap1\n      pop\n        /* \"#utility.yul\":2580:2801   */\n      swap2\n      swap1\n      pop\n      jump\t// out\n        /* \"#utility.yul\":2807:3111   */\n    tag_209:\n      0x00\n        /* \"#utility.yul\":2970:3036   */\n      tag_211\n        /* \"#utility.yul\":3034:3035   */\n      0x07\n        /* \"#utility.yul\":3029:3032   */\n      dup4\n        /* \"#utility.yul\":2970:3036   */\n      tag_201\n      jump\t// in\n    tag_211:\n        /* \"#utility.yul\":2963:3036   */\n      swap2\n      pop\n        /* \"#utility.yul\":3066:3075   */\n      0x6e6f206d6f726500000000000000000000000000000000000000000000000000\n        /* \"#utility.yul\":3062:3063   */\n      0x00\n        /* \"#utility.yul\":3057:3060   */\n      dup4\n        /* \"#utility.yul\":3053:3064   */\n      add\n        /* \"#utility.yul\":3046:3076   */\n      mstore\n        /* \"#utility.yul\":3102:3104   */\n      0x20\n        /* \"#utility.yul\":3097:3100   */\n      dup3\n        /* \"#utility.yul\":3093:3105   */\n      add\n        /* \"#utility.yul\":3086:3105   */\n      swap1\n      pop\n        /* \"#utility.yul\":2953:3111   */\n      swap2\n      swap1\n      pop\n      jump\t// out\n        /* \"#utility.yul\":3117:3430   */\n    tag_212:\n      0x00\n        /* \"#utility.yul\":3280:3347   */\n      tag_214\n        /* \"#utility.yul\":3344:3346   */\n      0x0f\n        /* \"#utility.yul\":3339:3342   */\n      dup4\n        /* \"#utility.yul\":3280:3347   */\n      tag_201\n      jump\t// in\n    tag_214:\n        /* \"#utility.yul\":3273:3347   */\n      swap2\n      pop\n        /* \"#utility.yul\":3377:3394   */\n      0x6974206973203020616464726573730000000000000000000000000000000000\n        /* \"#utility.yul\":3373:3374   */\n      0x00\n        /* \"#utility.yul\":3368:3371   */\n      dup4\n        /* \"#utility.yul\":3364:3375   */\n      add\n        /* \"#utility.yul\":3357:3395   */\n      mstore\n        /* \"#utility.yul\":3421:3423   */\n      0x20\n        /* \"#utility.yul\":3416:3419   */\n      dup3\n        /* \"#utility.yul\":3412:3424   */\n      add\n        /* \"#utility.yul\":3405:3424   */\n      swap1\n      pop\n        /* \"#utility.yul\":3263:3430   */\n      swap2\n      swap1\n      pop\n      jump\t// out\n        /* \"#utility.yul\":3436:3802   */\n    tag_215:\n      0x00\n        /* \"#utility.yul\":3599:3666   */\n      tag_217\n        /* \"#utility.yul\":3663:3665   */\n      0x22\n        /* \"#utility.yul\":3658:3661   */\n      dup4\n        /* \"#utility.yul\":3599:3666   */\n      tag_201\n      jump\t// in\n    tag_217:\n        /* \"#utility.yul\":3592:3666   */\n      swap2\n      pop\n        /* \"#utility.yul\":3696:3730   */\n      0x45524332303a20617070726f766520746f20746865207a65726f206164647265\n        /* \"#utility.yul\":3692:3693   */\n      0x00\n        /* \"#utility.yul\":3687:3690   */\n      dup4\n        /* \"#utility.yul\":3683:3694   */\n      add\n        /* \"#utility.yul\":3676:3731   */\n      mstore\n        /* \"#utility.yul\":3762:3766   */\n      0x7373000000000000000000000000000000000000000000000000000000000000\n        /* \"#utility.yul\":3757:3759   */\n      0x20\n        /* \"#utility.yul\":3752:3755   */\n      dup4\n        /* \"#utility.yul\":3748:3760   */\n      add\n        /* \"#utility.yul\":3741:3767   */\n      mstore\n        /* \"#utility.yul\":3793:3795   */\n      0x40\n        /* \"#utility.yul\":3788:3791   */\n      dup3\n        /* \"#utility.yul\":3784:3796   */\n      add\n        /* \"#utility.yul\":3777:3796   */\n      swap1\n      pop\n        /* \"#utility.yul\":3582:3802   */\n      swap2\n      swap1\n      pop\n      jump\t// out\n        /* \"#utility.yul\":3808:4133   */\n    tag_218:\n      0x00\n        /* \"#utility.yul\":3971:4038   */\n      tag_220\n        /* \"#utility.yul\":4035:4037   */\n      0x1b\n        /* \"#utility.yul\":4030:4033   */\n      dup4\n        /* \"#utility.yul\":3971:4038   */\n      tag_201\n      jump\t// in\n    tag_220:\n        /* \"#utility.yul\":3964:4038   */\n      swap2\n      pop\n        /* \"#utility.yul\":4068:4097   */\n      0x536166654d6174683a206164646974696f6e206f766572666c6f770000000000\n        /* \"#utility.yul\":4064:4065   */\n      0x00\n        /* \"#utility.yul\":4059:4062   */\n      dup4\n        /* \"#utility.yul\":4055:4066   */\n      add\n        /* \"#utility.yul\":4048:4098   */\n      mstore\n        /* \"#utility.yul\":4124:4126   */\n      0x20\n        /* \"#utility.yul\":4119:4122   */\n      dup3\n        /* \"#utility.yul\":4115:4127   */\n      add\n        /* \"#utility.yul\":4108:4127   */\n      swap1\n      pop\n        /* \"#utility.yul\":3954:4133   */\n      swap2\n      swap1\n      pop\n      jump\t// out\n        /* \"#utility.yul\":4139:4447   */\n    tag_221:\n      0x00\n        /* \"#utility.yul\":4302:4369   */\n      tag_223\n        /* \"#utility.yul\":4366:4368   */\n      0x0a\n        /* \"#utility.yul\":4361:4364   */\n      dup4\n        /* \"#utility.yul\":4302:4369   */\n      tag_201\n      jump\t// in\n    tag_223:\n        /* \"#utility.yul\":4295:4369   */\n      swap2\n      pop\n        /* \"#utility.yul\":4399:4411   */\n      0x6e6f74206d616e61676500000000000000000000000000000000000000000000\n        /* \"#utility.yul\":4395:4396   */\n      0x00\n        /* \"#utility.yul\":4390:4393   */\n      dup4\n        /* \"#utility.yul\":4386:4397   */\n      add\n        /* \"#utility.yul\":4379:4412   */\n      mstore\n        /* \"#utility.yul\":4438:4440   */\n      0x20\n        /* \"#utility.yul\":4433:4436   */\n      dup3\n        /* \"#utility.yul\":4429:4441   */\n      add\n        /* \"#utility.yul\":4422:4441   */\n      swap1\n      pop\n        /* \"#utility.yul\":4285:4447   */\n      swap2\n      swap1\n      pop\n      jump\t// out\n        /* \"#utility.yul\":4453:4822   */\n    tag_224:\n      0x00\n        /* \"#utility.yul\":4616:4683   */\n      tag_226\n        /* \"#utility.yul\":4680:4682   */\n      0x25\n        /* \"#utility.yul\":4675:4678   */\n      dup4\n        /* \"#utility.yul\":4616:4683   */\n      tag_201\n      jump\t// in\n    tag_226:\n        /* \"#utility.yul\":4609:4683   */\n      swap2\n      pop\n        /* \"#utility.yul\":4713:4747   */\n      0x45524332303a207472616e736665722066726f6d20746865207a65726f206164\n        /* \"#utility.yul\":4709:4710   */\n      0x00\n        /* \"#utility.yul\":4704:4707   */\n      dup4\n        /* \"#utility.yul\":4700:4711   */\n      add\n        /* \"#utility.yul\":4693:4748   */\n      mstore\n        /* \"#utility.yul\":4779:4786   */\n      0x6472657373000000000000000000000000000000000000000000000000000000\n        /* \"#utility.yul\":4774:4776   */\n      0x20\n        /* \"#utility.yul\":4769:4772   */\n      dup4\n        /* \"#utility.yul\":4765:4777   */\n      add\n        /* \"#utility.yul\":4758:4787   */\n      mstore\n        /* \"#utility.yul\":4813:4815   */\n      0x40\n        /* \"#utility.yul\":4808:4811   */\n      dup3\n        /* \"#utility.yul\":4804:4816   */\n      add\n        /* \"#utility.yul\":4797:4816   */\n      swap1\n      pop\n        /* \"#utility.yul\":4599:4822   */\n      swap2\n      swap1\n      pop\n      jump\t// out\n        /* \"#utility.yul\":4828:5196   */\n    tag_227:\n      0x00\n        /* \"#utility.yul\":4991:5058   */\n      tag_229\n        /* \"#utility.yul\":5055:5057   */\n      0x24\n        /* \"#utility.yul\":5050:5053   */\n      dup4\n        /* \"#utility.yul\":4991:5058   */\n      tag_201\n      jump\t// in\n    tag_229:\n        /* \"#utility.yul\":4984:5058   */\n      swap2\n      pop\n        /* \"#utility.yul\":5088:5122   */\n      0x45524332303a20617070726f76652066726f6d20746865207a65726f20616464\n        /* \"#utility.yul\":5084:5085   */\n      0x00\n        /* \"#utility.yul\":5079:5082   */\n      dup4\n        /* \"#utility.yul\":5075:5086   */\n      add\n        /* \"#utility.yul\":5068:5123   */\n      mstore\n        /* \"#utility.yul\":5154:5160   */\n      0x7265737300000000000000000000000000000000000000000000000000000000\n        /* \"#utility.yul\":5149:5151   */\n      0x20\n        /* \"#utility.yul\":5144:5147   */\n      dup4\n        /* \"#utility.yul\":5140:5152   */\n      add\n        /* \"#utility.yul\":5133:5161   */\n      mstore\n        /* \"#utility.yul\":5187:5189   */\n      0x40\n        /* \"#utility.yul\":5182:5185   */\n      dup3\n        /* \"#utility.yul\":5178:5190   */\n      add\n        /* \"#utility.yul\":5171:5190   */\n      swap1\n      pop\n        /* \"#utility.yul\":4974:5196   */\n      swap2\n      swap1\n      pop\n      jump\t// out\n        /* \"#utility.yul\":5202:5320   */\n    tag_230:\n        /* \"#utility.yul\":5289:5313   */\n      tag_232\n        /* \"#utility.yul\":5307:5312   */\n      dup2\n        /* \"#utility.yul\":5289:5313   */\n      tag_233\n      jump\t// in\n    tag_232:\n        /* \"#utility.yul\":5284:5287   */\n      dup3\n        /* \"#utility.yul\":5277:5314   */\n      mstore\n        /* \"#utility.yul\":5267:5320   */\n      pop\n      pop\n      jump\t// out\n        /* \"#utility.yul\":5326:5438   */\n    tag_234:\n        /* \"#utility.yul\":5409:5431   */\n      tag_236\n        /* \"#utility.yul\":5425:5430   */\n      dup2\n        /* \"#utility.yul\":5409:5431   */\n      tag_237\n      jump\t// in\n    tag_236:\n        /* \"#utility.yul\":5404:5407   */\n      dup3\n        /* \"#utility.yul\":5397:5432   */\n      mstore\n        /* \"#utility.yul\":5387:5438   */\n      pop\n      pop\n      jump\t// out\n        /* \"#utility.yul\":5444:5654   */\n    tag_30:\n      0x00\n        /* \"#utility.yul\":5569:5571   */\n      0x20\n        /* \"#utility.yul\":5558:5567   */\n      dup3\n        /* \"#utility.yul\":5554:5572   */\n      add\n        /* \"#utility.yul\":5546:5572   */\n      swap1\n      pop\n        /* \"#utility.yul\":5582:5647   */\n      tag_239\n        /* \"#utility.yul\":5644:5645   */\n      0x00\n        /* \"#utility.yul\":5633:5642   */\n      dup4\n        /* \"#utility.yul\":5629:5646   */\n      add\n        /* \"#utility.yul\":5620:5626   */\n      dup5\n        /* \"#utility.yul\":5582:5647   */\n      tag_192\n      jump\t// in\n    tag_239:\n        /* \"#utility.yul\":5536:5654   */\n      swap3\n      swap2\n      pop\n      pop\n      jump\t// out\n        /* \"#utility.yul\":5660:5973   */\n    tag_24:\n      0x00\n        /* \"#utility.yul\":5811:5813   */\n      0x20\n        /* \"#utility.yul\":5800:5809   */\n      dup3\n        /* \"#utility.yul\":5796:5814   */\n      add\n        /* \"#utility.yul\":5788:5814   */\n      swap1\n      pop\n        /* \"#utility.yul\":5860:5869   */\n      dup2\n        /* \"#utility.yul\":5854:5858   */\n      dup2\n        /* \"#utility.yul\":5850:5870   */\n      sub\n        /* \"#utility.yul\":5846:5847   */\n      0x00\n        /* \"#utility.yul\":5835:5844   */\n      dup4\n        /* \"#utility.yul\":5831:5848   */\n      add\n        /* \"#utility.yul\":5824:5871   */\n      mstore\n        /* \"#utility.yul\":5888:5966   */\n      tag_241\n        /* \"#utility.yul\":5961:5965   */\n      dup2\n        /* \"#utility.yul\":5952:5958   */\n      dup5\n        /* \"#utility.yul\":5888:5966   */\n      tag_196\n      jump\t// in\n    tag_241:\n        /* \"#utility.yul\":5880:5966   */\n      swap1\n      pop\n        /* \"#utility.yul\":5778:5973   */\n      swap3\n      swap2\n      pop\n      pop\n      jump\t// out\n        /* \"#utility.yul\":5979:6398   */\n    tag_153:\n      0x00\n        /* \"#utility.yul\":6183:6185   */\n      0x20\n        /* \"#utility.yul\":6172:6181   */\n      dup3\n        /* \"#utility.yul\":6168:6186   */\n      add\n        /* \"#utility.yul\":6160:6186   */\n      swap1\n      pop\n        /* \"#utility.yul\":6232:6241   */\n      dup2\n        /* \"#utility.yul\":6226:6230   */\n      dup2\n        /* \"#utility.yul\":6222:6242   */\n      sub\n        /* \"#utility.yul\":6218:6219   */\n      0x00\n        /* \"#utility.yul\":6207:6216   */\n      dup4\n        /* \"#utility.yul\":6203:6220   */\n      add\n        /* \"#utility.yul\":6196:6243   */\n      mstore\n        /* \"#utility.yul\":6260:6391   */\n      tag_243\n        /* \"#utility.yul\":6386:6390   */\n      dup2\n        /* \"#utility.yul\":6260:6391   */\n      tag_206\n      jump\t// in\n    tag_243:\n        /* \"#utility.yul\":6252:6391   */\n      swap1\n      pop\n        /* \"#utility.yul\":6150:6398   */\n      swap2\n      swap1\n      pop\n      jump\t// out\n        /* \"#utility.yul\":6404:6823   */\n    tag_110:\n      0x00\n        /* \"#utility.yul\":6608:6610   */\n      0x20\n        /* \"#utility.yul\":6597:6606   */\n      dup3\n        /* \"#utility.yul\":6593:6611   */\n      add\n        /* \"#utility.yul\":6585:6611   */\n      swap1\n      pop\n        /* \"#utility.yul\":6657:6666   */\n      dup2\n        /* \"#utility.yul\":6651:6655   */\n      dup2\n        /* \"#utility.yul\":6647:6667   */\n      sub\n        /* \"#utility.yul\":6643:6644   */\n      0x00\n        /* \"#utility.yul\":6632:6641   */\n      dup4\n        /* \"#utility.yul\":6628:6645   */\n      add\n        /* \"#utility.yul\":6621:6668   */\n      mstore\n        /* \"#utility.yul\":6685:6816   */\n      tag_245\n        /* \"#utility.yul\":6811:6815   */\n      dup2\n        /* \"#utility.yul\":6685:6816   */\n      tag_209\n      jump\t// in\n    tag_245:\n        /* \"#utility.yul\":6677:6816   */\n      swap1\n      pop\n        /* \"#utility.yul\":6575:6823   */\n      swap2\n      swap1\n      pop\n      jump\t// out\n        /* \"#utility.yul\":6829:7248   */\n    tag_130:\n      0x00\n        /* \"#utility.yul\":7033:7035   */\n      0x20\n        /* \"#utility.yul\":7022:7031   */\n      dup3\n        /* \"#utility.yul\":7018:7036   */\n      add\n        /* \"#utility.yul\":7010:7036   */\n      swap1\n      pop\n        /* \"#utility.yul\":7082:7091   */\n      dup2\n        /* \"#utility.yul\":7076:7080   */\n      dup2\n        /* \"#utility.yul\":7072:7092   */\n      sub\n        /* \"#utility.yul\":7068:7069   */\n      0x00\n        /* \"#utility.yul\":7057:7066   */\n      dup4\n        /* \"#utility.yul\":7053:7070   */\n      add\n        /* \"#utility.yul\":7046:7093   */\n      mstore\n        /* \"#utility.yul\":7110:7241   */\n      tag_247\n        /* \"#utility.yul\":7236:7240   */\n      dup2\n        /* \"#utility.yul\":7110:7241   */\n      tag_212\n      jump\t// in\n    tag_247:\n        /* \"#utility.yul\":7102:7241   */\n      swap1\n      pop\n        /* \"#utility.yul\":7000:7248   */\n      swap2\n      swap1\n      pop\n      jump\t// out\n        /* \"#utility.yul\":7254:7673   */\n    tag_137:\n      0x00\n        /* \"#utility.yul\":7458:7460   */\n      0x20\n        /* \"#utility.yul\":7447:7456   */\n      dup3\n        /* \"#utility.yul\":7443:7461   */\n      add\n        /* \"#utility.yul\":7435:7461   */\n      swap1\n      pop\n        /* \"#utility.yul\":7507:7516   */\n      dup2\n        /* \"#utility.yul\":7501:7505   */\n      dup2\n        /* \"#utility.yul\":7497:7517   */\n      sub\n        /* \"#utility.yul\":7493:7494   */\n      0x00\n        /* \"#utility.yul\":7482:7491   */\n      dup4\n        /* \"#utility.yul\":7478:7495   */\n      add\n        /* \"#utility.yul\":7471:7518   */\n      mstore\n        /* \"#utility.yul\":7535:7666   */\n      tag_249\n        /* \"#utility.yul\":7661:7665   */\n      dup2\n        /* \"#utility.yul\":7535:7666   */\n      tag_215\n      jump\t// in\n    tag_249:\n        /* \"#utility.yul\":7527:7666   */\n      swap1\n      pop\n        /* \"#utility.yul\":7425:7673   */\n      swap2\n      swap1\n      pop\n      jump\t// out\n        /* \"#utility.yul\":7679:8098   */\n    tag_166:\n      0x00\n        /* \"#utility.yul\":7883:7885   */\n      0x20\n        /* \"#utility.yul\":7872:7881   */\n      dup3\n        /* \"#utility.yul\":7868:7886   */\n      add\n        /* \"#utility.yul\":7860:7886   */\n      swap1\n      pop\n        /* \"#utility.yul\":7932:7941   */\n      dup2\n        /* \"#utility.yul\":7926:7930   */\n      dup2\n        /* \"#utility.yul\":7922:7942   */\n      sub\n        /* \"#utility.yul\":7918:7919   */\n      0x00\n        /* \"#utility.yul\":7907:7916   */\n      dup4\n        /* \"#utility.yul\":7903:7920   */\n      add\n        /* \"#utility.yul\":7896:7943   */\n      mstore\n        /* \"#utility.yul\":7960:8091   */\n      tag_251\n        /* \"#utility.yul\":8086:8090   */\n      dup2\n        /* \"#utility.yul\":7960:8091   */\n      tag_218\n      jump\t// in\n    tag_251:\n        /* \"#utility.yul\":7952:8091   */\n      swap1\n      pop\n        /* \"#utility.yul\":7850:8098   */\n      swap2\n      swap1\n      pop\n      jump\t// out\n        /* \"#utility.yul\":8104:8523   */\n    tag_107:\n      0x00\n        /* \"#utility.yul\":8308:8310   */\n      0x20\n        /* \"#utility.yul\":8297:8306   */\n      dup3\n        /* \"#utility.yul\":8293:8311   */\n      add\n        /* \"#utility.yul\":8285:8311   */\n      swap1\n      pop\n        /* \"#utility.yul\":8357:8366   */\n      dup2\n        /* \"#utility.yul\":8351:8355   */\n      dup2\n        /* \"#utility.yul\":8347:8367   */\n      sub\n        /* \"#utility.yul\":8343:8344   */\n      0x00\n        /* \"#utility.yul\":8332:8341   */\n      dup4\n        /* \"#utility.yul\":8328:8345   */\n      add\n        /* \"#utility.yul\":8321:8368   */\n      mstore\n        /* \"#utility.yul\":8385:8516   */\n      tag_253\n        /* \"#utility.yul\":8511:8515   */\n      dup2\n        /* \"#utility.yul\":8385:8516   */\n      tag_221\n      jump\t// in\n    tag_253:\n        /* \"#utility.yul\":8377:8516   */\n      swap1\n      pop\n        /* \"#utility.yul\":8275:8523   */\n      swap2\n      swap1\n      pop\n      jump\t// out\n        /* \"#utility.yul\":8529:8948   */\n    tag_150:\n      0x00\n        /* \"#utility.yul\":8733:8735   */\n      0x20\n        /* \"#utility.yul\":8722:8731   */\n      dup3\n        /* \"#utility.yul\":8718:8736   */\n      add\n        /* \"#utility.yul\":8710:8736   */\n      swap1\n      pop\n        /* \"#utility.yul\":8782:8791   */\n      dup2\n        /* \"#utility.yul\":8776:8780   */\n      dup2\n        /* \"#utility.yul\":8772:8792   */\n      sub\n        /* \"#utility.yul\":8768:8769   */\n      0x00\n        /* \"#utility.yul\":8757:8766   */\n      dup4\n        /* \"#utility.yul\":8753:8770   */\n      add\n        /* \"#utility.yul\":8746:8793   */\n      mstore\n        /* \"#utility.yul\":8810:8941   */\n      tag_255\n        /* \"#utility.yul\":8936:8940   */\n      dup2\n        /* \"#utility.yul\":8810:8941   */\n      tag_224\n      jump\t// in\n    tag_255:\n        /* \"#utility.yul\":8802:8941   */\n      swap1\n      pop\n        /* \"#utility.yul\":8700:8948   */\n      swap2\n      swap1\n      pop\n      jump\t// out\n        /* \"#utility.yul\":8954:9373   */\n    tag_134:\n      0x00\n        /* \"#utility.yul\":9158:9160   */\n      0x20\n        /* \"#utility.yul\":9147:9156   */\n      dup3\n        /* \"#utility.yul\":9143:9161   */\n      add\n        /* \"#utility.yul\":9135:9161   */\n      swap1\n      pop\n        /* \"#utility.yul\":9207:9216   */\n      dup2\n        /* \"#utility.yul\":9201:9205   */\n      dup2\n        /* \"#utility.yul\":9197:9217   */\n      sub\n        /* \"#utility.yul\":9193:9194   */\n      0x00\n        /* \"#utility.yul\":9182:9191   */\n      dup4\n        /* \"#utility.yul\":9178:9195   */\n      add\n        /* \"#utility.yul\":9171:9218   */\n      mstore\n        /* \"#utility.yul\":9235:9366   */\n      tag_257\n        /* \"#utility.yul\":9361:9365   */\n      dup2\n        /* \"#utility.yul\":9235:9366   */\n      tag_227\n      jump\t// in\n    tag_257:\n        /* \"#utility.yul\":9227:9366   */\n      swap1\n      pop\n        /* \"#utility.yul\":9125:9373   */\n      swap2\n      swap1\n      pop\n      jump\t// out\n        /* \"#utility.yul\":9379:9601   */\n    tag_36:\n      0x00\n        /* \"#utility.yul\":9510:9512   */\n      0x20\n        /* \"#utility.yul\":9499:9508   */\n      dup3\n        /* \"#utility.yul\":9495:9513   */\n      add\n        /* \"#utility.yul\":9487:9513   */\n      swap1\n      pop\n        /* \"#utility.yul\":9523:9594   */\n      tag_259\n        /* \"#utility.yul\":9591:9592   */\n      0x00\n        /* \"#utility.yul\":9580:9589   */\n      dup4\n        /* \"#utility.yul\":9576:9593   */\n      add\n        /* \"#utility.yul\":9567:9573   */\n      dup5\n        /* \"#utility.yul\":9523:9594   */\n      tag_230\n      jump\t// in\n    tag_259:\n        /* \"#utility.yul\":9477:9601   */\n      swap3\n      swap2\n      pop\n      pop\n      jump\t// out\n        /* \"#utility.yul\":9607:9821   */\n    tag_48:\n      0x00\n        /* \"#utility.yul\":9734:9736   */\n      0x20\n        /* \"#utility.yul\":9723:9732   */\n      dup3\n        /* \"#utility.yul\":9719:9737   */\n      add\n        /* \"#utility.yul\":9711:9737   */\n      swap1\n      pop\n        /* \"#utility.yul\":9747:9814   */\n      tag_261\n        /* \"#utility.yul\":9811:9812   */\n      0x00\n        /* \"#utility.yul\":9800:9809   */\n      dup4\n        /* \"#utility.yul\":9796:9813   */\n      add\n        /* \"#utility.yul\":9787:9793   */\n      dup5\n        /* \"#utility.yul\":9747:9814   */\n      tag_234\n      jump\t// in\n    tag_261:\n        /* \"#utility.yul\":9701:9821   */\n      swap3\n      swap2\n      pop\n      pop\n      jump\t// out\n        /* \"#utility.yul\":9827:9926   */\n    tag_199:\n      0x00\n        /* \"#utility.yul\":9913:9918   */\n      dup2\n        /* \"#utility.yul\":9907:9919   */\n      mload\n        /* \"#utility.yul\":9897:9919   */\n      swap1\n      pop\n        /* \"#utility.yul\":9886:9926   */\n      swap2\n      swap1\n      pop\n      jump\t// out\n        /* \"#utility.yul\":9932:10101   */\n    tag_201:\n      0x00\n        /* \"#utility.yul\":10050:10056   */\n      dup3\n        /* \"#utility.yul\":10045:10048   */\n      dup3\n        /* \"#utility.yul\":10038:10057   */\n      mstore\n        /* \"#utility.yul\":10090:10094   */\n      0x20\n        /* \"#utility.yul\":10085:10088   */\n      dup3\n        /* \"#utility.yul\":10081:10095   */\n      add\n        /* \"#utility.yul\":10066:10095   */\n      swap1\n      pop\n        /* \"#utility.yul\":10028:10101   */\n      swap3\n      swap2\n      pop\n      pop\n      jump\t// out\n        /* \"#utility.yul\":10107:10412   */\n    tag_119:\n      0x00\n        /* \"#utility.yul\":10166:10186   */\n      tag_265\n        /* \"#utility.yul\":10184:10185   */\n      dup3\n        /* \"#utility.yul\":10166:10186   */\n      tag_233\n      jump\t// in\n    tag_265:\n        /* \"#utility.yul\":10161:10186   */\n      swap2\n      pop\n        /* \"#utility.yul\":10200:10220   */\n      tag_266\n        /* \"#utility.yul\":10218:10219   */\n      dup4\n        /* \"#utility.yul\":10200:10220   */\n      tag_233\n      jump\t// in\n    tag_266:\n        /* \"#utility.yul\":10195:10220   */\n      swap3\n      pop\n        /* \"#utility.yul\":10354:10355   */\n      dup3\n        /* \"#utility.yul\":10286:10352   */\n      0xffffffffffffffffffffffffffffffffffffffffffffffffffffffffffffffff\n        /* \"#utility.yul\":10282:10356   */\n      sub\n        /* \"#utility.yul\":10279:10280   */\n      dup3\n        /* \"#utility.yul\":10276:10357   */\n      gt\n        /* \"#utility.yul\":10273:10275   */\n      iszero\n      tag_267\n      jumpi\n        /* \"#utility.yul\":10360:10378   */\n      tag_268\n      tag_269\n      jump\t// in\n    tag_268:\n        /* \"#utility.yul\":10273:10275   */\n    tag_267:\n        /* \"#utility.yul\":10404:10405   */\n      dup3\n        /* \"#utility.yul\":10401:10402   */\n      dup3\n        /* \"#utility.yul\":10397:10406   */\n      add\n        /* \"#utility.yul\":10390:10406   */\n      swap1\n      pop\n        /* \"#utility.yul\":10151:10412   */\n      swap3\n      swap2\n      pop\n      pop\n      jump\t// out\n        /* \"#utility.yul\":10418:11266   */\n    tag_270:\n      0x00\n      dup1\n        /* \"#utility.yul\":10510:10516   */\n      dup3\n        /* \"#utility.yul\":10501:10516   */\n      swap2\n      pop\n        /* \"#utility.yul\":10534:10539   */\n      dup4\n        /* \"#utility.yul\":10525:10539   */\n      swap1\n      pop\n        /* \"#utility.yul\":10548:11260   */\n    tag_272:\n        /* \"#utility.yul\":10569:10570   */\n      0x01\n        /* \"#utility.yul\":10559:10567   */\n      dup6\n        /* \"#utility.yul\":10556:10571   */\n      gt\n        /* \"#utility.yul\":10548:11260   */\n      iszero\n      tag_274\n      jumpi\n        /* \"#utility.yul\":10664:10668   */\n      dup1\n        /* \"#utility.yul\":10659:10662   */\n      dup7\n        /* \"#utility.yul\":10655:10669   */\n      div\n        /* \"#utility.yul\":10649:10653   */\n      dup2\n        /* \"#utility.yul\":10646:10670   */\n      gt\n        /* \"#utility.yul\":10643:10645   */\n      iszero\n      tag_275\n      jumpi\n        /* \"#utility.yul\":10673:10691   */\n      tag_276\n      tag_269\n      jump\t// in\n    tag_276:\n        /* \"#utility.yul\":10643:10645   */\n    tag_275:\n        /* \"#utility.yul\":10723:10724   */\n      0x01\n        /* \"#utility.yul\":10713:10721   */\n      dup6\n        /* \"#utility.yul\":10709:10725   */\n      and\n        /* \"#utility.yul\":10706:10708   */\n      iszero\n      tag_277\n      jumpi\n        /* \"#utility.yul\":11138:11142   */\n      dup1\n        /* \"#utility.yul\":11131:11136   */\n      dup3\n        /* \"#utility.yul\":11127:11143   */\n      mul\n        /* \"#utility.yul\":11118:11143   */\n      swap2\n      pop\n        /* \"#utility.yul\":10706:10708   */\n    tag_277:\n        /* \"#utility.yul\":11188:11192   */\n      dup1\n        /* \"#utility.yul\":11182:11186   */\n      dup2\n        /* \"#utility.yul\":11178:11193   */\n      mul\n        /* \"#utility.yul\":11170:11193   */\n      swap1\n      pop\n        /* \"#utility.yul\":11218:11250   */\n      tag_278\n        /* \"#utility.yul\":11241:11249   */\n      dup6\n        /* \"#utility.yul\":11218:11250   */\n      tag_279\n      jump\t// in\n    tag_278:\n        /* \"#utility.yul\":11206:11250   */\n      swap5\n      pop\n        /* \"#utility.yul\":10548:11260   */\n      jump(tag_272)\n    tag_274:\n        /* \"#utility.yul\":10491:11266   */\n      swap5\n      pop\n      swap5\n      swap3\n      pop\n      pop\n      pop\n      jump\t// out\n        /* \"#utility.yul\":11272:11553   */\n    tag_139:\n      0x00\n        /* \"#utility.yul\":11354:11377   */\n      tag_281\n        /* \"#utility.yul\":11372:11376   */\n      dup3\n        /* \"#utility.yul\":11354:11377   */\n      tag_233\n      jump\t// in\n    tag_281:\n        /* \"#utility.yul\":11346:11377   */\n      swap2\n      pop\n        /* \"#utility.yul\":11398:11423   */\n      tag_282\n        /* \"#utility.yul\":11414:11422   */\n      dup4\n        /* \"#utility.yul\":11398:11423   */\n      tag_237\n      jump\t// in\n    tag_282:\n        /* \"#utility.yul\":11386:11423   */\n      swap3\n      pop\n        /* \"#utility.yul\":11442:11546   */\n      tag_283\n        /* \"#utility.yul\":11479:11545   */\n      0xffffffffffffffffffffffffffffffffffffffffffffffffffffffffffffffff\n        /* \"#utility.yul\":11469:11477   */\n      dup5\n        /* \"#utility.yul\":11463:11467   */\n      dup5\n        /* \"#utility.yul\":11442:11546   */\n      tag_284\n      jump\t// in\n    tag_283:\n        /* \"#utility.yul\":11433:11546   */\n      swap1\n      pop\n        /* \"#utility.yul\":11336:11553   */\n      swap3\n      swap2\n      pop\n      pop\n      jump\t// out\n        /* \"#utility.yul\":11559:12632   */\n    tag_284:\n      0x00\n        /* \"#utility.yul\":11804:11812   */\n      dup3\n        /* \"#utility.yul\":11794:11796   */\n      tag_286\n      jumpi\n        /* \"#utility.yul\":11825:11826   */\n      0x01\n        /* \"#utility.yul\":11816:11826   */\n      swap1\n      pop\n        /* \"#utility.yul\":11827:11832   */\n      jump(tag_285)\n        /* \"#utility.yul\":11794:11796   */\n    tag_286:\n        /* \"#utility.yul\":11853:11857   */\n      dup2\n        /* \"#utility.yul\":11843:11845   */\n      tag_287\n      jumpi\n        /* \"#utility.yul\":11870:11871   */\n      0x00\n        /* \"#utility.yul\":11861:11871   */\n      swap1\n      pop\n        /* \"#utility.yul\":11872:11877   */\n      jump(tag_285)\n        /* \"#utility.yul\":11843:11845   */\n    tag_287:\n        /* \"#utility.yul\":11939:11943   */\n      dup2\n        /* \"#utility.yul\":11987:11988   */\n      0x01\n        /* \"#utility.yul\":11982:12009   */\n      dup2\n      eq\n      tag_289\n      jumpi\n        /* \"#utility.yul\":12023:12024   */\n      0x02\n        /* \"#utility.yul\":12018:12209   */\n      dup2\n      eq\n      tag_290\n      jumpi\n        /* \"#utility.yul\":11932:12209   */\n      jump(tag_288)\n        /* \"#utility.yul\":11982:12009   */\n    tag_289:\n        /* \"#utility.yul\":12000:12001   */\n      0x01\n        /* \"#utility.yul\":11991:12001   */\n      swap2\n      pop\n        /* \"#utility.yul\":12002:12007   */\n      pop\n      jump(tag_285)\n        /* \"#utility.yul\":12018:12209   */\n    tag_290:\n        /* \"#utility.yul\":12063:12066   */\n      0xff\n        /* \"#utility.yul\":12053:12061   */\n      dup5\n        /* \"#utility.yul\":12050:12067   */\n      gt\n        /* \"#utility.yul\":12047:12049   */\n      iszero\n      tag_291\n      jumpi\n        /* \"#utility.yul\":12070:12088   */\n      tag_292\n      tag_269\n      jump\t// in\n    tag_292:\n        /* \"#utility.yul\":12047:12049   */\n    tag_291:\n        /* \"#utility.yul\":12119:12127   */\n      dup4\n        /* \"#utility.yul\":12116:12117   */\n      0x02\n        /* \"#utility.yul\":12112:12128   */\n      exp\n        /* \"#utility.yul\":12103:12128   */\n      swap2\n      pop\n        /* \"#utility.yul\":12154:12157   */\n      dup5\n        /* \"#utility.yul\":12147:12152   */\n      dup3\n        /* \"#utility.yul\":12144:12158   */\n      gt\n        /* \"#utility.yul\":12141:12143   */\n      iszero\n      tag_293\n      jumpi\n        /* \"#utility.yul\":12161:12179   */\n      tag_294\n      tag_269\n      jump\t// in\n    tag_294:\n        /* \"#utility.yul\":12141:12143   */\n    tag_293:\n        /* \"#utility.yul\":12194:12199   */\n      pop\n      jump(tag_285)\n        /* \"#utility.yul\":11932:12209   */\n    tag_288:\n      pop\n        /* \"#utility.yul\":12318:12320   */\n      0x20\n        /* \"#utility.yul\":12308:12316   */\n      dup4\n        /* \"#utility.yul\":12305:12321   */\n      lt\n        /* \"#utility.yul\":12299:12302   */\n      0x0133\n        /* \"#utility.yul\":12293:12297   */\n      dup4\n        /* \"#utility.yul\":12290:12303   */\n      lt\n        /* \"#utility.yul\":12286:12322   */\n      and\n        /* \"#utility.yul\":12268:12270   */\n      0x4e\n        /* \"#utility.yul\":12258:12266   */\n      dup5\n        /* \"#utility.yul\":12255:12271   */\n      lt\n        /* \"#utility.yul\":12250:12252   */\n      0x0b\n        /* \"#utility.yul\":12244:12248   */\n      dup5\n        /* \"#utility.yul\":12241:12253   */\n      lt\n        /* \"#utility.yul\":12237:12272   */\n      and\n        /* \"#utility.yul\":12221:12332   */\n      or\n        /* \"#utility.yul\":12218:12220   */\n      iszero\n      tag_295\n      jumpi\n        /* \"#utility.yul\":12374:12382   */\n      dup3\n        /* \"#utility.yul\":12368:12372   */\n      dup3\n        /* \"#utility.yul\":12364:12383   */\n      exp\n        /* \"#utility.yul\":12355:12383   */\n      swap1\n      pop\n        /* \"#utility.yul\":12409:12412   */\n      dup4\n        /* \"#utility.yul\":12402:12407   */\n      dup2\n        /* \"#utility.yul\":12399:12413   */\n      gt\n        /* \"#utility.yul\":12396:12398   */\n      iszero\n      tag_296\n      jumpi\n        /* \"#utility.yul\":12416:12434   */\n      tag_297\n      tag_269\n      jump\t// in\n    tag_297:\n        /* \"#utility.yul\":12396:12398   */\n    tag_296:\n        /* \"#utility.yul\":12449:12454   */\n      jump(tag_285)\n        /* \"#utility.yul\":12218:12220   */\n    tag_295:\n        /* \"#utility.yul\":12489:12531   */\n      tag_298\n        /* \"#utility.yul\":12527:12530   */\n      dup5\n        /* \"#utility.yul\":12517:12525   */\n      dup5\n        /* \"#utility.yul\":12511:12515   */\n      dup5\n        /* \"#utility.yul\":12508:12509   */\n      0x01\n        /* \"#utility.yul\":12489:12531   */\n      tag_270\n      jump\t// in\n    tag_298:\n        /* \"#utility.yul\":12474:12531   */\n      swap3\n      pop\n      swap1\n      pop\n        /* \"#utility.yul\":12563:12567   */\n      dup2\n        /* \"#utility.yul\":12558:12561   */\n      dup5\n        /* \"#utility.yul\":12554:12568   */\n      div\n        /* \"#utility.yul\":12547:12552   */\n      dup2\n        /* \"#utility.yul\":12544:12569   */\n      gt\n        /* \"#utility.yul\":12541:12543   */\n      iszero\n      tag_299\n      jumpi\n        /* \"#utility.yul\":12572:12590   */\n      tag_300\n      tag_269\n      jump\t// in\n    tag_300:\n        /* \"#utility.yul\":12541:12543   */\n    tag_299:\n        /* \"#utility.yul\":12621:12625   */\n      dup2\n        /* \"#utility.yul\":12614:12619   */\n      dup2\n        /* \"#utility.yul\":12610:12626   */\n      mul\n        /* \"#utility.yul\":12601:12626   */\n      swap1\n      pop\n        /* \"#utility.yul\":11619:12632   */\n    tag_285:\n      swap4\n      swap3\n      pop\n      pop\n      pop\n      jump\t// out\n        /* \"#utility.yul\":12638:12986   */\n    tag_141:\n      0x00\n        /* \"#utility.yul\":12701:12721   */\n      tag_302\n        /* \"#utility.yul\":12719:12720   */\n      dup3\n        /* \"#utility.yul\":12701:12721   */\n      tag_233\n      jump\t// in\n    tag_302:\n        /* \"#utility.yul\":12696:12721   */\n      swap2\n      pop\n        /* \"#utility.yul\":12735:12755   */\n      tag_303\n        /* \"#utility.yul\":12753:12754   */\n      dup4\n        /* \"#utility.yul\":12735:12755   */\n      tag_233\n      jump\t// in\n    tag_303:\n        /* \"#utility.yul\":12730:12755   */\n      swap3\n      pop\n        /* \"#utility.yul\":12923:12924   */\n      dup2\n        /* \"#utility.yul\":12855:12921   */\n      0xffffffffffffffffffffffffffffffffffffffffffffffffffffffffffffffff\n        /* \"#utility.yul\":12851:12925   */\n      div\n        /* \"#utility.yul\":12848:12849   */\n      dup4\n        /* \"#utility.yul\":12845:12926   */\n      gt\n        /* \"#utility.yul\":12840:12841   */\n      dup3\n        /* \"#utility.yul\":12833:12842   */\n      iszero\n        /* \"#utility.yul\":12826:12843   */\n      iszero\n        /* \"#utility.yul\":12822:12927   */\n      and\n        /* \"#utility.yul\":12819:12821   */\n      iszero\n      tag_304\n      jumpi\n        /* \"#utility.yul\":12930:12948   */\n      tag_305\n      tag_269\n      jump\t// in\n    tag_305:\n        /* \"#utility.yul\":12819:12821   */\n    tag_304:\n        /* \"#utility.yul\":12978:12979   */\n      dup3\n        /* \"#utility.yul\":12975:12976   */\n      dup3\n        /* \"#utility.yul\":12971:12980   */\n      mul\n        /* \"#utility.yul\":12960:12980   */\n      swap1\n      pop\n        /* \"#utility.yul\":12686:12986   */\n      swap3\n      swap2\n      pop\n      pop\n      jump\t// out\n        /* \"#utility.yul\":12992:13183   */\n    tag_112:\n      0x00\n        /* \"#utility.yul\":13052:13072   */\n      tag_307\n        /* \"#utility.yul\":13070:13071   */\n      dup3\n        /* \"#utility.yul\":13052:13072   */\n      tag_233\n      jump\t// in\n    tag_307:\n        /* \"#utility.yul\":13047:13072   */\n      swap2\n      pop\n        /* \"#utility.yul\":13086:13106   */\n      tag_308\n        /* \"#utility.yul\":13104:13105   */\n      dup4\n        /* \"#utility.yul\":13086:13106   */\n      tag_233\n      jump\t// in\n    tag_308:\n        /* \"#utility.yul\":13081:13106   */\n      swap3\n      pop\n        /* \"#utility.yul\":13125:13126   */\n      dup3\n        /* \"#utility.yul\":13122:13123   */\n      dup3\n        /* \"#utility.yul\":13119:13127   */\n      lt\n        /* \"#utility.yul\":13116:13118   */\n      iszero\n      tag_309\n      jumpi\n        /* \"#utility.yul\":13130:13148   */\n      tag_310\n      tag_269\n      jump\t// in\n    tag_310:\n        /* \"#utility.yul\":13116:13118   */\n    tag_309:\n        /* \"#utility.yul\":13175:13176   */\n      dup3\n        /* \"#utility.yul\":13172:13173   */\n      dup3\n        /* \"#utility.yul\":13168:13177   */\n      sub\n        /* \"#utility.yul\":13160:13177   */\n      swap1\n      pop\n        /* \"#utility.yul\":13037:13183   */\n      swap3\n      swap2\n      pop\n      pop\n      jump\t// out\n        /* \"#utility.yul\":13189:13285   */\n    tag_311:\n      0x00\n        /* \"#utility.yul\":13255:13279   */\n      tag_313\n        /* \"#utility.yul\":13273:13278   */\n      dup3\n        /* \"#utility.yul\":13255:13279   */\n      tag_314\n      jump\t// in\n    tag_313:\n        /* \"#utility.yul\":13244:13279   */\n      swap1\n      pop\n        /* \"#utility.yul\":13234:13285   */\n      swap2\n      swap1\n      pop\n      jump\t// out\n        /* \"#utility.yul\":13291:13381   */\n    tag_195:\n      0x00\n        /* \"#utility.yul\":13368:13373   */\n      dup2\n        /* \"#utility.yul\":13361:13374   */\n      iszero\n        /* \"#utility.yul\":13354:13375   */\n      iszero\n        /* \"#utility.yul\":13343:13375   */\n      swap1\n      pop\n        /* \"#utility.yul\":13333:13381   */\n      swap2\n      swap1\n      pop\n      jump\t// out\n        /* \"#utility.yul\":13387:13513   */\n    tag_314:\n      0x00\n        /* \"#utility.yul\":13464:13506   */\n      0xffffffffffffffffffffffffffffffffffffffff\n        /* \"#utility.yul\":13457:13462   */\n      dup3\n        /* \"#utility.yul\":13453:13507   */\n      and\n        /* \"#utility.yul\":13442:13507   */\n      swap1\n      pop\n        /* \"#utility.yul\":13432:13513   */\n      swap2\n      swap1\n      pop\n      jump\t// out\n        /* \"#utility.yul\":13519:13596   */\n    tag_233:\n      0x00\n        /* \"#utility.yul\":13585:13590   */\n      dup2\n        /* \"#utility.yul\":13574:13590   */\n      swap1\n      pop\n        /* \"#utility.yul\":13564:13596   */\n      swap2\n      swap1\n      pop\n      jump\t// out\n        /* \"#utility.yul\":13602:13688   */\n    tag_237:\n      0x00\n        /* \"#utility.yul\":13677:13681   */\n      0xff\n        /* \"#utility.yul\":13670:13675   */\n      dup3\n        /* \"#utility.yul\":13666:13682   */\n      and\n        /* \"#utility.yul\":13655:13682   */\n      swap1\n      pop\n        /* \"#utility.yul\":13645:13688   */\n      swap2\n      swap1\n      pop\n      jump\t// out\n        /* \"#utility.yul\":13694:14001   */\n    tag_203:\n        /* \"#utility.yul\":13762:13763   */\n      0x00\n        /* \"#utility.yul\":13772:13885   */\n    tag_320:\n        /* \"#utility.yul\":13786:13792   */\n      dup4\n        /* \"#utility.yul\":13783:13784   */\n      dup2\n        /* \"#utility.yul\":13780:13793   */\n      lt\n        /* \"#utility.yul\":13772:13885   */\n      iszero\n      tag_322\n      jumpi\n        /* \"#utility.yul\":13871:13872   */\n      dup1\n        /* \"#utility.yul\":13866:13869   */\n      dup3\n        /* \"#utility.yul\":13862:13873   */\n      add\n        /* \"#utility.yul\":13856:13874   */\n      mload\n        /* \"#utility.yul\":13852:13853   */\n      dup2\n        /* \"#utility.yul\":13847:13850   */\n      dup5\n        /* \"#utility.yul\":13843:13854   */\n      add\n        /* \"#utility.yul\":13836:13875   */\n      mstore\n        /* \"#utility.yul\":13808:13810   */\n      0x20\n        /* \"#utility.yul\":13805:13806   */\n      dup2\n        /* \"#utility.yul\":13801:13811   */\n      add\n        /* \"#utility.yul\":13796:13811   */\n      swap1\n      pop\n        /* \"#utility.yul\":13772:13885   */\n      jump(tag_320)\n    tag_322:\n        /* \"#utility.yul\":13903:13909   */\n      dup4\n        /* \"#utility.yul\":13900:13901   */\n      dup2\n        /* \"#utility.yul\":13897:13910   */\n      gt\n        /* \"#utility.yul\":13894:13896   */\n      iszero\n      tag_323\n      jumpi\n        /* \"#utility.yul\":13983:13984   */\n      0x00\n        /* \"#utility.yul\":13974:13980   */\n      dup5\n        /* \"#utility.yul\":13969:13972   */\n      dup5\n        /* \"#utility.yul\":13965:13981   */\n      add\n        /* \"#utility.yul\":13958:13985   */\n      mstore\n        /* \"#utility.yul\":13894:13896   */\n    tag_323:\n        /* \"#utility.yul\":13743:14001   */\n      pop\n      pop\n      pop\n      pop\n      jump\t// out\n        /* \"#utility.yul\":14007:14327   */\n    tag_83:\n      0x00\n        /* \"#utility.yul\":14088:14089   */\n      0x02\n        /* \"#utility.yul\":14082:14086   */\n      dup3\n        /* \"#utility.yul\":14078:14090   */\n      div\n        /* \"#utility.yul\":14068:14090   */\n      swap1\n      pop\n        /* \"#utility.yul\":14135:14136   */\n      0x01\n        /* \"#utility.yul\":14129:14133   */\n      dup3\n        /* \"#utility.yul\":14125:14137   */\n      and\n        /* \"#utility.yul\":14156:14174   */\n      dup1\n        /* \"#utility.yul\":14146:14148   */\n      tag_325\n      jumpi\n        /* \"#utility.yul\":14212:14216   */\n      0x7f\n        /* \"#utility.yul\":14204:14210   */\n      dup3\n        /* \"#utility.yul\":14200:14217   */\n      and\n        /* \"#utility.yul\":14190:14217   */\n      swap2\n      pop\n        /* \"#utility.yul\":14146:14148   */\n    tag_325:\n        /* \"#utility.yul\":14274:14276   */\n      0x20\n        /* \"#utility.yul\":14266:14272   */\n      dup3\n        /* \"#utility.yul\":14263:14277   */\n      lt\n        /* \"#utility.yul\":14243:14261   */\n      dup2\n        /* \"#utility.yul\":14240:14278   */\n      eq\n        /* \"#utility.yul\":14237:14239   */\n      iszero\n      tag_326\n      jumpi\n        /* \"#utility.yul\":14293:14311   */\n      tag_327\n      tag_328\n      jump\t// in\n    tag_327:\n        /* \"#utility.yul\":14237:14239   */\n    tag_326:\n        /* \"#utility.yul\":14058:14327   */\n      pop\n      swap2\n      swap1\n      pop\n      jump\t// out\n        /* \"#utility.yul\":14333:14513   */\n    tag_269:\n        /* \"#utility.yul\":14381:14458   */\n      0x4e487b7100000000000000000000000000000000000000000000000000000000\n        /* \"#utility.yul\":14378:14379   */\n      0x00\n        /* \"#utility.yul\":14371:14459   */\n      mstore\n        /* \"#utility.yul\":14478:14482   */\n      0x11\n        /* \"#utility.yul\":14475:14476   */\n      0x04\n        /* \"#utility.yul\":14468:14483   */\n      mstore\n        /* \"#utility.yul\":14502:14506   */\n      0x24\n        /* \"#utility.yul\":14499:14500   */\n      0x00\n        /* \"#utility.yul\":14492:14507   */\n      revert\n        /* \"#utility.yul\":14519:14699   */\n    tag_328:\n        /* \"#utility.yul\":14567:14644   */\n      0x4e487b7100000000000000000000000000000000000000000000000000000000\n        /* \"#utility.yul\":14564:14565   */\n      0x00\n        /* \"#utility.yul\":14557:14645   */\n      mstore\n        /* \"#utility.yul\":14664:14668   */\n      0x22\n        /* \"#utility.yul\":14661:14662   */\n      0x04\n        /* \"#utility.yul\":14654:14669   */\n      mstore\n        /* \"#utility.yul\":14688:14692   */\n      0x24\n        /* \"#utility.yul\":14685:14686   */\n      0x00\n        /* \"#utility.yul\":14678:14693   */\n      revert\n        /* \"#utility.yul\":14705:14807   */\n    tag_205:\n      0x00\n        /* \"#utility.yul\":14797:14799   */\n      0x1f\n        /* \"#utility.yul\":14793:14800   */\n      not\n        /* \"#utility.yul\":14788:14790   */\n      0x1f\n        /* \"#utility.yul\":14781:14786   */\n      dup4\n        /* \"#utility.yul\":14777:14791   */\n      add\n        /* \"#utility.yul\":14773:14801   */\n      and\n        /* \"#utility.yul\":14763:14801   */\n      swap1\n      pop\n        /* \"#utility.yul\":14753:14807   */\n      swap2\n      swap1\n      pop\n      jump\t// out\n        /* \"#utility.yul\":14813:14915   */\n    tag_279:\n      0x00\n        /* \"#utility.yul\":14902:14907   */\n      dup2\n        /* \"#utility.yul\":14899:14900   */\n      0x01\n        /* \"#utility.yul\":14895:14908   */\n      shr\n        /* \"#utility.yul\":14874:14908   */\n      swap1\n      pop\n        /* \"#utility.yul\":14864:14915   */\n      swap2\n      swap1\n      pop\n      jump\t// out\n        /* \"#utility.yul\":14921:15043   */\n    tag_171:\n        /* \"#utility.yul\":14994:15018   */\n      tag_334\n        /* \"#utility.yul\":15012:15017   */\n      dup2\n        /* \"#utility.yul\":14994:15018   */\n      tag_311\n      jump\t// in\n    tag_334:\n        /* \"#utility.yul\":14987:14992   */\n      dup2\n        /* \"#utility.yul\":14984:15019   */\n      eq\n        /* \"#utility.yul\":14974:14976   */\n      tag_335\n      jumpi\n        /* \"#utility.yul\":15033:15034   */\n      0x00\n        /* \"#utility.yul\":15030:15031   */\n      dup1\n        /* \"#utility.yul\":15023:15035   */\n      revert\n        /* \"#utility.yul\":14974:14976   */\n    tag_335:\n        /* \"#utility.yul\":14964:15043   */\n      pop\n      jump\t// out\n        /* \"#utility.yul\":15049:15171   */\n    tag_175:\n        /* \"#utility.yul\":15122:15146   */\n      tag_337\n        /* \"#utility.yul\":15140:15145   */\n      dup2\n        /* \"#utility.yul\":15122:15146   */\n      tag_233\n      jump\t// in\n    tag_337:\n        /* \"#utility.yul\":15115:15120   */\n      dup2\n        /* \"#utility.yul\":15112:15147   */\n      eq\n        /* \"#utility.yul\":15102:15104   */\n      tag_338\n      jumpi\n        /* \"#utility.yul\":15161:15162   */\n      0x00\n        /* \"#utility.yul\":15158:15159   */\n      dup1\n        /* \"#utility.yul\":15151:15163   */\n      revert\n        /* \"#utility.yul\":15102:15104   */\n    tag_338:\n        /* \"#utility.yul\":15092:15171   */\n      pop\n      jump\t// out\n    stop\n    data_4107e8a8b9e94bf8ff83080ddec1c0bffe897ebc2241b89d44f66b3d274088b6 45524332303a207472616e7366657220616d6f756e7420657863656564732062616c616e6365\n    data_6f43ab5b93acbe5a4d41eb9aeeb8e02ac743ff99843411f153fc4ad216e69e48 2045524332303a207472616e7366657220616d6f756e74206578636565647320616c6c6f77616e6365\n\n    auxdata: 0xa264697066735822122096e789ff664a34463362e9cecbd26b15dcade0b819b3568f9ee201480be25fd864736f6c63430008000033\n}\n",
				"bytecode": {
					"linkReferences": {},
					"object": "60806040523480156200001157600080fd5b5060405162001f1a38038062001f1a8339818101604052810190620000379190620001c6565b82600090805190602001906200004f9291906200008d565b508160019080519060200190620000689291906200008d565b5080600260006101000a81548160ff021916908360ff160217905550505050620003a6565b8280546200009b90620002f8565b90600052602060002090601f016020900481019282620000bf57600085556200010b565b82601f10620000da57805160ff19168380011785556200010b565b828001600101855582156200010b579182015b828111156200010a578251825591602001919060010190620000ed565b5b5090506200011a91906200011e565b5090565b5b80821115620001395760008160009055506001016200011f565b5090565b6000620001546200014e8462000282565b6200024e565b9050828152602081018484840111156200016d57600080fd5b6200017a848285620002c2565b509392505050565b600082601f8301126200019457600080fd5b8151620001a68482602086016200013d565b91505092915050565b600081519050620001c0816200038c565b92915050565b600080600060608486031215620001dc57600080fd5b600084015167ffffffffffffffff811115620001f757600080fd5b620002058682870162000182565b935050602084015167ffffffffffffffff8111156200022357600080fd5b620002318682870162000182565b92505060406200024486828701620001af565b9150509250925092565b6000604051905081810181811067ffffffffffffffff821117156200027857620002776200035d565b5b8060405250919050565b600067ffffffffffffffff821115620002a0576200029f6200035d565b5b601f19601f8301169050602081019050919050565b600060ff82169050919050565b60005b83811015620002e2578082015181840152602081019050620002c5565b83811115620002f2576000848401525b50505050565b600060028204905060018216806200031157607f821691505b602082108114156200032857620003276200032e565b5b50919050565b7f4e487b7100000000000000000000000000000000000000000000000000000000600052602260045260246000fd5b7f4e487b7100000000000000000000000000000000000000000000000000000000600052604160045260246000fd5b6200039781620002b5565b8114620003a357600080fd5b50565b611b6480620003b66000396000f3fe608060405234801561001057600080fd5b50600436106100f55760003560e01c806395d89b4111610097578063b94072f611610066578063b94072f61461029a578063dd62ed3e146102b6578063e27cedf3146102e6578063f9db156214610316576100f5565b806395d89b41146102145780639dc29fac14610232578063a80b20041461024e578063a9059cbb1461026a576100f5565b806318160ddd116100d357806318160ddd1461017857806323b872dd14610196578063313ce567146101c657806370a08231146101e4576100f5565b806306fdde03146100fa578063095ea7b31461011857806311eb7b7d14610148575b600080fd5b610102610346565b60405161010f91906115b2565b60405180910390f35b610132600480360381019061012d919061125d565b6103d4565b60405161013f9190611597565b60405180910390f35b610162600480360381019061015d91906111a9565b6103eb565b60405161016f91906116d4565b60405180910390f35b610180610403565b60405161018d91906116d4565b60405180910390f35b6101b060048036038101906101ab919061120e565b61040d565b6040516101bd9190611597565b60405180910390f35b6101ce6104d8565b6040516101db91906116ef565b60405180910390f35b6101fe60048036038101906101f991906111a9565b6104eb565b60405161020b91906116d4565b60405180910390f35b61021c610534565b60405161022991906115b2565b60405180910390f35b61024c6004803603810190610247919061125d565b6105c2565b005b6102686004803603810190610263919061125d565b6107b0565b005b610284600480360381019061027f919061125d565b61091e565b6040516102919190611597565b60405180910390f35b6102b460048036038101906102af91906111a9565b610935565b005b6102d060048036038101906102cb91906111d2565b610990565b6040516102dd91906116d4565b60405180910390f35b61030060048036038101906102fb91906111a9565b610a17565b60405161030d9190611597565b60405180910390f35b610330600480360381019061032b91906111a9565b610a37565b60405161033d91906116d4565b60405180910390f35b6000805461035390611a03565b80601f016020809104026020016040519081016040528092919081815260200182805461037f90611a03565b80156103cc5780601f106103a1576101008083540402835291602001916103cc565b820191906000526020600020905b8154815290600101906020018083116103af57829003601f168201915b505050505081565b60006103e1338484610aef565b6001905092915050565b60076020528060005260406000206000915090505481565b6000600554905090565b600061041a848484610d9a565b6104cd84336104c885604051806060016040528060298152602001611b0660299139600460008b73ffffffffffffffffffffffffffffffffffffffff1673ffffffffffffffffffffffffffffffffffffffff16815260200190815260200160002060003373ffffffffffffffffffffffffffffffffffffffff1673ffffffffffffffffffffffffffffffffffffffff168152602001908152602001600020546110bd9092919063ffffffff16565b610aef565b600190509392505050565b600260009054906101000a900460ff1681565b6000600360008373ffffffffffffffffffffffffffffffffffffffff1673ffffffffffffffffffffffffffffffffffffffff168152602001908152602001600020549050919050565b6001805461054190611a03565b80601f016020809104026020016040519081016040528092919081815260200182805461056d90611a03565b80156105ba5780601f1061058f576101008083540402835291602001916105ba565b820191906000526020600020905b81548152906001019060200180831161059d57829003601f168201915b505050505081565b60011515600660003373ffffffffffffffffffffffffffffffffffffffff1673ffffffffffffffffffffffffffffffffffffffff16815260200190815260200160002060009054906101000a900460ff16151514610655576040517f08c379a000000000000000000000000000000000000000000000000000000000815260040161064c90611674565b60405180910390fd5b80600360008473ffffffffffffffffffffffffffffffffffffffff1673ffffffffffffffffffffffffffffffffffffffff1681526020019081526020016000205410156106d7576040517f08c379a00000000000000000000000000000000000000000000000000000000081526004016106ce906115f4565b60405180910390fd5b80600360008473ffffffffffffffffffffffffffffffffffffffff1673ffffffffffffffffffffffffffffffffffffffff16815260200190815260200160002060008282546107269190611947565b92505081905550806005600082825461073f9190611947565b92505081905550600073ffffffffffffffffffffffffffffffffffffffff168273ffffffffffffffffffffffffffffffffffffffff167fddf252ad1be2c89b69c2b068fc378daa952ba7f163c4a11628f55a4df523b3ef836040516107a491906116d4565b60405180910390a35050565b60011515600660003373ffffffffffffffffffffffffffffffffffffffff1673ffffffffffffffffffffffffffffffffffffffff16815260200190815260200160002060009054906101000a900460ff16151514610843576040517f08c379a000000000000000000000000000000000000000000000000000000000815260040161083a90611674565b60405180910390fd5b80600360008473ffffffffffffffffffffffffffffffffffffffff1673ffffffffffffffffffffffffffffffffffffffff16815260200190815260200160002060008282546108929190611726565b925050819055506108ae8160055461112190919063ffffffff16565b6005819055508173ffffffffffffffffffffffffffffffffffffffff16600073ffffffffffffffffffffffffffffffffffffffff167fddf252ad1be2c89b69c2b068fc378daa952ba7f163c4a11628f55a4df523b3ef8360405161091291906116d4565b60405180910390a35050565b600061092b338484610d9a565b6001905092915050565b6001600660008373ffffffffffffffffffffffffffffffffffffffff1673ffffffffffffffffffffffffffffffffffffffff16815260200190815260200160002060006101000a81548160ff02191690831515021790555050565b6000600460008473ffffffffffffffffffffffffffffffffffffffff1673ffffffffffffffffffffffffffffffffffffffff16815260200190815260200160002060008373ffffffffffffffffffffffffffffffffffffffff1673ffffffffffffffffffffffffffffffffffffffff16815260200190815260200160002054905092915050565b60066020528060005260406000206000915054906101000a900460ff1681565b60008073ffffffffffffffffffffffffffffffffffffffff168273ffffffffffffffffffffffffffffffffffffffff161415610aa8576040517f08c379a0000000000000000000000000000000000000000000000000000000008152600401610a9f90611614565b60405180910390fd5b600760008373ffffffffffffffffffffffffffffffffffffffff1673ffffffffffffffffffffffffffffffffffffffff168152602001908152602001600020549050919050565b600073ffffffffffffffffffffffffffffffffffffffff168373ffffffffffffffffffffffffffffffffffffffff161415610b5f576040517f08c379a0000000000000000000000000000000000000000000000000000000008152600401610b56906116b4565b60405180910390fd5b600073ffffffffffffffffffffffffffffffffffffffff168273ffffffffffffffffffffffffffffffffffffffff161415610bcf576040517f08c379a0000000000000000000000000000000000000000000000000000000008152600401610bc690611634565b60405180910390fd5b600260009054906101000a900460ff16600a610beb91906117cf565b6201e240610bf991906118ed565b811115610cae57600260009054906101000a900460ff16600a610c1c91906117cf565b6201e240610c2a91906118ed565b600460008573ffffffffffffffffffffffffffffffffffffffff1673ffffffffffffffffffffffffffffffffffffffff16815260200190815260200160002060008473ffffffffffffffffffffffffffffffffffffffff1673ffffffffffffffffffffffffffffffffffffffff168152602001908152602001600020819055610d2f565b80600460008573ffffffffffffffffffffffffffffffffffffffff1673ffffffffffffffffffffffffffffffffffffffff16815260200190815260200160002060008473ffffffffffffffffffffffffffffffffffffffff1673ffffffffffffffffffffffffffffffffffffffff1681526020019081526020016000208190555b508173ffffffffffffffffffffffffffffffffffffffff168373ffffffffffffffffffffffffffffffffffffffff167f8c5be1e5ebec7d5bd14f71427d1e84f3dd0314c0f7b2291e5b200ac8c7c3b92583604051610d8d91906116d4565b60405180910390a3505050565b600073ffffffffffffffffffffffffffffffffffffffff168373ffffffffffffffffffffffffffffffffffffffff161415610e0a576040517f08c379a0000000000000000000000000000000000000000000000000000000008152600401610e0190611694565b60405180910390fd5b600073ffffffffffffffffffffffffffffffffffffffff168273ffffffffffffffffffffffffffffffffffffffff161415610e7a576040517f08c379a0000000000000000000000000000000000000000000000000000000008152600401610e71906115d4565b60405180910390fd5b610ee681604051806060016040528060268152602001611ae060269139600360008773ffffffffffffffffffffffffffffffffffffffff1673ffffffffffffffffffffffffffffffffffffffff168152602001908152602001600020546110bd9092919063ffffffff16565b600360008573ffffffffffffffffffffffffffffffffffffffff1673ffffffffffffffffffffffffffffffffffffffff16815260200190815260200160002081905550610f7b81600360008573ffffffffffffffffffffffffffffffffffffffff1673ffffffffffffffffffffffffffffffffffffffff1681526020019081526020016000205461112190919063ffffffff16565b600360008473ffffffffffffffffffffffffffffffffffffffff1673ffffffffffffffffffffffffffffffffffffffff168152602001908152602001600020819055508173ffffffffffffffffffffffffffffffffffffffff168373ffffffffffffffffffffffffffffffffffffffff167fddf252ad1be2c89b69c2b068fc378daa952ba7f163c4a11628f55a4df523b3ef8360405161101b91906116d4565b60405180910390a361107581600760008673ffffffffffffffffffffffffffffffffffffffff1673ffffffffffffffffffffffffffffffffffffffff1681526020019081526020016000205461112190919063ffffffff16565b600760008573ffffffffffffffffffffffffffffffffffffffff1673ffffffffffffffffffffffffffffffffffffffff16815260200190815260200160002081905550505050565b6000838311158290611105576040517f08c379a00000000000000000000000000000000000000000000000000000000081526004016110fc91906115b2565b60405180910390fd5b50600083856111149190611947565b9050809150509392505050565b60008082846111309190611726565b905083811015611175576040517f08c379a000000000000000000000000000000000000000000000000000000000815260040161116c90611654565b60405180910390fd5b8091505092915050565b60008135905061118e81611ab1565b92915050565b6000813590506111a381611ac8565b92915050565b6000602082840312156111bb57600080fd5b60006111c98482850161117f565b91505092915050565b600080604083850312156111e557600080fd5b60006111f38582860161117f565b92505060206112048582860161117f565b9150509250929050565b60008060006060848603121561122357600080fd5b60006112318682870161117f565b93505060206112428682870161117f565b925050604061125386828701611194565b9150509250925092565b6000806040838503121561127057600080fd5b600061127e8582860161117f565b925050602061128f85828601611194565b9150509250929050565b6112a28161198d565b82525050565b60006112b38261170a565b6112bd8185611715565b93506112cd8185602086016119d0565b6112d681611a93565b840191505092915050565b60006112ee602383611715565b91507f45524332303a207472616e7366657220746f20746865207a65726f206164647260008301527f65737300000000000000000000000000000000000000000000000000000000006020830152604082019050919050565b6000611354600783611715565b91507f6e6f206d6f7265000000000000000000000000000000000000000000000000006000830152602082019050919050565b6000611394600f83611715565b91507f69742069732030206164647265737300000000000000000000000000000000006000830152602082019050919050565b60006113d4602283611715565b91507f45524332303a20617070726f766520746f20746865207a65726f20616464726560008301527f73730000000000000000000000000000000000000000000000000000000000006020830152604082019050919050565b600061143a601b83611715565b91507f536166654d6174683a206164646974696f6e206f766572666c6f7700000000006000830152602082019050919050565b600061147a600a83611715565b91507f6e6f74206d616e616765000000000000000000000000000000000000000000006000830152602082019050919050565b60006114ba602583611715565b91507f45524332303a207472616e736665722066726f6d20746865207a65726f20616460008301527f64726573730000000000000000000000000000000000000000000000000000006020830152604082019050919050565b6000611520602483611715565b91507f45524332303a20617070726f76652066726f6d20746865207a65726f2061646460008301527f72657373000000000000000000000000000000000000000000000000000000006020830152604082019050919050565b611582816119b9565b82525050565b611591816119c3565b82525050565b60006020820190506115ac6000830184611299565b92915050565b600060208201905081810360008301526115cc81846112a8565b905092915050565b600060208201905081810360008301526115ed816112e1565b9050919050565b6000602082019050818103600083015261160d81611347565b9050919050565b6000602082019050818103600083015261162d81611387565b9050919050565b6000602082019050818103600083015261164d816113c7565b9050919050565b6000602082019050818103600083015261166d8161142d565b9050919050565b6000602082019050818103600083015261168d8161146d565b9050919050565b600060208201905081810360008301526116ad816114ad565b9050919050565b600060208201905081810360008301526116cd81611513565b9050919050565b60006020820190506116e96000830184611579565b92915050565b60006020820190506117046000830184611588565b92915050565b600081519050919050565b600082825260208201905092915050565b6000611731826119b9565b915061173c836119b9565b9250827fffffffffffffffffffffffffffffffffffffffffffffffffffffffffffffffff0382111561177157611770611a35565b5b828201905092915050565b6000808291508390505b60018511156117c6578086048111156117a2576117a1611a35565b5b60018516156117b15780820291505b80810290506117bf85611aa4565b9450611786565b94509492505050565b60006117da826119b9565b91506117e5836119c3565b92506118127fffffffffffffffffffffffffffffffffffffffffffffffffffffffffffffffff848461181a565b905092915050565b60008261182a57600190506118e6565b8161183857600090506118e6565b816001811461184e576002811461185857611887565b60019150506118e6565b60ff84111561186a57611869611a35565b5b8360020a91508482111561188157611880611a35565b5b506118e6565b5060208310610133831016604e8410600b84101617156118bc5782820a9050838111156118b7576118b6611a35565b5b6118e6565b6118c9848484600161177c565b925090508184048111156118e0576118df611a35565b5b81810290505b9392505050565b60006118f8826119b9565b9150611903836119b9565b9250817fffffffffffffffffffffffffffffffffffffffffffffffffffffffffffffffff048311821515161561193c5761193b611a35565b5b828202905092915050565b6000611952826119b9565b915061195d836119b9565b9250828210156119705761196f611a35565b5b828203905092915050565b600061198682611999565b9050919050565b60008115159050919050565b600073ffffffffffffffffffffffffffffffffffffffff82169050919050565b6000819050919050565b600060ff82169050919050565b60005b838110156119ee5780820151818401526020810190506119d3565b838111156119fd576000848401525b50505050565b60006002820490506001821680611a1b57607f821691505b60208210811415611a2f57611a2e611a64565b5b50919050565b7f4e487b7100000000000000000000000000000000000000000000000000000000600052601160045260246000fd5b7f4e487b7100000000000000000000000000000000000000000000000000000000600052602260045260246000fd5b6000601f19601f8301169050919050565b60008160011c9050919050565b611aba8161197b565b8114611ac557600080fd5b50565b611ad1816119b9565b8114611adc57600080fd5b5056fe45524332303a207472616e7366657220616d6f756e7420657863656564732062616c616e63652045524332303a207472616e7366657220616d6f756e74206578636565647320616c6c6f77616e6365a264697066735822122096e789ff664a34463362e9cecbd26b15dcade0b819b3568f9ee201480be25fd864736f6c63430008000033",
					"opcodes": "PUSH1 0x80 PUSH1 0x40 MSTORE CALLVALUE DUP1 ISZERO PUSH3 0x11 JUMPI PUSH1 0x0 DUP1 REVERT JUMPDEST POP PUSH1 0x40 MLOAD PUSH3 0x1F1A CODESIZE SUB DUP1 PUSH3 0x1F1A DUP4 CODECOPY DUP2 DUP2 ADD PUSH1 0x40 MSTORE DUP2 ADD SWAP1 PUSH3 0x37 SWAP2 SWAP1 PUSH3 0x1C6 JUMP JUMPDEST DUP3 PUSH1 0x0 SWAP1 DUP1 MLOAD SWAP1 PUSH1 0x20 ADD SWAP1 PUSH3 0x4F SWAP3 SWAP2 SWAP1 PUSH3 0x8D JUMP JUMPDEST POP DUP2 PUSH1 0x1 SWAP1 DUP1 MLOAD SWAP1 PUSH1 0x20 ADD SWAP1 PUSH3 0x68 SWAP3 SWAP2 SWAP1 PUSH3 0x8D JUMP JUMPDEST POP DUP1 PUSH1 0x2 PUSH1 0x0 PUSH2 0x100 EXP DUP2 SLOAD DUP2 PUSH1 0xFF MUL NOT AND SWAP1 DUP4 PUSH1 0xFF AND MUL OR SWAP1 SSTORE POP POP POP POP PUSH3 0x3A6 JUMP JUMPDEST DUP3 DUP1 SLOAD PUSH3 0x9B SWAP1 PUSH3 0x2F8 JUMP JUMPDEST SWAP1 PUSH1 0x0 MSTORE PUSH1 0x20 PUSH1 0x0 KECCAK256 SWAP1 PUSH1 0x1F ADD PUSH1 0x20 SWAP1 DIV DUP2 ADD SWAP3 DUP3 PUSH3 0xBF JUMPI PUSH1 0x0 DUP6 SSTORE PUSH3 0x10B JUMP JUMPDEST DUP3 PUSH1 0x1F LT PUSH3 0xDA JUMPI DUP1 MLOAD PUSH1 0xFF NOT AND DUP4 DUP1 ADD OR DUP6 SSTORE PUSH3 0x10B JUMP JUMPDEST DUP3 DUP1 ADD PUSH1 0x1 ADD DUP6 SSTORE DUP3 ISZERO PUSH3 0x10B JUMPI SWAP2 DUP3 ADD JUMPDEST DUP3 DUP2 GT ISZERO PUSH3 0x10A JUMPI DUP3 MLOAD DUP3 SSTORE SWAP2 PUSH1 0x20 ADD SWAP2 SWAP1 PUSH1 0x1 ADD SWAP1 PUSH3 0xED JUMP JUMPDEST JUMPDEST POP SWAP1 POP PUSH3 0x11A SWAP2 SWAP1 PUSH3 0x11E JUMP JUMPDEST POP SWAP1 JUMP JUMPDEST JUMPDEST DUP1 DUP3 GT ISZERO PUSH3 0x139 JUMPI PUSH1 0x0 DUP2 PUSH1 0x0 SWAP1 SSTORE POP PUSH1 0x1 ADD PUSH3 0x11F JUMP JUMPDEST POP SWAP1 JUMP JUMPDEST PUSH1 0x0 PUSH3 0x154 PUSH3 0x14E DUP5 PUSH3 0x282 JUMP JUMPDEST PUSH3 0x24E JUMP JUMPDEST SWAP1 POP DUP3 DUP2 MSTORE PUSH1 0x20 DUP2 ADD DUP5 DUP5 DUP5 ADD GT ISZERO PUSH3 0x16D JUMPI PUSH1 0x0 DUP1 REVERT JUMPDEST PUSH3 0x17A DUP5 DUP3 DUP6 PUSH3 0x2C2 JUMP JUMPDEST POP SWAP4 SWAP3 POP POP POP JUMP JUMPDEST PUSH1 0x0 DUP3 PUSH1 0x1F DUP4 ADD SLT PUSH3 0x194 JUMPI PUSH1 0x0 DUP1 REVERT JUMPDEST DUP2 MLOAD PUSH3 0x1A6 DUP5 DUP3 PUSH1 0x20 DUP7 ADD PUSH3 0x13D JUMP JUMPDEST SWAP2 POP POP SWAP3 SWAP2 POP POP JUMP JUMPDEST PUSH1 0x0 DUP2 MLOAD SWAP1 POP PUSH3 0x1C0 DUP2 PUSH3 0x38C JUMP JUMPDEST SWAP3 SWAP2 POP POP JUMP JUMPDEST PUSH1 0x0 DUP1 PUSH1 0x0 PUSH1 0x60 DUP5 DUP7 SUB SLT ISZERO PUSH3 0x1DC JUMPI PUSH1 0x0 DUP1 REVERT JUMPDEST PUSH1 0x0 DUP5 ADD MLOAD PUSH8 0xFFFFFFFFFFFFFFFF DUP2 GT ISZERO PUSH3 0x1F7 JUMPI PUSH1 0x0 DUP1 REVERT JUMPDEST PUSH3 0x205 DUP7 DUP3 DUP8 ADD PUSH3 0x182 JUMP JUMPDEST SWAP4 POP POP PUSH1 0x20 DUP5 ADD MLOAD PUSH8 0xFFFFFFFFFFFFFFFF DUP2 GT ISZERO PUSH3 0x223 JUMPI PUSH1 0x0 DUP1 REVERT JUMPDEST PUSH3 0x231 DUP7 DUP3 DUP8 ADD PUSH3 0x182 JUMP JUMPDEST SWAP3 POP POP PUSH1 0x40 PUSH3 0x244 DUP7 DUP3 DUP8 ADD PUSH3 0x1AF JUMP JUMPDEST SWAP2 POP POP SWAP3 POP SWAP3 POP SWAP3 JUMP JUMPDEST PUSH1 0x0 PUSH1 0x40 MLOAD SWAP1 POP DUP2 DUP2 ADD DUP2 DUP2 LT PUSH8 0xFFFFFFFFFFFFFFFF DUP3 GT OR ISZERO PUSH3 0x278 JUMPI PUSH3 0x277 PUSH3 0x35D JUMP JUMPDEST JUMPDEST DUP1 PUSH1 0x40 MSTORE POP SWAP2 SWAP1 POP JUMP JUMPDEST PUSH1 0x0 PUSH8 0xFFFFFFFFFFFFFFFF DUP3 GT ISZERO PUSH3 0x2A0 JUMPI PUSH3 0x29F PUSH3 0x35D JUMP JUMPDEST JUMPDEST PUSH1 0x1F NOT PUSH1 0x1F DUP4 ADD AND SWAP1 POP PUSH1 0x20 DUP2 ADD SWAP1 POP SWAP2 SWAP1 POP JUMP JUMPDEST PUSH1 0x0 PUSH1 0xFF DUP3 AND SWAP1 POP SWAP2 SWAP1 POP JUMP JUMPDEST PUSH1 0x0 JUMPDEST DUP4 DUP2 LT ISZERO PUSH3 0x2E2 JUMPI DUP1 DUP3 ADD MLOAD DUP2 DUP5 ADD MSTORE PUSH1 0x20 DUP2 ADD SWAP1 POP PUSH3 0x2C5 JUMP JUMPDEST DUP4 DUP2 GT ISZERO PUSH3 0x2F2 JUMPI PUSH1 0x0 DUP5 DUP5 ADD MSTORE JUMPDEST POP POP POP POP JUMP JUMPDEST PUSH1 0x0 PUSH1 0x2 DUP3 DIV SWAP1 POP PUSH1 0x1 DUP3 AND DUP1 PUSH3 0x311 JUMPI PUSH1 0x7F DUP3 AND SWAP2 POP JUMPDEST PUSH1 0x20 DUP3 LT DUP2 EQ ISZERO PUSH3 0x328 JUMPI PUSH3 0x327 PUSH3 0x32E JUMP JUMPDEST JUMPDEST POP SWAP2 SWAP1 POP JUMP JUMPDEST PUSH32 0x4E487B7100000000000000000000000000000000000000000000000000000000 PUSH1 0x0 MSTORE PUSH1 0x22 PUSH1 0x4 MSTORE PUSH1 0x24 PUSH1 0x0 REVERT JUMPDEST PUSH32 0x4E487B7100000000000000000000000000000000000000000000000000000000 PUSH1 0x0 MSTORE PUSH1 0x41 PUSH1 0x4 MSTORE PUSH1 0x24 PUSH1 0x0 REVERT JUMPDEST PUSH3 0x397 DUP2 PUSH3 0x2B5 JUMP JUMPDEST DUP2 EQ PUSH3 0x3A3 JUMPI PUSH1 0x0 DUP1 REVERT JUMPDEST POP JUMP JUMPDEST PUSH2 0x1B64 DUP1 PUSH3 0x3B6 PUSH1 0x0 CODECOPY PUSH1 0x0 RETURN INVALID PUSH1 0x80 PUSH1 0x40 MSTORE CALLVALUE DUP1 ISZERO PUSH2 0x10 JUMPI PUSH1 0x0 DUP1 REVERT JUMPDEST POP PUSH1 0x4 CALLDATASIZE LT PUSH2 0xF5 JUMPI PUSH1 0x0 CALLDATALOAD PUSH1 0xE0 SHR DUP1 PUSH4 0x95D89B41 GT PUSH2 0x97 JUMPI DUP1 PUSH4 0xB94072F6 GT PUSH2 0x66 JUMPI DUP1 PUSH4 0xB94072F6 EQ PUSH2 0x29A JUMPI DUP1 PUSH4 0xDD62ED3E EQ PUSH2 0x2B6 JUMPI DUP1 PUSH4 0xE27CEDF3 EQ PUSH2 0x2E6 JUMPI DUP1 PUSH4 0xF9DB1562 EQ PUSH2 0x316 JUMPI PUSH2 0xF5 JUMP JUMPDEST DUP1 PUSH4 0x95D89B41 EQ PUSH2 0x214 JUMPI DUP1 PUSH4 0x9DC29FAC EQ PUSH2 0x232 JUMPI DUP1 PUSH4 0xA80B2004 EQ PUSH2 0x24E JUMPI DUP1 PUSH4 0xA9059CBB EQ PUSH2 0x26A JUMPI PUSH2 0xF5 JUMP JUMPDEST DUP1 PUSH4 0x18160DDD GT PUSH2 0xD3 JUMPI DUP1 PUSH4 0x18160DDD EQ PUSH2 0x178 JUMPI DUP1 PUSH4 0x23B872DD EQ PUSH2 0x196 JUMPI DUP1 PUSH4 0x313CE567 EQ PUSH2 0x1C6 JUMPI DUP1 PUSH4 0x70A08231 EQ PUSH2 0x1E4 JUMPI PUSH2 0xF5 JUMP JUMPDEST DUP1 PUSH4 0x6FDDE03 EQ PUSH2 0xFA JUMPI DUP1 PUSH4 0x95EA7B3 EQ PUSH2 0x118 JUMPI DUP1 PUSH4 0x11EB7B7D EQ PUSH2 0x148 JUMPI JUMPDEST PUSH1 0x0 DUP1 REVERT JUMPDEST PUSH2 0x102 PUSH2 0x346 JUMP JUMPDEST PUSH1 0x40 MLOAD PUSH2 0x10F SWAP2 SWAP1 PUSH2 0x15B2 JUMP JUMPDEST PUSH1 0x40 MLOAD DUP1 SWAP2 SUB SWAP1 RETURN JUMPDEST PUSH2 0x132 PUSH1 0x4 DUP1 CALLDATASIZE SUB DUP2 ADD SWAP1 PUSH2 0x12D SWAP2 SWAP1 PUSH2 0x125D JUMP JUMPDEST PUSH2 0x3D4 JUMP JUMPDEST PUSH1 0x40 MLOAD PUSH2 0x13F SWAP2 SWAP1 PUSH2 0x1597 JUMP JUMPDEST PUSH1 0x40 MLOAD DUP1 SWAP2 SUB SWAP1 RETURN JUMPDEST PUSH2 0x162 PUSH1 0x4 DUP1 CALLDATASIZE SUB DUP2 ADD SWAP1 PUSH2 0x15D SWAP2 SWAP1 PUSH2 0x11A9 JUMP JUMPDEST PUSH2 0x3EB JUMP JUMPDEST PUSH1 0x40 MLOAD PUSH2 0x16F SWAP2 SWAP1 PUSH2 0x16D4 JUMP JUMPDEST PUSH1 0x40 MLOAD DUP1 SWAP2 SUB SWAP1 RETURN JUMPDEST PUSH2 0x180 PUSH2 0x403 JUMP JUMPDEST PUSH1 0x40 MLOAD PUSH2 0x18D SWAP2 SWAP1 PUSH2 0x16D4 JUMP JUMPDEST PUSH1 0x40 MLOAD DUP1 SWAP2 SUB SWAP1 RETURN JUMPDEST PUSH2 0x1B0 PUSH1 0x4 DUP1 CALLDATASIZE SUB DUP2 ADD SWAP1 PUSH2 0x1AB SWAP2 SWAP1 PUSH2 0x120E JUMP JUMPDEST PUSH2 0x40D JUMP JUMPDEST PUSH1 0x40 MLOAD PUSH2 0x1BD SWAP2 SWAP1 PUSH2 0x1597 JUMP JUMPDEST PUSH1 0x40 MLOAD DUP1 SWAP2 SUB SWAP1 RETURN JUMPDEST PUSH2 0x1CE PUSH2 0x4D8 JUMP JUMPDEST PUSH1 0x40 MLOAD PUSH2 0x1DB SWAP2 SWAP1 PUSH2 0x16EF JUMP JUMPDEST PUSH1 0x40 MLOAD DUP1 SWAP2 SUB SWAP1 RETURN JUMPDEST PUSH2 0x1FE PUSH1 0x4 DUP1 CALLDATASIZE SUB DUP2 ADD SWAP1 PUSH2 0x1F9 SWAP2 SWAP1 PUSH2 0x11A9 JUMP JUMPDEST PUSH2 0x4EB JUMP JUMPDEST PUSH1 0x40 MLOAD PUSH2 0x20B SWAP2 SWAP1 PUSH2 0x16D4 JUMP JUMPDEST PUSH1 0x40 MLOAD DUP1 SWAP2 SUB SWAP1 RETURN JUMPDEST PUSH2 0x21C PUSH2 0x534 JUMP JUMPDEST PUSH1 0x40 MLOAD PUSH2 0x229 SWAP2 SWAP1 PUSH2 0x15B2 JUMP JUMPDEST PUSH1 0x40 MLOAD DUP1 SWAP2 SUB SWAP1 RETURN JUMPDEST PUSH2 0x24C PUSH1 0x4 DUP1 CALLDATASIZE SUB DUP2 ADD SWAP1 PUSH2 0x247 SWAP2 SWAP1 PUSH2 0x125D JUMP JUMPDEST PUSH2 0x5C2 JUMP JUMPDEST STOP JUMPDEST PUSH2 0x268 PUSH1 0x4 DUP1 CALLDATASIZE SUB DUP2 ADD SWAP1 PUSH2 0x263 SWAP2 SWAP1 PUSH2 0x125D JUMP JUMPDEST PUSH2 0x7B0 JUMP JUMPDEST STOP JUMPDEST PUSH2 0x284 PUSH1 0x4 DUP1 CALLDATASIZE SUB DUP2 ADD SWAP1 PUSH2 0x27F SWAP2 SWAP1 PUSH2 0x125D JUMP JUMPDEST PUSH2 0x91E JUMP JUMPDEST PUSH1 0x40 MLOAD PUSH2 0x291 SWAP2 SWAP1 PUSH2 0x1597 JUMP JUMPDEST PUSH1 0x40 MLOAD DUP1 SWAP2 SUB SWAP1 RETURN JUMPDEST PUSH2 0x2B4 PUSH1 0x4 DUP1 CALLDATASIZE SUB DUP2 ADD SWAP1 PUSH2 0x2AF SWAP2 SWAP1 PUSH2 0x11A9 JUMP JUMPDEST PUSH2 0x935 JUMP JUMPDEST STOP JUMPDEST PUSH2 0x2D0 PUSH1 0x4 DUP1 CALLDATASIZE SUB DUP2 ADD SWAP1 PUSH2 0x2CB SWAP2 SWAP1 PUSH2 0x11D2 JUMP JUMPDEST PUSH2 0x990 JUMP JUMPDEST PUSH1 0x40 MLOAD PUSH2 0x2DD SWAP2 SWAP1 PUSH2 0x16D4 JUMP JUMPDEST PUSH1 0x40 MLOAD DUP1 SWAP2 SUB SWAP1 RETURN JUMPDEST PUSH2 0x300 PUSH1 0x4 DUP1 CALLDATASIZE SUB DUP2 ADD SWAP1 PUSH2 0x2FB SWAP2 SWAP1 PUSH2 0x11A9 JUMP JUMPDEST PUSH2 0xA17 JUMP JUMPDEST PUSH1 0x40 MLOAD PUSH2 0x30D SWAP2 SWAP1 PUSH2 0x1597 JUMP JUMPDEST PUSH1 0x40 MLOAD DUP1 SWAP2 SUB SWAP1 RETURN JUMPDEST PUSH2 0x330 PUSH1 0x4 DUP1 CALLDATASIZE SUB DUP2 ADD SWAP1 PUSH2 0x32B SWAP2 SWAP1 PUSH2 0x11A9 JUMP JUMPDEST PUSH2 0xA37 JUMP JUMPDEST PUSH1 0x40 MLOAD PUSH2 0x33D SWAP2 SWAP1 PUSH2 0x16D4 JUMP JUMPDEST PUSH1 0x40 MLOAD DUP1 SWAP2 SUB SWAP1 RETURN JUMPDEST PUSH1 0x0 DUP1 SLOAD PUSH2 0x353 SWAP1 PUSH2 0x1A03 JUMP JUMPDEST DUP1 PUSH1 0x1F ADD PUSH1 0x20 DUP1 SWAP2 DIV MUL PUSH1 0x20 ADD PUSH1 0x40 MLOAD SWAP1 DUP2 ADD PUSH1 0x40 MSTORE DUP1 SWAP3 SWAP2 SWAP1 DUP2 DUP2 MSTORE PUSH1 0x20 ADD DUP3 DUP1 SLOAD PUSH2 0x37F SWAP1 PUSH2 0x1A03 JUMP JUMPDEST DUP1 ISZERO PUSH2 0x3CC JUMPI DUP1 PUSH1 0x1F LT PUSH2 0x3A1 JUMPI PUSH2 0x100 DUP1 DUP4 SLOAD DIV MUL DUP4 MSTORE SWAP2 PUSH1 0x20 ADD SWAP2 PUSH2 0x3CC JUMP JUMPDEST DUP3 ADD SWAP2 SWAP1 PUSH1 0x0 MSTORE PUSH1 0x20 PUSH1 0x0 KECCAK256 SWAP1 JUMPDEST DUP2 SLOAD DUP2 MSTORE SWAP1 PUSH1 0x1 ADD SWAP1 PUSH1 0x20 ADD DUP1 DUP4 GT PUSH2 0x3AF JUMPI DUP3 SWAP1 SUB PUSH1 0x1F AND DUP3 ADD SWAP2 JUMPDEST POP POP POP POP POP DUP2 JUMP JUMPDEST PUSH1 0x0 PUSH2 0x3E1 CALLER DUP5 DUP5 PUSH2 0xAEF JUMP JUMPDEST PUSH1 0x1 SWAP1 POP SWAP3 SWAP2 POP POP JUMP JUMPDEST PUSH1 0x7 PUSH1 0x20 MSTORE DUP1 PUSH1 0x0 MSTORE PUSH1 0x40 PUSH1 0x0 KECCAK256 PUSH1 0x0 SWAP2 POP SWAP1 POP SLOAD DUP2 JUMP JUMPDEST PUSH1 0x0 PUSH1 0x5 SLOAD SWAP1 POP SWAP1 JUMP JUMPDEST PUSH1 0x0 PUSH2 0x41A DUP5 DUP5 DUP5 PUSH2 0xD9A JUMP JUMPDEST PUSH2 0x4CD DUP5 CALLER PUSH2 0x4C8 DUP6 PUSH1 0x40 MLOAD DUP1 PUSH1 0x60 ADD PUSH1 0x40 MSTORE DUP1 PUSH1 0x29 DUP2 MSTORE PUSH1 0x20 ADD PUSH2 0x1B06 PUSH1 0x29 SWAP2 CODECOPY PUSH1 0x4 PUSH1 0x0 DUP12 PUSH20 0xFFFFFFFFFFFFFFFFFFFFFFFFFFFFFFFFFFFFFFFF AND PUSH20 0xFFFFFFFFFFFFFFFFFFFFFFFFFFFFFFFFFFFFFFFF AND DUP2 MSTORE PUSH1 0x20 ADD SWAP1 DUP2 MSTORE PUSH1 0x20 ADD PUSH1 0x0 KECCAK256 PUSH1 0x0 CALLER PUSH20 0xFFFFFFFFFFFFFFFFFFFFFFFFFFFFFFFFFFFFFFFF AND PUSH20 0xFFFFFFFFFFFFFFFFFFFFFFFFFFFFFFFFFFFFFFFF AND DUP2 MSTORE PUSH1 0x20 ADD SWAP1 DUP2 MSTORE PUSH1 0x20 ADD PUSH1 0x0 KECCAK256 SLOAD PUSH2 0x10BD SWAP1 SWAP3 SWAP2 SWAP1 PUSH4 0xFFFFFFFF AND JUMP JUMPDEST PUSH2 0xAEF JUMP JUMPDEST PUSH1 0x1 SWAP1 POP SWAP4 SWAP3 POP POP POP JUMP JUMPDEST PUSH1 0x2 PUSH1 0x0 SWAP1 SLOAD SWAP1 PUSH2 0x100 EXP SWAP1 DIV PUSH1 0xFF AND DUP2 JUMP JUMPDEST PUSH1 0x0 PUSH1 0x3 PUSH1 0x0 DUP4 PUSH20 0xFFFFFFFFFFFFFFFFFFFFFFFFFFFFFFFFFFFFFFFF AND PUSH20 0xFFFFFFFFFFFFFFFFFFFFFFFFFFFFFFFFFFFFFFFF AND DUP2 MSTORE PUSH1 0x20 ADD SWAP1 DUP2 MSTORE PUSH1 0x20 ADD PUSH1 0x0 KECCAK256 SLOAD SWAP1 POP SWAP2 SWAP1 POP JUMP JUMPDEST PUSH1 0x1 DUP1 SLOAD PUSH2 0x541 SWAP1 PUSH2 0x1A03 JUMP JUMPDEST DUP1 PUSH1 0x1F ADD PUSH1 0x20 DUP1 SWAP2 DIV MUL PUSH1 0x20 ADD PUSH1 0x40 MLOAD SWAP1 DUP2 ADD PUSH1 0x40 MSTORE DUP1 SWAP3 SWAP2 SWAP1 DUP2 DUP2 MSTORE PUSH1 0x20 ADD DUP3 DUP1 SLOAD PUSH2 0x56D SWAP1 PUSH2 0x1A03 JUMP JUMPDEST DUP1 ISZERO PUSH2 0x5BA JUMPI DUP1 PUSH1 0x1F LT PUSH2 0x58F JUMPI PUSH2 0x100 DUP1 DUP4 SLOAD DIV MUL DUP4 MSTORE SWAP2 PUSH1 0x20 ADD SWAP2 PUSH2 0x5BA JUMP JUMPDEST DUP3 ADD SWAP2 SWAP1 PUSH1 0x0 MSTORE PUSH1 0x20 PUSH1 0x0 KECCAK256 SWAP1 JUMPDEST DUP2 SLOAD DUP2 MSTORE SWAP1 PUSH1 0x1 ADD SWAP1 PUSH1 0x20 ADD DUP1 DUP4 GT PUSH2 0x59D JUMPI DUP3 SWAP1 SUB PUSH1 0x1F AND DUP3 ADD SWAP2 JUMPDEST POP POP POP POP POP DUP2 JUMP JUMPDEST PUSH1 0x1 ISZERO ISZERO PUSH1 0x6 PUSH1 0x0 CALLER PUSH20 0xFFFFFFFFFFFFFFFFFFFFFFFFFFFFFFFFFFFFFFFF AND PUSH20 0xFFFFFFFFFFFFFFFFFFFFFFFFFFFFFFFFFFFFFFFF AND DUP2 MSTORE PUSH1 0x20 ADD SWAP1 DUP2 MSTORE PUSH1 0x20 ADD PUSH1 0x0 KECCAK256 PUSH1 0x0 SWAP1 SLOAD SWAP1 PUSH2 0x100 EXP SWAP1 DIV PUSH1 0xFF AND ISZERO ISZERO EQ PUSH2 0x655 JUMPI PUSH1 0x40 MLOAD PUSH32 0x8C379A000000000000000000000000000000000000000000000000000000000 DUP2 MSTORE PUSH1 0x4 ADD PUSH2 0x64C SWAP1 PUSH2 0x1674 JUMP JUMPDEST PUSH1 0x40 MLOAD DUP1 SWAP2 SUB SWAP1 REVERT JUMPDEST DUP1 PUSH1 0x3 PUSH1 0x0 DUP5 PUSH20 0xFFFFFFFFFFFFFFFFFFFFFFFFFFFFFFFFFFFFFFFF AND PUSH20 0xFFFFFFFFFFFFFFFFFFFFFFFFFFFFFFFFFFFFFFFF AND DUP2 MSTORE PUSH1 0x20 ADD SWAP1 DUP2 MSTORE PUSH1 0x20 ADD PUSH1 0x0 KECCAK256 SLOAD LT ISZERO PUSH2 0x6D7 JUMPI PUSH1 0x40 MLOAD PUSH32 0x8C379A000000000000000000000000000000000000000000000000000000000 DUP2 MSTORE PUSH1 0x4 ADD PUSH2 0x6CE SWAP1 PUSH2 0x15F4 JUMP JUMPDEST PUSH1 0x40 MLOAD DUP1 SWAP2 SUB SWAP1 REVERT JUMPDEST DUP1 PUSH1 0x3 PUSH1 0x0 DUP5 PUSH20 0xFFFFFFFFFFFFFFFFFFFFFFFFFFFFFFFFFFFFFFFF AND PUSH20 0xFFFFFFFFFFFFFFFFFFFFFFFFFFFFFFFFFFFFFFFF AND DUP2 MSTORE PUSH1 0x20 ADD SWAP1 DUP2 MSTORE PUSH1 0x20 ADD PUSH1 0x0 KECCAK256 PUSH1 0x0 DUP3 DUP3 SLOAD PUSH2 0x726 SWAP2 SWAP1 PUSH2 0x1947 JUMP JUMPDEST SWAP3 POP POP DUP2 SWAP1 SSTORE POP DUP1 PUSH1 0x5 PUSH1 0x0 DUP3 DUP3 SLOAD PUSH2 0x73F SWAP2 SWAP1 PUSH2 0x1947 JUMP JUMPDEST SWAP3 POP POP DUP2 SWAP1 SSTORE POP PUSH1 0x0 PUSH20 0xFFFFFFFFFFFFFFFFFFFFFFFFFFFFFFFFFFFFFFFF AND DUP3 PUSH20 0xFFFFFFFFFFFFFFFFFFFFFFFFFFFFFFFFFFFFFFFF AND PUSH32 0xDDF252AD1BE2C89B69C2B068FC378DAA952BA7F163C4A11628F55A4DF523B3EF DUP4 PUSH1 0x40 MLOAD PUSH2 0x7A4 SWAP2 SWAP1 PUSH2 0x16D4 JUMP JUMPDEST PUSH1 0x40 MLOAD DUP1 SWAP2 SUB SWAP1 LOG3 POP POP JUMP JUMPDEST PUSH1 0x1 ISZERO ISZERO PUSH1 0x6 PUSH1 0x0 CALLER PUSH20 0xFFFFFFFFFFFFFFFFFFFFFFFFFFFFFFFFFFFFFFFF AND PUSH20 0xFFFFFFFFFFFFFFFFFFFFFFFFFFFFFFFFFFFFFFFF AND DUP2 MSTORE PUSH1 0x20 ADD SWAP1 DUP2 MSTORE PUSH1 0x20 ADD PUSH1 0x0 KECCAK256 PUSH1 0x0 SWAP1 SLOAD SWAP1 PUSH2 0x100 EXP SWAP1 DIV PUSH1 0xFF AND ISZERO ISZERO EQ PUSH2 0x843 JUMPI PUSH1 0x40 MLOAD PUSH32 0x8C379A000000000000000000000000000000000000000000000000000000000 DUP2 MSTORE PUSH1 0x4 ADD PUSH2 0x83A SWAP1 PUSH2 0x1674 JUMP JUMPDEST PUSH1 0x40 MLOAD DUP1 SWAP2 SUB SWAP1 REVERT JUMPDEST DUP1 PUSH1 0x3 PUSH1 0x0 DUP5 PUSH20 0xFFFFFFFFFFFFFFFFFFFFFFFFFFFFFFFFFFFFFFFF AND PUSH20 0xFFFFFFFFFFFFFFFFFFFFFFFFFFFFFFFFFFFFFFFF AND DUP2 MSTORE PUSH1 0x20 ADD SWAP1 DUP2 MSTORE PUSH1 0x20 ADD PUSH1 0x0 KECCAK256 PUSH1 0x0 DUP3 DUP3 SLOAD PUSH2 0x892 SWAP2 SWAP1 PUSH2 0x1726 JUMP JUMPDEST SWAP3 POP POP DUP2 SWAP1 SSTORE POP PUSH2 0x8AE DUP2 PUSH1 0x5 SLOAD PUSH2 0x1121 SWAP1 SWAP2 SWAP1 PUSH4 0xFFFFFFFF AND JUMP JUMPDEST PUSH1 0x5 DUP2 SWAP1 SSTORE POP DUP2 PUSH20 0xFFFFFFFFFFFFFFFFFFFFFFFFFFFFFFFFFFFFFFFF AND PUSH1 0x0 PUSH20 0xFFFFFFFFFFFFFFFFFFFFFFFFFFFFFFFFFFFFFFFF AND PUSH32 0xDDF252AD1BE2C89B69C2B068FC378DAA952BA7F163C4A11628F55A4DF523B3EF DUP4 PUSH1 0x40 MLOAD PUSH2 0x912 SWAP2 SWAP1 PUSH2 0x16D4 JUMP JUMPDEST PUSH1 0x40 MLOAD DUP1 SWAP2 SUB SWAP1 LOG3 POP POP JUMP JUMPDEST PUSH1 0x0 PUSH2 0x92B CALLER DUP5 DUP5 PUSH2 0xD9A JUMP JUMPDEST PUSH1 0x1 SWAP1 POP SWAP3 SWAP2 POP POP JUMP JUMPDEST PUSH1 0x1 PUSH1 0x6 PUSH1 0x0 DUP4 PUSH20 0xFFFFFFFFFFFFFFFFFFFFFFFFFFFFFFFFFFFFFFFF AND PUSH20 0xFFFFFFFFFFFFFFFFFFFFFFFFFFFFFFFFFFFFFFFF AND DUP2 MSTORE PUSH1 0x20 ADD SWAP1 DUP2 MSTORE PUSH1 0x20 ADD PUSH1 0x0 KECCAK256 PUSH1 0x0 PUSH2 0x100 EXP DUP2 SLOAD DUP2 PUSH1 0xFF MUL NOT AND SWAP1 DUP4 ISZERO ISZERO MUL OR SWAP1 SSTORE POP POP JUMP JUMPDEST PUSH1 0x0 PUSH1 0x4 PUSH1 0x0 DUP5 PUSH20 0xFFFFFFFFFFFFFFFFFFFFFFFFFFFFFFFFFFFFFFFF AND PUSH20 0xFFFFFFFFFFFFFFFFFFFFFFFFFFFFFFFFFFFFFFFF AND DUP2 MSTORE PUSH1 0x20 ADD SWAP1 DUP2 MSTORE PUSH1 0x20 ADD PUSH1 0x0 KECCAK256 PUSH1 0x0 DUP4 PUSH20 0xFFFFFFFFFFFFFFFFFFFFFFFFFFFFFFFFFFFFFFFF AND PUSH20 0xFFFFFFFFFFFFFFFFFFFFFFFFFFFFFFFFFFFFFFFF AND DUP2 MSTORE PUSH1 0x20 ADD SWAP1 DUP2 MSTORE PUSH1 0x20 ADD PUSH1 0x0 KECCAK256 SLOAD SWAP1 POP SWAP3 SWAP2 POP POP JUMP JUMPDEST PUSH1 0x6 PUSH1 0x20 MSTORE DUP1 PUSH1 0x0 MSTORE PUSH1 0x40 PUSH1 0x0 KECCAK256 PUSH1 0x0 SWAP2 POP SLOAD SWAP1 PUSH2 0x100 EXP SWAP1 DIV PUSH1 0xFF AND DUP2 JUMP JUMPDEST PUSH1 0x0 DUP1 PUSH20 0xFFFFFFFFFFFFFFFFFFFFFFFFFFFFFFFFFFFFFFFF AND DUP3 PUSH20 0xFFFFFFFFFFFFFFFFFFFFFFFFFFFFFFFFFFFFFFFF AND EQ ISZERO PUSH2 0xAA8 JUMPI PUSH1 0x40 MLOAD PUSH32 0x8C379A000000000000000000000000000000000000000000000000000000000 DUP2 MSTORE PUSH1 0x4 ADD PUSH2 0xA9F SWAP1 PUSH2 0x1614 JUMP JUMPDEST PUSH1 0x40 MLOAD DUP1 SWAP2 SUB SWAP1 REVERT JUMPDEST PUSH1 0x7 PUSH1 0x0 DUP4 PUSH20 0xFFFFFFFFFFFFFFFFFFFFFFFFFFFFFFFFFFFFFFFF AND PUSH20 0xFFFFFFFFFFFFFFFFFFFFFFFFFFFFFFFFFFFFFFFF AND DUP2 MSTORE PUSH1 0x20 ADD SWAP1 DUP2 MSTORE PUSH1 0x20 ADD PUSH1 0x0 KECCAK256 SLOAD SWAP1 POP SWAP2 SWAP1 POP JUMP JUMPDEST PUSH1 0x0 PUSH20 0xFFFFFFFFFFFFFFFFFFFFFFFFFFFFFFFFFFFFFFFF AND DUP4 PUSH20 0xFFFFFFFFFFFFFFFFFFFFFFFFFFFFFFFFFFFFFFFF AND EQ ISZERO PUSH2 0xB5F JUMPI PUSH1 0x40 MLOAD PUSH32 0x8C379A000000000000000000000000000000000000000000000000000000000 DUP2 MSTORE PUSH1 0x4 ADD PUSH2 0xB56 SWAP1 PUSH2 0x16B4 JUMP JUMPDEST PUSH1 0x40 MLOAD DUP1 SWAP2 SUB SWAP1 REVERT JUMPDEST PUSH1 0x0 PUSH20 0xFFFFFFFFFFFFFFFFFFFFFFFFFFFFFFFFFFFFFFFF AND DUP3 PUSH20 0xFFFFFFFFFFFFFFFFFFFFFFFFFFFFFFFFFFFFFFFF AND EQ ISZERO PUSH2 0xBCF JUMPI PUSH1 0x40 MLOAD PUSH32 0x8C379A000000000000000000000000000000000000000000000000000000000 DUP2 MSTORE PUSH1 0x4 ADD PUSH2 0xBC6 SWAP1 PUSH2 0x1634 JUMP JUMPDEST PUSH1 0x40 MLOAD DUP1 SWAP2 SUB SWAP1 REVERT JUMPDEST PUSH1 0x2 PUSH1 0x0 SWAP1 SLOAD SWAP1 PUSH2 0x100 EXP SWAP1 DIV PUSH1 0xFF AND PUSH1 0xA PUSH2 0xBEB SWAP2 SWAP1 PUSH2 0x17CF JUMP JUMPDEST PUSH3 0x1E240 PUSH2 0xBF9 SWAP2 SWAP1 PUSH2 0x18ED JUMP JUMPDEST DUP2 GT ISZERO PUSH2 0xCAE JUMPI PUSH1 0x2 PUSH1 0x0 SWAP1 SLOAD SWAP1 PUSH2 0x100 EXP SWAP1 DIV PUSH1 0xFF AND PUSH1 0xA PUSH2 0xC1C SWAP2 SWAP1 PUSH2 0x17CF JUMP JUMPDEST PUSH3 0x1E240 PUSH2 0xC2A SWAP2 SWAP1 PUSH2 0x18ED JUMP JUMPDEST PUSH1 0x4 PUSH1 0x0 DUP6 PUSH20 0xFFFFFFFFFFFFFFFFFFFFFFFFFFFFFFFFFFFFFFFF AND PUSH20 0xFFFFFFFFFFFFFFFFFFFFFFFFFFFFFFFFFFFFFFFF AND DUP2 MSTORE PUSH1 0x20 ADD SWAP1 DUP2 MSTORE PUSH1 0x20 ADD PUSH1 0x0 KECCAK256 PUSH1 0x0 DUP5 PUSH20 0xFFFFFFFFFFFFFFFFFFFFFFFFFFFFFFFFFFFFFFFF AND PUSH20 0xFFFFFFFFFFFFFFFFFFFFFFFFFFFFFFFFFFFFFFFF AND DUP2 MSTORE PUSH1 0x20 ADD SWAP1 DUP2 MSTORE PUSH1 0x20 ADD PUSH1 0x0 KECCAK256 DUP2 SWAP1 SSTORE PUSH2 0xD2F JUMP JUMPDEST DUP1 PUSH1 0x4 PUSH1 0x0 DUP6 PUSH20 0xFFFFFFFFFFFFFFFFFFFFFFFFFFFFFFFFFFFFFFFF AND PUSH20 0xFFFFFFFFFFFFFFFFFFFFFFFFFFFFFFFFFFFFFFFF AND DUP2 MSTORE PUSH1 0x20 ADD SWAP1 DUP2 MSTORE PUSH1 0x20 ADD PUSH1 0x0 KECCAK256 PUSH1 0x0 DUP5 PUSH20 0xFFFFFFFFFFFFFFFFFFFFFFFFFFFFFFFFFFFFFFFF AND PUSH20 0xFFFFFFFFFFFFFFFFFFFFFFFFFFFFFFFFFFFFFFFF AND DUP2 MSTORE PUSH1 0x20 ADD SWAP1 DUP2 MSTORE PUSH1 0x20 ADD PUSH1 0x0 KECCAK256 DUP2 SWAP1 SSTORE JUMPDEST POP DUP2 PUSH20 0xFFFFFFFFFFFFFFFFFFFFFFFFFFFFFFFFFFFFFFFF AND DUP4 PUSH20 0xFFFFFFFFFFFFFFFFFFFFFFFFFFFFFFFFFFFFFFFF AND PUSH32 0x8C5BE1E5EBEC7D5BD14F71427D1E84F3DD0314C0F7B2291E5B200AC8C7C3B925 DUP4 PUSH1 0x40 MLOAD PUSH2 0xD8D SWAP2 SWAP1 PUSH2 0x16D4 JUMP JUMPDEST PUSH1 0x40 MLOAD DUP1 SWAP2 SUB SWAP1 LOG3 POP POP POP JUMP JUMPDEST PUSH1 0x0 PUSH20 0xFFFFFFFFFFFFFFFFFFFFFFFFFFFFFFFFFFFFFFFF AND DUP4 PUSH20 0xFFFFFFFFFFFFFFFFFFFFFFFFFFFFFFFFFFFFFFFF AND EQ ISZERO PUSH2 0xE0A JUMPI PUSH1 0x40 MLOAD PUSH32 0x8C379A000000000000000000000000000000000000000000000000000000000 DUP2 MSTORE PUSH1 0x4 ADD PUSH2 0xE01 SWAP1 PUSH2 0x1694 JUMP JUMPDEST PUSH1 0x40 MLOAD DUP1 SWAP2 SUB SWAP1 REVERT JUMPDEST PUSH1 0x0 PUSH20 0xFFFFFFFFFFFFFFFFFFFFFFFFFFFFFFFFFFFFFFFF AND DUP3 PUSH20 0xFFFFFFFFFFFFFFFFFFFFFFFFFFFFFFFFFFFFFFFF AND EQ ISZERO PUSH2 0xE7A JUMPI PUSH1 0x40 MLOAD PUSH32 0x8C379A000000000000000000000000000000000000000000000000000000000 DUP2 MSTORE PUSH1 0x4 ADD PUSH2 0xE71 SWAP1 PUSH2 0x15D4 JUMP JUMPDEST PUSH1 0x40 MLOAD DUP1 SWAP2 SUB SWAP1 REVERT JUMPDEST PUSH2 0xEE6 DUP2 PUSH1 0x40 MLOAD DUP1 PUSH1 0x60 ADD PUSH1 0x40 MSTORE DUP1 PUSH1 0x26 DUP2 MSTORE PUSH1 0x20 ADD PUSH2 0x1AE0 PUSH1 0x26 SWAP2 CODECOPY PUSH1 0x3 PUSH1 0x0 DUP8 PUSH20 0xFFFFFFFFFFFFFFFFFFFFFFFFFFFFFFFFFFFFFFFF AND PUSH20 0xFFFFFFFFFFFFFFFFFFFFFFFFFFFFFFFFFFFFFFFF AND DUP2 MSTORE PUSH1 0x20 ADD SWAP1 DUP2 MSTORE PUSH1 0x20 ADD PUSH1 0x0 KECCAK256 SLOAD PUSH2 0x10BD SWAP1 SWAP3 SWAP2 SWAP1 PUSH4 0xFFFFFFFF AND JUMP JUMPDEST PUSH1 0x3 PUSH1 0x0 DUP6 PUSH20 0xFFFFFFFFFFFFFFFFFFFFFFFFFFFFFFFFFFFFFFFF AND PUSH20 0xFFFFFFFFFFFFFFFFFFFFFFFFFFFFFFFFFFFFFFFF AND DUP2 MSTORE PUSH1 0x20 ADD SWAP1 DUP2 MSTORE PUSH1 0x20 ADD PUSH1 0x0 KECCAK256 DUP2 SWAP1 SSTORE POP PUSH2 0xF7B DUP2 PUSH1 0x3 PUSH1 0x0 DUP6 PUSH20 0xFFFFFFFFFFFFFFFFFFFFFFFFFFFFFFFFFFFFFFFF AND PUSH20 0xFFFFFFFFFFFFFFFFFFFFFFFFFFFFFFFFFFFFFFFF AND DUP2 MSTORE PUSH1 0x20 ADD SWAP1 DUP2 MSTORE PUSH1 0x20 ADD PUSH1 0x0 KECCAK256 SLOAD PUSH2 0x1121 SWAP1 SWAP2 SWAP1 PUSH4 0xFFFFFFFF AND JUMP JUMPDEST PUSH1 0x3 PUSH1 0x0 DUP5 PUSH20 0xFFFFFFFFFFFFFFFFFFFFFFFFFFFFFFFFFFFFFFFF AND PUSH20 0xFFFFFFFFFFFFFFFFFFFFFFFFFFFFFFFFFFFFFFFF AND DUP2 MSTORE PUSH1 0x20 ADD SWAP1 DUP2 MSTORE PUSH1 0x20 ADD PUSH1 0x0 KECCAK256 DUP2 SWAP1 SSTORE POP DUP2 PUSH20 0xFFFFFFFFFFFFFFFFFFFFFFFFFFFFFFFFFFFFFFFF AND DUP4 PUSH20 0xFFFFFFFFFFFFFFFFFFFFFFFFFFFFFFFFFFFFFFFF AND PUSH32 0xDDF252AD1BE2C89B69C2B068FC378DAA952BA7F163C4A11628F55A4DF523B3EF DUP4 PUSH1 0x40 MLOAD PUSH2 0x101B SWAP2 SWAP1 PUSH2 0x16D4 JUMP JUMPDEST PUSH1 0x40 MLOAD DUP1 SWAP2 SUB SWAP1 LOG3 PUSH2 0x1075 DUP2 PUSH1 0x7 PUSH1 0x0 DUP7 PUSH20 0xFFFFFFFFFFFFFFFFFFFFFFFFFFFFFFFFFFFFFFFF AND PUSH20 0xFFFFFFFFFFFFFFFFFFFFFFFFFFFFFFFFFFFFFFFF AND DUP2 MSTORE PUSH1 0x20 ADD SWAP1 DUP2 MSTORE PUSH1 0x20 ADD PUSH1 0x0 KECCAK256 SLOAD PUSH2 0x1121 SWAP1 SWAP2 SWAP1 PUSH4 0xFFFFFFFF AND JUMP JUMPDEST PUSH1 0x7 PUSH1 0x0 DUP6 PUSH20 0xFFFFFFFFFFFFFFFFFFFFFFFFFFFFFFFFFFFFFFFF AND PUSH20 0xFFFFFFFFFFFFFFFFFFFFFFFFFFFFFFFFFFFFFFFF AND DUP2 MSTORE PUSH1 0x20 ADD SWAP1 DUP2 MSTORE PUSH1 0x20 ADD PUSH1 0x0 KECCAK256 DUP2 SWAP1 SSTORE POP POP POP POP JUMP JUMPDEST PUSH1 0x0 DUP4 DUP4 GT ISZERO DUP3 SWAP1 PUSH2 0x1105 JUMPI PUSH1 0x40 MLOAD PUSH32 0x8C379A000000000000000000000000000000000000000000000000000000000 DUP2 MSTORE PUSH1 0x4 ADD PUSH2 0x10FC SWAP2 SWAP1 PUSH2 0x15B2 JUMP JUMPDEST PUSH1 0x40 MLOAD DUP1 SWAP2 SUB SWAP1 REVERT JUMPDEST POP PUSH1 0x0 DUP4 DUP6 PUSH2 0x1114 SWAP2 SWAP1 PUSH2 0x1947 JUMP JUMPDEST SWAP1 POP DUP1 SWAP2 POP POP SWAP4 SWAP3 POP POP POP JUMP JUMPDEST PUSH1 0x0 DUP1 DUP3 DUP5 PUSH2 0x1130 SWAP2 SWAP1 PUSH2 0x1726 JUMP JUMPDEST SWAP1 POP DUP4 DUP2 LT ISZERO PUSH2 0x1175 JUMPI PUSH1 0x40 MLOAD PUSH32 0x8C379A000000000000000000000000000000000000000000000000000000000 DUP2 MSTORE PUSH1 0x4 ADD PUSH2 0x116C SWAP1 PUSH2 0x1654 JUMP JUMPDEST PUSH1 0x40 MLOAD DUP1 SWAP2 SUB SWAP1 REVERT JUMPDEST DUP1 SWAP2 POP POP SWAP3 SWAP2 POP POP JUMP JUMPDEST PUSH1 0x0 DUP2 CALLDATALOAD SWAP1 POP PUSH2 0x118E DUP2 PUSH2 0x1AB1 JUMP JUMPDEST SWAP3 SWAP2 POP POP JUMP JUMPDEST PUSH1 0x0 DUP2 CALLDATALOAD SWAP1 POP PUSH2 0x11A3 DUP2 PUSH2 0x1AC8 JUMP JUMPDEST SWAP3 SWAP2 POP POP JUMP JUMPDEST PUSH1 0x0 PUSH1 0x20 DUP3 DUP5 SUB SLT ISZERO PUSH2 0x11BB JUMPI PUSH1 0x0 DUP1 REVERT JUMPDEST PUSH1 0x0 PUSH2 0x11C9 DUP5 DUP3 DUP6 ADD PUSH2 0x117F JUMP JUMPDEST SWAP2 POP POP SWAP3 SWAP2 POP POP JUMP JUMPDEST PUSH1 0x0 DUP1 PUSH1 0x40 DUP4 DUP6 SUB SLT ISZERO PUSH2 0x11E5 JUMPI PUSH1 0x0 DUP1 REVERT JUMPDEST PUSH1 0x0 PUSH2 0x11F3 DUP6 DUP3 DUP7 ADD PUSH2 0x117F JUMP JUMPDEST SWAP3 POP POP PUSH1 0x20 PUSH2 0x1204 DUP6 DUP3 DUP7 ADD PUSH2 0x117F JUMP JUMPDEST SWAP2 POP POP SWAP3 POP SWAP3 SWAP1 POP JUMP JUMPDEST PUSH1 0x0 DUP1 PUSH1 0x0 PUSH1 0x60 DUP5 DUP7 SUB SLT ISZERO PUSH2 0x1223 JUMPI PUSH1 0x0 DUP1 REVERT JUMPDEST PUSH1 0x0 PUSH2 0x1231 DUP7 DUP3 DUP8 ADD PUSH2 0x117F JUMP JUMPDEST SWAP4 POP POP PUSH1 0x20 PUSH2 0x1242 DUP7 DUP3 DUP8 ADD PUSH2 0x117F JUMP JUMPDEST SWAP3 POP POP PUSH1 0x40 PUSH2 0x1253 DUP7 DUP3 DUP8 ADD PUSH2 0x1194 JUMP JUMPDEST SWAP2 POP POP SWAP3 POP SWAP3 POP SWAP3 JUMP JUMPDEST PUSH1 0x0 DUP1 PUSH1 0x40 DUP4 DUP6 SUB SLT ISZERO PUSH2 0x1270 JUMPI PUSH1 0x0 DUP1 REVERT JUMPDEST PUSH1 0x0 PUSH2 0x127E DUP6 DUP3 DUP7 ADD PUSH2 0x117F JUMP JUMPDEST SWAP3 POP POP PUSH1 0x20 PUSH2 0x128F DUP6 DUP3 DUP7 ADD PUSH2 0x1194 JUMP JUMPDEST SWAP2 POP POP SWAP3 POP SWAP3 SWAP1 POP JUMP JUMPDEST PUSH2 0x12A2 DUP2 PUSH2 0x198D JUMP JUMPDEST DUP3 MSTORE POP POP JUMP JUMPDEST PUSH1 0x0 PUSH2 0x12B3 DUP3 PUSH2 0x170A JUMP JUMPDEST PUSH2 0x12BD DUP2 DUP6 PUSH2 0x1715 JUMP JUMPDEST SWAP4 POP PUSH2 0x12CD DUP2 DUP6 PUSH1 0x20 DUP7 ADD PUSH2 0x19D0 JUMP JUMPDEST PUSH2 0x12D6 DUP2 PUSH2 0x1A93 JUMP JUMPDEST DUP5 ADD SWAP2 POP POP SWAP3 SWAP2 POP POP JUMP JUMPDEST PUSH1 0x0 PUSH2 0x12EE PUSH1 0x23 DUP4 PUSH2 0x1715 JUMP JUMPDEST SWAP2 POP PUSH32 0x45524332303A207472616E7366657220746F20746865207A65726F2061646472 PUSH1 0x0 DUP4 ADD MSTORE PUSH32 0x6573730000000000000000000000000000000000000000000000000000000000 PUSH1 0x20 DUP4 ADD MSTORE PUSH1 0x40 DUP3 ADD SWAP1 POP SWAP2 SWAP1 POP JUMP JUMPDEST PUSH1 0x0 PUSH2 0x1354 PUSH1 0x7 DUP4 PUSH2 0x1715 JUMP JUMPDEST SWAP2 POP PUSH32 0x6E6F206D6F726500000000000000000000000000000000000000000000000000 PUSH1 0x0 DUP4 ADD MSTORE PUSH1 0x20 DUP3 ADD SWAP1 POP SWAP2 SWAP1 POP JUMP JUMPDEST PUSH1 0x0 PUSH2 0x1394 PUSH1 0xF DUP4 PUSH2 0x1715 JUMP JUMPDEST SWAP2 POP PUSH32 0x6974206973203020616464726573730000000000000000000000000000000000 PUSH1 0x0 DUP4 ADD MSTORE PUSH1 0x20 DUP3 ADD SWAP1 POP SWAP2 SWAP1 POP JUMP JUMPDEST PUSH1 0x0 PUSH2 0x13D4 PUSH1 0x22 DUP4 PUSH2 0x1715 JUMP JUMPDEST SWAP2 POP PUSH32 0x45524332303A20617070726F766520746F20746865207A65726F206164647265 PUSH1 0x0 DUP4 ADD MSTORE PUSH32 0x7373000000000000000000000000000000000000000000000000000000000000 PUSH1 0x20 DUP4 ADD MSTORE PUSH1 0x40 DUP3 ADD SWAP1 POP SWAP2 SWAP1 POP JUMP JUMPDEST PUSH1 0x0 PUSH2 0x143A PUSH1 0x1B DUP4 PUSH2 0x1715 JUMP JUMPDEST SWAP2 POP PUSH32 0x536166654D6174683A206164646974696F6E206F766572666C6F770000000000 PUSH1 0x0 DUP4 ADD MSTORE PUSH1 0x20 DUP3 ADD SWAP1 POP SWAP2 SWAP1 POP JUMP JUMPDEST PUSH1 0x0 PUSH2 0x147A PUSH1 0xA DUP4 PUSH2 0x1715 JUMP JUMPDEST SWAP2 POP PUSH32 0x6E6F74206D616E61676500000000000000000000000000000000000000000000 PUSH1 0x0 DUP4 ADD MSTORE PUSH1 0x20 DUP3 ADD SWAP1 POP SWAP2 SWAP1 POP JUMP JUMPDEST PUSH1 0x0 PUSH2 0x14BA PUSH1 0x25 DUP4 PUSH2 0x1715 JUMP JUMPDEST SWAP2 POP PUSH32 0x45524332303A207472616E736665722066726F6D20746865207A65726F206164 PUSH1 0x0 DUP4 ADD MSTORE PUSH32 0x6472657373000000000000000000000000000000000000000000000000000000 PUSH1 0x20 DUP4 ADD MSTORE PUSH1 0x40 DUP3 ADD SWAP1 POP SWAP2 SWAP1 POP JUMP JUMPDEST PUSH1 0x0 PUSH2 0x1520 PUSH1 0x24 DUP4 PUSH2 0x1715 JUMP JUMPDEST SWAP2 POP PUSH32 0x45524332303A20617070726F76652066726F6D20746865207A65726F20616464 PUSH1 0x0 DUP4 ADD MSTORE PUSH32 0x7265737300000000000000000000000000000000000000000000000000000000 PUSH1 0x20 DUP4 ADD MSTORE PUSH1 0x40 DUP3 ADD SWAP1 POP SWAP2 SWAP1 POP JUMP JUMPDEST PUSH2 0x1582 DUP2 PUSH2 0x19B9 JUMP JUMPDEST DUP3 MSTORE POP POP JUMP JUMPDEST PUSH2 0x1591 DUP2 PUSH2 0x19C3 JUMP JUMPDEST DUP3 MSTORE POP POP JUMP JUMPDEST PUSH1 0x0 PUSH1 0x20 DUP3 ADD SWAP1 POP PUSH2 0x15AC PUSH1 0x0 DUP4 ADD DUP5 PUSH2 0x1299 JUMP JUMPDEST SWAP3 SWAP2 POP POP JUMP JUMPDEST PUSH1 0x0 PUSH1 0x20 DUP3 ADD SWAP1 POP DUP2 DUP2 SUB PUSH1 0x0 DUP4 ADD MSTORE PUSH2 0x15CC DUP2 DUP5 PUSH2 0x12A8 JUMP JUMPDEST SWAP1 POP SWAP3 SWAP2 POP POP JUMP JUMPDEST PUSH1 0x0 PUSH1 0x20 DUP3 ADD SWAP1 POP DUP2 DUP2 SUB PUSH1 0x0 DUP4 ADD MSTORE PUSH2 0x15ED DUP2 PUSH2 0x12E1 JUMP JUMPDEST SWAP1 POP SWAP2 SWAP1 POP JUMP JUMPDEST PUSH1 0x0 PUSH1 0x20 DUP3 ADD SWAP1 POP DUP2 DUP2 SUB PUSH1 0x0 DUP4 ADD MSTORE PUSH2 0x160D DUP2 PUSH2 0x1347 JUMP JUMPDEST SWAP1 POP SWAP2 SWAP1 POP JUMP JUMPDEST PUSH1 0x0 PUSH1 0x20 DUP3 ADD SWAP1 POP DUP2 DUP2 SUB PUSH1 0x0 DUP4 ADD MSTORE PUSH2 0x162D DUP2 PUSH2 0x1387 JUMP JUMPDEST SWAP1 POP SWAP2 SWAP1 POP JUMP JUMPDEST PUSH1 0x0 PUSH1 0x20 DUP3 ADD SWAP1 POP DUP2 DUP2 SUB PUSH1 0x0 DUP4 ADD MSTORE PUSH2 0x164D DUP2 PUSH2 0x13C7 JUMP JUMPDEST SWAP1 POP SWAP2 SWAP1 POP JUMP JUMPDEST PUSH1 0x0 PUSH1 0x20 DUP3 ADD SWAP1 POP DUP2 DUP2 SUB PUSH1 0x0 DUP4 ADD MSTORE PUSH2 0x166D DUP2 PUSH2 0x142D JUMP JUMPDEST SWAP1 POP SWAP2 SWAP1 POP JUMP JUMPDEST PUSH1 0x0 PUSH1 0x20 DUP3 ADD SWAP1 POP DUP2 DUP2 SUB PUSH1 0x0 DUP4 ADD MSTORE PUSH2 0x168D DUP2 PUSH2 0x146D JUMP JUMPDEST SWAP1 POP SWAP2 SWAP1 POP JUMP JUMPDEST PUSH1 0x0 PUSH1 0x20 DUP3 ADD SWAP1 POP DUP2 DUP2 SUB PUSH1 0x0 DUP4 ADD MSTORE PUSH2 0x16AD DUP2 PUSH2 0x14AD JUMP JUMPDEST SWAP1 POP SWAP2 SWAP1 POP JUMP JUMPDEST PUSH1 0x0 PUSH1 0x20 DUP3 ADD SWAP1 POP DUP2 DUP2 SUB PUSH1 0x0 DUP4 ADD MSTORE PUSH2 0x16CD DUP2 PUSH2 0x1513 JUMP JUMPDEST SWAP1 POP SWAP2 SWAP1 POP JUMP JUMPDEST PUSH1 0x0 PUSH1 0x20 DUP3 ADD SWAP1 POP PUSH2 0x16E9 PUSH1 0x0 DUP4 ADD DUP5 PUSH2 0x1579 JUMP JUMPDEST SWAP3 SWAP2 POP POP JUMP JUMPDEST PUSH1 0x0 PUSH1 0x20 DUP3 ADD SWAP1 POP PUSH2 0x1704 PUSH1 0x0 DUP4 ADD DUP5 PUSH2 0x1588 JUMP JUMPDEST SWAP3 SWAP2 POP POP JUMP JUMPDEST PUSH1 0x0 DUP2 MLOAD SWAP1 POP SWAP2 SWAP1 POP JUMP JUMPDEST PUSH1 0x0 DUP3 DUP3 MSTORE PUSH1 0x20 DUP3 ADD SWAP1 POP SWAP3 SWAP2 POP POP JUMP JUMPDEST PUSH1 0x0 PUSH2 0x1731 DUP3 PUSH2 0x19B9 JUMP JUMPDEST SWAP2 POP PUSH2 0x173C DUP4 PUSH2 0x19B9 JUMP JUMPDEST SWAP3 POP DUP3 PUSH32 0xFFFFFFFFFFFFFFFFFFFFFFFFFFFFFFFFFFFFFFFFFFFFFFFFFFFFFFFFFFFFFFFF SUB DUP3 GT ISZERO PUSH2 0x1771 JUMPI PUSH2 0x1770 PUSH2 0x1A35 JUMP JUMPDEST JUMPDEST DUP3 DUP3 ADD SWAP1 POP SWAP3 SWAP2 POP POP JUMP JUMPDEST PUSH1 0x0 DUP1 DUP3 SWAP2 POP DUP4 SWAP1 POP JUMPDEST PUSH1 0x1 DUP6 GT ISZERO PUSH2 0x17C6 JUMPI DUP1 DUP7 DIV DUP2 GT ISZERO PUSH2 0x17A2 JUMPI PUSH2 0x17A1 PUSH2 0x1A35 JUMP JUMPDEST JUMPDEST PUSH1 0x1 DUP6 AND ISZERO PUSH2 0x17B1 JUMPI DUP1 DUP3 MUL SWAP2 POP JUMPDEST DUP1 DUP2 MUL SWAP1 POP PUSH2 0x17BF DUP6 PUSH2 0x1AA4 JUMP JUMPDEST SWAP5 POP PUSH2 0x1786 JUMP JUMPDEST SWAP5 POP SWAP5 SWAP3 POP POP POP JUMP JUMPDEST PUSH1 0x0 PUSH2 0x17DA DUP3 PUSH2 0x19B9 JUMP JUMPDEST SWAP2 POP PUSH2 0x17E5 DUP4 PUSH2 0x19C3 JUMP JUMPDEST SWAP3 POP PUSH2 0x1812 PUSH32 0xFFFFFFFFFFFFFFFFFFFFFFFFFFFFFFFFFFFFFFFFFFFFFFFFFFFFFFFFFFFFFFFF DUP5 DUP5 PUSH2 0x181A JUMP JUMPDEST SWAP1 POP SWAP3 SWAP2 POP POP JUMP JUMPDEST PUSH1 0x0 DUP3 PUSH2 0x182A JUMPI PUSH1 0x1 SWAP1 POP PUSH2 0x18E6 JUMP JUMPDEST DUP2 PUSH2 0x1838 JUMPI PUSH1 0x0 SWAP1 POP PUSH2 0x18E6 JUMP JUMPDEST DUP2 PUSH1 0x1 DUP2 EQ PUSH2 0x184E JUMPI PUSH1 0x2 DUP2 EQ PUSH2 0x1858 JUMPI PUSH2 0x1887 JUMP JUMPDEST PUSH1 0x1 SWAP2 POP POP PUSH2 0x18E6 JUMP JUMPDEST PUSH1 0xFF DUP5 GT ISZERO PUSH2 0x186A JUMPI PUSH2 0x1869 PUSH2 0x1A35 JUMP JUMPDEST JUMPDEST DUP4 PUSH1 0x2 EXP SWAP2 POP DUP5 DUP3 GT ISZERO PUSH2 0x1881 JUMPI PUSH2 0x1880 PUSH2 0x1A35 JUMP JUMPDEST JUMPDEST POP PUSH2 0x18E6 JUMP JUMPDEST POP PUSH1 0x20 DUP4 LT PUSH2 0x133 DUP4 LT AND PUSH1 0x4E DUP5 LT PUSH1 0xB DUP5 LT AND OR ISZERO PUSH2 0x18BC JUMPI DUP3 DUP3 EXP SWAP1 POP DUP4 DUP2 GT ISZERO PUSH2 0x18B7 JUMPI PUSH2 0x18B6 PUSH2 0x1A35 JUMP JUMPDEST JUMPDEST PUSH2 0x18E6 JUMP JUMPDEST PUSH2 0x18C9 DUP5 DUP5 DUP5 PUSH1 0x1 PUSH2 0x177C JUMP JUMPDEST SWAP3 POP SWAP1 POP DUP2 DUP5 DIV DUP2 GT ISZERO PUSH2 0x18E0 JUMPI PUSH2 0x18DF PUSH2 0x1A35 JUMP JUMPDEST JUMPDEST DUP2 DUP2 MUL SWAP1 POP JUMPDEST SWAP4 SWAP3 POP POP POP JUMP JUMPDEST PUSH1 0x0 PUSH2 0x18F8 DUP3 PUSH2 0x19B9 JUMP JUMPDEST SWAP2 POP PUSH2 0x1903 DUP4 PUSH2 0x19B9 JUMP JUMPDEST SWAP3 POP DUP2 PUSH32 0xFFFFFFFFFFFFFFFFFFFFFFFFFFFFFFFFFFFFFFFFFFFFFFFFFFFFFFFFFFFFFFFF DIV DUP4 GT DUP3 ISZERO ISZERO AND ISZERO PUSH2 0x193C JUMPI PUSH2 0x193B PUSH2 0x1A35 JUMP JUMPDEST JUMPDEST DUP3 DUP3 MUL SWAP1 POP SWAP3 SWAP2 POP POP JUMP JUMPDEST PUSH1 0x0 PUSH2 0x1952 DUP3 PUSH2 0x19B9 JUMP JUMPDEST SWAP2 POP PUSH2 0x195D DUP4 PUSH2 0x19B9 JUMP JUMPDEST SWAP3 POP DUP3 DUP3 LT ISZERO PUSH2 0x1970 JUMPI PUSH2 0x196F PUSH2 0x1A35 JUMP JUMPDEST JUMPDEST DUP3 DUP3 SUB SWAP1 POP SWAP3 SWAP2 POP POP JUMP JUMPDEST PUSH1 0x0 PUSH2 0x1986 DUP3 PUSH2 0x1999 JUMP JUMPDEST SWAP1 POP SWAP2 SWAP1 POP JUMP JUMPDEST PUSH1 0x0 DUP2 ISZERO ISZERO SWAP1 POP SWAP2 SWAP1 POP JUMP JUMPDEST PUSH1 0x0 PUSH20 0xFFFFFFFFFFFFFFFFFFFFFFFFFFFFFFFFFFFFFFFF DUP3 AND SWAP1 POP SWAP2 SWAP1 POP JUMP JUMPDEST PUSH1 0x0 DUP2 SWAP1 POP SWAP2 SWAP1 POP JUMP JUMPDEST PUSH1 0x0 PUSH1 0xFF DUP3 AND SWAP1 POP SWAP2 SWAP1 POP JUMP JUMPDEST PUSH1 0x0 JUMPDEST DUP4 DUP2 LT ISZERO PUSH2 0x19EE JUMPI DUP1 DUP3 ADD MLOAD DUP2 DUP5 ADD MSTORE PUSH1 0x20 DUP2 ADD SWAP1 POP PUSH2 0x19D3 JUMP JUMPDEST DUP4 DUP2 GT ISZERO PUSH2 0x19FD JUMPI PUSH1 0x0 DUP5 DUP5 ADD MSTORE JUMPDEST POP POP POP POP JUMP JUMPDEST PUSH1 0x0 PUSH1 0x2 DUP3 DIV SWAP1 POP PUSH1 0x1 DUP3 AND DUP1 PUSH2 0x1A1B JUMPI PUSH1 0x7F DUP3 AND SWAP2 POP JUMPDEST PUSH1 0x20 DUP3 LT DUP2 EQ ISZERO PUSH2 0x1A2F JUMPI PUSH2 0x1A2E PUSH2 0x1A64 JUMP JUMPDEST JUMPDEST POP SWAP2 SWAP1 POP JUMP JUMPDEST PUSH32 0x4E487B7100000000000000000000000000000000000000000000000000000000 PUSH1 0x0 MSTORE PUSH1 0x11 PUSH1 0x4 MSTORE PUSH1 0x24 PUSH1 0x0 REVERT JUMPDEST PUSH32 0x4E487B7100000000000000000000000000000000000000000000000000000000 PUSH1 0x0 MSTORE PUSH1 0x22 PUSH1 0x4 MSTORE PUSH1 0x24 PUSH1 0x0 REVERT JUMPDEST PUSH1 0x0 PUSH1 0x1F NOT PUSH1 0x1F DUP4 ADD AND SWAP1 POP SWAP2 SWAP1 POP JUMP JUMPDEST PUSH1 0x0 DUP2 PUSH1 0x1 SHR SWAP1 POP SWAP2 SWAP1 POP JUMP JUMPDEST PUSH2 0x1ABA DUP2 PUSH2 0x197B JUMP JUMPDEST DUP2 EQ PUSH2 0x1AC5 JUMPI PUSH1 0x0 DUP1 REVERT JUMPDEST POP JUMP JUMPDEST PUSH2 0x1AD1 DUP2 PUSH2 0x19B9 JUMP JUMPDEST DUP2 EQ PUSH2 0x1ADC JUMPI PUSH1 0x0 DUP1 REVERT JUMPDEST POP JUMP INVALID GASLIMIT MSTORE NUMBER ORIGIN ADDRESS GASPRICE KECCAK256 PUSH21 0x72616E7366657220616D6F756E7420657863656564 PUSH20 0x2062616C616E63652045524332303A207472616E PUSH20 0x66657220616D6F756E7420657863656564732061 PUSH13 0x6C6F77616E6365A26469706673 PC 0x22 SLT KECCAK256 SWAP7 0xE7 DUP10 SELFDESTRUCT PUSH7 0x4A34463362E9CE 0xCB 0xD2 PUSH12 0x15DCADE0B819B3568F9EE201 0x48 SIGNEXTEND 0xE2 0x5F 0xD8 PUSH5 0x736F6C6343 STOP ADDMOD STOP STOP CALLER "
				},
				"gasEstimates": {
					"creation": {
						"codeDepositCost": "1402400",
						"executionCost": "infinite",
						"totalCost": "infinite"
					},
					"external": {
						"_creatmanage(address)": "21434",
						"_randommint(address,uint256)": "infinite",
						"allowance(address,address)": "infinite",
						"approve(address,uint256)": "infinite",
						"balanceOf(address)": "1630",
						"burn(address,uint256)": "infinite",
						"decimals()": "1238",
						"getTotelTransfer(address)": "1667",
						"name()": "infinite",
						"symbol()": "infinite",
						"tokenmanage(address)": "1611",
						"toralTransfer(address)": "1582",
						"totalSupply()": "1160",
						"transfer(address,uint256)": "infinite",
						"transferFrom(address,address,uint256)": "infinite"
					},
					"internal": {
						"_approve(address,address,uint256)": "infinite",
						"_burn(address,uint256)": "infinite",
						"_mint(address,uint256)": "infinite",
						"_transfer(address,address,uint256)": "infinite"
					}
				},
				"methodIdentifiers": {
					"_creatmanage(address)": "b94072f6",
					"_randommint(address,uint256)": "a80b2004",
					"allowance(address,address)": "dd62ed3e",
					"approve(address,uint256)": "095ea7b3",
					"balanceOf(address)": "70a08231",
					"burn(address,uint256)": "9dc29fac",
					"decimals()": "313ce567",
					"getTotelTransfer(address)": "f9db1562",
					"name()": "06fdde03",
					"symbol()": "95d89b41",
					"tokenmanage(address)": "e27cedf3",
					"toralTransfer(address)": "11eb7b7d",
					"totalSupply()": "18160ddd",
					"transfer(address,uint256)": "a9059cbb",
					"transferFrom(address,address,uint256)": "23b872dd"
				}
			},
			"storageLayout": {
				"storage": [
					{
						"astId": 276,
						"contract": "shijian/ERC20Sample.sol:ERC20",
						"label": "name",
						"offset": 0,
						"slot": "0",
						"type": "t_string_storage"
					},
					{
						"astId": 279,
						"contract": "shijian/ERC20Sample.sol:ERC20",
						"label": "symbol",
						"offset": 0,
						"slot": "1",
						"type": "t_string_storage"
					},
					{
						"astId": 282,
						"contract": "shijian/ERC20Sample.sol:ERC20",
						"label": "decimals",
						"offset": 0,
						"slot": "2",
						"type": "t_uint8"
					},
					{
						"astId": 286,
						"contract": "shijian/ERC20Sample.sol:ERC20",
						"label": "_balances",
						"offset": 0,
						"slot": "3",
						"type": "t_mapping(t_address,t_uint256)"
					},
					{
						"astId": 292,
						"contract": "shijian/ERC20Sample.sol:ERC20",
						"label": "_allowances",
						"offset": 0,
						"slot": "4",
						"type": "t_mapping(t_address,t_mapping(t_address,t_uint256))"
					},
					{
						"astId": 294,
						"contract": "shijian/ERC20Sample.sol:ERC20",
						"label": "_totalSupply",
						"offset": 0,
						"slot": "5",
						"type": "t_uint256"
					},
					{
						"astId": 298,
						"contract": "shijian/ERC20Sample.sol:ERC20",
						"label": "tokenmanage",
						"offset": 0,
						"slot": "6",
						"type": "t_mapping(t_address,t_bool)"
					},
					{
						"astId": 302,
						"contract": "shijian/ERC20Sample.sol:ERC20",
						"label": "toralTransfer",
						"offset": 0,
						"slot": "7",
						"type": "t_mapping(t_address,t_uint256)"
					}
				],
				"types": {
					"t_address": {
						"encoding": "inplace",
						"label": "address",
						"numberOfBytes": "20"
					},
					"t_bool": {
						"encoding": "inplace",
						"label": "bool",
						"numberOfBytes": "1"
					},
					"t_mapping(t_address,t_bool)": {
						"encoding": "mapping",
						"key": "t_address",
						"label": "mapping(address => bool)",
						"numberOfBytes": "32",
						"value": "t_bool"
					},
					"t_mapping(t_address,t_mapping(t_address,t_uint256))": {
						"encoding": "mapping",
						"key": "t_address",
						"label": "mapping(address => mapping(address => uint256))",
						"numberOfBytes": "32",
						"value": "t_mapping(t_address,t_uint256)"
					},
					"t_mapping(t_address,t_uint256)": {
						"encoding": "mapping",
						"key": "t_address",
						"label": "mapping(address => uint256)",
						"numberOfBytes": "32",
						"value": "t_uint256"
					},
					"t_string_storage": {
						"encoding": "bytes",
						"label": "string",
						"numberOfBytes": "32"
					},
					"t_uint256": {
						"encoding": "inplace",
						"label": "uint256",
						"numberOfBytes": "32"
					},
					"t_uint8": {
						"encoding": "inplace",
						"label": "uint8",
						"numberOfBytes": "1"
					}
				}
			},
			"userdoc": {
				"kind": "user",
				"methods": {},
				"version": 1
			}
		}
	}
}