{
	"data": {
		"bytecode": {
			"linkReferences": {},
			"object": "60a060405234801562000010575f80fd5b506040516200190b3803806200190b8339818101604052810190620000369190620000d6565b8073ffffffffffffffffffffffffffffffffffffffff1660808173ffffffffffffffffffffffffffffffffffffffff16815250505062000106565b5f80fd5b5f73ffffffffffffffffffffffffffffffffffffffff82169050919050565b5f620000a08262000075565b9050919050565b620000b28162000094565b8114620000bd575f80fd5b50565b5f81519050620000d081620000a7565b92915050565b5f60208284031215620000ee57620000ed62000071565b5b5f620000fd84828501620000c0565b91505092915050565b6080516117d06200013b5f395f81816103d0015281816108a701528181610a5e01528181610be50152610cd601526117d05ff3fe608060405234801561000f575f80fd5b506004361061009c575f3560e01c80636d4ce63c116100645780636d4ce63c14610147578063711853ab14610165578063aa4fb63a14610181578063fc0c546a146101b1578063fde327be146101cf5761009c565b806306661abd146100a0578063141961bc146100be578063278ecde1146100f35780632c63f1461461010f578063379607f51461012b575b5f80fd5b6100a86101eb565b6040516100b59190610e56565b60405180910390f35b6100d860048036038101906100d39190610e9d565b6101f0565b6040516100ea96959493929190610f3f565b60405180910390f35b61010d60048036038101906101089190610e9d565b610273565b005b61012960048036038101906101249190610fc8565b6104b3565b005b61014560048036038101906101409190610e9d565b610708565b005b61014f6109c8565b60405161015c9190610e56565b60405180910390f35b61017f600480360381019061017a9190611018565b6109cf565b005b61019b60048036038101906101969190611080565b610bc3565b6040516101a89190610e56565b60405180910390f35b6101b9610be3565b6040516101c69190611119565b60405180910390f35b6101e960048036038101906101e49190611018565b610c07565b005b5f5481565b6001602052805f5260405f205f91509050805f015f9054906101000a900473ffffffffffffffffffffffffffffffffffffffff1690806001015490806002015490806003015f9054906101000a900463ffffffff16908060030160049054906101000a900463ffffffff16908060030160089054906101000a900460ff16905086565b5f60015f8381526020019081526020015f2090508060030160049054906101000a900463ffffffff1663ffffffff1642116102e3576040517f08c379a00000000000000000000000000000000000000000000000000000000081526004016102da9061118c565b60405180910390fd5b806001015481600201541061032d576040517f08c379a0000000000000000000000000000000000000000000000000000000008152600401610324906111f4565b60405180910390fd5b5f60025f8481526020019081526020015f205f3373ffffffffffffffffffffffffffffffffffffffff1673ffffffffffffffffffffffffffffffffffffffff1681526020019081526020015f205490505f60025f8581526020019081526020015f205f3373ffffffffffffffffffffffffffffffffffffffff1673ffffffffffffffffffffffffffffffffffffffff1681526020019081526020015f20819055507f000000000000000000000000000000000000000000000000000000000000000073ffffffffffffffffffffffffffffffffffffffff1663a9059cbb33836040518363ffffffff1660e01b8152600401610429929190611212565b6020604051808303815f875af1158015610445573d5f803e3d5ffd5b505050506040513d601f19601f820116820180604052508101906104699190611263565b505f82600201819055507f21e12a7cad0da5928167e1084ea4d5fdf8d9af66657a2543a9ac76a0ca0814778333836040516104a69392919061128e565b60405180910390a1505050565b428263ffffffff1610156104fc576040517f08c379a00000000000000000000000000000000000000000000000000000000081526004016104f39061130d565b60405180910390fd5b8163ffffffff168163ffffffff16101561054b576040517f08c379a000000000000000000000000000000000000000000000000000000000815260040161054290611375565b60405180910390fd5b6104b08261055991906113c0565b63ffffffff168163ffffffff1611156105a7576040517f08c379a000000000000000000000000000000000000000000000000000000000815260040161059e90611441565b60405180910390fd5b5f808154809291906105b89061145f565b91905055503360015f805481526020019081526020015f205f015f6101000a81548173ffffffffffffffffffffffffffffffffffffffff021916908373ffffffffffffffffffffffffffffffffffffffff1602179055508260015f805481526020019081526020015f20600101819055508160015f805481526020019081526020015f206003015f6101000a81548163ffffffff021916908363ffffffff1602179055508060015f805481526020019081526020015f2060030160046101000a81548163ffffffff021916908363ffffffff1602179055507f0601cd0d650b473037e838a2696d41e654433d065b3f56b28d1d3302e44a304f5f5460015f805481526020019081526020015f205f015f9054906101000a900473ffffffffffffffffffffffffffffffffffffffff168585856040516106fb9594939291906114a6565b60405180910390a1505050565b5f60015f8381526020019081526020015f2090503373ffffffffffffffffffffffffffffffffffffffff16815f015f9054906101000a900473ffffffffffffffffffffffffffffffffffffffff1673ffffffffffffffffffffffffffffffffffffffff16146107ac576040517f08c379a00000000000000000000000000000000000000000000000000000000081526004016107a390611541565b60405180910390fd5b8060030160049054906101000a900463ffffffff1663ffffffff164211610808576040517f08c379a00000000000000000000000000000000000000000000000000000000081526004016107ff9061118c565b60405180910390fd5b806001015481600201541015610853576040517f08c379a000000000000000000000000000000000000000000000000000000000815260040161084a906115a9565b60405180910390fd5b8060030160089054906101000a900460ff16156108a5576040517f08c379a000000000000000000000000000000000000000000000000000000000815260040161089c90611611565b60405180910390fd5b7f000000000000000000000000000000000000000000000000000000000000000073ffffffffffffffffffffffffffffffffffffffff1663a9059cbb825f015f9054906101000a900473ffffffffffffffffffffffffffffffffffffffff1683600201546040518363ffffffff1660e01b8152600401610926929190611212565b6020604051808303815f875af1158015610942573d5f803e3d5ffd5b505050506040513d601f19601f820116820180604052508101906109669190611263565b5060018160030160086101000a81548160ff0219169083151502179055505f81600201819055507f7bb2b3c10797baccb6f8c4791f1edd6ca2f0d028ee0eda64b01a9a57e3a653f7826040516109bc9190610e56565b60405180910390a15050565b5f42905090565b60015f8381526020019081526020015f2060030160049054906101000a900463ffffffff1663ffffffff164210610a04575f80fd5b60025f8381526020019081526020015f205f3373ffffffffffffffffffffffffffffffffffffffff1673ffffffffffffffffffffffffffffffffffffffff1681526020019081526020015f2054811115610a5c575f80fd5b7f000000000000000000000000000000000000000000000000000000000000000073ffffffffffffffffffffffffffffffffffffffff1663a9059cbb33836040518363ffffffff1660e01b8152600401610ab7929190611212565b6020604051808303815f875af1158015610ad3573d5f803e3d5ffd5b505050506040513d601f19601f82011682018060405250810190610af79190611263565b508060015f8481526020019081526020015f206002015f828254610b1b919061162f565b925050819055508060025f8481526020019081526020015f205f3373ffffffffffffffffffffffffffffffffffffffff1673ffffffffffffffffffffffffffffffffffffffff1681526020019081526020015f205f828254610b7d919061162f565b925050819055507f2eeeab891b26a214d1b25749f88a406bdea852bd8c9bfda977e0ef8114c180ba823383604051610bb79392919061128e565b60405180910390a15050565b6002602052815f5260405f20602052805f5260405f205f91509150505481565b7f000000000000000000000000000000000000000000000000000000000000000081565b5f60015f8481526020019081526020015f209050806003015f9054906101000a900463ffffffff1663ffffffff16421015610c77576040517f08c379a0000000000000000000000000000000000000000000000000000000008152600401610c6e906116ac565b60405180910390fd5b8060030160049054906101000a900463ffffffff1663ffffffff16421115610cd4576040517f08c379a0000000000000000000000000000000000000000000000000000000008152600401610ccb90611714565b60405180910390fd5b7f000000000000000000000000000000000000000000000000000000000000000073ffffffffffffffffffffffffffffffffffffffff166323b872dd3330856040518463ffffffff1660e01b8152600401610d3193929190611732565b6020604051808303815f875af1158015610d4d573d5f803e3d5ffd5b505050506040513d601f19601f82011682018060405250810190610d719190611263565b508160015f8581526020019081526020015f206002015f828254610d959190611767565b925050819055508160025f8581526020019081526020015f205f3373ffffffffffffffffffffffffffffffffffffffff1673ffffffffffffffffffffffffffffffffffffffff1681526020019081526020015f205f828254610df79190611767565b925050819055507f06bdb975df800a73232998e71ed585d536222f1dfeaa622d7f62a23ada686c82833384604051610e319392919061128e565b60405180910390a1505050565b5f819050919050565b610e5081610e3e565b82525050565b5f602082019050610e695f830184610e47565b92915050565b5f80fd5b610e7c81610e3e565b8114610e86575f80fd5b50565b5f81359050610e9781610e73565b92915050565b5f60208284031215610eb257610eb1610e6f565b5b5f610ebf84828501610e89565b91505092915050565b5f73ffffffffffffffffffffffffffffffffffffffff82169050919050565b5f610ef182610ec8565b9050919050565b610f0181610ee7565b82525050565b5f63ffffffff82169050919050565b610f1f81610f07565b82525050565b5f8115159050919050565b610f3981610f25565b82525050565b5f60c082019050610f525f830189610ef8565b610f5f6020830188610e47565b610f6c6040830187610e47565b610f796060830186610f16565b610f866080830185610f16565b610f9360a0830184610f30565b979650505050505050565b610fa781610f07565b8114610fb1575f80fd5b50565b5f81359050610fc281610f9e565b92915050565b5f805f60608486031215610fdf57610fde610e6f565b5b5f610fec86828701610e89565b9350506020610ffd86828701610fb4565b925050604061100e86828701610fb4565b9150509250925092565b5f806040838503121561102e5761102d610e6f565b5b5f61103b85828601610e89565b925050602061104c85828601610e89565b9150509250929050565b61105f81610ee7565b8114611069575f80fd5b50565b5f8135905061107a81611056565b92915050565b5f806040838503121561109657611095610e6f565b5b5f6110a385828601610e89565b92505060206110b48582860161106c565b9150509250929050565b5f819050919050565b5f6110e16110dc6110d784610ec8565b6110be565b610ec8565b9050919050565b5f6110f2826110c7565b9050919050565b5f611103826110e8565b9050919050565b611113816110f9565b82525050565b5f60208201905061112c5f83018461110a565b92915050565b5f82825260208201905092915050565b7f6e6f7420656e64656400000000000000000000000000000000000000000000005f82015250565b5f611176600983611132565b915061118182611142565b602082019050919050565b5f6020820190508181035f8301526111a38161116a565b9050919050565b7f706c6564676564203e3d20676f616c00000000000000000000000000000000005f82015250565b5f6111de600f83611132565b91506111e9826111aa565b602082019050919050565b5f6020820190508181035f83015261120b816111d2565b9050919050565b5f6040820190506112255f830185610ef8565b6112326020830184610e47565b9392505050565b61124281610f25565b811461124c575f80fd5b50565b5f8151905061125d81611239565b92915050565b5f6020828403121561127857611277610e6f565b5b5f6112858482850161124f565b91505092915050565b5f6060820190506112a15f830186610e47565b6112ae6020830185610ef8565b6112bb6040830184610e47565b949350505050565b7f7374617274206174203c206e6f770000000000000000000000000000000000005f82015250565b5f6112f7600e83611132565b9150611302826112c3565b602082019050919050565b5f6020820190508181035f830152611324816112eb565b9050919050565b7f656e64206174203c2073746172742061740000000000000000000000000000005f82015250565b5f61135f601183611132565b915061136a8261132b565b602082019050919050565b5f6020820190508181035f83015261138c81611353565b9050919050565b7f4e487b71000000000000000000000000000000000000000000000000000000005f52601160045260245ffd5b5f6113ca82610f07565b91506113d583610f07565b9250828201905063ffffffff8111156113f1576113f0611393565b5b92915050565b7f656e64206174203e206d6178206475726174696f6e00000000000000000000005f82015250565b5f61142b601583611132565b9150611436826113f7565b602082019050919050565b5f6020820190508181035f8301526114588161141f565b9050919050565b5f61146982610e3e565b91507fffffffffffffffffffffffffffffffffffffffffffffffffffffffffffffffff820361149b5761149a611393565b5b600182019050919050565b5f60a0820190506114b95f830188610e47565b6114c66020830187610ef8565b6114d36040830186610e47565b6114e06060830185610f16565b6114ed6080830184610f16565b9695505050505050565b7f6e6f742063726561746f720000000000000000000000000000000000000000005f82015250565b5f61152b600b83611132565b9150611536826114f7565b602082019050919050565b5f6020820190508181035f8301526115588161151f565b9050919050565b7f706c6564676564203c20676f616c0000000000000000000000000000000000005f82015250565b5f611593600e83611132565b915061159e8261155f565b602082019050919050565b5f6020820190508181035f8301526115c081611587565b9050919050565b7f636c61696d6564000000000000000000000000000000000000000000000000005f82015250565b5f6115fb600783611132565b9150611606826115c7565b602082019050919050565b5f6020820190508181035f830152611628816115ef565b9050919050565b5f61163982610e3e565b915061164483610e3e565b925082820390508181111561165c5761165b611393565b5b92915050565b7f6e6f7420737461727465640000000000000000000000000000000000000000005f82015250565b5f611696600b83611132565b91506116a182611662565b602082019050919050565b5f6020820190508181035f8301526116c38161168a565b9050919050565b7f656e6465640000000000000000000000000000000000000000000000000000005f82015250565b5f6116fe600583611132565b9150611709826116ca565b602082019050919050565b5f6020820190508181035f83015261172b816116f2565b9050919050565b5f6060820190506117455f830186610ef8565b6117526020830185610ef8565b61175f6040830184610e47565b949350505050565b5f61177182610e3e565b915061177c83610e3e565b925082820190508082111561179457611793611393565b5b9291505056fea2646970667358221220dfa9ff421d738097b541ac286bd25d3bb58ff4af428901ec4bd4e3814e01ff2364736f6c63430008150033",
			"opcodes": "PUSH1 0xA0 PUSH1 0x40 MSTORE CALLVALUE DUP1 ISZERO PUSH3 0x10 JUMPI PUSH0 DUP1 REVERT JUMPDEST POP PUSH1 0x40 MLOAD PUSH3 0x190B CODESIZE SUB DUP1 PUSH3 0x190B DUP4 CODECOPY DUP2 DUP2 ADD PUSH1 0x40 MSTORE DUP2 ADD SWAP1 PUSH3 0x36 SWAP2 SWAP1 PUSH3 0xD6 JUMP JUMPDEST DUP1 PUSH20 0xFFFFFFFFFFFFFFFFFFFFFFFFFFFFFFFFFFFFFFFF AND PUSH1 0x80 DUP2 PUSH20 0xFFFFFFFFFFFFFFFFFFFFFFFFFFFFFFFFFFFFFFFF AND DUP2 MSTORE POP POP POP PUSH3 0x106 JUMP JUMPDEST PUSH0 DUP1 REVERT JUMPDEST PUSH0 PUSH20 0xFFFFFFFFFFFFFFFFFFFFFFFFFFFFFFFFFFFFFFFF DUP3 AND SWAP1 POP SWAP2 SWAP1 POP JUMP JUMPDEST PUSH0 PUSH3 0xA0 DUP3 PUSH3 0x75 JUMP JUMPDEST SWAP1 POP SWAP2 SWAP1 POP JUMP JUMPDEST PUSH3 0xB2 DUP2 PUSH3 0x94 JUMP JUMPDEST DUP2 EQ PUSH3 0xBD JUMPI PUSH0 DUP1 REVERT JUMPDEST POP JUMP JUMPDEST PUSH0 DUP2 MLOAD SWAP1 POP PUSH3 0xD0 DUP2 PUSH3 0xA7 JUMP JUMPDEST SWAP3 SWAP2 POP POP JUMP JUMPDEST PUSH0 PUSH1 0x20 DUP3 DUP5 SUB SLT ISZERO PUSH3 0xEE JUMPI PUSH3 0xED PUSH3 0x71 JUMP JUMPDEST JUMPDEST PUSH0 PUSH3 0xFD DUP5 DUP3 DUP6 ADD PUSH3 0xC0 JUMP JUMPDEST SWAP2 POP POP SWAP3 SWAP2 POP POP JUMP JUMPDEST PUSH1 0x80 MLOAD PUSH2 0x17D0 PUSH3 0x13B PUSH0 CODECOPY PUSH0 DUP2 DUP2 PUSH2 0x3D0 ADD MSTORE DUP2 DUP2 PUSH2 0x8A7 ADD MSTORE DUP2 DUP2 PUSH2 0xA5E ADD MSTORE DUP2 DUP2 PUSH2 0xBE5 ADD MSTORE PUSH2 0xCD6 ADD MSTORE PUSH2 0x17D0 PUSH0 RETURN INVALID PUSH1 0x80 PUSH1 0x40 MSTORE CALLVALUE DUP1 ISZERO PUSH2 0xF JUMPI PUSH0 DUP1 REVERT JUMPDEST POP PUSH1 0x4 CALLDATASIZE LT PUSH2 0x9C JUMPI PUSH0 CALLDATALOAD PUSH1 0xE0 SHR DUP1 PUSH4 0x6D4CE63C GT PUSH2 0x64 JUMPI DUP1 PUSH4 0x6D4CE63C EQ PUSH2 0x147 JUMPI DUP1 PUSH4 0x711853AB EQ PUSH2 0x165 JUMPI DUP1 PUSH4 0xAA4FB63A EQ PUSH2 0x181 JUMPI DUP1 PUSH4 0xFC0C546A EQ PUSH2 0x1B1 JUMPI DUP1 PUSH4 0xFDE327BE EQ PUSH2 0x1CF JUMPI PUSH2 0x9C JUMP JUMPDEST DUP1 PUSH4 0x6661ABD EQ PUSH2 0xA0 JUMPI DUP1 PUSH4 0x141961BC EQ PUSH2 0xBE JUMPI DUP1 PUSH4 0x278ECDE1 EQ PUSH2 0xF3 JUMPI DUP1 PUSH4 0x2C63F146 EQ PUSH2 0x10F JUMPI DUP1 PUSH4 0x379607F5 EQ PUSH2 0x12B JUMPI JUMPDEST PUSH0 DUP1 REVERT JUMPDEST PUSH2 0xA8 PUSH2 0x1EB JUMP JUMPDEST PUSH1 0x40 MLOAD PUSH2 0xB5 SWAP2 SWAP1 PUSH2 0xE56 JUMP JUMPDEST PUSH1 0x40 MLOAD DUP1 SWAP2 SUB SWAP1 RETURN JUMPDEST PUSH2 0xD8 PUSH1 0x4 DUP1 CALLDATASIZE SUB DUP2 ADD SWAP1 PUSH2 0xD3 SWAP2 SWAP1 PUSH2 0xE9D JUMP JUMPDEST PUSH2 0x1F0 JUMP JUMPDEST PUSH1 0x40 MLOAD PUSH2 0xEA SWAP7 SWAP6 SWAP5 SWAP4 SWAP3 SWAP2 SWAP1 PUSH2 0xF3F JUMP JUMPDEST PUSH1 0x40 MLOAD DUP1 SWAP2 SUB SWAP1 RETURN JUMPDEST PUSH2 0x10D PUSH1 0x4 DUP1 CALLDATASIZE SUB DUP2 ADD SWAP1 PUSH2 0x108 SWAP2 SWAP1 PUSH2 0xE9D JUMP JUMPDEST PUSH2 0x273 JUMP JUMPDEST STOP JUMPDEST PUSH2 0x129 PUSH1 0x4 DUP1 CALLDATASIZE SUB DUP2 ADD SWAP1 PUSH2 0x124 SWAP2 SWAP1 PUSH2 0xFC8 JUMP JUMPDEST PUSH2 0x4B3 JUMP JUMPDEST STOP JUMPDEST PUSH2 0x145 PUSH1 0x4 DUP1 CALLDATASIZE SUB DUP2 ADD SWAP1 PUSH2 0x140 SWAP2 SWAP1 PUSH2 0xE9D JUMP JUMPDEST PUSH2 0x708 JUMP JUMPDEST STOP JUMPDEST PUSH2 0x14F PUSH2 0x9C8 JUMP JUMPDEST PUSH1 0x40 MLOAD PUSH2 0x15C SWAP2 SWAP1 PUSH2 0xE56 JUMP JUMPDEST PUSH1 0x40 MLOAD DUP1 SWAP2 SUB SWAP1 RETURN JUMPDEST PUSH2 0x17F PUSH1 0x4 DUP1 CALLDATASIZE SUB DUP2 ADD SWAP1 PUSH2 0x17A SWAP2 SWAP1 PUSH2 0x1018 JUMP JUMPDEST PUSH2 0x9CF JUMP JUMPDEST STOP JUMPDEST PUSH2 0x19B PUSH1 0x4 DUP1 CALLDATASIZE SUB DUP2 ADD SWAP1 PUSH2 0x196 SWAP2 SWAP1 PUSH2 0x1080 JUMP JUMPDEST PUSH2 0xBC3 JUMP JUMPDEST PUSH1 0x40 MLOAD PUSH2 0x1A8 SWAP2 SWAP1 PUSH2 0xE56 JUMP JUMPDEST PUSH1 0x40 MLOAD DUP1 SWAP2 SUB SWAP1 RETURN JUMPDEST PUSH2 0x1B9 PUSH2 0xBE3 JUMP JUMPDEST PUSH1 0x40 MLOAD PUSH2 0x1C6 SWAP2 SWAP1 PUSH2 0x1119 JUMP JUMPDEST PUSH1 0x40 MLOAD DUP1 SWAP2 SUB SWAP1 RETURN JUMPDEST PUSH2 0x1E9 PUSH1 0x4 DUP1 CALLDATASIZE SUB DUP2 ADD SWAP1 PUSH2 0x1E4 SWAP2 SWAP1 PUSH2 0x1018 JUMP JUMPDEST PUSH2 0xC07 JUMP JUMPDEST STOP JUMPDEST PUSH0 SLOAD DUP2 JUMP JUMPDEST PUSH1 0x1 PUSH1 0x20 MSTORE DUP1 PUSH0 MSTORE PUSH1 0x40 PUSH0 KECCAK256 PUSH0 SWAP2 POP SWAP1 POP DUP1 PUSH0 ADD PUSH0 SWAP1 SLOAD SWAP1 PUSH2 0x100 EXP SWAP1 DIV PUSH20 0xFFFFFFFFFFFFFFFFFFFFFFFFFFFFFFFFFFFFFFFF AND SWAP1 DUP1 PUSH1 0x1 ADD SLOAD SWAP1 DUP1 PUSH1 0x2 ADD SLOAD SWAP1 DUP1 PUSH1 0x3 ADD PUSH0 SWAP1 SLOAD SWAP1 PUSH2 0x100 EXP SWAP1 DIV PUSH4 0xFFFFFFFF AND SWAP1 DUP1 PUSH1 0x3 ADD PUSH1 0x4 SWAP1 SLOAD SWAP1 PUSH2 0x100 EXP SWAP1 DIV PUSH4 0xFFFFFFFF AND SWAP1 DUP1 PUSH1 0x3 ADD PUSH1 0x8 SWAP1 SLOAD SWAP1 PUSH2 0x100 EXP SWAP1 DIV PUSH1 0xFF AND SWAP1 POP DUP7 JUMP JUMPDEST PUSH0 PUSH1 0x1 PUSH0 DUP4 DUP2 MSTORE PUSH1 0x20 ADD SWAP1 DUP2 MSTORE PUSH1 0x20 ADD PUSH0 KECCAK256 SWAP1 POP DUP1 PUSH1 0x3 ADD PUSH1 0x4 SWAP1 SLOAD SWAP1 PUSH2 0x100 EXP SWAP1 DIV PUSH4 0xFFFFFFFF AND PUSH4 0xFFFFFFFF AND TIMESTAMP GT PUSH2 0x2E3 JUMPI PUSH1 0x40 MLOAD PUSH32 0x8C379A000000000000000000000000000000000000000000000000000000000 DUP2 MSTORE PUSH1 0x4 ADD PUSH2 0x2DA SWAP1 PUSH2 0x118C JUMP JUMPDEST PUSH1 0x40 MLOAD DUP1 SWAP2 SUB SWAP1 REVERT JUMPDEST DUP1 PUSH1 0x1 ADD SLOAD DUP2 PUSH1 0x2 ADD SLOAD LT PUSH2 0x32D JUMPI PUSH1 0x40 MLOAD PUSH32 0x8C379A000000000000000000000000000000000000000000000000000000000 DUP2 MSTORE PUSH1 0x4 ADD PUSH2 0x324 SWAP1 PUSH2 0x11F4 JUMP JUMPDEST PUSH1 0x40 MLOAD DUP1 SWAP2 SUB SWAP1 REVERT JUMPDEST PUSH0 PUSH1 0x2 PUSH0 DUP5 DUP2 MSTORE PUSH1 0x20 ADD SWAP1 DUP2 MSTORE PUSH1 0x20 ADD PUSH0 KECCAK256 PUSH0 CALLER PUSH20 0xFFFFFFFFFFFFFFFFFFFFFFFFFFFFFFFFFFFFFFFF AND PUSH20 0xFFFFFFFFFFFFFFFFFFFFFFFFFFFFFFFFFFFFFFFF AND DUP2 MSTORE PUSH1 0x20 ADD SWAP1 DUP2 MSTORE PUSH1 0x20 ADD PUSH0 KECCAK256 SLOAD SWAP1 POP PUSH0 PUSH1 0x2 PUSH0 DUP6 DUP2 MSTORE PUSH1 0x20 ADD SWAP1 DUP2 MSTORE PUSH1 0x20 ADD PUSH0 KECCAK256 PUSH0 CALLER PUSH20 0xFFFFFFFFFFFFFFFFFFFFFFFFFFFFFFFFFFFFFFFF AND PUSH20 0xFFFFFFFFFFFFFFFFFFFFFFFFFFFFFFFFFFFFFFFF AND DUP2 MSTORE PUSH1 0x20 ADD SWAP1 DUP2 MSTORE PUSH1 0x20 ADD PUSH0 KECCAK256 DUP2 SWAP1 SSTORE POP PUSH32 0x0 PUSH20 0xFFFFFFFFFFFFFFFFFFFFFFFFFFFFFFFFFFFFFFFF AND PUSH4 0xA9059CBB CALLER DUP4 PUSH1 0x40 MLOAD DUP4 PUSH4 0xFFFFFFFF AND PUSH1 0xE0 SHL DUP2 MSTORE PUSH1 0x4 ADD PUSH2 0x429 SWAP3 SWAP2 SWAP1 PUSH2 0x1212 JUMP JUMPDEST PUSH1 0x20 PUSH1 0x40 MLOAD DUP1 DUP4 SUB DUP2 PUSH0 DUP8 GAS CALL ISZERO DUP1 ISZERO PUSH2 0x445 JUMPI RETURNDATASIZE PUSH0 DUP1 RETURNDATACOPY RETURNDATASIZE PUSH0 REVERT JUMPDEST POP POP POP POP PUSH1 0x40 MLOAD RETURNDATASIZE PUSH1 0x1F NOT PUSH1 0x1F DUP3 ADD AND DUP3 ADD DUP1 PUSH1 0x40 MSTORE POP DUP2 ADD SWAP1 PUSH2 0x469 SWAP2 SWAP1 PUSH2 0x1263 JUMP JUMPDEST POP PUSH0 DUP3 PUSH1 0x2 ADD DUP2 SWAP1 SSTORE POP PUSH32 0x21E12A7CAD0DA5928167E1084EA4D5FDF8D9AF66657A2543A9AC76A0CA081477 DUP4 CALLER DUP4 PUSH1 0x40 MLOAD PUSH2 0x4A6 SWAP4 SWAP3 SWAP2 SWAP1 PUSH2 0x128E JUMP JUMPDEST PUSH1 0x40 MLOAD DUP1 SWAP2 SUB SWAP1 LOG1 POP POP POP JUMP JUMPDEST TIMESTAMP DUP3 PUSH4 0xFFFFFFFF AND LT ISZERO PUSH2 0x4FC JUMPI PUSH1 0x40 MLOAD PUSH32 0x8C379A000000000000000000000000000000000000000000000000000000000 DUP2 MSTORE PUSH1 0x4 ADD PUSH2 0x4F3 SWAP1 PUSH2 0x130D JUMP JUMPDEST PUSH1 0x40 MLOAD DUP1 SWAP2 SUB SWAP1 REVERT JUMPDEST DUP2 PUSH4 0xFFFFFFFF AND DUP2 PUSH4 0xFFFFFFFF AND LT ISZERO PUSH2 0x54B JUMPI PUSH1 0x40 MLOAD PUSH32 0x8C379A000000000000000000000000000000000000000000000000000000000 DUP2 MSTORE PUSH1 0x4 ADD PUSH2 0x542 SWAP1 PUSH2 0x1375 JUMP JUMPDEST PUSH1 0x40 MLOAD DUP1 SWAP2 SUB SWAP1 REVERT JUMPDEST PUSH2 0x4B0 DUP3 PUSH2 0x559 SWAP2 SWAP1 PUSH2 0x13C0 JUMP JUMPDEST PUSH4 0xFFFFFFFF AND DUP2 PUSH4 0xFFFFFFFF AND GT ISZERO PUSH2 0x5A7 JUMPI PUSH1 0x40 MLOAD PUSH32 0x8C379A000000000000000000000000000000000000000000000000000000000 DUP2 MSTORE PUSH1 0x4 ADD PUSH2 0x59E SWAP1 PUSH2 0x1441 JUMP JUMPDEST PUSH1 0x40 MLOAD DUP1 SWAP2 SUB SWAP1 REVERT JUMPDEST PUSH0 DUP1 DUP2 SLOAD DUP1 SWAP3 SWAP2 SWAP1 PUSH2 0x5B8 SWAP1 PUSH2 0x145F JUMP JUMPDEST SWAP2 SWAP1 POP SSTORE POP CALLER PUSH1 0x1 PUSH0 DUP1 SLOAD DUP2 MSTORE PUSH1 0x20 ADD SWAP1 DUP2 MSTORE PUSH1 0x20 ADD PUSH0 KECCAK256 PUSH0 ADD PUSH0 PUSH2 0x100 EXP DUP2 SLOAD DUP2 PUSH20 0xFFFFFFFFFFFFFFFFFFFFFFFFFFFFFFFFFFFFFFFF MUL NOT AND SWAP1 DUP4 PUSH20 0xFFFFFFFFFFFFFFFFFFFFFFFFFFFFFFFFFFFFFFFF AND MUL OR SWAP1 SSTORE POP DUP3 PUSH1 0x1 PUSH0 DUP1 SLOAD DUP2 MSTORE PUSH1 0x20 ADD SWAP1 DUP2 MSTORE PUSH1 0x20 ADD PUSH0 KECCAK256 PUSH1 0x1 ADD DUP2 SWAP1 SSTORE POP DUP2 PUSH1 0x1 PUSH0 DUP1 SLOAD DUP2 MSTORE PUSH1 0x20 ADD SWAP1 DUP2 MSTORE PUSH1 0x20 ADD PUSH0 KECCAK256 PUSH1 0x3 ADD PUSH0 PUSH2 0x100 EXP DUP2 SLOAD DUP2 PUSH4 0xFFFFFFFF MUL NOT AND SWAP1 DUP4 PUSH4 0xFFFFFFFF AND MUL OR SWAP1 SSTORE POP DUP1 PUSH1 0x1 PUSH0 DUP1 SLOAD DUP2 MSTORE PUSH1 0x20 ADD SWAP1 DUP2 MSTORE PUSH1 0x20 ADD PUSH0 KECCAK256 PUSH1 0x3 ADD PUSH1 0x4 PUSH2 0x100 EXP DUP2 SLOAD DUP2 PUSH4 0xFFFFFFFF MUL NOT AND SWAP1 DUP4 PUSH4 0xFFFFFFFF AND MUL OR SWAP1 SSTORE POP PUSH32 0x601CD0D650B473037E838A2696D41E654433D065B3F56B28D1D3302E44A304F PUSH0 SLOAD PUSH1 0x1 PUSH0 DUP1 SLOAD DUP2 MSTORE PUSH1 0x20 ADD SWAP1 DUP2 MSTORE PUSH1 0x20 ADD PUSH0 KECCAK256 PUSH0 ADD PUSH0 SWAP1 SLOAD SWAP1 PUSH2 0x100 EXP SWAP1 DIV PUSH20 0xFFFFFFFFFFFFFFFFFFFFFFFFFFFFFFFFFFFFFFFF AND DUP6 DUP6 DUP6 PUSH1 0x40 MLOAD PUSH2 0x6FB SWAP6 SWAP5 SWAP4 SWAP3 SWAP2 SWAP1 PUSH2 0x14A6 JUMP JUMPDEST PUSH1 0x40 MLOAD DUP1 SWAP2 SUB SWAP1 LOG1 POP POP POP JUMP JUMPDEST PUSH0 PUSH1 0x1 PUSH0 DUP4 DUP2 MSTORE PUSH1 0x20 ADD SWAP1 DUP2 MSTORE PUSH1 0x20 ADD PUSH0 KECCAK256 SWAP1 POP CALLER PUSH20 0xFFFFFFFFFFFFFFFFFFFFFFFFFFFFFFFFFFFFFFFF AND DUP2 PUSH0 ADD PUSH0 SWAP1 SLOAD SWAP1 PUSH2 0x100 EXP SWAP1 DIV PUSH20 0xFFFFFFFFFFFFFFFFFFFFFFFFFFFFFFFFFFFFFFFF AND PUSH20 0xFFFFFFFFFFFFFFFFFFFFFFFFFFFFFFFFFFFFFFFF AND EQ PUSH2 0x7AC JUMPI PUSH1 0x40 MLOAD PUSH32 0x8C379A000000000000000000000000000000000000000000000000000000000 DUP2 MSTORE PUSH1 0x4 ADD PUSH2 0x7A3 SWAP1 PUSH2 0x1541 JUMP JUMPDEST PUSH1 0x40 MLOAD DUP1 SWAP2 SUB SWAP1 REVERT JUMPDEST DUP1 PUSH1 0x3 ADD PUSH1 0x4 SWAP1 SLOAD SWAP1 PUSH2 0x100 EXP SWAP1 DIV PUSH4 0xFFFFFFFF AND PUSH4 0xFFFFFFFF AND TIMESTAMP GT PUSH2 0x808 JUMPI PUSH1 0x40 MLOAD PUSH32 0x8C379A000000000000000000000000000000000000000000000000000000000 DUP2 MSTORE PUSH1 0x4 ADD PUSH2 0x7FF SWAP1 PUSH2 0x118C JUMP JUMPDEST PUSH1 0x40 MLOAD DUP1 SWAP2 SUB SWAP1 REVERT JUMPDEST DUP1 PUSH1 0x1 ADD SLOAD DUP2 PUSH1 0x2 ADD SLOAD LT ISZERO PUSH2 0x853 JUMPI PUSH1 0x40 MLOAD PUSH32 0x8C379A000000000000000000000000000000000000000000000000000000000 DUP2 MSTORE PUSH1 0x4 ADD PUSH2 0x84A SWAP1 PUSH2 0x15A9 JUMP JUMPDEST PUSH1 0x40 MLOAD DUP1 SWAP2 SUB SWAP1 REVERT JUMPDEST DUP1 PUSH1 0x3 ADD PUSH1 0x8 SWAP1 SLOAD SWAP1 PUSH2 0x100 EXP SWAP1 DIV PUSH1 0xFF AND ISZERO PUSH2 0x8A5 JUMPI PUSH1 0x40 MLOAD PUSH32 0x8C379A000000000000000000000000000000000000000000000000000000000 DUP2 MSTORE PUSH1 0x4 ADD PUSH2 0x89C SWAP1 PUSH2 0x1611 JUMP JUMPDEST PUSH1 0x40 MLOAD DUP1 SWAP2 SUB SWAP1 REVERT JUMPDEST PUSH32 0x0 PUSH20 0xFFFFFFFFFFFFFFFFFFFFFFFFFFFFFFFFFFFFFFFF AND PUSH4 0xA9059CBB DUP3 PUSH0 ADD PUSH0 SWAP1 SLOAD SWAP1 PUSH2 0x100 EXP SWAP1 DIV PUSH20 0xFFFFFFFFFFFFFFFFFFFFFFFFFFFFFFFFFFFFFFFF AND DUP4 PUSH1 0x2 ADD SLOAD PUSH1 0x40 MLOAD DUP4 PUSH4 0xFFFFFFFF AND PUSH1 0xE0 SHL DUP2 MSTORE PUSH1 0x4 ADD PUSH2 0x926 SWAP3 SWAP2 SWAP1 PUSH2 0x1212 JUMP JUMPDEST PUSH1 0x20 PUSH1 0x40 MLOAD DUP1 DUP4 SUB DUP2 PUSH0 DUP8 GAS CALL ISZERO DUP1 ISZERO PUSH2 0x942 JUMPI RETURNDATASIZE PUSH0 DUP1 RETURNDATACOPY RETURNDATASIZE PUSH0 REVERT JUMPDEST POP POP POP POP PUSH1 0x40 MLOAD RETURNDATASIZE PUSH1 0x1F NOT PUSH1 0x1F DUP3 ADD AND DUP3 ADD DUP1 PUSH1 0x40 MSTORE POP DUP2 ADD SWAP1 PUSH2 0x966 SWAP2 SWAP1 PUSH2 0x1263 JUMP JUMPDEST POP PUSH1 0x1 DUP2 PUSH1 0x3 ADD PUSH1 0x8 PUSH2 0x100 EXP DUP2 SLOAD DUP2 PUSH1 0xFF MUL NOT AND SWAP1 DUP4 ISZERO ISZERO MUL OR SWAP1 SSTORE POP PUSH0 DUP2 PUSH1 0x2 ADD DUP2 SWAP1 SSTORE POP PUSH32 0x7BB2B3C10797BACCB6F8C4791F1EDD6CA2F0D028EE0EDA64B01A9A57E3A653F7 DUP3 PUSH1 0x40 MLOAD PUSH2 0x9BC SWAP2 SWAP1 PUSH2 0xE56 JUMP JUMPDEST PUSH1 0x40 MLOAD DUP1 SWAP2 SUB SWAP1 LOG1 POP POP JUMP JUMPDEST PUSH0 TIMESTAMP SWAP1 POP SWAP1 JUMP JUMPDEST PUSH1 0x1 PUSH0 DUP4 DUP2 MSTORE PUSH1 0x20 ADD SWAP1 DUP2 MSTORE PUSH1 0x20 ADD PUSH0 KECCAK256 PUSH1 0x3 ADD PUSH1 0x4 SWAP1 SLOAD SWAP1 PUSH2 0x100 EXP SWAP1 DIV PUSH4 0xFFFFFFFF AND PUSH4 0xFFFFFFFF AND TIMESTAMP LT PUSH2 0xA04 JUMPI PUSH0 DUP1 REVERT JUMPDEST PUSH1 0x2 PUSH0 DUP4 DUP2 MSTORE PUSH1 0x20 ADD SWAP1 DUP2 MSTORE PUSH1 0x20 ADD PUSH0 KECCAK256 PUSH0 CALLER PUSH20 0xFFFFFFFFFFFFFFFFFFFFFFFFFFFFFFFFFFFFFFFF AND PUSH20 0xFFFFFFFFFFFFFFFFFFFFFFFFFFFFFFFFFFFFFFFF AND DUP2 MSTORE PUSH1 0x20 ADD SWAP1 DUP2 MSTORE PUSH1 0x20 ADD PUSH0 KECCAK256 SLOAD DUP2 GT ISZERO PUSH2 0xA5C JUMPI PUSH0 DUP1 REVERT JUMPDEST PUSH32 0x0 PUSH20 0xFFFFFFFFFFFFFFFFFFFFFFFFFFFFFFFFFFFFFFFF AND PUSH4 0xA9059CBB CALLER DUP4 PUSH1 0x40 MLOAD DUP4 PUSH4 0xFFFFFFFF AND PUSH1 0xE0 SHL DUP2 MSTORE PUSH1 0x4 ADD PUSH2 0xAB7 SWAP3 SWAP2 SWAP1 PUSH2 0x1212 JUMP JUMPDEST PUSH1 0x20 PUSH1 0x40 MLOAD DUP1 DUP4 SUB DUP2 PUSH0 DUP8 GAS CALL ISZERO DUP1 ISZERO PUSH2 0xAD3 JUMPI RETURNDATASIZE PUSH0 DUP1 RETURNDATACOPY RETURNDATASIZE PUSH0 REVERT JUMPDEST POP POP POP POP PUSH1 0x40 MLOAD RETURNDATASIZE PUSH1 0x1F NOT PUSH1 0x1F DUP3 ADD AND DUP3 ADD DUP1 PUSH1 0x40 MSTORE POP DUP2 ADD SWAP1 PUSH2 0xAF7 SWAP2 SWAP1 PUSH2 0x1263 JUMP JUMPDEST POP DUP1 PUSH1 0x1 PUSH0 DUP5 DUP2 MSTORE PUSH1 0x20 ADD SWAP1 DUP2 MSTORE PUSH1 0x20 ADD PUSH0 KECCAK256 PUSH1 0x2 ADD PUSH0 DUP3 DUP3 SLOAD PUSH2 0xB1B SWAP2 SWAP1 PUSH2 0x162F JUMP JUMPDEST SWAP3 POP POP DUP2 SWAP1 SSTORE POP DUP1 PUSH1 0x2 PUSH0 DUP5 DUP2 MSTORE PUSH1 0x20 ADD SWAP1 DUP2 MSTORE PUSH1 0x20 ADD PUSH0 KECCAK256 PUSH0 CALLER PUSH20 0xFFFFFFFFFFFFFFFFFFFFFFFFFFFFFFFFFFFFFFFF AND PUSH20 0xFFFFFFFFFFFFFFFFFFFFFFFFFFFFFFFFFFFFFFFF AND DUP2 MSTORE PUSH1 0x20 ADD SWAP1 DUP2 MSTORE PUSH1 0x20 ADD PUSH0 KECCAK256 PUSH0 DUP3 DUP3 SLOAD PUSH2 0xB7D SWAP2 SWAP1 PUSH2 0x162F JUMP JUMPDEST SWAP3 POP POP DUP2 SWAP1 SSTORE POP PUSH32 0x2EEEAB891B26A214D1B25749F88A406BDEA852BD8C9BFDA977E0EF8114C180BA DUP3 CALLER DUP4 PUSH1 0x40 MLOAD PUSH2 0xBB7 SWAP4 SWAP3 SWAP2 SWAP1 PUSH2 0x128E JUMP JUMPDEST PUSH1 0x40 MLOAD DUP1 SWAP2 SUB SWAP1 LOG1 POP POP JUMP JUMPDEST PUSH1 0x2 PUSH1 0x20 MSTORE DUP2 PUSH0 MSTORE PUSH1 0x40 PUSH0 KECCAK256 PUSH1 0x20 MSTORE DUP1 PUSH0 MSTORE PUSH1 0x40 PUSH0 KECCAK256 PUSH0 SWAP2 POP SWAP2 POP POP SLOAD DUP2 JUMP JUMPDEST PUSH32 0x0 DUP2 JUMP JUMPDEST PUSH0 PUSH1 0x1 PUSH0 DUP5 DUP2 MSTORE PUSH1 0x20 ADD SWAP1 DUP2 MSTORE PUSH1 0x20 ADD PUSH0 KECCAK256 SWAP1 POP DUP1 PUSH1 0x3 ADD PUSH0 SWAP1 SLOAD SWAP1 PUSH2 0x100 EXP SWAP1 DIV PUSH4 0xFFFFFFFF AND PUSH4 0xFFFFFFFF AND TIMESTAMP LT ISZERO PUSH2 0xC77 JUMPI PUSH1 0x40 MLOAD PUSH32 0x8C379A000000000000000000000000000000000000000000000000000000000 DUP2 MSTORE PUSH1 0x4 ADD PUSH2 0xC6E SWAP1 PUSH2 0x16AC JUMP JUMPDEST PUSH1 0x40 MLOAD DUP1 SWAP2 SUB SWAP1 REVERT JUMPDEST DUP1 PUSH1 0x3 ADD PUSH1 0x4 SWAP1 SLOAD SWAP1 PUSH2 0x100 EXP SWAP1 DIV PUSH4 0xFFFFFFFF AND PUSH4 0xFFFFFFFF AND TIMESTAMP GT ISZERO PUSH2 0xCD4 JUMPI PUSH1 0x40 MLOAD PUSH32 0x8C379A000000000000000000000000000000000000000000000000000000000 DUP2 MSTORE PUSH1 0x4 ADD PUSH2 0xCCB SWAP1 PUSH2 0x1714 JUMP JUMPDEST PUSH1 0x40 MLOAD DUP1 SWAP2 SUB SWAP1 REVERT JUMPDEST PUSH32 0x0 PUSH20 0xFFFFFFFFFFFFFFFFFFFFFFFFFFFFFFFFFFFFFFFF AND PUSH4 0x23B872DD CALLER ADDRESS DUP6 PUSH1 0x40 MLOAD DUP5 PUSH4 0xFFFFFFFF AND PUSH1 0xE0 SHL DUP2 MSTORE PUSH1 0x4 ADD PUSH2 0xD31 SWAP4 SWAP3 SWAP2 SWAP1 PUSH2 0x1732 JUMP JUMPDEST PUSH1 0x20 PUSH1 0x40 MLOAD DUP1 DUP4 SUB DUP2 PUSH0 DUP8 GAS CALL ISZERO DUP1 ISZERO PUSH2 0xD4D JUMPI RETURNDATASIZE PUSH0 DUP1 RETURNDATACOPY RETURNDATASIZE PUSH0 REVERT JUMPDEST POP POP POP POP PUSH1 0x40 MLOAD RETURNDATASIZE PUSH1 0x1F NOT PUSH1 0x1F DUP3 ADD AND DUP3 ADD DUP1 PUSH1 0x40 MSTORE POP DUP2 ADD SWAP1 PUSH2 0xD71 SWAP2 SWAP1 PUSH2 0x1263 JUMP JUMPDEST POP DUP2 PUSH1 0x1 PUSH0 DUP6 DUP2 MSTORE PUSH1 0x20 ADD SWAP1 DUP2 MSTORE PUSH1 0x20 ADD PUSH0 KECCAK256 PUSH1 0x2 ADD PUSH0 DUP3 DUP3 SLOAD PUSH2 0xD95 SWAP2 SWAP1 PUSH2 0x1767 JUMP JUMPDEST SWAP3 POP POP DUP2 SWAP1 SSTORE POP DUP2 PUSH1 0x2 PUSH0 DUP6 DUP2 MSTORE PUSH1 0x20 ADD SWAP1 DUP2 MSTORE PUSH1 0x20 ADD PUSH0 KECCAK256 PUSH0 CALLER PUSH20 0xFFFFFFFFFFFFFFFFFFFFFFFFFFFFFFFFFFFFFFFF AND PUSH20 0xFFFFFFFFFFFFFFFFFFFFFFFFFFFFFFFFFFFFFFFF AND DUP2 MSTORE PUSH1 0x20 ADD SWAP1 DUP2 MSTORE PUSH1 0x20 ADD PUSH0 KECCAK256 PUSH0 DUP3 DUP3 SLOAD PUSH2 0xDF7 SWAP2 SWAP1 PUSH2 0x1767 JUMP JUMPDEST SWAP3 POP POP DUP2 SWAP1 SSTORE POP PUSH32 0x6BDB975DF800A73232998E71ED585D536222F1DFEAA622D7F62A23ADA686C82 DUP4 CALLER DUP5 PUSH1 0x40 MLOAD PUSH2 0xE31 SWAP4 SWAP3 SWAP2 SWAP1 PUSH2 0x128E JUMP JUMPDEST PUSH1 0x40 MLOAD DUP1 SWAP2 SUB SWAP1 LOG1 POP POP POP JUMP JUMPDEST PUSH0 DUP2 SWAP1 POP SWAP2 SWAP1 POP JUMP JUMPDEST PUSH2 0xE50 DUP2 PUSH2 0xE3E JUMP JUMPDEST DUP3 MSTORE POP POP JUMP JUMPDEST PUSH0 PUSH1 0x20 DUP3 ADD SWAP1 POP PUSH2 0xE69 PUSH0 DUP4 ADD DUP5 PUSH2 0xE47 JUMP JUMPDEST SWAP3 SWAP2 POP POP JUMP JUMPDEST PUSH0 DUP1 REVERT JUMPDEST PUSH2 0xE7C DUP2 PUSH2 0xE3E JUMP JUMPDEST DUP2 EQ PUSH2 0xE86 JUMPI PUSH0 DUP1 REVERT JUMPDEST POP JUMP JUMPDEST PUSH0 DUP2 CALLDATALOAD SWAP1 POP PUSH2 0xE97 DUP2 PUSH2 0xE73 JUMP JUMPDEST SWAP3 SWAP2 POP POP JUMP JUMPDEST PUSH0 PUSH1 0x20 DUP3 DUP5 SUB SLT ISZERO PUSH2 0xEB2 JUMPI PUSH2 0xEB1 PUSH2 0xE6F JUMP JUMPDEST JUMPDEST PUSH0 PUSH2 0xEBF DUP5 DUP3 DUP6 ADD PUSH2 0xE89 JUMP JUMPDEST SWAP2 POP POP SWAP3 SWAP2 POP POP JUMP JUMPDEST PUSH0 PUSH20 0xFFFFFFFFFFFFFFFFFFFFFFFFFFFFFFFFFFFFFFFF DUP3 AND SWAP1 POP SWAP2 SWAP1 POP JUMP JUMPDEST PUSH0 PUSH2 0xEF1 DUP3 PUSH2 0xEC8 JUMP JUMPDEST SWAP1 POP SWAP2 SWAP1 POP JUMP JUMPDEST PUSH2 0xF01 DUP2 PUSH2 0xEE7 JUMP JUMPDEST DUP3 MSTORE POP POP JUMP JUMPDEST PUSH0 PUSH4 0xFFFFFFFF DUP3 AND SWAP1 POP SWAP2 SWAP1 POP JUMP JUMPDEST PUSH2 0xF1F DUP2 PUSH2 0xF07 JUMP JUMPDEST DUP3 MSTORE POP POP JUMP JUMPDEST PUSH0 DUP2 ISZERO ISZERO SWAP1 POP SWAP2 SWAP1 POP JUMP JUMPDEST PUSH2 0xF39 DUP2 PUSH2 0xF25 JUMP JUMPDEST DUP3 MSTORE POP POP JUMP JUMPDEST PUSH0 PUSH1 0xC0 DUP3 ADD SWAP1 POP PUSH2 0xF52 PUSH0 DUP4 ADD DUP10 PUSH2 0xEF8 JUMP JUMPDEST PUSH2 0xF5F PUSH1 0x20 DUP4 ADD DUP9 PUSH2 0xE47 JUMP JUMPDEST PUSH2 0xF6C PUSH1 0x40 DUP4 ADD DUP8 PUSH2 0xE47 JUMP JUMPDEST PUSH2 0xF79 PUSH1 0x60 DUP4 ADD DUP7 PUSH2 0xF16 JUMP JUMPDEST PUSH2 0xF86 PUSH1 0x80 DUP4 ADD DUP6 PUSH2 0xF16 JUMP JUMPDEST PUSH2 0xF93 PUSH1 0xA0 DUP4 ADD DUP5 PUSH2 0xF30 JUMP JUMPDEST SWAP8 SWAP7 POP POP POP POP POP POP POP JUMP JUMPDEST PUSH2 0xFA7 DUP2 PUSH2 0xF07 JUMP JUMPDEST DUP2 EQ PUSH2 0xFB1 JUMPI PUSH0 DUP1 REVERT JUMPDEST POP JUMP JUMPDEST PUSH0 DUP2 CALLDATALOAD SWAP1 POP PUSH2 0xFC2 DUP2 PUSH2 0xF9E JUMP JUMPDEST SWAP3 SWAP2 POP POP JUMP JUMPDEST PUSH0 DUP1 PUSH0 PUSH1 0x60 DUP5 DUP7 SUB SLT ISZERO PUSH2 0xFDF JUMPI PUSH2 0xFDE PUSH2 0xE6F JUMP JUMPDEST JUMPDEST PUSH0 PUSH2 0xFEC DUP7 DUP3 DUP8 ADD PUSH2 0xE89 JUMP JUMPDEST SWAP4 POP POP PUSH1 0x20 PUSH2 0xFFD DUP7 DUP3 DUP8 ADD PUSH2 0xFB4 JUMP JUMPDEST SWAP3 POP POP PUSH1 0x40 PUSH2 0x100E DUP7 DUP3 DUP8 ADD PUSH2 0xFB4 JUMP JUMPDEST SWAP2 POP POP SWAP3 POP SWAP3 POP SWAP3 JUMP JUMPDEST PUSH0 DUP1 PUSH1 0x40 DUP4 DUP6 SUB SLT ISZERO PUSH2 0x102E JUMPI PUSH2 0x102D PUSH2 0xE6F JUMP JUMPDEST JUMPDEST PUSH0 PUSH2 0x103B DUP6 DUP3 DUP7 ADD PUSH2 0xE89 JUMP JUMPDEST SWAP3 POP POP PUSH1 0x20 PUSH2 0x104C DUP6 DUP3 DUP7 ADD PUSH2 0xE89 JUMP JUMPDEST SWAP2 POP POP SWAP3 POP SWAP3 SWAP1 POP JUMP JUMPDEST PUSH2 0x105F DUP2 PUSH2 0xEE7 JUMP JUMPDEST DUP2 EQ PUSH2 0x1069 JUMPI PUSH0 DUP1 REVERT JUMPDEST POP JUMP JUMPDEST PUSH0 DUP2 CALLDATALOAD SWAP1 POP PUSH2 0x107A DUP2 PUSH2 0x1056 JUMP JUMPDEST SWAP3 SWAP2 POP POP JUMP JUMPDEST PUSH0 DUP1 PUSH1 0x40 DUP4 DUP6 SUB SLT ISZERO PUSH2 0x1096 JUMPI PUSH2 0x1095 PUSH2 0xE6F JUMP JUMPDEST JUMPDEST PUSH0 PUSH2 0x10A3 DUP6 DUP3 DUP7 ADD PUSH2 0xE89 JUMP JUMPDEST SWAP3 POP POP PUSH1 0x20 PUSH2 0x10B4 DUP6 DUP3 DUP7 ADD PUSH2 0x106C JUMP JUMPDEST SWAP2 POP POP SWAP3 POP SWAP3 SWAP1 POP JUMP JUMPDEST PUSH0 DUP2 SWAP1 POP SWAP2 SWAP1 POP JUMP JUMPDEST PUSH0 PUSH2 0x10E1 PUSH2 0x10DC PUSH2 0x10D7 DUP5 PUSH2 0xEC8 JUMP JUMPDEST PUSH2 0x10BE JUMP JUMPDEST PUSH2 0xEC8 JUMP JUMPDEST SWAP1 POP SWAP2 SWAP1 POP JUMP JUMPDEST PUSH0 PUSH2 0x10F2 DUP3 PUSH2 0x10C7 JUMP JUMPDEST SWAP1 POP SWAP2 SWAP1 POP JUMP JUMPDEST PUSH0 PUSH2 0x1103 DUP3 PUSH2 0x10E8 JUMP JUMPDEST SWAP1 POP SWAP2 SWAP1 POP JUMP JUMPDEST PUSH2 0x1113 DUP2 PUSH2 0x10F9 JUMP JUMPDEST DUP3 MSTORE POP POP JUMP JUMPDEST PUSH0 PUSH1 0x20 DUP3 ADD SWAP1 POP PUSH2 0x112C PUSH0 DUP4 ADD DUP5 PUSH2 0x110A JUMP JUMPDEST SWAP3 SWAP2 POP POP JUMP JUMPDEST PUSH0 DUP3 DUP3 MSTORE PUSH1 0x20 DUP3 ADD SWAP1 POP SWAP3 SWAP2 POP POP JUMP JUMPDEST PUSH32 0x6E6F7420656E6465640000000000000000000000000000000000000000000000 PUSH0 DUP3 ADD MSTORE POP JUMP JUMPDEST PUSH0 PUSH2 0x1176 PUSH1 0x9 DUP4 PUSH2 0x1132 JUMP JUMPDEST SWAP2 POP PUSH2 0x1181 DUP3 PUSH2 0x1142 JUMP JUMPDEST PUSH1 0x20 DUP3 ADD SWAP1 POP SWAP2 SWAP1 POP JUMP JUMPDEST PUSH0 PUSH1 0x20 DUP3 ADD SWAP1 POP DUP2 DUP2 SUB PUSH0 DUP4 ADD MSTORE PUSH2 0x11A3 DUP2 PUSH2 0x116A JUMP JUMPDEST SWAP1 POP SWAP2 SWAP1 POP JUMP JUMPDEST PUSH32 0x706C6564676564203E3D20676F616C0000000000000000000000000000000000 PUSH0 DUP3 ADD MSTORE POP JUMP JUMPDEST PUSH0 PUSH2 0x11DE PUSH1 0xF DUP4 PUSH2 0x1132 JUMP JUMPDEST SWAP2 POP PUSH2 0x11E9 DUP3 PUSH2 0x11AA JUMP JUMPDEST PUSH1 0x20 DUP3 ADD SWAP1 POP SWAP2 SWAP1 POP JUMP JUMPDEST PUSH0 PUSH1 0x20 DUP3 ADD SWAP1 POP DUP2 DUP2 SUB PUSH0 DUP4 ADD MSTORE PUSH2 0x120B DUP2 PUSH2 0x11D2 JUMP JUMPDEST SWAP1 POP SWAP2 SWAP1 POP JUMP JUMPDEST PUSH0 PUSH1 0x40 DUP3 ADD SWAP1 POP PUSH2 0x1225 PUSH0 DUP4 ADD DUP6 PUSH2 0xEF8 JUMP JUMPDEST PUSH2 0x1232 PUSH1 0x20 DUP4 ADD DUP5 PUSH2 0xE47 JUMP JUMPDEST SWAP4 SWAP3 POP POP POP JUMP JUMPDEST PUSH2 0x1242 DUP2 PUSH2 0xF25 JUMP JUMPDEST DUP2 EQ PUSH2 0x124C JUMPI PUSH0 DUP1 REVERT JUMPDEST POP JUMP JUMPDEST PUSH0 DUP2 MLOAD SWAP1 POP PUSH2 0x125D DUP2 PUSH2 0x1239 JUMP JUMPDEST SWAP3 SWAP2 POP POP JUMP JUMPDEST PUSH0 PUSH1 0x20 DUP3 DUP5 SUB SLT ISZERO PUSH2 0x1278 JUMPI PUSH2 0x1277 PUSH2 0xE6F JUMP JUMPDEST JUMPDEST PUSH0 PUSH2 0x1285 DUP5 DUP3 DUP6 ADD PUSH2 0x124F JUMP JUMPDEST SWAP2 POP POP SWAP3 SWAP2 POP POP JUMP JUMPDEST PUSH0 PUSH1 0x60 DUP3 ADD SWAP1 POP PUSH2 0x12A1 PUSH0 DUP4 ADD DUP7 PUSH2 0xE47 JUMP JUMPDEST PUSH2 0x12AE PUSH1 0x20 DUP4 ADD DUP6 PUSH2 0xEF8 JUMP JUMPDEST PUSH2 0x12BB PUSH1 0x40 DUP4 ADD DUP5 PUSH2 0xE47 JUMP JUMPDEST SWAP5 SWAP4 POP POP POP POP JUMP JUMPDEST PUSH32 0x7374617274206174203C206E6F77000000000000000000000000000000000000 PUSH0 DUP3 ADD MSTORE POP JUMP JUMPDEST PUSH0 PUSH2 0x12F7 PUSH1 0xE DUP4 PUSH2 0x1132 JUMP JUMPDEST SWAP2 POP PUSH2 0x1302 DUP3 PUSH2 0x12C3 JUMP JUMPDEST PUSH1 0x20 DUP3 ADD SWAP1 POP SWAP2 SWAP1 POP JUMP JUMPDEST PUSH0 PUSH1 0x20 DUP3 ADD SWAP1 POP DUP2 DUP2 SUB PUSH0 DUP4 ADD MSTORE PUSH2 0x1324 DUP2 PUSH2 0x12EB JUMP JUMPDEST SWAP1 POP SWAP2 SWAP1 POP JUMP JUMPDEST PUSH32 0x656E64206174203C207374617274206174000000000000000000000000000000 PUSH0 DUP3 ADD MSTORE POP JUMP JUMPDEST PUSH0 PUSH2 0x135F PUSH1 0x11 DUP4 PUSH2 0x1132 JUMP JUMPDEST SWAP2 POP PUSH2 0x136A DUP3 PUSH2 0x132B JUMP JUMPDEST PUSH1 0x20 DUP3 ADD SWAP1 POP SWAP2 SWAP1 POP JUMP JUMPDEST PUSH0 PUSH1 0x20 DUP3 ADD SWAP1 POP DUP2 DUP2 SUB PUSH0 DUP4 ADD MSTORE PUSH2 0x138C DUP2 PUSH2 0x1353 JUMP JUMPDEST SWAP1 POP SWAP2 SWAP1 POP JUMP JUMPDEST PUSH32 0x4E487B7100000000000000000000000000000000000000000000000000000000 PUSH0 MSTORE PUSH1 0x11 PUSH1 0x4 MSTORE PUSH1 0x24 PUSH0 REVERT JUMPDEST PUSH0 PUSH2 0x13CA DUP3 PUSH2 0xF07 JUMP JUMPDEST SWAP2 POP PUSH2 0x13D5 DUP4 PUSH2 0xF07 JUMP JUMPDEST SWAP3 POP DUP3 DUP3 ADD SWAP1 POP PUSH4 0xFFFFFFFF DUP2 GT ISZERO PUSH2 0x13F1 JUMPI PUSH2 0x13F0 PUSH2 0x1393 JUMP JUMPDEST JUMPDEST SWAP3 SWAP2 POP POP JUMP JUMPDEST PUSH32 0x656E64206174203E206D6178206475726174696F6E0000000000000000000000 PUSH0 DUP3 ADD MSTORE POP JUMP JUMPDEST PUSH0 PUSH2 0x142B PUSH1 0x15 DUP4 PUSH2 0x1132 JUMP JUMPDEST SWAP2 POP PUSH2 0x1436 DUP3 PUSH2 0x13F7 JUMP JUMPDEST PUSH1 0x20 DUP3 ADD SWAP1 POP SWAP2 SWAP1 POP JUMP JUMPDEST PUSH0 PUSH1 0x20 DUP3 ADD SWAP1 POP DUP2 DUP2 SUB PUSH0 DUP4 ADD MSTORE PUSH2 0x1458 DUP2 PUSH2 0x141F JUMP JUMPDEST SWAP1 POP SWAP2 SWAP1 POP JUMP JUMPDEST PUSH0 PUSH2 0x1469 DUP3 PUSH2 0xE3E JUMP JUMPDEST SWAP2 POP PUSH32 0xFFFFFFFFFFFFFFFFFFFFFFFFFFFFFFFFFFFFFFFFFFFFFFFFFFFFFFFFFFFFFFFF DUP3 SUB PUSH2 0x149B JUMPI PUSH2 0x149A PUSH2 0x1393 JUMP JUMPDEST JUMPDEST PUSH1 0x1 DUP3 ADD SWAP1 POP SWAP2 SWAP1 POP JUMP JUMPDEST PUSH0 PUSH1 0xA0 DUP3 ADD SWAP1 POP PUSH2 0x14B9 PUSH0 DUP4 ADD DUP9 PUSH2 0xE47 JUMP JUMPDEST PUSH2 0x14C6 PUSH1 0x20 DUP4 ADD DUP8 PUSH2 0xEF8 JUMP JUMPDEST PUSH2 0x14D3 PUSH1 0x40 DUP4 ADD DUP7 PUSH2 0xE47 JUMP JUMPDEST PUSH2 0x14E0 PUSH1 0x60 DUP4 ADD DUP6 PUSH2 0xF16 JUMP JUMPDEST PUSH2 0x14ED PUSH1 0x80 DUP4 ADD DUP5 PUSH2 0xF16 JUMP JUMPDEST SWAP7 SWAP6 POP POP POP POP POP POP JUMP JUMPDEST PUSH32 0x6E6F742063726561746F72000000000000000000000000000000000000000000 PUSH0 DUP3 ADD MSTORE POP JUMP JUMPDEST PUSH0 PUSH2 0x152B PUSH1 0xB DUP4 PUSH2 0x1132 JUMP JUMPDEST SWAP2 POP PUSH2 0x1536 DUP3 PUSH2 0x14F7 JUMP JUMPDEST PUSH1 0x20 DUP3 ADD SWAP1 POP SWAP2 SWAP1 POP JUMP JUMPDEST PUSH0 PUSH1 0x20 DUP3 ADD SWAP1 POP DUP2 DUP2 SUB PUSH0 DUP4 ADD MSTORE PUSH2 0x1558 DUP2 PUSH2 0x151F JUMP JUMPDEST SWAP1 POP SWAP2 SWAP1 POP JUMP JUMPDEST PUSH32 0x706C6564676564203C20676F616C000000000000000000000000000000000000 PUSH0 DUP3 ADD MSTORE POP JUMP JUMPDEST PUSH0 PUSH2 0x1593 PUSH1 0xE DUP4 PUSH2 0x1132 JUMP JUMPDEST SWAP2 POP PUSH2 0x159E DUP3 PUSH2 0x155F JUMP JUMPDEST PUSH1 0x20 DUP3 ADD SWAP1 POP SWAP2 SWAP1 POP JUMP JUMPDEST PUSH0 PUSH1 0x20 DUP3 ADD SWAP1 POP DUP2 DUP2 SUB PUSH0 DUP4 ADD MSTORE PUSH2 0x15C0 DUP2 PUSH2 0x1587 JUMP JUMPDEST SWAP1 POP SWAP2 SWAP1 POP JUMP JUMPDEST PUSH32 0x636C61696D656400000000000000000000000000000000000000000000000000 PUSH0 DUP3 ADD MSTORE POP JUMP JUMPDEST PUSH0 PUSH2 0x15FB PUSH1 0x7 DUP4 PUSH2 0x1132 JUMP JUMPDEST SWAP2 POP PUSH2 0x1606 DUP3 PUSH2 0x15C7 JUMP JUMPDEST PUSH1 0x20 DUP3 ADD SWAP1 POP SWAP2 SWAP1 POP JUMP JUMPDEST PUSH0 PUSH1 0x20 DUP3 ADD SWAP1 POP DUP2 DUP2 SUB PUSH0 DUP4 ADD MSTORE PUSH2 0x1628 DUP2 PUSH2 0x15EF JUMP JUMPDEST SWAP1 POP SWAP2 SWAP1 POP JUMP JUMPDEST PUSH0 PUSH2 0x1639 DUP3 PUSH2 0xE3E JUMP JUMPDEST SWAP2 POP PUSH2 0x1644 DUP4 PUSH2 0xE3E JUMP JUMPDEST SWAP3 POP DUP3 DUP3 SUB SWAP1 POP DUP2 DUP2 GT ISZERO PUSH2 0x165C JUMPI PUSH2 0x165B PUSH2 0x1393 JUMP JUMPDEST JUMPDEST SWAP3 SWAP2 POP POP JUMP JUMPDEST PUSH32 0x6E6F742073746172746564000000000000000000000000000000000000000000 PUSH0 DUP3 ADD MSTORE POP JUMP JUMPDEST PUSH0 PUSH2 0x1696 PUSH1 0xB DUP4 PUSH2 0x1132 JUMP JUMPDEST SWAP2 POP PUSH2 0x16A1 DUP3 PUSH2 0x1662 JUMP JUMPDEST PUSH1 0x20 DUP3 ADD SWAP1 POP SWAP2 SWAP1 POP JUMP JUMPDEST PUSH0 PUSH1 0x20 DUP3 ADD SWAP1 POP DUP2 DUP2 SUB PUSH0 DUP4 ADD MSTORE PUSH2 0x16C3 DUP2 PUSH2 0x168A JUMP JUMPDEST SWAP1 POP SWAP2 SWAP1 POP JUMP JUMPDEST PUSH32 0x656E646564000000000000000000000000000000000000000000000000000000 PUSH0 DUP3 ADD MSTORE POP JUMP JUMPDEST PUSH0 PUSH2 0x16FE PUSH1 0x5 DUP4 PUSH2 0x1132 JUMP JUMPDEST SWAP2 POP PUSH2 0x1709 DUP3 PUSH2 0x16CA JUMP JUMPDEST PUSH1 0x20 DUP3 ADD SWAP1 POP SWAP2 SWAP1 POP JUMP JUMPDEST PUSH0 PUSH1 0x20 DUP3 ADD SWAP1 POP DUP2 DUP2 SUB PUSH0 DUP4 ADD MSTORE PUSH2 0x172B DUP2 PUSH2 0x16F2 JUMP JUMPDEST SWAP1 POP SWAP2 SWAP1 POP JUMP JUMPDEST PUSH0 PUSH1 0x60 DUP3 ADD SWAP1 POP PUSH2 0x1745 PUSH0 DUP4 ADD DUP7 PUSH2 0xEF8 JUMP JUMPDEST PUSH2 0x1752 PUSH1 0x20 DUP4 ADD DUP6 PUSH2 0xEF8 JUMP JUMPDEST PUSH2 0x175F PUSH1 0x40 DUP4 ADD DUP5 PUSH2 0xE47 JUMP JUMPDEST SWAP5 SWAP4 POP POP POP POP JUMP JUMPDEST PUSH0 PUSH2 0x1771 DUP3 PUSH2 0xE3E JUMP JUMPDEST SWAP2 POP PUSH2 0x177C DUP4 PUSH2 0xE3E JUMP JUMPDEST SWAP3 POP DUP3 DUP3 ADD SWAP1 POP DUP1 DUP3 GT ISZERO PUSH2 0x1794 JUMPI PUSH2 0x1793 PUSH2 0x1393 JUMP JUMPDEST JUMPDEST SWAP3 SWAP2 POP POP JUMP INVALID LOG2 PUSH5 0x6970667358 0x22 SLT KECCAK256 0xDF 0xA9 SELFDESTRUCT TIMESTAMP SAR PUSH20 0x8097B541AC286BD25D3BB58FF4AF428901EC4BD4 0xE3 DUP2 0x4E ADD SELFDESTRUCT 0x23 PUSH5 0x736F6C6343 STOP ADDMOD ISZERO STOP CALLER "
		},
		"gasEstimates": {
			"creation": {
				"codeDepositCost": "1219200",
				"executionCost": "infinite",
				"totalCost": "infinite"
			},
			"external": {
				"campaigns(uint256)": "infinite",
				"claim(uint256)": "infinite",
				"count()": "2425",
				"get()": "331",
				"launch(uint256,uint32,uint32)": "infinite",
				"pledge(uint256,uint256)": "infinite",
				"pledgedAmount(uint256,address)": "infinite",
				"refund(uint256)": "infinite",
				"token()": "infinite",
				"unpledge(uint256,uint256)": "infinite"
			}
		},
		"methodIdentifiers": {
			"campaigns(uint256)": "141961bc",
			"claim(uint256)": "379607f5",
			"count()": "06661abd",
			"get()": "6d4ce63c",
			"launch(uint256,uint32,uint32)": "2c63f146",
			"pledge(uint256,uint256)": "fde327be",
			"pledgedAmount(uint256,address)": "aa4fb63a",
			"refund(uint256)": "278ecde1",
			"token()": "fc0c546a",
			"unpledge(uint256,uint256)": "711853ab"
		}
	},
	"abi": [
		{
			"inputs": [
				{
					"internalType": "address",
					"name": "_token",
					"type": "address"
				}
			],
			"stateMutability": "nonpayable",
			"type": "constructor"
		},
		{
			"anonymous": false,
			"inputs": [
				{
					"indexed": false,
					"internalType": "uint256",
					"name": "id",
					"type": "uint256"
				}
			],
			"name": "Claim",
			"type": "event"
		},
		{
			"anonymous": false,
			"inputs": [
				{
					"indexed": false,
					"internalType": "uint256",
					"name": "id",
					"type": "uint256"
				},
				{
					"indexed": false,
					"internalType": "address",
					"name": "creator",
					"type": "address"
				},
				{
					"indexed": false,
					"internalType": "uint256",
					"name": "goal",
					"type": "uint256"
				},
				{
					"indexed": false,
					"internalType": "uint32",
					"name": "startAt",
					"type": "uint32"
				},
				{
					"indexed": false,
					"internalType": "uint32",
					"name": "endAt",
					"type": "uint32"
				}
			],
			"name": "Launch",
			"type": "event"
		},
		{
			"anonymous": false,
			"inputs": [
				{
					"indexed": false,
					"internalType": "uint256",
					"name": "id",
					"type": "uint256"
				},
				{
					"indexed": false,
					"internalType": "address",
					"name": "caller",
					"type": "address"
				},
				{
					"indexed": false,
					"internalType": "uint256",
					"name": "amount",
					"type": "uint256"
				}
			],
			"name": "Pledge",
			"type": "event"
		},
		{
			"anonymous": false,
			"inputs": [
				{
					"indexed": false,
					"internalType": "uint256",
					"name": "id",
					"type": "uint256"
				},
				{
					"indexed": false,
					"internalType": "address",
					"name": "caller",
					"type": "address"
				},
				{
					"indexed": false,
					"internalType": "uint256",
					"name": "amount",
					"type": "uint256"
				}
			],
			"name": "Refund",
			"type": "event"
		},
		{
			"anonymous": false,
			"inputs": [
				{
					"indexed": false,
					"internalType": "uint256",
					"name": "id",
					"type": "uint256"
				},
				{
					"indexed": false,
					"internalType": "address",
					"name": "caller",
					"type": "address"
				},
				{
					"indexed": false,
					"internalType": "uint256",
					"name": "amount",
					"type": "uint256"
				}
			],
			"name": "Unpledge",
			"type": "event"
		},
		{
			"inputs": [
				{
					"internalType": "uint256",
					"name": "",
					"type": "uint256"
				}
			],
			"name": "campaigns",
			"outputs": [
				{
					"internalType": "address",
					"name": "creator",
					"type": "address"
				},
				{
					"internalType": "uint256",
					"name": "goal",
					"type": "uint256"
				},
				{
					"internalType": "uint256",
					"name": "pledged",
					"type": "uint256"
				},
				{
					"internalType": "uint32",
					"name": "startAt",
					"type": "uint32"
				},
				{
					"internalType": "uint32",
					"name": "endAt",
					"type": "uint32"
				},
				{
					"internalType": "bool",
					"name": "claimed",
					"type": "bool"
				}
			],
			"stateMutability": "view",
			"type": "function"
		},
		{
			"inputs": [
				{
					"internalType": "uint256",
					"name": "_id",
					"type": "uint256"
				}
			],
			"name": "claim",
			"outputs": [],
			"stateMutability": "nonpayable",
			"type": "function"
		},
		{
			"inputs": [],
			"name": "count",
			"outputs": [
				{
					"internalType": "uint256",
					"name": "",
					"type": "uint256"
				}
			],
			"stateMutability": "view",
			"type": "function"
		},
		{
			"inputs": [],
			"name": "get",
			"outputs": [
				{
					"internalType": "uint256",
					"name": "",
					"type": "uint256"
				}
			],
			"stateMutability": "view",
			"type": "function"
		},
		{
			"inputs": [
				{
					"internalType": "uint256",
					"name": "_goal",
					"type": "uint256"
				},
				{
					"internalType": "uint32",
					"name": "_startAt",
					"type": "uint32"
				},
				{
					"internalType": "uint32",
					"name": "_endAt",
					"type": "uint32"
				}
			],
			"name": "launch",
			"outputs": [],
			"stateMutability": "nonpayable",
			"type": "function"
		},
		{
			"inputs": [
				{
					"internalType": "uint256",
					"name": "_id",
					"type": "uint256"
				},
				{
					"internalType": "uint256",
					"name": "_amount",
					"type": "uint256"
				}
			],
			"name": "pledge",
			"outputs": [],
			"stateMutability": "nonpayable",
			"type": "function"
		},
		{
			"inputs": [
				{
					"internalType": "uint256",
					"name": "",
					"type": "uint256"
				},
				{
					"internalType": "address",
					"name": "",
					"type": "address"
				}
			],
			"name": "pledgedAmount",
			"outputs": [
				{
					"internalType": "uint256",
					"name": "",
					"type": "uint256"
				}
			],
			"stateMutability": "view",
			"type": "function"
		},
		{
			"inputs": [
				{
					"internalType": "uint256",
					"name": "_id",
					"type": "uint256"
				}
			],
			"name": "refund",
			"outputs": [],
			"stateMutability": "nonpayable",
			"type": "function"
		},
		{
			"inputs": [],
			"name": "token",
			"outputs": [
				{
					"internalType": "contract IERC20",
					"name": "",
					"type": "address"
				}
			],
			"stateMutability": "view",
			"type": "function"
		},
		{
			"inputs": [
				{
					"internalType": "uint256",
					"name": "_id",
					"type": "uint256"
				},
				{
					"internalType": "uint256",
					"name": "_amount",
					"type": "uint256"
				}
			],
			"name": "unpledge",
			"outputs": [],
			"stateMutability": "nonpayable",
			"type": "function"
		}
	]
}