{
	"shijian/4/Deposit_start.sol": {
		"DepositContract": {
			"abi": [
				{
					"inputs": [
						{
							"internalType": "address payable",
							"name": "_wethAddress",
							"type": "address"
						},
						{
							"internalType": "uint256",
							"name": "_period",
							"type": "uint256"
						}
					],
					"stateMutability": "nonpayable",
					"type": "constructor"
				},
				{
					"anonymous": false,
					"inputs": [
						{
							"indexed": true,
							"internalType": "address",
							"name": "sender",
							"type": "address"
						},
						{
							"indexed": false,
							"internalType": "address",
							"name": "recipient",
							"type": "address"
						},
						{
							"indexed": false,
							"internalType": "uint256",
							"name": "amount",
							"type": "uint256"
						}
					],
					"name": "Claim",
					"type": "event"
				},
				{
					"anonymous": false,
					"inputs": [
						{
							"indexed": true,
							"internalType": "address",
							"name": "sender",
							"type": "address"
						},
						{
							"indexed": false,
							"internalType": "uint256",
							"name": "amount",
							"type": "uint256"
						}
					],
					"name": "Deposit",
					"type": "event"
				},
				{
					"anonymous": false,
					"inputs": [
						{
							"indexed": true,
							"internalType": "address",
							"name": "sender",
							"type": "address"
						},
						{
							"indexed": false,
							"internalType": "uint256",
							"name": "amount",
							"type": "uint256"
						}
					],
					"name": "Withdraw",
					"type": "event"
				},
				{
					"inputs": [],
					"name": "_weth",
					"outputs": [
						{
							"internalType": "address payable",
							"name": "",
							"type": "address"
						}
					],
					"stateMutability": "view",
					"type": "function"
				},
				{
					"inputs": [],
					"name": "addBlockNumber",
					"outputs": [],
					"stateMutability": "nonpayable",
					"type": "function"
				},
				{
					"inputs": [
						{
							"internalType": "address",
							"name": "",
							"type": "address"
						}
					],
					"name": "calculatedReward",
					"outputs": [
						{
							"internalType": "uint256",
							"name": "",
							"type": "uint256"
						}
					],
					"stateMutability": "view",
					"type": "function"
				},
				{
					"inputs": [
						{
							"internalType": "address",
							"name": "",
							"type": "address"
						}
					],
					"name": "checkPoint",
					"outputs": [
						{
							"internalType": "uint256",
							"name": "",
							"type": "uint256"
						}
					],
					"stateMutability": "view",
					"type": "function"
				},
				{
					"inputs": [
						{
							"internalType": "address payable",
							"name": "_toAddress",
							"type": "address"
						}
					],
					"name": "claimReward",
					"outputs": [
						{
							"internalType": "bool",
							"name": "",
							"type": "bool"
						}
					],
					"stateMutability": "nonpayable",
					"type": "function"
				},
				{
					"inputs": [
						{
							"internalType": "address",
							"name": "",
							"type": "address"
						}
					],
					"name": "claimedReward",
					"outputs": [
						{
							"internalType": "uint256",
							"name": "",
							"type": "uint256"
						}
					],
					"stateMutability": "view",
					"type": "function"
				},
				{
					"inputs": [
						{
							"internalType": "uint256",
							"name": "_amount",
							"type": "uint256"
						}
					],
					"name": "deposit",
					"outputs": [
						{
							"internalType": "bool",
							"name": "",
							"type": "bool"
						}
					],
					"stateMutability": "nonpayable",
					"type": "function"
				},
				{
					"inputs": [
						{
							"internalType": "address",
							"name": "",
							"type": "address"
						}
					],
					"name": "depositAmount",
					"outputs": [
						{
							"internalType": "uint256",
							"name": "",
							"type": "uint256"
						}
					],
					"stateMutability": "view",
					"type": "function"
				},
				{
					"inputs": [],
					"name": "endBlock",
					"outputs": [
						{
							"internalType": "uint256",
							"name": "",
							"type": "uint256"
						}
					],
					"stateMutability": "view",
					"type": "function"
				},
				{
					"inputs": [],
					"name": "get",
					"outputs": [
						{
							"internalType": "address",
							"name": "",
							"type": "address"
						}
					],
					"stateMutability": "view",
					"type": "function"
				},
				{
					"inputs": [],
					"name": "getBlockNumber",
					"outputs": [
						{
							"internalType": "uint256",
							"name": "",
							"type": "uint256"
						}
					],
					"stateMutability": "view",
					"type": "function"
				},
				{
					"inputs": [
						{
							"internalType": "address",
							"name": "_account",
							"type": "address"
						}
					],
					"name": "getPendingReward",
					"outputs": [
						{
							"internalType": "uint256",
							"name": "pendingReward",
							"type": "uint256"
						}
					],
					"stateMutability": "view",
					"type": "function"
				},
				{
					"inputs": [],
					"name": "getThis",
					"outputs": [
						{
							"internalType": "address",
							"name": "",
							"type": "address"
						}
					],
					"stateMutability": "view",
					"type": "function"
				},
				{
					"inputs": [],
					"name": "getWETH",
					"outputs": [
						{
							"internalType": "address",
							"name": "",
							"type": "address"
						}
					],
					"stateMutability": "view",
					"type": "function"
				},
				{
					"inputs": [],
					"name": "rewardBase",
					"outputs": [
						{
							"internalType": "uint256",
							"name": "",
							"type": "uint256"
						}
					],
					"stateMutability": "view",
					"type": "function"
				},
				{
					"inputs": [],
					"name": "startBlock",
					"outputs": [
						{
							"internalType": "uint256",
							"name": "",
							"type": "uint256"
						}
					],
					"stateMutability": "view",
					"type": "function"
				},
				{
					"inputs": [
						{
							"internalType": "uint256",
							"name": "_amount",
							"type": "uint256"
						}
					],
					"name": "withdraw",
					"outputs": [
						{
							"internalType": "bool",
							"name": "",
							"type": "bool"
						}
					],
					"stateMutability": "nonpayable",
					"type": "function"
				}
			],
			"devdoc": {
				"kind": "dev",
				"methods": {},
				"version": 1
			},
			"evm": {
				"assembly": "    /* \"shijian/4/Deposit_start.sol\":109:5544  contract DepositContract {\r... */\n  mstore(0x40, 0xe0)\n    /* \"shijian/4/Deposit_start.sol\":1111:1389  constructor(address payable _wethAddress, uint256 _period) {\r... */\n  callvalue\n  dup1\n  iszero\n  tag_1\n  jumpi\n  0x00\n  dup1\n  revert\ntag_1:\n  pop\n  mload(0x40)\n  sub(codesize, bytecodeSize)\n  dup1\n  bytecodeSize\n  dup4\n  codecopy\n  dup2\n  dup2\n  add\n  0x40\n  mstore\n  0x40\n  dup2\n  lt\n  iszero\n  tag_2\n  jumpi\n  0x00\n  dup1\n  revert\ntag_2:\n  dup2\n  add\n  swap1\n  dup1\n  dup1\n  mload\n  swap1\n  0x20\n  add\n  swap1\n  swap3\n  swap2\n  swap1\n  dup1\n  mload\n  swap1\n  0x20\n  add\n  swap1\n  swap3\n  swap2\n  swap1\n  pop\n  pop\n  pop\n    /* \"shijian/4/Deposit_start.sol\":1256:1268  block.number */\n  number\n    /* \"shijian/4/Deposit_start.sol\":1243:1268  startBlock = block.number */\n  0xa0\n  dup2\n  dup2\n  mstore\n  pop\n  pop\n    /* \"shijian/4/Deposit_start.sol\":1315:1316  1 */\n  0x01\n    /* \"shijian/4/Deposit_start.sol\":1305:1312  _period */\n  dup2\n    /* \"shijian/4/Deposit_start.sol\":1290:1302  block.number */\n  number\n    /* \"shijian/4/Deposit_start.sol\":1290:1312  block.number + _period */\n  add\n    /* \"shijian/4/Deposit_start.sol\":1290:1316  block.number + _period + 1 */\n  add\n    /* \"shijian/4/Deposit_start.sol\":1279:1316  endBlock = block.number + _period + 1 */\n  0xc0\n  dup2\n  dup2\n  mstore\n  pop\n  pop\n    /* \"shijian/4/Deposit_start.sol\":1335:1347  _wethAddress */\n  dup2\n    /* \"shijian/4/Deposit_start.sol\":1327:1347  _weth = _wethAddress */\n  0xffffffffffffffffffffffffffffffffffffffff\n  and\n  0x80\n  dup2\n  0xffffffffffffffffffffffffffffffffffffffff\n  and\n  0x60\n  shl\n  dup2\n  mstore\n  pop\n  pop\n    /* \"shijian/4/Deposit_start.sol\":1368:1380  _wethAddress */\n  dup2\n    /* \"shijian/4/Deposit_start.sol\":1358:1360  we */\n  0x00\n  dup1\n    /* \"shijian/4/Deposit_start.sol\":1358:1381  we = WETH(_wethAddress) */\n  0x0100\n  exp\n  dup2\n  sload\n  dup2\n  0xffffffffffffffffffffffffffffffffffffffff\n  mul\n  not\n  and\n  swap1\n  dup4\n  0xffffffffffffffffffffffffffffffffffffffff\n  and\n  mul\n  or\n  swap1\n  sstore\n  pop\n    /* \"shijian/4/Deposit_start.sol\":1111:1389  constructor(address payable _wethAddress, uint256 _period) {\r... */\n  pop\n  pop\n    /* \"shijian/4/Deposit_start.sol\":109:5544  contract DepositContract {\r... */\n  shr(0x60, mload(0x80))\n  mload(0xa0)\n  mload(0xc0)\n  codecopy(0x00, dataOffset(sub_0), dataSize(sub_0))\n  assignImmutable(\"0x8e8fab5f003314da8d1873ea7720e8d9f47650136d916064d1edb8a11d682624\")\n  assignImmutable(\"0x1d3be50b2bb17407dd170f1d5da128d1def30c6b1598d6a629e79b4775265526\")\n  assignImmutable(\"0x1a192fabce13988b84994d4296e6cdc418d55e2f1d7f942188d4040b94fc57ac\")\n  return(0x00, dataSize(sub_0))\nstop\n\nsub_0: assembly {\n        /* \"shijian/4/Deposit_start.sol\":109:5544  contract DepositContract {\r... */\n      mstore(0x40, 0x80)\n      callvalue\n      dup1\n      iszero\n      tag_1\n      jumpi\n      0x00\n      dup1\n      revert\n    tag_1:\n      pop\n      jumpi(tag_2, lt(calldatasize, 0x04))\n      shr(0xe0, calldataload(0x00))\n      dup1\n      0x50f62da7\n      gt\n      tag_20\n      jumpi\n      dup1\n      0xa1764595\n      gt\n      tag_21\n      jumpi\n      dup1\n      0xa1764595\n      eq\n      tag_15\n      jumpi\n      dup1\n      0xb6b55f25\n      eq\n      tag_16\n      jumpi\n      dup1\n      0xb8368615\n      eq\n      tag_17\n      jumpi\n      dup1\n      0xcae5f11e\n      eq\n      tag_18\n      jumpi\n      dup1\n      0xd279c191\n      eq\n      tag_19\n      jumpi\n      jump(tag_2)\n    tag_21:\n      dup1\n      0x50f62da7\n      eq\n      tag_11\n      jumpi\n      dup1\n      0x562dead2\n      eq\n      tag_12\n      jumpi\n      dup1\n      0x6967519b\n      eq\n      tag_13\n      jumpi\n      dup1\n      0x6d4ce63c\n      eq\n      tag_14\n      jumpi\n      jump(tag_2)\n    tag_20:\n      dup1\n      0x2e1a7d4d\n      gt\n      tag_22\n      jumpi\n      dup1\n      0x2e1a7d4d\n      eq\n      tag_7\n      jumpi\n      dup1\n      0x42cbb15c\n      eq\n      tag_8\n      jumpi\n      dup1\n      0x48cd4cb1\n      eq\n      tag_9\n      jumpi\n      dup1\n      0x4df9d6ba\n      eq\n      tag_10\n      jumpi\n      jump(tag_2)\n    tag_22:\n      dup1\n      0x083c6323\n      eq\n      tag_3\n      jumpi\n      dup1\n      0x19289218\n      eq\n      tag_4\n      jumpi\n      dup1\n      0x1e6f3d8a\n      eq\n      tag_5\n      jumpi\n      dup1\n      0x28ba6cab\n      eq\n      tag_6\n      jumpi\n    tag_2:\n      0x00\n      dup1\n      revert\n        /* \"shijian/4/Deposit_start.sol\":494:527  uint256 public immutable endBlock */\n    tag_3:\n      tag_23\n      tag_24\n      jump\t// in\n    tag_23:\n      mload(0x40)\n      dup1\n      dup3\n      dup2\n      mstore\n      0x20\n      add\n      swap2\n      pop\n      pop\n      mload(0x40)\n      dup1\n      swap2\n      sub\n      swap1\n      return\n        /* \"shijian/4/Deposit_start.sol\":5345:5406  function addBlockNumber() public {\r... */\n    tag_4:\n      tag_25\n      tag_26\n      jump\t// in\n    tag_25:\n      stop\n        /* \"shijian/4/Deposit_start.sol\":829:877  mapping(address => uint256) public claimedReward */\n    tag_5:\n      tag_27\n      0x04\n      dup1\n      calldatasize\n      sub\n      0x20\n      dup2\n      lt\n      iszero\n      tag_28\n      jumpi\n      0x00\n      dup1\n      revert\n    tag_28:\n      dup2\n      add\n      swap1\n      dup1\n      dup1\n      calldataload\n      0xffffffffffffffffffffffffffffffffffffffff\n      and\n      swap1\n      0x20\n      add\n      swap1\n      swap3\n      swap2\n      swap1\n      pop\n      pop\n      pop\n      tag_29\n      jump\t// in\n    tag_27:\n      mload(0x40)\n      dup1\n      dup3\n      dup2\n      mstore\n      0x20\n      add\n      swap2\n      pop\n      pop\n      mload(0x40)\n      dup1\n      swap2\n      sub\n      swap1\n      return\n        /* \"shijian/4/Deposit_start.sol\":642:687  mapping(address => uint256) public checkPoint */\n    tag_6:\n      tag_30\n      0x04\n      dup1\n      calldatasize\n      sub\n      0x20\n      dup2\n      lt\n      iszero\n      tag_31\n      jumpi\n      0x00\n      dup1\n      revert\n    tag_31:\n      dup2\n      add\n      swap1\n      dup1\n      dup1\n      calldataload\n      0xffffffffffffffffffffffffffffffffffffffff\n      and\n      swap1\n      0x20\n      add\n      swap1\n      swap3\n      swap2\n      swap1\n      pop\n      pop\n      pop\n      tag_32\n      jump\t// in\n    tag_30:\n      mload(0x40)\n      dup1\n      dup3\n      dup2\n      mstore\n      0x20\n      add\n      swap2\n      pop\n      pop\n      mload(0x40)\n      dup1\n      swap2\n      sub\n      swap1\n      return\n        /* \"shijian/4/Deposit_start.sol\":3973:4897  function withdraw(uint256 _amount) public returns (bool) {\r... */\n    tag_7:\n      tag_33\n      0x04\n      dup1\n      calldatasize\n      sub\n      0x20\n      dup2\n      lt\n      iszero\n      tag_34\n      jumpi\n      0x00\n      dup1\n      revert\n    tag_34:\n      dup2\n      add\n      swap1\n      dup1\n      dup1\n      calldataload\n      swap1\n      0x20\n      add\n      swap1\n      swap3\n      swap2\n      swap1\n      pop\n      pop\n      pop\n      tag_35\n      jump\t// in\n    tag_33:\n      mload(0x40)\n      dup1\n      dup3\n      iszero\n      iszero\n      dup2\n      mstore\n      0x20\n      add\n      swap2\n      pop\n      pop\n      mload(0x40)\n      dup1\n      swap2\n      sub\n      swap1\n      return\n        /* \"shijian/4/Deposit_start.sol\":5447:5541  function getBlockNumber() public view returns (uint256) {\r... */\n    tag_8:\n      tag_36\n      tag_37\n      jump\t// in\n    tag_36:\n      mload(0x40)\n      dup1\n      dup3\n      dup2\n      mstore\n      0x20\n      add\n      swap2\n      pop\n      pop\n      mload(0x40)\n      dup1\n      swap2\n      sub\n      swap1\n      return\n        /* \"shijian/4/Deposit_start.sol\":424:459  uint256 public immutable startBlock */\n    tag_9:\n      tag_38\n      tag_39\n      jump\t// in\n    tag_38:\n      mload(0x40)\n      dup1\n      dup3\n      dup2\n      mstore\n      0x20\n      add\n      swap2\n      pop\n      pop\n      mload(0x40)\n      dup1\n      swap2\n      sub\n      swap1\n      return\n        /* \"shijian/4/Deposit_start.sol\":2524:3361  function getPendingReward(address _account)\r... */\n    tag_10:\n      tag_40\n      0x04\n      dup1\n      calldatasize\n      sub\n      0x20\n      dup2\n      lt\n      iszero\n      tag_41\n      jumpi\n      0x00\n      dup1\n      revert\n    tag_41:\n      dup2\n      add\n      swap1\n      dup1\n      dup1\n      calldataload\n      0xffffffffffffffffffffffffffffffffffffffff\n      and\n      swap1\n      0x20\n      add\n      swap1\n      swap3\n      swap2\n      swap1\n      pop\n      pop\n      pop\n      tag_42\n      jump\t// in\n    tag_40:\n      mload(0x40)\n      dup1\n      dup3\n      dup2\n      mstore\n      0x20\n      add\n      swap2\n      pop\n      pop\n      mload(0x40)\n      dup1\n      swap2\n      sub\n      swap1\n      return\n        /* \"shijian/4/Deposit_start.sol\":562:610  mapping(address => uint256) public depositAmount */\n    tag_11:\n      tag_43\n      0x04\n      dup1\n      calldatasize\n      sub\n      0x20\n      dup2\n      lt\n      iszero\n      tag_44\n      jumpi\n      0x00\n      dup1\n      revert\n    tag_44:\n      dup2\n      add\n      swap1\n      dup1\n      dup1\n      calldataload\n      0xffffffffffffffffffffffffffffffffffffffff\n      and\n      swap1\n      0x20\n      add\n      swap1\n      swap3\n      swap2\n      swap1\n      pop\n      pop\n      pop\n      tag_45\n      jump\t// in\n    tag_43:\n      mload(0x40)\n      dup1\n      dup3\n      dup2\n      mstore\n      0x20\n      add\n      swap2\n      pop\n      pop\n      mload(0x40)\n      dup1\n      swap2\n      sub\n      swap1\n      return\n        /* \"shijian/4/Deposit_start.sol\":273:311  uint256 public constant rewardBase = 5 */\n    tag_12:\n      tag_46\n      tag_47\n      jump\t// in\n    tag_46:\n      mload(0x40)\n      dup1\n      dup3\n      dup2\n      mstore\n      0x20\n      add\n      swap2\n      pop\n      pop\n      mload(0x40)\n      dup1\n      swap2\n      sub\n      swap1\n      return\n        /* \"shijian/4/Deposit_start.sol\":746:797  mapping(address => uint256) public calculatedReward */\n    tag_13:\n      tag_48\n      0x04\n      dup1\n      calldatasize\n      sub\n      0x20\n      dup2\n      lt\n      iszero\n      tag_49\n      jumpi\n      0x00\n      dup1\n      revert\n    tag_49:\n      dup2\n      add\n      swap1\n      dup1\n      dup1\n      calldataload\n      0xffffffffffffffffffffffffffffffffffffffff\n      and\n      swap1\n      0x20\n      add\n      swap1\n      swap3\n      swap2\n      swap1\n      pop\n      pop\n      pop\n      tag_50\n      jump\t// in\n    tag_48:\n      mload(0x40)\n      dup1\n      dup3\n      dup2\n      mstore\n      0x20\n      add\n      swap2\n      pop\n      pop\n      mload(0x40)\n      dup1\n      swap2\n      sub\n      swap1\n      return\n        /* \"shijian/4/Deposit_start.sol\":4931:5056  function get() public view returns (address){\r... */\n    tag_14:\n      tag_51\n      tag_52\n      jump\t// in\n    tag_51:\n      mload(0x40)\n      dup1\n      dup3\n      0xffffffffffffffffffffffffffffffffffffffff\n      and\n      dup2\n      mstore\n      0x20\n      add\n      swap2\n      pop\n      pop\n      mload(0x40)\n      dup1\n      swap2\n      sub\n      swap1\n      return\n        /* \"shijian/4/Deposit_start.sol\":188:226  address payable public immutable _weth */\n    tag_15:\n      tag_53\n      tag_54\n      jump\t// in\n    tag_53:\n      mload(0x40)\n      dup1\n      dup3\n      0xffffffffffffffffffffffffffffffffffffffff\n      and\n      dup2\n      mstore\n      0x20\n      add\n      swap2\n      pop\n      pop\n      mload(0x40)\n      dup1\n      swap2\n      sub\n      swap1\n      return\n        /* \"shijian/4/Deposit_start.sol\":1621:2495  function deposit(uint256 _amount) public  onlyValidTime returns (bool) {\r... */\n    tag_16:\n      tag_55\n      0x04\n      dup1\n      calldatasize\n      sub\n      0x20\n      dup2\n      lt\n      iszero\n      tag_56\n      jumpi\n      0x00\n      dup1\n      revert\n    tag_56:\n      dup2\n      add\n      swap1\n      dup1\n      dup1\n      calldataload\n      swap1\n      0x20\n      add\n      swap1\n      swap3\n      swap2\n      swap1\n      pop\n      pop\n      pop\n      tag_57\n      jump\t// in\n    tag_55:\n      mload(0x40)\n      dup1\n      dup3\n      iszero\n      iszero\n      dup2\n      mstore\n      0x20\n      add\n      swap2\n      pop\n      pop\n      mload(0x40)\n      dup1\n      swap2\n      sub\n      swap1\n      return\n        /* \"shijian/4/Deposit_start.sol\":5146:5235  function getThis() public  view returns (address){\r... */\n    tag_17:\n      tag_58\n      tag_59\n      jump\t// in\n    tag_58:\n      mload(0x40)\n      dup1\n      dup3\n      0xffffffffffffffffffffffffffffffffffffffff\n      and\n      dup2\n      mstore\n      0x20\n      add\n      swap2\n      pop\n      pop\n      mload(0x40)\n      dup1\n      swap2\n      sub\n      swap1\n      return\n        /* \"shijian/4/Deposit_start.sol\":5062:5140  function getWETH() public view returns(address){\r... */\n    tag_18:\n      tag_60\n      tag_61\n      jump\t// in\n    tag_60:\n      mload(0x40)\n      dup1\n      dup3\n      0xffffffffffffffffffffffffffffffffffffffff\n      and\n      dup2\n      mstore\n      0x20\n      add\n      swap2\n      pop\n      pop\n      mload(0x40)\n      dup1\n      swap2\n      sub\n      swap1\n      return\n        /* \"shijian/4/Deposit_start.sol\":3390:3929  function claimReward( address payable _toAddress) public returns (bool) {\r... */\n    tag_19:\n      tag_62\n      0x04\n      dup1\n      calldatasize\n      sub\n      0x20\n      dup2\n      lt\n      iszero\n      tag_63\n      jumpi\n      0x00\n      dup1\n      revert\n    tag_63:\n      dup2\n      add\n      swap1\n      dup1\n      dup1\n      calldataload\n      0xffffffffffffffffffffffffffffffffffffffff\n      and\n      swap1\n      0x20\n      add\n      swap1\n      swap3\n      swap2\n      swap1\n      pop\n      pop\n      pop\n      tag_64\n      jump\t// in\n    tag_62:\n      mload(0x40)\n      dup1\n      dup3\n      iszero\n      iszero\n      dup2\n      mstore\n      0x20\n      add\n      swap2\n      pop\n      pop\n      mload(0x40)\n      dup1\n      swap2\n      sub\n      swap1\n      return\n        /* \"shijian/4/Deposit_start.sol\":494:527  uint256 public immutable endBlock */\n    tag_24:\n      immutable(\"0x8e8fab5f003314da8d1873ea7720e8d9f47650136d916064d1edb8a11d682624\")\n      dup2\n      jump\t// out\n        /* \"shijian/4/Deposit_start.sol\":5345:5406  function addBlockNumber() public {\r... */\n    tag_26:\n        /* \"shijian/4/Deposit_start.sol\":5389:5396  counter */\n      0x05\n      0x00\n        /* \"shijian/4/Deposit_start.sol\":5389:5398  counter++ */\n      dup2\n      sload\n      dup1\n      swap3\n      swap2\n      swap1\n      0x01\n      add\n      swap2\n      swap1\n      pop\n      sstore\n      pop\n        /* \"shijian/4/Deposit_start.sol\":5345:5406  function addBlockNumber() public {\r... */\n      jump\t// out\n        /* \"shijian/4/Deposit_start.sol\":829:877  mapping(address => uint256) public claimedReward */\n    tag_29:\n      mstore(0x20, 0x04)\n      dup1\n      0x00\n      mstore\n      keccak256(0x00, 0x40)\n      0x00\n      swap2\n      pop\n      swap1\n      pop\n      sload\n      dup2\n      jump\t// out\n        /* \"shijian/4/Deposit_start.sol\":642:687  mapping(address => uint256) public checkPoint */\n    tag_32:\n      mstore(0x20, 0x02)\n      dup1\n      0x00\n      mstore\n      keccak256(0x00, 0x40)\n      0x00\n      swap2\n      pop\n      swap1\n      pop\n      sload\n      dup2\n      jump\t// out\n        /* \"shijian/4/Deposit_start.sol\":3973:4897  function withdraw(uint256 _amount) public returns (bool) {\r... */\n    tag_35:\n        /* \"shijian/4/Deposit_start.sol\":4024:4028  bool */\n      0x00\n        /* \"shijian/4/Deposit_start.sol\":4094:4095  0 */\n      dup1\n        /* \"shijian/4/Deposit_start.sol\":4086:4093  _amount */\n      dup3\n        /* \"shijian/4/Deposit_start.sol\":4086:4095  _amount>0 */\n      gt\n        /* \"shijian/4/Deposit_start.sol\":4086:4133  _amount>0 && depositAmount[msg.sender]>=_amount */\n      dup1\n      iszero\n      tag_67\n      jumpi\n      pop\n        /* \"shijian/4/Deposit_start.sol\":4126:4133  _amount */\n      dup2\n        /* \"shijian/4/Deposit_start.sol\":4099:4112  depositAmount */\n      0x01\n        /* \"shijian/4/Deposit_start.sol\":4099:4124  depositAmount[msg.sender] */\n      0x00\n        /* \"shijian/4/Deposit_start.sol\":4113:4123  msg.sender */\n      caller\n        /* \"shijian/4/Deposit_start.sol\":4099:4124  depositAmount[msg.sender] */\n      0xffffffffffffffffffffffffffffffffffffffff\n      and\n      0xffffffffffffffffffffffffffffffffffffffff\n      and\n      dup2\n      mstore\n      0x20\n      add\n      swap1\n      dup2\n      mstore\n      0x20\n      add\n      0x00\n      keccak256\n      sload\n        /* \"shijian/4/Deposit_start.sol\":4099:4133  depositAmount[msg.sender]>=_amount */\n      lt\n      iszero\n        /* \"shijian/4/Deposit_start.sol\":4086:4133  _amount>0 && depositAmount[msg.sender]>=_amount */\n    tag_67:\n        /* \"shijian/4/Deposit_start.sol\":4078:4146  require(_amount>0 && depositAmount[msg.sender]>=_amount,'can not 0') */\n      tag_68\n      jumpi\n      mload(0x40)\n      0x08c379a000000000000000000000000000000000000000000000000000000000\n      dup2\n      mstore\n      0x04\n      add\n      dup1\n      dup1\n      0x20\n      add\n      dup3\n      dup2\n      sub\n      dup3\n      mstore\n      0x09\n      dup2\n      mstore\n      0x20\n      add\n      dup1\n      0x63616e206e6f7420300000000000000000000000000000000000000000000000\n      dup2\n      mstore\n      pop\n      0x20\n      add\n      swap2\n      pop\n      pop\n      mload(0x40)\n      dup1\n      swap2\n      sub\n      swap1\n      revert\n    tag_68:\n        /* \"shijian/4/Deposit_start.sol\":4192:4393  SafeMath.add(calculatedReward[msg.sender],SafeMath.div(SafeMath.mul(SafeMath.sub(getBlockNumber(),SafeMath.div(checkPoint[msg.sender],depositAmount[msg.sender])),depositAmount[msg.sender]),rewardBase)) */\n      tag_69\n        /* \"shijian/4/Deposit_start.sol\":4205:4221  calculatedReward */\n      0x03\n        /* \"shijian/4/Deposit_start.sol\":4205:4233  calculatedReward[msg.sender] */\n      0x00\n        /* \"shijian/4/Deposit_start.sol\":4222:4232  msg.sender */\n      caller\n        /* \"shijian/4/Deposit_start.sol\":4205:4233  calculatedReward[msg.sender] */\n      0xffffffffffffffffffffffffffffffffffffffff\n      and\n      0xffffffffffffffffffffffffffffffffffffffff\n      and\n      dup2\n      mstore\n      0x20\n      add\n      swap1\n      dup2\n      mstore\n      0x20\n      add\n      0x00\n      keccak256\n      sload\n        /* \"shijian/4/Deposit_start.sol\":4234:4392  SafeMath.div(SafeMath.mul(SafeMath.sub(getBlockNumber(),SafeMath.div(checkPoint[msg.sender],depositAmount[msg.sender])),depositAmount[msg.sender]),rewardBase) */\n      tag_70\n        /* \"shijian/4/Deposit_start.sol\":4247:4380  SafeMath.mul(SafeMath.sub(getBlockNumber(),SafeMath.div(checkPoint[msg.sender],depositAmount[msg.sender])),depositAmount[msg.sender]) */\n      tag_71\n        /* \"shijian/4/Deposit_start.sol\":4260:4353  SafeMath.sub(getBlockNumber(),SafeMath.div(checkPoint[msg.sender],depositAmount[msg.sender])) */\n      tag_72\n        /* \"shijian/4/Deposit_start.sol\":4273:4289  getBlockNumber() */\n      tag_73\n        /* \"shijian/4/Deposit_start.sol\":4273:4287  getBlockNumber */\n      tag_37\n        /* \"shijian/4/Deposit_start.sol\":4273:4289  getBlockNumber() */\n      jump\t// in\n    tag_73:\n        /* \"shijian/4/Deposit_start.sol\":4290:4352  SafeMath.div(checkPoint[msg.sender],depositAmount[msg.sender]) */\n      tag_74\n        /* \"shijian/4/Deposit_start.sol\":4303:4313  checkPoint */\n      0x02\n        /* \"shijian/4/Deposit_start.sol\":4303:4325  checkPoint[msg.sender] */\n      0x00\n        /* \"shijian/4/Deposit_start.sol\":4314:4324  msg.sender */\n      caller\n        /* \"shijian/4/Deposit_start.sol\":4303:4325  checkPoint[msg.sender] */\n      0xffffffffffffffffffffffffffffffffffffffff\n      and\n      0xffffffffffffffffffffffffffffffffffffffff\n      and\n      dup2\n      mstore\n      0x20\n      add\n      swap1\n      dup2\n      mstore\n      0x20\n      add\n      0x00\n      keccak256\n      sload\n        /* \"shijian/4/Deposit_start.sol\":4326:4339  depositAmount */\n      0x01\n        /* \"shijian/4/Deposit_start.sol\":4326:4351  depositAmount[msg.sender] */\n      0x00\n        /* \"shijian/4/Deposit_start.sol\":4340:4350  msg.sender */\n      caller\n        /* \"shijian/4/Deposit_start.sol\":4326:4351  depositAmount[msg.sender] */\n      0xffffffffffffffffffffffffffffffffffffffff\n      and\n      0xffffffffffffffffffffffffffffffffffffffff\n      and\n      dup2\n      mstore\n      0x20\n      add\n      swap1\n      dup2\n      mstore\n      0x20\n      add\n      0x00\n      keccak256\n      sload\n        /* \"shijian/4/Deposit_start.sol\":4290:4302  SafeMath.div */\n      tag_75\n        /* \"shijian/4/Deposit_start.sol\":4290:4352  SafeMath.div(checkPoint[msg.sender],depositAmount[msg.sender]) */\n      jump\t// in\n    tag_74:\n        /* \"shijian/4/Deposit_start.sol\":4260:4272  SafeMath.sub */\n      tag_76\n        /* \"shijian/4/Deposit_start.sol\":4260:4353  SafeMath.sub(getBlockNumber(),SafeMath.div(checkPoint[msg.sender],depositAmount[msg.sender])) */\n      jump\t// in\n    tag_72:\n        /* \"shijian/4/Deposit_start.sol\":4354:4367  depositAmount */\n      0x01\n        /* \"shijian/4/Deposit_start.sol\":4354:4379  depositAmount[msg.sender] */\n      0x00\n        /* \"shijian/4/Deposit_start.sol\":4368:4378  msg.sender */\n      caller\n        /* \"shijian/4/Deposit_start.sol\":4354:4379  depositAmount[msg.sender] */\n      0xffffffffffffffffffffffffffffffffffffffff\n      and\n      0xffffffffffffffffffffffffffffffffffffffff\n      and\n      dup2\n      mstore\n      0x20\n      add\n      swap1\n      dup2\n      mstore\n      0x20\n      add\n      0x00\n      keccak256\n      sload\n        /* \"shijian/4/Deposit_start.sol\":4247:4259  SafeMath.mul */\n      tag_77\n        /* \"shijian/4/Deposit_start.sol\":4247:4380  SafeMath.mul(SafeMath.sub(getBlockNumber(),SafeMath.div(checkPoint[msg.sender],depositAmount[msg.sender])),depositAmount[msg.sender]) */\n      jump\t// in\n    tag_71:\n        /* \"shijian/4/Deposit_start.sol\":310:311  5 */\n      0x05\n        /* \"shijian/4/Deposit_start.sol\":4234:4246  SafeMath.div */\n      tag_75\n        /* \"shijian/4/Deposit_start.sol\":4234:4392  SafeMath.div(SafeMath.mul(SafeMath.sub(getBlockNumber(),SafeMath.div(checkPoint[msg.sender],depositAmount[msg.sender])),depositAmount[msg.sender]),rewardBase) */\n      jump\t// in\n    tag_70:\n        /* \"shijian/4/Deposit_start.sol\":4192:4204  SafeMath.add */\n      tag_78\n        /* \"shijian/4/Deposit_start.sol\":4192:4393  SafeMath.add(calculatedReward[msg.sender],SafeMath.div(SafeMath.mul(SafeMath.sub(getBlockNumber(),SafeMath.div(checkPoint[msg.sender],depositAmount[msg.sender])),depositAmount[msg.sender]),rewardBase)) */\n      jump\t// in\n    tag_69:\n        /* \"shijian/4/Deposit_start.sol\":4161:4177  calculatedReward */\n      0x03\n        /* \"shijian/4/Deposit_start.sol\":4161:4189  calculatedReward[msg.sender] */\n      0x00\n        /* \"shijian/4/Deposit_start.sol\":4178:4188  msg.sender */\n      caller\n        /* \"shijian/4/Deposit_start.sol\":4161:4189  calculatedReward[msg.sender] */\n      0xffffffffffffffffffffffffffffffffffffffff\n      and\n      0xffffffffffffffffffffffffffffffffffffffff\n      and\n      dup2\n      mstore\n      0x20\n      add\n      swap1\n      dup2\n      mstore\n      0x20\n      add\n      0x00\n      keccak256\n        /* \"shijian/4/Deposit_start.sol\":4161:4393  calculatedReward[msg.sender] = SafeMath.add(calculatedReward[msg.sender],SafeMath.div(SafeMath.mul(SafeMath.sub(getBlockNumber(),SafeMath.div(checkPoint[msg.sender],depositAmount[msg.sender])),depositAmount[msg.sender]),rewardBase)) */\n      dup2\n      swap1\n      sstore\n      pop\n        /* \"shijian/4/Deposit_start.sol\":4432:4448  calculatedReward */\n      0x03\n        /* \"shijian/4/Deposit_start.sol\":4432:4460  calculatedReward[msg.sender] */\n      0x00\n        /* \"shijian/4/Deposit_start.sol\":4449:4459  msg.sender */\n      caller\n        /* \"shijian/4/Deposit_start.sol\":4432:4460  calculatedReward[msg.sender] */\n      0xffffffffffffffffffffffffffffffffffffffff\n      and\n      0xffffffffffffffffffffffffffffffffffffffff\n      and\n      dup2\n      mstore\n      0x20\n      add\n      swap1\n      dup2\n      mstore\n      0x20\n      add\n      0x00\n      keccak256\n      sload\n        /* \"shijian/4/Deposit_start.sol\":4404:4417  claimedReward */\n      0x04\n        /* \"shijian/4/Deposit_start.sol\":4404:4429  claimedReward[msg.sender] */\n      0x00\n        /* \"shijian/4/Deposit_start.sol\":4418:4428  msg.sender */\n      caller\n        /* \"shijian/4/Deposit_start.sol\":4404:4429  claimedReward[msg.sender] */\n      0xffffffffffffffffffffffffffffffffffffffff\n      and\n      0xffffffffffffffffffffffffffffffffffffffff\n      and\n      dup2\n      mstore\n      0x20\n      add\n      swap1\n      dup2\n      mstore\n      0x20\n      add\n      0x00\n      keccak256\n        /* \"shijian/4/Deposit_start.sol\":4404:4460  claimedReward[msg.sender] = calculatedReward[msg.sender] */\n      dup2\n      swap1\n      sstore\n      pop\n        /* \"shijian/4/Deposit_start.sol\":4508:4515  _amount */\n      dup2\n        /* \"shijian/4/Deposit_start.sol\":4479:4492  depositAmount */\n      0x01\n        /* \"shijian/4/Deposit_start.sol\":4479:4504  depositAmount[msg.sender] */\n      0x00\n        /* \"shijian/4/Deposit_start.sol\":4493:4503  msg.sender */\n      caller\n        /* \"shijian/4/Deposit_start.sol\":4479:4504  depositAmount[msg.sender] */\n      0xffffffffffffffffffffffffffffffffffffffff\n      and\n      0xffffffffffffffffffffffffffffffffffffffff\n      and\n      dup2\n      mstore\n      0x20\n      add\n      swap1\n      dup2\n      mstore\n      0x20\n      add\n      0x00\n      keccak256\n      sload\n        /* \"shijian/4/Deposit_start.sol\":4479:4515  depositAmount[msg.sender] >= _amount */\n      lt\n      iszero\n        /* \"shijian/4/Deposit_start.sol\":4471:4540  require(depositAmount[msg.sender] >= _amount,'no more pendingReward') */\n      tag_79\n      jumpi\n      mload(0x40)\n      0x08c379a000000000000000000000000000000000000000000000000000000000\n      dup2\n      mstore\n      0x04\n      add\n      dup1\n      dup1\n      0x20\n      add\n      dup3\n      dup2\n      sub\n      dup3\n      mstore\n      0x15\n      dup2\n      mstore\n      0x20\n      add\n      dup1\n      0x6e6f206d6f72652070656e64696e675265776172640000000000000000000000\n      dup2\n      mstore\n      pop\n      0x20\n      add\n      swap2\n      pop\n      pop\n      mload(0x40)\n      dup1\n      swap2\n      sub\n      swap1\n      revert\n    tag_79:\n        /* \"shijian/4/Deposit_start.sol\":4551:4553  we */\n      0x00\n      dup1\n      sload\n      swap1\n      0x0100\n      exp\n      swap1\n      div\n      0xffffffffffffffffffffffffffffffffffffffff\n      and\n        /* \"shijian/4/Deposit_start.sol\":4551:4566  we.transferFrom */\n      0xffffffffffffffffffffffffffffffffffffffff\n      and\n      0x23b872dd\n        /* \"shijian/4/Deposit_start.sol\":4567:4577  msg.sender */\n      caller\n        /* \"shijian/4/Deposit_start.sol\":4586:4590  this */\n      address\n        /* \"shijian/4/Deposit_start.sol\":4592:4599  _amount */\n      dup6\n        /* \"shijian/4/Deposit_start.sol\":4551:4600  we.transferFrom(msg.sender,address(this),_amount) */\n      mload(0x40)\n      dup5\n      0xffffffff\n      and\n      0xe0\n      shl\n      dup2\n      mstore\n      0x04\n      add\n      dup1\n      dup5\n      0xffffffffffffffffffffffffffffffffffffffff\n      and\n      dup2\n      mstore\n      0x20\n      add\n      dup4\n      0xffffffffffffffffffffffffffffffffffffffff\n      and\n      dup2\n      mstore\n      0x20\n      add\n      dup3\n      dup2\n      mstore\n      0x20\n      add\n      swap4\n      pop\n      pop\n      pop\n      pop\n      0x20\n      mload(0x40)\n      dup1\n      dup4\n      sub\n      dup2\n      0x00\n      dup8\n      dup1\n      extcodesize\n      iszero\n      dup1\n      iszero\n      tag_80\n      jumpi\n      0x00\n      dup1\n      revert\n    tag_80:\n      pop\n      gas\n      call\n      iszero\n      dup1\n      iszero\n      tag_82\n      jumpi\n      returndatasize\n      0x00\n      dup1\n      returndatacopy\n      revert(0x00, returndatasize)\n    tag_82:\n      pop\n      pop\n      pop\n      pop\n      mload(0x40)\n      returndatasize\n      0x20\n      dup2\n      lt\n      iszero\n      tag_83\n      jumpi\n      0x00\n      dup1\n      revert\n    tag_83:\n      dup2\n      add\n      swap1\n      dup1\n      dup1\n      mload\n      swap1\n      0x20\n      add\n      swap1\n      swap3\n      swap2\n      swap1\n      pop\n      pop\n      pop\n      pop\n        /* \"shijian/4/Deposit_start.sol\":4611:4613  we */\n      0x00\n      dup1\n      sload\n      swap1\n      0x0100\n      exp\n      swap1\n      div\n      0xffffffffffffffffffffffffffffffffffffffff\n      and\n        /* \"shijian/4/Deposit_start.sol\":4611:4624  we.withdrawTo */\n      0xffffffffffffffffffffffffffffffffffffffff\n      and\n      0x205c2878\n        /* \"shijian/4/Deposit_start.sol\":4625:4635  msg.sender */\n      caller\n        /* \"shijian/4/Deposit_start.sol\":4636:4643  _amount */\n      dup5\n        /* \"shijian/4/Deposit_start.sol\":4611:4644  we.withdrawTo(msg.sender,_amount) */\n      mload(0x40)\n      dup4\n      0xffffffff\n      and\n      0xe0\n      shl\n      dup2\n      mstore\n      0x04\n      add\n      dup1\n      dup4\n      0xffffffffffffffffffffffffffffffffffffffff\n      and\n      dup2\n      mstore\n      0x20\n      add\n      dup3\n      dup2\n      mstore\n      0x20\n      add\n      swap3\n      pop\n      pop\n      pop\n      0x00\n      mload(0x40)\n      dup1\n      dup4\n      sub\n      dup2\n      0x00\n      dup8\n      dup1\n      extcodesize\n      iszero\n      dup1\n      iszero\n      tag_84\n      jumpi\n      0x00\n      dup1\n      revert\n    tag_84:\n      pop\n      gas\n      call\n      iszero\n      dup1\n      iszero\n      tag_86\n      jumpi\n      returndatasize\n      0x00\n      dup1\n      returndatacopy\n      revert(0x00, returndatasize)\n    tag_86:\n      pop\n      pop\n      pop\n      pop\n        /* \"shijian/4/Deposit_start.sol\":4683:4730  SafeMath.sub(depositAmount[msg.sender],_amount) */\n      tag_87\n        /* \"shijian/4/Deposit_start.sol\":4696:4709  depositAmount */\n      0x01\n        /* \"shijian/4/Deposit_start.sol\":4696:4721  depositAmount[msg.sender] */\n      0x00\n        /* \"shijian/4/Deposit_start.sol\":4710:4720  msg.sender */\n      caller\n        /* \"shijian/4/Deposit_start.sol\":4696:4721  depositAmount[msg.sender] */\n      0xffffffffffffffffffffffffffffffffffffffff\n      and\n      0xffffffffffffffffffffffffffffffffffffffff\n      and\n      dup2\n      mstore\n      0x20\n      add\n      swap1\n      dup2\n      mstore\n      0x20\n      add\n      0x00\n      keccak256\n      sload\n        /* \"shijian/4/Deposit_start.sol\":4722:4729  _amount */\n      dup4\n        /* \"shijian/4/Deposit_start.sol\":4683:4695  SafeMath.sub */\n      tag_76\n        /* \"shijian/4/Deposit_start.sol\":4683:4730  SafeMath.sub(depositAmount[msg.sender],_amount) */\n      jump\t// in\n    tag_87:\n        /* \"shijian/4/Deposit_start.sol\":4655:4668  depositAmount */\n      0x01\n        /* \"shijian/4/Deposit_start.sol\":4655:4680  depositAmount[msg.sender] */\n      0x00\n        /* \"shijian/4/Deposit_start.sol\":4669:4679  msg.sender */\n      caller\n        /* \"shijian/4/Deposit_start.sol\":4655:4680  depositAmount[msg.sender] */\n      0xffffffffffffffffffffffffffffffffffffffff\n      and\n      0xffffffffffffffffffffffffffffffffffffffff\n      and\n      dup2\n      mstore\n      0x20\n      add\n      swap1\n      dup2\n      mstore\n      0x20\n      add\n      0x00\n      keccak256\n        /* \"shijian/4/Deposit_start.sol\":4655:4730  depositAmount[msg.sender] = SafeMath.sub(depositAmount[msg.sender],_amount) */\n      dup2\n      swap1\n      sstore\n      pop\n        /* \"shijian/4/Deposit_start.sol\":4766:4822  SafeMath.mul(getBlockNumber(),depositAmount[msg.sender]) */\n      tag_88\n        /* \"shijian/4/Deposit_start.sol\":4779:4795  getBlockNumber() */\n      tag_89\n        /* \"shijian/4/Deposit_start.sol\":4779:4793  getBlockNumber */\n      tag_37\n        /* \"shijian/4/Deposit_start.sol\":4779:4795  getBlockNumber() */\n      jump\t// in\n    tag_89:\n        /* \"shijian/4/Deposit_start.sol\":4796:4809  depositAmount */\n      0x01\n        /* \"shijian/4/Deposit_start.sol\":4796:4821  depositAmount[msg.sender] */\n      0x00\n        /* \"shijian/4/Deposit_start.sol\":4810:4820  msg.sender */\n      caller\n        /* \"shijian/4/Deposit_start.sol\":4796:4821  depositAmount[msg.sender] */\n      0xffffffffffffffffffffffffffffffffffffffff\n      and\n      0xffffffffffffffffffffffffffffffffffffffff\n      and\n      dup2\n      mstore\n      0x20\n      add\n      swap1\n      dup2\n      mstore\n      0x20\n      add\n      0x00\n      keccak256\n      sload\n        /* \"shijian/4/Deposit_start.sol\":4766:4778  SafeMath.mul */\n      tag_77\n        /* \"shijian/4/Deposit_start.sol\":4766:4822  SafeMath.mul(getBlockNumber(),depositAmount[msg.sender]) */\n      jump\t// in\n    tag_88:\n        /* \"shijian/4/Deposit_start.sol\":4741:4751  checkPoint */\n      0x02\n        /* \"shijian/4/Deposit_start.sol\":4741:4763  checkPoint[msg.sender] */\n      0x00\n        /* \"shijian/4/Deposit_start.sol\":4752:4762  msg.sender */\n      caller\n        /* \"shijian/4/Deposit_start.sol\":4741:4763  checkPoint[msg.sender] */\n      0xffffffffffffffffffffffffffffffffffffffff\n      and\n      0xffffffffffffffffffffffffffffffffffffffff\n      and\n      dup2\n      mstore\n      0x20\n      add\n      swap1\n      dup2\n      mstore\n      0x20\n      add\n      0x00\n      keccak256\n        /* \"shijian/4/Deposit_start.sol\":4741:4822  checkPoint[msg.sender] = SafeMath.mul(getBlockNumber(),depositAmount[msg.sender]) */\n      dup2\n      swap1\n      sstore\n      pop\n        /* \"shijian/4/Deposit_start.sol\":4847:4857  msg.sender */\n      caller\n        /* \"shijian/4/Deposit_start.sol\":4838:4867  Withdraw(msg.sender, _amount) */\n      0xffffffffffffffffffffffffffffffffffffffff\n      and\n      0x884edad9ce6fa2440d8a54cc123490eb96d2768479d49ff9c7366125a9424364\n        /* \"shijian/4/Deposit_start.sol\":4859:4866  _amount */\n      dup4\n        /* \"shijian/4/Deposit_start.sol\":4838:4867  Withdraw(msg.sender, _amount) */\n      mload(0x40)\n      dup1\n      dup3\n      dup2\n      mstore\n      0x20\n      add\n      swap2\n      pop\n      pop\n      mload(0x40)\n      dup1\n      swap2\n      sub\n      swap1\n      log2\n        /* \"shijian/4/Deposit_start.sol\":4885:4889  true */\n      0x01\n        /* \"shijian/4/Deposit_start.sol\":4878:4889  return true */\n      swap1\n      pop\n        /* \"shijian/4/Deposit_start.sol\":3973:4897  function withdraw(uint256 _amount) public returns (bool) {\r... */\n      swap2\n      swap1\n      pop\n      jump\t// out\n        /* \"shijian/4/Deposit_start.sol\":5447:5541  function getBlockNumber() public view returns (uint256) {\r... */\n    tag_37:\n        /* \"shijian/4/Deposit_start.sol\":5494:5501  uint256 */\n      0x00\n        /* \"shijian/4/Deposit_start.sol\":5521:5533  block.number */\n      number\n        /* \"shijian/4/Deposit_start.sol\":5514:5533  return block.number */\n      swap1\n      pop\n        /* \"shijian/4/Deposit_start.sol\":5447:5541  function getBlockNumber() public view returns (uint256) {\r... */\n      swap1\n      jump\t// out\n        /* \"shijian/4/Deposit_start.sol\":424:459  uint256 public immutable startBlock */\n    tag_39:\n      immutable(\"0x1d3be50b2bb17407dd170f1d5da128d1def30c6b1598d6a629e79b4775265526\")\n      dup2\n      jump\t// out\n        /* \"shijian/4/Deposit_start.sol\":2524:3361  function getPendingReward(address _account)\r... */\n    tag_42:\n        /* \"shijian/4/Deposit_start.sol\":2616:2637  uint256 pendingReward */\n      0x00\n        /* \"shijian/4/Deposit_start.sol\":2725:2726  0 */\n      dup1\n        /* \"shijian/4/Deposit_start.sol\":2696:2709  depositAmount */\n      0x01\n        /* \"shijian/4/Deposit_start.sol\":2696:2721  depositAmount[msg.sender] */\n      0x00\n        /* \"shijian/4/Deposit_start.sol\":2710:2720  msg.sender */\n      caller\n        /* \"shijian/4/Deposit_start.sol\":2696:2721  depositAmount[msg.sender] */\n      0xffffffffffffffffffffffffffffffffffffffff\n      and\n      0xffffffffffffffffffffffffffffffffffffffff\n      and\n      dup2\n      mstore\n      0x20\n      add\n      swap1\n      dup2\n      mstore\n      0x20\n      add\n      0x00\n      keccak256\n      sload\n        /* \"shijian/4/Deposit_start.sol\":2696:2726  depositAmount[msg.sender] == 0 */\n      eq\n        /* \"shijian/4/Deposit_start.sol\":2692:3330  if (depositAmount[msg.sender] == 0){\r... */\n      iszero\n      tag_92\n      jumpi\n        /* \"shijian/4/Deposit_start.sol\":2749:2750  0 */\n      0x00\n        /* \"shijian/4/Deposit_start.sol\":2742:2750  return 0 */\n      swap1\n      pop\n      jump(tag_91)\n        /* \"shijian/4/Deposit_start.sol\":2692:3330  if (depositAmount[msg.sender] == 0){\r... */\n    tag_92:\n        /* \"shijian/4/Deposit_start.sol\":2791:2799  endBlock */\n      immutable(\"0x8e8fab5f003314da8d1873ea7720e8d9f47650136d916064d1edb8a11d682624\")\n        /* \"shijian/4/Deposit_start.sol\":2771:2787  getBlockNumber() */\n      tag_94\n        /* \"shijian/4/Deposit_start.sol\":2771:2785  getBlockNumber */\n      tag_37\n        /* \"shijian/4/Deposit_start.sol\":2771:2787  getBlockNumber() */\n      jump\t// in\n    tag_94:\n        /* \"shijian/4/Deposit_start.sol\":2771:2799  getBlockNumber() <= endBlock */\n      gt\n        /* \"shijian/4/Deposit_start.sol\":2767:3330  if (getBlockNumber() <= endBlock){\r... */\n      tag_95\n      jumpi\n        /* \"shijian/4/Deposit_start.sol\":2823:3054  SafeMath.sub(SafeMath.add(calculatedReward[_account],SafeMath.div(SafeMath.mul(SafeMath.sub(getBlockNumber(),SafeMath.div(checkPoint[_account],depositAmount[_account])),depositAmount[_account]),rewardBase)),claimedReward[_account]) */\n      tag_96\n        /* \"shijian/4/Deposit_start.sol\":2836:3029  SafeMath.add(calculatedReward[_account],SafeMath.div(SafeMath.mul(SafeMath.sub(getBlockNumber(),SafeMath.div(checkPoint[_account],depositAmount[_account])),depositAmount[_account]),rewardBase)) */\n      tag_97\n        /* \"shijian/4/Deposit_start.sol\":2849:2865  calculatedReward */\n      0x03\n        /* \"shijian/4/Deposit_start.sol\":2849:2875  calculatedReward[_account] */\n      0x00\n        /* \"shijian/4/Deposit_start.sol\":2866:2874  _account */\n      dup6\n        /* \"shijian/4/Deposit_start.sol\":2849:2875  calculatedReward[_account] */\n      0xffffffffffffffffffffffffffffffffffffffff\n      and\n      0xffffffffffffffffffffffffffffffffffffffff\n      and\n      dup2\n      mstore\n      0x20\n      add\n      swap1\n      dup2\n      mstore\n      0x20\n      add\n      0x00\n      keccak256\n      sload\n        /* \"shijian/4/Deposit_start.sol\":2876:3028  SafeMath.div(SafeMath.mul(SafeMath.sub(getBlockNumber(),SafeMath.div(checkPoint[_account],depositAmount[_account])),depositAmount[_account]),rewardBase) */\n      tag_98\n        /* \"shijian/4/Deposit_start.sol\":2889:3016  SafeMath.mul(SafeMath.sub(getBlockNumber(),SafeMath.div(checkPoint[_account],depositAmount[_account])),depositAmount[_account]) */\n      tag_99\n        /* \"shijian/4/Deposit_start.sol\":2902:2991  SafeMath.sub(getBlockNumber(),SafeMath.div(checkPoint[_account],depositAmount[_account])) */\n      tag_100\n        /* \"shijian/4/Deposit_start.sol\":2915:2931  getBlockNumber() */\n      tag_101\n        /* \"shijian/4/Deposit_start.sol\":2915:2929  getBlockNumber */\n      tag_37\n        /* \"shijian/4/Deposit_start.sol\":2915:2931  getBlockNumber() */\n      jump\t// in\n    tag_101:\n        /* \"shijian/4/Deposit_start.sol\":2932:2990  SafeMath.div(checkPoint[_account],depositAmount[_account]) */\n      tag_102\n        /* \"shijian/4/Deposit_start.sol\":2945:2955  checkPoint */\n      0x02\n        /* \"shijian/4/Deposit_start.sol\":2945:2965  checkPoint[_account] */\n      0x00\n        /* \"shijian/4/Deposit_start.sol\":2956:2964  _account */\n      dup12\n        /* \"shijian/4/Deposit_start.sol\":2945:2965  checkPoint[_account] */\n      0xffffffffffffffffffffffffffffffffffffffff\n      and\n      0xffffffffffffffffffffffffffffffffffffffff\n      and\n      dup2\n      mstore\n      0x20\n      add\n      swap1\n      dup2\n      mstore\n      0x20\n      add\n      0x00\n      keccak256\n      sload\n        /* \"shijian/4/Deposit_start.sol\":2966:2979  depositAmount */\n      0x01\n        /* \"shijian/4/Deposit_start.sol\":2966:2989  depositAmount[_account] */\n      0x00\n        /* \"shijian/4/Deposit_start.sol\":2980:2988  _account */\n      dup13\n        /* \"shijian/4/Deposit_start.sol\":2966:2989  depositAmount[_account] */\n      0xffffffffffffffffffffffffffffffffffffffff\n      and\n      0xffffffffffffffffffffffffffffffffffffffff\n      and\n      dup2\n      mstore\n      0x20\n      add\n      swap1\n      dup2\n      mstore\n      0x20\n      add\n      0x00\n      keccak256\n      sload\n        /* \"shijian/4/Deposit_start.sol\":2932:2944  SafeMath.div */\n      tag_75\n        /* \"shijian/4/Deposit_start.sol\":2932:2990  SafeMath.div(checkPoint[_account],depositAmount[_account]) */\n      jump\t// in\n    tag_102:\n        /* \"shijian/4/Deposit_start.sol\":2902:2914  SafeMath.sub */\n      tag_76\n        /* \"shijian/4/Deposit_start.sol\":2902:2991  SafeMath.sub(getBlockNumber(),SafeMath.div(checkPoint[_account],depositAmount[_account])) */\n      jump\t// in\n    tag_100:\n        /* \"shijian/4/Deposit_start.sol\":2992:3005  depositAmount */\n      0x01\n        /* \"shijian/4/Deposit_start.sol\":2992:3015  depositAmount[_account] */\n      0x00\n        /* \"shijian/4/Deposit_start.sol\":3006:3014  _account */\n      dup10\n        /* \"shijian/4/Deposit_start.sol\":2992:3015  depositAmount[_account] */\n      0xffffffffffffffffffffffffffffffffffffffff\n      and\n      0xffffffffffffffffffffffffffffffffffffffff\n      and\n      dup2\n      mstore\n      0x20\n      add\n      swap1\n      dup2\n      mstore\n      0x20\n      add\n      0x00\n      keccak256\n      sload\n        /* \"shijian/4/Deposit_start.sol\":2889:2901  SafeMath.mul */\n      tag_77\n        /* \"shijian/4/Deposit_start.sol\":2889:3016  SafeMath.mul(SafeMath.sub(getBlockNumber(),SafeMath.div(checkPoint[_account],depositAmount[_account])),depositAmount[_account]) */\n      jump\t// in\n    tag_99:\n        /* \"shijian/4/Deposit_start.sol\":310:311  5 */\n      0x05\n        /* \"shijian/4/Deposit_start.sol\":2876:2888  SafeMath.div */\n      tag_75\n        /* \"shijian/4/Deposit_start.sol\":2876:3028  SafeMath.div(SafeMath.mul(SafeMath.sub(getBlockNumber(),SafeMath.div(checkPoint[_account],depositAmount[_account])),depositAmount[_account]),rewardBase) */\n      jump\t// in\n    tag_98:\n        /* \"shijian/4/Deposit_start.sol\":2836:2848  SafeMath.add */\n      tag_78\n        /* \"shijian/4/Deposit_start.sol\":2836:3029  SafeMath.add(calculatedReward[_account],SafeMath.div(SafeMath.mul(SafeMath.sub(getBlockNumber(),SafeMath.div(checkPoint[_account],depositAmount[_account])),depositAmount[_account]),rewardBase)) */\n      jump\t// in\n    tag_97:\n        /* \"shijian/4/Deposit_start.sol\":3030:3043  claimedReward */\n      0x04\n        /* \"shijian/4/Deposit_start.sol\":3030:3053  claimedReward[_account] */\n      0x00\n        /* \"shijian/4/Deposit_start.sol\":3044:3052  _account */\n      dup6\n        /* \"shijian/4/Deposit_start.sol\":3030:3053  claimedReward[_account] */\n      0xffffffffffffffffffffffffffffffffffffffff\n      and\n      0xffffffffffffffffffffffffffffffffffffffff\n      and\n      dup2\n      mstore\n      0x20\n      add\n      swap1\n      dup2\n      mstore\n      0x20\n      add\n      0x00\n      keccak256\n      sload\n        /* \"shijian/4/Deposit_start.sol\":2823:2835  SafeMath.sub */\n      tag_76\n        /* \"shijian/4/Deposit_start.sol\":2823:3054  SafeMath.sub(SafeMath.add(calculatedReward[_account],SafeMath.div(SafeMath.mul(SafeMath.sub(getBlockNumber(),SafeMath.div(checkPoint[_account],depositAmount[_account])),depositAmount[_account]),rewardBase)),claimedReward[_account]) */\n      jump\t// in\n    tag_96:\n        /* \"shijian/4/Deposit_start.sol\":2815:3054  return  SafeMath.sub(SafeMath.add(calculatedReward[_account],SafeMath.div(SafeMath.mul(SafeMath.sub(getBlockNumber(),SafeMath.div(checkPoint[_account],depositAmount[_account])),depositAmount[_account]),rewardBase)),claimedReward[_account]) */\n      swap1\n      pop\n      jump(tag_91)\n        /* \"shijian/4/Deposit_start.sol\":2767:3330  if (getBlockNumber() <= endBlock){\r... */\n    tag_95:\n        /* \"shijian/4/Deposit_start.sol\":3095:3318  SafeMath.sub(SafeMath.add(calculatedReward[_account],SafeMath.div(SafeMath.mul(SafeMath.sub(endBlock,SafeMath.div(checkPoint[_account],depositAmount[_account])),depositAmount[_account]),rewardBase)),claimedReward[_account]) */\n      tag_104\n        /* \"shijian/4/Deposit_start.sol\":3108:3293  SafeMath.add(calculatedReward[_account],SafeMath.div(SafeMath.mul(SafeMath.sub(endBlock,SafeMath.div(checkPoint[_account],depositAmount[_account])),depositAmount[_account]),rewardBase)) */\n      tag_105\n        /* \"shijian/4/Deposit_start.sol\":3121:3137  calculatedReward */\n      0x03\n        /* \"shijian/4/Deposit_start.sol\":3121:3147  calculatedReward[_account] */\n      0x00\n        /* \"shijian/4/Deposit_start.sol\":3138:3146  _account */\n      dup6\n        /* \"shijian/4/Deposit_start.sol\":3121:3147  calculatedReward[_account] */\n      0xffffffffffffffffffffffffffffffffffffffff\n      and\n      0xffffffffffffffffffffffffffffffffffffffff\n      and\n      dup2\n      mstore\n      0x20\n      add\n      swap1\n      dup2\n      mstore\n      0x20\n      add\n      0x00\n      keccak256\n      sload\n        /* \"shijian/4/Deposit_start.sol\":3148:3292  SafeMath.div(SafeMath.mul(SafeMath.sub(endBlock,SafeMath.div(checkPoint[_account],depositAmount[_account])),depositAmount[_account]),rewardBase) */\n      tag_106\n        /* \"shijian/4/Deposit_start.sol\":3161:3280  SafeMath.mul(SafeMath.sub(endBlock,SafeMath.div(checkPoint[_account],depositAmount[_account])),depositAmount[_account]) */\n      tag_107\n        /* \"shijian/4/Deposit_start.sol\":3174:3255  SafeMath.sub(endBlock,SafeMath.div(checkPoint[_account],depositAmount[_account])) */\n      tag_108\n        /* \"shijian/4/Deposit_start.sol\":3187:3195  endBlock */\n      immutable(\"0x8e8fab5f003314da8d1873ea7720e8d9f47650136d916064d1edb8a11d682624\")\n        /* \"shijian/4/Deposit_start.sol\":3196:3254  SafeMath.div(checkPoint[_account],depositAmount[_account]) */\n      tag_109\n        /* \"shijian/4/Deposit_start.sol\":3209:3219  checkPoint */\n      0x02\n        /* \"shijian/4/Deposit_start.sol\":3209:3229  checkPoint[_account] */\n      0x00\n        /* \"shijian/4/Deposit_start.sol\":3220:3228  _account */\n      dup12\n        /* \"shijian/4/Deposit_start.sol\":3209:3229  checkPoint[_account] */\n      0xffffffffffffffffffffffffffffffffffffffff\n      and\n      0xffffffffffffffffffffffffffffffffffffffff\n      and\n      dup2\n      mstore\n      0x20\n      add\n      swap1\n      dup2\n      mstore\n      0x20\n      add\n      0x00\n      keccak256\n      sload\n        /* \"shijian/4/Deposit_start.sol\":3230:3243  depositAmount */\n      0x01\n        /* \"shijian/4/Deposit_start.sol\":3230:3253  depositAmount[_account] */\n      0x00\n        /* \"shijian/4/Deposit_start.sol\":3244:3252  _account */\n      dup13\n        /* \"shijian/4/Deposit_start.sol\":3230:3253  depositAmount[_account] */\n      0xffffffffffffffffffffffffffffffffffffffff\n      and\n      0xffffffffffffffffffffffffffffffffffffffff\n      and\n      dup2\n      mstore\n      0x20\n      add\n      swap1\n      dup2\n      mstore\n      0x20\n      add\n      0x00\n      keccak256\n      sload\n        /* \"shijian/4/Deposit_start.sol\":3196:3208  SafeMath.div */\n      tag_75\n        /* \"shijian/4/Deposit_start.sol\":3196:3254  SafeMath.div(checkPoint[_account],depositAmount[_account]) */\n      jump\t// in\n    tag_109:\n        /* \"shijian/4/Deposit_start.sol\":3174:3186  SafeMath.sub */\n      tag_76\n        /* \"shijian/4/Deposit_start.sol\":3174:3255  SafeMath.sub(endBlock,SafeMath.div(checkPoint[_account],depositAmount[_account])) */\n      jump\t// in\n    tag_108:\n        /* \"shijian/4/Deposit_start.sol\":3256:3269  depositAmount */\n      0x01\n        /* \"shijian/4/Deposit_start.sol\":3256:3279  depositAmount[_account] */\n      0x00\n        /* \"shijian/4/Deposit_start.sol\":3270:3278  _account */\n      dup10\n        /* \"shijian/4/Deposit_start.sol\":3256:3279  depositAmount[_account] */\n      0xffffffffffffffffffffffffffffffffffffffff\n      and\n      0xffffffffffffffffffffffffffffffffffffffff\n      and\n      dup2\n      mstore\n      0x20\n      add\n      swap1\n      dup2\n      mstore\n      0x20\n      add\n      0x00\n      keccak256\n      sload\n        /* \"shijian/4/Deposit_start.sol\":3161:3173  SafeMath.mul */\n      tag_77\n        /* \"shijian/4/Deposit_start.sol\":3161:3280  SafeMath.mul(SafeMath.sub(endBlock,SafeMath.div(checkPoint[_account],depositAmount[_account])),depositAmount[_account]) */\n      jump\t// in\n    tag_107:\n        /* \"shijian/4/Deposit_start.sol\":310:311  5 */\n      0x05\n        /* \"shijian/4/Deposit_start.sol\":3148:3160  SafeMath.div */\n      tag_75\n        /* \"shijian/4/Deposit_start.sol\":3148:3292  SafeMath.div(SafeMath.mul(SafeMath.sub(endBlock,SafeMath.div(checkPoint[_account],depositAmount[_account])),depositAmount[_account]),rewardBase) */\n      jump\t// in\n    tag_106:\n        /* \"shijian/4/Deposit_start.sol\":3108:3120  SafeMath.add */\n      tag_78\n        /* \"shijian/4/Deposit_start.sol\":3108:3293  SafeMath.add(calculatedReward[_account],SafeMath.div(SafeMath.mul(SafeMath.sub(endBlock,SafeMath.div(checkPoint[_account],depositAmount[_account])),depositAmount[_account]),rewardBase)) */\n      jump\t// in\n    tag_105:\n        /* \"shijian/4/Deposit_start.sol\":3294:3307  claimedReward */\n      0x04\n        /* \"shijian/4/Deposit_start.sol\":3294:3317  claimedReward[_account] */\n      0x00\n        /* \"shijian/4/Deposit_start.sol\":3308:3316  _account */\n      dup6\n        /* \"shijian/4/Deposit_start.sol\":3294:3317  claimedReward[_account] */\n      0xffffffffffffffffffffffffffffffffffffffff\n      and\n      0xffffffffffffffffffffffffffffffffffffffff\n      and\n      dup2\n      mstore\n      0x20\n      add\n      swap1\n      dup2\n      mstore\n      0x20\n      add\n      0x00\n      keccak256\n      sload\n        /* \"shijian/4/Deposit_start.sol\":3095:3107  SafeMath.sub */\n      tag_76\n        /* \"shijian/4/Deposit_start.sol\":3095:3318  SafeMath.sub(SafeMath.add(calculatedReward[_account],SafeMath.div(SafeMath.mul(SafeMath.sub(endBlock,SafeMath.div(checkPoint[_account],depositAmount[_account])),depositAmount[_account]),rewardBase)),claimedReward[_account]) */\n      jump\t// in\n    tag_104:\n        /* \"shijian/4/Deposit_start.sol\":3087:3318  return  SafeMath.sub(SafeMath.add(calculatedReward[_account],SafeMath.div(SafeMath.mul(SafeMath.sub(endBlock,SafeMath.div(checkPoint[_account],depositAmount[_account])),depositAmount[_account]),rewardBase)),claimedReward[_account]) */\n      swap1\n      pop\n        /* \"shijian/4/Deposit_start.sol\":2524:3361  function getPendingReward(address _account)\r... */\n    tag_91:\n      swap2\n      swap1\n      pop\n      jump\t// out\n        /* \"shijian/4/Deposit_start.sol\":562:610  mapping(address => uint256) public depositAmount */\n    tag_45:\n      mstore(0x20, 0x01)\n      dup1\n      0x00\n      mstore\n      keccak256(0x00, 0x40)\n      0x00\n      swap2\n      pop\n      swap1\n      pop\n      sload\n      dup2\n      jump\t// out\n        /* \"shijian/4/Deposit_start.sol\":273:311  uint256 public constant rewardBase = 5 */\n    tag_47:\n        /* \"shijian/4/Deposit_start.sol\":310:311  5 */\n      0x05\n        /* \"shijian/4/Deposit_start.sol\":273:311  uint256 public constant rewardBase = 5 */\n      dup2\n      jump\t// out\n        /* \"shijian/4/Deposit_start.sol\":746:797  mapping(address => uint256) public calculatedReward */\n    tag_50:\n      mstore(0x20, 0x03)\n      dup1\n      0x00\n      mstore\n      keccak256(0x00, 0x40)\n      0x00\n      swap2\n      pop\n      swap1\n      pop\n      sload\n      dup2\n      jump\t// out\n        /* \"shijian/4/Deposit_start.sol\":4931:5056  function get() public view returns (address){\r... */\n    tag_52:\n        /* \"shijian/4/Deposit_start.sol\":4967:4974  address */\n      0x00\n        /* \"shijian/4/Deposit_start.sol\":4986:5009  address payable account */\n      dup1\n        /* \"shijian/4/Deposit_start.sol\":5012:5022  msg.sender */\n      caller\n        /* \"shijian/4/Deposit_start.sol\":4986:5022  address payable account = msg.sender */\n      swap1\n      pop\n        /* \"shijian/4/Deposit_start.sol\":5041:5048  account */\n      dup1\n        /* \"shijian/4/Deposit_start.sol\":5033:5048  return  account */\n      swap2\n      pop\n      pop\n        /* \"shijian/4/Deposit_start.sol\":4931:5056  function get() public view returns (address){\r... */\n      swap1\n      jump\t// out\n        /* \"shijian/4/Deposit_start.sol\":188:226  address payable public immutable _weth */\n    tag_54:\n      immutable(\"0x1a192fabce13988b84994d4296e6cdc418d55e2f1d7f942188d4040b94fc57ac\")\n      dup2\n      jump\t// out\n        /* \"shijian/4/Deposit_start.sol\":1621:2495  function deposit(uint256 _amount) public  onlyValidTime returns (bool) {\r... */\n    tag_57:\n        /* \"shijian/4/Deposit_start.sol\":1686:1690  bool */\n      0x00\n        /* \"shijian/4/Deposit_start.sol\":1527:1535  endBlock */\n      immutable(\"0x8e8fab5f003314da8d1873ea7720e8d9f47650136d916064d1edb8a11d682624\")\n        /* \"shijian/4/Deposit_start.sol\":1507:1523  getBlockNumber() */\n      tag_112\n        /* \"shijian/4/Deposit_start.sol\":1507:1521  getBlockNumber */\n      tag_37\n        /* \"shijian/4/Deposit_start.sol\":1507:1523  getBlockNumber() */\n      jump\t// in\n    tag_112:\n        /* \"shijian/4/Deposit_start.sol\":1507:1535  getBlockNumber() <= endBlock */\n      gt\n      iszero\n        /* \"shijian/4/Deposit_start.sol\":1507:1568  getBlockNumber() <= endBlock && getBlockNumber()>= startBlock */\n      dup1\n      iszero\n      tag_113\n      jumpi\n      pop\n        /* \"shijian/4/Deposit_start.sol\":1558:1568  startBlock */\n      immutable(\"0x1d3be50b2bb17407dd170f1d5da128d1def30c6b1598d6a629e79b4775265526\")\n        /* \"shijian/4/Deposit_start.sol\":1539:1555  getBlockNumber() */\n      tag_114\n        /* \"shijian/4/Deposit_start.sol\":1539:1553  getBlockNumber */\n      tag_37\n        /* \"shijian/4/Deposit_start.sol\":1539:1555  getBlockNumber() */\n      jump\t// in\n    tag_114:\n        /* \"shijian/4/Deposit_start.sol\":1539:1568  getBlockNumber()>= startBlock */\n      lt\n      iszero\n        /* \"shijian/4/Deposit_start.sol\":1507:1568  getBlockNumber() <= endBlock && getBlockNumber()>= startBlock */\n    tag_113:\n        /* \"shijian/4/Deposit_start.sol\":1499:1569  require(getBlockNumber() <= endBlock && getBlockNumber()>= startBlock) */\n      tag_115\n      jumpi\n      0x00\n      dup1\n      revert\n    tag_115:\n        /* \"shijian/4/Deposit_start.sol\":1773:1774  0 */\n      0x00\n        /* \"shijian/4/Deposit_start.sol\":1744:1757  depositAmount */\n      0x01\n        /* \"shijian/4/Deposit_start.sol\":1744:1769  depositAmount[msg.sender] */\n      0x00\n        /* \"shijian/4/Deposit_start.sol\":1758:1768  msg.sender */\n      caller\n        /* \"shijian/4/Deposit_start.sol\":1744:1769  depositAmount[msg.sender] */\n      0xffffffffffffffffffffffffffffffffffffffff\n      and\n      0xffffffffffffffffffffffffffffffffffffffff\n      and\n      dup2\n      mstore\n      0x20\n      add\n      swap1\n      dup2\n      mstore\n      0x20\n      add\n      0x00\n      keccak256\n      sload\n        /* \"shijian/4/Deposit_start.sol\":1744:1774  depositAmount[msg.sender] == 0 */\n      eq\n        /* \"shijian/4/Deposit_start.sol\":1740:2422  if (depositAmount[msg.sender] == 0){\r... */\n      iszero\n      tag_117\n      jumpi\n        /* \"shijian/4/Deposit_start.sol\":1818:1865  SafeMath.add(depositAmount[msg.sender],_amount) */\n      tag_118\n        /* \"shijian/4/Deposit_start.sol\":1831:1844  depositAmount */\n      0x01\n        /* \"shijian/4/Deposit_start.sol\":1831:1856  depositAmount[msg.sender] */\n      0x00\n        /* \"shijian/4/Deposit_start.sol\":1845:1855  msg.sender */\n      caller\n        /* \"shijian/4/Deposit_start.sol\":1831:1856  depositAmount[msg.sender] */\n      0xffffffffffffffffffffffffffffffffffffffff\n      and\n      0xffffffffffffffffffffffffffffffffffffffff\n      and\n      dup2\n      mstore\n      0x20\n      add\n      swap1\n      dup2\n      mstore\n      0x20\n      add\n      0x00\n      keccak256\n      sload\n        /* \"shijian/4/Deposit_start.sol\":1857:1864  _amount */\n      dup4\n        /* \"shijian/4/Deposit_start.sol\":1818:1830  SafeMath.add */\n      tag_78\n        /* \"shijian/4/Deposit_start.sol\":1818:1865  SafeMath.add(depositAmount[msg.sender],_amount) */\n      jump\t// in\n    tag_118:\n        /* \"shijian/4/Deposit_start.sol\":1790:1803  depositAmount */\n      0x01\n        /* \"shijian/4/Deposit_start.sol\":1790:1815  depositAmount[msg.sender] */\n      0x00\n        /* \"shijian/4/Deposit_start.sol\":1804:1814  msg.sender */\n      caller\n        /* \"shijian/4/Deposit_start.sol\":1790:1815  depositAmount[msg.sender] */\n      0xffffffffffffffffffffffffffffffffffffffff\n      and\n      0xffffffffffffffffffffffffffffffffffffffff\n      and\n      dup2\n      mstore\n      0x20\n      add\n      swap1\n      dup2\n      mstore\n      0x20\n      add\n      0x00\n      keccak256\n        /* \"shijian/4/Deposit_start.sol\":1790:1865  depositAmount[msg.sender] = SafeMath.add(depositAmount[msg.sender],_amount) */\n      dup2\n      swap1\n      sstore\n      pop\n        /* \"shijian/4/Deposit_start.sol\":1905:1961  SafeMath.mul(depositAmount[msg.sender],getBlockNumber()) */\n      tag_119\n        /* \"shijian/4/Deposit_start.sol\":1918:1931  depositAmount */\n      0x01\n        /* \"shijian/4/Deposit_start.sol\":1918:1943  depositAmount[msg.sender] */\n      0x00\n        /* \"shijian/4/Deposit_start.sol\":1932:1942  msg.sender */\n      caller\n        /* \"shijian/4/Deposit_start.sol\":1918:1943  depositAmount[msg.sender] */\n      0xffffffffffffffffffffffffffffffffffffffff\n      and\n      0xffffffffffffffffffffffffffffffffffffffff\n      and\n      dup2\n      mstore\n      0x20\n      add\n      swap1\n      dup2\n      mstore\n      0x20\n      add\n      0x00\n      keccak256\n      sload\n        /* \"shijian/4/Deposit_start.sol\":1944:1960  getBlockNumber() */\n      tag_120\n        /* \"shijian/4/Deposit_start.sol\":1944:1958  getBlockNumber */\n      tag_37\n        /* \"shijian/4/Deposit_start.sol\":1944:1960  getBlockNumber() */\n      jump\t// in\n    tag_120:\n        /* \"shijian/4/Deposit_start.sol\":1905:1917  SafeMath.mul */\n      tag_77\n        /* \"shijian/4/Deposit_start.sol\":1905:1961  SafeMath.mul(depositAmount[msg.sender],getBlockNumber()) */\n      jump\t// in\n    tag_119:\n        /* \"shijian/4/Deposit_start.sol\":1880:1890  checkPoint */\n      0x02\n        /* \"shijian/4/Deposit_start.sol\":1880:1902  checkPoint[msg.sender] */\n      0x00\n        /* \"shijian/4/Deposit_start.sol\":1891:1901  msg.sender */\n      caller\n        /* \"shijian/4/Deposit_start.sol\":1880:1902  checkPoint[msg.sender] */\n      0xffffffffffffffffffffffffffffffffffffffff\n      and\n      0xffffffffffffffffffffffffffffffffffffffff\n      and\n      dup2\n      mstore\n      0x20\n      add\n      swap1\n      dup2\n      mstore\n      0x20\n      add\n      0x00\n      keccak256\n        /* \"shijian/4/Deposit_start.sol\":1880:1961  checkPoint[msg.sender] = SafeMath.mul(depositAmount[msg.sender],getBlockNumber()) */\n      dup2\n      swap1\n      sstore\n      pop\n        /* \"shijian/4/Deposit_start.sol\":1740:2422  if (depositAmount[msg.sender] == 0){\r... */\n      jump(tag_121)\n    tag_117:\n        /* \"shijian/4/Deposit_start.sol\":2023:2224  SafeMath.add(calculatedReward[msg.sender],SafeMath.div(SafeMath.mul(SafeMath.sub(getBlockNumber(),SafeMath.div(checkPoint[msg.sender],depositAmount[msg.sender])),depositAmount[msg.sender]),rewardBase)) */\n      tag_122\n        /* \"shijian/4/Deposit_start.sol\":2036:2052  calculatedReward */\n      0x03\n        /* \"shijian/4/Deposit_start.sol\":2036:2064  calculatedReward[msg.sender] */\n      0x00\n        /* \"shijian/4/Deposit_start.sol\":2053:2063  msg.sender */\n      caller\n        /* \"shijian/4/Deposit_start.sol\":2036:2064  calculatedReward[msg.sender] */\n      0xffffffffffffffffffffffffffffffffffffffff\n      and\n      0xffffffffffffffffffffffffffffffffffffffff\n      and\n      dup2\n      mstore\n      0x20\n      add\n      swap1\n      dup2\n      mstore\n      0x20\n      add\n      0x00\n      keccak256\n      sload\n        /* \"shijian/4/Deposit_start.sol\":2065:2223  SafeMath.div(SafeMath.mul(SafeMath.sub(getBlockNumber(),SafeMath.div(checkPoint[msg.sender],depositAmount[msg.sender])),depositAmount[msg.sender]),rewardBase) */\n      tag_123\n        /* \"shijian/4/Deposit_start.sol\":2078:2211  SafeMath.mul(SafeMath.sub(getBlockNumber(),SafeMath.div(checkPoint[msg.sender],depositAmount[msg.sender])),depositAmount[msg.sender]) */\n      tag_124\n        /* \"shijian/4/Deposit_start.sol\":2091:2184  SafeMath.sub(getBlockNumber(),SafeMath.div(checkPoint[msg.sender],depositAmount[msg.sender])) */\n      tag_125\n        /* \"shijian/4/Deposit_start.sol\":2104:2120  getBlockNumber() */\n      tag_126\n        /* \"shijian/4/Deposit_start.sol\":2104:2118  getBlockNumber */\n      tag_37\n        /* \"shijian/4/Deposit_start.sol\":2104:2120  getBlockNumber() */\n      jump\t// in\n    tag_126:\n        /* \"shijian/4/Deposit_start.sol\":2121:2183  SafeMath.div(checkPoint[msg.sender],depositAmount[msg.sender]) */\n      tag_127\n        /* \"shijian/4/Deposit_start.sol\":2134:2144  checkPoint */\n      0x02\n        /* \"shijian/4/Deposit_start.sol\":2134:2156  checkPoint[msg.sender] */\n      0x00\n        /* \"shijian/4/Deposit_start.sol\":2145:2155  msg.sender */\n      caller\n        /* \"shijian/4/Deposit_start.sol\":2134:2156  checkPoint[msg.sender] */\n      0xffffffffffffffffffffffffffffffffffffffff\n      and\n      0xffffffffffffffffffffffffffffffffffffffff\n      and\n      dup2\n      mstore\n      0x20\n      add\n      swap1\n      dup2\n      mstore\n      0x20\n      add\n      0x00\n      keccak256\n      sload\n        /* \"shijian/4/Deposit_start.sol\":2157:2170  depositAmount */\n      0x01\n        /* \"shijian/4/Deposit_start.sol\":2157:2182  depositAmount[msg.sender] */\n      0x00\n        /* \"shijian/4/Deposit_start.sol\":2171:2181  msg.sender */\n      caller\n        /* \"shijian/4/Deposit_start.sol\":2157:2182  depositAmount[msg.sender] */\n      0xffffffffffffffffffffffffffffffffffffffff\n      and\n      0xffffffffffffffffffffffffffffffffffffffff\n      and\n      dup2\n      mstore\n      0x20\n      add\n      swap1\n      dup2\n      mstore\n      0x20\n      add\n      0x00\n      keccak256\n      sload\n        /* \"shijian/4/Deposit_start.sol\":2121:2133  SafeMath.div */\n      tag_75\n        /* \"shijian/4/Deposit_start.sol\":2121:2183  SafeMath.div(checkPoint[msg.sender],depositAmount[msg.sender]) */\n      jump\t// in\n    tag_127:\n        /* \"shijian/4/Deposit_start.sol\":2091:2103  SafeMath.sub */\n      tag_76\n        /* \"shijian/4/Deposit_start.sol\":2091:2184  SafeMath.sub(getBlockNumber(),SafeMath.div(checkPoint[msg.sender],depositAmount[msg.sender])) */\n      jump\t// in\n    tag_125:\n        /* \"shijian/4/Deposit_start.sol\":2185:2198  depositAmount */\n      0x01\n        /* \"shijian/4/Deposit_start.sol\":2185:2210  depositAmount[msg.sender] */\n      0x00\n        /* \"shijian/4/Deposit_start.sol\":2199:2209  msg.sender */\n      caller\n        /* \"shijian/4/Deposit_start.sol\":2185:2210  depositAmount[msg.sender] */\n      0xffffffffffffffffffffffffffffffffffffffff\n      and\n      0xffffffffffffffffffffffffffffffffffffffff\n      and\n      dup2\n      mstore\n      0x20\n      add\n      swap1\n      dup2\n      mstore\n      0x20\n      add\n      0x00\n      keccak256\n      sload\n        /* \"shijian/4/Deposit_start.sol\":2078:2090  SafeMath.mul */\n      tag_77\n        /* \"shijian/4/Deposit_start.sol\":2078:2211  SafeMath.mul(SafeMath.sub(getBlockNumber(),SafeMath.div(checkPoint[msg.sender],depositAmount[msg.sender])),depositAmount[msg.sender]) */\n      jump\t// in\n    tag_124:\n        /* \"shijian/4/Deposit_start.sol\":310:311  5 */\n      0x05\n        /* \"shijian/4/Deposit_start.sol\":2065:2077  SafeMath.div */\n      tag_75\n        /* \"shijian/4/Deposit_start.sol\":2065:2223  SafeMath.div(SafeMath.mul(SafeMath.sub(getBlockNumber(),SafeMath.div(checkPoint[msg.sender],depositAmount[msg.sender])),depositAmount[msg.sender]),rewardBase) */\n      jump\t// in\n    tag_123:\n        /* \"shijian/4/Deposit_start.sol\":2023:2035  SafeMath.add */\n      tag_78\n        /* \"shijian/4/Deposit_start.sol\":2023:2224  SafeMath.add(calculatedReward[msg.sender],SafeMath.div(SafeMath.mul(SafeMath.sub(getBlockNumber(),SafeMath.div(checkPoint[msg.sender],depositAmount[msg.sender])),depositAmount[msg.sender]),rewardBase)) */\n      jump\t// in\n    tag_122:\n        /* \"shijian/4/Deposit_start.sol\":1992:2008  calculatedReward */\n      0x03\n        /* \"shijian/4/Deposit_start.sol\":1992:2020  calculatedReward[msg.sender] */\n      0x00\n        /* \"shijian/4/Deposit_start.sol\":2009:2019  msg.sender */\n      caller\n        /* \"shijian/4/Deposit_start.sol\":1992:2020  calculatedReward[msg.sender] */\n      0xffffffffffffffffffffffffffffffffffffffff\n      and\n      0xffffffffffffffffffffffffffffffffffffffff\n      and\n      dup2\n      mstore\n      0x20\n      add\n      swap1\n      dup2\n      mstore\n      0x20\n      add\n      0x00\n      keccak256\n        /* \"shijian/4/Deposit_start.sol\":1992:2224  calculatedReward[msg.sender] = SafeMath.add(calculatedReward[msg.sender],SafeMath.div(SafeMath.mul(SafeMath.sub(getBlockNumber(),SafeMath.div(checkPoint[msg.sender],depositAmount[msg.sender])),depositAmount[msg.sender]),rewardBase)) */\n      dup2\n      swap1\n      sstore\n      pop\n        /* \"shijian/4/Deposit_start.sol\":2267:2314  SafeMath.add(depositAmount[msg.sender],_amount) */\n      tag_128\n        /* \"shijian/4/Deposit_start.sol\":2280:2293  depositAmount */\n      0x01\n        /* \"shijian/4/Deposit_start.sol\":2280:2305  depositAmount[msg.sender] */\n      0x00\n        /* \"shijian/4/Deposit_start.sol\":2294:2304  msg.sender */\n      caller\n        /* \"shijian/4/Deposit_start.sol\":2280:2305  depositAmount[msg.sender] */\n      0xffffffffffffffffffffffffffffffffffffffff\n      and\n      0xffffffffffffffffffffffffffffffffffffffff\n      and\n      dup2\n      mstore\n      0x20\n      add\n      swap1\n      dup2\n      mstore\n      0x20\n      add\n      0x00\n      keccak256\n      sload\n        /* \"shijian/4/Deposit_start.sol\":2306:2313  _amount */\n      dup4\n        /* \"shijian/4/Deposit_start.sol\":2267:2279  SafeMath.add */\n      tag_78\n        /* \"shijian/4/Deposit_start.sol\":2267:2314  SafeMath.add(depositAmount[msg.sender],_amount) */\n      jump\t// in\n    tag_128:\n        /* \"shijian/4/Deposit_start.sol\":2239:2252  depositAmount */\n      0x01\n        /* \"shijian/4/Deposit_start.sol\":2239:2264  depositAmount[msg.sender] */\n      0x00\n        /* \"shijian/4/Deposit_start.sol\":2253:2263  msg.sender */\n      caller\n        /* \"shijian/4/Deposit_start.sol\":2239:2264  depositAmount[msg.sender] */\n      0xffffffffffffffffffffffffffffffffffffffff\n      and\n      0xffffffffffffffffffffffffffffffffffffffff\n      and\n      dup2\n      mstore\n      0x20\n      add\n      swap1\n      dup2\n      mstore\n      0x20\n      add\n      0x00\n      keccak256\n        /* \"shijian/4/Deposit_start.sol\":2239:2314  depositAmount[msg.sender] = SafeMath.add(depositAmount[msg.sender],_amount) */\n      dup2\n      swap1\n      sstore\n      pop\n        /* \"shijian/4/Deposit_start.sol\":2354:2410  SafeMath.mul(depositAmount[msg.sender],getBlockNumber()) */\n      tag_129\n        /* \"shijian/4/Deposit_start.sol\":2367:2380  depositAmount */\n      0x01\n        /* \"shijian/4/Deposit_start.sol\":2367:2392  depositAmount[msg.sender] */\n      0x00\n        /* \"shijian/4/Deposit_start.sol\":2381:2391  msg.sender */\n      caller\n        /* \"shijian/4/Deposit_start.sol\":2367:2392  depositAmount[msg.sender] */\n      0xffffffffffffffffffffffffffffffffffffffff\n      and\n      0xffffffffffffffffffffffffffffffffffffffff\n      and\n      dup2\n      mstore\n      0x20\n      add\n      swap1\n      dup2\n      mstore\n      0x20\n      add\n      0x00\n      keccak256\n      sload\n        /* \"shijian/4/Deposit_start.sol\":2393:2409  getBlockNumber() */\n      tag_130\n        /* \"shijian/4/Deposit_start.sol\":2393:2407  getBlockNumber */\n      tag_37\n        /* \"shijian/4/Deposit_start.sol\":2393:2409  getBlockNumber() */\n      jump\t// in\n    tag_130:\n        /* \"shijian/4/Deposit_start.sol\":2354:2366  SafeMath.mul */\n      tag_77\n        /* \"shijian/4/Deposit_start.sol\":2354:2410  SafeMath.mul(depositAmount[msg.sender],getBlockNumber()) */\n      jump\t// in\n    tag_129:\n        /* \"shijian/4/Deposit_start.sol\":2329:2339  checkPoint */\n      0x02\n        /* \"shijian/4/Deposit_start.sol\":2329:2351  checkPoint[msg.sender] */\n      0x00\n        /* \"shijian/4/Deposit_start.sol\":2340:2350  msg.sender */\n      caller\n        /* \"shijian/4/Deposit_start.sol\":2329:2351  checkPoint[msg.sender] */\n      0xffffffffffffffffffffffffffffffffffffffff\n      and\n      0xffffffffffffffffffffffffffffffffffffffff\n      and\n      dup2\n      mstore\n      0x20\n      add\n      swap1\n      dup2\n      mstore\n      0x20\n      add\n      0x00\n      keccak256\n        /* \"shijian/4/Deposit_start.sol\":2329:2410  checkPoint[msg.sender] = SafeMath.mul(depositAmount[msg.sender],getBlockNumber()) */\n      dup2\n      swap1\n      sstore\n      pop\n        /* \"shijian/4/Deposit_start.sol\":1740:2422  if (depositAmount[msg.sender] == 0){\r... */\n    tag_121:\n        /* \"shijian/4/Deposit_start.sol\":2445:2455  msg.sender */\n      caller\n        /* \"shijian/4/Deposit_start.sol\":2437:2465  Deposit(msg.sender, _amount) */\n      0xffffffffffffffffffffffffffffffffffffffff\n      and\n      0xe1fffcc4923d04b559f4d29a8bfc6cda04eb5b0d3c460751c2402c5c5cc9109c\n        /* \"shijian/4/Deposit_start.sol\":2457:2464  _amount */\n      dup4\n        /* \"shijian/4/Deposit_start.sol\":2437:2465  Deposit(msg.sender, _amount) */\n      mload(0x40)\n      dup1\n      dup3\n      dup2\n      mstore\n      0x20\n      add\n      swap2\n      pop\n      pop\n      mload(0x40)\n      dup1\n      swap2\n      sub\n      swap1\n      log2\n        /* \"shijian/4/Deposit_start.sol\":2483:2487  true */\n      0x01\n        /* \"shijian/4/Deposit_start.sol\":2476:2487  return true */\n      swap1\n      pop\n        /* \"shijian/4/Deposit_start.sol\":1621:2495  function deposit(uint256 _amount) public  onlyValidTime returns (bool) {\r... */\n      swap2\n      swap1\n      pop\n      jump\t// out\n        /* \"shijian/4/Deposit_start.sol\":5146:5235  function getThis() public  view returns (address){\r... */\n    tag_59:\n        /* \"shijian/4/Deposit_start.sol\":5187:5194  address */\n      0x00\n        /* \"shijian/4/Deposit_start.sol\":5222:5226  this */\n      address\n        /* \"shijian/4/Deposit_start.sol\":5206:5227  return  address(this) */\n      swap1\n      pop\n        /* \"shijian/4/Deposit_start.sol\":5146:5235  function getThis() public  view returns (address){\r... */\n      swap1\n      jump\t// out\n        /* \"shijian/4/Deposit_start.sol\":5062:5140  function getWETH() public view returns(address){\r... */\n    tag_61:\n        /* \"shijian/4/Deposit_start.sol\":5101:5108  address */\n      0x00\n        /* \"shijian/4/Deposit_start.sol\":5127:5132  _weth */\n      immutable(\"0x1a192fabce13988b84994d4296e6cdc418d55e2f1d7f942188d4040b94fc57ac\")\n        /* \"shijian/4/Deposit_start.sol\":5120:5132  return _weth */\n      swap1\n      pop\n        /* \"shijian/4/Deposit_start.sol\":5062:5140  function getWETH() public view returns(address){\r... */\n      swap1\n      jump\t// out\n        /* \"shijian/4/Deposit_start.sol\":3390:3929  function claimReward( address payable _toAddress) public returns (bool) {\r... */\n    tag_64:\n        /* \"shijian/4/Deposit_start.sol\":3456:3460  bool */\n      0x00\n        /* \"shijian/4/Deposit_start.sol\":3550:3551  0 */\n      dup1\n        /* \"shijian/4/Deposit_start.sol\":3518:3546  getPendingReward(msg.sender) */\n      tag_134\n        /* \"shijian/4/Deposit_start.sol\":3535:3545  msg.sender */\n      caller\n        /* \"shijian/4/Deposit_start.sol\":3518:3534  getPendingReward */\n      tag_42\n        /* \"shijian/4/Deposit_start.sol\":3518:3546  getPendingReward(msg.sender) */\n      jump\t// in\n    tag_134:\n        /* \"shijian/4/Deposit_start.sol\":3518:3551  getPendingReward(msg.sender) != 0 */\n      eq\n      iszero\n        /* \"shijian/4/Deposit_start.sol\":3510:3571  require(getPendingReward(msg.sender) != 0,'no pendingReward') */\n      tag_135\n      jumpi\n      mload(0x40)\n      0x08c379a000000000000000000000000000000000000000000000000000000000\n      dup2\n      mstore\n      0x04\n      add\n      dup1\n      dup1\n      0x20\n      add\n      dup3\n      dup2\n      sub\n      dup3\n      mstore\n      0x10\n      dup2\n      mstore\n      0x20\n      add\n      dup1\n      0x6e6f2070656e64696e6752657761726400000000000000000000000000000000\n      dup2\n      mstore\n      pop\n      0x20\n      add\n      swap2\n      pop\n      pop\n      mload(0x40)\n      dup1\n      swap2\n      sub\n      swap1\n      revert\n    tag_135:\n        /* \"shijian/4/Deposit_start.sol\":3582:3584  we */\n      0x00\n      dup1\n      sload\n      swap1\n      0x0100\n      exp\n      swap1\n      div\n      0xffffffffffffffffffffffffffffffffffffffff\n      and\n        /* \"shijian/4/Deposit_start.sol\":3582:3597  we.transferFrom */\n      0xffffffffffffffffffffffffffffffffffffffff\n      and\n      0x23b872dd\n        /* \"shijian/4/Deposit_start.sol\":3598:3608  msg.sender */\n      caller\n        /* \"shijian/4/Deposit_start.sol\":3617:3621  this */\n      address\n        /* \"shijian/4/Deposit_start.sol\":3623:3651  getPendingReward(msg.sender) */\n      tag_136\n        /* \"shijian/4/Deposit_start.sol\":3640:3650  msg.sender */\n      caller\n        /* \"shijian/4/Deposit_start.sol\":3623:3639  getPendingReward */\n      tag_42\n        /* \"shijian/4/Deposit_start.sol\":3623:3651  getPendingReward(msg.sender) */\n      jump\t// in\n    tag_136:\n        /* \"shijian/4/Deposit_start.sol\":3582:3652  we.transferFrom(msg.sender,address(this),getPendingReward(msg.sender)) */\n      mload(0x40)\n      dup5\n      0xffffffff\n      and\n      0xe0\n      shl\n      dup2\n      mstore\n      0x04\n      add\n      dup1\n      dup5\n      0xffffffffffffffffffffffffffffffffffffffff\n      and\n      dup2\n      mstore\n      0x20\n      add\n      dup4\n      0xffffffffffffffffffffffffffffffffffffffff\n      and\n      dup2\n      mstore\n      0x20\n      add\n      dup3\n      dup2\n      mstore\n      0x20\n      add\n      swap4\n      pop\n      pop\n      pop\n      pop\n      0x20\n      mload(0x40)\n      dup1\n      dup4\n      sub\n      dup2\n      0x00\n      dup8\n      dup1\n      extcodesize\n      iszero\n      dup1\n      iszero\n      tag_137\n      jumpi\n      0x00\n      dup1\n      revert\n    tag_137:\n      pop\n      gas\n      call\n      iszero\n      dup1\n      iszero\n      tag_139\n      jumpi\n      returndatasize\n      0x00\n      dup1\n      returndatacopy\n      revert(0x00, returndatasize)\n    tag_139:\n      pop\n      pop\n      pop\n      pop\n      mload(0x40)\n      returndatasize\n      0x20\n      dup2\n      lt\n      iszero\n      tag_140\n      jumpi\n      0x00\n      dup1\n      revert\n    tag_140:\n      dup2\n      add\n      swap1\n      dup1\n      dup1\n      mload\n      swap1\n      0x20\n      add\n      swap1\n      swap3\n      swap2\n      swap1\n      pop\n      pop\n      pop\n      pop\n        /* \"shijian/4/Deposit_start.sol\":3663:3665  we */\n      0x00\n      dup1\n      sload\n      swap1\n      0x0100\n      exp\n      swap1\n      div\n      0xffffffffffffffffffffffffffffffffffffffff\n      and\n        /* \"shijian/4/Deposit_start.sol\":3663:3676  we.withdrawTo */\n      0xffffffffffffffffffffffffffffffffffffffff\n      and\n      0x205c2878\n        /* \"shijian/4/Deposit_start.sol\":3677:3687  _toAddress */\n      dup4\n        /* \"shijian/4/Deposit_start.sol\":3688:3716  getPendingReward(msg.sender) */\n      tag_141\n        /* \"shijian/4/Deposit_start.sol\":3705:3715  msg.sender */\n      caller\n        /* \"shijian/4/Deposit_start.sol\":3688:3704  getPendingReward */\n      tag_42\n        /* \"shijian/4/Deposit_start.sol\":3688:3716  getPendingReward(msg.sender) */\n      jump\t// in\n    tag_141:\n        /* \"shijian/4/Deposit_start.sol\":3663:3717  we.withdrawTo(_toAddress,getPendingReward(msg.sender)) */\n      mload(0x40)\n      dup4\n      0xffffffff\n      and\n      0xe0\n      shl\n      dup2\n      mstore\n      0x04\n      add\n      dup1\n      dup4\n      0xffffffffffffffffffffffffffffffffffffffff\n      and\n      dup2\n      mstore\n      0x20\n      add\n      dup3\n      dup2\n      mstore\n      0x20\n      add\n      swap3\n      pop\n      pop\n      pop\n      0x00\n      mload(0x40)\n      dup1\n      dup4\n      sub\n      dup2\n      0x00\n      dup8\n      dup1\n      extcodesize\n      iszero\n      dup1\n      iszero\n      tag_142\n      jumpi\n      0x00\n      dup1\n      revert\n    tag_142:\n      pop\n      gas\n      call\n      iszero\n      dup1\n      iszero\n      tag_144\n      jumpi\n      returndatasize\n      0x00\n      dup1\n      returndatacopy\n      revert(0x00, returndatasize)\n    tag_144:\n      pop\n      pop\n      pop\n      pop\n        /* \"shijian/4/Deposit_start.sol\":3739:3749  msg.sender */\n      caller\n        /* \"shijian/4/Deposit_start.sol\":3733:3792  Claim(msg.sender, _toAddress, getPendingReward(msg.sender)) */\n      0xffffffffffffffffffffffffffffffffffffffff\n      and\n      0x70eb43c4a8ae8c40502dcf22436c509c28d6ff421cf07c491be56984bd987068\n        /* \"shijian/4/Deposit_start.sol\":3751:3761  _toAddress */\n      dup4\n        /* \"shijian/4/Deposit_start.sol\":3763:3791  getPendingReward(msg.sender) */\n      tag_145\n        /* \"shijian/4/Deposit_start.sol\":3780:3790  msg.sender */\n      caller\n        /* \"shijian/4/Deposit_start.sol\":3763:3779  getPendingReward */\n      tag_42\n        /* \"shijian/4/Deposit_start.sol\":3763:3791  getPendingReward(msg.sender) */\n      jump\t// in\n    tag_145:\n        /* \"shijian/4/Deposit_start.sol\":3733:3792  Claim(msg.sender, _toAddress, getPendingReward(msg.sender)) */\n      mload(0x40)\n      dup1\n      dup4\n      0xffffffffffffffffffffffffffffffffffffffff\n      and\n      dup2\n      mstore\n      0x20\n      add\n      dup3\n      dup2\n      mstore\n      0x20\n      add\n      swap3\n      pop\n      pop\n      pop\n      mload(0x40)\n      dup1\n      swap2\n      sub\n      swap1\n      log2\n        /* \"shijian/4/Deposit_start.sol\":3831:3899  SafeMath.add(claimedReward[msg.sender],getPendingReward(_toAddress)) */\n      tag_146\n        /* \"shijian/4/Deposit_start.sol\":3844:3857  claimedReward */\n      0x04\n        /* \"shijian/4/Deposit_start.sol\":3844:3869  claimedReward[msg.sender] */\n      0x00\n        /* \"shijian/4/Deposit_start.sol\":3858:3868  msg.sender */\n      caller\n        /* \"shijian/4/Deposit_start.sol\":3844:3869  claimedReward[msg.sender] */\n      0xffffffffffffffffffffffffffffffffffffffff\n      and\n      0xffffffffffffffffffffffffffffffffffffffff\n      and\n      dup2\n      mstore\n      0x20\n      add\n      swap1\n      dup2\n      mstore\n      0x20\n      add\n      0x00\n      keccak256\n      sload\n        /* \"shijian/4/Deposit_start.sol\":3870:3898  getPendingReward(_toAddress) */\n      tag_147\n        /* \"shijian/4/Deposit_start.sol\":3887:3897  _toAddress */\n      dup5\n        /* \"shijian/4/Deposit_start.sol\":3870:3886  getPendingReward */\n      tag_42\n        /* \"shijian/4/Deposit_start.sol\":3870:3898  getPendingReward(_toAddress) */\n      jump\t// in\n    tag_147:\n        /* \"shijian/4/Deposit_start.sol\":3831:3843  SafeMath.add */\n      tag_78\n        /* \"shijian/4/Deposit_start.sol\":3831:3899  SafeMath.add(claimedReward[msg.sender],getPendingReward(_toAddress)) */\n      jump\t// in\n    tag_146:\n        /* \"shijian/4/Deposit_start.sol\":3803:3816  claimedReward */\n      0x04\n        /* \"shijian/4/Deposit_start.sol\":3803:3828  claimedReward[msg.sender] */\n      0x00\n        /* \"shijian/4/Deposit_start.sol\":3817:3827  msg.sender */\n      caller\n        /* \"shijian/4/Deposit_start.sol\":3803:3828  claimedReward[msg.sender] */\n      0xffffffffffffffffffffffffffffffffffffffff\n      and\n      0xffffffffffffffffffffffffffffffffffffffff\n      and\n      dup2\n      mstore\n      0x20\n      add\n      swap1\n      dup2\n      mstore\n      0x20\n      add\n      0x00\n      keccak256\n        /* \"shijian/4/Deposit_start.sol\":3803:3899  claimedReward[msg.sender] = SafeMath.add(claimedReward[msg.sender],getPendingReward(_toAddress)) */\n      dup2\n      swap1\n      sstore\n      pop\n        /* \"shijian/4/Deposit_start.sol\":3917:3921  true */\n      0x01\n        /* \"shijian/4/Deposit_start.sol\":3910:3921  return true */\n      swap1\n      pop\n        /* \"shijian/4/Deposit_start.sol\":3390:3929  function claimReward( address payable _toAddress) public returns (bool) {\r... */\n      swap2\n      swap1\n      pop\n      jump\t// out\n        /* \"shijian/4/SafeMath.sol\":3196:3328  function div(uint256 a, uint256 b) internal pure returns (uint256) {\r... */\n    tag_75:\n        /* \"shijian/4/SafeMath.sol\":3254:3261  uint256 */\n      0x00\n        /* \"shijian/4/SafeMath.sol\":3281:3320  div(a, b, \"SafeMath: division by zero\") */\n      tag_149\n        /* \"shijian/4/SafeMath.sol\":3285:3286  a */\n      dup4\n        /* \"shijian/4/SafeMath.sol\":3288:3289  b */\n      dup4\n        /* \"shijian/4/SafeMath.sol\":3281:3320  div(a, b, \"SafeMath: division by zero\") */\n      mload(0x40)\n      dup1\n      0x40\n      add\n      0x40\n      mstore\n      dup1\n      0x1a\n      dup2\n      mstore\n      0x20\n      add\n      0x536166654d6174683a206469766973696f6e206279207a65726f000000000000\n      dup2\n      mstore\n      pop\n        /* \"shijian/4/SafeMath.sol\":3281:3284  div */\n      tag_150\n        /* \"shijian/4/SafeMath.sol\":3281:3320  div(a, b, \"SafeMath: division by zero\") */\n      jump\t// in\n    tag_149:\n        /* \"shijian/4/SafeMath.sol\":3274:3320  return div(a, b, \"SafeMath: division by zero\") */\n      swap1\n      pop\n        /* \"shijian/4/SafeMath.sol\":3196:3328  function div(uint256 a, uint256 b) internal pure returns (uint256) {\r... */\n      swap3\n      swap2\n      pop\n      pop\n      jump\t// out\n        /* \"shijian/4/SafeMath.sol\":1349:1485  function sub(uint256 a, uint256 b) internal pure returns (uint256) {\r... */\n    tag_76:\n        /* \"shijian/4/SafeMath.sol\":1407:1414  uint256 */\n      0x00\n        /* \"shijian/4/SafeMath.sol\":1434:1477  sub(a, b, \"SafeMath: subtraction overflow\") */\n      tag_152\n        /* \"shijian/4/SafeMath.sol\":1438:1439  a */\n      dup4\n        /* \"shijian/4/SafeMath.sol\":1441:1442  b */\n      dup4\n        /* \"shijian/4/SafeMath.sol\":1434:1477  sub(a, b, \"SafeMath: subtraction overflow\") */\n      mload(0x40)\n      dup1\n      0x40\n      add\n      0x40\n      mstore\n      dup1\n      0x1e\n      dup2\n      mstore\n      0x20\n      add\n      0x536166654d6174683a207375627472616374696f6e206f766572666c6f770000\n      dup2\n      mstore\n      pop\n        /* \"shijian/4/SafeMath.sol\":1434:1437  sub */\n      tag_153\n        /* \"shijian/4/SafeMath.sol\":1434:1477  sub(a, b, \"SafeMath: subtraction overflow\") */\n      jump\t// in\n    tag_152:\n        /* \"shijian/4/SafeMath.sol\":1427:1477  return sub(a, b, \"SafeMath: subtraction overflow\") */\n      swap1\n      pop\n        /* \"shijian/4/SafeMath.sol\":1349:1485  function sub(uint256 a, uint256 b) internal pure returns (uint256) {\r... */\n      swap3\n      swap2\n      pop\n      pop\n      jump\t// out\n        /* \"shijian/4/SafeMath.sol\":2257:2728  function mul(uint256 a, uint256 b) internal pure returns (uint256) {\r... */\n    tag_77:\n        /* \"shijian/4/SafeMath.sol\":2315:2322  uint256 */\n      0x00\n        /* \"shijian/4/SafeMath.sol\":2565:2566  0 */\n      dup1\n        /* \"shijian/4/SafeMath.sol\":2560:2561  a */\n      dup4\n        /* \"shijian/4/SafeMath.sol\":2560:2566  a == 0 */\n      eq\n        /* \"shijian/4/SafeMath.sol\":2556:2603  if (a == 0) {\r... */\n      iszero\n      tag_155\n      jumpi\n        /* \"shijian/4/SafeMath.sol\":2590:2591  0 */\n      0x00\n        /* \"shijian/4/SafeMath.sol\":2583:2591  return 0 */\n      swap1\n      pop\n      jump(tag_154)\n        /* \"shijian/4/SafeMath.sol\":2556:2603  if (a == 0) {\r... */\n    tag_155:\n        /* \"shijian/4/SafeMath.sol\":2615:2624  uint256 c */\n      0x00\n        /* \"shijian/4/SafeMath.sol\":2631:2632  b */\n      dup3\n        /* \"shijian/4/SafeMath.sol\":2627:2628  a */\n      dup5\n        /* \"shijian/4/SafeMath.sol\":2627:2632  a * b */\n      mul\n        /* \"shijian/4/SafeMath.sol\":2615:2632  uint256 c = a * b */\n      swap1\n      pop\n        /* \"shijian/4/SafeMath.sol\":2660:2661  b */\n      dup3\n        /* \"shijian/4/SafeMath.sol\":2655:2656  a */\n      dup5\n        /* \"shijian/4/SafeMath.sol\":2651:2652  c */\n      dup3\n        /* \"shijian/4/SafeMath.sol\":2651:2656  c / a */\n      dup2\n      tag_156\n      jumpi\n      invalid\n    tag_156:\n      div\n        /* \"shijian/4/SafeMath.sol\":2651:2661  c / a == b */\n      eq\n        /* \"shijian/4/SafeMath.sol\":2643:2699  require(c / a == b, \"SafeMath: multiplication overflow\") */\n      tag_157\n      jumpi\n      mload(0x40)\n      0x08c379a000000000000000000000000000000000000000000000000000000000\n      dup2\n      mstore\n      0x04\n      add\n      dup1\n      dup1\n      0x20\n      add\n      dup3\n      dup2\n      sub\n      dup3\n      mstore\n      0x21\n      dup2\n      mstore\n      0x20\n      add\n      dup1\n      data_9113bb53c2876a3805b2c9242029423fc540a728243ce887ab24c82cf119fba3\n      0x21\n      swap2\n      codecopy\n      0x40\n      add\n      swap2\n      pop\n      pop\n      mload(0x40)\n      dup1\n      swap2\n      sub\n      swap1\n      revert\n    tag_157:\n        /* \"shijian/4/SafeMath.sol\":2719:2720  c */\n      dup1\n        /* \"shijian/4/SafeMath.sol\":2712:2720  return c */\n      swap2\n      pop\n      pop\n        /* \"shijian/4/SafeMath.sol\":2257:2728  function mul(uint256 a, uint256 b) internal pure returns (uint256) {\r... */\n    tag_154:\n      swap3\n      swap2\n      pop\n      pop\n      jump\t// out\n        /* \"shijian/4/SafeMath.sol\":893:1074  function add(uint256 a, uint256 b) internal pure returns (uint256) {\r... */\n    tag_78:\n        /* \"shijian/4/SafeMath.sol\":951:958  uint256 */\n      0x00\n        /* \"shijian/4/SafeMath.sol\":971:980  uint256 c */\n      dup1\n        /* \"shijian/4/SafeMath.sol\":987:988  b */\n      dup3\n        /* \"shijian/4/SafeMath.sol\":983:984  a */\n      dup5\n        /* \"shijian/4/SafeMath.sol\":983:988  a + b */\n      add\n        /* \"shijian/4/SafeMath.sol\":971:988  uint256 c = a + b */\n      swap1\n      pop\n        /* \"shijian/4/SafeMath.sol\":1012:1013  a */\n      dup4\n        /* \"shijian/4/SafeMath.sol\":1007:1008  c */\n      dup2\n        /* \"shijian/4/SafeMath.sol\":1007:1013  c >= a */\n      lt\n      iszero\n        /* \"shijian/4/SafeMath.sol\":999:1045  require(c >= a, \"SafeMath: addition overflow\") */\n      tag_159\n      jumpi\n      mload(0x40)\n      0x08c379a000000000000000000000000000000000000000000000000000000000\n      dup2\n      mstore\n      0x04\n      add\n      dup1\n      dup1\n      0x20\n      add\n      dup3\n      dup2\n      sub\n      dup3\n      mstore\n      0x1b\n      dup2\n      mstore\n      0x20\n      add\n      dup1\n      0x536166654d6174683a206164646974696f6e206f766572666c6f770000000000\n      dup2\n      mstore\n      pop\n      0x20\n      add\n      swap2\n      pop\n      pop\n      mload(0x40)\n      dup1\n      swap2\n      sub\n      swap1\n      revert\n    tag_159:\n        /* \"shijian/4/SafeMath.sol\":1065:1066  c */\n      dup1\n        /* \"shijian/4/SafeMath.sol\":1058:1066  return c */\n      swap2\n      pop\n      pop\n        /* \"shijian/4/SafeMath.sol\":893:1074  function add(uint256 a, uint256 b) internal pure returns (uint256) {\r... */\n      swap3\n      swap2\n      pop\n      pop\n      jump\t// out\n        /* \"shijian/4/SafeMath.sol\":3816:4195  function div(\r... */\n    tag_150:\n        /* \"shijian/4/SafeMath.sol\":3936:3943  uint256 */\n      0x00\n        /* \"shijian/4/SafeMath.sol\":4035:4036  0 */\n      dup1\n        /* \"shijian/4/SafeMath.sol\":4031:4032  b */\n      dup4\n        /* \"shijian/4/SafeMath.sol\":4031:4036  b > 0 */\n      gt\n        /* \"shijian/4/SafeMath.sol\":4038:4050  errorMessage */\n      dup3\n        /* \"shijian/4/SafeMath.sol\":4023:4051  require(b > 0, errorMessage) */\n      swap1\n      tag_161\n      jumpi\n      mload(0x40)\n      0x08c379a000000000000000000000000000000000000000000000000000000000\n      dup2\n      mstore\n      0x04\n      add\n      dup1\n      dup1\n      0x20\n      add\n      dup3\n      dup2\n      sub\n      dup3\n      mstore\n      dup4\n      dup2\n      dup2\n      mload\n      dup2\n      mstore\n      0x20\n      add\n      swap2\n      pop\n      dup1\n      mload\n      swap1\n      0x20\n      add\n      swap1\n      dup1\n      dup4\n      dup4\n      0x00\n    tag_162:\n      dup4\n      dup2\n      lt\n      iszero\n      tag_164\n      jumpi\n      dup1\n      dup3\n      add\n      mload\n      dup2\n      dup5\n      add\n      mstore\n      0x20\n      dup2\n      add\n      swap1\n      pop\n      jump(tag_162)\n    tag_164:\n      pop\n      pop\n      pop\n      pop\n      swap1\n      pop\n      swap1\n      dup2\n      add\n      swap1\n      0x1f\n      and\n      dup1\n      iszero\n      tag_165\n      jumpi\n      dup1\n      dup3\n      sub\n      dup1\n      mload\n      0x01\n      dup4\n      0x20\n      sub\n      0x0100\n      exp\n      sub\n      not\n      and\n      dup2\n      mstore\n      0x20\n      add\n      swap2\n      pop\n    tag_165:\n      pop\n      swap3\n      pop\n      pop\n      pop\n      mload(0x40)\n      dup1\n      swap2\n      sub\n      swap1\n      revert\n    tag_161:\n      pop\n        /* \"shijian/4/SafeMath.sol\":4062:4071  uint256 c */\n      0x00\n        /* \"shijian/4/SafeMath.sol\":4078:4079  b */\n      dup4\n        /* \"shijian/4/SafeMath.sol\":4074:4075  a */\n      dup6\n        /* \"shijian/4/SafeMath.sol\":4074:4079  a / b */\n      dup2\n      tag_166\n      jumpi\n      invalid\n    tag_166:\n      div\n        /* \"shijian/4/SafeMath.sol\":4062:4079  uint256 c = a / b */\n      swap1\n      pop\n        /* \"shijian/4/SafeMath.sol\":4186:4187  c */\n      dup1\n        /* \"shijian/4/SafeMath.sol\":4179:4187  return c */\n      swap2\n      pop\n      pop\n        /* \"shijian/4/SafeMath.sol\":3816:4195  function div(\r... */\n      swap4\n      swap3\n      pop\n      pop\n      pop\n      jump\t// out\n        /* \"shijian/4/SafeMath.sol\":1780:2006  function sub(\r... */\n    tag_153:\n        /* \"shijian/4/SafeMath.sol\":1900:1907  uint256 */\n      0x00\n        /* \"shijian/4/SafeMath.sol\":1933:1934  a */\n      dup4\n        /* \"shijian/4/SafeMath.sol\":1928:1929  b */\n      dup4\n        /* \"shijian/4/SafeMath.sol\":1928:1934  b <= a */\n      gt\n      iszero\n        /* \"shijian/4/SafeMath.sol\":1936:1948  errorMessage */\n      dup3\n        /* \"shijian/4/SafeMath.sol\":1920:1949  require(b <= a, errorMessage) */\n      swap1\n      tag_168\n      jumpi\n      mload(0x40)\n      0x08c379a000000000000000000000000000000000000000000000000000000000\n      dup2\n      mstore\n      0x04\n      add\n      dup1\n      dup1\n      0x20\n      add\n      dup3\n      dup2\n      sub\n      dup3\n      mstore\n      dup4\n      dup2\n      dup2\n      mload\n      dup2\n      mstore\n      0x20\n      add\n      swap2\n      pop\n      dup1\n      mload\n      swap1\n      0x20\n      add\n      swap1\n      dup1\n      dup4\n      dup4\n      0x00\n    tag_169:\n      dup4\n      dup2\n      lt\n      iszero\n      tag_171\n      jumpi\n      dup1\n      dup3\n      add\n      mload\n      dup2\n      dup5\n      add\n      mstore\n      0x20\n      dup2\n      add\n      swap1\n      pop\n      jump(tag_169)\n    tag_171:\n      pop\n      pop\n      pop\n      pop\n      swap1\n      pop\n      swap1\n      dup2\n      add\n      swap1\n      0x1f\n      and\n      dup1\n      iszero\n      tag_172\n      jumpi\n      dup1\n      dup3\n      sub\n      dup1\n      mload\n      0x01\n      dup4\n      0x20\n      sub\n      0x0100\n      exp\n      sub\n      not\n      and\n      dup2\n      mstore\n      0x20\n      add\n      swap2\n      pop\n    tag_172:\n      pop\n      swap3\n      pop\n      pop\n      pop\n      mload(0x40)\n      dup1\n      swap2\n      sub\n      swap1\n      revert\n    tag_168:\n      pop\n        /* \"shijian/4/SafeMath.sol\":1960:1969  uint256 c */\n      0x00\n        /* \"shijian/4/SafeMath.sol\":1976:1977  b */\n      dup4\n        /* \"shijian/4/SafeMath.sol\":1972:1973  a */\n      dup6\n        /* \"shijian/4/SafeMath.sol\":1972:1977  a - b */\n      sub\n        /* \"shijian/4/SafeMath.sol\":1960:1977  uint256 c = a - b */\n      swap1\n      pop\n        /* \"shijian/4/SafeMath.sol\":1997:1998  c */\n      dup1\n        /* \"shijian/4/SafeMath.sol\":1990:1998  return c */\n      swap2\n      pop\n      pop\n        /* \"shijian/4/SafeMath.sol\":1780:2006  function sub(\r... */\n      swap4\n      swap3\n      pop\n      pop\n      pop\n      jump\t// out\n    stop\n    data_9113bb53c2876a3805b2c9242029423fc540a728243ce887ab24c82cf119fba3 536166654d6174683a206d756c7469706c69636174696f6e206f766572666c6f77\n\n    auxdata: 0xa26469706673582212206cd09bb9ebe220fe441f10716a20d3ff6181dfcce7a5a61ba328f68665f9658064736f6c63430007060033\n}\n",
				"bytecode": {
					"linkReferences": {},
					"object": "60e060405234801561001057600080fd5b50604051611cd4380380611cd48339818101604052604081101561003357600080fd5b8101908080519060200190929190805190602001909291905050504360a0818152505060018143010160c081815250508173ffffffffffffffffffffffffffffffffffffffff1660808173ffffffffffffffffffffffffffffffffffffffff1660601b81525050816000806101000a81548173ffffffffffffffffffffffffffffffffffffffff021916908373ffffffffffffffffffffffffffffffffffffffff160217905550505060805160601c60a05160c051611bb0610124600039806104fe5280610c5d5280610e5b528061100f525080610be75280611041525080610fe952806114d85250611bb06000f3fe608060405234801561001057600080fd5b506004361061010b5760003560e01c806350f62da7116100a2578063a176459511610071578063a1764595146103c2578063b6b55f25146103f6578063b83686151461043a578063cae5f11e1461046e578063d279c191146104a25761010b565b806350f62da7146102c0578063562dead2146103185780636967519b146103365780636d4ce63c1461038e5761010b565b80632e1a7d4d116100de5780632e1a7d4d146101e857806342cbb15c1461022c57806348cd4cb11461024a5780634df9d6ba146102685761010b565b8063083c632314610110578063192892181461012e5780631e6f3d8a1461013857806328ba6cab14610190575b600080fd5b6101186104fc565b6040518082815260200191505060405180910390f35b610136610520565b005b61017a6004803603602081101561014e57600080fd5b81019080803573ffffffffffffffffffffffffffffffffffffffff169060200190929190505050610534565b6040518082815260200191505060405180910390f35b6101d2600480360360208110156101a657600080fd5b81019080803573ffffffffffffffffffffffffffffffffffffffff16906020019092919050505061054c565b6040518082815260200191505060405180910390f35b610214600480360360208110156101fe57600080fd5b8101908080359060200190929190505050610564565b60405180821515815260200191505060405180910390f35b610234610bdd565b6040518082815260200191505060405180910390f35b610252610be5565b6040518082815260200191505060405180910390f35b6102aa6004803603602081101561027e57600080fd5b81019080803573ffffffffffffffffffffffffffffffffffffffff169060200190929190505050610c09565b6040518082815260200191505060405180910390f35b610302600480360360208110156102d657600080fd5b81019080803573ffffffffffffffffffffffffffffffffffffffff169060200190929190505050610fa5565b6040518082815260200191505060405180910390f35b610320610fbd565b6040518082815260200191505060405180910390f35b6103786004803603602081101561034c57600080fd5b81019080803573ffffffffffffffffffffffffffffffffffffffff169060200190929190505050610fc2565b6040518082815260200191505060405180910390f35b610396610fda565b604051808273ffffffffffffffffffffffffffffffffffffffff16815260200191505060405180910390f35b6103ca610fe7565b604051808273ffffffffffffffffffffffffffffffffffffffff16815260200191505060405180910390f35b6104226004803603602081101561040c57600080fd5b810190808035906020019092919050505061100b565b60405180821515815260200191505060405180910390f35b6104426114cc565b604051808273ffffffffffffffffffffffffffffffffffffffff16815260200191505060405180910390f35b6104766114d4565b604051808273ffffffffffffffffffffffffffffffffffffffff16815260200191505060405180910390f35b6104e4600480360360208110156104b857600080fd5b81019080803573ffffffffffffffffffffffffffffffffffffffff1690602001909291905050506114fc565b60405180821515815260200191505060405180910390f35b7f000000000000000000000000000000000000000000000000000000000000000081565b600560008154809291906001019190505550565b60046020528060005260406000206000915090505481565b60026020528060005260406000206000915090505481565b600080821180156105b4575081600160003373ffffffffffffffffffffffffffffffffffffffff1673ffffffffffffffffffffffffffffffffffffffff1681526020019081526020016000205410155b610626576040517f08c379a00000000000000000000000000000000000000000000000000000000081526004018080602001828103825260098152602001807f63616e206e6f742030000000000000000000000000000000000000000000000081525060200191505060405180910390fd5b610758600360003373ffffffffffffffffffffffffffffffffffffffff1673ffffffffffffffffffffffffffffffffffffffff1681526020019081526020016000205461075361074c61070761067a610bdd565b610702600260003373ffffffffffffffffffffffffffffffffffffffff1673ffffffffffffffffffffffffffffffffffffffff16815260200190815260200160002054600160003373ffffffffffffffffffffffffffffffffffffffff1673ffffffffffffffffffffffffffffffffffffffff16815260200190815260200160002054611831565b61187b565b600160003373ffffffffffffffffffffffffffffffffffffffff1673ffffffffffffffffffffffffffffffffffffffff168152602001908152602001600020546118c5565b6005611831565b61194b565b600360003373ffffffffffffffffffffffffffffffffffffffff1673ffffffffffffffffffffffffffffffffffffffff16815260200190815260200160002081905550600360003373ffffffffffffffffffffffffffffffffffffffff1673ffffffffffffffffffffffffffffffffffffffff16815260200190815260200160002054600460003373ffffffffffffffffffffffffffffffffffffffff1673ffffffffffffffffffffffffffffffffffffffff1681526020019081526020016000208190555081600160003373ffffffffffffffffffffffffffffffffffffffff1673ffffffffffffffffffffffffffffffffffffffff1681526020019081526020016000205410156108d3576040517f08c379a00000000000000000000000000000000000000000000000000000000081526004018080602001828103825260158152602001807f6e6f206d6f72652070656e64696e67526577617264000000000000000000000081525060200191505060405180910390fd5b60008054906101000a900473ffffffffffffffffffffffffffffffffffffffff1673ffffffffffffffffffffffffffffffffffffffff166323b872dd3330856040518463ffffffff1660e01b8152600401808473ffffffffffffffffffffffffffffffffffffffff1681526020018373ffffffffffffffffffffffffffffffffffffffff1681526020018281526020019350505050602060405180830381600087803b15801561098257600080fd5b505af1158015610996573d6000803e3d6000fd5b505050506040513d60208110156109ac57600080fd5b81019080805190602001909291905050505060008054906101000a900473ffffffffffffffffffffffffffffffffffffffff1673ffffffffffffffffffffffffffffffffffffffff1663205c287833846040518363ffffffff1660e01b8152600401808373ffffffffffffffffffffffffffffffffffffffff16815260200182815260200192505050600060405180830381600087803b158015610a4f57600080fd5b505af1158015610a63573d6000803e3d6000fd5b50505050610ab0600160003373ffffffffffffffffffffffffffffffffffffffff1673ffffffffffffffffffffffffffffffffffffffff168152602001908152602001600020548361187b565b600160003373ffffffffffffffffffffffffffffffffffffffff1673ffffffffffffffffffffffffffffffffffffffff16815260200190815260200160002081905550610b43610afe610bdd565b600160003373ffffffffffffffffffffffffffffffffffffffff1673ffffffffffffffffffffffffffffffffffffffff168152602001908152602001600020546118c5565b600260003373ffffffffffffffffffffffffffffffffffffffff1673ffffffffffffffffffffffffffffffffffffffff168152602001908152602001600020819055503373ffffffffffffffffffffffffffffffffffffffff167f884edad9ce6fa2440d8a54cc123490eb96d2768479d49ff9c7366125a9424364836040518082815260200191505060405180910390a260019050919050565b600043905090565b7f000000000000000000000000000000000000000000000000000000000000000081565b600080600160003373ffffffffffffffffffffffffffffffffffffffff1673ffffffffffffffffffffffffffffffffffffffff168152602001908152602001600020541415610c5b5760009050610fa0565b7f0000000000000000000000000000000000000000000000000000000000000000610c84610bdd565b11610e0a57610e03610dbe600360008573ffffffffffffffffffffffffffffffffffffffff1673ffffffffffffffffffffffffffffffffffffffff16815260200190815260200160002054610db9610db2610d6d610ce0610bdd565b610d68600260008b73ffffffffffffffffffffffffffffffffffffffff1673ffffffffffffffffffffffffffffffffffffffff16815260200190815260200160002054600160008c73ffffffffffffffffffffffffffffffffffffffff1673ffffffffffffffffffffffffffffffffffffffff16815260200190815260200160002054611831565b61187b565b600160008973ffffffffffffffffffffffffffffffffffffffff1673ffffffffffffffffffffffffffffffffffffffff168152602001908152602001600020546118c5565b6005611831565b61194b565b600460008573ffffffffffffffffffffffffffffffffffffffff1673ffffffffffffffffffffffffffffffffffffffff1681526020019081526020016000205461187b565b9050610fa0565b610f9d610f58600360008573ffffffffffffffffffffffffffffffffffffffff1673ffffffffffffffffffffffffffffffffffffffff16815260200190815260200160002054610f53610f4c610f077f0000000000000000000000000000000000000000000000000000000000000000610f02600260008b73ffffffffffffffffffffffffffffffffffffffff1673ffffffffffffffffffffffffffffffffffffffff16815260200190815260200160002054600160008c73ffffffffffffffffffffffffffffffffffffffff1673ffffffffffffffffffffffffffffffffffffffff16815260200190815260200160002054611831565b61187b565b600160008973ffffffffffffffffffffffffffffffffffffffff1673ffffffffffffffffffffffffffffffffffffffff168152602001908152602001600020546118c5565b6005611831565b61194b565b600460008573ffffffffffffffffffffffffffffffffffffffff1673ffffffffffffffffffffffffffffffffffffffff1681526020019081526020016000205461187b565b90505b919050565b60016020528060005260406000206000915090505481565b600581565b60036020528060005260406000206000915090505481565b6000803390508091505090565b7f000000000000000000000000000000000000000000000000000000000000000081565b60007f0000000000000000000000000000000000000000000000000000000000000000611036610bdd565b1115801561106b57507f0000000000000000000000000000000000000000000000000000000000000000611068610bdd565b10155b61107457600080fd5b6000600160003373ffffffffffffffffffffffffffffffffffffffff1673ffffffffffffffffffffffffffffffffffffffff1681526020019081526020016000205414156111e057611105600160003373ffffffffffffffffffffffffffffffffffffffff1673ffffffffffffffffffffffffffffffffffffffff168152602001908152602001600020548361194b565b600160003373ffffffffffffffffffffffffffffffffffffffff1673ffffffffffffffffffffffffffffffffffffffff16815260200190815260200160002081905550611198600160003373ffffffffffffffffffffffffffffffffffffffff1673ffffffffffffffffffffffffffffffffffffffff16815260200190815260200160002054611193610bdd565b6118c5565b600260003373ffffffffffffffffffffffffffffffffffffffff1673ffffffffffffffffffffffffffffffffffffffff16815260200190815260200160002081905550611475565b611312600360003373ffffffffffffffffffffffffffffffffffffffff1673ffffffffffffffffffffffffffffffffffffffff1681526020019081526020016000205461130d6113066112c1611234610bdd565b6112bc600260003373ffffffffffffffffffffffffffffffffffffffff1673ffffffffffffffffffffffffffffffffffffffff16815260200190815260200160002054600160003373ffffffffffffffffffffffffffffffffffffffff1673ffffffffffffffffffffffffffffffffffffffff16815260200190815260200160002054611831565b61187b565b600160003373ffffffffffffffffffffffffffffffffffffffff1673ffffffffffffffffffffffffffffffffffffffff168152602001908152602001600020546118c5565b6005611831565b61194b565b600360003373ffffffffffffffffffffffffffffffffffffffff1673ffffffffffffffffffffffffffffffffffffffff1681526020019081526020016000208190555061139e600160003373ffffffffffffffffffffffffffffffffffffffff1673ffffffffffffffffffffffffffffffffffffffff168152602001908152602001600020548361194b565b600160003373ffffffffffffffffffffffffffffffffffffffff1673ffffffffffffffffffffffffffffffffffffffff16815260200190815260200160002081905550611431600160003373ffffffffffffffffffffffffffffffffffffffff1673ffffffffffffffffffffffffffffffffffffffff1681526020019081526020016000205461142c610bdd565b6118c5565b600260003373ffffffffffffffffffffffffffffffffffffffff1673ffffffffffffffffffffffffffffffffffffffff168152602001908152602001600020819055505b3373ffffffffffffffffffffffffffffffffffffffff167fe1fffcc4923d04b559f4d29a8bfc6cda04eb5b0d3c460751c2402c5c5cc9109c836040518082815260200191505060405180910390a260019050919050565b600030905090565b60007f0000000000000000000000000000000000000000000000000000000000000000905090565b60008061150833610c09565b141561157c576040517f08c379a00000000000000000000000000000000000000000000000000000000081526004018080602001828103825260108152602001807f6e6f2070656e64696e675265776172640000000000000000000000000000000081525060200191505060405180910390fd5b60008054906101000a900473ffffffffffffffffffffffffffffffffffffffff1673ffffffffffffffffffffffffffffffffffffffff166323b872dd33306115c333610c09565b6040518463ffffffff1660e01b8152600401808473ffffffffffffffffffffffffffffffffffffffff1681526020018373ffffffffffffffffffffffffffffffffffffffff1681526020018281526020019350505050602060405180830381600087803b15801561163357600080fd5b505af1158015611647573d6000803e3d6000fd5b505050506040513d602081101561165d57600080fd5b81019080805190602001909291905050505060008054906101000a900473ffffffffffffffffffffffffffffffffffffffff1673ffffffffffffffffffffffffffffffffffffffff1663205c2878836116b533610c09565b6040518363ffffffff1660e01b8152600401808373ffffffffffffffffffffffffffffffffffffffff16815260200182815260200192505050600060405180830381600087803b15801561170857600080fd5b505af115801561171c573d6000803e3d6000fd5b505050503373ffffffffffffffffffffffffffffffffffffffff167f70eb43c4a8ae8c40502dcf22436c509c28d6ff421cf07c491be56984bd9870688361176233610c09565b604051808373ffffffffffffffffffffffffffffffffffffffff1681526020018281526020019250505060405180910390a26117e5600460003373ffffffffffffffffffffffffffffffffffffffff1673ffffffffffffffffffffffffffffffffffffffff168152602001908152602001600020546117e084610c09565b61194b565b600460003373ffffffffffffffffffffffffffffffffffffffff1673ffffffffffffffffffffffffffffffffffffffff1681526020019081526020016000208190555060019050919050565b600061187383836040518060400160405280601a81526020017f536166654d6174683a206469766973696f6e206279207a65726f0000000000008152506119d3565b905092915050565b60006118bd83836040518060400160405280601e81526020017f536166654d6174683a207375627472616374696f6e206f766572666c6f770000815250611a99565b905092915050565b6000808314156118d85760009050611945565b60008284029050828482816118e957fe5b0414611940576040517f08c379a0000000000000000000000000000000000000000000000000000000008152600401808060200182810382526021815260200180611b5a6021913960400191505060405180910390fd5b809150505b92915050565b6000808284019050838110156119c9576040517f08c379a000000000000000000000000000000000000000000000000000000000815260040180806020018281038252601b8152602001807f536166654d6174683a206164646974696f6e206f766572666c6f77000000000081525060200191505060405180910390fd5b8091505092915050565b60008083118290611a7f576040517f08c379a00000000000000000000000000000000000000000000000000000000081526004018080602001828103825283818151815260200191508051906020019080838360005b83811015611a44578082015181840152602081019050611a29565b50505050905090810190601f168015611a715780820380516001836020036101000a031916815260200191505b509250505060405180910390fd5b506000838581611a8b57fe5b049050809150509392505050565b6000838311158290611b46576040517f08c379a00000000000000000000000000000000000000000000000000000000081526004018080602001828103825283818151815260200191508051906020019080838360005b83811015611b0b578082015181840152602081019050611af0565b50505050905090810190601f168015611b385780820380516001836020036101000a031916815260200191505b509250505060405180910390fd5b506000838503905080915050939250505056fe536166654d6174683a206d756c7469706c69636174696f6e206f766572666c6f77a26469706673582212206cd09bb9ebe220fe441f10716a20d3ff6181dfcce7a5a61ba328f68665f9658064736f6c63430007060033",
					"opcodes": "PUSH1 0xE0 PUSH1 0x40 MSTORE CALLVALUE DUP1 ISZERO PUSH2 0x10 JUMPI PUSH1 0x0 DUP1 REVERT JUMPDEST POP PUSH1 0x40 MLOAD PUSH2 0x1CD4 CODESIZE SUB DUP1 PUSH2 0x1CD4 DUP4 CODECOPY DUP2 DUP2 ADD PUSH1 0x40 MSTORE PUSH1 0x40 DUP2 LT ISZERO PUSH2 0x33 JUMPI PUSH1 0x0 DUP1 REVERT JUMPDEST DUP2 ADD SWAP1 DUP1 DUP1 MLOAD SWAP1 PUSH1 0x20 ADD SWAP1 SWAP3 SWAP2 SWAP1 DUP1 MLOAD SWAP1 PUSH1 0x20 ADD SWAP1 SWAP3 SWAP2 SWAP1 POP POP POP NUMBER PUSH1 0xA0 DUP2 DUP2 MSTORE POP POP PUSH1 0x1 DUP2 NUMBER ADD ADD PUSH1 0xC0 DUP2 DUP2 MSTORE POP POP DUP2 PUSH20 0xFFFFFFFFFFFFFFFFFFFFFFFFFFFFFFFFFFFFFFFF AND PUSH1 0x80 DUP2 PUSH20 0xFFFFFFFFFFFFFFFFFFFFFFFFFFFFFFFFFFFFFFFF AND PUSH1 0x60 SHL DUP2 MSTORE POP POP DUP2 PUSH1 0x0 DUP1 PUSH2 0x100 EXP DUP2 SLOAD DUP2 PUSH20 0xFFFFFFFFFFFFFFFFFFFFFFFFFFFFFFFFFFFFFFFF MUL NOT AND SWAP1 DUP4 PUSH20 0xFFFFFFFFFFFFFFFFFFFFFFFFFFFFFFFFFFFFFFFF AND MUL OR SWAP1 SSTORE POP POP POP PUSH1 0x80 MLOAD PUSH1 0x60 SHR PUSH1 0xA0 MLOAD PUSH1 0xC0 MLOAD PUSH2 0x1BB0 PUSH2 0x124 PUSH1 0x0 CODECOPY DUP1 PUSH2 0x4FE MSTORE DUP1 PUSH2 0xC5D MSTORE DUP1 PUSH2 0xE5B MSTORE DUP1 PUSH2 0x100F MSTORE POP DUP1 PUSH2 0xBE7 MSTORE DUP1 PUSH2 0x1041 MSTORE POP DUP1 PUSH2 0xFE9 MSTORE DUP1 PUSH2 0x14D8 MSTORE POP PUSH2 0x1BB0 PUSH1 0x0 RETURN INVALID PUSH1 0x80 PUSH1 0x40 MSTORE CALLVALUE DUP1 ISZERO PUSH2 0x10 JUMPI PUSH1 0x0 DUP1 REVERT JUMPDEST POP PUSH1 0x4 CALLDATASIZE LT PUSH2 0x10B JUMPI PUSH1 0x0 CALLDATALOAD PUSH1 0xE0 SHR DUP1 PUSH4 0x50F62DA7 GT PUSH2 0xA2 JUMPI DUP1 PUSH4 0xA1764595 GT PUSH2 0x71 JUMPI DUP1 PUSH4 0xA1764595 EQ PUSH2 0x3C2 JUMPI DUP1 PUSH4 0xB6B55F25 EQ PUSH2 0x3F6 JUMPI DUP1 PUSH4 0xB8368615 EQ PUSH2 0x43A JUMPI DUP1 PUSH4 0xCAE5F11E EQ PUSH2 0x46E JUMPI DUP1 PUSH4 0xD279C191 EQ PUSH2 0x4A2 JUMPI PUSH2 0x10B JUMP JUMPDEST DUP1 PUSH4 0x50F62DA7 EQ PUSH2 0x2C0 JUMPI DUP1 PUSH4 0x562DEAD2 EQ PUSH2 0x318 JUMPI DUP1 PUSH4 0x6967519B EQ PUSH2 0x336 JUMPI DUP1 PUSH4 0x6D4CE63C EQ PUSH2 0x38E JUMPI PUSH2 0x10B JUMP JUMPDEST DUP1 PUSH4 0x2E1A7D4D GT PUSH2 0xDE JUMPI DUP1 PUSH4 0x2E1A7D4D EQ PUSH2 0x1E8 JUMPI DUP1 PUSH4 0x42CBB15C EQ PUSH2 0x22C JUMPI DUP1 PUSH4 0x48CD4CB1 EQ PUSH2 0x24A JUMPI DUP1 PUSH4 0x4DF9D6BA EQ PUSH2 0x268 JUMPI PUSH2 0x10B JUMP JUMPDEST DUP1 PUSH4 0x83C6323 EQ PUSH2 0x110 JUMPI DUP1 PUSH4 0x19289218 EQ PUSH2 0x12E JUMPI DUP1 PUSH4 0x1E6F3D8A EQ PUSH2 0x138 JUMPI DUP1 PUSH4 0x28BA6CAB EQ PUSH2 0x190 JUMPI JUMPDEST PUSH1 0x0 DUP1 REVERT JUMPDEST PUSH2 0x118 PUSH2 0x4FC JUMP JUMPDEST PUSH1 0x40 MLOAD DUP1 DUP3 DUP2 MSTORE PUSH1 0x20 ADD SWAP2 POP POP PUSH1 0x40 MLOAD DUP1 SWAP2 SUB SWAP1 RETURN JUMPDEST PUSH2 0x136 PUSH2 0x520 JUMP JUMPDEST STOP JUMPDEST PUSH2 0x17A PUSH1 0x4 DUP1 CALLDATASIZE SUB PUSH1 0x20 DUP2 LT ISZERO PUSH2 0x14E JUMPI PUSH1 0x0 DUP1 REVERT JUMPDEST DUP2 ADD SWAP1 DUP1 DUP1 CALLDATALOAD PUSH20 0xFFFFFFFFFFFFFFFFFFFFFFFFFFFFFFFFFFFFFFFF AND SWAP1 PUSH1 0x20 ADD SWAP1 SWAP3 SWAP2 SWAP1 POP POP POP PUSH2 0x534 JUMP JUMPDEST PUSH1 0x40 MLOAD DUP1 DUP3 DUP2 MSTORE PUSH1 0x20 ADD SWAP2 POP POP PUSH1 0x40 MLOAD DUP1 SWAP2 SUB SWAP1 RETURN JUMPDEST PUSH2 0x1D2 PUSH1 0x4 DUP1 CALLDATASIZE SUB PUSH1 0x20 DUP2 LT ISZERO PUSH2 0x1A6 JUMPI PUSH1 0x0 DUP1 REVERT JUMPDEST DUP2 ADD SWAP1 DUP1 DUP1 CALLDATALOAD PUSH20 0xFFFFFFFFFFFFFFFFFFFFFFFFFFFFFFFFFFFFFFFF AND SWAP1 PUSH1 0x20 ADD SWAP1 SWAP3 SWAP2 SWAP1 POP POP POP PUSH2 0x54C JUMP JUMPDEST PUSH1 0x40 MLOAD DUP1 DUP3 DUP2 MSTORE PUSH1 0x20 ADD SWAP2 POP POP PUSH1 0x40 MLOAD DUP1 SWAP2 SUB SWAP1 RETURN JUMPDEST PUSH2 0x214 PUSH1 0x4 DUP1 CALLDATASIZE SUB PUSH1 0x20 DUP2 LT ISZERO PUSH2 0x1FE JUMPI PUSH1 0x0 DUP1 REVERT JUMPDEST DUP2 ADD SWAP1 DUP1 DUP1 CALLDATALOAD SWAP1 PUSH1 0x20 ADD SWAP1 SWAP3 SWAP2 SWAP1 POP POP POP PUSH2 0x564 JUMP JUMPDEST PUSH1 0x40 MLOAD DUP1 DUP3 ISZERO ISZERO DUP2 MSTORE PUSH1 0x20 ADD SWAP2 POP POP PUSH1 0x40 MLOAD DUP1 SWAP2 SUB SWAP1 RETURN JUMPDEST PUSH2 0x234 PUSH2 0xBDD JUMP JUMPDEST PUSH1 0x40 MLOAD DUP1 DUP3 DUP2 MSTORE PUSH1 0x20 ADD SWAP2 POP POP PUSH1 0x40 MLOAD DUP1 SWAP2 SUB SWAP1 RETURN JUMPDEST PUSH2 0x252 PUSH2 0xBE5 JUMP JUMPDEST PUSH1 0x40 MLOAD DUP1 DUP3 DUP2 MSTORE PUSH1 0x20 ADD SWAP2 POP POP PUSH1 0x40 MLOAD DUP1 SWAP2 SUB SWAP1 RETURN JUMPDEST PUSH2 0x2AA PUSH1 0x4 DUP1 CALLDATASIZE SUB PUSH1 0x20 DUP2 LT ISZERO PUSH2 0x27E JUMPI PUSH1 0x0 DUP1 REVERT JUMPDEST DUP2 ADD SWAP1 DUP1 DUP1 CALLDATALOAD PUSH20 0xFFFFFFFFFFFFFFFFFFFFFFFFFFFFFFFFFFFFFFFF AND SWAP1 PUSH1 0x20 ADD SWAP1 SWAP3 SWAP2 SWAP1 POP POP POP PUSH2 0xC09 JUMP JUMPDEST PUSH1 0x40 MLOAD DUP1 DUP3 DUP2 MSTORE PUSH1 0x20 ADD SWAP2 POP POP PUSH1 0x40 MLOAD DUP1 SWAP2 SUB SWAP1 RETURN JUMPDEST PUSH2 0x302 PUSH1 0x4 DUP1 CALLDATASIZE SUB PUSH1 0x20 DUP2 LT ISZERO PUSH2 0x2D6 JUMPI PUSH1 0x0 DUP1 REVERT JUMPDEST DUP2 ADD SWAP1 DUP1 DUP1 CALLDATALOAD PUSH20 0xFFFFFFFFFFFFFFFFFFFFFFFFFFFFFFFFFFFFFFFF AND SWAP1 PUSH1 0x20 ADD SWAP1 SWAP3 SWAP2 SWAP1 POP POP POP PUSH2 0xFA5 JUMP JUMPDEST PUSH1 0x40 MLOAD DUP1 DUP3 DUP2 MSTORE PUSH1 0x20 ADD SWAP2 POP POP PUSH1 0x40 MLOAD DUP1 SWAP2 SUB SWAP1 RETURN JUMPDEST PUSH2 0x320 PUSH2 0xFBD JUMP JUMPDEST PUSH1 0x40 MLOAD DUP1 DUP3 DUP2 MSTORE PUSH1 0x20 ADD SWAP2 POP POP PUSH1 0x40 MLOAD DUP1 SWAP2 SUB SWAP1 RETURN JUMPDEST PUSH2 0x378 PUSH1 0x4 DUP1 CALLDATASIZE SUB PUSH1 0x20 DUP2 LT ISZERO PUSH2 0x34C JUMPI PUSH1 0x0 DUP1 REVERT JUMPDEST DUP2 ADD SWAP1 DUP1 DUP1 CALLDATALOAD PUSH20 0xFFFFFFFFFFFFFFFFFFFFFFFFFFFFFFFFFFFFFFFF AND SWAP1 PUSH1 0x20 ADD SWAP1 SWAP3 SWAP2 SWAP1 POP POP POP PUSH2 0xFC2 JUMP JUMPDEST PUSH1 0x40 MLOAD DUP1 DUP3 DUP2 MSTORE PUSH1 0x20 ADD SWAP2 POP POP PUSH1 0x40 MLOAD DUP1 SWAP2 SUB SWAP1 RETURN JUMPDEST PUSH2 0x396 PUSH2 0xFDA JUMP JUMPDEST PUSH1 0x40 MLOAD DUP1 DUP3 PUSH20 0xFFFFFFFFFFFFFFFFFFFFFFFFFFFFFFFFFFFFFFFF AND DUP2 MSTORE PUSH1 0x20 ADD SWAP2 POP POP PUSH1 0x40 MLOAD DUP1 SWAP2 SUB SWAP1 RETURN JUMPDEST PUSH2 0x3CA PUSH2 0xFE7 JUMP JUMPDEST PUSH1 0x40 MLOAD DUP1 DUP3 PUSH20 0xFFFFFFFFFFFFFFFFFFFFFFFFFFFFFFFFFFFFFFFF AND DUP2 MSTORE PUSH1 0x20 ADD SWAP2 POP POP PUSH1 0x40 MLOAD DUP1 SWAP2 SUB SWAP1 RETURN JUMPDEST PUSH2 0x422 PUSH1 0x4 DUP1 CALLDATASIZE SUB PUSH1 0x20 DUP2 LT ISZERO PUSH2 0x40C JUMPI PUSH1 0x0 DUP1 REVERT JUMPDEST DUP2 ADD SWAP1 DUP1 DUP1 CALLDATALOAD SWAP1 PUSH1 0x20 ADD SWAP1 SWAP3 SWAP2 SWAP1 POP POP POP PUSH2 0x100B JUMP JUMPDEST PUSH1 0x40 MLOAD DUP1 DUP3 ISZERO ISZERO DUP2 MSTORE PUSH1 0x20 ADD SWAP2 POP POP PUSH1 0x40 MLOAD DUP1 SWAP2 SUB SWAP1 RETURN JUMPDEST PUSH2 0x442 PUSH2 0x14CC JUMP JUMPDEST PUSH1 0x40 MLOAD DUP1 DUP3 PUSH20 0xFFFFFFFFFFFFFFFFFFFFFFFFFFFFFFFFFFFFFFFF AND DUP2 MSTORE PUSH1 0x20 ADD SWAP2 POP POP PUSH1 0x40 MLOAD DUP1 SWAP2 SUB SWAP1 RETURN JUMPDEST PUSH2 0x476 PUSH2 0x14D4 JUMP JUMPDEST PUSH1 0x40 MLOAD DUP1 DUP3 PUSH20 0xFFFFFFFFFFFFFFFFFFFFFFFFFFFFFFFFFFFFFFFF AND DUP2 MSTORE PUSH1 0x20 ADD SWAP2 POP POP PUSH1 0x40 MLOAD DUP1 SWAP2 SUB SWAP1 RETURN JUMPDEST PUSH2 0x4E4 PUSH1 0x4 DUP1 CALLDATASIZE SUB PUSH1 0x20 DUP2 LT ISZERO PUSH2 0x4B8 JUMPI PUSH1 0x0 DUP1 REVERT JUMPDEST DUP2 ADD SWAP1 DUP1 DUP1 CALLDATALOAD PUSH20 0xFFFFFFFFFFFFFFFFFFFFFFFFFFFFFFFFFFFFFFFF AND SWAP1 PUSH1 0x20 ADD SWAP1 SWAP3 SWAP2 SWAP1 POP POP POP PUSH2 0x14FC JUMP JUMPDEST PUSH1 0x40 MLOAD DUP1 DUP3 ISZERO ISZERO DUP2 MSTORE PUSH1 0x20 ADD SWAP2 POP POP PUSH1 0x40 MLOAD DUP1 SWAP2 SUB SWAP1 RETURN JUMPDEST PUSH32 0x0 DUP2 JUMP JUMPDEST PUSH1 0x5 PUSH1 0x0 DUP2 SLOAD DUP1 SWAP3 SWAP2 SWAP1 PUSH1 0x1 ADD SWAP2 SWAP1 POP SSTORE POP JUMP JUMPDEST PUSH1 0x4 PUSH1 0x20 MSTORE DUP1 PUSH1 0x0 MSTORE PUSH1 0x40 PUSH1 0x0 KECCAK256 PUSH1 0x0 SWAP2 POP SWAP1 POP SLOAD DUP2 JUMP JUMPDEST PUSH1 0x2 PUSH1 0x20 MSTORE DUP1 PUSH1 0x0 MSTORE PUSH1 0x40 PUSH1 0x0 KECCAK256 PUSH1 0x0 SWAP2 POP SWAP1 POP SLOAD DUP2 JUMP JUMPDEST PUSH1 0x0 DUP1 DUP3 GT DUP1 ISZERO PUSH2 0x5B4 JUMPI POP DUP2 PUSH1 0x1 PUSH1 0x0 CALLER PUSH20 0xFFFFFFFFFFFFFFFFFFFFFFFFFFFFFFFFFFFFFFFF AND PUSH20 0xFFFFFFFFFFFFFFFFFFFFFFFFFFFFFFFFFFFFFFFF AND DUP2 MSTORE PUSH1 0x20 ADD SWAP1 DUP2 MSTORE PUSH1 0x20 ADD PUSH1 0x0 KECCAK256 SLOAD LT ISZERO JUMPDEST PUSH2 0x626 JUMPI PUSH1 0x40 MLOAD PUSH32 0x8C379A000000000000000000000000000000000000000000000000000000000 DUP2 MSTORE PUSH1 0x4 ADD DUP1 DUP1 PUSH1 0x20 ADD DUP3 DUP2 SUB DUP3 MSTORE PUSH1 0x9 DUP2 MSTORE PUSH1 0x20 ADD DUP1 PUSH32 0x63616E206E6F7420300000000000000000000000000000000000000000000000 DUP2 MSTORE POP PUSH1 0x20 ADD SWAP2 POP POP PUSH1 0x40 MLOAD DUP1 SWAP2 SUB SWAP1 REVERT JUMPDEST PUSH2 0x758 PUSH1 0x3 PUSH1 0x0 CALLER PUSH20 0xFFFFFFFFFFFFFFFFFFFFFFFFFFFFFFFFFFFFFFFF AND PUSH20 0xFFFFFFFFFFFFFFFFFFFFFFFFFFFFFFFFFFFFFFFF AND DUP2 MSTORE PUSH1 0x20 ADD SWAP1 DUP2 MSTORE PUSH1 0x20 ADD PUSH1 0x0 KECCAK256 SLOAD PUSH2 0x753 PUSH2 0x74C PUSH2 0x707 PUSH2 0x67A PUSH2 0xBDD JUMP JUMPDEST PUSH2 0x702 PUSH1 0x2 PUSH1 0x0 CALLER PUSH20 0xFFFFFFFFFFFFFFFFFFFFFFFFFFFFFFFFFFFFFFFF AND PUSH20 0xFFFFFFFFFFFFFFFFFFFFFFFFFFFFFFFFFFFFFFFF AND DUP2 MSTORE PUSH1 0x20 ADD SWAP1 DUP2 MSTORE PUSH1 0x20 ADD PUSH1 0x0 KECCAK256 SLOAD PUSH1 0x1 PUSH1 0x0 CALLER PUSH20 0xFFFFFFFFFFFFFFFFFFFFFFFFFFFFFFFFFFFFFFFF AND PUSH20 0xFFFFFFFFFFFFFFFFFFFFFFFFFFFFFFFFFFFFFFFF AND DUP2 MSTORE PUSH1 0x20 ADD SWAP1 DUP2 MSTORE PUSH1 0x20 ADD PUSH1 0x0 KECCAK256 SLOAD PUSH2 0x1831 JUMP JUMPDEST PUSH2 0x187B JUMP JUMPDEST PUSH1 0x1 PUSH1 0x0 CALLER PUSH20 0xFFFFFFFFFFFFFFFFFFFFFFFFFFFFFFFFFFFFFFFF AND PUSH20 0xFFFFFFFFFFFFFFFFFFFFFFFFFFFFFFFFFFFFFFFF AND DUP2 MSTORE PUSH1 0x20 ADD SWAP1 DUP2 MSTORE PUSH1 0x20 ADD PUSH1 0x0 KECCAK256 SLOAD PUSH2 0x18C5 JUMP JUMPDEST PUSH1 0x5 PUSH2 0x1831 JUMP JUMPDEST PUSH2 0x194B JUMP JUMPDEST PUSH1 0x3 PUSH1 0x0 CALLER PUSH20 0xFFFFFFFFFFFFFFFFFFFFFFFFFFFFFFFFFFFFFFFF AND PUSH20 0xFFFFFFFFFFFFFFFFFFFFFFFFFFFFFFFFFFFFFFFF AND DUP2 MSTORE PUSH1 0x20 ADD SWAP1 DUP2 MSTORE PUSH1 0x20 ADD PUSH1 0x0 KECCAK256 DUP2 SWAP1 SSTORE POP PUSH1 0x3 PUSH1 0x0 CALLER PUSH20 0xFFFFFFFFFFFFFFFFFFFFFFFFFFFFFFFFFFFFFFFF AND PUSH20 0xFFFFFFFFFFFFFFFFFFFFFFFFFFFFFFFFFFFFFFFF AND DUP2 MSTORE PUSH1 0x20 ADD SWAP1 DUP2 MSTORE PUSH1 0x20 ADD PUSH1 0x0 KECCAK256 SLOAD PUSH1 0x4 PUSH1 0x0 CALLER PUSH20 0xFFFFFFFFFFFFFFFFFFFFFFFFFFFFFFFFFFFFFFFF AND PUSH20 0xFFFFFFFFFFFFFFFFFFFFFFFFFFFFFFFFFFFFFFFF AND DUP2 MSTORE PUSH1 0x20 ADD SWAP1 DUP2 MSTORE PUSH1 0x20 ADD PUSH1 0x0 KECCAK256 DUP2 SWAP1 SSTORE POP DUP2 PUSH1 0x1 PUSH1 0x0 CALLER PUSH20 0xFFFFFFFFFFFFFFFFFFFFFFFFFFFFFFFFFFFFFFFF AND PUSH20 0xFFFFFFFFFFFFFFFFFFFFFFFFFFFFFFFFFFFFFFFF AND DUP2 MSTORE PUSH1 0x20 ADD SWAP1 DUP2 MSTORE PUSH1 0x20 ADD PUSH1 0x0 KECCAK256 SLOAD LT ISZERO PUSH2 0x8D3 JUMPI PUSH1 0x40 MLOAD PUSH32 0x8C379A000000000000000000000000000000000000000000000000000000000 DUP2 MSTORE PUSH1 0x4 ADD DUP1 DUP1 PUSH1 0x20 ADD DUP3 DUP2 SUB DUP3 MSTORE PUSH1 0x15 DUP2 MSTORE PUSH1 0x20 ADD DUP1 PUSH32 0x6E6F206D6F72652070656E64696E675265776172640000000000000000000000 DUP2 MSTORE POP PUSH1 0x20 ADD SWAP2 POP POP PUSH1 0x40 MLOAD DUP1 SWAP2 SUB SWAP1 REVERT JUMPDEST PUSH1 0x0 DUP1 SLOAD SWAP1 PUSH2 0x100 EXP SWAP1 DIV PUSH20 0xFFFFFFFFFFFFFFFFFFFFFFFFFFFFFFFFFFFFFFFF AND PUSH20 0xFFFFFFFFFFFFFFFFFFFFFFFFFFFFFFFFFFFFFFFF AND PUSH4 0x23B872DD CALLER ADDRESS DUP6 PUSH1 0x40 MLOAD DUP5 PUSH4 0xFFFFFFFF AND PUSH1 0xE0 SHL DUP2 MSTORE PUSH1 0x4 ADD DUP1 DUP5 PUSH20 0xFFFFFFFFFFFFFFFFFFFFFFFFFFFFFFFFFFFFFFFF AND DUP2 MSTORE PUSH1 0x20 ADD DUP4 PUSH20 0xFFFFFFFFFFFFFFFFFFFFFFFFFFFFFFFFFFFFFFFF AND DUP2 MSTORE PUSH1 0x20 ADD DUP3 DUP2 MSTORE PUSH1 0x20 ADD SWAP4 POP POP POP POP PUSH1 0x20 PUSH1 0x40 MLOAD DUP1 DUP4 SUB DUP2 PUSH1 0x0 DUP8 DUP1 EXTCODESIZE ISZERO DUP1 ISZERO PUSH2 0x982 JUMPI PUSH1 0x0 DUP1 REVERT JUMPDEST POP GAS CALL ISZERO DUP1 ISZERO PUSH2 0x996 JUMPI RETURNDATASIZE PUSH1 0x0 DUP1 RETURNDATACOPY RETURNDATASIZE PUSH1 0x0 REVERT JUMPDEST POP POP POP POP PUSH1 0x40 MLOAD RETURNDATASIZE PUSH1 0x20 DUP2 LT ISZERO PUSH2 0x9AC JUMPI PUSH1 0x0 DUP1 REVERT JUMPDEST DUP2 ADD SWAP1 DUP1 DUP1 MLOAD SWAP1 PUSH1 0x20 ADD SWAP1 SWAP3 SWAP2 SWAP1 POP POP POP POP PUSH1 0x0 DUP1 SLOAD SWAP1 PUSH2 0x100 EXP SWAP1 DIV PUSH20 0xFFFFFFFFFFFFFFFFFFFFFFFFFFFFFFFFFFFFFFFF AND PUSH20 0xFFFFFFFFFFFFFFFFFFFFFFFFFFFFFFFFFFFFFFFF AND PUSH4 0x205C2878 CALLER DUP5 PUSH1 0x40 MLOAD DUP4 PUSH4 0xFFFFFFFF AND PUSH1 0xE0 SHL DUP2 MSTORE PUSH1 0x4 ADD DUP1 DUP4 PUSH20 0xFFFFFFFFFFFFFFFFFFFFFFFFFFFFFFFFFFFFFFFF AND DUP2 MSTORE PUSH1 0x20 ADD DUP3 DUP2 MSTORE PUSH1 0x20 ADD SWAP3 POP POP POP PUSH1 0x0 PUSH1 0x40 MLOAD DUP1 DUP4 SUB DUP2 PUSH1 0x0 DUP8 DUP1 EXTCODESIZE ISZERO DUP1 ISZERO PUSH2 0xA4F JUMPI PUSH1 0x0 DUP1 REVERT JUMPDEST POP GAS CALL ISZERO DUP1 ISZERO PUSH2 0xA63 JUMPI RETURNDATASIZE PUSH1 0x0 DUP1 RETURNDATACOPY RETURNDATASIZE PUSH1 0x0 REVERT JUMPDEST POP POP POP POP PUSH2 0xAB0 PUSH1 0x1 PUSH1 0x0 CALLER PUSH20 0xFFFFFFFFFFFFFFFFFFFFFFFFFFFFFFFFFFFFFFFF AND PUSH20 0xFFFFFFFFFFFFFFFFFFFFFFFFFFFFFFFFFFFFFFFF AND DUP2 MSTORE PUSH1 0x20 ADD SWAP1 DUP2 MSTORE PUSH1 0x20 ADD PUSH1 0x0 KECCAK256 SLOAD DUP4 PUSH2 0x187B JUMP JUMPDEST PUSH1 0x1 PUSH1 0x0 CALLER PUSH20 0xFFFFFFFFFFFFFFFFFFFFFFFFFFFFFFFFFFFFFFFF AND PUSH20 0xFFFFFFFFFFFFFFFFFFFFFFFFFFFFFFFFFFFFFFFF AND DUP2 MSTORE PUSH1 0x20 ADD SWAP1 DUP2 MSTORE PUSH1 0x20 ADD PUSH1 0x0 KECCAK256 DUP2 SWAP1 SSTORE POP PUSH2 0xB43 PUSH2 0xAFE PUSH2 0xBDD JUMP JUMPDEST PUSH1 0x1 PUSH1 0x0 CALLER PUSH20 0xFFFFFFFFFFFFFFFFFFFFFFFFFFFFFFFFFFFFFFFF AND PUSH20 0xFFFFFFFFFFFFFFFFFFFFFFFFFFFFFFFFFFFFFFFF AND DUP2 MSTORE PUSH1 0x20 ADD SWAP1 DUP2 MSTORE PUSH1 0x20 ADD PUSH1 0x0 KECCAK256 SLOAD PUSH2 0x18C5 JUMP JUMPDEST PUSH1 0x2 PUSH1 0x0 CALLER PUSH20 0xFFFFFFFFFFFFFFFFFFFFFFFFFFFFFFFFFFFFFFFF AND PUSH20 0xFFFFFFFFFFFFFFFFFFFFFFFFFFFFFFFFFFFFFFFF AND DUP2 MSTORE PUSH1 0x20 ADD SWAP1 DUP2 MSTORE PUSH1 0x20 ADD PUSH1 0x0 KECCAK256 DUP2 SWAP1 SSTORE POP CALLER PUSH20 0xFFFFFFFFFFFFFFFFFFFFFFFFFFFFFFFFFFFFFFFF AND PUSH32 0x884EDAD9CE6FA2440D8A54CC123490EB96D2768479D49FF9C7366125A9424364 DUP4 PUSH1 0x40 MLOAD DUP1 DUP3 DUP2 MSTORE PUSH1 0x20 ADD SWAP2 POP POP PUSH1 0x40 MLOAD DUP1 SWAP2 SUB SWAP1 LOG2 PUSH1 0x1 SWAP1 POP SWAP2 SWAP1 POP JUMP JUMPDEST PUSH1 0x0 NUMBER SWAP1 POP SWAP1 JUMP JUMPDEST PUSH32 0x0 DUP2 JUMP JUMPDEST PUSH1 0x0 DUP1 PUSH1 0x1 PUSH1 0x0 CALLER PUSH20 0xFFFFFFFFFFFFFFFFFFFFFFFFFFFFFFFFFFFFFFFF AND PUSH20 0xFFFFFFFFFFFFFFFFFFFFFFFFFFFFFFFFFFFFFFFF AND DUP2 MSTORE PUSH1 0x20 ADD SWAP1 DUP2 MSTORE PUSH1 0x20 ADD PUSH1 0x0 KECCAK256 SLOAD EQ ISZERO PUSH2 0xC5B JUMPI PUSH1 0x0 SWAP1 POP PUSH2 0xFA0 JUMP JUMPDEST PUSH32 0x0 PUSH2 0xC84 PUSH2 0xBDD JUMP JUMPDEST GT PUSH2 0xE0A JUMPI PUSH2 0xE03 PUSH2 0xDBE PUSH1 0x3 PUSH1 0x0 DUP6 PUSH20 0xFFFFFFFFFFFFFFFFFFFFFFFFFFFFFFFFFFFFFFFF AND PUSH20 0xFFFFFFFFFFFFFFFFFFFFFFFFFFFFFFFFFFFFFFFF AND DUP2 MSTORE PUSH1 0x20 ADD SWAP1 DUP2 MSTORE PUSH1 0x20 ADD PUSH1 0x0 KECCAK256 SLOAD PUSH2 0xDB9 PUSH2 0xDB2 PUSH2 0xD6D PUSH2 0xCE0 PUSH2 0xBDD JUMP JUMPDEST PUSH2 0xD68 PUSH1 0x2 PUSH1 0x0 DUP12 PUSH20 0xFFFFFFFFFFFFFFFFFFFFFFFFFFFFFFFFFFFFFFFF AND PUSH20 0xFFFFFFFFFFFFFFFFFFFFFFFFFFFFFFFFFFFFFFFF AND DUP2 MSTORE PUSH1 0x20 ADD SWAP1 DUP2 MSTORE PUSH1 0x20 ADD PUSH1 0x0 KECCAK256 SLOAD PUSH1 0x1 PUSH1 0x0 DUP13 PUSH20 0xFFFFFFFFFFFFFFFFFFFFFFFFFFFFFFFFFFFFFFFF AND PUSH20 0xFFFFFFFFFFFFFFFFFFFFFFFFFFFFFFFFFFFFFFFF AND DUP2 MSTORE PUSH1 0x20 ADD SWAP1 DUP2 MSTORE PUSH1 0x20 ADD PUSH1 0x0 KECCAK256 SLOAD PUSH2 0x1831 JUMP JUMPDEST PUSH2 0x187B JUMP JUMPDEST PUSH1 0x1 PUSH1 0x0 DUP10 PUSH20 0xFFFFFFFFFFFFFFFFFFFFFFFFFFFFFFFFFFFFFFFF AND PUSH20 0xFFFFFFFFFFFFFFFFFFFFFFFFFFFFFFFFFFFFFFFF AND DUP2 MSTORE PUSH1 0x20 ADD SWAP1 DUP2 MSTORE PUSH1 0x20 ADD PUSH1 0x0 KECCAK256 SLOAD PUSH2 0x18C5 JUMP JUMPDEST PUSH1 0x5 PUSH2 0x1831 JUMP JUMPDEST PUSH2 0x194B JUMP JUMPDEST PUSH1 0x4 PUSH1 0x0 DUP6 PUSH20 0xFFFFFFFFFFFFFFFFFFFFFFFFFFFFFFFFFFFFFFFF AND PUSH20 0xFFFFFFFFFFFFFFFFFFFFFFFFFFFFFFFFFFFFFFFF AND DUP2 MSTORE PUSH1 0x20 ADD SWAP1 DUP2 MSTORE PUSH1 0x20 ADD PUSH1 0x0 KECCAK256 SLOAD PUSH2 0x187B JUMP JUMPDEST SWAP1 POP PUSH2 0xFA0 JUMP JUMPDEST PUSH2 0xF9D PUSH2 0xF58 PUSH1 0x3 PUSH1 0x0 DUP6 PUSH20 0xFFFFFFFFFFFFFFFFFFFFFFFFFFFFFFFFFFFFFFFF AND PUSH20 0xFFFFFFFFFFFFFFFFFFFFFFFFFFFFFFFFFFFFFFFF AND DUP2 MSTORE PUSH1 0x20 ADD SWAP1 DUP2 MSTORE PUSH1 0x20 ADD PUSH1 0x0 KECCAK256 SLOAD PUSH2 0xF53 PUSH2 0xF4C PUSH2 0xF07 PUSH32 0x0 PUSH2 0xF02 PUSH1 0x2 PUSH1 0x0 DUP12 PUSH20 0xFFFFFFFFFFFFFFFFFFFFFFFFFFFFFFFFFFFFFFFF AND PUSH20 0xFFFFFFFFFFFFFFFFFFFFFFFFFFFFFFFFFFFFFFFF AND DUP2 MSTORE PUSH1 0x20 ADD SWAP1 DUP2 MSTORE PUSH1 0x20 ADD PUSH1 0x0 KECCAK256 SLOAD PUSH1 0x1 PUSH1 0x0 DUP13 PUSH20 0xFFFFFFFFFFFFFFFFFFFFFFFFFFFFFFFFFFFFFFFF AND PUSH20 0xFFFFFFFFFFFFFFFFFFFFFFFFFFFFFFFFFFFFFFFF AND DUP2 MSTORE PUSH1 0x20 ADD SWAP1 DUP2 MSTORE PUSH1 0x20 ADD PUSH1 0x0 KECCAK256 SLOAD PUSH2 0x1831 JUMP JUMPDEST PUSH2 0x187B JUMP JUMPDEST PUSH1 0x1 PUSH1 0x0 DUP10 PUSH20 0xFFFFFFFFFFFFFFFFFFFFFFFFFFFFFFFFFFFFFFFF AND PUSH20 0xFFFFFFFFFFFFFFFFFFFFFFFFFFFFFFFFFFFFFFFF AND DUP2 MSTORE PUSH1 0x20 ADD SWAP1 DUP2 MSTORE PUSH1 0x20 ADD PUSH1 0x0 KECCAK256 SLOAD PUSH2 0x18C5 JUMP JUMPDEST PUSH1 0x5 PUSH2 0x1831 JUMP JUMPDEST PUSH2 0x194B JUMP JUMPDEST PUSH1 0x4 PUSH1 0x0 DUP6 PUSH20 0xFFFFFFFFFFFFFFFFFFFFFFFFFFFFFFFFFFFFFFFF AND PUSH20 0xFFFFFFFFFFFFFFFFFFFFFFFFFFFFFFFFFFFFFFFF AND DUP2 MSTORE PUSH1 0x20 ADD SWAP1 DUP2 MSTORE PUSH1 0x20 ADD PUSH1 0x0 KECCAK256 SLOAD PUSH2 0x187B JUMP JUMPDEST SWAP1 POP JUMPDEST SWAP2 SWAP1 POP JUMP JUMPDEST PUSH1 0x1 PUSH1 0x20 MSTORE DUP1 PUSH1 0x0 MSTORE PUSH1 0x40 PUSH1 0x0 KECCAK256 PUSH1 0x0 SWAP2 POP SWAP1 POP SLOAD DUP2 JUMP JUMPDEST PUSH1 0x5 DUP2 JUMP JUMPDEST PUSH1 0x3 PUSH1 0x20 MSTORE DUP1 PUSH1 0x0 MSTORE PUSH1 0x40 PUSH1 0x0 KECCAK256 PUSH1 0x0 SWAP2 POP SWAP1 POP SLOAD DUP2 JUMP JUMPDEST PUSH1 0x0 DUP1 CALLER SWAP1 POP DUP1 SWAP2 POP POP SWAP1 JUMP JUMPDEST PUSH32 0x0 DUP2 JUMP JUMPDEST PUSH1 0x0 PUSH32 0x0 PUSH2 0x1036 PUSH2 0xBDD JUMP JUMPDEST GT ISZERO DUP1 ISZERO PUSH2 0x106B JUMPI POP PUSH32 0x0 PUSH2 0x1068 PUSH2 0xBDD JUMP JUMPDEST LT ISZERO JUMPDEST PUSH2 0x1074 JUMPI PUSH1 0x0 DUP1 REVERT JUMPDEST PUSH1 0x0 PUSH1 0x1 PUSH1 0x0 CALLER PUSH20 0xFFFFFFFFFFFFFFFFFFFFFFFFFFFFFFFFFFFFFFFF AND PUSH20 0xFFFFFFFFFFFFFFFFFFFFFFFFFFFFFFFFFFFFFFFF AND DUP2 MSTORE PUSH1 0x20 ADD SWAP1 DUP2 MSTORE PUSH1 0x20 ADD PUSH1 0x0 KECCAK256 SLOAD EQ ISZERO PUSH2 0x11E0 JUMPI PUSH2 0x1105 PUSH1 0x1 PUSH1 0x0 CALLER PUSH20 0xFFFFFFFFFFFFFFFFFFFFFFFFFFFFFFFFFFFFFFFF AND PUSH20 0xFFFFFFFFFFFFFFFFFFFFFFFFFFFFFFFFFFFFFFFF AND DUP2 MSTORE PUSH1 0x20 ADD SWAP1 DUP2 MSTORE PUSH1 0x20 ADD PUSH1 0x0 KECCAK256 SLOAD DUP4 PUSH2 0x194B JUMP JUMPDEST PUSH1 0x1 PUSH1 0x0 CALLER PUSH20 0xFFFFFFFFFFFFFFFFFFFFFFFFFFFFFFFFFFFFFFFF AND PUSH20 0xFFFFFFFFFFFFFFFFFFFFFFFFFFFFFFFFFFFFFFFF AND DUP2 MSTORE PUSH1 0x20 ADD SWAP1 DUP2 MSTORE PUSH1 0x20 ADD PUSH1 0x0 KECCAK256 DUP2 SWAP1 SSTORE POP PUSH2 0x1198 PUSH1 0x1 PUSH1 0x0 CALLER PUSH20 0xFFFFFFFFFFFFFFFFFFFFFFFFFFFFFFFFFFFFFFFF AND PUSH20 0xFFFFFFFFFFFFFFFFFFFFFFFFFFFFFFFFFFFFFFFF AND DUP2 MSTORE PUSH1 0x20 ADD SWAP1 DUP2 MSTORE PUSH1 0x20 ADD PUSH1 0x0 KECCAK256 SLOAD PUSH2 0x1193 PUSH2 0xBDD JUMP JUMPDEST PUSH2 0x18C5 JUMP JUMPDEST PUSH1 0x2 PUSH1 0x0 CALLER PUSH20 0xFFFFFFFFFFFFFFFFFFFFFFFFFFFFFFFFFFFFFFFF AND PUSH20 0xFFFFFFFFFFFFFFFFFFFFFFFFFFFFFFFFFFFFFFFF AND DUP2 MSTORE PUSH1 0x20 ADD SWAP1 DUP2 MSTORE PUSH1 0x20 ADD PUSH1 0x0 KECCAK256 DUP2 SWAP1 SSTORE POP PUSH2 0x1475 JUMP JUMPDEST PUSH2 0x1312 PUSH1 0x3 PUSH1 0x0 CALLER PUSH20 0xFFFFFFFFFFFFFFFFFFFFFFFFFFFFFFFFFFFFFFFF AND PUSH20 0xFFFFFFFFFFFFFFFFFFFFFFFFFFFFFFFFFFFFFFFF AND DUP2 MSTORE PUSH1 0x20 ADD SWAP1 DUP2 MSTORE PUSH1 0x20 ADD PUSH1 0x0 KECCAK256 SLOAD PUSH2 0x130D PUSH2 0x1306 PUSH2 0x12C1 PUSH2 0x1234 PUSH2 0xBDD JUMP JUMPDEST PUSH2 0x12BC PUSH1 0x2 PUSH1 0x0 CALLER PUSH20 0xFFFFFFFFFFFFFFFFFFFFFFFFFFFFFFFFFFFFFFFF AND PUSH20 0xFFFFFFFFFFFFFFFFFFFFFFFFFFFFFFFFFFFFFFFF AND DUP2 MSTORE PUSH1 0x20 ADD SWAP1 DUP2 MSTORE PUSH1 0x20 ADD PUSH1 0x0 KECCAK256 SLOAD PUSH1 0x1 PUSH1 0x0 CALLER PUSH20 0xFFFFFFFFFFFFFFFFFFFFFFFFFFFFFFFFFFFFFFFF AND PUSH20 0xFFFFFFFFFFFFFFFFFFFFFFFFFFFFFFFFFFFFFFFF AND DUP2 MSTORE PUSH1 0x20 ADD SWAP1 DUP2 MSTORE PUSH1 0x20 ADD PUSH1 0x0 KECCAK256 SLOAD PUSH2 0x1831 JUMP JUMPDEST PUSH2 0x187B JUMP JUMPDEST PUSH1 0x1 PUSH1 0x0 CALLER PUSH20 0xFFFFFFFFFFFFFFFFFFFFFFFFFFFFFFFFFFFFFFFF AND PUSH20 0xFFFFFFFFFFFFFFFFFFFFFFFFFFFFFFFFFFFFFFFF AND DUP2 MSTORE PUSH1 0x20 ADD SWAP1 DUP2 MSTORE PUSH1 0x20 ADD PUSH1 0x0 KECCAK256 SLOAD PUSH2 0x18C5 JUMP JUMPDEST PUSH1 0x5 PUSH2 0x1831 JUMP JUMPDEST PUSH2 0x194B JUMP JUMPDEST PUSH1 0x3 PUSH1 0x0 CALLER PUSH20 0xFFFFFFFFFFFFFFFFFFFFFFFFFFFFFFFFFFFFFFFF AND PUSH20 0xFFFFFFFFFFFFFFFFFFFFFFFFFFFFFFFFFFFFFFFF AND DUP2 MSTORE PUSH1 0x20 ADD SWAP1 DUP2 MSTORE PUSH1 0x20 ADD PUSH1 0x0 KECCAK256 DUP2 SWAP1 SSTORE POP PUSH2 0x139E PUSH1 0x1 PUSH1 0x0 CALLER PUSH20 0xFFFFFFFFFFFFFFFFFFFFFFFFFFFFFFFFFFFFFFFF AND PUSH20 0xFFFFFFFFFFFFFFFFFFFFFFFFFFFFFFFFFFFFFFFF AND DUP2 MSTORE PUSH1 0x20 ADD SWAP1 DUP2 MSTORE PUSH1 0x20 ADD PUSH1 0x0 KECCAK256 SLOAD DUP4 PUSH2 0x194B JUMP JUMPDEST PUSH1 0x1 PUSH1 0x0 CALLER PUSH20 0xFFFFFFFFFFFFFFFFFFFFFFFFFFFFFFFFFFFFFFFF AND PUSH20 0xFFFFFFFFFFFFFFFFFFFFFFFFFFFFFFFFFFFFFFFF AND DUP2 MSTORE PUSH1 0x20 ADD SWAP1 DUP2 MSTORE PUSH1 0x20 ADD PUSH1 0x0 KECCAK256 DUP2 SWAP1 SSTORE POP PUSH2 0x1431 PUSH1 0x1 PUSH1 0x0 CALLER PUSH20 0xFFFFFFFFFFFFFFFFFFFFFFFFFFFFFFFFFFFFFFFF AND PUSH20 0xFFFFFFFFFFFFFFFFFFFFFFFFFFFFFFFFFFFFFFFF AND DUP2 MSTORE PUSH1 0x20 ADD SWAP1 DUP2 MSTORE PUSH1 0x20 ADD PUSH1 0x0 KECCAK256 SLOAD PUSH2 0x142C PUSH2 0xBDD JUMP JUMPDEST PUSH2 0x18C5 JUMP JUMPDEST PUSH1 0x2 PUSH1 0x0 CALLER PUSH20 0xFFFFFFFFFFFFFFFFFFFFFFFFFFFFFFFFFFFFFFFF AND PUSH20 0xFFFFFFFFFFFFFFFFFFFFFFFFFFFFFFFFFFFFFFFF AND DUP2 MSTORE PUSH1 0x20 ADD SWAP1 DUP2 MSTORE PUSH1 0x20 ADD PUSH1 0x0 KECCAK256 DUP2 SWAP1 SSTORE POP JUMPDEST CALLER PUSH20 0xFFFFFFFFFFFFFFFFFFFFFFFFFFFFFFFFFFFFFFFF AND PUSH32 0xE1FFFCC4923D04B559F4D29A8BFC6CDA04EB5B0D3C460751C2402C5C5CC9109C DUP4 PUSH1 0x40 MLOAD DUP1 DUP3 DUP2 MSTORE PUSH1 0x20 ADD SWAP2 POP POP PUSH1 0x40 MLOAD DUP1 SWAP2 SUB SWAP1 LOG2 PUSH1 0x1 SWAP1 POP SWAP2 SWAP1 POP JUMP JUMPDEST PUSH1 0x0 ADDRESS SWAP1 POP SWAP1 JUMP JUMPDEST PUSH1 0x0 PUSH32 0x0 SWAP1 POP SWAP1 JUMP JUMPDEST PUSH1 0x0 DUP1 PUSH2 0x1508 CALLER PUSH2 0xC09 JUMP JUMPDEST EQ ISZERO PUSH2 0x157C JUMPI PUSH1 0x40 MLOAD PUSH32 0x8C379A000000000000000000000000000000000000000000000000000000000 DUP2 MSTORE PUSH1 0x4 ADD DUP1 DUP1 PUSH1 0x20 ADD DUP3 DUP2 SUB DUP3 MSTORE PUSH1 0x10 DUP2 MSTORE PUSH1 0x20 ADD DUP1 PUSH32 0x6E6F2070656E64696E6752657761726400000000000000000000000000000000 DUP2 MSTORE POP PUSH1 0x20 ADD SWAP2 POP POP PUSH1 0x40 MLOAD DUP1 SWAP2 SUB SWAP1 REVERT JUMPDEST PUSH1 0x0 DUP1 SLOAD SWAP1 PUSH2 0x100 EXP SWAP1 DIV PUSH20 0xFFFFFFFFFFFFFFFFFFFFFFFFFFFFFFFFFFFFFFFF AND PUSH20 0xFFFFFFFFFFFFFFFFFFFFFFFFFFFFFFFFFFFFFFFF AND PUSH4 0x23B872DD CALLER ADDRESS PUSH2 0x15C3 CALLER PUSH2 0xC09 JUMP JUMPDEST PUSH1 0x40 MLOAD DUP5 PUSH4 0xFFFFFFFF AND PUSH1 0xE0 SHL DUP2 MSTORE PUSH1 0x4 ADD DUP1 DUP5 PUSH20 0xFFFFFFFFFFFFFFFFFFFFFFFFFFFFFFFFFFFFFFFF AND DUP2 MSTORE PUSH1 0x20 ADD DUP4 PUSH20 0xFFFFFFFFFFFFFFFFFFFFFFFFFFFFFFFFFFFFFFFF AND DUP2 MSTORE PUSH1 0x20 ADD DUP3 DUP2 MSTORE PUSH1 0x20 ADD SWAP4 POP POP POP POP PUSH1 0x20 PUSH1 0x40 MLOAD DUP1 DUP4 SUB DUP2 PUSH1 0x0 DUP8 DUP1 EXTCODESIZE ISZERO DUP1 ISZERO PUSH2 0x1633 JUMPI PUSH1 0x0 DUP1 REVERT JUMPDEST POP GAS CALL ISZERO DUP1 ISZERO PUSH2 0x1647 JUMPI RETURNDATASIZE PUSH1 0x0 DUP1 RETURNDATACOPY RETURNDATASIZE PUSH1 0x0 REVERT JUMPDEST POP POP POP POP PUSH1 0x40 MLOAD RETURNDATASIZE PUSH1 0x20 DUP2 LT ISZERO PUSH2 0x165D JUMPI PUSH1 0x0 DUP1 REVERT JUMPDEST DUP2 ADD SWAP1 DUP1 DUP1 MLOAD SWAP1 PUSH1 0x20 ADD SWAP1 SWAP3 SWAP2 SWAP1 POP POP POP POP PUSH1 0x0 DUP1 SLOAD SWAP1 PUSH2 0x100 EXP SWAP1 DIV PUSH20 0xFFFFFFFFFFFFFFFFFFFFFFFFFFFFFFFFFFFFFFFF AND PUSH20 0xFFFFFFFFFFFFFFFFFFFFFFFFFFFFFFFFFFFFFFFF AND PUSH4 0x205C2878 DUP4 PUSH2 0x16B5 CALLER PUSH2 0xC09 JUMP JUMPDEST PUSH1 0x40 MLOAD DUP4 PUSH4 0xFFFFFFFF AND PUSH1 0xE0 SHL DUP2 MSTORE PUSH1 0x4 ADD DUP1 DUP4 PUSH20 0xFFFFFFFFFFFFFFFFFFFFFFFFFFFFFFFFFFFFFFFF AND DUP2 MSTORE PUSH1 0x20 ADD DUP3 DUP2 MSTORE PUSH1 0x20 ADD SWAP3 POP POP POP PUSH1 0x0 PUSH1 0x40 MLOAD DUP1 DUP4 SUB DUP2 PUSH1 0x0 DUP8 DUP1 EXTCODESIZE ISZERO DUP1 ISZERO PUSH2 0x1708 JUMPI PUSH1 0x0 DUP1 REVERT JUMPDEST POP GAS CALL ISZERO DUP1 ISZERO PUSH2 0x171C JUMPI RETURNDATASIZE PUSH1 0x0 DUP1 RETURNDATACOPY RETURNDATASIZE PUSH1 0x0 REVERT JUMPDEST POP POP POP POP CALLER PUSH20 0xFFFFFFFFFFFFFFFFFFFFFFFFFFFFFFFFFFFFFFFF AND PUSH32 0x70EB43C4A8AE8C40502DCF22436C509C28D6FF421CF07C491BE56984BD987068 DUP4 PUSH2 0x1762 CALLER PUSH2 0xC09 JUMP JUMPDEST PUSH1 0x40 MLOAD DUP1 DUP4 PUSH20 0xFFFFFFFFFFFFFFFFFFFFFFFFFFFFFFFFFFFFFFFF AND DUP2 MSTORE PUSH1 0x20 ADD DUP3 DUP2 MSTORE PUSH1 0x20 ADD SWAP3 POP POP POP PUSH1 0x40 MLOAD DUP1 SWAP2 SUB SWAP1 LOG2 PUSH2 0x17E5 PUSH1 0x4 PUSH1 0x0 CALLER PUSH20 0xFFFFFFFFFFFFFFFFFFFFFFFFFFFFFFFFFFFFFFFF AND PUSH20 0xFFFFFFFFFFFFFFFFFFFFFFFFFFFFFFFFFFFFFFFF AND DUP2 MSTORE PUSH1 0x20 ADD SWAP1 DUP2 MSTORE PUSH1 0x20 ADD PUSH1 0x0 KECCAK256 SLOAD PUSH2 0x17E0 DUP5 PUSH2 0xC09 JUMP JUMPDEST PUSH2 0x194B JUMP JUMPDEST PUSH1 0x4 PUSH1 0x0 CALLER PUSH20 0xFFFFFFFFFFFFFFFFFFFFFFFFFFFFFFFFFFFFFFFF AND PUSH20 0xFFFFFFFFFFFFFFFFFFFFFFFFFFFFFFFFFFFFFFFF AND DUP2 MSTORE PUSH1 0x20 ADD SWAP1 DUP2 MSTORE PUSH1 0x20 ADD PUSH1 0x0 KECCAK256 DUP2 SWAP1 SSTORE POP PUSH1 0x1 SWAP1 POP SWAP2 SWAP1 POP JUMP JUMPDEST PUSH1 0x0 PUSH2 0x1873 DUP4 DUP4 PUSH1 0x40 MLOAD DUP1 PUSH1 0x40 ADD PUSH1 0x40 MSTORE DUP1 PUSH1 0x1A DUP2 MSTORE PUSH1 0x20 ADD PUSH32 0x536166654D6174683A206469766973696F6E206279207A65726F000000000000 DUP2 MSTORE POP PUSH2 0x19D3 JUMP JUMPDEST SWAP1 POP SWAP3 SWAP2 POP POP JUMP JUMPDEST PUSH1 0x0 PUSH2 0x18BD DUP4 DUP4 PUSH1 0x40 MLOAD DUP1 PUSH1 0x40 ADD PUSH1 0x40 MSTORE DUP1 PUSH1 0x1E DUP2 MSTORE PUSH1 0x20 ADD PUSH32 0x536166654D6174683A207375627472616374696F6E206F766572666C6F770000 DUP2 MSTORE POP PUSH2 0x1A99 JUMP JUMPDEST SWAP1 POP SWAP3 SWAP2 POP POP JUMP JUMPDEST PUSH1 0x0 DUP1 DUP4 EQ ISZERO PUSH2 0x18D8 JUMPI PUSH1 0x0 SWAP1 POP PUSH2 0x1945 JUMP JUMPDEST PUSH1 0x0 DUP3 DUP5 MUL SWAP1 POP DUP3 DUP5 DUP3 DUP2 PUSH2 0x18E9 JUMPI INVALID JUMPDEST DIV EQ PUSH2 0x1940 JUMPI PUSH1 0x40 MLOAD PUSH32 0x8C379A000000000000000000000000000000000000000000000000000000000 DUP2 MSTORE PUSH1 0x4 ADD DUP1 DUP1 PUSH1 0x20 ADD DUP3 DUP2 SUB DUP3 MSTORE PUSH1 0x21 DUP2 MSTORE PUSH1 0x20 ADD DUP1 PUSH2 0x1B5A PUSH1 0x21 SWAP2 CODECOPY PUSH1 0x40 ADD SWAP2 POP POP PUSH1 0x40 MLOAD DUP1 SWAP2 SUB SWAP1 REVERT JUMPDEST DUP1 SWAP2 POP POP JUMPDEST SWAP3 SWAP2 POP POP JUMP JUMPDEST PUSH1 0x0 DUP1 DUP3 DUP5 ADD SWAP1 POP DUP4 DUP2 LT ISZERO PUSH2 0x19C9 JUMPI PUSH1 0x40 MLOAD PUSH32 0x8C379A000000000000000000000000000000000000000000000000000000000 DUP2 MSTORE PUSH1 0x4 ADD DUP1 DUP1 PUSH1 0x20 ADD DUP3 DUP2 SUB DUP3 MSTORE PUSH1 0x1B DUP2 MSTORE PUSH1 0x20 ADD DUP1 PUSH32 0x536166654D6174683A206164646974696F6E206F766572666C6F770000000000 DUP2 MSTORE POP PUSH1 0x20 ADD SWAP2 POP POP PUSH1 0x40 MLOAD DUP1 SWAP2 SUB SWAP1 REVERT JUMPDEST DUP1 SWAP2 POP POP SWAP3 SWAP2 POP POP JUMP JUMPDEST PUSH1 0x0 DUP1 DUP4 GT DUP3 SWAP1 PUSH2 0x1A7F JUMPI PUSH1 0x40 MLOAD PUSH32 0x8C379A000000000000000000000000000000000000000000000000000000000 DUP2 MSTORE PUSH1 0x4 ADD DUP1 DUP1 PUSH1 0x20 ADD DUP3 DUP2 SUB DUP3 MSTORE DUP4 DUP2 DUP2 MLOAD DUP2 MSTORE PUSH1 0x20 ADD SWAP2 POP DUP1 MLOAD SWAP1 PUSH1 0x20 ADD SWAP1 DUP1 DUP4 DUP4 PUSH1 0x0 JUMPDEST DUP4 DUP2 LT ISZERO PUSH2 0x1A44 JUMPI DUP1 DUP3 ADD MLOAD DUP2 DUP5 ADD MSTORE PUSH1 0x20 DUP2 ADD SWAP1 POP PUSH2 0x1A29 JUMP JUMPDEST POP POP POP POP SWAP1 POP SWAP1 DUP2 ADD SWAP1 PUSH1 0x1F AND DUP1 ISZERO PUSH2 0x1A71 JUMPI DUP1 DUP3 SUB DUP1 MLOAD PUSH1 0x1 DUP4 PUSH1 0x20 SUB PUSH2 0x100 EXP SUB NOT AND DUP2 MSTORE PUSH1 0x20 ADD SWAP2 POP JUMPDEST POP SWAP3 POP POP POP PUSH1 0x40 MLOAD DUP1 SWAP2 SUB SWAP1 REVERT JUMPDEST POP PUSH1 0x0 DUP4 DUP6 DUP2 PUSH2 0x1A8B JUMPI INVALID JUMPDEST DIV SWAP1 POP DUP1 SWAP2 POP POP SWAP4 SWAP3 POP POP POP JUMP JUMPDEST PUSH1 0x0 DUP4 DUP4 GT ISZERO DUP3 SWAP1 PUSH2 0x1B46 JUMPI PUSH1 0x40 MLOAD PUSH32 0x8C379A000000000000000000000000000000000000000000000000000000000 DUP2 MSTORE PUSH1 0x4 ADD DUP1 DUP1 PUSH1 0x20 ADD DUP3 DUP2 SUB DUP3 MSTORE DUP4 DUP2 DUP2 MLOAD DUP2 MSTORE PUSH1 0x20 ADD SWAP2 POP DUP1 MLOAD SWAP1 PUSH1 0x20 ADD SWAP1 DUP1 DUP4 DUP4 PUSH1 0x0 JUMPDEST DUP4 DUP2 LT ISZERO PUSH2 0x1B0B JUMPI DUP1 DUP3 ADD MLOAD DUP2 DUP5 ADD MSTORE PUSH1 0x20 DUP2 ADD SWAP1 POP PUSH2 0x1AF0 JUMP JUMPDEST POP POP POP POP SWAP1 POP SWAP1 DUP2 ADD SWAP1 PUSH1 0x1F AND DUP1 ISZERO PUSH2 0x1B38 JUMPI DUP1 DUP3 SUB DUP1 MLOAD PUSH1 0x1 DUP4 PUSH1 0x20 SUB PUSH2 0x100 EXP SUB NOT AND DUP2 MSTORE PUSH1 0x20 ADD SWAP2 POP JUMPDEST POP SWAP3 POP POP POP PUSH1 0x40 MLOAD DUP1 SWAP2 SUB SWAP1 REVERT JUMPDEST POP PUSH1 0x0 DUP4 DUP6 SUB SWAP1 POP DUP1 SWAP2 POP POP SWAP4 SWAP3 POP POP POP JUMP INVALID MSTORE8 PUSH2 0x6665 0x4D PUSH2 0x7468 GASPRICE KECCAK256 PUSH14 0x756C7469706C69636174696F6E20 PUSH16 0x766572666C6F77A26469706673582212 KECCAK256 PUSH13 0xD09BB9EBE220FE441F10716A20 0xD3 SELFDESTRUCT PUSH2 0x81DF 0xCC 0xE7 0xA5 0xA6 SHL LOG3 0x28 0xF6 DUP7 PUSH6 0xF9658064736F PUSH13 0x63430007060033000000000000 "
				},
				"gasEstimates": {
					"creation": {
						"codeDepositCost": "1417600",
						"executionCost": "infinite",
						"totalCost": "infinite"
					},
					"external": {
						"_weth()": "infinite",
						"addBlockNumber()": "21027",
						"calculatedReward(address)": "1236",
						"checkPoint(address)": "1259",
						"claimReward(address)": "infinite",
						"claimedReward(address)": "1237",
						"deposit(uint256)": "infinite",
						"depositAmount(address)": "1192",
						"endBlock()": "infinite",
						"get()": "320",
						"getBlockNumber()": "257",
						"getPendingReward(address)": "infinite",
						"getThis()": "284",
						"getWETH()": "infinite",
						"rewardBase()": "250",
						"startBlock()": "infinite",
						"withdraw(uint256)": "infinite"
					}
				},
				"methodIdentifiers": {
					"_weth()": "a1764595",
					"addBlockNumber()": "19289218",
					"calculatedReward(address)": "6967519b",
					"checkPoint(address)": "28ba6cab",
					"claimReward(address)": "d279c191",
					"claimedReward(address)": "1e6f3d8a",
					"deposit(uint256)": "b6b55f25",
					"depositAmount(address)": "50f62da7",
					"endBlock()": "083c6323",
					"get()": "6d4ce63c",
					"getBlockNumber()": "42cbb15c",
					"getPendingReward(address)": "4df9d6ba",
					"getThis()": "b8368615",
					"getWETH()": "cae5f11e",
					"rewardBase()": "562dead2",
					"startBlock()": "48cd4cb1",
					"withdraw(uint256)": "2e1a7d4d"
				}
			},
			"storageLayout": {
				"storage": [
					{
						"astId": 8,
						"contract": "shijian/4/Deposit_start.sol:DepositContract",
						"label": "we",
						"offset": 0,
						"slot": "0",
						"type": "t_contract(WETH)1065"
					},
					{
						"astId": 21,
						"contract": "shijian/4/Deposit_start.sol:DepositContract",
						"label": "depositAmount",
						"offset": 0,
						"slot": "1",
						"type": "t_mapping(t_address,t_uint256)"
					},
					{
						"astId": 25,
						"contract": "shijian/4/Deposit_start.sol:DepositContract",
						"label": "checkPoint",
						"offset": 0,
						"slot": "2",
						"type": "t_mapping(t_address,t_uint256)"
					},
					{
						"astId": 29,
						"contract": "shijian/4/Deposit_start.sol:DepositContract",
						"label": "calculatedReward",
						"offset": 0,
						"slot": "3",
						"type": "t_mapping(t_address,t_uint256)"
					},
					{
						"astId": 33,
						"contract": "shijian/4/Deposit_start.sol:DepositContract",
						"label": "claimedReward",
						"offset": 0,
						"slot": "4",
						"type": "t_mapping(t_address,t_uint256)"
					},
					{
						"astId": 568,
						"contract": "shijian/4/Deposit_start.sol:DepositContract",
						"label": "counter",
						"offset": 0,
						"slot": "5",
						"type": "t_uint256"
					}
				],
				"types": {
					"t_address": {
						"encoding": "inplace",
						"label": "address",
						"numberOfBytes": "20"
					},
					"t_contract(WETH)1065": {
						"encoding": "inplace",
						"label": "contract WETH",
						"numberOfBytes": "20"
					},
					"t_mapping(t_address,t_uint256)": {
						"encoding": "mapping",
						"key": "t_address",
						"label": "mapping(address => uint256)",
						"numberOfBytes": "32",
						"value": "t_uint256"
					},
					"t_uint256": {
						"encoding": "inplace",
						"label": "uint256",
						"numberOfBytes": "32"
					}
				}
			},
			"userdoc": {
				"kind": "user",
				"methods": {},
				"version": 1
			}
		}
	}
}