{
	"class/溢出/3.sol": {
		"DemoContract": {
			"abi": [
				{
					"inputs": [],
					"name": "shift1",
					"outputs": [
						{
							"internalType": "uint256",
							"name": "",
							"type": "uint256"
						}
					],
					"stateMutability": "view",
					"type": "function"
				},
				{
					"inputs": [],
					"name": "shift2",
					"outputs": [
						{
							"internalType": "uint256",
							"name": "",
							"type": "uint256"
						}
					],
					"stateMutability": "view",
					"type": "function"
				}
			],
			"devdoc": {
				"kind": "dev",
				"methods": {},
				"version": 1
			},
			"evm": {
				"assembly": "    /* \"class/\\xe6\\xba\\xa2\\xe5\\x87\\xba/3.sol\":27:245  contract DemoContract {... */\n  mstore(0x40, 0x80)\n    /* \"class/\\xe6\\xba\\xa2\\xe5\\x87\\xba/3.sol\":63:66  200 */\n  0xc8\n    /* \"class/\\xe6\\xba\\xa2\\xe5\\x87\\xba/3.sol\":54:66  uint x = 200 */\n  0x00\n  sstore\n    /* \"class/\\xe6\\xba\\xa2\\xe5\\x87\\xba/3.sol\":99:100  x */\n  sload(0x00)\n    /* \"class/\\xe6\\xba\\xa2\\xe5\\x87\\xba/3.sol\":92:95  250 */\n  0xfa\n    /* \"class/\\xe6\\xba\\xa2\\xe5\\x87\\xba/3.sol\":92:100  250 << x */\n  swap1\n  shl\n    /* \"class/\\xe6\\xba\\xa2\\xe5\\x87\\xba/3.sol\":71:100  uint public shift1 = 250 << x */\n  0x01\n  sstore\n    /* \"class/\\xe6\\xba\\xa2\\xe5\\x87\\xba/3.sol\":190:193  350 */\n  0x015e\n    /* \"class/\\xe6\\xba\\xa2\\xe5\\x87\\xba/3.sol\":181:193  uint y = 350 */\n  0x02\n  sstore\n    /* \"class/\\xe6\\xba\\xa2\\xe5\\x87\\xba/3.sol\":226:227  y */\n  sload(0x02)\n    /* \"class/\\xe6\\xba\\xa2\\xe5\\x87\\xba/3.sol\":219:222  250 */\n  0xfa\n    /* \"class/\\xe6\\xba\\xa2\\xe5\\x87\\xba/3.sol\":219:227  250 << y */\n  swap1\n  shl\n    /* \"class/\\xe6\\xba\\xa2\\xe5\\x87\\xba/3.sol\":198:227  uint public shift2 = 250 << y */\n  0x03\n  sstore\n    /* \"class/\\xe6\\xba\\xa2\\xe5\\x87\\xba/3.sol\":27:245  contract DemoContract {... */\n  callvalue\n  dup1\n  iszero\n  tag_1\n  jumpi\n  0x00\n  dup1\n  revert\ntag_1:\n  pop\n  dataSize(sub_0)\n  dup1\n  dataOffset(sub_0)\n  0x00\n  codecopy\n  0x00\n  return\nstop\n\nsub_0: assembly {\n        /* \"class/\\xe6\\xba\\xa2\\xe5\\x87\\xba/3.sol\":27:245  contract DemoContract {... */\n      mstore(0x40, 0x80)\n      callvalue\n      dup1\n      iszero\n      tag_1\n      jumpi\n      0x00\n      dup1\n      revert\n    tag_1:\n      pop\n      jumpi(tag_2, lt(calldatasize, 0x04))\n      shr(0xe0, calldataload(0x00))\n      dup1\n      0x06346317\n      eq\n      tag_3\n      jumpi\n      dup1\n      0x2bd815bc\n      eq\n      tag_4\n      jumpi\n    tag_2:\n      0x00\n      dup1\n      revert\n        /* \"class/\\xe6\\xba\\xa2\\xe5\\x87\\xba/3.sol\":198:227  uint public shift2 = 250 << y */\n    tag_3:\n      tag_5\n      tag_6\n      jump\t// in\n    tag_5:\n      mload(0x40)\n      tag_7\n      swap2\n      swap1\n      tag_8\n      jump\t// in\n    tag_7:\n      mload(0x40)\n      dup1\n      swap2\n      sub\n      swap1\n      return\n        /* \"class/\\xe6\\xba\\xa2\\xe5\\x87\\xba/3.sol\":71:100  uint public shift1 = 250 << x */\n    tag_4:\n      tag_9\n      tag_10\n      jump\t// in\n    tag_9:\n      mload(0x40)\n      tag_11\n      swap2\n      swap1\n      tag_8\n      jump\t// in\n    tag_11:\n      mload(0x40)\n      dup1\n      swap2\n      sub\n      swap1\n      return\n        /* \"class/\\xe6\\xba\\xa2\\xe5\\x87\\xba/3.sol\":198:227  uint public shift2 = 250 << y */\n    tag_6:\n      sload(0x03)\n      dup2\n      jump\t// out\n        /* \"class/\\xe6\\xba\\xa2\\xe5\\x87\\xba/3.sol\":71:100  uint public shift1 = 250 << x */\n    tag_10:\n      sload(0x01)\n      dup2\n      jump\t// out\n        /* \"#utility.yul\":7:84   */\n    tag_12:\n        /* \"#utility.yul\":44:51   */\n      0x00\n        /* \"#utility.yul\":73:78   */\n      dup2\n        /* \"#utility.yul\":62:78   */\n      swap1\n      pop\n        /* \"#utility.yul\":7:84   */\n      swap2\n      swap1\n      pop\n      jump\t// out\n        /* \"#utility.yul\":90:208   */\n    tag_13:\n        /* \"#utility.yul\":177:201   */\n      tag_17\n        /* \"#utility.yul\":195:200   */\n      dup2\n        /* \"#utility.yul\":177:201   */\n      tag_12\n      jump\t// in\n    tag_17:\n        /* \"#utility.yul\":172:175   */\n      dup3\n        /* \"#utility.yul\":165:202   */\n      mstore\n        /* \"#utility.yul\":90:208   */\n      pop\n      pop\n      jump\t// out\n        /* \"#utility.yul\":214:436   */\n    tag_8:\n        /* \"#utility.yul\":307:311   */\n      0x00\n        /* \"#utility.yul\":345:347   */\n      0x20\n        /* \"#utility.yul\":334:343   */\n      dup3\n        /* \"#utility.yul\":330:348   */\n      add\n        /* \"#utility.yul\":322:348   */\n      swap1\n      pop\n        /* \"#utility.yul\":358:429   */\n      tag_19\n        /* \"#utility.yul\":426:427   */\n      0x00\n        /* \"#utility.yul\":415:424   */\n      dup4\n        /* \"#utility.yul\":411:428   */\n      add\n        /* \"#utility.yul\":402:408   */\n      dup5\n        /* \"#utility.yul\":358:429   */\n      tag_13\n      jump\t// in\n    tag_19:\n        /* \"#utility.yul\":214:436   */\n      swap3\n      swap2\n      pop\n      pop\n      jump\t// out\n\n    auxdata: 0xa264697066735822122068f2df67b48d4974f098aa1759ebbd9dff6e50460cb1c57dbfd110f808162feb64736f6c63430008130033\n}\n",
				"bytecode": {
					"linkReferences": {},
					"object": "608060405260c860005560005460fa901b60015561015e60025560025460fa901b60035534801561002f57600080fd5b5060dd8061003e6000396000f3fe6080604052348015600f57600080fd5b506004361060325760003560e01c8063063463171460375780632bd815bc146051575b600080fd5b603d606b565b60405160489190608e565b60405180910390f35b60576071565b60405160629190608e565b60405180910390f35b60035481565b60015481565b6000819050919050565b6088816077565b82525050565b600060208201905060a160008301846081565b9291505056fea264697066735822122068f2df67b48d4974f098aa1759ebbd9dff6e50460cb1c57dbfd110f808162feb64736f6c63430008130033",
					"opcodes": "PUSH1 0x80 PUSH1 0x40 MSTORE PUSH1 0xC8 PUSH1 0x0 SSTORE PUSH1 0x0 SLOAD PUSH1 0xFA SWAP1 SHL PUSH1 0x1 SSTORE PUSH2 0x15E PUSH1 0x2 SSTORE PUSH1 0x2 SLOAD PUSH1 0xFA SWAP1 SHL PUSH1 0x3 SSTORE CALLVALUE DUP1 ISZERO PUSH2 0x2F JUMPI PUSH1 0x0 DUP1 REVERT JUMPDEST POP PUSH1 0xDD DUP1 PUSH2 0x3E PUSH1 0x0 CODECOPY PUSH1 0x0 RETURN INVALID PUSH1 0x80 PUSH1 0x40 MSTORE CALLVALUE DUP1 ISZERO PUSH1 0xF JUMPI PUSH1 0x0 DUP1 REVERT JUMPDEST POP PUSH1 0x4 CALLDATASIZE LT PUSH1 0x32 JUMPI PUSH1 0x0 CALLDATALOAD PUSH1 0xE0 SHR DUP1 PUSH4 0x6346317 EQ PUSH1 0x37 JUMPI DUP1 PUSH4 0x2BD815BC EQ PUSH1 0x51 JUMPI JUMPDEST PUSH1 0x0 DUP1 REVERT JUMPDEST PUSH1 0x3D PUSH1 0x6B JUMP JUMPDEST PUSH1 0x40 MLOAD PUSH1 0x48 SWAP2 SWAP1 PUSH1 0x8E JUMP JUMPDEST PUSH1 0x40 MLOAD DUP1 SWAP2 SUB SWAP1 RETURN JUMPDEST PUSH1 0x57 PUSH1 0x71 JUMP JUMPDEST PUSH1 0x40 MLOAD PUSH1 0x62 SWAP2 SWAP1 PUSH1 0x8E JUMP JUMPDEST PUSH1 0x40 MLOAD DUP1 SWAP2 SUB SWAP1 RETURN JUMPDEST PUSH1 0x3 SLOAD DUP2 JUMP JUMPDEST PUSH1 0x1 SLOAD DUP2 JUMP JUMPDEST PUSH1 0x0 DUP2 SWAP1 POP SWAP2 SWAP1 POP JUMP JUMPDEST PUSH1 0x88 DUP2 PUSH1 0x77 JUMP JUMPDEST DUP3 MSTORE POP POP JUMP JUMPDEST PUSH1 0x0 PUSH1 0x20 DUP3 ADD SWAP1 POP PUSH1 0xA1 PUSH1 0x0 DUP4 ADD DUP5 PUSH1 0x81 JUMP JUMPDEST SWAP3 SWAP2 POP POP JUMP INVALID LOG2 PUSH5 0x6970667358 0x22 SLT KECCAK256 PUSH9 0xF2DF67B48D4974F098 0xAA OR MSIZE 0xEB 0xBD SWAP14 SELFDESTRUCT PUSH15 0x50460CB1C57DBFD110F808162FEB64 PUSH20 0x6F6C634300081300330000000000000000000000 "
				},
				"gasEstimates": {
					"creation": {
						"codeDepositCost": "44200",
						"executionCost": "75635",
						"totalCost": "119835"
					},
					"external": {
						"shift1()": "2429",
						"shift2()": "2407"
					}
				},
				"methodIdentifiers": {
					"shift1()": "2bd815bc",
					"shift2()": "06346317"
				}
			},
			"storageLayout": {
				"storage": [
					{
						"astId": 4,
						"contract": "class/溢出/3.sol:DemoContract",
						"label": "x",
						"offset": 0,
						"slot": "0",
						"type": "t_uint256"
					},
					{
						"astId": 9,
						"contract": "class/溢出/3.sol:DemoContract",
						"label": "shift1",
						"offset": 0,
						"slot": "1",
						"type": "t_uint256"
					},
					{
						"astId": 12,
						"contract": "class/溢出/3.sol:DemoContract",
						"label": "y",
						"offset": 0,
						"slot": "2",
						"type": "t_uint256"
					},
					{
						"astId": 17,
						"contract": "class/溢出/3.sol:DemoContract",
						"label": "shift2",
						"offset": 0,
						"slot": "3",
						"type": "t_uint256"
					}
				],
				"types": {
					"t_uint256": {
						"encoding": "inplace",
						"label": "uint256",
						"numberOfBytes": "32"
					}
				}
			},
			"userdoc": {
				"kind": "user",
				"methods": {},
				"version": 1
			}
		}
	}
}