{
	"class/溢出/1.sol": {
		"DemoContract": {
			"abi": [
				{
					"constant": true,
					"inputs": [],
					"name": "shift",
					"outputs": [
						{
							"name": "",
							"type": "uint256"
						}
					],
					"payable": false,
					"stateMutability": "view",
					"type": "function"
				},
				{
					"constant": true,
					"inputs": [],
					"name": "exp",
					"outputs": [
						{
							"name": "",
							"type": "uint256"
						}
					],
					"payable": false,
					"stateMutability": "view",
					"type": "function"
				}
			],
			"devdoc": {
				"methods": {}
			},
			"evm": {
				"assembly": "    /* \"class/溢出/1.sol\":26:165  contract DemoContract {\r... */\n  mstore(0x40, 0x80)\n    /* \"class/溢出/1.sol\":63:64  2 */\n  0x2\n    /* \"class/溢出/1.sol\":53:64  uint8 x = 2 */\n  0x0\n  dup1\n  0x100\n  exp\n  dup2\n  sload\n  dup2\n  0xff\n  mul\n  not\n  and\n  swap1\n  dup4\n  0xff\n  and\n  mul\n  or\n  swap1\n  sstore\n  pop\n    /* \"class/溢出/1.sol\":96:97  x */\n  0x0\n  dup1\n  swap1\n  sload\n  swap1\n  0x100\n  exp\n  swap1\n  div\n  0xff\n  and\n    /* \"class/溢出/1.sol\":89:97  250 << x */\n  0xff\n  and\n    /* \"class/溢出/1.sol\":89:92  250 */\n  0xfa\n    /* \"class/溢出/1.sol\":89:97  250 << x */\n  swap1\n  0x2\n  exp\n  mul\n    /* \"class/溢出/1.sol\":69:97  uint public shift = 250 << x */\n  0xff\n  and\n  0x1\n  sstore\n    /* \"class/溢出/1.sol\":143:144  x */\n  0x0\n  dup1\n  swap1\n  sload\n  swap1\n  0x100\n  exp\n  swap1\n  div\n  0xff\n  and\n    /* \"class/溢出/1.sol\":136:144  250 ** x */\n  0xff\n  and\n    /* \"class/溢出/1.sol\":136:139  250 */\n  0xfa\n    /* \"class/溢出/1.sol\":136:144  250 ** x */\n  exp\n    /* \"class/溢出/1.sol\":118:144  uint public exp = 250 ** x */\n  0xff\n  and\n  0x2\n  sstore\n    /* \"class/溢出/1.sol\":26:165  contract DemoContract {\r... */\n  callvalue\n    /* \"--CODEGEN--\":8:17   */\n  dup1\n    /* \"--CODEGEN--\":5:7   */\n  iszero\n  tag_1\n  jumpi\n    /* \"--CODEGEN--\":30:31   */\n  0x0\n    /* \"--CODEGEN--\":27:28   */\n  dup1\n    /* \"--CODEGEN--\":20:32   */\n  revert\n    /* \"--CODEGEN--\":5:7   */\ntag_1:\n    /* \"class/溢出/1.sol\":26:165  contract DemoContract {\r... */\n  pop\n  dataSize(sub_0)\n  dup1\n  dataOffset(sub_0)\n  0x0\n  codecopy\n  0x0\n  return\nstop\n\nsub_0: assembly {\n        /* \"class/溢出/1.sol\":26:165  contract DemoContract {\r... */\n      mstore(0x40, 0x80)\n      jumpi(tag_1, lt(calldatasize, 0x4))\n      calldataload(0x0)\n      0x100000000000000000000000000000000000000000000000000000000\n      swap1\n      div\n      0xffffffff\n      and\n      dup1\n      0x12fc41ca\n      eq\n      tag_2\n      jumpi\n      dup1\n      0xab60ffda\n      eq\n      tag_3\n      jumpi\n    tag_1:\n      0x0\n      dup1\n      revert\n        /* \"class/溢出/1.sol\":69:97  uint public shift = 250 << x */\n    tag_2:\n      callvalue\n        /* \"--CODEGEN--\":8:17   */\n      dup1\n        /* \"--CODEGEN--\":5:7   */\n      iszero\n      tag_4\n      jumpi\n        /* \"--CODEGEN--\":30:31   */\n      0x0\n        /* \"--CODEGEN--\":27:28   */\n      dup1\n        /* \"--CODEGEN--\":20:32   */\n      revert\n        /* \"--CODEGEN--\":5:7   */\n    tag_4:\n        /* \"class/溢出/1.sol\":69:97  uint public shift = 250 << x */\n      pop\n      tag_5\n      jump(tag_6)\n    tag_5:\n      mload(0x40)\n      dup1\n      dup3\n      dup2\n      mstore\n      0x20\n      add\n      swap2\n      pop\n      pop\n      mload(0x40)\n      dup1\n      swap2\n      sub\n      swap1\n      return\n        /* \"class/溢出/1.sol\":118:144  uint public exp = 250 ** x */\n    tag_3:\n      callvalue\n        /* \"--CODEGEN--\":8:17   */\n      dup1\n        /* \"--CODEGEN--\":5:7   */\n      iszero\n      tag_7\n      jumpi\n        /* \"--CODEGEN--\":30:31   */\n      0x0\n        /* \"--CODEGEN--\":27:28   */\n      dup1\n        /* \"--CODEGEN--\":20:32   */\n      revert\n        /* \"--CODEGEN--\":5:7   */\n    tag_7:\n        /* \"class/溢出/1.sol\":118:144  uint public exp = 250 ** x */\n      pop\n      tag_8\n      jump(tag_9)\n    tag_8:\n      mload(0x40)\n      dup1\n      dup3\n      dup2\n      mstore\n      0x20\n      add\n      swap2\n      pop\n      pop\n      mload(0x40)\n      dup1\n      swap2\n      sub\n      swap1\n      return\n        /* \"class/溢出/1.sol\":69:97  uint public shift = 250 << x */\n    tag_6:\n      sload(0x1)\n      dup2\n      jump\t// out\n        /* \"class/溢出/1.sol\":118:144  uint public exp = 250 ** x */\n    tag_9:\n      sload(0x2)\n      dup2\n      jump\t// out\n\n    auxdata: 0xa165627a7a72305820ec99cff9b4d176538cd112c964cd854bedba532a12439456ad153e0ff8e926e30029\n}\n",
				"bytecode": {
					"linkReferences": {},
					"object": "608060405260026000806101000a81548160ff021916908360ff1602179055506000809054906101000a900460ff1660ff1660fa9060020a0260ff166001556000809054906101000a900460ff1660ff1660fa0a60ff1660025534801561006557600080fd5b5060d6806100746000396000f3006080604052600436106049576000357c0100000000000000000000000000000000000000000000000000000000900463ffffffff16806312fc41ca14604e578063ab60ffda146076575b600080fd5b348015605957600080fd5b506060609e565b6040518082815260200191505060405180910390f35b348015608157600080fd5b50608860a4565b6040518082815260200191505060405180910390f35b60015481565b600254815600a165627a7a72305820ec99cff9b4d176538cd112c964cd854bedba532a12439456ad153e0ff8e926e30029",
					"opcodes": "PUSH1 0x80 PUSH1 0x40 MSTORE PUSH1 0x2 PUSH1 0x0 DUP1 PUSH2 0x100 EXP DUP2 SLOAD DUP2 PUSH1 0xFF MUL NOT AND SWAP1 DUP4 PUSH1 0xFF AND MUL OR SWAP1 SSTORE POP PUSH1 0x0 DUP1 SWAP1 SLOAD SWAP1 PUSH2 0x100 EXP SWAP1 DIV PUSH1 0xFF AND PUSH1 0xFF AND PUSH1 0xFA SWAP1 PUSH1 0x2 EXP MUL PUSH1 0xFF AND PUSH1 0x1 SSTORE PUSH1 0x0 DUP1 SWAP1 SLOAD SWAP1 PUSH2 0x100 EXP SWAP1 DIV PUSH1 0xFF AND PUSH1 0xFF AND PUSH1 0xFA EXP PUSH1 0xFF AND PUSH1 0x2 SSTORE CALLVALUE DUP1 ISZERO PUSH2 0x65 JUMPI PUSH1 0x0 DUP1 REVERT JUMPDEST POP PUSH1 0xD6 DUP1 PUSH2 0x74 PUSH1 0x0 CODECOPY PUSH1 0x0 RETURN STOP PUSH1 0x80 PUSH1 0x40 MSTORE PUSH1 0x4 CALLDATASIZE LT PUSH1 0x49 JUMPI PUSH1 0x0 CALLDATALOAD PUSH29 0x100000000000000000000000000000000000000000000000000000000 SWAP1 DIV PUSH4 0xFFFFFFFF AND DUP1 PUSH4 0x12FC41CA EQ PUSH1 0x4E JUMPI DUP1 PUSH4 0xAB60FFDA EQ PUSH1 0x76 JUMPI JUMPDEST PUSH1 0x0 DUP1 REVERT JUMPDEST CALLVALUE DUP1 ISZERO PUSH1 0x59 JUMPI PUSH1 0x0 DUP1 REVERT JUMPDEST POP PUSH1 0x60 PUSH1 0x9E JUMP JUMPDEST PUSH1 0x40 MLOAD DUP1 DUP3 DUP2 MSTORE PUSH1 0x20 ADD SWAP2 POP POP PUSH1 0x40 MLOAD DUP1 SWAP2 SUB SWAP1 RETURN JUMPDEST CALLVALUE DUP1 ISZERO PUSH1 0x81 JUMPI PUSH1 0x0 DUP1 REVERT JUMPDEST POP PUSH1 0x88 PUSH1 0xA4 JUMP JUMPDEST PUSH1 0x40 MLOAD DUP1 DUP3 DUP2 MSTORE PUSH1 0x20 ADD SWAP2 POP POP PUSH1 0x40 MLOAD DUP1 SWAP2 SUB SWAP1 RETURN JUMPDEST PUSH1 0x1 SLOAD DUP2 JUMP JUMPDEST PUSH1 0x2 SLOAD DUP2 JUMP STOP LOG1 PUSH6 0x627A7A723058 KECCAK256 0xec SWAP10 0xcf 0xf9 0xb4 0xd1 PUSH23 0x538CD112C964CD854BEDBA532A12439456AD153E0FF8E9 0x26 0xe3 STOP 0x29 "
				},
				"gasEstimates": {
					"creation": {
						"codeDepositCost": "42800",
						"executionCost": "64105",
						"totalCost": "106905"
					},
					"external": {
						"exp()": "416",
						"shift()": "394"
					}
				},
				"methodIdentifiers": {
					"exp()": "ab60ffda",
					"shift()": "12fc41ca"
				}
			},
			"userdoc": {
				"methods": {}
			}
		}
	}
}