{
	"class/溢出/2.sol": {
		"DemoContract": {
			"abi": [
				{
					"inputs": [],
					"name": "exp",
					"outputs": [
						{
							"internalType": "uint256",
							"name": "",
							"type": "uint256"
						}
					],
					"stateMutability": "view",
					"type": "function"
				},
				{
					"inputs": [],
					"name": "shift",
					"outputs": [
						{
							"internalType": "uint256",
							"name": "",
							"type": "uint256"
						}
					],
					"stateMutability": "view",
					"type": "function"
				}
			],
			"devdoc": {
				"kind": "dev",
				"methods": {},
				"version": 1
			},
			"evm": {
				"assembly": "    /* \"class/溢出/2.sol\":27:170  contract DemoContract {\r... */\n  mstore(0x40, 0x80)\n    /* \"class/溢出/2.sol\":64:65  2 */\n  0x02\n    /* \"class/溢出/2.sol\":54:65  uint8 x = 2 */\n  0x00\n  dup1\n  0x0100\n  exp\n  dup2\n  sload\n  dup2\n  0xff\n  mul\n  not\n  and\n  swap1\n  dup4\n  0xff\n  and\n  mul\n  or\n  swap1\n  sstore\n  pop\n    /* \"class/溢出/2.sol\":97:98  x */\n  0x00\n  dup1\n  sload\n  swap1\n  0x0100\n  exp\n  swap1\n  div\n  0xff\n  and\n    /* \"class/溢出/2.sol\":90:98  250 << x */\n  0xff\n  and\n    /* \"class/溢出/2.sol\":90:93  250 */\n  0xfa\n    /* \"class/溢出/2.sol\":90:98  250 << x */\n  swap1\n  shl\n    /* \"class/溢出/2.sol\":70:98  uint public shift = 250 << x */\n  0x01\n  sstore\n    /* \"class/溢出/2.sol\":145:146  x */\n  0x00\n  dup1\n  sload\n  swap1\n  0x0100\n  exp\n  swap1\n  div\n  0xff\n  and\n    /* \"class/溢出/2.sol\":138:146  250 ** x */\n  0xff\n  and\n    /* \"class/溢出/2.sol\":138:141  250 */\n  0xfa\n    /* \"class/溢出/2.sol\":138:146  250 ** x */\n  exp\n    /* \"class/溢出/2.sol\":120:146  uint public exp = 250 ** x */\n  0x02\n  sstore\n    /* \"class/溢出/2.sol\":27:170  contract DemoContract {\r... */\n  callvalue\n  dup1\n  iszero\n  tag_1\n  jumpi\n  0x00\n  dup1\n  revert\ntag_1:\n  pop\n  dataSize(sub_0)\n  dup1\n  dataOffset(sub_0)\n  0x00\n  codecopy\n  0x00\n  return\nstop\n\nsub_0: assembly {\n        /* \"class/溢出/2.sol\":27:170  contract DemoContract {\r... */\n      mstore(0x40, 0x80)\n      callvalue\n      dup1\n      iszero\n      tag_1\n      jumpi\n      0x00\n      dup1\n      revert\n    tag_1:\n      pop\n      jumpi(tag_2, lt(calldatasize, 0x04))\n      shr(0xe0, calldataload(0x00))\n      dup1\n      0x12fc41ca\n      eq\n      tag_3\n      jumpi\n      dup1\n      0xab60ffda\n      eq\n      tag_4\n      jumpi\n    tag_2:\n      0x00\n      dup1\n      revert\n        /* \"class/溢出/2.sol\":70:98  uint public shift = 250 << x */\n    tag_3:\n      tag_5\n      tag_6\n      jump\t// in\n    tag_5:\n      mload(0x40)\n      dup1\n      dup3\n      dup2\n      mstore\n      0x20\n      add\n      swap2\n      pop\n      pop\n      mload(0x40)\n      dup1\n      swap2\n      sub\n      swap1\n      return\n        /* \"class/溢出/2.sol\":120:146  uint public exp = 250 ** x */\n    tag_4:\n      tag_7\n      tag_8\n      jump\t// in\n    tag_7:\n      mload(0x40)\n      dup1\n      dup3\n      dup2\n      mstore\n      0x20\n      add\n      swap2\n      pop\n      pop\n      mload(0x40)\n      dup1\n      swap2\n      sub\n      swap1\n      return\n        /* \"class/溢出/2.sol\":70:98  uint public shift = 250 << x */\n    tag_6:\n      sload(0x01)\n      dup2\n      jump\t// out\n        /* \"class/溢出/2.sol\":120:146  uint public exp = 250 ** x */\n    tag_8:\n      sload(0x02)\n      dup2\n      jump\t// out\n\n    auxdata: 0xa2646970667358221220041f1d91d707e63e50ebada3222b1dcde1dffdc2e4fe86b515ba73642287349864736f6c63430007060033\n}\n",
				"bytecode": {
					"linkReferences": {},
					"object": "608060405260026000806101000a81548160ff021916908360ff16021790555060008054906101000a900460ff1660ff1660fa901b60015560008054906101000a900460ff1660ff1660fa0a60025534801561005a57600080fd5b5060b1806100696000396000f3fe6080604052348015600f57600080fd5b506004361060325760003560e01c806312fc41ca146037578063ab60ffda146053575b600080fd5b603d606f565b6040518082815260200191505060405180910390f35b60596075565b6040518082815260200191505060405180910390f35b60015481565b6002548156fea2646970667358221220041f1d91d707e63e50ebada3222b1dcde1dffdc2e4fe86b515ba73642287349864736f6c63430007060033",
					"opcodes": "PUSH1 0x80 PUSH1 0x40 MSTORE PUSH1 0x2 PUSH1 0x0 DUP1 PUSH2 0x100 EXP DUP2 SLOAD DUP2 PUSH1 0xFF MUL NOT AND SWAP1 DUP4 PUSH1 0xFF AND MUL OR SWAP1 SSTORE POP PUSH1 0x0 DUP1 SLOAD SWAP1 PUSH2 0x100 EXP SWAP1 DIV PUSH1 0xFF AND PUSH1 0xFF AND PUSH1 0xFA SWAP1 SHL PUSH1 0x1 SSTORE PUSH1 0x0 DUP1 SLOAD SWAP1 PUSH2 0x100 EXP SWAP1 DIV PUSH1 0xFF AND PUSH1 0xFF AND PUSH1 0xFA EXP PUSH1 0x2 SSTORE CALLVALUE DUP1 ISZERO PUSH2 0x5A JUMPI PUSH1 0x0 DUP1 REVERT JUMPDEST POP PUSH1 0xB1 DUP1 PUSH2 0x69 PUSH1 0x0 CODECOPY PUSH1 0x0 RETURN INVALID PUSH1 0x80 PUSH1 0x40 MSTORE CALLVALUE DUP1 ISZERO PUSH1 0xF JUMPI PUSH1 0x0 DUP1 REVERT JUMPDEST POP PUSH1 0x4 CALLDATASIZE LT PUSH1 0x32 JUMPI PUSH1 0x0 CALLDATALOAD PUSH1 0xE0 SHR DUP1 PUSH4 0x12FC41CA EQ PUSH1 0x37 JUMPI DUP1 PUSH4 0xAB60FFDA EQ PUSH1 0x53 JUMPI JUMPDEST PUSH1 0x0 DUP1 REVERT JUMPDEST PUSH1 0x3D PUSH1 0x6F JUMP JUMPDEST PUSH1 0x40 MLOAD DUP1 DUP3 DUP2 MSTORE PUSH1 0x20 ADD SWAP2 POP POP PUSH1 0x40 MLOAD DUP1 SWAP2 SUB SWAP1 RETURN JUMPDEST PUSH1 0x59 PUSH1 0x75 JUMP JUMPDEST PUSH1 0x40 MLOAD DUP1 DUP3 DUP2 MSTORE PUSH1 0x20 ADD SWAP2 POP POP PUSH1 0x40 MLOAD DUP1 SWAP2 SUB SWAP1 RETURN JUMPDEST PUSH1 0x1 SLOAD DUP2 JUMP JUMPDEST PUSH1 0x2 SLOAD DUP2 JUMP INVALID LOG2 PUSH5 0x6970667358 0x22 SLT KECCAK256 DIV 0x1F SAR SWAP2 0xD7 SMOD 0xE6 RETURNDATACOPY POP 0xEB 0xAD LOG3 0x22 0x2B SAR 0xCD 0xE1 0xDF REVERT 0xC2 0xE4 INVALID DUP7 0xB5 ISZERO 0xBA PUSH20 0x642287349864736F6C6343000706003300000000 "
				},
				"gasEstimates": {
					"creation": {
						"codeDepositCost": "35400",
						"executionCost": "64266",
						"totalCost": "99666"
					},
					"external": {
						"exp()": "1005",
						"shift()": "983"
					}
				},
				"methodIdentifiers": {
					"exp()": "ab60ffda",
					"shift()": "12fc41ca"
				}
			},
			"storageLayout": {
				"storage": [
					{
						"astId": 4,
						"contract": "class/溢出/2.sol:DemoContract",
						"label": "x",
						"offset": 0,
						"slot": "0",
						"type": "t_uint8"
					},
					{
						"astId": 9,
						"contract": "class/溢出/2.sol:DemoContract",
						"label": "shift",
						"offset": 0,
						"slot": "1",
						"type": "t_uint256"
					},
					{
						"astId": 14,
						"contract": "class/溢出/2.sol:DemoContract",
						"label": "exp",
						"offset": 0,
						"slot": "2",
						"type": "t_uint256"
					}
				],
				"types": {
					"t_uint256": {
						"encoding": "inplace",
						"label": "uint256",
						"numberOfBytes": "32"
					},
					"t_uint8": {
						"encoding": "inplace",
						"label": "uint8",
						"numberOfBytes": "1"
					}
				}
			},
			"userdoc": {
				"kind": "user",
				"methods": {},
				"version": 1
			}
		}
	}
}