{
	"defi-theory/contracts/004_Vote.sol": {
		"Poll": {
			"abi": [
				{
					"inputs": [
						{
							"internalType": "uint8",
							"name": "_candidates",
							"type": "uint8"
						},
						{
							"internalType": "uint256",
							"name": "_turnout",
							"type": "uint256"
						},
						{
							"internalType": "uint256",
							"name": "_duration",
							"type": "uint256"
						}
					],
					"stateMutability": "nonpayable",
					"type": "constructor"
				},
				{
					"anonymous": false,
					"inputs": [],
					"name": "Ended",
					"type": "event"
				},
				{
					"anonymous": false,
					"inputs": [
						{
							"indexed": true,
							"internalType": "address",
							"name": "previousOwner",
							"type": "address"
						},
						{
							"indexed": true,
							"internalType": "address",
							"name": "newOwner",
							"type": "address"
						}
					],
					"name": "OwnershipTransferred",
					"type": "event"
				},
				{
					"anonymous": false,
					"inputs": [],
					"name": "Started",
					"type": "event"
				},
				{
					"inputs": [],
					"name": "candidates",
					"outputs": [
						{
							"internalType": "uint8",
							"name": "",
							"type": "uint8"
						}
					],
					"stateMutability": "view",
					"type": "function"
				},
				{
					"inputs": [],
					"name": "duration",
					"outputs": [
						{
							"internalType": "uint256",
							"name": "",
							"type": "uint256"
						}
					],
					"stateMutability": "view",
					"type": "function"
				},
				{
					"inputs": [],
					"name": "end",
					"outputs": [],
					"stateMutability": "nonpayable",
					"type": "function"
				},
				{
					"inputs": [],
					"name": "endTime",
					"outputs": [
						{
							"internalType": "uint256",
							"name": "",
							"type": "uint256"
						}
					],
					"stateMutability": "view",
					"type": "function"
				},
				{
					"inputs": [],
					"name": "ended",
					"outputs": [
						{
							"internalType": "bool",
							"name": "",
							"type": "bool"
						}
					],
					"stateMutability": "view",
					"type": "function"
				},
				{
					"inputs": [],
					"name": "getResult",
					"outputs": [
						{
							"internalType": "uint8",
							"name": "",
							"type": "uint8"
						}
					],
					"stateMutability": "view",
					"type": "function"
				},
				{
					"inputs": [],
					"name": "getTime",
					"outputs": [
						{
							"internalType": "uint256",
							"name": "",
							"type": "uint256"
						}
					],
					"stateMutability": "view",
					"type": "function"
				},
				{
					"inputs": [],
					"name": "highestCandidate",
					"outputs": [
						{
							"internalType": "uint8",
							"name": "",
							"type": "uint8"
						}
					],
					"stateMutability": "view",
					"type": "function"
				},
				{
					"inputs": [],
					"name": "highestScore",
					"outputs": [
						{
							"internalType": "uint256",
							"name": "",
							"type": "uint256"
						}
					],
					"stateMutability": "view",
					"type": "function"
				},
				{
					"inputs": [],
					"name": "owner",
					"outputs": [
						{
							"internalType": "address",
							"name": "",
							"type": "address"
						}
					],
					"stateMutability": "view",
					"type": "function"
				},
				{
					"inputs": [],
					"name": "renounceOwnership",
					"outputs": [],
					"stateMutability": "nonpayable",
					"type": "function"
				},
				{
					"inputs": [],
					"name": "start",
					"outputs": [],
					"stateMutability": "nonpayable",
					"type": "function"
				},
				{
					"inputs": [],
					"name": "started",
					"outputs": [
						{
							"internalType": "bool",
							"name": "",
							"type": "bool"
						}
					],
					"stateMutability": "view",
					"type": "function"
				},
				{
					"inputs": [
						{
							"internalType": "address",
							"name": "newOwner",
							"type": "address"
						}
					],
					"name": "transferOwnership",
					"outputs": [],
					"stateMutability": "nonpayable",
					"type": "function"
				},
				{
					"inputs": [],
					"name": "turnout",
					"outputs": [
						{
							"internalType": "uint256",
							"name": "",
							"type": "uint256"
						}
					],
					"stateMutability": "view",
					"type": "function"
				},
				{
					"inputs": [
						{
							"internalType": "uint8",
							"name": "candidateIndex",
							"type": "uint8"
						}
					],
					"name": "vote",
					"outputs": [],
					"stateMutability": "nonpayable",
					"type": "function"
				},
				{
					"inputs": [
						{
							"internalType": "address",
							"name": "",
							"type": "address"
						}
					],
					"name": "votedMap",
					"outputs": [
						{
							"internalType": "uint8",
							"name": "",
							"type": "uint8"
						}
					],
					"stateMutability": "view",
					"type": "function"
				},
				{
					"inputs": [],
					"name": "votedNum",
					"outputs": [
						{
							"internalType": "uint256",
							"name": "",
							"type": "uint256"
						}
					],
					"stateMutability": "view",
					"type": "function"
				}
			],
			"devdoc": {
				"kind": "dev",
				"methods": {
					"owner()": {
						"details": "Returns the address of the current owner."
					},
					"renounceOwnership()": {
						"details": "Leaves the contract without owner. It will not be possible to call `onlyOwner` functions. Can only be called by the current owner. NOTE: Renouncing ownership will leave the contract without an owner, thereby disabling any functionality that is only available to the owner."
					},
					"transferOwnership(address)": {
						"details": "Transfers ownership of the contract to a new account (`newOwner`). Can only be called by the current owner."
					}
				},
				"version": 1
			},
			"evm": {
				"assembly": "    /* \"defi-theory/contracts/004_Vote.sol\":115:2044  contract Poll is Ownable {... */\n  mstore(0x40, 0x80)\n    /* \"defi-theory/contracts/004_Vote.sol\":734:895  constructor(uint8 _candidates, uint _turnout, uint _duration) {... */\n  callvalue\n  dup1\n  iszero\n  tag_1\n  jumpi\n  0x00\n  dup1\n  revert\ntag_1:\n  pop\n  mload(0x40)\n  sub(codesize, bytecodeSize)\n  dup1\n  bytecodeSize\n  dup4\n  codecopy\n  dup2\n  dup2\n  add\n  0x40\n  mstore\n  dup2\n  add\n  swap1\n  tag_2\n  swap2\n  swap1\n  tag_3\n  jump\t// in\ntag_2:\n    /* \"@openzeppelin/contracts/access/Ownable.sol\":936:968  _transferOwnership(_msgSender()) */\n  tag_7\n    /* \"@openzeppelin/contracts/access/Ownable.sol\":955:967  _msgSender() */\n  tag_8\n    /* \"@openzeppelin/contracts/access/Ownable.sol\":955:965  _msgSender */\n  shl(0x20, tag_9)\n    /* \"@openzeppelin/contracts/access/Ownable.sol\":955:967  _msgSender() */\n  0x20\n  shr\n  jump\t// in\ntag_8:\n    /* \"@openzeppelin/contracts/access/Ownable.sol\":936:954  _transferOwnership */\n  shl(0x20, tag_10)\n    /* \"@openzeppelin/contracts/access/Ownable.sol\":936:968  _transferOwnership(_msgSender()) */\n  0x20\n  shr\n  jump\t// in\ntag_7:\n    /* \"defi-theory/contracts/004_Vote.sol\":819:830  _candidates */\n  dup3\n    /* \"defi-theory/contracts/004_Vote.sol\":806:816  candidates */\n  0x00\n  0x14\n    /* \"defi-theory/contracts/004_Vote.sol\":806:830  candidates = _candidates */\n  0x0100\n  exp\n  dup2\n  sload\n  dup2\n  0xff\n  mul\n  not\n  and\n  swap1\n  dup4\n  0xff\n  and\n  mul\n  or\n  swap1\n  sstore\n  pop\n    /* \"defi-theory/contracts/004_Vote.sol\":850:858  _turnout */\n  dup2\n    /* \"defi-theory/contracts/004_Vote.sol\":840:847  turnout */\n  0x01\n    /* \"defi-theory/contracts/004_Vote.sol\":840:858  turnout = _turnout */\n  dup2\n  swap1\n  sstore\n  pop\n    /* \"defi-theory/contracts/004_Vote.sol\":879:888  _duration */\n  dup1\n    /* \"defi-theory/contracts/004_Vote.sol\":868:876  duration */\n  0x02\n    /* \"defi-theory/contracts/004_Vote.sol\":868:888  duration = _duration */\n  dup2\n  swap1\n  sstore\n  pop\n    /* \"defi-theory/contracts/004_Vote.sol\":734:895  constructor(uint8 _candidates, uint _turnout, uint _duration) {... */\n  pop\n  pop\n  pop\n    /* \"defi-theory/contracts/004_Vote.sol\":115:2044  contract Poll is Ownable {... */\n  jump(tag_12)\n    /* \"@openzeppelin/contracts/utils/Context.sol\":640:736  function _msgSender() internal view virtual returns (address) {... */\ntag_9:\n    /* \"@openzeppelin/contracts/utils/Context.sol\":693:700  address */\n  0x00\n    /* \"@openzeppelin/contracts/utils/Context.sol\":719:729  msg.sender */\n  caller\n    /* \"@openzeppelin/contracts/utils/Context.sol\":712:729  return msg.sender */\n  swap1\n  pop\n    /* \"@openzeppelin/contracts/utils/Context.sol\":640:736  function _msgSender() internal view virtual returns (address) {... */\n  swap1\n  jump\t// out\n    /* \"@openzeppelin/contracts/access/Ownable.sol\":2426:2613  function _transferOwnership(address newOwner) internal virtual {... */\ntag_10:\n    /* \"@openzeppelin/contracts/access/Ownable.sol\":2499:2515  address oldOwner */\n  0x00\n    /* \"@openzeppelin/contracts/access/Ownable.sol\":2518:2524  _owner */\n  dup1\n  0x00\n  swap1\n  sload\n  swap1\n  0x0100\n  exp\n  swap1\n  div\n  0xffffffffffffffffffffffffffffffffffffffff\n  and\n    /* \"@openzeppelin/contracts/access/Ownable.sol\":2499:2524  address oldOwner = _owner */\n  swap1\n  pop\n    /* \"@openzeppelin/contracts/access/Ownable.sol\":2543:2551  newOwner */\n  dup2\n    /* \"@openzeppelin/contracts/access/Ownable.sol\":2534:2540  _owner */\n  0x00\n  dup1\n    /* \"@openzeppelin/contracts/access/Ownable.sol\":2534:2551  _owner = newOwner */\n  0x0100\n  exp\n  dup2\n  sload\n  dup2\n  0xffffffffffffffffffffffffffffffffffffffff\n  mul\n  not\n  and\n  swap1\n  dup4\n  0xffffffffffffffffffffffffffffffffffffffff\n  and\n  mul\n  or\n  swap1\n  sstore\n  pop\n    /* \"@openzeppelin/contracts/access/Ownable.sol\":2597:2605  newOwner */\n  dup2\n    /* \"@openzeppelin/contracts/access/Ownable.sol\":2566:2606  OwnershipTransferred(oldOwner, newOwner) */\n  0xffffffffffffffffffffffffffffffffffffffff\n  and\n    /* \"@openzeppelin/contracts/access/Ownable.sol\":2587:2595  oldOwner */\n  dup2\n    /* \"@openzeppelin/contracts/access/Ownable.sol\":2566:2606  OwnershipTransferred(oldOwner, newOwner) */\n  0xffffffffffffffffffffffffffffffffffffffff\n  and\n  0x8be0079c531659141344cd1fd0a4f28419497f9722a3daafe3b4186f6b6457e0\n  mload(0x40)\n  mload(0x40)\n  dup1\n  swap2\n  sub\n  swap1\n  log3\n    /* \"@openzeppelin/contracts/access/Ownable.sol\":2489:2613  {... */\n  pop\n    /* \"@openzeppelin/contracts/access/Ownable.sol\":2426:2613  function _transferOwnership(address newOwner) internal virtual {... */\n  pop\n  jump\t// out\n    /* \"#utility.yul\":88:205   */\ntag_16:\n    /* \"#utility.yul\":197:198   */\n  0x00\n    /* \"#utility.yul\":194:195   */\n  dup1\n    /* \"#utility.yul\":187:199   */\n  revert\n    /* \"#utility.yul\":334:420   */\ntag_18:\n    /* \"#utility.yul\":369:376   */\n  0x00\n    /* \"#utility.yul\":409:413   */\n  0xff\n    /* \"#utility.yul\":402:407   */\n  dup3\n    /* \"#utility.yul\":398:414   */\n  and\n    /* \"#utility.yul\":387:414   */\n  swap1\n  pop\n    /* \"#utility.yul\":334:420   */\n  swap2\n  swap1\n  pop\n  jump\t// out\n    /* \"#utility.yul\":426:544   */\ntag_19:\n    /* \"#utility.yul\":497:519   */\n  tag_30\n    /* \"#utility.yul\":513:518   */\n  dup2\n    /* \"#utility.yul\":497:519   */\n  tag_18\n  jump\t// in\ntag_30:\n    /* \"#utility.yul\":490:495   */\n  dup2\n    /* \"#utility.yul\":487:520   */\n  eq\n    /* \"#utility.yul\":477:538   */\n  tag_31\n  jumpi\n    /* \"#utility.yul\":534:535   */\n  0x00\n    /* \"#utility.yul\":531:532   */\n  dup1\n    /* \"#utility.yul\":524:536   */\n  revert\n    /* \"#utility.yul\":477:538   */\ntag_31:\n    /* \"#utility.yul\":426:544   */\n  pop\n  jump\t// out\n    /* \"#utility.yul\":550:689   */\ntag_20:\n    /* \"#utility.yul\":605:610   */\n  0x00\n    /* \"#utility.yul\":636:642   */\n  dup2\n    /* \"#utility.yul\":630:643   */\n  mload\n    /* \"#utility.yul\":621:643   */\n  swap1\n  pop\n    /* \"#utility.yul\":652:683   */\n  tag_33\n    /* \"#utility.yul\":677:682   */\n  dup2\n    /* \"#utility.yul\":652:683   */\n  tag_19\n  jump\t// in\ntag_33:\n    /* \"#utility.yul\":550:689   */\n  swap3\n  swap2\n  pop\n  pop\n  jump\t// out\n    /* \"#utility.yul\":695:772   */\ntag_21:\n    /* \"#utility.yul\":732:739   */\n  0x00\n    /* \"#utility.yul\":761:766   */\n  dup2\n    /* \"#utility.yul\":750:766   */\n  swap1\n  pop\n    /* \"#utility.yul\":695:772   */\n  swap2\n  swap1\n  pop\n  jump\t// out\n    /* \"#utility.yul\":778:900   */\ntag_22:\n    /* \"#utility.yul\":851:875   */\n  tag_36\n    /* \"#utility.yul\":869:874   */\n  dup2\n    /* \"#utility.yul\":851:875   */\n  tag_21\n  jump\t// in\ntag_36:\n    /* \"#utility.yul\":844:849   */\n  dup2\n    /* \"#utility.yul\":841:876   */\n  eq\n    /* \"#utility.yul\":831:894   */\n  tag_37\n  jumpi\n    /* \"#utility.yul\":890:891   */\n  0x00\n    /* \"#utility.yul\":887:888   */\n  dup1\n    /* \"#utility.yul\":880:892   */\n  revert\n    /* \"#utility.yul\":831:894   */\ntag_37:\n    /* \"#utility.yul\":778:900   */\n  pop\n  jump\t// out\n    /* \"#utility.yul\":906:1049   */\ntag_23:\n    /* \"#utility.yul\":963:968   */\n  0x00\n    /* \"#utility.yul\":994:1000   */\n  dup2\n    /* \"#utility.yul\":988:1001   */\n  mload\n    /* \"#utility.yul\":979:1001   */\n  swap1\n  pop\n    /* \"#utility.yul\":1010:1043   */\n  tag_39\n    /* \"#utility.yul\":1037:1042   */\n  dup2\n    /* \"#utility.yul\":1010:1043   */\n  tag_22\n  jump\t// in\ntag_39:\n    /* \"#utility.yul\":906:1049   */\n  swap3\n  swap2\n  pop\n  pop\n  jump\t// out\n    /* \"#utility.yul\":1055:1714   */\ntag_3:\n    /* \"#utility.yul\":1141:1147   */\n  0x00\n    /* \"#utility.yul\":1149:1155   */\n  dup1\n    /* \"#utility.yul\":1157:1163   */\n  0x00\n    /* \"#utility.yul\":1206:1208   */\n  0x60\n    /* \"#utility.yul\":1194:1203   */\n  dup5\n    /* \"#utility.yul\":1185:1192   */\n  dup7\n    /* \"#utility.yul\":1181:1204   */\n  sub\n    /* \"#utility.yul\":1177:1209   */\n  slt\n    /* \"#utility.yul\":1174:1293   */\n  iszero\n  tag_41\n  jumpi\n    /* \"#utility.yul\":1212:1291   */\n  tag_42\n  tag_16\n  jump\t// in\ntag_42:\n    /* \"#utility.yul\":1174:1293   */\ntag_41:\n    /* \"#utility.yul\":1332:1333   */\n  0x00\n    /* \"#utility.yul\":1357:1419   */\n  tag_43\n    /* \"#utility.yul\":1411:1418   */\n  dup7\n    /* \"#utility.yul\":1402:1408   */\n  dup3\n    /* \"#utility.yul\":1391:1400   */\n  dup8\n    /* \"#utility.yul\":1387:1409   */\n  add\n    /* \"#utility.yul\":1357:1419   */\n  tag_20\n  jump\t// in\ntag_43:\n    /* \"#utility.yul\":1347:1419   */\n  swap4\n  pop\n    /* \"#utility.yul\":1303:1429   */\n  pop\n    /* \"#utility.yul\":1468:1470   */\n  0x20\n    /* \"#utility.yul\":1494:1558   */\n  tag_44\n    /* \"#utility.yul\":1550:1557   */\n  dup7\n    /* \"#utility.yul\":1541:1547   */\n  dup3\n    /* \"#utility.yul\":1530:1539   */\n  dup8\n    /* \"#utility.yul\":1526:1548   */\n  add\n    /* \"#utility.yul\":1494:1558   */\n  tag_23\n  jump\t// in\ntag_44:\n    /* \"#utility.yul\":1484:1558   */\n  swap3\n  pop\n    /* \"#utility.yul\":1439:1568   */\n  pop\n    /* \"#utility.yul\":1607:1609   */\n  0x40\n    /* \"#utility.yul\":1633:1697   */\n  tag_45\n    /* \"#utility.yul\":1689:1696   */\n  dup7\n    /* \"#utility.yul\":1680:1686   */\n  dup3\n    /* \"#utility.yul\":1669:1678   */\n  dup8\n    /* \"#utility.yul\":1665:1687   */\n  add\n    /* \"#utility.yul\":1633:1697   */\n  tag_23\n  jump\t// in\ntag_45:\n    /* \"#utility.yul\":1623:1697   */\n  swap2\n  pop\n    /* \"#utility.yul\":1578:1707   */\n  pop\n    /* \"#utility.yul\":1055:1714   */\n  swap3\n  pop\n  swap3\n  pop\n  swap3\n  jump\t// out\n    /* \"defi-theory/contracts/004_Vote.sol\":115:2044  contract Poll is Ownable {... */\ntag_12:\n  dataSize(sub_0)\n  dup1\n  dataOffset(sub_0)\n  0x00\n  codecopy\n  0x00\n  return\nstop\n\nsub_0: assembly {\n        /* \"defi-theory/contracts/004_Vote.sol\":115:2044  contract Poll is Ownable {... */\n      mstore(0x40, 0x80)\n      callvalue\n      dup1\n      iszero\n      tag_1\n      jumpi\n      0x00\n      dup1\n      revert\n    tag_1:\n      pop\n      jumpi(tag_2, lt(calldatasize, 0x04))\n      shr(0xe0, calldataload(0x00))\n      dup1\n      0x8e437c5f\n      gt\n      tag_21\n      jumpi\n      dup1\n      0xbe9a6555\n      gt\n      tag_22\n      jumpi\n      dup1\n      0xbe9a6555\n      eq\n      tag_16\n      jumpi\n      dup1\n      0xde292789\n      eq\n      tag_17\n      jumpi\n      dup1\n      0xea173865\n      eq\n      tag_18\n      jumpi\n      dup1\n      0xefbe1c1c\n      eq\n      tag_19\n      jumpi\n      dup1\n      0xf2fde38b\n      eq\n      tag_20\n      jumpi\n      jump(tag_2)\n    tag_22:\n      dup1\n      0x8e437c5f\n      eq\n      tag_12\n      jumpi\n      dup1\n      0xa5ad21dd\n      eq\n      tag_13\n      jumpi\n      dup1\n      0xb3f98adc\n      eq\n      tag_14\n      jumpi\n      dup1\n      0xb9fbd33f\n      eq\n      tag_15\n      jumpi\n      jump(tag_2)\n    tag_21:\n      dup1\n      0x3197cbb6\n      gt\n      tag_23\n      jumpi\n      dup1\n      0x3197cbb6\n      eq\n      tag_7\n      jumpi\n      dup1\n      0x557ed1ba\n      eq\n      tag_8\n      jumpi\n      dup1\n      0x6f0470aa\n      eq\n      tag_9\n      jumpi\n      dup1\n      0x715018a6\n      eq\n      tag_10\n      jumpi\n      dup1\n      0x8da5cb5b\n      eq\n      tag_11\n      jumpi\n      jump(tag_2)\n    tag_23:\n      dup1\n      0x056ae13b\n      eq\n      tag_3\n      jumpi\n      dup1\n      0x0fb5a6b4\n      eq\n      tag_4\n      jumpi\n      dup1\n      0x12fa6feb\n      eq\n      tag_5\n      jumpi\n      dup1\n      0x1f2698ab\n      eq\n      tag_6\n      jumpi\n    tag_2:\n      0x00\n      dup1\n      revert\n        /* \"defi-theory/contracts/004_Vote.sol\":597:626  uint8 public highestCandidate */\n    tag_3:\n      tag_24\n      tag_25\n      jump\t// in\n    tag_24:\n      mload(0x40)\n      tag_26\n      swap2\n      swap1\n      tag_27\n      jump\t// in\n    tag_26:\n      mload(0x40)\n      dup1\n      swap2\n      sub\n      swap1\n      return\n        /* \"defi-theory/contracts/004_Vote.sol\":255:275  uint public duration */\n    tag_4:\n      tag_28\n      tag_29\n      jump\t// in\n    tag_28:\n      mload(0x40)\n      tag_30\n      swap2\n      swap1\n      tag_31\n      jump\t// in\n    tag_30:\n      mload(0x40)\n      dup1\n      swap2\n      sub\n      swap1\n      return\n        /* \"defi-theory/contracts/004_Vote.sol\":306:323  bool public ended */\n    tag_5:\n      tag_32\n      tag_33\n      jump\t// in\n    tag_32:\n      mload(0x40)\n      tag_34\n      swap2\n      swap1\n      tag_35\n      jump\t// in\n    tag_34:\n      mload(0x40)\n      dup1\n      swap2\n      sub\n      swap1\n      return\n        /* \"defi-theory/contracts/004_Vote.sol\":281:300  bool public started */\n    tag_6:\n      tag_36\n      tag_37\n      jump\t// in\n    tag_36:\n      mload(0x40)\n      tag_38\n      swap2\n      swap1\n      tag_35\n      jump\t// in\n    tag_38:\n      mload(0x40)\n      dup1\n      swap2\n      sub\n      swap1\n      return\n        /* \"defi-theory/contracts/004_Vote.sol\":329:348  uint public endTime */\n    tag_7:\n      tag_39\n      tag_40\n      jump\t// in\n    tag_39:\n      mload(0x40)\n      tag_41\n      swap2\n      swap1\n      tag_31\n      jump\t// in\n    tag_41:\n      mload(0x40)\n      dup1\n      swap2\n      sub\n      swap1\n      return\n        /* \"defi-theory/contracts/004_Vote.sol\":1959:2042  function getTime() public view returns(uint){... */\n    tag_8:\n      tag_42\n      tag_43\n      jump\t// in\n    tag_42:\n      mload(0x40)\n      tag_44\n      swap2\n      swap1\n      tag_31\n      jump\t// in\n    tag_44:\n      mload(0x40)\n      dup1\n      swap2\n      sub\n      swap1\n      return\n        /* \"defi-theory/contracts/004_Vote.sol\":166:189  uint8 public candidates */\n    tag_9:\n      tag_45\n      tag_46\n      jump\t// in\n    tag_45:\n      mload(0x40)\n      tag_47\n      swap2\n      swap1\n      tag_27\n      jump\t// in\n    tag_47:\n      mload(0x40)\n      dup1\n      swap2\n      sub\n      swap1\n      return\n        /* \"@openzeppelin/contracts/access/Ownable.sol\":1824:1925  function renounceOwnership() public virtual onlyOwner {... */\n    tag_10:\n      tag_48\n      tag_49\n      jump\t// in\n    tag_48:\n      stop\n        /* \"@openzeppelin/contracts/access/Ownable.sol\":1201:1286  function owner() public view virtual returns (address) {... */\n    tag_11:\n      tag_50\n      tag_51\n      jump\t// in\n    tag_50:\n      mload(0x40)\n      tag_52\n      swap2\n      swap1\n      tag_53\n      jump\t// in\n    tag_52:\n      mload(0x40)\n      dup1\n      swap2\n      sub\n      swap1\n      return\n        /* \"defi-theory/contracts/004_Vote.sol\":211:230  uint public turnout */\n    tag_12:\n      tag_54\n      tag_55\n      jump\t// in\n    tag_54:\n      mload(0x40)\n      tag_56\n      swap2\n      swap1\n      tag_31\n      jump\t// in\n    tag_56:\n      mload(0x40)\n      dup1\n      swap2\n      sub\n      swap1\n      return\n        /* \"defi-theory/contracts/004_Vote.sol\":439:480  mapping(address => uint8) public votedMap */\n    tag_13:\n      tag_57\n      0x04\n      dup1\n      calldatasize\n      sub\n      dup2\n      add\n      swap1\n      tag_58\n      swap2\n      swap1\n      tag_59\n      jump\t// in\n    tag_58:\n      tag_60\n      jump\t// in\n    tag_57:\n      mload(0x40)\n      tag_61\n      swap2\n      swap1\n      tag_27\n      jump\t// in\n    tag_61:\n      mload(0x40)\n      dup1\n      swap2\n      sub\n      swap1\n      return\n        /* \"defi-theory/contracts/004_Vote.sol\":1247:1833  function vote(uint8 candidateIndex) external {... */\n    tag_14:\n      tag_62\n      0x04\n      dup1\n      calldatasize\n      sub\n      dup2\n      add\n      swap1\n      tag_63\n      swap2\n      swap1\n      tag_64\n      jump\t// in\n    tag_63:\n      tag_65\n      jump\t// in\n    tag_62:\n      stop\n        /* \"defi-theory/contracts/004_Vote.sol\":373:393  uint public votedNum */\n    tag_15:\n      tag_66\n      tag_67\n      jump\t// in\n    tag_66:\n      mload(0x40)\n      tag_68\n      swap2\n      swap1\n      tag_31\n      jump\t// in\n    tag_68:\n      mload(0x40)\n      dup1\n      swap2\n      sub\n      swap1\n      return\n        /* \"defi-theory/contracts/004_Vote.sol\":901:1038  function start() external onlyOwner {... */\n    tag_16:\n      tag_69\n      tag_70\n      jump\t// in\n    tag_69:\n      stop\n        /* \"defi-theory/contracts/004_Vote.sol\":1839:1954  function getResult() external view returns (uint8) {... */\n    tag_17:\n      tag_71\n      tag_72\n      jump\t// in\n    tag_71:\n      mload(0x40)\n      tag_73\n      swap2\n      swap1\n      tag_27\n      jump\t// in\n    tag_73:\n      mload(0x40)\n      dup1\n      swap2\n      sub\n      swap1\n      return\n        /* \"defi-theory/contracts/004_Vote.sol\":663:687  uint public highestScore */\n    tag_18:\n      tag_74\n      tag_75\n      jump\t// in\n    tag_74:\n      mload(0x40)\n      tag_76\n      swap2\n      swap1\n      tag_31\n      jump\t// in\n    tag_76:\n      mload(0x40)\n      dup1\n      swap2\n      sub\n      swap1\n      return\n        /* \"defi-theory/contracts/004_Vote.sol\":1044:1241  function end() public {... */\n    tag_19:\n      tag_77\n      tag_78\n      jump\t// in\n    tag_77:\n      stop\n        /* \"@openzeppelin/contracts/access/Ownable.sol\":2074:2272  function transferOwnership(address newOwner) public virtual onlyOwner {... */\n    tag_20:\n      tag_79\n      0x04\n      dup1\n      calldatasize\n      sub\n      dup2\n      add\n      swap1\n      tag_80\n      swap2\n      swap1\n      tag_59\n      jump\t// in\n    tag_80:\n      tag_81\n      jump\t// in\n    tag_79:\n      stop\n        /* \"defi-theory/contracts/004_Vote.sol\":597:626  uint8 public highestCandidate */\n    tag_25:\n      0x08\n      0x00\n      swap1\n      sload\n      swap1\n      0x0100\n      exp\n      swap1\n      div\n      0xff\n      and\n      dup2\n      jump\t// out\n        /* \"defi-theory/contracts/004_Vote.sol\":255:275  uint public duration */\n    tag_29:\n      sload(0x02)\n      dup2\n      jump\t// out\n        /* \"defi-theory/contracts/004_Vote.sol\":306:323  bool public ended */\n    tag_33:\n      0x03\n      0x01\n      swap1\n      sload\n      swap1\n      0x0100\n      exp\n      swap1\n      div\n      0xff\n      and\n      dup2\n      jump\t// out\n        /* \"defi-theory/contracts/004_Vote.sol\":281:300  bool public started */\n    tag_37:\n      0x03\n      0x00\n      swap1\n      sload\n      swap1\n      0x0100\n      exp\n      swap1\n      div\n      0xff\n      and\n      dup2\n      jump\t// out\n        /* \"defi-theory/contracts/004_Vote.sol\":329:348  uint public endTime */\n    tag_40:\n      sload(0x04)\n      dup2\n      jump\t// out\n        /* \"defi-theory/contracts/004_Vote.sol\":1959:2042  function getTime() public view returns(uint){... */\n    tag_43:\n        /* \"defi-theory/contracts/004_Vote.sol\":1998:2002  uint */\n      0x00\n        /* \"defi-theory/contracts/004_Vote.sol\":2020:2035  block.timestamp */\n      timestamp\n        /* \"defi-theory/contracts/004_Vote.sol\":2013:2035  return block.timestamp */\n      swap1\n      pop\n        /* \"defi-theory/contracts/004_Vote.sol\":1959:2042  function getTime() public view returns(uint){... */\n      swap1\n      jump\t// out\n        /* \"defi-theory/contracts/004_Vote.sol\":166:189  uint8 public candidates */\n    tag_46:\n      0x00\n      0x14\n      swap1\n      sload\n      swap1\n      0x0100\n      exp\n      swap1\n      div\n      0xff\n      and\n      dup2\n      jump\t// out\n        /* \"@openzeppelin/contracts/access/Ownable.sol\":1824:1925  function renounceOwnership() public virtual onlyOwner {... */\n    tag_49:\n        /* \"@openzeppelin/contracts/access/Ownable.sol\":1094:1107  _checkOwner() */\n      tag_84\n        /* \"@openzeppelin/contracts/access/Ownable.sol\":1094:1105  _checkOwner */\n      tag_85\n        /* \"@openzeppelin/contracts/access/Ownable.sol\":1094:1107  _checkOwner() */\n      jump\t// in\n    tag_84:\n        /* \"@openzeppelin/contracts/access/Ownable.sol\":1888:1918  _transferOwnership(address(0)) */\n      tag_87\n        /* \"@openzeppelin/contracts/access/Ownable.sol\":1915:1916  0 */\n      0x00\n        /* \"@openzeppelin/contracts/access/Ownable.sol\":1888:1906  _transferOwnership */\n      tag_88\n        /* \"@openzeppelin/contracts/access/Ownable.sol\":1888:1918  _transferOwnership(address(0)) */\n      jump\t// in\n    tag_87:\n        /* \"@openzeppelin/contracts/access/Ownable.sol\":1824:1925  function renounceOwnership() public virtual onlyOwner {... */\n      jump\t// out\n        /* \"@openzeppelin/contracts/access/Ownable.sol\":1201:1286  function owner() public view virtual returns (address) {... */\n    tag_51:\n        /* \"@openzeppelin/contracts/access/Ownable.sol\":1247:1254  address */\n      0x00\n        /* \"@openzeppelin/contracts/access/Ownable.sol\":1273:1279  _owner */\n      dup1\n      0x00\n      swap1\n      sload\n      swap1\n      0x0100\n      exp\n      swap1\n      div\n      0xffffffffffffffffffffffffffffffffffffffff\n      and\n        /* \"@openzeppelin/contracts/access/Ownable.sol\":1266:1279  return _owner */\n      swap1\n      pop\n        /* \"@openzeppelin/contracts/access/Ownable.sol\":1201:1286  function owner() public view virtual returns (address) {... */\n      swap1\n      jump\t// out\n        /* \"defi-theory/contracts/004_Vote.sol\":211:230  uint public turnout */\n    tag_55:\n      sload(0x01)\n      dup2\n      jump\t// out\n        /* \"defi-theory/contracts/004_Vote.sol\":439:480  mapping(address => uint8) public votedMap */\n    tag_60:\n      mstore(0x20, 0x06)\n      dup1\n      0x00\n      mstore\n      keccak256(0x00, 0x40)\n      0x00\n      swap2\n      pop\n      sload\n      swap1\n      0x0100\n      exp\n      swap1\n      div\n      0xff\n      and\n      dup2\n      jump\t// out\n        /* \"defi-theory/contracts/004_Vote.sol\":1247:1833  function vote(uint8 candidateIndex) external {... */\n    tag_65:\n        /* \"defi-theory/contracts/004_Vote.sol\":1320:1328  votedNum */\n      sload(0x05)\n        /* \"defi-theory/contracts/004_Vote.sol\":1310:1317  turnout */\n      sload(0x01)\n        /* \"defi-theory/contracts/004_Vote.sol\":1310:1328  turnout > votedNum */\n      gt\n        /* \"defi-theory/contracts/004_Vote.sol\":1302:1341  require(turnout > votedNum,\"over user\") */\n      tag_91\n      jumpi\n      mload(0x40)\n      0x08c379a000000000000000000000000000000000000000000000000000000000\n      dup2\n      mstore\n      0x04\n      add\n      tag_92\n      swap1\n      tag_93\n      jump\t// in\n    tag_92:\n      mload(0x40)\n      dup1\n      swap2\n      sub\n      swap1\n      revert\n    tag_91:\n        /* \"defi-theory/contracts/004_Vote.sol\":1383:1384  0 */\n      0x00\n        /* \"defi-theory/contracts/004_Vote.sol\":1359:1367  votedMap */\n      0x06\n        /* \"defi-theory/contracts/004_Vote.sol\":1359:1379  votedMap[msg.sender] */\n      0x00\n        /* \"defi-theory/contracts/004_Vote.sol\":1368:1378  msg.sender */\n      caller\n        /* \"defi-theory/contracts/004_Vote.sol\":1359:1379  votedMap[msg.sender] */\n      0xffffffffffffffffffffffffffffffffffffffff\n      and\n      0xffffffffffffffffffffffffffffffffffffffff\n      and\n      dup2\n      mstore\n      0x20\n      add\n      swap1\n      dup2\n      mstore\n      0x20\n      add\n      0x00\n      keccak256\n      0x00\n      swap1\n      sload\n      swap1\n      0x0100\n      exp\n      swap1\n      div\n      0xff\n      and\n        /* \"defi-theory/contracts/004_Vote.sol\":1359:1384  votedMap[msg.sender] == 0 */\n      0xff\n      and\n      eq\n        /* \"defi-theory/contracts/004_Vote.sol\":1351:1402  require(votedMap[msg.sender] == 0 , \"Not eligible\") */\n      tag_94\n      jumpi\n      mload(0x40)\n      0x08c379a000000000000000000000000000000000000000000000000000000000\n      dup2\n      mstore\n      0x04\n      add\n      tag_95\n      swap1\n      tag_96\n      jump\t// in\n    tag_95:\n      mload(0x40)\n      dup1\n      swap2\n      sub\n      swap1\n      revert\n    tag_94:\n        /* \"defi-theory/contracts/004_Vote.sol\":1431:1435  true */\n      0x01\n        /* \"defi-theory/contracts/004_Vote.sol\":1420:1435  started == true */\n      iszero\n      iszero\n        /* \"defi-theory/contracts/004_Vote.sol\":1420:1427  started */\n      0x03\n      0x00\n      swap1\n      sload\n      swap1\n      0x0100\n      exp\n      swap1\n      div\n      0xff\n      and\n        /* \"defi-theory/contracts/004_Vote.sol\":1420:1435  started == true */\n      iszero\n      iszero\n      eq\n        /* \"defi-theory/contracts/004_Vote.sol\":1412:1451  require(started == true, \"not started\") */\n      tag_97\n      jumpi\n      mload(0x40)\n      0x08c379a000000000000000000000000000000000000000000000000000000000\n      dup2\n      mstore\n      0x04\n      add\n      tag_98\n      swap1\n      tag_99\n      jump\t// in\n    tag_98:\n      mload(0x40)\n      dup1\n      swap2\n      sub\n      swap1\n      revert\n    tag_97:\n        /* \"defi-theory/contracts/004_Vote.sol\":1478:1482  true */\n      0x01\n        /* \"defi-theory/contracts/004_Vote.sol\":1469:1482  ended != true */\n      iszero\n      iszero\n        /* \"defi-theory/contracts/004_Vote.sol\":1469:1474  ended */\n      0x03\n      0x01\n      swap1\n      sload\n      swap1\n      0x0100\n      exp\n      swap1\n      div\n      0xff\n      and\n        /* \"defi-theory/contracts/004_Vote.sol\":1469:1482  ended != true */\n      iszero\n      iszero\n      sub\n        /* \"defi-theory/contracts/004_Vote.sol\":1461:1499  require(ended != true, \"already over\") */\n      tag_100\n      jumpi\n      mload(0x40)\n      0x08c379a000000000000000000000000000000000000000000000000000000000\n      dup2\n      mstore\n      0x04\n      add\n      tag_101\n      swap1\n      tag_102\n      jump\t// in\n    tag_101:\n      mload(0x40)\n      dup1\n      swap2\n      sub\n      swap1\n      revert\n    tag_100:\n        /* \"defi-theory/contracts/004_Vote.sol\":1535:1542  endTime */\n      sload(0x04)\n        /* \"defi-theory/contracts/004_Vote.sol\":1517:1532  block.timestamp */\n      timestamp\n        /* \"defi-theory/contracts/004_Vote.sol\":1517:1542  block.timestamp < endTime */\n      lt\n        /* \"defi-theory/contracts/004_Vote.sol\":1509:1556  require(block.timestamp < endTime, \"over time\") */\n      tag_103\n      jumpi\n      mload(0x40)\n      0x08c379a000000000000000000000000000000000000000000000000000000000\n      dup2\n      mstore\n      0x04\n      add\n      tag_104\n      swap1\n      tag_105\n      jump\t// in\n    tag_104:\n      mload(0x40)\n      dup1\n      swap2\n      sub\n      swap1\n      revert\n    tag_103:\n        /* \"defi-theory/contracts/004_Vote.sol\":1589:1603  candidateIndex */\n      dup1\n        /* \"defi-theory/contracts/004_Vote.sol\":1566:1574  votedMap */\n      0x06\n        /* \"defi-theory/contracts/004_Vote.sol\":1566:1586  votedMap[msg.sender] */\n      0x00\n        /* \"defi-theory/contracts/004_Vote.sol\":1575:1585  msg.sender */\n      caller\n        /* \"defi-theory/contracts/004_Vote.sol\":1566:1586  votedMap[msg.sender] */\n      0xffffffffffffffffffffffffffffffffffffffff\n      and\n      0xffffffffffffffffffffffffffffffffffffffff\n      and\n      dup2\n      mstore\n      0x20\n      add\n      swap1\n      dup2\n      mstore\n      0x20\n      add\n      0x00\n      keccak256\n      0x00\n        /* \"defi-theory/contracts/004_Vote.sol\":1566:1603  votedMap[msg.sender] = candidateIndex */\n      0x0100\n      exp\n      dup2\n      sload\n      dup2\n      0xff\n      mul\n      not\n      and\n      swap1\n      dup4\n      0xff\n      and\n      mul\n      or\n      swap1\n      sstore\n      pop\n        /* \"defi-theory/contracts/004_Vote.sol\":1641:1642  1 */\n      0x01\n        /* \"defi-theory/contracts/004_Vote.sol\":1613:1621  scoreMap */\n      0x07\n        /* \"defi-theory/contracts/004_Vote.sol\":1613:1637  scoreMap[candidateIndex] */\n      0x00\n        /* \"defi-theory/contracts/004_Vote.sol\":1622:1636  candidateIndex */\n      dup4\n        /* \"defi-theory/contracts/004_Vote.sol\":1613:1637  scoreMap[candidateIndex] */\n      0xff\n      and\n      0xff\n      and\n      dup2\n      mstore\n      0x20\n      add\n      swap1\n      dup2\n      mstore\n      0x20\n      add\n      0x00\n      keccak256\n      0x00\n        /* \"defi-theory/contracts/004_Vote.sol\":1613:1642  scoreMap[candidateIndex] += 1 */\n      dup3\n      dup3\n      sload\n      tag_106\n      swap2\n      swap1\n      tag_107\n      jump\t// in\n    tag_106:\n      swap3\n      pop\n      pop\n      dup2\n      swap1\n      sstore\n      pop\n        /* \"defi-theory/contracts/004_Vote.sol\":1682:1694  highestScore */\n      sload(0x09)\n        /* \"defi-theory/contracts/004_Vote.sol\":1655:1663  scoreMap */\n      0x07\n        /* \"defi-theory/contracts/004_Vote.sol\":1655:1679  scoreMap[candidateIndex] */\n      0x00\n        /* \"defi-theory/contracts/004_Vote.sol\":1664:1678  candidateIndex */\n      dup4\n        /* \"defi-theory/contracts/004_Vote.sol\":1655:1679  scoreMap[candidateIndex] */\n      0xff\n      and\n      0xff\n      and\n      dup2\n      mstore\n      0x20\n      add\n      swap1\n      dup2\n      mstore\n      0x20\n      add\n      0x00\n      keccak256\n      sload\n        /* \"defi-theory/contracts/004_Vote.sol\":1655:1694  scoreMap[candidateIndex] > highestScore */\n      gt\n        /* \"defi-theory/contracts/004_Vote.sol\":1652:1806  if(scoreMap[candidateIndex] > highestScore){... */\n      iszero\n      tag_108\n      jumpi\n        /* \"defi-theory/contracts/004_Vote.sol\":1728:1742  candidateIndex */\n      dup1\n        /* \"defi-theory/contracts/004_Vote.sol\":1709:1725  highestCandidate */\n      0x08\n      0x00\n        /* \"defi-theory/contracts/004_Vote.sol\":1709:1742  highestCandidate = candidateIndex */\n      0x0100\n      exp\n      dup2\n      sload\n      dup2\n      0xff\n      mul\n      not\n      and\n      swap1\n      dup4\n      0xff\n      and\n      mul\n      or\n      swap1\n      sstore\n      pop\n        /* \"defi-theory/contracts/004_Vote.sol\":1771:1779  scoreMap */\n      0x07\n        /* \"defi-theory/contracts/004_Vote.sol\":1771:1795  scoreMap[candidateIndex] */\n      0x00\n        /* \"defi-theory/contracts/004_Vote.sol\":1780:1794  candidateIndex */\n      dup3\n        /* \"defi-theory/contracts/004_Vote.sol\":1771:1795  scoreMap[candidateIndex] */\n      0xff\n      and\n      0xff\n      and\n      dup2\n      mstore\n      0x20\n      add\n      swap1\n      dup2\n      mstore\n      0x20\n      add\n      0x00\n      keccak256\n      sload\n        /* \"defi-theory/contracts/004_Vote.sol\":1756:1768  highestScore */\n      0x09\n        /* \"defi-theory/contracts/004_Vote.sol\":1756:1795  highestScore = scoreMap[candidateIndex] */\n      dup2\n      swap1\n      sstore\n      pop\n        /* \"defi-theory/contracts/004_Vote.sol\":1652:1806  if(scoreMap[candidateIndex] > highestScore){... */\n    tag_108:\n        /* \"defi-theory/contracts/004_Vote.sol\":1815:1823  votedNum */\n      0x05\n      0x00\n        /* \"defi-theory/contracts/004_Vote.sol\":1815:1826  votedNum ++ */\n      dup2\n      sload\n      dup1\n      swap3\n      swap2\n      swap1\n      tag_109\n      swap1\n      tag_110\n      jump\t// in\n    tag_109:\n      swap2\n      swap1\n      pop\n      sstore\n      pop\n        /* \"defi-theory/contracts/004_Vote.sol\":1247:1833  function vote(uint8 candidateIndex) external {... */\n      pop\n      jump\t// out\n        /* \"defi-theory/contracts/004_Vote.sol\":373:393  uint public votedNum */\n    tag_67:\n      sload(0x05)\n      dup2\n      jump\t// out\n        /* \"defi-theory/contracts/004_Vote.sol\":901:1038  function start() external onlyOwner {... */\n    tag_70:\n        /* \"@openzeppelin/contracts/access/Ownable.sol\":1094:1107  _checkOwner() */\n      tag_112\n        /* \"@openzeppelin/contracts/access/Ownable.sol\":1094:1105  _checkOwner */\n      tag_85\n        /* \"@openzeppelin/contracts/access/Ownable.sol\":1094:1107  _checkOwner() */\n      jump\t// in\n    tag_112:\n        /* \"defi-theory/contracts/004_Vote.sol\":957:961  true */\n      0x01\n        /* \"defi-theory/contracts/004_Vote.sol\":947:954  started */\n      0x03\n      0x00\n        /* \"defi-theory/contracts/004_Vote.sol\":947:961  started = true */\n      0x0100\n      exp\n      dup2\n      sload\n      dup2\n      0xff\n      mul\n      not\n      and\n      swap1\n      dup4\n      iszero\n      iszero\n      mul\n      or\n      swap1\n      sstore\n      pop\n        /* \"defi-theory/contracts/004_Vote.sol\":999:1007  duration */\n      sload(0x02)\n        /* \"defi-theory/contracts/004_Vote.sol\":981:996  block.timestamp */\n      timestamp\n        /* \"defi-theory/contracts/004_Vote.sol\":981:1007  block.timestamp + duration */\n      tag_114\n      swap2\n      swap1\n      tag_107\n      jump\t// in\n    tag_114:\n        /* \"defi-theory/contracts/004_Vote.sol\":971:978  endTime */\n      0x04\n        /* \"defi-theory/contracts/004_Vote.sol\":971:1007  endTime = block.timestamp + duration */\n      dup2\n      swap1\n      sstore\n      pop\n        /* \"defi-theory/contracts/004_Vote.sol\":1022:1031  Started() */\n      0xd8cea0ecd56872ff072e771658b5682ffe4de16d752947f79597d600ea56f7a9\n      mload(0x40)\n      mload(0x40)\n      dup1\n      swap2\n      sub\n      swap1\n      log1\n        /* \"defi-theory/contracts/004_Vote.sol\":901:1038  function start() external onlyOwner {... */\n      jump\t// out\n        /* \"defi-theory/contracts/004_Vote.sol\":1839:1954  function getResult() external view returns (uint8) {... */\n    tag_72:\n        /* \"defi-theory/contracts/004_Vote.sol\":1883:1888  uint8 */\n      0x00\n        /* \"defi-theory/contracts/004_Vote.sol\":1908:1913  ended */\n      0x03\n      0x01\n      swap1\n      sload\n      swap1\n      0x0100\n      exp\n      swap1\n      div\n      0xff\n      and\n        /* \"defi-theory/contracts/004_Vote.sol\":1900:1914  require(ended) */\n      tag_116\n      jumpi\n      0x00\n      dup1\n      revert\n    tag_116:\n        /* \"defi-theory/contracts/004_Vote.sol\":1931:1947  highestCandidate */\n      0x08\n      0x00\n      swap1\n      sload\n      swap1\n      0x0100\n      exp\n      swap1\n      div\n      0xff\n      and\n        /* \"defi-theory/contracts/004_Vote.sol\":1924:1947  return highestCandidate */\n      swap1\n      pop\n        /* \"defi-theory/contracts/004_Vote.sol\":1839:1954  function getResult() external view returns (uint8) {... */\n      swap1\n      jump\t// out\n        /* \"defi-theory/contracts/004_Vote.sol\":663:687  uint public highestScore */\n    tag_75:\n      sload(0x09)\n      dup2\n      jump\t// out\n        /* \"defi-theory/contracts/004_Vote.sol\":1044:1241  function end() public {... */\n    tag_78:\n        /* \"defi-theory/contracts/004_Vote.sol\":1095:1099  true */\n      0x01\n        /* \"defi-theory/contracts/004_Vote.sol\":1084:1099  started == true */\n      iszero\n      iszero\n        /* \"defi-theory/contracts/004_Vote.sol\":1084:1091  started */\n      0x03\n      0x00\n      swap1\n      sload\n      swap1\n      0x0100\n      exp\n      swap1\n      div\n      0xff\n      and\n        /* \"defi-theory/contracts/004_Vote.sol\":1084:1099  started == true */\n      iszero\n      iszero\n      eq\n        /* \"defi-theory/contracts/004_Vote.sol\":1076:1115  require(started == true, \"not started\") */\n      tag_118\n      jumpi\n      mload(0x40)\n      0x08c379a000000000000000000000000000000000000000000000000000000000\n      dup2\n      mstore\n      0x04\n      add\n      tag_119\n      swap1\n      tag_99\n      jump\t// in\n    tag_119:\n      mload(0x40)\n      dup1\n      swap2\n      sub\n      swap1\n      revert\n    tag_118:\n        /* \"defi-theory/contracts/004_Vote.sol\":1151:1158  endTime */\n      sload(0x04)\n        /* \"defi-theory/contracts/004_Vote.sol\":1133:1148  block.timestamp */\n      timestamp\n        /* \"defi-theory/contracts/004_Vote.sol\":1133:1158  block.timestamp > endTime */\n      gt\n        /* \"defi-theory/contracts/004_Vote.sol\":1125:1190  require(block.timestamp > endTime, \"not yet the designated time\") */\n      tag_120\n      jumpi\n      mload(0x40)\n      0x08c379a000000000000000000000000000000000000000000000000000000000\n      dup2\n      mstore\n      0x04\n      add\n      tag_121\n      swap1\n      tag_122\n      jump\t// in\n    tag_121:\n      mload(0x40)\n      dup1\n      swap2\n      sub\n      swap1\n      revert\n    tag_120:\n        /* \"defi-theory/contracts/004_Vote.sol\":1208:1212  true */\n      0x01\n        /* \"defi-theory/contracts/004_Vote.sol\":1200:1205  ended */\n      0x03\n      0x01\n        /* \"defi-theory/contracts/004_Vote.sol\":1200:1212  ended = true */\n      0x0100\n      exp\n      dup2\n      sload\n      dup2\n      0xff\n      mul\n      not\n      and\n      swap1\n      dup4\n      iszero\n      iszero\n      mul\n      or\n      swap1\n      sstore\n      pop\n        /* \"defi-theory/contracts/004_Vote.sol\":1227:1234  Ended() */\n      0x477383f34069ce6129e1b6e0cbbdedb319ee49ef85677e403c26c37405ada46d\n      mload(0x40)\n      mload(0x40)\n      dup1\n      swap2\n      sub\n      swap1\n      log1\n        /* \"defi-theory/contracts/004_Vote.sol\":1044:1241  function end() public {... */\n      jump\t// out\n        /* \"@openzeppelin/contracts/access/Ownable.sol\":2074:2272  function transferOwnership(address newOwner) public virtual onlyOwner {... */\n    tag_81:\n        /* \"@openzeppelin/contracts/access/Ownable.sol\":1094:1107  _checkOwner() */\n      tag_124\n        /* \"@openzeppelin/contracts/access/Ownable.sol\":1094:1105  _checkOwner */\n      tag_85\n        /* \"@openzeppelin/contracts/access/Ownable.sol\":1094:1107  _checkOwner() */\n      jump\t// in\n    tag_124:\n        /* \"@openzeppelin/contracts/access/Ownable.sol\":2182:2183  0 */\n      0x00\n        /* \"@openzeppelin/contracts/access/Ownable.sol\":2162:2184  newOwner != address(0) */\n      0xffffffffffffffffffffffffffffffffffffffff\n      and\n        /* \"@openzeppelin/contracts/access/Ownable.sol\":2162:2170  newOwner */\n      dup2\n        /* \"@openzeppelin/contracts/access/Ownable.sol\":2162:2184  newOwner != address(0) */\n      0xffffffffffffffffffffffffffffffffffffffff\n      and\n      sub\n        /* \"@openzeppelin/contracts/access/Ownable.sol\":2154:2227  require(newOwner != address(0), \"Ownable: new owner is the zero address\") */\n      tag_126\n      jumpi\n      mload(0x40)\n      0x08c379a000000000000000000000000000000000000000000000000000000000\n      dup2\n      mstore\n      0x04\n      add\n      tag_127\n      swap1\n      tag_128\n      jump\t// in\n    tag_127:\n      mload(0x40)\n      dup1\n      swap2\n      sub\n      swap1\n      revert\n    tag_126:\n        /* \"@openzeppelin/contracts/access/Ownable.sol\":2237:2265  _transferOwnership(newOwner) */\n      tag_129\n        /* \"@openzeppelin/contracts/access/Ownable.sol\":2256:2264  newOwner */\n      dup2\n        /* \"@openzeppelin/contracts/access/Ownable.sol\":2237:2255  _transferOwnership */\n      tag_88\n        /* \"@openzeppelin/contracts/access/Ownable.sol\":2237:2265  _transferOwnership(newOwner) */\n      jump\t// in\n    tag_129:\n        /* \"@openzeppelin/contracts/access/Ownable.sol\":2074:2272  function transferOwnership(address newOwner) public virtual onlyOwner {... */\n      pop\n      jump\t// out\n        /* \"@openzeppelin/contracts/access/Ownable.sol\":1359:1489  function _checkOwner() internal view virtual {... */\n    tag_85:\n        /* \"@openzeppelin/contracts/access/Ownable.sol\":1433:1445  _msgSender() */\n      tag_131\n        /* \"@openzeppelin/contracts/access/Ownable.sol\":1433:1443  _msgSender */\n      tag_132\n        /* \"@openzeppelin/contracts/access/Ownable.sol\":1433:1445  _msgSender() */\n      jump\t// in\n    tag_131:\n        /* \"@openzeppelin/contracts/access/Ownable.sol\":1422:1445  owner() == _msgSender() */\n      0xffffffffffffffffffffffffffffffffffffffff\n      and\n        /* \"@openzeppelin/contracts/access/Ownable.sol\":1422:1429  owner() */\n      tag_133\n        /* \"@openzeppelin/contracts/access/Ownable.sol\":1422:1427  owner */\n      tag_51\n        /* \"@openzeppelin/contracts/access/Ownable.sol\":1422:1429  owner() */\n      jump\t// in\n    tag_133:\n        /* \"@openzeppelin/contracts/access/Ownable.sol\":1422:1445  owner() == _msgSender() */\n      0xffffffffffffffffffffffffffffffffffffffff\n      and\n      eq\n        /* \"@openzeppelin/contracts/access/Ownable.sol\":1414:1482  require(owner() == _msgSender(), \"Ownable: caller is not the owner\") */\n      tag_134\n      jumpi\n      mload(0x40)\n      0x08c379a000000000000000000000000000000000000000000000000000000000\n      dup2\n      mstore\n      0x04\n      add\n      tag_135\n      swap1\n      tag_136\n      jump\t// in\n    tag_135:\n      mload(0x40)\n      dup1\n      swap2\n      sub\n      swap1\n      revert\n    tag_134:\n        /* \"@openzeppelin/contracts/access/Ownable.sol\":1359:1489  function _checkOwner() internal view virtual {... */\n      jump\t// out\n        /* \"@openzeppelin/contracts/access/Ownable.sol\":2426:2613  function _transferOwnership(address newOwner) internal virtual {... */\n    tag_88:\n        /* \"@openzeppelin/contracts/access/Ownable.sol\":2499:2515  address oldOwner */\n      0x00\n        /* \"@openzeppelin/contracts/access/Ownable.sol\":2518:2524  _owner */\n      dup1\n      0x00\n      swap1\n      sload\n      swap1\n      0x0100\n      exp\n      swap1\n      div\n      0xffffffffffffffffffffffffffffffffffffffff\n      and\n        /* \"@openzeppelin/contracts/access/Ownable.sol\":2499:2524  address oldOwner = _owner */\n      swap1\n      pop\n        /* \"@openzeppelin/contracts/access/Ownable.sol\":2543:2551  newOwner */\n      dup2\n        /* \"@openzeppelin/contracts/access/Ownable.sol\":2534:2540  _owner */\n      0x00\n      dup1\n        /* \"@openzeppelin/contracts/access/Ownable.sol\":2534:2551  _owner = newOwner */\n      0x0100\n      exp\n      dup2\n      sload\n      dup2\n      0xffffffffffffffffffffffffffffffffffffffff\n      mul\n      not\n      and\n      swap1\n      dup4\n      0xffffffffffffffffffffffffffffffffffffffff\n      and\n      mul\n      or\n      swap1\n      sstore\n      pop\n        /* \"@openzeppelin/contracts/access/Ownable.sol\":2597:2605  newOwner */\n      dup2\n        /* \"@openzeppelin/contracts/access/Ownable.sol\":2566:2606  OwnershipTransferred(oldOwner, newOwner) */\n      0xffffffffffffffffffffffffffffffffffffffff\n      and\n        /* \"@openzeppelin/contracts/access/Ownable.sol\":2587:2595  oldOwner */\n      dup2\n        /* \"@openzeppelin/contracts/access/Ownable.sol\":2566:2606  OwnershipTransferred(oldOwner, newOwner) */\n      0xffffffffffffffffffffffffffffffffffffffff\n      and\n      0x8be0079c531659141344cd1fd0a4f28419497f9722a3daafe3b4186f6b6457e0\n      mload(0x40)\n      mload(0x40)\n      dup1\n      swap2\n      sub\n      swap1\n      log3\n        /* \"@openzeppelin/contracts/access/Ownable.sol\":2489:2613  {... */\n      pop\n        /* \"@openzeppelin/contracts/access/Ownable.sol\":2426:2613  function _transferOwnership(address newOwner) internal virtual {... */\n      pop\n      jump\t// out\n        /* \"@openzeppelin/contracts/utils/Context.sol\":640:736  function _msgSender() internal view virtual returns (address) {... */\n    tag_132:\n        /* \"@openzeppelin/contracts/utils/Context.sol\":693:700  address */\n      0x00\n        /* \"@openzeppelin/contracts/utils/Context.sol\":719:729  msg.sender */\n      caller\n        /* \"@openzeppelin/contracts/utils/Context.sol\":712:729  return msg.sender */\n      swap1\n      pop\n        /* \"@openzeppelin/contracts/utils/Context.sol\":640:736  function _msgSender() internal view virtual returns (address) {... */\n      swap1\n      jump\t// out\n        /* \"#utility.yul\":7:93   */\n    tag_139:\n        /* \"#utility.yul\":42:49   */\n      0x00\n        /* \"#utility.yul\":82:86   */\n      0xff\n        /* \"#utility.yul\":75:80   */\n      dup3\n        /* \"#utility.yul\":71:87   */\n      and\n        /* \"#utility.yul\":60:87   */\n      swap1\n      pop\n        /* \"#utility.yul\":7:93   */\n      swap2\n      swap1\n      pop\n      jump\t// out\n        /* \"#utility.yul\":99:211   */\n    tag_140:\n        /* \"#utility.yul\":182:204   */\n      tag_176\n        /* \"#utility.yul\":198:203   */\n      dup2\n        /* \"#utility.yul\":182:204   */\n      tag_139\n      jump\t// in\n    tag_176:\n        /* \"#utility.yul\":177:180   */\n      dup3\n        /* \"#utility.yul\":170:205   */\n      mstore\n        /* \"#utility.yul\":99:211   */\n      pop\n      pop\n      jump\t// out\n        /* \"#utility.yul\":217:431   */\n    tag_27:\n        /* \"#utility.yul\":306:310   */\n      0x00\n        /* \"#utility.yul\":344:346   */\n      0x20\n        /* \"#utility.yul\":333:342   */\n      dup3\n        /* \"#utility.yul\":329:347   */\n      add\n        /* \"#utility.yul\":321:347   */\n      swap1\n      pop\n        /* \"#utility.yul\":357:424   */\n      tag_178\n        /* \"#utility.yul\":421:422   */\n      0x00\n        /* \"#utility.yul\":410:419   */\n      dup4\n        /* \"#utility.yul\":406:423   */\n      add\n        /* \"#utility.yul\":397:403   */\n      dup5\n        /* \"#utility.yul\":357:424   */\n      tag_140\n      jump\t// in\n    tag_178:\n        /* \"#utility.yul\":217:431   */\n      swap3\n      swap2\n      pop\n      pop\n      jump\t// out\n        /* \"#utility.yul\":437:514   */\n    tag_141:\n        /* \"#utility.yul\":474:481   */\n      0x00\n        /* \"#utility.yul\":503:508   */\n      dup2\n        /* \"#utility.yul\":492:508   */\n      swap1\n      pop\n        /* \"#utility.yul\":437:514   */\n      swap2\n      swap1\n      pop\n      jump\t// out\n        /* \"#utility.yul\":520:638   */\n    tag_142:\n        /* \"#utility.yul\":607:631   */\n      tag_181\n        /* \"#utility.yul\":625:630   */\n      dup2\n        /* \"#utility.yul\":607:631   */\n      tag_141\n      jump\t// in\n    tag_181:\n        /* \"#utility.yul\":602:605   */\n      dup3\n        /* \"#utility.yul\":595:632   */\n      mstore\n        /* \"#utility.yul\":520:638   */\n      pop\n      pop\n      jump\t// out\n        /* \"#utility.yul\":644:866   */\n    tag_31:\n        /* \"#utility.yul\":737:741   */\n      0x00\n        /* \"#utility.yul\":775:777   */\n      0x20\n        /* \"#utility.yul\":764:773   */\n      dup3\n        /* \"#utility.yul\":760:778   */\n      add\n        /* \"#utility.yul\":752:778   */\n      swap1\n      pop\n        /* \"#utility.yul\":788:859   */\n      tag_183\n        /* \"#utility.yul\":856:857   */\n      0x00\n        /* \"#utility.yul\":845:854   */\n      dup4\n        /* \"#utility.yul\":841:858   */\n      add\n        /* \"#utility.yul\":832:838   */\n      dup5\n        /* \"#utility.yul\":788:859   */\n      tag_142\n      jump\t// in\n    tag_183:\n        /* \"#utility.yul\":644:866   */\n      swap3\n      swap2\n      pop\n      pop\n      jump\t// out\n        /* \"#utility.yul\":872:962   */\n    tag_143:\n        /* \"#utility.yul\":906:913   */\n      0x00\n        /* \"#utility.yul\":949:954   */\n      dup2\n        /* \"#utility.yul\":942:955   */\n      iszero\n        /* \"#utility.yul\":935:956   */\n      iszero\n        /* \"#utility.yul\":924:956   */\n      swap1\n      pop\n        /* \"#utility.yul\":872:962   */\n      swap2\n      swap1\n      pop\n      jump\t// out\n        /* \"#utility.yul\":968:1077   */\n    tag_144:\n        /* \"#utility.yul\":1049:1070   */\n      tag_186\n        /* \"#utility.yul\":1064:1069   */\n      dup2\n        /* \"#utility.yul\":1049:1070   */\n      tag_143\n      jump\t// in\n    tag_186:\n        /* \"#utility.yul\":1044:1047   */\n      dup3\n        /* \"#utility.yul\":1037:1071   */\n      mstore\n        /* \"#utility.yul\":968:1077   */\n      pop\n      pop\n      jump\t// out\n        /* \"#utility.yul\":1083:1293   */\n    tag_35:\n        /* \"#utility.yul\":1170:1174   */\n      0x00\n        /* \"#utility.yul\":1208:1210   */\n      0x20\n        /* \"#utility.yul\":1197:1206   */\n      dup3\n        /* \"#utility.yul\":1193:1211   */\n      add\n        /* \"#utility.yul\":1185:1211   */\n      swap1\n      pop\n        /* \"#utility.yul\":1221:1286   */\n      tag_188\n        /* \"#utility.yul\":1283:1284   */\n      0x00\n        /* \"#utility.yul\":1272:1281   */\n      dup4\n        /* \"#utility.yul\":1268:1285   */\n      add\n        /* \"#utility.yul\":1259:1265   */\n      dup5\n        /* \"#utility.yul\":1221:1286   */\n      tag_144\n      jump\t// in\n    tag_188:\n        /* \"#utility.yul\":1083:1293   */\n      swap3\n      swap2\n      pop\n      pop\n      jump\t// out\n        /* \"#utility.yul\":1299:1425   */\n    tag_145:\n        /* \"#utility.yul\":1336:1343   */\n      0x00\n        /* \"#utility.yul\":1376:1418   */\n      0xffffffffffffffffffffffffffffffffffffffff\n        /* \"#utility.yul\":1369:1374   */\n      dup3\n        /* \"#utility.yul\":1365:1419   */\n      and\n        /* \"#utility.yul\":1354:1419   */\n      swap1\n      pop\n        /* \"#utility.yul\":1299:1425   */\n      swap2\n      swap1\n      pop\n      jump\t// out\n        /* \"#utility.yul\":1431:1527   */\n    tag_146:\n        /* \"#utility.yul\":1468:1475   */\n      0x00\n        /* \"#utility.yul\":1497:1521   */\n      tag_191\n        /* \"#utility.yul\":1515:1520   */\n      dup3\n        /* \"#utility.yul\":1497:1521   */\n      tag_145\n      jump\t// in\n    tag_191:\n        /* \"#utility.yul\":1486:1521   */\n      swap1\n      pop\n        /* \"#utility.yul\":1431:1527   */\n      swap2\n      swap1\n      pop\n      jump\t// out\n        /* \"#utility.yul\":1533:1651   */\n    tag_147:\n        /* \"#utility.yul\":1620:1644   */\n      tag_193\n        /* \"#utility.yul\":1638:1643   */\n      dup2\n        /* \"#utility.yul\":1620:1644   */\n      tag_146\n      jump\t// in\n    tag_193:\n        /* \"#utility.yul\":1615:1618   */\n      dup3\n        /* \"#utility.yul\":1608:1645   */\n      mstore\n        /* \"#utility.yul\":1533:1651   */\n      pop\n      pop\n      jump\t// out\n        /* \"#utility.yul\":1657:1879   */\n    tag_53:\n        /* \"#utility.yul\":1750:1754   */\n      0x00\n        /* \"#utility.yul\":1788:1790   */\n      0x20\n        /* \"#utility.yul\":1777:1786   */\n      dup3\n        /* \"#utility.yul\":1773:1791   */\n      add\n        /* \"#utility.yul\":1765:1791   */\n      swap1\n      pop\n        /* \"#utility.yul\":1801:1872   */\n      tag_195\n        /* \"#utility.yul\":1869:1870   */\n      0x00\n        /* \"#utility.yul\":1858:1867   */\n      dup4\n        /* \"#utility.yul\":1854:1871   */\n      add\n        /* \"#utility.yul\":1845:1851   */\n      dup5\n        /* \"#utility.yul\":1801:1872   */\n      tag_147\n      jump\t// in\n    tag_195:\n        /* \"#utility.yul\":1657:1879   */\n      swap3\n      swap2\n      pop\n      pop\n      jump\t// out\n        /* \"#utility.yul\":1966:2083   */\n    tag_149:\n        /* \"#utility.yul\":2075:2076   */\n      0x00\n        /* \"#utility.yul\":2072:2073   */\n      dup1\n        /* \"#utility.yul\":2065:2077   */\n      revert\n        /* \"#utility.yul\":2212:2334   */\n    tag_151:\n        /* \"#utility.yul\":2285:2309   */\n      tag_200\n        /* \"#utility.yul\":2303:2308   */\n      dup2\n        /* \"#utility.yul\":2285:2309   */\n      tag_146\n      jump\t// in\n    tag_200:\n        /* \"#utility.yul\":2278:2283   */\n      dup2\n        /* \"#utility.yul\":2275:2310   */\n      eq\n        /* \"#utility.yul\":2265:2328   */\n      tag_201\n      jumpi\n        /* \"#utility.yul\":2324:2325   */\n      0x00\n        /* \"#utility.yul\":2321:2322   */\n      dup1\n        /* \"#utility.yul\":2314:2326   */\n      revert\n        /* \"#utility.yul\":2265:2328   */\n    tag_201:\n        /* \"#utility.yul\":2212:2334   */\n      pop\n      jump\t// out\n        /* \"#utility.yul\":2340:2479   */\n    tag_152:\n        /* \"#utility.yul\":2386:2391   */\n      0x00\n        /* \"#utility.yul\":2424:2430   */\n      dup2\n        /* \"#utility.yul\":2411:2431   */\n      calldataload\n        /* \"#utility.yul\":2402:2431   */\n      swap1\n      pop\n        /* \"#utility.yul\":2440:2473   */\n      tag_203\n        /* \"#utility.yul\":2467:2472   */\n      dup2\n        /* \"#utility.yul\":2440:2473   */\n      tag_151\n      jump\t// in\n    tag_203:\n        /* \"#utility.yul\":2340:2479   */\n      swap3\n      swap2\n      pop\n      pop\n      jump\t// out\n        /* \"#utility.yul\":2485:2814   */\n    tag_59:\n        /* \"#utility.yul\":2544:2550   */\n      0x00\n        /* \"#utility.yul\":2593:2595   */\n      0x20\n        /* \"#utility.yul\":2581:2590   */\n      dup3\n        /* \"#utility.yul\":2572:2579   */\n      dup5\n        /* \"#utility.yul\":2568:2591   */\n      sub\n        /* \"#utility.yul\":2564:2596   */\n      slt\n        /* \"#utility.yul\":2561:2680   */\n      iszero\n      tag_205\n      jumpi\n        /* \"#utility.yul\":2599:2678   */\n      tag_206\n      tag_149\n      jump\t// in\n    tag_206:\n        /* \"#utility.yul\":2561:2680   */\n    tag_205:\n        /* \"#utility.yul\":2719:2720   */\n      0x00\n        /* \"#utility.yul\":2744:2797   */\n      tag_207\n        /* \"#utility.yul\":2789:2796   */\n      dup5\n        /* \"#utility.yul\":2780:2786   */\n      dup3\n        /* \"#utility.yul\":2769:2778   */\n      dup6\n        /* \"#utility.yul\":2765:2787   */\n      add\n        /* \"#utility.yul\":2744:2797   */\n      tag_152\n      jump\t// in\n    tag_207:\n        /* \"#utility.yul\":2734:2797   */\n      swap2\n      pop\n        /* \"#utility.yul\":2690:2807   */\n      pop\n        /* \"#utility.yul\":2485:2814   */\n      swap3\n      swap2\n      pop\n      pop\n      jump\t// out\n        /* \"#utility.yul\":2820:2938   */\n    tag_153:\n        /* \"#utility.yul\":2891:2913   */\n      tag_209\n        /* \"#utility.yul\":2907:2912   */\n      dup2\n        /* \"#utility.yul\":2891:2913   */\n      tag_139\n      jump\t// in\n    tag_209:\n        /* \"#utility.yul\":2884:2889   */\n      dup2\n        /* \"#utility.yul\":2881:2914   */\n      eq\n        /* \"#utility.yul\":2871:2932   */\n      tag_210\n      jumpi\n        /* \"#utility.yul\":2928:2929   */\n      0x00\n        /* \"#utility.yul\":2925:2926   */\n      dup1\n        /* \"#utility.yul\":2918:2930   */\n      revert\n        /* \"#utility.yul\":2871:2932   */\n    tag_210:\n        /* \"#utility.yul\":2820:2938   */\n      pop\n      jump\t// out\n        /* \"#utility.yul\":2944:3079   */\n    tag_154:\n        /* \"#utility.yul\":2988:2993   */\n      0x00\n        /* \"#utility.yul\":3026:3032   */\n      dup2\n        /* \"#utility.yul\":3013:3033   */\n      calldataload\n        /* \"#utility.yul\":3004:3033   */\n      swap1\n      pop\n        /* \"#utility.yul\":3042:3073   */\n      tag_212\n        /* \"#utility.yul\":3067:3072   */\n      dup2\n        /* \"#utility.yul\":3042:3073   */\n      tag_153\n      jump\t// in\n    tag_212:\n        /* \"#utility.yul\":2944:3079   */\n      swap3\n      swap2\n      pop\n      pop\n      jump\t// out\n        /* \"#utility.yul\":3085:3410   */\n    tag_64:\n        /* \"#utility.yul\":3142:3148   */\n      0x00\n        /* \"#utility.yul\":3191:3193   */\n      0x20\n        /* \"#utility.yul\":3179:3188   */\n      dup3\n        /* \"#utility.yul\":3170:3177   */\n      dup5\n        /* \"#utility.yul\":3166:3189   */\n      sub\n        /* \"#utility.yul\":3162:3194   */\n      slt\n        /* \"#utility.yul\":3159:3278   */\n      iszero\n      tag_214\n      jumpi\n        /* \"#utility.yul\":3197:3276   */\n      tag_215\n      tag_149\n      jump\t// in\n    tag_215:\n        /* \"#utility.yul\":3159:3278   */\n    tag_214:\n        /* \"#utility.yul\":3317:3318   */\n      0x00\n        /* \"#utility.yul\":3342:3393   */\n      tag_216\n        /* \"#utility.yul\":3385:3392   */\n      dup5\n        /* \"#utility.yul\":3376:3382   */\n      dup3\n        /* \"#utility.yul\":3365:3374   */\n      dup6\n        /* \"#utility.yul\":3361:3383   */\n      add\n        /* \"#utility.yul\":3342:3393   */\n      tag_154\n      jump\t// in\n    tag_216:\n        /* \"#utility.yul\":3332:3393   */\n      swap2\n      pop\n        /* \"#utility.yul\":3288:3403   */\n      pop\n        /* \"#utility.yul\":3085:3410   */\n      swap3\n      swap2\n      pop\n      pop\n      jump\t// out\n        /* \"#utility.yul\":3416:3585   */\n    tag_155:\n        /* \"#utility.yul\":3500:3511   */\n      0x00\n        /* \"#utility.yul\":3534:3540   */\n      dup3\n        /* \"#utility.yul\":3529:3532   */\n      dup3\n        /* \"#utility.yul\":3522:3541   */\n      mstore\n        /* \"#utility.yul\":3574:3578   */\n      0x20\n        /* \"#utility.yul\":3569:3572   */\n      dup3\n        /* \"#utility.yul\":3565:3579   */\n      add\n        /* \"#utility.yul\":3550:3579   */\n      swap1\n      pop\n        /* \"#utility.yul\":3416:3585   */\n      swap3\n      swap2\n      pop\n      pop\n      jump\t// out\n        /* \"#utility.yul\":3591:3750   */\n    tag_156:\n        /* \"#utility.yul\":3731:3742   */\n      0x6f76657220757365720000000000000000000000000000000000000000000000\n        /* \"#utility.yul\":3727:3728   */\n      0x00\n        /* \"#utility.yul\":3719:3725   */\n      dup3\n        /* \"#utility.yul\":3715:3729   */\n      add\n        /* \"#utility.yul\":3708:3743   */\n      mstore\n        /* \"#utility.yul\":3591:3750   */\n      pop\n      jump\t// out\n        /* \"#utility.yul\":3756:4121   */\n    tag_157:\n        /* \"#utility.yul\":3898:3901   */\n      0x00\n        /* \"#utility.yul\":3919:3985   */\n      tag_220\n        /* \"#utility.yul\":3983:3984   */\n      0x09\n        /* \"#utility.yul\":3978:3981   */\n      dup4\n        /* \"#utility.yul\":3919:3985   */\n      tag_155\n      jump\t// in\n    tag_220:\n        /* \"#utility.yul\":3912:3985   */\n      swap2\n      pop\n        /* \"#utility.yul\":3994:4087   */\n      tag_221\n        /* \"#utility.yul\":4083:4086   */\n      dup3\n        /* \"#utility.yul\":3994:4087   */\n      tag_156\n      jump\t// in\n    tag_221:\n        /* \"#utility.yul\":4112:4114   */\n      0x20\n        /* \"#utility.yul\":4107:4110   */\n      dup3\n        /* \"#utility.yul\":4103:4115   */\n      add\n        /* \"#utility.yul\":4096:4115   */\n      swap1\n      pop\n        /* \"#utility.yul\":3756:4121   */\n      swap2\n      swap1\n      pop\n      jump\t// out\n        /* \"#utility.yul\":4127:4546   */\n    tag_93:\n        /* \"#utility.yul\":4293:4297   */\n      0x00\n        /* \"#utility.yul\":4331:4333   */\n      0x20\n        /* \"#utility.yul\":4320:4329   */\n      dup3\n        /* \"#utility.yul\":4316:4334   */\n      add\n        /* \"#utility.yul\":4308:4334   */\n      swap1\n      pop\n        /* \"#utility.yul\":4380:4389   */\n      dup2\n        /* \"#utility.yul\":4374:4378   */\n      dup2\n        /* \"#utility.yul\":4370:4390   */\n      sub\n        /* \"#utility.yul\":4366:4367   */\n      0x00\n        /* \"#utility.yul\":4355:4364   */\n      dup4\n        /* \"#utility.yul\":4351:4368   */\n      add\n        /* \"#utility.yul\":4344:4391   */\n      mstore\n        /* \"#utility.yul\":4408:4539   */\n      tag_223\n        /* \"#utility.yul\":4534:4538   */\n      dup2\n        /* \"#utility.yul\":4408:4539   */\n      tag_157\n      jump\t// in\n    tag_223:\n        /* \"#utility.yul\":4400:4539   */\n      swap1\n      pop\n        /* \"#utility.yul\":4127:4546   */\n      swap2\n      swap1\n      pop\n      jump\t// out\n        /* \"#utility.yul\":4552:4714   */\n    tag_158:\n        /* \"#utility.yul\":4692:4706   */\n      0x4e6f7420656c696769626c650000000000000000000000000000000000000000\n        /* \"#utility.yul\":4688:4689   */\n      0x00\n        /* \"#utility.yul\":4680:4686   */\n      dup3\n        /* \"#utility.yul\":4676:4690   */\n      add\n        /* \"#utility.yul\":4669:4707   */\n      mstore\n        /* \"#utility.yul\":4552:4714   */\n      pop\n      jump\t// out\n        /* \"#utility.yul\":4720:5086   */\n    tag_159:\n        /* \"#utility.yul\":4862:4865   */\n      0x00\n        /* \"#utility.yul\":4883:4950   */\n      tag_226\n        /* \"#utility.yul\":4947:4949   */\n      0x0c\n        /* \"#utility.yul\":4942:4945   */\n      dup4\n        /* \"#utility.yul\":4883:4950   */\n      tag_155\n      jump\t// in\n    tag_226:\n        /* \"#utility.yul\":4876:4950   */\n      swap2\n      pop\n        /* \"#utility.yul\":4959:5052   */\n      tag_227\n        /* \"#utility.yul\":5048:5051   */\n      dup3\n        /* \"#utility.yul\":4959:5052   */\n      tag_158\n      jump\t// in\n    tag_227:\n        /* \"#utility.yul\":5077:5079   */\n      0x20\n        /* \"#utility.yul\":5072:5075   */\n      dup3\n        /* \"#utility.yul\":5068:5080   */\n      add\n        /* \"#utility.yul\":5061:5080   */\n      swap1\n      pop\n        /* \"#utility.yul\":4720:5086   */\n      swap2\n      swap1\n      pop\n      jump\t// out\n        /* \"#utility.yul\":5092:5511   */\n    tag_96:\n        /* \"#utility.yul\":5258:5262   */\n      0x00\n        /* \"#utility.yul\":5296:5298   */\n      0x20\n        /* \"#utility.yul\":5285:5294   */\n      dup3\n        /* \"#utility.yul\":5281:5299   */\n      add\n        /* \"#utility.yul\":5273:5299   */\n      swap1\n      pop\n        /* \"#utility.yul\":5345:5354   */\n      dup2\n        /* \"#utility.yul\":5339:5343   */\n      dup2\n        /* \"#utility.yul\":5335:5355   */\n      sub\n        /* \"#utility.yul\":5331:5332   */\n      0x00\n        /* \"#utility.yul\":5320:5329   */\n      dup4\n        /* \"#utility.yul\":5316:5333   */\n      add\n        /* \"#utility.yul\":5309:5356   */\n      mstore\n        /* \"#utility.yul\":5373:5504   */\n      tag_229\n        /* \"#utility.yul\":5499:5503   */\n      dup2\n        /* \"#utility.yul\":5373:5504   */\n      tag_159\n      jump\t// in\n    tag_229:\n        /* \"#utility.yul\":5365:5504   */\n      swap1\n      pop\n        /* \"#utility.yul\":5092:5511   */\n      swap2\n      swap1\n      pop\n      jump\t// out\n        /* \"#utility.yul\":5517:5678   */\n    tag_160:\n        /* \"#utility.yul\":5657:5670   */\n      0x6e6f742073746172746564000000000000000000000000000000000000000000\n        /* \"#utility.yul\":5653:5654   */\n      0x00\n        /* \"#utility.yul\":5645:5651   */\n      dup3\n        /* \"#utility.yul\":5641:5655   */\n      add\n        /* \"#utility.yul\":5634:5671   */\n      mstore\n        /* \"#utility.yul\":5517:5678   */\n      pop\n      jump\t// out\n        /* \"#utility.yul\":5684:6050   */\n    tag_161:\n        /* \"#utility.yul\":5826:5829   */\n      0x00\n        /* \"#utility.yul\":5847:5914   */\n      tag_232\n        /* \"#utility.yul\":5911:5913   */\n      0x0b\n        /* \"#utility.yul\":5906:5909   */\n      dup4\n        /* \"#utility.yul\":5847:5914   */\n      tag_155\n      jump\t// in\n    tag_232:\n        /* \"#utility.yul\":5840:5914   */\n      swap2\n      pop\n        /* \"#utility.yul\":5923:6016   */\n      tag_233\n        /* \"#utility.yul\":6012:6015   */\n      dup3\n        /* \"#utility.yul\":5923:6016   */\n      tag_160\n      jump\t// in\n    tag_233:\n        /* \"#utility.yul\":6041:6043   */\n      0x20\n        /* \"#utility.yul\":6036:6039   */\n      dup3\n        /* \"#utility.yul\":6032:6044   */\n      add\n        /* \"#utility.yul\":6025:6044   */\n      swap1\n      pop\n        /* \"#utility.yul\":5684:6050   */\n      swap2\n      swap1\n      pop\n      jump\t// out\n        /* \"#utility.yul\":6056:6475   */\n    tag_99:\n        /* \"#utility.yul\":6222:6226   */\n      0x00\n        /* \"#utility.yul\":6260:6262   */\n      0x20\n        /* \"#utility.yul\":6249:6258   */\n      dup3\n        /* \"#utility.yul\":6245:6263   */\n      add\n        /* \"#utility.yul\":6237:6263   */\n      swap1\n      pop\n        /* \"#utility.yul\":6309:6318   */\n      dup2\n        /* \"#utility.yul\":6303:6307   */\n      dup2\n        /* \"#utility.yul\":6299:6319   */\n      sub\n        /* \"#utility.yul\":6295:6296   */\n      0x00\n        /* \"#utility.yul\":6284:6293   */\n      dup4\n        /* \"#utility.yul\":6280:6297   */\n      add\n        /* \"#utility.yul\":6273:6320   */\n      mstore\n        /* \"#utility.yul\":6337:6468   */\n      tag_235\n        /* \"#utility.yul\":6463:6467   */\n      dup2\n        /* \"#utility.yul\":6337:6468   */\n      tag_161\n      jump\t// in\n    tag_235:\n        /* \"#utility.yul\":6329:6468   */\n      swap1\n      pop\n        /* \"#utility.yul\":6056:6475   */\n      swap2\n      swap1\n      pop\n      jump\t// out\n        /* \"#utility.yul\":6481:6643   */\n    tag_162:\n        /* \"#utility.yul\":6621:6635   */\n      0x616c7265616479206f7665720000000000000000000000000000000000000000\n        /* \"#utility.yul\":6617:6618   */\n      0x00\n        /* \"#utility.yul\":6609:6615   */\n      dup3\n        /* \"#utility.yul\":6605:6619   */\n      add\n        /* \"#utility.yul\":6598:6636   */\n      mstore\n        /* \"#utility.yul\":6481:6643   */\n      pop\n      jump\t// out\n        /* \"#utility.yul\":6649:7015   */\n    tag_163:\n        /* \"#utility.yul\":6791:6794   */\n      0x00\n        /* \"#utility.yul\":6812:6879   */\n      tag_238\n        /* \"#utility.yul\":6876:6878   */\n      0x0c\n        /* \"#utility.yul\":6871:6874   */\n      dup4\n        /* \"#utility.yul\":6812:6879   */\n      tag_155\n      jump\t// in\n    tag_238:\n        /* \"#utility.yul\":6805:6879   */\n      swap2\n      pop\n        /* \"#utility.yul\":6888:6981   */\n      tag_239\n        /* \"#utility.yul\":6977:6980   */\n      dup3\n        /* \"#utility.yul\":6888:6981   */\n      tag_162\n      jump\t// in\n    tag_239:\n        /* \"#utility.yul\":7006:7008   */\n      0x20\n        /* \"#utility.yul\":7001:7004   */\n      dup3\n        /* \"#utility.yul\":6997:7009   */\n      add\n        /* \"#utility.yul\":6990:7009   */\n      swap1\n      pop\n        /* \"#utility.yul\":6649:7015   */\n      swap2\n      swap1\n      pop\n      jump\t// out\n        /* \"#utility.yul\":7021:7440   */\n    tag_102:\n        /* \"#utility.yul\":7187:7191   */\n      0x00\n        /* \"#utility.yul\":7225:7227   */\n      0x20\n        /* \"#utility.yul\":7214:7223   */\n      dup3\n        /* \"#utility.yul\":7210:7228   */\n      add\n        /* \"#utility.yul\":7202:7228   */\n      swap1\n      pop\n        /* \"#utility.yul\":7274:7283   */\n      dup2\n        /* \"#utility.yul\":7268:7272   */\n      dup2\n        /* \"#utility.yul\":7264:7284   */\n      sub\n        /* \"#utility.yul\":7260:7261   */\n      0x00\n        /* \"#utility.yul\":7249:7258   */\n      dup4\n        /* \"#utility.yul\":7245:7262   */\n      add\n        /* \"#utility.yul\":7238:7285   */\n      mstore\n        /* \"#utility.yul\":7302:7433   */\n      tag_241\n        /* \"#utility.yul\":7428:7432   */\n      dup2\n        /* \"#utility.yul\":7302:7433   */\n      tag_163\n      jump\t// in\n    tag_241:\n        /* \"#utility.yul\":7294:7433   */\n      swap1\n      pop\n        /* \"#utility.yul\":7021:7440   */\n      swap2\n      swap1\n      pop\n      jump\t// out\n        /* \"#utility.yul\":7446:7605   */\n    tag_164:\n        /* \"#utility.yul\":7586:7597   */\n      0x6f7665722074696d650000000000000000000000000000000000000000000000\n        /* \"#utility.yul\":7582:7583   */\n      0x00\n        /* \"#utility.yul\":7574:7580   */\n      dup3\n        /* \"#utility.yul\":7570:7584   */\n      add\n        /* \"#utility.yul\":7563:7598   */\n      mstore\n        /* \"#utility.yul\":7446:7605   */\n      pop\n      jump\t// out\n        /* \"#utility.yul\":7611:7976   */\n    tag_165:\n        /* \"#utility.yul\":7753:7756   */\n      0x00\n        /* \"#utility.yul\":7774:7840   */\n      tag_244\n        /* \"#utility.yul\":7838:7839   */\n      0x09\n        /* \"#utility.yul\":7833:7836   */\n      dup4\n        /* \"#utility.yul\":7774:7840   */\n      tag_155\n      jump\t// in\n    tag_244:\n        /* \"#utility.yul\":7767:7840   */\n      swap2\n      pop\n        /* \"#utility.yul\":7849:7942   */\n      tag_245\n        /* \"#utility.yul\":7938:7941   */\n      dup3\n        /* \"#utility.yul\":7849:7942   */\n      tag_164\n      jump\t// in\n    tag_245:\n        /* \"#utility.yul\":7967:7969   */\n      0x20\n        /* \"#utility.yul\":7962:7965   */\n      dup3\n        /* \"#utility.yul\":7958:7970   */\n      add\n        /* \"#utility.yul\":7951:7970   */\n      swap1\n      pop\n        /* \"#utility.yul\":7611:7976   */\n      swap2\n      swap1\n      pop\n      jump\t// out\n        /* \"#utility.yul\":7982:8401   */\n    tag_105:\n        /* \"#utility.yul\":8148:8152   */\n      0x00\n        /* \"#utility.yul\":8186:8188   */\n      0x20\n        /* \"#utility.yul\":8175:8184   */\n      dup3\n        /* \"#utility.yul\":8171:8189   */\n      add\n        /* \"#utility.yul\":8163:8189   */\n      swap1\n      pop\n        /* \"#utility.yul\":8235:8244   */\n      dup2\n        /* \"#utility.yul\":8229:8233   */\n      dup2\n        /* \"#utility.yul\":8225:8245   */\n      sub\n        /* \"#utility.yul\":8221:8222   */\n      0x00\n        /* \"#utility.yul\":8210:8219   */\n      dup4\n        /* \"#utility.yul\":8206:8223   */\n      add\n        /* \"#utility.yul\":8199:8246   */\n      mstore\n        /* \"#utility.yul\":8263:8394   */\n      tag_247\n        /* \"#utility.yul\":8389:8393   */\n      dup2\n        /* \"#utility.yul\":8263:8394   */\n      tag_165\n      jump\t// in\n    tag_247:\n        /* \"#utility.yul\":8255:8394   */\n      swap1\n      pop\n        /* \"#utility.yul\":7982:8401   */\n      swap2\n      swap1\n      pop\n      jump\t// out\n        /* \"#utility.yul\":8407:8587   */\n    tag_166:\n        /* \"#utility.yul\":8455:8532   */\n      0x4e487b7100000000000000000000000000000000000000000000000000000000\n        /* \"#utility.yul\":8452:8453   */\n      0x00\n        /* \"#utility.yul\":8445:8533   */\n      mstore\n        /* \"#utility.yul\":8552:8556   */\n      0x11\n        /* \"#utility.yul\":8549:8550   */\n      0x04\n        /* \"#utility.yul\":8542:8557   */\n      mstore\n        /* \"#utility.yul\":8576:8580   */\n      0x24\n        /* \"#utility.yul\":8573:8574   */\n      0x00\n        /* \"#utility.yul\":8566:8581   */\n      revert\n        /* \"#utility.yul\":8593:8784   */\n    tag_107:\n        /* \"#utility.yul\":8633:8636   */\n      0x00\n        /* \"#utility.yul\":8652:8672   */\n      tag_250\n        /* \"#utility.yul\":8670:8671   */\n      dup3\n        /* \"#utility.yul\":8652:8672   */\n      tag_141\n      jump\t// in\n    tag_250:\n        /* \"#utility.yul\":8647:8672   */\n      swap2\n      pop\n        /* \"#utility.yul\":8686:8706   */\n      tag_251\n        /* \"#utility.yul\":8704:8705   */\n      dup4\n        /* \"#utility.yul\":8686:8706   */\n      tag_141\n      jump\t// in\n    tag_251:\n        /* \"#utility.yul\":8681:8706   */\n      swap3\n      pop\n        /* \"#utility.yul\":8729:8730   */\n      dup3\n        /* \"#utility.yul\":8726:8727   */\n      dup3\n        /* \"#utility.yul\":8722:8731   */\n      add\n        /* \"#utility.yul\":8715:8731   */\n      swap1\n      pop\n        /* \"#utility.yul\":8750:8753   */\n      dup1\n        /* \"#utility.yul\":8747:8748   */\n      dup3\n        /* \"#utility.yul\":8744:8754   */\n      gt\n        /* \"#utility.yul\":8741:8777   */\n      iszero\n      tag_252\n      jumpi\n        /* \"#utility.yul\":8757:8775   */\n      tag_253\n      tag_166\n      jump\t// in\n    tag_253:\n        /* \"#utility.yul\":8741:8777   */\n    tag_252:\n        /* \"#utility.yul\":8593:8784   */\n      swap3\n      swap2\n      pop\n      pop\n      jump\t// out\n        /* \"#utility.yul\":8790:9023   */\n    tag_110:\n        /* \"#utility.yul\":8829:8832   */\n      0x00\n        /* \"#utility.yul\":8852:8876   */\n      tag_255\n        /* \"#utility.yul\":8870:8875   */\n      dup3\n        /* \"#utility.yul\":8852:8876   */\n      tag_141\n      jump\t// in\n    tag_255:\n        /* \"#utility.yul\":8843:8876   */\n      swap2\n      pop\n        /* \"#utility.yul\":8898:8964   */\n      0xffffffffffffffffffffffffffffffffffffffffffffffffffffffffffffffff\n        /* \"#utility.yul\":8891:8896   */\n      dup3\n        /* \"#utility.yul\":8888:8965   */\n      sub\n        /* \"#utility.yul\":8885:8988   */\n      tag_256\n      jumpi\n        /* \"#utility.yul\":8968:8986   */\n      tag_257\n      tag_166\n      jump\t// in\n    tag_257:\n        /* \"#utility.yul\":8885:8988   */\n    tag_256:\n        /* \"#utility.yul\":9015:9016   */\n      0x01\n        /* \"#utility.yul\":9008:9013   */\n      dup3\n        /* \"#utility.yul\":9004:9017   */\n      add\n        /* \"#utility.yul\":8997:9017   */\n      swap1\n      pop\n        /* \"#utility.yul\":8790:9023   */\n      swap2\n      swap1\n      pop\n      jump\t// out\n        /* \"#utility.yul\":9029:9206   */\n    tag_167:\n        /* \"#utility.yul\":9169:9198   */\n      0x6e6f7420796574207468652064657369676e617465642074696d650000000000\n        /* \"#utility.yul\":9165:9166   */\n      0x00\n        /* \"#utility.yul\":9157:9163   */\n      dup3\n        /* \"#utility.yul\":9153:9167   */\n      add\n        /* \"#utility.yul\":9146:9199   */\n      mstore\n        /* \"#utility.yul\":9029:9206   */\n      pop\n      jump\t// out\n        /* \"#utility.yul\":9212:9578   */\n    tag_168:\n        /* \"#utility.yul\":9354:9357   */\n      0x00\n        /* \"#utility.yul\":9375:9442   */\n      tag_260\n        /* \"#utility.yul\":9439:9441   */\n      0x1b\n        /* \"#utility.yul\":9434:9437   */\n      dup4\n        /* \"#utility.yul\":9375:9442   */\n      tag_155\n      jump\t// in\n    tag_260:\n        /* \"#utility.yul\":9368:9442   */\n      swap2\n      pop\n        /* \"#utility.yul\":9451:9544   */\n      tag_261\n        /* \"#utility.yul\":9540:9543   */\n      dup3\n        /* \"#utility.yul\":9451:9544   */\n      tag_167\n      jump\t// in\n    tag_261:\n        /* \"#utility.yul\":9569:9571   */\n      0x20\n        /* \"#utility.yul\":9564:9567   */\n      dup3\n        /* \"#utility.yul\":9560:9572   */\n      add\n        /* \"#utility.yul\":9553:9572   */\n      swap1\n      pop\n        /* \"#utility.yul\":9212:9578   */\n      swap2\n      swap1\n      pop\n      jump\t// out\n        /* \"#utility.yul\":9584:10003   */\n    tag_122:\n        /* \"#utility.yul\":9750:9754   */\n      0x00\n        /* \"#utility.yul\":9788:9790   */\n      0x20\n        /* \"#utility.yul\":9777:9786   */\n      dup3\n        /* \"#utility.yul\":9773:9791   */\n      add\n        /* \"#utility.yul\":9765:9791   */\n      swap1\n      pop\n        /* \"#utility.yul\":9837:9846   */\n      dup2\n        /* \"#utility.yul\":9831:9835   */\n      dup2\n        /* \"#utility.yul\":9827:9847   */\n      sub\n        /* \"#utility.yul\":9823:9824   */\n      0x00\n        /* \"#utility.yul\":9812:9821   */\n      dup4\n        /* \"#utility.yul\":9808:9825   */\n      add\n        /* \"#utility.yul\":9801:9848   */\n      mstore\n        /* \"#utility.yul\":9865:9996   */\n      tag_263\n        /* \"#utility.yul\":9991:9995   */\n      dup2\n        /* \"#utility.yul\":9865:9996   */\n      tag_168\n      jump\t// in\n    tag_263:\n        /* \"#utility.yul\":9857:9996   */\n      swap1\n      pop\n        /* \"#utility.yul\":9584:10003   */\n      swap2\n      swap1\n      pop\n      jump\t// out\n        /* \"#utility.yul\":10009:10234   */\n    tag_169:\n        /* \"#utility.yul\":10149:10183   */\n      0x4f776e61626c653a206e6577206f776e657220697320746865207a65726f2061\n        /* \"#utility.yul\":10145:10146   */\n      0x00\n        /* \"#utility.yul\":10137:10143   */\n      dup3\n        /* \"#utility.yul\":10133:10147   */\n      add\n        /* \"#utility.yul\":10126:10184   */\n      mstore\n        /* \"#utility.yul\":10218:10226   */\n      0x6464726573730000000000000000000000000000000000000000000000000000\n        /* \"#utility.yul\":10213:10215   */\n      0x20\n        /* \"#utility.yul\":10205:10211   */\n      dup3\n        /* \"#utility.yul\":10201:10216   */\n      add\n        /* \"#utility.yul\":10194:10227   */\n      mstore\n        /* \"#utility.yul\":10009:10234   */\n      pop\n      jump\t// out\n        /* \"#utility.yul\":10240:10606   */\n    tag_170:\n        /* \"#utility.yul\":10382:10385   */\n      0x00\n        /* \"#utility.yul\":10403:10470   */\n      tag_266\n        /* \"#utility.yul\":10467:10469   */\n      0x26\n        /* \"#utility.yul\":10462:10465   */\n      dup4\n        /* \"#utility.yul\":10403:10470   */\n      tag_155\n      jump\t// in\n    tag_266:\n        /* \"#utility.yul\":10396:10470   */\n      swap2\n      pop\n        /* \"#utility.yul\":10479:10572   */\n      tag_267\n        /* \"#utility.yul\":10568:10571   */\n      dup3\n        /* \"#utility.yul\":10479:10572   */\n      tag_169\n      jump\t// in\n    tag_267:\n        /* \"#utility.yul\":10597:10599   */\n      0x40\n        /* \"#utility.yul\":10592:10595   */\n      dup3\n        /* \"#utility.yul\":10588:10600   */\n      add\n        /* \"#utility.yul\":10581:10600   */\n      swap1\n      pop\n        /* \"#utility.yul\":10240:10606   */\n      swap2\n      swap1\n      pop\n      jump\t// out\n        /* \"#utility.yul\":10612:11031   */\n    tag_128:\n        /* \"#utility.yul\":10778:10782   */\n      0x00\n        /* \"#utility.yul\":10816:10818   */\n      0x20\n        /* \"#utility.yul\":10805:10814   */\n      dup3\n        /* \"#utility.yul\":10801:10819   */\n      add\n        /* \"#utility.yul\":10793:10819   */\n      swap1\n      pop\n        /* \"#utility.yul\":10865:10874   */\n      dup2\n        /* \"#utility.yul\":10859:10863   */\n      dup2\n        /* \"#utility.yul\":10855:10875   */\n      sub\n        /* \"#utility.yul\":10851:10852   */\n      0x00\n        /* \"#utility.yul\":10840:10849   */\n      dup4\n        /* \"#utility.yul\":10836:10853   */\n      add\n        /* \"#utility.yul\":10829:10876   */\n      mstore\n        /* \"#utility.yul\":10893:11024   */\n      tag_269\n        /* \"#utility.yul\":11019:11023   */\n      dup2\n        /* \"#utility.yul\":10893:11024   */\n      tag_170\n      jump\t// in\n    tag_269:\n        /* \"#utility.yul\":10885:11024   */\n      swap1\n      pop\n        /* \"#utility.yul\":10612:11031   */\n      swap2\n      swap1\n      pop\n      jump\t// out\n        /* \"#utility.yul\":11037:11219   */\n    tag_171:\n        /* \"#utility.yul\":11177:11211   */\n      0x4f776e61626c653a2063616c6c6572206973206e6f7420746865206f776e6572\n        /* \"#utility.yul\":11173:11174   */\n      0x00\n        /* \"#utility.yul\":11165:11171   */\n      dup3\n        /* \"#utility.yul\":11161:11175   */\n      add\n        /* \"#utility.yul\":11154:11212   */\n      mstore\n        /* \"#utility.yul\":11037:11219   */\n      pop\n      jump\t// out\n        /* \"#utility.yul\":11225:11591   */\n    tag_172:\n        /* \"#utility.yul\":11367:11370   */\n      0x00\n        /* \"#utility.yul\":11388:11455   */\n      tag_272\n        /* \"#utility.yul\":11452:11454   */\n      0x20\n        /* \"#utility.yul\":11447:11450   */\n      dup4\n        /* \"#utility.yul\":11388:11455   */\n      tag_155\n      jump\t// in\n    tag_272:\n        /* \"#utility.yul\":11381:11455   */\n      swap2\n      pop\n        /* \"#utility.yul\":11464:11557   */\n      tag_273\n        /* \"#utility.yul\":11553:11556   */\n      dup3\n        /* \"#utility.yul\":11464:11557   */\n      tag_171\n      jump\t// in\n    tag_273:\n        /* \"#utility.yul\":11582:11584   */\n      0x20\n        /* \"#utility.yul\":11577:11580   */\n      dup3\n        /* \"#utility.yul\":11573:11585   */\n      add\n        /* \"#utility.yul\":11566:11585   */\n      swap1\n      pop\n        /* \"#utility.yul\":11225:11591   */\n      swap2\n      swap1\n      pop\n      jump\t// out\n        /* \"#utility.yul\":11597:12016   */\n    tag_136:\n        /* \"#utility.yul\":11763:11767   */\n      0x00\n        /* \"#utility.yul\":11801:11803   */\n      0x20\n        /* \"#utility.yul\":11790:11799   */\n      dup3\n        /* \"#utility.yul\":11786:11804   */\n      add\n        /* \"#utility.yul\":11778:11804   */\n      swap1\n      pop\n        /* \"#utility.yul\":11850:11859   */\n      dup2\n        /* \"#utility.yul\":11844:11848   */\n      dup2\n        /* \"#utility.yul\":11840:11860   */\n      sub\n        /* \"#utility.yul\":11836:11837   */\n      0x00\n        /* \"#utility.yul\":11825:11834   */\n      dup4\n        /* \"#utility.yul\":11821:11838   */\n      add\n        /* \"#utility.yul\":11814:11861   */\n      mstore\n        /* \"#utility.yul\":11878:12009   */\n      tag_275\n        /* \"#utility.yul\":12004:12008   */\n      dup2\n        /* \"#utility.yul\":11878:12009   */\n      tag_172\n      jump\t// in\n    tag_275:\n        /* \"#utility.yul\":11870:12009   */\n      swap1\n      pop\n        /* \"#utility.yul\":11597:12016   */\n      swap2\n      swap1\n      pop\n      jump\t// out\n\n    auxdata: 0xa26469706673582212209bbccdd4cd75814752f09b521568c60b9ccc83e4fc0ae1cdf381c50e4da4666c64736f6c63430008120033\n}\n",
				"bytecode": {
					"linkReferences": {},
					"object": "60806040523480156200001157600080fd5b5060405162001253380380620012538339818101604052810190620000379190620001d3565b620000576200004b6200008960201b60201c565b6200009160201b60201c565b82600060146101000a81548160ff021916908360ff16021790555081600181905550806002819055505050506200022f565b600033905090565b60008060009054906101000a900473ffffffffffffffffffffffffffffffffffffffff169050816000806101000a81548173ffffffffffffffffffffffffffffffffffffffff021916908373ffffffffffffffffffffffffffffffffffffffff1602179055508173ffffffffffffffffffffffffffffffffffffffff168173ffffffffffffffffffffffffffffffffffffffff167f8be0079c531659141344cd1fd0a4f28419497f9722a3daafe3b4186f6b6457e060405160405180910390a35050565b600080fd5b600060ff82169050919050565b62000172816200015a565b81146200017e57600080fd5b50565b600081519050620001928162000167565b92915050565b6000819050919050565b620001ad8162000198565b8114620001b957600080fd5b50565b600081519050620001cd81620001a2565b92915050565b600080600060608486031215620001ef57620001ee62000155565b5b6000620001ff8682870162000181565b93505060206200021286828701620001bc565b92505060406200022586828701620001bc565b9150509250925092565b611014806200023f6000396000f3fe608060405234801561001057600080fd5b50600436106101165760003560e01c80638e437c5f116100a2578063be9a655511610071578063be9a65551461029d578063de292789146102a7578063ea173865146102c5578063efbe1c1c146102e3578063f2fde38b146102ed57610116565b80638e437c5f14610215578063a5ad21dd14610233578063b3f98adc14610263578063b9fbd33f1461027f57610116565b80633197cbb6116100e95780633197cbb614610193578063557ed1ba146101b15780636f0470aa146101cf578063715018a6146101ed5780638da5cb5b146101f757610116565b8063056ae13b1461011b5780630fb5a6b41461013957806312fa6feb146101575780631f2698ab14610175575b600080fd5b610123610309565b6040516101309190610a04565b60405180910390f35b61014161031c565b60405161014e9190610a38565b60405180910390f35b61015f610322565b60405161016c9190610a6e565b60405180910390f35b61017d610335565b60405161018a9190610a6e565b60405180910390f35b61019b610348565b6040516101a89190610a38565b60405180910390f35b6101b961034e565b6040516101c69190610a38565b60405180910390f35b6101d7610356565b6040516101e49190610a04565b60405180910390f35b6101f5610369565b005b6101ff61037d565b60405161020c9190610aca565b60405180910390f35b61021d6103a6565b60405161022a9190610a38565b60405180910390f35b61024d60048036038101906102489190610b16565b6103ac565b60405161025a9190610a04565b60405180910390f35b61027d60048036038101906102789190610b6f565b6103cc565b005b610287610697565b6040516102949190610a38565b60405180910390f35b6102a561069d565b005b6102af610702565b6040516102bc9190610a04565b60405180910390f35b6102cd610732565b6040516102da9190610a38565b60405180910390f35b6102eb610738565b005b61030760048036038101906103029190610b16565b61081b565b005b600860009054906101000a900460ff1681565b60025481565b600360019054906101000a900460ff1681565b600360009054906101000a900460ff1681565b60045481565b600042905090565b600060149054906101000a900460ff1681565b61037161089e565b61037b600061091c565b565b60008060009054906101000a900473ffffffffffffffffffffffffffffffffffffffff16905090565b60015481565b60066020528060005260406000206000915054906101000a900460ff1681565b60055460015411610412576040517f08c379a000000000000000000000000000000000000000000000000000000000815260040161040990610bf9565b60405180910390fd5b6000600660003373ffffffffffffffffffffffffffffffffffffffff1673ffffffffffffffffffffffffffffffffffffffff16815260200190815260200160002060009054906101000a900460ff1660ff16146104a4576040517f08c379a000000000000000000000000000000000000000000000000000000000815260040161049b90610c65565b60405180910390fd5b60011515600360009054906101000a900460ff161515146104fa576040517f08c379a00000000000000000000000000000000000000000000000000000000081526004016104f190610cd1565b60405180910390fd5b60011515600360019054906101000a900460ff16151503610550576040517f08c379a000000000000000000000000000000000000000000000000000000000815260040161054790610d3d565b60405180910390fd5b6004544210610594576040517f08c379a000000000000000000000000000000000000000000000000000000000815260040161058b90610da9565b60405180910390fd5b80600660003373ffffffffffffffffffffffffffffffffffffffff1673ffffffffffffffffffffffffffffffffffffffff16815260200190815260200160002060006101000a81548160ff021916908360ff1602179055506001600760008360ff1660ff16815260200190815260200160002060008282546106169190610df8565b92505081905550600954600760008360ff1660ff16815260200190815260200160002054111561067c5780600860006101000a81548160ff021916908360ff160217905550600760008260ff1660ff168152602001908152602001600020546009819055505b6005600081548092919061068f90610e2c565b919050555050565b60055481565b6106a561089e565b6001600360006101000a81548160ff021916908315150217905550600254426106ce9190610df8565b6004819055507fd8cea0ecd56872ff072e771658b5682ffe4de16d752947f79597d600ea56f7a960405160405180910390a1565b6000600360019054906101000a900460ff1661071d57600080fd5b600860009054906101000a900460ff16905090565b60095481565b60011515600360009054906101000a900460ff1615151461078e576040517f08c379a000000000000000000000000000000000000000000000000000000000815260040161078590610cd1565b60405180910390fd5b60045442116107d2576040517f08c379a00000000000000000000000000000000000000000000000000000000081526004016107c990610ec0565b60405180910390fd5b6001600360016101000a81548160ff0219169083151502179055507f477383f34069ce6129e1b6e0cbbdedb319ee49ef85677e403c26c37405ada46d60405160405180910390a1565b61082361089e565b600073ffffffffffffffffffffffffffffffffffffffff168173ffffffffffffffffffffffffffffffffffffffff1603610892576040517f08c379a000000000000000000000000000000000000000000000000000000000815260040161088990610f52565b60405180910390fd5b61089b8161091c565b50565b6108a66109e0565b73ffffffffffffffffffffffffffffffffffffffff166108c461037d565b73ffffffffffffffffffffffffffffffffffffffff161461091a576040517f08c379a000000000000000000000000000000000000000000000000000000000815260040161091190610fbe565b60405180910390fd5b565b60008060009054906101000a900473ffffffffffffffffffffffffffffffffffffffff169050816000806101000a81548173ffffffffffffffffffffffffffffffffffffffff021916908373ffffffffffffffffffffffffffffffffffffffff1602179055508173ffffffffffffffffffffffffffffffffffffffff168173ffffffffffffffffffffffffffffffffffffffff167f8be0079c531659141344cd1fd0a4f28419497f9722a3daafe3b4186f6b6457e060405160405180910390a35050565b600033905090565b600060ff82169050919050565b6109fe816109e8565b82525050565b6000602082019050610a1960008301846109f5565b92915050565b6000819050919050565b610a3281610a1f565b82525050565b6000602082019050610a4d6000830184610a29565b92915050565b60008115159050919050565b610a6881610a53565b82525050565b6000602082019050610a836000830184610a5f565b92915050565b600073ffffffffffffffffffffffffffffffffffffffff82169050919050565b6000610ab482610a89565b9050919050565b610ac481610aa9565b82525050565b6000602082019050610adf6000830184610abb565b92915050565b600080fd5b610af381610aa9565b8114610afe57600080fd5b50565b600081359050610b1081610aea565b92915050565b600060208284031215610b2c57610b2b610ae5565b5b6000610b3a84828501610b01565b91505092915050565b610b4c816109e8565b8114610b5757600080fd5b50565b600081359050610b6981610b43565b92915050565b600060208284031215610b8557610b84610ae5565b5b6000610b9384828501610b5a565b91505092915050565b600082825260208201905092915050565b7f6f76657220757365720000000000000000000000000000000000000000000000600082015250565b6000610be3600983610b9c565b9150610bee82610bad565b602082019050919050565b60006020820190508181036000830152610c1281610bd6565b9050919050565b7f4e6f7420656c696769626c650000000000000000000000000000000000000000600082015250565b6000610c4f600c83610b9c565b9150610c5a82610c19565b602082019050919050565b60006020820190508181036000830152610c7e81610c42565b9050919050565b7f6e6f742073746172746564000000000000000000000000000000000000000000600082015250565b6000610cbb600b83610b9c565b9150610cc682610c85565b602082019050919050565b60006020820190508181036000830152610cea81610cae565b9050919050565b7f616c7265616479206f7665720000000000000000000000000000000000000000600082015250565b6000610d27600c83610b9c565b9150610d3282610cf1565b602082019050919050565b60006020820190508181036000830152610d5681610d1a565b9050919050565b7f6f7665722074696d650000000000000000000000000000000000000000000000600082015250565b6000610d93600983610b9c565b9150610d9e82610d5d565b602082019050919050565b60006020820190508181036000830152610dc281610d86565b9050919050565b7f4e487b7100000000000000000000000000000000000000000000000000000000600052601160045260246000fd5b6000610e0382610a1f565b9150610e0e83610a1f565b9250828201905080821115610e2657610e25610dc9565b5b92915050565b6000610e3782610a1f565b91507fffffffffffffffffffffffffffffffffffffffffffffffffffffffffffffffff8203610e6957610e68610dc9565b5b600182019050919050565b7f6e6f7420796574207468652064657369676e617465642074696d650000000000600082015250565b6000610eaa601b83610b9c565b9150610eb582610e74565b602082019050919050565b60006020820190508181036000830152610ed981610e9d565b9050919050565b7f4f776e61626c653a206e6577206f776e657220697320746865207a65726f206160008201527f6464726573730000000000000000000000000000000000000000000000000000602082015250565b6000610f3c602683610b9c565b9150610f4782610ee0565b604082019050919050565b60006020820190508181036000830152610f6b81610f2f565b9050919050565b7f4f776e61626c653a2063616c6c6572206973206e6f7420746865206f776e6572600082015250565b6000610fa8602083610b9c565b9150610fb382610f72565b602082019050919050565b60006020820190508181036000830152610fd781610f9b565b905091905056fea26469706673582212209bbccdd4cd75814752f09b521568c60b9ccc83e4fc0ae1cdf381c50e4da4666c64736f6c63430008120033",
					"opcodes": "PUSH1 0x80 PUSH1 0x40 MSTORE CALLVALUE DUP1 ISZERO PUSH3 0x11 JUMPI PUSH1 0x0 DUP1 REVERT JUMPDEST POP PUSH1 0x40 MLOAD PUSH3 0x1253 CODESIZE SUB DUP1 PUSH3 0x1253 DUP4 CODECOPY DUP2 DUP2 ADD PUSH1 0x40 MSTORE DUP2 ADD SWAP1 PUSH3 0x37 SWAP2 SWAP1 PUSH3 0x1D3 JUMP JUMPDEST PUSH3 0x57 PUSH3 0x4B PUSH3 0x89 PUSH1 0x20 SHL PUSH1 0x20 SHR JUMP JUMPDEST PUSH3 0x91 PUSH1 0x20 SHL PUSH1 0x20 SHR JUMP JUMPDEST DUP3 PUSH1 0x0 PUSH1 0x14 PUSH2 0x100 EXP DUP2 SLOAD DUP2 PUSH1 0xFF MUL NOT AND SWAP1 DUP4 PUSH1 0xFF AND MUL OR SWAP1 SSTORE POP DUP2 PUSH1 0x1 DUP2 SWAP1 SSTORE POP DUP1 PUSH1 0x2 DUP2 SWAP1 SSTORE POP POP POP POP PUSH3 0x22F JUMP JUMPDEST PUSH1 0x0 CALLER SWAP1 POP SWAP1 JUMP JUMPDEST PUSH1 0x0 DUP1 PUSH1 0x0 SWAP1 SLOAD SWAP1 PUSH2 0x100 EXP SWAP1 DIV PUSH20 0xFFFFFFFFFFFFFFFFFFFFFFFFFFFFFFFFFFFFFFFF AND SWAP1 POP DUP2 PUSH1 0x0 DUP1 PUSH2 0x100 EXP DUP2 SLOAD DUP2 PUSH20 0xFFFFFFFFFFFFFFFFFFFFFFFFFFFFFFFFFFFFFFFF MUL NOT AND SWAP1 DUP4 PUSH20 0xFFFFFFFFFFFFFFFFFFFFFFFFFFFFFFFFFFFFFFFF AND MUL OR SWAP1 SSTORE POP DUP2 PUSH20 0xFFFFFFFFFFFFFFFFFFFFFFFFFFFFFFFFFFFFFFFF AND DUP2 PUSH20 0xFFFFFFFFFFFFFFFFFFFFFFFFFFFFFFFFFFFFFFFF AND PUSH32 0x8BE0079C531659141344CD1FD0A4F28419497F9722A3DAAFE3B4186F6B6457E0 PUSH1 0x40 MLOAD PUSH1 0x40 MLOAD DUP1 SWAP2 SUB SWAP1 LOG3 POP POP JUMP JUMPDEST PUSH1 0x0 DUP1 REVERT JUMPDEST PUSH1 0x0 PUSH1 0xFF DUP3 AND SWAP1 POP SWAP2 SWAP1 POP JUMP JUMPDEST PUSH3 0x172 DUP2 PUSH3 0x15A JUMP JUMPDEST DUP2 EQ PUSH3 0x17E JUMPI PUSH1 0x0 DUP1 REVERT JUMPDEST POP JUMP JUMPDEST PUSH1 0x0 DUP2 MLOAD SWAP1 POP PUSH3 0x192 DUP2 PUSH3 0x167 JUMP JUMPDEST SWAP3 SWAP2 POP POP JUMP JUMPDEST PUSH1 0x0 DUP2 SWAP1 POP SWAP2 SWAP1 POP JUMP JUMPDEST PUSH3 0x1AD DUP2 PUSH3 0x198 JUMP JUMPDEST DUP2 EQ PUSH3 0x1B9 JUMPI PUSH1 0x0 DUP1 REVERT JUMPDEST POP JUMP JUMPDEST PUSH1 0x0 DUP2 MLOAD SWAP1 POP PUSH3 0x1CD DUP2 PUSH3 0x1A2 JUMP JUMPDEST SWAP3 SWAP2 POP POP JUMP JUMPDEST PUSH1 0x0 DUP1 PUSH1 0x0 PUSH1 0x60 DUP5 DUP7 SUB SLT ISZERO PUSH3 0x1EF JUMPI PUSH3 0x1EE PUSH3 0x155 JUMP JUMPDEST JUMPDEST PUSH1 0x0 PUSH3 0x1FF DUP7 DUP3 DUP8 ADD PUSH3 0x181 JUMP JUMPDEST SWAP4 POP POP PUSH1 0x20 PUSH3 0x212 DUP7 DUP3 DUP8 ADD PUSH3 0x1BC JUMP JUMPDEST SWAP3 POP POP PUSH1 0x40 PUSH3 0x225 DUP7 DUP3 DUP8 ADD PUSH3 0x1BC JUMP JUMPDEST SWAP2 POP POP SWAP3 POP SWAP3 POP SWAP3 JUMP JUMPDEST PUSH2 0x1014 DUP1 PUSH3 0x23F PUSH1 0x0 CODECOPY PUSH1 0x0 RETURN INVALID PUSH1 0x80 PUSH1 0x40 MSTORE CALLVALUE DUP1 ISZERO PUSH2 0x10 JUMPI PUSH1 0x0 DUP1 REVERT JUMPDEST POP PUSH1 0x4 CALLDATASIZE LT PUSH2 0x116 JUMPI PUSH1 0x0 CALLDATALOAD PUSH1 0xE0 SHR DUP1 PUSH4 0x8E437C5F GT PUSH2 0xA2 JUMPI DUP1 PUSH4 0xBE9A6555 GT PUSH2 0x71 JUMPI DUP1 PUSH4 0xBE9A6555 EQ PUSH2 0x29D JUMPI DUP1 PUSH4 0xDE292789 EQ PUSH2 0x2A7 JUMPI DUP1 PUSH4 0xEA173865 EQ PUSH2 0x2C5 JUMPI DUP1 PUSH4 0xEFBE1C1C EQ PUSH2 0x2E3 JUMPI DUP1 PUSH4 0xF2FDE38B EQ PUSH2 0x2ED JUMPI PUSH2 0x116 JUMP JUMPDEST DUP1 PUSH4 0x8E437C5F EQ PUSH2 0x215 JUMPI DUP1 PUSH4 0xA5AD21DD EQ PUSH2 0x233 JUMPI DUP1 PUSH4 0xB3F98ADC EQ PUSH2 0x263 JUMPI DUP1 PUSH4 0xB9FBD33F EQ PUSH2 0x27F JUMPI PUSH2 0x116 JUMP JUMPDEST DUP1 PUSH4 0x3197CBB6 GT PUSH2 0xE9 JUMPI DUP1 PUSH4 0x3197CBB6 EQ PUSH2 0x193 JUMPI DUP1 PUSH4 0x557ED1BA EQ PUSH2 0x1B1 JUMPI DUP1 PUSH4 0x6F0470AA EQ PUSH2 0x1CF JUMPI DUP1 PUSH4 0x715018A6 EQ PUSH2 0x1ED JUMPI DUP1 PUSH4 0x8DA5CB5B EQ PUSH2 0x1F7 JUMPI PUSH2 0x116 JUMP JUMPDEST DUP1 PUSH4 0x56AE13B EQ PUSH2 0x11B JUMPI DUP1 PUSH4 0xFB5A6B4 EQ PUSH2 0x139 JUMPI DUP1 PUSH4 0x12FA6FEB EQ PUSH2 0x157 JUMPI DUP1 PUSH4 0x1F2698AB EQ PUSH2 0x175 JUMPI JUMPDEST PUSH1 0x0 DUP1 REVERT JUMPDEST PUSH2 0x123 PUSH2 0x309 JUMP JUMPDEST PUSH1 0x40 MLOAD PUSH2 0x130 SWAP2 SWAP1 PUSH2 0xA04 JUMP JUMPDEST PUSH1 0x40 MLOAD DUP1 SWAP2 SUB SWAP1 RETURN JUMPDEST PUSH2 0x141 PUSH2 0x31C JUMP JUMPDEST PUSH1 0x40 MLOAD PUSH2 0x14E SWAP2 SWAP1 PUSH2 0xA38 JUMP JUMPDEST PUSH1 0x40 MLOAD DUP1 SWAP2 SUB SWAP1 RETURN JUMPDEST PUSH2 0x15F PUSH2 0x322 JUMP JUMPDEST PUSH1 0x40 MLOAD PUSH2 0x16C SWAP2 SWAP1 PUSH2 0xA6E JUMP JUMPDEST PUSH1 0x40 MLOAD DUP1 SWAP2 SUB SWAP1 RETURN JUMPDEST PUSH2 0x17D PUSH2 0x335 JUMP JUMPDEST PUSH1 0x40 MLOAD PUSH2 0x18A SWAP2 SWAP1 PUSH2 0xA6E JUMP JUMPDEST PUSH1 0x40 MLOAD DUP1 SWAP2 SUB SWAP1 RETURN JUMPDEST PUSH2 0x19B PUSH2 0x348 JUMP JUMPDEST PUSH1 0x40 MLOAD PUSH2 0x1A8 SWAP2 SWAP1 PUSH2 0xA38 JUMP JUMPDEST PUSH1 0x40 MLOAD DUP1 SWAP2 SUB SWAP1 RETURN JUMPDEST PUSH2 0x1B9 PUSH2 0x34E JUMP JUMPDEST PUSH1 0x40 MLOAD PUSH2 0x1C6 SWAP2 SWAP1 PUSH2 0xA38 JUMP JUMPDEST PUSH1 0x40 MLOAD DUP1 SWAP2 SUB SWAP1 RETURN JUMPDEST PUSH2 0x1D7 PUSH2 0x356 JUMP JUMPDEST PUSH1 0x40 MLOAD PUSH2 0x1E4 SWAP2 SWAP1 PUSH2 0xA04 JUMP JUMPDEST PUSH1 0x40 MLOAD DUP1 SWAP2 SUB SWAP1 RETURN JUMPDEST PUSH2 0x1F5 PUSH2 0x369 JUMP JUMPDEST STOP JUMPDEST PUSH2 0x1FF PUSH2 0x37D JUMP JUMPDEST PUSH1 0x40 MLOAD PUSH2 0x20C SWAP2 SWAP1 PUSH2 0xACA JUMP JUMPDEST PUSH1 0x40 MLOAD DUP1 SWAP2 SUB SWAP1 RETURN JUMPDEST PUSH2 0x21D PUSH2 0x3A6 JUMP JUMPDEST PUSH1 0x40 MLOAD PUSH2 0x22A SWAP2 SWAP1 PUSH2 0xA38 JUMP JUMPDEST PUSH1 0x40 MLOAD DUP1 SWAP2 SUB SWAP1 RETURN JUMPDEST PUSH2 0x24D PUSH1 0x4 DUP1 CALLDATASIZE SUB DUP2 ADD SWAP1 PUSH2 0x248 SWAP2 SWAP1 PUSH2 0xB16 JUMP JUMPDEST PUSH2 0x3AC JUMP JUMPDEST PUSH1 0x40 MLOAD PUSH2 0x25A SWAP2 SWAP1 PUSH2 0xA04 JUMP JUMPDEST PUSH1 0x40 MLOAD DUP1 SWAP2 SUB SWAP1 RETURN JUMPDEST PUSH2 0x27D PUSH1 0x4 DUP1 CALLDATASIZE SUB DUP2 ADD SWAP1 PUSH2 0x278 SWAP2 SWAP1 PUSH2 0xB6F JUMP JUMPDEST PUSH2 0x3CC JUMP JUMPDEST STOP JUMPDEST PUSH2 0x287 PUSH2 0x697 JUMP JUMPDEST PUSH1 0x40 MLOAD PUSH2 0x294 SWAP2 SWAP1 PUSH2 0xA38 JUMP JUMPDEST PUSH1 0x40 MLOAD DUP1 SWAP2 SUB SWAP1 RETURN JUMPDEST PUSH2 0x2A5 PUSH2 0x69D JUMP JUMPDEST STOP JUMPDEST PUSH2 0x2AF PUSH2 0x702 JUMP JUMPDEST PUSH1 0x40 MLOAD PUSH2 0x2BC SWAP2 SWAP1 PUSH2 0xA04 JUMP JUMPDEST PUSH1 0x40 MLOAD DUP1 SWAP2 SUB SWAP1 RETURN JUMPDEST PUSH2 0x2CD PUSH2 0x732 JUMP JUMPDEST PUSH1 0x40 MLOAD PUSH2 0x2DA SWAP2 SWAP1 PUSH2 0xA38 JUMP JUMPDEST PUSH1 0x40 MLOAD DUP1 SWAP2 SUB SWAP1 RETURN JUMPDEST PUSH2 0x2EB PUSH2 0x738 JUMP JUMPDEST STOP JUMPDEST PUSH2 0x307 PUSH1 0x4 DUP1 CALLDATASIZE SUB DUP2 ADD SWAP1 PUSH2 0x302 SWAP2 SWAP1 PUSH2 0xB16 JUMP JUMPDEST PUSH2 0x81B JUMP JUMPDEST STOP JUMPDEST PUSH1 0x8 PUSH1 0x0 SWAP1 SLOAD SWAP1 PUSH2 0x100 EXP SWAP1 DIV PUSH1 0xFF AND DUP2 JUMP JUMPDEST PUSH1 0x2 SLOAD DUP2 JUMP JUMPDEST PUSH1 0x3 PUSH1 0x1 SWAP1 SLOAD SWAP1 PUSH2 0x100 EXP SWAP1 DIV PUSH1 0xFF AND DUP2 JUMP JUMPDEST PUSH1 0x3 PUSH1 0x0 SWAP1 SLOAD SWAP1 PUSH2 0x100 EXP SWAP1 DIV PUSH1 0xFF AND DUP2 JUMP JUMPDEST PUSH1 0x4 SLOAD DUP2 JUMP JUMPDEST PUSH1 0x0 TIMESTAMP SWAP1 POP SWAP1 JUMP JUMPDEST PUSH1 0x0 PUSH1 0x14 SWAP1 SLOAD SWAP1 PUSH2 0x100 EXP SWAP1 DIV PUSH1 0xFF AND DUP2 JUMP JUMPDEST PUSH2 0x371 PUSH2 0x89E JUMP JUMPDEST PUSH2 0x37B PUSH1 0x0 PUSH2 0x91C JUMP JUMPDEST JUMP JUMPDEST PUSH1 0x0 DUP1 PUSH1 0x0 SWAP1 SLOAD SWAP1 PUSH2 0x100 EXP SWAP1 DIV PUSH20 0xFFFFFFFFFFFFFFFFFFFFFFFFFFFFFFFFFFFFFFFF AND SWAP1 POP SWAP1 JUMP JUMPDEST PUSH1 0x1 SLOAD DUP2 JUMP JUMPDEST PUSH1 0x6 PUSH1 0x20 MSTORE DUP1 PUSH1 0x0 MSTORE PUSH1 0x40 PUSH1 0x0 KECCAK256 PUSH1 0x0 SWAP2 POP SLOAD SWAP1 PUSH2 0x100 EXP SWAP1 DIV PUSH1 0xFF AND DUP2 JUMP JUMPDEST PUSH1 0x5 SLOAD PUSH1 0x1 SLOAD GT PUSH2 0x412 JUMPI PUSH1 0x40 MLOAD PUSH32 0x8C379A000000000000000000000000000000000000000000000000000000000 DUP2 MSTORE PUSH1 0x4 ADD PUSH2 0x409 SWAP1 PUSH2 0xBF9 JUMP JUMPDEST PUSH1 0x40 MLOAD DUP1 SWAP2 SUB SWAP1 REVERT JUMPDEST PUSH1 0x0 PUSH1 0x6 PUSH1 0x0 CALLER PUSH20 0xFFFFFFFFFFFFFFFFFFFFFFFFFFFFFFFFFFFFFFFF AND PUSH20 0xFFFFFFFFFFFFFFFFFFFFFFFFFFFFFFFFFFFFFFFF AND DUP2 MSTORE PUSH1 0x20 ADD SWAP1 DUP2 MSTORE PUSH1 0x20 ADD PUSH1 0x0 KECCAK256 PUSH1 0x0 SWAP1 SLOAD SWAP1 PUSH2 0x100 EXP SWAP1 DIV PUSH1 0xFF AND PUSH1 0xFF AND EQ PUSH2 0x4A4 JUMPI PUSH1 0x40 MLOAD PUSH32 0x8C379A000000000000000000000000000000000000000000000000000000000 DUP2 MSTORE PUSH1 0x4 ADD PUSH2 0x49B SWAP1 PUSH2 0xC65 JUMP JUMPDEST PUSH1 0x40 MLOAD DUP1 SWAP2 SUB SWAP1 REVERT JUMPDEST PUSH1 0x1 ISZERO ISZERO PUSH1 0x3 PUSH1 0x0 SWAP1 SLOAD SWAP1 PUSH2 0x100 EXP SWAP1 DIV PUSH1 0xFF AND ISZERO ISZERO EQ PUSH2 0x4FA JUMPI PUSH1 0x40 MLOAD PUSH32 0x8C379A000000000000000000000000000000000000000000000000000000000 DUP2 MSTORE PUSH1 0x4 ADD PUSH2 0x4F1 SWAP1 PUSH2 0xCD1 JUMP JUMPDEST PUSH1 0x40 MLOAD DUP1 SWAP2 SUB SWAP1 REVERT JUMPDEST PUSH1 0x1 ISZERO ISZERO PUSH1 0x3 PUSH1 0x1 SWAP1 SLOAD SWAP1 PUSH2 0x100 EXP SWAP1 DIV PUSH1 0xFF AND ISZERO ISZERO SUB PUSH2 0x550 JUMPI PUSH1 0x40 MLOAD PUSH32 0x8C379A000000000000000000000000000000000000000000000000000000000 DUP2 MSTORE PUSH1 0x4 ADD PUSH2 0x547 SWAP1 PUSH2 0xD3D JUMP JUMPDEST PUSH1 0x40 MLOAD DUP1 SWAP2 SUB SWAP1 REVERT JUMPDEST PUSH1 0x4 SLOAD TIMESTAMP LT PUSH2 0x594 JUMPI PUSH1 0x40 MLOAD PUSH32 0x8C379A000000000000000000000000000000000000000000000000000000000 DUP2 MSTORE PUSH1 0x4 ADD PUSH2 0x58B SWAP1 PUSH2 0xDA9 JUMP JUMPDEST PUSH1 0x40 MLOAD DUP1 SWAP2 SUB SWAP1 REVERT JUMPDEST DUP1 PUSH1 0x6 PUSH1 0x0 CALLER PUSH20 0xFFFFFFFFFFFFFFFFFFFFFFFFFFFFFFFFFFFFFFFF AND PUSH20 0xFFFFFFFFFFFFFFFFFFFFFFFFFFFFFFFFFFFFFFFF AND DUP2 MSTORE PUSH1 0x20 ADD SWAP1 DUP2 MSTORE PUSH1 0x20 ADD PUSH1 0x0 KECCAK256 PUSH1 0x0 PUSH2 0x100 EXP DUP2 SLOAD DUP2 PUSH1 0xFF MUL NOT AND SWAP1 DUP4 PUSH1 0xFF AND MUL OR SWAP1 SSTORE POP PUSH1 0x1 PUSH1 0x7 PUSH1 0x0 DUP4 PUSH1 0xFF AND PUSH1 0xFF AND DUP2 MSTORE PUSH1 0x20 ADD SWAP1 DUP2 MSTORE PUSH1 0x20 ADD PUSH1 0x0 KECCAK256 PUSH1 0x0 DUP3 DUP3 SLOAD PUSH2 0x616 SWAP2 SWAP1 PUSH2 0xDF8 JUMP JUMPDEST SWAP3 POP POP DUP2 SWAP1 SSTORE POP PUSH1 0x9 SLOAD PUSH1 0x7 PUSH1 0x0 DUP4 PUSH1 0xFF AND PUSH1 0xFF AND DUP2 MSTORE PUSH1 0x20 ADD SWAP1 DUP2 MSTORE PUSH1 0x20 ADD PUSH1 0x0 KECCAK256 SLOAD GT ISZERO PUSH2 0x67C JUMPI DUP1 PUSH1 0x8 PUSH1 0x0 PUSH2 0x100 EXP DUP2 SLOAD DUP2 PUSH1 0xFF MUL NOT AND SWAP1 DUP4 PUSH1 0xFF AND MUL OR SWAP1 SSTORE POP PUSH1 0x7 PUSH1 0x0 DUP3 PUSH1 0xFF AND PUSH1 0xFF AND DUP2 MSTORE PUSH1 0x20 ADD SWAP1 DUP2 MSTORE PUSH1 0x20 ADD PUSH1 0x0 KECCAK256 SLOAD PUSH1 0x9 DUP2 SWAP1 SSTORE POP JUMPDEST PUSH1 0x5 PUSH1 0x0 DUP2 SLOAD DUP1 SWAP3 SWAP2 SWAP1 PUSH2 0x68F SWAP1 PUSH2 0xE2C JUMP JUMPDEST SWAP2 SWAP1 POP SSTORE POP POP JUMP JUMPDEST PUSH1 0x5 SLOAD DUP2 JUMP JUMPDEST PUSH2 0x6A5 PUSH2 0x89E JUMP JUMPDEST PUSH1 0x1 PUSH1 0x3 PUSH1 0x0 PUSH2 0x100 EXP DUP2 SLOAD DUP2 PUSH1 0xFF MUL NOT AND SWAP1 DUP4 ISZERO ISZERO MUL OR SWAP1 SSTORE POP PUSH1 0x2 SLOAD TIMESTAMP PUSH2 0x6CE SWAP2 SWAP1 PUSH2 0xDF8 JUMP JUMPDEST PUSH1 0x4 DUP2 SWAP1 SSTORE POP PUSH32 0xD8CEA0ECD56872FF072E771658B5682FFE4DE16D752947F79597D600EA56F7A9 PUSH1 0x40 MLOAD PUSH1 0x40 MLOAD DUP1 SWAP2 SUB SWAP1 LOG1 JUMP JUMPDEST PUSH1 0x0 PUSH1 0x3 PUSH1 0x1 SWAP1 SLOAD SWAP1 PUSH2 0x100 EXP SWAP1 DIV PUSH1 0xFF AND PUSH2 0x71D JUMPI PUSH1 0x0 DUP1 REVERT JUMPDEST PUSH1 0x8 PUSH1 0x0 SWAP1 SLOAD SWAP1 PUSH2 0x100 EXP SWAP1 DIV PUSH1 0xFF AND SWAP1 POP SWAP1 JUMP JUMPDEST PUSH1 0x9 SLOAD DUP2 JUMP JUMPDEST PUSH1 0x1 ISZERO ISZERO PUSH1 0x3 PUSH1 0x0 SWAP1 SLOAD SWAP1 PUSH2 0x100 EXP SWAP1 DIV PUSH1 0xFF AND ISZERO ISZERO EQ PUSH2 0x78E JUMPI PUSH1 0x40 MLOAD PUSH32 0x8C379A000000000000000000000000000000000000000000000000000000000 DUP2 MSTORE PUSH1 0x4 ADD PUSH2 0x785 SWAP1 PUSH2 0xCD1 JUMP JUMPDEST PUSH1 0x40 MLOAD DUP1 SWAP2 SUB SWAP1 REVERT JUMPDEST PUSH1 0x4 SLOAD TIMESTAMP GT PUSH2 0x7D2 JUMPI PUSH1 0x40 MLOAD PUSH32 0x8C379A000000000000000000000000000000000000000000000000000000000 DUP2 MSTORE PUSH1 0x4 ADD PUSH2 0x7C9 SWAP1 PUSH2 0xEC0 JUMP JUMPDEST PUSH1 0x40 MLOAD DUP1 SWAP2 SUB SWAP1 REVERT JUMPDEST PUSH1 0x1 PUSH1 0x3 PUSH1 0x1 PUSH2 0x100 EXP DUP2 SLOAD DUP2 PUSH1 0xFF MUL NOT AND SWAP1 DUP4 ISZERO ISZERO MUL OR SWAP1 SSTORE POP PUSH32 0x477383F34069CE6129E1B6E0CBBDEDB319EE49EF85677E403C26C37405ADA46D PUSH1 0x40 MLOAD PUSH1 0x40 MLOAD DUP1 SWAP2 SUB SWAP1 LOG1 JUMP JUMPDEST PUSH2 0x823 PUSH2 0x89E JUMP JUMPDEST PUSH1 0x0 PUSH20 0xFFFFFFFFFFFFFFFFFFFFFFFFFFFFFFFFFFFFFFFF AND DUP2 PUSH20 0xFFFFFFFFFFFFFFFFFFFFFFFFFFFFFFFFFFFFFFFF AND SUB PUSH2 0x892 JUMPI PUSH1 0x40 MLOAD PUSH32 0x8C379A000000000000000000000000000000000000000000000000000000000 DUP2 MSTORE PUSH1 0x4 ADD PUSH2 0x889 SWAP1 PUSH2 0xF52 JUMP JUMPDEST PUSH1 0x40 MLOAD DUP1 SWAP2 SUB SWAP1 REVERT JUMPDEST PUSH2 0x89B DUP2 PUSH2 0x91C JUMP JUMPDEST POP JUMP JUMPDEST PUSH2 0x8A6 PUSH2 0x9E0 JUMP JUMPDEST PUSH20 0xFFFFFFFFFFFFFFFFFFFFFFFFFFFFFFFFFFFFFFFF AND PUSH2 0x8C4 PUSH2 0x37D JUMP JUMPDEST PUSH20 0xFFFFFFFFFFFFFFFFFFFFFFFFFFFFFFFFFFFFFFFF AND EQ PUSH2 0x91A JUMPI PUSH1 0x40 MLOAD PUSH32 0x8C379A000000000000000000000000000000000000000000000000000000000 DUP2 MSTORE PUSH1 0x4 ADD PUSH2 0x911 SWAP1 PUSH2 0xFBE JUMP JUMPDEST PUSH1 0x40 MLOAD DUP1 SWAP2 SUB SWAP1 REVERT JUMPDEST JUMP JUMPDEST PUSH1 0x0 DUP1 PUSH1 0x0 SWAP1 SLOAD SWAP1 PUSH2 0x100 EXP SWAP1 DIV PUSH20 0xFFFFFFFFFFFFFFFFFFFFFFFFFFFFFFFFFFFFFFFF AND SWAP1 POP DUP2 PUSH1 0x0 DUP1 PUSH2 0x100 EXP DUP2 SLOAD DUP2 PUSH20 0xFFFFFFFFFFFFFFFFFFFFFFFFFFFFFFFFFFFFFFFF MUL NOT AND SWAP1 DUP4 PUSH20 0xFFFFFFFFFFFFFFFFFFFFFFFFFFFFFFFFFFFFFFFF AND MUL OR SWAP1 SSTORE POP DUP2 PUSH20 0xFFFFFFFFFFFFFFFFFFFFFFFFFFFFFFFFFFFFFFFF AND DUP2 PUSH20 0xFFFFFFFFFFFFFFFFFFFFFFFFFFFFFFFFFFFFFFFF AND PUSH32 0x8BE0079C531659141344CD1FD0A4F28419497F9722A3DAAFE3B4186F6B6457E0 PUSH1 0x40 MLOAD PUSH1 0x40 MLOAD DUP1 SWAP2 SUB SWAP1 LOG3 POP POP JUMP JUMPDEST PUSH1 0x0 CALLER SWAP1 POP SWAP1 JUMP JUMPDEST PUSH1 0x0 PUSH1 0xFF DUP3 AND SWAP1 POP SWAP2 SWAP1 POP JUMP JUMPDEST PUSH2 0x9FE DUP2 PUSH2 0x9E8 JUMP JUMPDEST DUP3 MSTORE POP POP JUMP JUMPDEST PUSH1 0x0 PUSH1 0x20 DUP3 ADD SWAP1 POP PUSH2 0xA19 PUSH1 0x0 DUP4 ADD DUP5 PUSH2 0x9F5 JUMP JUMPDEST SWAP3 SWAP2 POP POP JUMP JUMPDEST PUSH1 0x0 DUP2 SWAP1 POP SWAP2 SWAP1 POP JUMP JUMPDEST PUSH2 0xA32 DUP2 PUSH2 0xA1F JUMP JUMPDEST DUP3 MSTORE POP POP JUMP JUMPDEST PUSH1 0x0 PUSH1 0x20 DUP3 ADD SWAP1 POP PUSH2 0xA4D PUSH1 0x0 DUP4 ADD DUP5 PUSH2 0xA29 JUMP JUMPDEST SWAP3 SWAP2 POP POP JUMP JUMPDEST PUSH1 0x0 DUP2 ISZERO ISZERO SWAP1 POP SWAP2 SWAP1 POP JUMP JUMPDEST PUSH2 0xA68 DUP2 PUSH2 0xA53 JUMP JUMPDEST DUP3 MSTORE POP POP JUMP JUMPDEST PUSH1 0x0 PUSH1 0x20 DUP3 ADD SWAP1 POP PUSH2 0xA83 PUSH1 0x0 DUP4 ADD DUP5 PUSH2 0xA5F JUMP JUMPDEST SWAP3 SWAP2 POP POP JUMP JUMPDEST PUSH1 0x0 PUSH20 0xFFFFFFFFFFFFFFFFFFFFFFFFFFFFFFFFFFFFFFFF DUP3 AND SWAP1 POP SWAP2 SWAP1 POP JUMP JUMPDEST PUSH1 0x0 PUSH2 0xAB4 DUP3 PUSH2 0xA89 JUMP JUMPDEST SWAP1 POP SWAP2 SWAP1 POP JUMP JUMPDEST PUSH2 0xAC4 DUP2 PUSH2 0xAA9 JUMP JUMPDEST DUP3 MSTORE POP POP JUMP JUMPDEST PUSH1 0x0 PUSH1 0x20 DUP3 ADD SWAP1 POP PUSH2 0xADF PUSH1 0x0 DUP4 ADD DUP5 PUSH2 0xABB JUMP JUMPDEST SWAP3 SWAP2 POP POP JUMP JUMPDEST PUSH1 0x0 DUP1 REVERT JUMPDEST PUSH2 0xAF3 DUP2 PUSH2 0xAA9 JUMP JUMPDEST DUP2 EQ PUSH2 0xAFE JUMPI PUSH1 0x0 DUP1 REVERT JUMPDEST POP JUMP JUMPDEST PUSH1 0x0 DUP2 CALLDATALOAD SWAP1 POP PUSH2 0xB10 DUP2 PUSH2 0xAEA JUMP JUMPDEST SWAP3 SWAP2 POP POP JUMP JUMPDEST PUSH1 0x0 PUSH1 0x20 DUP3 DUP5 SUB SLT ISZERO PUSH2 0xB2C JUMPI PUSH2 0xB2B PUSH2 0xAE5 JUMP JUMPDEST JUMPDEST PUSH1 0x0 PUSH2 0xB3A DUP5 DUP3 DUP6 ADD PUSH2 0xB01 JUMP JUMPDEST SWAP2 POP POP SWAP3 SWAP2 POP POP JUMP JUMPDEST PUSH2 0xB4C DUP2 PUSH2 0x9E8 JUMP JUMPDEST DUP2 EQ PUSH2 0xB57 JUMPI PUSH1 0x0 DUP1 REVERT JUMPDEST POP JUMP JUMPDEST PUSH1 0x0 DUP2 CALLDATALOAD SWAP1 POP PUSH2 0xB69 DUP2 PUSH2 0xB43 JUMP JUMPDEST SWAP3 SWAP2 POP POP JUMP JUMPDEST PUSH1 0x0 PUSH1 0x20 DUP3 DUP5 SUB SLT ISZERO PUSH2 0xB85 JUMPI PUSH2 0xB84 PUSH2 0xAE5 JUMP JUMPDEST JUMPDEST PUSH1 0x0 PUSH2 0xB93 DUP5 DUP3 DUP6 ADD PUSH2 0xB5A JUMP JUMPDEST SWAP2 POP POP SWAP3 SWAP2 POP POP JUMP JUMPDEST PUSH1 0x0 DUP3 DUP3 MSTORE PUSH1 0x20 DUP3 ADD SWAP1 POP SWAP3 SWAP2 POP POP JUMP JUMPDEST PUSH32 0x6F76657220757365720000000000000000000000000000000000000000000000 PUSH1 0x0 DUP3 ADD MSTORE POP JUMP JUMPDEST PUSH1 0x0 PUSH2 0xBE3 PUSH1 0x9 DUP4 PUSH2 0xB9C JUMP JUMPDEST SWAP2 POP PUSH2 0xBEE DUP3 PUSH2 0xBAD JUMP JUMPDEST PUSH1 0x20 DUP3 ADD SWAP1 POP SWAP2 SWAP1 POP JUMP JUMPDEST PUSH1 0x0 PUSH1 0x20 DUP3 ADD SWAP1 POP DUP2 DUP2 SUB PUSH1 0x0 DUP4 ADD MSTORE PUSH2 0xC12 DUP2 PUSH2 0xBD6 JUMP JUMPDEST SWAP1 POP SWAP2 SWAP1 POP JUMP JUMPDEST PUSH32 0x4E6F7420656C696769626C650000000000000000000000000000000000000000 PUSH1 0x0 DUP3 ADD MSTORE POP JUMP JUMPDEST PUSH1 0x0 PUSH2 0xC4F PUSH1 0xC DUP4 PUSH2 0xB9C JUMP JUMPDEST SWAP2 POP PUSH2 0xC5A DUP3 PUSH2 0xC19 JUMP JUMPDEST PUSH1 0x20 DUP3 ADD SWAP1 POP SWAP2 SWAP1 POP JUMP JUMPDEST PUSH1 0x0 PUSH1 0x20 DUP3 ADD SWAP1 POP DUP2 DUP2 SUB PUSH1 0x0 DUP4 ADD MSTORE PUSH2 0xC7E DUP2 PUSH2 0xC42 JUMP JUMPDEST SWAP1 POP SWAP2 SWAP1 POP JUMP JUMPDEST PUSH32 0x6E6F742073746172746564000000000000000000000000000000000000000000 PUSH1 0x0 DUP3 ADD MSTORE POP JUMP JUMPDEST PUSH1 0x0 PUSH2 0xCBB PUSH1 0xB DUP4 PUSH2 0xB9C JUMP JUMPDEST SWAP2 POP PUSH2 0xCC6 DUP3 PUSH2 0xC85 JUMP JUMPDEST PUSH1 0x20 DUP3 ADD SWAP1 POP SWAP2 SWAP1 POP JUMP JUMPDEST PUSH1 0x0 PUSH1 0x20 DUP3 ADD SWAP1 POP DUP2 DUP2 SUB PUSH1 0x0 DUP4 ADD MSTORE PUSH2 0xCEA DUP2 PUSH2 0xCAE JUMP JUMPDEST SWAP1 POP SWAP2 SWAP1 POP JUMP JUMPDEST PUSH32 0x616C7265616479206F7665720000000000000000000000000000000000000000 PUSH1 0x0 DUP3 ADD MSTORE POP JUMP JUMPDEST PUSH1 0x0 PUSH2 0xD27 PUSH1 0xC DUP4 PUSH2 0xB9C JUMP JUMPDEST SWAP2 POP PUSH2 0xD32 DUP3 PUSH2 0xCF1 JUMP JUMPDEST PUSH1 0x20 DUP3 ADD SWAP1 POP SWAP2 SWAP1 POP JUMP JUMPDEST PUSH1 0x0 PUSH1 0x20 DUP3 ADD SWAP1 POP DUP2 DUP2 SUB PUSH1 0x0 DUP4 ADD MSTORE PUSH2 0xD56 DUP2 PUSH2 0xD1A JUMP JUMPDEST SWAP1 POP SWAP2 SWAP1 POP JUMP JUMPDEST PUSH32 0x6F7665722074696D650000000000000000000000000000000000000000000000 PUSH1 0x0 DUP3 ADD MSTORE POP JUMP JUMPDEST PUSH1 0x0 PUSH2 0xD93 PUSH1 0x9 DUP4 PUSH2 0xB9C JUMP JUMPDEST SWAP2 POP PUSH2 0xD9E DUP3 PUSH2 0xD5D JUMP JUMPDEST PUSH1 0x20 DUP3 ADD SWAP1 POP SWAP2 SWAP1 POP JUMP JUMPDEST PUSH1 0x0 PUSH1 0x20 DUP3 ADD SWAP1 POP DUP2 DUP2 SUB PUSH1 0x0 DUP4 ADD MSTORE PUSH2 0xDC2 DUP2 PUSH2 0xD86 JUMP JUMPDEST SWAP1 POP SWAP2 SWAP1 POP JUMP JUMPDEST PUSH32 0x4E487B7100000000000000000000000000000000000000000000000000000000 PUSH1 0x0 MSTORE PUSH1 0x11 PUSH1 0x4 MSTORE PUSH1 0x24 PUSH1 0x0 REVERT JUMPDEST PUSH1 0x0 PUSH2 0xE03 DUP3 PUSH2 0xA1F JUMP JUMPDEST SWAP2 POP PUSH2 0xE0E DUP4 PUSH2 0xA1F JUMP JUMPDEST SWAP3 POP DUP3 DUP3 ADD SWAP1 POP DUP1 DUP3 GT ISZERO PUSH2 0xE26 JUMPI PUSH2 0xE25 PUSH2 0xDC9 JUMP JUMPDEST JUMPDEST SWAP3 SWAP2 POP POP JUMP JUMPDEST PUSH1 0x0 PUSH2 0xE37 DUP3 PUSH2 0xA1F JUMP JUMPDEST SWAP2 POP PUSH32 0xFFFFFFFFFFFFFFFFFFFFFFFFFFFFFFFFFFFFFFFFFFFFFFFFFFFFFFFFFFFFFFFF DUP3 SUB PUSH2 0xE69 JUMPI PUSH2 0xE68 PUSH2 0xDC9 JUMP JUMPDEST JUMPDEST PUSH1 0x1 DUP3 ADD SWAP1 POP SWAP2 SWAP1 POP JUMP JUMPDEST PUSH32 0x6E6F7420796574207468652064657369676E617465642074696D650000000000 PUSH1 0x0 DUP3 ADD MSTORE POP JUMP JUMPDEST PUSH1 0x0 PUSH2 0xEAA PUSH1 0x1B DUP4 PUSH2 0xB9C JUMP JUMPDEST SWAP2 POP PUSH2 0xEB5 DUP3 PUSH2 0xE74 JUMP JUMPDEST PUSH1 0x20 DUP3 ADD SWAP1 POP SWAP2 SWAP1 POP JUMP JUMPDEST PUSH1 0x0 PUSH1 0x20 DUP3 ADD SWAP1 POP DUP2 DUP2 SUB PUSH1 0x0 DUP4 ADD MSTORE PUSH2 0xED9 DUP2 PUSH2 0xE9D JUMP JUMPDEST SWAP1 POP SWAP2 SWAP1 POP JUMP JUMPDEST PUSH32 0x4F776E61626C653A206E6577206F776E657220697320746865207A65726F2061 PUSH1 0x0 DUP3 ADD MSTORE PUSH32 0x6464726573730000000000000000000000000000000000000000000000000000 PUSH1 0x20 DUP3 ADD MSTORE POP JUMP JUMPDEST PUSH1 0x0 PUSH2 0xF3C PUSH1 0x26 DUP4 PUSH2 0xB9C JUMP JUMPDEST SWAP2 POP PUSH2 0xF47 DUP3 PUSH2 0xEE0 JUMP JUMPDEST PUSH1 0x40 DUP3 ADD SWAP1 POP SWAP2 SWAP1 POP JUMP JUMPDEST PUSH1 0x0 PUSH1 0x20 DUP3 ADD SWAP1 POP DUP2 DUP2 SUB PUSH1 0x0 DUP4 ADD MSTORE PUSH2 0xF6B DUP2 PUSH2 0xF2F JUMP JUMPDEST SWAP1 POP SWAP2 SWAP1 POP JUMP JUMPDEST PUSH32 0x4F776E61626C653A2063616C6C6572206973206E6F7420746865206F776E6572 PUSH1 0x0 DUP3 ADD MSTORE POP JUMP JUMPDEST PUSH1 0x0 PUSH2 0xFA8 PUSH1 0x20 DUP4 PUSH2 0xB9C JUMP JUMPDEST SWAP2 POP PUSH2 0xFB3 DUP3 PUSH2 0xF72 JUMP JUMPDEST PUSH1 0x20 DUP3 ADD SWAP1 POP SWAP2 SWAP1 POP JUMP JUMPDEST PUSH1 0x0 PUSH1 0x20 DUP3 ADD SWAP1 POP DUP2 DUP2 SUB PUSH1 0x0 DUP4 ADD MSTORE PUSH2 0xFD7 DUP2 PUSH2 0xF9B JUMP JUMPDEST SWAP1 POP SWAP2 SWAP1 POP JUMP INVALID LOG2 PUSH5 0x6970667358 0x22 SLT KECCAK256 SWAP12 0xBC 0xCD 0xD4 0xCD PUSH22 0x814752F09B521568C60B9CCC83E4FC0AE1CDF381C50E 0x4D LOG4 PUSH7 0x6C64736F6C6343 STOP ADDMOD SLT STOP CALLER "
				},
				"gasEstimates": {
					"creation": {
						"codeDepositCost": "823200",
						"executionCost": "infinite",
						"totalCost": "infinite"
					},
					"external": {
						"candidates()": "2588",
						"duration()": "2475",
						"end()": "29619",
						"endTime()": "2452",
						"ended()": "2589",
						"getResult()": "4726",
						"getTime()": "381",
						"highestCandidate()": "2495",
						"highestScore()": "2495",
						"owner()": "2633",
						"renounceOwnership()": "30487",
						"start()": "infinite",
						"started()": "2561",
						"transferOwnership(address)": "30854",
						"turnout()": "2452",
						"vote(uint8)": "infinite",
						"votedMap(address)": "2890",
						"votedNum()": "2518"
					}
				},
				"methodIdentifiers": {
					"candidates()": "6f0470aa",
					"duration()": "0fb5a6b4",
					"end()": "efbe1c1c",
					"endTime()": "3197cbb6",
					"ended()": "12fa6feb",
					"getResult()": "de292789",
					"getTime()": "557ed1ba",
					"highestCandidate()": "056ae13b",
					"highestScore()": "ea173865",
					"owner()": "8da5cb5b",
					"renounceOwnership()": "715018a6",
					"start()": "be9a6555",
					"started()": "1f2698ab",
					"transferOwnership(address)": "f2fde38b",
					"turnout()": "8e437c5f",
					"vote(uint8)": "b3f98adc",
					"votedMap(address)": "a5ad21dd",
					"votedNum()": "b9fbd33f"
				}
			},
			"storageLayout": {
				"storage": [
					{
						"astId": 7,
						"contract": "defi-theory/contracts/004_Vote.sol:Poll",
						"label": "_owner",
						"offset": 0,
						"slot": "0",
						"type": "t_address"
					},
					{
						"astId": 141,
						"contract": "defi-theory/contracts/004_Vote.sol:Poll",
						"label": "candidates",
						"offset": 20,
						"slot": "0",
						"type": "t_uint8"
					},
					{
						"astId": 143,
						"contract": "defi-theory/contracts/004_Vote.sol:Poll",
						"label": "turnout",
						"offset": 0,
						"slot": "1",
						"type": "t_uint256"
					},
					{
						"astId": 145,
						"contract": "defi-theory/contracts/004_Vote.sol:Poll",
						"label": "duration",
						"offset": 0,
						"slot": "2",
						"type": "t_uint256"
					},
					{
						"astId": 147,
						"contract": "defi-theory/contracts/004_Vote.sol:Poll",
						"label": "started",
						"offset": 0,
						"slot": "3",
						"type": "t_bool"
					},
					{
						"astId": 149,
						"contract": "defi-theory/contracts/004_Vote.sol:Poll",
						"label": "ended",
						"offset": 1,
						"slot": "3",
						"type": "t_bool"
					},
					{
						"astId": 151,
						"contract": "defi-theory/contracts/004_Vote.sol:Poll",
						"label": "endTime",
						"offset": 0,
						"slot": "4",
						"type": "t_uint256"
					},
					{
						"astId": 153,
						"contract": "defi-theory/contracts/004_Vote.sol:Poll",
						"label": "votedNum",
						"offset": 0,
						"slot": "5",
						"type": "t_uint256"
					},
					{
						"astId": 157,
						"contract": "defi-theory/contracts/004_Vote.sol:Poll",
						"label": "votedMap",
						"offset": 0,
						"slot": "6",
						"type": "t_mapping(t_address,t_uint8)"
					},
					{
						"astId": 161,
						"contract": "defi-theory/contracts/004_Vote.sol:Poll",
						"label": "scoreMap",
						"offset": 0,
						"slot": "7",
						"type": "t_mapping(t_uint8,t_uint256)"
					},
					{
						"astId": 163,
						"contract": "defi-theory/contracts/004_Vote.sol:Poll",
						"label": "highestCandidate",
						"offset": 0,
						"slot": "8",
						"type": "t_uint8"
					},
					{
						"astId": 165,
						"contract": "defi-theory/contracts/004_Vote.sol:Poll",
						"label": "highestScore",
						"offset": 0,
						"slot": "9",
						"type": "t_uint256"
					}
				],
				"types": {
					"t_address": {
						"encoding": "inplace",
						"label": "address",
						"numberOfBytes": "20"
					},
					"t_bool": {
						"encoding": "inplace",
						"label": "bool",
						"numberOfBytes": "1"
					},
					"t_mapping(t_address,t_uint8)": {
						"encoding": "mapping",
						"key": "t_address",
						"label": "mapping(address => uint8)",
						"numberOfBytes": "32",
						"value": "t_uint8"
					},
					"t_mapping(t_uint8,t_uint256)": {
						"encoding": "mapping",
						"key": "t_uint8",
						"label": "mapping(uint8 => uint256)",
						"numberOfBytes": "32",
						"value": "t_uint256"
					},
					"t_uint256": {
						"encoding": "inplace",
						"label": "uint256",
						"numberOfBytes": "32"
					},
					"t_uint8": {
						"encoding": "inplace",
						"label": "uint8",
						"numberOfBytes": "1"
					}
				}
			},
			"userdoc": {
				"kind": "user",
				"methods": {},
				"version": 1
			}
		}
	}
}