{
	"Defi/defi-theory/contracts/003_CrowdFund.sol": {
		"CrowdFund": {
			"abi": [
				{
					"inputs": [
						{
							"internalType": "address",
							"name": "_token",
							"type": "address"
						}
					],
					"stateMutability": "nonpayable",
					"type": "constructor"
				},
				{
					"anonymous": false,
					"inputs": [
						{
							"indexed": false,
							"internalType": "uint256",
							"name": "id",
							"type": "uint256"
						}
					],
					"name": "Claim",
					"type": "event"
				},
				{
					"anonymous": false,
					"inputs": [
						{
							"indexed": false,
							"internalType": "uint256",
							"name": "id",
							"type": "uint256"
						},
						{
							"indexed": false,
							"internalType": "address",
							"name": "creator",
							"type": "address"
						},
						{
							"indexed": false,
							"internalType": "uint256",
							"name": "goal",
							"type": "uint256"
						},
						{
							"indexed": false,
							"internalType": "uint32",
							"name": "startAt",
							"type": "uint32"
						},
						{
							"indexed": false,
							"internalType": "uint32",
							"name": "endAt",
							"type": "uint32"
						}
					],
					"name": "Launch",
					"type": "event"
				},
				{
					"anonymous": false,
					"inputs": [
						{
							"indexed": false,
							"internalType": "uint256",
							"name": "id",
							"type": "uint256"
						},
						{
							"indexed": false,
							"internalType": "address",
							"name": "caller",
							"type": "address"
						},
						{
							"indexed": false,
							"internalType": "uint256",
							"name": "amount",
							"type": "uint256"
						}
					],
					"name": "Pledge",
					"type": "event"
				},
				{
					"anonymous": false,
					"inputs": [
						{
							"indexed": false,
							"internalType": "uint256",
							"name": "id",
							"type": "uint256"
						},
						{
							"indexed": false,
							"internalType": "address",
							"name": "caller",
							"type": "address"
						},
						{
							"indexed": false,
							"internalType": "uint256",
							"name": "amount",
							"type": "uint256"
						}
					],
					"name": "Refund",
					"type": "event"
				},
				{
					"anonymous": false,
					"inputs": [
						{
							"indexed": false,
							"internalType": "uint256",
							"name": "id",
							"type": "uint256"
						},
						{
							"indexed": false,
							"internalType": "address",
							"name": "caller",
							"type": "address"
						},
						{
							"indexed": false,
							"internalType": "uint256",
							"name": "amount",
							"type": "uint256"
						}
					],
					"name": "Unpledge",
					"type": "event"
				},
				{
					"inputs": [
						{
							"internalType": "uint256",
							"name": "",
							"type": "uint256"
						}
					],
					"name": "campaigns",
					"outputs": [
						{
							"internalType": "address",
							"name": "creator",
							"type": "address"
						},
						{
							"internalType": "uint256",
							"name": "goal",
							"type": "uint256"
						},
						{
							"internalType": "uint256",
							"name": "pledged",
							"type": "uint256"
						},
						{
							"internalType": "uint32",
							"name": "startAt",
							"type": "uint32"
						},
						{
							"internalType": "uint32",
							"name": "endAt",
							"type": "uint32"
						},
						{
							"internalType": "bool",
							"name": "claimed",
							"type": "bool"
						}
					],
					"stateMutability": "view",
					"type": "function"
				},
				{
					"inputs": [
						{
							"internalType": "uint256",
							"name": "_id",
							"type": "uint256"
						}
					],
					"name": "claim",
					"outputs": [],
					"stateMutability": "nonpayable",
					"type": "function"
				},
				{
					"inputs": [],
					"name": "count",
					"outputs": [
						{
							"internalType": "uint256",
							"name": "",
							"type": "uint256"
						}
					],
					"stateMutability": "view",
					"type": "function"
				},
				{
					"inputs": [],
					"name": "get",
					"outputs": [
						{
							"internalType": "uint256",
							"name": "",
							"type": "uint256"
						}
					],
					"stateMutability": "view",
					"type": "function"
				},
				{
					"inputs": [
						{
							"internalType": "uint256",
							"name": "_goal",
							"type": "uint256"
						},
						{
							"internalType": "uint32",
							"name": "_startAt",
							"type": "uint32"
						},
						{
							"internalType": "uint32",
							"name": "_endAt",
							"type": "uint32"
						}
					],
					"name": "launch",
					"outputs": [],
					"stateMutability": "nonpayable",
					"type": "function"
				},
				{
					"inputs": [
						{
							"internalType": "uint256",
							"name": "_id",
							"type": "uint256"
						},
						{
							"internalType": "uint256",
							"name": "_amount",
							"type": "uint256"
						}
					],
					"name": "pledge",
					"outputs": [],
					"stateMutability": "nonpayable",
					"type": "function"
				},
				{
					"inputs": [
						{
							"internalType": "uint256",
							"name": "",
							"type": "uint256"
						},
						{
							"internalType": "address",
							"name": "",
							"type": "address"
						}
					],
					"name": "pledgedAmount",
					"outputs": [
						{
							"internalType": "uint256",
							"name": "",
							"type": "uint256"
						}
					],
					"stateMutability": "view",
					"type": "function"
				},
				{
					"inputs": [
						{
							"internalType": "uint256",
							"name": "_id",
							"type": "uint256"
						}
					],
					"name": "refund",
					"outputs": [],
					"stateMutability": "nonpayable",
					"type": "function"
				},
				{
					"inputs": [],
					"name": "token",
					"outputs": [
						{
							"internalType": "contract IERC20",
							"name": "",
							"type": "address"
						}
					],
					"stateMutability": "view",
					"type": "function"
				},
				{
					"inputs": [
						{
							"internalType": "uint256",
							"name": "_id",
							"type": "uint256"
						},
						{
							"internalType": "uint256",
							"name": "_amount",
							"type": "uint256"
						}
					],
					"name": "unpledge",
					"outputs": [],
					"stateMutability": "nonpayable",
					"type": "function"
				}
			],
			"devdoc": {
				"kind": "dev",
				"methods": {},
				"version": 1
			},
			"evm": {
				"assembly": "    /* \"Defi/defi-theory/contracts/003_CrowdFund.sol\":218:4524  contract CrowdFund {... */\n  mstore(0x40, 0xa0)\n    /* \"Defi/defi-theory/contracts/003_CrowdFund.sol\":1257:1324  constructor(address _token) {... */\n  callvalue\n  dup1\n  iszero\n  tag_1\n  jumpi\n  0x00\n  dup1\n  revert\ntag_1:\n  pop\n  mload(0x40)\n  sub(codesize, bytecodeSize)\n  dup1\n  bytecodeSize\n  dup4\n  codecopy\n  dup2\n  dup2\n  add\n  0x40\n  mstore\n  dup2\n  add\n  swap1\n  tag_2\n  swap2\n  swap1\n  tag_3\n  jump\t// in\ntag_2:\n    /* \"Defi/defi-theory/contracts/003_CrowdFund.sol\":1310:1316  _token */\n  dup1\n    /* \"Defi/defi-theory/contracts/003_CrowdFund.sol\":1295:1317  token = IERC20(_token) */\n  0xffffffffffffffffffffffffffffffffffffffff\n  and\n  0x80\n  dup2\n  0xffffffffffffffffffffffffffffffffffffffff\n  and\n  dup2\n  mstore\n  pop\n  pop\n    /* \"Defi/defi-theory/contracts/003_CrowdFund.sol\":1257:1324  constructor(address _token) {... */\n  pop\n    /* \"Defi/defi-theory/contracts/003_CrowdFund.sol\":218:4524  contract CrowdFund {... */\n  jump(tag_6)\n    /* \"#utility.yul\":88:205   */\ntag_8:\n    /* \"#utility.yul\":197:198   */\n  0x00\n    /* \"#utility.yul\":194:195   */\n  dup1\n    /* \"#utility.yul\":187:199   */\n  revert\n    /* \"#utility.yul\":334:460   */\ntag_10:\n    /* \"#utility.yul\":371:378   */\n  0x00\n    /* \"#utility.yul\":411:453   */\n  0xffffffffffffffffffffffffffffffffffffffff\n    /* \"#utility.yul\":404:409   */\n  dup3\n    /* \"#utility.yul\":400:454   */\n  and\n    /* \"#utility.yul\":389:454   */\n  swap1\n  pop\n    /* \"#utility.yul\":334:460   */\n  swap2\n  swap1\n  pop\n  jump\t// out\n    /* \"#utility.yul\":466:562   */\ntag_11:\n    /* \"#utility.yul\":503:510   */\n  0x00\n    /* \"#utility.yul\":532:556   */\n  tag_20\n    /* \"#utility.yul\":550:555   */\n  dup3\n    /* \"#utility.yul\":532:556   */\n  tag_10\n  jump\t// in\ntag_20:\n    /* \"#utility.yul\":521:556   */\n  swap1\n  pop\n    /* \"#utility.yul\":466:562   */\n  swap2\n  swap1\n  pop\n  jump\t// out\n    /* \"#utility.yul\":568:690   */\ntag_12:\n    /* \"#utility.yul\":641:665   */\n  tag_22\n    /* \"#utility.yul\":659:664   */\n  dup2\n    /* \"#utility.yul\":641:665   */\n  tag_11\n  jump\t// in\ntag_22:\n    /* \"#utility.yul\":634:639   */\n  dup2\n    /* \"#utility.yul\":631:666   */\n  eq\n    /* \"#utility.yul\":621:684   */\n  tag_23\n  jumpi\n    /* \"#utility.yul\":680:681   */\n  0x00\n    /* \"#utility.yul\":677:678   */\n  dup1\n    /* \"#utility.yul\":670:682   */\n  revert\n    /* \"#utility.yul\":621:684   */\ntag_23:\n    /* \"#utility.yul\":568:690   */\n  pop\n  jump\t// out\n    /* \"#utility.yul\":696:839   */\ntag_13:\n    /* \"#utility.yul\":753:758   */\n  0x00\n    /* \"#utility.yul\":784:790   */\n  dup2\n    /* \"#utility.yul\":778:791   */\n  mload\n    /* \"#utility.yul\":769:791   */\n  swap1\n  pop\n    /* \"#utility.yul\":800:833   */\n  tag_25\n    /* \"#utility.yul\":827:832   */\n  dup2\n    /* \"#utility.yul\":800:833   */\n  tag_12\n  jump\t// in\ntag_25:\n    /* \"#utility.yul\":696:839   */\n  swap3\n  swap2\n  pop\n  pop\n  jump\t// out\n    /* \"#utility.yul\":845:1196   */\ntag_3:\n    /* \"#utility.yul\":915:921   */\n  0x00\n    /* \"#utility.yul\":964:966   */\n  0x20\n    /* \"#utility.yul\":952:961   */\n  dup3\n    /* \"#utility.yul\":943:950   */\n  dup5\n    /* \"#utility.yul\":939:962   */\n  sub\n    /* \"#utility.yul\":935:967   */\n  slt\n    /* \"#utility.yul\":932:1051   */\n  iszero\n  tag_27\n  jumpi\n    /* \"#utility.yul\":970:1049   */\n  tag_28\n  tag_8\n  jump\t// in\ntag_28:\n    /* \"#utility.yul\":932:1051   */\ntag_27:\n    /* \"#utility.yul\":1090:1091   */\n  0x00\n    /* \"#utility.yul\":1115:1179   */\n  tag_29\n    /* \"#utility.yul\":1171:1178   */\n  dup5\n    /* \"#utility.yul\":1162:1168   */\n  dup3\n    /* \"#utility.yul\":1151:1160   */\n  dup6\n    /* \"#utility.yul\":1147:1169   */\n  add\n    /* \"#utility.yul\":1115:1179   */\n  tag_13\n  jump\t// in\ntag_29:\n    /* \"#utility.yul\":1105:1179   */\n  swap2\n  pop\n    /* \"#utility.yul\":1061:1189   */\n  pop\n    /* \"#utility.yul\":845:1196   */\n  swap3\n  swap2\n  pop\n  pop\n  jump\t// out\n    /* \"Defi/defi-theory/contracts/003_CrowdFund.sol\":218:4524  contract CrowdFund {... */\ntag_6:\n  mload(0x80)\n  codecopy(0x00, dataOffset(sub_0), dataSize(sub_0))\n  0x00\n  assignImmutable(\"0xd67d834462ca31eaef1f30157e31659f60355143b7441e6fc7d9eae1fa79f3f8\")\n  return(0x00, dataSize(sub_0))\nstop\n\nsub_0: assembly {\n        /* \"Defi/defi-theory/contracts/003_CrowdFund.sol\":218:4524  contract CrowdFund {... */\n      mstore(0x40, 0x80)\n      callvalue\n      dup1\n      iszero\n      tag_1\n      jumpi\n      0x00\n      dup1\n      revert\n    tag_1:\n      pop\n      jumpi(tag_2, lt(calldatasize, 0x04))\n      shr(0xe0, calldataload(0x00))\n      dup1\n      0x6d4ce63c\n      gt\n      tag_13\n      jumpi\n      dup1\n      0x6d4ce63c\n      eq\n      tag_8\n      jumpi\n      dup1\n      0x711853ab\n      eq\n      tag_9\n      jumpi\n      dup1\n      0xaa4fb63a\n      eq\n      tag_10\n      jumpi\n      dup1\n      0xfc0c546a\n      eq\n      tag_11\n      jumpi\n      dup1\n      0xfde327be\n      eq\n      tag_12\n      jumpi\n      jump(tag_2)\n    tag_13:\n      dup1\n      0x06661abd\n      eq\n      tag_3\n      jumpi\n      dup1\n      0x141961bc\n      eq\n      tag_4\n      jumpi\n      dup1\n      0x278ecde1\n      eq\n      tag_5\n      jumpi\n      dup1\n      0x2c63f146\n      eq\n      tag_6\n      jumpi\n      dup1\n      0x379607f5\n      eq\n      tag_7\n      jumpi\n    tag_2:\n      0x00\n      dup1\n      revert\n        /* \"Defi/defi-theory/contracts/003_CrowdFund.sol\":692:709  uint public count */\n    tag_3:\n      tag_14\n      tag_15\n      jump\t// in\n    tag_14:\n      mload(0x40)\n      tag_16\n      swap2\n      swap1\n      tag_17\n      jump\t// in\n    tag_16:\n      mload(0x40)\n      dup1\n      swap2\n      sub\n      swap1\n      return\n        /* \"Defi/defi-theory/contracts/003_CrowdFund.sol\":715:757  mapping(uint => Campaign) public campaigns */\n    tag_4:\n      tag_18\n      0x04\n      dup1\n      calldatasize\n      sub\n      dup2\n      add\n      swap1\n      tag_19\n      swap2\n      swap1\n      tag_20\n      jump\t// in\n    tag_19:\n      tag_21\n      jump\t// in\n    tag_18:\n      mload(0x40)\n      tag_22\n      swap7\n      swap6\n      swap5\n      swap4\n      swap3\n      swap2\n      swap1\n      tag_23\n      jump\t// in\n    tag_22:\n      mload(0x40)\n      dup1\n      swap2\n      sub\n      swap1\n      return\n        /* \"Defi/defi-theory/contracts/003_CrowdFund.sol\":3817:4437  function refund(uint _id) external {... */\n    tag_5:\n      tag_24\n      0x04\n      dup1\n      calldatasize\n      sub\n      dup2\n      add\n      swap1\n      tag_25\n      swap2\n      swap1\n      tag_20\n      jump\t// in\n    tag_25:\n      tag_26\n      jump\t// in\n    tag_24:\n      stop\n        /* \"Defi/defi-theory/contracts/003_CrowdFund.sol\":1330:2009  function launch(uint _goal, uint32 _startAt, uint32 _endAt) external {... */\n    tag_6:\n      tag_27\n      0x04\n      dup1\n      calldatasize\n      sub\n      dup2\n      add\n      swap1\n      tag_28\n      swap2\n      swap1\n      tag_29\n      jump\t// in\n    tag_28:\n      tag_30\n      jump\t// in\n    tag_27:\n      stop\n        /* \"Defi/defi-theory/contracts/003_CrowdFund.sol\":3182:3811  function claim(uint _id) external {... */\n    tag_7:\n      tag_31\n      0x04\n      dup1\n      calldatasize\n      sub\n      dup2\n      add\n      swap1\n      tag_32\n      swap2\n      swap1\n      tag_20\n      jump\t// in\n    tag_32:\n      tag_33\n      jump\t// in\n    tag_31:\n      stop\n        /* \"Defi/defi-theory/contracts/003_CrowdFund.sol\":4442:4522  function get() view public returns(uint) {... */\n    tag_8:\n      tag_34\n      tag_35\n      jump\t// in\n    tag_34:\n      mload(0x40)\n      tag_36\n      swap2\n      swap1\n      tag_17\n      jump\t// in\n    tag_36:\n      mload(0x40)\n      dup1\n      swap2\n      sub\n      swap1\n      return\n        /* \"Defi/defi-theory/contracts/003_CrowdFund.sol\":2599:3176  function unpledge(uint _id, uint _amount) external {... */\n    tag_9:\n      tag_37\n      0x04\n      dup1\n      calldatasize\n      sub\n      dup2\n      add\n      swap1\n      tag_38\n      swap2\n      swap1\n      tag_39\n      jump\t// in\n    tag_38:\n      tag_40\n      jump\t// in\n    tag_37:\n      stop\n        /* \"Defi/defi-theory/contracts/003_CrowdFund.sol\":816:878  mapping(uint => mapping(address => uint)) public pledgedAmount */\n    tag_10:\n      tag_41\n      0x04\n      dup1\n      calldatasize\n      sub\n      dup2\n      add\n      swap1\n      tag_42\n      swap2\n      swap1\n      tag_43\n      jump\t// in\n    tag_42:\n      tag_44\n      jump\t// in\n    tag_41:\n      mload(0x40)\n      tag_45\n      swap2\n      swap1\n      tag_17\n      jump\t// in\n    tag_45:\n      mload(0x40)\n      dup1\n      swap2\n      sub\n      swap1\n      return\n        /* \"Defi/defi-theory/contracts/003_CrowdFund.sol\":611:640  IERC20 public immutable token */\n    tag_11:\n      tag_46\n      tag_47\n      jump\t// in\n    tag_46:\n      mload(0x40)\n      tag_48\n      swap2\n      swap1\n      tag_49\n      jump\t// in\n    tag_48:\n      mload(0x40)\n      dup1\n      swap2\n      sub\n      swap1\n      return\n        /* \"Defi/defi-theory/contracts/003_CrowdFund.sol\":2015:2593  function pledge(uint _id, uint _amount) external {... */\n    tag_12:\n      tag_50\n      0x04\n      dup1\n      calldatasize\n      sub\n      dup2\n      add\n      swap1\n      tag_51\n      swap2\n      swap1\n      tag_39\n      jump\t// in\n    tag_51:\n      tag_52\n      jump\t// in\n    tag_50:\n      stop\n        /* \"Defi/defi-theory/contracts/003_CrowdFund.sol\":692:709  uint public count */\n    tag_15:\n      sload(0x00)\n      dup2\n      jump\t// out\n        /* \"Defi/defi-theory/contracts/003_CrowdFund.sol\":715:757  mapping(uint => Campaign) public campaigns */\n    tag_21:\n      mstore(0x20, 0x01)\n      dup1\n      0x00\n      mstore\n      keccak256(0x00, 0x40)\n      0x00\n      swap2\n      pop\n      swap1\n      pop\n      dup1\n      0x00\n      add\n      0x00\n      swap1\n      sload\n      swap1\n      0x0100\n      exp\n      swap1\n      div\n      0xffffffffffffffffffffffffffffffffffffffff\n      and\n      swap1\n      dup1\n      0x01\n      add\n      sload\n      swap1\n      dup1\n      0x02\n      add\n      sload\n      swap1\n      dup1\n      0x03\n      add\n      0x00\n      swap1\n      sload\n      swap1\n      0x0100\n      exp\n      swap1\n      div\n      0xffffffff\n      and\n      swap1\n      dup1\n      0x03\n      add\n      0x04\n      swap1\n      sload\n      swap1\n      0x0100\n      exp\n      swap1\n      div\n      0xffffffff\n      and\n      swap1\n      dup1\n      0x03\n      add\n      0x08\n      swap1\n      sload\n      swap1\n      0x0100\n      exp\n      swap1\n      div\n      0xff\n      and\n      swap1\n      pop\n      dup7\n      jump\t// out\n        /* \"Defi/defi-theory/contracts/003_CrowdFund.sol\":3817:4437  function refund(uint _id) external {... */\n    tag_26:\n        /* \"Defi/defi-theory/contracts/003_CrowdFund.sol\":3880:3905  Campaign storage campaign */\n      0x00\n        /* \"Defi/defi-theory/contracts/003_CrowdFund.sol\":3908:3917  campaigns */\n      0x01\n        /* \"Defi/defi-theory/contracts/003_CrowdFund.sol\":3908:3922  campaigns[_id] */\n      0x00\n        /* \"Defi/defi-theory/contracts/003_CrowdFund.sol\":3918:3921  _id */\n      dup4\n        /* \"Defi/defi-theory/contracts/003_CrowdFund.sol\":3908:3922  campaigns[_id] */\n      dup2\n      mstore\n      0x20\n      add\n      swap1\n      dup2\n      mstore\n      0x20\n      add\n      0x00\n      keccak256\n        /* \"Defi/defi-theory/contracts/003_CrowdFund.sol\":3880:3922  Campaign storage campaign = campaigns[_id] */\n      swap1\n      pop\n        /* \"Defi/defi-theory/contracts/003_CrowdFund.sol\":3959:3967  campaign */\n      dup1\n        /* \"Defi/defi-theory/contracts/003_CrowdFund.sol\":3959:3973  campaign.endAt */\n      0x03\n      add\n      0x04\n      swap1\n      sload\n      swap1\n      0x0100\n      exp\n      swap1\n      div\n      0xffffffff\n      and\n        /* \"Defi/defi-theory/contracts/003_CrowdFund.sol\":3941:3973  block.timestamp > campaign.endAt */\n      0xffffffff\n      and\n        /* \"Defi/defi-theory/contracts/003_CrowdFund.sol\":3941:3956  block.timestamp */\n      timestamp\n        /* \"Defi/defi-theory/contracts/003_CrowdFund.sol\":3941:3973  block.timestamp > campaign.endAt */\n      gt\n        /* \"Defi/defi-theory/contracts/003_CrowdFund.sol\":3933:3987  require(block.timestamp > campaign.endAt, \"not ended\") */\n      tag_54\n      jumpi\n      mload(0x40)\n      0x08c379a000000000000000000000000000000000000000000000000000000000\n      dup2\n      mstore\n      0x04\n      add\n      tag_55\n      swap1\n      tag_56\n      jump\t// in\n    tag_55:\n      mload(0x40)\n      dup1\n      swap2\n      sub\n      swap1\n      revert\n    tag_54:\n        /* \"Defi/defi-theory/contracts/003_CrowdFund.sol\":4024:4032  campaign */\n      dup1\n        /* \"Defi/defi-theory/contracts/003_CrowdFund.sol\":4024:4037  campaign.goal */\n      0x01\n      add\n      sload\n        /* \"Defi/defi-theory/contracts/003_CrowdFund.sol\":4005:4013  campaign */\n      dup2\n        /* \"Defi/defi-theory/contracts/003_CrowdFund.sol\":4005:4021  campaign.pledged */\n      0x02\n      add\n      sload\n        /* \"Defi/defi-theory/contracts/003_CrowdFund.sol\":4005:4037  campaign.pledged < campaign.goal */\n      lt\n        /* \"Defi/defi-theory/contracts/003_CrowdFund.sol\":3997:4057  require(campaign.pledged < campaign.goal, \"pledged >= goal\") */\n      tag_57\n      jumpi\n      mload(0x40)\n      0x08c379a000000000000000000000000000000000000000000000000000000000\n      dup2\n      mstore\n      0x04\n      add\n      tag_58\n      swap1\n      tag_59\n      jump\t// in\n    tag_58:\n      mload(0x40)\n      dup1\n      swap2\n      sub\n      swap1\n      revert\n    tag_57:\n        /* \"Defi/defi-theory/contracts/003_CrowdFund.sol\":4110:4124  uint256 Amount */\n      0x00\n        /* \"Defi/defi-theory/contracts/003_CrowdFund.sol\":4127:4140  pledgedAmount */\n      0x02\n        /* \"Defi/defi-theory/contracts/003_CrowdFund.sol\":4127:4145  pledgedAmount[_id] */\n      0x00\n        /* \"Defi/defi-theory/contracts/003_CrowdFund.sol\":4141:4144  _id */\n      dup5\n        /* \"Defi/defi-theory/contracts/003_CrowdFund.sol\":4127:4145  pledgedAmount[_id] */\n      dup2\n      mstore\n      0x20\n      add\n      swap1\n      dup2\n      mstore\n      0x20\n      add\n      0x00\n      keccak256\n        /* \"Defi/defi-theory/contracts/003_CrowdFund.sol\":4127:4157  pledgedAmount[_id][msg.sender] */\n      0x00\n        /* \"Defi/defi-theory/contracts/003_CrowdFund.sol\":4146:4156  msg.sender */\n      caller\n        /* \"Defi/defi-theory/contracts/003_CrowdFund.sol\":4127:4157  pledgedAmount[_id][msg.sender] */\n      0xffffffffffffffffffffffffffffffffffffffff\n      and\n      0xffffffffffffffffffffffffffffffffffffffff\n      and\n      dup2\n      mstore\n      0x20\n      add\n      swap1\n      dup2\n      mstore\n      0x20\n      add\n      0x00\n      keccak256\n      sload\n        /* \"Defi/defi-theory/contracts/003_CrowdFund.sol\":4110:4157  uint256 Amount = pledgedAmount[_id][msg.sender] */\n      swap1\n      pop\n        /* \"Defi/defi-theory/contracts/003_CrowdFund.sol\":4224:4225  0 */\n      0x00\n        /* \"Defi/defi-theory/contracts/003_CrowdFund.sol\":4191:4204  pledgedAmount */\n      0x02\n        /* \"Defi/defi-theory/contracts/003_CrowdFund.sol\":4191:4209  pledgedAmount[_id] */\n      0x00\n        /* \"Defi/defi-theory/contracts/003_CrowdFund.sol\":4205:4208  _id */\n      dup6\n        /* \"Defi/defi-theory/contracts/003_CrowdFund.sol\":4191:4209  pledgedAmount[_id] */\n      dup2\n      mstore\n      0x20\n      add\n      swap1\n      dup2\n      mstore\n      0x20\n      add\n      0x00\n      keccak256\n        /* \"Defi/defi-theory/contracts/003_CrowdFund.sol\":4191:4221  pledgedAmount[_id][msg.sender] */\n      0x00\n        /* \"Defi/defi-theory/contracts/003_CrowdFund.sol\":4210:4220  msg.sender */\n      caller\n        /* \"Defi/defi-theory/contracts/003_CrowdFund.sol\":4191:4221  pledgedAmount[_id][msg.sender] */\n      0xffffffffffffffffffffffffffffffffffffffff\n      and\n      0xffffffffffffffffffffffffffffffffffffffff\n      and\n      dup2\n      mstore\n      0x20\n      add\n      swap1\n      dup2\n      mstore\n      0x20\n      add\n      0x00\n      keccak256\n        /* \"Defi/defi-theory/contracts/003_CrowdFund.sol\":4191:4225  pledgedAmount[_id][msg.sender] = 0 */\n      dup2\n      swap1\n      sstore\n      pop\n        /* \"Defi/defi-theory/contracts/003_CrowdFund.sol\":4260:4265  token */\n      immutable(\"0xd67d834462ca31eaef1f30157e31659f60355143b7441e6fc7d9eae1fa79f3f8\")\n        /* \"Defi/defi-theory/contracts/003_CrowdFund.sol\":4260:4274  token.transfer */\n      0xffffffffffffffffffffffffffffffffffffffff\n      and\n      0xa9059cbb\n        /* \"Defi/defi-theory/contracts/003_CrowdFund.sol\":4275:4285  msg.sender */\n      caller\n        /* \"Defi/defi-theory/contracts/003_CrowdFund.sol\":4287:4293  Amount */\n      dup4\n        /* \"Defi/defi-theory/contracts/003_CrowdFund.sol\":4260:4294  token.transfer(msg.sender, Amount) */\n      mload(0x40)\n      dup4\n      0xffffffff\n      and\n      0xe0\n      shl\n      dup2\n      mstore\n      0x04\n      add\n      tag_60\n      swap3\n      swap2\n      swap1\n      tag_61\n      jump\t// in\n    tag_60:\n      0x20\n      mload(0x40)\n      dup1\n      dup4\n      sub\n      dup2\n      0x00\n      dup8\n      gas\n      call\n      iszero\n      dup1\n      iszero\n      tag_63\n      jumpi\n      returndatasize\n      0x00\n      dup1\n      returndatacopy\n      revert(0x00, returndatasize)\n    tag_63:\n      pop\n      pop\n      pop\n      pop\n      mload(0x40)\n      returndatasize\n      not(0x1f)\n      0x1f\n      dup3\n      add\n      and\n      dup3\n      add\n      dup1\n      0x40\n      mstore\n      pop\n      dup2\n      add\n      swap1\n      tag_64\n      swap2\n      swap1\n      tag_65\n      jump\t// in\n    tag_64:\n      pop\n        /* \"Defi/defi-theory/contracts/003_CrowdFund.sol\":4359:4360  0 */\n      0x00\n        /* \"Defi/defi-theory/contracts/003_CrowdFund.sol\":4340:4348  campaign */\n      dup3\n        /* \"Defi/defi-theory/contracts/003_CrowdFund.sol\":4340:4356  campaign.pledged */\n      0x02\n      add\n        /* \"Defi/defi-theory/contracts/003_CrowdFund.sol\":4340:4360  campaign.pledged = 0 */\n      dup2\n      swap1\n      sstore\n      pop\n        /* \"Defi/defi-theory/contracts/003_CrowdFund.sol\":4399:4430  Refund(_id, msg.sender, Amount) */\n      0x21e12a7cad0da5928167e1084ea4d5fdf8d9af66657a2543a9ac76a0ca081477\n        /* \"Defi/defi-theory/contracts/003_CrowdFund.sol\":4406:4409  _id */\n      dup4\n        /* \"Defi/defi-theory/contracts/003_CrowdFund.sol\":4411:4421  msg.sender */\n      caller\n        /* \"Defi/defi-theory/contracts/003_CrowdFund.sol\":4423:4429  Amount */\n      dup4\n        /* \"Defi/defi-theory/contracts/003_CrowdFund.sol\":4399:4430  Refund(_id, msg.sender, Amount) */\n      mload(0x40)\n      tag_66\n      swap4\n      swap3\n      swap2\n      swap1\n      tag_67\n      jump\t// in\n    tag_66:\n      mload(0x40)\n      dup1\n      swap2\n      sub\n      swap1\n      log1\n        /* \"Defi/defi-theory/contracts/003_CrowdFund.sol\":3852:4437  {... */\n      pop\n      pop\n        /* \"Defi/defi-theory/contracts/003_CrowdFund.sol\":3817:4437  function refund(uint _id) external {... */\n      pop\n      jump\t// out\n        /* \"Defi/defi-theory/contracts/003_CrowdFund.sol\":1330:2009  function launch(uint _goal, uint32 _startAt, uint32 _endAt) external {... */\n    tag_30:\n        /* \"Defi/defi-theory/contracts/003_CrowdFund.sol\":1429:1444  block.timestamp */\n      timestamp\n        /* \"Defi/defi-theory/contracts/003_CrowdFund.sol\":1417:1425  _startAt */\n      dup3\n        /* \"Defi/defi-theory/contracts/003_CrowdFund.sol\":1417:1444  _startAt >= block.timestamp */\n      0xffffffff\n      and\n      lt\n      iszero\n        /* \"Defi/defi-theory/contracts/003_CrowdFund.sol\":1409:1463  require(_startAt >= block.timestamp, \"start at < now\") */\n      tag_69\n      jumpi\n      mload(0x40)\n      0x08c379a000000000000000000000000000000000000000000000000000000000\n      dup2\n      mstore\n      0x04\n      add\n      tag_70\n      swap1\n      tag_71\n      jump\t// in\n    tag_70:\n      mload(0x40)\n      dup1\n      swap2\n      sub\n      swap1\n      revert\n    tag_69:\n        /* \"Defi/defi-theory/contracts/003_CrowdFund.sol\":1491:1499  _startAt */\n      dup2\n        /* \"Defi/defi-theory/contracts/003_CrowdFund.sol\":1481:1499  _endAt >= _startAt */\n      0xffffffff\n      and\n        /* \"Defi/defi-theory/contracts/003_CrowdFund.sol\":1481:1487  _endAt */\n      dup2\n        /* \"Defi/defi-theory/contracts/003_CrowdFund.sol\":1481:1499  _endAt >= _startAt */\n      0xffffffff\n      and\n      lt\n      iszero\n        /* \"Defi/defi-theory/contracts/003_CrowdFund.sol\":1473:1521  require(_endAt >= _startAt, \"end at < start at\") */\n      tag_72\n      jumpi\n      mload(0x40)\n      0x08c379a000000000000000000000000000000000000000000000000000000000\n      dup2\n      mstore\n      0x04\n      add\n      tag_73\n      swap1\n      tag_74\n      jump\t// in\n    tag_73:\n      mload(0x40)\n      dup1\n      swap2\n      sub\n      swap1\n      revert\n    tag_72:\n        /* \"Defi/defi-theory/contracts/003_CrowdFund.sol\":1560:1570  20 minutes */\n      0x04b0\n        /* \"Defi/defi-theory/contracts/003_CrowdFund.sol\":1549:1557  _startAt */\n      dup3\n        /* \"Defi/defi-theory/contracts/003_CrowdFund.sol\":1549:1570  _startAt + 20 minutes */\n      tag_75\n      swap2\n      swap1\n      tag_76\n      jump\t// in\n    tag_75:\n        /* \"Defi/defi-theory/contracts/003_CrowdFund.sol\":1539:1570  _endAt <= _startAt + 20 minutes */\n      0xffffffff\n      and\n        /* \"Defi/defi-theory/contracts/003_CrowdFund.sol\":1539:1545  _endAt */\n      dup2\n        /* \"Defi/defi-theory/contracts/003_CrowdFund.sol\":1539:1570  _endAt <= _startAt + 20 minutes */\n      0xffffffff\n      and\n      gt\n      iszero\n        /* \"Defi/defi-theory/contracts/003_CrowdFund.sol\":1531:1596  require(_endAt <= _startAt + 20 minutes, \"end at > max duration\") */\n      tag_77\n      jumpi\n      mload(0x40)\n      0x08c379a000000000000000000000000000000000000000000000000000000000\n      dup2\n      mstore\n      0x04\n      add\n      tag_78\n      swap1\n      tag_79\n      jump\t// in\n    tag_78:\n      mload(0x40)\n      dup1\n      swap2\n      sub\n      swap1\n      revert\n    tag_77:\n        /* \"Defi/defi-theory/contracts/003_CrowdFund.sol\":1677:1682  count */\n      0x00\n      dup1\n        /* \"Defi/defi-theory/contracts/003_CrowdFund.sol\":1677:1685  count ++ */\n      dup2\n      sload\n      dup1\n      swap3\n      swap2\n      swap1\n      tag_80\n      swap1\n      tag_81\n      jump\t// in\n    tag_80:\n      swap2\n      swap1\n      pop\n      sstore\n      pop\n        /* \"Defi/defi-theory/contracts/003_CrowdFund.sol\":1746:1756  msg.sender */\n      caller\n        /* \"Defi/defi-theory/contracts/003_CrowdFund.sol\":1719:1728  campaigns */\n      0x01\n        /* \"Defi/defi-theory/contracts/003_CrowdFund.sol\":1719:1735  campaigns[count] */\n      0x00\n        /* \"Defi/defi-theory/contracts/003_CrowdFund.sol\":1729:1734  count */\n      dup1\n      sload\n        /* \"Defi/defi-theory/contracts/003_CrowdFund.sol\":1719:1735  campaigns[count] */\n      dup2\n      mstore\n      0x20\n      add\n      swap1\n      dup2\n      mstore\n      0x20\n      add\n      0x00\n      keccak256\n        /* \"Defi/defi-theory/contracts/003_CrowdFund.sol\":1719:1743  campaigns[count].creator */\n      0x00\n      add\n      0x00\n        /* \"Defi/defi-theory/contracts/003_CrowdFund.sol\":1719:1756  campaigns[count].creator = msg.sender */\n      0x0100\n      exp\n      dup2\n      sload\n      dup2\n      0xffffffffffffffffffffffffffffffffffffffff\n      mul\n      not\n      and\n      swap1\n      dup4\n      0xffffffffffffffffffffffffffffffffffffffff\n      and\n      mul\n      or\n      swap1\n      sstore\n      pop\n        /* \"Defi/defi-theory/contracts/003_CrowdFund.sol\":1790:1795  _goal */\n      dup3\n        /* \"Defi/defi-theory/contracts/003_CrowdFund.sol\":1766:1775  campaigns */\n      0x01\n        /* \"Defi/defi-theory/contracts/003_CrowdFund.sol\":1766:1782  campaigns[count] */\n      0x00\n        /* \"Defi/defi-theory/contracts/003_CrowdFund.sol\":1776:1781  count */\n      dup1\n      sload\n        /* \"Defi/defi-theory/contracts/003_CrowdFund.sol\":1766:1782  campaigns[count] */\n      dup2\n      mstore\n      0x20\n      add\n      swap1\n      dup2\n      mstore\n      0x20\n      add\n      0x00\n      keccak256\n        /* \"Defi/defi-theory/contracts/003_CrowdFund.sol\":1766:1787  campaigns[count].goal */\n      0x01\n      add\n        /* \"Defi/defi-theory/contracts/003_CrowdFund.sol\":1766:1795  campaigns[count].goal = _goal */\n      dup2\n      swap1\n      sstore\n      pop\n        /* \"Defi/defi-theory/contracts/003_CrowdFund.sol\":1832:1840  _startAt */\n      dup2\n        /* \"Defi/defi-theory/contracts/003_CrowdFund.sol\":1805:1814  campaigns */\n      0x01\n        /* \"Defi/defi-theory/contracts/003_CrowdFund.sol\":1805:1821  campaigns[count] */\n      0x00\n        /* \"Defi/defi-theory/contracts/003_CrowdFund.sol\":1815:1820  count */\n      dup1\n      sload\n        /* \"Defi/defi-theory/contracts/003_CrowdFund.sol\":1805:1821  campaigns[count] */\n      dup2\n      mstore\n      0x20\n      add\n      swap1\n      dup2\n      mstore\n      0x20\n      add\n      0x00\n      keccak256\n        /* \"Defi/defi-theory/contracts/003_CrowdFund.sol\":1805:1829  campaigns[count].startAt */\n      0x03\n      add\n      0x00\n        /* \"Defi/defi-theory/contracts/003_CrowdFund.sol\":1805:1840  campaigns[count].startAt = _startAt */\n      0x0100\n      exp\n      dup2\n      sload\n      dup2\n      0xffffffff\n      mul\n      not\n      and\n      swap1\n      dup4\n      0xffffffff\n      and\n      mul\n      or\n      swap1\n      sstore\n      pop\n        /* \"Defi/defi-theory/contracts/003_CrowdFund.sol\":1875:1881  _endAt */\n      dup1\n        /* \"Defi/defi-theory/contracts/003_CrowdFund.sol\":1850:1859  campaigns */\n      0x01\n        /* \"Defi/defi-theory/contracts/003_CrowdFund.sol\":1850:1866  campaigns[count] */\n      0x00\n        /* \"Defi/defi-theory/contracts/003_CrowdFund.sol\":1860:1865  count */\n      dup1\n      sload\n        /* \"Defi/defi-theory/contracts/003_CrowdFund.sol\":1850:1866  campaigns[count] */\n      dup2\n      mstore\n      0x20\n      add\n      swap1\n      dup2\n      mstore\n      0x20\n      add\n      0x00\n      keccak256\n        /* \"Defi/defi-theory/contracts/003_CrowdFund.sol\":1850:1872  campaigns[count].endAt */\n      0x03\n      add\n      0x04\n        /* \"Defi/defi-theory/contracts/003_CrowdFund.sol\":1850:1881  campaigns[count].endAt = _endAt */\n      0x0100\n      exp\n      dup2\n      sload\n      dup2\n      0xffffffff\n      mul\n      not\n      and\n      swap1\n      dup4\n      0xffffffff\n      and\n      mul\n      or\n      swap1\n      sstore\n      pop\n        /* \"Defi/defi-theory/contracts/003_CrowdFund.sol\":1920:1984  Launch(count, campaigns[count].creator, _goal, _startAt, _endAt) */\n      0x0601cd0d650b473037e838a2696d41e654433d065b3f56b28d1d3302e44a304f\n        /* \"Defi/defi-theory/contracts/003_CrowdFund.sol\":1927:1932  count */\n      sload(0x00)\n        /* \"Defi/defi-theory/contracts/003_CrowdFund.sol\":1934:1943  campaigns */\n      0x01\n        /* \"Defi/defi-theory/contracts/003_CrowdFund.sol\":1934:1950  campaigns[count] */\n      0x00\n        /* \"Defi/defi-theory/contracts/003_CrowdFund.sol\":1944:1949  count */\n      dup1\n      sload\n        /* \"Defi/defi-theory/contracts/003_CrowdFund.sol\":1934:1950  campaigns[count] */\n      dup2\n      mstore\n      0x20\n      add\n      swap1\n      dup2\n      mstore\n      0x20\n      add\n      0x00\n      keccak256\n        /* \"Defi/defi-theory/contracts/003_CrowdFund.sol\":1934:1958  campaigns[count].creator */\n      0x00\n      add\n      0x00\n      swap1\n      sload\n      swap1\n      0x0100\n      exp\n      swap1\n      div\n      0xffffffffffffffffffffffffffffffffffffffff\n      and\n        /* \"Defi/defi-theory/contracts/003_CrowdFund.sol\":1960:1965  _goal */\n      dup6\n        /* \"Defi/defi-theory/contracts/003_CrowdFund.sol\":1967:1975  _startAt */\n      dup6\n        /* \"Defi/defi-theory/contracts/003_CrowdFund.sol\":1977:1983  _endAt */\n      dup6\n        /* \"Defi/defi-theory/contracts/003_CrowdFund.sol\":1920:1984  Launch(count, campaigns[count].creator, _goal, _startAt, _endAt) */\n      mload(0x40)\n      tag_82\n      swap6\n      swap5\n      swap4\n      swap3\n      swap2\n      swap1\n      tag_83\n      jump\t// in\n    tag_82:\n      mload(0x40)\n      dup1\n      swap2\n      sub\n      swap1\n      log1\n        /* \"Defi/defi-theory/contracts/003_CrowdFund.sol\":1330:2009  function launch(uint _goal, uint32 _startAt, uint32 _endAt) external {... */\n      pop\n      pop\n      pop\n      jump\t// out\n        /* \"Defi/defi-theory/contracts/003_CrowdFund.sol\":3182:3811  function claim(uint _id) external {... */\n    tag_33:\n        /* \"Defi/defi-theory/contracts/003_CrowdFund.sol\":3244:3269  Campaign storage campaign */\n      0x00\n        /* \"Defi/defi-theory/contracts/003_CrowdFund.sol\":3272:3281  campaigns */\n      0x01\n        /* \"Defi/defi-theory/contracts/003_CrowdFund.sol\":3272:3286  campaigns[_id] */\n      0x00\n        /* \"Defi/defi-theory/contracts/003_CrowdFund.sol\":3282:3285  _id */\n      dup4\n        /* \"Defi/defi-theory/contracts/003_CrowdFund.sol\":3272:3286  campaigns[_id] */\n      dup2\n      mstore\n      0x20\n      add\n      swap1\n      dup2\n      mstore\n      0x20\n      add\n      0x00\n      keccak256\n        /* \"Defi/defi-theory/contracts/003_CrowdFund.sol\":3244:3286  Campaign storage campaign = campaigns[_id] */\n      swap1\n      pop\n        /* \"Defi/defi-theory/contracts/003_CrowdFund.sol\":3333:3343  msg.sender */\n      caller\n        /* \"Defi/defi-theory/contracts/003_CrowdFund.sol\":3313:3343  campaign.creator == msg.sender */\n      0xffffffffffffffffffffffffffffffffffffffff\n      and\n        /* \"Defi/defi-theory/contracts/003_CrowdFund.sol\":3313:3321  campaign */\n      dup2\n        /* \"Defi/defi-theory/contracts/003_CrowdFund.sol\":3313:3329  campaign.creator */\n      0x00\n      add\n      0x00\n      swap1\n      sload\n      swap1\n      0x0100\n      exp\n      swap1\n      div\n      0xffffffffffffffffffffffffffffffffffffffff\n      and\n        /* \"Defi/defi-theory/contracts/003_CrowdFund.sol\":3313:3343  campaign.creator == msg.sender */\n      0xffffffffffffffffffffffffffffffffffffffff\n      and\n      eq\n        /* \"Defi/defi-theory/contracts/003_CrowdFund.sol\":3305:3359  require(campaign.creator == msg.sender, \"not creator\") */\n      tag_85\n      jumpi\n      mload(0x40)\n      0x08c379a000000000000000000000000000000000000000000000000000000000\n      dup2\n      mstore\n      0x04\n      add\n      tag_86\n      swap1\n      tag_87\n      jump\t// in\n    tag_86:\n      mload(0x40)\n      dup1\n      swap2\n      sub\n      swap1\n      revert\n    tag_85:\n        /* \"Defi/defi-theory/contracts/003_CrowdFund.sol\":3395:3403  campaign */\n      dup1\n        /* \"Defi/defi-theory/contracts/003_CrowdFund.sol\":3395:3409  campaign.endAt */\n      0x03\n      add\n      0x04\n      swap1\n      sload\n      swap1\n      0x0100\n      exp\n      swap1\n      div\n      0xffffffff\n      and\n        /* \"Defi/defi-theory/contracts/003_CrowdFund.sol\":3377:3409  block.timestamp > campaign.endAt */\n      0xffffffff\n      and\n        /* \"Defi/defi-theory/contracts/003_CrowdFund.sol\":3377:3392  block.timestamp */\n      timestamp\n        /* \"Defi/defi-theory/contracts/003_CrowdFund.sol\":3377:3409  block.timestamp > campaign.endAt */\n      gt\n        /* \"Defi/defi-theory/contracts/003_CrowdFund.sol\":3369:3423  require(block.timestamp > campaign.endAt, \"not ended\") */\n      tag_88\n      jumpi\n      mload(0x40)\n      0x08c379a000000000000000000000000000000000000000000000000000000000\n      dup2\n      mstore\n      0x04\n      add\n      tag_89\n      swap1\n      tag_56\n      jump\t// in\n    tag_89:\n      mload(0x40)\n      dup1\n      swap2\n      sub\n      swap1\n      revert\n    tag_88:\n        /* \"Defi/defi-theory/contracts/003_CrowdFund.sol\":3461:3469  campaign */\n      dup1\n        /* \"Defi/defi-theory/contracts/003_CrowdFund.sol\":3461:3474  campaign.goal */\n      0x01\n      add\n      sload\n        /* \"Defi/defi-theory/contracts/003_CrowdFund.sol\":3441:3449  campaign */\n      dup2\n        /* \"Defi/defi-theory/contracts/003_CrowdFund.sol\":3441:3457  campaign.pledged */\n      0x02\n      add\n      sload\n        /* \"Defi/defi-theory/contracts/003_CrowdFund.sol\":3441:3474  campaign.pledged >= campaign.goal */\n      lt\n      iszero\n        /* \"Defi/defi-theory/contracts/003_CrowdFund.sol\":3433:3493  require(campaign.pledged >= campaign.goal, \"pledged < goal\") */\n      tag_90\n      jumpi\n      mload(0x40)\n      0x08c379a000000000000000000000000000000000000000000000000000000000\n      dup2\n      mstore\n      0x04\n      add\n      tag_91\n      swap1\n      tag_92\n      jump\t// in\n    tag_91:\n      mload(0x40)\n      dup1\n      swap2\n      sub\n      swap1\n      revert\n    tag_90:\n        /* \"Defi/defi-theory/contracts/003_CrowdFund.sol\":3512:3520  campaign */\n      dup1\n        /* \"Defi/defi-theory/contracts/003_CrowdFund.sol\":3512:3528  campaign.claimed */\n      0x03\n      add\n      0x08\n      swap1\n      sload\n      swap1\n      0x0100\n      exp\n      swap1\n      div\n      0xff\n      and\n        /* \"Defi/defi-theory/contracts/003_CrowdFund.sol\":3511:3528  !campaign.claimed */\n      iszero\n        /* \"Defi/defi-theory/contracts/003_CrowdFund.sol\":3503:3540  require(!campaign.claimed, \"claimed\") */\n      tag_93\n      jumpi\n      mload(0x40)\n      0x08c379a000000000000000000000000000000000000000000000000000000000\n      dup2\n      mstore\n      0x04\n      add\n      tag_94\n      swap1\n      tag_95\n      jump\t// in\n    tag_94:\n      mload(0x40)\n      dup1\n      swap2\n      sub\n      swap1\n      revert\n    tag_93:\n        /* \"Defi/defi-theory/contracts/003_CrowdFund.sol\":3593:3598  token */\n      immutable(\"0xd67d834462ca31eaef1f30157e31659f60355143b7441e6fc7d9eae1fa79f3f8\")\n        /* \"Defi/defi-theory/contracts/003_CrowdFund.sol\":3593:3607  token.transfer */\n      0xffffffffffffffffffffffffffffffffffffffff\n      and\n      0xa9059cbb\n        /* \"Defi/defi-theory/contracts/003_CrowdFund.sol\":3608:3616  campaign */\n      dup3\n        /* \"Defi/defi-theory/contracts/003_CrowdFund.sol\":3608:3624  campaign.creator */\n      0x00\n      add\n      0x00\n      swap1\n      sload\n      swap1\n      0x0100\n      exp\n      swap1\n      div\n      0xffffffffffffffffffffffffffffffffffffffff\n      and\n        /* \"Defi/defi-theory/contracts/003_CrowdFund.sol\":3625:3633  campaign */\n      dup4\n        /* \"Defi/defi-theory/contracts/003_CrowdFund.sol\":3625:3641  campaign.pledged */\n      0x02\n      add\n      sload\n        /* \"Defi/defi-theory/contracts/003_CrowdFund.sol\":3593:3643  token.transfer(campaign.creator,campaign.pledged ) */\n      mload(0x40)\n      dup4\n      0xffffffff\n      and\n      0xe0\n      shl\n      dup2\n      mstore\n      0x04\n      add\n      tag_96\n      swap3\n      swap2\n      swap1\n      tag_61\n      jump\t// in\n    tag_96:\n      0x20\n      mload(0x40)\n      dup1\n      dup4\n      sub\n      dup2\n      0x00\n      dup8\n      gas\n      call\n      iszero\n      dup1\n      iszero\n      tag_98\n      jumpi\n      returndatasize\n      0x00\n      dup1\n      returndatacopy\n      revert(0x00, returndatasize)\n    tag_98:\n      pop\n      pop\n      pop\n      pop\n      mload(0x40)\n      returndatasize\n      not(0x1f)\n      0x1f\n      dup3\n      add\n      and\n      dup3\n      add\n      dup1\n      0x40\n      mstore\n      pop\n      dup2\n      add\n      swap1\n      tag_99\n      swap2\n      swap1\n      tag_65\n      jump\t// in\n    tag_99:\n      pop\n        /* \"Defi/defi-theory/contracts/003_CrowdFund.sol\":3695:3699  true */\n      0x01\n        /* \"Defi/defi-theory/contracts/003_CrowdFund.sol\":3676:3684  campaign */\n      dup2\n        /* \"Defi/defi-theory/contracts/003_CrowdFund.sol\":3676:3692  campaign.claimed */\n      0x03\n      add\n      0x08\n        /* \"Defi/defi-theory/contracts/003_CrowdFund.sol\":3676:3699  campaign.claimed = true */\n      0x0100\n      exp\n      dup2\n      sload\n      dup2\n      0xff\n      mul\n      not\n      and\n      swap1\n      dup4\n      iszero\n      iszero\n      mul\n      or\n      swap1\n      sstore\n      pop\n        /* \"Defi/defi-theory/contracts/003_CrowdFund.sol\":3752:3753  0 */\n      0x00\n        /* \"Defi/defi-theory/contracts/003_CrowdFund.sol\":3733:3741  campaign */\n      dup2\n        /* \"Defi/defi-theory/contracts/003_CrowdFund.sol\":3733:3749  campaign.pledged */\n      0x02\n      add\n        /* \"Defi/defi-theory/contracts/003_CrowdFund.sol\":3733:3753  campaign.pledged = 0 */\n      dup2\n      swap1\n      sstore\n      pop\n        /* \"Defi/defi-theory/contracts/003_CrowdFund.sol\":3793:3803  Claim(_id) */\n      0x7bb2b3c10797baccb6f8c4791f1edd6ca2f0d028ee0eda64b01a9a57e3a653f7\n        /* \"Defi/defi-theory/contracts/003_CrowdFund.sol\":3799:3802  _id */\n      dup3\n        /* \"Defi/defi-theory/contracts/003_CrowdFund.sol\":3793:3803  Claim(_id) */\n      mload(0x40)\n      tag_100\n      swap2\n      swap1\n      tag_17\n      jump\t// in\n    tag_100:\n      mload(0x40)\n      dup1\n      swap2\n      sub\n      swap1\n      log1\n        /* \"Defi/defi-theory/contracts/003_CrowdFund.sol\":3216:3811  {... */\n      pop\n        /* \"Defi/defi-theory/contracts/003_CrowdFund.sol\":3182:3811  function claim(uint _id) external {... */\n      pop\n      jump\t// out\n        /* \"Defi/defi-theory/contracts/003_CrowdFund.sol\":4442:4522  function get() view public returns(uint) {... */\n    tag_35:\n        /* \"Defi/defi-theory/contracts/003_CrowdFund.sol\":4477:4481  uint */\n      0x00\n        /* \"Defi/defi-theory/contracts/003_CrowdFund.sol\":4500:4515  block.timestamp */\n      timestamp\n        /* \"Defi/defi-theory/contracts/003_CrowdFund.sol\":4493:4515  return block.timestamp */\n      swap1\n      pop\n        /* \"Defi/defi-theory/contracts/003_CrowdFund.sol\":4442:4522  function get() view public returns(uint) {... */\n      swap1\n      jump\t// out\n        /* \"Defi/defi-theory/contracts/003_CrowdFund.sol\":2599:3176  function unpledge(uint _id, uint _amount) external {... */\n    tag_40:\n        /* \"Defi/defi-theory/contracts/003_CrowdFund.sol\":2740:2749  campaigns */\n      0x01\n        /* \"Defi/defi-theory/contracts/003_CrowdFund.sol\":2740:2754  campaigns[_id] */\n      0x00\n        /* \"Defi/defi-theory/contracts/003_CrowdFund.sol\":2750:2753  _id */\n      dup4\n        /* \"Defi/defi-theory/contracts/003_CrowdFund.sol\":2740:2754  campaigns[_id] */\n      dup2\n      mstore\n      0x20\n      add\n      swap1\n      dup2\n      mstore\n      0x20\n      add\n      0x00\n      keccak256\n        /* \"Defi/defi-theory/contracts/003_CrowdFund.sol\":2740:2760  campaigns[_id].endAt */\n      0x03\n      add\n      0x04\n      swap1\n      sload\n      swap1\n      0x0100\n      exp\n      swap1\n      div\n      0xffffffff\n      and\n        /* \"Defi/defi-theory/contracts/003_CrowdFund.sol\":2722:2760  block.timestamp < campaigns[_id].endAt */\n      0xffffffff\n      and\n        /* \"Defi/defi-theory/contracts/003_CrowdFund.sol\":2722:2737  block.timestamp */\n      timestamp\n        /* \"Defi/defi-theory/contracts/003_CrowdFund.sol\":2722:2760  block.timestamp < campaigns[_id].endAt */\n      lt\n        /* \"Defi/defi-theory/contracts/003_CrowdFund.sol\":2714:2761  require(block.timestamp < campaigns[_id].endAt) */\n      tag_103\n      jumpi\n      0x00\n      dup1\n      revert\n    tag_103:\n        /* \"Defi/defi-theory/contracts/003_CrowdFund.sol\":2841:2854  pledgedAmount */\n      0x02\n        /* \"Defi/defi-theory/contracts/003_CrowdFund.sol\":2841:2859  pledgedAmount[_id] */\n      0x00\n        /* \"Defi/defi-theory/contracts/003_CrowdFund.sol\":2855:2858  _id */\n      dup4\n        /* \"Defi/defi-theory/contracts/003_CrowdFund.sol\":2841:2859  pledgedAmount[_id] */\n      dup2\n      mstore\n      0x20\n      add\n      swap1\n      dup2\n      mstore\n      0x20\n      add\n      0x00\n      keccak256\n        /* \"Defi/defi-theory/contracts/003_CrowdFund.sol\":2841:2871  pledgedAmount[_id][msg.sender] */\n      0x00\n        /* \"Defi/defi-theory/contracts/003_CrowdFund.sol\":2860:2870  msg.sender */\n      caller\n        /* \"Defi/defi-theory/contracts/003_CrowdFund.sol\":2841:2871  pledgedAmount[_id][msg.sender] */\n      0xffffffffffffffffffffffffffffffffffffffff\n      and\n      0xffffffffffffffffffffffffffffffffffffffff\n      and\n      dup2\n      mstore\n      0x20\n      add\n      swap1\n      dup2\n      mstore\n      0x20\n      add\n      0x00\n      keccak256\n      sload\n        /* \"Defi/defi-theory/contracts/003_CrowdFund.sol\":2830:2837  _amount */\n      dup2\n        /* \"Defi/defi-theory/contracts/003_CrowdFund.sol\":2830:2871  _amount <= pledgedAmount[_id][msg.sender] */\n      gt\n      iszero\n        /* \"Defi/defi-theory/contracts/003_CrowdFund.sol\":2822:2872  require(_amount <= pledgedAmount[_id][msg.sender]) */\n      tag_104\n      jumpi\n      0x00\n      dup1\n      revert\n    tag_104:\n        /* \"Defi/defi-theory/contracts/003_CrowdFund.sol\":2900:2905  token */\n      immutable(\"0xd67d834462ca31eaef1f30157e31659f60355143b7441e6fc7d9eae1fa79f3f8\")\n        /* \"Defi/defi-theory/contracts/003_CrowdFund.sol\":2900:2914  token.transfer */\n      0xffffffffffffffffffffffffffffffffffffffff\n      and\n      0xa9059cbb\n        /* \"Defi/defi-theory/contracts/003_CrowdFund.sol\":2915:2925  msg.sender */\n      caller\n        /* \"Defi/defi-theory/contracts/003_CrowdFund.sol\":2926:2933  _amount */\n      dup4\n        /* \"Defi/defi-theory/contracts/003_CrowdFund.sol\":2900:2934  token.transfer(msg.sender,_amount) */\n      mload(0x40)\n      dup4\n      0xffffffff\n      and\n      0xe0\n      shl\n      dup2\n      mstore\n      0x04\n      add\n      tag_105\n      swap3\n      swap2\n      swap1\n      tag_61\n      jump\t// in\n    tag_105:\n      0x20\n      mload(0x40)\n      dup1\n      dup4\n      sub\n      dup2\n      0x00\n      dup8\n      gas\n      call\n      iszero\n      dup1\n      iszero\n      tag_107\n      jumpi\n      returndatasize\n      0x00\n      dup1\n      returndatacopy\n      revert(0x00, returndatasize)\n    tag_107:\n      pop\n      pop\n      pop\n      pop\n      mload(0x40)\n      returndatasize\n      not(0x1f)\n      0x1f\n      dup3\n      add\n      and\n      dup3\n      add\n      dup1\n      0x40\n      mstore\n      pop\n      dup2\n      add\n      swap1\n      tag_108\n      swap2\n      swap1\n      tag_65\n      jump\t// in\n    tag_108:\n      pop\n        /* \"Defi/defi-theory/contracts/003_CrowdFund.sol\":3008:3015  _amount */\n      dup1\n        /* \"Defi/defi-theory/contracts/003_CrowdFund.sol\":2982:2991  campaigns */\n      0x01\n        /* \"Defi/defi-theory/contracts/003_CrowdFund.sol\":2982:2996  campaigns[_id] */\n      0x00\n        /* \"Defi/defi-theory/contracts/003_CrowdFund.sol\":2992:2995  _id */\n      dup5\n        /* \"Defi/defi-theory/contracts/003_CrowdFund.sol\":2982:2996  campaigns[_id] */\n      dup2\n      mstore\n      0x20\n      add\n      swap1\n      dup2\n      mstore\n      0x20\n      add\n      0x00\n      keccak256\n        /* \"Defi/defi-theory/contracts/003_CrowdFund.sol\":2982:3004  campaigns[_id].pledged */\n      0x02\n      add\n      0x00\n        /* \"Defi/defi-theory/contracts/003_CrowdFund.sol\":2982:3015  campaigns[_id].pledged -= _amount */\n      dup3\n      dup3\n      sload\n      tag_109\n      swap2\n      swap1\n      tag_110\n      jump\t// in\n    tag_109:\n      swap3\n      pop\n      pop\n      dup2\n      swap1\n      sstore\n      pop\n        /* \"Defi/defi-theory/contracts/003_CrowdFund.sol\":3089:3096  _amount */\n      dup1\n        /* \"Defi/defi-theory/contracts/003_CrowdFund.sol\":3055:3068  pledgedAmount */\n      0x02\n        /* \"Defi/defi-theory/contracts/003_CrowdFund.sol\":3055:3073  pledgedAmount[_id] */\n      0x00\n        /* \"Defi/defi-theory/contracts/003_CrowdFund.sol\":3069:3072  _id */\n      dup5\n        /* \"Defi/defi-theory/contracts/003_CrowdFund.sol\":3055:3073  pledgedAmount[_id] */\n      dup2\n      mstore\n      0x20\n      add\n      swap1\n      dup2\n      mstore\n      0x20\n      add\n      0x00\n      keccak256\n        /* \"Defi/defi-theory/contracts/003_CrowdFund.sol\":3055:3085  pledgedAmount[_id][msg.sender] */\n      0x00\n        /* \"Defi/defi-theory/contracts/003_CrowdFund.sol\":3074:3084  msg.sender */\n      caller\n        /* \"Defi/defi-theory/contracts/003_CrowdFund.sol\":3055:3085  pledgedAmount[_id][msg.sender] */\n      0xffffffffffffffffffffffffffffffffffffffff\n      and\n      0xffffffffffffffffffffffffffffffffffffffff\n      and\n      dup2\n      mstore\n      0x20\n      add\n      swap1\n      dup2\n      mstore\n      0x20\n      add\n      0x00\n      keccak256\n      0x00\n        /* \"Defi/defi-theory/contracts/003_CrowdFund.sol\":3055:3096  pledgedAmount[_id][msg.sender] -= _amount */\n      dup3\n      dup3\n      sload\n      tag_111\n      swap2\n      swap1\n      tag_110\n      jump\t// in\n    tag_111:\n      swap3\n      pop\n      pop\n      dup2\n      swap1\n      sstore\n      pop\n        /* \"Defi/defi-theory/contracts/003_CrowdFund.sol\":3135:3169  Unpledge(_id, msg.sender, _amount) */\n      0x2eeeab891b26a214d1b25749f88a406bdea852bd8c9bfda977e0ef8114c180ba\n        /* \"Defi/defi-theory/contracts/003_CrowdFund.sol\":3144:3147  _id */\n      dup3\n        /* \"Defi/defi-theory/contracts/003_CrowdFund.sol\":3149:3159  msg.sender */\n      caller\n        /* \"Defi/defi-theory/contracts/003_CrowdFund.sol\":3161:3168  _amount */\n      dup4\n        /* \"Defi/defi-theory/contracts/003_CrowdFund.sol\":3135:3169  Unpledge(_id, msg.sender, _amount) */\n      mload(0x40)\n      tag_112\n      swap4\n      swap3\n      swap2\n      swap1\n      tag_67\n      jump\t// in\n    tag_112:\n      mload(0x40)\n      dup1\n      swap2\n      sub\n      swap1\n      log1\n        /* \"Defi/defi-theory/contracts/003_CrowdFund.sol\":2599:3176  function unpledge(uint _id, uint _amount) external {... */\n      pop\n      pop\n      jump\t// out\n        /* \"Defi/defi-theory/contracts/003_CrowdFund.sol\":816:878  mapping(uint => mapping(address => uint)) public pledgedAmount */\n    tag_44:\n      mstore(0x20, 0x02)\n      dup2\n      0x00\n      mstore\n      mstore(0x20, keccak256(0x00, 0x40))\n      dup1\n      0x00\n      mstore\n      keccak256(0x00, 0x40)\n      0x00\n      swap2\n      pop\n      swap2\n      pop\n      pop\n      sload\n      dup2\n      jump\t// out\n        /* \"Defi/defi-theory/contracts/003_CrowdFund.sol\":611:640  IERC20 public immutable token */\n    tag_47:\n      immutable(\"0xd67d834462ca31eaef1f30157e31659f60355143b7441e6fc7d9eae1fa79f3f8\")\n      dup2\n      jump\t// out\n        /* \"Defi/defi-theory/contracts/003_CrowdFund.sol\":2015:2593  function pledge(uint _id, uint _amount) external {... */\n    tag_52:\n        /* \"Defi/defi-theory/contracts/003_CrowdFund.sol\":2074:2099  Campaign storage campaign */\n      0x00\n        /* \"Defi/defi-theory/contracts/003_CrowdFund.sol\":2102:2111  campaigns */\n      0x01\n        /* \"Defi/defi-theory/contracts/003_CrowdFund.sol\":2102:2116  campaigns[_id] */\n      0x00\n        /* \"Defi/defi-theory/contracts/003_CrowdFund.sol\":2112:2115  _id */\n      dup5\n        /* \"Defi/defi-theory/contracts/003_CrowdFund.sol\":2102:2116  campaigns[_id] */\n      dup2\n      mstore\n      0x20\n      add\n      swap1\n      dup2\n      mstore\n      0x20\n      add\n      0x00\n      keccak256\n        /* \"Defi/defi-theory/contracts/003_CrowdFund.sol\":2074:2116  Campaign storage campaign = campaigns[_id] */\n      swap1\n      pop\n        /* \"Defi/defi-theory/contracts/003_CrowdFund.sol\":2153:2161  campaign */\n      dup1\n        /* \"Defi/defi-theory/contracts/003_CrowdFund.sol\":2153:2169  campaign.startAt */\n      0x03\n      add\n      0x00\n      swap1\n      sload\n      swap1\n      0x0100\n      exp\n      swap1\n      div\n      0xffffffff\n      and\n        /* \"Defi/defi-theory/contracts/003_CrowdFund.sol\":2134:2169  block.timestamp >= campaign.startAt */\n      0xffffffff\n      and\n        /* \"Defi/defi-theory/contracts/003_CrowdFund.sol\":2134:2149  block.timestamp */\n      timestamp\n        /* \"Defi/defi-theory/contracts/003_CrowdFund.sol\":2134:2169  block.timestamp >= campaign.startAt */\n      lt\n      iszero\n        /* \"Defi/defi-theory/contracts/003_CrowdFund.sol\":2126:2185  require(block.timestamp >= campaign.startAt, \"not started\") */\n      tag_114\n      jumpi\n      mload(0x40)\n      0x08c379a000000000000000000000000000000000000000000000000000000000\n      dup2\n      mstore\n      0x04\n      add\n      tag_115\n      swap1\n      tag_116\n      jump\t// in\n    tag_115:\n      mload(0x40)\n      dup1\n      swap2\n      sub\n      swap1\n      revert\n    tag_114:\n        /* \"Defi/defi-theory/contracts/003_CrowdFund.sol\":2222:2230  campaign */\n      dup1\n        /* \"Defi/defi-theory/contracts/003_CrowdFund.sol\":2222:2236  campaign.endAt */\n      0x03\n      add\n      0x04\n      swap1\n      sload\n      swap1\n      0x0100\n      exp\n      swap1\n      div\n      0xffffffff\n      and\n        /* \"Defi/defi-theory/contracts/003_CrowdFund.sol\":2203:2236  block.timestamp <= campaign.endAt */\n      0xffffffff\n      and\n        /* \"Defi/defi-theory/contracts/003_CrowdFund.sol\":2203:2218  block.timestamp */\n      timestamp\n        /* \"Defi/defi-theory/contracts/003_CrowdFund.sol\":2203:2236  block.timestamp <= campaign.endAt */\n      gt\n      iszero\n        /* \"Defi/defi-theory/contracts/003_CrowdFund.sol\":2195:2246  require(block.timestamp <= campaign.endAt, \"ended\") */\n      tag_117\n      jumpi\n      mload(0x40)\n      0x08c379a000000000000000000000000000000000000000000000000000000000\n      dup2\n      mstore\n      0x04\n      add\n      tag_118\n      swap1\n      tag_119\n      jump\t// in\n    tag_118:\n      mload(0x40)\n      dup1\n      swap2\n      sub\n      swap1\n      revert\n    tag_117:\n        /* \"Defi/defi-theory/contracts/003_CrowdFund.sol\":2300:2305  token */\n      immutable(\"0xd67d834462ca31eaef1f30157e31659f60355143b7441e6fc7d9eae1fa79f3f8\")\n        /* \"Defi/defi-theory/contracts/003_CrowdFund.sol\":2300:2318  token.transferFrom */\n      0xffffffffffffffffffffffffffffffffffffffff\n      and\n      0x23b872dd\n        /* \"Defi/defi-theory/contracts/003_CrowdFund.sol\":2319:2329  msg.sender */\n      caller\n        /* \"Defi/defi-theory/contracts/003_CrowdFund.sol\":2338:2342  this */\n      address\n        /* \"Defi/defi-theory/contracts/003_CrowdFund.sol\":2344:2351  _amount */\n      dup6\n        /* \"Defi/defi-theory/contracts/003_CrowdFund.sol\":2300:2352  token.transferFrom(msg.sender,address(this),_amount) */\n      mload(0x40)\n      dup5\n      0xffffffff\n      and\n      0xe0\n      shl\n      dup2\n      mstore\n      0x04\n      add\n      tag_120\n      swap4\n      swap3\n      swap2\n      swap1\n      tag_121\n      jump\t// in\n    tag_120:\n      0x20\n      mload(0x40)\n      dup1\n      dup4\n      sub\n      dup2\n      0x00\n      dup8\n      gas\n      call\n      iszero\n      dup1\n      iszero\n      tag_123\n      jumpi\n      returndatasize\n      0x00\n      dup1\n      returndatacopy\n      revert(0x00, returndatasize)\n    tag_123:\n      pop\n      pop\n      pop\n      pop\n      mload(0x40)\n      returndatasize\n      not(0x1f)\n      0x1f\n      dup3\n      add\n      and\n      dup3\n      add\n      dup1\n      0x40\n      mstore\n      pop\n      dup2\n      add\n      swap1\n      tag_124\n      swap2\n      swap1\n      tag_65\n      jump\t// in\n    tag_124:\n      pop\n        /* \"Defi/defi-theory/contracts/003_CrowdFund.sol\":2426:2433  _amount */\n      dup2\n        /* \"Defi/defi-theory/contracts/003_CrowdFund.sol\":2400:2409  campaigns */\n      0x01\n        /* \"Defi/defi-theory/contracts/003_CrowdFund.sol\":2400:2414  campaigns[_id] */\n      0x00\n        /* \"Defi/defi-theory/contracts/003_CrowdFund.sol\":2410:2413  _id */\n      dup6\n        /* \"Defi/defi-theory/contracts/003_CrowdFund.sol\":2400:2414  campaigns[_id] */\n      dup2\n      mstore\n      0x20\n      add\n      swap1\n      dup2\n      mstore\n      0x20\n      add\n      0x00\n      keccak256\n        /* \"Defi/defi-theory/contracts/003_CrowdFund.sol\":2400:2422  campaigns[_id].pledged */\n      0x02\n      add\n      0x00\n        /* \"Defi/defi-theory/contracts/003_CrowdFund.sol\":2400:2433  campaigns[_id].pledged += _amount */\n      dup3\n      dup3\n      sload\n      tag_125\n      swap2\n      swap1\n      tag_126\n      jump\t// in\n    tag_125:\n      swap3\n      pop\n      pop\n      dup2\n      swap1\n      sstore\n      pop\n        /* \"Defi/defi-theory/contracts/003_CrowdFund.sol\":2507:2514  _amount */\n      dup2\n        /* \"Defi/defi-theory/contracts/003_CrowdFund.sol\":2473:2486  pledgedAmount */\n      0x02\n        /* \"Defi/defi-theory/contracts/003_CrowdFund.sol\":2473:2491  pledgedAmount[_id] */\n      0x00\n        /* \"Defi/defi-theory/contracts/003_CrowdFund.sol\":2487:2490  _id */\n      dup6\n        /* \"Defi/defi-theory/contracts/003_CrowdFund.sol\":2473:2491  pledgedAmount[_id] */\n      dup2\n      mstore\n      0x20\n      add\n      swap1\n      dup2\n      mstore\n      0x20\n      add\n      0x00\n      keccak256\n        /* \"Defi/defi-theory/contracts/003_CrowdFund.sol\":2473:2503  pledgedAmount[_id][msg.sender] */\n      0x00\n        /* \"Defi/defi-theory/contracts/003_CrowdFund.sol\":2492:2502  msg.sender */\n      caller\n        /* \"Defi/defi-theory/contracts/003_CrowdFund.sol\":2473:2503  pledgedAmount[_id][msg.sender] */\n      0xffffffffffffffffffffffffffffffffffffffff\n      and\n      0xffffffffffffffffffffffffffffffffffffffff\n      and\n      dup2\n      mstore\n      0x20\n      add\n      swap1\n      dup2\n      mstore\n      0x20\n      add\n      0x00\n      keccak256\n      0x00\n        /* \"Defi/defi-theory/contracts/003_CrowdFund.sol\":2473:2514  pledgedAmount[_id][msg.sender] += _amount */\n      dup3\n      dup3\n      sload\n      tag_127\n      swap2\n      swap1\n      tag_126\n      jump\t// in\n    tag_127:\n      swap3\n      pop\n      pop\n      dup2\n      swap1\n      sstore\n      pop\n        /* \"Defi/defi-theory/contracts/003_CrowdFund.sol\":2553:2585  Pledge(_id, msg.sender, _amount) */\n      0x06bdb975df800a73232998e71ed585d536222f1dfeaa622d7f62a23ada686c82\n        /* \"Defi/defi-theory/contracts/003_CrowdFund.sol\":2560:2563  _id */\n      dup4\n        /* \"Defi/defi-theory/contracts/003_CrowdFund.sol\":2565:2575  msg.sender */\n      caller\n        /* \"Defi/defi-theory/contracts/003_CrowdFund.sol\":2577:2584  _amount */\n      dup5\n        /* \"Defi/defi-theory/contracts/003_CrowdFund.sol\":2553:2585  Pledge(_id, msg.sender, _amount) */\n      mload(0x40)\n      tag_128\n      swap4\n      swap3\n      swap2\n      swap1\n      tag_67\n      jump\t// in\n    tag_128:\n      mload(0x40)\n      dup1\n      swap2\n      sub\n      swap1\n      log1\n        /* \"Defi/defi-theory/contracts/003_CrowdFund.sol\":2064:2593  {... */\n      pop\n        /* \"Defi/defi-theory/contracts/003_CrowdFund.sol\":2015:2593  function pledge(uint _id, uint _amount) external {... */\n      pop\n      pop\n      jump\t// out\n        /* \"#utility.yul\":7:84   */\n    tag_129:\n        /* \"#utility.yul\":44:51   */\n      0x00\n        /* \"#utility.yul\":73:78   */\n      dup2\n        /* \"#utility.yul\":62:78   */\n      swap1\n      pop\n        /* \"#utility.yul\":7:84   */\n      swap2\n      swap1\n      pop\n      jump\t// out\n        /* \"#utility.yul\":90:208   */\n    tag_130:\n        /* \"#utility.yul\":177:201   */\n      tag_179\n        /* \"#utility.yul\":195:200   */\n      dup2\n        /* \"#utility.yul\":177:201   */\n      tag_129\n      jump\t// in\n    tag_179:\n        /* \"#utility.yul\":172:175   */\n      dup3\n        /* \"#utility.yul\":165:202   */\n      mstore\n        /* \"#utility.yul\":90:208   */\n      pop\n      pop\n      jump\t// out\n        /* \"#utility.yul\":214:436   */\n    tag_17:\n        /* \"#utility.yul\":307:311   */\n      0x00\n        /* \"#utility.yul\":345:347   */\n      0x20\n        /* \"#utility.yul\":334:343   */\n      dup3\n        /* \"#utility.yul\":330:348   */\n      add\n        /* \"#utility.yul\":322:348   */\n      swap1\n      pop\n        /* \"#utility.yul\":358:429   */\n      tag_181\n        /* \"#utility.yul\":426:427   */\n      0x00\n        /* \"#utility.yul\":415:424   */\n      dup4\n        /* \"#utility.yul\":411:428   */\n      add\n        /* \"#utility.yul\":402:408   */\n      dup5\n        /* \"#utility.yul\":358:429   */\n      tag_130\n      jump\t// in\n    tag_181:\n        /* \"#utility.yul\":214:436   */\n      swap3\n      swap2\n      pop\n      pop\n      jump\t// out\n        /* \"#utility.yul\":523:640   */\n    tag_132:\n        /* \"#utility.yul\":632:633   */\n      0x00\n        /* \"#utility.yul\":629:630   */\n      dup1\n        /* \"#utility.yul\":622:634   */\n      revert\n        /* \"#utility.yul\":769:891   */\n    tag_134:\n        /* \"#utility.yul\":842:866   */\n      tag_186\n        /* \"#utility.yul\":860:865   */\n      dup2\n        /* \"#utility.yul\":842:866   */\n      tag_129\n      jump\t// in\n    tag_186:\n        /* \"#utility.yul\":835:840   */\n      dup2\n        /* \"#utility.yul\":832:867   */\n      eq\n        /* \"#utility.yul\":822:885   */\n      tag_187\n      jumpi\n        /* \"#utility.yul\":881:882   */\n      0x00\n        /* \"#utility.yul\":878:879   */\n      dup1\n        /* \"#utility.yul\":871:883   */\n      revert\n        /* \"#utility.yul\":822:885   */\n    tag_187:\n        /* \"#utility.yul\":769:891   */\n      pop\n      jump\t// out\n        /* \"#utility.yul\":897:1036   */\n    tag_135:\n        /* \"#utility.yul\":943:948   */\n      0x00\n        /* \"#utility.yul\":981:987   */\n      dup2\n        /* \"#utility.yul\":968:988   */\n      calldataload\n        /* \"#utility.yul\":959:988   */\n      swap1\n      pop\n        /* \"#utility.yul\":997:1030   */\n      tag_189\n        /* \"#utility.yul\":1024:1029   */\n      dup2\n        /* \"#utility.yul\":997:1030   */\n      tag_134\n      jump\t// in\n    tag_189:\n        /* \"#utility.yul\":897:1036   */\n      swap3\n      swap2\n      pop\n      pop\n      jump\t// out\n        /* \"#utility.yul\":1042:1371   */\n    tag_20:\n        /* \"#utility.yul\":1101:1107   */\n      0x00\n        /* \"#utility.yul\":1150:1152   */\n      0x20\n        /* \"#utility.yul\":1138:1147   */\n      dup3\n        /* \"#utility.yul\":1129:1136   */\n      dup5\n        /* \"#utility.yul\":1125:1148   */\n      sub\n        /* \"#utility.yul\":1121:1153   */\n      slt\n        /* \"#utility.yul\":1118:1237   */\n      iszero\n      tag_191\n      jumpi\n        /* \"#utility.yul\":1156:1235   */\n      tag_192\n      tag_132\n      jump\t// in\n    tag_192:\n        /* \"#utility.yul\":1118:1237   */\n    tag_191:\n        /* \"#utility.yul\":1276:1277   */\n      0x00\n        /* \"#utility.yul\":1301:1354   */\n      tag_193\n        /* \"#utility.yul\":1346:1353   */\n      dup5\n        /* \"#utility.yul\":1337:1343   */\n      dup3\n        /* \"#utility.yul\":1326:1335   */\n      dup6\n        /* \"#utility.yul\":1322:1344   */\n      add\n        /* \"#utility.yul\":1301:1354   */\n      tag_135\n      jump\t// in\n    tag_193:\n        /* \"#utility.yul\":1291:1354   */\n      swap2\n      pop\n        /* \"#utility.yul\":1247:1364   */\n      pop\n        /* \"#utility.yul\":1042:1371   */\n      swap3\n      swap2\n      pop\n      pop\n      jump\t// out\n        /* \"#utility.yul\":1377:1503   */\n    tag_136:\n        /* \"#utility.yul\":1414:1421   */\n      0x00\n        /* \"#utility.yul\":1454:1496   */\n      0xffffffffffffffffffffffffffffffffffffffff\n        /* \"#utility.yul\":1447:1452   */\n      dup3\n        /* \"#utility.yul\":1443:1497   */\n      and\n        /* \"#utility.yul\":1432:1497   */\n      swap1\n      pop\n        /* \"#utility.yul\":1377:1503   */\n      swap2\n      swap1\n      pop\n      jump\t// out\n        /* \"#utility.yul\":1509:1605   */\n    tag_137:\n        /* \"#utility.yul\":1546:1553   */\n      0x00\n        /* \"#utility.yul\":1575:1599   */\n      tag_196\n        /* \"#utility.yul\":1593:1598   */\n      dup3\n        /* \"#utility.yul\":1575:1599   */\n      tag_136\n      jump\t// in\n    tag_196:\n        /* \"#utility.yul\":1564:1599   */\n      swap1\n      pop\n        /* \"#utility.yul\":1509:1605   */\n      swap2\n      swap1\n      pop\n      jump\t// out\n        /* \"#utility.yul\":1611:1729   */\n    tag_138:\n        /* \"#utility.yul\":1698:1722   */\n      tag_198\n        /* \"#utility.yul\":1716:1721   */\n      dup2\n        /* \"#utility.yul\":1698:1722   */\n      tag_137\n      jump\t// in\n    tag_198:\n        /* \"#utility.yul\":1693:1696   */\n      dup3\n        /* \"#utility.yul\":1686:1723   */\n      mstore\n        /* \"#utility.yul\":1611:1729   */\n      pop\n      pop\n      jump\t// out\n        /* \"#utility.yul\":1735:1828   */\n    tag_139:\n        /* \"#utility.yul\":1771:1778   */\n      0x00\n        /* \"#utility.yul\":1811:1821   */\n      0xffffffff\n        /* \"#utility.yul\":1804:1809   */\n      dup3\n        /* \"#utility.yul\":1800:1822   */\n      and\n        /* \"#utility.yul\":1789:1822   */\n      swap1\n      pop\n        /* \"#utility.yul\":1735:1828   */\n      swap2\n      swap1\n      pop\n      jump\t// out\n        /* \"#utility.yul\":1834:1949   */\n    tag_140:\n        /* \"#utility.yul\":1919:1942   */\n      tag_201\n        /* \"#utility.yul\":1936:1941   */\n      dup2\n        /* \"#utility.yul\":1919:1942   */\n      tag_139\n      jump\t// in\n    tag_201:\n        /* \"#utility.yul\":1914:1917   */\n      dup3\n        /* \"#utility.yul\":1907:1943   */\n      mstore\n        /* \"#utility.yul\":1834:1949   */\n      pop\n      pop\n      jump\t// out\n        /* \"#utility.yul\":1955:2045   */\n    tag_141:\n        /* \"#utility.yul\":1989:1996   */\n      0x00\n        /* \"#utility.yul\":2032:2037   */\n      dup2\n        /* \"#utility.yul\":2025:2038   */\n      iszero\n        /* \"#utility.yul\":2018:2039   */\n      iszero\n        /* \"#utility.yul\":2007:2039   */\n      swap1\n      pop\n        /* \"#utility.yul\":1955:2045   */\n      swap2\n      swap1\n      pop\n      jump\t// out\n        /* \"#utility.yul\":2051:2160   */\n    tag_142:\n        /* \"#utility.yul\":2132:2153   */\n      tag_204\n        /* \"#utility.yul\":2147:2152   */\n      dup2\n        /* \"#utility.yul\":2132:2153   */\n      tag_141\n      jump\t// in\n    tag_204:\n        /* \"#utility.yul\":2127:2130   */\n      dup3\n        /* \"#utility.yul\":2120:2154   */\n      mstore\n        /* \"#utility.yul\":2051:2160   */\n      pop\n      pop\n      jump\t// out\n        /* \"#utility.yul\":2166:2921   */\n    tag_23:\n        /* \"#utility.yul\":2389:2393   */\n      0x00\n        /* \"#utility.yul\":2427:2430   */\n      0xc0\n        /* \"#utility.yul\":2416:2425   */\n      dup3\n        /* \"#utility.yul\":2412:2431   */\n      add\n        /* \"#utility.yul\":2404:2431   */\n      swap1\n      pop\n        /* \"#utility.yul\":2441:2512   */\n      tag_206\n        /* \"#utility.yul\":2509:2510   */\n      0x00\n        /* \"#utility.yul\":2498:2507   */\n      dup4\n        /* \"#utility.yul\":2494:2511   */\n      add\n        /* \"#utility.yul\":2485:2491   */\n      dup10\n        /* \"#utility.yul\":2441:2512   */\n      tag_138\n      jump\t// in\n    tag_206:\n        /* \"#utility.yul\":2522:2594   */\n      tag_207\n        /* \"#utility.yul\":2590:2592   */\n      0x20\n        /* \"#utility.yul\":2579:2588   */\n      dup4\n        /* \"#utility.yul\":2575:2593   */\n      add\n        /* \"#utility.yul\":2566:2572   */\n      dup9\n        /* \"#utility.yul\":2522:2594   */\n      tag_130\n      jump\t// in\n    tag_207:\n        /* \"#utility.yul\":2604:2676   */\n      tag_208\n        /* \"#utility.yul\":2672:2674   */\n      0x40\n        /* \"#utility.yul\":2661:2670   */\n      dup4\n        /* \"#utility.yul\":2657:2675   */\n      add\n        /* \"#utility.yul\":2648:2654   */\n      dup8\n        /* \"#utility.yul\":2604:2676   */\n      tag_130\n      jump\t// in\n    tag_208:\n        /* \"#utility.yul\":2686:2756   */\n      tag_209\n        /* \"#utility.yul\":2752:2754   */\n      0x60\n        /* \"#utility.yul\":2741:2750   */\n      dup4\n        /* \"#utility.yul\":2737:2755   */\n      add\n        /* \"#utility.yul\":2728:2734   */\n      dup7\n        /* \"#utility.yul\":2686:2756   */\n      tag_140\n      jump\t// in\n    tag_209:\n        /* \"#utility.yul\":2766:2837   */\n      tag_210\n        /* \"#utility.yul\":2832:2835   */\n      0x80\n        /* \"#utility.yul\":2821:2830   */\n      dup4\n        /* \"#utility.yul\":2817:2836   */\n      add\n        /* \"#utility.yul\":2808:2814   */\n      dup6\n        /* \"#utility.yul\":2766:2837   */\n      tag_140\n      jump\t// in\n    tag_210:\n        /* \"#utility.yul\":2847:2914   */\n      tag_211\n        /* \"#utility.yul\":2909:2912   */\n      0xa0\n        /* \"#utility.yul\":2898:2907   */\n      dup4\n        /* \"#utility.yul\":2894:2913   */\n      add\n        /* \"#utility.yul\":2885:2891   */\n      dup5\n        /* \"#utility.yul\":2847:2914   */\n      tag_142\n      jump\t// in\n    tag_211:\n        /* \"#utility.yul\":2166:2921   */\n      swap8\n      swap7\n      pop\n      pop\n      pop\n      pop\n      pop\n      pop\n      pop\n      jump\t// out\n        /* \"#utility.yul\":2927:3047   */\n    tag_143:\n        /* \"#utility.yul\":2999:3022   */\n      tag_213\n        /* \"#utility.yul\":3016:3021   */\n      dup2\n        /* \"#utility.yul\":2999:3022   */\n      tag_139\n      jump\t// in\n    tag_213:\n        /* \"#utility.yul\":2992:2997   */\n      dup2\n        /* \"#utility.yul\":2989:3023   */\n      eq\n        /* \"#utility.yul\":2979:3041   */\n      tag_214\n      jumpi\n        /* \"#utility.yul\":3037:3038   */\n      0x00\n        /* \"#utility.yul\":3034:3035   */\n      dup1\n        /* \"#utility.yul\":3027:3039   */\n      revert\n        /* \"#utility.yul\":2979:3041   */\n    tag_214:\n        /* \"#utility.yul\":2927:3047   */\n      pop\n      jump\t// out\n        /* \"#utility.yul\":3053:3190   */\n    tag_144:\n        /* \"#utility.yul\":3098:3103   */\n      0x00\n        /* \"#utility.yul\":3136:3142   */\n      dup2\n        /* \"#utility.yul\":3123:3143   */\n      calldataload\n        /* \"#utility.yul\":3114:3143   */\n      swap1\n      pop\n        /* \"#utility.yul\":3152:3184   */\n      tag_216\n        /* \"#utility.yul\":3178:3183   */\n      dup2\n        /* \"#utility.yul\":3152:3184   */\n      tag_143\n      jump\t// in\n    tag_216:\n        /* \"#utility.yul\":3053:3190   */\n      swap3\n      swap2\n      pop\n      pop\n      jump\t// out\n        /* \"#utility.yul\":3196:3811   */\n    tag_29:\n        /* \"#utility.yul\":3271:3277   */\n      0x00\n        /* \"#utility.yul\":3279:3285   */\n      dup1\n        /* \"#utility.yul\":3287:3293   */\n      0x00\n        /* \"#utility.yul\":3336:3338   */\n      0x60\n        /* \"#utility.yul\":3324:3333   */\n      dup5\n        /* \"#utility.yul\":3315:3322   */\n      dup7\n        /* \"#utility.yul\":3311:3334   */\n      sub\n        /* \"#utility.yul\":3307:3339   */\n      slt\n        /* \"#utility.yul\":3304:3423   */\n      iszero\n      tag_218\n      jumpi\n        /* \"#utility.yul\":3342:3421   */\n      tag_219\n      tag_132\n      jump\t// in\n    tag_219:\n        /* \"#utility.yul\":3304:3423   */\n    tag_218:\n        /* \"#utility.yul\":3462:3463   */\n      0x00\n        /* \"#utility.yul\":3487:3540   */\n      tag_220\n        /* \"#utility.yul\":3532:3539   */\n      dup7\n        /* \"#utility.yul\":3523:3529   */\n      dup3\n        /* \"#utility.yul\":3512:3521   */\n      dup8\n        /* \"#utility.yul\":3508:3530   */\n      add\n        /* \"#utility.yul\":3487:3540   */\n      tag_135\n      jump\t// in\n    tag_220:\n        /* \"#utility.yul\":3477:3540   */\n      swap4\n      pop\n        /* \"#utility.yul\":3433:3550   */\n      pop\n        /* \"#utility.yul\":3589:3591   */\n      0x20\n        /* \"#utility.yul\":3615:3667   */\n      tag_221\n        /* \"#utility.yul\":3659:3666   */\n      dup7\n        /* \"#utility.yul\":3650:3656   */\n      dup3\n        /* \"#utility.yul\":3639:3648   */\n      dup8\n        /* \"#utility.yul\":3635:3657   */\n      add\n        /* \"#utility.yul\":3615:3667   */\n      tag_144\n      jump\t// in\n    tag_221:\n        /* \"#utility.yul\":3605:3667   */\n      swap3\n      pop\n        /* \"#utility.yul\":3560:3677   */\n      pop\n        /* \"#utility.yul\":3716:3718   */\n      0x40\n        /* \"#utility.yul\":3742:3794   */\n      tag_222\n        /* \"#utility.yul\":3786:3793   */\n      dup7\n        /* \"#utility.yul\":3777:3783   */\n      dup3\n        /* \"#utility.yul\":3766:3775   */\n      dup8\n        /* \"#utility.yul\":3762:3784   */\n      add\n        /* \"#utility.yul\":3742:3794   */\n      tag_144\n      jump\t// in\n    tag_222:\n        /* \"#utility.yul\":3732:3794   */\n      swap2\n      pop\n        /* \"#utility.yul\":3687:3804   */\n      pop\n        /* \"#utility.yul\":3196:3811   */\n      swap3\n      pop\n      swap3\n      pop\n      swap3\n      jump\t// out\n        /* \"#utility.yul\":3817:4291   */\n    tag_39:\n        /* \"#utility.yul\":3885:3891   */\n      0x00\n        /* \"#utility.yul\":3893:3899   */\n      dup1\n        /* \"#utility.yul\":3942:3944   */\n      0x40\n        /* \"#utility.yul\":3930:3939   */\n      dup4\n        /* \"#utility.yul\":3921:3928   */\n      dup6\n        /* \"#utility.yul\":3917:3940   */\n      sub\n        /* \"#utility.yul\":3913:3945   */\n      slt\n        /* \"#utility.yul\":3910:4029   */\n      iszero\n      tag_224\n      jumpi\n        /* \"#utility.yul\":3948:4027   */\n      tag_225\n      tag_132\n      jump\t// in\n    tag_225:\n        /* \"#utility.yul\":3910:4029   */\n    tag_224:\n        /* \"#utility.yul\":4068:4069   */\n      0x00\n        /* \"#utility.yul\":4093:4146   */\n      tag_226\n        /* \"#utility.yul\":4138:4145   */\n      dup6\n        /* \"#utility.yul\":4129:4135   */\n      dup3\n        /* \"#utility.yul\":4118:4127   */\n      dup7\n        /* \"#utility.yul\":4114:4136   */\n      add\n        /* \"#utility.yul\":4093:4146   */\n      tag_135\n      jump\t// in\n    tag_226:\n        /* \"#utility.yul\":4083:4146   */\n      swap3\n      pop\n        /* \"#utility.yul\":4039:4156   */\n      pop\n        /* \"#utility.yul\":4195:4197   */\n      0x20\n        /* \"#utility.yul\":4221:4274   */\n      tag_227\n        /* \"#utility.yul\":4266:4273   */\n      dup6\n        /* \"#utility.yul\":4257:4263   */\n      dup3\n        /* \"#utility.yul\":4246:4255   */\n      dup7\n        /* \"#utility.yul\":4242:4264   */\n      add\n        /* \"#utility.yul\":4221:4274   */\n      tag_135\n      jump\t// in\n    tag_227:\n        /* \"#utility.yul\":4211:4274   */\n      swap2\n      pop\n        /* \"#utility.yul\":4166:4284   */\n      pop\n        /* \"#utility.yul\":3817:4291   */\n      swap3\n      pop\n      swap3\n      swap1\n      pop\n      jump\t// out\n        /* \"#utility.yul\":4297:4419   */\n    tag_145:\n        /* \"#utility.yul\":4370:4394   */\n      tag_229\n        /* \"#utility.yul\":4388:4393   */\n      dup2\n        /* \"#utility.yul\":4370:4394   */\n      tag_137\n      jump\t// in\n    tag_229:\n        /* \"#utility.yul\":4363:4368   */\n      dup2\n        /* \"#utility.yul\":4360:4395   */\n      eq\n        /* \"#utility.yul\":4350:4413   */\n      tag_230\n      jumpi\n        /* \"#utility.yul\":4409:4410   */\n      0x00\n        /* \"#utility.yul\":4406:4407   */\n      dup1\n        /* \"#utility.yul\":4399:4411   */\n      revert\n        /* \"#utility.yul\":4350:4413   */\n    tag_230:\n        /* \"#utility.yul\":4297:4419   */\n      pop\n      jump\t// out\n        /* \"#utility.yul\":4425:4564   */\n    tag_146:\n        /* \"#utility.yul\":4471:4476   */\n      0x00\n        /* \"#utility.yul\":4509:4515   */\n      dup2\n        /* \"#utility.yul\":4496:4516   */\n      calldataload\n        /* \"#utility.yul\":4487:4516   */\n      swap1\n      pop\n        /* \"#utility.yul\":4525:4558   */\n      tag_232\n        /* \"#utility.yul\":4552:4557   */\n      dup2\n        /* \"#utility.yul\":4525:4558   */\n      tag_145\n      jump\t// in\n    tag_232:\n        /* \"#utility.yul\":4425:4564   */\n      swap3\n      swap2\n      pop\n      pop\n      jump\t// out\n        /* \"#utility.yul\":4570:5044   */\n    tag_43:\n        /* \"#utility.yul\":4638:4644   */\n      0x00\n        /* \"#utility.yul\":4646:4652   */\n      dup1\n        /* \"#utility.yul\":4695:4697   */\n      0x40\n        /* \"#utility.yul\":4683:4692   */\n      dup4\n        /* \"#utility.yul\":4674:4681   */\n      dup6\n        /* \"#utility.yul\":4670:4693   */\n      sub\n        /* \"#utility.yul\":4666:4698   */\n      slt\n        /* \"#utility.yul\":4663:4782   */\n      iszero\n      tag_234\n      jumpi\n        /* \"#utility.yul\":4701:4780   */\n      tag_235\n      tag_132\n      jump\t// in\n    tag_235:\n        /* \"#utility.yul\":4663:4782   */\n    tag_234:\n        /* \"#utility.yul\":4821:4822   */\n      0x00\n        /* \"#utility.yul\":4846:4899   */\n      tag_236\n        /* \"#utility.yul\":4891:4898   */\n      dup6\n        /* \"#utility.yul\":4882:4888   */\n      dup3\n        /* \"#utility.yul\":4871:4880   */\n      dup7\n        /* \"#utility.yul\":4867:4889   */\n      add\n        /* \"#utility.yul\":4846:4899   */\n      tag_135\n      jump\t// in\n    tag_236:\n        /* \"#utility.yul\":4836:4899   */\n      swap3\n      pop\n        /* \"#utility.yul\":4792:4909   */\n      pop\n        /* \"#utility.yul\":4948:4950   */\n      0x20\n        /* \"#utility.yul\":4974:5027   */\n      tag_237\n        /* \"#utility.yul\":5019:5026   */\n      dup6\n        /* \"#utility.yul\":5010:5016   */\n      dup3\n        /* \"#utility.yul\":4999:5008   */\n      dup7\n        /* \"#utility.yul\":4995:5017   */\n      add\n        /* \"#utility.yul\":4974:5027   */\n      tag_146\n      jump\t// in\n    tag_237:\n        /* \"#utility.yul\":4964:5027   */\n      swap2\n      pop\n        /* \"#utility.yul\":4919:5037   */\n      pop\n        /* \"#utility.yul\":4570:5044   */\n      swap3\n      pop\n      swap3\n      swap1\n      pop\n      jump\t// out\n        /* \"#utility.yul\":5050:5110   */\n    tag_147:\n        /* \"#utility.yul\":5078:5081   */\n      0x00\n        /* \"#utility.yul\":5099:5104   */\n      dup2\n        /* \"#utility.yul\":5092:5104   */\n      swap1\n      pop\n        /* \"#utility.yul\":5050:5110   */\n      swap2\n      swap1\n      pop\n      jump\t// out\n        /* \"#utility.yul\":5116:5258   */\n    tag_148:\n        /* \"#utility.yul\":5166:5175   */\n      0x00\n        /* \"#utility.yul\":5199:5252   */\n      tag_240\n        /* \"#utility.yul\":5217:5251   */\n      tag_241\n        /* \"#utility.yul\":5226:5250   */\n      tag_242\n        /* \"#utility.yul\":5244:5249   */\n      dup5\n        /* \"#utility.yul\":5226:5250   */\n      tag_136\n      jump\t// in\n    tag_242:\n        /* \"#utility.yul\":5217:5251   */\n      tag_147\n      jump\t// in\n    tag_241:\n        /* \"#utility.yul\":5199:5252   */\n      tag_136\n      jump\t// in\n    tag_240:\n        /* \"#utility.yul\":5186:5252   */\n      swap1\n      pop\n        /* \"#utility.yul\":5116:5258   */\n      swap2\n      swap1\n      pop\n      jump\t// out\n        /* \"#utility.yul\":5264:5390   */\n    tag_149:\n        /* \"#utility.yul\":5314:5323   */\n      0x00\n        /* \"#utility.yul\":5347:5384   */\n      tag_244\n        /* \"#utility.yul\":5378:5383   */\n      dup3\n        /* \"#utility.yul\":5347:5384   */\n      tag_148\n      jump\t// in\n    tag_244:\n        /* \"#utility.yul\":5334:5384   */\n      swap1\n      pop\n        /* \"#utility.yul\":5264:5390   */\n      swap2\n      swap1\n      pop\n      jump\t// out\n        /* \"#utility.yul\":5396:5535   */\n    tag_150:\n        /* \"#utility.yul\":5459:5468   */\n      0x00\n        /* \"#utility.yul\":5492:5529   */\n      tag_246\n        /* \"#utility.yul\":5523:5528   */\n      dup3\n        /* \"#utility.yul\":5492:5529   */\n      tag_149\n      jump\t// in\n    tag_246:\n        /* \"#utility.yul\":5479:5529   */\n      swap1\n      pop\n        /* \"#utility.yul\":5396:5535   */\n      swap2\n      swap1\n      pop\n      jump\t// out\n        /* \"#utility.yul\":5541:5698   */\n    tag_151:\n        /* \"#utility.yul\":5641:5691   */\n      tag_248\n        /* \"#utility.yul\":5685:5690   */\n      dup2\n        /* \"#utility.yul\":5641:5691   */\n      tag_150\n      jump\t// in\n    tag_248:\n        /* \"#utility.yul\":5636:5639   */\n      dup3\n        /* \"#utility.yul\":5629:5692   */\n      mstore\n        /* \"#utility.yul\":5541:5698   */\n      pop\n      pop\n      jump\t// out\n        /* \"#utility.yul\":5704:5952   */\n    tag_49:\n        /* \"#utility.yul\":5810:5814   */\n      0x00\n        /* \"#utility.yul\":5848:5850   */\n      0x20\n        /* \"#utility.yul\":5837:5846   */\n      dup3\n        /* \"#utility.yul\":5833:5851   */\n      add\n        /* \"#utility.yul\":5825:5851   */\n      swap1\n      pop\n        /* \"#utility.yul\":5861:5945   */\n      tag_250\n        /* \"#utility.yul\":5942:5943   */\n      0x00\n        /* \"#utility.yul\":5931:5940   */\n      dup4\n        /* \"#utility.yul\":5927:5944   */\n      add\n        /* \"#utility.yul\":5918:5924   */\n      dup5\n        /* \"#utility.yul\":5861:5945   */\n      tag_151\n      jump\t// in\n    tag_250:\n        /* \"#utility.yul\":5704:5952   */\n      swap3\n      swap2\n      pop\n      pop\n      jump\t// out\n        /* \"#utility.yul\":5958:6127   */\n    tag_152:\n        /* \"#utility.yul\":6042:6053   */\n      0x00\n        /* \"#utility.yul\":6076:6082   */\n      dup3\n        /* \"#utility.yul\":6071:6074   */\n      dup3\n        /* \"#utility.yul\":6064:6083   */\n      mstore\n        /* \"#utility.yul\":6116:6120   */\n      0x20\n        /* \"#utility.yul\":6111:6114   */\n      dup3\n        /* \"#utility.yul\":6107:6121   */\n      add\n        /* \"#utility.yul\":6092:6121   */\n      swap1\n      pop\n        /* \"#utility.yul\":5958:6127   */\n      swap3\n      swap2\n      pop\n      pop\n      jump\t// out\n        /* \"#utility.yul\":6133:6292   */\n    tag_153:\n        /* \"#utility.yul\":6273:6284   */\n      0x6e6f7420656e6465640000000000000000000000000000000000000000000000\n        /* \"#utility.yul\":6269:6270   */\n      0x00\n        /* \"#utility.yul\":6261:6267   */\n      dup3\n        /* \"#utility.yul\":6257:6271   */\n      add\n        /* \"#utility.yul\":6250:6285   */\n      mstore\n        /* \"#utility.yul\":6133:6292   */\n      pop\n      jump\t// out\n        /* \"#utility.yul\":6298:6663   */\n    tag_154:\n        /* \"#utility.yul\":6440:6443   */\n      0x00\n        /* \"#utility.yul\":6461:6527   */\n      tag_254\n        /* \"#utility.yul\":6525:6526   */\n      0x09\n        /* \"#utility.yul\":6520:6523   */\n      dup4\n        /* \"#utility.yul\":6461:6527   */\n      tag_152\n      jump\t// in\n    tag_254:\n        /* \"#utility.yul\":6454:6527   */\n      swap2\n      pop\n        /* \"#utility.yul\":6536:6629   */\n      tag_255\n        /* \"#utility.yul\":6625:6628   */\n      dup3\n        /* \"#utility.yul\":6536:6629   */\n      tag_153\n      jump\t// in\n    tag_255:\n        /* \"#utility.yul\":6654:6656   */\n      0x20\n        /* \"#utility.yul\":6649:6652   */\n      dup3\n        /* \"#utility.yul\":6645:6657   */\n      add\n        /* \"#utility.yul\":6638:6657   */\n      swap1\n      pop\n        /* \"#utility.yul\":6298:6663   */\n      swap2\n      swap1\n      pop\n      jump\t// out\n        /* \"#utility.yul\":6669:7088   */\n    tag_56:\n        /* \"#utility.yul\":6835:6839   */\n      0x00\n        /* \"#utility.yul\":6873:6875   */\n      0x20\n        /* \"#utility.yul\":6862:6871   */\n      dup3\n        /* \"#utility.yul\":6858:6876   */\n      add\n        /* \"#utility.yul\":6850:6876   */\n      swap1\n      pop\n        /* \"#utility.yul\":6922:6931   */\n      dup2\n        /* \"#utility.yul\":6916:6920   */\n      dup2\n        /* \"#utility.yul\":6912:6932   */\n      sub\n        /* \"#utility.yul\":6908:6909   */\n      0x00\n        /* \"#utility.yul\":6897:6906   */\n      dup4\n        /* \"#utility.yul\":6893:6910   */\n      add\n        /* \"#utility.yul\":6886:6933   */\n      mstore\n        /* \"#utility.yul\":6950:7081   */\n      tag_257\n        /* \"#utility.yul\":7076:7080   */\n      dup2\n        /* \"#utility.yul\":6950:7081   */\n      tag_154\n      jump\t// in\n    tag_257:\n        /* \"#utility.yul\":6942:7081   */\n      swap1\n      pop\n        /* \"#utility.yul\":6669:7088   */\n      swap2\n      swap1\n      pop\n      jump\t// out\n        /* \"#utility.yul\":7094:7259   */\n    tag_155:\n        /* \"#utility.yul\":7234:7251   */\n      0x706c6564676564203e3d20676f616c0000000000000000000000000000000000\n        /* \"#utility.yul\":7230:7231   */\n      0x00\n        /* \"#utility.yul\":7222:7228   */\n      dup3\n        /* \"#utility.yul\":7218:7232   */\n      add\n        /* \"#utility.yul\":7211:7252   */\n      mstore\n        /* \"#utility.yul\":7094:7259   */\n      pop\n      jump\t// out\n        /* \"#utility.yul\":7265:7631   */\n    tag_156:\n        /* \"#utility.yul\":7407:7410   */\n      0x00\n        /* \"#utility.yul\":7428:7495   */\n      tag_260\n        /* \"#utility.yul\":7492:7494   */\n      0x0f\n        /* \"#utility.yul\":7487:7490   */\n      dup4\n        /* \"#utility.yul\":7428:7495   */\n      tag_152\n      jump\t// in\n    tag_260:\n        /* \"#utility.yul\":7421:7495   */\n      swap2\n      pop\n        /* \"#utility.yul\":7504:7597   */\n      tag_261\n        /* \"#utility.yul\":7593:7596   */\n      dup3\n        /* \"#utility.yul\":7504:7597   */\n      tag_155\n      jump\t// in\n    tag_261:\n        /* \"#utility.yul\":7622:7624   */\n      0x20\n        /* \"#utility.yul\":7617:7620   */\n      dup3\n        /* \"#utility.yul\":7613:7625   */\n      add\n        /* \"#utility.yul\":7606:7625   */\n      swap1\n      pop\n        /* \"#utility.yul\":7265:7631   */\n      swap2\n      swap1\n      pop\n      jump\t// out\n        /* \"#utility.yul\":7637:8056   */\n    tag_59:\n        /* \"#utility.yul\":7803:7807   */\n      0x00\n        /* \"#utility.yul\":7841:7843   */\n      0x20\n        /* \"#utility.yul\":7830:7839   */\n      dup3\n        /* \"#utility.yul\":7826:7844   */\n      add\n        /* \"#utility.yul\":7818:7844   */\n      swap1\n      pop\n        /* \"#utility.yul\":7890:7899   */\n      dup2\n        /* \"#utility.yul\":7884:7888   */\n      dup2\n        /* \"#utility.yul\":7880:7900   */\n      sub\n        /* \"#utility.yul\":7876:7877   */\n      0x00\n        /* \"#utility.yul\":7865:7874   */\n      dup4\n        /* \"#utility.yul\":7861:7878   */\n      add\n        /* \"#utility.yul\":7854:7901   */\n      mstore\n        /* \"#utility.yul\":7918:8049   */\n      tag_263\n        /* \"#utility.yul\":8044:8048   */\n      dup2\n        /* \"#utility.yul\":7918:8049   */\n      tag_156\n      jump\t// in\n    tag_263:\n        /* \"#utility.yul\":7910:8049   */\n      swap1\n      pop\n        /* \"#utility.yul\":7637:8056   */\n      swap2\n      swap1\n      pop\n      jump\t// out\n        /* \"#utility.yul\":8062:8394   */\n    tag_61:\n        /* \"#utility.yul\":8183:8187   */\n      0x00\n        /* \"#utility.yul\":8221:8223   */\n      0x40\n        /* \"#utility.yul\":8210:8219   */\n      dup3\n        /* \"#utility.yul\":8206:8224   */\n      add\n        /* \"#utility.yul\":8198:8224   */\n      swap1\n      pop\n        /* \"#utility.yul\":8234:8305   */\n      tag_265\n        /* \"#utility.yul\":8302:8303   */\n      0x00\n        /* \"#utility.yul\":8291:8300   */\n      dup4\n        /* \"#utility.yul\":8287:8304   */\n      add\n        /* \"#utility.yul\":8278:8284   */\n      dup6\n        /* \"#utility.yul\":8234:8305   */\n      tag_138\n      jump\t// in\n    tag_265:\n        /* \"#utility.yul\":8315:8387   */\n      tag_266\n        /* \"#utility.yul\":8383:8385   */\n      0x20\n        /* \"#utility.yul\":8372:8381   */\n      dup4\n        /* \"#utility.yul\":8368:8386   */\n      add\n        /* \"#utility.yul\":8359:8365   */\n      dup5\n        /* \"#utility.yul\":8315:8387   */\n      tag_130\n      jump\t// in\n    tag_266:\n        /* \"#utility.yul\":8062:8394   */\n      swap4\n      swap3\n      pop\n      pop\n      pop\n      jump\t// out\n        /* \"#utility.yul\":8400:8516   */\n    tag_157:\n        /* \"#utility.yul\":8470:8491   */\n      tag_268\n        /* \"#utility.yul\":8485:8490   */\n      dup2\n        /* \"#utility.yul\":8470:8491   */\n      tag_141\n      jump\t// in\n    tag_268:\n        /* \"#utility.yul\":8463:8468   */\n      dup2\n        /* \"#utility.yul\":8460:8492   */\n      eq\n        /* \"#utility.yul\":8450:8510   */\n      tag_269\n      jumpi\n        /* \"#utility.yul\":8506:8507   */\n      0x00\n        /* \"#utility.yul\":8503:8504   */\n      dup1\n        /* \"#utility.yul\":8496:8508   */\n      revert\n        /* \"#utility.yul\":8450:8510   */\n    tag_269:\n        /* \"#utility.yul\":8400:8516   */\n      pop\n      jump\t// out\n        /* \"#utility.yul\":8522:8659   */\n    tag_158:\n        /* \"#utility.yul\":8576:8581   */\n      0x00\n        /* \"#utility.yul\":8607:8613   */\n      dup2\n        /* \"#utility.yul\":8601:8614   */\n      mload\n        /* \"#utility.yul\":8592:8614   */\n      swap1\n      pop\n        /* \"#utility.yul\":8623:8653   */\n      tag_271\n        /* \"#utility.yul\":8647:8652   */\n      dup2\n        /* \"#utility.yul\":8623:8653   */\n      tag_157\n      jump\t// in\n    tag_271:\n        /* \"#utility.yul\":8522:8659   */\n      swap3\n      swap2\n      pop\n      pop\n      jump\t// out\n        /* \"#utility.yul\":8665:9010   */\n    tag_65:\n        /* \"#utility.yul\":8732:8738   */\n      0x00\n        /* \"#utility.yul\":8781:8783   */\n      0x20\n        /* \"#utility.yul\":8769:8778   */\n      dup3\n        /* \"#utility.yul\":8760:8767   */\n      dup5\n        /* \"#utility.yul\":8756:8779   */\n      sub\n        /* \"#utility.yul\":8752:8784   */\n      slt\n        /* \"#utility.yul\":8749:8868   */\n      iszero\n      tag_273\n      jumpi\n        /* \"#utility.yul\":8787:8866   */\n      tag_274\n      tag_132\n      jump\t// in\n    tag_274:\n        /* \"#utility.yul\":8749:8868   */\n    tag_273:\n        /* \"#utility.yul\":8907:8908   */\n      0x00\n        /* \"#utility.yul\":8932:8993   */\n      tag_275\n        /* \"#utility.yul\":8985:8992   */\n      dup5\n        /* \"#utility.yul\":8976:8982   */\n      dup3\n        /* \"#utility.yul\":8965:8974   */\n      dup6\n        /* \"#utility.yul\":8961:8983   */\n      add\n        /* \"#utility.yul\":8932:8993   */\n      tag_158\n      jump\t// in\n    tag_275:\n        /* \"#utility.yul\":8922:8993   */\n      swap2\n      pop\n        /* \"#utility.yul\":8878:9003   */\n      pop\n        /* \"#utility.yul\":8665:9010   */\n      swap3\n      swap2\n      pop\n      pop\n      jump\t// out\n        /* \"#utility.yul\":9016:9458   */\n    tag_67:\n        /* \"#utility.yul\":9165:9169   */\n      0x00\n        /* \"#utility.yul\":9203:9205   */\n      0x60\n        /* \"#utility.yul\":9192:9201   */\n      dup3\n        /* \"#utility.yul\":9188:9206   */\n      add\n        /* \"#utility.yul\":9180:9206   */\n      swap1\n      pop\n        /* \"#utility.yul\":9216:9287   */\n      tag_277\n        /* \"#utility.yul\":9284:9285   */\n      0x00\n        /* \"#utility.yul\":9273:9282   */\n      dup4\n        /* \"#utility.yul\":9269:9286   */\n      add\n        /* \"#utility.yul\":9260:9266   */\n      dup7\n        /* \"#utility.yul\":9216:9287   */\n      tag_130\n      jump\t// in\n    tag_277:\n        /* \"#utility.yul\":9297:9369   */\n      tag_278\n        /* \"#utility.yul\":9365:9367   */\n      0x20\n        /* \"#utility.yul\":9354:9363   */\n      dup4\n        /* \"#utility.yul\":9350:9368   */\n      add\n        /* \"#utility.yul\":9341:9347   */\n      dup6\n        /* \"#utility.yul\":9297:9369   */\n      tag_138\n      jump\t// in\n    tag_278:\n        /* \"#utility.yul\":9379:9451   */\n      tag_279\n        /* \"#utility.yul\":9447:9449   */\n      0x40\n        /* \"#utility.yul\":9436:9445   */\n      dup4\n        /* \"#utility.yul\":9432:9450   */\n      add\n        /* \"#utility.yul\":9423:9429   */\n      dup5\n        /* \"#utility.yul\":9379:9451   */\n      tag_130\n      jump\t// in\n    tag_279:\n        /* \"#utility.yul\":9016:9458   */\n      swap5\n      swap4\n      pop\n      pop\n      pop\n      pop\n      jump\t// out\n        /* \"#utility.yul\":9464:9628   */\n    tag_159:\n        /* \"#utility.yul\":9604:9620   */\n      0x7374617274206174203c206e6f77000000000000000000000000000000000000\n        /* \"#utility.yul\":9600:9601   */\n      0x00\n        /* \"#utility.yul\":9592:9598   */\n      dup3\n        /* \"#utility.yul\":9588:9602   */\n      add\n        /* \"#utility.yul\":9581:9621   */\n      mstore\n        /* \"#utility.yul\":9464:9628   */\n      pop\n      jump\t// out\n        /* \"#utility.yul\":9634:10000   */\n    tag_160:\n        /* \"#utility.yul\":9776:9779   */\n      0x00\n        /* \"#utility.yul\":9797:9864   */\n      tag_282\n        /* \"#utility.yul\":9861:9863   */\n      0x0e\n        /* \"#utility.yul\":9856:9859   */\n      dup4\n        /* \"#utility.yul\":9797:9864   */\n      tag_152\n      jump\t// in\n    tag_282:\n        /* \"#utility.yul\":9790:9864   */\n      swap2\n      pop\n        /* \"#utility.yul\":9873:9966   */\n      tag_283\n        /* \"#utility.yul\":9962:9965   */\n      dup3\n        /* \"#utility.yul\":9873:9966   */\n      tag_159\n      jump\t// in\n    tag_283:\n        /* \"#utility.yul\":9991:9993   */\n      0x20\n        /* \"#utility.yul\":9986:9989   */\n      dup3\n        /* \"#utility.yul\":9982:9994   */\n      add\n        /* \"#utility.yul\":9975:9994   */\n      swap1\n      pop\n        /* \"#utility.yul\":9634:10000   */\n      swap2\n      swap1\n      pop\n      jump\t// out\n        /* \"#utility.yul\":10006:10425   */\n    tag_71:\n        /* \"#utility.yul\":10172:10176   */\n      0x00\n        /* \"#utility.yul\":10210:10212   */\n      0x20\n        /* \"#utility.yul\":10199:10208   */\n      dup3\n        /* \"#utility.yul\":10195:10213   */\n      add\n        /* \"#utility.yul\":10187:10213   */\n      swap1\n      pop\n        /* \"#utility.yul\":10259:10268   */\n      dup2\n        /* \"#utility.yul\":10253:10257   */\n      dup2\n        /* \"#utility.yul\":10249:10269   */\n      sub\n        /* \"#utility.yul\":10245:10246   */\n      0x00\n        /* \"#utility.yul\":10234:10243   */\n      dup4\n        /* \"#utility.yul\":10230:10247   */\n      add\n        /* \"#utility.yul\":10223:10270   */\n      mstore\n        /* \"#utility.yul\":10287:10418   */\n      tag_285\n        /* \"#utility.yul\":10413:10417   */\n      dup2\n        /* \"#utility.yul\":10287:10418   */\n      tag_160\n      jump\t// in\n    tag_285:\n        /* \"#utility.yul\":10279:10418   */\n      swap1\n      pop\n        /* \"#utility.yul\":10006:10425   */\n      swap2\n      swap1\n      pop\n      jump\t// out\n        /* \"#utility.yul\":10431:10598   */\n    tag_161:\n        /* \"#utility.yul\":10571:10590   */\n      0x656e64206174203c207374617274206174000000000000000000000000000000\n        /* \"#utility.yul\":10567:10568   */\n      0x00\n        /* \"#utility.yul\":10559:10565   */\n      dup3\n        /* \"#utility.yul\":10555:10569   */\n      add\n        /* \"#utility.yul\":10548:10591   */\n      mstore\n        /* \"#utility.yul\":10431:10598   */\n      pop\n      jump\t// out\n        /* \"#utility.yul\":10604:10970   */\n    tag_162:\n        /* \"#utility.yul\":10746:10749   */\n      0x00\n        /* \"#utility.yul\":10767:10834   */\n      tag_288\n        /* \"#utility.yul\":10831:10833   */\n      0x11\n        /* \"#utility.yul\":10826:10829   */\n      dup4\n        /* \"#utility.yul\":10767:10834   */\n      tag_152\n      jump\t// in\n    tag_288:\n        /* \"#utility.yul\":10760:10834   */\n      swap2\n      pop\n        /* \"#utility.yul\":10843:10936   */\n      tag_289\n        /* \"#utility.yul\":10932:10935   */\n      dup3\n        /* \"#utility.yul\":10843:10936   */\n      tag_161\n      jump\t// in\n    tag_289:\n        /* \"#utility.yul\":10961:10963   */\n      0x20\n        /* \"#utility.yul\":10956:10959   */\n      dup3\n        /* \"#utility.yul\":10952:10964   */\n      add\n        /* \"#utility.yul\":10945:10964   */\n      swap1\n      pop\n        /* \"#utility.yul\":10604:10970   */\n      swap2\n      swap1\n      pop\n      jump\t// out\n        /* \"#utility.yul\":10976:11395   */\n    tag_74:\n        /* \"#utility.yul\":11142:11146   */\n      0x00\n        /* \"#utility.yul\":11180:11182   */\n      0x20\n        /* \"#utility.yul\":11169:11178   */\n      dup3\n        /* \"#utility.yul\":11165:11183   */\n      add\n        /* \"#utility.yul\":11157:11183   */\n      swap1\n      pop\n        /* \"#utility.yul\":11229:11238   */\n      dup2\n        /* \"#utility.yul\":11223:11227   */\n      dup2\n        /* \"#utility.yul\":11219:11239   */\n      sub\n        /* \"#utility.yul\":11215:11216   */\n      0x00\n        /* \"#utility.yul\":11204:11213   */\n      dup4\n        /* \"#utility.yul\":11200:11217   */\n      add\n        /* \"#utility.yul\":11193:11240   */\n      mstore\n        /* \"#utility.yul\":11257:11388   */\n      tag_291\n        /* \"#utility.yul\":11383:11387   */\n      dup2\n        /* \"#utility.yul\":11257:11388   */\n      tag_162\n      jump\t// in\n    tag_291:\n        /* \"#utility.yul\":11249:11388   */\n      swap1\n      pop\n        /* \"#utility.yul\":10976:11395   */\n      swap2\n      swap1\n      pop\n      jump\t// out\n        /* \"#utility.yul\":11401:11581   */\n    tag_163:\n        /* \"#utility.yul\":11449:11526   */\n      0x4e487b7100000000000000000000000000000000000000000000000000000000\n        /* \"#utility.yul\":11446:11447   */\n      0x00\n        /* \"#utility.yul\":11439:11527   */\n      mstore\n        /* \"#utility.yul\":11546:11550   */\n      0x11\n        /* \"#utility.yul\":11543:11544   */\n      0x04\n        /* \"#utility.yul\":11536:11551   */\n      mstore\n        /* \"#utility.yul\":11570:11574   */\n      0x24\n        /* \"#utility.yul\":11567:11568   */\n      0x00\n        /* \"#utility.yul\":11560:11575   */\n      revert\n        /* \"#utility.yul\":11587:11784   */\n    tag_76:\n        /* \"#utility.yul\":11626:11629   */\n      0x00\n        /* \"#utility.yul\":11645:11664   */\n      tag_294\n        /* \"#utility.yul\":11662:11663   */\n      dup3\n        /* \"#utility.yul\":11645:11664   */\n      tag_139\n      jump\t// in\n    tag_294:\n        /* \"#utility.yul\":11640:11664   */\n      swap2\n      pop\n        /* \"#utility.yul\":11678:11697   */\n      tag_295\n        /* \"#utility.yul\":11695:11696   */\n      dup4\n        /* \"#utility.yul\":11678:11697   */\n      tag_139\n      jump\t// in\n    tag_295:\n        /* \"#utility.yul\":11673:11697   */\n      swap3\n      pop\n        /* \"#utility.yul\":11720:11721   */\n      dup3\n        /* \"#utility.yul\":11717:11718   */\n      dup3\n        /* \"#utility.yul\":11713:11722   */\n      add\n        /* \"#utility.yul\":11706:11722   */\n      swap1\n      pop\n        /* \"#utility.yul\":11743:11753   */\n      0xffffffff\n        /* \"#utility.yul\":11738:11741   */\n      dup2\n        /* \"#utility.yul\":11735:11754   */\n      gt\n        /* \"#utility.yul\":11732:11777   */\n      iszero\n      tag_296\n      jumpi\n        /* \"#utility.yul\":11757:11775   */\n      tag_297\n      tag_163\n      jump\t// in\n    tag_297:\n        /* \"#utility.yul\":11732:11777   */\n    tag_296:\n        /* \"#utility.yul\":11587:11784   */\n      swap3\n      swap2\n      pop\n      pop\n      jump\t// out\n        /* \"#utility.yul\":11790:11961   */\n    tag_164:\n        /* \"#utility.yul\":11930:11953   */\n      0x656e64206174203e206d6178206475726174696f6e0000000000000000000000\n        /* \"#utility.yul\":11926:11927   */\n      0x00\n        /* \"#utility.yul\":11918:11924   */\n      dup3\n        /* \"#utility.yul\":11914:11928   */\n      add\n        /* \"#utility.yul\":11907:11954   */\n      mstore\n        /* \"#utility.yul\":11790:11961   */\n      pop\n      jump\t// out\n        /* \"#utility.yul\":11967:12333   */\n    tag_165:\n        /* \"#utility.yul\":12109:12112   */\n      0x00\n        /* \"#utility.yul\":12130:12197   */\n      tag_300\n        /* \"#utility.yul\":12194:12196   */\n      0x15\n        /* \"#utility.yul\":12189:12192   */\n      dup4\n        /* \"#utility.yul\":12130:12197   */\n      tag_152\n      jump\t// in\n    tag_300:\n        /* \"#utility.yul\":12123:12197   */\n      swap2\n      pop\n        /* \"#utility.yul\":12206:12299   */\n      tag_301\n        /* \"#utility.yul\":12295:12298   */\n      dup3\n        /* \"#utility.yul\":12206:12299   */\n      tag_164\n      jump\t// in\n    tag_301:\n        /* \"#utility.yul\":12324:12326   */\n      0x20\n        /* \"#utility.yul\":12319:12322   */\n      dup3\n        /* \"#utility.yul\":12315:12327   */\n      add\n        /* \"#utility.yul\":12308:12327   */\n      swap1\n      pop\n        /* \"#utility.yul\":11967:12333   */\n      swap2\n      swap1\n      pop\n      jump\t// out\n        /* \"#utility.yul\":12339:12758   */\n    tag_79:\n        /* \"#utility.yul\":12505:12509   */\n      0x00\n        /* \"#utility.yul\":12543:12545   */\n      0x20\n        /* \"#utility.yul\":12532:12541   */\n      dup3\n        /* \"#utility.yul\":12528:12546   */\n      add\n        /* \"#utility.yul\":12520:12546   */\n      swap1\n      pop\n        /* \"#utility.yul\":12592:12601   */\n      dup2\n        /* \"#utility.yul\":12586:12590   */\n      dup2\n        /* \"#utility.yul\":12582:12602   */\n      sub\n        /* \"#utility.yul\":12578:12579   */\n      0x00\n        /* \"#utility.yul\":12567:12576   */\n      dup4\n        /* \"#utility.yul\":12563:12580   */\n      add\n        /* \"#utility.yul\":12556:12603   */\n      mstore\n        /* \"#utility.yul\":12620:12751   */\n      tag_303\n        /* \"#utility.yul\":12746:12750   */\n      dup2\n        /* \"#utility.yul\":12620:12751   */\n      tag_165\n      jump\t// in\n    tag_303:\n        /* \"#utility.yul\":12612:12751   */\n      swap1\n      pop\n        /* \"#utility.yul\":12339:12758   */\n      swap2\n      swap1\n      pop\n      jump\t// out\n        /* \"#utility.yul\":12764:12997   */\n    tag_81:\n        /* \"#utility.yul\":12803:12806   */\n      0x00\n        /* \"#utility.yul\":12826:12850   */\n      tag_305\n        /* \"#utility.yul\":12844:12849   */\n      dup3\n        /* \"#utility.yul\":12826:12850   */\n      tag_129\n      jump\t// in\n    tag_305:\n        /* \"#utility.yul\":12817:12850   */\n      swap2\n      pop\n        /* \"#utility.yul\":12872:12938   */\n      0xffffffffffffffffffffffffffffffffffffffffffffffffffffffffffffffff\n        /* \"#utility.yul\":12865:12870   */\n      dup3\n        /* \"#utility.yul\":12862:12939   */\n      sub\n        /* \"#utility.yul\":12859:12962   */\n      tag_306\n      jumpi\n        /* \"#utility.yul\":12942:12960   */\n      tag_307\n      tag_163\n      jump\t// in\n    tag_307:\n        /* \"#utility.yul\":12859:12962   */\n    tag_306:\n        /* \"#utility.yul\":12989:12990   */\n      0x01\n        /* \"#utility.yul\":12982:12987   */\n      dup3\n        /* \"#utility.yul\":12978:12991   */\n      add\n        /* \"#utility.yul\":12971:12991   */\n      swap1\n      pop\n        /* \"#utility.yul\":12764:12997   */\n      swap2\n      swap1\n      pop\n      jump\t// out\n        /* \"#utility.yul\":13003:13659   */\n    tag_83:\n        /* \"#utility.yul\":13204:13208   */\n      0x00\n        /* \"#utility.yul\":13242:13245   */\n      0xa0\n        /* \"#utility.yul\":13231:13240   */\n      dup3\n        /* \"#utility.yul\":13227:13246   */\n      add\n        /* \"#utility.yul\":13219:13246   */\n      swap1\n      pop\n        /* \"#utility.yul\":13256:13327   */\n      tag_309\n        /* \"#utility.yul\":13324:13325   */\n      0x00\n        /* \"#utility.yul\":13313:13322   */\n      dup4\n        /* \"#utility.yul\":13309:13326   */\n      add\n        /* \"#utility.yul\":13300:13306   */\n      dup9\n        /* \"#utility.yul\":13256:13327   */\n      tag_130\n      jump\t// in\n    tag_309:\n        /* \"#utility.yul\":13337:13409   */\n      tag_310\n        /* \"#utility.yul\":13405:13407   */\n      0x20\n        /* \"#utility.yul\":13394:13403   */\n      dup4\n        /* \"#utility.yul\":13390:13408   */\n      add\n        /* \"#utility.yul\":13381:13387   */\n      dup8\n        /* \"#utility.yul\":13337:13409   */\n      tag_138\n      jump\t// in\n    tag_310:\n        /* \"#utility.yul\":13419:13491   */\n      tag_311\n        /* \"#utility.yul\":13487:13489   */\n      0x40\n        /* \"#utility.yul\":13476:13485   */\n      dup4\n        /* \"#utility.yul\":13472:13490   */\n      add\n        /* \"#utility.yul\":13463:13469   */\n      dup7\n        /* \"#utility.yul\":13419:13491   */\n      tag_130\n      jump\t// in\n    tag_311:\n        /* \"#utility.yul\":13501:13571   */\n      tag_312\n        /* \"#utility.yul\":13567:13569   */\n      0x60\n        /* \"#utility.yul\":13556:13565   */\n      dup4\n        /* \"#utility.yul\":13552:13570   */\n      add\n        /* \"#utility.yul\":13543:13549   */\n      dup6\n        /* \"#utility.yul\":13501:13571   */\n      tag_140\n      jump\t// in\n    tag_312:\n        /* \"#utility.yul\":13581:13652   */\n      tag_313\n        /* \"#utility.yul\":13647:13650   */\n      0x80\n        /* \"#utility.yul\":13636:13645   */\n      dup4\n        /* \"#utility.yul\":13632:13651   */\n      add\n        /* \"#utility.yul\":13623:13629   */\n      dup5\n        /* \"#utility.yul\":13581:13652   */\n      tag_140\n      jump\t// in\n    tag_313:\n        /* \"#utility.yul\":13003:13659   */\n      swap7\n      swap6\n      pop\n      pop\n      pop\n      pop\n      pop\n      pop\n      jump\t// out\n        /* \"#utility.yul\":13665:13826   */\n    tag_166:\n        /* \"#utility.yul\":13805:13818   */\n      0x6e6f742063726561746f72000000000000000000000000000000000000000000\n        /* \"#utility.yul\":13801:13802   */\n      0x00\n        /* \"#utility.yul\":13793:13799   */\n      dup3\n        /* \"#utility.yul\":13789:13803   */\n      add\n        /* \"#utility.yul\":13782:13819   */\n      mstore\n        /* \"#utility.yul\":13665:13826   */\n      pop\n      jump\t// out\n        /* \"#utility.yul\":13832:14198   */\n    tag_167:\n        /* \"#utility.yul\":13974:13977   */\n      0x00\n        /* \"#utility.yul\":13995:14062   */\n      tag_316\n        /* \"#utility.yul\":14059:14061   */\n      0x0b\n        /* \"#utility.yul\":14054:14057   */\n      dup4\n        /* \"#utility.yul\":13995:14062   */\n      tag_152\n      jump\t// in\n    tag_316:\n        /* \"#utility.yul\":13988:14062   */\n      swap2\n      pop\n        /* \"#utility.yul\":14071:14164   */\n      tag_317\n        /* \"#utility.yul\":14160:14163   */\n      dup3\n        /* \"#utility.yul\":14071:14164   */\n      tag_166\n      jump\t// in\n    tag_317:\n        /* \"#utility.yul\":14189:14191   */\n      0x20\n        /* \"#utility.yul\":14184:14187   */\n      dup3\n        /* \"#utility.yul\":14180:14192   */\n      add\n        /* \"#utility.yul\":14173:14192   */\n      swap1\n      pop\n        /* \"#utility.yul\":13832:14198   */\n      swap2\n      swap1\n      pop\n      jump\t// out\n        /* \"#utility.yul\":14204:14623   */\n    tag_87:\n        /* \"#utility.yul\":14370:14374   */\n      0x00\n        /* \"#utility.yul\":14408:14410   */\n      0x20\n        /* \"#utility.yul\":14397:14406   */\n      dup3\n        /* \"#utility.yul\":14393:14411   */\n      add\n        /* \"#utility.yul\":14385:14411   */\n      swap1\n      pop\n        /* \"#utility.yul\":14457:14466   */\n      dup2\n        /* \"#utility.yul\":14451:14455   */\n      dup2\n        /* \"#utility.yul\":14447:14467   */\n      sub\n        /* \"#utility.yul\":14443:14444   */\n      0x00\n        /* \"#utility.yul\":14432:14441   */\n      dup4\n        /* \"#utility.yul\":14428:14445   */\n      add\n        /* \"#utility.yul\":14421:14468   */\n      mstore\n        /* \"#utility.yul\":14485:14616   */\n      tag_319\n        /* \"#utility.yul\":14611:14615   */\n      dup2\n        /* \"#utility.yul\":14485:14616   */\n      tag_167\n      jump\t// in\n    tag_319:\n        /* \"#utility.yul\":14477:14616   */\n      swap1\n      pop\n        /* \"#utility.yul\":14204:14623   */\n      swap2\n      swap1\n      pop\n      jump\t// out\n        /* \"#utility.yul\":14629:14793   */\n    tag_168:\n        /* \"#utility.yul\":14769:14785   */\n      0x706c6564676564203c20676f616c000000000000000000000000000000000000\n        /* \"#utility.yul\":14765:14766   */\n      0x00\n        /* \"#utility.yul\":14757:14763   */\n      dup3\n        /* \"#utility.yul\":14753:14767   */\n      add\n        /* \"#utility.yul\":14746:14786   */\n      mstore\n        /* \"#utility.yul\":14629:14793   */\n      pop\n      jump\t// out\n        /* \"#utility.yul\":14799:15165   */\n    tag_169:\n        /* \"#utility.yul\":14941:14944   */\n      0x00\n        /* \"#utility.yul\":14962:15029   */\n      tag_322\n        /* \"#utility.yul\":15026:15028   */\n      0x0e\n        /* \"#utility.yul\":15021:15024   */\n      dup4\n        /* \"#utility.yul\":14962:15029   */\n      tag_152\n      jump\t// in\n    tag_322:\n        /* \"#utility.yul\":14955:15029   */\n      swap2\n      pop\n        /* \"#utility.yul\":15038:15131   */\n      tag_323\n        /* \"#utility.yul\":15127:15130   */\n      dup3\n        /* \"#utility.yul\":15038:15131   */\n      tag_168\n      jump\t// in\n    tag_323:\n        /* \"#utility.yul\":15156:15158   */\n      0x20\n        /* \"#utility.yul\":15151:15154   */\n      dup3\n        /* \"#utility.yul\":15147:15159   */\n      add\n        /* \"#utility.yul\":15140:15159   */\n      swap1\n      pop\n        /* \"#utility.yul\":14799:15165   */\n      swap2\n      swap1\n      pop\n      jump\t// out\n        /* \"#utility.yul\":15171:15590   */\n    tag_92:\n        /* \"#utility.yul\":15337:15341   */\n      0x00\n        /* \"#utility.yul\":15375:15377   */\n      0x20\n        /* \"#utility.yul\":15364:15373   */\n      dup3\n        /* \"#utility.yul\":15360:15378   */\n      add\n        /* \"#utility.yul\":15352:15378   */\n      swap1\n      pop\n        /* \"#utility.yul\":15424:15433   */\n      dup2\n        /* \"#utility.yul\":15418:15422   */\n      dup2\n        /* \"#utility.yul\":15414:15434   */\n      sub\n        /* \"#utility.yul\":15410:15411   */\n      0x00\n        /* \"#utility.yul\":15399:15408   */\n      dup4\n        /* \"#utility.yul\":15395:15412   */\n      add\n        /* \"#utility.yul\":15388:15435   */\n      mstore\n        /* \"#utility.yul\":15452:15583   */\n      tag_325\n        /* \"#utility.yul\":15578:15582   */\n      dup2\n        /* \"#utility.yul\":15452:15583   */\n      tag_169\n      jump\t// in\n    tag_325:\n        /* \"#utility.yul\":15444:15583   */\n      swap1\n      pop\n        /* \"#utility.yul\":15171:15590   */\n      swap2\n      swap1\n      pop\n      jump\t// out\n        /* \"#utility.yul\":15596:15753   */\n    tag_170:\n        /* \"#utility.yul\":15736:15745   */\n      0x636c61696d656400000000000000000000000000000000000000000000000000\n        /* \"#utility.yul\":15732:15733   */\n      0x00\n        /* \"#utility.yul\":15724:15730   */\n      dup3\n        /* \"#utility.yul\":15720:15734   */\n      add\n        /* \"#utility.yul\":15713:15746   */\n      mstore\n        /* \"#utility.yul\":15596:15753   */\n      pop\n      jump\t// out\n        /* \"#utility.yul\":15759:16124   */\n    tag_171:\n        /* \"#utility.yul\":15901:15904   */\n      0x00\n        /* \"#utility.yul\":15922:15988   */\n      tag_328\n        /* \"#utility.yul\":15986:15987   */\n      0x07\n        /* \"#utility.yul\":15981:15984   */\n      dup4\n        /* \"#utility.yul\":15922:15988   */\n      tag_152\n      jump\t// in\n    tag_328:\n        /* \"#utility.yul\":15915:15988   */\n      swap2\n      pop\n        /* \"#utility.yul\":15997:16090   */\n      tag_329\n        /* \"#utility.yul\":16086:16089   */\n      dup3\n        /* \"#utility.yul\":15997:16090   */\n      tag_170\n      jump\t// in\n    tag_329:\n        /* \"#utility.yul\":16115:16117   */\n      0x20\n        /* \"#utility.yul\":16110:16113   */\n      dup3\n        /* \"#utility.yul\":16106:16118   */\n      add\n        /* \"#utility.yul\":16099:16118   */\n      swap1\n      pop\n        /* \"#utility.yul\":15759:16124   */\n      swap2\n      swap1\n      pop\n      jump\t// out\n        /* \"#utility.yul\":16130:16549   */\n    tag_95:\n        /* \"#utility.yul\":16296:16300   */\n      0x00\n        /* \"#utility.yul\":16334:16336   */\n      0x20\n        /* \"#utility.yul\":16323:16332   */\n      dup3\n        /* \"#utility.yul\":16319:16337   */\n      add\n        /* \"#utility.yul\":16311:16337   */\n      swap1\n      pop\n        /* \"#utility.yul\":16383:16392   */\n      dup2\n        /* \"#utility.yul\":16377:16381   */\n      dup2\n        /* \"#utility.yul\":16373:16393   */\n      sub\n        /* \"#utility.yul\":16369:16370   */\n      0x00\n        /* \"#utility.yul\":16358:16367   */\n      dup4\n        /* \"#utility.yul\":16354:16371   */\n      add\n        /* \"#utility.yul\":16347:16394   */\n      mstore\n        /* \"#utility.yul\":16411:16542   */\n      tag_331\n        /* \"#utility.yul\":16537:16541   */\n      dup2\n        /* \"#utility.yul\":16411:16542   */\n      tag_171\n      jump\t// in\n    tag_331:\n        /* \"#utility.yul\":16403:16542   */\n      swap1\n      pop\n        /* \"#utility.yul\":16130:16549   */\n      swap2\n      swap1\n      pop\n      jump\t// out\n        /* \"#utility.yul\":16555:16749   */\n    tag_110:\n        /* \"#utility.yul\":16595:16599   */\n      0x00\n        /* \"#utility.yul\":16615:16635   */\n      tag_333\n        /* \"#utility.yul\":16633:16634   */\n      dup3\n        /* \"#utility.yul\":16615:16635   */\n      tag_129\n      jump\t// in\n    tag_333:\n        /* \"#utility.yul\":16610:16635   */\n      swap2\n      pop\n        /* \"#utility.yul\":16649:16669   */\n      tag_334\n        /* \"#utility.yul\":16667:16668   */\n      dup4\n        /* \"#utility.yul\":16649:16669   */\n      tag_129\n      jump\t// in\n    tag_334:\n        /* \"#utility.yul\":16644:16669   */\n      swap3\n      pop\n        /* \"#utility.yul\":16693:16694   */\n      dup3\n        /* \"#utility.yul\":16690:16691   */\n      dup3\n        /* \"#utility.yul\":16686:16695   */\n      sub\n        /* \"#utility.yul\":16678:16695   */\n      swap1\n      pop\n        /* \"#utility.yul\":16717:16718   */\n      dup2\n        /* \"#utility.yul\":16711:16715   */\n      dup2\n        /* \"#utility.yul\":16708:16719   */\n      gt\n        /* \"#utility.yul\":16705:16742   */\n      iszero\n      tag_335\n      jumpi\n        /* \"#utility.yul\":16722:16740   */\n      tag_336\n      tag_163\n      jump\t// in\n    tag_336:\n        /* \"#utility.yul\":16705:16742   */\n    tag_335:\n        /* \"#utility.yul\":16555:16749   */\n      swap3\n      swap2\n      pop\n      pop\n      jump\t// out\n        /* \"#utility.yul\":16755:16916   */\n    tag_172:\n        /* \"#utility.yul\":16895:16908   */\n      0x6e6f742073746172746564000000000000000000000000000000000000000000\n        /* \"#utility.yul\":16891:16892   */\n      0x00\n        /* \"#utility.yul\":16883:16889   */\n      dup3\n        /* \"#utility.yul\":16879:16893   */\n      add\n        /* \"#utility.yul\":16872:16909   */\n      mstore\n        /* \"#utility.yul\":16755:16916   */\n      pop\n      jump\t// out\n        /* \"#utility.yul\":16922:17288   */\n    tag_173:\n        /* \"#utility.yul\":17064:17067   */\n      0x00\n        /* \"#utility.yul\":17085:17152   */\n      tag_339\n        /* \"#utility.yul\":17149:17151   */\n      0x0b\n        /* \"#utility.yul\":17144:17147   */\n      dup4\n        /* \"#utility.yul\":17085:17152   */\n      tag_152\n      jump\t// in\n    tag_339:\n        /* \"#utility.yul\":17078:17152   */\n      swap2\n      pop\n        /* \"#utility.yul\":17161:17254   */\n      tag_340\n        /* \"#utility.yul\":17250:17253   */\n      dup3\n        /* \"#utility.yul\":17161:17254   */\n      tag_172\n      jump\t// in\n    tag_340:\n        /* \"#utility.yul\":17279:17281   */\n      0x20\n        /* \"#utility.yul\":17274:17277   */\n      dup3\n        /* \"#utility.yul\":17270:17282   */\n      add\n        /* \"#utility.yul\":17263:17282   */\n      swap1\n      pop\n        /* \"#utility.yul\":16922:17288   */\n      swap2\n      swap1\n      pop\n      jump\t// out\n        /* \"#utility.yul\":17294:17713   */\n    tag_116:\n        /* \"#utility.yul\":17460:17464   */\n      0x00\n        /* \"#utility.yul\":17498:17500   */\n      0x20\n        /* \"#utility.yul\":17487:17496   */\n      dup3\n        /* \"#utility.yul\":17483:17501   */\n      add\n        /* \"#utility.yul\":17475:17501   */\n      swap1\n      pop\n        /* \"#utility.yul\":17547:17556   */\n      dup2\n        /* \"#utility.yul\":17541:17545   */\n      dup2\n        /* \"#utility.yul\":17537:17557   */\n      sub\n        /* \"#utility.yul\":17533:17534   */\n      0x00\n        /* \"#utility.yul\":17522:17531   */\n      dup4\n        /* \"#utility.yul\":17518:17535   */\n      add\n        /* \"#utility.yul\":17511:17558   */\n      mstore\n        /* \"#utility.yul\":17575:17706   */\n      tag_342\n        /* \"#utility.yul\":17701:17705   */\n      dup2\n        /* \"#utility.yul\":17575:17706   */\n      tag_173\n      jump\t// in\n    tag_342:\n        /* \"#utility.yul\":17567:17706   */\n      swap1\n      pop\n        /* \"#utility.yul\":17294:17713   */\n      swap2\n      swap1\n      pop\n      jump\t// out\n        /* \"#utility.yul\":17719:17874   */\n    tag_174:\n        /* \"#utility.yul\":17859:17866   */\n      0x656e646564000000000000000000000000000000000000000000000000000000\n        /* \"#utility.yul\":17855:17856   */\n      0x00\n        /* \"#utility.yul\":17847:17853   */\n      dup3\n        /* \"#utility.yul\":17843:17857   */\n      add\n        /* \"#utility.yul\":17836:17867   */\n      mstore\n        /* \"#utility.yul\":17719:17874   */\n      pop\n      jump\t// out\n        /* \"#utility.yul\":17880:18245   */\n    tag_175:\n        /* \"#utility.yul\":18022:18025   */\n      0x00\n        /* \"#utility.yul\":18043:18109   */\n      tag_345\n        /* \"#utility.yul\":18107:18108   */\n      0x05\n        /* \"#utility.yul\":18102:18105   */\n      dup4\n        /* \"#utility.yul\":18043:18109   */\n      tag_152\n      jump\t// in\n    tag_345:\n        /* \"#utility.yul\":18036:18109   */\n      swap2\n      pop\n        /* \"#utility.yul\":18118:18211   */\n      tag_346\n        /* \"#utility.yul\":18207:18210   */\n      dup3\n        /* \"#utility.yul\":18118:18211   */\n      tag_174\n      jump\t// in\n    tag_346:\n        /* \"#utility.yul\":18236:18238   */\n      0x20\n        /* \"#utility.yul\":18231:18234   */\n      dup3\n        /* \"#utility.yul\":18227:18239   */\n      add\n        /* \"#utility.yul\":18220:18239   */\n      swap1\n      pop\n        /* \"#utility.yul\":17880:18245   */\n      swap2\n      swap1\n      pop\n      jump\t// out\n        /* \"#utility.yul\":18251:18670   */\n    tag_119:\n        /* \"#utility.yul\":18417:18421   */\n      0x00\n        /* \"#utility.yul\":18455:18457   */\n      0x20\n        /* \"#utility.yul\":18444:18453   */\n      dup3\n        /* \"#utility.yul\":18440:18458   */\n      add\n        /* \"#utility.yul\":18432:18458   */\n      swap1\n      pop\n        /* \"#utility.yul\":18504:18513   */\n      dup2\n        /* \"#utility.yul\":18498:18502   */\n      dup2\n        /* \"#utility.yul\":18494:18514   */\n      sub\n        /* \"#utility.yul\":18490:18491   */\n      0x00\n        /* \"#utility.yul\":18479:18488   */\n      dup4\n        /* \"#utility.yul\":18475:18492   */\n      add\n        /* \"#utility.yul\":18468:18515   */\n      mstore\n        /* \"#utility.yul\":18532:18663   */\n      tag_348\n        /* \"#utility.yul\":18658:18662   */\n      dup2\n        /* \"#utility.yul\":18532:18663   */\n      tag_175\n      jump\t// in\n    tag_348:\n        /* \"#utility.yul\":18524:18663   */\n      swap1\n      pop\n        /* \"#utility.yul\":18251:18670   */\n      swap2\n      swap1\n      pop\n      jump\t// out\n        /* \"#utility.yul\":18676:19118   */\n    tag_121:\n        /* \"#utility.yul\":18825:18829   */\n      0x00\n        /* \"#utility.yul\":18863:18865   */\n      0x60\n        /* \"#utility.yul\":18852:18861   */\n      dup3\n        /* \"#utility.yul\":18848:18866   */\n      add\n        /* \"#utility.yul\":18840:18866   */\n      swap1\n      pop\n        /* \"#utility.yul\":18876:18947   */\n      tag_350\n        /* \"#utility.yul\":18944:18945   */\n      0x00\n        /* \"#utility.yul\":18933:18942   */\n      dup4\n        /* \"#utility.yul\":18929:18946   */\n      add\n        /* \"#utility.yul\":18920:18926   */\n      dup7\n        /* \"#utility.yul\":18876:18947   */\n      tag_138\n      jump\t// in\n    tag_350:\n        /* \"#utility.yul\":18957:19029   */\n      tag_351\n        /* \"#utility.yul\":19025:19027   */\n      0x20\n        /* \"#utility.yul\":19014:19023   */\n      dup4\n        /* \"#utility.yul\":19010:19028   */\n      add\n        /* \"#utility.yul\":19001:19007   */\n      dup6\n        /* \"#utility.yul\":18957:19029   */\n      tag_138\n      jump\t// in\n    tag_351:\n        /* \"#utility.yul\":19039:19111   */\n      tag_352\n        /* \"#utility.yul\":19107:19109   */\n      0x40\n        /* \"#utility.yul\":19096:19105   */\n      dup4\n        /* \"#utility.yul\":19092:19110   */\n      add\n        /* \"#utility.yul\":19083:19089   */\n      dup5\n        /* \"#utility.yul\":19039:19111   */\n      tag_130\n      jump\t// in\n    tag_352:\n        /* \"#utility.yul\":18676:19118   */\n      swap5\n      swap4\n      pop\n      pop\n      pop\n      pop\n      jump\t// out\n        /* \"#utility.yul\":19124:19315   */\n    tag_126:\n        /* \"#utility.yul\":19164:19167   */\n      0x00\n        /* \"#utility.yul\":19183:19203   */\n      tag_354\n        /* \"#utility.yul\":19201:19202   */\n      dup3\n        /* \"#utility.yul\":19183:19203   */\n      tag_129\n      jump\t// in\n    tag_354:\n        /* \"#utility.yul\":19178:19203   */\n      swap2\n      pop\n        /* \"#utility.yul\":19217:19237   */\n      tag_355\n        /* \"#utility.yul\":19235:19236   */\n      dup4\n        /* \"#utility.yul\":19217:19237   */\n      tag_129\n      jump\t// in\n    tag_355:\n        /* \"#utility.yul\":19212:19237   */\n      swap3\n      pop\n        /* \"#utility.yul\":19260:19261   */\n      dup3\n        /* \"#utility.yul\":19257:19258   */\n      dup3\n        /* \"#utility.yul\":19253:19262   */\n      add\n        /* \"#utility.yul\":19246:19262   */\n      swap1\n      pop\n        /* \"#utility.yul\":19281:19284   */\n      dup1\n        /* \"#utility.yul\":19278:19279   */\n      dup3\n        /* \"#utility.yul\":19275:19285   */\n      gt\n        /* \"#utility.yul\":19272:19308   */\n      iszero\n      tag_356\n      jumpi\n        /* \"#utility.yul\":19288:19306   */\n      tag_357\n      tag_163\n      jump\t// in\n    tag_357:\n        /* \"#utility.yul\":19272:19308   */\n    tag_356:\n        /* \"#utility.yul\":19124:19315   */\n      swap3\n      swap2\n      pop\n      pop\n      jump\t// out\n\n    auxdata: 0xa2646970667358221220dfa9ff421d738097b541ac286bd25d3bb58ff4af428901ec4bd4e3814e01ff2364736f6c63430008150033\n}\n",
				"bytecode": {
					"linkReferences": {},
					"object": "60a060405234801562000010575f80fd5b506040516200190b3803806200190b8339818101604052810190620000369190620000d6565b8073ffffffffffffffffffffffffffffffffffffffff1660808173ffffffffffffffffffffffffffffffffffffffff16815250505062000106565b5f80fd5b5f73ffffffffffffffffffffffffffffffffffffffff82169050919050565b5f620000a08262000075565b9050919050565b620000b28162000094565b8114620000bd575f80fd5b50565b5f81519050620000d081620000a7565b92915050565b5f60208284031215620000ee57620000ed62000071565b5b5f620000fd84828501620000c0565b91505092915050565b6080516117d06200013b5f395f81816103d0015281816108a701528181610a5e01528181610be50152610cd601526117d05ff3fe608060405234801561000f575f80fd5b506004361061009c575f3560e01c80636d4ce63c116100645780636d4ce63c14610147578063711853ab14610165578063aa4fb63a14610181578063fc0c546a146101b1578063fde327be146101cf5761009c565b806306661abd146100a0578063141961bc146100be578063278ecde1146100f35780632c63f1461461010f578063379607f51461012b575b5f80fd5b6100a86101eb565b6040516100b59190610e56565b60405180910390f35b6100d860048036038101906100d39190610e9d565b6101f0565b6040516100ea96959493929190610f3f565b60405180910390f35b61010d60048036038101906101089190610e9d565b610273565b005b61012960048036038101906101249190610fc8565b6104b3565b005b61014560048036038101906101409190610e9d565b610708565b005b61014f6109c8565b60405161015c9190610e56565b60405180910390f35b61017f600480360381019061017a9190611018565b6109cf565b005b61019b60048036038101906101969190611080565b610bc3565b6040516101a89190610e56565b60405180910390f35b6101b9610be3565b6040516101c69190611119565b60405180910390f35b6101e960048036038101906101e49190611018565b610c07565b005b5f5481565b6001602052805f5260405f205f91509050805f015f9054906101000a900473ffffffffffffffffffffffffffffffffffffffff1690806001015490806002015490806003015f9054906101000a900463ffffffff16908060030160049054906101000a900463ffffffff16908060030160089054906101000a900460ff16905086565b5f60015f8381526020019081526020015f2090508060030160049054906101000a900463ffffffff1663ffffffff1642116102e3576040517f08c379a00000000000000000000000000000000000000000000000000000000081526004016102da9061118c565b60405180910390fd5b806001015481600201541061032d576040517f08c379a0000000000000000000000000000000000000000000000000000000008152600401610324906111f4565b60405180910390fd5b5f60025f8481526020019081526020015f205f3373ffffffffffffffffffffffffffffffffffffffff1673ffffffffffffffffffffffffffffffffffffffff1681526020019081526020015f205490505f60025f8581526020019081526020015f205f3373ffffffffffffffffffffffffffffffffffffffff1673ffffffffffffffffffffffffffffffffffffffff1681526020019081526020015f20819055507f000000000000000000000000000000000000000000000000000000000000000073ffffffffffffffffffffffffffffffffffffffff1663a9059cbb33836040518363ffffffff1660e01b8152600401610429929190611212565b6020604051808303815f875af1158015610445573d5f803e3d5ffd5b505050506040513d601f19601f820116820180604052508101906104699190611263565b505f82600201819055507f21e12a7cad0da5928167e1084ea4d5fdf8d9af66657a2543a9ac76a0ca0814778333836040516104a69392919061128e565b60405180910390a1505050565b428263ffffffff1610156104fc576040517f08c379a00000000000000000000000000000000000000000000000000000000081526004016104f39061130d565b60405180910390fd5b8163ffffffff168163ffffffff16101561054b576040517f08c379a000000000000000000000000000000000000000000000000000000000815260040161054290611375565b60405180910390fd5b6104b08261055991906113c0565b63ffffffff168163ffffffff1611156105a7576040517f08c379a000000000000000000000000000000000000000000000000000000000815260040161059e90611441565b60405180910390fd5b5f808154809291906105b89061145f565b91905055503360015f805481526020019081526020015f205f015f6101000a81548173ffffffffffffffffffffffffffffffffffffffff021916908373ffffffffffffffffffffffffffffffffffffffff1602179055508260015f805481526020019081526020015f20600101819055508160015f805481526020019081526020015f206003015f6101000a81548163ffffffff021916908363ffffffff1602179055508060015f805481526020019081526020015f2060030160046101000a81548163ffffffff021916908363ffffffff1602179055507f0601cd0d650b473037e838a2696d41e654433d065b3f56b28d1d3302e44a304f5f5460015f805481526020019081526020015f205f015f9054906101000a900473ffffffffffffffffffffffffffffffffffffffff168585856040516106fb9594939291906114a6565b60405180910390a1505050565b5f60015f8381526020019081526020015f2090503373ffffffffffffffffffffffffffffffffffffffff16815f015f9054906101000a900473ffffffffffffffffffffffffffffffffffffffff1673ffffffffffffffffffffffffffffffffffffffff16146107ac576040517f08c379a00000000000000000000000000000000000000000000000000000000081526004016107a390611541565b60405180910390fd5b8060030160049054906101000a900463ffffffff1663ffffffff164211610808576040517f08c379a00000000000000000000000000000000000000000000000000000000081526004016107ff9061118c565b60405180910390fd5b806001015481600201541015610853576040517f08c379a000000000000000000000000000000000000000000000000000000000815260040161084a906115a9565b60405180910390fd5b8060030160089054906101000a900460ff16156108a5576040517f08c379a000000000000000000000000000000000000000000000000000000000815260040161089c90611611565b60405180910390fd5b7f000000000000000000000000000000000000000000000000000000000000000073ffffffffffffffffffffffffffffffffffffffff1663a9059cbb825f015f9054906101000a900473ffffffffffffffffffffffffffffffffffffffff1683600201546040518363ffffffff1660e01b8152600401610926929190611212565b6020604051808303815f875af1158015610942573d5f803e3d5ffd5b505050506040513d601f19601f820116820180604052508101906109669190611263565b5060018160030160086101000a81548160ff0219169083151502179055505f81600201819055507f7bb2b3c10797baccb6f8c4791f1edd6ca2f0d028ee0eda64b01a9a57e3a653f7826040516109bc9190610e56565b60405180910390a15050565b5f42905090565b60015f8381526020019081526020015f2060030160049054906101000a900463ffffffff1663ffffffff164210610a04575f80fd5b60025f8381526020019081526020015f205f3373ffffffffffffffffffffffffffffffffffffffff1673ffffffffffffffffffffffffffffffffffffffff1681526020019081526020015f2054811115610a5c575f80fd5b7f000000000000000000000000000000000000000000000000000000000000000073ffffffffffffffffffffffffffffffffffffffff1663a9059cbb33836040518363ffffffff1660e01b8152600401610ab7929190611212565b6020604051808303815f875af1158015610ad3573d5f803e3d5ffd5b505050506040513d601f19601f82011682018060405250810190610af79190611263565b508060015f8481526020019081526020015f206002015f828254610b1b919061162f565b925050819055508060025f8481526020019081526020015f205f3373ffffffffffffffffffffffffffffffffffffffff1673ffffffffffffffffffffffffffffffffffffffff1681526020019081526020015f205f828254610b7d919061162f565b925050819055507f2eeeab891b26a214d1b25749f88a406bdea852bd8c9bfda977e0ef8114c180ba823383604051610bb79392919061128e565b60405180910390a15050565b6002602052815f5260405f20602052805f5260405f205f91509150505481565b7f000000000000000000000000000000000000000000000000000000000000000081565b5f60015f8481526020019081526020015f209050806003015f9054906101000a900463ffffffff1663ffffffff16421015610c77576040517f08c379a0000000000000000000000000000000000000000000000000000000008152600401610c6e906116ac565b60405180910390fd5b8060030160049054906101000a900463ffffffff1663ffffffff16421115610cd4576040517f08c379a0000000000000000000000000000000000000000000000000000000008152600401610ccb90611714565b60405180910390fd5b7f000000000000000000000000000000000000000000000000000000000000000073ffffffffffffffffffffffffffffffffffffffff166323b872dd3330856040518463ffffffff1660e01b8152600401610d3193929190611732565b6020604051808303815f875af1158015610d4d573d5f803e3d5ffd5b505050506040513d601f19601f82011682018060405250810190610d719190611263565b508160015f8581526020019081526020015f206002015f828254610d959190611767565b925050819055508160025f8581526020019081526020015f205f3373ffffffffffffffffffffffffffffffffffffffff1673ffffffffffffffffffffffffffffffffffffffff1681526020019081526020015f205f828254610df79190611767565b925050819055507f06bdb975df800a73232998e71ed585d536222f1dfeaa622d7f62a23ada686c82833384604051610e319392919061128e565b60405180910390a1505050565b5f819050919050565b610e5081610e3e565b82525050565b5f602082019050610e695f830184610e47565b92915050565b5f80fd5b610e7c81610e3e565b8114610e86575f80fd5b50565b5f81359050610e9781610e73565b92915050565b5f60208284031215610eb257610eb1610e6f565b5b5f610ebf84828501610e89565b91505092915050565b5f73ffffffffffffffffffffffffffffffffffffffff82169050919050565b5f610ef182610ec8565b9050919050565b610f0181610ee7565b82525050565b5f63ffffffff82169050919050565b610f1f81610f07565b82525050565b5f8115159050919050565b610f3981610f25565b82525050565b5f60c082019050610f525f830189610ef8565b610f5f6020830188610e47565b610f6c6040830187610e47565b610f796060830186610f16565b610f866080830185610f16565b610f9360a0830184610f30565b979650505050505050565b610fa781610f07565b8114610fb1575f80fd5b50565b5f81359050610fc281610f9e565b92915050565b5f805f60608486031215610fdf57610fde610e6f565b5b5f610fec86828701610e89565b9350506020610ffd86828701610fb4565b925050604061100e86828701610fb4565b9150509250925092565b5f806040838503121561102e5761102d610e6f565b5b5f61103b85828601610e89565b925050602061104c85828601610e89565b9150509250929050565b61105f81610ee7565b8114611069575f80fd5b50565b5f8135905061107a81611056565b92915050565b5f806040838503121561109657611095610e6f565b5b5f6110a385828601610e89565b92505060206110b48582860161106c565b9150509250929050565b5f819050919050565b5f6110e16110dc6110d784610ec8565b6110be565b610ec8565b9050919050565b5f6110f2826110c7565b9050919050565b5f611103826110e8565b9050919050565b611113816110f9565b82525050565b5f60208201905061112c5f83018461110a565b92915050565b5f82825260208201905092915050565b7f6e6f7420656e64656400000000000000000000000000000000000000000000005f82015250565b5f611176600983611132565b915061118182611142565b602082019050919050565b5f6020820190508181035f8301526111a38161116a565b9050919050565b7f706c6564676564203e3d20676f616c00000000000000000000000000000000005f82015250565b5f6111de600f83611132565b91506111e9826111aa565b602082019050919050565b5f6020820190508181035f83015261120b816111d2565b9050919050565b5f6040820190506112255f830185610ef8565b6112326020830184610e47565b9392505050565b61124281610f25565b811461124c575f80fd5b50565b5f8151905061125d81611239565b92915050565b5f6020828403121561127857611277610e6f565b5b5f6112858482850161124f565b91505092915050565b5f6060820190506112a15f830186610e47565b6112ae6020830185610ef8565b6112bb6040830184610e47565b949350505050565b7f7374617274206174203c206e6f770000000000000000000000000000000000005f82015250565b5f6112f7600e83611132565b9150611302826112c3565b602082019050919050565b5f6020820190508181035f830152611324816112eb565b9050919050565b7f656e64206174203c2073746172742061740000000000000000000000000000005f82015250565b5f61135f601183611132565b915061136a8261132b565b602082019050919050565b5f6020820190508181035f83015261138c81611353565b9050919050565b7f4e487b71000000000000000000000000000000000000000000000000000000005f52601160045260245ffd5b5f6113ca82610f07565b91506113d583610f07565b9250828201905063ffffffff8111156113f1576113f0611393565b5b92915050565b7f656e64206174203e206d6178206475726174696f6e00000000000000000000005f82015250565b5f61142b601583611132565b9150611436826113f7565b602082019050919050565b5f6020820190508181035f8301526114588161141f565b9050919050565b5f61146982610e3e565b91507fffffffffffffffffffffffffffffffffffffffffffffffffffffffffffffffff820361149b5761149a611393565b5b600182019050919050565b5f60a0820190506114b95f830188610e47565b6114c66020830187610ef8565b6114d36040830186610e47565b6114e06060830185610f16565b6114ed6080830184610f16565b9695505050505050565b7f6e6f742063726561746f720000000000000000000000000000000000000000005f82015250565b5f61152b600b83611132565b9150611536826114f7565b602082019050919050565b5f6020820190508181035f8301526115588161151f565b9050919050565b7f706c6564676564203c20676f616c0000000000000000000000000000000000005f82015250565b5f611593600e83611132565b915061159e8261155f565b602082019050919050565b5f6020820190508181035f8301526115c081611587565b9050919050565b7f636c61696d6564000000000000000000000000000000000000000000000000005f82015250565b5f6115fb600783611132565b9150611606826115c7565b602082019050919050565b5f6020820190508181035f830152611628816115ef565b9050919050565b5f61163982610e3e565b915061164483610e3e565b925082820390508181111561165c5761165b611393565b5b92915050565b7f6e6f7420737461727465640000000000000000000000000000000000000000005f82015250565b5f611696600b83611132565b91506116a182611662565b602082019050919050565b5f6020820190508181035f8301526116c38161168a565b9050919050565b7f656e6465640000000000000000000000000000000000000000000000000000005f82015250565b5f6116fe600583611132565b9150611709826116ca565b602082019050919050565b5f6020820190508181035f83015261172b816116f2565b9050919050565b5f6060820190506117455f830186610ef8565b6117526020830185610ef8565b61175f6040830184610e47565b949350505050565b5f61177182610e3e565b915061177c83610e3e565b925082820190508082111561179457611793611393565b5b9291505056fea2646970667358221220dfa9ff421d738097b541ac286bd25d3bb58ff4af428901ec4bd4e3814e01ff2364736f6c63430008150033",
					"opcodes": "PUSH1 0xA0 PUSH1 0x40 MSTORE CALLVALUE DUP1 ISZERO PUSH3 0x10 JUMPI PUSH0 DUP1 REVERT JUMPDEST POP PUSH1 0x40 MLOAD PUSH3 0x190B CODESIZE SUB DUP1 PUSH3 0x190B DUP4 CODECOPY DUP2 DUP2 ADD PUSH1 0x40 MSTORE DUP2 ADD SWAP1 PUSH3 0x36 SWAP2 SWAP1 PUSH3 0xD6 JUMP JUMPDEST DUP1 PUSH20 0xFFFFFFFFFFFFFFFFFFFFFFFFFFFFFFFFFFFFFFFF AND PUSH1 0x80 DUP2 PUSH20 0xFFFFFFFFFFFFFFFFFFFFFFFFFFFFFFFFFFFFFFFF AND DUP2 MSTORE POP POP POP PUSH3 0x106 JUMP JUMPDEST PUSH0 DUP1 REVERT JUMPDEST PUSH0 PUSH20 0xFFFFFFFFFFFFFFFFFFFFFFFFFFFFFFFFFFFFFFFF DUP3 AND SWAP1 POP SWAP2 SWAP1 POP JUMP JUMPDEST PUSH0 PUSH3 0xA0 DUP3 PUSH3 0x75 JUMP JUMPDEST SWAP1 POP SWAP2 SWAP1 POP JUMP JUMPDEST PUSH3 0xB2 DUP2 PUSH3 0x94 JUMP JUMPDEST DUP2 EQ PUSH3 0xBD JUMPI PUSH0 DUP1 REVERT JUMPDEST POP JUMP JUMPDEST PUSH0 DUP2 MLOAD SWAP1 POP PUSH3 0xD0 DUP2 PUSH3 0xA7 JUMP JUMPDEST SWAP3 SWAP2 POP POP JUMP JUMPDEST PUSH0 PUSH1 0x20 DUP3 DUP5 SUB SLT ISZERO PUSH3 0xEE JUMPI PUSH3 0xED PUSH3 0x71 JUMP JUMPDEST JUMPDEST PUSH0 PUSH3 0xFD DUP5 DUP3 DUP6 ADD PUSH3 0xC0 JUMP JUMPDEST SWAP2 POP POP SWAP3 SWAP2 POP POP JUMP JUMPDEST PUSH1 0x80 MLOAD PUSH2 0x17D0 PUSH3 0x13B PUSH0 CODECOPY PUSH0 DUP2 DUP2 PUSH2 0x3D0 ADD MSTORE DUP2 DUP2 PUSH2 0x8A7 ADD MSTORE DUP2 DUP2 PUSH2 0xA5E ADD MSTORE DUP2 DUP2 PUSH2 0xBE5 ADD MSTORE PUSH2 0xCD6 ADD MSTORE PUSH2 0x17D0 PUSH0 RETURN INVALID PUSH1 0x80 PUSH1 0x40 MSTORE CALLVALUE DUP1 ISZERO PUSH2 0xF JUMPI PUSH0 DUP1 REVERT JUMPDEST POP PUSH1 0x4 CALLDATASIZE LT PUSH2 0x9C JUMPI PUSH0 CALLDATALOAD PUSH1 0xE0 SHR DUP1 PUSH4 0x6D4CE63C GT PUSH2 0x64 JUMPI DUP1 PUSH4 0x6D4CE63C EQ PUSH2 0x147 JUMPI DUP1 PUSH4 0x711853AB EQ PUSH2 0x165 JUMPI DUP1 PUSH4 0xAA4FB63A EQ PUSH2 0x181 JUMPI DUP1 PUSH4 0xFC0C546A EQ PUSH2 0x1B1 JUMPI DUP1 PUSH4 0xFDE327BE EQ PUSH2 0x1CF JUMPI PUSH2 0x9C JUMP JUMPDEST DUP1 PUSH4 0x6661ABD EQ PUSH2 0xA0 JUMPI DUP1 PUSH4 0x141961BC EQ PUSH2 0xBE JUMPI DUP1 PUSH4 0x278ECDE1 EQ PUSH2 0xF3 JUMPI DUP1 PUSH4 0x2C63F146 EQ PUSH2 0x10F JUMPI DUP1 PUSH4 0x379607F5 EQ PUSH2 0x12B JUMPI JUMPDEST PUSH0 DUP1 REVERT JUMPDEST PUSH2 0xA8 PUSH2 0x1EB JUMP JUMPDEST PUSH1 0x40 MLOAD PUSH2 0xB5 SWAP2 SWAP1 PUSH2 0xE56 JUMP JUMPDEST PUSH1 0x40 MLOAD DUP1 SWAP2 SUB SWAP1 RETURN JUMPDEST PUSH2 0xD8 PUSH1 0x4 DUP1 CALLDATASIZE SUB DUP2 ADD SWAP1 PUSH2 0xD3 SWAP2 SWAP1 PUSH2 0xE9D JUMP JUMPDEST PUSH2 0x1F0 JUMP JUMPDEST PUSH1 0x40 MLOAD PUSH2 0xEA SWAP7 SWAP6 SWAP5 SWAP4 SWAP3 SWAP2 SWAP1 PUSH2 0xF3F JUMP JUMPDEST PUSH1 0x40 MLOAD DUP1 SWAP2 SUB SWAP1 RETURN JUMPDEST PUSH2 0x10D PUSH1 0x4 DUP1 CALLDATASIZE SUB DUP2 ADD SWAP1 PUSH2 0x108 SWAP2 SWAP1 PUSH2 0xE9D JUMP JUMPDEST PUSH2 0x273 JUMP JUMPDEST STOP JUMPDEST PUSH2 0x129 PUSH1 0x4 DUP1 CALLDATASIZE SUB DUP2 ADD SWAP1 PUSH2 0x124 SWAP2 SWAP1 PUSH2 0xFC8 JUMP JUMPDEST PUSH2 0x4B3 JUMP JUMPDEST STOP JUMPDEST PUSH2 0x145 PUSH1 0x4 DUP1 CALLDATASIZE SUB DUP2 ADD SWAP1 PUSH2 0x140 SWAP2 SWAP1 PUSH2 0xE9D JUMP JUMPDEST PUSH2 0x708 JUMP JUMPDEST STOP JUMPDEST PUSH2 0x14F PUSH2 0x9C8 JUMP JUMPDEST PUSH1 0x40 MLOAD PUSH2 0x15C SWAP2 SWAP1 PUSH2 0xE56 JUMP JUMPDEST PUSH1 0x40 MLOAD DUP1 SWAP2 SUB SWAP1 RETURN JUMPDEST PUSH2 0x17F PUSH1 0x4 DUP1 CALLDATASIZE SUB DUP2 ADD SWAP1 PUSH2 0x17A SWAP2 SWAP1 PUSH2 0x1018 JUMP JUMPDEST PUSH2 0x9CF JUMP JUMPDEST STOP JUMPDEST PUSH2 0x19B PUSH1 0x4 DUP1 CALLDATASIZE SUB DUP2 ADD SWAP1 PUSH2 0x196 SWAP2 SWAP1 PUSH2 0x1080 JUMP JUMPDEST PUSH2 0xBC3 JUMP JUMPDEST PUSH1 0x40 MLOAD PUSH2 0x1A8 SWAP2 SWAP1 PUSH2 0xE56 JUMP JUMPDEST PUSH1 0x40 MLOAD DUP1 SWAP2 SUB SWAP1 RETURN JUMPDEST PUSH2 0x1B9 PUSH2 0xBE3 JUMP JUMPDEST PUSH1 0x40 MLOAD PUSH2 0x1C6 SWAP2 SWAP1 PUSH2 0x1119 JUMP JUMPDEST PUSH1 0x40 MLOAD DUP1 SWAP2 SUB SWAP1 RETURN JUMPDEST PUSH2 0x1E9 PUSH1 0x4 DUP1 CALLDATASIZE SUB DUP2 ADD SWAP1 PUSH2 0x1E4 SWAP2 SWAP1 PUSH2 0x1018 JUMP JUMPDEST PUSH2 0xC07 JUMP JUMPDEST STOP JUMPDEST PUSH0 SLOAD DUP2 JUMP JUMPDEST PUSH1 0x1 PUSH1 0x20 MSTORE DUP1 PUSH0 MSTORE PUSH1 0x40 PUSH0 KECCAK256 PUSH0 SWAP2 POP SWAP1 POP DUP1 PUSH0 ADD PUSH0 SWAP1 SLOAD SWAP1 PUSH2 0x100 EXP SWAP1 DIV PUSH20 0xFFFFFFFFFFFFFFFFFFFFFFFFFFFFFFFFFFFFFFFF AND SWAP1 DUP1 PUSH1 0x1 ADD SLOAD SWAP1 DUP1 PUSH1 0x2 ADD SLOAD SWAP1 DUP1 PUSH1 0x3 ADD PUSH0 SWAP1 SLOAD SWAP1 PUSH2 0x100 EXP SWAP1 DIV PUSH4 0xFFFFFFFF AND SWAP1 DUP1 PUSH1 0x3 ADD PUSH1 0x4 SWAP1 SLOAD SWAP1 PUSH2 0x100 EXP SWAP1 DIV PUSH4 0xFFFFFFFF AND SWAP1 DUP1 PUSH1 0x3 ADD PUSH1 0x8 SWAP1 SLOAD SWAP1 PUSH2 0x100 EXP SWAP1 DIV PUSH1 0xFF AND SWAP1 POP DUP7 JUMP JUMPDEST PUSH0 PUSH1 0x1 PUSH0 DUP4 DUP2 MSTORE PUSH1 0x20 ADD SWAP1 DUP2 MSTORE PUSH1 0x20 ADD PUSH0 KECCAK256 SWAP1 POP DUP1 PUSH1 0x3 ADD PUSH1 0x4 SWAP1 SLOAD SWAP1 PUSH2 0x100 EXP SWAP1 DIV PUSH4 0xFFFFFFFF AND PUSH4 0xFFFFFFFF AND TIMESTAMP GT PUSH2 0x2E3 JUMPI PUSH1 0x40 MLOAD PUSH32 0x8C379A000000000000000000000000000000000000000000000000000000000 DUP2 MSTORE PUSH1 0x4 ADD PUSH2 0x2DA SWAP1 PUSH2 0x118C JUMP JUMPDEST PUSH1 0x40 MLOAD DUP1 SWAP2 SUB SWAP1 REVERT JUMPDEST DUP1 PUSH1 0x1 ADD SLOAD DUP2 PUSH1 0x2 ADD SLOAD LT PUSH2 0x32D JUMPI PUSH1 0x40 MLOAD PUSH32 0x8C379A000000000000000000000000000000000000000000000000000000000 DUP2 MSTORE PUSH1 0x4 ADD PUSH2 0x324 SWAP1 PUSH2 0x11F4 JUMP JUMPDEST PUSH1 0x40 MLOAD DUP1 SWAP2 SUB SWAP1 REVERT JUMPDEST PUSH0 PUSH1 0x2 PUSH0 DUP5 DUP2 MSTORE PUSH1 0x20 ADD SWAP1 DUP2 MSTORE PUSH1 0x20 ADD PUSH0 KECCAK256 PUSH0 CALLER PUSH20 0xFFFFFFFFFFFFFFFFFFFFFFFFFFFFFFFFFFFFFFFF AND PUSH20 0xFFFFFFFFFFFFFFFFFFFFFFFFFFFFFFFFFFFFFFFF AND DUP2 MSTORE PUSH1 0x20 ADD SWAP1 DUP2 MSTORE PUSH1 0x20 ADD PUSH0 KECCAK256 SLOAD SWAP1 POP PUSH0 PUSH1 0x2 PUSH0 DUP6 DUP2 MSTORE PUSH1 0x20 ADD SWAP1 DUP2 MSTORE PUSH1 0x20 ADD PUSH0 KECCAK256 PUSH0 CALLER PUSH20 0xFFFFFFFFFFFFFFFFFFFFFFFFFFFFFFFFFFFFFFFF AND PUSH20 0xFFFFFFFFFFFFFFFFFFFFFFFFFFFFFFFFFFFFFFFF AND DUP2 MSTORE PUSH1 0x20 ADD SWAP1 DUP2 MSTORE PUSH1 0x20 ADD PUSH0 KECCAK256 DUP2 SWAP1 SSTORE POP PUSH32 0x0 PUSH20 0xFFFFFFFFFFFFFFFFFFFFFFFFFFFFFFFFFFFFFFFF AND PUSH4 0xA9059CBB CALLER DUP4 PUSH1 0x40 MLOAD DUP4 PUSH4 0xFFFFFFFF AND PUSH1 0xE0 SHL DUP2 MSTORE PUSH1 0x4 ADD PUSH2 0x429 SWAP3 SWAP2 SWAP1 PUSH2 0x1212 JUMP JUMPDEST PUSH1 0x20 PUSH1 0x40 MLOAD DUP1 DUP4 SUB DUP2 PUSH0 DUP8 GAS CALL ISZERO DUP1 ISZERO PUSH2 0x445 JUMPI RETURNDATASIZE PUSH0 DUP1 RETURNDATACOPY RETURNDATASIZE PUSH0 REVERT JUMPDEST POP POP POP POP PUSH1 0x40 MLOAD RETURNDATASIZE PUSH1 0x1F NOT PUSH1 0x1F DUP3 ADD AND DUP3 ADD DUP1 PUSH1 0x40 MSTORE POP DUP2 ADD SWAP1 PUSH2 0x469 SWAP2 SWAP1 PUSH2 0x1263 JUMP JUMPDEST POP PUSH0 DUP3 PUSH1 0x2 ADD DUP2 SWAP1 SSTORE POP PUSH32 0x21E12A7CAD0DA5928167E1084EA4D5FDF8D9AF66657A2543A9AC76A0CA081477 DUP4 CALLER DUP4 PUSH1 0x40 MLOAD PUSH2 0x4A6 SWAP4 SWAP3 SWAP2 SWAP1 PUSH2 0x128E JUMP JUMPDEST PUSH1 0x40 MLOAD DUP1 SWAP2 SUB SWAP1 LOG1 POP POP POP JUMP JUMPDEST TIMESTAMP DUP3 PUSH4 0xFFFFFFFF AND LT ISZERO PUSH2 0x4FC JUMPI PUSH1 0x40 MLOAD PUSH32 0x8C379A000000000000000000000000000000000000000000000000000000000 DUP2 MSTORE PUSH1 0x4 ADD PUSH2 0x4F3 SWAP1 PUSH2 0x130D JUMP JUMPDEST PUSH1 0x40 MLOAD DUP1 SWAP2 SUB SWAP1 REVERT JUMPDEST DUP2 PUSH4 0xFFFFFFFF AND DUP2 PUSH4 0xFFFFFFFF AND LT ISZERO PUSH2 0x54B JUMPI PUSH1 0x40 MLOAD PUSH32 0x8C379A000000000000000000000000000000000000000000000000000000000 DUP2 MSTORE PUSH1 0x4 ADD PUSH2 0x542 SWAP1 PUSH2 0x1375 JUMP JUMPDEST PUSH1 0x40 MLOAD DUP1 SWAP2 SUB SWAP1 REVERT JUMPDEST PUSH2 0x4B0 DUP3 PUSH2 0x559 SWAP2 SWAP1 PUSH2 0x13C0 JUMP JUMPDEST PUSH4 0xFFFFFFFF AND DUP2 PUSH4 0xFFFFFFFF AND GT ISZERO PUSH2 0x5A7 JUMPI PUSH1 0x40 MLOAD PUSH32 0x8C379A000000000000000000000000000000000000000000000000000000000 DUP2 MSTORE PUSH1 0x4 ADD PUSH2 0x59E SWAP1 PUSH2 0x1441 JUMP JUMPDEST PUSH1 0x40 MLOAD DUP1 SWAP2 SUB SWAP1 REVERT JUMPDEST PUSH0 DUP1 DUP2 SLOAD DUP1 SWAP3 SWAP2 SWAP1 PUSH2 0x5B8 SWAP1 PUSH2 0x145F JUMP JUMPDEST SWAP2 SWAP1 POP SSTORE POP CALLER PUSH1 0x1 PUSH0 DUP1 SLOAD DUP2 MSTORE PUSH1 0x20 ADD SWAP1 DUP2 MSTORE PUSH1 0x20 ADD PUSH0 KECCAK256 PUSH0 ADD PUSH0 PUSH2 0x100 EXP DUP2 SLOAD DUP2 PUSH20 0xFFFFFFFFFFFFFFFFFFFFFFFFFFFFFFFFFFFFFFFF MUL NOT AND SWAP1 DUP4 PUSH20 0xFFFFFFFFFFFFFFFFFFFFFFFFFFFFFFFFFFFFFFFF AND MUL OR SWAP1 SSTORE POP DUP3 PUSH1 0x1 PUSH0 DUP1 SLOAD DUP2 MSTORE PUSH1 0x20 ADD SWAP1 DUP2 MSTORE PUSH1 0x20 ADD PUSH0 KECCAK256 PUSH1 0x1 ADD DUP2 SWAP1 SSTORE POP DUP2 PUSH1 0x1 PUSH0 DUP1 SLOAD DUP2 MSTORE PUSH1 0x20 ADD SWAP1 DUP2 MSTORE PUSH1 0x20 ADD PUSH0 KECCAK256 PUSH1 0x3 ADD PUSH0 PUSH2 0x100 EXP DUP2 SLOAD DUP2 PUSH4 0xFFFFFFFF MUL NOT AND SWAP1 DUP4 PUSH4 0xFFFFFFFF AND MUL OR SWAP1 SSTORE POP DUP1 PUSH1 0x1 PUSH0 DUP1 SLOAD DUP2 MSTORE PUSH1 0x20 ADD SWAP1 DUP2 MSTORE PUSH1 0x20 ADD PUSH0 KECCAK256 PUSH1 0x3 ADD PUSH1 0x4 PUSH2 0x100 EXP DUP2 SLOAD DUP2 PUSH4 0xFFFFFFFF MUL NOT AND SWAP1 DUP4 PUSH4 0xFFFFFFFF AND MUL OR SWAP1 SSTORE POP PUSH32 0x601CD0D650B473037E838A2696D41E654433D065B3F56B28D1D3302E44A304F PUSH0 SLOAD PUSH1 0x1 PUSH0 DUP1 SLOAD DUP2 MSTORE PUSH1 0x20 ADD SWAP1 DUP2 MSTORE PUSH1 0x20 ADD PUSH0 KECCAK256 PUSH0 ADD PUSH0 SWAP1 SLOAD SWAP1 PUSH2 0x100 EXP SWAP1 DIV PUSH20 0xFFFFFFFFFFFFFFFFFFFFFFFFFFFFFFFFFFFFFFFF AND DUP6 DUP6 DUP6 PUSH1 0x40 MLOAD PUSH2 0x6FB SWAP6 SWAP5 SWAP4 SWAP3 SWAP2 SWAP1 PUSH2 0x14A6 JUMP JUMPDEST PUSH1 0x40 MLOAD DUP1 SWAP2 SUB SWAP1 LOG1 POP POP POP JUMP JUMPDEST PUSH0 PUSH1 0x1 PUSH0 DUP4 DUP2 MSTORE PUSH1 0x20 ADD SWAP1 DUP2 MSTORE PUSH1 0x20 ADD PUSH0 KECCAK256 SWAP1 POP CALLER PUSH20 0xFFFFFFFFFFFFFFFFFFFFFFFFFFFFFFFFFFFFFFFF AND DUP2 PUSH0 ADD PUSH0 SWAP1 SLOAD SWAP1 PUSH2 0x100 EXP SWAP1 DIV PUSH20 0xFFFFFFFFFFFFFFFFFFFFFFFFFFFFFFFFFFFFFFFF AND PUSH20 0xFFFFFFFFFFFFFFFFFFFFFFFFFFFFFFFFFFFFFFFF AND EQ PUSH2 0x7AC JUMPI PUSH1 0x40 MLOAD PUSH32 0x8C379A000000000000000000000000000000000000000000000000000000000 DUP2 MSTORE PUSH1 0x4 ADD PUSH2 0x7A3 SWAP1 PUSH2 0x1541 JUMP JUMPDEST PUSH1 0x40 MLOAD DUP1 SWAP2 SUB SWAP1 REVERT JUMPDEST DUP1 PUSH1 0x3 ADD PUSH1 0x4 SWAP1 SLOAD SWAP1 PUSH2 0x100 EXP SWAP1 DIV PUSH4 0xFFFFFFFF AND PUSH4 0xFFFFFFFF AND TIMESTAMP GT PUSH2 0x808 JUMPI PUSH1 0x40 MLOAD PUSH32 0x8C379A000000000000000000000000000000000000000000000000000000000 DUP2 MSTORE PUSH1 0x4 ADD PUSH2 0x7FF SWAP1 PUSH2 0x118C JUMP JUMPDEST PUSH1 0x40 MLOAD DUP1 SWAP2 SUB SWAP1 REVERT JUMPDEST DUP1 PUSH1 0x1 ADD SLOAD DUP2 PUSH1 0x2 ADD SLOAD LT ISZERO PUSH2 0x853 JUMPI PUSH1 0x40 MLOAD PUSH32 0x8C379A000000000000000000000000000000000000000000000000000000000 DUP2 MSTORE PUSH1 0x4 ADD PUSH2 0x84A SWAP1 PUSH2 0x15A9 JUMP JUMPDEST PUSH1 0x40 MLOAD DUP1 SWAP2 SUB SWAP1 REVERT JUMPDEST DUP1 PUSH1 0x3 ADD PUSH1 0x8 SWAP1 SLOAD SWAP1 PUSH2 0x100 EXP SWAP1 DIV PUSH1 0xFF AND ISZERO PUSH2 0x8A5 JUMPI PUSH1 0x40 MLOAD PUSH32 0x8C379A000000000000000000000000000000000000000000000000000000000 DUP2 MSTORE PUSH1 0x4 ADD PUSH2 0x89C SWAP1 PUSH2 0x1611 JUMP JUMPDEST PUSH1 0x40 MLOAD DUP1 SWAP2 SUB SWAP1 REVERT JUMPDEST PUSH32 0x0 PUSH20 0xFFFFFFFFFFFFFFFFFFFFFFFFFFFFFFFFFFFFFFFF AND PUSH4 0xA9059CBB DUP3 PUSH0 ADD PUSH0 SWAP1 SLOAD SWAP1 PUSH2 0x100 EXP SWAP1 DIV PUSH20 0xFFFFFFFFFFFFFFFFFFFFFFFFFFFFFFFFFFFFFFFF AND DUP4 PUSH1 0x2 ADD SLOAD PUSH1 0x40 MLOAD DUP4 PUSH4 0xFFFFFFFF AND PUSH1 0xE0 SHL DUP2 MSTORE PUSH1 0x4 ADD PUSH2 0x926 SWAP3 SWAP2 SWAP1 PUSH2 0x1212 JUMP JUMPDEST PUSH1 0x20 PUSH1 0x40 MLOAD DUP1 DUP4 SUB DUP2 PUSH0 DUP8 GAS CALL ISZERO DUP1 ISZERO PUSH2 0x942 JUMPI RETURNDATASIZE PUSH0 DUP1 RETURNDATACOPY RETURNDATASIZE PUSH0 REVERT JUMPDEST POP POP POP POP PUSH1 0x40 MLOAD RETURNDATASIZE PUSH1 0x1F NOT PUSH1 0x1F DUP3 ADD AND DUP3 ADD DUP1 PUSH1 0x40 MSTORE POP DUP2 ADD SWAP1 PUSH2 0x966 SWAP2 SWAP1 PUSH2 0x1263 JUMP JUMPDEST POP PUSH1 0x1 DUP2 PUSH1 0x3 ADD PUSH1 0x8 PUSH2 0x100 EXP DUP2 SLOAD DUP2 PUSH1 0xFF MUL NOT AND SWAP1 DUP4 ISZERO ISZERO MUL OR SWAP1 SSTORE POP PUSH0 DUP2 PUSH1 0x2 ADD DUP2 SWAP1 SSTORE POP PUSH32 0x7BB2B3C10797BACCB6F8C4791F1EDD6CA2F0D028EE0EDA64B01A9A57E3A653F7 DUP3 PUSH1 0x40 MLOAD PUSH2 0x9BC SWAP2 SWAP1 PUSH2 0xE56 JUMP JUMPDEST PUSH1 0x40 MLOAD DUP1 SWAP2 SUB SWAP1 LOG1 POP POP JUMP JUMPDEST PUSH0 TIMESTAMP SWAP1 POP SWAP1 JUMP JUMPDEST PUSH1 0x1 PUSH0 DUP4 DUP2 MSTORE PUSH1 0x20 ADD SWAP1 DUP2 MSTORE PUSH1 0x20 ADD PUSH0 KECCAK256 PUSH1 0x3 ADD PUSH1 0x4 SWAP1 SLOAD SWAP1 PUSH2 0x100 EXP SWAP1 DIV PUSH4 0xFFFFFFFF AND PUSH4 0xFFFFFFFF AND TIMESTAMP LT PUSH2 0xA04 JUMPI PUSH0 DUP1 REVERT JUMPDEST PUSH1 0x2 PUSH0 DUP4 DUP2 MSTORE PUSH1 0x20 ADD SWAP1 DUP2 MSTORE PUSH1 0x20 ADD PUSH0 KECCAK256 PUSH0 CALLER PUSH20 0xFFFFFFFFFFFFFFFFFFFFFFFFFFFFFFFFFFFFFFFF AND PUSH20 0xFFFFFFFFFFFFFFFFFFFFFFFFFFFFFFFFFFFFFFFF AND DUP2 MSTORE PUSH1 0x20 ADD SWAP1 DUP2 MSTORE PUSH1 0x20 ADD PUSH0 KECCAK256 SLOAD DUP2 GT ISZERO PUSH2 0xA5C JUMPI PUSH0 DUP1 REVERT JUMPDEST PUSH32 0x0 PUSH20 0xFFFFFFFFFFFFFFFFFFFFFFFFFFFFFFFFFFFFFFFF AND PUSH4 0xA9059CBB CALLER DUP4 PUSH1 0x40 MLOAD DUP4 PUSH4 0xFFFFFFFF AND PUSH1 0xE0 SHL DUP2 MSTORE PUSH1 0x4 ADD PUSH2 0xAB7 SWAP3 SWAP2 SWAP1 PUSH2 0x1212 JUMP JUMPDEST PUSH1 0x20 PUSH1 0x40 MLOAD DUP1 DUP4 SUB DUP2 PUSH0 DUP8 GAS CALL ISZERO DUP1 ISZERO PUSH2 0xAD3 JUMPI RETURNDATASIZE PUSH0 DUP1 RETURNDATACOPY RETURNDATASIZE PUSH0 REVERT JUMPDEST POP POP POP POP PUSH1 0x40 MLOAD RETURNDATASIZE PUSH1 0x1F NOT PUSH1 0x1F DUP3 ADD AND DUP3 ADD DUP1 PUSH1 0x40 MSTORE POP DUP2 ADD SWAP1 PUSH2 0xAF7 SWAP2 SWAP1 PUSH2 0x1263 JUMP JUMPDEST POP DUP1 PUSH1 0x1 PUSH0 DUP5 DUP2 MSTORE PUSH1 0x20 ADD SWAP1 DUP2 MSTORE PUSH1 0x20 ADD PUSH0 KECCAK256 PUSH1 0x2 ADD PUSH0 DUP3 DUP3 SLOAD PUSH2 0xB1B SWAP2 SWAP1 PUSH2 0x162F JUMP JUMPDEST SWAP3 POP POP DUP2 SWAP1 SSTORE POP DUP1 PUSH1 0x2 PUSH0 DUP5 DUP2 MSTORE PUSH1 0x20 ADD SWAP1 DUP2 MSTORE PUSH1 0x20 ADD PUSH0 KECCAK256 PUSH0 CALLER PUSH20 0xFFFFFFFFFFFFFFFFFFFFFFFFFFFFFFFFFFFFFFFF AND PUSH20 0xFFFFFFFFFFFFFFFFFFFFFFFFFFFFFFFFFFFFFFFF AND DUP2 MSTORE PUSH1 0x20 ADD SWAP1 DUP2 MSTORE PUSH1 0x20 ADD PUSH0 KECCAK256 PUSH0 DUP3 DUP3 SLOAD PUSH2 0xB7D SWAP2 SWAP1 PUSH2 0x162F JUMP JUMPDEST SWAP3 POP POP DUP2 SWAP1 SSTORE POP PUSH32 0x2EEEAB891B26A214D1B25749F88A406BDEA852BD8C9BFDA977E0EF8114C180BA DUP3 CALLER DUP4 PUSH1 0x40 MLOAD PUSH2 0xBB7 SWAP4 SWAP3 SWAP2 SWAP1 PUSH2 0x128E JUMP JUMPDEST PUSH1 0x40 MLOAD DUP1 SWAP2 SUB SWAP1 LOG1 POP POP JUMP JUMPDEST PUSH1 0x2 PUSH1 0x20 MSTORE DUP2 PUSH0 MSTORE PUSH1 0x40 PUSH0 KECCAK256 PUSH1 0x20 MSTORE DUP1 PUSH0 MSTORE PUSH1 0x40 PUSH0 KECCAK256 PUSH0 SWAP2 POP SWAP2 POP POP SLOAD DUP2 JUMP JUMPDEST PUSH32 0x0 DUP2 JUMP JUMPDEST PUSH0 PUSH1 0x1 PUSH0 DUP5 DUP2 MSTORE PUSH1 0x20 ADD SWAP1 DUP2 MSTORE PUSH1 0x20 ADD PUSH0 KECCAK256 SWAP1 POP DUP1 PUSH1 0x3 ADD PUSH0 SWAP1 SLOAD SWAP1 PUSH2 0x100 EXP SWAP1 DIV PUSH4 0xFFFFFFFF AND PUSH4 0xFFFFFFFF AND TIMESTAMP LT ISZERO PUSH2 0xC77 JUMPI PUSH1 0x40 MLOAD PUSH32 0x8C379A000000000000000000000000000000000000000000000000000000000 DUP2 MSTORE PUSH1 0x4 ADD PUSH2 0xC6E SWAP1 PUSH2 0x16AC JUMP JUMPDEST PUSH1 0x40 MLOAD DUP1 SWAP2 SUB SWAP1 REVERT JUMPDEST DUP1 PUSH1 0x3 ADD PUSH1 0x4 SWAP1 SLOAD SWAP1 PUSH2 0x100 EXP SWAP1 DIV PUSH4 0xFFFFFFFF AND PUSH4 0xFFFFFFFF AND TIMESTAMP GT ISZERO PUSH2 0xCD4 JUMPI PUSH1 0x40 MLOAD PUSH32 0x8C379A000000000000000000000000000000000000000000000000000000000 DUP2 MSTORE PUSH1 0x4 ADD PUSH2 0xCCB SWAP1 PUSH2 0x1714 JUMP JUMPDEST PUSH1 0x40 MLOAD DUP1 SWAP2 SUB SWAP1 REVERT JUMPDEST PUSH32 0x0 PUSH20 0xFFFFFFFFFFFFFFFFFFFFFFFFFFFFFFFFFFFFFFFF AND PUSH4 0x23B872DD CALLER ADDRESS DUP6 PUSH1 0x40 MLOAD DUP5 PUSH4 0xFFFFFFFF AND PUSH1 0xE0 SHL DUP2 MSTORE PUSH1 0x4 ADD PUSH2 0xD31 SWAP4 SWAP3 SWAP2 SWAP1 PUSH2 0x1732 JUMP JUMPDEST PUSH1 0x20 PUSH1 0x40 MLOAD DUP1 DUP4 SUB DUP2 PUSH0 DUP8 GAS CALL ISZERO DUP1 ISZERO PUSH2 0xD4D JUMPI RETURNDATASIZE PUSH0 DUP1 RETURNDATACOPY RETURNDATASIZE PUSH0 REVERT JUMPDEST POP POP POP POP PUSH1 0x40 MLOAD RETURNDATASIZE PUSH1 0x1F NOT PUSH1 0x1F DUP3 ADD AND DUP3 ADD DUP1 PUSH1 0x40 MSTORE POP DUP2 ADD SWAP1 PUSH2 0xD71 SWAP2 SWAP1 PUSH2 0x1263 JUMP JUMPDEST POP DUP2 PUSH1 0x1 PUSH0 DUP6 DUP2 MSTORE PUSH1 0x20 ADD SWAP1 DUP2 MSTORE PUSH1 0x20 ADD PUSH0 KECCAK256 PUSH1 0x2 ADD PUSH0 DUP3 DUP3 SLOAD PUSH2 0xD95 SWAP2 SWAP1 PUSH2 0x1767 JUMP JUMPDEST SWAP3 POP POP DUP2 SWAP1 SSTORE POP DUP2 PUSH1 0x2 PUSH0 DUP6 DUP2 MSTORE PUSH1 0x20 ADD SWAP1 DUP2 MSTORE PUSH1 0x20 ADD PUSH0 KECCAK256 PUSH0 CALLER PUSH20 0xFFFFFFFFFFFFFFFFFFFFFFFFFFFFFFFFFFFFFFFF AND PUSH20 0xFFFFFFFFFFFFFFFFFFFFFFFFFFFFFFFFFFFFFFFF AND DUP2 MSTORE PUSH1 0x20 ADD SWAP1 DUP2 MSTORE PUSH1 0x20 ADD PUSH0 KECCAK256 PUSH0 DUP3 DUP3 SLOAD PUSH2 0xDF7 SWAP2 SWAP1 PUSH2 0x1767 JUMP JUMPDEST SWAP3 POP POP DUP2 SWAP1 SSTORE POP PUSH32 0x6BDB975DF800A73232998E71ED585D536222F1DFEAA622D7F62A23ADA686C82 DUP4 CALLER DUP5 PUSH1 0x40 MLOAD PUSH2 0xE31 SWAP4 SWAP3 SWAP2 SWAP1 PUSH2 0x128E JUMP JUMPDEST PUSH1 0x40 MLOAD DUP1 SWAP2 SUB SWAP1 LOG1 POP POP POP JUMP JUMPDEST PUSH0 DUP2 SWAP1 POP SWAP2 SWAP1 POP JUMP JUMPDEST PUSH2 0xE50 DUP2 PUSH2 0xE3E JUMP JUMPDEST DUP3 MSTORE POP POP JUMP JUMPDEST PUSH0 PUSH1 0x20 DUP3 ADD SWAP1 POP PUSH2 0xE69 PUSH0 DUP4 ADD DUP5 PUSH2 0xE47 JUMP JUMPDEST SWAP3 SWAP2 POP POP JUMP JUMPDEST PUSH0 DUP1 REVERT JUMPDEST PUSH2 0xE7C DUP2 PUSH2 0xE3E JUMP JUMPDEST DUP2 EQ PUSH2 0xE86 JUMPI PUSH0 DUP1 REVERT JUMPDEST POP JUMP JUMPDEST PUSH0 DUP2 CALLDATALOAD SWAP1 POP PUSH2 0xE97 DUP2 PUSH2 0xE73 JUMP JUMPDEST SWAP3 SWAP2 POP POP JUMP JUMPDEST PUSH0 PUSH1 0x20 DUP3 DUP5 SUB SLT ISZERO PUSH2 0xEB2 JUMPI PUSH2 0xEB1 PUSH2 0xE6F JUMP JUMPDEST JUMPDEST PUSH0 PUSH2 0xEBF DUP5 DUP3 DUP6 ADD PUSH2 0xE89 JUMP JUMPDEST SWAP2 POP POP SWAP3 SWAP2 POP POP JUMP JUMPDEST PUSH0 PUSH20 0xFFFFFFFFFFFFFFFFFFFFFFFFFFFFFFFFFFFFFFFF DUP3 AND SWAP1 POP SWAP2 SWAP1 POP JUMP JUMPDEST PUSH0 PUSH2 0xEF1 DUP3 PUSH2 0xEC8 JUMP JUMPDEST SWAP1 POP SWAP2 SWAP1 POP JUMP JUMPDEST PUSH2 0xF01 DUP2 PUSH2 0xEE7 JUMP JUMPDEST DUP3 MSTORE POP POP JUMP JUMPDEST PUSH0 PUSH4 0xFFFFFFFF DUP3 AND SWAP1 POP SWAP2 SWAP1 POP JUMP JUMPDEST PUSH2 0xF1F DUP2 PUSH2 0xF07 JUMP JUMPDEST DUP3 MSTORE POP POP JUMP JUMPDEST PUSH0 DUP2 ISZERO ISZERO SWAP1 POP SWAP2 SWAP1 POP JUMP JUMPDEST PUSH2 0xF39 DUP2 PUSH2 0xF25 JUMP JUMPDEST DUP3 MSTORE POP POP JUMP JUMPDEST PUSH0 PUSH1 0xC0 DUP3 ADD SWAP1 POP PUSH2 0xF52 PUSH0 DUP4 ADD DUP10 PUSH2 0xEF8 JUMP JUMPDEST PUSH2 0xF5F PUSH1 0x20 DUP4 ADD DUP9 PUSH2 0xE47 JUMP JUMPDEST PUSH2 0xF6C PUSH1 0x40 DUP4 ADD DUP8 PUSH2 0xE47 JUMP JUMPDEST PUSH2 0xF79 PUSH1 0x60 DUP4 ADD DUP7 PUSH2 0xF16 JUMP JUMPDEST PUSH2 0xF86 PUSH1 0x80 DUP4 ADD DUP6 PUSH2 0xF16 JUMP JUMPDEST PUSH2 0xF93 PUSH1 0xA0 DUP4 ADD DUP5 PUSH2 0xF30 JUMP JUMPDEST SWAP8 SWAP7 POP POP POP POP POP POP POP JUMP JUMPDEST PUSH2 0xFA7 DUP2 PUSH2 0xF07 JUMP JUMPDEST DUP2 EQ PUSH2 0xFB1 JUMPI PUSH0 DUP1 REVERT JUMPDEST POP JUMP JUMPDEST PUSH0 DUP2 CALLDATALOAD SWAP1 POP PUSH2 0xFC2 DUP2 PUSH2 0xF9E JUMP JUMPDEST SWAP3 SWAP2 POP POP JUMP JUMPDEST PUSH0 DUP1 PUSH0 PUSH1 0x60 DUP5 DUP7 SUB SLT ISZERO PUSH2 0xFDF JUMPI PUSH2 0xFDE PUSH2 0xE6F JUMP JUMPDEST JUMPDEST PUSH0 PUSH2 0xFEC DUP7 DUP3 DUP8 ADD PUSH2 0xE89 JUMP JUMPDEST SWAP4 POP POP PUSH1 0x20 PUSH2 0xFFD DUP7 DUP3 DUP8 ADD PUSH2 0xFB4 JUMP JUMPDEST SWAP3 POP POP PUSH1 0x40 PUSH2 0x100E DUP7 DUP3 DUP8 ADD PUSH2 0xFB4 JUMP JUMPDEST SWAP2 POP POP SWAP3 POP SWAP3 POP SWAP3 JUMP JUMPDEST PUSH0 DUP1 PUSH1 0x40 DUP4 DUP6 SUB SLT ISZERO PUSH2 0x102E JUMPI PUSH2 0x102D PUSH2 0xE6F JUMP JUMPDEST JUMPDEST PUSH0 PUSH2 0x103B DUP6 DUP3 DUP7 ADD PUSH2 0xE89 JUMP JUMPDEST SWAP3 POP POP PUSH1 0x20 PUSH2 0x104C DUP6 DUP3 DUP7 ADD PUSH2 0xE89 JUMP JUMPDEST SWAP2 POP POP SWAP3 POP SWAP3 SWAP1 POP JUMP JUMPDEST PUSH2 0x105F DUP2 PUSH2 0xEE7 JUMP JUMPDEST DUP2 EQ PUSH2 0x1069 JUMPI PUSH0 DUP1 REVERT JUMPDEST POP JUMP JUMPDEST PUSH0 DUP2 CALLDATALOAD SWAP1 POP PUSH2 0x107A DUP2 PUSH2 0x1056 JUMP JUMPDEST SWAP3 SWAP2 POP POP JUMP JUMPDEST PUSH0 DUP1 PUSH1 0x40 DUP4 DUP6 SUB SLT ISZERO PUSH2 0x1096 JUMPI PUSH2 0x1095 PUSH2 0xE6F JUMP JUMPDEST JUMPDEST PUSH0 PUSH2 0x10A3 DUP6 DUP3 DUP7 ADD PUSH2 0xE89 JUMP JUMPDEST SWAP3 POP POP PUSH1 0x20 PUSH2 0x10B4 DUP6 DUP3 DUP7 ADD PUSH2 0x106C JUMP JUMPDEST SWAP2 POP POP SWAP3 POP SWAP3 SWAP1 POP JUMP JUMPDEST PUSH0 DUP2 SWAP1 POP SWAP2 SWAP1 POP JUMP JUMPDEST PUSH0 PUSH2 0x10E1 PUSH2 0x10DC PUSH2 0x10D7 DUP5 PUSH2 0xEC8 JUMP JUMPDEST PUSH2 0x10BE JUMP JUMPDEST PUSH2 0xEC8 JUMP JUMPDEST SWAP1 POP SWAP2 SWAP1 POP JUMP JUMPDEST PUSH0 PUSH2 0x10F2 DUP3 PUSH2 0x10C7 JUMP JUMPDEST SWAP1 POP SWAP2 SWAP1 POP JUMP JUMPDEST PUSH0 PUSH2 0x1103 DUP3 PUSH2 0x10E8 JUMP JUMPDEST SWAP1 POP SWAP2 SWAP1 POP JUMP JUMPDEST PUSH2 0x1113 DUP2 PUSH2 0x10F9 JUMP JUMPDEST DUP3 MSTORE POP POP JUMP JUMPDEST PUSH0 PUSH1 0x20 DUP3 ADD SWAP1 POP PUSH2 0x112C PUSH0 DUP4 ADD DUP5 PUSH2 0x110A JUMP JUMPDEST SWAP3 SWAP2 POP POP JUMP JUMPDEST PUSH0 DUP3 DUP3 MSTORE PUSH1 0x20 DUP3 ADD SWAP1 POP SWAP3 SWAP2 POP POP JUMP JUMPDEST PUSH32 0x6E6F7420656E6465640000000000000000000000000000000000000000000000 PUSH0 DUP3 ADD MSTORE POP JUMP JUMPDEST PUSH0 PUSH2 0x1176 PUSH1 0x9 DUP4 PUSH2 0x1132 JUMP JUMPDEST SWAP2 POP PUSH2 0x1181 DUP3 PUSH2 0x1142 JUMP JUMPDEST PUSH1 0x20 DUP3 ADD SWAP1 POP SWAP2 SWAP1 POP JUMP JUMPDEST PUSH0 PUSH1 0x20 DUP3 ADD SWAP1 POP DUP2 DUP2 SUB PUSH0 DUP4 ADD MSTORE PUSH2 0x11A3 DUP2 PUSH2 0x116A JUMP JUMPDEST SWAP1 POP SWAP2 SWAP1 POP JUMP JUMPDEST PUSH32 0x706C6564676564203E3D20676F616C0000000000000000000000000000000000 PUSH0 DUP3 ADD MSTORE POP JUMP JUMPDEST PUSH0 PUSH2 0x11DE PUSH1 0xF DUP4 PUSH2 0x1132 JUMP JUMPDEST SWAP2 POP PUSH2 0x11E9 DUP3 PUSH2 0x11AA JUMP JUMPDEST PUSH1 0x20 DUP3 ADD SWAP1 POP SWAP2 SWAP1 POP JUMP JUMPDEST PUSH0 PUSH1 0x20 DUP3 ADD SWAP1 POP DUP2 DUP2 SUB PUSH0 DUP4 ADD MSTORE PUSH2 0x120B DUP2 PUSH2 0x11D2 JUMP JUMPDEST SWAP1 POP SWAP2 SWAP1 POP JUMP JUMPDEST PUSH0 PUSH1 0x40 DUP3 ADD SWAP1 POP PUSH2 0x1225 PUSH0 DUP4 ADD DUP6 PUSH2 0xEF8 JUMP JUMPDEST PUSH2 0x1232 PUSH1 0x20 DUP4 ADD DUP5 PUSH2 0xE47 JUMP JUMPDEST SWAP4 SWAP3 POP POP POP JUMP JUMPDEST PUSH2 0x1242 DUP2 PUSH2 0xF25 JUMP JUMPDEST DUP2 EQ PUSH2 0x124C JUMPI PUSH0 DUP1 REVERT JUMPDEST POP JUMP JUMPDEST PUSH0 DUP2 MLOAD SWAP1 POP PUSH2 0x125D DUP2 PUSH2 0x1239 JUMP JUMPDEST SWAP3 SWAP2 POP POP JUMP JUMPDEST PUSH0 PUSH1 0x20 DUP3 DUP5 SUB SLT ISZERO PUSH2 0x1278 JUMPI PUSH2 0x1277 PUSH2 0xE6F JUMP JUMPDEST JUMPDEST PUSH0 PUSH2 0x1285 DUP5 DUP3 DUP6 ADD PUSH2 0x124F JUMP JUMPDEST SWAP2 POP POP SWAP3 SWAP2 POP POP JUMP JUMPDEST PUSH0 PUSH1 0x60 DUP3 ADD SWAP1 POP PUSH2 0x12A1 PUSH0 DUP4 ADD DUP7 PUSH2 0xE47 JUMP JUMPDEST PUSH2 0x12AE PUSH1 0x20 DUP4 ADD DUP6 PUSH2 0xEF8 JUMP JUMPDEST PUSH2 0x12BB PUSH1 0x40 DUP4 ADD DUP5 PUSH2 0xE47 JUMP JUMPDEST SWAP5 SWAP4 POP POP POP POP JUMP JUMPDEST PUSH32 0x7374617274206174203C206E6F77000000000000000000000000000000000000 PUSH0 DUP3 ADD MSTORE POP JUMP JUMPDEST PUSH0 PUSH2 0x12F7 PUSH1 0xE DUP4 PUSH2 0x1132 JUMP JUMPDEST SWAP2 POP PUSH2 0x1302 DUP3 PUSH2 0x12C3 JUMP JUMPDEST PUSH1 0x20 DUP3 ADD SWAP1 POP SWAP2 SWAP1 POP JUMP JUMPDEST PUSH0 PUSH1 0x20 DUP3 ADD SWAP1 POP DUP2 DUP2 SUB PUSH0 DUP4 ADD MSTORE PUSH2 0x1324 DUP2 PUSH2 0x12EB JUMP JUMPDEST SWAP1 POP SWAP2 SWAP1 POP JUMP JUMPDEST PUSH32 0x656E64206174203C207374617274206174000000000000000000000000000000 PUSH0 DUP3 ADD MSTORE POP JUMP JUMPDEST PUSH0 PUSH2 0x135F PUSH1 0x11 DUP4 PUSH2 0x1132 JUMP JUMPDEST SWAP2 POP PUSH2 0x136A DUP3 PUSH2 0x132B JUMP JUMPDEST PUSH1 0x20 DUP3 ADD SWAP1 POP SWAP2 SWAP1 POP JUMP JUMPDEST PUSH0 PUSH1 0x20 DUP3 ADD SWAP1 POP DUP2 DUP2 SUB PUSH0 DUP4 ADD MSTORE PUSH2 0x138C DUP2 PUSH2 0x1353 JUMP JUMPDEST SWAP1 POP SWAP2 SWAP1 POP JUMP JUMPDEST PUSH32 0x4E487B7100000000000000000000000000000000000000000000000000000000 PUSH0 MSTORE PUSH1 0x11 PUSH1 0x4 MSTORE PUSH1 0x24 PUSH0 REVERT JUMPDEST PUSH0 PUSH2 0x13CA DUP3 PUSH2 0xF07 JUMP JUMPDEST SWAP2 POP PUSH2 0x13D5 DUP4 PUSH2 0xF07 JUMP JUMPDEST SWAP3 POP DUP3 DUP3 ADD SWAP1 POP PUSH4 0xFFFFFFFF DUP2 GT ISZERO PUSH2 0x13F1 JUMPI PUSH2 0x13F0 PUSH2 0x1393 JUMP JUMPDEST JUMPDEST SWAP3 SWAP2 POP POP JUMP JUMPDEST PUSH32 0x656E64206174203E206D6178206475726174696F6E0000000000000000000000 PUSH0 DUP3 ADD MSTORE POP JUMP JUMPDEST PUSH0 PUSH2 0x142B PUSH1 0x15 DUP4 PUSH2 0x1132 JUMP JUMPDEST SWAP2 POP PUSH2 0x1436 DUP3 PUSH2 0x13F7 JUMP JUMPDEST PUSH1 0x20 DUP3 ADD SWAP1 POP SWAP2 SWAP1 POP JUMP JUMPDEST PUSH0 PUSH1 0x20 DUP3 ADD SWAP1 POP DUP2 DUP2 SUB PUSH0 DUP4 ADD MSTORE PUSH2 0x1458 DUP2 PUSH2 0x141F JUMP JUMPDEST SWAP1 POP SWAP2 SWAP1 POP JUMP JUMPDEST PUSH0 PUSH2 0x1469 DUP3 PUSH2 0xE3E JUMP JUMPDEST SWAP2 POP PUSH32 0xFFFFFFFFFFFFFFFFFFFFFFFFFFFFFFFFFFFFFFFFFFFFFFFFFFFFFFFFFFFFFFFF DUP3 SUB PUSH2 0x149B JUMPI PUSH2 0x149A PUSH2 0x1393 JUMP JUMPDEST JUMPDEST PUSH1 0x1 DUP3 ADD SWAP1 POP SWAP2 SWAP1 POP JUMP JUMPDEST PUSH0 PUSH1 0xA0 DUP3 ADD SWAP1 POP PUSH2 0x14B9 PUSH0 DUP4 ADD DUP9 PUSH2 0xE47 JUMP JUMPDEST PUSH2 0x14C6 PUSH1 0x20 DUP4 ADD DUP8 PUSH2 0xEF8 JUMP JUMPDEST PUSH2 0x14D3 PUSH1 0x40 DUP4 ADD DUP7 PUSH2 0xE47 JUMP JUMPDEST PUSH2 0x14E0 PUSH1 0x60 DUP4 ADD DUP6 PUSH2 0xF16 JUMP JUMPDEST PUSH2 0x14ED PUSH1 0x80 DUP4 ADD DUP5 PUSH2 0xF16 JUMP JUMPDEST SWAP7 SWAP6 POP POP POP POP POP POP JUMP JUMPDEST PUSH32 0x6E6F742063726561746F72000000000000000000000000000000000000000000 PUSH0 DUP3 ADD MSTORE POP JUMP JUMPDEST PUSH0 PUSH2 0x152B PUSH1 0xB DUP4 PUSH2 0x1132 JUMP JUMPDEST SWAP2 POP PUSH2 0x1536 DUP3 PUSH2 0x14F7 JUMP JUMPDEST PUSH1 0x20 DUP3 ADD SWAP1 POP SWAP2 SWAP1 POP JUMP JUMPDEST PUSH0 PUSH1 0x20 DUP3 ADD SWAP1 POP DUP2 DUP2 SUB PUSH0 DUP4 ADD MSTORE PUSH2 0x1558 DUP2 PUSH2 0x151F JUMP JUMPDEST SWAP1 POP SWAP2 SWAP1 POP JUMP JUMPDEST PUSH32 0x706C6564676564203C20676F616C000000000000000000000000000000000000 PUSH0 DUP3 ADD MSTORE POP JUMP JUMPDEST PUSH0 PUSH2 0x1593 PUSH1 0xE DUP4 PUSH2 0x1132 JUMP JUMPDEST SWAP2 POP PUSH2 0x159E DUP3 PUSH2 0x155F JUMP JUMPDEST PUSH1 0x20 DUP3 ADD SWAP1 POP SWAP2 SWAP1 POP JUMP JUMPDEST PUSH0 PUSH1 0x20 DUP3 ADD SWAP1 POP DUP2 DUP2 SUB PUSH0 DUP4 ADD MSTORE PUSH2 0x15C0 DUP2 PUSH2 0x1587 JUMP JUMPDEST SWAP1 POP SWAP2 SWAP1 POP JUMP JUMPDEST PUSH32 0x636C61696D656400000000000000000000000000000000000000000000000000 PUSH0 DUP3 ADD MSTORE POP JUMP JUMPDEST PUSH0 PUSH2 0x15FB PUSH1 0x7 DUP4 PUSH2 0x1132 JUMP JUMPDEST SWAP2 POP PUSH2 0x1606 DUP3 PUSH2 0x15C7 JUMP JUMPDEST PUSH1 0x20 DUP3 ADD SWAP1 POP SWAP2 SWAP1 POP JUMP JUMPDEST PUSH0 PUSH1 0x20 DUP3 ADD SWAP1 POP DUP2 DUP2 SUB PUSH0 DUP4 ADD MSTORE PUSH2 0x1628 DUP2 PUSH2 0x15EF JUMP JUMPDEST SWAP1 POP SWAP2 SWAP1 POP JUMP JUMPDEST PUSH0 PUSH2 0x1639 DUP3 PUSH2 0xE3E JUMP JUMPDEST SWAP2 POP PUSH2 0x1644 DUP4 PUSH2 0xE3E JUMP JUMPDEST SWAP3 POP DUP3 DUP3 SUB SWAP1 POP DUP2 DUP2 GT ISZERO PUSH2 0x165C JUMPI PUSH2 0x165B PUSH2 0x1393 JUMP JUMPDEST JUMPDEST SWAP3 SWAP2 POP POP JUMP JUMPDEST PUSH32 0x6E6F742073746172746564000000000000000000000000000000000000000000 PUSH0 DUP3 ADD MSTORE POP JUMP JUMPDEST PUSH0 PUSH2 0x1696 PUSH1 0xB DUP4 PUSH2 0x1132 JUMP JUMPDEST SWAP2 POP PUSH2 0x16A1 DUP3 PUSH2 0x1662 JUMP JUMPDEST PUSH1 0x20 DUP3 ADD SWAP1 POP SWAP2 SWAP1 POP JUMP JUMPDEST PUSH0 PUSH1 0x20 DUP3 ADD SWAP1 POP DUP2 DUP2 SUB PUSH0 DUP4 ADD MSTORE PUSH2 0x16C3 DUP2 PUSH2 0x168A JUMP JUMPDEST SWAP1 POP SWAP2 SWAP1 POP JUMP JUMPDEST PUSH32 0x656E646564000000000000000000000000000000000000000000000000000000 PUSH0 DUP3 ADD MSTORE POP JUMP JUMPDEST PUSH0 PUSH2 0x16FE PUSH1 0x5 DUP4 PUSH2 0x1132 JUMP JUMPDEST SWAP2 POP PUSH2 0x1709 DUP3 PUSH2 0x16CA JUMP JUMPDEST PUSH1 0x20 DUP3 ADD SWAP1 POP SWAP2 SWAP1 POP JUMP JUMPDEST PUSH0 PUSH1 0x20 DUP3 ADD SWAP1 POP DUP2 DUP2 SUB PUSH0 DUP4 ADD MSTORE PUSH2 0x172B DUP2 PUSH2 0x16F2 JUMP JUMPDEST SWAP1 POP SWAP2 SWAP1 POP JUMP JUMPDEST PUSH0 PUSH1 0x60 DUP3 ADD SWAP1 POP PUSH2 0x1745 PUSH0 DUP4 ADD DUP7 PUSH2 0xEF8 JUMP JUMPDEST PUSH2 0x1752 PUSH1 0x20 DUP4 ADD DUP6 PUSH2 0xEF8 JUMP JUMPDEST PUSH2 0x175F PUSH1 0x40 DUP4 ADD DUP5 PUSH2 0xE47 JUMP JUMPDEST SWAP5 SWAP4 POP POP POP POP JUMP JUMPDEST PUSH0 PUSH2 0x1771 DUP3 PUSH2 0xE3E JUMP JUMPDEST SWAP2 POP PUSH2 0x177C DUP4 PUSH2 0xE3E JUMP JUMPDEST SWAP3 POP DUP3 DUP3 ADD SWAP1 POP DUP1 DUP3 GT ISZERO PUSH2 0x1794 JUMPI PUSH2 0x1793 PUSH2 0x1393 JUMP JUMPDEST JUMPDEST SWAP3 SWAP2 POP POP JUMP INVALID LOG2 PUSH5 0x6970667358 0x22 SLT KECCAK256 0xDF 0xA9 SELFDESTRUCT TIMESTAMP SAR PUSH20 0x8097B541AC286BD25D3BB58FF4AF428901EC4BD4 0xE3 DUP2 0x4E ADD SELFDESTRUCT 0x23 PUSH5 0x736F6C6343 STOP ADDMOD ISZERO STOP CALLER "
				},
				"gasEstimates": {
					"creation": {
						"codeDepositCost": "1219200",
						"executionCost": "infinite",
						"totalCost": "infinite"
					},
					"external": {
						"campaigns(uint256)": "infinite",
						"claim(uint256)": "infinite",
						"count()": "2425",
						"get()": "331",
						"launch(uint256,uint32,uint32)": "infinite",
						"pledge(uint256,uint256)": "infinite",
						"pledgedAmount(uint256,address)": "infinite",
						"refund(uint256)": "infinite",
						"token()": "infinite",
						"unpledge(uint256,uint256)": "infinite"
					}
				},
				"methodIdentifiers": {
					"campaigns(uint256)": "141961bc",
					"claim(uint256)": "379607f5",
					"count()": "06661abd",
					"get()": "6d4ce63c",
					"launch(uint256,uint32,uint32)": "2c63f146",
					"pledge(uint256,uint256)": "fde327be",
					"pledgedAmount(uint256,address)": "aa4fb63a",
					"refund(uint256)": "278ecde1",
					"token()": "fc0c546a",
					"unpledge(uint256,uint256)": "711853ab"
				}
			},
			"storageLayout": {
				"storage": [
					{
						"astId": 40,
						"contract": "Defi/defi-theory/contracts/003_CrowdFund.sol:CrowdFund",
						"label": "count",
						"offset": 0,
						"slot": "0",
						"type": "t_uint256"
					},
					{
						"astId": 45,
						"contract": "Defi/defi-theory/contracts/003_CrowdFund.sol:CrowdFund",
						"label": "campaigns",
						"offset": 0,
						"slot": "1",
						"type": "t_mapping(t_uint256,t_struct(Campaign)35_storage)"
					},
					{
						"astId": 51,
						"contract": "Defi/defi-theory/contracts/003_CrowdFund.sol:CrowdFund",
						"label": "pledgedAmount",
						"offset": 0,
						"slot": "2",
						"type": "t_mapping(t_uint256,t_mapping(t_address,t_uint256))"
					}
				],
				"types": {
					"t_address": {
						"encoding": "inplace",
						"label": "address",
						"numberOfBytes": "20"
					},
					"t_bool": {
						"encoding": "inplace",
						"label": "bool",
						"numberOfBytes": "1"
					},
					"t_mapping(t_address,t_uint256)": {
						"encoding": "mapping",
						"key": "t_address",
						"label": "mapping(address => uint256)",
						"numberOfBytes": "32",
						"value": "t_uint256"
					},
					"t_mapping(t_uint256,t_mapping(t_address,t_uint256))": {
						"encoding": "mapping",
						"key": "t_uint256",
						"label": "mapping(uint256 => mapping(address => uint256))",
						"numberOfBytes": "32",
						"value": "t_mapping(t_address,t_uint256)"
					},
					"t_mapping(t_uint256,t_struct(Campaign)35_storage)": {
						"encoding": "mapping",
						"key": "t_uint256",
						"label": "mapping(uint256 => struct CrowdFund.Campaign)",
						"numberOfBytes": "32",
						"value": "t_struct(Campaign)35_storage"
					},
					"t_struct(Campaign)35_storage": {
						"encoding": "inplace",
						"label": "struct CrowdFund.Campaign",
						"members": [
							{
								"astId": 24,
								"contract": "Defi/defi-theory/contracts/003_CrowdFund.sol:CrowdFund",
								"label": "creator",
								"offset": 0,
								"slot": "0",
								"type": "t_address"
							},
							{
								"astId": 26,
								"contract": "Defi/defi-theory/contracts/003_CrowdFund.sol:CrowdFund",
								"label": "goal",
								"offset": 0,
								"slot": "1",
								"type": "t_uint256"
							},
							{
								"astId": 28,
								"contract": "Defi/defi-theory/contracts/003_CrowdFund.sol:CrowdFund",
								"label": "pledged",
								"offset": 0,
								"slot": "2",
								"type": "t_uint256"
							},
							{
								"astId": 30,
								"contract": "Defi/defi-theory/contracts/003_CrowdFund.sol:CrowdFund",
								"label": "startAt",
								"offset": 0,
								"slot": "3",
								"type": "t_uint32"
							},
							{
								"astId": 32,
								"contract": "Defi/defi-theory/contracts/003_CrowdFund.sol:CrowdFund",
								"label": "endAt",
								"offset": 4,
								"slot": "3",
								"type": "t_uint32"
							},
							{
								"astId": 34,
								"contract": "Defi/defi-theory/contracts/003_CrowdFund.sol:CrowdFund",
								"label": "claimed",
								"offset": 8,
								"slot": "3",
								"type": "t_bool"
							}
						],
						"numberOfBytes": "128"
					},
					"t_uint256": {
						"encoding": "inplace",
						"label": "uint256",
						"numberOfBytes": "32"
					},
					"t_uint32": {
						"encoding": "inplace",
						"label": "uint32",
						"numberOfBytes": "4"
					}
				}
			},
			"userdoc": {
				"kind": "user",
				"methods": {},
				"version": 1
			}
		}
	}
}