{
	"Defi/defi-theory/contracts/004_Vote.sol": {
		"Poll": {
			"abi": [
				{
					"inputs": [
						{
							"internalType": "uint8",
							"name": "_candidates",
							"type": "uint8"
						},
						{
							"internalType": "uint256",
							"name": "_turnout",
							"type": "uint256"
						},
						{
							"internalType": "uint256",
							"name": "_duration",
							"type": "uint256"
						},
						{
							"internalType": "address",
							"name": "initialOwner",
							"type": "address"
						}
					],
					"stateMutability": "nonpayable",
					"type": "constructor"
				},
				{
					"inputs": [
						{
							"internalType": "address",
							"name": "owner",
							"type": "address"
						}
					],
					"name": "OwnableInvalidOwner",
					"type": "error"
				},
				{
					"inputs": [
						{
							"internalType": "address",
							"name": "account",
							"type": "address"
						}
					],
					"name": "OwnableUnauthorizedAccount",
					"type": "error"
				},
				{
					"anonymous": false,
					"inputs": [],
					"name": "Ended",
					"type": "event"
				},
				{
					"anonymous": false,
					"inputs": [
						{
							"indexed": true,
							"internalType": "address",
							"name": "previousOwner",
							"type": "address"
						},
						{
							"indexed": true,
							"internalType": "address",
							"name": "newOwner",
							"type": "address"
						}
					],
					"name": "OwnershipTransferred",
					"type": "event"
				},
				{
					"anonymous": false,
					"inputs": [],
					"name": "Started",
					"type": "event"
				},
				{
					"inputs": [],
					"name": "candidates",
					"outputs": [
						{
							"internalType": "uint8",
							"name": "",
							"type": "uint8"
						}
					],
					"stateMutability": "view",
					"type": "function"
				},
				{
					"inputs": [],
					"name": "duration",
					"outputs": [
						{
							"internalType": "uint256",
							"name": "",
							"type": "uint256"
						}
					],
					"stateMutability": "view",
					"type": "function"
				},
				{
					"inputs": [],
					"name": "end",
					"outputs": [],
					"stateMutability": "nonpayable",
					"type": "function"
				},
				{
					"inputs": [],
					"name": "endTime",
					"outputs": [
						{
							"internalType": "uint256",
							"name": "",
							"type": "uint256"
						}
					],
					"stateMutability": "view",
					"type": "function"
				},
				{
					"inputs": [],
					"name": "ended",
					"outputs": [
						{
							"internalType": "bool",
							"name": "",
							"type": "bool"
						}
					],
					"stateMutability": "view",
					"type": "function"
				},
				{
					"inputs": [],
					"name": "getResult",
					"outputs": [
						{
							"internalType": "uint8",
							"name": "",
							"type": "uint8"
						}
					],
					"stateMutability": "view",
					"type": "function"
				},
				{
					"inputs": [],
					"name": "getTime",
					"outputs": [
						{
							"internalType": "uint256",
							"name": "",
							"type": "uint256"
						}
					],
					"stateMutability": "view",
					"type": "function"
				},
				{
					"inputs": [],
					"name": "highestCandidate",
					"outputs": [
						{
							"internalType": "uint8",
							"name": "",
							"type": "uint8"
						}
					],
					"stateMutability": "view",
					"type": "function"
				},
				{
					"inputs": [],
					"name": "highestScore",
					"outputs": [
						{
							"internalType": "uint256",
							"name": "",
							"type": "uint256"
						}
					],
					"stateMutability": "view",
					"type": "function"
				},
				{
					"inputs": [],
					"name": "owner",
					"outputs": [
						{
							"internalType": "address",
							"name": "",
							"type": "address"
						}
					],
					"stateMutability": "view",
					"type": "function"
				},
				{
					"inputs": [],
					"name": "renounceOwnership",
					"outputs": [],
					"stateMutability": "nonpayable",
					"type": "function"
				},
				{
					"inputs": [],
					"name": "start",
					"outputs": [],
					"stateMutability": "nonpayable",
					"type": "function"
				},
				{
					"inputs": [],
					"name": "started",
					"outputs": [
						{
							"internalType": "bool",
							"name": "",
							"type": "bool"
						}
					],
					"stateMutability": "view",
					"type": "function"
				},
				{
					"inputs": [
						{
							"internalType": "address",
							"name": "newOwner",
							"type": "address"
						}
					],
					"name": "transferOwnership",
					"outputs": [],
					"stateMutability": "nonpayable",
					"type": "function"
				},
				{
					"inputs": [],
					"name": "turnout",
					"outputs": [
						{
							"internalType": "uint256",
							"name": "",
							"type": "uint256"
						}
					],
					"stateMutability": "view",
					"type": "function"
				},
				{
					"inputs": [
						{
							"internalType": "uint8",
							"name": "candidateIndex",
							"type": "uint8"
						}
					],
					"name": "vote",
					"outputs": [],
					"stateMutability": "nonpayable",
					"type": "function"
				},
				{
					"inputs": [
						{
							"internalType": "address",
							"name": "",
							"type": "address"
						}
					],
					"name": "votedMap",
					"outputs": [
						{
							"internalType": "uint8",
							"name": "",
							"type": "uint8"
						}
					],
					"stateMutability": "view",
					"type": "function"
				},
				{
					"inputs": [],
					"name": "votedNum",
					"outputs": [
						{
							"internalType": "uint256",
							"name": "",
							"type": "uint256"
						}
					],
					"stateMutability": "view",
					"type": "function"
				}
			],
			"devdoc": {
				"errors": {
					"OwnableInvalidOwner(address)": [
						{
							"details": "The owner is not a valid owner account. (eg. `address(0)`)"
						}
					],
					"OwnableUnauthorizedAccount(address)": [
						{
							"details": "The caller account is not authorized to perform an operation."
						}
					]
				},
				"kind": "dev",
				"methods": {
					"owner()": {
						"details": "Returns the address of the current owner."
					},
					"renounceOwnership()": {
						"details": "Leaves the contract without owner. It will not be possible to call `onlyOwner` functions. Can only be called by the current owner. NOTE: Renouncing ownership will leave the contract without an owner, thereby disabling any functionality that is only available to the owner."
					},
					"transferOwnership(address)": {
						"details": "Transfers ownership of the contract to a new account (`newOwner`). Can only be called by the current owner."
					}
				},
				"version": 1
			},
			"evm": {
				"assembly": "    /* \"Defi/defi-theory/contracts/004_Vote.sol\":115:2087  contract Poll is Ownable {... */\n  mstore(0x40, 0x80)\n    /* \"Defi/defi-theory/contracts/004_Vote.sol\":734:938  constructor(uint8 _candidates, uint _turnout, uint _duration,address initialOwner) Ownable(initialOwner) {... */\n  callvalue\n  dup1\n  iszero\n  tag_1\n  jumpi\n  0x00\n  dup1\n  revert\ntag_1:\n  pop\n  mload(0x40)\n  sub(codesize, bytecodeSize)\n  dup1\n  bytecodeSize\n  dup4\n  codecopy\n  dup2\n  dup2\n  add\n  0x40\n  mstore\n  dup2\n  add\n  swap1\n  tag_2\n  swap2\n  swap1\n  tag_3\n  jump\t// in\ntag_2:\n    /* \"Defi/defi-theory/contracts/004_Vote.sol\":825:837  initialOwner */\n  dup1\n    /* \"@openzeppelin/contracts/access/Ownable.sol\":1297:1298  0 */\n  0x00\n    /* \"@openzeppelin/contracts/access/Ownable.sol\":1273:1299  initialOwner == address(0) */\n  0xffffffffffffffffffffffffffffffffffffffff\n  and\n    /* \"@openzeppelin/contracts/access/Ownable.sol\":1273:1285  initialOwner */\n  dup2\n    /* \"@openzeppelin/contracts/access/Ownable.sol\":1273:1299  initialOwner == address(0) */\n  0xffffffffffffffffffffffffffffffffffffffff\n  and\n  sub\n    /* \"@openzeppelin/contracts/access/Ownable.sol\":1269:1364  if (initialOwner == address(0)) {... */\n  tag_7\n  jumpi\n    /* \"@openzeppelin/contracts/access/Ownable.sol\":1350:1351  0 */\n  0x00\n    /* \"@openzeppelin/contracts/access/Ownable.sol\":1322:1353  OwnableInvalidOwner(address(0)) */\n  mload(0x40)\n  0x1e4fbdf700000000000000000000000000000000000000000000000000000000\n  dup2\n  mstore\n  0x04\n  add\n  tag_8\n  swap2\n  swap1\n  tag_9\n  jump\t// in\ntag_8:\n  mload(0x40)\n  dup1\n  swap2\n  sub\n  swap1\n  revert\n    /* \"@openzeppelin/contracts/access/Ownable.sol\":1269:1364  if (initialOwner == address(0)) {... */\ntag_7:\n    /* \"@openzeppelin/contracts/access/Ownable.sol\":1373:1405  _transferOwnership(initialOwner) */\n  tag_10\n    /* \"@openzeppelin/contracts/access/Ownable.sol\":1392:1404  initialOwner */\n  dup2\n    /* \"@openzeppelin/contracts/access/Ownable.sol\":1373:1391  _transferOwnership */\n  shl(0x20, tag_11)\n    /* \"@openzeppelin/contracts/access/Ownable.sol\":1373:1405  _transferOwnership(initialOwner) */\n  0x20\n  shr\n  jump\t// in\ntag_10:\n    /* \"@openzeppelin/contracts/access/Ownable.sol\":1225:1412  constructor(address initialOwner) {... */\n  pop\n    /* \"Defi/defi-theory/contracts/004_Vote.sol\":862:873  _candidates */\n  dup4\n    /* \"Defi/defi-theory/contracts/004_Vote.sol\":849:859  candidates */\n  0x00\n  0x14\n    /* \"Defi/defi-theory/contracts/004_Vote.sol\":849:873  candidates = _candidates */\n  0x0100\n  exp\n  dup2\n  sload\n  dup2\n  0xff\n  mul\n  not\n  and\n  swap1\n  dup4\n  0xff\n  and\n  mul\n  or\n  swap1\n  sstore\n  pop\n    /* \"Defi/defi-theory/contracts/004_Vote.sol\":893:901  _turnout */\n  dup3\n    /* \"Defi/defi-theory/contracts/004_Vote.sol\":883:890  turnout */\n  0x01\n    /* \"Defi/defi-theory/contracts/004_Vote.sol\":883:901  turnout = _turnout */\n  dup2\n  swap1\n  sstore\n  pop\n    /* \"Defi/defi-theory/contracts/004_Vote.sol\":922:931  _duration */\n  dup2\n    /* \"Defi/defi-theory/contracts/004_Vote.sol\":911:919  duration */\n  0x02\n    /* \"Defi/defi-theory/contracts/004_Vote.sol\":911:931  duration = _duration */\n  dup2\n  swap1\n  sstore\n  pop\n    /* \"Defi/defi-theory/contracts/004_Vote.sol\":734:938  constructor(uint8 _candidates, uint _turnout, uint _duration,address initialOwner) Ownable(initialOwner) {... */\n  pop\n  pop\n  pop\n  pop\n    /* \"Defi/defi-theory/contracts/004_Vote.sol\":115:2087  contract Poll is Ownable {... */\n  jump(tag_13)\n    /* \"@openzeppelin/contracts/access/Ownable.sol\":2912:3099  function _transferOwnership(address newOwner) internal virtual {... */\ntag_11:\n    /* \"@openzeppelin/contracts/access/Ownable.sol\":2985:3001  address oldOwner */\n  0x00\n    /* \"@openzeppelin/contracts/access/Ownable.sol\":3004:3010  _owner */\n  dup1\n  0x00\n  swap1\n  sload\n  swap1\n  0x0100\n  exp\n  swap1\n  div\n  0xffffffffffffffffffffffffffffffffffffffff\n  and\n    /* \"@openzeppelin/contracts/access/Ownable.sol\":2985:3010  address oldOwner = _owner */\n  swap1\n  pop\n    /* \"@openzeppelin/contracts/access/Ownable.sol\":3029:3037  newOwner */\n  dup2\n    /* \"@openzeppelin/contracts/access/Ownable.sol\":3020:3026  _owner */\n  0x00\n  dup1\n    /* \"@openzeppelin/contracts/access/Ownable.sol\":3020:3037  _owner = newOwner */\n  0x0100\n  exp\n  dup2\n  sload\n  dup2\n  0xffffffffffffffffffffffffffffffffffffffff\n  mul\n  not\n  and\n  swap1\n  dup4\n  0xffffffffffffffffffffffffffffffffffffffff\n  and\n  mul\n  or\n  swap1\n  sstore\n  pop\n    /* \"@openzeppelin/contracts/access/Ownable.sol\":3083:3091  newOwner */\n  dup2\n    /* \"@openzeppelin/contracts/access/Ownable.sol\":3052:3092  OwnershipTransferred(oldOwner, newOwner) */\n  0xffffffffffffffffffffffffffffffffffffffff\n  and\n    /* \"@openzeppelin/contracts/access/Ownable.sol\":3073:3081  oldOwner */\n  dup2\n    /* \"@openzeppelin/contracts/access/Ownable.sol\":3052:3092  OwnershipTransferred(oldOwner, newOwner) */\n  0xffffffffffffffffffffffffffffffffffffffff\n  and\n  0x8be0079c531659141344cd1fd0a4f28419497f9722a3daafe3b4186f6b6457e0\n  mload(0x40)\n  mload(0x40)\n  dup1\n  swap2\n  sub\n  swap1\n  log3\n    /* \"@openzeppelin/contracts/access/Ownable.sol\":2975:3099  {... */\n  pop\n    /* \"@openzeppelin/contracts/access/Ownable.sol\":2912:3099  function _transferOwnership(address newOwner) internal virtual {... */\n  pop\n  jump\t// out\n    /* \"#utility.yul\":88:205   */\ntag_16:\n    /* \"#utility.yul\":197:198   */\n  0x00\n    /* \"#utility.yul\":194:195   */\n  dup1\n    /* \"#utility.yul\":187:199   */\n  revert\n    /* \"#utility.yul\":334:420   */\ntag_18:\n    /* \"#utility.yul\":369:376   */\n  0x00\n    /* \"#utility.yul\":409:413   */\n  0xff\n    /* \"#utility.yul\":402:407   */\n  dup3\n    /* \"#utility.yul\":398:414   */\n  and\n    /* \"#utility.yul\":387:414   */\n  swap1\n  pop\n    /* \"#utility.yul\":334:420   */\n  swap2\n  swap1\n  pop\n  jump\t// out\n    /* \"#utility.yul\":426:544   */\ntag_19:\n    /* \"#utility.yul\":497:519   */\n  tag_35\n    /* \"#utility.yul\":513:518   */\n  dup2\n    /* \"#utility.yul\":497:519   */\n  tag_18\n  jump\t// in\ntag_35:\n    /* \"#utility.yul\":490:495   */\n  dup2\n    /* \"#utility.yul\":487:520   */\n  eq\n    /* \"#utility.yul\":477:538   */\n  tag_36\n  jumpi\n    /* \"#utility.yul\":534:535   */\n  0x00\n    /* \"#utility.yul\":531:532   */\n  dup1\n    /* \"#utility.yul\":524:536   */\n  revert\n    /* \"#utility.yul\":477:538   */\ntag_36:\n    /* \"#utility.yul\":426:544   */\n  pop\n  jump\t// out\n    /* \"#utility.yul\":550:689   */\ntag_20:\n    /* \"#utility.yul\":605:610   */\n  0x00\n    /* \"#utility.yul\":636:642   */\n  dup2\n    /* \"#utility.yul\":630:643   */\n  mload\n    /* \"#utility.yul\":621:643   */\n  swap1\n  pop\n    /* \"#utility.yul\":652:683   */\n  tag_38\n    /* \"#utility.yul\":677:682   */\n  dup2\n    /* \"#utility.yul\":652:683   */\n  tag_19\n  jump\t// in\ntag_38:\n    /* \"#utility.yul\":550:689   */\n  swap3\n  swap2\n  pop\n  pop\n  jump\t// out\n    /* \"#utility.yul\":695:772   */\ntag_21:\n    /* \"#utility.yul\":732:739   */\n  0x00\n    /* \"#utility.yul\":761:766   */\n  dup2\n    /* \"#utility.yul\":750:766   */\n  swap1\n  pop\n    /* \"#utility.yul\":695:772   */\n  swap2\n  swap1\n  pop\n  jump\t// out\n    /* \"#utility.yul\":778:900   */\ntag_22:\n    /* \"#utility.yul\":851:875   */\n  tag_41\n    /* \"#utility.yul\":869:874   */\n  dup2\n    /* \"#utility.yul\":851:875   */\n  tag_21\n  jump\t// in\ntag_41:\n    /* \"#utility.yul\":844:849   */\n  dup2\n    /* \"#utility.yul\":841:876   */\n  eq\n    /* \"#utility.yul\":831:894   */\n  tag_42\n  jumpi\n    /* \"#utility.yul\":890:891   */\n  0x00\n    /* \"#utility.yul\":887:888   */\n  dup1\n    /* \"#utility.yul\":880:892   */\n  revert\n    /* \"#utility.yul\":831:894   */\ntag_42:\n    /* \"#utility.yul\":778:900   */\n  pop\n  jump\t// out\n    /* \"#utility.yul\":906:1049   */\ntag_23:\n    /* \"#utility.yul\":963:968   */\n  0x00\n    /* \"#utility.yul\":994:1000   */\n  dup2\n    /* \"#utility.yul\":988:1001   */\n  mload\n    /* \"#utility.yul\":979:1001   */\n  swap1\n  pop\n    /* \"#utility.yul\":1010:1043   */\n  tag_44\n    /* \"#utility.yul\":1037:1042   */\n  dup2\n    /* \"#utility.yul\":1010:1043   */\n  tag_22\n  jump\t// in\ntag_44:\n    /* \"#utility.yul\":906:1049   */\n  swap3\n  swap2\n  pop\n  pop\n  jump\t// out\n    /* \"#utility.yul\":1055:1181   */\ntag_24:\n    /* \"#utility.yul\":1092:1099   */\n  0x00\n    /* \"#utility.yul\":1132:1174   */\n  0xffffffffffffffffffffffffffffffffffffffff\n    /* \"#utility.yul\":1125:1130   */\n  dup3\n    /* \"#utility.yul\":1121:1175   */\n  and\n    /* \"#utility.yul\":1110:1175   */\n  swap1\n  pop\n    /* \"#utility.yul\":1055:1181   */\n  swap2\n  swap1\n  pop\n  jump\t// out\n    /* \"#utility.yul\":1187:1283   */\ntag_25:\n    /* \"#utility.yul\":1224:1231   */\n  0x00\n    /* \"#utility.yul\":1253:1277   */\n  tag_47\n    /* \"#utility.yul\":1271:1276   */\n  dup3\n    /* \"#utility.yul\":1253:1277   */\n  tag_24\n  jump\t// in\ntag_47:\n    /* \"#utility.yul\":1242:1277   */\n  swap1\n  pop\n    /* \"#utility.yul\":1187:1283   */\n  swap2\n  swap1\n  pop\n  jump\t// out\n    /* \"#utility.yul\":1289:1411   */\ntag_26:\n    /* \"#utility.yul\":1362:1386   */\n  tag_49\n    /* \"#utility.yul\":1380:1385   */\n  dup2\n    /* \"#utility.yul\":1362:1386   */\n  tag_25\n  jump\t// in\ntag_49:\n    /* \"#utility.yul\":1355:1360   */\n  dup2\n    /* \"#utility.yul\":1352:1387   */\n  eq\n    /* \"#utility.yul\":1342:1405   */\n  tag_50\n  jumpi\n    /* \"#utility.yul\":1401:1402   */\n  0x00\n    /* \"#utility.yul\":1398:1399   */\n  dup1\n    /* \"#utility.yul\":1391:1403   */\n  revert\n    /* \"#utility.yul\":1342:1405   */\ntag_50:\n    /* \"#utility.yul\":1289:1411   */\n  pop\n  jump\t// out\n    /* \"#utility.yul\":1417:1560   */\ntag_27:\n    /* \"#utility.yul\":1474:1479   */\n  0x00\n    /* \"#utility.yul\":1505:1511   */\n  dup2\n    /* \"#utility.yul\":1499:1512   */\n  mload\n    /* \"#utility.yul\":1490:1512   */\n  swap1\n  pop\n    /* \"#utility.yul\":1521:1554   */\n  tag_52\n    /* \"#utility.yul\":1548:1553   */\n  dup2\n    /* \"#utility.yul\":1521:1554   */\n  tag_26\n  jump\t// in\ntag_52:\n    /* \"#utility.yul\":1417:1560   */\n  swap3\n  swap2\n  pop\n  pop\n  jump\t// out\n    /* \"#utility.yul\":1566:2382   */\ntag_3:\n    /* \"#utility.yul\":1661:1667   */\n  0x00\n    /* \"#utility.yul\":1669:1675   */\n  dup1\n    /* \"#utility.yul\":1677:1683   */\n  0x00\n    /* \"#utility.yul\":1685:1691   */\n  dup1\n    /* \"#utility.yul\":1734:1737   */\n  0x80\n    /* \"#utility.yul\":1722:1731   */\n  dup6\n    /* \"#utility.yul\":1713:1720   */\n  dup8\n    /* \"#utility.yul\":1709:1732   */\n  sub\n    /* \"#utility.yul\":1705:1738   */\n  slt\n    /* \"#utility.yul\":1702:1822   */\n  iszero\n  tag_54\n  jumpi\n    /* \"#utility.yul\":1741:1820   */\n  tag_55\n  tag_16\n  jump\t// in\ntag_55:\n    /* \"#utility.yul\":1702:1822   */\ntag_54:\n    /* \"#utility.yul\":1861:1862   */\n  0x00\n    /* \"#utility.yul\":1886:1948   */\n  tag_56\n    /* \"#utility.yul\":1940:1947   */\n  dup8\n    /* \"#utility.yul\":1931:1937   */\n  dup3\n    /* \"#utility.yul\":1920:1929   */\n  dup9\n    /* \"#utility.yul\":1916:1938   */\n  add\n    /* \"#utility.yul\":1886:1948   */\n  tag_20\n  jump\t// in\ntag_56:\n    /* \"#utility.yul\":1876:1948   */\n  swap5\n  pop\n    /* \"#utility.yul\":1832:1958   */\n  pop\n    /* \"#utility.yul\":1997:1999   */\n  0x20\n    /* \"#utility.yul\":2023:2087   */\n  tag_57\n    /* \"#utility.yul\":2079:2086   */\n  dup8\n    /* \"#utility.yul\":2070:2076   */\n  dup3\n    /* \"#utility.yul\":2059:2068   */\n  dup9\n    /* \"#utility.yul\":2055:2077   */\n  add\n    /* \"#utility.yul\":2023:2087   */\n  tag_23\n  jump\t// in\ntag_57:\n    /* \"#utility.yul\":2013:2087   */\n  swap4\n  pop\n    /* \"#utility.yul\":1968:2097   */\n  pop\n    /* \"#utility.yul\":2136:2138   */\n  0x40\n    /* \"#utility.yul\":2162:2226   */\n  tag_58\n    /* \"#utility.yul\":2218:2225   */\n  dup8\n    /* \"#utility.yul\":2209:2215   */\n  dup3\n    /* \"#utility.yul\":2198:2207   */\n  dup9\n    /* \"#utility.yul\":2194:2216   */\n  add\n    /* \"#utility.yul\":2162:2226   */\n  tag_23\n  jump\t// in\ntag_58:\n    /* \"#utility.yul\":2152:2226   */\n  swap3\n  pop\n    /* \"#utility.yul\":2107:2236   */\n  pop\n    /* \"#utility.yul\":2275:2277   */\n  0x60\n    /* \"#utility.yul\":2301:2365   */\n  tag_59\n    /* \"#utility.yul\":2357:2364   */\n  dup8\n    /* \"#utility.yul\":2348:2354   */\n  dup3\n    /* \"#utility.yul\":2337:2346   */\n  dup9\n    /* \"#utility.yul\":2333:2355   */\n  add\n    /* \"#utility.yul\":2301:2365   */\n  tag_27\n  jump\t// in\ntag_59:\n    /* \"#utility.yul\":2291:2365   */\n  swap2\n  pop\n    /* \"#utility.yul\":2246:2375   */\n  pop\n    /* \"#utility.yul\":1566:2382   */\n  swap3\n  swap6\n  swap2\n  swap5\n  pop\n  swap3\n  pop\n  jump\t// out\n    /* \"#utility.yul\":2388:2506   */\ntag_28:\n    /* \"#utility.yul\":2475:2499   */\n  tag_61\n    /* \"#utility.yul\":2493:2498   */\n  dup2\n    /* \"#utility.yul\":2475:2499   */\n  tag_25\n  jump\t// in\ntag_61:\n    /* \"#utility.yul\":2470:2473   */\n  dup3\n    /* \"#utility.yul\":2463:2500   */\n  mstore\n    /* \"#utility.yul\":2388:2506   */\n  pop\n  pop\n  jump\t// out\n    /* \"#utility.yul\":2512:2734   */\ntag_9:\n    /* \"#utility.yul\":2605:2609   */\n  0x00\n    /* \"#utility.yul\":2643:2645   */\n  0x20\n    /* \"#utility.yul\":2632:2641   */\n  dup3\n    /* \"#utility.yul\":2628:2646   */\n  add\n    /* \"#utility.yul\":2620:2646   */\n  swap1\n  pop\n    /* \"#utility.yul\":2656:2727   */\n  tag_63\n    /* \"#utility.yul\":2724:2725   */\n  0x00\n    /* \"#utility.yul\":2713:2722   */\n  dup4\n    /* \"#utility.yul\":2709:2726   */\n  add\n    /* \"#utility.yul\":2700:2706   */\n  dup5\n    /* \"#utility.yul\":2656:2727   */\n  tag_28\n  jump\t// in\ntag_63:\n    /* \"#utility.yul\":2512:2734   */\n  swap3\n  swap2\n  pop\n  pop\n  jump\t// out\n    /* \"Defi/defi-theory/contracts/004_Vote.sol\":115:2087  contract Poll is Ownable {... */\ntag_13:\n  dataSize(sub_0)\n  dup1\n  dataOffset(sub_0)\n  0x00\n  codecopy\n  0x00\n  return\nstop\n\nsub_0: assembly {\n        /* \"Defi/defi-theory/contracts/004_Vote.sol\":115:2087  contract Poll is Ownable {... */\n      mstore(0x40, 0x80)\n      callvalue\n      dup1\n      iszero\n      tag_1\n      jumpi\n      0x00\n      dup1\n      revert\n    tag_1:\n      pop\n      jumpi(tag_2, lt(calldatasize, 0x04))\n      shr(0xe0, calldataload(0x00))\n      dup1\n      0x8e437c5f\n      gt\n      tag_21\n      jumpi\n      dup1\n      0xbe9a6555\n      gt\n      tag_22\n      jumpi\n      dup1\n      0xbe9a6555\n      eq\n      tag_16\n      jumpi\n      dup1\n      0xde292789\n      eq\n      tag_17\n      jumpi\n      dup1\n      0xea173865\n      eq\n      tag_18\n      jumpi\n      dup1\n      0xefbe1c1c\n      eq\n      tag_19\n      jumpi\n      dup1\n      0xf2fde38b\n      eq\n      tag_20\n      jumpi\n      jump(tag_2)\n    tag_22:\n      dup1\n      0x8e437c5f\n      eq\n      tag_12\n      jumpi\n      dup1\n      0xa5ad21dd\n      eq\n      tag_13\n      jumpi\n      dup1\n      0xb3f98adc\n      eq\n      tag_14\n      jumpi\n      dup1\n      0xb9fbd33f\n      eq\n      tag_15\n      jumpi\n      jump(tag_2)\n    tag_21:\n      dup1\n      0x3197cbb6\n      gt\n      tag_23\n      jumpi\n      dup1\n      0x3197cbb6\n      eq\n      tag_7\n      jumpi\n      dup1\n      0x557ed1ba\n      eq\n      tag_8\n      jumpi\n      dup1\n      0x6f0470aa\n      eq\n      tag_9\n      jumpi\n      dup1\n      0x715018a6\n      eq\n      tag_10\n      jumpi\n      dup1\n      0x8da5cb5b\n      eq\n      tag_11\n      jumpi\n      jump(tag_2)\n    tag_23:\n      dup1\n      0x056ae13b\n      eq\n      tag_3\n      jumpi\n      dup1\n      0x0fb5a6b4\n      eq\n      tag_4\n      jumpi\n      dup1\n      0x12fa6feb\n      eq\n      tag_5\n      jumpi\n      dup1\n      0x1f2698ab\n      eq\n      tag_6\n      jumpi\n    tag_2:\n      0x00\n      dup1\n      revert\n        /* \"Defi/defi-theory/contracts/004_Vote.sol\":597:626  uint8 public highestCandidate */\n    tag_3:\n      tag_24\n      tag_25\n      jump\t// in\n    tag_24:\n      mload(0x40)\n      tag_26\n      swap2\n      swap1\n      tag_27\n      jump\t// in\n    tag_26:\n      mload(0x40)\n      dup1\n      swap2\n      sub\n      swap1\n      return\n        /* \"Defi/defi-theory/contracts/004_Vote.sol\":255:275  uint public duration */\n    tag_4:\n      tag_28\n      tag_29\n      jump\t// in\n    tag_28:\n      mload(0x40)\n      tag_30\n      swap2\n      swap1\n      tag_31\n      jump\t// in\n    tag_30:\n      mload(0x40)\n      dup1\n      swap2\n      sub\n      swap1\n      return\n        /* \"Defi/defi-theory/contracts/004_Vote.sol\":306:323  bool public ended */\n    tag_5:\n      tag_32\n      tag_33\n      jump\t// in\n    tag_32:\n      mload(0x40)\n      tag_34\n      swap2\n      swap1\n      tag_35\n      jump\t// in\n    tag_34:\n      mload(0x40)\n      dup1\n      swap2\n      sub\n      swap1\n      return\n        /* \"Defi/defi-theory/contracts/004_Vote.sol\":281:300  bool public started */\n    tag_6:\n      tag_36\n      tag_37\n      jump\t// in\n    tag_36:\n      mload(0x40)\n      tag_38\n      swap2\n      swap1\n      tag_35\n      jump\t// in\n    tag_38:\n      mload(0x40)\n      dup1\n      swap2\n      sub\n      swap1\n      return\n        /* \"Defi/defi-theory/contracts/004_Vote.sol\":329:348  uint public endTime */\n    tag_7:\n      tag_39\n      tag_40\n      jump\t// in\n    tag_39:\n      mload(0x40)\n      tag_41\n      swap2\n      swap1\n      tag_31\n      jump\t// in\n    tag_41:\n      mload(0x40)\n      dup1\n      swap2\n      sub\n      swap1\n      return\n        /* \"Defi/defi-theory/contracts/004_Vote.sol\":2002:2085  function getTime() public view returns(uint){... */\n    tag_8:\n      tag_42\n      tag_43\n      jump\t// in\n    tag_42:\n      mload(0x40)\n      tag_44\n      swap2\n      swap1\n      tag_31\n      jump\t// in\n    tag_44:\n      mload(0x40)\n      dup1\n      swap2\n      sub\n      swap1\n      return\n        /* \"Defi/defi-theory/contracts/004_Vote.sol\":166:189  uint8 public candidates */\n    tag_9:\n      tag_45\n      tag_46\n      jump\t// in\n    tag_45:\n      mload(0x40)\n      tag_47\n      swap2\n      swap1\n      tag_27\n      jump\t// in\n    tag_47:\n      mload(0x40)\n      dup1\n      swap2\n      sub\n      swap1\n      return\n        /* \"@openzeppelin/contracts/access/Ownable.sol\":2293:2394  function renounceOwnership() public virtual onlyOwner {... */\n    tag_10:\n      tag_48\n      tag_49\n      jump\t// in\n    tag_48:\n      stop\n        /* \"@openzeppelin/contracts/access/Ownable.sol\":1638:1723  function owner() public view virtual returns (address) {... */\n    tag_11:\n      tag_50\n      tag_51\n      jump\t// in\n    tag_50:\n      mload(0x40)\n      tag_52\n      swap2\n      swap1\n      tag_53\n      jump\t// in\n    tag_52:\n      mload(0x40)\n      dup1\n      swap2\n      sub\n      swap1\n      return\n        /* \"Defi/defi-theory/contracts/004_Vote.sol\":211:230  uint public turnout */\n    tag_12:\n      tag_54\n      tag_55\n      jump\t// in\n    tag_54:\n      mload(0x40)\n      tag_56\n      swap2\n      swap1\n      tag_31\n      jump\t// in\n    tag_56:\n      mload(0x40)\n      dup1\n      swap2\n      sub\n      swap1\n      return\n        /* \"Defi/defi-theory/contracts/004_Vote.sol\":439:480  mapping(address => uint8) public votedMap */\n    tag_13:\n      tag_57\n      0x04\n      dup1\n      calldatasize\n      sub\n      dup2\n      add\n      swap1\n      tag_58\n      swap2\n      swap1\n      tag_59\n      jump\t// in\n    tag_58:\n      tag_60\n      jump\t// in\n    tag_57:\n      mload(0x40)\n      tag_61\n      swap2\n      swap1\n      tag_27\n      jump\t// in\n    tag_61:\n      mload(0x40)\n      dup1\n      swap2\n      sub\n      swap1\n      return\n        /* \"Defi/defi-theory/contracts/004_Vote.sol\":1290:1876  function vote(uint8 candidateIndex) external {... */\n    tag_14:\n      tag_62\n      0x04\n      dup1\n      calldatasize\n      sub\n      dup2\n      add\n      swap1\n      tag_63\n      swap2\n      swap1\n      tag_64\n      jump\t// in\n    tag_63:\n      tag_65\n      jump\t// in\n    tag_62:\n      stop\n        /* \"Defi/defi-theory/contracts/004_Vote.sol\":373:393  uint public votedNum */\n    tag_15:\n      tag_66\n      tag_67\n      jump\t// in\n    tag_66:\n      mload(0x40)\n      tag_68\n      swap2\n      swap1\n      tag_31\n      jump\t// in\n    tag_68:\n      mload(0x40)\n      dup1\n      swap2\n      sub\n      swap1\n      return\n        /* \"Defi/defi-theory/contracts/004_Vote.sol\":944:1081  function start() external onlyOwner {... */\n    tag_16:\n      tag_69\n      tag_70\n      jump\t// in\n    tag_69:\n      stop\n        /* \"Defi/defi-theory/contracts/004_Vote.sol\":1882:1997  function getResult() external view returns (uint8) {... */\n    tag_17:\n      tag_71\n      tag_72\n      jump\t// in\n    tag_71:\n      mload(0x40)\n      tag_73\n      swap2\n      swap1\n      tag_27\n      jump\t// in\n    tag_73:\n      mload(0x40)\n      dup1\n      swap2\n      sub\n      swap1\n      return\n        /* \"Defi/defi-theory/contracts/004_Vote.sol\":663:687  uint public highestScore */\n    tag_18:\n      tag_74\n      tag_75\n      jump\t// in\n    tag_74:\n      mload(0x40)\n      tag_76\n      swap2\n      swap1\n      tag_31\n      jump\t// in\n    tag_76:\n      mload(0x40)\n      dup1\n      swap2\n      sub\n      swap1\n      return\n        /* \"Defi/defi-theory/contracts/004_Vote.sol\":1087:1284  function end() public {... */\n    tag_19:\n      tag_77\n      tag_78\n      jump\t// in\n    tag_77:\n      stop\n        /* \"@openzeppelin/contracts/access/Ownable.sol\":2543:2758  function transferOwnership(address newOwner) public virtual onlyOwner {... */\n    tag_20:\n      tag_79\n      0x04\n      dup1\n      calldatasize\n      sub\n      dup2\n      add\n      swap1\n      tag_80\n      swap2\n      swap1\n      tag_59\n      jump\t// in\n    tag_80:\n      tag_81\n      jump\t// in\n    tag_79:\n      stop\n        /* \"Defi/defi-theory/contracts/004_Vote.sol\":597:626  uint8 public highestCandidate */\n    tag_25:\n      0x08\n      0x00\n      swap1\n      sload\n      swap1\n      0x0100\n      exp\n      swap1\n      div\n      0xff\n      and\n      dup2\n      jump\t// out\n        /* \"Defi/defi-theory/contracts/004_Vote.sol\":255:275  uint public duration */\n    tag_29:\n      sload(0x02)\n      dup2\n      jump\t// out\n        /* \"Defi/defi-theory/contracts/004_Vote.sol\":306:323  bool public ended */\n    tag_33:\n      0x03\n      0x01\n      swap1\n      sload\n      swap1\n      0x0100\n      exp\n      swap1\n      div\n      0xff\n      and\n      dup2\n      jump\t// out\n        /* \"Defi/defi-theory/contracts/004_Vote.sol\":281:300  bool public started */\n    tag_37:\n      0x03\n      0x00\n      swap1\n      sload\n      swap1\n      0x0100\n      exp\n      swap1\n      div\n      0xff\n      and\n      dup2\n      jump\t// out\n        /* \"Defi/defi-theory/contracts/004_Vote.sol\":329:348  uint public endTime */\n    tag_40:\n      sload(0x04)\n      dup2\n      jump\t// out\n        /* \"Defi/defi-theory/contracts/004_Vote.sol\":2002:2085  function getTime() public view returns(uint){... */\n    tag_43:\n        /* \"Defi/defi-theory/contracts/004_Vote.sol\":2041:2045  uint */\n      0x00\n        /* \"Defi/defi-theory/contracts/004_Vote.sol\":2063:2078  block.timestamp */\n      timestamp\n        /* \"Defi/defi-theory/contracts/004_Vote.sol\":2056:2078  return block.timestamp */\n      swap1\n      pop\n        /* \"Defi/defi-theory/contracts/004_Vote.sol\":2002:2085  function getTime() public view returns(uint){... */\n      swap1\n      jump\t// out\n        /* \"Defi/defi-theory/contracts/004_Vote.sol\":166:189  uint8 public candidates */\n    tag_46:\n      0x00\n      0x14\n      swap1\n      sload\n      swap1\n      0x0100\n      exp\n      swap1\n      div\n      0xff\n      and\n      dup2\n      jump\t// out\n        /* \"@openzeppelin/contracts/access/Ownable.sol\":2293:2394  function renounceOwnership() public virtual onlyOwner {... */\n    tag_49:\n        /* \"@openzeppelin/contracts/access/Ownable.sol\":1531:1544  _checkOwner() */\n      tag_84\n        /* \"@openzeppelin/contracts/access/Ownable.sol\":1531:1542  _checkOwner */\n      tag_85\n        /* \"@openzeppelin/contracts/access/Ownable.sol\":1531:1544  _checkOwner() */\n      jump\t// in\n    tag_84:\n        /* \"@openzeppelin/contracts/access/Ownable.sol\":2357:2387  _transferOwnership(address(0)) */\n      tag_87\n        /* \"@openzeppelin/contracts/access/Ownable.sol\":2384:2385  0 */\n      0x00\n        /* \"@openzeppelin/contracts/access/Ownable.sol\":2357:2375  _transferOwnership */\n      tag_88\n        /* \"@openzeppelin/contracts/access/Ownable.sol\":2357:2387  _transferOwnership(address(0)) */\n      jump\t// in\n    tag_87:\n        /* \"@openzeppelin/contracts/access/Ownable.sol\":2293:2394  function renounceOwnership() public virtual onlyOwner {... */\n      jump\t// out\n        /* \"@openzeppelin/contracts/access/Ownable.sol\":1638:1723  function owner() public view virtual returns (address) {... */\n    tag_51:\n        /* \"@openzeppelin/contracts/access/Ownable.sol\":1684:1691  address */\n      0x00\n        /* \"@openzeppelin/contracts/access/Ownable.sol\":1710:1716  _owner */\n      dup1\n      0x00\n      swap1\n      sload\n      swap1\n      0x0100\n      exp\n      swap1\n      div\n      0xffffffffffffffffffffffffffffffffffffffff\n      and\n        /* \"@openzeppelin/contracts/access/Ownable.sol\":1703:1716  return _owner */\n      swap1\n      pop\n        /* \"@openzeppelin/contracts/access/Ownable.sol\":1638:1723  function owner() public view virtual returns (address) {... */\n      swap1\n      jump\t// out\n        /* \"Defi/defi-theory/contracts/004_Vote.sol\":211:230  uint public turnout */\n    tag_55:\n      sload(0x01)\n      dup2\n      jump\t// out\n        /* \"Defi/defi-theory/contracts/004_Vote.sol\":439:480  mapping(address => uint8) public votedMap */\n    tag_60:\n      mstore(0x20, 0x06)\n      dup1\n      0x00\n      mstore\n      keccak256(0x00, 0x40)\n      0x00\n      swap2\n      pop\n      sload\n      swap1\n      0x0100\n      exp\n      swap1\n      div\n      0xff\n      and\n      dup2\n      jump\t// out\n        /* \"Defi/defi-theory/contracts/004_Vote.sol\":1290:1876  function vote(uint8 candidateIndex) external {... */\n    tag_65:\n        /* \"Defi/defi-theory/contracts/004_Vote.sol\":1363:1371  votedNum */\n      sload(0x05)\n        /* \"Defi/defi-theory/contracts/004_Vote.sol\":1353:1360  turnout */\n      sload(0x01)\n        /* \"Defi/defi-theory/contracts/004_Vote.sol\":1353:1371  turnout > votedNum */\n      gt\n        /* \"Defi/defi-theory/contracts/004_Vote.sol\":1345:1384  require(turnout > votedNum,\"over user\") */\n      tag_91\n      jumpi\n      mload(0x40)\n      0x08c379a000000000000000000000000000000000000000000000000000000000\n      dup2\n      mstore\n      0x04\n      add\n      tag_92\n      swap1\n      tag_93\n      jump\t// in\n    tag_92:\n      mload(0x40)\n      dup1\n      swap2\n      sub\n      swap1\n      revert\n    tag_91:\n        /* \"Defi/defi-theory/contracts/004_Vote.sol\":1426:1427  0 */\n      0x00\n        /* \"Defi/defi-theory/contracts/004_Vote.sol\":1402:1410  votedMap */\n      0x06\n        /* \"Defi/defi-theory/contracts/004_Vote.sol\":1402:1422  votedMap[msg.sender] */\n      0x00\n        /* \"Defi/defi-theory/contracts/004_Vote.sol\":1411:1421  msg.sender */\n      caller\n        /* \"Defi/defi-theory/contracts/004_Vote.sol\":1402:1422  votedMap[msg.sender] */\n      0xffffffffffffffffffffffffffffffffffffffff\n      and\n      0xffffffffffffffffffffffffffffffffffffffff\n      and\n      dup2\n      mstore\n      0x20\n      add\n      swap1\n      dup2\n      mstore\n      0x20\n      add\n      0x00\n      keccak256\n      0x00\n      swap1\n      sload\n      swap1\n      0x0100\n      exp\n      swap1\n      div\n      0xff\n      and\n        /* \"Defi/defi-theory/contracts/004_Vote.sol\":1402:1427  votedMap[msg.sender] == 0 */\n      0xff\n      and\n      eq\n        /* \"Defi/defi-theory/contracts/004_Vote.sol\":1394:1445  require(votedMap[msg.sender] == 0 , \"Not eligible\") */\n      tag_94\n      jumpi\n      mload(0x40)\n      0x08c379a000000000000000000000000000000000000000000000000000000000\n      dup2\n      mstore\n      0x04\n      add\n      tag_95\n      swap1\n      tag_96\n      jump\t// in\n    tag_95:\n      mload(0x40)\n      dup1\n      swap2\n      sub\n      swap1\n      revert\n    tag_94:\n        /* \"Defi/defi-theory/contracts/004_Vote.sol\":1474:1478  true */\n      0x01\n        /* \"Defi/defi-theory/contracts/004_Vote.sol\":1463:1478  started == true */\n      iszero\n      iszero\n        /* \"Defi/defi-theory/contracts/004_Vote.sol\":1463:1470  started */\n      0x03\n      0x00\n      swap1\n      sload\n      swap1\n      0x0100\n      exp\n      swap1\n      div\n      0xff\n      and\n        /* \"Defi/defi-theory/contracts/004_Vote.sol\":1463:1478  started == true */\n      iszero\n      iszero\n      eq\n        /* \"Defi/defi-theory/contracts/004_Vote.sol\":1455:1494  require(started == true, \"not started\") */\n      tag_97\n      jumpi\n      mload(0x40)\n      0x08c379a000000000000000000000000000000000000000000000000000000000\n      dup2\n      mstore\n      0x04\n      add\n      tag_98\n      swap1\n      tag_99\n      jump\t// in\n    tag_98:\n      mload(0x40)\n      dup1\n      swap2\n      sub\n      swap1\n      revert\n    tag_97:\n        /* \"Defi/defi-theory/contracts/004_Vote.sol\":1521:1525  true */\n      0x01\n        /* \"Defi/defi-theory/contracts/004_Vote.sol\":1512:1525  ended != true */\n      iszero\n      iszero\n        /* \"Defi/defi-theory/contracts/004_Vote.sol\":1512:1517  ended */\n      0x03\n      0x01\n      swap1\n      sload\n      swap1\n      0x0100\n      exp\n      swap1\n      div\n      0xff\n      and\n        /* \"Defi/defi-theory/contracts/004_Vote.sol\":1512:1525  ended != true */\n      iszero\n      iszero\n      sub\n        /* \"Defi/defi-theory/contracts/004_Vote.sol\":1504:1542  require(ended != true, \"already over\") */\n      tag_100\n      jumpi\n      mload(0x40)\n      0x08c379a000000000000000000000000000000000000000000000000000000000\n      dup2\n      mstore\n      0x04\n      add\n      tag_101\n      swap1\n      tag_102\n      jump\t// in\n    tag_101:\n      mload(0x40)\n      dup1\n      swap2\n      sub\n      swap1\n      revert\n    tag_100:\n        /* \"Defi/defi-theory/contracts/004_Vote.sol\":1578:1585  endTime */\n      sload(0x04)\n        /* \"Defi/defi-theory/contracts/004_Vote.sol\":1560:1575  block.timestamp */\n      timestamp\n        /* \"Defi/defi-theory/contracts/004_Vote.sol\":1560:1585  block.timestamp < endTime */\n      lt\n        /* \"Defi/defi-theory/contracts/004_Vote.sol\":1552:1599  require(block.timestamp < endTime, \"over time\") */\n      tag_103\n      jumpi\n      mload(0x40)\n      0x08c379a000000000000000000000000000000000000000000000000000000000\n      dup2\n      mstore\n      0x04\n      add\n      tag_104\n      swap1\n      tag_105\n      jump\t// in\n    tag_104:\n      mload(0x40)\n      dup1\n      swap2\n      sub\n      swap1\n      revert\n    tag_103:\n        /* \"Defi/defi-theory/contracts/004_Vote.sol\":1632:1646  candidateIndex */\n      dup1\n        /* \"Defi/defi-theory/contracts/004_Vote.sol\":1609:1617  votedMap */\n      0x06\n        /* \"Defi/defi-theory/contracts/004_Vote.sol\":1609:1629  votedMap[msg.sender] */\n      0x00\n        /* \"Defi/defi-theory/contracts/004_Vote.sol\":1618:1628  msg.sender */\n      caller\n        /* \"Defi/defi-theory/contracts/004_Vote.sol\":1609:1629  votedMap[msg.sender] */\n      0xffffffffffffffffffffffffffffffffffffffff\n      and\n      0xffffffffffffffffffffffffffffffffffffffff\n      and\n      dup2\n      mstore\n      0x20\n      add\n      swap1\n      dup2\n      mstore\n      0x20\n      add\n      0x00\n      keccak256\n      0x00\n        /* \"Defi/defi-theory/contracts/004_Vote.sol\":1609:1646  votedMap[msg.sender] = candidateIndex */\n      0x0100\n      exp\n      dup2\n      sload\n      dup2\n      0xff\n      mul\n      not\n      and\n      swap1\n      dup4\n      0xff\n      and\n      mul\n      or\n      swap1\n      sstore\n      pop\n        /* \"Defi/defi-theory/contracts/004_Vote.sol\":1684:1685  1 */\n      0x01\n        /* \"Defi/defi-theory/contracts/004_Vote.sol\":1656:1664  scoreMap */\n      0x07\n        /* \"Defi/defi-theory/contracts/004_Vote.sol\":1656:1680  scoreMap[candidateIndex] */\n      0x00\n        /* \"Defi/defi-theory/contracts/004_Vote.sol\":1665:1679  candidateIndex */\n      dup4\n        /* \"Defi/defi-theory/contracts/004_Vote.sol\":1656:1680  scoreMap[candidateIndex] */\n      0xff\n      and\n      0xff\n      and\n      dup2\n      mstore\n      0x20\n      add\n      swap1\n      dup2\n      mstore\n      0x20\n      add\n      0x00\n      keccak256\n      0x00\n        /* \"Defi/defi-theory/contracts/004_Vote.sol\":1656:1685  scoreMap[candidateIndex] += 1 */\n      dup3\n      dup3\n      sload\n      tag_106\n      swap2\n      swap1\n      tag_107\n      jump\t// in\n    tag_106:\n      swap3\n      pop\n      pop\n      dup2\n      swap1\n      sstore\n      pop\n        /* \"Defi/defi-theory/contracts/004_Vote.sol\":1725:1737  highestScore */\n      sload(0x09)\n        /* \"Defi/defi-theory/contracts/004_Vote.sol\":1698:1706  scoreMap */\n      0x07\n        /* \"Defi/defi-theory/contracts/004_Vote.sol\":1698:1722  scoreMap[candidateIndex] */\n      0x00\n        /* \"Defi/defi-theory/contracts/004_Vote.sol\":1707:1721  candidateIndex */\n      dup4\n        /* \"Defi/defi-theory/contracts/004_Vote.sol\":1698:1722  scoreMap[candidateIndex] */\n      0xff\n      and\n      0xff\n      and\n      dup2\n      mstore\n      0x20\n      add\n      swap1\n      dup2\n      mstore\n      0x20\n      add\n      0x00\n      keccak256\n      sload\n        /* \"Defi/defi-theory/contracts/004_Vote.sol\":1698:1737  scoreMap[candidateIndex] > highestScore */\n      gt\n        /* \"Defi/defi-theory/contracts/004_Vote.sol\":1695:1849  if(scoreMap[candidateIndex] > highestScore){... */\n      iszero\n      tag_108\n      jumpi\n        /* \"Defi/defi-theory/contracts/004_Vote.sol\":1771:1785  candidateIndex */\n      dup1\n        /* \"Defi/defi-theory/contracts/004_Vote.sol\":1752:1768  highestCandidate */\n      0x08\n      0x00\n        /* \"Defi/defi-theory/contracts/004_Vote.sol\":1752:1785  highestCandidate = candidateIndex */\n      0x0100\n      exp\n      dup2\n      sload\n      dup2\n      0xff\n      mul\n      not\n      and\n      swap1\n      dup4\n      0xff\n      and\n      mul\n      or\n      swap1\n      sstore\n      pop\n        /* \"Defi/defi-theory/contracts/004_Vote.sol\":1814:1822  scoreMap */\n      0x07\n        /* \"Defi/defi-theory/contracts/004_Vote.sol\":1814:1838  scoreMap[candidateIndex] */\n      0x00\n        /* \"Defi/defi-theory/contracts/004_Vote.sol\":1823:1837  candidateIndex */\n      dup3\n        /* \"Defi/defi-theory/contracts/004_Vote.sol\":1814:1838  scoreMap[candidateIndex] */\n      0xff\n      and\n      0xff\n      and\n      dup2\n      mstore\n      0x20\n      add\n      swap1\n      dup2\n      mstore\n      0x20\n      add\n      0x00\n      keccak256\n      sload\n        /* \"Defi/defi-theory/contracts/004_Vote.sol\":1799:1811  highestScore */\n      0x09\n        /* \"Defi/defi-theory/contracts/004_Vote.sol\":1799:1838  highestScore = scoreMap[candidateIndex] */\n      dup2\n      swap1\n      sstore\n      pop\n        /* \"Defi/defi-theory/contracts/004_Vote.sol\":1695:1849  if(scoreMap[candidateIndex] > highestScore){... */\n    tag_108:\n        /* \"Defi/defi-theory/contracts/004_Vote.sol\":1858:1866  votedNum */\n      0x05\n      0x00\n        /* \"Defi/defi-theory/contracts/004_Vote.sol\":1858:1869  votedNum ++ */\n      dup2\n      sload\n      dup1\n      swap3\n      swap2\n      swap1\n      tag_109\n      swap1\n      tag_110\n      jump\t// in\n    tag_109:\n      swap2\n      swap1\n      pop\n      sstore\n      pop\n        /* \"Defi/defi-theory/contracts/004_Vote.sol\":1290:1876  function vote(uint8 candidateIndex) external {... */\n      pop\n      jump\t// out\n        /* \"Defi/defi-theory/contracts/004_Vote.sol\":373:393  uint public votedNum */\n    tag_67:\n      sload(0x05)\n      dup2\n      jump\t// out\n        /* \"Defi/defi-theory/contracts/004_Vote.sol\":944:1081  function start() external onlyOwner {... */\n    tag_70:\n        /* \"@openzeppelin/contracts/access/Ownable.sol\":1531:1544  _checkOwner() */\n      tag_112\n        /* \"@openzeppelin/contracts/access/Ownable.sol\":1531:1542  _checkOwner */\n      tag_85\n        /* \"@openzeppelin/contracts/access/Ownable.sol\":1531:1544  _checkOwner() */\n      jump\t// in\n    tag_112:\n        /* \"Defi/defi-theory/contracts/004_Vote.sol\":1000:1004  true */\n      0x01\n        /* \"Defi/defi-theory/contracts/004_Vote.sol\":990:997  started */\n      0x03\n      0x00\n        /* \"Defi/defi-theory/contracts/004_Vote.sol\":990:1004  started = true */\n      0x0100\n      exp\n      dup2\n      sload\n      dup2\n      0xff\n      mul\n      not\n      and\n      swap1\n      dup4\n      iszero\n      iszero\n      mul\n      or\n      swap1\n      sstore\n      pop\n        /* \"Defi/defi-theory/contracts/004_Vote.sol\":1042:1050  duration */\n      sload(0x02)\n        /* \"Defi/defi-theory/contracts/004_Vote.sol\":1024:1039  block.timestamp */\n      timestamp\n        /* \"Defi/defi-theory/contracts/004_Vote.sol\":1024:1050  block.timestamp + duration */\n      tag_114\n      swap2\n      swap1\n      tag_107\n      jump\t// in\n    tag_114:\n        /* \"Defi/defi-theory/contracts/004_Vote.sol\":1014:1021  endTime */\n      0x04\n        /* \"Defi/defi-theory/contracts/004_Vote.sol\":1014:1050  endTime = block.timestamp + duration */\n      dup2\n      swap1\n      sstore\n      pop\n        /* \"Defi/defi-theory/contracts/004_Vote.sol\":1065:1074  Started() */\n      0xd8cea0ecd56872ff072e771658b5682ffe4de16d752947f79597d600ea56f7a9\n      mload(0x40)\n      mload(0x40)\n      dup1\n      swap2\n      sub\n      swap1\n      log1\n        /* \"Defi/defi-theory/contracts/004_Vote.sol\":944:1081  function start() external onlyOwner {... */\n      jump\t// out\n        /* \"Defi/defi-theory/contracts/004_Vote.sol\":1882:1997  function getResult() external view returns (uint8) {... */\n    tag_72:\n        /* \"Defi/defi-theory/contracts/004_Vote.sol\":1926:1931  uint8 */\n      0x00\n        /* \"Defi/defi-theory/contracts/004_Vote.sol\":1951:1956  ended */\n      0x03\n      0x01\n      swap1\n      sload\n      swap1\n      0x0100\n      exp\n      swap1\n      div\n      0xff\n      and\n        /* \"Defi/defi-theory/contracts/004_Vote.sol\":1943:1957  require(ended) */\n      tag_116\n      jumpi\n      0x00\n      dup1\n      revert\n    tag_116:\n        /* \"Defi/defi-theory/contracts/004_Vote.sol\":1974:1990  highestCandidate */\n      0x08\n      0x00\n      swap1\n      sload\n      swap1\n      0x0100\n      exp\n      swap1\n      div\n      0xff\n      and\n        /* \"Defi/defi-theory/contracts/004_Vote.sol\":1967:1990  return highestCandidate */\n      swap1\n      pop\n        /* \"Defi/defi-theory/contracts/004_Vote.sol\":1882:1997  function getResult() external view returns (uint8) {... */\n      swap1\n      jump\t// out\n        /* \"Defi/defi-theory/contracts/004_Vote.sol\":663:687  uint public highestScore */\n    tag_75:\n      sload(0x09)\n      dup2\n      jump\t// out\n        /* \"Defi/defi-theory/contracts/004_Vote.sol\":1087:1284  function end() public {... */\n    tag_78:\n        /* \"Defi/defi-theory/contracts/004_Vote.sol\":1138:1142  true */\n      0x01\n        /* \"Defi/defi-theory/contracts/004_Vote.sol\":1127:1142  started == true */\n      iszero\n      iszero\n        /* \"Defi/defi-theory/contracts/004_Vote.sol\":1127:1134  started */\n      0x03\n      0x00\n      swap1\n      sload\n      swap1\n      0x0100\n      exp\n      swap1\n      div\n      0xff\n      and\n        /* \"Defi/defi-theory/contracts/004_Vote.sol\":1127:1142  started == true */\n      iszero\n      iszero\n      eq\n        /* \"Defi/defi-theory/contracts/004_Vote.sol\":1119:1158  require(started == true, \"not started\") */\n      tag_118\n      jumpi\n      mload(0x40)\n      0x08c379a000000000000000000000000000000000000000000000000000000000\n      dup2\n      mstore\n      0x04\n      add\n      tag_119\n      swap1\n      tag_99\n      jump\t// in\n    tag_119:\n      mload(0x40)\n      dup1\n      swap2\n      sub\n      swap1\n      revert\n    tag_118:\n        /* \"Defi/defi-theory/contracts/004_Vote.sol\":1194:1201  endTime */\n      sload(0x04)\n        /* \"Defi/defi-theory/contracts/004_Vote.sol\":1176:1191  block.timestamp */\n      timestamp\n        /* \"Defi/defi-theory/contracts/004_Vote.sol\":1176:1201  block.timestamp > endTime */\n      gt\n        /* \"Defi/defi-theory/contracts/004_Vote.sol\":1168:1233  require(block.timestamp > endTime, \"not yet the designated time\") */\n      tag_120\n      jumpi\n      mload(0x40)\n      0x08c379a000000000000000000000000000000000000000000000000000000000\n      dup2\n      mstore\n      0x04\n      add\n      tag_121\n      swap1\n      tag_122\n      jump\t// in\n    tag_121:\n      mload(0x40)\n      dup1\n      swap2\n      sub\n      swap1\n      revert\n    tag_120:\n        /* \"Defi/defi-theory/contracts/004_Vote.sol\":1251:1255  true */\n      0x01\n        /* \"Defi/defi-theory/contracts/004_Vote.sol\":1243:1248  ended */\n      0x03\n      0x01\n        /* \"Defi/defi-theory/contracts/004_Vote.sol\":1243:1255  ended = true */\n      0x0100\n      exp\n      dup2\n      sload\n      dup2\n      0xff\n      mul\n      not\n      and\n      swap1\n      dup4\n      iszero\n      iszero\n      mul\n      or\n      swap1\n      sstore\n      pop\n        /* \"Defi/defi-theory/contracts/004_Vote.sol\":1270:1277  Ended() */\n      0x477383f34069ce6129e1b6e0cbbdedb319ee49ef85677e403c26c37405ada46d\n      mload(0x40)\n      mload(0x40)\n      dup1\n      swap2\n      sub\n      swap1\n      log1\n        /* \"Defi/defi-theory/contracts/004_Vote.sol\":1087:1284  function end() public {... */\n      jump\t// out\n        /* \"@openzeppelin/contracts/access/Ownable.sol\":2543:2758  function transferOwnership(address newOwner) public virtual onlyOwner {... */\n    tag_81:\n        /* \"@openzeppelin/contracts/access/Ownable.sol\":1531:1544  _checkOwner() */\n      tag_124\n        /* \"@openzeppelin/contracts/access/Ownable.sol\":1531:1542  _checkOwner */\n      tag_85\n        /* \"@openzeppelin/contracts/access/Ownable.sol\":1531:1544  _checkOwner() */\n      jump\t// in\n    tag_124:\n        /* \"@openzeppelin/contracts/access/Ownable.sol\":2647:2648  0 */\n      0x00\n        /* \"@openzeppelin/contracts/access/Ownable.sol\":2627:2649  newOwner == address(0) */\n      0xffffffffffffffffffffffffffffffffffffffff\n      and\n        /* \"@openzeppelin/contracts/access/Ownable.sol\":2627:2635  newOwner */\n      dup2\n        /* \"@openzeppelin/contracts/access/Ownable.sol\":2627:2649  newOwner == address(0) */\n      0xffffffffffffffffffffffffffffffffffffffff\n      and\n      sub\n        /* \"@openzeppelin/contracts/access/Ownable.sol\":2623:2714  if (newOwner == address(0)) {... */\n      tag_126\n      jumpi\n        /* \"@openzeppelin/contracts/access/Ownable.sol\":2700:2701  0 */\n      0x00\n        /* \"@openzeppelin/contracts/access/Ownable.sol\":2672:2703  OwnableInvalidOwner(address(0)) */\n      mload(0x40)\n      0x1e4fbdf700000000000000000000000000000000000000000000000000000000\n      dup2\n      mstore\n      0x04\n      add\n      tag_127\n      swap2\n      swap1\n      tag_53\n      jump\t// in\n    tag_127:\n      mload(0x40)\n      dup1\n      swap2\n      sub\n      swap1\n      revert\n        /* \"@openzeppelin/contracts/access/Ownable.sol\":2623:2714  if (newOwner == address(0)) {... */\n    tag_126:\n        /* \"@openzeppelin/contracts/access/Ownable.sol\":2723:2751  _transferOwnership(newOwner) */\n      tag_128\n        /* \"@openzeppelin/contracts/access/Ownable.sol\":2742:2750  newOwner */\n      dup2\n        /* \"@openzeppelin/contracts/access/Ownable.sol\":2723:2741  _transferOwnership */\n      tag_88\n        /* \"@openzeppelin/contracts/access/Ownable.sol\":2723:2751  _transferOwnership(newOwner) */\n      jump\t// in\n    tag_128:\n        /* \"@openzeppelin/contracts/access/Ownable.sol\":2543:2758  function transferOwnership(address newOwner) public virtual onlyOwner {... */\n      pop\n      jump\t// out\n        /* \"@openzeppelin/contracts/access/Ownable.sol\":1796:1958  function _checkOwner() internal view virtual {... */\n    tag_85:\n        /* \"@openzeppelin/contracts/access/Ownable.sol\":1866:1878  _msgSender() */\n      tag_130\n        /* \"@openzeppelin/contracts/access/Ownable.sol\":1866:1876  _msgSender */\n      tag_131\n        /* \"@openzeppelin/contracts/access/Ownable.sol\":1866:1878  _msgSender() */\n      jump\t// in\n    tag_130:\n        /* \"@openzeppelin/contracts/access/Ownable.sol\":1855:1878  owner() != _msgSender() */\n      0xffffffffffffffffffffffffffffffffffffffff\n      and\n        /* \"@openzeppelin/contracts/access/Ownable.sol\":1855:1862  owner() */\n      tag_132\n        /* \"@openzeppelin/contracts/access/Ownable.sol\":1855:1860  owner */\n      tag_51\n        /* \"@openzeppelin/contracts/access/Ownable.sol\":1855:1862  owner() */\n      jump\t// in\n    tag_132:\n        /* \"@openzeppelin/contracts/access/Ownable.sol\":1855:1878  owner() != _msgSender() */\n      0xffffffffffffffffffffffffffffffffffffffff\n      and\n      eq\n        /* \"@openzeppelin/contracts/access/Ownable.sol\":1851:1952  if (owner() != _msgSender()) {... */\n      tag_133\n      jumpi\n        /* \"@openzeppelin/contracts/access/Ownable.sol\":1928:1940  _msgSender() */\n      tag_134\n        /* \"@openzeppelin/contracts/access/Ownable.sol\":1928:1938  _msgSender */\n      tag_131\n        /* \"@openzeppelin/contracts/access/Ownable.sol\":1928:1940  _msgSender() */\n      jump\t// in\n    tag_134:\n        /* \"@openzeppelin/contracts/access/Ownable.sol\":1901:1941  OwnableUnauthorizedAccount(_msgSender()) */\n      mload(0x40)\n      0x118cdaa700000000000000000000000000000000000000000000000000000000\n      dup2\n      mstore\n      0x04\n      add\n      tag_135\n      swap2\n      swap1\n      tag_53\n      jump\t// in\n    tag_135:\n      mload(0x40)\n      dup1\n      swap2\n      sub\n      swap1\n      revert\n        /* \"@openzeppelin/contracts/access/Ownable.sol\":1851:1952  if (owner() != _msgSender()) {... */\n    tag_133:\n        /* \"@openzeppelin/contracts/access/Ownable.sol\":1796:1958  function _checkOwner() internal view virtual {... */\n      jump\t// out\n        /* \"@openzeppelin/contracts/access/Ownable.sol\":2912:3099  function _transferOwnership(address newOwner) internal virtual {... */\n    tag_88:\n        /* \"@openzeppelin/contracts/access/Ownable.sol\":2985:3001  address oldOwner */\n      0x00\n        /* \"@openzeppelin/contracts/access/Ownable.sol\":3004:3010  _owner */\n      dup1\n      0x00\n      swap1\n      sload\n      swap1\n      0x0100\n      exp\n      swap1\n      div\n      0xffffffffffffffffffffffffffffffffffffffff\n      and\n        /* \"@openzeppelin/contracts/access/Ownable.sol\":2985:3010  address oldOwner = _owner */\n      swap1\n      pop\n        /* \"@openzeppelin/contracts/access/Ownable.sol\":3029:3037  newOwner */\n      dup2\n        /* \"@openzeppelin/contracts/access/Ownable.sol\":3020:3026  _owner */\n      0x00\n      dup1\n        /* \"@openzeppelin/contracts/access/Ownable.sol\":3020:3037  _owner = newOwner */\n      0x0100\n      exp\n      dup2\n      sload\n      dup2\n      0xffffffffffffffffffffffffffffffffffffffff\n      mul\n      not\n      and\n      swap1\n      dup4\n      0xffffffffffffffffffffffffffffffffffffffff\n      and\n      mul\n      or\n      swap1\n      sstore\n      pop\n        /* \"@openzeppelin/contracts/access/Ownable.sol\":3083:3091  newOwner */\n      dup2\n        /* \"@openzeppelin/contracts/access/Ownable.sol\":3052:3092  OwnershipTransferred(oldOwner, newOwner) */\n      0xffffffffffffffffffffffffffffffffffffffff\n      and\n        /* \"@openzeppelin/contracts/access/Ownable.sol\":3073:3081  oldOwner */\n      dup2\n        /* \"@openzeppelin/contracts/access/Ownable.sol\":3052:3092  OwnershipTransferred(oldOwner, newOwner) */\n      0xffffffffffffffffffffffffffffffffffffffff\n      and\n      0x8be0079c531659141344cd1fd0a4f28419497f9722a3daafe3b4186f6b6457e0\n      mload(0x40)\n      mload(0x40)\n      dup1\n      swap2\n      sub\n      swap1\n      log3\n        /* \"@openzeppelin/contracts/access/Ownable.sol\":2975:3099  {... */\n      pop\n        /* \"@openzeppelin/contracts/access/Ownable.sol\":2912:3099  function _transferOwnership(address newOwner) internal virtual {... */\n      pop\n      jump\t// out\n        /* \"@openzeppelin/contracts/utils/Context.sol\":656:752  function _msgSender() internal view virtual returns (address) {... */\n    tag_131:\n        /* \"@openzeppelin/contracts/utils/Context.sol\":709:716  address */\n      0x00\n        /* \"@openzeppelin/contracts/utils/Context.sol\":735:745  msg.sender */\n      caller\n        /* \"@openzeppelin/contracts/utils/Context.sol\":728:745  return msg.sender */\n      swap1\n      pop\n        /* \"@openzeppelin/contracts/utils/Context.sol\":656:752  function _msgSender() internal view virtual returns (address) {... */\n      swap1\n      jump\t// out\n        /* \"#utility.yul\":7:93   */\n    tag_138:\n        /* \"#utility.yul\":42:49   */\n      0x00\n        /* \"#utility.yul\":82:86   */\n      0xff\n        /* \"#utility.yul\":75:80   */\n      dup3\n        /* \"#utility.yul\":71:87   */\n      and\n        /* \"#utility.yul\":60:87   */\n      swap1\n      pop\n        /* \"#utility.yul\":7:93   */\n      swap2\n      swap1\n      pop\n      jump\t// out\n        /* \"#utility.yul\":99:211   */\n    tag_139:\n        /* \"#utility.yul\":182:204   */\n      tag_171\n        /* \"#utility.yul\":198:203   */\n      dup2\n        /* \"#utility.yul\":182:204   */\n      tag_138\n      jump\t// in\n    tag_171:\n        /* \"#utility.yul\":177:180   */\n      dup3\n        /* \"#utility.yul\":170:205   */\n      mstore\n        /* \"#utility.yul\":99:211   */\n      pop\n      pop\n      jump\t// out\n        /* \"#utility.yul\":217:431   */\n    tag_27:\n        /* \"#utility.yul\":306:310   */\n      0x00\n        /* \"#utility.yul\":344:346   */\n      0x20\n        /* \"#utility.yul\":333:342   */\n      dup3\n        /* \"#utility.yul\":329:347   */\n      add\n        /* \"#utility.yul\":321:347   */\n      swap1\n      pop\n        /* \"#utility.yul\":357:424   */\n      tag_173\n        /* \"#utility.yul\":421:422   */\n      0x00\n        /* \"#utility.yul\":410:419   */\n      dup4\n        /* \"#utility.yul\":406:423   */\n      add\n        /* \"#utility.yul\":397:403   */\n      dup5\n        /* \"#utility.yul\":357:424   */\n      tag_139\n      jump\t// in\n    tag_173:\n        /* \"#utility.yul\":217:431   */\n      swap3\n      swap2\n      pop\n      pop\n      jump\t// out\n        /* \"#utility.yul\":437:514   */\n    tag_140:\n        /* \"#utility.yul\":474:481   */\n      0x00\n        /* \"#utility.yul\":503:508   */\n      dup2\n        /* \"#utility.yul\":492:508   */\n      swap1\n      pop\n        /* \"#utility.yul\":437:514   */\n      swap2\n      swap1\n      pop\n      jump\t// out\n        /* \"#utility.yul\":520:638   */\n    tag_141:\n        /* \"#utility.yul\":607:631   */\n      tag_176\n        /* \"#utility.yul\":625:630   */\n      dup2\n        /* \"#utility.yul\":607:631   */\n      tag_140\n      jump\t// in\n    tag_176:\n        /* \"#utility.yul\":602:605   */\n      dup3\n        /* \"#utility.yul\":595:632   */\n      mstore\n        /* \"#utility.yul\":520:638   */\n      pop\n      pop\n      jump\t// out\n        /* \"#utility.yul\":644:866   */\n    tag_31:\n        /* \"#utility.yul\":737:741   */\n      0x00\n        /* \"#utility.yul\":775:777   */\n      0x20\n        /* \"#utility.yul\":764:773   */\n      dup3\n        /* \"#utility.yul\":760:778   */\n      add\n        /* \"#utility.yul\":752:778   */\n      swap1\n      pop\n        /* \"#utility.yul\":788:859   */\n      tag_178\n        /* \"#utility.yul\":856:857   */\n      0x00\n        /* \"#utility.yul\":845:854   */\n      dup4\n        /* \"#utility.yul\":841:858   */\n      add\n        /* \"#utility.yul\":832:838   */\n      dup5\n        /* \"#utility.yul\":788:859   */\n      tag_141\n      jump\t// in\n    tag_178:\n        /* \"#utility.yul\":644:866   */\n      swap3\n      swap2\n      pop\n      pop\n      jump\t// out\n        /* \"#utility.yul\":872:962   */\n    tag_142:\n        /* \"#utility.yul\":906:913   */\n      0x00\n        /* \"#utility.yul\":949:954   */\n      dup2\n        /* \"#utility.yul\":942:955   */\n      iszero\n        /* \"#utility.yul\":935:956   */\n      iszero\n        /* \"#utility.yul\":924:956   */\n      swap1\n      pop\n        /* \"#utility.yul\":872:962   */\n      swap2\n      swap1\n      pop\n      jump\t// out\n        /* \"#utility.yul\":968:1077   */\n    tag_143:\n        /* \"#utility.yul\":1049:1070   */\n      tag_181\n        /* \"#utility.yul\":1064:1069   */\n      dup2\n        /* \"#utility.yul\":1049:1070   */\n      tag_142\n      jump\t// in\n    tag_181:\n        /* \"#utility.yul\":1044:1047   */\n      dup3\n        /* \"#utility.yul\":1037:1071   */\n      mstore\n        /* \"#utility.yul\":968:1077   */\n      pop\n      pop\n      jump\t// out\n        /* \"#utility.yul\":1083:1293   */\n    tag_35:\n        /* \"#utility.yul\":1170:1174   */\n      0x00\n        /* \"#utility.yul\":1208:1210   */\n      0x20\n        /* \"#utility.yul\":1197:1206   */\n      dup3\n        /* \"#utility.yul\":1193:1211   */\n      add\n        /* \"#utility.yul\":1185:1211   */\n      swap1\n      pop\n        /* \"#utility.yul\":1221:1286   */\n      tag_183\n        /* \"#utility.yul\":1283:1284   */\n      0x00\n        /* \"#utility.yul\":1272:1281   */\n      dup4\n        /* \"#utility.yul\":1268:1285   */\n      add\n        /* \"#utility.yul\":1259:1265   */\n      dup5\n        /* \"#utility.yul\":1221:1286   */\n      tag_143\n      jump\t// in\n    tag_183:\n        /* \"#utility.yul\":1083:1293   */\n      swap3\n      swap2\n      pop\n      pop\n      jump\t// out\n        /* \"#utility.yul\":1299:1425   */\n    tag_144:\n        /* \"#utility.yul\":1336:1343   */\n      0x00\n        /* \"#utility.yul\":1376:1418   */\n      0xffffffffffffffffffffffffffffffffffffffff\n        /* \"#utility.yul\":1369:1374   */\n      dup3\n        /* \"#utility.yul\":1365:1419   */\n      and\n        /* \"#utility.yul\":1354:1419   */\n      swap1\n      pop\n        /* \"#utility.yul\":1299:1425   */\n      swap2\n      swap1\n      pop\n      jump\t// out\n        /* \"#utility.yul\":1431:1527   */\n    tag_145:\n        /* \"#utility.yul\":1468:1475   */\n      0x00\n        /* \"#utility.yul\":1497:1521   */\n      tag_186\n        /* \"#utility.yul\":1515:1520   */\n      dup3\n        /* \"#utility.yul\":1497:1521   */\n      tag_144\n      jump\t// in\n    tag_186:\n        /* \"#utility.yul\":1486:1521   */\n      swap1\n      pop\n        /* \"#utility.yul\":1431:1527   */\n      swap2\n      swap1\n      pop\n      jump\t// out\n        /* \"#utility.yul\":1533:1651   */\n    tag_146:\n        /* \"#utility.yul\":1620:1644   */\n      tag_188\n        /* \"#utility.yul\":1638:1643   */\n      dup2\n        /* \"#utility.yul\":1620:1644   */\n      tag_145\n      jump\t// in\n    tag_188:\n        /* \"#utility.yul\":1615:1618   */\n      dup3\n        /* \"#utility.yul\":1608:1645   */\n      mstore\n        /* \"#utility.yul\":1533:1651   */\n      pop\n      pop\n      jump\t// out\n        /* \"#utility.yul\":1657:1879   */\n    tag_53:\n        /* \"#utility.yul\":1750:1754   */\n      0x00\n        /* \"#utility.yul\":1788:1790   */\n      0x20\n        /* \"#utility.yul\":1777:1786   */\n      dup3\n        /* \"#utility.yul\":1773:1791   */\n      add\n        /* \"#utility.yul\":1765:1791   */\n      swap1\n      pop\n        /* \"#utility.yul\":1801:1872   */\n      tag_190\n        /* \"#utility.yul\":1869:1870   */\n      0x00\n        /* \"#utility.yul\":1858:1867   */\n      dup4\n        /* \"#utility.yul\":1854:1871   */\n      add\n        /* \"#utility.yul\":1845:1851   */\n      dup5\n        /* \"#utility.yul\":1801:1872   */\n      tag_146\n      jump\t// in\n    tag_190:\n        /* \"#utility.yul\":1657:1879   */\n      swap3\n      swap2\n      pop\n      pop\n      jump\t// out\n        /* \"#utility.yul\":1966:2083   */\n    tag_148:\n        /* \"#utility.yul\":2075:2076   */\n      0x00\n        /* \"#utility.yul\":2072:2073   */\n      dup1\n        /* \"#utility.yul\":2065:2077   */\n      revert\n        /* \"#utility.yul\":2212:2334   */\n    tag_150:\n        /* \"#utility.yul\":2285:2309   */\n      tag_195\n        /* \"#utility.yul\":2303:2308   */\n      dup2\n        /* \"#utility.yul\":2285:2309   */\n      tag_145\n      jump\t// in\n    tag_195:\n        /* \"#utility.yul\":2278:2283   */\n      dup2\n        /* \"#utility.yul\":2275:2310   */\n      eq\n        /* \"#utility.yul\":2265:2328   */\n      tag_196\n      jumpi\n        /* \"#utility.yul\":2324:2325   */\n      0x00\n        /* \"#utility.yul\":2321:2322   */\n      dup1\n        /* \"#utility.yul\":2314:2326   */\n      revert\n        /* \"#utility.yul\":2265:2328   */\n    tag_196:\n        /* \"#utility.yul\":2212:2334   */\n      pop\n      jump\t// out\n        /* \"#utility.yul\":2340:2479   */\n    tag_151:\n        /* \"#utility.yul\":2386:2391   */\n      0x00\n        /* \"#utility.yul\":2424:2430   */\n      dup2\n        /* \"#utility.yul\":2411:2431   */\n      calldataload\n        /* \"#utility.yul\":2402:2431   */\n      swap1\n      pop\n        /* \"#utility.yul\":2440:2473   */\n      tag_198\n        /* \"#utility.yul\":2467:2472   */\n      dup2\n        /* \"#utility.yul\":2440:2473   */\n      tag_150\n      jump\t// in\n    tag_198:\n        /* \"#utility.yul\":2340:2479   */\n      swap3\n      swap2\n      pop\n      pop\n      jump\t// out\n        /* \"#utility.yul\":2485:2814   */\n    tag_59:\n        /* \"#utility.yul\":2544:2550   */\n      0x00\n        /* \"#utility.yul\":2593:2595   */\n      0x20\n        /* \"#utility.yul\":2581:2590   */\n      dup3\n        /* \"#utility.yul\":2572:2579   */\n      dup5\n        /* \"#utility.yul\":2568:2591   */\n      sub\n        /* \"#utility.yul\":2564:2596   */\n      slt\n        /* \"#utility.yul\":2561:2680   */\n      iszero\n      tag_200\n      jumpi\n        /* \"#utility.yul\":2599:2678   */\n      tag_201\n      tag_148\n      jump\t// in\n    tag_201:\n        /* \"#utility.yul\":2561:2680   */\n    tag_200:\n        /* \"#utility.yul\":2719:2720   */\n      0x00\n        /* \"#utility.yul\":2744:2797   */\n      tag_202\n        /* \"#utility.yul\":2789:2796   */\n      dup5\n        /* \"#utility.yul\":2780:2786   */\n      dup3\n        /* \"#utility.yul\":2769:2778   */\n      dup6\n        /* \"#utility.yul\":2765:2787   */\n      add\n        /* \"#utility.yul\":2744:2797   */\n      tag_151\n      jump\t// in\n    tag_202:\n        /* \"#utility.yul\":2734:2797   */\n      swap2\n      pop\n        /* \"#utility.yul\":2690:2807   */\n      pop\n        /* \"#utility.yul\":2485:2814   */\n      swap3\n      swap2\n      pop\n      pop\n      jump\t// out\n        /* \"#utility.yul\":2820:2938   */\n    tag_152:\n        /* \"#utility.yul\":2891:2913   */\n      tag_204\n        /* \"#utility.yul\":2907:2912   */\n      dup2\n        /* \"#utility.yul\":2891:2913   */\n      tag_138\n      jump\t// in\n    tag_204:\n        /* \"#utility.yul\":2884:2889   */\n      dup2\n        /* \"#utility.yul\":2881:2914   */\n      eq\n        /* \"#utility.yul\":2871:2932   */\n      tag_205\n      jumpi\n        /* \"#utility.yul\":2928:2929   */\n      0x00\n        /* \"#utility.yul\":2925:2926   */\n      dup1\n        /* \"#utility.yul\":2918:2930   */\n      revert\n        /* \"#utility.yul\":2871:2932   */\n    tag_205:\n        /* \"#utility.yul\":2820:2938   */\n      pop\n      jump\t// out\n        /* \"#utility.yul\":2944:3079   */\n    tag_153:\n        /* \"#utility.yul\":2988:2993   */\n      0x00\n        /* \"#utility.yul\":3026:3032   */\n      dup2\n        /* \"#utility.yul\":3013:3033   */\n      calldataload\n        /* \"#utility.yul\":3004:3033   */\n      swap1\n      pop\n        /* \"#utility.yul\":3042:3073   */\n      tag_207\n        /* \"#utility.yul\":3067:3072   */\n      dup2\n        /* \"#utility.yul\":3042:3073   */\n      tag_152\n      jump\t// in\n    tag_207:\n        /* \"#utility.yul\":2944:3079   */\n      swap3\n      swap2\n      pop\n      pop\n      jump\t// out\n        /* \"#utility.yul\":3085:3410   */\n    tag_64:\n        /* \"#utility.yul\":3142:3148   */\n      0x00\n        /* \"#utility.yul\":3191:3193   */\n      0x20\n        /* \"#utility.yul\":3179:3188   */\n      dup3\n        /* \"#utility.yul\":3170:3177   */\n      dup5\n        /* \"#utility.yul\":3166:3189   */\n      sub\n        /* \"#utility.yul\":3162:3194   */\n      slt\n        /* \"#utility.yul\":3159:3278   */\n      iszero\n      tag_209\n      jumpi\n        /* \"#utility.yul\":3197:3276   */\n      tag_210\n      tag_148\n      jump\t// in\n    tag_210:\n        /* \"#utility.yul\":3159:3278   */\n    tag_209:\n        /* \"#utility.yul\":3317:3318   */\n      0x00\n        /* \"#utility.yul\":3342:3393   */\n      tag_211\n        /* \"#utility.yul\":3385:3392   */\n      dup5\n        /* \"#utility.yul\":3376:3382   */\n      dup3\n        /* \"#utility.yul\":3365:3374   */\n      dup6\n        /* \"#utility.yul\":3361:3383   */\n      add\n        /* \"#utility.yul\":3342:3393   */\n      tag_153\n      jump\t// in\n    tag_211:\n        /* \"#utility.yul\":3332:3393   */\n      swap2\n      pop\n        /* \"#utility.yul\":3288:3403   */\n      pop\n        /* \"#utility.yul\":3085:3410   */\n      swap3\n      swap2\n      pop\n      pop\n      jump\t// out\n        /* \"#utility.yul\":3416:3585   */\n    tag_154:\n        /* \"#utility.yul\":3500:3511   */\n      0x00\n        /* \"#utility.yul\":3534:3540   */\n      dup3\n        /* \"#utility.yul\":3529:3532   */\n      dup3\n        /* \"#utility.yul\":3522:3541   */\n      mstore\n        /* \"#utility.yul\":3574:3578   */\n      0x20\n        /* \"#utility.yul\":3569:3572   */\n      dup3\n        /* \"#utility.yul\":3565:3579   */\n      add\n        /* \"#utility.yul\":3550:3579   */\n      swap1\n      pop\n        /* \"#utility.yul\":3416:3585   */\n      swap3\n      swap2\n      pop\n      pop\n      jump\t// out\n        /* \"#utility.yul\":3591:3750   */\n    tag_155:\n        /* \"#utility.yul\":3731:3742   */\n      0x6f76657220757365720000000000000000000000000000000000000000000000\n        /* \"#utility.yul\":3727:3728   */\n      0x00\n        /* \"#utility.yul\":3719:3725   */\n      dup3\n        /* \"#utility.yul\":3715:3729   */\n      add\n        /* \"#utility.yul\":3708:3743   */\n      mstore\n        /* \"#utility.yul\":3591:3750   */\n      pop\n      jump\t// out\n        /* \"#utility.yul\":3756:4121   */\n    tag_156:\n        /* \"#utility.yul\":3898:3901   */\n      0x00\n        /* \"#utility.yul\":3919:3985   */\n      tag_215\n        /* \"#utility.yul\":3983:3984   */\n      0x09\n        /* \"#utility.yul\":3978:3981   */\n      dup4\n        /* \"#utility.yul\":3919:3985   */\n      tag_154\n      jump\t// in\n    tag_215:\n        /* \"#utility.yul\":3912:3985   */\n      swap2\n      pop\n        /* \"#utility.yul\":3994:4087   */\n      tag_216\n        /* \"#utility.yul\":4083:4086   */\n      dup3\n        /* \"#utility.yul\":3994:4087   */\n      tag_155\n      jump\t// in\n    tag_216:\n        /* \"#utility.yul\":4112:4114   */\n      0x20\n        /* \"#utility.yul\":4107:4110   */\n      dup3\n        /* \"#utility.yul\":4103:4115   */\n      add\n        /* \"#utility.yul\":4096:4115   */\n      swap1\n      pop\n        /* \"#utility.yul\":3756:4121   */\n      swap2\n      swap1\n      pop\n      jump\t// out\n        /* \"#utility.yul\":4127:4546   */\n    tag_93:\n        /* \"#utility.yul\":4293:4297   */\n      0x00\n        /* \"#utility.yul\":4331:4333   */\n      0x20\n        /* \"#utility.yul\":4320:4329   */\n      dup3\n        /* \"#utility.yul\":4316:4334   */\n      add\n        /* \"#utility.yul\":4308:4334   */\n      swap1\n      pop\n        /* \"#utility.yul\":4380:4389   */\n      dup2\n        /* \"#utility.yul\":4374:4378   */\n      dup2\n        /* \"#utility.yul\":4370:4390   */\n      sub\n        /* \"#utility.yul\":4366:4367   */\n      0x00\n        /* \"#utility.yul\":4355:4364   */\n      dup4\n        /* \"#utility.yul\":4351:4368   */\n      add\n        /* \"#utility.yul\":4344:4391   */\n      mstore\n        /* \"#utility.yul\":4408:4539   */\n      tag_218\n        /* \"#utility.yul\":4534:4538   */\n      dup2\n        /* \"#utility.yul\":4408:4539   */\n      tag_156\n      jump\t// in\n    tag_218:\n        /* \"#utility.yul\":4400:4539   */\n      swap1\n      pop\n        /* \"#utility.yul\":4127:4546   */\n      swap2\n      swap1\n      pop\n      jump\t// out\n        /* \"#utility.yul\":4552:4714   */\n    tag_157:\n        /* \"#utility.yul\":4692:4706   */\n      0x4e6f7420656c696769626c650000000000000000000000000000000000000000\n        /* \"#utility.yul\":4688:4689   */\n      0x00\n        /* \"#utility.yul\":4680:4686   */\n      dup3\n        /* \"#utility.yul\":4676:4690   */\n      add\n        /* \"#utility.yul\":4669:4707   */\n      mstore\n        /* \"#utility.yul\":4552:4714   */\n      pop\n      jump\t// out\n        /* \"#utility.yul\":4720:5086   */\n    tag_158:\n        /* \"#utility.yul\":4862:4865   */\n      0x00\n        /* \"#utility.yul\":4883:4950   */\n      tag_221\n        /* \"#utility.yul\":4947:4949   */\n      0x0c\n        /* \"#utility.yul\":4942:4945   */\n      dup4\n        /* \"#utility.yul\":4883:4950   */\n      tag_154\n      jump\t// in\n    tag_221:\n        /* \"#utility.yul\":4876:4950   */\n      swap2\n      pop\n        /* \"#utility.yul\":4959:5052   */\n      tag_222\n        /* \"#utility.yul\":5048:5051   */\n      dup3\n        /* \"#utility.yul\":4959:5052   */\n      tag_157\n      jump\t// in\n    tag_222:\n        /* \"#utility.yul\":5077:5079   */\n      0x20\n        /* \"#utility.yul\":5072:5075   */\n      dup3\n        /* \"#utility.yul\":5068:5080   */\n      add\n        /* \"#utility.yul\":5061:5080   */\n      swap1\n      pop\n        /* \"#utility.yul\":4720:5086   */\n      swap2\n      swap1\n      pop\n      jump\t// out\n        /* \"#utility.yul\":5092:5511   */\n    tag_96:\n        /* \"#utility.yul\":5258:5262   */\n      0x00\n        /* \"#utility.yul\":5296:5298   */\n      0x20\n        /* \"#utility.yul\":5285:5294   */\n      dup3\n        /* \"#utility.yul\":5281:5299   */\n      add\n        /* \"#utility.yul\":5273:5299   */\n      swap1\n      pop\n        /* \"#utility.yul\":5345:5354   */\n      dup2\n        /* \"#utility.yul\":5339:5343   */\n      dup2\n        /* \"#utility.yul\":5335:5355   */\n      sub\n        /* \"#utility.yul\":5331:5332   */\n      0x00\n        /* \"#utility.yul\":5320:5329   */\n      dup4\n        /* \"#utility.yul\":5316:5333   */\n      add\n        /* \"#utility.yul\":5309:5356   */\n      mstore\n        /* \"#utility.yul\":5373:5504   */\n      tag_224\n        /* \"#utility.yul\":5499:5503   */\n      dup2\n        /* \"#utility.yul\":5373:5504   */\n      tag_158\n      jump\t// in\n    tag_224:\n        /* \"#utility.yul\":5365:5504   */\n      swap1\n      pop\n        /* \"#utility.yul\":5092:5511   */\n      swap2\n      swap1\n      pop\n      jump\t// out\n        /* \"#utility.yul\":5517:5678   */\n    tag_159:\n        /* \"#utility.yul\":5657:5670   */\n      0x6e6f742073746172746564000000000000000000000000000000000000000000\n        /* \"#utility.yul\":5653:5654   */\n      0x00\n        /* \"#utility.yul\":5645:5651   */\n      dup3\n        /* \"#utility.yul\":5641:5655   */\n      add\n        /* \"#utility.yul\":5634:5671   */\n      mstore\n        /* \"#utility.yul\":5517:5678   */\n      pop\n      jump\t// out\n        /* \"#utility.yul\":5684:6050   */\n    tag_160:\n        /* \"#utility.yul\":5826:5829   */\n      0x00\n        /* \"#utility.yul\":5847:5914   */\n      tag_227\n        /* \"#utility.yul\":5911:5913   */\n      0x0b\n        /* \"#utility.yul\":5906:5909   */\n      dup4\n        /* \"#utility.yul\":5847:5914   */\n      tag_154\n      jump\t// in\n    tag_227:\n        /* \"#utility.yul\":5840:5914   */\n      swap2\n      pop\n        /* \"#utility.yul\":5923:6016   */\n      tag_228\n        /* \"#utility.yul\":6012:6015   */\n      dup3\n        /* \"#utility.yul\":5923:6016   */\n      tag_159\n      jump\t// in\n    tag_228:\n        /* \"#utility.yul\":6041:6043   */\n      0x20\n        /* \"#utility.yul\":6036:6039   */\n      dup3\n        /* \"#utility.yul\":6032:6044   */\n      add\n        /* \"#utility.yul\":6025:6044   */\n      swap1\n      pop\n        /* \"#utility.yul\":5684:6050   */\n      swap2\n      swap1\n      pop\n      jump\t// out\n        /* \"#utility.yul\":6056:6475   */\n    tag_99:\n        /* \"#utility.yul\":6222:6226   */\n      0x00\n        /* \"#utility.yul\":6260:6262   */\n      0x20\n        /* \"#utility.yul\":6249:6258   */\n      dup3\n        /* \"#utility.yul\":6245:6263   */\n      add\n        /* \"#utility.yul\":6237:6263   */\n      swap1\n      pop\n        /* \"#utility.yul\":6309:6318   */\n      dup2\n        /* \"#utility.yul\":6303:6307   */\n      dup2\n        /* \"#utility.yul\":6299:6319   */\n      sub\n        /* \"#utility.yul\":6295:6296   */\n      0x00\n        /* \"#utility.yul\":6284:6293   */\n      dup4\n        /* \"#utility.yul\":6280:6297   */\n      add\n        /* \"#utility.yul\":6273:6320   */\n      mstore\n        /* \"#utility.yul\":6337:6468   */\n      tag_230\n        /* \"#utility.yul\":6463:6467   */\n      dup2\n        /* \"#utility.yul\":6337:6468   */\n      tag_160\n      jump\t// in\n    tag_230:\n        /* \"#utility.yul\":6329:6468   */\n      swap1\n      pop\n        /* \"#utility.yul\":6056:6475   */\n      swap2\n      swap1\n      pop\n      jump\t// out\n        /* \"#utility.yul\":6481:6643   */\n    tag_161:\n        /* \"#utility.yul\":6621:6635   */\n      0x616c7265616479206f7665720000000000000000000000000000000000000000\n        /* \"#utility.yul\":6617:6618   */\n      0x00\n        /* \"#utility.yul\":6609:6615   */\n      dup3\n        /* \"#utility.yul\":6605:6619   */\n      add\n        /* \"#utility.yul\":6598:6636   */\n      mstore\n        /* \"#utility.yul\":6481:6643   */\n      pop\n      jump\t// out\n        /* \"#utility.yul\":6649:7015   */\n    tag_162:\n        /* \"#utility.yul\":6791:6794   */\n      0x00\n        /* \"#utility.yul\":6812:6879   */\n      tag_233\n        /* \"#utility.yul\":6876:6878   */\n      0x0c\n        /* \"#utility.yul\":6871:6874   */\n      dup4\n        /* \"#utility.yul\":6812:6879   */\n      tag_154\n      jump\t// in\n    tag_233:\n        /* \"#utility.yul\":6805:6879   */\n      swap2\n      pop\n        /* \"#utility.yul\":6888:6981   */\n      tag_234\n        /* \"#utility.yul\":6977:6980   */\n      dup3\n        /* \"#utility.yul\":6888:6981   */\n      tag_161\n      jump\t// in\n    tag_234:\n        /* \"#utility.yul\":7006:7008   */\n      0x20\n        /* \"#utility.yul\":7001:7004   */\n      dup3\n        /* \"#utility.yul\":6997:7009   */\n      add\n        /* \"#utility.yul\":6990:7009   */\n      swap1\n      pop\n        /* \"#utility.yul\":6649:7015   */\n      swap2\n      swap1\n      pop\n      jump\t// out\n        /* \"#utility.yul\":7021:7440   */\n    tag_102:\n        /* \"#utility.yul\":7187:7191   */\n      0x00\n        /* \"#utility.yul\":7225:7227   */\n      0x20\n        /* \"#utility.yul\":7214:7223   */\n      dup3\n        /* \"#utility.yul\":7210:7228   */\n      add\n        /* \"#utility.yul\":7202:7228   */\n      swap1\n      pop\n        /* \"#utility.yul\":7274:7283   */\n      dup2\n        /* \"#utility.yul\":7268:7272   */\n      dup2\n        /* \"#utility.yul\":7264:7284   */\n      sub\n        /* \"#utility.yul\":7260:7261   */\n      0x00\n        /* \"#utility.yul\":7249:7258   */\n      dup4\n        /* \"#utility.yul\":7245:7262   */\n      add\n        /* \"#utility.yul\":7238:7285   */\n      mstore\n        /* \"#utility.yul\":7302:7433   */\n      tag_236\n        /* \"#utility.yul\":7428:7432   */\n      dup2\n        /* \"#utility.yul\":7302:7433   */\n      tag_162\n      jump\t// in\n    tag_236:\n        /* \"#utility.yul\":7294:7433   */\n      swap1\n      pop\n        /* \"#utility.yul\":7021:7440   */\n      swap2\n      swap1\n      pop\n      jump\t// out\n        /* \"#utility.yul\":7446:7605   */\n    tag_163:\n        /* \"#utility.yul\":7586:7597   */\n      0x6f7665722074696d650000000000000000000000000000000000000000000000\n        /* \"#utility.yul\":7582:7583   */\n      0x00\n        /* \"#utility.yul\":7574:7580   */\n      dup3\n        /* \"#utility.yul\":7570:7584   */\n      add\n        /* \"#utility.yul\":7563:7598   */\n      mstore\n        /* \"#utility.yul\":7446:7605   */\n      pop\n      jump\t// out\n        /* \"#utility.yul\":7611:7976   */\n    tag_164:\n        /* \"#utility.yul\":7753:7756   */\n      0x00\n        /* \"#utility.yul\":7774:7840   */\n      tag_239\n        /* \"#utility.yul\":7838:7839   */\n      0x09\n        /* \"#utility.yul\":7833:7836   */\n      dup4\n        /* \"#utility.yul\":7774:7840   */\n      tag_154\n      jump\t// in\n    tag_239:\n        /* \"#utility.yul\":7767:7840   */\n      swap2\n      pop\n        /* \"#utility.yul\":7849:7942   */\n      tag_240\n        /* \"#utility.yul\":7938:7941   */\n      dup3\n        /* \"#utility.yul\":7849:7942   */\n      tag_163\n      jump\t// in\n    tag_240:\n        /* \"#utility.yul\":7967:7969   */\n      0x20\n        /* \"#utility.yul\":7962:7965   */\n      dup3\n        /* \"#utility.yul\":7958:7970   */\n      add\n        /* \"#utility.yul\":7951:7970   */\n      swap1\n      pop\n        /* \"#utility.yul\":7611:7976   */\n      swap2\n      swap1\n      pop\n      jump\t// out\n        /* \"#utility.yul\":7982:8401   */\n    tag_105:\n        /* \"#utility.yul\":8148:8152   */\n      0x00\n        /* \"#utility.yul\":8186:8188   */\n      0x20\n        /* \"#utility.yul\":8175:8184   */\n      dup3\n        /* \"#utility.yul\":8171:8189   */\n      add\n        /* \"#utility.yul\":8163:8189   */\n      swap1\n      pop\n        /* \"#utility.yul\":8235:8244   */\n      dup2\n        /* \"#utility.yul\":8229:8233   */\n      dup2\n        /* \"#utility.yul\":8225:8245   */\n      sub\n        /* \"#utility.yul\":8221:8222   */\n      0x00\n        /* \"#utility.yul\":8210:8219   */\n      dup4\n        /* \"#utility.yul\":8206:8223   */\n      add\n        /* \"#utility.yul\":8199:8246   */\n      mstore\n        /* \"#utility.yul\":8263:8394   */\n      tag_242\n        /* \"#utility.yul\":8389:8393   */\n      dup2\n        /* \"#utility.yul\":8263:8394   */\n      tag_164\n      jump\t// in\n    tag_242:\n        /* \"#utility.yul\":8255:8394   */\n      swap1\n      pop\n        /* \"#utility.yul\":7982:8401   */\n      swap2\n      swap1\n      pop\n      jump\t// out\n        /* \"#utility.yul\":8407:8587   */\n    tag_165:\n        /* \"#utility.yul\":8455:8532   */\n      0x4e487b7100000000000000000000000000000000000000000000000000000000\n        /* \"#utility.yul\":8452:8453   */\n      0x00\n        /* \"#utility.yul\":8445:8533   */\n      mstore\n        /* \"#utility.yul\":8552:8556   */\n      0x11\n        /* \"#utility.yul\":8549:8550   */\n      0x04\n        /* \"#utility.yul\":8542:8557   */\n      mstore\n        /* \"#utility.yul\":8576:8580   */\n      0x24\n        /* \"#utility.yul\":8573:8574   */\n      0x00\n        /* \"#utility.yul\":8566:8581   */\n      revert\n        /* \"#utility.yul\":8593:8784   */\n    tag_107:\n        /* \"#utility.yul\":8633:8636   */\n      0x00\n        /* \"#utility.yul\":8652:8672   */\n      tag_245\n        /* \"#utility.yul\":8670:8671   */\n      dup3\n        /* \"#utility.yul\":8652:8672   */\n      tag_140\n      jump\t// in\n    tag_245:\n        /* \"#utility.yul\":8647:8672   */\n      swap2\n      pop\n        /* \"#utility.yul\":8686:8706   */\n      tag_246\n        /* \"#utility.yul\":8704:8705   */\n      dup4\n        /* \"#utility.yul\":8686:8706   */\n      tag_140\n      jump\t// in\n    tag_246:\n        /* \"#utility.yul\":8681:8706   */\n      swap3\n      pop\n        /* \"#utility.yul\":8729:8730   */\n      dup3\n        /* \"#utility.yul\":8726:8727   */\n      dup3\n        /* \"#utility.yul\":8722:8731   */\n      add\n        /* \"#utility.yul\":8715:8731   */\n      swap1\n      pop\n        /* \"#utility.yul\":8750:8753   */\n      dup1\n        /* \"#utility.yul\":8747:8748   */\n      dup3\n        /* \"#utility.yul\":8744:8754   */\n      gt\n        /* \"#utility.yul\":8741:8777   */\n      iszero\n      tag_247\n      jumpi\n        /* \"#utility.yul\":8757:8775   */\n      tag_248\n      tag_165\n      jump\t// in\n    tag_248:\n        /* \"#utility.yul\":8741:8777   */\n    tag_247:\n        /* \"#utility.yul\":8593:8784   */\n      swap3\n      swap2\n      pop\n      pop\n      jump\t// out\n        /* \"#utility.yul\":8790:9023   */\n    tag_110:\n        /* \"#utility.yul\":8829:8832   */\n      0x00\n        /* \"#utility.yul\":8852:8876   */\n      tag_250\n        /* \"#utility.yul\":8870:8875   */\n      dup3\n        /* \"#utility.yul\":8852:8876   */\n      tag_140\n      jump\t// in\n    tag_250:\n        /* \"#utility.yul\":8843:8876   */\n      swap2\n      pop\n        /* \"#utility.yul\":8898:8964   */\n      0xffffffffffffffffffffffffffffffffffffffffffffffffffffffffffffffff\n        /* \"#utility.yul\":8891:8896   */\n      dup3\n        /* \"#utility.yul\":8888:8965   */\n      sub\n        /* \"#utility.yul\":8885:8988   */\n      tag_251\n      jumpi\n        /* \"#utility.yul\":8968:8986   */\n      tag_252\n      tag_165\n      jump\t// in\n    tag_252:\n        /* \"#utility.yul\":8885:8988   */\n    tag_251:\n        /* \"#utility.yul\":9015:9016   */\n      0x01\n        /* \"#utility.yul\":9008:9013   */\n      dup3\n        /* \"#utility.yul\":9004:9017   */\n      add\n        /* \"#utility.yul\":8997:9017   */\n      swap1\n      pop\n        /* \"#utility.yul\":8790:9023   */\n      swap2\n      swap1\n      pop\n      jump\t// out\n        /* \"#utility.yul\":9029:9206   */\n    tag_166:\n        /* \"#utility.yul\":9169:9198   */\n      0x6e6f7420796574207468652064657369676e617465642074696d650000000000\n        /* \"#utility.yul\":9165:9166   */\n      0x00\n        /* \"#utility.yul\":9157:9163   */\n      dup3\n        /* \"#utility.yul\":9153:9167   */\n      add\n        /* \"#utility.yul\":9146:9199   */\n      mstore\n        /* \"#utility.yul\":9029:9206   */\n      pop\n      jump\t// out\n        /* \"#utility.yul\":9212:9578   */\n    tag_167:\n        /* \"#utility.yul\":9354:9357   */\n      0x00\n        /* \"#utility.yul\":9375:9442   */\n      tag_255\n        /* \"#utility.yul\":9439:9441   */\n      0x1b\n        /* \"#utility.yul\":9434:9437   */\n      dup4\n        /* \"#utility.yul\":9375:9442   */\n      tag_154\n      jump\t// in\n    tag_255:\n        /* \"#utility.yul\":9368:9442   */\n      swap2\n      pop\n        /* \"#utility.yul\":9451:9544   */\n      tag_256\n        /* \"#utility.yul\":9540:9543   */\n      dup3\n        /* \"#utility.yul\":9451:9544   */\n      tag_166\n      jump\t// in\n    tag_256:\n        /* \"#utility.yul\":9569:9571   */\n      0x20\n        /* \"#utility.yul\":9564:9567   */\n      dup3\n        /* \"#utility.yul\":9560:9572   */\n      add\n        /* \"#utility.yul\":9553:9572   */\n      swap1\n      pop\n        /* \"#utility.yul\":9212:9578   */\n      swap2\n      swap1\n      pop\n      jump\t// out\n        /* \"#utility.yul\":9584:10003   */\n    tag_122:\n        /* \"#utility.yul\":9750:9754   */\n      0x00\n        /* \"#utility.yul\":9788:9790   */\n      0x20\n        /* \"#utility.yul\":9777:9786   */\n      dup3\n        /* \"#utility.yul\":9773:9791   */\n      add\n        /* \"#utility.yul\":9765:9791   */\n      swap1\n      pop\n        /* \"#utility.yul\":9837:9846   */\n      dup2\n        /* \"#utility.yul\":9831:9835   */\n      dup2\n        /* \"#utility.yul\":9827:9847   */\n      sub\n        /* \"#utility.yul\":9823:9824   */\n      0x00\n        /* \"#utility.yul\":9812:9821   */\n      dup4\n        /* \"#utility.yul\":9808:9825   */\n      add\n        /* \"#utility.yul\":9801:9848   */\n      mstore\n        /* \"#utility.yul\":9865:9996   */\n      tag_258\n        /* \"#utility.yul\":9991:9995   */\n      dup2\n        /* \"#utility.yul\":9865:9996   */\n      tag_167\n      jump\t// in\n    tag_258:\n        /* \"#utility.yul\":9857:9996   */\n      swap1\n      pop\n        /* \"#utility.yul\":9584:10003   */\n      swap2\n      swap1\n      pop\n      jump\t// out\n\n    auxdata: 0xa26469706673582212204e7d4eaa2e81acb79569ab90721fa898a019d21dad3d7843611515a2adc711a664736f6c63430008150033\n}\n",
				"bytecode": {
					"linkReferences": {},
					"object": "608060405234801562000010575f80fd5b50604051620011f6380380620011f6833981810160405281019062000036919062000287565b805f73ffffffffffffffffffffffffffffffffffffffff168173ffffffffffffffffffffffffffffffffffffffff1603620000aa575f6040517f1e4fbdf7000000000000000000000000000000000000000000000000000000008152600401620000a1919062000307565b60405180910390fd5b620000bb81620000ee60201b60201c565b50835f60146101000a81548160ff021916908360ff16021790555082600181905550816002819055505050505062000322565b5f805f9054906101000a900473ffffffffffffffffffffffffffffffffffffffff169050815f806101000a81548173ffffffffffffffffffffffffffffffffffffffff021916908373ffffffffffffffffffffffffffffffffffffffff1602179055508173ffffffffffffffffffffffffffffffffffffffff168173ffffffffffffffffffffffffffffffffffffffff167f8be0079c531659141344cd1fd0a4f28419497f9722a3daafe3b4186f6b6457e060405160405180910390a35050565b5f80fd5b5f60ff82169050919050565b620001ca81620001b3565b8114620001d5575f80fd5b50565b5f81519050620001e881620001bf565b92915050565b5f819050919050565b6200020281620001ee565b81146200020d575f80fd5b50565b5f815190506200022081620001f7565b92915050565b5f73ffffffffffffffffffffffffffffffffffffffff82169050919050565b5f620002518262000226565b9050919050565b620002638162000245565b81146200026e575f80fd5b50565b5f81519050620002818162000258565b92915050565b5f805f8060808587031215620002a257620002a1620001af565b5b5f620002b187828801620001d8565b9450506020620002c48782880162000210565b9350506040620002d78782880162000210565b9250506060620002ea8782880162000271565b91505092959194509250565b620003018162000245565b82525050565b5f6020820190506200031c5f830184620002f6565b92915050565b610ec680620003305f395ff3fe608060405234801561000f575f80fd5b5060043610610114575f3560e01c80638e437c5f116100a0578063be9a65551161006f578063be9a65551461029a578063de292789146102a4578063ea173865146102c2578063efbe1c1c146102e0578063f2fde38b146102ea57610114565b80638e437c5f14610212578063a5ad21dd14610230578063b3f98adc14610260578063b9fbd33f1461027c57610114565b80633197cbb6116100e75780633197cbb614610190578063557ed1ba146101ae5780636f0470aa146101cc578063715018a6146101ea5780638da5cb5b146101f457610114565b8063056ae13b146101185780630fb5a6b41461013657806312fa6feb146101545780631f2698ab14610172575b5f80fd5b610120610306565b60405161012d91906109e6565b60405180910390f35b61013e610318565b60405161014b9190610a17565b60405180910390f35b61015c61031e565b6040516101699190610a4a565b60405180910390f35b61017a610331565b6040516101879190610a4a565b60405180910390f35b610198610343565b6040516101a59190610a17565b60405180910390f35b6101b6610349565b6040516101c39190610a17565b60405180910390f35b6101d4610350565b6040516101e191906109e6565b60405180910390f35b6101f2610362565b005b6101fc610375565b6040516102099190610aa2565b60405180910390f35b61021a61039c565b6040516102279190610a17565b60405180910390f35b61024a60048036038101906102459190610ae9565b6103a2565b60405161025791906109e6565b60405180910390f35b61027a60048036038101906102759190610b3e565b6103bf565b005b610284610679565b6040516102919190610a17565b60405180910390f35b6102a261067f565b005b6102ac6106e3565b6040516102b991906109e6565b60405180910390f35b6102ca610710565b6040516102d79190610a17565b60405180910390f35b6102e8610716565b005b61030460048036038101906102ff9190610ae9565b6107f8565b005b60085f9054906101000a900460ff1681565b60025481565b600360019054906101000a900460ff1681565b60035f9054906101000a900460ff1681565b60045481565b5f42905090565b5f60149054906101000a900460ff1681565b61036a61087c565b6103735f610903565b565b5f805f9054906101000a900473ffffffffffffffffffffffffffffffffffffffff16905090565b60015481565b6006602052805f5260405f205f915054906101000a900460ff1681565b60055460015411610405576040517f08c379a00000000000000000000000000000000000000000000000000000000081526004016103fc90610bc3565b60405180910390fd5b5f60065f3373ffffffffffffffffffffffffffffffffffffffff1673ffffffffffffffffffffffffffffffffffffffff1681526020019081526020015f205f9054906101000a900460ff1660ff1614610493576040517f08c379a000000000000000000000000000000000000000000000000000000000815260040161048a90610c2b565b60405180910390fd5b6001151560035f9054906101000a900460ff161515146104e8576040517f08c379a00000000000000000000000000000000000000000000000000000000081526004016104df90610c93565b60405180910390fd5b60011515600360019054906101000a900460ff1615150361053e576040517f08c379a000000000000000000000000000000000000000000000000000000000815260040161053590610cfb565b60405180910390fd5b6004544210610582576040517f08c379a000000000000000000000000000000000000000000000000000000000815260040161057990610d63565b60405180910390fd5b8060065f3373ffffffffffffffffffffffffffffffffffffffff1673ffffffffffffffffffffffffffffffffffffffff1681526020019081526020015f205f6101000a81548160ff021916908360ff160217905550600160075f8360ff1660ff1681526020019081526020015f205f8282546105fe9190610dae565b9250508190555060095460075f8360ff1660ff1681526020019081526020015f2054111561065f578060085f6101000a81548160ff021916908360ff16021790555060075f8260ff1660ff1681526020019081526020015f20546009819055505b60055f81548092919061067190610de1565b919050555050565b60055481565b61068761087c565b600160035f6101000a81548160ff021916908315150217905550600254426106af9190610dae565b6004819055507fd8cea0ecd56872ff072e771658b5682ffe4de16d752947f79597d600ea56f7a960405160405180910390a1565b5f600360019054906101000a900460ff166106fc575f80fd5b60085f9054906101000a900460ff16905090565b60095481565b6001151560035f9054906101000a900460ff1615151461076b576040517f08c379a000000000000000000000000000000000000000000000000000000000815260040161076290610c93565b60405180910390fd5b60045442116107af576040517f08c379a00000000000000000000000000000000000000000000000000000000081526004016107a690610e72565b60405180910390fd5b6001600360016101000a81548160ff0219169083151502179055507f477383f34069ce6129e1b6e0cbbdedb319ee49ef85677e403c26c37405ada46d60405160405180910390a1565b61080061087c565b5f73ffffffffffffffffffffffffffffffffffffffff168173ffffffffffffffffffffffffffffffffffffffff1603610870575f6040517f1e4fbdf70000000000000000000000000000000000000000000000000000000081526004016108679190610aa2565b60405180910390fd5b61087981610903565b50565b6108846109c4565b73ffffffffffffffffffffffffffffffffffffffff166108a2610375565b73ffffffffffffffffffffffffffffffffffffffff1614610901576108c56109c4565b6040517f118cdaa70000000000000000000000000000000000000000000000000000000081526004016108f89190610aa2565b60405180910390fd5b565b5f805f9054906101000a900473ffffffffffffffffffffffffffffffffffffffff169050815f806101000a81548173ffffffffffffffffffffffffffffffffffffffff021916908373ffffffffffffffffffffffffffffffffffffffff1602179055508173ffffffffffffffffffffffffffffffffffffffff168173ffffffffffffffffffffffffffffffffffffffff167f8be0079c531659141344cd1fd0a4f28419497f9722a3daafe3b4186f6b6457e060405160405180910390a35050565b5f33905090565b5f60ff82169050919050565b6109e0816109cb565b82525050565b5f6020820190506109f95f8301846109d7565b92915050565b5f819050919050565b610a11816109ff565b82525050565b5f602082019050610a2a5f830184610a08565b92915050565b5f8115159050919050565b610a4481610a30565b82525050565b5f602082019050610a5d5f830184610a3b565b92915050565b5f73ffffffffffffffffffffffffffffffffffffffff82169050919050565b5f610a8c82610a63565b9050919050565b610a9c81610a82565b82525050565b5f602082019050610ab55f830184610a93565b92915050565b5f80fd5b610ac881610a82565b8114610ad2575f80fd5b50565b5f81359050610ae381610abf565b92915050565b5f60208284031215610afe57610afd610abb565b5b5f610b0b84828501610ad5565b91505092915050565b610b1d816109cb565b8114610b27575f80fd5b50565b5f81359050610b3881610b14565b92915050565b5f60208284031215610b5357610b52610abb565b5b5f610b6084828501610b2a565b91505092915050565b5f82825260208201905092915050565b7f6f766572207573657200000000000000000000000000000000000000000000005f82015250565b5f610bad600983610b69565b9150610bb882610b79565b602082019050919050565b5f6020820190508181035f830152610bda81610ba1565b9050919050565b7f4e6f7420656c696769626c6500000000000000000000000000000000000000005f82015250565b5f610c15600c83610b69565b9150610c2082610be1565b602082019050919050565b5f6020820190508181035f830152610c4281610c09565b9050919050565b7f6e6f7420737461727465640000000000000000000000000000000000000000005f82015250565b5f610c7d600b83610b69565b9150610c8882610c49565b602082019050919050565b5f6020820190508181035f830152610caa81610c71565b9050919050565b7f616c7265616479206f76657200000000000000000000000000000000000000005f82015250565b5f610ce5600c83610b69565b9150610cf082610cb1565b602082019050919050565b5f6020820190508181035f830152610d1281610cd9565b9050919050565b7f6f7665722074696d6500000000000000000000000000000000000000000000005f82015250565b5f610d4d600983610b69565b9150610d5882610d19565b602082019050919050565b5f6020820190508181035f830152610d7a81610d41565b9050919050565b7f4e487b71000000000000000000000000000000000000000000000000000000005f52601160045260245ffd5b5f610db8826109ff565b9150610dc3836109ff565b9250828201905080821115610ddb57610dda610d81565b5b92915050565b5f610deb826109ff565b91507fffffffffffffffffffffffffffffffffffffffffffffffffffffffffffffffff8203610e1d57610e1c610d81565b5b600182019050919050565b7f6e6f7420796574207468652064657369676e617465642074696d6500000000005f82015250565b5f610e5c601b83610b69565b9150610e6782610e28565b602082019050919050565b5f6020820190508181035f830152610e8981610e50565b905091905056fea26469706673582212204e7d4eaa2e81acb79569ab90721fa898a019d21dad3d7843611515a2adc711a664736f6c63430008150033",
					"opcodes": "PUSH1 0x80 PUSH1 0x40 MSTORE CALLVALUE DUP1 ISZERO PUSH3 0x10 JUMPI PUSH0 DUP1 REVERT JUMPDEST POP PUSH1 0x40 MLOAD PUSH3 0x11F6 CODESIZE SUB DUP1 PUSH3 0x11F6 DUP4 CODECOPY DUP2 DUP2 ADD PUSH1 0x40 MSTORE DUP2 ADD SWAP1 PUSH3 0x36 SWAP2 SWAP1 PUSH3 0x287 JUMP JUMPDEST DUP1 PUSH0 PUSH20 0xFFFFFFFFFFFFFFFFFFFFFFFFFFFFFFFFFFFFFFFF AND DUP2 PUSH20 0xFFFFFFFFFFFFFFFFFFFFFFFFFFFFFFFFFFFFFFFF AND SUB PUSH3 0xAA JUMPI PUSH0 PUSH1 0x40 MLOAD PUSH32 0x1E4FBDF700000000000000000000000000000000000000000000000000000000 DUP2 MSTORE PUSH1 0x4 ADD PUSH3 0xA1 SWAP2 SWAP1 PUSH3 0x307 JUMP JUMPDEST PUSH1 0x40 MLOAD DUP1 SWAP2 SUB SWAP1 REVERT JUMPDEST PUSH3 0xBB DUP2 PUSH3 0xEE PUSH1 0x20 SHL PUSH1 0x20 SHR JUMP JUMPDEST POP DUP4 PUSH0 PUSH1 0x14 PUSH2 0x100 EXP DUP2 SLOAD DUP2 PUSH1 0xFF MUL NOT AND SWAP1 DUP4 PUSH1 0xFF AND MUL OR SWAP1 SSTORE POP DUP3 PUSH1 0x1 DUP2 SWAP1 SSTORE POP DUP2 PUSH1 0x2 DUP2 SWAP1 SSTORE POP POP POP POP POP PUSH3 0x322 JUMP JUMPDEST PUSH0 DUP1 PUSH0 SWAP1 SLOAD SWAP1 PUSH2 0x100 EXP SWAP1 DIV PUSH20 0xFFFFFFFFFFFFFFFFFFFFFFFFFFFFFFFFFFFFFFFF AND SWAP1 POP DUP2 PUSH0 DUP1 PUSH2 0x100 EXP DUP2 SLOAD DUP2 PUSH20 0xFFFFFFFFFFFFFFFFFFFFFFFFFFFFFFFFFFFFFFFF MUL NOT AND SWAP1 DUP4 PUSH20 0xFFFFFFFFFFFFFFFFFFFFFFFFFFFFFFFFFFFFFFFF AND MUL OR SWAP1 SSTORE POP DUP2 PUSH20 0xFFFFFFFFFFFFFFFFFFFFFFFFFFFFFFFFFFFFFFFF AND DUP2 PUSH20 0xFFFFFFFFFFFFFFFFFFFFFFFFFFFFFFFFFFFFFFFF AND PUSH32 0x8BE0079C531659141344CD1FD0A4F28419497F9722A3DAAFE3B4186F6B6457E0 PUSH1 0x40 MLOAD PUSH1 0x40 MLOAD DUP1 SWAP2 SUB SWAP1 LOG3 POP POP JUMP JUMPDEST PUSH0 DUP1 REVERT JUMPDEST PUSH0 PUSH1 0xFF DUP3 AND SWAP1 POP SWAP2 SWAP1 POP JUMP JUMPDEST PUSH3 0x1CA DUP2 PUSH3 0x1B3 JUMP JUMPDEST DUP2 EQ PUSH3 0x1D5 JUMPI PUSH0 DUP1 REVERT JUMPDEST POP JUMP JUMPDEST PUSH0 DUP2 MLOAD SWAP1 POP PUSH3 0x1E8 DUP2 PUSH3 0x1BF JUMP JUMPDEST SWAP3 SWAP2 POP POP JUMP JUMPDEST PUSH0 DUP2 SWAP1 POP SWAP2 SWAP1 POP JUMP JUMPDEST PUSH3 0x202 DUP2 PUSH3 0x1EE JUMP JUMPDEST DUP2 EQ PUSH3 0x20D JUMPI PUSH0 DUP1 REVERT JUMPDEST POP JUMP JUMPDEST PUSH0 DUP2 MLOAD SWAP1 POP PUSH3 0x220 DUP2 PUSH3 0x1F7 JUMP JUMPDEST SWAP3 SWAP2 POP POP JUMP JUMPDEST PUSH0 PUSH20 0xFFFFFFFFFFFFFFFFFFFFFFFFFFFFFFFFFFFFFFFF DUP3 AND SWAP1 POP SWAP2 SWAP1 POP JUMP JUMPDEST PUSH0 PUSH3 0x251 DUP3 PUSH3 0x226 JUMP JUMPDEST SWAP1 POP SWAP2 SWAP1 POP JUMP JUMPDEST PUSH3 0x263 DUP2 PUSH3 0x245 JUMP JUMPDEST DUP2 EQ PUSH3 0x26E JUMPI PUSH0 DUP1 REVERT JUMPDEST POP JUMP JUMPDEST PUSH0 DUP2 MLOAD SWAP1 POP PUSH3 0x281 DUP2 PUSH3 0x258 JUMP JUMPDEST SWAP3 SWAP2 POP POP JUMP JUMPDEST PUSH0 DUP1 PUSH0 DUP1 PUSH1 0x80 DUP6 DUP8 SUB SLT ISZERO PUSH3 0x2A2 JUMPI PUSH3 0x2A1 PUSH3 0x1AF JUMP JUMPDEST JUMPDEST PUSH0 PUSH3 0x2B1 DUP8 DUP3 DUP9 ADD PUSH3 0x1D8 JUMP JUMPDEST SWAP5 POP POP PUSH1 0x20 PUSH3 0x2C4 DUP8 DUP3 DUP9 ADD PUSH3 0x210 JUMP JUMPDEST SWAP4 POP POP PUSH1 0x40 PUSH3 0x2D7 DUP8 DUP3 DUP9 ADD PUSH3 0x210 JUMP JUMPDEST SWAP3 POP POP PUSH1 0x60 PUSH3 0x2EA DUP8 DUP3 DUP9 ADD PUSH3 0x271 JUMP JUMPDEST SWAP2 POP POP SWAP3 SWAP6 SWAP2 SWAP5 POP SWAP3 POP JUMP JUMPDEST PUSH3 0x301 DUP2 PUSH3 0x245 JUMP JUMPDEST DUP3 MSTORE POP POP JUMP JUMPDEST PUSH0 PUSH1 0x20 DUP3 ADD SWAP1 POP PUSH3 0x31C PUSH0 DUP4 ADD DUP5 PUSH3 0x2F6 JUMP JUMPDEST SWAP3 SWAP2 POP POP JUMP JUMPDEST PUSH2 0xEC6 DUP1 PUSH3 0x330 PUSH0 CODECOPY PUSH0 RETURN INVALID PUSH1 0x80 PUSH1 0x40 MSTORE CALLVALUE DUP1 ISZERO PUSH2 0xF JUMPI PUSH0 DUP1 REVERT JUMPDEST POP PUSH1 0x4 CALLDATASIZE LT PUSH2 0x114 JUMPI PUSH0 CALLDATALOAD PUSH1 0xE0 SHR DUP1 PUSH4 0x8E437C5F GT PUSH2 0xA0 JUMPI DUP1 PUSH4 0xBE9A6555 GT PUSH2 0x6F JUMPI DUP1 PUSH4 0xBE9A6555 EQ PUSH2 0x29A JUMPI DUP1 PUSH4 0xDE292789 EQ PUSH2 0x2A4 JUMPI DUP1 PUSH4 0xEA173865 EQ PUSH2 0x2C2 JUMPI DUP1 PUSH4 0xEFBE1C1C EQ PUSH2 0x2E0 JUMPI DUP1 PUSH4 0xF2FDE38B EQ PUSH2 0x2EA JUMPI PUSH2 0x114 JUMP JUMPDEST DUP1 PUSH4 0x8E437C5F EQ PUSH2 0x212 JUMPI DUP1 PUSH4 0xA5AD21DD EQ PUSH2 0x230 JUMPI DUP1 PUSH4 0xB3F98ADC EQ PUSH2 0x260 JUMPI DUP1 PUSH4 0xB9FBD33F EQ PUSH2 0x27C JUMPI PUSH2 0x114 JUMP JUMPDEST DUP1 PUSH4 0x3197CBB6 GT PUSH2 0xE7 JUMPI DUP1 PUSH4 0x3197CBB6 EQ PUSH2 0x190 JUMPI DUP1 PUSH4 0x557ED1BA EQ PUSH2 0x1AE JUMPI DUP1 PUSH4 0x6F0470AA EQ PUSH2 0x1CC JUMPI DUP1 PUSH4 0x715018A6 EQ PUSH2 0x1EA JUMPI DUP1 PUSH4 0x8DA5CB5B EQ PUSH2 0x1F4 JUMPI PUSH2 0x114 JUMP JUMPDEST DUP1 PUSH4 0x56AE13B EQ PUSH2 0x118 JUMPI DUP1 PUSH4 0xFB5A6B4 EQ PUSH2 0x136 JUMPI DUP1 PUSH4 0x12FA6FEB EQ PUSH2 0x154 JUMPI DUP1 PUSH4 0x1F2698AB EQ PUSH2 0x172 JUMPI JUMPDEST PUSH0 DUP1 REVERT JUMPDEST PUSH2 0x120 PUSH2 0x306 JUMP JUMPDEST PUSH1 0x40 MLOAD PUSH2 0x12D SWAP2 SWAP1 PUSH2 0x9E6 JUMP JUMPDEST PUSH1 0x40 MLOAD DUP1 SWAP2 SUB SWAP1 RETURN JUMPDEST PUSH2 0x13E PUSH2 0x318 JUMP JUMPDEST PUSH1 0x40 MLOAD PUSH2 0x14B SWAP2 SWAP1 PUSH2 0xA17 JUMP JUMPDEST PUSH1 0x40 MLOAD DUP1 SWAP2 SUB SWAP1 RETURN JUMPDEST PUSH2 0x15C PUSH2 0x31E JUMP JUMPDEST PUSH1 0x40 MLOAD PUSH2 0x169 SWAP2 SWAP1 PUSH2 0xA4A JUMP JUMPDEST PUSH1 0x40 MLOAD DUP1 SWAP2 SUB SWAP1 RETURN JUMPDEST PUSH2 0x17A PUSH2 0x331 JUMP JUMPDEST PUSH1 0x40 MLOAD PUSH2 0x187 SWAP2 SWAP1 PUSH2 0xA4A JUMP JUMPDEST PUSH1 0x40 MLOAD DUP1 SWAP2 SUB SWAP1 RETURN JUMPDEST PUSH2 0x198 PUSH2 0x343 JUMP JUMPDEST PUSH1 0x40 MLOAD PUSH2 0x1A5 SWAP2 SWAP1 PUSH2 0xA17 JUMP JUMPDEST PUSH1 0x40 MLOAD DUP1 SWAP2 SUB SWAP1 RETURN JUMPDEST PUSH2 0x1B6 PUSH2 0x349 JUMP JUMPDEST PUSH1 0x40 MLOAD PUSH2 0x1C3 SWAP2 SWAP1 PUSH2 0xA17 JUMP JUMPDEST PUSH1 0x40 MLOAD DUP1 SWAP2 SUB SWAP1 RETURN JUMPDEST PUSH2 0x1D4 PUSH2 0x350 JUMP JUMPDEST PUSH1 0x40 MLOAD PUSH2 0x1E1 SWAP2 SWAP1 PUSH2 0x9E6 JUMP JUMPDEST PUSH1 0x40 MLOAD DUP1 SWAP2 SUB SWAP1 RETURN JUMPDEST PUSH2 0x1F2 PUSH2 0x362 JUMP JUMPDEST STOP JUMPDEST PUSH2 0x1FC PUSH2 0x375 JUMP JUMPDEST PUSH1 0x40 MLOAD PUSH2 0x209 SWAP2 SWAP1 PUSH2 0xAA2 JUMP JUMPDEST PUSH1 0x40 MLOAD DUP1 SWAP2 SUB SWAP1 RETURN JUMPDEST PUSH2 0x21A PUSH2 0x39C JUMP JUMPDEST PUSH1 0x40 MLOAD PUSH2 0x227 SWAP2 SWAP1 PUSH2 0xA17 JUMP JUMPDEST PUSH1 0x40 MLOAD DUP1 SWAP2 SUB SWAP1 RETURN JUMPDEST PUSH2 0x24A PUSH1 0x4 DUP1 CALLDATASIZE SUB DUP2 ADD SWAP1 PUSH2 0x245 SWAP2 SWAP1 PUSH2 0xAE9 JUMP JUMPDEST PUSH2 0x3A2 JUMP JUMPDEST PUSH1 0x40 MLOAD PUSH2 0x257 SWAP2 SWAP1 PUSH2 0x9E6 JUMP JUMPDEST PUSH1 0x40 MLOAD DUP1 SWAP2 SUB SWAP1 RETURN JUMPDEST PUSH2 0x27A PUSH1 0x4 DUP1 CALLDATASIZE SUB DUP2 ADD SWAP1 PUSH2 0x275 SWAP2 SWAP1 PUSH2 0xB3E JUMP JUMPDEST PUSH2 0x3BF JUMP JUMPDEST STOP JUMPDEST PUSH2 0x284 PUSH2 0x679 JUMP JUMPDEST PUSH1 0x40 MLOAD PUSH2 0x291 SWAP2 SWAP1 PUSH2 0xA17 JUMP JUMPDEST PUSH1 0x40 MLOAD DUP1 SWAP2 SUB SWAP1 RETURN JUMPDEST PUSH2 0x2A2 PUSH2 0x67F JUMP JUMPDEST STOP JUMPDEST PUSH2 0x2AC PUSH2 0x6E3 JUMP JUMPDEST PUSH1 0x40 MLOAD PUSH2 0x2B9 SWAP2 SWAP1 PUSH2 0x9E6 JUMP JUMPDEST PUSH1 0x40 MLOAD DUP1 SWAP2 SUB SWAP1 RETURN JUMPDEST PUSH2 0x2CA PUSH2 0x710 JUMP JUMPDEST PUSH1 0x40 MLOAD PUSH2 0x2D7 SWAP2 SWAP1 PUSH2 0xA17 JUMP JUMPDEST PUSH1 0x40 MLOAD DUP1 SWAP2 SUB SWAP1 RETURN JUMPDEST PUSH2 0x2E8 PUSH2 0x716 JUMP JUMPDEST STOP JUMPDEST PUSH2 0x304 PUSH1 0x4 DUP1 CALLDATASIZE SUB DUP2 ADD SWAP1 PUSH2 0x2FF SWAP2 SWAP1 PUSH2 0xAE9 JUMP JUMPDEST PUSH2 0x7F8 JUMP JUMPDEST STOP JUMPDEST PUSH1 0x8 PUSH0 SWAP1 SLOAD SWAP1 PUSH2 0x100 EXP SWAP1 DIV PUSH1 0xFF AND DUP2 JUMP JUMPDEST PUSH1 0x2 SLOAD DUP2 JUMP JUMPDEST PUSH1 0x3 PUSH1 0x1 SWAP1 SLOAD SWAP1 PUSH2 0x100 EXP SWAP1 DIV PUSH1 0xFF AND DUP2 JUMP JUMPDEST PUSH1 0x3 PUSH0 SWAP1 SLOAD SWAP1 PUSH2 0x100 EXP SWAP1 DIV PUSH1 0xFF AND DUP2 JUMP JUMPDEST PUSH1 0x4 SLOAD DUP2 JUMP JUMPDEST PUSH0 TIMESTAMP SWAP1 POP SWAP1 JUMP JUMPDEST PUSH0 PUSH1 0x14 SWAP1 SLOAD SWAP1 PUSH2 0x100 EXP SWAP1 DIV PUSH1 0xFF AND DUP2 JUMP JUMPDEST PUSH2 0x36A PUSH2 0x87C JUMP JUMPDEST PUSH2 0x373 PUSH0 PUSH2 0x903 JUMP JUMPDEST JUMP JUMPDEST PUSH0 DUP1 PUSH0 SWAP1 SLOAD SWAP1 PUSH2 0x100 EXP SWAP1 DIV PUSH20 0xFFFFFFFFFFFFFFFFFFFFFFFFFFFFFFFFFFFFFFFF AND SWAP1 POP SWAP1 JUMP JUMPDEST PUSH1 0x1 SLOAD DUP2 JUMP JUMPDEST PUSH1 0x6 PUSH1 0x20 MSTORE DUP1 PUSH0 MSTORE PUSH1 0x40 PUSH0 KECCAK256 PUSH0 SWAP2 POP SLOAD SWAP1 PUSH2 0x100 EXP SWAP1 DIV PUSH1 0xFF AND DUP2 JUMP JUMPDEST PUSH1 0x5 SLOAD PUSH1 0x1 SLOAD GT PUSH2 0x405 JUMPI PUSH1 0x40 MLOAD PUSH32 0x8C379A000000000000000000000000000000000000000000000000000000000 DUP2 MSTORE PUSH1 0x4 ADD PUSH2 0x3FC SWAP1 PUSH2 0xBC3 JUMP JUMPDEST PUSH1 0x40 MLOAD DUP1 SWAP2 SUB SWAP1 REVERT JUMPDEST PUSH0 PUSH1 0x6 PUSH0 CALLER PUSH20 0xFFFFFFFFFFFFFFFFFFFFFFFFFFFFFFFFFFFFFFFF AND PUSH20 0xFFFFFFFFFFFFFFFFFFFFFFFFFFFFFFFFFFFFFFFF AND DUP2 MSTORE PUSH1 0x20 ADD SWAP1 DUP2 MSTORE PUSH1 0x20 ADD PUSH0 KECCAK256 PUSH0 SWAP1 SLOAD SWAP1 PUSH2 0x100 EXP SWAP1 DIV PUSH1 0xFF AND PUSH1 0xFF AND EQ PUSH2 0x493 JUMPI PUSH1 0x40 MLOAD PUSH32 0x8C379A000000000000000000000000000000000000000000000000000000000 DUP2 MSTORE PUSH1 0x4 ADD PUSH2 0x48A SWAP1 PUSH2 0xC2B JUMP JUMPDEST PUSH1 0x40 MLOAD DUP1 SWAP2 SUB SWAP1 REVERT JUMPDEST PUSH1 0x1 ISZERO ISZERO PUSH1 0x3 PUSH0 SWAP1 SLOAD SWAP1 PUSH2 0x100 EXP SWAP1 DIV PUSH1 0xFF AND ISZERO ISZERO EQ PUSH2 0x4E8 JUMPI PUSH1 0x40 MLOAD PUSH32 0x8C379A000000000000000000000000000000000000000000000000000000000 DUP2 MSTORE PUSH1 0x4 ADD PUSH2 0x4DF SWAP1 PUSH2 0xC93 JUMP JUMPDEST PUSH1 0x40 MLOAD DUP1 SWAP2 SUB SWAP1 REVERT JUMPDEST PUSH1 0x1 ISZERO ISZERO PUSH1 0x3 PUSH1 0x1 SWAP1 SLOAD SWAP1 PUSH2 0x100 EXP SWAP1 DIV PUSH1 0xFF AND ISZERO ISZERO SUB PUSH2 0x53E JUMPI PUSH1 0x40 MLOAD PUSH32 0x8C379A000000000000000000000000000000000000000000000000000000000 DUP2 MSTORE PUSH1 0x4 ADD PUSH2 0x535 SWAP1 PUSH2 0xCFB JUMP JUMPDEST PUSH1 0x40 MLOAD DUP1 SWAP2 SUB SWAP1 REVERT JUMPDEST PUSH1 0x4 SLOAD TIMESTAMP LT PUSH2 0x582 JUMPI PUSH1 0x40 MLOAD PUSH32 0x8C379A000000000000000000000000000000000000000000000000000000000 DUP2 MSTORE PUSH1 0x4 ADD PUSH2 0x579 SWAP1 PUSH2 0xD63 JUMP JUMPDEST PUSH1 0x40 MLOAD DUP1 SWAP2 SUB SWAP1 REVERT JUMPDEST DUP1 PUSH1 0x6 PUSH0 CALLER PUSH20 0xFFFFFFFFFFFFFFFFFFFFFFFFFFFFFFFFFFFFFFFF AND PUSH20 0xFFFFFFFFFFFFFFFFFFFFFFFFFFFFFFFFFFFFFFFF AND DUP2 MSTORE PUSH1 0x20 ADD SWAP1 DUP2 MSTORE PUSH1 0x20 ADD PUSH0 KECCAK256 PUSH0 PUSH2 0x100 EXP DUP2 SLOAD DUP2 PUSH1 0xFF MUL NOT AND SWAP1 DUP4 PUSH1 0xFF AND MUL OR SWAP1 SSTORE POP PUSH1 0x1 PUSH1 0x7 PUSH0 DUP4 PUSH1 0xFF AND PUSH1 0xFF AND DUP2 MSTORE PUSH1 0x20 ADD SWAP1 DUP2 MSTORE PUSH1 0x20 ADD PUSH0 KECCAK256 PUSH0 DUP3 DUP3 SLOAD PUSH2 0x5FE SWAP2 SWAP1 PUSH2 0xDAE JUMP JUMPDEST SWAP3 POP POP DUP2 SWAP1 SSTORE POP PUSH1 0x9 SLOAD PUSH1 0x7 PUSH0 DUP4 PUSH1 0xFF AND PUSH1 0xFF AND DUP2 MSTORE PUSH1 0x20 ADD SWAP1 DUP2 MSTORE PUSH1 0x20 ADD PUSH0 KECCAK256 SLOAD GT ISZERO PUSH2 0x65F JUMPI DUP1 PUSH1 0x8 PUSH0 PUSH2 0x100 EXP DUP2 SLOAD DUP2 PUSH1 0xFF MUL NOT AND SWAP1 DUP4 PUSH1 0xFF AND MUL OR SWAP1 SSTORE POP PUSH1 0x7 PUSH0 DUP3 PUSH1 0xFF AND PUSH1 0xFF AND DUP2 MSTORE PUSH1 0x20 ADD SWAP1 DUP2 MSTORE PUSH1 0x20 ADD PUSH0 KECCAK256 SLOAD PUSH1 0x9 DUP2 SWAP1 SSTORE POP JUMPDEST PUSH1 0x5 PUSH0 DUP2 SLOAD DUP1 SWAP3 SWAP2 SWAP1 PUSH2 0x671 SWAP1 PUSH2 0xDE1 JUMP JUMPDEST SWAP2 SWAP1 POP SSTORE POP POP JUMP JUMPDEST PUSH1 0x5 SLOAD DUP2 JUMP JUMPDEST PUSH2 0x687 PUSH2 0x87C JUMP JUMPDEST PUSH1 0x1 PUSH1 0x3 PUSH0 PUSH2 0x100 EXP DUP2 SLOAD DUP2 PUSH1 0xFF MUL NOT AND SWAP1 DUP4 ISZERO ISZERO MUL OR SWAP1 SSTORE POP PUSH1 0x2 SLOAD TIMESTAMP PUSH2 0x6AF SWAP2 SWAP1 PUSH2 0xDAE JUMP JUMPDEST PUSH1 0x4 DUP2 SWAP1 SSTORE POP PUSH32 0xD8CEA0ECD56872FF072E771658B5682FFE4DE16D752947F79597D600EA56F7A9 PUSH1 0x40 MLOAD PUSH1 0x40 MLOAD DUP1 SWAP2 SUB SWAP1 LOG1 JUMP JUMPDEST PUSH0 PUSH1 0x3 PUSH1 0x1 SWAP1 SLOAD SWAP1 PUSH2 0x100 EXP SWAP1 DIV PUSH1 0xFF AND PUSH2 0x6FC JUMPI PUSH0 DUP1 REVERT JUMPDEST PUSH1 0x8 PUSH0 SWAP1 SLOAD SWAP1 PUSH2 0x100 EXP SWAP1 DIV PUSH1 0xFF AND SWAP1 POP SWAP1 JUMP JUMPDEST PUSH1 0x9 SLOAD DUP2 JUMP JUMPDEST PUSH1 0x1 ISZERO ISZERO PUSH1 0x3 PUSH0 SWAP1 SLOAD SWAP1 PUSH2 0x100 EXP SWAP1 DIV PUSH1 0xFF AND ISZERO ISZERO EQ PUSH2 0x76B JUMPI PUSH1 0x40 MLOAD PUSH32 0x8C379A000000000000000000000000000000000000000000000000000000000 DUP2 MSTORE PUSH1 0x4 ADD PUSH2 0x762 SWAP1 PUSH2 0xC93 JUMP JUMPDEST PUSH1 0x40 MLOAD DUP1 SWAP2 SUB SWAP1 REVERT JUMPDEST PUSH1 0x4 SLOAD TIMESTAMP GT PUSH2 0x7AF JUMPI PUSH1 0x40 MLOAD PUSH32 0x8C379A000000000000000000000000000000000000000000000000000000000 DUP2 MSTORE PUSH1 0x4 ADD PUSH2 0x7A6 SWAP1 PUSH2 0xE72 JUMP JUMPDEST PUSH1 0x40 MLOAD DUP1 SWAP2 SUB SWAP1 REVERT JUMPDEST PUSH1 0x1 PUSH1 0x3 PUSH1 0x1 PUSH2 0x100 EXP DUP2 SLOAD DUP2 PUSH1 0xFF MUL NOT AND SWAP1 DUP4 ISZERO ISZERO MUL OR SWAP1 SSTORE POP PUSH32 0x477383F34069CE6129E1B6E0CBBDEDB319EE49EF85677E403C26C37405ADA46D PUSH1 0x40 MLOAD PUSH1 0x40 MLOAD DUP1 SWAP2 SUB SWAP1 LOG1 JUMP JUMPDEST PUSH2 0x800 PUSH2 0x87C JUMP JUMPDEST PUSH0 PUSH20 0xFFFFFFFFFFFFFFFFFFFFFFFFFFFFFFFFFFFFFFFF AND DUP2 PUSH20 0xFFFFFFFFFFFFFFFFFFFFFFFFFFFFFFFFFFFFFFFF AND SUB PUSH2 0x870 JUMPI PUSH0 PUSH1 0x40 MLOAD PUSH32 0x1E4FBDF700000000000000000000000000000000000000000000000000000000 DUP2 MSTORE PUSH1 0x4 ADD PUSH2 0x867 SWAP2 SWAP1 PUSH2 0xAA2 JUMP JUMPDEST PUSH1 0x40 MLOAD DUP1 SWAP2 SUB SWAP1 REVERT JUMPDEST PUSH2 0x879 DUP2 PUSH2 0x903 JUMP JUMPDEST POP JUMP JUMPDEST PUSH2 0x884 PUSH2 0x9C4 JUMP JUMPDEST PUSH20 0xFFFFFFFFFFFFFFFFFFFFFFFFFFFFFFFFFFFFFFFF AND PUSH2 0x8A2 PUSH2 0x375 JUMP JUMPDEST PUSH20 0xFFFFFFFFFFFFFFFFFFFFFFFFFFFFFFFFFFFFFFFF AND EQ PUSH2 0x901 JUMPI PUSH2 0x8C5 PUSH2 0x9C4 JUMP JUMPDEST PUSH1 0x40 MLOAD PUSH32 0x118CDAA700000000000000000000000000000000000000000000000000000000 DUP2 MSTORE PUSH1 0x4 ADD PUSH2 0x8F8 SWAP2 SWAP1 PUSH2 0xAA2 JUMP JUMPDEST PUSH1 0x40 MLOAD DUP1 SWAP2 SUB SWAP1 REVERT JUMPDEST JUMP JUMPDEST PUSH0 DUP1 PUSH0 SWAP1 SLOAD SWAP1 PUSH2 0x100 EXP SWAP1 DIV PUSH20 0xFFFFFFFFFFFFFFFFFFFFFFFFFFFFFFFFFFFFFFFF AND SWAP1 POP DUP2 PUSH0 DUP1 PUSH2 0x100 EXP DUP2 SLOAD DUP2 PUSH20 0xFFFFFFFFFFFFFFFFFFFFFFFFFFFFFFFFFFFFFFFF MUL NOT AND SWAP1 DUP4 PUSH20 0xFFFFFFFFFFFFFFFFFFFFFFFFFFFFFFFFFFFFFFFF AND MUL OR SWAP1 SSTORE POP DUP2 PUSH20 0xFFFFFFFFFFFFFFFFFFFFFFFFFFFFFFFFFFFFFFFF AND DUP2 PUSH20 0xFFFFFFFFFFFFFFFFFFFFFFFFFFFFFFFFFFFFFFFF AND PUSH32 0x8BE0079C531659141344CD1FD0A4F28419497F9722A3DAAFE3B4186F6B6457E0 PUSH1 0x40 MLOAD PUSH1 0x40 MLOAD DUP1 SWAP2 SUB SWAP1 LOG3 POP POP JUMP JUMPDEST PUSH0 CALLER SWAP1 POP SWAP1 JUMP JUMPDEST PUSH0 PUSH1 0xFF DUP3 AND SWAP1 POP SWAP2 SWAP1 POP JUMP JUMPDEST PUSH2 0x9E0 DUP2 PUSH2 0x9CB JUMP JUMPDEST DUP3 MSTORE POP POP JUMP JUMPDEST PUSH0 PUSH1 0x20 DUP3 ADD SWAP1 POP PUSH2 0x9F9 PUSH0 DUP4 ADD DUP5 PUSH2 0x9D7 JUMP JUMPDEST SWAP3 SWAP2 POP POP JUMP JUMPDEST PUSH0 DUP2 SWAP1 POP SWAP2 SWAP1 POP JUMP JUMPDEST PUSH2 0xA11 DUP2 PUSH2 0x9FF JUMP JUMPDEST DUP3 MSTORE POP POP JUMP JUMPDEST PUSH0 PUSH1 0x20 DUP3 ADD SWAP1 POP PUSH2 0xA2A PUSH0 DUP4 ADD DUP5 PUSH2 0xA08 JUMP JUMPDEST SWAP3 SWAP2 POP POP JUMP JUMPDEST PUSH0 DUP2 ISZERO ISZERO SWAP1 POP SWAP2 SWAP1 POP JUMP JUMPDEST PUSH2 0xA44 DUP2 PUSH2 0xA30 JUMP JUMPDEST DUP3 MSTORE POP POP JUMP JUMPDEST PUSH0 PUSH1 0x20 DUP3 ADD SWAP1 POP PUSH2 0xA5D PUSH0 DUP4 ADD DUP5 PUSH2 0xA3B JUMP JUMPDEST SWAP3 SWAP2 POP POP JUMP JUMPDEST PUSH0 PUSH20 0xFFFFFFFFFFFFFFFFFFFFFFFFFFFFFFFFFFFFFFFF DUP3 AND SWAP1 POP SWAP2 SWAP1 POP JUMP JUMPDEST PUSH0 PUSH2 0xA8C DUP3 PUSH2 0xA63 JUMP JUMPDEST SWAP1 POP SWAP2 SWAP1 POP JUMP JUMPDEST PUSH2 0xA9C DUP2 PUSH2 0xA82 JUMP JUMPDEST DUP3 MSTORE POP POP JUMP JUMPDEST PUSH0 PUSH1 0x20 DUP3 ADD SWAP1 POP PUSH2 0xAB5 PUSH0 DUP4 ADD DUP5 PUSH2 0xA93 JUMP JUMPDEST SWAP3 SWAP2 POP POP JUMP JUMPDEST PUSH0 DUP1 REVERT JUMPDEST PUSH2 0xAC8 DUP2 PUSH2 0xA82 JUMP JUMPDEST DUP2 EQ PUSH2 0xAD2 JUMPI PUSH0 DUP1 REVERT JUMPDEST POP JUMP JUMPDEST PUSH0 DUP2 CALLDATALOAD SWAP1 POP PUSH2 0xAE3 DUP2 PUSH2 0xABF JUMP JUMPDEST SWAP3 SWAP2 POP POP JUMP JUMPDEST PUSH0 PUSH1 0x20 DUP3 DUP5 SUB SLT ISZERO PUSH2 0xAFE JUMPI PUSH2 0xAFD PUSH2 0xABB JUMP JUMPDEST JUMPDEST PUSH0 PUSH2 0xB0B DUP5 DUP3 DUP6 ADD PUSH2 0xAD5 JUMP JUMPDEST SWAP2 POP POP SWAP3 SWAP2 POP POP JUMP JUMPDEST PUSH2 0xB1D DUP2 PUSH2 0x9CB JUMP JUMPDEST DUP2 EQ PUSH2 0xB27 JUMPI PUSH0 DUP1 REVERT JUMPDEST POP JUMP JUMPDEST PUSH0 DUP2 CALLDATALOAD SWAP1 POP PUSH2 0xB38 DUP2 PUSH2 0xB14 JUMP JUMPDEST SWAP3 SWAP2 POP POP JUMP JUMPDEST PUSH0 PUSH1 0x20 DUP3 DUP5 SUB SLT ISZERO PUSH2 0xB53 JUMPI PUSH2 0xB52 PUSH2 0xABB JUMP JUMPDEST JUMPDEST PUSH0 PUSH2 0xB60 DUP5 DUP3 DUP6 ADD PUSH2 0xB2A JUMP JUMPDEST SWAP2 POP POP SWAP3 SWAP2 POP POP JUMP JUMPDEST PUSH0 DUP3 DUP3 MSTORE PUSH1 0x20 DUP3 ADD SWAP1 POP SWAP3 SWAP2 POP POP JUMP JUMPDEST PUSH32 0x6F76657220757365720000000000000000000000000000000000000000000000 PUSH0 DUP3 ADD MSTORE POP JUMP JUMPDEST PUSH0 PUSH2 0xBAD PUSH1 0x9 DUP4 PUSH2 0xB69 JUMP JUMPDEST SWAP2 POP PUSH2 0xBB8 DUP3 PUSH2 0xB79 JUMP JUMPDEST PUSH1 0x20 DUP3 ADD SWAP1 POP SWAP2 SWAP1 POP JUMP JUMPDEST PUSH0 PUSH1 0x20 DUP3 ADD SWAP1 POP DUP2 DUP2 SUB PUSH0 DUP4 ADD MSTORE PUSH2 0xBDA DUP2 PUSH2 0xBA1 JUMP JUMPDEST SWAP1 POP SWAP2 SWAP1 POP JUMP JUMPDEST PUSH32 0x4E6F7420656C696769626C650000000000000000000000000000000000000000 PUSH0 DUP3 ADD MSTORE POP JUMP JUMPDEST PUSH0 PUSH2 0xC15 PUSH1 0xC DUP4 PUSH2 0xB69 JUMP JUMPDEST SWAP2 POP PUSH2 0xC20 DUP3 PUSH2 0xBE1 JUMP JUMPDEST PUSH1 0x20 DUP3 ADD SWAP1 POP SWAP2 SWAP1 POP JUMP JUMPDEST PUSH0 PUSH1 0x20 DUP3 ADD SWAP1 POP DUP2 DUP2 SUB PUSH0 DUP4 ADD MSTORE PUSH2 0xC42 DUP2 PUSH2 0xC09 JUMP JUMPDEST SWAP1 POP SWAP2 SWAP1 POP JUMP JUMPDEST PUSH32 0x6E6F742073746172746564000000000000000000000000000000000000000000 PUSH0 DUP3 ADD MSTORE POP JUMP JUMPDEST PUSH0 PUSH2 0xC7D PUSH1 0xB DUP4 PUSH2 0xB69 JUMP JUMPDEST SWAP2 POP PUSH2 0xC88 DUP3 PUSH2 0xC49 JUMP JUMPDEST PUSH1 0x20 DUP3 ADD SWAP1 POP SWAP2 SWAP1 POP JUMP JUMPDEST PUSH0 PUSH1 0x20 DUP3 ADD SWAP1 POP DUP2 DUP2 SUB PUSH0 DUP4 ADD MSTORE PUSH2 0xCAA DUP2 PUSH2 0xC71 JUMP JUMPDEST SWAP1 POP SWAP2 SWAP1 POP JUMP JUMPDEST PUSH32 0x616C7265616479206F7665720000000000000000000000000000000000000000 PUSH0 DUP3 ADD MSTORE POP JUMP JUMPDEST PUSH0 PUSH2 0xCE5 PUSH1 0xC DUP4 PUSH2 0xB69 JUMP JUMPDEST SWAP2 POP PUSH2 0xCF0 DUP3 PUSH2 0xCB1 JUMP JUMPDEST PUSH1 0x20 DUP3 ADD SWAP1 POP SWAP2 SWAP1 POP JUMP JUMPDEST PUSH0 PUSH1 0x20 DUP3 ADD SWAP1 POP DUP2 DUP2 SUB PUSH0 DUP4 ADD MSTORE PUSH2 0xD12 DUP2 PUSH2 0xCD9 JUMP JUMPDEST SWAP1 POP SWAP2 SWAP1 POP JUMP JUMPDEST PUSH32 0x6F7665722074696D650000000000000000000000000000000000000000000000 PUSH0 DUP3 ADD MSTORE POP JUMP JUMPDEST PUSH0 PUSH2 0xD4D PUSH1 0x9 DUP4 PUSH2 0xB69 JUMP JUMPDEST SWAP2 POP PUSH2 0xD58 DUP3 PUSH2 0xD19 JUMP JUMPDEST PUSH1 0x20 DUP3 ADD SWAP1 POP SWAP2 SWAP1 POP JUMP JUMPDEST PUSH0 PUSH1 0x20 DUP3 ADD SWAP1 POP DUP2 DUP2 SUB PUSH0 DUP4 ADD MSTORE PUSH2 0xD7A DUP2 PUSH2 0xD41 JUMP JUMPDEST SWAP1 POP SWAP2 SWAP1 POP JUMP JUMPDEST PUSH32 0x4E487B7100000000000000000000000000000000000000000000000000000000 PUSH0 MSTORE PUSH1 0x11 PUSH1 0x4 MSTORE PUSH1 0x24 PUSH0 REVERT JUMPDEST PUSH0 PUSH2 0xDB8 DUP3 PUSH2 0x9FF JUMP JUMPDEST SWAP2 POP PUSH2 0xDC3 DUP4 PUSH2 0x9FF JUMP JUMPDEST SWAP3 POP DUP3 DUP3 ADD SWAP1 POP DUP1 DUP3 GT ISZERO PUSH2 0xDDB JUMPI PUSH2 0xDDA PUSH2 0xD81 JUMP JUMPDEST JUMPDEST SWAP3 SWAP2 POP POP JUMP JUMPDEST PUSH0 PUSH2 0xDEB DUP3 PUSH2 0x9FF JUMP JUMPDEST SWAP2 POP PUSH32 0xFFFFFFFFFFFFFFFFFFFFFFFFFFFFFFFFFFFFFFFFFFFFFFFFFFFFFFFFFFFFFFFF DUP3 SUB PUSH2 0xE1D JUMPI PUSH2 0xE1C PUSH2 0xD81 JUMP JUMPDEST JUMPDEST PUSH1 0x1 DUP3 ADD SWAP1 POP SWAP2 SWAP1 POP JUMP JUMPDEST PUSH32 0x6E6F7420796574207468652064657369676E617465642074696D650000000000 PUSH0 DUP3 ADD MSTORE POP JUMP JUMPDEST PUSH0 PUSH2 0xE5C PUSH1 0x1B DUP4 PUSH2 0xB69 JUMP JUMPDEST SWAP2 POP PUSH2 0xE67 DUP3 PUSH2 0xE28 JUMP JUMPDEST PUSH1 0x20 DUP3 ADD SWAP1 POP SWAP2 SWAP1 POP JUMP JUMPDEST PUSH0 PUSH1 0x20 DUP3 ADD SWAP1 POP DUP2 DUP2 SUB PUSH0 DUP4 ADD MSTORE PUSH2 0xE89 DUP2 PUSH2 0xE50 JUMP JUMPDEST SWAP1 POP SWAP2 SWAP1 POP JUMP INVALID LOG2 PUSH5 0x6970667358 0x22 SLT KECCAK256 0x4E PUSH30 0x4EAA2E81ACB79569AB90721FA898A019D21DAD3D7843611515A2ADC711A6 PUSH5 0x736F6C6343 STOP ADDMOD ISZERO STOP CALLER "
				},
				"gasEstimates": {
					"creation": {
						"codeDepositCost": "756400",
						"executionCost": "infinite",
						"totalCost": "infinite"
					},
					"external": {
						"candidates()": "2583",
						"duration()": "2471",
						"end()": "29617",
						"endTime()": "2448",
						"ended()": "2585",
						"getResult()": "4720",
						"getTime()": "376",
						"highestCandidate()": "2490",
						"highestScore()": "2491",
						"owner()": "2626",
						"renounceOwnership()": "infinite",
						"start()": "infinite",
						"started()": "2556",
						"transferOwnership(address)": "infinite",
						"turnout()": "2448",
						"vote(uint8)": "infinite",
						"votedMap(address)": "2878",
						"votedNum()": "2514"
					}
				},
				"methodIdentifiers": {
					"candidates()": "6f0470aa",
					"duration()": "0fb5a6b4",
					"end()": "efbe1c1c",
					"endTime()": "3197cbb6",
					"ended()": "12fa6feb",
					"getResult()": "de292789",
					"getTime()": "557ed1ba",
					"highestCandidate()": "056ae13b",
					"highestScore()": "ea173865",
					"owner()": "8da5cb5b",
					"renounceOwnership()": "715018a6",
					"start()": "be9a6555",
					"started()": "1f2698ab",
					"transferOwnership(address)": "f2fde38b",
					"turnout()": "8e437c5f",
					"vote(uint8)": "b3f98adc",
					"votedMap(address)": "a5ad21dd",
					"votedNum()": "b9fbd33f"
				}
			},
			"storageLayout": {
				"storage": [
					{
						"astId": 8,
						"contract": "Defi/defi-theory/contracts/004_Vote.sol:Poll",
						"label": "_owner",
						"offset": 0,
						"slot": "0",
						"type": "t_address"
					},
					{
						"astId": 176,
						"contract": "Defi/defi-theory/contracts/004_Vote.sol:Poll",
						"label": "candidates",
						"offset": 20,
						"slot": "0",
						"type": "t_uint8"
					},
					{
						"astId": 178,
						"contract": "Defi/defi-theory/contracts/004_Vote.sol:Poll",
						"label": "turnout",
						"offset": 0,
						"slot": "1",
						"type": "t_uint256"
					},
					{
						"astId": 180,
						"contract": "Defi/defi-theory/contracts/004_Vote.sol:Poll",
						"label": "duration",
						"offset": 0,
						"slot": "2",
						"type": "t_uint256"
					},
					{
						"astId": 182,
						"contract": "Defi/defi-theory/contracts/004_Vote.sol:Poll",
						"label": "started",
						"offset": 0,
						"slot": "3",
						"type": "t_bool"
					},
					{
						"astId": 184,
						"contract": "Defi/defi-theory/contracts/004_Vote.sol:Poll",
						"label": "ended",
						"offset": 1,
						"slot": "3",
						"type": "t_bool"
					},
					{
						"astId": 186,
						"contract": "Defi/defi-theory/contracts/004_Vote.sol:Poll",
						"label": "endTime",
						"offset": 0,
						"slot": "4",
						"type": "t_uint256"
					},
					{
						"astId": 188,
						"contract": "Defi/defi-theory/contracts/004_Vote.sol:Poll",
						"label": "votedNum",
						"offset": 0,
						"slot": "5",
						"type": "t_uint256"
					},
					{
						"astId": 192,
						"contract": "Defi/defi-theory/contracts/004_Vote.sol:Poll",
						"label": "votedMap",
						"offset": 0,
						"slot": "6",
						"type": "t_mapping(t_address,t_uint8)"
					},
					{
						"astId": 196,
						"contract": "Defi/defi-theory/contracts/004_Vote.sol:Poll",
						"label": "scoreMap",
						"offset": 0,
						"slot": "7",
						"type": "t_mapping(t_uint8,t_uint256)"
					},
					{
						"astId": 198,
						"contract": "Defi/defi-theory/contracts/004_Vote.sol:Poll",
						"label": "highestCandidate",
						"offset": 0,
						"slot": "8",
						"type": "t_uint8"
					},
					{
						"astId": 200,
						"contract": "Defi/defi-theory/contracts/004_Vote.sol:Poll",
						"label": "highestScore",
						"offset": 0,
						"slot": "9",
						"type": "t_uint256"
					}
				],
				"types": {
					"t_address": {
						"encoding": "inplace",
						"label": "address",
						"numberOfBytes": "20"
					},
					"t_bool": {
						"encoding": "inplace",
						"label": "bool",
						"numberOfBytes": "1"
					},
					"t_mapping(t_address,t_uint8)": {
						"encoding": "mapping",
						"key": "t_address",
						"label": "mapping(address => uint8)",
						"numberOfBytes": "32",
						"value": "t_uint8"
					},
					"t_mapping(t_uint8,t_uint256)": {
						"encoding": "mapping",
						"key": "t_uint8",
						"label": "mapping(uint8 => uint256)",
						"numberOfBytes": "32",
						"value": "t_uint256"
					},
					"t_uint256": {
						"encoding": "inplace",
						"label": "uint256",
						"numberOfBytes": "32"
					},
					"t_uint8": {
						"encoding": "inplace",
						"label": "uint8",
						"numberOfBytes": "1"
					}
				}
			},
			"userdoc": {
				"kind": "user",
				"methods": {},
				"version": 1
			}
		}
	}
}