{
	"class/timeing/knowledgePoint.sol": {
		"float": {
			"abi": [
				{
					"constant": true,
					"inputs": [
						{
							"internalType": "bytes2",
							"name": "_b",
							"type": "bytes2"
						}
					],
					"name": "check_bytes2",
					"outputs": [
						{
							"internalType": "bool",
							"name": "",
							"type": "bool"
						}
					],
					"payable": false,
					"stateMutability": "view",
					"type": "function"
				},
				{
					"constant": true,
					"inputs": [
						{
							"internalType": "uint256",
							"name": "_a",
							"type": "uint256"
						}
					],
					"name": "check_const",
					"outputs": [
						{
							"internalType": "bool",
							"name": "",
							"type": "bool"
						}
					],
					"payable": false,
					"stateMutability": "view",
					"type": "function"
				},
				{
					"constant": true,
					"inputs": [
						{
							"internalType": "uint256",
							"name": "_a",
							"type": "uint256"
						}
					],
					"name": "check_var",
					"outputs": [
						{
							"internalType": "bool",
							"name": "",
							"type": "bool"
						}
					],
					"payable": false,
					"stateMutability": "view",
					"type": "function"
				},
				{
					"constant": false,
					"inputs": [
						{
							"internalType": "uint256",
							"name": "_a",
							"type": "uint256"
						},
						{
							"internalType": "uint256",
							"name": "_a2",
							"type": "uint256"
						},
						{
							"internalType": "bytes2",
							"name": "_b",
							"type": "bytes2"
						}
					],
					"name": "isCompleted",
					"outputs": [],
					"payable": false,
					"stateMutability": "nonpayable",
					"type": "function"
				},
				{
					"constant": true,
					"inputs": [],
					"name": "score",
					"outputs": [
						{
							"internalType": "uint256",
							"name": "",
							"type": "uint256"
						}
					],
					"payable": false,
					"stateMutability": "view",
					"type": "function"
				}
			],
			"devdoc": {
				"methods": {}
			},
			"evm": {
				"assembly": "    /* \"class/timeing/knowledgePoint.sol\":28:740  contract float {\r... */\n  mstore(0x40, 0x80)\n    /* \"class/timeing/knowledgePoint.sol\":59:60  5 */\n  0x05\n    /* \"class/timeing/knowledgePoint.sol\":50:60  uint c = 5 */\n  0x00\n  sstore\n    /* \"class/timeing/knowledgePoint.sol\":67:83  bytes2  b = \"12\" */\n  0x3132000000000000000000000000000000000000000000000000000000000000\n  0x01\n  exp(0x0100, 0x00)\n  dup2\n  sload\n  dup2\n  0xffff\n  mul\n  not\n  and\n  swap1\n  dup4\n  0xf0\n  shr\n  mul\n  or\n  swap1\n  sstore\n  pop\n    /* \"class/timeing/knowledgePoint.sol\":28:740  contract float {\r... */\n  callvalue\n    /* \"--CODEGEN--\":8:17   */\n  dup1\n    /* \"--CODEGEN--\":5:7   */\n  iszero\n  tag_1\n  jumpi\n    /* \"--CODEGEN--\":30:31   */\n  0x00\n    /* \"--CODEGEN--\":27:28   */\n  dup1\n    /* \"--CODEGEN--\":20:32   */\n  revert\n    /* \"--CODEGEN--\":5:7   */\ntag_1:\n    /* \"class/timeing/knowledgePoint.sol\":28:740  contract float {\r... */\n  pop\n  dataSize(sub_0)\n  dup1\n  dataOffset(sub_0)\n  0x00\n  codecopy\n  0x00\n  return\nstop\n\nsub_0: assembly {\n        /* \"class/timeing/knowledgePoint.sol\":28:740  contract float {\r... */\n      mstore(0x40, 0x80)\n      callvalue\n        /* \"--CODEGEN--\":8:17   */\n      dup1\n        /* \"--CODEGEN--\":5:7   */\n      iszero\n      tag_1\n      jumpi\n        /* \"--CODEGEN--\":30:31   */\n      0x00\n        /* \"--CODEGEN--\":27:28   */\n      dup1\n        /* \"--CODEGEN--\":20:32   */\n      revert\n        /* \"--CODEGEN--\":5:7   */\n    tag_1:\n        /* \"class/timeing/knowledgePoint.sol\":28:740  contract float {\r... */\n      pop\n      jumpi(tag_2, lt(calldatasize, 0x04))\n      shr(0xe0, calldataload(0x00))\n      dup1\n      0x0f155b12\n      eq\n      tag_3\n      jumpi\n      dup1\n      0x764eefbc\n      eq\n      tag_4\n      jumpi\n      dup1\n      0xb392313b\n      eq\n      tag_5\n      jumpi\n      dup1\n      0xe37256d4\n      eq\n      tag_6\n      jumpi\n      dup1\n      0xefedc669\n      eq\n      tag_7\n      jumpi\n    tag_2:\n      0x00\n      dup1\n      revert\n        /* \"class/timeing/knowledgePoint.sol\":123:236  function check_var(uint _a) public view returns(bool){\r... */\n    tag_3:\n      tag_8\n      0x04\n      dup1\n      calldatasize\n      sub\n        /* \"--CODEGEN--\":13:15   */\n      0x20\n        /* \"--CODEGEN--\":8:11   */\n      dup2\n        /* \"--CODEGEN--\":5:16   */\n      lt\n        /* \"--CODEGEN--\":2:4   */\n      iszero\n      tag_9\n      jumpi\n        /* \"--CODEGEN--\":29:30   */\n      0x00\n        /* \"--CODEGEN--\":26:27   */\n      dup1\n        /* \"--CODEGEN--\":19:31   */\n      revert\n        /* \"--CODEGEN--\":2:4   */\n    tag_9:\n        /* \"class/timeing/knowledgePoint.sol\":123:236  function check_var(uint _a) public view returns(bool){\r... */\n      dup2\n      add\n      swap1\n      dup1\n      dup1\n      calldataload\n      swap1\n      0x20\n      add\n      swap1\n      swap3\n      swap2\n      swap1\n      pop\n      pop\n      pop\n      tag_10\n      jump\t// in\n    tag_8:\n      mload(0x40)\n      dup1\n      dup3\n      iszero\n      iszero\n      iszero\n      iszero\n      dup2\n      mstore\n      0x20\n      add\n      swap2\n      pop\n      pop\n      mload(0x40)\n      dup1\n      swap2\n      sub\n      swap1\n      return\n        /* \"class/timeing/knowledgePoint.sol\":457:737  function isCompleted(uint _a,uint _a2,bytes2 _b)public{\r... */\n    tag_4:\n      tag_11\n      0x04\n      dup1\n      calldatasize\n      sub\n        /* \"--CODEGEN--\":13:15   */\n      0x60\n        /* \"--CODEGEN--\":8:11   */\n      dup2\n        /* \"--CODEGEN--\":5:16   */\n      lt\n        /* \"--CODEGEN--\":2:4   */\n      iszero\n      tag_12\n      jumpi\n        /* \"--CODEGEN--\":29:30   */\n      0x00\n        /* \"--CODEGEN--\":26:27   */\n      dup1\n        /* \"--CODEGEN--\":19:31   */\n      revert\n        /* \"--CODEGEN--\":2:4   */\n    tag_12:\n        /* \"class/timeing/knowledgePoint.sol\":457:737  function isCompleted(uint _a,uint _a2,bytes2 _b)public{\r... */\n      dup2\n      add\n      swap1\n      dup1\n      dup1\n      calldataload\n      swap1\n      0x20\n      add\n      swap1\n      swap3\n      swap2\n      swap1\n      dup1\n      calldataload\n      swap1\n      0x20\n      add\n      swap1\n      swap3\n      swap2\n      swap1\n      dup1\n      calldataload\n      not(0xffffffffffffffffffffffffffffffffffffffffffffffffffffffffffff)\n      and\n      swap1\n      0x20\n      add\n      swap1\n      swap3\n      swap2\n      swap1\n      pop\n      pop\n      pop\n      tag_13\n      jump\t// in\n    tag_11:\n      stop\n        /* \"class/timeing/knowledgePoint.sol\":363:451  function check_bytes2(bytes2 _b)public view returns(bool){\r... */\n    tag_5:\n      tag_14\n      0x04\n      dup1\n      calldatasize\n      sub\n        /* \"--CODEGEN--\":13:15   */\n      0x20\n        /* \"--CODEGEN--\":8:11   */\n      dup2\n        /* \"--CODEGEN--\":5:16   */\n      lt\n        /* \"--CODEGEN--\":2:4   */\n      iszero\n      tag_15\n      jumpi\n        /* \"--CODEGEN--\":29:30   */\n      0x00\n        /* \"--CODEGEN--\":26:27   */\n      dup1\n        /* \"--CODEGEN--\":19:31   */\n      revert\n        /* \"--CODEGEN--\":2:4   */\n    tag_15:\n        /* \"class/timeing/knowledgePoint.sol\":363:451  function check_bytes2(bytes2 _b)public view returns(bool){\r... */\n      dup2\n      add\n      swap1\n      dup1\n      dup1\n      calldataload\n      not(0xffffffffffffffffffffffffffffffffffffffffffffffffffffffffffff)\n      and\n      swap1\n      0x20\n      add\n      swap1\n      swap3\n      swap2\n      swap1\n      pop\n      pop\n      pop\n      tag_16\n      jump\t// in\n    tag_14:\n      mload(0x40)\n      dup1\n      dup3\n      iszero\n      iszero\n      iszero\n      iszero\n      dup2\n      mstore\n      0x20\n      add\n      swap2\n      pop\n      pop\n      mload(0x40)\n      dup1\n      swap2\n      sub\n      swap1\n      return\n        /* \"class/timeing/knowledgePoint.sol\":242:357  function check_const(uint _a) public pure returns(bool){\r... */\n    tag_6:\n      tag_17\n      0x04\n      dup1\n      calldatasize\n      sub\n        /* \"--CODEGEN--\":13:15   */\n      0x20\n        /* \"--CODEGEN--\":8:11   */\n      dup2\n        /* \"--CODEGEN--\":5:16   */\n      lt\n        /* \"--CODEGEN--\":2:4   */\n      iszero\n      tag_18\n      jumpi\n        /* \"--CODEGEN--\":29:30   */\n      0x00\n        /* \"--CODEGEN--\":26:27   */\n      dup1\n        /* \"--CODEGEN--\":19:31   */\n      revert\n        /* \"--CODEGEN--\":2:4   */\n    tag_18:\n        /* \"class/timeing/knowledgePoint.sol\":242:357  function check_const(uint _a) public pure returns(bool){\r... */\n      dup2\n      add\n      swap1\n      dup1\n      dup1\n      calldataload\n      swap1\n      0x20\n      add\n      swap1\n      swap3\n      swap2\n      swap1\n      pop\n      pop\n      pop\n      tag_19\n      jump\t// in\n    tag_17:\n      mload(0x40)\n      dup1\n      dup3\n      iszero\n      iszero\n      iszero\n      iszero\n      dup2\n      mstore\n      0x20\n      add\n      swap2\n      pop\n      pop\n      mload(0x40)\n      dup1\n      swap2\n      sub\n      swap1\n      return\n        /* \"class/timeing/knowledgePoint.sol\":90:110  uint256 public score */\n    tag_7:\n      tag_20\n      tag_21\n      jump\t// in\n    tag_20:\n      mload(0x40)\n      dup1\n      dup3\n      dup2\n      mstore\n      0x20\n      add\n      swap2\n      pop\n      pop\n      mload(0x40)\n      dup1\n      swap2\n      sub\n      swap1\n      return\n        /* \"class/timeing/knowledgePoint.sol\":123:236  function check_var(uint _a) public view returns(bool){\r... */\n    tag_10:\n        /* \"class/timeing/knowledgePoint.sol\":171:175  bool */\n      0x00\n        /* \"class/timeing/knowledgePoint.sol\":187:193  uint a */\n      dup1\n        /* \"class/timeing/knowledgePoint.sol\":204:205  2 */\n      0x02\n        /* \"class/timeing/knowledgePoint.sol\":202:203  c */\n      sload(0x00)\n        /* \"class/timeing/knowledgePoint.sol\":202:205  c/2 */\n      dup2\n      tag_23\n      jumpi\n      invalid\n    tag_23:\n      div\n        /* \"class/timeing/knowledgePoint.sol\":198:199  2 */\n      0x02\n        /* \"class/timeing/knowledgePoint.sol\":196:197  c */\n      sload(0x00)\n        /* \"class/timeing/knowledgePoint.sol\":196:199  c/2 */\n      dup2\n      tag_24\n      jumpi\n      invalid\n    tag_24:\n      div\n        /* \"class/timeing/knowledgePoint.sol\":196:205  c/2 + c/2 */\n      add\n        /* \"class/timeing/knowledgePoint.sol\":187:205  uint a = c/2 + c/2 */\n      swap1\n      pop\n        /* \"class/timeing/knowledgePoint.sol\":226:228  _a */\n      dup3\n        /* \"class/timeing/knowledgePoint.sol\":223:224  a */\n      dup2\n        /* \"class/timeing/knowledgePoint.sol\":223:228  a==_a */\n      eq\n        /* \"class/timeing/knowledgePoint.sol\":216:228  return a==_a */\n      swap2\n      pop\n      pop\n        /* \"class/timeing/knowledgePoint.sol\":123:236  function check_var(uint _a) public view returns(bool){\r... */\n      swap2\n      swap1\n      pop\n      jump\t// out\n        /* \"class/timeing/knowledgePoint.sol\":457:737  function isCompleted(uint _a,uint _a2,bytes2 _b)public{\r... */\n    tag_13:\n        /* \"class/timeing/knowledgePoint.sol\":528:529  0 */\n      0x00\n        /* \"class/timeing/knowledgePoint.sol\":522:527  score */\n      0x02\n        /* \"class/timeing/knowledgePoint.sol\":522:529  score=0 */\n      dup2\n      swap1\n      sstore\n      pop\n        /* \"class/timeing/knowledgePoint.sol\":544:557  check_var(_a) */\n      tag_26\n        /* \"class/timeing/knowledgePoint.sol\":554:556  _a */\n      dup4\n        /* \"class/timeing/knowledgePoint.sol\":544:553  check_var */\n      tag_10\n        /* \"class/timeing/knowledgePoint.sol\":544:557  check_var(_a) */\n      jump\t// in\n    tag_26:\n        /* \"class/timeing/knowledgePoint.sol\":540:594  if (check_var(_a)){\r... */\n      iszero\n      tag_27\n      jumpi\n        /* \"class/timeing/knowledgePoint.sol\":580:582  25 */\n      0x19\n        /* \"class/timeing/knowledgePoint.sol\":573:578  score */\n      0x02\n      0x00\n        /* \"class/timeing/knowledgePoint.sol\":573:582  score+=25 */\n      dup3\n      dup3\n      sload\n      add\n      swap3\n      pop\n      pop\n      dup2\n      swap1\n      sstore\n      pop\n        /* \"class/timeing/knowledgePoint.sol\":540:594  if (check_var(_a)){\r... */\n    tag_27:\n        /* \"class/timeing/knowledgePoint.sol\":608:624  check_const(_a2) */\n      tag_28\n        /* \"class/timeing/knowledgePoint.sol\":620:623  _a2 */\n      dup3\n        /* \"class/timeing/knowledgePoint.sol\":608:619  check_const */\n      tag_19\n        /* \"class/timeing/knowledgePoint.sol\":608:624  check_const(_a2) */\n      jump\t// in\n    tag_28:\n        /* \"class/timeing/knowledgePoint.sol\":604:661  if (check_const(_a2)){\r... */\n      iszero\n      tag_29\n      jumpi\n        /* \"class/timeing/knowledgePoint.sol\":647:649  25 */\n      0x19\n        /* \"class/timeing/knowledgePoint.sol\":640:645  score */\n      0x02\n      0x00\n        /* \"class/timeing/knowledgePoint.sol\":640:649  score+=25 */\n      dup3\n      dup3\n      sload\n      add\n      swap3\n      pop\n      pop\n      dup2\n      swap1\n      sstore\n      pop\n        /* \"class/timeing/knowledgePoint.sol\":604:661  if (check_const(_a2)){\r... */\n    tag_29:\n        /* \"class/timeing/knowledgePoint.sol\":675:691  check_bytes2(_b) */\n      tag_30\n        /* \"class/timeing/knowledgePoint.sol\":688:690  _b */\n      dup2\n        /* \"class/timeing/knowledgePoint.sol\":675:687  check_bytes2 */\n      tag_16\n        /* \"class/timeing/knowledgePoint.sol\":675:691  check_bytes2(_b) */\n      jump\t// in\n    tag_30:\n        /* \"class/timeing/knowledgePoint.sol\":671:728  if (check_bytes2(_b)){\r... */\n      iszero\n      tag_31\n      jumpi\n        /* \"class/timeing/knowledgePoint.sol\":714:716  50 */\n      0x32\n        /* \"class/timeing/knowledgePoint.sol\":707:712  score */\n      0x02\n      0x00\n        /* \"class/timeing/knowledgePoint.sol\":707:716  score+=50 */\n      dup3\n      dup3\n      sload\n      add\n      swap3\n      pop\n      pop\n      dup2\n      swap1\n      sstore\n      pop\n        /* \"class/timeing/knowledgePoint.sol\":671:728  if (check_bytes2(_b)){\r... */\n    tag_31:\n        /* \"class/timeing/knowledgePoint.sol\":457:737  function isCompleted(uint _a,uint _a2,bytes2 _b)public{\r... */\n      pop\n      pop\n      pop\n      jump\t// out\n        /* \"class/timeing/knowledgePoint.sol\":363:451  function check_bytes2(bytes2 _b)public view returns(bool){\r... */\n    tag_16:\n        /* \"class/timeing/knowledgePoint.sol\":415:419  bool */\n      0x00\n        /* \"class/timeing/knowledgePoint.sol\":441:443  _b */\n      dup2\n        /* \"class/timeing/knowledgePoint.sol\":438:443  b==_b */\n      not(0xffffffffffffffffffffffffffffffffffffffffffffffffffffffffffff)\n      and\n        /* \"class/timeing/knowledgePoint.sol\":438:439  b */\n      0x01\n      0x00\n      swap1\n      sload\n      swap1\n      0x0100\n      exp\n      swap1\n      div\n      0xf0\n      shl\n        /* \"class/timeing/knowledgePoint.sol\":438:443  b==_b */\n      not(0xffffffffffffffffffffffffffffffffffffffffffffffffffffffffffff)\n      and\n      eq\n        /* \"class/timeing/knowledgePoint.sol\":431:443  return b==_b */\n      swap1\n      pop\n        /* \"class/timeing/knowledgePoint.sol\":363:451  function check_bytes2(bytes2 _b)public view returns(bool){\r... */\n      swap2\n      swap1\n      pop\n      jump\t// out\n        /* \"class/timeing/knowledgePoint.sol\":242:357  function check_const(uint _a) public pure returns(bool){\r... */\n    tag_19:\n        /* \"class/timeing/knowledgePoint.sol\":292:296  bool */\n      0x00\n        /* \"class/timeing/knowledgePoint.sol\":308:314  uint a */\n      dup1\n        /* \"class/timeing/knowledgePoint.sol\":317:326  5/2 + 5/2 */\n      0x05\n        /* \"class/timeing/knowledgePoint.sol\":308:326  uint a = 5/2 + 5/2 */\n      swap1\n      pop\n        /* \"class/timeing/knowledgePoint.sol\":347:349  _a */\n      dup3\n        /* \"class/timeing/knowledgePoint.sol\":344:345  a */\n      dup2\n        /* \"class/timeing/knowledgePoint.sol\":344:349  a==_a */\n      eq\n        /* \"class/timeing/knowledgePoint.sol\":337:349  return a==_a */\n      swap2\n      pop\n      pop\n        /* \"class/timeing/knowledgePoint.sol\":242:357  function check_const(uint _a) public pure returns(bool){\r... */\n      swap2\n      swap1\n      pop\n      jump\t// out\n        /* \"class/timeing/knowledgePoint.sol\":90:110  uint256 public score */\n    tag_21:\n      sload(0x02)\n      dup2\n      jump\t// out\n\n    auxdata: 0xa265627a7a723158204b141bc667953d1fddd892f0d5316a58afddf1abe4319650465e1a430323a98564736f6c63430005110032\n}\n",
				"bytecode": {
					"linkReferences": {},
					"object": "608060405260056000557f3132000000000000000000000000000000000000000000000000000000000000600160006101000a81548161ffff021916908360f01c021790555034801561005157600080fd5b50610312806100616000396000f3fe608060405234801561001057600080fd5b50600436106100575760003560e01c80630f155b121461005c578063764eefbc146100a2578063b392313b14610105578063e37256d41461016c578063efedc669146101b2575b600080fd5b6100886004803603602081101561007257600080fd5b81019080803590602001909291905050506101d0565b604051808215151515815260200191505060405180910390f35b610103600480360360608110156100b857600080fd5b81019080803590602001909291908035906020019092919080357dffffffffffffffffffffffffffffffffffffffffffffffffffffffffffff191690602001909291905050506101fb565b005b6101526004803603602081101561011b57600080fd5b8101908080357dffffffffffffffffffffffffffffffffffffffffffffffffffffffffffff19169060200190929190505050610268565b604051808215151515815260200191505060405180910390f35b6101986004803603602081101561018257600080fd5b81019080803590602001909291905050506102c5565b604051808215151515815260200191505060405180910390f35b6101ba6102d7565b6040518082815260200191505060405180910390f35b6000806002600054816101df57fe5b046002600054816101ec57fe5b04019050828114915050919050565b600060028190555061020c836101d0565b156102235760196002600082825401925050819055505b61022c826102c5565b156102435760196002600082825401925050819055505b61024c81610268565b156102635760326002600082825401925050819055505b505050565b6000817dffffffffffffffffffffffffffffffffffffffffffffffffffffffffffff1916600160009054906101000a900460f01b7dffffffffffffffffffffffffffffffffffffffffffffffffffffffffffff1916149050919050565b60008060059050828114915050919050565b6002548156fea265627a7a723158204b141bc667953d1fddd892f0d5316a58afddf1abe4319650465e1a430323a98564736f6c63430005110032",
					"opcodes": "PUSH1 0x80 PUSH1 0x40 MSTORE PUSH1 0x5 PUSH1 0x0 SSTORE PUSH32 0x3132000000000000000000000000000000000000000000000000000000000000 PUSH1 0x1 PUSH1 0x0 PUSH2 0x100 EXP DUP2 SLOAD DUP2 PUSH2 0xFFFF MUL NOT AND SWAP1 DUP4 PUSH1 0xF0 SHR MUL OR SWAP1 SSTORE POP CALLVALUE DUP1 ISZERO PUSH2 0x51 JUMPI PUSH1 0x0 DUP1 REVERT JUMPDEST POP PUSH2 0x312 DUP1 PUSH2 0x61 PUSH1 0x0 CODECOPY PUSH1 0x0 RETURN INVALID PUSH1 0x80 PUSH1 0x40 MSTORE CALLVALUE DUP1 ISZERO PUSH2 0x10 JUMPI PUSH1 0x0 DUP1 REVERT JUMPDEST POP PUSH1 0x4 CALLDATASIZE LT PUSH2 0x57 JUMPI PUSH1 0x0 CALLDATALOAD PUSH1 0xE0 SHR DUP1 PUSH4 0xF155B12 EQ PUSH2 0x5C JUMPI DUP1 PUSH4 0x764EEFBC EQ PUSH2 0xA2 JUMPI DUP1 PUSH4 0xB392313B EQ PUSH2 0x105 JUMPI DUP1 PUSH4 0xE37256D4 EQ PUSH2 0x16C JUMPI DUP1 PUSH4 0xEFEDC669 EQ PUSH2 0x1B2 JUMPI JUMPDEST PUSH1 0x0 DUP1 REVERT JUMPDEST PUSH2 0x88 PUSH1 0x4 DUP1 CALLDATASIZE SUB PUSH1 0x20 DUP2 LT ISZERO PUSH2 0x72 JUMPI PUSH1 0x0 DUP1 REVERT JUMPDEST DUP2 ADD SWAP1 DUP1 DUP1 CALLDATALOAD SWAP1 PUSH1 0x20 ADD SWAP1 SWAP3 SWAP2 SWAP1 POP POP POP PUSH2 0x1D0 JUMP JUMPDEST PUSH1 0x40 MLOAD DUP1 DUP3 ISZERO ISZERO ISZERO ISZERO DUP2 MSTORE PUSH1 0x20 ADD SWAP2 POP POP PUSH1 0x40 MLOAD DUP1 SWAP2 SUB SWAP1 RETURN JUMPDEST PUSH2 0x103 PUSH1 0x4 DUP1 CALLDATASIZE SUB PUSH1 0x60 DUP2 LT ISZERO PUSH2 0xB8 JUMPI PUSH1 0x0 DUP1 REVERT JUMPDEST DUP2 ADD SWAP1 DUP1 DUP1 CALLDATALOAD SWAP1 PUSH1 0x20 ADD SWAP1 SWAP3 SWAP2 SWAP1 DUP1 CALLDATALOAD SWAP1 PUSH1 0x20 ADD SWAP1 SWAP3 SWAP2 SWAP1 DUP1 CALLDATALOAD PUSH30 0xFFFFFFFFFFFFFFFFFFFFFFFFFFFFFFFFFFFFFFFFFFFFFFFFFFFFFFFFFFFF NOT AND SWAP1 PUSH1 0x20 ADD SWAP1 SWAP3 SWAP2 SWAP1 POP POP POP PUSH2 0x1FB JUMP JUMPDEST STOP JUMPDEST PUSH2 0x152 PUSH1 0x4 DUP1 CALLDATASIZE SUB PUSH1 0x20 DUP2 LT ISZERO PUSH2 0x11B JUMPI PUSH1 0x0 DUP1 REVERT JUMPDEST DUP2 ADD SWAP1 DUP1 DUP1 CALLDATALOAD PUSH30 0xFFFFFFFFFFFFFFFFFFFFFFFFFFFFFFFFFFFFFFFFFFFFFFFFFFFFFFFFFFFF NOT AND SWAP1 PUSH1 0x20 ADD SWAP1 SWAP3 SWAP2 SWAP1 POP POP POP PUSH2 0x268 JUMP JUMPDEST PUSH1 0x40 MLOAD DUP1 DUP3 ISZERO ISZERO ISZERO ISZERO DUP2 MSTORE PUSH1 0x20 ADD SWAP2 POP POP PUSH1 0x40 MLOAD DUP1 SWAP2 SUB SWAP1 RETURN JUMPDEST PUSH2 0x198 PUSH1 0x4 DUP1 CALLDATASIZE SUB PUSH1 0x20 DUP2 LT ISZERO PUSH2 0x182 JUMPI PUSH1 0x0 DUP1 REVERT JUMPDEST DUP2 ADD SWAP1 DUP1 DUP1 CALLDATALOAD SWAP1 PUSH1 0x20 ADD SWAP1 SWAP3 SWAP2 SWAP1 POP POP POP PUSH2 0x2C5 JUMP JUMPDEST PUSH1 0x40 MLOAD DUP1 DUP3 ISZERO ISZERO ISZERO ISZERO DUP2 MSTORE PUSH1 0x20 ADD SWAP2 POP POP PUSH1 0x40 MLOAD DUP1 SWAP2 SUB SWAP1 RETURN JUMPDEST PUSH2 0x1BA PUSH2 0x2D7 JUMP JUMPDEST PUSH1 0x40 MLOAD DUP1 DUP3 DUP2 MSTORE PUSH1 0x20 ADD SWAP2 POP POP PUSH1 0x40 MLOAD DUP1 SWAP2 SUB SWAP1 RETURN JUMPDEST PUSH1 0x0 DUP1 PUSH1 0x2 PUSH1 0x0 SLOAD DUP2 PUSH2 0x1DF JUMPI INVALID JUMPDEST DIV PUSH1 0x2 PUSH1 0x0 SLOAD DUP2 PUSH2 0x1EC JUMPI INVALID JUMPDEST DIV ADD SWAP1 POP DUP3 DUP2 EQ SWAP2 POP POP SWAP2 SWAP1 POP JUMP JUMPDEST PUSH1 0x0 PUSH1 0x2 DUP2 SWAP1 SSTORE POP PUSH2 0x20C DUP4 PUSH2 0x1D0 JUMP JUMPDEST ISZERO PUSH2 0x223 JUMPI PUSH1 0x19 PUSH1 0x2 PUSH1 0x0 DUP3 DUP3 SLOAD ADD SWAP3 POP POP DUP2 SWAP1 SSTORE POP JUMPDEST PUSH2 0x22C DUP3 PUSH2 0x2C5 JUMP JUMPDEST ISZERO PUSH2 0x243 JUMPI PUSH1 0x19 PUSH1 0x2 PUSH1 0x0 DUP3 DUP3 SLOAD ADD SWAP3 POP POP DUP2 SWAP1 SSTORE POP JUMPDEST PUSH2 0x24C DUP2 PUSH2 0x268 JUMP JUMPDEST ISZERO PUSH2 0x263 JUMPI PUSH1 0x32 PUSH1 0x2 PUSH1 0x0 DUP3 DUP3 SLOAD ADD SWAP3 POP POP DUP2 SWAP1 SSTORE POP JUMPDEST POP POP POP JUMP JUMPDEST PUSH1 0x0 DUP2 PUSH30 0xFFFFFFFFFFFFFFFFFFFFFFFFFFFFFFFFFFFFFFFFFFFFFFFFFFFFFFFFFFFF NOT AND PUSH1 0x1 PUSH1 0x0 SWAP1 SLOAD SWAP1 PUSH2 0x100 EXP SWAP1 DIV PUSH1 0xF0 SHL PUSH30 0xFFFFFFFFFFFFFFFFFFFFFFFFFFFFFFFFFFFFFFFFFFFFFFFFFFFFFFFFFFFF NOT AND EQ SWAP1 POP SWAP2 SWAP1 POP JUMP JUMPDEST PUSH1 0x0 DUP1 PUSH1 0x5 SWAP1 POP DUP3 DUP2 EQ SWAP2 POP POP SWAP2 SWAP1 POP JUMP JUMPDEST PUSH1 0x2 SLOAD DUP2 JUMP INVALID LOG2 PUSH6 0x627A7A723158 KECCAK256 0x4B EQ SHL 0xC6 PUSH8 0x953D1FDDD892F0D5 BALANCE PUSH11 0x58AFDDF1ABE4319650465E BYTE NUMBER SUB 0x23 0xA9 DUP6 PUSH5 0x736F6C6343 STOP SDIV GT STOP ORIGIN "
				},
				"gasEstimates": {
					"creation": {
						"codeDepositCost": "157200",
						"executionCost": "41075",
						"totalCost": "198275"
					},
					"external": {
						"check_bytes2(bytes2)": "1203",
						"check_const(uint256)": "375",
						"check_var(uint256)": "1965",
						"isCompleted(uint256,uint256,bytes2)": "40551",
						"score()": "1071"
					}
				},
				"methodIdentifiers": {
					"check_bytes2(bytes2)": "b392313b",
					"check_const(uint256)": "e37256d4",
					"check_var(uint256)": "0f155b12",
					"isCompleted(uint256,uint256,bytes2)": "764eefbc",
					"score()": "efedc669"
				}
			},
			"storageLayout": {
				"storage": [
					{
						"astId": 4,
						"contract": "class/timeing/knowledgePoint.sol:float",
						"label": "c",
						"offset": 0,
						"slot": "0",
						"type": "t_uint256"
					},
					{
						"astId": 7,
						"contract": "class/timeing/knowledgePoint.sol:float",
						"label": "b",
						"offset": 0,
						"slot": "1",
						"type": "t_bytes2"
					},
					{
						"astId": 9,
						"contract": "class/timeing/knowledgePoint.sol:float",
						"label": "score",
						"offset": 0,
						"slot": "2",
						"type": "t_uint256"
					}
				],
				"types": {
					"t_bytes2": {
						"encoding": "inplace",
						"label": "bytes2",
						"numberOfBytes": "2"
					},
					"t_uint256": {
						"encoding": "inplace",
						"label": "uint256",
						"numberOfBytes": "32"
					}
				}
			},
			"userdoc": {
				"methods": {}
			}
		}
	}
}