{
	"class/storage/house.sol": {
		"C": {
			"abi": [
				{
					"inputs": [
						{
							"internalType": "bytes",
							"name": "b_",
							"type": "bytes"
						}
					],
					"stateMutability": "nonpayable",
					"type": "constructor"
				},
				{
					"inputs": [
						{
							"internalType": "uint256",
							"name": "slot",
							"type": "uint256"
						},
						{
							"internalType": "bytes4",
							"name": "key",
							"type": "bytes4"
						}
					],
					"name": "abiEncode",
					"outputs": [
						{
							"internalType": "bytes",
							"name": "",
							"type": "bytes"
						}
					],
					"stateMutability": "pure",
					"type": "function"
				},
				{
					"inputs": [],
					"name": "addr",
					"outputs": [
						{
							"internalType": "address",
							"name": "",
							"type": "address"
						}
					],
					"stateMutability": "view",
					"type": "function"
				},
				{
					"inputs": [],
					"name": "b1",
					"outputs": [
						{
							"internalType": "bytes",
							"name": "",
							"type": "bytes"
						}
					],
					"stateMutability": "view",
					"type": "function"
				},
				{
					"inputs": [],
					"name": "bo1",
					"outputs": [
						{
							"internalType": "bool",
							"name": "",
							"type": "bool"
						}
					],
					"stateMutability": "view",
					"type": "function"
				},
				{
					"inputs": [],
					"name": "bo2",
					"outputs": [
						{
							"internalType": "bool",
							"name": "",
							"type": "bool"
						}
					],
					"stateMutability": "view",
					"type": "function"
				},
				{
					"inputs": [],
					"name": "bo3",
					"outputs": [
						{
							"internalType": "bool",
							"name": "",
							"type": "bool"
						}
					],
					"stateMutability": "view",
					"type": "function"
				},
				{
					"inputs": [
						{
							"internalType": "uint256",
							"name": "slot",
							"type": "uint256"
						},
						{
							"internalType": "uint256",
							"name": "index",
							"type": "uint256"
						}
					],
					"name": "getArrayDataSlotGivenIndex",
					"outputs": [
						{
							"internalType": "bytes32",
							"name": "",
							"type": "bytes32"
						}
					],
					"stateMutability": "pure",
					"type": "function"
				},
				{
					"inputs": [
						{
							"internalType": "uint256",
							"name": "slot",
							"type": "uint256"
						},
						{
							"internalType": "bytes4",
							"name": "key",
							"type": "bytes4"
						}
					],
					"name": "getMap4Location",
					"outputs": [
						{
							"internalType": "bytes32",
							"name": "",
							"type": "bytes32"
						}
					],
					"stateMutability": "pure",
					"type": "function"
				},
				{
					"inputs": [
						{
							"internalType": "uint256",
							"name": "slot",
							"type": "uint256"
						},
						{
							"internalType": "uint256",
							"name": "key",
							"type": "uint256"
						}
					],
					"name": "getMapLocation",
					"outputs": [
						{
							"internalType": "bytes32",
							"name": "",
							"type": "bytes32"
						}
					],
					"stateMutability": "pure",
					"type": "function"
				},
				{
					"inputs": [
						{
							"internalType": "uint256",
							"name": "slot",
							"type": "uint256"
						},
						{
							"internalType": "bytes",
							"name": "key",
							"type": "bytes"
						}
					],
					"name": "getMapLocation2",
					"outputs": [
						{
							"internalType": "bytes32",
							"name": "",
							"type": "bytes32"
						}
					],
					"stateMutability": "pure",
					"type": "function"
				},
				{
					"inputs": [
						{
							"internalType": "uint256",
							"name": "slot",
							"type": "uint256"
						}
					],
					"name": "getStorageAt",
					"outputs": [
						{
							"internalType": "bytes32",
							"name": "ret",
							"type": "bytes32"
						}
					],
					"stateMutability": "view",
					"type": "function"
				},
				{
					"inputs": [
						{
							"internalType": "uint256",
							"name": "slot",
							"type": "uint256"
						}
					],
					"name": "hashSlot",
					"outputs": [
						{
							"internalType": "bytes32",
							"name": "",
							"type": "bytes32"
						}
					],
					"stateMutability": "pure",
					"type": "function"
				},
				{
					"inputs": [
						{
							"internalType": "uint256",
							"name": "",
							"type": "uint256"
						},
						{
							"internalType": "address",
							"name": "",
							"type": "address"
						}
					],
					"name": "map",
					"outputs": [
						{
							"internalType": "bool",
							"name": "",
							"type": "bool"
						}
					],
					"stateMutability": "view",
					"type": "function"
				},
				{
					"inputs": [
						{
							"internalType": "uint256",
							"name": "",
							"type": "uint256"
						}
					],
					"name": "map2",
					"outputs": [
						{
							"internalType": "bool",
							"name": "",
							"type": "bool"
						}
					],
					"stateMutability": "view",
					"type": "function"
				},
				{
					"inputs": [
						{
							"internalType": "bytes",
							"name": "",
							"type": "bytes"
						}
					],
					"name": "map3",
					"outputs": [
						{
							"internalType": "bool",
							"name": "",
							"type": "bool"
						}
					],
					"stateMutability": "view",
					"type": "function"
				},
				{
					"inputs": [
						{
							"internalType": "bytes4",
							"name": "",
							"type": "bytes4"
						}
					],
					"name": "map4",
					"outputs": [
						{
							"internalType": "address",
							"name": "",
							"type": "address"
						}
					],
					"stateMutability": "view",
					"type": "function"
				},
				{
					"inputs": [],
					"name": "s",
					"outputs": [
						{
							"internalType": "uint128",
							"name": "a",
							"type": "uint128"
						},
						{
							"internalType": "uint128",
							"name": "b",
							"type": "uint128"
						}
					],
					"stateMutability": "view",
					"type": "function"
				},
				{
					"inputs": [],
					"name": "s1",
					"outputs": [
						{
							"internalType": "string",
							"name": "",
							"type": "string"
						}
					],
					"stateMutability": "view",
					"type": "function"
				}
			],
			"devdoc": {
				"kind": "dev",
				"methods": {},
				"version": 1
			},
			"evm": {
				"assembly": "    /* \"class/storage/house.sol\":202:3385  contract C is A, B {... */\n  mstore(0x40, 0x80)\n    /* \"class/storage/house.sol\":89:90  1 */\n  0x01\n    /* \"class/storage/house.sol\":80:90  uint a = 1 */\n  0x00\n  sstore\n    /* \"class/storage/house.sol\":112:113  2 */\n  0x02\n    /* \"class/storage/house.sol\":100:113  uint128 b = 2 */\n  0x01\n  exp(0x0100, 0x00)\n  dup2\n  sload\n  dup2\n  0xffffffffffffffffffffffffffffffff\n  mul\n  not\n  and\n  swap1\n  dup4\n  0xffffffffffffffffffffffffffffffff\n  and\n  mul\n  or\n  swap1\n  sstore\n  pop\n    /* \"class/storage/house.sol\":135:136  3 */\n  0x03\n    /* \"class/storage/house.sol\":123:136  uint128 c = 3 */\n  0x01\n  exp(0x0100, 0x10)\n  dup2\n  sload\n  dup2\n  0xffffffffffffffffffffffffffffffff\n  mul\n  not\n  and\n  swap1\n  dup4\n  0xffffffffffffffffffffffffffffffff\n  and\n  mul\n  or\n  swap1\n  sstore\n  pop\n    /* \"class/storage/house.sol\":172:173  4 */\n  0x04\n    /* \"class/storage/house.sol\":163:173  uint d = 4 */\n  0x02\n  sstore\n    /* \"class/storage/house.sol\":192:193  5 */\n  0x05\n    /* \"class/storage/house.sol\":183:193  uint e = 5 */\n  0x03\n  sstore\n    /* \"class/storage/house.sol\":797:2161  constructor(bytes memory b_) {... */\n  callvalue\n  dup1\n  iszero\n  tag_1\n  jumpi\n  0x00\n  dup1\n  revert\ntag_1:\n  pop\n  mload(0x40)\n  sub(codesize, bytecodeSize)\n  dup1\n  bytecodeSize\n  dup4\n  codecopy\n  dup2\n  dup2\n  add\n  0x40\n  mstore\n  dup2\n  add\n  swap1\n  tag_2\n  swap2\n  swap1\n  tag_3\n  jump\t// in\ntag_2:\n    /* \"class/storage/house.sol\":841:842  6 */\n  0x06\n    /* \"class/storage/house.sol\":837:838  x */\n  0x04\n    /* \"class/storage/house.sol\":837:842  x = 6 */\n  dup2\n  swap1\n  sstore\n  pop\n    /* \"class/storage/house.sol\":860:861  7 */\n  0x07\n    /* \"class/storage/house.sol\":856:857  y */\n  0x05\n  0x00\n    /* \"class/storage/house.sol\":856:861  y = 7 */\n  0x0100\n  exp\n  dup2\n  sload\n  dup2\n  0xff\n  mul\n  not\n  and\n  swap1\n  dup4\n  0xff\n  and\n  mul\n  or\n  swap1\n  sstore\n  pop\n    /* \"class/storage/house.sol\":879:880  8 */\n  0x08\n    /* \"class/storage/house.sol\":875:876  z */\n  0x05\n  0x01\n    /* \"class/storage/house.sol\":875:880  z = 8 */\n  0x0100\n  exp\n  dup2\n  sload\n  dup2\n  0xffff\n  mul\n  not\n  and\n  swap1\n  dup4\n  0xffff\n  and\n  mul\n  or\n  swap1\n  sstore\n  pop\n    /* \"class/storage/house.sol\":894:927  staticArray = [uint(9), uint(10)] */\n  mload(0x40)\n  dup1\n  0x40\n  add\n  0x40\n  mstore\n  dup1\n    /* \"class/storage/house.sol\":914:915  9 */\n  0x09\n    /* \"class/storage/house.sol\":894:927  staticArray = [uint(9), uint(10)] */\n  dup2\n  mstore\n  0x20\n  add\n    /* \"class/storage/house.sol\":923:925  10 */\n  0x0a\n    /* \"class/storage/house.sol\":894:927  staticArray = [uint(9), uint(10)] */\n  dup2\n  mstore\n  pop\n    /* \"class/storage/house.sol\":894:905  staticArray */\n  0x06\n    /* \"class/storage/house.sol\":894:927  staticArray = [uint(9), uint(10)] */\n  swap1\n  0x02\n  tag_6\n  swap3\n  swap2\n  swap1\n  tag_7\n  jump\t// in\ntag_6:\n  pop\n    /* \"class/storage/house.sol\":970:971  3 */\n  0x03\n    /* \"class/storage/house.sol\":956:972  new uint128[](3) */\n  0xffffffffffffffff\n  dup2\n  gt\n  iszero\n  tag_8\n  jumpi\n  tag_9\n  tag_10\n  jump\t// in\ntag_9:\ntag_8:\n  mload(0x40)\n  swap1\n  dup1\n  dup3\n  mstore\n  dup1\n  0x20\n  mul\n  0x20\n  add\n  dup3\n  add\n  0x40\n  mstore\n  dup1\n  iszero\n  tag_11\n  jumpi\n  dup2\n  0x20\n  add\n  0x20\n  dup3\n  mul\n  dup1\n  calldatasize\n  dup4\n  calldatacopy\n  dup1\n  dup3\n  add\n  swap2\n  pop\n  pop\n  swap1\n  pop\ntag_11:\n  pop\n    /* \"class/storage/house.sol\":945:953  dynArray */\n  0x08\n    /* \"class/storage/house.sol\":945:972  dynArray = new uint128[](3) */\n  swap1\n  dup1\n  mload\n  swap1\n  0x20\n  add\n  swap1\n  tag_12\n  swap3\n  swap2\n  swap1\n  tag_13\n  jump\t// in\ntag_12:\n  pop\n    /* \"class/storage/house.sol\":1000:1002  11 */\n  0x0b\n    /* \"class/storage/house.sol\":986:994  dynArray */\n  0x08\n    /* \"class/storage/house.sol\":995:996  0 */\n  0x00\n    /* \"class/storage/house.sol\":986:997  dynArray[0] */\n  dup2\n  sload\n  dup2\n  lt\n  tag_14\n  jumpi\n  tag_15\n  tag_16\n  jump\t// in\ntag_15:\ntag_14:\n  swap1\n  0x00\n  mstore\n  keccak256(0x00, 0x20)\n  swap1\n  0x02\n  swap2\n  dup3\n  dup3\n  div\n  add\n  swap2\n  swap1\n  mod\n  0x10\n  mul\n    /* \"class/storage/house.sol\":986:1002  dynArray[0] = 11 */\n  0x0100\n  exp\n  dup2\n  sload\n  dup2\n  0xffffffffffffffffffffffffffffffff\n  mul\n  not\n  and\n  swap1\n  dup4\n  0xffffffffffffffffffffffffffffffff\n  and\n  mul\n  or\n  swap1\n  sstore\n  pop\n    /* \"class/storage/house.sol\":1043:1045  12 */\n  0x0c\n    /* \"class/storage/house.sol\":1029:1037  dynArray */\n  0x08\n    /* \"class/storage/house.sol\":1038:1039  1 */\n  0x01\n    /* \"class/storage/house.sol\":1029:1040  dynArray[1] */\n  dup2\n  sload\n  dup2\n  lt\n  tag_18\n  jumpi\n  tag_19\n  tag_16\n  jump\t// in\ntag_19:\ntag_18:\n  swap1\n  0x00\n  mstore\n  keccak256(0x00, 0x20)\n  swap1\n  0x02\n  swap2\n  dup3\n  dup3\n  div\n  add\n  swap2\n  swap1\n  mod\n  0x10\n  mul\n    /* \"class/storage/house.sol\":1029:1045  dynArray[1] = 12 */\n  0x0100\n  exp\n  dup2\n  sload\n  dup2\n  0xffffffffffffffffffffffffffffffff\n  mul\n  not\n  and\n  swap1\n  dup4\n  0xffffffffffffffffffffffffffffffff\n  and\n  mul\n  or\n  swap1\n  sstore\n  pop\n    /* \"class/storage/house.sol\":1139:1141  13 */\n  0x0d\n    /* \"class/storage/house.sol\":1125:1133  dynArray */\n  0x08\n    /* \"class/storage/house.sol\":1134:1135  2 */\n  0x02\n    /* \"class/storage/house.sol\":1125:1136  dynArray[2] */\n  dup2\n  sload\n  dup2\n  lt\n  tag_21\n  jumpi\n  tag_22\n  tag_16\n  jump\t// in\ntag_22:\ntag_21:\n  swap1\n  0x00\n  mstore\n  keccak256(0x00, 0x20)\n  swap1\n  0x02\n  swap2\n  dup3\n  dup3\n  div\n  add\n  swap2\n  swap1\n  mod\n  0x10\n  mul\n    /* \"class/storage/house.sol\":1125:1141  dynArray[2] = 13 */\n  0x0100\n  exp\n  dup2\n  sload\n  dup2\n  0xffffffffffffffffffffffffffffffff\n  mul\n  not\n  and\n  swap1\n  dup4\n  0xffffffffffffffffffffffffffffffff\n  and\n  mul\n  or\n  swap1\n  sstore\n  pop\n    /* \"class/storage/house.sol\":1229:1388  S({... */\n  mload(0x40)\n  dup1\n  0x80\n  add\n  0x40\n  mstore\n  dup1\n    /* \"class/storage/house.sol\":1249:1251  14 */\n  0x0e\n    /* \"class/storage/house.sol\":1229:1388  S({... */\n  0xffffffffffffffffffffffffffffffff\n  and\n  dup2\n  mstore\n  0x20\n  add\n    /* \"class/storage/house.sol\":1272:1274  15 */\n  0x0f\n    /* \"class/storage/house.sol\":1229:1388  S({... */\n  0xffffffffffffffffffffffffffffffff\n  and\n  dup2\n  mstore\n  0x20\n  add\n  mload(0x40)\n  dup1\n  0x40\n  add\n  0x40\n  mstore\n  dup1\n    /* \"class/storage/house.sol\":1311:1313  16 */\n  0x10\n    /* \"class/storage/house.sol\":1229:1388  S({... */\n  dup2\n  mstore\n  0x20\n  add\n    /* \"class/storage/house.sol\":1321:1323  17 */\n  0x11\n    /* \"class/storage/house.sol\":1229:1388  S({... */\n  dup2\n  mstore\n  pop\n  dup2\n  mstore\n  0x20\n  add\n    /* \"class/storage/house.sol\":1370:1371  3 */\n  0x03\n    /* \"class/storage/house.sol\":1359:1372  new uint[](3) */\n  0xffffffffffffffff\n  dup2\n  gt\n  iszero\n  tag_24\n  jumpi\n  tag_25\n  tag_10\n  jump\t// in\ntag_25:\ntag_24:\n  mload(0x40)\n  swap1\n  dup1\n  dup3\n  mstore\n  dup1\n  0x20\n  mul\n  0x20\n  add\n  dup3\n  add\n  0x40\n  mstore\n  dup1\n  iszero\n  tag_26\n  jumpi\n  dup2\n  0x20\n  add\n  0x20\n  dup3\n  mul\n  dup1\n  calldatasize\n  dup4\n  calldatacopy\n  dup1\n  dup3\n  add\n  swap2\n  pop\n  pop\n  swap1\n  pop\ntag_26:\n  pop\n    /* \"class/storage/house.sol\":1229:1388  S({... */\n  dup2\n  mstore\n  pop\n    /* \"class/storage/house.sol\":1225:1226  s */\n  0x09\n    /* \"class/storage/house.sol\":1225:1388  s = S({... */\n  0x00\n  dup3\n  add\n  mload\n  dup2\n  0x00\n  add\n  exp(0x0100, 0x00)\n  dup2\n  sload\n  dup2\n  0xffffffffffffffffffffffffffffffff\n  mul\n  not\n  and\n  swap1\n  dup4\n  0xffffffffffffffffffffffffffffffff\n  and\n  mul\n  or\n  swap1\n  sstore\n  pop\n  0x20\n  dup3\n  add\n  mload\n  dup2\n  0x00\n  add\n  exp(0x0100, 0x10)\n  dup2\n  sload\n  dup2\n  0xffffffffffffffffffffffffffffffff\n  mul\n  not\n  and\n  swap1\n  dup4\n  0xffffffffffffffffffffffffffffffff\n  and\n  mul\n  or\n  swap1\n  sstore\n  pop\n  0x40\n  dup3\n  add\n  mload\n  dup2\n  0x01\n  add\n  swap1\n  0x02\n  tag_27\n  swap3\n  swap2\n  swap1\n  tag_7\n  jump\t// in\ntag_27:\n  pop\n  0x60\n  dup3\n  add\n  mload\n  dup2\n  0x03\n  add\n  swap1\n  dup1\n  mload\n  swap1\n  0x20\n  add\n  swap1\n  tag_28\n  swap3\n  swap2\n  swap1\n  tag_29\n  jump\t// in\ntag_28:\n  pop\n  swap1\n  pop\n  pop\n    /* \"class/storage/house.sol\":1415:1417  18 */\n  0x12\n    /* \"class/storage/house.sol\":1399:1400  s */\n  0x09\n    /* \"class/storage/house.sol\":1399:1409  s.dynArray */\n  0x03\n  add\n    /* \"class/storage/house.sol\":1410:1411  0 */\n  0x00\n    /* \"class/storage/house.sol\":1399:1412  s.dynArray[0] */\n  dup2\n  sload\n  dup2\n  lt\n  tag_30\n  jumpi\n  tag_31\n  tag_16\n  jump\t// in\ntag_31:\ntag_30:\n  swap1\n  0x00\n  mstore\n  keccak256(0x00, 0x20)\n  add\n    /* \"class/storage/house.sol\":1399:1417  s.dynArray[0] = 18 */\n  dup2\n  swap1\n  sstore\n  pop\n    /* \"class/storage/house.sol\":1461:1463  19 */\n  0x13\n    /* \"class/storage/house.sol\":1445:1446  s */\n  0x09\n    /* \"class/storage/house.sol\":1445:1455  s.dynArray */\n  0x03\n  add\n    /* \"class/storage/house.sol\":1456:1457  1 */\n  0x01\n    /* \"class/storage/house.sol\":1445:1458  s.dynArray[1] */\n  dup2\n  sload\n  dup2\n  lt\n  tag_33\n  jumpi\n  tag_34\n  tag_16\n  jump\t// in\ntag_34:\ntag_33:\n  swap1\n  0x00\n  mstore\n  keccak256(0x00, 0x20)\n  add\n    /* \"class/storage/house.sol\":1445:1463  s.dynArray[1] = 19 */\n  dup2\n  swap1\n  sstore\n  pop\n    /* \"class/storage/house.sol\":1507:1509  20 */\n  0x14\n    /* \"class/storage/house.sol\":1491:1492  s */\n  0x09\n    /* \"class/storage/house.sol\":1491:1501  s.dynArray */\n  0x03\n  add\n    /* \"class/storage/house.sol\":1502:1503  2 */\n  0x02\n    /* \"class/storage/house.sol\":1491:1504  s.dynArray[2] */\n  dup2\n  sload\n  dup2\n  lt\n  tag_36\n  jumpi\n  tag_37\n  tag_16\n  jump\t// in\ntag_37:\ntag_36:\n  swap1\n  0x00\n  mstore\n  keccak256(0x00, 0x20)\n  add\n    /* \"class/storage/house.sol\":1491:1509  s.dynArray[2] = 20 */\n  dup2\n  swap1\n  sstore\n  pop\n    /* \"class/storage/house.sol\":1544:1554  msg.sender */\n  caller\n    /* \"class/storage/house.sol\":1537:1541  addr */\n  0x0d\n  0x00\n    /* \"class/storage/house.sol\":1537:1554  addr = msg.sender */\n  0x0100\n  exp\n  dup2\n  sload\n  dup2\n  0xffffffffffffffffffffffffffffffffffffffff\n  mul\n  not\n  and\n  swap1\n  dup4\n  0xffffffffffffffffffffffffffffffffffffffff\n  and\n  mul\n  or\n  swap1\n  sstore\n  pop\n    /* \"class/storage/house.sol\":1590:1594  true */\n  0x01\n    /* \"class/storage/house.sol\":1569:1572  map */\n  0x0e\n    /* \"class/storage/house.sol\":1569:1575  map[0] */\n  0x00\n    /* \"class/storage/house.sol\":1573:1574  0 */\n  dup1\n    /* \"class/storage/house.sol\":1569:1575  map[0] */\n  dup2\n  mstore\n  0x20\n  add\n  swap1\n  dup2\n  mstore\n  0x20\n  add\n  0x00\n  keccak256\n    /* \"class/storage/house.sol\":1569:1587  map[0][msg.sender] */\n  0x00\n    /* \"class/storage/house.sol\":1576:1586  msg.sender */\n  caller\n    /* \"class/storage/house.sol\":1569:1587  map[0][msg.sender] */\n  0xffffffffffffffffffffffffffffffffffffffff\n  and\n  0xffffffffffffffffffffffffffffffffffffffff\n  and\n  dup2\n  mstore\n  0x20\n  add\n  swap1\n  dup2\n  mstore\n  0x20\n  add\n  0x00\n  keccak256\n  0x00\n    /* \"class/storage/house.sol\":1569:1594  map[0][msg.sender] = true */\n  0x0100\n  exp\n  dup2\n  sload\n  dup2\n  0xff\n  mul\n  not\n  and\n  swap1\n  dup4\n  iszero\n  iszero\n  mul\n  or\n  swap1\n  sstore\n  pop\n    /* \"class/storage/house.sol\":1691:1695  true */\n  0x01\n    /* \"class/storage/house.sol\":1670:1673  map */\n  0x0e\n    /* \"class/storage/house.sol\":1670:1676  map[3] */\n  0x00\n    /* \"class/storage/house.sol\":1674:1675  3 */\n  0x03\n    /* \"class/storage/house.sol\":1670:1676  map[3] */\n  dup2\n  mstore\n  0x20\n  add\n  swap1\n  dup2\n  mstore\n  0x20\n  add\n  0x00\n  keccak256\n    /* \"class/storage/house.sol\":1670:1688  map[3][msg.sender] */\n  0x00\n    /* \"class/storage/house.sol\":1677:1687  msg.sender */\n  caller\n    /* \"class/storage/house.sol\":1670:1688  map[3][msg.sender] */\n  0xffffffffffffffffffffffffffffffffffffffff\n  and\n  0xffffffffffffffffffffffffffffffffffffffff\n  and\n  dup2\n  mstore\n  0x20\n  add\n  swap1\n  dup2\n  mstore\n  0x20\n  add\n  0x00\n  keccak256\n  0x00\n    /* \"class/storage/house.sol\":1670:1695  map[3][msg.sender] = true */\n  0x0100\n  exp\n  dup2\n  sload\n  dup2\n  0xff\n  mul\n  not\n  and\n  swap1\n  dup4\n  iszero\n  iszero\n  mul\n  or\n  swap1\n  sstore\n  pop\n    /* \"class/storage/house.sol\":1771:1783  s1 = \"hello\" */\n  mload(0x40)\n  dup1\n  0x40\n  add\n  0x40\n  mstore\n  dup1\n  0x05\n  dup2\n  mstore\n  0x20\n  add\n  0x68656c6c6f000000000000000000000000000000000000000000000000000000\n  dup2\n  mstore\n  pop\n    /* \"class/storage/house.sol\":1771:1773  s1 */\n  0x0f\n    /* \"class/storage/house.sol\":1771:1783  s1 = \"hello\" */\n  swap1\n  dup2\n  tag_39\n  swap2\n  swap1\n  tag_40\n  jump\t// in\ntag_39:\n  pop\n    /* \"class/storage/house.sol\":1821:1823  b_ */\n  dup1\n    /* \"class/storage/house.sol\":1816:1818  b1 */\n  0x10\n    /* \"class/storage/house.sol\":1816:1823  b1 = b_ */\n  swap1\n  dup2\n  tag_41\n  swap2\n  swap1\n  tag_42\n  jump\t// in\ntag_41:\n  pop\n    /* \"class/storage/house.sol\":1866:1870  true */\n  0x01\n    /* \"class/storage/house.sol\":1856:1860  map2 */\n  0x11\n    /* \"class/storage/house.sol\":1856:1863  map2[0] */\n  0x00\n    /* \"class/storage/house.sol\":1861:1862  0 */\n  dup1\n    /* \"class/storage/house.sol\":1856:1863  map2[0] */\n  dup2\n  mstore\n  0x20\n  add\n  swap1\n  dup2\n  mstore\n  0x20\n  add\n  0x00\n  keccak256\n  0x00\n    /* \"class/storage/house.sol\":1856:1870  map2[0] = true */\n  0x0100\n  exp\n  dup2\n  sload\n  dup2\n  0xff\n  mul\n  not\n  and\n  swap1\n  dup4\n  iszero\n  iszero\n  mul\n  or\n  swap1\n  sstore\n  pop\n    /* \"class/storage/house.sol\":1926:1930  true */\n  0x01\n    /* \"class/storage/house.sol\":1916:1920  map2 */\n  0x11\n    /* \"class/storage/house.sol\":1916:1923  map2[4] */\n  0x00\n    /* \"class/storage/house.sol\":1921:1922  4 */\n  0x04\n    /* \"class/storage/house.sol\":1916:1923  map2[4] */\n  dup2\n  mstore\n  0x20\n  add\n  swap1\n  dup2\n  mstore\n  0x20\n  add\n  0x00\n  keccak256\n  0x00\n    /* \"class/storage/house.sol\":1916:1930  map2[4] = true */\n  0x0100\n  exp\n  dup2\n  sload\n  dup2\n  0xff\n  mul\n  not\n  and\n  swap1\n  dup4\n  iszero\n  iszero\n  mul\n  or\n  swap1\n  sstore\n  pop\n    /* \"class/storage/house.sol\":1987:1991  true */\n  0x01\n    /* \"class/storage/house.sol\":1976:1980  map3 */\n  0x12\n    /* \"class/storage/house.sol\":1981:1983  b1 */\n  0x10\n    /* \"class/storage/house.sol\":1976:1984  map3[b1] */\n  mload(0x40)\n  tag_43\n  swap2\n  swap1\n  tag_44\n  jump\t// in\ntag_43:\n  swap1\n  dup2\n  mstore\n  0x20\n  add\n  mload(0x40)\n  dup1\n  swap2\n  sub\n  swap1\n  keccak256\n  0x00\n    /* \"class/storage/house.sol\":1976:1991  map3[b1] = true */\n  0x0100\n  exp\n  dup2\n  sload\n  dup2\n  0xff\n  mul\n  not\n  and\n  swap1\n  dup4\n  iszero\n  iszero\n  mul\n  or\n  swap1\n  sstore\n  pop\n    /* \"class/storage/house.sol\":2044:2048  true */\n  0x01\n    /* \"class/storage/house.sol\":2038:2041  bo1 */\n  0x13\n  0x00\n    /* \"class/storage/house.sol\":2038:2048  bo1 = true */\n  0x0100\n  exp\n  dup2\n  sload\n  dup2\n  0xff\n  mul\n  not\n  and\n  swap1\n  dup4\n  iszero\n  iszero\n  mul\n  or\n  swap1\n  sstore\n  pop\n    /* \"class/storage/house.sol\":2069:2074  false */\n  0x00\n    /* \"class/storage/house.sol\":2063:2066  bo2 */\n  0x13\n  0x01\n    /* \"class/storage/house.sol\":2063:2074  bo2 = false */\n  0x0100\n  exp\n  dup2\n  sload\n  dup2\n  0xff\n  mul\n  not\n  and\n  swap1\n  dup4\n  iszero\n  iszero\n  mul\n  or\n  swap1\n  sstore\n  pop\n    /* \"class/storage/house.sol\":2095:2099  true */\n  0x01\n    /* \"class/storage/house.sol\":2089:2092  bo3 */\n  0x13\n  0x02\n    /* \"class/storage/house.sol\":2089:2099  bo3 = true */\n  0x0100\n  exp\n  dup2\n  sload\n  dup2\n  0xff\n  mul\n  not\n  and\n  swap1\n  dup4\n  iszero\n  iszero\n  mul\n  or\n  swap1\n  sstore\n  pop\n    /* \"class/storage/house.sol\":2141:2151  msg.sender */\n  caller\n    /* \"class/storage/house.sol\":2114:2118  map4 */\n  0x14\n    /* \"class/storage/house.sol\":2114:2138  map4[bytes4(0x6af479b2)] */\n  0x00\n    /* \"class/storage/house.sol\":2126:2136  0x6af479b2 */\n  0x6af479b2\n    /* \"class/storage/house.sol\":2119:2137  bytes4(0x6af479b2) */\n  0xe0\n  shl\n    /* \"class/storage/house.sol\":2114:2138  map4[bytes4(0x6af479b2)] */\n  not(0xffffffffffffffffffffffffffffffffffffffffffffffffffffffff)\n  and\n  not(0xffffffffffffffffffffffffffffffffffffffffffffffffffffffff)\n  and\n  dup2\n  mstore\n  0x20\n  add\n  swap1\n  dup2\n  mstore\n  0x20\n  add\n  0x00\n  keccak256\n  0x00\n    /* \"class/storage/house.sol\":2114:2151  map4[bytes4(0x6af479b2)] = msg.sender */\n  0x0100\n  exp\n  dup2\n  sload\n  dup2\n  0xffffffffffffffffffffffffffffffffffffffff\n  mul\n  not\n  and\n  swap1\n  dup4\n  0xffffffffffffffffffffffffffffffffffffffff\n  and\n  mul\n  or\n  swap1\n  sstore\n  pop\n    /* \"class/storage/house.sol\":797:2161  constructor(bytes memory b_) {... */\n  pop\n    /* \"class/storage/house.sol\":202:3385  contract C is A, B {... */\n  jump(tag_45)\ntag_7:\n  dup3\n  0x02\n  dup2\n  add\n  swap3\n  dup3\n  iszero\n  tag_46\n  jumpi\n  swap2\n  0x20\n  mul\n  dup3\n  add\ntag_47:\n  dup3\n  dup2\n  gt\n  iszero\n  tag_48\n  jumpi\n  dup3\n  mload\n  dup3\n  sstore\n  swap2\n  0x20\n  add\n  swap2\n  swap1\n  0x01\n  add\n  swap1\n  jump(tag_47)\ntag_48:\ntag_46:\n  pop\n  swap1\n  pop\n  tag_49\n  swap2\n  swap1\n  tag_50\n  jump\t// in\ntag_49:\n  pop\n  swap1\n  jump\t// out\ntag_13:\n  dup3\n  dup1\n  sload\n  dup3\n  dup3\n  sstore\n  swap1\n  0x00\n  mstore\n  keccak256(0x00, 0x20)\n  swap1\n  0x01\n  add\n  0x02\n  swap1\n  div\n  dup2\n  add\n  swap3\n  dup3\n  iszero\n  tag_51\n  jumpi\n  swap2\n  0x20\n  mul\n  dup3\n  add\n  0x00\ntag_52:\n  dup4\n  dup3\n  gt\n  iszero\n  tag_53\n  jumpi\n  dup4\n  mload\n  dup4\n  dup3\n  0x0100\n  exp\n  dup2\n  sload\n  dup2\n  0xffffffffffffffffffffffffffffffff\n  mul\n  not\n  and\n  swap1\n  dup4\n  0xffffffffffffffffffffffffffffffff\n  and\n  mul\n  or\n  swap1\n  sstore\n  pop\n  swap3\n  0x20\n  add\n  swap3\n  0x10\n  add\n  0x20\n  dup2\n  0x0f\n  add\n  div\n  swap3\n  dup4\n  add\n  swap3\n  0x01\n  sub\n  mul\n  jump(tag_52)\ntag_53:\n  dup1\n  iszero\n  tag_54\n  jumpi\n  dup3\n  dup2\n  0x0100\n  exp\n  dup2\n  sload\n  swap1\n  0xffffffffffffffffffffffffffffffff\n  mul\n  not\n  and\n  swap1\n  sstore\n  0x10\n  add\n  0x20\n  dup2\n  0x0f\n  add\n  div\n  swap3\n  dup4\n  add\n  swap3\n  0x01\n  sub\n  mul\n  jump(tag_53)\ntag_54:\n  pop\ntag_51:\n  pop\n  swap1\n  pop\n  tag_55\n  swap2\n  swap1\n  tag_50\n  jump\t// in\ntag_55:\n  pop\n  swap1\n  jump\t// out\ntag_29:\n  dup3\n  dup1\n  sload\n  dup3\n  dup3\n  sstore\n  swap1\n  0x00\n  mstore\n  keccak256(0x00, 0x20)\n  swap1\n  dup2\n  add\n  swap3\n  dup3\n  iszero\n  tag_56\n  jumpi\n  swap2\n  0x20\n  mul\n  dup3\n  add\ntag_57:\n  dup3\n  dup2\n  gt\n  iszero\n  tag_58\n  jumpi\n  dup3\n  mload\n  dup3\n  sstore\n  swap2\n  0x20\n  add\n  swap2\n  swap1\n  0x01\n  add\n  swap1\n  jump(tag_57)\ntag_58:\ntag_56:\n  pop\n  swap1\n  pop\n  tag_59\n  swap2\n  swap1\n  tag_50\n  jump\t// in\ntag_59:\n  pop\n  swap1\n  jump\t// out\ntag_50:\ntag_60:\n  dup1\n  dup3\n  gt\n  iszero\n  tag_61\n  jumpi\n  0x00\n  dup2\n  0x00\n  swap1\n  sstore\n  pop\n  0x01\n  add\n  jump(tag_60)\ntag_61:\n  pop\n  swap1\n  jump\t// out\n    /* \"#utility.yul\":7:82   */\ntag_62:\n    /* \"#utility.yul\":40:46   */\n  0x00\n    /* \"#utility.yul\":73:75   */\n  0x40\n    /* \"#utility.yul\":67:76   */\n  mload\n    /* \"#utility.yul\":57:76   */\n  swap1\n  pop\n    /* \"#utility.yul\":7:82   */\n  swap1\n  jump\t// out\n    /* \"#utility.yul\":88:205   */\ntag_63:\n    /* \"#utility.yul\":197:198   */\n  0x00\n    /* \"#utility.yul\":194:195   */\n  dup1\n    /* \"#utility.yul\":187:199   */\n  revert\n    /* \"#utility.yul\":211:328   */\ntag_64:\n    /* \"#utility.yul\":320:321   */\n  0x00\n    /* \"#utility.yul\":317:318   */\n  dup1\n    /* \"#utility.yul\":310:322   */\n  revert\n    /* \"#utility.yul\":334:451   */\ntag_65:\n    /* \"#utility.yul\":443:444   */\n  0x00\n    /* \"#utility.yul\":440:441   */\n  dup1\n    /* \"#utility.yul\":433:445   */\n  revert\n    /* \"#utility.yul\":457:574   */\ntag_66:\n    /* \"#utility.yul\":566:567   */\n  0x00\n    /* \"#utility.yul\":563:564   */\n  dup1\n    /* \"#utility.yul\":556:568   */\n  revert\n    /* \"#utility.yul\":580:682   */\ntag_67:\n    /* \"#utility.yul\":621:627   */\n  0x00\n    /* \"#utility.yul\":672:674   */\n  0x1f\n    /* \"#utility.yul\":668:675   */\n  not\n    /* \"#utility.yul\":663:665   */\n  0x1f\n    /* \"#utility.yul\":656:661   */\n  dup4\n    /* \"#utility.yul\":652:666   */\n  add\n    /* \"#utility.yul\":648:676   */\n  and\n    /* \"#utility.yul\":638:676   */\n  swap1\n  pop\n    /* \"#utility.yul\":580:682   */\n  swap2\n  swap1\n  pop\n  jump\t// out\n    /* \"#utility.yul\":688:868   */\ntag_10:\n    /* \"#utility.yul\":736:813   */\n  0x4e487b7100000000000000000000000000000000000000000000000000000000\n    /* \"#utility.yul\":733:734   */\n  0x00\n    /* \"#utility.yul\":726:814   */\n  mstore\n    /* \"#utility.yul\":833:837   */\n  0x41\n    /* \"#utility.yul\":830:831   */\n  0x04\n    /* \"#utility.yul\":823:838   */\n  mstore\n    /* \"#utility.yul\":857:861   */\n  0x24\n    /* \"#utility.yul\":854:855   */\n  0x00\n    /* \"#utility.yul\":847:862   */\n  revert\n    /* \"#utility.yul\":874:1155   */\ntag_68:\n    /* \"#utility.yul\":957:984   */\n  tag_107\n    /* \"#utility.yul\":979:983   */\n  dup3\n    /* \"#utility.yul\":957:984   */\n  tag_67\n  jump\t// in\ntag_107:\n    /* \"#utility.yul\":949:955   */\n  dup2\n    /* \"#utility.yul\":945:985   */\n  add\n    /* \"#utility.yul\":1087:1093   */\n  dup2\n    /* \"#utility.yul\":1075:1085   */\n  dup2\n    /* \"#utility.yul\":1072:1094   */\n  lt\n    /* \"#utility.yul\":1051:1069   */\n  0xffffffffffffffff\n    /* \"#utility.yul\":1039:1049   */\n  dup3\n    /* \"#utility.yul\":1036:1070   */\n  gt\n    /* \"#utility.yul\":1033:1095   */\n  or\n    /* \"#utility.yul\":1030:1118   */\n  iszero\n  tag_108\n  jumpi\n    /* \"#utility.yul\":1098:1116   */\n  tag_109\n  tag_10\n  jump\t// in\ntag_109:\n    /* \"#utility.yul\":1030:1118   */\ntag_108:\n    /* \"#utility.yul\":1138:1148   */\n  dup1\n    /* \"#utility.yul\":1134:1136   */\n  0x40\n    /* \"#utility.yul\":1127:1149   */\n  mstore\n    /* \"#utility.yul\":917:1155   */\n  pop\n    /* \"#utility.yul\":874:1155   */\n  pop\n  pop\n  jump\t// out\n    /* \"#utility.yul\":1161:1290   */\ntag_69:\n    /* \"#utility.yul\":1195:1201   */\n  0x00\n    /* \"#utility.yul\":1222:1242   */\n  tag_111\n  tag_62\n  jump\t// in\ntag_111:\n    /* \"#utility.yul\":1212:1242   */\n  swap1\n  pop\n    /* \"#utility.yul\":1251:1284   */\n  tag_112\n    /* \"#utility.yul\":1279:1283   */\n  dup3\n    /* \"#utility.yul\":1271:1277   */\n  dup3\n    /* \"#utility.yul\":1251:1284   */\n  tag_68\n  jump\t// in\ntag_112:\n    /* \"#utility.yul\":1161:1290   */\n  swap2\n  swap1\n  pop\n  jump\t// out\n    /* \"#utility.yul\":1296:1603   */\ntag_70:\n    /* \"#utility.yul\":1357:1361   */\n  0x00\n    /* \"#utility.yul\":1447:1465   */\n  0xffffffffffffffff\n    /* \"#utility.yul\":1439:1445   */\n  dup3\n    /* \"#utility.yul\":1436:1466   */\n  gt\n    /* \"#utility.yul\":1433:1489   */\n  iszero\n  tag_114\n  jumpi\n    /* \"#utility.yul\":1469:1487   */\n  tag_115\n  tag_10\n  jump\t// in\ntag_115:\n    /* \"#utility.yul\":1433:1489   */\ntag_114:\n    /* \"#utility.yul\":1507:1536   */\n  tag_116\n    /* \"#utility.yul\":1529:1535   */\n  dup3\n    /* \"#utility.yul\":1507:1536   */\n  tag_67\n  jump\t// in\ntag_116:\n    /* \"#utility.yul\":1499:1536   */\n  swap1\n  pop\n    /* \"#utility.yul\":1591:1595   */\n  0x20\n    /* \"#utility.yul\":1585:1589   */\n  dup2\n    /* \"#utility.yul\":1581:1596   */\n  add\n    /* \"#utility.yul\":1573:1596   */\n  swap1\n  pop\n    /* \"#utility.yul\":1296:1603   */\n  swap2\n  swap1\n  pop\n  jump\t// out\n    /* \"#utility.yul\":1609:1855   */\ntag_71:\n    /* \"#utility.yul\":1690:1691   */\n  0x00\n    /* \"#utility.yul\":1700:1813   */\ntag_118:\n    /* \"#utility.yul\":1714:1720   */\n  dup4\n    /* \"#utility.yul\":1711:1712   */\n  dup2\n    /* \"#utility.yul\":1708:1721   */\n  lt\n    /* \"#utility.yul\":1700:1813   */\n  iszero\n  tag_120\n  jumpi\n    /* \"#utility.yul\":1799:1800   */\n  dup1\n    /* \"#utility.yul\":1794:1797   */\n  dup3\n    /* \"#utility.yul\":1790:1801   */\n  add\n    /* \"#utility.yul\":1784:1802   */\n  mload\n    /* \"#utility.yul\":1780:1781   */\n  dup2\n    /* \"#utility.yul\":1775:1778   */\n  dup5\n    /* \"#utility.yul\":1771:1782   */\n  add\n    /* \"#utility.yul\":1764:1803   */\n  mstore\n    /* \"#utility.yul\":1736:1738   */\n  0x20\n    /* \"#utility.yul\":1733:1734   */\n  dup2\n    /* \"#utility.yul\":1729:1739   */\n  add\n    /* \"#utility.yul\":1724:1739   */\n  swap1\n  pop\n    /* \"#utility.yul\":1700:1813   */\n  jump(tag_118)\ntag_120:\n    /* \"#utility.yul\":1847:1848   */\n  0x00\n    /* \"#utility.yul\":1838:1844   */\n  dup5\n    /* \"#utility.yul\":1833:1836   */\n  dup5\n    /* \"#utility.yul\":1829:1845   */\n  add\n    /* \"#utility.yul\":1822:1849   */\n  mstore\n    /* \"#utility.yul\":1671:1855   */\n  pop\n    /* \"#utility.yul\":1609:1855   */\n  pop\n  pop\n  pop\n  jump\t// out\n    /* \"#utility.yul\":1861:2293   */\ntag_72:\n    /* \"#utility.yul\":1949:1954   */\n  0x00\n    /* \"#utility.yul\":1974:2039   */\n  tag_122\n    /* \"#utility.yul\":1990:2038   */\n  tag_123\n    /* \"#utility.yul\":2031:2037   */\n  dup5\n    /* \"#utility.yul\":1990:2038   */\n  tag_70\n  jump\t// in\ntag_123:\n    /* \"#utility.yul\":1974:2039   */\n  tag_69\n  jump\t// in\ntag_122:\n    /* \"#utility.yul\":1965:2039   */\n  swap1\n  pop\n    /* \"#utility.yul\":2062:2068   */\n  dup3\n    /* \"#utility.yul\":2055:2060   */\n  dup2\n    /* \"#utility.yul\":2048:2069   */\n  mstore\n    /* \"#utility.yul\":2100:2104   */\n  0x20\n    /* \"#utility.yul\":2093:2098   */\n  dup2\n    /* \"#utility.yul\":2089:2105   */\n  add\n    /* \"#utility.yul\":2138:2141   */\n  dup5\n    /* \"#utility.yul\":2129:2135   */\n  dup5\n    /* \"#utility.yul\":2124:2127   */\n  dup5\n    /* \"#utility.yul\":2120:2136   */\n  add\n    /* \"#utility.yul\":2117:2142   */\n  gt\n    /* \"#utility.yul\":2114:2226   */\n  iszero\n  tag_124\n  jumpi\n    /* \"#utility.yul\":2145:2224   */\n  tag_125\n  tag_66\n  jump\t// in\ntag_125:\n    /* \"#utility.yul\":2114:2226   */\ntag_124:\n    /* \"#utility.yul\":2235:2287   */\n  tag_126\n    /* \"#utility.yul\":2280:2286   */\n  dup5\n    /* \"#utility.yul\":2275:2278   */\n  dup3\n    /* \"#utility.yul\":2270:2273   */\n  dup6\n    /* \"#utility.yul\":2235:2287   */\n  tag_71\n  jump\t// in\ntag_126:\n    /* \"#utility.yul\":1955:2293   */\n  pop\n    /* \"#utility.yul\":1861:2293   */\n  swap4\n  swap3\n  pop\n  pop\n  pop\n  jump\t// out\n    /* \"#utility.yul\":2312:2665   */\ntag_73:\n    /* \"#utility.yul\":2378:2383   */\n  0x00\n    /* \"#utility.yul\":2427:2430   */\n  dup3\n    /* \"#utility.yul\":2420:2424   */\n  0x1f\n    /* \"#utility.yul\":2412:2418   */\n  dup4\n    /* \"#utility.yul\":2408:2425   */\n  add\n    /* \"#utility.yul\":2404:2431   */\n  slt\n    /* \"#utility.yul\":2394:2516   */\n  tag_128\n  jumpi\n    /* \"#utility.yul\":2435:2514   */\n  tag_129\n  tag_65\n  jump\t// in\ntag_129:\n    /* \"#utility.yul\":2394:2516   */\ntag_128:\n    /* \"#utility.yul\":2545:2551   */\n  dup2\n    /* \"#utility.yul\":2539:2552   */\n  mload\n    /* \"#utility.yul\":2570:2659   */\n  tag_130\n    /* \"#utility.yul\":2655:2658   */\n  dup5\n    /* \"#utility.yul\":2647:2653   */\n  dup3\n    /* \"#utility.yul\":2640:2644   */\n  0x20\n    /* \"#utility.yul\":2632:2638   */\n  dup7\n    /* \"#utility.yul\":2628:2645   */\n  add\n    /* \"#utility.yul\":2570:2659   */\n  tag_72\n  jump\t// in\ntag_130:\n    /* \"#utility.yul\":2561:2659   */\n  swap2\n  pop\n    /* \"#utility.yul\":2384:2665   */\n  pop\n    /* \"#utility.yul\":2312:2665   */\n  swap3\n  swap2\n  pop\n  pop\n  jump\t// out\n    /* \"#utility.yul\":2671:3193   */\ntag_3:\n    /* \"#utility.yul\":2750:2756   */\n  0x00\n    /* \"#utility.yul\":2799:2801   */\n  0x20\n    /* \"#utility.yul\":2787:2796   */\n  dup3\n    /* \"#utility.yul\":2778:2785   */\n  dup5\n    /* \"#utility.yul\":2774:2797   */\n  sub\n    /* \"#utility.yul\":2770:2802   */\n  slt\n    /* \"#utility.yul\":2767:2886   */\n  iszero\n  tag_132\n  jumpi\n    /* \"#utility.yul\":2805:2884   */\n  tag_133\n  tag_63\n  jump\t// in\ntag_133:\n    /* \"#utility.yul\":2767:2886   */\ntag_132:\n    /* \"#utility.yul\":2946:2947   */\n  0x00\n    /* \"#utility.yul\":2935:2944   */\n  dup3\n    /* \"#utility.yul\":2931:2948   */\n  add\n    /* \"#utility.yul\":2925:2949   */\n  mload\n    /* \"#utility.yul\":2976:2994   */\n  0xffffffffffffffff\n    /* \"#utility.yul\":2968:2974   */\n  dup2\n    /* \"#utility.yul\":2965:2995   */\n  gt\n    /* \"#utility.yul\":2962:3079   */\n  iszero\n  tag_134\n  jumpi\n    /* \"#utility.yul\":2998:3077   */\n  tag_135\n  tag_64\n  jump\t// in\ntag_135:\n    /* \"#utility.yul\":2962:3079   */\ntag_134:\n    /* \"#utility.yul\":3103:3176   */\n  tag_136\n    /* \"#utility.yul\":3168:3175   */\n  dup5\n    /* \"#utility.yul\":3159:3165   */\n  dup3\n    /* \"#utility.yul\":3148:3157   */\n  dup6\n    /* \"#utility.yul\":3144:3166   */\n  add\n    /* \"#utility.yul\":3103:3176   */\n  tag_73\n  jump\t// in\ntag_136:\n    /* \"#utility.yul\":3093:3176   */\n  swap2\n  pop\n    /* \"#utility.yul\":2896:3186   */\n  pop\n    /* \"#utility.yul\":2671:3193   */\n  swap3\n  swap2\n  pop\n  pop\n  jump\t// out\n    /* \"#utility.yul\":3199:3379   */\ntag_16:\n    /* \"#utility.yul\":3247:3324   */\n  0x4e487b7100000000000000000000000000000000000000000000000000000000\n    /* \"#utility.yul\":3244:3245   */\n  0x00\n    /* \"#utility.yul\":3237:3325   */\n  mstore\n    /* \"#utility.yul\":3344:3348   */\n  0x32\n    /* \"#utility.yul\":3341:3342   */\n  0x04\n    /* \"#utility.yul\":3334:3349   */\n  mstore\n    /* \"#utility.yul\":3368:3372   */\n  0x24\n    /* \"#utility.yul\":3365:3366   */\n  0x00\n    /* \"#utility.yul\":3358:3373   */\n  revert\n    /* \"#utility.yul\":3385:3484   */\ntag_74:\n    /* \"#utility.yul\":3437:3443   */\n  0x00\n    /* \"#utility.yul\":3471:3476   */\n  dup2\n    /* \"#utility.yul\":3465:3477   */\n  mload\n    /* \"#utility.yul\":3455:3477   */\n  swap1\n  pop\n    /* \"#utility.yul\":3385:3484   */\n  swap2\n  swap1\n  pop\n  jump\t// out\n    /* \"#utility.yul\":3490:3670   */\ntag_75:\n    /* \"#utility.yul\":3538:3615   */\n  0x4e487b7100000000000000000000000000000000000000000000000000000000\n    /* \"#utility.yul\":3535:3536   */\n  0x00\n    /* \"#utility.yul\":3528:3616   */\n  mstore\n    /* \"#utility.yul\":3635:3639   */\n  0x22\n    /* \"#utility.yul\":3632:3633   */\n  0x04\n    /* \"#utility.yul\":3625:3640   */\n  mstore\n    /* \"#utility.yul\":3659:3663   */\n  0x24\n    /* \"#utility.yul\":3656:3657   */\n  0x00\n    /* \"#utility.yul\":3649:3664   */\n  revert\n    /* \"#utility.yul\":3676:3996   */\ntag_76:\n    /* \"#utility.yul\":3720:3726   */\n  0x00\n    /* \"#utility.yul\":3757:3758   */\n  0x02\n    /* \"#utility.yul\":3751:3755   */\n  dup3\n    /* \"#utility.yul\":3747:3759   */\n  div\n    /* \"#utility.yul\":3737:3759   */\n  swap1\n  pop\n    /* \"#utility.yul\":3804:3805   */\n  0x01\n    /* \"#utility.yul\":3798:3802   */\n  dup3\n    /* \"#utility.yul\":3794:3806   */\n  and\n    /* \"#utility.yul\":3825:3843   */\n  dup1\n    /* \"#utility.yul\":3815:3896   */\n  tag_141\n  jumpi\n    /* \"#utility.yul\":3881:3885   */\n  0x7f\n    /* \"#utility.yul\":3873:3879   */\n  dup3\n    /* \"#utility.yul\":3869:3886   */\n  and\n    /* \"#utility.yul\":3859:3886   */\n  swap2\n  pop\n    /* \"#utility.yul\":3815:3896   */\ntag_141:\n    /* \"#utility.yul\":3943:3945   */\n  0x20\n    /* \"#utility.yul\":3935:3941   */\n  dup3\n    /* \"#utility.yul\":3932:3946   */\n  lt\n    /* \"#utility.yul\":3912:3930   */\n  dup2\n    /* \"#utility.yul\":3909:3947   */\n  sub\n    /* \"#utility.yul\":3906:3990   */\n  tag_142\n  jumpi\n    /* \"#utility.yul\":3962:3980   */\n  tag_143\n  tag_75\n  jump\t// in\ntag_143:\n    /* \"#utility.yul\":3906:3990   */\ntag_142:\n    /* \"#utility.yul\":3727:3996   */\n  pop\n    /* \"#utility.yul\":3676:3996   */\n  swap2\n  swap1\n  pop\n  jump\t// out\n    /* \"#utility.yul\":4002:4143   */\ntag_77:\n    /* \"#utility.yul\":4051:4055   */\n  0x00\n    /* \"#utility.yul\":4074:4077   */\n  dup2\n    /* \"#utility.yul\":4066:4077   */\n  swap1\n  pop\n    /* \"#utility.yul\":4097:4100   */\n  dup2\n    /* \"#utility.yul\":4094:4095   */\n  0x00\n    /* \"#utility.yul\":4087:4101   */\n  mstore\n    /* \"#utility.yul\":4131:4135   */\n  0x20\n    /* \"#utility.yul\":4128:4129   */\n  0x00\n    /* \"#utility.yul\":4118:4136   */\n  keccak256\n    /* \"#utility.yul\":4110:4136   */\n  swap1\n  pop\n    /* \"#utility.yul\":4002:4143   */\n  swap2\n  swap1\n  pop\n  jump\t// out\n    /* \"#utility.yul\":4149:4242   */\ntag_78:\n    /* \"#utility.yul\":4186:4192   */\n  0x00\n    /* \"#utility.yul\":4233:4235   */\n  0x20\n    /* \"#utility.yul\":4228:4230   */\n  0x1f\n    /* \"#utility.yul\":4221:4226   */\n  dup4\n    /* \"#utility.yul\":4217:4231   */\n  add\n    /* \"#utility.yul\":4213:4236   */\n  div\n    /* \"#utility.yul\":4203:4236   */\n  swap1\n  pop\n    /* \"#utility.yul\":4149:4242   */\n  swap2\n  swap1\n  pop\n  jump\t// out\n    /* \"#utility.yul\":4248:4355   */\ntag_79:\n    /* \"#utility.yul\":4292:4300   */\n  0x00\n    /* \"#utility.yul\":4342:4347   */\n  dup3\n    /* \"#utility.yul\":4336:4340   */\n  dup3\n    /* \"#utility.yul\":4332:4348   */\n  shl\n    /* \"#utility.yul\":4311:4348   */\n  swap1\n  pop\n    /* \"#utility.yul\":4248:4355   */\n  swap3\n  swap2\n  pop\n  pop\n  jump\t// out\n    /* \"#utility.yul\":4361:4754   */\ntag_80:\n    /* \"#utility.yul\":4430:4436   */\n  0x00\n    /* \"#utility.yul\":4480:4481   */\n  0x08\n    /* \"#utility.yul\":4468:4478   */\n  dup4\n    /* \"#utility.yul\":4464:4482   */\n  mul\n    /* \"#utility.yul\":4503:4600   */\n  tag_148\n    /* \"#utility.yul\":4533:4599   */\n  0xffffffffffffffffffffffffffffffffffffffffffffffffffffffffffffffff\n    /* \"#utility.yul\":4522:4531   */\n  dup3\n    /* \"#utility.yul\":4503:4600   */\n  tag_79\n  jump\t// in\ntag_148:\n    /* \"#utility.yul\":4621:4660   */\n  tag_149\n    /* \"#utility.yul\":4651:4659   */\n  dup7\n    /* \"#utility.yul\":4640:4649   */\n  dup4\n    /* \"#utility.yul\":4621:4660   */\n  tag_79\n  jump\t// in\ntag_149:\n    /* \"#utility.yul\":4609:4660   */\n  swap6\n  pop\n    /* \"#utility.yul\":4693:4697   */\n  dup1\n    /* \"#utility.yul\":4689:4698   */\n  not\n    /* \"#utility.yul\":4682:4687   */\n  dup5\n    /* \"#utility.yul\":4678:4699   */\n  and\n    /* \"#utility.yul\":4669:4699   */\n  swap4\n  pop\n    /* \"#utility.yul\":4742:4746   */\n  dup1\n    /* \"#utility.yul\":4732:4740   */\n  dup7\n    /* \"#utility.yul\":4728:4747   */\n  and\n    /* \"#utility.yul\":4721:4726   */\n  dup5\n    /* \"#utility.yul\":4718:4748   */\n  or\n    /* \"#utility.yul\":4708:4748   */\n  swap3\n  pop\n    /* \"#utility.yul\":4437:4754   */\n  pop\n  pop\n    /* \"#utility.yul\":4361:4754   */\n  swap4\n  swap3\n  pop\n  pop\n  pop\n  jump\t// out\n    /* \"#utility.yul\":4760:4837   */\ntag_81:\n    /* \"#utility.yul\":4797:4804   */\n  0x00\n    /* \"#utility.yul\":4826:4831   */\n  dup2\n    /* \"#utility.yul\":4815:4831   */\n  swap1\n  pop\n    /* \"#utility.yul\":4760:4837   */\n  swap2\n  swap1\n  pop\n  jump\t// out\n    /* \"#utility.yul\":4843:4903   */\ntag_82:\n    /* \"#utility.yul\":4871:4874   */\n  0x00\n    /* \"#utility.yul\":4892:4897   */\n  dup2\n    /* \"#utility.yul\":4885:4897   */\n  swap1\n  pop\n    /* \"#utility.yul\":4843:4903   */\n  swap2\n  swap1\n  pop\n  jump\t// out\n    /* \"#utility.yul\":4909:5051   */\ntag_83:\n    /* \"#utility.yul\":4959:4968   */\n  0x00\n    /* \"#utility.yul\":4992:5045   */\n  tag_153\n    /* \"#utility.yul\":5010:5044   */\n  tag_154\n    /* \"#utility.yul\":5019:5043   */\n  tag_155\n    /* \"#utility.yul\":5037:5042   */\n  dup5\n    /* \"#utility.yul\":5019:5043   */\n  tag_81\n  jump\t// in\ntag_155:\n    /* \"#utility.yul\":5010:5044   */\n  tag_82\n  jump\t// in\ntag_154:\n    /* \"#utility.yul\":4992:5045   */\n  tag_81\n  jump\t// in\ntag_153:\n    /* \"#utility.yul\":4979:5045   */\n  swap1\n  pop\n    /* \"#utility.yul\":4909:5051   */\n  swap2\n  swap1\n  pop\n  jump\t// out\n    /* \"#utility.yul\":5057:5132   */\ntag_84:\n    /* \"#utility.yul\":5100:5103   */\n  0x00\n    /* \"#utility.yul\":5121:5126   */\n  dup2\n    /* \"#utility.yul\":5114:5126   */\n  swap1\n  pop\n    /* \"#utility.yul\":5057:5132   */\n  swap2\n  swap1\n  pop\n  jump\t// out\n    /* \"#utility.yul\":5138:5407   */\ntag_85:\n    /* \"#utility.yul\":5248:5287   */\n  tag_158\n    /* \"#utility.yul\":5279:5286   */\n  dup4\n    /* \"#utility.yul\":5248:5287   */\n  tag_83\n  jump\t// in\ntag_158:\n    /* \"#utility.yul\":5309:5400   */\n  tag_159\n    /* \"#utility.yul\":5358:5399   */\n  tag_160\n    /* \"#utility.yul\":5382:5398   */\n  dup3\n    /* \"#utility.yul\":5358:5399   */\n  tag_84\n  jump\t// in\ntag_160:\n    /* \"#utility.yul\":5350:5356   */\n  dup5\n    /* \"#utility.yul\":5343:5347   */\n  dup5\n    /* \"#utility.yul\":5337:5348   */\n  sload\n    /* \"#utility.yul\":5309:5400   */\n  tag_80\n  jump\t// in\ntag_159:\n    /* \"#utility.yul\":5303:5307   */\n  dup3\n    /* \"#utility.yul\":5296:5401   */\n  sstore\n    /* \"#utility.yul\":5214:5407   */\n  pop\n    /* \"#utility.yul\":5138:5407   */\n  pop\n  pop\n  pop\n  jump\t// out\n    /* \"#utility.yul\":5413:5486   */\ntag_86:\n    /* \"#utility.yul\":5458:5461   */\n  0x00\n    /* \"#utility.yul\":5413:5486   */\n  swap1\n  jump\t// out\n    /* \"#utility.yul\":5492:5681   */\ntag_87:\n    /* \"#utility.yul\":5569:5601   */\n  tag_163\n  tag_86\n  jump\t// in\ntag_163:\n    /* \"#utility.yul\":5610:5675   */\n  tag_164\n    /* \"#utility.yul\":5668:5674   */\n  dup2\n    /* \"#utility.yul\":5660:5666   */\n  dup5\n    /* \"#utility.yul\":5654:5658   */\n  dup5\n    /* \"#utility.yul\":5610:5675   */\n  tag_85\n  jump\t// in\ntag_164:\n    /* \"#utility.yul\":5545:5681   */\n  pop\n    /* \"#utility.yul\":5492:5681   */\n  pop\n  pop\n  jump\t// out\n    /* \"#utility.yul\":5687:5873   */\ntag_88:\n    /* \"#utility.yul\":5747:5867   */\ntag_166:\n    /* \"#utility.yul\":5764:5767   */\n  dup2\n    /* \"#utility.yul\":5757:5762   */\n  dup2\n    /* \"#utility.yul\":5754:5768   */\n  lt\n    /* \"#utility.yul\":5747:5867   */\n  iszero\n  tag_168\n  jumpi\n    /* \"#utility.yul\":5818:5857   */\n  tag_169\n    /* \"#utility.yul\":5855:5856   */\n  0x00\n    /* \"#utility.yul\":5848:5853   */\n  dup3\n    /* \"#utility.yul\":5818:5857   */\n  tag_87\n  jump\t// in\ntag_169:\n    /* \"#utility.yul\":5791:5792   */\n  0x01\n    /* \"#utility.yul\":5784:5789   */\n  dup2\n    /* \"#utility.yul\":5780:5793   */\n  add\n    /* \"#utility.yul\":5771:5793   */\n  swap1\n  pop\n    /* \"#utility.yul\":5747:5867   */\n  jump(tag_166)\ntag_168:\n    /* \"#utility.yul\":5687:5873   */\n  pop\n  pop\n  jump\t// out\n    /* \"#utility.yul\":5879:6422   */\ntag_89:\n    /* \"#utility.yul\":5980:5982   */\n  0x1f\n    /* \"#utility.yul\":5975:5978   */\n  dup3\n    /* \"#utility.yul\":5972:5983   */\n  gt\n    /* \"#utility.yul\":5969:6415   */\n  iszero\n  tag_171\n  jumpi\n    /* \"#utility.yul\":6014:6052   */\n  tag_172\n    /* \"#utility.yul\":6046:6051   */\n  dup2\n    /* \"#utility.yul\":6014:6052   */\n  tag_77\n  jump\t// in\ntag_172:\n    /* \"#utility.yul\":6098:6127   */\n  tag_173\n    /* \"#utility.yul\":6116:6126   */\n  dup5\n    /* \"#utility.yul\":6098:6127   */\n  tag_78\n  jump\t// in\ntag_173:\n    /* \"#utility.yul\":6088:6096   */\n  dup2\n    /* \"#utility.yul\":6084:6128   */\n  add\n    /* \"#utility.yul\":6281:6283   */\n  0x20\n    /* \"#utility.yul\":6269:6279   */\n  dup6\n    /* \"#utility.yul\":6266:6284   */\n  lt\n    /* \"#utility.yul\":6263:6312   */\n  iszero\n  tag_174\n  jumpi\n    /* \"#utility.yul\":6302:6310   */\n  dup2\n    /* \"#utility.yul\":6287:6310   */\n  swap1\n  pop\n    /* \"#utility.yul\":6263:6312   */\ntag_174:\n    /* \"#utility.yul\":6325:6405   */\n  tag_175\n    /* \"#utility.yul\":6381:6403   */\n  tag_176\n    /* \"#utility.yul\":6399:6402   */\n  dup6\n    /* \"#utility.yul\":6381:6403   */\n  tag_78\n  jump\t// in\ntag_176:\n    /* \"#utility.yul\":6371:6379   */\n  dup4\n    /* \"#utility.yul\":6367:6404   */\n  add\n    /* \"#utility.yul\":6354:6365   */\n  dup3\n    /* \"#utility.yul\":6325:6405   */\n  tag_88\n  jump\t// in\ntag_175:\n    /* \"#utility.yul\":5984:6415   */\n  pop\n  pop\n    /* \"#utility.yul\":5969:6415   */\ntag_171:\n    /* \"#utility.yul\":5879:6422   */\n  pop\n  pop\n  pop\n  jump\t// out\n    /* \"#utility.yul\":6428:6545   */\ntag_90:\n    /* \"#utility.yul\":6482:6490   */\n  0x00\n    /* \"#utility.yul\":6532:6537   */\n  dup3\n    /* \"#utility.yul\":6526:6530   */\n  dup3\n    /* \"#utility.yul\":6522:6538   */\n  shr\n    /* \"#utility.yul\":6501:6538   */\n  swap1\n  pop\n    /* \"#utility.yul\":6428:6545   */\n  swap3\n  swap2\n  pop\n  pop\n  jump\t// out\n    /* \"#utility.yul\":6551:6720   */\ntag_91:\n    /* \"#utility.yul\":6595:6601   */\n  0x00\n    /* \"#utility.yul\":6628:6679   */\n  tag_179\n    /* \"#utility.yul\":6676:6677   */\n  0x00\n    /* \"#utility.yul\":6672:6678   */\n  not\n    /* \"#utility.yul\":6664:6669   */\n  dup5\n    /* \"#utility.yul\":6661:6662   */\n  0x08\n    /* \"#utility.yul\":6657:6670   */\n  mul\n    /* \"#utility.yul\":6628:6679   */\n  tag_90\n  jump\t// in\ntag_179:\n    /* \"#utility.yul\":6624:6680   */\n  not\n    /* \"#utility.yul\":6709:6713   */\n  dup1\n    /* \"#utility.yul\":6703:6707   */\n  dup4\n    /* \"#utility.yul\":6699:6714   */\n  and\n    /* \"#utility.yul\":6689:6714   */\n  swap2\n  pop\n    /* \"#utility.yul\":6602:6720   */\n  pop\n    /* \"#utility.yul\":6551:6720   */\n  swap3\n  swap2\n  pop\n  pop\n  jump\t// out\n    /* \"#utility.yul\":6725:7020   */\ntag_92:\n    /* \"#utility.yul\":6801:6805   */\n  0x00\n    /* \"#utility.yul\":6947:6976   */\n  tag_181\n    /* \"#utility.yul\":6972:6975   */\n  dup4\n    /* \"#utility.yul\":6966:6970   */\n  dup4\n    /* \"#utility.yul\":6947:6976   */\n  tag_91\n  jump\t// in\ntag_181:\n    /* \"#utility.yul\":6939:6976   */\n  swap2\n  pop\n    /* \"#utility.yul\":7009:7012   */\n  dup3\n    /* \"#utility.yul\":7006:7007   */\n  0x02\n    /* \"#utility.yul\":7002:7013   */\n  mul\n    /* \"#utility.yul\":6996:7000   */\n  dup3\n    /* \"#utility.yul\":6993:7014   */\n  or\n    /* \"#utility.yul\":6985:7014   */\n  swap1\n  pop\n    /* \"#utility.yul\":6725:7020   */\n  swap3\n  swap2\n  pop\n  pop\n  jump\t// out\n    /* \"#utility.yul\":7025:8420   */\ntag_40:\n    /* \"#utility.yul\":7142:7179   */\n  tag_183\n    /* \"#utility.yul\":7175:7178   */\n  dup3\n    /* \"#utility.yul\":7142:7179   */\n  tag_74\n  jump\t// in\ntag_183:\n    /* \"#utility.yul\":7244:7262   */\n  0xffffffffffffffff\n    /* \"#utility.yul\":7236:7242   */\n  dup2\n    /* \"#utility.yul\":7233:7263   */\n  gt\n    /* \"#utility.yul\":7230:7286   */\n  iszero\n  tag_184\n  jumpi\n    /* \"#utility.yul\":7266:7284   */\n  tag_185\n  tag_10\n  jump\t// in\ntag_185:\n    /* \"#utility.yul\":7230:7286   */\ntag_184:\n    /* \"#utility.yul\":7310:7348   */\n  tag_186\n    /* \"#utility.yul\":7342:7346   */\n  dup3\n    /* \"#utility.yul\":7336:7347   */\n  sload\n    /* \"#utility.yul\":7310:7348   */\n  tag_76\n  jump\t// in\ntag_186:\n    /* \"#utility.yul\":7395:7462   */\n  tag_187\n    /* \"#utility.yul\":7455:7461   */\n  dup3\n    /* \"#utility.yul\":7447:7453   */\n  dup3\n    /* \"#utility.yul\":7441:7445   */\n  dup6\n    /* \"#utility.yul\":7395:7462   */\n  tag_89\n  jump\t// in\ntag_187:\n    /* \"#utility.yul\":7489:7490   */\n  0x00\n    /* \"#utility.yul\":7513:7517   */\n  0x20\n    /* \"#utility.yul\":7500:7517   */\n  swap1\n  pop\n    /* \"#utility.yul\":7545:7547   */\n  0x1f\n    /* \"#utility.yul\":7537:7543   */\n  dup4\n    /* \"#utility.yul\":7534:7548   */\n  gt\n    /* \"#utility.yul\":7562:7563   */\n  0x01\n    /* \"#utility.yul\":7557:8175   */\n  dup2\n  eq\n  tag_189\n  jumpi\n    /* \"#utility.yul\":8219:8220   */\n  0x00\n    /* \"#utility.yul\":8236:8242   */\n  dup5\n    /* \"#utility.yul\":8233:8310   */\n  iszero\n  tag_190\n  jumpi\n    /* \"#utility.yul\":8285:8294   */\n  dup3\n    /* \"#utility.yul\":8280:8283   */\n  dup8\n    /* \"#utility.yul\":8276:8295   */\n  add\n    /* \"#utility.yul\":8270:8296   */\n  mload\n    /* \"#utility.yul\":8261:8296   */\n  swap1\n  pop\n    /* \"#utility.yul\":8233:8310   */\ntag_190:\n    /* \"#utility.yul\":8336:8403   */\n  tag_191\n    /* \"#utility.yul\":8396:8402   */\n  dup6\n    /* \"#utility.yul\":8389:8394   */\n  dup3\n    /* \"#utility.yul\":8336:8403   */\n  tag_92\n  jump\t// in\ntag_191:\n    /* \"#utility.yul\":8330:8334   */\n  dup7\n    /* \"#utility.yul\":8323:8404   */\n  sstore\n    /* \"#utility.yul\":8192:8414   */\n  pop\n    /* \"#utility.yul\":7527:8414   */\n  jump(tag_188)\n    /* \"#utility.yul\":7557:8175   */\ntag_189:\n    /* \"#utility.yul\":7609:7613   */\n  0x1f\n    /* \"#utility.yul\":7605:7614   */\n  not\n    /* \"#utility.yul\":7597:7603   */\n  dup5\n    /* \"#utility.yul\":7593:7615   */\n  and\n    /* \"#utility.yul\":7643:7680   */\n  tag_192\n    /* \"#utility.yul\":7675:7679   */\n  dup7\n    /* \"#utility.yul\":7643:7680   */\n  tag_77\n  jump\t// in\ntag_192:\n    /* \"#utility.yul\":7702:7703   */\n  0x00\n    /* \"#utility.yul\":7716:7924   */\ntag_193:\n    /* \"#utility.yul\":7730:7737   */\n  dup3\n    /* \"#utility.yul\":7727:7728   */\n  dup2\n    /* \"#utility.yul\":7724:7738   */\n  lt\n    /* \"#utility.yul\":7716:7924   */\n  iszero\n  tag_195\n  jumpi\n    /* \"#utility.yul\":7809:7818   */\n  dup5\n    /* \"#utility.yul\":7804:7807   */\n  dup10\n    /* \"#utility.yul\":7800:7819   */\n  add\n    /* \"#utility.yul\":7794:7820   */\n  mload\n    /* \"#utility.yul\":7786:7792   */\n  dup3\n    /* \"#utility.yul\":7779:7821   */\n  sstore\n    /* \"#utility.yul\":7860:7861   */\n  0x01\n    /* \"#utility.yul\":7852:7858   */\n  dup3\n    /* \"#utility.yul\":7848:7862   */\n  add\n    /* \"#utility.yul\":7838:7862   */\n  swap2\n  pop\n    /* \"#utility.yul\":7907:7909   */\n  0x20\n    /* \"#utility.yul\":7896:7905   */\n  dup6\n    /* \"#utility.yul\":7892:7910   */\n  add\n    /* \"#utility.yul\":7879:7910   */\n  swap5\n  pop\n    /* \"#utility.yul\":7753:7757   */\n  0x20\n    /* \"#utility.yul\":7750:7751   */\n  dup2\n    /* \"#utility.yul\":7746:7758   */\n  add\n    /* \"#utility.yul\":7741:7758   */\n  swap1\n  pop\n    /* \"#utility.yul\":7716:7924   */\n  jump(tag_193)\ntag_195:\n    /* \"#utility.yul\":7952:7958   */\n  dup7\n    /* \"#utility.yul\":7943:7950   */\n  dup4\n    /* \"#utility.yul\":7940:7959   */\n  lt\n    /* \"#utility.yul\":7937:8116   */\n  iszero\n  tag_196\n  jumpi\n    /* \"#utility.yul\":8010:8019   */\n  dup5\n    /* \"#utility.yul\":8005:8008   */\n  dup10\n    /* \"#utility.yul\":8001:8020   */\n  add\n    /* \"#utility.yul\":7995:8021   */\n  mload\n    /* \"#utility.yul\":8053:8101   */\n  tag_197\n    /* \"#utility.yul\":8095:8099   */\n  0x1f\n    /* \"#utility.yul\":8087:8093   */\n  dup10\n    /* \"#utility.yul\":8083:8100   */\n  and\n    /* \"#utility.yul\":8072:8081   */\n  dup3\n    /* \"#utility.yul\":8053:8101   */\n  tag_91\n  jump\t// in\ntag_197:\n    /* \"#utility.yul\":8045:8051   */\n  dup4\n    /* \"#utility.yul\":8038:8102   */\n  sstore\n    /* \"#utility.yul\":7960:8116   */\n  pop\n    /* \"#utility.yul\":7937:8116   */\ntag_196:\n    /* \"#utility.yul\":8162:8163   */\n  0x01\n    /* \"#utility.yul\":8158:8159   */\n  0x02\n    /* \"#utility.yul\":8150:8156   */\n  dup9\n    /* \"#utility.yul\":8146:8160   */\n  mul\n    /* \"#utility.yul\":8142:8164   */\n  add\n    /* \"#utility.yul\":8136:8140   */\n  dup9\n    /* \"#utility.yul\":8129:8165   */\n  sstore\n    /* \"#utility.yul\":7564:8175   */\n  pop\n  pop\n  pop\n    /* \"#utility.yul\":7527:8414   */\ntag_188:\n  pop\n    /* \"#utility.yul\":7117:8420   */\n  pop\n  pop\n  pop\n    /* \"#utility.yul\":7025:8420   */\n  pop\n  pop\n  jump\t// out\n    /* \"#utility.yul\":8426:8524   */\ntag_93:\n    /* \"#utility.yul\":8477:8483   */\n  0x00\n    /* \"#utility.yul\":8511:8516   */\n  dup2\n    /* \"#utility.yul\":8505:8517   */\n  mload\n    /* \"#utility.yul\":8495:8517   */\n  swap1\n  pop\n    /* \"#utility.yul\":8426:8524   */\n  swap2\n  swap1\n  pop\n  jump\t// out\n    /* \"#utility.yul\":8530:8670   */\ntag_94:\n    /* \"#utility.yul\":8578:8582   */\n  0x00\n    /* \"#utility.yul\":8601:8604   */\n  dup2\n    /* \"#utility.yul\":8593:8604   */\n  swap1\n  pop\n    /* \"#utility.yul\":8624:8627   */\n  dup2\n    /* \"#utility.yul\":8621:8622   */\n  0x00\n    /* \"#utility.yul\":8614:8628   */\n  mstore\n    /* \"#utility.yul\":8658:8662   */\n  0x20\n    /* \"#utility.yul\":8655:8656   */\n  0x00\n    /* \"#utility.yul\":8645:8663   */\n  keccak256\n    /* \"#utility.yul\":8637:8663   */\n  swap1\n  pop\n    /* \"#utility.yul\":8530:8670   */\n  swap2\n  swap1\n  pop\n  jump\t// out\n    /* \"#utility.yul\":8676:9217   */\ntag_95:\n    /* \"#utility.yul\":8776:8778   */\n  0x1f\n    /* \"#utility.yul\":8771:8774   */\n  dup3\n    /* \"#utility.yul\":8768:8779   */\n  gt\n    /* \"#utility.yul\":8765:9210   */\n  iszero\n  tag_201\n  jumpi\n    /* \"#utility.yul\":8810:8847   */\n  tag_202\n    /* \"#utility.yul\":8841:8846   */\n  dup2\n    /* \"#utility.yul\":8810:8847   */\n  tag_94\n  jump\t// in\ntag_202:\n    /* \"#utility.yul\":8893:8922   */\n  tag_203\n    /* \"#utility.yul\":8911:8921   */\n  dup5\n    /* \"#utility.yul\":8893:8922   */\n  tag_78\n  jump\t// in\ntag_203:\n    /* \"#utility.yul\":8883:8891   */\n  dup2\n    /* \"#utility.yul\":8879:8923   */\n  add\n    /* \"#utility.yul\":9076:9078   */\n  0x20\n    /* \"#utility.yul\":9064:9074   */\n  dup6\n    /* \"#utility.yul\":9061:9079   */\n  lt\n    /* \"#utility.yul\":9058:9107   */\n  iszero\n  tag_204\n  jumpi\n    /* \"#utility.yul\":9097:9105   */\n  dup2\n    /* \"#utility.yul\":9082:9105   */\n  swap1\n  pop\n    /* \"#utility.yul\":9058:9107   */\ntag_204:\n    /* \"#utility.yul\":9120:9200   */\n  tag_205\n    /* \"#utility.yul\":9176:9198   */\n  tag_206\n    /* \"#utility.yul\":9194:9197   */\n  dup6\n    /* \"#utility.yul\":9176:9198   */\n  tag_78\n  jump\t// in\ntag_206:\n    /* \"#utility.yul\":9166:9174   */\n  dup4\n    /* \"#utility.yul\":9162:9199   */\n  add\n    /* \"#utility.yul\":9149:9160   */\n  dup3\n    /* \"#utility.yul\":9120:9200   */\n  tag_88\n  jump\t// in\ntag_205:\n    /* \"#utility.yul\":8780:9210   */\n  pop\n  pop\n    /* \"#utility.yul\":8765:9210   */\ntag_201:\n    /* \"#utility.yul\":8676:9217   */\n  pop\n  pop\n  pop\n  jump\t// out\n    /* \"#utility.yul\":9223:10613   */\ntag_42:\n    /* \"#utility.yul\":9338:9374   */\n  tag_208\n    /* \"#utility.yul\":9370:9373   */\n  dup3\n    /* \"#utility.yul\":9338:9374   */\n  tag_93\n  jump\t// in\ntag_208:\n    /* \"#utility.yul\":9439:9457   */\n  0xffffffffffffffff\n    /* \"#utility.yul\":9431:9437   */\n  dup2\n    /* \"#utility.yul\":9428:9458   */\n  gt\n    /* \"#utility.yul\":9425:9481   */\n  iszero\n  tag_209\n  jumpi\n    /* \"#utility.yul\":9461:9479   */\n  tag_210\n  tag_10\n  jump\t// in\ntag_210:\n    /* \"#utility.yul\":9425:9481   */\ntag_209:\n    /* \"#utility.yul\":9505:9543   */\n  tag_211\n    /* \"#utility.yul\":9537:9541   */\n  dup3\n    /* \"#utility.yul\":9531:9542   */\n  sload\n    /* \"#utility.yul\":9505:9543   */\n  tag_76\n  jump\t// in\ntag_211:\n    /* \"#utility.yul\":9590:9656   */\n  tag_212\n    /* \"#utility.yul\":9649:9655   */\n  dup3\n    /* \"#utility.yul\":9641:9647   */\n  dup3\n    /* \"#utility.yul\":9635:9639   */\n  dup6\n    /* \"#utility.yul\":9590:9656   */\n  tag_95\n  jump\t// in\ntag_212:\n    /* \"#utility.yul\":9683:9684   */\n  0x00\n    /* \"#utility.yul\":9707:9711   */\n  0x20\n    /* \"#utility.yul\":9694:9711   */\n  swap1\n  pop\n    /* \"#utility.yul\":9739:9741   */\n  0x1f\n    /* \"#utility.yul\":9731:9737   */\n  dup4\n    /* \"#utility.yul\":9728:9742   */\n  gt\n    /* \"#utility.yul\":9756:9757   */\n  0x01\n    /* \"#utility.yul\":9751:10368   */\n  dup2\n  eq\n  tag_214\n  jumpi\n    /* \"#utility.yul\":10412:10413   */\n  0x00\n    /* \"#utility.yul\":10429:10435   */\n  dup5\n    /* \"#utility.yul\":10426:10503   */\n  iszero\n  tag_215\n  jumpi\n    /* \"#utility.yul\":10478:10487   */\n  dup3\n    /* \"#utility.yul\":10473:10476   */\n  dup8\n    /* \"#utility.yul\":10469:10488   */\n  add\n    /* \"#utility.yul\":10463:10489   */\n  mload\n    /* \"#utility.yul\":10454:10489   */\n  swap1\n  pop\n    /* \"#utility.yul\":10426:10503   */\ntag_215:\n    /* \"#utility.yul\":10529:10596   */\n  tag_216\n    /* \"#utility.yul\":10589:10595   */\n  dup6\n    /* \"#utility.yul\":10582:10587   */\n  dup3\n    /* \"#utility.yul\":10529:10596   */\n  tag_92\n  jump\t// in\ntag_216:\n    /* \"#utility.yul\":10523:10527   */\n  dup7\n    /* \"#utility.yul\":10516:10597   */\n  sstore\n    /* \"#utility.yul\":10385:10607   */\n  pop\n    /* \"#utility.yul\":9721:10607   */\n  jump(tag_213)\n    /* \"#utility.yul\":9751:10368   */\ntag_214:\n    /* \"#utility.yul\":9803:9807   */\n  0x1f\n    /* \"#utility.yul\":9799:9808   */\n  not\n    /* \"#utility.yul\":9791:9797   */\n  dup5\n    /* \"#utility.yul\":9787:9809   */\n  and\n    /* \"#utility.yul\":9837:9873   */\n  tag_217\n    /* \"#utility.yul\":9868:9872   */\n  dup7\n    /* \"#utility.yul\":9837:9873   */\n  tag_94\n  jump\t// in\ntag_217:\n    /* \"#utility.yul\":9895:9896   */\n  0x00\n    /* \"#utility.yul\":9909:10117   */\ntag_218:\n    /* \"#utility.yul\":9923:9930   */\n  dup3\n    /* \"#utility.yul\":9920:9921   */\n  dup2\n    /* \"#utility.yul\":9917:9931   */\n  lt\n    /* \"#utility.yul\":9909:10117   */\n  iszero\n  tag_220\n  jumpi\n    /* \"#utility.yul\":10002:10011   */\n  dup5\n    /* \"#utility.yul\":9997:10000   */\n  dup10\n    /* \"#utility.yul\":9993:10012   */\n  add\n    /* \"#utility.yul\":9987:10013   */\n  mload\n    /* \"#utility.yul\":9979:9985   */\n  dup3\n    /* \"#utility.yul\":9972:10014   */\n  sstore\n    /* \"#utility.yul\":10053:10054   */\n  0x01\n    /* \"#utility.yul\":10045:10051   */\n  dup3\n    /* \"#utility.yul\":10041:10055   */\n  add\n    /* \"#utility.yul\":10031:10055   */\n  swap2\n  pop\n    /* \"#utility.yul\":10100:10102   */\n  0x20\n    /* \"#utility.yul\":10089:10098   */\n  dup6\n    /* \"#utility.yul\":10085:10103   */\n  add\n    /* \"#utility.yul\":10072:10103   */\n  swap5\n  pop\n    /* \"#utility.yul\":9946:9950   */\n  0x20\n    /* \"#utility.yul\":9943:9944   */\n  dup2\n    /* \"#utility.yul\":9939:9951   */\n  add\n    /* \"#utility.yul\":9934:9951   */\n  swap1\n  pop\n    /* \"#utility.yul\":9909:10117   */\n  jump(tag_218)\ntag_220:\n    /* \"#utility.yul\":10145:10151   */\n  dup7\n    /* \"#utility.yul\":10136:10143   */\n  dup4\n    /* \"#utility.yul\":10133:10152   */\n  lt\n    /* \"#utility.yul\":10130:10309   */\n  iszero\n  tag_221\n  jumpi\n    /* \"#utility.yul\":10203:10212   */\n  dup5\n    /* \"#utility.yul\":10198:10201   */\n  dup10\n    /* \"#utility.yul\":10194:10213   */\n  add\n    /* \"#utility.yul\":10188:10214   */\n  mload\n    /* \"#utility.yul\":10246:10294   */\n  tag_222\n    /* \"#utility.yul\":10288:10292   */\n  0x1f\n    /* \"#utility.yul\":10280:10286   */\n  dup10\n    /* \"#utility.yul\":10276:10293   */\n  and\n    /* \"#utility.yul\":10265:10274   */\n  dup3\n    /* \"#utility.yul\":10246:10294   */\n  tag_91\n  jump\t// in\ntag_222:\n    /* \"#utility.yul\":10238:10244   */\n  dup4\n    /* \"#utility.yul\":10231:10295   */\n  sstore\n    /* \"#utility.yul\":10153:10309   */\n  pop\n    /* \"#utility.yul\":10130:10309   */\ntag_221:\n    /* \"#utility.yul\":10355:10356   */\n  0x01\n    /* \"#utility.yul\":10351:10352   */\n  0x02\n    /* \"#utility.yul\":10343:10349   */\n  dup9\n    /* \"#utility.yul\":10339:10353   */\n  mul\n    /* \"#utility.yul\":10335:10357   */\n  add\n    /* \"#utility.yul\":10329:10333   */\n  dup9\n    /* \"#utility.yul\":10322:10358   */\n  sstore\n    /* \"#utility.yul\":9758:10368   */\n  pop\n  pop\n  pop\n    /* \"#utility.yul\":9721:10607   */\ntag_213:\n  pop\n    /* \"#utility.yul\":9313:10613   */\n  pop\n  pop\n  pop\n    /* \"#utility.yul\":9223:10613   */\n  pop\n  pop\n  jump\t// out\n    /* \"#utility.yul\":10619:10766   */\ntag_96:\n    /* \"#utility.yul\":10720:10731   */\n  0x00\n    /* \"#utility.yul\":10757:10760   */\n  dup2\n    /* \"#utility.yul\":10742:10760   */\n  swap1\n  pop\n    /* \"#utility.yul\":10619:10766   */\n  swap3\n  swap2\n  pop\n  pop\n  jump\t// out\n    /* \"#utility.yul\":10794:11664   */\ntag_97:\n    /* \"#utility.yul\":10895:10898   */\n  0x00\n    /* \"#utility.yul\":10932:10937   */\n  dup2\n    /* \"#utility.yul\":10926:10938   */\n  sload\n    /* \"#utility.yul\":10961:10997   */\n  tag_225\n    /* \"#utility.yul\":10987:10996   */\n  dup2\n    /* \"#utility.yul\":10961:10997   */\n  tag_76\n  jump\t// in\ntag_225:\n    /* \"#utility.yul\":11013:11101   */\n  tag_226\n    /* \"#utility.yul\":11094:11100   */\n  dup2\n    /* \"#utility.yul\":11089:11092   */\n  dup7\n    /* \"#utility.yul\":11013:11101   */\n  tag_96\n  jump\t// in\ntag_226:\n    /* \"#utility.yul\":11006:11101   */\n  swap5\n  pop\n    /* \"#utility.yul\":11132:11133   */\n  0x01\n    /* \"#utility.yul\":11121:11130   */\n  dup3\n    /* \"#utility.yul\":11117:11134   */\n  and\n    /* \"#utility.yul\":11148:11149   */\n  0x00\n    /* \"#utility.yul\":11143:11309   */\n  dup2\n  eq\n  tag_228\n  jumpi\n    /* \"#utility.yul\":11323:11324   */\n  0x01\n    /* \"#utility.yul\":11318:11658   */\n  dup2\n  eq\n  tag_229\n  jumpi\n    /* \"#utility.yul\":11110:11658   */\n  jump(tag_227)\n    /* \"#utility.yul\":11143:11309   */\ntag_228:\n    /* \"#utility.yul\":11227:11231   */\n  0xff\n    /* \"#utility.yul\":11223:11232   */\n  not\n    /* \"#utility.yul\":11212:11221   */\n  dup4\n    /* \"#utility.yul\":11208:11233   */\n  and\n    /* \"#utility.yul\":11203:11206   */\n  dup7\n    /* \"#utility.yul\":11196:11234   */\n  mstore\n    /* \"#utility.yul\":11289:11295   */\n  dup2\n    /* \"#utility.yul\":11282:11296   */\n  iszero\n    /* \"#utility.yul\":11275:11297   */\n  iszero\n    /* \"#utility.yul\":11267:11273   */\n  dup3\n    /* \"#utility.yul\":11263:11298   */\n  mul\n    /* \"#utility.yul\":11258:11261   */\n  dup7\n    /* \"#utility.yul\":11254:11299   */\n  add\n    /* \"#utility.yul\":11247:11299   */\n  swap4\n  pop\n    /* \"#utility.yul\":11143:11309   */\n  jump(tag_227)\n    /* \"#utility.yul\":11318:11658   */\ntag_229:\n    /* \"#utility.yul\":11385:11422   */\n  tag_230\n    /* \"#utility.yul\":11416:11421   */\n  dup6\n    /* \"#utility.yul\":11385:11422   */\n  tag_94\n  jump\t// in\ntag_230:\n    /* \"#utility.yul\":11444:11445   */\n  0x00\n    /* \"#utility.yul\":11458:11612   */\ntag_231:\n    /* \"#utility.yul\":11472:11478   */\n  dup4\n    /* \"#utility.yul\":11469:11470   */\n  dup2\n    /* \"#utility.yul\":11466:11479   */\n  lt\n    /* \"#utility.yul\":11458:11612   */\n  iszero\n  tag_233\n  jumpi\n    /* \"#utility.yul\":11546:11553   */\n  dup2\n    /* \"#utility.yul\":11540:11554   */\n  sload\n    /* \"#utility.yul\":11536:11537   */\n  dup2\n    /* \"#utility.yul\":11531:11534   */\n  dup10\n    /* \"#utility.yul\":11527:11538   */\n  add\n    /* \"#utility.yul\":11520:11555   */\n  mstore\n    /* \"#utility.yul\":11596:11597   */\n  0x01\n    /* \"#utility.yul\":11587:11594   */\n  dup3\n    /* \"#utility.yul\":11583:11598   */\n  add\n    /* \"#utility.yul\":11572:11598   */\n  swap2\n  pop\n    /* \"#utility.yul\":11494:11498   */\n  0x20\n    /* \"#utility.yul\":11491:11492   */\n  dup2\n    /* \"#utility.yul\":11487:11499   */\n  add\n    /* \"#utility.yul\":11482:11499   */\n  swap1\n  pop\n    /* \"#utility.yul\":11458:11612   */\n  jump(tag_231)\ntag_233:\n    /* \"#utility.yul\":11641:11647   */\n  dup4\n    /* \"#utility.yul\":11636:11639   */\n  dup9\n    /* \"#utility.yul\":11632:11648   */\n  add\n    /* \"#utility.yul\":11625:11648   */\n  swap6\n  pop\n    /* \"#utility.yul\":11325:11658   */\n  pop\n  pop\n    /* \"#utility.yul\":11110:11658   */\ntag_227:\n  pop\n    /* \"#utility.yul\":10899:11664   */\n  pop\n  pop\n    /* \"#utility.yul\":10794:11664   */\n  swap3\n  swap2\n  pop\n  pop\n  jump\t// out\n    /* \"#utility.yul\":11670:11935   */\ntag_44:\n    /* \"#utility.yul\":11797:11800   */\n  0x00\n    /* \"#utility.yul\":11819:11909   */\n  tag_235\n    /* \"#utility.yul\":11905:11908   */\n  dup3\n    /* \"#utility.yul\":11896:11902   */\n  dup5\n    /* \"#utility.yul\":11819:11909   */\n  tag_97\n  jump\t// in\ntag_235:\n    /* \"#utility.yul\":11812:11909   */\n  swap2\n  pop\n    /* \"#utility.yul\":11926:11929   */\n  dup2\n    /* \"#utility.yul\":11919:11929   */\n  swap1\n  pop\n    /* \"#utility.yul\":11670:11935   */\n  swap3\n  swap2\n  pop\n  pop\n  jump\t// out\n    /* \"class/storage/house.sol\":202:3385  contract C is A, B {... */\ntag_45:\n  dataSize(sub_0)\n  dup1\n  dataOffset(sub_0)\n  0x00\n  codecopy\n  0x00\n  return\nstop\n\nsub_0: assembly {\n        /* \"class/storage/house.sol\":202:3385  contract C is A, B {... */\n      mstore(0x40, 0x80)\n      callvalue\n      dup1\n      iszero\n      tag_1\n      jumpi\n      0x00\n      dup1\n      revert\n    tag_1:\n      pop\n      jumpi(tag_2, lt(calldatasize, 0x04))\n      shr(0xe0, calldataload(0x00))\n      dup1\n      0x82775dfb\n      gt\n      tag_21\n      jumpi\n      dup1\n      0x9f1939cf\n      gt\n      tag_22\n      jumpi\n      dup1\n      0x9f1939cf\n      eq\n      tag_16\n      jumpi\n      dup1\n      0xd3f4e602\n      eq\n      tag_17\n      jumpi\n      dup1\n      0xd41e0070\n      eq\n      tag_18\n      jumpi\n      dup1\n      0xee495002\n      eq\n      tag_19\n      jumpi\n      dup1\n      0xf6baafa5\n      eq\n      tag_20\n      jumpi\n      jump(tag_2)\n    tag_22:\n      dup1\n      0x82775dfb\n      eq\n      tag_12\n      jumpi\n      dup1\n      0x86b714e2\n      eq\n      tag_13\n      jumpi\n      dup1\n      0x881374d7\n      eq\n      tag_14\n      jumpi\n      dup1\n      0x94bf0759\n      eq\n      tag_15\n      jumpi\n      jump(tag_2)\n    tag_21:\n      dup1\n      0x376a2b69\n      gt\n      tag_23\n      jumpi\n      dup1\n      0x376a2b69\n      eq\n      tag_7\n      jumpi\n      dup1\n      0x4356af48\n      eq\n      tag_8\n      jumpi\n      dup1\n      0x6bc35c3d\n      eq\n      tag_9\n      jumpi\n      dup1\n      0x6cc014de\n      eq\n      tag_10\n      jumpi\n      dup1\n      0x767800de\n      eq\n      tag_11\n      jumpi\n      jump(tag_2)\n    tag_23:\n      dup1\n      0x089c1009\n      eq\n      tag_3\n      jumpi\n      dup1\n      0x127a6597\n      eq\n      tag_4\n      jumpi\n      dup1\n      0x304349f3\n      eq\n      tag_5\n      jumpi\n      dup1\n      0x35afaa4c\n      eq\n      tag_6\n      jumpi\n    tag_2:\n      0x00\n      dup1\n      revert\n        /* \"class/storage/house.sol\":748:786  mapping(bytes4 => address) public map4 */\n    tag_3:\n      tag_24\n      0x04\n      dup1\n      calldatasize\n      sub\n      dup2\n      add\n      swap1\n      tag_25\n      swap2\n      swap1\n      tag_26\n      jump\t// in\n    tag_25:\n      tag_27\n      jump\t// in\n    tag_24:\n      mload(0x40)\n      tag_28\n      swap2\n      swap1\n      tag_29\n      jump\t// in\n    tag_28:\n      mload(0x40)\n      dup1\n      swap2\n      sub\n      swap1\n      return\n        /* \"class/storage/house.sol\":593:626  mapping(uint => bool) public map2 */\n    tag_4:\n      tag_30\n      0x04\n      dup1\n      calldatasize\n      sub\n      dup2\n      add\n      swap1\n      tag_31\n      swap2\n      swap1\n      tag_32\n      jump\t// in\n    tag_31:\n      tag_33\n      jump\t// in\n    tag_30:\n      mload(0x40)\n      tag_34\n      swap2\n      swap1\n      tag_35\n      jump\t// in\n    tag_34:\n      mload(0x40)\n      dup1\n      swap2\n      sub\n      swap1\n      return\n        /* \"class/storage/house.sol\":704:719  bool public bo2 */\n    tag_5:\n      tag_36\n      tag_37\n      jump\t// in\n    tag_36:\n      mload(0x40)\n      tag_38\n      swap2\n      swap1\n      tag_35\n      jump\t// in\n    tag_38:\n      mload(0x40)\n      dup1\n      swap2\n      sub\n      swap1\n      return\n        /* \"class/storage/house.sol\":2794:2965  function getMapLocation2(uint slot, bytes memory key) public pure returns (bytes32) {   ... */\n    tag_6:\n      tag_39\n      0x04\n      dup1\n      calldatasize\n      sub\n      dup2\n      add\n      swap1\n      tag_40\n      swap2\n      swap1\n      tag_41\n      jump\t// in\n    tag_40:\n      tag_42\n      jump\t// in\n    tag_39:\n      mload(0x40)\n      tag_43\n      swap2\n      swap1\n      tag_44\n      jump\t// in\n    tag_43:\n      mload(0x40)\n      dup1\n      swap2\n      sub\n      swap1\n      return\n        /* \"class/storage/house.sol\":483:537  mapping (uint => mapping (address => bool)) public map */\n    tag_7:\n      tag_45\n      0x04\n      dup1\n      calldatasize\n      sub\n      dup2\n      add\n      swap1\n      tag_46\n      swap2\n      swap1\n      tag_47\n      jump\t// in\n    tag_46:\n      tag_48\n      jump\t// in\n    tag_45:\n      mload(0x40)\n      tag_49\n      swap2\n      swap1\n      tag_35\n      jump\t// in\n    tag_49:\n      mload(0x40)\n      dup1\n      swap2\n      sub\n      swap1\n      return\n        /* \"class/storage/house.sol\":637:671  mapping(bytes => bool) public map3 */\n    tag_8:\n      tag_50\n      0x04\n      dup1\n      calldatasize\n      sub\n      dup2\n      add\n      swap1\n      tag_51\n      swap2\n      swap1\n      tag_52\n      jump\t// in\n    tag_51:\n      tag_53\n      jump\t// in\n    tag_50:\n      mload(0x40)\n      tag_54\n      swap2\n      swap1\n      tag_35\n      jump\t// in\n    tag_54:\n      mload(0x40)\n      dup1\n      swap2\n      sub\n      swap1\n      return\n        /* \"class/storage/house.sol\":2167:2294  function hashSlot(uint slot) public pure returns (bytes32) {... */\n    tag_9:\n      tag_55\n      0x04\n      dup1\n      calldatasize\n      sub\n      dup2\n      add\n      swap1\n      tag_56\n      swap2\n      swap1\n      tag_32\n      jump\t// in\n    tag_56:\n      tag_57\n      jump\t// in\n    tag_55:\n      mload(0x40)\n      tag_58\n      swap2\n      swap1\n      tag_44\n      jump\t// in\n    tag_58:\n      mload(0x40)\n      dup1\n      swap2\n      sub\n      swap1\n      return\n        /* \"class/storage/house.sol\":548:564  string public s1 */\n    tag_10:\n      tag_59\n      tag_60\n      jump\t// in\n    tag_59:\n      mload(0x40)\n      tag_61\n      swap2\n      swap1\n      tag_62\n      jump\t// in\n    tag_61:\n      mload(0x40)\n      dup1\n      swap2\n      sub\n      swap1\n      return\n        /* \"class/storage/house.sol\":457:476  address public addr */\n    tag_11:\n      tag_63\n      tag_64\n      jump\t// in\n    tag_63:\n      mload(0x40)\n      tag_65\n      swap2\n      swap1\n      tag_29\n      jump\t// in\n    tag_65:\n      mload(0x40)\n      dup1\n      swap2\n      sub\n      swap1\n      return\n        /* \"class/storage/house.sol\":3101:3246  function getMap4Location(uint slot, bytes4 key) public pure returns (bytes32) {... */\n    tag_12:\n      tag_66\n      0x04\n      dup1\n      calldatasize\n      sub\n      dup2\n      add\n      swap1\n      tag_67\n      swap2\n      swap1\n      tag_68\n      jump\t// in\n    tag_67:\n      tag_69\n      jump\t// in\n    tag_66:\n      mload(0x40)\n      tag_70\n      swap2\n      swap1\n      tag_44\n      jump\t// in\n    tag_70:\n      mload(0x40)\n      dup1\n      swap2\n      sub\n      swap1\n      return\n        /* \"class/storage/house.sol\":440:450  S public s */\n    tag_13:\n      tag_71\n      tag_72\n      jump\t// in\n    tag_71:\n      mload(0x40)\n      tag_73\n      swap3\n      swap2\n      swap1\n      tag_74\n      jump\t// in\n    tag_73:\n      mload(0x40)\n      dup1\n      swap2\n      sub\n      swap1\n      return\n        /* \"class/storage/house.sol\":2646:2788  function getMapLocation(uint slot, uint key) public pure returns (bytes32) {... */\n    tag_14:\n      tag_75\n      0x04\n      dup1\n      calldatasize\n      sub\n      dup2\n      add\n      swap1\n      tag_76\n      swap2\n      swap1\n      tag_77\n      jump\t// in\n    tag_76:\n      tag_78\n      jump\t// in\n    tag_75:\n      mload(0x40)\n      tag_79\n      swap2\n      swap1\n      tag_44\n      jump\t// in\n    tag_79:\n      mload(0x40)\n      dup1\n      swap2\n      sub\n      swap1\n      return\n        /* \"class/storage/house.sol\":726:741  bool public bo3 */\n    tag_15:\n      tag_80\n      tag_81\n      jump\t// in\n    tag_80:\n      mload(0x40)\n      tag_82\n      swap2\n      swap1\n      tag_35\n      jump\t// in\n    tag_82:\n      mload(0x40)\n      dup1\n      swap2\n      sub\n      swap1\n      return\n        /* \"class/storage/house.sol\":2971:3095  function abiEncode(uint slot, bytes4 key) public pure returns (bytes memory) {... */\n    tag_16:\n      tag_83\n      0x04\n      dup1\n      calldatasize\n      sub\n      dup2\n      add\n      swap1\n      tag_84\n      swap2\n      swap1\n      tag_68\n      jump\t// in\n    tag_84:\n      tag_85\n      jump\t// in\n    tag_83:\n      mload(0x40)\n      tag_86\n      swap2\n      swap1\n      tag_87\n      jump\t// in\n    tag_86:\n      mload(0x40)\n      dup1\n      swap2\n      sub\n      swap1\n      return\n        /* \"class/storage/house.sol\":682:697  bool public bo1 */\n    tag_17:\n      tag_88\n      tag_89\n      jump\t// in\n    tag_88:\n      mload(0x40)\n      tag_90\n      swap2\n      swap1\n      tag_35\n      jump\t// in\n    tag_90:\n      mload(0x40)\n      dup1\n      swap2\n      sub\n      swap1\n      return\n        /* \"class/storage/house.sol\":2444:2640  function getArrayDataSlotGivenIndex(... */\n    tag_18:\n      tag_91\n      0x04\n      dup1\n      calldatasize\n      sub\n      dup2\n      add\n      swap1\n      tag_92\n      swap2\n      swap1\n      tag_77\n      jump\t// in\n    tag_92:\n      tag_93\n      jump\t// in\n    tag_91:\n      mload(0x40)\n      tag_94\n      swap2\n      swap1\n      tag_44\n      jump\t// in\n    tag_94:\n      mload(0x40)\n      dup1\n      swap2\n      sub\n      swap1\n      return\n        /* \"class/storage/house.sol\":571:586  bytes public b1 */\n    tag_19:\n      tag_95\n      tag_96\n      jump\t// in\n    tag_95:\n      mload(0x40)\n      tag_97\n      swap2\n      swap1\n      tag_87\n      jump\t// in\n    tag_97:\n      mload(0x40)\n      dup1\n      swap2\n      sub\n      swap1\n      return\n        /* \"class/storage/house.sol\":2300:2438  function getStorageAt(uint slot) public view returns (bytes32 ret) {... */\n    tag_20:\n      tag_98\n      0x04\n      dup1\n      calldatasize\n      sub\n      dup2\n      add\n      swap1\n      tag_99\n      swap2\n      swap1\n      tag_32\n      jump\t// in\n    tag_99:\n      tag_100\n      jump\t// in\n    tag_98:\n      mload(0x40)\n      tag_101\n      swap2\n      swap1\n      tag_44\n      jump\t// in\n    tag_101:\n      mload(0x40)\n      dup1\n      swap2\n      sub\n      swap1\n      return\n        /* \"class/storage/house.sol\":748:786  mapping(bytes4 => address) public map4 */\n    tag_27:\n      mstore(0x20, 0x14)\n      dup1\n      0x00\n      mstore\n      keccak256(0x00, 0x40)\n      0x00\n      swap2\n      pop\n      sload\n      swap1\n      0x0100\n      exp\n      swap1\n      div\n      0xffffffffffffffffffffffffffffffffffffffff\n      and\n      dup2\n      jump\t// out\n        /* \"class/storage/house.sol\":593:626  mapping(uint => bool) public map2 */\n    tag_33:\n      mstore(0x20, 0x11)\n      dup1\n      0x00\n      mstore\n      keccak256(0x00, 0x40)\n      0x00\n      swap2\n      pop\n      sload\n      swap1\n      0x0100\n      exp\n      swap1\n      div\n      0xff\n      and\n      dup2\n      jump\t// out\n        /* \"class/storage/house.sol\":704:719  bool public bo2 */\n    tag_37:\n      0x13\n      0x01\n      swap1\n      sload\n      swap1\n      0x0100\n      exp\n      swap1\n      div\n      0xff\n      and\n      dup2\n      jump\t// out\n        /* \"class/storage/house.sol\":2794:2965  function getMapLocation2(uint slot, bytes memory key) public pure returns (bytes32) {   ... */\n    tag_42:\n        /* \"class/storage/house.sol\":2869:2876  bytes32 */\n      0x00\n        /* \"class/storage/house.sol\":2944:2947  key */\n      dup2\n        /* \"class/storage/house.sol\":2934:2948  keccak256(key) */\n      dup1\n      mload\n      swap1\n      0x20\n      add\n      keccak256\n        /* \"class/storage/house.sol\":2950:2954  slot */\n      dup4\n        /* \"class/storage/house.sol\":2917:2955  abi.encodePacked(keccak256(key), slot) */\n      add(0x20, mload(0x40))\n      tag_103\n      swap3\n      swap2\n      swap1\n      tag_104\n      jump\t// in\n    tag_103:\n      mload(0x40)\n      0x20\n      dup2\n      dup4\n      sub\n      sub\n      dup2\n      mstore\n      swap1\n      0x40\n      mstore\n        /* \"class/storage/house.sol\":2907:2956  keccak256(abi.encodePacked(keccak256(key), slot)) */\n      dup1\n      mload\n      swap1\n      0x20\n      add\n      keccak256\n        /* \"class/storage/house.sol\":2892:2957  return bytes32(keccak256(abi.encodePacked(keccak256(key), slot))) */\n      swap1\n      pop\n        /* \"class/storage/house.sol\":2794:2965  function getMapLocation2(uint slot, bytes memory key) public pure returns (bytes32) {   ... */\n      swap3\n      swap2\n      pop\n      pop\n      jump\t// out\n        /* \"class/storage/house.sol\":483:537  mapping (uint => mapping (address => bool)) public map */\n    tag_48:\n      mstore(0x20, 0x0e)\n      dup2\n      0x00\n      mstore\n      mstore(0x20, keccak256(0x00, 0x40))\n      dup1\n      0x00\n      mstore\n      keccak256(0x00, 0x40)\n      0x00\n      swap2\n      pop\n      swap2\n      pop\n      swap1\n      sload\n      swap1\n      0x0100\n      exp\n      swap1\n      div\n      0xff\n      and\n      dup2\n      jump\t// out\n        /* \"class/storage/house.sol\":637:671  mapping(bytes => bool) public map3 */\n    tag_53:\n      0x12\n      dup2\n      dup1\n      mload\n      0x20\n      dup2\n      add\n      dup3\n      add\n      dup1\n      mload\n      dup5\n      dup3\n      mstore\n      0x20\n      dup4\n      add\n      0x20\n      dup6\n      add\n      keccak256\n      dup2\n      dup4\n      mstore\n      dup1\n      swap6\n      pop\n      pop\n      pop\n      pop\n      pop\n      pop\n      0x00\n      swap2\n      pop\n      sload\n      swap1\n      0x0100\n      exp\n      swap1\n      div\n      0xff\n      and\n      dup2\n      jump\t// out\n        /* \"class/storage/house.sol\":2167:2294  function hashSlot(uint slot) public pure returns (bytes32) {... */\n    tag_57:\n        /* \"class/storage/house.sol\":2217:2224  bytes32 */\n      0x00\n        /* \"class/storage/house.sol\":2279:2283  slot */\n      dup2\n        /* \"class/storage/house.sol\":2262:2284  abi.encodePacked(slot) */\n      add(0x20, mload(0x40))\n      tag_106\n      swap2\n      swap1\n      tag_107\n      jump\t// in\n    tag_106:\n      mload(0x40)\n      0x20\n      dup2\n      dup4\n      sub\n      sub\n      dup2\n      mstore\n      swap1\n      0x40\n      mstore\n        /* \"class/storage/house.sol\":2252:2285  keccak256(abi.encodePacked(slot)) */\n      dup1\n      mload\n      swap1\n      0x20\n      add\n      keccak256\n        /* \"class/storage/house.sol\":2237:2286  return bytes32(keccak256(abi.encodePacked(slot))) */\n      swap1\n      pop\n        /* \"class/storage/house.sol\":2167:2294  function hashSlot(uint slot) public pure returns (bytes32) {... */\n      swap2\n      swap1\n      pop\n      jump\t// out\n        /* \"class/storage/house.sol\":548:564  string public s1 */\n    tag_60:\n      0x0f\n      dup1\n      sload\n      tag_108\n      swap1\n      tag_109\n      jump\t// in\n    tag_108:\n      dup1\n      0x1f\n      add\n      0x20\n      dup1\n      swap2\n      div\n      mul\n      0x20\n      add\n      mload(0x40)\n      swap1\n      dup2\n      add\n      0x40\n      mstore\n      dup1\n      swap3\n      swap2\n      swap1\n      dup2\n      dup2\n      mstore\n      0x20\n      add\n      dup3\n      dup1\n      sload\n      tag_110\n      swap1\n      tag_109\n      jump\t// in\n    tag_110:\n      dup1\n      iszero\n      tag_111\n      jumpi\n      dup1\n      0x1f\n      lt\n      tag_112\n      jumpi\n      0x0100\n      dup1\n      dup4\n      sload\n      div\n      mul\n      dup4\n      mstore\n      swap2\n      0x20\n      add\n      swap2\n      jump(tag_111)\n    tag_112:\n      dup3\n      add\n      swap2\n      swap1\n      0x00\n      mstore\n      keccak256(0x00, 0x20)\n      swap1\n    tag_113:\n      dup2\n      sload\n      dup2\n      mstore\n      swap1\n      0x01\n      add\n      swap1\n      0x20\n      add\n      dup1\n      dup4\n      gt\n      tag_113\n      jumpi\n      dup3\n      swap1\n      sub\n      0x1f\n      and\n      dup3\n      add\n      swap2\n    tag_111:\n      pop\n      pop\n      pop\n      pop\n      pop\n      dup2\n      jump\t// out\n        /* \"class/storage/house.sol\":457:476  address public addr */\n    tag_64:\n      0x0d\n      0x00\n      swap1\n      sload\n      swap1\n      0x0100\n      exp\n      swap1\n      div\n      0xffffffffffffffffffffffffffffffffffffffff\n      and\n      dup2\n      jump\t// out\n        /* \"class/storage/house.sol\":3101:3246  function getMap4Location(uint slot, bytes4 key) public pure returns (bytes32) {... */\n    tag_69:\n        /* \"class/storage/house.sol\":3170:3177  bytes32 */\n      0x00\n        /* \"class/storage/house.sol\":3226:3229  key */\n      dup2\n        /* \"class/storage/house.sol\":3231:3235  slot */\n      dup4\n        /* \"class/storage/house.sol\":3215:3236  abi.encode(key, slot) */\n      add(0x20, mload(0x40))\n      tag_115\n      swap3\n      swap2\n      swap1\n      tag_116\n      jump\t// in\n    tag_115:\n      mload(0x40)\n      0x20\n      dup2\n      dup4\n      sub\n      sub\n      dup2\n      mstore\n      swap1\n      0x40\n      mstore\n        /* \"class/storage/house.sol\":3205:3237  keccak256(abi.encode(key, slot)) */\n      dup1\n      mload\n      swap1\n      0x20\n      add\n      keccak256\n        /* \"class/storage/house.sol\":3190:3238  return bytes32(keccak256(abi.encode(key, slot))) */\n      swap1\n      pop\n        /* \"class/storage/house.sol\":3101:3246  function getMap4Location(uint slot, bytes4 key) public pure returns (bytes32) {... */\n      swap3\n      swap2\n      pop\n      pop\n      jump\t// out\n        /* \"class/storage/house.sol\":440:450  S public s */\n    tag_72:\n      0x09\n      dup1\n      0x00\n      add\n      0x00\n      swap1\n      sload\n      swap1\n      0x0100\n      exp\n      swap1\n      div\n      0xffffffffffffffffffffffffffffffff\n      and\n      swap1\n      dup1\n      0x00\n      add\n      0x10\n      swap1\n      sload\n      swap1\n      0x0100\n      exp\n      swap1\n      div\n      0xffffffffffffffffffffffffffffffff\n      and\n      swap1\n      pop\n      dup3\n      jump\t// out\n        /* \"class/storage/house.sol\":2646:2788  function getMapLocation(uint slot, uint key) public pure returns (bytes32) {... */\n    tag_78:\n        /* \"class/storage/house.sol\":2712:2719  bytes32 */\n      0x00\n        /* \"class/storage/house.sol\":2768:2771  key */\n      dup2\n        /* \"class/storage/house.sol\":2773:2777  slot */\n      dup4\n        /* \"class/storage/house.sol\":2757:2778  abi.encode(key, slot) */\n      add(0x20, mload(0x40))\n      tag_118\n      swap3\n      swap2\n      swap1\n      tag_119\n      jump\t// in\n    tag_118:\n      mload(0x40)\n      0x20\n      dup2\n      dup4\n      sub\n      sub\n      dup2\n      mstore\n      swap1\n      0x40\n      mstore\n        /* \"class/storage/house.sol\":2747:2779  keccak256(abi.encode(key, slot)) */\n      dup1\n      mload\n      swap1\n      0x20\n      add\n      keccak256\n        /* \"class/storage/house.sol\":2732:2780  return bytes32(keccak256(abi.encode(key, slot))) */\n      swap1\n      pop\n        /* \"class/storage/house.sol\":2646:2788  function getMapLocation(uint slot, uint key) public pure returns (bytes32) {... */\n      swap3\n      swap2\n      pop\n      pop\n      jump\t// out\n        /* \"class/storage/house.sol\":726:741  bool public bo3 */\n    tag_81:\n      0x13\n      0x02\n      swap1\n      sload\n      swap1\n      0x0100\n      exp\n      swap1\n      div\n      0xff\n      and\n      dup2\n      jump\t// out\n        /* \"class/storage/house.sol\":2971:3095  function abiEncode(uint slot, bytes4 key) public pure returns (bytes memory) {... */\n    tag_85:\n        /* \"class/storage/house.sol\":3034:3046  bytes memory */\n      0x60\n        /* \"class/storage/house.sol\":3077:3080  key */\n      dup2\n        /* \"class/storage/house.sol\":3082:3086  slot */\n      dup4\n        /* \"class/storage/house.sol\":3066:3087  abi.encode(key, slot) */\n      add(0x20, mload(0x40))\n      tag_121\n      swap3\n      swap2\n      swap1\n      tag_116\n      jump\t// in\n    tag_121:\n      mload(0x40)\n      0x20\n      dup2\n      dup4\n      sub\n      sub\n      dup2\n      mstore\n      swap1\n      0x40\n      mstore\n        /* \"class/storage/house.sol\":3059:3087  return abi.encode(key, slot) */\n      swap1\n      pop\n        /* \"class/storage/house.sol\":2971:3095  function abiEncode(uint slot, bytes4 key) public pure returns (bytes memory) {... */\n      swap3\n      swap2\n      pop\n      pop\n      jump\t// out\n        /* \"class/storage/house.sol\":682:697  bool public bo1 */\n    tag_89:\n      0x13\n      0x00\n      swap1\n      sload\n      swap1\n      0x0100\n      exp\n      swap1\n      div\n      0xff\n      and\n      dup2\n      jump\t// out\n        /* \"class/storage/house.sol\":2444:2640  function getArrayDataSlotGivenIndex(... */\n    tag_93:\n        /* \"class/storage/house.sol\":2549:2556  bytes32 */\n      0x00\n        /* \"class/storage/house.sol\":2626:2631  index */\n      dup2\n        /* \"class/storage/house.sol\":2616:2620  slot */\n      dup4\n        /* \"class/storage/house.sol\":2599:2621  abi.encodePacked(slot) */\n      add(0x20, mload(0x40))\n      tag_123\n      swap2\n      swap1\n      tag_107\n      jump\t// in\n    tag_123:\n      mload(0x40)\n      0x20\n      dup2\n      dup4\n      sub\n      sub\n      dup2\n      mstore\n      swap1\n      0x40\n      mstore\n        /* \"class/storage/house.sol\":2589:2622  keccak256(abi.encodePacked(slot)) */\n      dup1\n      mload\n      swap1\n      0x20\n      add\n      keccak256\n        /* \"class/storage/house.sol\":2584:2623  uint(keccak256(abi.encodePacked(slot))) */\n      0x00\n      shr\n        /* \"class/storage/house.sol\":2584:2631  uint(keccak256(abi.encodePacked(slot))) + index */\n      tag_124\n      swap2\n      swap1\n      tag_125\n      jump\t// in\n    tag_124:\n        /* \"class/storage/house.sol\":2576:2632  bytes32(uint(keccak256(abi.encodePacked(slot))) + index) */\n      0x00\n      shl\n        /* \"class/storage/house.sol\":2569:2632  return bytes32(uint(keccak256(abi.encodePacked(slot))) + index) */\n      swap1\n      pop\n        /* \"class/storage/house.sol\":2444:2640  function getArrayDataSlotGivenIndex(... */\n      swap3\n      swap2\n      pop\n      pop\n      jump\t// out\n        /* \"class/storage/house.sol\":571:586  bytes public b1 */\n    tag_96:\n      0x10\n      dup1\n      sload\n      tag_126\n      swap1\n      tag_109\n      jump\t// in\n    tag_126:\n      dup1\n      0x1f\n      add\n      0x20\n      dup1\n      swap2\n      div\n      mul\n      0x20\n      add\n      mload(0x40)\n      swap1\n      dup2\n      add\n      0x40\n      mstore\n      dup1\n      swap3\n      swap2\n      swap1\n      dup2\n      dup2\n      mstore\n      0x20\n      add\n      dup3\n      dup1\n      sload\n      tag_127\n      swap1\n      tag_109\n      jump\t// in\n    tag_127:\n      dup1\n      iszero\n      tag_128\n      jumpi\n      dup1\n      0x1f\n      lt\n      tag_129\n      jumpi\n      0x0100\n      dup1\n      dup4\n      sload\n      div\n      mul\n      dup4\n      mstore\n      swap2\n      0x20\n      add\n      swap2\n      jump(tag_128)\n    tag_129:\n      dup3\n      add\n      swap2\n      swap1\n      0x00\n      mstore\n      keccak256(0x00, 0x20)\n      swap1\n    tag_130:\n      dup2\n      sload\n      dup2\n      mstore\n      swap1\n      0x01\n      add\n      swap1\n      0x20\n      add\n      dup1\n      dup4\n      gt\n      tag_130\n      jumpi\n      dup3\n      swap1\n      sub\n      0x1f\n      and\n      dup3\n      add\n      swap2\n    tag_128:\n      pop\n      pop\n      pop\n      pop\n      pop\n      dup2\n      jump\t// out\n        /* \"class/storage/house.sol\":2300:2438  function getStorageAt(uint slot) public view returns (bytes32 ret) {... */\n    tag_100:\n        /* \"class/storage/house.sol\":2354:2365  bytes32 ret */\n      0x00\n        /* \"class/storage/house.sol\":2415:2419  slot */\n      dup2\n        /* \"class/storage/house.sol\":2409:2420  sload(slot) */\n      sload\n        /* \"class/storage/house.sol\":2402:2420  ret := sload(slot) */\n      swap1\n      pop\n        /* \"class/storage/house.sol\":2300:2438  function getStorageAt(uint slot) public view returns (bytes32 ret) {... */\n      swap2\n      swap1\n      pop\n      jump\t// out\n        /* \"#utility.yul\":7:82   */\n    tag_132:\n        /* \"#utility.yul\":40:46   */\n      0x00\n        /* \"#utility.yul\":73:75   */\n      0x40\n        /* \"#utility.yul\":67:76   */\n      mload\n        /* \"#utility.yul\":57:76   */\n      swap1\n      pop\n        /* \"#utility.yul\":7:82   */\n      swap1\n      jump\t// out\n        /* \"#utility.yul\":88:205   */\n    tag_133:\n        /* \"#utility.yul\":197:198   */\n      0x00\n        /* \"#utility.yul\":194:195   */\n      dup1\n        /* \"#utility.yul\":187:199   */\n      revert\n        /* \"#utility.yul\":211:328   */\n    tag_134:\n        /* \"#utility.yul\":320:321   */\n      0x00\n        /* \"#utility.yul\":317:318   */\n      dup1\n        /* \"#utility.yul\":310:322   */\n      revert\n        /* \"#utility.yul\":334:483   */\n    tag_135:\n        /* \"#utility.yul\":370:377   */\n      0x00\n        /* \"#utility.yul\":410:476   */\n      0xffffffff00000000000000000000000000000000000000000000000000000000\n        /* \"#utility.yul\":403:408   */\n      dup3\n        /* \"#utility.yul\":399:477   */\n      and\n        /* \"#utility.yul\":388:477   */\n      swap1\n      pop\n        /* \"#utility.yul\":334:483   */\n      swap2\n      swap1\n      pop\n      jump\t// out\n        /* \"#utility.yul\":489:609   */\n    tag_136:\n        /* \"#utility.yul\":561:584   */\n      tag_183\n        /* \"#utility.yul\":578:583   */\n      dup2\n        /* \"#utility.yul\":561:584   */\n      tag_135\n      jump\t// in\n    tag_183:\n        /* \"#utility.yul\":554:559   */\n      dup2\n        /* \"#utility.yul\":551:585   */\n      eq\n        /* \"#utility.yul\":541:603   */\n      tag_184\n      jumpi\n        /* \"#utility.yul\":599:600   */\n      0x00\n        /* \"#utility.yul\":596:597   */\n      dup1\n        /* \"#utility.yul\":589:601   */\n      revert\n        /* \"#utility.yul\":541:603   */\n    tag_184:\n        /* \"#utility.yul\":489:609   */\n      pop\n      jump\t// out\n        /* \"#utility.yul\":615:752   */\n    tag_137:\n        /* \"#utility.yul\":660:665   */\n      0x00\n        /* \"#utility.yul\":698:704   */\n      dup2\n        /* \"#utility.yul\":685:705   */\n      calldataload\n        /* \"#utility.yul\":676:705   */\n      swap1\n      pop\n        /* \"#utility.yul\":714:746   */\n      tag_186\n        /* \"#utility.yul\":740:745   */\n      dup2\n        /* \"#utility.yul\":714:746   */\n      tag_136\n      jump\t// in\n    tag_186:\n        /* \"#utility.yul\":615:752   */\n      swap3\n      swap2\n      pop\n      pop\n      jump\t// out\n        /* \"#utility.yul\":758:1085   */\n    tag_26:\n        /* \"#utility.yul\":816:822   */\n      0x00\n        /* \"#utility.yul\":865:867   */\n      0x20\n        /* \"#utility.yul\":853:862   */\n      dup3\n        /* \"#utility.yul\":844:851   */\n      dup5\n        /* \"#utility.yul\":840:863   */\n      sub\n        /* \"#utility.yul\":836:868   */\n      slt\n        /* \"#utility.yul\":833:952   */\n      iszero\n      tag_188\n      jumpi\n        /* \"#utility.yul\":871:950   */\n      tag_189\n      tag_133\n      jump\t// in\n    tag_189:\n        /* \"#utility.yul\":833:952   */\n    tag_188:\n        /* \"#utility.yul\":991:992   */\n      0x00\n        /* \"#utility.yul\":1016:1068   */\n      tag_190\n        /* \"#utility.yul\":1060:1067   */\n      dup5\n        /* \"#utility.yul\":1051:1057   */\n      dup3\n        /* \"#utility.yul\":1040:1049   */\n      dup6\n        /* \"#utility.yul\":1036:1058   */\n      add\n        /* \"#utility.yul\":1016:1068   */\n      tag_137\n      jump\t// in\n    tag_190:\n        /* \"#utility.yul\":1006:1068   */\n      swap2\n      pop\n        /* \"#utility.yul\":962:1078   */\n      pop\n        /* \"#utility.yul\":758:1085   */\n      swap3\n      swap2\n      pop\n      pop\n      jump\t// out\n        /* \"#utility.yul\":1091:1217   */\n    tag_138:\n        /* \"#utility.yul\":1128:1135   */\n      0x00\n        /* \"#utility.yul\":1168:1210   */\n      0xffffffffffffffffffffffffffffffffffffffff\n        /* \"#utility.yul\":1161:1166   */\n      dup3\n        /* \"#utility.yul\":1157:1211   */\n      and\n        /* \"#utility.yul\":1146:1211   */\n      swap1\n      pop\n        /* \"#utility.yul\":1091:1217   */\n      swap2\n      swap1\n      pop\n      jump\t// out\n        /* \"#utility.yul\":1223:1319   */\n    tag_139:\n        /* \"#utility.yul\":1260:1267   */\n      0x00\n        /* \"#utility.yul\":1289:1313   */\n      tag_193\n        /* \"#utility.yul\":1307:1312   */\n      dup3\n        /* \"#utility.yul\":1289:1313   */\n      tag_138\n      jump\t// in\n    tag_193:\n        /* \"#utility.yul\":1278:1313   */\n      swap1\n      pop\n        /* \"#utility.yul\":1223:1319   */\n      swap2\n      swap1\n      pop\n      jump\t// out\n        /* \"#utility.yul\":1325:1443   */\n    tag_140:\n        /* \"#utility.yul\":1412:1436   */\n      tag_195\n        /* \"#utility.yul\":1430:1435   */\n      dup2\n        /* \"#utility.yul\":1412:1436   */\n      tag_139\n      jump\t// in\n    tag_195:\n        /* \"#utility.yul\":1407:1410   */\n      dup3\n        /* \"#utility.yul\":1400:1437   */\n      mstore\n        /* \"#utility.yul\":1325:1443   */\n      pop\n      pop\n      jump\t// out\n        /* \"#utility.yul\":1449:1671   */\n    tag_29:\n        /* \"#utility.yul\":1542:1546   */\n      0x00\n        /* \"#utility.yul\":1580:1582   */\n      0x20\n        /* \"#utility.yul\":1569:1578   */\n      dup3\n        /* \"#utility.yul\":1565:1583   */\n      add\n        /* \"#utility.yul\":1557:1583   */\n      swap1\n      pop\n        /* \"#utility.yul\":1593:1664   */\n      tag_197\n        /* \"#utility.yul\":1661:1662   */\n      0x00\n        /* \"#utility.yul\":1650:1659   */\n      dup4\n        /* \"#utility.yul\":1646:1663   */\n      add\n        /* \"#utility.yul\":1637:1643   */\n      dup5\n        /* \"#utility.yul\":1593:1664   */\n      tag_140\n      jump\t// in\n    tag_197:\n        /* \"#utility.yul\":1449:1671   */\n      swap3\n      swap2\n      pop\n      pop\n      jump\t// out\n        /* \"#utility.yul\":1677:1754   */\n    tag_141:\n        /* \"#utility.yul\":1714:1721   */\n      0x00\n        /* \"#utility.yul\":1743:1748   */\n      dup2\n        /* \"#utility.yul\":1732:1748   */\n      swap1\n      pop\n        /* \"#utility.yul\":1677:1754   */\n      swap2\n      swap1\n      pop\n      jump\t// out\n        /* \"#utility.yul\":1760:1882   */\n    tag_142:\n        /* \"#utility.yul\":1833:1857   */\n      tag_200\n        /* \"#utility.yul\":1851:1856   */\n      dup2\n        /* \"#utility.yul\":1833:1857   */\n      tag_141\n      jump\t// in\n    tag_200:\n        /* \"#utility.yul\":1826:1831   */\n      dup2\n        /* \"#utility.yul\":1823:1858   */\n      eq\n        /* \"#utility.yul\":1813:1876   */\n      tag_201\n      jumpi\n        /* \"#utility.yul\":1872:1873   */\n      0x00\n        /* \"#utility.yul\":1869:1870   */\n      dup1\n        /* \"#utility.yul\":1862:1874   */\n      revert\n        /* \"#utility.yul\":1813:1876   */\n    tag_201:\n        /* \"#utility.yul\":1760:1882   */\n      pop\n      jump\t// out\n        /* \"#utility.yul\":1888:2027   */\n    tag_143:\n        /* \"#utility.yul\":1934:1939   */\n      0x00\n        /* \"#utility.yul\":1972:1978   */\n      dup2\n        /* \"#utility.yul\":1959:1979   */\n      calldataload\n        /* \"#utility.yul\":1950:1979   */\n      swap1\n      pop\n        /* \"#utility.yul\":1988:2021   */\n      tag_203\n        /* \"#utility.yul\":2015:2020   */\n      dup2\n        /* \"#utility.yul\":1988:2021   */\n      tag_142\n      jump\t// in\n    tag_203:\n        /* \"#utility.yul\":1888:2027   */\n      swap3\n      swap2\n      pop\n      pop\n      jump\t// out\n        /* \"#utility.yul\":2033:2362   */\n    tag_32:\n        /* \"#utility.yul\":2092:2098   */\n      0x00\n        /* \"#utility.yul\":2141:2143   */\n      0x20\n        /* \"#utility.yul\":2129:2138   */\n      dup3\n        /* \"#utility.yul\":2120:2127   */\n      dup5\n        /* \"#utility.yul\":2116:2139   */\n      sub\n        /* \"#utility.yul\":2112:2144   */\n      slt\n        /* \"#utility.yul\":2109:2228   */\n      iszero\n      tag_205\n      jumpi\n        /* \"#utility.yul\":2147:2226   */\n      tag_206\n      tag_133\n      jump\t// in\n    tag_206:\n        /* \"#utility.yul\":2109:2228   */\n    tag_205:\n        /* \"#utility.yul\":2267:2268   */\n      0x00\n        /* \"#utility.yul\":2292:2345   */\n      tag_207\n        /* \"#utility.yul\":2337:2344   */\n      dup5\n        /* \"#utility.yul\":2328:2334   */\n      dup3\n        /* \"#utility.yul\":2317:2326   */\n      dup6\n        /* \"#utility.yul\":2313:2335   */\n      add\n        /* \"#utility.yul\":2292:2345   */\n      tag_143\n      jump\t// in\n    tag_207:\n        /* \"#utility.yul\":2282:2345   */\n      swap2\n      pop\n        /* \"#utility.yul\":2238:2355   */\n      pop\n        /* \"#utility.yul\":2033:2362   */\n      swap3\n      swap2\n      pop\n      pop\n      jump\t// out\n        /* \"#utility.yul\":2368:2458   */\n    tag_144:\n        /* \"#utility.yul\":2402:2409   */\n      0x00\n        /* \"#utility.yul\":2445:2450   */\n      dup2\n        /* \"#utility.yul\":2438:2451   */\n      iszero\n        /* \"#utility.yul\":2431:2452   */\n      iszero\n        /* \"#utility.yul\":2420:2452   */\n      swap1\n      pop\n        /* \"#utility.yul\":2368:2458   */\n      swap2\n      swap1\n      pop\n      jump\t// out\n        /* \"#utility.yul\":2464:2573   */\n    tag_145:\n        /* \"#utility.yul\":2545:2566   */\n      tag_210\n        /* \"#utility.yul\":2560:2565   */\n      dup2\n        /* \"#utility.yul\":2545:2566   */\n      tag_144\n      jump\t// in\n    tag_210:\n        /* \"#utility.yul\":2540:2543   */\n      dup3\n        /* \"#utility.yul\":2533:2567   */\n      mstore\n        /* \"#utility.yul\":2464:2573   */\n      pop\n      pop\n      jump\t// out\n        /* \"#utility.yul\":2579:2789   */\n    tag_35:\n        /* \"#utility.yul\":2666:2670   */\n      0x00\n        /* \"#utility.yul\":2704:2706   */\n      0x20\n        /* \"#utility.yul\":2693:2702   */\n      dup3\n        /* \"#utility.yul\":2689:2707   */\n      add\n        /* \"#utility.yul\":2681:2707   */\n      swap1\n      pop\n        /* \"#utility.yul\":2717:2782   */\n      tag_212\n        /* \"#utility.yul\":2779:2780   */\n      0x00\n        /* \"#utility.yul\":2768:2777   */\n      dup4\n        /* \"#utility.yul\":2764:2781   */\n      add\n        /* \"#utility.yul\":2755:2761   */\n      dup5\n        /* \"#utility.yul\":2717:2782   */\n      tag_145\n      jump\t// in\n    tag_212:\n        /* \"#utility.yul\":2579:2789   */\n      swap3\n      swap2\n      pop\n      pop\n      jump\t// out\n        /* \"#utility.yul\":2795:2912   */\n    tag_146:\n        /* \"#utility.yul\":2904:2905   */\n      0x00\n        /* \"#utility.yul\":2901:2902   */\n      dup1\n        /* \"#utility.yul\":2894:2906   */\n      revert\n        /* \"#utility.yul\":2918:3035   */\n    tag_147:\n        /* \"#utility.yul\":3027:3028   */\n      0x00\n        /* \"#utility.yul\":3024:3025   */\n      dup1\n        /* \"#utility.yul\":3017:3029   */\n      revert\n        /* \"#utility.yul\":3041:3143   */\n    tag_148:\n        /* \"#utility.yul\":3082:3088   */\n      0x00\n        /* \"#utility.yul\":3133:3135   */\n      0x1f\n        /* \"#utility.yul\":3129:3136   */\n      not\n        /* \"#utility.yul\":3124:3126   */\n      0x1f\n        /* \"#utility.yul\":3117:3122   */\n      dup4\n        /* \"#utility.yul\":3113:3127   */\n      add\n        /* \"#utility.yul\":3109:3137   */\n      and\n        /* \"#utility.yul\":3099:3137   */\n      swap1\n      pop\n        /* \"#utility.yul\":3041:3143   */\n      swap2\n      swap1\n      pop\n      jump\t// out\n        /* \"#utility.yul\":3149:3329   */\n    tag_149:\n        /* \"#utility.yul\":3197:3274   */\n      0x4e487b7100000000000000000000000000000000000000000000000000000000\n        /* \"#utility.yul\":3194:3195   */\n      0x00\n        /* \"#utility.yul\":3187:3275   */\n      mstore\n        /* \"#utility.yul\":3294:3298   */\n      0x41\n        /* \"#utility.yul\":3291:3292   */\n      0x04\n        /* \"#utility.yul\":3284:3299   */\n      mstore\n        /* \"#utility.yul\":3318:3322   */\n      0x24\n        /* \"#utility.yul\":3315:3316   */\n      0x00\n        /* \"#utility.yul\":3308:3323   */\n      revert\n        /* \"#utility.yul\":3335:3616   */\n    tag_150:\n        /* \"#utility.yul\":3418:3445   */\n      tag_218\n        /* \"#utility.yul\":3440:3444   */\n      dup3\n        /* \"#utility.yul\":3418:3445   */\n      tag_148\n      jump\t// in\n    tag_218:\n        /* \"#utility.yul\":3410:3416   */\n      dup2\n        /* \"#utility.yul\":3406:3446   */\n      add\n        /* \"#utility.yul\":3548:3554   */\n      dup2\n        /* \"#utility.yul\":3536:3546   */\n      dup2\n        /* \"#utility.yul\":3533:3555   */\n      lt\n        /* \"#utility.yul\":3512:3530   */\n      0xffffffffffffffff\n        /* \"#utility.yul\":3500:3510   */\n      dup3\n        /* \"#utility.yul\":3497:3531   */\n      gt\n        /* \"#utility.yul\":3494:3556   */\n      or\n        /* \"#utility.yul\":3491:3579   */\n      iszero\n      tag_219\n      jumpi\n        /* \"#utility.yul\":3559:3577   */\n      tag_220\n      tag_149\n      jump\t// in\n    tag_220:\n        /* \"#utility.yul\":3491:3579   */\n    tag_219:\n        /* \"#utility.yul\":3599:3609   */\n      dup1\n        /* \"#utility.yul\":3595:3597   */\n      0x40\n        /* \"#utility.yul\":3588:3610   */\n      mstore\n        /* \"#utility.yul\":3378:3616   */\n      pop\n        /* \"#utility.yul\":3335:3616   */\n      pop\n      pop\n      jump\t// out\n        /* \"#utility.yul\":3622:3751   */\n    tag_151:\n        /* \"#utility.yul\":3656:3662   */\n      0x00\n        /* \"#utility.yul\":3683:3703   */\n      tag_222\n      tag_132\n      jump\t// in\n    tag_222:\n        /* \"#utility.yul\":3673:3703   */\n      swap1\n      pop\n        /* \"#utility.yul\":3712:3745   */\n      tag_223\n        /* \"#utility.yul\":3740:3744   */\n      dup3\n        /* \"#utility.yul\":3732:3738   */\n      dup3\n        /* \"#utility.yul\":3712:3745   */\n      tag_150\n      jump\t// in\n    tag_223:\n        /* \"#utility.yul\":3622:3751   */\n      swap2\n      swap1\n      pop\n      jump\t// out\n        /* \"#utility.yul\":3757:4064   */\n    tag_152:\n        /* \"#utility.yul\":3818:3822   */\n      0x00\n        /* \"#utility.yul\":3908:3926   */\n      0xffffffffffffffff\n        /* \"#utility.yul\":3900:3906   */\n      dup3\n        /* \"#utility.yul\":3897:3927   */\n      gt\n        /* \"#utility.yul\":3894:3950   */\n      iszero\n      tag_225\n      jumpi\n        /* \"#utility.yul\":3930:3948   */\n      tag_226\n      tag_149\n      jump\t// in\n    tag_226:\n        /* \"#utility.yul\":3894:3950   */\n    tag_225:\n        /* \"#utility.yul\":3968:3997   */\n      tag_227\n        /* \"#utility.yul\":3990:3996   */\n      dup3\n        /* \"#utility.yul\":3968:3997   */\n      tag_148\n      jump\t// in\n    tag_227:\n        /* \"#utility.yul\":3960:3997   */\n      swap1\n      pop\n        /* \"#utility.yul\":4052:4056   */\n      0x20\n        /* \"#utility.yul\":4046:4050   */\n      dup2\n        /* \"#utility.yul\":4042:4057   */\n      add\n        /* \"#utility.yul\":4034:4057   */\n      swap1\n      pop\n        /* \"#utility.yul\":3757:4064   */\n      swap2\n      swap1\n      pop\n      jump\t// out\n        /* \"#utility.yul\":4070:4216   */\n    tag_153:\n        /* \"#utility.yul\":4167:4173   */\n      dup3\n        /* \"#utility.yul\":4162:4165   */\n      dup2\n        /* \"#utility.yul\":4157:4160   */\n      dup4\n        /* \"#utility.yul\":4144:4174   */\n      calldatacopy\n        /* \"#utility.yul\":4208:4209   */\n      0x00\n        /* \"#utility.yul\":4199:4205   */\n      dup4\n        /* \"#utility.yul\":4194:4197   */\n      dup4\n        /* \"#utility.yul\":4190:4206   */\n      add\n        /* \"#utility.yul\":4183:4210   */\n      mstore\n        /* \"#utility.yul\":4070:4216   */\n      pop\n      pop\n      pop\n      jump\t// out\n        /* \"#utility.yul\":4222:4645   */\n    tag_154:\n        /* \"#utility.yul\":4299:4304   */\n      0x00\n        /* \"#utility.yul\":4324:4389   */\n      tag_230\n        /* \"#utility.yul\":4340:4388   */\n      tag_231\n        /* \"#utility.yul\":4381:4387   */\n      dup5\n        /* \"#utility.yul\":4340:4388   */\n      tag_152\n      jump\t// in\n    tag_231:\n        /* \"#utility.yul\":4324:4389   */\n      tag_151\n      jump\t// in\n    tag_230:\n        /* \"#utility.yul\":4315:4389   */\n      swap1\n      pop\n        /* \"#utility.yul\":4412:4418   */\n      dup3\n        /* \"#utility.yul\":4405:4410   */\n      dup2\n        /* \"#utility.yul\":4398:4419   */\n      mstore\n        /* \"#utility.yul\":4450:4454   */\n      0x20\n        /* \"#utility.yul\":4443:4448   */\n      dup2\n        /* \"#utility.yul\":4439:4455   */\n      add\n        /* \"#utility.yul\":4488:4491   */\n      dup5\n        /* \"#utility.yul\":4479:4485   */\n      dup5\n        /* \"#utility.yul\":4474:4477   */\n      dup5\n        /* \"#utility.yul\":4470:4486   */\n      add\n        /* \"#utility.yul\":4467:4492   */\n      gt\n        /* \"#utility.yul\":4464:4576   */\n      iszero\n      tag_232\n      jumpi\n        /* \"#utility.yul\":4495:4574   */\n      tag_233\n      tag_147\n      jump\t// in\n    tag_233:\n        /* \"#utility.yul\":4464:4576   */\n    tag_232:\n        /* \"#utility.yul\":4585:4639   */\n      tag_234\n        /* \"#utility.yul\":4632:4638   */\n      dup5\n        /* \"#utility.yul\":4627:4630   */\n      dup3\n        /* \"#utility.yul\":4622:4625   */\n      dup6\n        /* \"#utility.yul\":4585:4639   */\n      tag_153\n      jump\t// in\n    tag_234:\n        /* \"#utility.yul\":4305:4645   */\n      pop\n        /* \"#utility.yul\":4222:4645   */\n      swap4\n      swap3\n      pop\n      pop\n      pop\n      jump\t// out\n        /* \"#utility.yul\":4664:5002   */\n    tag_155:\n        /* \"#utility.yul\":4719:4724   */\n      0x00\n        /* \"#utility.yul\":4768:4771   */\n      dup3\n        /* \"#utility.yul\":4761:4765   */\n      0x1f\n        /* \"#utility.yul\":4753:4759   */\n      dup4\n        /* \"#utility.yul\":4749:4766   */\n      add\n        /* \"#utility.yul\":4745:4772   */\n      slt\n        /* \"#utility.yul\":4735:4857   */\n      tag_236\n      jumpi\n        /* \"#utility.yul\":4776:4855   */\n      tag_237\n      tag_146\n      jump\t// in\n    tag_237:\n        /* \"#utility.yul\":4735:4857   */\n    tag_236:\n        /* \"#utility.yul\":4893:4899   */\n      dup2\n        /* \"#utility.yul\":4880:4900   */\n      calldataload\n        /* \"#utility.yul\":4918:4996   */\n      tag_238\n        /* \"#utility.yul\":4992:4995   */\n      dup5\n        /* \"#utility.yul\":4984:4990   */\n      dup3\n        /* \"#utility.yul\":4977:4981   */\n      0x20\n        /* \"#utility.yul\":4969:4975   */\n      dup7\n        /* \"#utility.yul\":4965:4982   */\n      add\n        /* \"#utility.yul\":4918:4996   */\n      tag_154\n      jump\t// in\n    tag_238:\n        /* \"#utility.yul\":4909:4996   */\n      swap2\n      pop\n        /* \"#utility.yul\":4725:5002   */\n      pop\n        /* \"#utility.yul\":4664:5002   */\n      swap3\n      swap2\n      pop\n      pop\n      jump\t// out\n        /* \"#utility.yul\":5008:5660   */\n    tag_41:\n        /* \"#utility.yul\":5085:5091   */\n      0x00\n        /* \"#utility.yul\":5093:5099   */\n      dup1\n        /* \"#utility.yul\":5142:5144   */\n      0x40\n        /* \"#utility.yul\":5130:5139   */\n      dup4\n        /* \"#utility.yul\":5121:5128   */\n      dup6\n        /* \"#utility.yul\":5117:5140   */\n      sub\n        /* \"#utility.yul\":5113:5145   */\n      slt\n        /* \"#utility.yul\":5110:5229   */\n      iszero\n      tag_240\n      jumpi\n        /* \"#utility.yul\":5148:5227   */\n      tag_241\n      tag_133\n      jump\t// in\n    tag_241:\n        /* \"#utility.yul\":5110:5229   */\n    tag_240:\n        /* \"#utility.yul\":5268:5269   */\n      0x00\n        /* \"#utility.yul\":5293:5346   */\n      tag_242\n        /* \"#utility.yul\":5338:5345   */\n      dup6\n        /* \"#utility.yul\":5329:5335   */\n      dup3\n        /* \"#utility.yul\":5318:5327   */\n      dup7\n        /* \"#utility.yul\":5314:5336   */\n      add\n        /* \"#utility.yul\":5293:5346   */\n      tag_143\n      jump\t// in\n    tag_242:\n        /* \"#utility.yul\":5283:5346   */\n      swap3\n      pop\n        /* \"#utility.yul\":5239:5356   */\n      pop\n        /* \"#utility.yul\":5423:5425   */\n      0x20\n        /* \"#utility.yul\":5412:5421   */\n      dup4\n        /* \"#utility.yul\":5408:5426   */\n      add\n        /* \"#utility.yul\":5395:5427   */\n      calldataload\n        /* \"#utility.yul\":5454:5472   */\n      0xffffffffffffffff\n        /* \"#utility.yul\":5446:5452   */\n      dup2\n        /* \"#utility.yul\":5443:5473   */\n      gt\n        /* \"#utility.yul\":5440:5557   */\n      iszero\n      tag_243\n      jumpi\n        /* \"#utility.yul\":5476:5555   */\n      tag_244\n      tag_134\n      jump\t// in\n    tag_244:\n        /* \"#utility.yul\":5440:5557   */\n    tag_243:\n        /* \"#utility.yul\":5581:5643   */\n      tag_245\n        /* \"#utility.yul\":5635:5642   */\n      dup6\n        /* \"#utility.yul\":5626:5632   */\n      dup3\n        /* \"#utility.yul\":5615:5624   */\n      dup7\n        /* \"#utility.yul\":5611:5633   */\n      add\n        /* \"#utility.yul\":5581:5643   */\n      tag_155\n      jump\t// in\n    tag_245:\n        /* \"#utility.yul\":5571:5643   */\n      swap2\n      pop\n        /* \"#utility.yul\":5366:5653   */\n      pop\n        /* \"#utility.yul\":5008:5660   */\n      swap3\n      pop\n      swap3\n      swap1\n      pop\n      jump\t// out\n        /* \"#utility.yul\":5666:5743   */\n    tag_156:\n        /* \"#utility.yul\":5703:5710   */\n      0x00\n        /* \"#utility.yul\":5732:5737   */\n      dup2\n        /* \"#utility.yul\":5721:5737   */\n      swap1\n      pop\n        /* \"#utility.yul\":5666:5743   */\n      swap2\n      swap1\n      pop\n      jump\t// out\n        /* \"#utility.yul\":5749:5867   */\n    tag_157:\n        /* \"#utility.yul\":5836:5860   */\n      tag_248\n        /* \"#utility.yul\":5854:5859   */\n      dup2\n        /* \"#utility.yul\":5836:5860   */\n      tag_156\n      jump\t// in\n    tag_248:\n        /* \"#utility.yul\":5831:5834   */\n      dup3\n        /* \"#utility.yul\":5824:5861   */\n      mstore\n        /* \"#utility.yul\":5749:5867   */\n      pop\n      pop\n      jump\t// out\n        /* \"#utility.yul\":5873:6095   */\n    tag_44:\n        /* \"#utility.yul\":5966:5970   */\n      0x00\n        /* \"#utility.yul\":6004:6006   */\n      0x20\n        /* \"#utility.yul\":5993:6002   */\n      dup3\n        /* \"#utility.yul\":5989:6007   */\n      add\n        /* \"#utility.yul\":5981:6007   */\n      swap1\n      pop\n        /* \"#utility.yul\":6017:6088   */\n      tag_250\n        /* \"#utility.yul\":6085:6086   */\n      0x00\n        /* \"#utility.yul\":6074:6083   */\n      dup4\n        /* \"#utility.yul\":6070:6087   */\n      add\n        /* \"#utility.yul\":6061:6067   */\n      dup5\n        /* \"#utility.yul\":6017:6088   */\n      tag_157\n      jump\t// in\n    tag_250:\n        /* \"#utility.yul\":5873:6095   */\n      swap3\n      swap2\n      pop\n      pop\n      jump\t// out\n        /* \"#utility.yul\":6101:6223   */\n    tag_158:\n        /* \"#utility.yul\":6174:6198   */\n      tag_252\n        /* \"#utility.yul\":6192:6197   */\n      dup2\n        /* \"#utility.yul\":6174:6198   */\n      tag_139\n      jump\t// in\n    tag_252:\n        /* \"#utility.yul\":6167:6172   */\n      dup2\n        /* \"#utility.yul\":6164:6199   */\n      eq\n        /* \"#utility.yul\":6154:6217   */\n      tag_253\n      jumpi\n        /* \"#utility.yul\":6213:6214   */\n      0x00\n        /* \"#utility.yul\":6210:6211   */\n      dup1\n        /* \"#utility.yul\":6203:6215   */\n      revert\n        /* \"#utility.yul\":6154:6217   */\n    tag_253:\n        /* \"#utility.yul\":6101:6223   */\n      pop\n      jump\t// out\n        /* \"#utility.yul\":6229:6368   */\n    tag_159:\n        /* \"#utility.yul\":6275:6280   */\n      0x00\n        /* \"#utility.yul\":6313:6319   */\n      dup2\n        /* \"#utility.yul\":6300:6320   */\n      calldataload\n        /* \"#utility.yul\":6291:6320   */\n      swap1\n      pop\n        /* \"#utility.yul\":6329:6362   */\n      tag_255\n        /* \"#utility.yul\":6356:6361   */\n      dup2\n        /* \"#utility.yul\":6329:6362   */\n      tag_158\n      jump\t// in\n    tag_255:\n        /* \"#utility.yul\":6229:6368   */\n      swap3\n      swap2\n      pop\n      pop\n      jump\t// out\n        /* \"#utility.yul\":6374:6848   */\n    tag_47:\n        /* \"#utility.yul\":6442:6448   */\n      0x00\n        /* \"#utility.yul\":6450:6456   */\n      dup1\n        /* \"#utility.yul\":6499:6501   */\n      0x40\n        /* \"#utility.yul\":6487:6496   */\n      dup4\n        /* \"#utility.yul\":6478:6485   */\n      dup6\n        /* \"#utility.yul\":6474:6497   */\n      sub\n        /* \"#utility.yul\":6470:6502   */\n      slt\n        /* \"#utility.yul\":6467:6586   */\n      iszero\n      tag_257\n      jumpi\n        /* \"#utility.yul\":6505:6584   */\n      tag_258\n      tag_133\n      jump\t// in\n    tag_258:\n        /* \"#utility.yul\":6467:6586   */\n    tag_257:\n        /* \"#utility.yul\":6625:6626   */\n      0x00\n        /* \"#utility.yul\":6650:6703   */\n      tag_259\n        /* \"#utility.yul\":6695:6702   */\n      dup6\n        /* \"#utility.yul\":6686:6692   */\n      dup3\n        /* \"#utility.yul\":6675:6684   */\n      dup7\n        /* \"#utility.yul\":6671:6693   */\n      add\n        /* \"#utility.yul\":6650:6703   */\n      tag_143\n      jump\t// in\n    tag_259:\n        /* \"#utility.yul\":6640:6703   */\n      swap3\n      pop\n        /* \"#utility.yul\":6596:6713   */\n      pop\n        /* \"#utility.yul\":6752:6754   */\n      0x20\n        /* \"#utility.yul\":6778:6831   */\n      tag_260\n        /* \"#utility.yul\":6823:6830   */\n      dup6\n        /* \"#utility.yul\":6814:6820   */\n      dup3\n        /* \"#utility.yul\":6803:6812   */\n      dup7\n        /* \"#utility.yul\":6799:6821   */\n      add\n        /* \"#utility.yul\":6778:6831   */\n      tag_159\n      jump\t// in\n    tag_260:\n        /* \"#utility.yul\":6768:6831   */\n      swap2\n      pop\n        /* \"#utility.yul\":6723:6841   */\n      pop\n        /* \"#utility.yul\":6374:6848   */\n      swap3\n      pop\n      swap3\n      swap1\n      pop\n      jump\t// out\n        /* \"#utility.yul\":6854:7361   */\n    tag_52:\n        /* \"#utility.yul\":6922:6928   */\n      0x00\n        /* \"#utility.yul\":6971:6973   */\n      0x20\n        /* \"#utility.yul\":6959:6968   */\n      dup3\n        /* \"#utility.yul\":6950:6957   */\n      dup5\n        /* \"#utility.yul\":6946:6969   */\n      sub\n        /* \"#utility.yul\":6942:6974   */\n      slt\n        /* \"#utility.yul\":6939:7058   */\n      iszero\n      tag_262\n      jumpi\n        /* \"#utility.yul\":6977:7056   */\n      tag_263\n      tag_133\n      jump\t// in\n    tag_263:\n        /* \"#utility.yul\":6939:7058   */\n    tag_262:\n        /* \"#utility.yul\":7125:7126   */\n      0x00\n        /* \"#utility.yul\":7114:7123   */\n      dup3\n        /* \"#utility.yul\":7110:7127   */\n      add\n        /* \"#utility.yul\":7097:7128   */\n      calldataload\n        /* \"#utility.yul\":7155:7173   */\n      0xffffffffffffffff\n        /* \"#utility.yul\":7147:7153   */\n      dup2\n        /* \"#utility.yul\":7144:7174   */\n      gt\n        /* \"#utility.yul\":7141:7258   */\n      iszero\n      tag_264\n      jumpi\n        /* \"#utility.yul\":7177:7256   */\n      tag_265\n      tag_134\n      jump\t// in\n    tag_265:\n        /* \"#utility.yul\":7141:7258   */\n    tag_264:\n        /* \"#utility.yul\":7282:7344   */\n      tag_266\n        /* \"#utility.yul\":7336:7343   */\n      dup5\n        /* \"#utility.yul\":7327:7333   */\n      dup3\n        /* \"#utility.yul\":7316:7325   */\n      dup6\n        /* \"#utility.yul\":7312:7334   */\n      add\n        /* \"#utility.yul\":7282:7344   */\n      tag_155\n      jump\t// in\n    tag_266:\n        /* \"#utility.yul\":7272:7344   */\n      swap2\n      pop\n        /* \"#utility.yul\":7068:7354   */\n      pop\n        /* \"#utility.yul\":6854:7361   */\n      swap3\n      swap2\n      pop\n      pop\n      jump\t// out\n        /* \"#utility.yul\":7367:7466   */\n    tag_160:\n        /* \"#utility.yul\":7419:7425   */\n      0x00\n        /* \"#utility.yul\":7453:7458   */\n      dup2\n        /* \"#utility.yul\":7447:7459   */\n      mload\n        /* \"#utility.yul\":7437:7459   */\n      swap1\n      pop\n        /* \"#utility.yul\":7367:7466   */\n      swap2\n      swap1\n      pop\n      jump\t// out\n        /* \"#utility.yul\":7472:7641   */\n    tag_161:\n        /* \"#utility.yul\":7556:7567   */\n      0x00\n        /* \"#utility.yul\":7590:7596   */\n      dup3\n        /* \"#utility.yul\":7585:7588   */\n      dup3\n        /* \"#utility.yul\":7578:7597   */\n      mstore\n        /* \"#utility.yul\":7630:7634   */\n      0x20\n        /* \"#utility.yul\":7625:7628   */\n      dup3\n        /* \"#utility.yul\":7621:7635   */\n      add\n        /* \"#utility.yul\":7606:7635   */\n      swap1\n      pop\n        /* \"#utility.yul\":7472:7641   */\n      swap3\n      swap2\n      pop\n      pop\n      jump\t// out\n        /* \"#utility.yul\":7647:7893   */\n    tag_162:\n        /* \"#utility.yul\":7728:7729   */\n      0x00\n        /* \"#utility.yul\":7738:7851   */\n    tag_270:\n        /* \"#utility.yul\":7752:7758   */\n      dup4\n        /* \"#utility.yul\":7749:7750   */\n      dup2\n        /* \"#utility.yul\":7746:7759   */\n      lt\n        /* \"#utility.yul\":7738:7851   */\n      iszero\n      tag_272\n      jumpi\n        /* \"#utility.yul\":7837:7838   */\n      dup1\n        /* \"#utility.yul\":7832:7835   */\n      dup3\n        /* \"#utility.yul\":7828:7839   */\n      add\n        /* \"#utility.yul\":7822:7840   */\n      mload\n        /* \"#utility.yul\":7818:7819   */\n      dup2\n        /* \"#utility.yul\":7813:7816   */\n      dup5\n        /* \"#utility.yul\":7809:7820   */\n      add\n        /* \"#utility.yul\":7802:7841   */\n      mstore\n        /* \"#utility.yul\":7774:7776   */\n      0x20\n        /* \"#utility.yul\":7771:7772   */\n      dup2\n        /* \"#utility.yul\":7767:7777   */\n      add\n        /* \"#utility.yul\":7762:7777   */\n      swap1\n      pop\n        /* \"#utility.yul\":7738:7851   */\n      jump(tag_270)\n    tag_272:\n        /* \"#utility.yul\":7885:7886   */\n      0x00\n        /* \"#utility.yul\":7876:7882   */\n      dup5\n        /* \"#utility.yul\":7871:7874   */\n      dup5\n        /* \"#utility.yul\":7867:7883   */\n      add\n        /* \"#utility.yul\":7860:7887   */\n      mstore\n        /* \"#utility.yul\":7709:7893   */\n      pop\n        /* \"#utility.yul\":7647:7893   */\n      pop\n      pop\n      pop\n      jump\t// out\n        /* \"#utility.yul\":7899:8276   */\n    tag_163:\n        /* \"#utility.yul\":7987:7990   */\n      0x00\n        /* \"#utility.yul\":8015:8054   */\n      tag_274\n        /* \"#utility.yul\":8048:8053   */\n      dup3\n        /* \"#utility.yul\":8015:8054   */\n      tag_160\n      jump\t// in\n    tag_274:\n        /* \"#utility.yul\":8070:8141   */\n      tag_275\n        /* \"#utility.yul\":8134:8140   */\n      dup2\n        /* \"#utility.yul\":8129:8132   */\n      dup6\n        /* \"#utility.yul\":8070:8141   */\n      tag_161\n      jump\t// in\n    tag_275:\n        /* \"#utility.yul\":8063:8141   */\n      swap4\n      pop\n        /* \"#utility.yul\":8150:8215   */\n      tag_276\n        /* \"#utility.yul\":8208:8214   */\n      dup2\n        /* \"#utility.yul\":8203:8206   */\n      dup6\n        /* \"#utility.yul\":8196:8200   */\n      0x20\n        /* \"#utility.yul\":8189:8194   */\n      dup7\n        /* \"#utility.yul\":8185:8201   */\n      add\n        /* \"#utility.yul\":8150:8215   */\n      tag_162\n      jump\t// in\n    tag_276:\n        /* \"#utility.yul\":8240:8269   */\n      tag_277\n        /* \"#utility.yul\":8262:8268   */\n      dup2\n        /* \"#utility.yul\":8240:8269   */\n      tag_148\n      jump\t// in\n    tag_277:\n        /* \"#utility.yul\":8235:8238   */\n      dup5\n        /* \"#utility.yul\":8231:8270   */\n      add\n        /* \"#utility.yul\":8224:8270   */\n      swap2\n      pop\n        /* \"#utility.yul\":7991:8276   */\n      pop\n        /* \"#utility.yul\":7899:8276   */\n      swap3\n      swap2\n      pop\n      pop\n      jump\t// out\n        /* \"#utility.yul\":8282:8595   */\n    tag_62:\n        /* \"#utility.yul\":8395:8399   */\n      0x00\n        /* \"#utility.yul\":8433:8435   */\n      0x20\n        /* \"#utility.yul\":8422:8431   */\n      dup3\n        /* \"#utility.yul\":8418:8436   */\n      add\n        /* \"#utility.yul\":8410:8436   */\n      swap1\n      pop\n        /* \"#utility.yul\":8482:8491   */\n      dup2\n        /* \"#utility.yul\":8476:8480   */\n      dup2\n        /* \"#utility.yul\":8472:8492   */\n      sub\n        /* \"#utility.yul\":8468:8469   */\n      0x00\n        /* \"#utility.yul\":8457:8466   */\n      dup4\n        /* \"#utility.yul\":8453:8470   */\n      add\n        /* \"#utility.yul\":8446:8493   */\n      mstore\n        /* \"#utility.yul\":8510:8588   */\n      tag_279\n        /* \"#utility.yul\":8583:8587   */\n      dup2\n        /* \"#utility.yul\":8574:8580   */\n      dup5\n        /* \"#utility.yul\":8510:8588   */\n      tag_163\n      jump\t// in\n    tag_279:\n        /* \"#utility.yul\":8502:8588   */\n      swap1\n      pop\n        /* \"#utility.yul\":8282:8595   */\n      swap3\n      swap2\n      pop\n      pop\n      jump\t// out\n        /* \"#utility.yul\":8601:9073   */\n    tag_68:\n        /* \"#utility.yul\":8668:8674   */\n      0x00\n        /* \"#utility.yul\":8676:8682   */\n      dup1\n        /* \"#utility.yul\":8725:8727   */\n      0x40\n        /* \"#utility.yul\":8713:8722   */\n      dup4\n        /* \"#utility.yul\":8704:8711   */\n      dup6\n        /* \"#utility.yul\":8700:8723   */\n      sub\n        /* \"#utility.yul\":8696:8728   */\n      slt\n        /* \"#utility.yul\":8693:8812   */\n      iszero\n      tag_281\n      jumpi\n        /* \"#utility.yul\":8731:8810   */\n      tag_282\n      tag_133\n      jump\t// in\n    tag_282:\n        /* \"#utility.yul\":8693:8812   */\n    tag_281:\n        /* \"#utility.yul\":8851:8852   */\n      0x00\n        /* \"#utility.yul\":8876:8929   */\n      tag_283\n        /* \"#utility.yul\":8921:8928   */\n      dup6\n        /* \"#utility.yul\":8912:8918   */\n      dup3\n        /* \"#utility.yul\":8901:8910   */\n      dup7\n        /* \"#utility.yul\":8897:8919   */\n      add\n        /* \"#utility.yul\":8876:8929   */\n      tag_143\n      jump\t// in\n    tag_283:\n        /* \"#utility.yul\":8866:8929   */\n      swap3\n      pop\n        /* \"#utility.yul\":8822:8939   */\n      pop\n        /* \"#utility.yul\":8978:8980   */\n      0x20\n        /* \"#utility.yul\":9004:9056   */\n      tag_284\n        /* \"#utility.yul\":9048:9055   */\n      dup6\n        /* \"#utility.yul\":9039:9045   */\n      dup3\n        /* \"#utility.yul\":9028:9037   */\n      dup7\n        /* \"#utility.yul\":9024:9046   */\n      add\n        /* \"#utility.yul\":9004:9056   */\n      tag_137\n      jump\t// in\n    tag_284:\n        /* \"#utility.yul\":8994:9056   */\n      swap2\n      pop\n        /* \"#utility.yul\":8949:9066   */\n      pop\n        /* \"#utility.yul\":8601:9073   */\n      swap3\n      pop\n      swap3\n      swap1\n      pop\n      jump\t// out\n        /* \"#utility.yul\":9079:9197   */\n    tag_164:\n        /* \"#utility.yul\":9116:9123   */\n      0x00\n        /* \"#utility.yul\":9156:9190   */\n      0xffffffffffffffffffffffffffffffff\n        /* \"#utility.yul\":9149:9154   */\n      dup3\n        /* \"#utility.yul\":9145:9191   */\n      and\n        /* \"#utility.yul\":9134:9191   */\n      swap1\n      pop\n        /* \"#utility.yul\":9079:9197   */\n      swap2\n      swap1\n      pop\n      jump\t// out\n        /* \"#utility.yul\":9203:9321   */\n    tag_165:\n        /* \"#utility.yul\":9290:9314   */\n      tag_287\n        /* \"#utility.yul\":9308:9313   */\n      dup2\n        /* \"#utility.yul\":9290:9314   */\n      tag_164\n      jump\t// in\n    tag_287:\n        /* \"#utility.yul\":9285:9288   */\n      dup3\n        /* \"#utility.yul\":9278:9315   */\n      mstore\n        /* \"#utility.yul\":9203:9321   */\n      pop\n      pop\n      jump\t// out\n        /* \"#utility.yul\":9327:9659   */\n    tag_74:\n        /* \"#utility.yul\":9448:9452   */\n      0x00\n        /* \"#utility.yul\":9486:9488   */\n      0x40\n        /* \"#utility.yul\":9475:9484   */\n      dup3\n        /* \"#utility.yul\":9471:9489   */\n      add\n        /* \"#utility.yul\":9463:9489   */\n      swap1\n      pop\n        /* \"#utility.yul\":9499:9570   */\n      tag_289\n        /* \"#utility.yul\":9567:9568   */\n      0x00\n        /* \"#utility.yul\":9556:9565   */\n      dup4\n        /* \"#utility.yul\":9552:9569   */\n      add\n        /* \"#utility.yul\":9543:9549   */\n      dup6\n        /* \"#utility.yul\":9499:9570   */\n      tag_165\n      jump\t// in\n    tag_289:\n        /* \"#utility.yul\":9580:9652   */\n      tag_290\n        /* \"#utility.yul\":9648:9650   */\n      0x20\n        /* \"#utility.yul\":9637:9646   */\n      dup4\n        /* \"#utility.yul\":9633:9651   */\n      add\n        /* \"#utility.yul\":9624:9630   */\n      dup5\n        /* \"#utility.yul\":9580:9652   */\n      tag_165\n      jump\t// in\n    tag_290:\n        /* \"#utility.yul\":9327:9659   */\n      swap4\n      swap3\n      pop\n      pop\n      pop\n      jump\t// out\n        /* \"#utility.yul\":9665:10139   */\n    tag_77:\n        /* \"#utility.yul\":9733:9739   */\n      0x00\n        /* \"#utility.yul\":9741:9747   */\n      dup1\n        /* \"#utility.yul\":9790:9792   */\n      0x40\n        /* \"#utility.yul\":9778:9787   */\n      dup4\n        /* \"#utility.yul\":9769:9776   */\n      dup6\n        /* \"#utility.yul\":9765:9788   */\n      sub\n        /* \"#utility.yul\":9761:9793   */\n      slt\n        /* \"#utility.yul\":9758:9877   */\n      iszero\n      tag_292\n      jumpi\n        /* \"#utility.yul\":9796:9875   */\n      tag_293\n      tag_133\n      jump\t// in\n    tag_293:\n        /* \"#utility.yul\":9758:9877   */\n    tag_292:\n        /* \"#utility.yul\":9916:9917   */\n      0x00\n        /* \"#utility.yul\":9941:9994   */\n      tag_294\n        /* \"#utility.yul\":9986:9993   */\n      dup6\n        /* \"#utility.yul\":9977:9983   */\n      dup3\n        /* \"#utility.yul\":9966:9975   */\n      dup7\n        /* \"#utility.yul\":9962:9984   */\n      add\n        /* \"#utility.yul\":9941:9994   */\n      tag_143\n      jump\t// in\n    tag_294:\n        /* \"#utility.yul\":9931:9994   */\n      swap3\n      pop\n        /* \"#utility.yul\":9887:10004   */\n      pop\n        /* \"#utility.yul\":10043:10045   */\n      0x20\n        /* \"#utility.yul\":10069:10122   */\n      tag_295\n        /* \"#utility.yul\":10114:10121   */\n      dup6\n        /* \"#utility.yul\":10105:10111   */\n      dup3\n        /* \"#utility.yul\":10094:10103   */\n      dup7\n        /* \"#utility.yul\":10090:10112   */\n      add\n        /* \"#utility.yul\":10069:10122   */\n      tag_143\n      jump\t// in\n    tag_295:\n        /* \"#utility.yul\":10059:10122   */\n      swap2\n      pop\n        /* \"#utility.yul\":10014:10132   */\n      pop\n        /* \"#utility.yul\":9665:10139   */\n      swap3\n      pop\n      swap3\n      swap1\n      pop\n      jump\t// out\n        /* \"#utility.yul\":10145:10243   */\n    tag_166:\n        /* \"#utility.yul\":10196:10202   */\n      0x00\n        /* \"#utility.yul\":10230:10235   */\n      dup2\n        /* \"#utility.yul\":10224:10236   */\n      mload\n        /* \"#utility.yul\":10214:10236   */\n      swap1\n      pop\n        /* \"#utility.yul\":10145:10243   */\n      swap2\n      swap1\n      pop\n      jump\t// out\n        /* \"#utility.yul\":10249:10417   */\n    tag_167:\n        /* \"#utility.yul\":10332:10343   */\n      0x00\n        /* \"#utility.yul\":10366:10372   */\n      dup3\n        /* \"#utility.yul\":10361:10364   */\n      dup3\n        /* \"#utility.yul\":10354:10373   */\n      mstore\n        /* \"#utility.yul\":10406:10410   */\n      0x20\n        /* \"#utility.yul\":10401:10404   */\n      dup3\n        /* \"#utility.yul\":10397:10411   */\n      add\n        /* \"#utility.yul\":10382:10411   */\n      swap1\n      pop\n        /* \"#utility.yul\":10249:10417   */\n      swap3\n      swap2\n      pop\n      pop\n      jump\t// out\n        /* \"#utility.yul\":10423:10796   */\n    tag_168:\n        /* \"#utility.yul\":10509:10512   */\n      0x00\n        /* \"#utility.yul\":10537:10575   */\n      tag_299\n        /* \"#utility.yul\":10569:10574   */\n      dup3\n        /* \"#utility.yul\":10537:10575   */\n      tag_166\n      jump\t// in\n    tag_299:\n        /* \"#utility.yul\":10591:10661   */\n      tag_300\n        /* \"#utility.yul\":10654:10660   */\n      dup2\n        /* \"#utility.yul\":10649:10652   */\n      dup6\n        /* \"#utility.yul\":10591:10661   */\n      tag_167\n      jump\t// in\n    tag_300:\n        /* \"#utility.yul\":10584:10661   */\n      swap4\n      pop\n        /* \"#utility.yul\":10670:10735   */\n      tag_301\n        /* \"#utility.yul\":10728:10734   */\n      dup2\n        /* \"#utility.yul\":10723:10726   */\n      dup6\n        /* \"#utility.yul\":10716:10720   */\n      0x20\n        /* \"#utility.yul\":10709:10714   */\n      dup7\n        /* \"#utility.yul\":10705:10721   */\n      add\n        /* \"#utility.yul\":10670:10735   */\n      tag_162\n      jump\t// in\n    tag_301:\n        /* \"#utility.yul\":10760:10789   */\n      tag_302\n        /* \"#utility.yul\":10782:10788   */\n      dup2\n        /* \"#utility.yul\":10760:10789   */\n      tag_148\n      jump\t// in\n    tag_302:\n        /* \"#utility.yul\":10755:10758   */\n      dup5\n        /* \"#utility.yul\":10751:10790   */\n      add\n        /* \"#utility.yul\":10744:10790   */\n      swap2\n      pop\n        /* \"#utility.yul\":10513:10796   */\n      pop\n        /* \"#utility.yul\":10423:10796   */\n      swap3\n      swap2\n      pop\n      pop\n      jump\t// out\n        /* \"#utility.yul\":10802:11111   */\n    tag_87:\n        /* \"#utility.yul\":10913:10917   */\n      0x00\n        /* \"#utility.yul\":10951:10953   */\n      0x20\n        /* \"#utility.yul\":10940:10949   */\n      dup3\n        /* \"#utility.yul\":10936:10954   */\n      add\n        /* \"#utility.yul\":10928:10954   */\n      swap1\n      pop\n        /* \"#utility.yul\":11000:11009   */\n      dup2\n        /* \"#utility.yul\":10994:10998   */\n      dup2\n        /* \"#utility.yul\":10990:11010   */\n      sub\n        /* \"#utility.yul\":10986:10987   */\n      0x00\n        /* \"#utility.yul\":10975:10984   */\n      dup4\n        /* \"#utility.yul\":10971:10988   */\n      add\n        /* \"#utility.yul\":10964:11011   */\n      mstore\n        /* \"#utility.yul\":11028:11104   */\n      tag_304\n        /* \"#utility.yul\":11099:11103   */\n      dup2\n        /* \"#utility.yul\":11090:11096   */\n      dup5\n        /* \"#utility.yul\":11028:11104   */\n      tag_168\n      jump\t// in\n    tag_304:\n        /* \"#utility.yul\":11020:11104   */\n      swap1\n      pop\n        /* \"#utility.yul\":10802:11111   */\n      swap3\n      swap2\n      pop\n      pop\n      jump\t// out\n        /* \"#utility.yul\":11117:11196   */\n    tag_169:\n        /* \"#utility.yul\":11156:11163   */\n      0x00\n        /* \"#utility.yul\":11185:11190   */\n      dup2\n        /* \"#utility.yul\":11174:11190   */\n      swap1\n      pop\n        /* \"#utility.yul\":11117:11196   */\n      swap2\n      swap1\n      pop\n      jump\t// out\n        /* \"#utility.yul\":11202:11359   */\n    tag_170:\n        /* \"#utility.yul\":11307:11352   */\n      tag_307\n        /* \"#utility.yul\":11327:11351   */\n      tag_308\n        /* \"#utility.yul\":11345:11350   */\n      dup3\n        /* \"#utility.yul\":11327:11351   */\n      tag_156\n      jump\t// in\n    tag_308:\n        /* \"#utility.yul\":11307:11352   */\n      tag_169\n      jump\t// in\n    tag_307:\n        /* \"#utility.yul\":11302:11305   */\n      dup3\n        /* \"#utility.yul\":11295:11353   */\n      mstore\n        /* \"#utility.yul\":11202:11359   */\n      pop\n      pop\n      jump\t// out\n        /* \"#utility.yul\":11365:11444   */\n    tag_171:\n        /* \"#utility.yul\":11404:11411   */\n      0x00\n        /* \"#utility.yul\":11433:11438   */\n      dup2\n        /* \"#utility.yul\":11422:11438   */\n      swap1\n      pop\n        /* \"#utility.yul\":11365:11444   */\n      swap2\n      swap1\n      pop\n      jump\t// out\n        /* \"#utility.yul\":11450:11607   */\n    tag_172:\n        /* \"#utility.yul\":11555:11600   */\n      tag_311\n        /* \"#utility.yul\":11575:11599   */\n      tag_312\n        /* \"#utility.yul\":11593:11598   */\n      dup3\n        /* \"#utility.yul\":11575:11599   */\n      tag_141\n      jump\t// in\n    tag_312:\n        /* \"#utility.yul\":11555:11600   */\n      tag_171\n      jump\t// in\n    tag_311:\n        /* \"#utility.yul\":11550:11553   */\n      dup3\n        /* \"#utility.yul\":11543:11601   */\n      mstore\n        /* \"#utility.yul\":11450:11607   */\n      pop\n      pop\n      jump\t// out\n        /* \"#utility.yul\":11613:12010   */\n    tag_104:\n        /* \"#utility.yul\":11753:11756   */\n      0x00\n        /* \"#utility.yul\":11768:11843   */\n      tag_314\n        /* \"#utility.yul\":11839:11842   */\n      dup3\n        /* \"#utility.yul\":11830:11836   */\n      dup6\n        /* \"#utility.yul\":11768:11843   */\n      tag_170\n      jump\t// in\n    tag_314:\n        /* \"#utility.yul\":11868:11870   */\n      0x20\n        /* \"#utility.yul\":11863:11866   */\n      dup3\n        /* \"#utility.yul\":11859:11871   */\n      add\n        /* \"#utility.yul\":11852:11871   */\n      swap2\n      pop\n        /* \"#utility.yul\":11881:11956   */\n      tag_315\n        /* \"#utility.yul\":11952:11955   */\n      dup3\n        /* \"#utility.yul\":11943:11949   */\n      dup5\n        /* \"#utility.yul\":11881:11956   */\n      tag_172\n      jump\t// in\n    tag_315:\n        /* \"#utility.yul\":11981:11983   */\n      0x20\n        /* \"#utility.yul\":11976:11979   */\n      dup3\n        /* \"#utility.yul\":11972:11984   */\n      add\n        /* \"#utility.yul\":11965:11984   */\n      swap2\n      pop\n        /* \"#utility.yul\":12001:12004   */\n      dup2\n        /* \"#utility.yul\":11994:12004   */\n      swap1\n      pop\n        /* \"#utility.yul\":11613:12010   */\n      swap4\n      swap3\n      pop\n      pop\n      pop\n      jump\t// out\n        /* \"#utility.yul\":12016:12272   */\n    tag_107:\n        /* \"#utility.yul\":12128:12131   */\n      0x00\n        /* \"#utility.yul\":12143:12218   */\n      tag_317\n        /* \"#utility.yul\":12214:12217   */\n      dup3\n        /* \"#utility.yul\":12205:12211   */\n      dup5\n        /* \"#utility.yul\":12143:12218   */\n      tag_172\n      jump\t// in\n    tag_317:\n        /* \"#utility.yul\":12243:12245   */\n      0x20\n        /* \"#utility.yul\":12238:12241   */\n      dup3\n        /* \"#utility.yul\":12234:12246   */\n      add\n        /* \"#utility.yul\":12227:12246   */\n      swap2\n      pop\n        /* \"#utility.yul\":12263:12266   */\n      dup2\n        /* \"#utility.yul\":12256:12266   */\n      swap1\n      pop\n        /* \"#utility.yul\":12016:12272   */\n      swap3\n      swap2\n      pop\n      pop\n      jump\t// out\n        /* \"#utility.yul\":12278:12458   */\n    tag_173:\n        /* \"#utility.yul\":12326:12403   */\n      0x4e487b7100000000000000000000000000000000000000000000000000000000\n        /* \"#utility.yul\":12323:12324   */\n      0x00\n        /* \"#utility.yul\":12316:12404   */\n      mstore\n        /* \"#utility.yul\":12423:12427   */\n      0x22\n        /* \"#utility.yul\":12420:12421   */\n      0x04\n        /* \"#utility.yul\":12413:12428   */\n      mstore\n        /* \"#utility.yul\":12447:12451   */\n      0x24\n        /* \"#utility.yul\":12444:12445   */\n      0x00\n        /* \"#utility.yul\":12437:12452   */\n      revert\n        /* \"#utility.yul\":12464:12784   */\n    tag_109:\n        /* \"#utility.yul\":12508:12514   */\n      0x00\n        /* \"#utility.yul\":12545:12546   */\n      0x02\n        /* \"#utility.yul\":12539:12543   */\n      dup3\n        /* \"#utility.yul\":12535:12547   */\n      div\n        /* \"#utility.yul\":12525:12547   */\n      swap1\n      pop\n        /* \"#utility.yul\":12592:12593   */\n      0x01\n        /* \"#utility.yul\":12586:12590   */\n      dup3\n        /* \"#utility.yul\":12582:12594   */\n      and\n        /* \"#utility.yul\":12613:12631   */\n      dup1\n        /* \"#utility.yul\":12603:12684   */\n      tag_320\n      jumpi\n        /* \"#utility.yul\":12669:12673   */\n      0x7f\n        /* \"#utility.yul\":12661:12667   */\n      dup3\n        /* \"#utility.yul\":12657:12674   */\n      and\n        /* \"#utility.yul\":12647:12674   */\n      swap2\n      pop\n        /* \"#utility.yul\":12603:12684   */\n    tag_320:\n        /* \"#utility.yul\":12731:12733   */\n      0x20\n        /* \"#utility.yul\":12723:12729   */\n      dup3\n        /* \"#utility.yul\":12720:12734   */\n      lt\n        /* \"#utility.yul\":12700:12718   */\n      dup2\n        /* \"#utility.yul\":12697:12735   */\n      sub\n        /* \"#utility.yul\":12694:12778   */\n      tag_321\n      jumpi\n        /* \"#utility.yul\":12750:12768   */\n      tag_322\n      tag_173\n      jump\t// in\n    tag_322:\n        /* \"#utility.yul\":12694:12778   */\n    tag_321:\n        /* \"#utility.yul\":12515:12784   */\n      pop\n        /* \"#utility.yul\":12464:12784   */\n      swap2\n      swap1\n      pop\n      jump\t// out\n        /* \"#utility.yul\":12790:12905   */\n    tag_174:\n        /* \"#utility.yul\":12875:12898   */\n      tag_324\n        /* \"#utility.yul\":12892:12897   */\n      dup2\n        /* \"#utility.yul\":12875:12898   */\n      tag_135\n      jump\t// in\n    tag_324:\n        /* \"#utility.yul\":12870:12873   */\n      dup3\n        /* \"#utility.yul\":12863:12899   */\n      mstore\n        /* \"#utility.yul\":12790:12905   */\n      pop\n      pop\n      jump\t// out\n        /* \"#utility.yul\":12911:13029   */\n    tag_175:\n        /* \"#utility.yul\":12998:13022   */\n      tag_326\n        /* \"#utility.yul\":13016:13021   */\n      dup2\n        /* \"#utility.yul\":12998:13022   */\n      tag_141\n      jump\t// in\n    tag_326:\n        /* \"#utility.yul\":12993:12996   */\n      dup3\n        /* \"#utility.yul\":12986:13023   */\n      mstore\n        /* \"#utility.yul\":12911:13029   */\n      pop\n      pop\n      jump\t// out\n        /* \"#utility.yul\":13035:13363   */\n    tag_116:\n        /* \"#utility.yul\":13154:13158   */\n      0x00\n        /* \"#utility.yul\":13192:13194   */\n      0x40\n        /* \"#utility.yul\":13181:13190   */\n      dup3\n        /* \"#utility.yul\":13177:13195   */\n      add\n        /* \"#utility.yul\":13169:13195   */\n      swap1\n      pop\n        /* \"#utility.yul\":13205:13274   */\n      tag_328\n        /* \"#utility.yul\":13271:13272   */\n      0x00\n        /* \"#utility.yul\":13260:13269   */\n      dup4\n        /* \"#utility.yul\":13256:13273   */\n      add\n        /* \"#utility.yul\":13247:13253   */\n      dup6\n        /* \"#utility.yul\":13205:13274   */\n      tag_174\n      jump\t// in\n    tag_328:\n        /* \"#utility.yul\":13284:13356   */\n      tag_329\n        /* \"#utility.yul\":13352:13354   */\n      0x20\n        /* \"#utility.yul\":13341:13350   */\n      dup4\n        /* \"#utility.yul\":13337:13355   */\n      add\n        /* \"#utility.yul\":13328:13334   */\n      dup5\n        /* \"#utility.yul\":13284:13356   */\n      tag_175\n      jump\t// in\n    tag_329:\n        /* \"#utility.yul\":13035:13363   */\n      swap4\n      swap3\n      pop\n      pop\n      pop\n      jump\t// out\n        /* \"#utility.yul\":13369:13701   */\n    tag_119:\n        /* \"#utility.yul\":13490:13494   */\n      0x00\n        /* \"#utility.yul\":13528:13530   */\n      0x40\n        /* \"#utility.yul\":13517:13526   */\n      dup3\n        /* \"#utility.yul\":13513:13531   */\n      add\n        /* \"#utility.yul\":13505:13531   */\n      swap1\n      pop\n        /* \"#utility.yul\":13541:13612   */\n      tag_331\n        /* \"#utility.yul\":13609:13610   */\n      0x00\n        /* \"#utility.yul\":13598:13607   */\n      dup4\n        /* \"#utility.yul\":13594:13611   */\n      add\n        /* \"#utility.yul\":13585:13591   */\n      dup6\n        /* \"#utility.yul\":13541:13612   */\n      tag_175\n      jump\t// in\n    tag_331:\n        /* \"#utility.yul\":13622:13694   */\n      tag_332\n        /* \"#utility.yul\":13690:13692   */\n      0x20\n        /* \"#utility.yul\":13679:13688   */\n      dup4\n        /* \"#utility.yul\":13675:13693   */\n      add\n        /* \"#utility.yul\":13666:13672   */\n      dup5\n        /* \"#utility.yul\":13622:13694   */\n      tag_175\n      jump\t// in\n    tag_332:\n        /* \"#utility.yul\":13369:13701   */\n      swap4\n      swap3\n      pop\n      pop\n      pop\n      jump\t// out\n        /* \"#utility.yul\":13707:13887   */\n    tag_176:\n        /* \"#utility.yul\":13755:13832   */\n      0x4e487b7100000000000000000000000000000000000000000000000000000000\n        /* \"#utility.yul\":13752:13753   */\n      0x00\n        /* \"#utility.yul\":13745:13833   */\n      mstore\n        /* \"#utility.yul\":13852:13856   */\n      0x11\n        /* \"#utility.yul\":13849:13850   */\n      0x04\n        /* \"#utility.yul\":13842:13857   */\n      mstore\n        /* \"#utility.yul\":13876:13880   */\n      0x24\n        /* \"#utility.yul\":13873:13874   */\n      0x00\n        /* \"#utility.yul\":13866:13881   */\n      revert\n        /* \"#utility.yul\":13893:14084   */\n    tag_125:\n        /* \"#utility.yul\":13933:13936   */\n      0x00\n        /* \"#utility.yul\":13952:13972   */\n      tag_335\n        /* \"#utility.yul\":13970:13971   */\n      dup3\n        /* \"#utility.yul\":13952:13972   */\n      tag_141\n      jump\t// in\n    tag_335:\n        /* \"#utility.yul\":13947:13972   */\n      swap2\n      pop\n        /* \"#utility.yul\":13986:14006   */\n      tag_336\n        /* \"#utility.yul\":14004:14005   */\n      dup4\n        /* \"#utility.yul\":13986:14006   */\n      tag_141\n      jump\t// in\n    tag_336:\n        /* \"#utility.yul\":13981:14006   */\n      swap3\n      pop\n        /* \"#utility.yul\":14029:14030   */\n      dup3\n        /* \"#utility.yul\":14026:14027   */\n      dup3\n        /* \"#utility.yul\":14022:14031   */\n      add\n        /* \"#utility.yul\":14015:14031   */\n      swap1\n      pop\n        /* \"#utility.yul\":14050:14053   */\n      dup1\n        /* \"#utility.yul\":14047:14048   */\n      dup3\n        /* \"#utility.yul\":14044:14054   */\n      gt\n        /* \"#utility.yul\":14041:14077   */\n      iszero\n      tag_337\n      jumpi\n        /* \"#utility.yul\":14057:14075   */\n      tag_338\n      tag_176\n      jump\t// in\n    tag_338:\n        /* \"#utility.yul\":14041:14077   */\n    tag_337:\n        /* \"#utility.yul\":13893:14084   */\n      swap3\n      swap2\n      pop\n      pop\n      jump\t// out\n\n    auxdata: 0xa264697066735822122058f7e41fd2ae50cf9c05cdc7b99adba0f663559a2fa204804d4573d448e9fb4064736f6c63430008130033\n}\n",
				"bytecode": {
					"linkReferences": {},
					"object": "608060405260016000556002600160006101000a8154816fffffffffffffffffffffffffffffffff02191690836fffffffffffffffffffffffffffffffff1602179055506003600160106101000a8154816fffffffffffffffffffffffffffffffff02191690836fffffffffffffffffffffffffffffffff160217905550600460025560056003553480156200009457600080fd5b506040516200203c3803806200203c8339818101604052810190620000ba919062000ab5565b60066004819055506007600560006101000a81548160ff021916908360ff1602179055506008600560016101000a81548161ffff021916908361ffff160217905550604051806040016040528060098152602001600a81525060069060026200012592919062000791565b50600367ffffffffffffffff81111562000144576200014362000951565b5b604051908082528060200260200182016040528015620001735781602001602082028036833780820191505090505b50600890805190602001906200018b929190620007d6565b50600b6008600081548110620001a657620001a562000b06565b5b90600052602060002090600291828204019190066010026101000a8154816fffffffffffffffffffffffffffffffff02191690836fffffffffffffffffffffffffffffffff160217905550600c60086001815481106200020b576200020a62000b06565b5b90600052602060002090600291828204019190066010026101000a8154816fffffffffffffffffffffffffffffffff02191690836fffffffffffffffffffffffffffffffff160217905550600d600860028154811062000270576200026f62000b06565b5b90600052602060002090600291828204019190066010026101000a8154816fffffffffffffffffffffffffffffffff02191690836fffffffffffffffffffffffffffffffff1602179055506040518060800160405280600e6fffffffffffffffffffffffffffffffff168152602001600f6fffffffffffffffffffffffffffffffff16815260200160405180604001604052806010815260200160118152508152602001600367ffffffffffffffff81111562000332576200033162000951565b5b604051908082528060200260200182016040528015620003615781602001602082028036833780820191505090505b50815250600960008201518160000160006101000a8154816fffffffffffffffffffffffffffffffff02191690836fffffffffffffffffffffffffffffffff16021790555060208201518160000160106101000a8154816fffffffffffffffffffffffffffffffff02191690836fffffffffffffffffffffffffffffffff160217905550604082015181600101906002620003fe92919062000791565b5060608201518160030190805190602001906200041d929190620008b1565b50905050601260096003016000815481106200043e576200043d62000b06565b5b90600052602060002001819055506013600960030160018154811062000469576200046862000b06565b5b90600052602060002001819055506014600960030160028154811062000494576200049362000b06565b5b906000526020600020018190555033600d60006101000a81548173ffffffffffffffffffffffffffffffffffffffff021916908373ffffffffffffffffffffffffffffffffffffffff1602179055506001600e600080815260200190815260200160002060003373ffffffffffffffffffffffffffffffffffffffff1673ffffffffffffffffffffffffffffffffffffffff16815260200190815260200160002060006101000a81548160ff0219169083151502179055506001600e60006003815260200190815260200160002060003373ffffffffffffffffffffffffffffffffffffffff1673ffffffffffffffffffffffffffffffffffffffff16815260200190815260200160002060006101000a81548160ff0219169083151502179055506040518060400160405280600581526020017f68656c6c6f000000000000000000000000000000000000000000000000000000815250600f9081620005fc919062000d80565b5080601090816200060e919062000ed7565b5060016011600080815260200190815260200160002060006101000a81548160ff0219169083151502179055506001601160006004815260200190815260200160002060006101000a81548160ff0219169083151502179055506001601260106040516200067d919062001058565b908152602001604051809103902060006101000a81548160ff0219169083151502179055506001601360006101000a81548160ff0219169083151502179055506000601360016101000a81548160ff0219169083151502179055506001601360026101000a81548160ff0219169083151502179055503360146000636af479b260e01b7bffffffffffffffffffffffffffffffffffffffffffffffffffffffff19167bffffffffffffffffffffffffffffffffffffffffffffffffffffffff1916815260200190815260200160002060006101000a81548173ffffffffffffffffffffffffffffffffffffffff021916908373ffffffffffffffffffffffffffffffffffffffff1602179055505062001071565b8260028101928215620007c3579160200282015b82811115620007c2578251825591602001919060010190620007a5565b5b509050620007d2919062000903565b5090565b828054828255906000526020600020906001016002900481019282156200089e5791602002820160005b838211156200085e57835183826101000a8154816fffffffffffffffffffffffffffffffff02191690836fffffffffffffffffffffffffffffffff1602179055509260200192601001602081600f0104928301926001030262000800565b80156200089c5782816101000a8154906fffffffffffffffffffffffffffffffff0219169055601001602081600f010492830192600103026200085e565b505b509050620008ad919062000903565b5090565b828054828255906000526020600020908101928215620008f0579160200282015b82811115620008ef578251825591602001919060010190620008d2565b5b509050620008ff919062000903565b5090565b5b808211156200091e57600081600090555060010162000904565b5090565b6000604051905090565b600080fd5b600080fd5b600080fd5b600080fd5b6000601f19601f8301169050919050565b7f4e487b7100000000000000000000000000000000000000000000000000000000600052604160045260246000fd5b6200098b8262000940565b810181811067ffffffffffffffff82111715620009ad57620009ac62000951565b5b80604052505050565b6000620009c262000922565b9050620009d0828262000980565b919050565b600067ffffffffffffffff821115620009f357620009f262000951565b5b620009fe8262000940565b9050602081019050919050565b60005b8381101562000a2b57808201518184015260208101905062000a0e565b60008484015250505050565b600062000a4e62000a4884620009d5565b620009b6565b90508281526020810184848401111562000a6d5762000a6c6200093b565b5b62000a7a84828562000a0b565b509392505050565b600082601f83011262000a9a5762000a9962000936565b5b815162000aac84826020860162000a37565b91505092915050565b60006020828403121562000ace5762000acd6200092c565b5b600082015167ffffffffffffffff81111562000aef5762000aee62000931565b5b62000afd8482850162000a82565b91505092915050565b7f4e487b7100000000000000000000000000000000000000000000000000000000600052603260045260246000fd5b600081519050919050565b7f4e487b7100000000000000000000000000000000000000000000000000000000600052602260045260246000fd5b6000600282049050600182168062000b8857607f821691505b60208210810362000b9e5762000b9d62000b40565b5b50919050565b60008190508160005260206000209050919050565b60006020601f8301049050919050565b600082821b905092915050565b60006008830262000c087fffffffffffffffffffffffffffffffffffffffffffffffffffffffffffffffff8262000bc9565b62000c14868362000bc9565b95508019841693508086168417925050509392505050565b6000819050919050565b6000819050919050565b600062000c6162000c5b62000c558462000c2c565b62000c36565b62000c2c565b9050919050565b6000819050919050565b62000c7d8362000c40565b62000c9562000c8c8262000c68565b84845462000bd6565b825550505050565b600090565b62000cac62000c9d565b62000cb981848462000c72565b505050565b5b8181101562000ce15762000cd560008262000ca2565b60018101905062000cbf565b5050565b601f82111562000d305762000cfa8162000ba4565b62000d058462000bb9565b8101602085101562000d15578190505b62000d2d62000d248562000bb9565b83018262000cbe565b50505b505050565b600082821c905092915050565b600062000d556000198460080262000d35565b1980831691505092915050565b600062000d70838362000d42565b9150826002028217905092915050565b62000d8b8262000b35565b67ffffffffffffffff81111562000da75762000da662000951565b5b62000db3825462000b6f565b62000dc082828562000ce5565b600060209050601f83116001811462000df8576000841562000de3578287015190505b62000def858262000d62565b86555062000e5f565b601f19841662000e088662000ba4565b60005b8281101562000e325784890151825560018201915060208501945060208101905062000e0b565b8683101562000e52578489015162000e4e601f89168262000d42565b8355505b6001600288020188555050505b505050505050565b600081519050919050565b60008190508160005260206000209050919050565b601f82111562000ed25762000e9c8162000e72565b62000ea78462000bb9565b8101602085101562000eb7578190505b62000ecf62000ec68562000bb9565b83018262000cbe565b50505b505050565b62000ee28262000e67565b67ffffffffffffffff81111562000efe5762000efd62000951565b5b62000f0a825462000b6f565b62000f1782828562000e87565b600060209050601f83116001811462000f4f576000841562000f3a578287015190505b62000f46858262000d62565b86555062000fb6565b601f19841662000f5f8662000e72565b60005b8281101562000f895784890151825560018201915060208501945060208101905062000f62565b8683101562000fa9578489015162000fa5601f89168262000d42565b8355505b6001600288020188555050505b505050505050565b600081905092915050565b6000815462000fd88162000b6f565b62000fe4818662000fbe565b9450600182166000811462001002576001811462001018576200104f565b60ff19831686528115158202860193506200104f565b620010238562000e72565b60005b83811015620010475781548189015260018201915060208101905062001026565b838801955050505b50505092915050565b600062001066828462000fc9565b915081905092915050565b610fbb80620010816000396000f3fe608060405234801561001057600080fd5b50600436106101165760003560e01c806382775dfb116100a25780639f1939cf116100715780639f1939cf14610332578063d3f4e60214610362578063d41e007014610380578063ee495002146103b0578063f6baafa5146103ce57610116565b806382775dfb1461029557806386b714e2146102c5578063881374d7146102e457806394bf07591461031457610116565b8063376a2b69116100e9578063376a2b69146101c95780634356af48146101f95780636bc35c3d146102295780636cc014de14610259578063767800de1461027757610116565b8063089c10091461011b578063127a65971461014b578063304349f31461017b57806335afaa4c14610199575b600080fd5b61013560048036038101906101309190610830565b6103fe565b604051610142919061089e565b60405180910390f35b610165600480360381019061016091906108ef565b610431565b6040516101729190610937565b60405180910390f35b610183610451565b6040516101909190610937565b60405180910390f35b6101b360048036038101906101ae9190610a98565b610464565b6040516101c09190610b0d565b60405180910390f35b6101e360048036038101906101de9190610b54565b61049e565b6040516101f09190610937565b60405180910390f35b610213600480360381019061020e9190610b94565b6104cd565b6040516102209190610937565b60405180910390f35b610243600480360381019061023e91906108ef565b610503565b6040516102509190610b0d565b60405180910390f35b610261610533565b60405161026e9190610c5c565b60405180910390f35b61027f6105c1565b60405161028c919061089e565b60405180910390f35b6102af60048036038101906102aa9190610c7e565b6105e7565b6040516102bc9190610b0d565b60405180910390f35b6102cd61061a565b6040516102db929190610ce9565b60405180910390f35b6102fe60048036038101906102f99190610d12565b610664565b60405161030b9190610b0d565b60405180910390f35b61031c610697565b6040516103299190610937565b60405180910390f35b61034c60048036038101906103479190610c7e565b6106aa565b6040516103599190610da7565b60405180910390f35b61036a6106d6565b6040516103779190610937565b60405180910390f35b61039a60048036038101906103959190610d12565b6106e9565b6040516103a79190610b0d565b60405180910390f35b6103b861072b565b6040516103c59190610da7565b60405180910390f35b6103e860048036038101906103e391906108ef565b6107b9565b6040516103f59190610b0d565b60405180910390f35b60146020528060005260406000206000915054906101000a900473ffffffffffffffffffffffffffffffffffffffff1681565b60116020528060005260406000206000915054906101000a900460ff1681565b601360019054906101000a900460ff1681565b6000818051906020012083604051602001610480929190610e0b565b60405160208183030381529060405280519060200120905092915050565b600e6020528160005260406000206020528060005260406000206000915091509054906101000a900460ff1681565b6012818051602081018201805184825260208301602085012081835280955050505050506000915054906101000a900460ff1681565b6000816040516020016105169190610e37565b604051602081830303815290604052805190602001209050919050565b600f805461054090610e81565b80601f016020809104026020016040519081016040528092919081815260200182805461056c90610e81565b80156105b95780601f1061058e576101008083540402835291602001916105b9565b820191906000526020600020905b81548152906001019060200180831161059c57829003601f168201915b505050505081565b600d60009054906101000a900473ffffffffffffffffffffffffffffffffffffffff1681565b600081836040516020016105fc929190610ed0565b60405160208183030381529060405280519060200120905092915050565b60098060000160009054906101000a90046fffffffffffffffffffffffffffffffff16908060000160109054906101000a90046fffffffffffffffffffffffffffffffff16905082565b60008183604051602001610679929190610ef9565b60405160208183030381529060405280519060200120905092915050565b601360029054906101000a900460ff1681565b606081836040516020016106bf929190610ed0565b604051602081830303815290604052905092915050565b601360009054906101000a900460ff1681565b600081836040516020016106fd9190610e37565b6040516020818303038152906040528051906020012060001c6107209190610f51565b60001b905092915050565b6010805461073890610e81565b80601f016020809104026020016040519081016040528092919081815260200182805461076490610e81565b80156107b15780601f10610786576101008083540402835291602001916107b1565b820191906000526020600020905b81548152906001019060200180831161079457829003601f168201915b505050505081565b600081549050919050565b6000604051905090565b600080fd5b600080fd5b60007fffffffff0000000000000000000000000000000000000000000000000000000082169050919050565b61080d816107d8565b811461081857600080fd5b50565b60008135905061082a81610804565b92915050565b600060208284031215610846576108456107ce565b5b60006108548482850161081b565b91505092915050565b600073ffffffffffffffffffffffffffffffffffffffff82169050919050565b60006108888261085d565b9050919050565b6108988161087d565b82525050565b60006020820190506108b3600083018461088f565b92915050565b6000819050919050565b6108cc816108b9565b81146108d757600080fd5b50565b6000813590506108e9816108c3565b92915050565b600060208284031215610905576109046107ce565b5b6000610913848285016108da565b91505092915050565b60008115159050919050565b6109318161091c565b82525050565b600060208201905061094c6000830184610928565b92915050565b600080fd5b600080fd5b6000601f19601f8301169050919050565b7f4e487b7100000000000000000000000000000000000000000000000000000000600052604160045260246000fd5b6109a58261095c565b810181811067ffffffffffffffff821117156109c4576109c361096d565b5b80604052505050565b60006109d76107c4565b90506109e3828261099c565b919050565b600067ffffffffffffffff821115610a0357610a0261096d565b5b610a0c8261095c565b9050602081019050919050565b82818337600083830152505050565b6000610a3b610a36846109e8565b6109cd565b905082815260208101848484011115610a5757610a56610957565b5b610a62848285610a19565b509392505050565b600082601f830112610a7f57610a7e610952565b5b8135610a8f848260208601610a28565b91505092915050565b60008060408385031215610aaf57610aae6107ce565b5b6000610abd858286016108da565b925050602083013567ffffffffffffffff811115610ade57610add6107d3565b5b610aea85828601610a6a565b9150509250929050565b6000819050919050565b610b0781610af4565b82525050565b6000602082019050610b226000830184610afe565b92915050565b610b318161087d565b8114610b3c57600080fd5b50565b600081359050610b4e81610b28565b92915050565b60008060408385031215610b6b57610b6a6107ce565b5b6000610b79858286016108da565b9250506020610b8a85828601610b3f565b9150509250929050565b600060208284031215610baa57610ba96107ce565b5b600082013567ffffffffffffffff811115610bc857610bc76107d3565b5b610bd484828501610a6a565b91505092915050565b600081519050919050565b600082825260208201905092915050565b60005b83811015610c17578082015181840152602081019050610bfc565b60008484015250505050565b6000610c2e82610bdd565b610c388185610be8565b9350610c48818560208601610bf9565b610c518161095c565b840191505092915050565b60006020820190508181036000830152610c768184610c23565b905092915050565b60008060408385031215610c9557610c946107ce565b5b6000610ca3858286016108da565b9250506020610cb48582860161081b565b9150509250929050565b60006fffffffffffffffffffffffffffffffff82169050919050565b610ce381610cbe565b82525050565b6000604082019050610cfe6000830185610cda565b610d0b6020830184610cda565b9392505050565b60008060408385031215610d2957610d286107ce565b5b6000610d37858286016108da565b9250506020610d48858286016108da565b9150509250929050565b600081519050919050565b600082825260208201905092915050565b6000610d7982610d52565b610d838185610d5d565b9350610d93818560208601610bf9565b610d9c8161095c565b840191505092915050565b60006020820190508181036000830152610dc18184610d6e565b905092915050565b6000819050919050565b610de4610ddf82610af4565b610dc9565b82525050565b6000819050919050565b610e05610e00826108b9565b610dea565b82525050565b6000610e178285610dd3565b602082019150610e278284610df4565b6020820191508190509392505050565b6000610e438284610df4565b60208201915081905092915050565b7f4e487b7100000000000000000000000000000000000000000000000000000000600052602260045260246000fd5b60006002820490506001821680610e9957607f821691505b602082108103610eac57610eab610e52565b5b50919050565b610ebb816107d8565b82525050565b610eca816108b9565b82525050565b6000604082019050610ee56000830185610eb2565b610ef26020830184610ec1565b9392505050565b6000604082019050610f0e6000830185610ec1565b610f1b6020830184610ec1565b9392505050565b7f4e487b7100000000000000000000000000000000000000000000000000000000600052601160045260246000fd5b6000610f5c826108b9565b9150610f67836108b9565b9250828201905080821115610f7f57610f7e610f22565b5b9291505056fea264697066735822122058f7e41fd2ae50cf9c05cdc7b99adba0f663559a2fa204804d4573d448e9fb4064736f6c63430008130033",
					"opcodes": "PUSH1 0x80 PUSH1 0x40 MSTORE PUSH1 0x1 PUSH1 0x0 SSTORE PUSH1 0x2 PUSH1 0x1 PUSH1 0x0 PUSH2 0x100 EXP DUP2 SLOAD DUP2 PUSH16 0xFFFFFFFFFFFFFFFFFFFFFFFFFFFFFFFF MUL NOT AND SWAP1 DUP4 PUSH16 0xFFFFFFFFFFFFFFFFFFFFFFFFFFFFFFFF AND MUL OR SWAP1 SSTORE POP PUSH1 0x3 PUSH1 0x1 PUSH1 0x10 PUSH2 0x100 EXP DUP2 SLOAD DUP2 PUSH16 0xFFFFFFFFFFFFFFFFFFFFFFFFFFFFFFFF MUL NOT AND SWAP1 DUP4 PUSH16 0xFFFFFFFFFFFFFFFFFFFFFFFFFFFFFFFF AND MUL OR SWAP1 SSTORE POP PUSH1 0x4 PUSH1 0x2 SSTORE PUSH1 0x5 PUSH1 0x3 SSTORE CALLVALUE DUP1 ISZERO PUSH3 0x94 JUMPI PUSH1 0x0 DUP1 REVERT JUMPDEST POP PUSH1 0x40 MLOAD PUSH3 0x203C CODESIZE SUB DUP1 PUSH3 0x203C DUP4 CODECOPY DUP2 DUP2 ADD PUSH1 0x40 MSTORE DUP2 ADD SWAP1 PUSH3 0xBA SWAP2 SWAP1 PUSH3 0xAB5 JUMP JUMPDEST PUSH1 0x6 PUSH1 0x4 DUP2 SWAP1 SSTORE POP PUSH1 0x7 PUSH1 0x5 PUSH1 0x0 PUSH2 0x100 EXP DUP2 SLOAD DUP2 PUSH1 0xFF MUL NOT AND SWAP1 DUP4 PUSH1 0xFF AND MUL OR SWAP1 SSTORE POP PUSH1 0x8 PUSH1 0x5 PUSH1 0x1 PUSH2 0x100 EXP DUP2 SLOAD DUP2 PUSH2 0xFFFF MUL NOT AND SWAP1 DUP4 PUSH2 0xFFFF AND MUL OR SWAP1 SSTORE POP PUSH1 0x40 MLOAD DUP1 PUSH1 0x40 ADD PUSH1 0x40 MSTORE DUP1 PUSH1 0x9 DUP2 MSTORE PUSH1 0x20 ADD PUSH1 0xA DUP2 MSTORE POP PUSH1 0x6 SWAP1 PUSH1 0x2 PUSH3 0x125 SWAP3 SWAP2 SWAP1 PUSH3 0x791 JUMP JUMPDEST POP PUSH1 0x3 PUSH8 0xFFFFFFFFFFFFFFFF DUP2 GT ISZERO PUSH3 0x144 JUMPI PUSH3 0x143 PUSH3 0x951 JUMP JUMPDEST JUMPDEST PUSH1 0x40 MLOAD SWAP1 DUP1 DUP3 MSTORE DUP1 PUSH1 0x20 MUL PUSH1 0x20 ADD DUP3 ADD PUSH1 0x40 MSTORE DUP1 ISZERO PUSH3 0x173 JUMPI DUP2 PUSH1 0x20 ADD PUSH1 0x20 DUP3 MUL DUP1 CALLDATASIZE DUP4 CALLDATACOPY DUP1 DUP3 ADD SWAP2 POP POP SWAP1 POP JUMPDEST POP PUSH1 0x8 SWAP1 DUP1 MLOAD SWAP1 PUSH1 0x20 ADD SWAP1 PUSH3 0x18B SWAP3 SWAP2 SWAP1 PUSH3 0x7D6 JUMP JUMPDEST POP PUSH1 0xB PUSH1 0x8 PUSH1 0x0 DUP2 SLOAD DUP2 LT PUSH3 0x1A6 JUMPI PUSH3 0x1A5 PUSH3 0xB06 JUMP JUMPDEST JUMPDEST SWAP1 PUSH1 0x0 MSTORE PUSH1 0x20 PUSH1 0x0 KECCAK256 SWAP1 PUSH1 0x2 SWAP2 DUP3 DUP3 DIV ADD SWAP2 SWAP1 MOD PUSH1 0x10 MUL PUSH2 0x100 EXP DUP2 SLOAD DUP2 PUSH16 0xFFFFFFFFFFFFFFFFFFFFFFFFFFFFFFFF MUL NOT AND SWAP1 DUP4 PUSH16 0xFFFFFFFFFFFFFFFFFFFFFFFFFFFFFFFF AND MUL OR SWAP1 SSTORE POP PUSH1 0xC PUSH1 0x8 PUSH1 0x1 DUP2 SLOAD DUP2 LT PUSH3 0x20B JUMPI PUSH3 0x20A PUSH3 0xB06 JUMP JUMPDEST JUMPDEST SWAP1 PUSH1 0x0 MSTORE PUSH1 0x20 PUSH1 0x0 KECCAK256 SWAP1 PUSH1 0x2 SWAP2 DUP3 DUP3 DIV ADD SWAP2 SWAP1 MOD PUSH1 0x10 MUL PUSH2 0x100 EXP DUP2 SLOAD DUP2 PUSH16 0xFFFFFFFFFFFFFFFFFFFFFFFFFFFFFFFF MUL NOT AND SWAP1 DUP4 PUSH16 0xFFFFFFFFFFFFFFFFFFFFFFFFFFFFFFFF AND MUL OR SWAP1 SSTORE POP PUSH1 0xD PUSH1 0x8 PUSH1 0x2 DUP2 SLOAD DUP2 LT PUSH3 0x270 JUMPI PUSH3 0x26F PUSH3 0xB06 JUMP JUMPDEST JUMPDEST SWAP1 PUSH1 0x0 MSTORE PUSH1 0x20 PUSH1 0x0 KECCAK256 SWAP1 PUSH1 0x2 SWAP2 DUP3 DUP3 DIV ADD SWAP2 SWAP1 MOD PUSH1 0x10 MUL PUSH2 0x100 EXP DUP2 SLOAD DUP2 PUSH16 0xFFFFFFFFFFFFFFFFFFFFFFFFFFFFFFFF MUL NOT AND SWAP1 DUP4 PUSH16 0xFFFFFFFFFFFFFFFFFFFFFFFFFFFFFFFF AND MUL OR SWAP1 SSTORE POP PUSH1 0x40 MLOAD DUP1 PUSH1 0x80 ADD PUSH1 0x40 MSTORE DUP1 PUSH1 0xE PUSH16 0xFFFFFFFFFFFFFFFFFFFFFFFFFFFFFFFF AND DUP2 MSTORE PUSH1 0x20 ADD PUSH1 0xF PUSH16 0xFFFFFFFFFFFFFFFFFFFFFFFFFFFFFFFF AND DUP2 MSTORE PUSH1 0x20 ADD PUSH1 0x40 MLOAD DUP1 PUSH1 0x40 ADD PUSH1 0x40 MSTORE DUP1 PUSH1 0x10 DUP2 MSTORE PUSH1 0x20 ADD PUSH1 0x11 DUP2 MSTORE POP DUP2 MSTORE PUSH1 0x20 ADD PUSH1 0x3 PUSH8 0xFFFFFFFFFFFFFFFF DUP2 GT ISZERO PUSH3 0x332 JUMPI PUSH3 0x331 PUSH3 0x951 JUMP JUMPDEST JUMPDEST PUSH1 0x40 MLOAD SWAP1 DUP1 DUP3 MSTORE DUP1 PUSH1 0x20 MUL PUSH1 0x20 ADD DUP3 ADD PUSH1 0x40 MSTORE DUP1 ISZERO PUSH3 0x361 JUMPI DUP2 PUSH1 0x20 ADD PUSH1 0x20 DUP3 MUL DUP1 CALLDATASIZE DUP4 CALLDATACOPY DUP1 DUP3 ADD SWAP2 POP POP SWAP1 POP JUMPDEST POP DUP2 MSTORE POP PUSH1 0x9 PUSH1 0x0 DUP3 ADD MLOAD DUP2 PUSH1 0x0 ADD PUSH1 0x0 PUSH2 0x100 EXP DUP2 SLOAD DUP2 PUSH16 0xFFFFFFFFFFFFFFFFFFFFFFFFFFFFFFFF MUL NOT AND SWAP1 DUP4 PUSH16 0xFFFFFFFFFFFFFFFFFFFFFFFFFFFFFFFF AND MUL OR SWAP1 SSTORE POP PUSH1 0x20 DUP3 ADD MLOAD DUP2 PUSH1 0x0 ADD PUSH1 0x10 PUSH2 0x100 EXP DUP2 SLOAD DUP2 PUSH16 0xFFFFFFFFFFFFFFFFFFFFFFFFFFFFFFFF MUL NOT AND SWAP1 DUP4 PUSH16 0xFFFFFFFFFFFFFFFFFFFFFFFFFFFFFFFF AND MUL OR SWAP1 SSTORE POP PUSH1 0x40 DUP3 ADD MLOAD DUP2 PUSH1 0x1 ADD SWAP1 PUSH1 0x2 PUSH3 0x3FE SWAP3 SWAP2 SWAP1 PUSH3 0x791 JUMP JUMPDEST POP PUSH1 0x60 DUP3 ADD MLOAD DUP2 PUSH1 0x3 ADD SWAP1 DUP1 MLOAD SWAP1 PUSH1 0x20 ADD SWAP1 PUSH3 0x41D SWAP3 SWAP2 SWAP1 PUSH3 0x8B1 JUMP JUMPDEST POP SWAP1 POP POP PUSH1 0x12 PUSH1 0x9 PUSH1 0x3 ADD PUSH1 0x0 DUP2 SLOAD DUP2 LT PUSH3 0x43E JUMPI PUSH3 0x43D PUSH3 0xB06 JUMP JUMPDEST JUMPDEST SWAP1 PUSH1 0x0 MSTORE PUSH1 0x20 PUSH1 0x0 KECCAK256 ADD DUP2 SWAP1 SSTORE POP PUSH1 0x13 PUSH1 0x9 PUSH1 0x3 ADD PUSH1 0x1 DUP2 SLOAD DUP2 LT PUSH3 0x469 JUMPI PUSH3 0x468 PUSH3 0xB06 JUMP JUMPDEST JUMPDEST SWAP1 PUSH1 0x0 MSTORE PUSH1 0x20 PUSH1 0x0 KECCAK256 ADD DUP2 SWAP1 SSTORE POP PUSH1 0x14 PUSH1 0x9 PUSH1 0x3 ADD PUSH1 0x2 DUP2 SLOAD DUP2 LT PUSH3 0x494 JUMPI PUSH3 0x493 PUSH3 0xB06 JUMP JUMPDEST JUMPDEST SWAP1 PUSH1 0x0 MSTORE PUSH1 0x20 PUSH1 0x0 KECCAK256 ADD DUP2 SWAP1 SSTORE POP CALLER PUSH1 0xD PUSH1 0x0 PUSH2 0x100 EXP DUP2 SLOAD DUP2 PUSH20 0xFFFFFFFFFFFFFFFFFFFFFFFFFFFFFFFFFFFFFFFF MUL NOT AND SWAP1 DUP4 PUSH20 0xFFFFFFFFFFFFFFFFFFFFFFFFFFFFFFFFFFFFFFFF AND MUL OR SWAP1 SSTORE POP PUSH1 0x1 PUSH1 0xE PUSH1 0x0 DUP1 DUP2 MSTORE PUSH1 0x20 ADD SWAP1 DUP2 MSTORE PUSH1 0x20 ADD PUSH1 0x0 KECCAK256 PUSH1 0x0 CALLER PUSH20 0xFFFFFFFFFFFFFFFFFFFFFFFFFFFFFFFFFFFFFFFF AND PUSH20 0xFFFFFFFFFFFFFFFFFFFFFFFFFFFFFFFFFFFFFFFF AND DUP2 MSTORE PUSH1 0x20 ADD SWAP1 DUP2 MSTORE PUSH1 0x20 ADD PUSH1 0x0 KECCAK256 PUSH1 0x0 PUSH2 0x100 EXP DUP2 SLOAD DUP2 PUSH1 0xFF MUL NOT AND SWAP1 DUP4 ISZERO ISZERO MUL OR SWAP1 SSTORE POP PUSH1 0x1 PUSH1 0xE PUSH1 0x0 PUSH1 0x3 DUP2 MSTORE PUSH1 0x20 ADD SWAP1 DUP2 MSTORE PUSH1 0x20 ADD PUSH1 0x0 KECCAK256 PUSH1 0x0 CALLER PUSH20 0xFFFFFFFFFFFFFFFFFFFFFFFFFFFFFFFFFFFFFFFF AND PUSH20 0xFFFFFFFFFFFFFFFFFFFFFFFFFFFFFFFFFFFFFFFF AND DUP2 MSTORE PUSH1 0x20 ADD SWAP1 DUP2 MSTORE PUSH1 0x20 ADD PUSH1 0x0 KECCAK256 PUSH1 0x0 PUSH2 0x100 EXP DUP2 SLOAD DUP2 PUSH1 0xFF MUL NOT AND SWAP1 DUP4 ISZERO ISZERO MUL OR SWAP1 SSTORE POP PUSH1 0x40 MLOAD DUP1 PUSH1 0x40 ADD PUSH1 0x40 MSTORE DUP1 PUSH1 0x5 DUP2 MSTORE PUSH1 0x20 ADD PUSH32 0x68656C6C6F000000000000000000000000000000000000000000000000000000 DUP2 MSTORE POP PUSH1 0xF SWAP1 DUP2 PUSH3 0x5FC SWAP2 SWAP1 PUSH3 0xD80 JUMP JUMPDEST POP DUP1 PUSH1 0x10 SWAP1 DUP2 PUSH3 0x60E SWAP2 SWAP1 PUSH3 0xED7 JUMP JUMPDEST POP PUSH1 0x1 PUSH1 0x11 PUSH1 0x0 DUP1 DUP2 MSTORE PUSH1 0x20 ADD SWAP1 DUP2 MSTORE PUSH1 0x20 ADD PUSH1 0x0 KECCAK256 PUSH1 0x0 PUSH2 0x100 EXP DUP2 SLOAD DUP2 PUSH1 0xFF MUL NOT AND SWAP1 DUP4 ISZERO ISZERO MUL OR SWAP1 SSTORE POP PUSH1 0x1 PUSH1 0x11 PUSH1 0x0 PUSH1 0x4 DUP2 MSTORE PUSH1 0x20 ADD SWAP1 DUP2 MSTORE PUSH1 0x20 ADD PUSH1 0x0 KECCAK256 PUSH1 0x0 PUSH2 0x100 EXP DUP2 SLOAD DUP2 PUSH1 0xFF MUL NOT AND SWAP1 DUP4 ISZERO ISZERO MUL OR SWAP1 SSTORE POP PUSH1 0x1 PUSH1 0x12 PUSH1 0x10 PUSH1 0x40 MLOAD PUSH3 0x67D SWAP2 SWAP1 PUSH3 0x1058 JUMP JUMPDEST SWAP1 DUP2 MSTORE PUSH1 0x20 ADD PUSH1 0x40 MLOAD DUP1 SWAP2 SUB SWAP1 KECCAK256 PUSH1 0x0 PUSH2 0x100 EXP DUP2 SLOAD DUP2 PUSH1 0xFF MUL NOT AND SWAP1 DUP4 ISZERO ISZERO MUL OR SWAP1 SSTORE POP PUSH1 0x1 PUSH1 0x13 PUSH1 0x0 PUSH2 0x100 EXP DUP2 SLOAD DUP2 PUSH1 0xFF MUL NOT AND SWAP1 DUP4 ISZERO ISZERO MUL OR SWAP1 SSTORE POP PUSH1 0x0 PUSH1 0x13 PUSH1 0x1 PUSH2 0x100 EXP DUP2 SLOAD DUP2 PUSH1 0xFF MUL NOT AND SWAP1 DUP4 ISZERO ISZERO MUL OR SWAP1 SSTORE POP PUSH1 0x1 PUSH1 0x13 PUSH1 0x2 PUSH2 0x100 EXP DUP2 SLOAD DUP2 PUSH1 0xFF MUL NOT AND SWAP1 DUP4 ISZERO ISZERO MUL OR SWAP1 SSTORE POP CALLER PUSH1 0x14 PUSH1 0x0 PUSH4 0x6AF479B2 PUSH1 0xE0 SHL PUSH28 0xFFFFFFFFFFFFFFFFFFFFFFFFFFFFFFFFFFFFFFFFFFFFFFFFFFFFFFFF NOT AND PUSH28 0xFFFFFFFFFFFFFFFFFFFFFFFFFFFFFFFFFFFFFFFFFFFFFFFFFFFFFFFF NOT AND DUP2 MSTORE PUSH1 0x20 ADD SWAP1 DUP2 MSTORE PUSH1 0x20 ADD PUSH1 0x0 KECCAK256 PUSH1 0x0 PUSH2 0x100 EXP DUP2 SLOAD DUP2 PUSH20 0xFFFFFFFFFFFFFFFFFFFFFFFFFFFFFFFFFFFFFFFF MUL NOT AND SWAP1 DUP4 PUSH20 0xFFFFFFFFFFFFFFFFFFFFFFFFFFFFFFFFFFFFFFFF AND MUL OR SWAP1 SSTORE POP POP PUSH3 0x1071 JUMP JUMPDEST DUP3 PUSH1 0x2 DUP2 ADD SWAP3 DUP3 ISZERO PUSH3 0x7C3 JUMPI SWAP2 PUSH1 0x20 MUL DUP3 ADD JUMPDEST DUP3 DUP2 GT ISZERO PUSH3 0x7C2 JUMPI DUP3 MLOAD DUP3 SSTORE SWAP2 PUSH1 0x20 ADD SWAP2 SWAP1 PUSH1 0x1 ADD SWAP1 PUSH3 0x7A5 JUMP JUMPDEST JUMPDEST POP SWAP1 POP PUSH3 0x7D2 SWAP2 SWAP1 PUSH3 0x903 JUMP JUMPDEST POP SWAP1 JUMP JUMPDEST DUP3 DUP1 SLOAD DUP3 DUP3 SSTORE SWAP1 PUSH1 0x0 MSTORE PUSH1 0x20 PUSH1 0x0 KECCAK256 SWAP1 PUSH1 0x1 ADD PUSH1 0x2 SWAP1 DIV DUP2 ADD SWAP3 DUP3 ISZERO PUSH3 0x89E JUMPI SWAP2 PUSH1 0x20 MUL DUP3 ADD PUSH1 0x0 JUMPDEST DUP4 DUP3 GT ISZERO PUSH3 0x85E JUMPI DUP4 MLOAD DUP4 DUP3 PUSH2 0x100 EXP DUP2 SLOAD DUP2 PUSH16 0xFFFFFFFFFFFFFFFFFFFFFFFFFFFFFFFF MUL NOT AND SWAP1 DUP4 PUSH16 0xFFFFFFFFFFFFFFFFFFFFFFFFFFFFFFFF AND MUL OR SWAP1 SSTORE POP SWAP3 PUSH1 0x20 ADD SWAP3 PUSH1 0x10 ADD PUSH1 0x20 DUP2 PUSH1 0xF ADD DIV SWAP3 DUP4 ADD SWAP3 PUSH1 0x1 SUB MUL PUSH3 0x800 JUMP JUMPDEST DUP1 ISZERO PUSH3 0x89C JUMPI DUP3 DUP2 PUSH2 0x100 EXP DUP2 SLOAD SWAP1 PUSH16 0xFFFFFFFFFFFFFFFFFFFFFFFFFFFFFFFF MUL NOT AND SWAP1 SSTORE PUSH1 0x10 ADD PUSH1 0x20 DUP2 PUSH1 0xF ADD DIV SWAP3 DUP4 ADD SWAP3 PUSH1 0x1 SUB MUL PUSH3 0x85E JUMP JUMPDEST POP JUMPDEST POP SWAP1 POP PUSH3 0x8AD SWAP2 SWAP1 PUSH3 0x903 JUMP JUMPDEST POP SWAP1 JUMP JUMPDEST DUP3 DUP1 SLOAD DUP3 DUP3 SSTORE SWAP1 PUSH1 0x0 MSTORE PUSH1 0x20 PUSH1 0x0 KECCAK256 SWAP1 DUP2 ADD SWAP3 DUP3 ISZERO PUSH3 0x8F0 JUMPI SWAP2 PUSH1 0x20 MUL DUP3 ADD JUMPDEST DUP3 DUP2 GT ISZERO PUSH3 0x8EF JUMPI DUP3 MLOAD DUP3 SSTORE SWAP2 PUSH1 0x20 ADD SWAP2 SWAP1 PUSH1 0x1 ADD SWAP1 PUSH3 0x8D2 JUMP JUMPDEST JUMPDEST POP SWAP1 POP PUSH3 0x8FF SWAP2 SWAP1 PUSH3 0x903 JUMP JUMPDEST POP SWAP1 JUMP JUMPDEST JUMPDEST DUP1 DUP3 GT ISZERO PUSH3 0x91E JUMPI PUSH1 0x0 DUP2 PUSH1 0x0 SWAP1 SSTORE POP PUSH1 0x1 ADD PUSH3 0x904 JUMP JUMPDEST POP SWAP1 JUMP JUMPDEST PUSH1 0x0 PUSH1 0x40 MLOAD SWAP1 POP SWAP1 JUMP JUMPDEST PUSH1 0x0 DUP1 REVERT JUMPDEST PUSH1 0x0 DUP1 REVERT JUMPDEST PUSH1 0x0 DUP1 REVERT JUMPDEST PUSH1 0x0 DUP1 REVERT JUMPDEST PUSH1 0x0 PUSH1 0x1F NOT PUSH1 0x1F DUP4 ADD AND SWAP1 POP SWAP2 SWAP1 POP JUMP JUMPDEST PUSH32 0x4E487B7100000000000000000000000000000000000000000000000000000000 PUSH1 0x0 MSTORE PUSH1 0x41 PUSH1 0x4 MSTORE PUSH1 0x24 PUSH1 0x0 REVERT JUMPDEST PUSH3 0x98B DUP3 PUSH3 0x940 JUMP JUMPDEST DUP2 ADD DUP2 DUP2 LT PUSH8 0xFFFFFFFFFFFFFFFF DUP3 GT OR ISZERO PUSH3 0x9AD JUMPI PUSH3 0x9AC PUSH3 0x951 JUMP JUMPDEST JUMPDEST DUP1 PUSH1 0x40 MSTORE POP POP POP JUMP JUMPDEST PUSH1 0x0 PUSH3 0x9C2 PUSH3 0x922 JUMP JUMPDEST SWAP1 POP PUSH3 0x9D0 DUP3 DUP3 PUSH3 0x980 JUMP JUMPDEST SWAP2 SWAP1 POP JUMP JUMPDEST PUSH1 0x0 PUSH8 0xFFFFFFFFFFFFFFFF DUP3 GT ISZERO PUSH3 0x9F3 JUMPI PUSH3 0x9F2 PUSH3 0x951 JUMP JUMPDEST JUMPDEST PUSH3 0x9FE DUP3 PUSH3 0x940 JUMP JUMPDEST SWAP1 POP PUSH1 0x20 DUP2 ADD SWAP1 POP SWAP2 SWAP1 POP JUMP JUMPDEST PUSH1 0x0 JUMPDEST DUP4 DUP2 LT ISZERO PUSH3 0xA2B JUMPI DUP1 DUP3 ADD MLOAD DUP2 DUP5 ADD MSTORE PUSH1 0x20 DUP2 ADD SWAP1 POP PUSH3 0xA0E JUMP JUMPDEST PUSH1 0x0 DUP5 DUP5 ADD MSTORE POP POP POP POP JUMP JUMPDEST PUSH1 0x0 PUSH3 0xA4E PUSH3 0xA48 DUP5 PUSH3 0x9D5 JUMP JUMPDEST PUSH3 0x9B6 JUMP JUMPDEST SWAP1 POP DUP3 DUP2 MSTORE PUSH1 0x20 DUP2 ADD DUP5 DUP5 DUP5 ADD GT ISZERO PUSH3 0xA6D JUMPI PUSH3 0xA6C PUSH3 0x93B JUMP JUMPDEST JUMPDEST PUSH3 0xA7A DUP5 DUP3 DUP6 PUSH3 0xA0B JUMP JUMPDEST POP SWAP4 SWAP3 POP POP POP JUMP JUMPDEST PUSH1 0x0 DUP3 PUSH1 0x1F DUP4 ADD SLT PUSH3 0xA9A JUMPI PUSH3 0xA99 PUSH3 0x936 JUMP JUMPDEST JUMPDEST DUP2 MLOAD PUSH3 0xAAC DUP5 DUP3 PUSH1 0x20 DUP7 ADD PUSH3 0xA37 JUMP JUMPDEST SWAP2 POP POP SWAP3 SWAP2 POP POP JUMP JUMPDEST PUSH1 0x0 PUSH1 0x20 DUP3 DUP5 SUB SLT ISZERO PUSH3 0xACE JUMPI PUSH3 0xACD PUSH3 0x92C JUMP JUMPDEST JUMPDEST PUSH1 0x0 DUP3 ADD MLOAD PUSH8 0xFFFFFFFFFFFFFFFF DUP2 GT ISZERO PUSH3 0xAEF JUMPI PUSH3 0xAEE PUSH3 0x931 JUMP JUMPDEST JUMPDEST PUSH3 0xAFD DUP5 DUP3 DUP6 ADD PUSH3 0xA82 JUMP JUMPDEST SWAP2 POP POP SWAP3 SWAP2 POP POP JUMP JUMPDEST PUSH32 0x4E487B7100000000000000000000000000000000000000000000000000000000 PUSH1 0x0 MSTORE PUSH1 0x32 PUSH1 0x4 MSTORE PUSH1 0x24 PUSH1 0x0 REVERT JUMPDEST PUSH1 0x0 DUP2 MLOAD SWAP1 POP SWAP2 SWAP1 POP JUMP JUMPDEST PUSH32 0x4E487B7100000000000000000000000000000000000000000000000000000000 PUSH1 0x0 MSTORE PUSH1 0x22 PUSH1 0x4 MSTORE PUSH1 0x24 PUSH1 0x0 REVERT JUMPDEST PUSH1 0x0 PUSH1 0x2 DUP3 DIV SWAP1 POP PUSH1 0x1 DUP3 AND DUP1 PUSH3 0xB88 JUMPI PUSH1 0x7F DUP3 AND SWAP2 POP JUMPDEST PUSH1 0x20 DUP3 LT DUP2 SUB PUSH3 0xB9E JUMPI PUSH3 0xB9D PUSH3 0xB40 JUMP JUMPDEST JUMPDEST POP SWAP2 SWAP1 POP JUMP JUMPDEST PUSH1 0x0 DUP2 SWAP1 POP DUP2 PUSH1 0x0 MSTORE PUSH1 0x20 PUSH1 0x0 KECCAK256 SWAP1 POP SWAP2 SWAP1 POP JUMP JUMPDEST PUSH1 0x0 PUSH1 0x20 PUSH1 0x1F DUP4 ADD DIV SWAP1 POP SWAP2 SWAP1 POP JUMP JUMPDEST PUSH1 0x0 DUP3 DUP3 SHL SWAP1 POP SWAP3 SWAP2 POP POP JUMP JUMPDEST PUSH1 0x0 PUSH1 0x8 DUP4 MUL PUSH3 0xC08 PUSH32 0xFFFFFFFFFFFFFFFFFFFFFFFFFFFFFFFFFFFFFFFFFFFFFFFFFFFFFFFFFFFFFFFF DUP3 PUSH3 0xBC9 JUMP JUMPDEST PUSH3 0xC14 DUP7 DUP4 PUSH3 0xBC9 JUMP JUMPDEST SWAP6 POP DUP1 NOT DUP5 AND SWAP4 POP DUP1 DUP7 AND DUP5 OR SWAP3 POP POP POP SWAP4 SWAP3 POP POP POP JUMP JUMPDEST PUSH1 0x0 DUP2 SWAP1 POP SWAP2 SWAP1 POP JUMP JUMPDEST PUSH1 0x0 DUP2 SWAP1 POP SWAP2 SWAP1 POP JUMP JUMPDEST PUSH1 0x0 PUSH3 0xC61 PUSH3 0xC5B PUSH3 0xC55 DUP5 PUSH3 0xC2C JUMP JUMPDEST PUSH3 0xC36 JUMP JUMPDEST PUSH3 0xC2C JUMP JUMPDEST SWAP1 POP SWAP2 SWAP1 POP JUMP JUMPDEST PUSH1 0x0 DUP2 SWAP1 POP SWAP2 SWAP1 POP JUMP JUMPDEST PUSH3 0xC7D DUP4 PUSH3 0xC40 JUMP JUMPDEST PUSH3 0xC95 PUSH3 0xC8C DUP3 PUSH3 0xC68 JUMP JUMPDEST DUP5 DUP5 SLOAD PUSH3 0xBD6 JUMP JUMPDEST DUP3 SSTORE POP POP POP POP JUMP JUMPDEST PUSH1 0x0 SWAP1 JUMP JUMPDEST PUSH3 0xCAC PUSH3 0xC9D JUMP JUMPDEST PUSH3 0xCB9 DUP2 DUP5 DUP5 PUSH3 0xC72 JUMP JUMPDEST POP POP POP JUMP JUMPDEST JUMPDEST DUP2 DUP2 LT ISZERO PUSH3 0xCE1 JUMPI PUSH3 0xCD5 PUSH1 0x0 DUP3 PUSH3 0xCA2 JUMP JUMPDEST PUSH1 0x1 DUP2 ADD SWAP1 POP PUSH3 0xCBF JUMP JUMPDEST POP POP JUMP JUMPDEST PUSH1 0x1F DUP3 GT ISZERO PUSH3 0xD30 JUMPI PUSH3 0xCFA DUP2 PUSH3 0xBA4 JUMP JUMPDEST PUSH3 0xD05 DUP5 PUSH3 0xBB9 JUMP JUMPDEST DUP2 ADD PUSH1 0x20 DUP6 LT ISZERO PUSH3 0xD15 JUMPI DUP2 SWAP1 POP JUMPDEST PUSH3 0xD2D PUSH3 0xD24 DUP6 PUSH3 0xBB9 JUMP JUMPDEST DUP4 ADD DUP3 PUSH3 0xCBE JUMP JUMPDEST POP POP JUMPDEST POP POP POP JUMP JUMPDEST PUSH1 0x0 DUP3 DUP3 SHR SWAP1 POP SWAP3 SWAP2 POP POP JUMP JUMPDEST PUSH1 0x0 PUSH3 0xD55 PUSH1 0x0 NOT DUP5 PUSH1 0x8 MUL PUSH3 0xD35 JUMP JUMPDEST NOT DUP1 DUP4 AND SWAP2 POP POP SWAP3 SWAP2 POP POP JUMP JUMPDEST PUSH1 0x0 PUSH3 0xD70 DUP4 DUP4 PUSH3 0xD42 JUMP JUMPDEST SWAP2 POP DUP3 PUSH1 0x2 MUL DUP3 OR SWAP1 POP SWAP3 SWAP2 POP POP JUMP JUMPDEST PUSH3 0xD8B DUP3 PUSH3 0xB35 JUMP JUMPDEST PUSH8 0xFFFFFFFFFFFFFFFF DUP2 GT ISZERO PUSH3 0xDA7 JUMPI PUSH3 0xDA6 PUSH3 0x951 JUMP JUMPDEST JUMPDEST PUSH3 0xDB3 DUP3 SLOAD PUSH3 0xB6F JUMP JUMPDEST PUSH3 0xDC0 DUP3 DUP3 DUP6 PUSH3 0xCE5 JUMP JUMPDEST PUSH1 0x0 PUSH1 0x20 SWAP1 POP PUSH1 0x1F DUP4 GT PUSH1 0x1 DUP2 EQ PUSH3 0xDF8 JUMPI PUSH1 0x0 DUP5 ISZERO PUSH3 0xDE3 JUMPI DUP3 DUP8 ADD MLOAD SWAP1 POP JUMPDEST PUSH3 0xDEF DUP6 DUP3 PUSH3 0xD62 JUMP JUMPDEST DUP7 SSTORE POP PUSH3 0xE5F JUMP JUMPDEST PUSH1 0x1F NOT DUP5 AND PUSH3 0xE08 DUP7 PUSH3 0xBA4 JUMP JUMPDEST PUSH1 0x0 JUMPDEST DUP3 DUP2 LT ISZERO PUSH3 0xE32 JUMPI DUP5 DUP10 ADD MLOAD DUP3 SSTORE PUSH1 0x1 DUP3 ADD SWAP2 POP PUSH1 0x20 DUP6 ADD SWAP5 POP PUSH1 0x20 DUP2 ADD SWAP1 POP PUSH3 0xE0B JUMP JUMPDEST DUP7 DUP4 LT ISZERO PUSH3 0xE52 JUMPI DUP5 DUP10 ADD MLOAD PUSH3 0xE4E PUSH1 0x1F DUP10 AND DUP3 PUSH3 0xD42 JUMP JUMPDEST DUP4 SSTORE POP JUMPDEST PUSH1 0x1 PUSH1 0x2 DUP9 MUL ADD DUP9 SSTORE POP POP POP JUMPDEST POP POP POP POP POP POP JUMP JUMPDEST PUSH1 0x0 DUP2 MLOAD SWAP1 POP SWAP2 SWAP1 POP JUMP JUMPDEST PUSH1 0x0 DUP2 SWAP1 POP DUP2 PUSH1 0x0 MSTORE PUSH1 0x20 PUSH1 0x0 KECCAK256 SWAP1 POP SWAP2 SWAP1 POP JUMP JUMPDEST PUSH1 0x1F DUP3 GT ISZERO PUSH3 0xED2 JUMPI PUSH3 0xE9C DUP2 PUSH3 0xE72 JUMP JUMPDEST PUSH3 0xEA7 DUP5 PUSH3 0xBB9 JUMP JUMPDEST DUP2 ADD PUSH1 0x20 DUP6 LT ISZERO PUSH3 0xEB7 JUMPI DUP2 SWAP1 POP JUMPDEST PUSH3 0xECF PUSH3 0xEC6 DUP6 PUSH3 0xBB9 JUMP JUMPDEST DUP4 ADD DUP3 PUSH3 0xCBE JUMP JUMPDEST POP POP JUMPDEST POP POP POP JUMP JUMPDEST PUSH3 0xEE2 DUP3 PUSH3 0xE67 JUMP JUMPDEST PUSH8 0xFFFFFFFFFFFFFFFF DUP2 GT ISZERO PUSH3 0xEFE JUMPI PUSH3 0xEFD PUSH3 0x951 JUMP JUMPDEST JUMPDEST PUSH3 0xF0A DUP3 SLOAD PUSH3 0xB6F JUMP JUMPDEST PUSH3 0xF17 DUP3 DUP3 DUP6 PUSH3 0xE87 JUMP JUMPDEST PUSH1 0x0 PUSH1 0x20 SWAP1 POP PUSH1 0x1F DUP4 GT PUSH1 0x1 DUP2 EQ PUSH3 0xF4F JUMPI PUSH1 0x0 DUP5 ISZERO PUSH3 0xF3A JUMPI DUP3 DUP8 ADD MLOAD SWAP1 POP JUMPDEST PUSH3 0xF46 DUP6 DUP3 PUSH3 0xD62 JUMP JUMPDEST DUP7 SSTORE POP PUSH3 0xFB6 JUMP JUMPDEST PUSH1 0x1F NOT DUP5 AND PUSH3 0xF5F DUP7 PUSH3 0xE72 JUMP JUMPDEST PUSH1 0x0 JUMPDEST DUP3 DUP2 LT ISZERO PUSH3 0xF89 JUMPI DUP5 DUP10 ADD MLOAD DUP3 SSTORE PUSH1 0x1 DUP3 ADD SWAP2 POP PUSH1 0x20 DUP6 ADD SWAP5 POP PUSH1 0x20 DUP2 ADD SWAP1 POP PUSH3 0xF62 JUMP JUMPDEST DUP7 DUP4 LT ISZERO PUSH3 0xFA9 JUMPI DUP5 DUP10 ADD MLOAD PUSH3 0xFA5 PUSH1 0x1F DUP10 AND DUP3 PUSH3 0xD42 JUMP JUMPDEST DUP4 SSTORE POP JUMPDEST PUSH1 0x1 PUSH1 0x2 DUP9 MUL ADD DUP9 SSTORE POP POP POP JUMPDEST POP POP POP POP POP POP JUMP JUMPDEST PUSH1 0x0 DUP2 SWAP1 POP SWAP3 SWAP2 POP POP JUMP JUMPDEST PUSH1 0x0 DUP2 SLOAD PUSH3 0xFD8 DUP2 PUSH3 0xB6F JUMP JUMPDEST PUSH3 0xFE4 DUP2 DUP7 PUSH3 0xFBE JUMP JUMPDEST SWAP5 POP PUSH1 0x1 DUP3 AND PUSH1 0x0 DUP2 EQ PUSH3 0x1002 JUMPI PUSH1 0x1 DUP2 EQ PUSH3 0x1018 JUMPI PUSH3 0x104F JUMP JUMPDEST PUSH1 0xFF NOT DUP4 AND DUP7 MSTORE DUP2 ISZERO ISZERO DUP3 MUL DUP7 ADD SWAP4 POP PUSH3 0x104F JUMP JUMPDEST PUSH3 0x1023 DUP6 PUSH3 0xE72 JUMP JUMPDEST PUSH1 0x0 JUMPDEST DUP4 DUP2 LT ISZERO PUSH3 0x1047 JUMPI DUP2 SLOAD DUP2 DUP10 ADD MSTORE PUSH1 0x1 DUP3 ADD SWAP2 POP PUSH1 0x20 DUP2 ADD SWAP1 POP PUSH3 0x1026 JUMP JUMPDEST DUP4 DUP9 ADD SWAP6 POP POP POP JUMPDEST POP POP POP SWAP3 SWAP2 POP POP JUMP JUMPDEST PUSH1 0x0 PUSH3 0x1066 DUP3 DUP5 PUSH3 0xFC9 JUMP JUMPDEST SWAP2 POP DUP2 SWAP1 POP SWAP3 SWAP2 POP POP JUMP JUMPDEST PUSH2 0xFBB DUP1 PUSH3 0x1081 PUSH1 0x0 CODECOPY PUSH1 0x0 RETURN INVALID PUSH1 0x80 PUSH1 0x40 MSTORE CALLVALUE DUP1 ISZERO PUSH2 0x10 JUMPI PUSH1 0x0 DUP1 REVERT JUMPDEST POP PUSH1 0x4 CALLDATASIZE LT PUSH2 0x116 JUMPI PUSH1 0x0 CALLDATALOAD PUSH1 0xE0 SHR DUP1 PUSH4 0x82775DFB GT PUSH2 0xA2 JUMPI DUP1 PUSH4 0x9F1939CF GT PUSH2 0x71 JUMPI DUP1 PUSH4 0x9F1939CF EQ PUSH2 0x332 JUMPI DUP1 PUSH4 0xD3F4E602 EQ PUSH2 0x362 JUMPI DUP1 PUSH4 0xD41E0070 EQ PUSH2 0x380 JUMPI DUP1 PUSH4 0xEE495002 EQ PUSH2 0x3B0 JUMPI DUP1 PUSH4 0xF6BAAFA5 EQ PUSH2 0x3CE JUMPI PUSH2 0x116 JUMP JUMPDEST DUP1 PUSH4 0x82775DFB EQ PUSH2 0x295 JUMPI DUP1 PUSH4 0x86B714E2 EQ PUSH2 0x2C5 JUMPI DUP1 PUSH4 0x881374D7 EQ PUSH2 0x2E4 JUMPI DUP1 PUSH4 0x94BF0759 EQ PUSH2 0x314 JUMPI PUSH2 0x116 JUMP JUMPDEST DUP1 PUSH4 0x376A2B69 GT PUSH2 0xE9 JUMPI DUP1 PUSH4 0x376A2B69 EQ PUSH2 0x1C9 JUMPI DUP1 PUSH4 0x4356AF48 EQ PUSH2 0x1F9 JUMPI DUP1 PUSH4 0x6BC35C3D EQ PUSH2 0x229 JUMPI DUP1 PUSH4 0x6CC014DE EQ PUSH2 0x259 JUMPI DUP1 PUSH4 0x767800DE EQ PUSH2 0x277 JUMPI PUSH2 0x116 JUMP JUMPDEST DUP1 PUSH4 0x89C1009 EQ PUSH2 0x11B JUMPI DUP1 PUSH4 0x127A6597 EQ PUSH2 0x14B JUMPI DUP1 PUSH4 0x304349F3 EQ PUSH2 0x17B JUMPI DUP1 PUSH4 0x35AFAA4C EQ PUSH2 0x199 JUMPI JUMPDEST PUSH1 0x0 DUP1 REVERT JUMPDEST PUSH2 0x135 PUSH1 0x4 DUP1 CALLDATASIZE SUB DUP2 ADD SWAP1 PUSH2 0x130 SWAP2 SWAP1 PUSH2 0x830 JUMP JUMPDEST PUSH2 0x3FE JUMP JUMPDEST PUSH1 0x40 MLOAD PUSH2 0x142 SWAP2 SWAP1 PUSH2 0x89E JUMP JUMPDEST PUSH1 0x40 MLOAD DUP1 SWAP2 SUB SWAP1 RETURN JUMPDEST PUSH2 0x165 PUSH1 0x4 DUP1 CALLDATASIZE SUB DUP2 ADD SWAP1 PUSH2 0x160 SWAP2 SWAP1 PUSH2 0x8EF JUMP JUMPDEST PUSH2 0x431 JUMP JUMPDEST PUSH1 0x40 MLOAD PUSH2 0x172 SWAP2 SWAP1 PUSH2 0x937 JUMP JUMPDEST PUSH1 0x40 MLOAD DUP1 SWAP2 SUB SWAP1 RETURN JUMPDEST PUSH2 0x183 PUSH2 0x451 JUMP JUMPDEST PUSH1 0x40 MLOAD PUSH2 0x190 SWAP2 SWAP1 PUSH2 0x937 JUMP JUMPDEST PUSH1 0x40 MLOAD DUP1 SWAP2 SUB SWAP1 RETURN JUMPDEST PUSH2 0x1B3 PUSH1 0x4 DUP1 CALLDATASIZE SUB DUP2 ADD SWAP1 PUSH2 0x1AE SWAP2 SWAP1 PUSH2 0xA98 JUMP JUMPDEST PUSH2 0x464 JUMP JUMPDEST PUSH1 0x40 MLOAD PUSH2 0x1C0 SWAP2 SWAP1 PUSH2 0xB0D JUMP JUMPDEST PUSH1 0x40 MLOAD DUP1 SWAP2 SUB SWAP1 RETURN JUMPDEST PUSH2 0x1E3 PUSH1 0x4 DUP1 CALLDATASIZE SUB DUP2 ADD SWAP1 PUSH2 0x1DE SWAP2 SWAP1 PUSH2 0xB54 JUMP JUMPDEST PUSH2 0x49E JUMP JUMPDEST PUSH1 0x40 MLOAD PUSH2 0x1F0 SWAP2 SWAP1 PUSH2 0x937 JUMP JUMPDEST PUSH1 0x40 MLOAD DUP1 SWAP2 SUB SWAP1 RETURN JUMPDEST PUSH2 0x213 PUSH1 0x4 DUP1 CALLDATASIZE SUB DUP2 ADD SWAP1 PUSH2 0x20E SWAP2 SWAP1 PUSH2 0xB94 JUMP JUMPDEST PUSH2 0x4CD JUMP JUMPDEST PUSH1 0x40 MLOAD PUSH2 0x220 SWAP2 SWAP1 PUSH2 0x937 JUMP JUMPDEST PUSH1 0x40 MLOAD DUP1 SWAP2 SUB SWAP1 RETURN JUMPDEST PUSH2 0x243 PUSH1 0x4 DUP1 CALLDATASIZE SUB DUP2 ADD SWAP1 PUSH2 0x23E SWAP2 SWAP1 PUSH2 0x8EF JUMP JUMPDEST PUSH2 0x503 JUMP JUMPDEST PUSH1 0x40 MLOAD PUSH2 0x250 SWAP2 SWAP1 PUSH2 0xB0D JUMP JUMPDEST PUSH1 0x40 MLOAD DUP1 SWAP2 SUB SWAP1 RETURN JUMPDEST PUSH2 0x261 PUSH2 0x533 JUMP JUMPDEST PUSH1 0x40 MLOAD PUSH2 0x26E SWAP2 SWAP1 PUSH2 0xC5C JUMP JUMPDEST PUSH1 0x40 MLOAD DUP1 SWAP2 SUB SWAP1 RETURN JUMPDEST PUSH2 0x27F PUSH2 0x5C1 JUMP JUMPDEST PUSH1 0x40 MLOAD PUSH2 0x28C SWAP2 SWAP1 PUSH2 0x89E JUMP JUMPDEST PUSH1 0x40 MLOAD DUP1 SWAP2 SUB SWAP1 RETURN JUMPDEST PUSH2 0x2AF PUSH1 0x4 DUP1 CALLDATASIZE SUB DUP2 ADD SWAP1 PUSH2 0x2AA SWAP2 SWAP1 PUSH2 0xC7E JUMP JUMPDEST PUSH2 0x5E7 JUMP JUMPDEST PUSH1 0x40 MLOAD PUSH2 0x2BC SWAP2 SWAP1 PUSH2 0xB0D JUMP JUMPDEST PUSH1 0x40 MLOAD DUP1 SWAP2 SUB SWAP1 RETURN JUMPDEST PUSH2 0x2CD PUSH2 0x61A JUMP JUMPDEST PUSH1 0x40 MLOAD PUSH2 0x2DB SWAP3 SWAP2 SWAP1 PUSH2 0xCE9 JUMP JUMPDEST PUSH1 0x40 MLOAD DUP1 SWAP2 SUB SWAP1 RETURN JUMPDEST PUSH2 0x2FE PUSH1 0x4 DUP1 CALLDATASIZE SUB DUP2 ADD SWAP1 PUSH2 0x2F9 SWAP2 SWAP1 PUSH2 0xD12 JUMP JUMPDEST PUSH2 0x664 JUMP JUMPDEST PUSH1 0x40 MLOAD PUSH2 0x30B SWAP2 SWAP1 PUSH2 0xB0D JUMP JUMPDEST PUSH1 0x40 MLOAD DUP1 SWAP2 SUB SWAP1 RETURN JUMPDEST PUSH2 0x31C PUSH2 0x697 JUMP JUMPDEST PUSH1 0x40 MLOAD PUSH2 0x329 SWAP2 SWAP1 PUSH2 0x937 JUMP JUMPDEST PUSH1 0x40 MLOAD DUP1 SWAP2 SUB SWAP1 RETURN JUMPDEST PUSH2 0x34C PUSH1 0x4 DUP1 CALLDATASIZE SUB DUP2 ADD SWAP1 PUSH2 0x347 SWAP2 SWAP1 PUSH2 0xC7E JUMP JUMPDEST PUSH2 0x6AA JUMP JUMPDEST PUSH1 0x40 MLOAD PUSH2 0x359 SWAP2 SWAP1 PUSH2 0xDA7 JUMP JUMPDEST PUSH1 0x40 MLOAD DUP1 SWAP2 SUB SWAP1 RETURN JUMPDEST PUSH2 0x36A PUSH2 0x6D6 JUMP JUMPDEST PUSH1 0x40 MLOAD PUSH2 0x377 SWAP2 SWAP1 PUSH2 0x937 JUMP JUMPDEST PUSH1 0x40 MLOAD DUP1 SWAP2 SUB SWAP1 RETURN JUMPDEST PUSH2 0x39A PUSH1 0x4 DUP1 CALLDATASIZE SUB DUP2 ADD SWAP1 PUSH2 0x395 SWAP2 SWAP1 PUSH2 0xD12 JUMP JUMPDEST PUSH2 0x6E9 JUMP JUMPDEST PUSH1 0x40 MLOAD PUSH2 0x3A7 SWAP2 SWAP1 PUSH2 0xB0D JUMP JUMPDEST PUSH1 0x40 MLOAD DUP1 SWAP2 SUB SWAP1 RETURN JUMPDEST PUSH2 0x3B8 PUSH2 0x72B JUMP JUMPDEST PUSH1 0x40 MLOAD PUSH2 0x3C5 SWAP2 SWAP1 PUSH2 0xDA7 JUMP JUMPDEST PUSH1 0x40 MLOAD DUP1 SWAP2 SUB SWAP1 RETURN JUMPDEST PUSH2 0x3E8 PUSH1 0x4 DUP1 CALLDATASIZE SUB DUP2 ADD SWAP1 PUSH2 0x3E3 SWAP2 SWAP1 PUSH2 0x8EF JUMP JUMPDEST PUSH2 0x7B9 JUMP JUMPDEST PUSH1 0x40 MLOAD PUSH2 0x3F5 SWAP2 SWAP1 PUSH2 0xB0D JUMP JUMPDEST PUSH1 0x40 MLOAD DUP1 SWAP2 SUB SWAP1 RETURN JUMPDEST PUSH1 0x14 PUSH1 0x20 MSTORE DUP1 PUSH1 0x0 MSTORE PUSH1 0x40 PUSH1 0x0 KECCAK256 PUSH1 0x0 SWAP2 POP SLOAD SWAP1 PUSH2 0x100 EXP SWAP1 DIV PUSH20 0xFFFFFFFFFFFFFFFFFFFFFFFFFFFFFFFFFFFFFFFF AND DUP2 JUMP JUMPDEST PUSH1 0x11 PUSH1 0x20 MSTORE DUP1 PUSH1 0x0 MSTORE PUSH1 0x40 PUSH1 0x0 KECCAK256 PUSH1 0x0 SWAP2 POP SLOAD SWAP1 PUSH2 0x100 EXP SWAP1 DIV PUSH1 0xFF AND DUP2 JUMP JUMPDEST PUSH1 0x13 PUSH1 0x1 SWAP1 SLOAD SWAP1 PUSH2 0x100 EXP SWAP1 DIV PUSH1 0xFF AND DUP2 JUMP JUMPDEST PUSH1 0x0 DUP2 DUP1 MLOAD SWAP1 PUSH1 0x20 ADD KECCAK256 DUP4 PUSH1 0x40 MLOAD PUSH1 0x20 ADD PUSH2 0x480 SWAP3 SWAP2 SWAP1 PUSH2 0xE0B JUMP JUMPDEST PUSH1 0x40 MLOAD PUSH1 0x20 DUP2 DUP4 SUB SUB DUP2 MSTORE SWAP1 PUSH1 0x40 MSTORE DUP1 MLOAD SWAP1 PUSH1 0x20 ADD KECCAK256 SWAP1 POP SWAP3 SWAP2 POP POP JUMP JUMPDEST PUSH1 0xE PUSH1 0x20 MSTORE DUP2 PUSH1 0x0 MSTORE PUSH1 0x40 PUSH1 0x0 KECCAK256 PUSH1 0x20 MSTORE DUP1 PUSH1 0x0 MSTORE PUSH1 0x40 PUSH1 0x0 KECCAK256 PUSH1 0x0 SWAP2 POP SWAP2 POP SWAP1 SLOAD SWAP1 PUSH2 0x100 EXP SWAP1 DIV PUSH1 0xFF AND DUP2 JUMP JUMPDEST PUSH1 0x12 DUP2 DUP1 MLOAD PUSH1 0x20 DUP2 ADD DUP3 ADD DUP1 MLOAD DUP5 DUP3 MSTORE PUSH1 0x20 DUP4 ADD PUSH1 0x20 DUP6 ADD KECCAK256 DUP2 DUP4 MSTORE DUP1 SWAP6 POP POP POP POP POP POP PUSH1 0x0 SWAP2 POP SLOAD SWAP1 PUSH2 0x100 EXP SWAP1 DIV PUSH1 0xFF AND DUP2 JUMP JUMPDEST PUSH1 0x0 DUP2 PUSH1 0x40 MLOAD PUSH1 0x20 ADD PUSH2 0x516 SWAP2 SWAP1 PUSH2 0xE37 JUMP JUMPDEST PUSH1 0x40 MLOAD PUSH1 0x20 DUP2 DUP4 SUB SUB DUP2 MSTORE SWAP1 PUSH1 0x40 MSTORE DUP1 MLOAD SWAP1 PUSH1 0x20 ADD KECCAK256 SWAP1 POP SWAP2 SWAP1 POP JUMP JUMPDEST PUSH1 0xF DUP1 SLOAD PUSH2 0x540 SWAP1 PUSH2 0xE81 JUMP JUMPDEST DUP1 PUSH1 0x1F ADD PUSH1 0x20 DUP1 SWAP2 DIV MUL PUSH1 0x20 ADD PUSH1 0x40 MLOAD SWAP1 DUP2 ADD PUSH1 0x40 MSTORE DUP1 SWAP3 SWAP2 SWAP1 DUP2 DUP2 MSTORE PUSH1 0x20 ADD DUP3 DUP1 SLOAD PUSH2 0x56C SWAP1 PUSH2 0xE81 JUMP JUMPDEST DUP1 ISZERO PUSH2 0x5B9 JUMPI DUP1 PUSH1 0x1F LT PUSH2 0x58E JUMPI PUSH2 0x100 DUP1 DUP4 SLOAD DIV MUL DUP4 MSTORE SWAP2 PUSH1 0x20 ADD SWAP2 PUSH2 0x5B9 JUMP JUMPDEST DUP3 ADD SWAP2 SWAP1 PUSH1 0x0 MSTORE PUSH1 0x20 PUSH1 0x0 KECCAK256 SWAP1 JUMPDEST DUP2 SLOAD DUP2 MSTORE SWAP1 PUSH1 0x1 ADD SWAP1 PUSH1 0x20 ADD DUP1 DUP4 GT PUSH2 0x59C JUMPI DUP3 SWAP1 SUB PUSH1 0x1F AND DUP3 ADD SWAP2 JUMPDEST POP POP POP POP POP DUP2 JUMP JUMPDEST PUSH1 0xD PUSH1 0x0 SWAP1 SLOAD SWAP1 PUSH2 0x100 EXP SWAP1 DIV PUSH20 0xFFFFFFFFFFFFFFFFFFFFFFFFFFFFFFFFFFFFFFFF AND DUP2 JUMP JUMPDEST PUSH1 0x0 DUP2 DUP4 PUSH1 0x40 MLOAD PUSH1 0x20 ADD PUSH2 0x5FC SWAP3 SWAP2 SWAP1 PUSH2 0xED0 JUMP JUMPDEST PUSH1 0x40 MLOAD PUSH1 0x20 DUP2 DUP4 SUB SUB DUP2 MSTORE SWAP1 PUSH1 0x40 MSTORE DUP1 MLOAD SWAP1 PUSH1 0x20 ADD KECCAK256 SWAP1 POP SWAP3 SWAP2 POP POP JUMP JUMPDEST PUSH1 0x9 DUP1 PUSH1 0x0 ADD PUSH1 0x0 SWAP1 SLOAD SWAP1 PUSH2 0x100 EXP SWAP1 DIV PUSH16 0xFFFFFFFFFFFFFFFFFFFFFFFFFFFFFFFF AND SWAP1 DUP1 PUSH1 0x0 ADD PUSH1 0x10 SWAP1 SLOAD SWAP1 PUSH2 0x100 EXP SWAP1 DIV PUSH16 0xFFFFFFFFFFFFFFFFFFFFFFFFFFFFFFFF AND SWAP1 POP DUP3 JUMP JUMPDEST PUSH1 0x0 DUP2 DUP4 PUSH1 0x40 MLOAD PUSH1 0x20 ADD PUSH2 0x679 SWAP3 SWAP2 SWAP1 PUSH2 0xEF9 JUMP JUMPDEST PUSH1 0x40 MLOAD PUSH1 0x20 DUP2 DUP4 SUB SUB DUP2 MSTORE SWAP1 PUSH1 0x40 MSTORE DUP1 MLOAD SWAP1 PUSH1 0x20 ADD KECCAK256 SWAP1 POP SWAP3 SWAP2 POP POP JUMP JUMPDEST PUSH1 0x13 PUSH1 0x2 SWAP1 SLOAD SWAP1 PUSH2 0x100 EXP SWAP1 DIV PUSH1 0xFF AND DUP2 JUMP JUMPDEST PUSH1 0x60 DUP2 DUP4 PUSH1 0x40 MLOAD PUSH1 0x20 ADD PUSH2 0x6BF SWAP3 SWAP2 SWAP1 PUSH2 0xED0 JUMP JUMPDEST PUSH1 0x40 MLOAD PUSH1 0x20 DUP2 DUP4 SUB SUB DUP2 MSTORE SWAP1 PUSH1 0x40 MSTORE SWAP1 POP SWAP3 SWAP2 POP POP JUMP JUMPDEST PUSH1 0x13 PUSH1 0x0 SWAP1 SLOAD SWAP1 PUSH2 0x100 EXP SWAP1 DIV PUSH1 0xFF AND DUP2 JUMP JUMPDEST PUSH1 0x0 DUP2 DUP4 PUSH1 0x40 MLOAD PUSH1 0x20 ADD PUSH2 0x6FD SWAP2 SWAP1 PUSH2 0xE37 JUMP JUMPDEST PUSH1 0x40 MLOAD PUSH1 0x20 DUP2 DUP4 SUB SUB DUP2 MSTORE SWAP1 PUSH1 0x40 MSTORE DUP1 MLOAD SWAP1 PUSH1 0x20 ADD KECCAK256 PUSH1 0x0 SHR PUSH2 0x720 SWAP2 SWAP1 PUSH2 0xF51 JUMP JUMPDEST PUSH1 0x0 SHL SWAP1 POP SWAP3 SWAP2 POP POP JUMP JUMPDEST PUSH1 0x10 DUP1 SLOAD PUSH2 0x738 SWAP1 PUSH2 0xE81 JUMP JUMPDEST DUP1 PUSH1 0x1F ADD PUSH1 0x20 DUP1 SWAP2 DIV MUL PUSH1 0x20 ADD PUSH1 0x40 MLOAD SWAP1 DUP2 ADD PUSH1 0x40 MSTORE DUP1 SWAP3 SWAP2 SWAP1 DUP2 DUP2 MSTORE PUSH1 0x20 ADD DUP3 DUP1 SLOAD PUSH2 0x764 SWAP1 PUSH2 0xE81 JUMP JUMPDEST DUP1 ISZERO PUSH2 0x7B1 JUMPI DUP1 PUSH1 0x1F LT PUSH2 0x786 JUMPI PUSH2 0x100 DUP1 DUP4 SLOAD DIV MUL DUP4 MSTORE SWAP2 PUSH1 0x20 ADD SWAP2 PUSH2 0x7B1 JUMP JUMPDEST DUP3 ADD SWAP2 SWAP1 PUSH1 0x0 MSTORE PUSH1 0x20 PUSH1 0x0 KECCAK256 SWAP1 JUMPDEST DUP2 SLOAD DUP2 MSTORE SWAP1 PUSH1 0x1 ADD SWAP1 PUSH1 0x20 ADD DUP1 DUP4 GT PUSH2 0x794 JUMPI DUP3 SWAP1 SUB PUSH1 0x1F AND DUP3 ADD SWAP2 JUMPDEST POP POP POP POP POP DUP2 JUMP JUMPDEST PUSH1 0x0 DUP2 SLOAD SWAP1 POP SWAP2 SWAP1 POP JUMP JUMPDEST PUSH1 0x0 PUSH1 0x40 MLOAD SWAP1 POP SWAP1 JUMP JUMPDEST PUSH1 0x0 DUP1 REVERT JUMPDEST PUSH1 0x0 DUP1 REVERT JUMPDEST PUSH1 0x0 PUSH32 0xFFFFFFFF00000000000000000000000000000000000000000000000000000000 DUP3 AND SWAP1 POP SWAP2 SWAP1 POP JUMP JUMPDEST PUSH2 0x80D DUP2 PUSH2 0x7D8 JUMP JUMPDEST DUP2 EQ PUSH2 0x818 JUMPI PUSH1 0x0 DUP1 REVERT JUMPDEST POP JUMP JUMPDEST PUSH1 0x0 DUP2 CALLDATALOAD SWAP1 POP PUSH2 0x82A DUP2 PUSH2 0x804 JUMP JUMPDEST SWAP3 SWAP2 POP POP JUMP JUMPDEST PUSH1 0x0 PUSH1 0x20 DUP3 DUP5 SUB SLT ISZERO PUSH2 0x846 JUMPI PUSH2 0x845 PUSH2 0x7CE JUMP JUMPDEST JUMPDEST PUSH1 0x0 PUSH2 0x854 DUP5 DUP3 DUP6 ADD PUSH2 0x81B JUMP JUMPDEST SWAP2 POP POP SWAP3 SWAP2 POP POP JUMP JUMPDEST PUSH1 0x0 PUSH20 0xFFFFFFFFFFFFFFFFFFFFFFFFFFFFFFFFFFFFFFFF DUP3 AND SWAP1 POP SWAP2 SWAP1 POP JUMP JUMPDEST PUSH1 0x0 PUSH2 0x888 DUP3 PUSH2 0x85D JUMP JUMPDEST SWAP1 POP SWAP2 SWAP1 POP JUMP JUMPDEST PUSH2 0x898 DUP2 PUSH2 0x87D JUMP JUMPDEST DUP3 MSTORE POP POP JUMP JUMPDEST PUSH1 0x0 PUSH1 0x20 DUP3 ADD SWAP1 POP PUSH2 0x8B3 PUSH1 0x0 DUP4 ADD DUP5 PUSH2 0x88F JUMP JUMPDEST SWAP3 SWAP2 POP POP JUMP JUMPDEST PUSH1 0x0 DUP2 SWAP1 POP SWAP2 SWAP1 POP JUMP JUMPDEST PUSH2 0x8CC DUP2 PUSH2 0x8B9 JUMP JUMPDEST DUP2 EQ PUSH2 0x8D7 JUMPI PUSH1 0x0 DUP1 REVERT JUMPDEST POP JUMP JUMPDEST PUSH1 0x0 DUP2 CALLDATALOAD SWAP1 POP PUSH2 0x8E9 DUP2 PUSH2 0x8C3 JUMP JUMPDEST SWAP3 SWAP2 POP POP JUMP JUMPDEST PUSH1 0x0 PUSH1 0x20 DUP3 DUP5 SUB SLT ISZERO PUSH2 0x905 JUMPI PUSH2 0x904 PUSH2 0x7CE JUMP JUMPDEST JUMPDEST PUSH1 0x0 PUSH2 0x913 DUP5 DUP3 DUP6 ADD PUSH2 0x8DA JUMP JUMPDEST SWAP2 POP POP SWAP3 SWAP2 POP POP JUMP JUMPDEST PUSH1 0x0 DUP2 ISZERO ISZERO SWAP1 POP SWAP2 SWAP1 POP JUMP JUMPDEST PUSH2 0x931 DUP2 PUSH2 0x91C JUMP JUMPDEST DUP3 MSTORE POP POP JUMP JUMPDEST PUSH1 0x0 PUSH1 0x20 DUP3 ADD SWAP1 POP PUSH2 0x94C PUSH1 0x0 DUP4 ADD DUP5 PUSH2 0x928 JUMP JUMPDEST SWAP3 SWAP2 POP POP JUMP JUMPDEST PUSH1 0x0 DUP1 REVERT JUMPDEST PUSH1 0x0 DUP1 REVERT JUMPDEST PUSH1 0x0 PUSH1 0x1F NOT PUSH1 0x1F DUP4 ADD AND SWAP1 POP SWAP2 SWAP1 POP JUMP JUMPDEST PUSH32 0x4E487B7100000000000000000000000000000000000000000000000000000000 PUSH1 0x0 MSTORE PUSH1 0x41 PUSH1 0x4 MSTORE PUSH1 0x24 PUSH1 0x0 REVERT JUMPDEST PUSH2 0x9A5 DUP3 PUSH2 0x95C JUMP JUMPDEST DUP2 ADD DUP2 DUP2 LT PUSH8 0xFFFFFFFFFFFFFFFF DUP3 GT OR ISZERO PUSH2 0x9C4 JUMPI PUSH2 0x9C3 PUSH2 0x96D JUMP JUMPDEST JUMPDEST DUP1 PUSH1 0x40 MSTORE POP POP POP JUMP JUMPDEST PUSH1 0x0 PUSH2 0x9D7 PUSH2 0x7C4 JUMP JUMPDEST SWAP1 POP PUSH2 0x9E3 DUP3 DUP3 PUSH2 0x99C JUMP JUMPDEST SWAP2 SWAP1 POP JUMP JUMPDEST PUSH1 0x0 PUSH8 0xFFFFFFFFFFFFFFFF DUP3 GT ISZERO PUSH2 0xA03 JUMPI PUSH2 0xA02 PUSH2 0x96D JUMP JUMPDEST JUMPDEST PUSH2 0xA0C DUP3 PUSH2 0x95C JUMP JUMPDEST SWAP1 POP PUSH1 0x20 DUP2 ADD SWAP1 POP SWAP2 SWAP1 POP JUMP JUMPDEST DUP3 DUP2 DUP4 CALLDATACOPY PUSH1 0x0 DUP4 DUP4 ADD MSTORE POP POP POP JUMP JUMPDEST PUSH1 0x0 PUSH2 0xA3B PUSH2 0xA36 DUP5 PUSH2 0x9E8 JUMP JUMPDEST PUSH2 0x9CD JUMP JUMPDEST SWAP1 POP DUP3 DUP2 MSTORE PUSH1 0x20 DUP2 ADD DUP5 DUP5 DUP5 ADD GT ISZERO PUSH2 0xA57 JUMPI PUSH2 0xA56 PUSH2 0x957 JUMP JUMPDEST JUMPDEST PUSH2 0xA62 DUP5 DUP3 DUP6 PUSH2 0xA19 JUMP JUMPDEST POP SWAP4 SWAP3 POP POP POP JUMP JUMPDEST PUSH1 0x0 DUP3 PUSH1 0x1F DUP4 ADD SLT PUSH2 0xA7F JUMPI PUSH2 0xA7E PUSH2 0x952 JUMP JUMPDEST JUMPDEST DUP2 CALLDATALOAD PUSH2 0xA8F DUP5 DUP3 PUSH1 0x20 DUP7 ADD PUSH2 0xA28 JUMP JUMPDEST SWAP2 POP POP SWAP3 SWAP2 POP POP JUMP JUMPDEST PUSH1 0x0 DUP1 PUSH1 0x40 DUP4 DUP6 SUB SLT ISZERO PUSH2 0xAAF JUMPI PUSH2 0xAAE PUSH2 0x7CE JUMP JUMPDEST JUMPDEST PUSH1 0x0 PUSH2 0xABD DUP6 DUP3 DUP7 ADD PUSH2 0x8DA JUMP JUMPDEST SWAP3 POP POP PUSH1 0x20 DUP4 ADD CALLDATALOAD PUSH8 0xFFFFFFFFFFFFFFFF DUP2 GT ISZERO PUSH2 0xADE JUMPI PUSH2 0xADD PUSH2 0x7D3 JUMP JUMPDEST JUMPDEST PUSH2 0xAEA DUP6 DUP3 DUP7 ADD PUSH2 0xA6A JUMP JUMPDEST SWAP2 POP POP SWAP3 POP SWAP3 SWAP1 POP JUMP JUMPDEST PUSH1 0x0 DUP2 SWAP1 POP SWAP2 SWAP1 POP JUMP JUMPDEST PUSH2 0xB07 DUP2 PUSH2 0xAF4 JUMP JUMPDEST DUP3 MSTORE POP POP JUMP JUMPDEST PUSH1 0x0 PUSH1 0x20 DUP3 ADD SWAP1 POP PUSH2 0xB22 PUSH1 0x0 DUP4 ADD DUP5 PUSH2 0xAFE JUMP JUMPDEST SWAP3 SWAP2 POP POP JUMP JUMPDEST PUSH2 0xB31 DUP2 PUSH2 0x87D JUMP JUMPDEST DUP2 EQ PUSH2 0xB3C JUMPI PUSH1 0x0 DUP1 REVERT JUMPDEST POP JUMP JUMPDEST PUSH1 0x0 DUP2 CALLDATALOAD SWAP1 POP PUSH2 0xB4E DUP2 PUSH2 0xB28 JUMP JUMPDEST SWAP3 SWAP2 POP POP JUMP JUMPDEST PUSH1 0x0 DUP1 PUSH1 0x40 DUP4 DUP6 SUB SLT ISZERO PUSH2 0xB6B JUMPI PUSH2 0xB6A PUSH2 0x7CE JUMP JUMPDEST JUMPDEST PUSH1 0x0 PUSH2 0xB79 DUP6 DUP3 DUP7 ADD PUSH2 0x8DA JUMP JUMPDEST SWAP3 POP POP PUSH1 0x20 PUSH2 0xB8A DUP6 DUP3 DUP7 ADD PUSH2 0xB3F JUMP JUMPDEST SWAP2 POP POP SWAP3 POP SWAP3 SWAP1 POP JUMP JUMPDEST PUSH1 0x0 PUSH1 0x20 DUP3 DUP5 SUB SLT ISZERO PUSH2 0xBAA JUMPI PUSH2 0xBA9 PUSH2 0x7CE JUMP JUMPDEST JUMPDEST PUSH1 0x0 DUP3 ADD CALLDATALOAD PUSH8 0xFFFFFFFFFFFFFFFF DUP2 GT ISZERO PUSH2 0xBC8 JUMPI PUSH2 0xBC7 PUSH2 0x7D3 JUMP JUMPDEST JUMPDEST PUSH2 0xBD4 DUP5 DUP3 DUP6 ADD PUSH2 0xA6A JUMP JUMPDEST SWAP2 POP POP SWAP3 SWAP2 POP POP JUMP JUMPDEST PUSH1 0x0 DUP2 MLOAD SWAP1 POP SWAP2 SWAP1 POP JUMP JUMPDEST PUSH1 0x0 DUP3 DUP3 MSTORE PUSH1 0x20 DUP3 ADD SWAP1 POP SWAP3 SWAP2 POP POP JUMP JUMPDEST PUSH1 0x0 JUMPDEST DUP4 DUP2 LT ISZERO PUSH2 0xC17 JUMPI DUP1 DUP3 ADD MLOAD DUP2 DUP5 ADD MSTORE PUSH1 0x20 DUP2 ADD SWAP1 POP PUSH2 0xBFC JUMP JUMPDEST PUSH1 0x0 DUP5 DUP5 ADD MSTORE POP POP POP POP JUMP JUMPDEST PUSH1 0x0 PUSH2 0xC2E DUP3 PUSH2 0xBDD JUMP JUMPDEST PUSH2 0xC38 DUP2 DUP6 PUSH2 0xBE8 JUMP JUMPDEST SWAP4 POP PUSH2 0xC48 DUP2 DUP6 PUSH1 0x20 DUP7 ADD PUSH2 0xBF9 JUMP JUMPDEST PUSH2 0xC51 DUP2 PUSH2 0x95C JUMP JUMPDEST DUP5 ADD SWAP2 POP POP SWAP3 SWAP2 POP POP JUMP JUMPDEST PUSH1 0x0 PUSH1 0x20 DUP3 ADD SWAP1 POP DUP2 DUP2 SUB PUSH1 0x0 DUP4 ADD MSTORE PUSH2 0xC76 DUP2 DUP5 PUSH2 0xC23 JUMP JUMPDEST SWAP1 POP SWAP3 SWAP2 POP POP JUMP JUMPDEST PUSH1 0x0 DUP1 PUSH1 0x40 DUP4 DUP6 SUB SLT ISZERO PUSH2 0xC95 JUMPI PUSH2 0xC94 PUSH2 0x7CE JUMP JUMPDEST JUMPDEST PUSH1 0x0 PUSH2 0xCA3 DUP6 DUP3 DUP7 ADD PUSH2 0x8DA JUMP JUMPDEST SWAP3 POP POP PUSH1 0x20 PUSH2 0xCB4 DUP6 DUP3 DUP7 ADD PUSH2 0x81B JUMP JUMPDEST SWAP2 POP POP SWAP3 POP SWAP3 SWAP1 POP JUMP JUMPDEST PUSH1 0x0 PUSH16 0xFFFFFFFFFFFFFFFFFFFFFFFFFFFFFFFF DUP3 AND SWAP1 POP SWAP2 SWAP1 POP JUMP JUMPDEST PUSH2 0xCE3 DUP2 PUSH2 0xCBE JUMP JUMPDEST DUP3 MSTORE POP POP JUMP JUMPDEST PUSH1 0x0 PUSH1 0x40 DUP3 ADD SWAP1 POP PUSH2 0xCFE PUSH1 0x0 DUP4 ADD DUP6 PUSH2 0xCDA JUMP JUMPDEST PUSH2 0xD0B PUSH1 0x20 DUP4 ADD DUP5 PUSH2 0xCDA JUMP JUMPDEST SWAP4 SWAP3 POP POP POP JUMP JUMPDEST PUSH1 0x0 DUP1 PUSH1 0x40 DUP4 DUP6 SUB SLT ISZERO PUSH2 0xD29 JUMPI PUSH2 0xD28 PUSH2 0x7CE JUMP JUMPDEST JUMPDEST PUSH1 0x0 PUSH2 0xD37 DUP6 DUP3 DUP7 ADD PUSH2 0x8DA JUMP JUMPDEST SWAP3 POP POP PUSH1 0x20 PUSH2 0xD48 DUP6 DUP3 DUP7 ADD PUSH2 0x8DA JUMP JUMPDEST SWAP2 POP POP SWAP3 POP SWAP3 SWAP1 POP JUMP JUMPDEST PUSH1 0x0 DUP2 MLOAD SWAP1 POP SWAP2 SWAP1 POP JUMP JUMPDEST PUSH1 0x0 DUP3 DUP3 MSTORE PUSH1 0x20 DUP3 ADD SWAP1 POP SWAP3 SWAP2 POP POP JUMP JUMPDEST PUSH1 0x0 PUSH2 0xD79 DUP3 PUSH2 0xD52 JUMP JUMPDEST PUSH2 0xD83 DUP2 DUP6 PUSH2 0xD5D JUMP JUMPDEST SWAP4 POP PUSH2 0xD93 DUP2 DUP6 PUSH1 0x20 DUP7 ADD PUSH2 0xBF9 JUMP JUMPDEST PUSH2 0xD9C DUP2 PUSH2 0x95C JUMP JUMPDEST DUP5 ADD SWAP2 POP POP SWAP3 SWAP2 POP POP JUMP JUMPDEST PUSH1 0x0 PUSH1 0x20 DUP3 ADD SWAP1 POP DUP2 DUP2 SUB PUSH1 0x0 DUP4 ADD MSTORE PUSH2 0xDC1 DUP2 DUP5 PUSH2 0xD6E JUMP JUMPDEST SWAP1 POP SWAP3 SWAP2 POP POP JUMP JUMPDEST PUSH1 0x0 DUP2 SWAP1 POP SWAP2 SWAP1 POP JUMP JUMPDEST PUSH2 0xDE4 PUSH2 0xDDF DUP3 PUSH2 0xAF4 JUMP JUMPDEST PUSH2 0xDC9 JUMP JUMPDEST DUP3 MSTORE POP POP JUMP JUMPDEST PUSH1 0x0 DUP2 SWAP1 POP SWAP2 SWAP1 POP JUMP JUMPDEST PUSH2 0xE05 PUSH2 0xE00 DUP3 PUSH2 0x8B9 JUMP JUMPDEST PUSH2 0xDEA JUMP JUMPDEST DUP3 MSTORE POP POP JUMP JUMPDEST PUSH1 0x0 PUSH2 0xE17 DUP3 DUP6 PUSH2 0xDD3 JUMP JUMPDEST PUSH1 0x20 DUP3 ADD SWAP2 POP PUSH2 0xE27 DUP3 DUP5 PUSH2 0xDF4 JUMP JUMPDEST PUSH1 0x20 DUP3 ADD SWAP2 POP DUP2 SWAP1 POP SWAP4 SWAP3 POP POP POP JUMP JUMPDEST PUSH1 0x0 PUSH2 0xE43 DUP3 DUP5 PUSH2 0xDF4 JUMP JUMPDEST PUSH1 0x20 DUP3 ADD SWAP2 POP DUP2 SWAP1 POP SWAP3 SWAP2 POP POP JUMP JUMPDEST PUSH32 0x4E487B7100000000000000000000000000000000000000000000000000000000 PUSH1 0x0 MSTORE PUSH1 0x22 PUSH1 0x4 MSTORE PUSH1 0x24 PUSH1 0x0 REVERT JUMPDEST PUSH1 0x0 PUSH1 0x2 DUP3 DIV SWAP1 POP PUSH1 0x1 DUP3 AND DUP1 PUSH2 0xE99 JUMPI PUSH1 0x7F DUP3 AND SWAP2 POP JUMPDEST PUSH1 0x20 DUP3 LT DUP2 SUB PUSH2 0xEAC JUMPI PUSH2 0xEAB PUSH2 0xE52 JUMP JUMPDEST JUMPDEST POP SWAP2 SWAP1 POP JUMP JUMPDEST PUSH2 0xEBB DUP2 PUSH2 0x7D8 JUMP JUMPDEST DUP3 MSTORE POP POP JUMP JUMPDEST PUSH2 0xECA DUP2 PUSH2 0x8B9 JUMP JUMPDEST DUP3 MSTORE POP POP JUMP JUMPDEST PUSH1 0x0 PUSH1 0x40 DUP3 ADD SWAP1 POP PUSH2 0xEE5 PUSH1 0x0 DUP4 ADD DUP6 PUSH2 0xEB2 JUMP JUMPDEST PUSH2 0xEF2 PUSH1 0x20 DUP4 ADD DUP5 PUSH2 0xEC1 JUMP JUMPDEST SWAP4 SWAP3 POP POP POP JUMP JUMPDEST PUSH1 0x0 PUSH1 0x40 DUP3 ADD SWAP1 POP PUSH2 0xF0E PUSH1 0x0 DUP4 ADD DUP6 PUSH2 0xEC1 JUMP JUMPDEST PUSH2 0xF1B PUSH1 0x20 DUP4 ADD DUP5 PUSH2 0xEC1 JUMP JUMPDEST SWAP4 SWAP3 POP POP POP JUMP JUMPDEST PUSH32 0x4E487B7100000000000000000000000000000000000000000000000000000000 PUSH1 0x0 MSTORE PUSH1 0x11 PUSH1 0x4 MSTORE PUSH1 0x24 PUSH1 0x0 REVERT JUMPDEST PUSH1 0x0 PUSH2 0xF5C DUP3 PUSH2 0x8B9 JUMP JUMPDEST SWAP2 POP PUSH2 0xF67 DUP4 PUSH2 0x8B9 JUMP JUMPDEST SWAP3 POP DUP3 DUP3 ADD SWAP1 POP DUP1 DUP3 GT ISZERO PUSH2 0xF7F JUMPI PUSH2 0xF7E PUSH2 0xF22 JUMP JUMPDEST JUMPDEST SWAP3 SWAP2 POP POP JUMP INVALID LOG2 PUSH5 0x6970667358 0x22 SLT KECCAK256 PC 0xF7 0xE4 0x1F 0xD2 0xAE POP 0xCF SWAP13 SDIV 0xCD 0xC7 0xB9 SWAP11 0xDB LOG0 0xF6 PUSH4 0x559A2FA2 DIV DUP1 0x4D GASLIMIT PUSH20 0xD448E9FB4064736F6C6343000813003300000000 "
				},
				"gasEstimates": {
					"creation": {
						"codeDepositCost": "805400",
						"executionCost": "infinite",
						"totalCost": "infinite"
					},
					"external": {
						"abiEncode(uint256,bytes4)": "infinite",
						"addr()": "2625",
						"b1()": "infinite",
						"bo1()": "2515",
						"bo2()": "2589",
						"bo3()": "2610",
						"getArrayDataSlotGivenIndex(uint256,uint256)": "infinite",
						"getMap4Location(uint256,bytes4)": "infinite",
						"getMapLocation(uint256,uint256)": "infinite",
						"getMapLocation2(uint256,bytes)": "infinite",
						"getStorageAt(uint256)": "2812",
						"hashSlot(uint256)": "infinite",
						"map(uint256,address)": "3110",
						"map2(uint256)": "2842",
						"map3(bytes)": "infinite",
						"map4(bytes4)": "2869",
						"s()": "infinite",
						"s1()": "infinite"
					}
				},
				"methodIdentifiers": {
					"abiEncode(uint256,bytes4)": "9f1939cf",
					"addr()": "767800de",
					"b1()": "ee495002",
					"bo1()": "d3f4e602",
					"bo2()": "304349f3",
					"bo3()": "94bf0759",
					"getArrayDataSlotGivenIndex(uint256,uint256)": "d41e0070",
					"getMap4Location(uint256,bytes4)": "82775dfb",
					"getMapLocation(uint256,uint256)": "881374d7",
					"getMapLocation2(uint256,bytes)": "35afaa4c",
					"getStorageAt(uint256)": "f6baafa5",
					"hashSlot(uint256)": "6bc35c3d",
					"map(uint256,address)": "376a2b69",
					"map2(uint256)": "127a6597",
					"map3(bytes)": "4356af48",
					"map4(bytes4)": "089c1009",
					"s()": "86b714e2",
					"s1()": "6cc014de"
				}
			},
			"storageLayout": {
				"storage": [
					{
						"astId": 4,
						"contract": "class/storage/house.sol:C",
						"label": "a",
						"offset": 0,
						"slot": "0",
						"type": "t_uint256"
					},
					{
						"astId": 7,
						"contract": "class/storage/house.sol:C",
						"label": "b",
						"offset": 0,
						"slot": "1",
						"type": "t_uint128"
					},
					{
						"astId": 10,
						"contract": "class/storage/house.sol:C",
						"label": "c",
						"offset": 16,
						"slot": "1",
						"type": "t_uint128"
					},
					{
						"astId": 14,
						"contract": "class/storage/house.sol:C",
						"label": "d",
						"offset": 0,
						"slot": "2",
						"type": "t_uint256"
					},
					{
						"astId": 17,
						"contract": "class/storage/house.sol:C",
						"label": "e",
						"offset": 0,
						"slot": "3",
						"type": "t_uint256"
					},
					{
						"astId": 36,
						"contract": "class/storage/house.sol:C",
						"label": "x",
						"offset": 0,
						"slot": "4",
						"type": "t_uint256"
					},
					{
						"astId": 38,
						"contract": "class/storage/house.sol:C",
						"label": "y",
						"offset": 0,
						"slot": "5",
						"type": "t_uint8"
					},
					{
						"astId": 40,
						"contract": "class/storage/house.sol:C",
						"label": "z",
						"offset": 1,
						"slot": "5",
						"type": "t_uint16"
					},
					{
						"astId": 44,
						"contract": "class/storage/house.sol:C",
						"label": "staticArray",
						"offset": 0,
						"slot": "6",
						"type": "t_array(t_uint256)2_storage"
					},
					{
						"astId": 47,
						"contract": "class/storage/house.sol:C",
						"label": "dynArray",
						"offset": 0,
						"slot": "8",
						"type": "t_array(t_uint128)dyn_storage"
					},
					{
						"astId": 50,
						"contract": "class/storage/house.sol:C",
						"label": "s",
						"offset": 0,
						"slot": "9",
						"type": "t_struct(S)34_storage"
					},
					{
						"astId": 52,
						"contract": "class/storage/house.sol:C",
						"label": "addr",
						"offset": 0,
						"slot": "13",
						"type": "t_address"
					},
					{
						"astId": 58,
						"contract": "class/storage/house.sol:C",
						"label": "map",
						"offset": 0,
						"slot": "14",
						"type": "t_mapping(t_uint256,t_mapping(t_address,t_bool))"
					},
					{
						"astId": 60,
						"contract": "class/storage/house.sol:C",
						"label": "s1",
						"offset": 0,
						"slot": "15",
						"type": "t_string_storage"
					},
					{
						"astId": 62,
						"contract": "class/storage/house.sol:C",
						"label": "b1",
						"offset": 0,
						"slot": "16",
						"type": "t_bytes_storage"
					},
					{
						"astId": 66,
						"contract": "class/storage/house.sol:C",
						"label": "map2",
						"offset": 0,
						"slot": "17",
						"type": "t_mapping(t_uint256,t_bool)"
					},
					{
						"astId": 70,
						"contract": "class/storage/house.sol:C",
						"label": "map3",
						"offset": 0,
						"slot": "18",
						"type": "t_mapping(t_bytes_memory_ptr,t_bool)"
					},
					{
						"astId": 72,
						"contract": "class/storage/house.sol:C",
						"label": "bo1",
						"offset": 0,
						"slot": "19",
						"type": "t_bool"
					},
					{
						"astId": 74,
						"contract": "class/storage/house.sol:C",
						"label": "bo2",
						"offset": 1,
						"slot": "19",
						"type": "t_bool"
					},
					{
						"astId": 76,
						"contract": "class/storage/house.sol:C",
						"label": "bo3",
						"offset": 2,
						"slot": "19",
						"type": "t_bool"
					},
					{
						"astId": 80,
						"contract": "class/storage/house.sol:C",
						"label": "map4",
						"offset": 0,
						"slot": "20",
						"type": "t_mapping(t_bytes4,t_address)"
					}
				],
				"types": {
					"t_address": {
						"encoding": "inplace",
						"label": "address",
						"numberOfBytes": "20"
					},
					"t_array(t_uint128)dyn_storage": {
						"base": "t_uint128",
						"encoding": "dynamic_array",
						"label": "uint128[]",
						"numberOfBytes": "32"
					},
					"t_array(t_uint256)2_storage": {
						"base": "t_uint256",
						"encoding": "inplace",
						"label": "uint256[2]",
						"numberOfBytes": "64"
					},
					"t_array(t_uint256)dyn_storage": {
						"base": "t_uint256",
						"encoding": "dynamic_array",
						"label": "uint256[]",
						"numberOfBytes": "32"
					},
					"t_bool": {
						"encoding": "inplace",
						"label": "bool",
						"numberOfBytes": "1"
					},
					"t_bytes4": {
						"encoding": "inplace",
						"label": "bytes4",
						"numberOfBytes": "4"
					},
					"t_bytes_memory_ptr": {
						"encoding": "bytes",
						"label": "bytes",
						"numberOfBytes": "32"
					},
					"t_bytes_storage": {
						"encoding": "bytes",
						"label": "bytes",
						"numberOfBytes": "32"
					},
					"t_mapping(t_address,t_bool)": {
						"encoding": "mapping",
						"key": "t_address",
						"label": "mapping(address => bool)",
						"numberOfBytes": "32",
						"value": "t_bool"
					},
					"t_mapping(t_bytes4,t_address)": {
						"encoding": "mapping",
						"key": "t_bytes4",
						"label": "mapping(bytes4 => address)",
						"numberOfBytes": "32",
						"value": "t_address"
					},
					"t_mapping(t_bytes_memory_ptr,t_bool)": {
						"encoding": "mapping",
						"key": "t_bytes_memory_ptr",
						"label": "mapping(bytes => bool)",
						"numberOfBytes": "32",
						"value": "t_bool"
					},
					"t_mapping(t_uint256,t_bool)": {
						"encoding": "mapping",
						"key": "t_uint256",
						"label": "mapping(uint256 => bool)",
						"numberOfBytes": "32",
						"value": "t_bool"
					},
					"t_mapping(t_uint256,t_mapping(t_address,t_bool))": {
						"encoding": "mapping",
						"key": "t_uint256",
						"label": "mapping(uint256 => mapping(address => bool))",
						"numberOfBytes": "32",
						"value": "t_mapping(t_address,t_bool)"
					},
					"t_string_storage": {
						"encoding": "bytes",
						"label": "string",
						"numberOfBytes": "32"
					},
					"t_struct(S)34_storage": {
						"encoding": "inplace",
						"label": "struct C.S",
						"members": [
							{
								"astId": 24,
								"contract": "class/storage/house.sol:C",
								"label": "a",
								"offset": 0,
								"slot": "0",
								"type": "t_uint128"
							},
							{
								"astId": 26,
								"contract": "class/storage/house.sol:C",
								"label": "b",
								"offset": 16,
								"slot": "0",
								"type": "t_uint128"
							},
							{
								"astId": 30,
								"contract": "class/storage/house.sol:C",
								"label": "staticArray",
								"offset": 0,
								"slot": "1",
								"type": "t_array(t_uint256)2_storage"
							},
							{
								"astId": 33,
								"contract": "class/storage/house.sol:C",
								"label": "dynArray",
								"offset": 0,
								"slot": "3",
								"type": "t_array(t_uint256)dyn_storage"
							}
						],
						"numberOfBytes": "128"
					},
					"t_uint128": {
						"encoding": "inplace",
						"label": "uint128",
						"numberOfBytes": "16"
					},
					"t_uint16": {
						"encoding": "inplace",
						"label": "uint16",
						"numberOfBytes": "2"
					},
					"t_uint256": {
						"encoding": "inplace",
						"label": "uint256",
						"numberOfBytes": "32"
					},
					"t_uint8": {
						"encoding": "inplace",
						"label": "uint8",
						"numberOfBytes": "1"
					}
				}
			},
			"userdoc": {
				"kind": "user",
				"methods": {},
				"version": 1
			}
		}
	}
}