{
	"data": {
		"bytecode": {
			"linkReferences": {},
			"object": "608060405234801561001057600080fd5b50610208806100206000396000f3fe608060405234801561001057600080fd5b506004361061002b5760003560e01c80639b1a379c14610030575b600080fd5b61004a600480360381019061004591906100c7565b610061565b604051610058929190610170565b60405180910390f35b3660008383915091509250929050565b60008083601f840112610087576100866101b9565b5b8235905067ffffffffffffffff8111156100a4576100a36101b4565b5b6020830191508360208202830111156100c0576100bf6101be565b5b9250929050565b600080602083850312156100de576100dd6101cd565b5b600083013567ffffffffffffffff8111156100fc576100fb6101c3565b5b61010885828601610071565b92509250509250929050565b60006101208385610194565b93507f07ffffffffffffffffffffffffffffffffffffffffffffffffffffffffffffff831115610153576101526101c8565b5b6020830292506101648385846101a5565b82840190509392505050565b6000602082019050818103600083015261018b818486610114565b90509392505050565b600082825260208201905092915050565b82818337600083830152505050565b600080fd5b600080fd5b600080fd5b600080fd5b600080fd5b600080fdfea2646970667358221220e163776597d9344b2057d0ec2bb6f8aa6b2081eef0a1654a42ccfe93e915a8b264736f6c63430008070033",
			"opcodes": "PUSH1 0x80 PUSH1 0x40 MSTORE CALLVALUE DUP1 ISZERO PUSH2 0x10 JUMPI PUSH1 0x0 DUP1 REVERT JUMPDEST POP PUSH2 0x208 DUP1 PUSH2 0x20 PUSH1 0x0 CODECOPY PUSH1 0x0 RETURN INVALID PUSH1 0x80 PUSH1 0x40 MSTORE CALLVALUE DUP1 ISZERO PUSH2 0x10 JUMPI PUSH1 0x0 DUP1 REVERT JUMPDEST POP PUSH1 0x4 CALLDATASIZE LT PUSH2 0x2B JUMPI PUSH1 0x0 CALLDATALOAD PUSH1 0xE0 SHR DUP1 PUSH4 0x9B1A379C EQ PUSH2 0x30 JUMPI JUMPDEST PUSH1 0x0 DUP1 REVERT JUMPDEST PUSH2 0x4A PUSH1 0x4 DUP1 CALLDATASIZE SUB DUP2 ADD SWAP1 PUSH2 0x45 SWAP2 SWAP1 PUSH2 0xC7 JUMP JUMPDEST PUSH2 0x61 JUMP JUMPDEST PUSH1 0x40 MLOAD PUSH2 0x58 SWAP3 SWAP2 SWAP1 PUSH2 0x170 JUMP JUMPDEST PUSH1 0x40 MLOAD DUP1 SWAP2 SUB SWAP1 RETURN JUMPDEST CALLDATASIZE PUSH1 0x0 DUP4 DUP4 SWAP2 POP SWAP2 POP SWAP3 POP SWAP3 SWAP1 POP JUMP JUMPDEST PUSH1 0x0 DUP1 DUP4 PUSH1 0x1F DUP5 ADD SLT PUSH2 0x87 JUMPI PUSH2 0x86 PUSH2 0x1B9 JUMP JUMPDEST JUMPDEST DUP3 CALLDATALOAD SWAP1 POP PUSH8 0xFFFFFFFFFFFFFFFF DUP2 GT ISZERO PUSH2 0xA4 JUMPI PUSH2 0xA3 PUSH2 0x1B4 JUMP JUMPDEST JUMPDEST PUSH1 0x20 DUP4 ADD SWAP2 POP DUP4 PUSH1 0x20 DUP3 MUL DUP4 ADD GT ISZERO PUSH2 0xC0 JUMPI PUSH2 0xBF PUSH2 0x1BE JUMP JUMPDEST JUMPDEST SWAP3 POP SWAP3 SWAP1 POP JUMP JUMPDEST PUSH1 0x0 DUP1 PUSH1 0x20 DUP4 DUP6 SUB SLT ISZERO PUSH2 0xDE JUMPI PUSH2 0xDD PUSH2 0x1CD JUMP JUMPDEST JUMPDEST PUSH1 0x0 DUP4 ADD CALLDATALOAD PUSH8 0xFFFFFFFFFFFFFFFF DUP2 GT ISZERO PUSH2 0xFC JUMPI PUSH2 0xFB PUSH2 0x1C3 JUMP JUMPDEST JUMPDEST PUSH2 0x108 DUP6 DUP3 DUP7 ADD PUSH2 0x71 JUMP JUMPDEST SWAP3 POP SWAP3 POP POP SWAP3 POP SWAP3 SWAP1 POP JUMP JUMPDEST PUSH1 0x0 PUSH2 0x120 DUP4 DUP6 PUSH2 0x194 JUMP JUMPDEST SWAP4 POP PUSH32 0x7FFFFFFFFFFFFFFFFFFFFFFFFFFFFFFFFFFFFFFFFFFFFFFFFFFFFFFFFFFFFFF DUP4 GT ISZERO PUSH2 0x153 JUMPI PUSH2 0x152 PUSH2 0x1C8 JUMP JUMPDEST JUMPDEST PUSH1 0x20 DUP4 MUL SWAP3 POP PUSH2 0x164 DUP4 DUP6 DUP5 PUSH2 0x1A5 JUMP JUMPDEST DUP3 DUP5 ADD SWAP1 POP SWAP4 SWAP3 POP POP POP JUMP JUMPDEST PUSH1 0x0 PUSH1 0x20 DUP3 ADD SWAP1 POP DUP2 DUP2 SUB PUSH1 0x0 DUP4 ADD MSTORE PUSH2 0x18B DUP2 DUP5 DUP7 PUSH2 0x114 JUMP JUMPDEST SWAP1 POP SWAP4 SWAP3 POP POP POP JUMP JUMPDEST PUSH1 0x0 DUP3 DUP3 MSTORE PUSH1 0x20 DUP3 ADD SWAP1 POP SWAP3 SWAP2 POP POP JUMP JUMPDEST DUP3 DUP2 DUP4 CALLDATACOPY PUSH1 0x0 DUP4 DUP4 ADD MSTORE POP POP POP JUMP JUMPDEST PUSH1 0x0 DUP1 REVERT JUMPDEST PUSH1 0x0 DUP1 REVERT JUMPDEST PUSH1 0x0 DUP1 REVERT JUMPDEST PUSH1 0x0 DUP1 REVERT JUMPDEST PUSH1 0x0 DUP1 REVERT JUMPDEST PUSH1 0x0 DUP1 REVERT INVALID LOG2 PUSH5 0x6970667358 0x22 SLT KECCAK256 0xE1 PUSH4 0x776597D9 CALLVALUE 0x4B KECCAK256 JUMPI 0xD0 0xEC 0x2B 0xB6 0xF8 0xAA PUSH12 0x2081EEF0A1654A42CCFE93E9 ISZERO 0xA8 0xB2 PUSH5 0x736F6C6343 STOP ADDMOD SMOD STOP CALLER "
		},
		"gasEstimates": {
			"creation": {
				"codeDepositCost": "104000",
				"executionCost": "153",
				"totalCost": "104153"
			},
			"external": {
				"fCalldata(uint256[])": "infinite"
			}
		},
		"methodIdentifiers": {
			"fCalldata(uint256[])": "9b1a379c"
		}
	},
	"abi": [
		{
			"inputs": [
				{
					"internalType": "uint256[]",
					"name": "_x",
					"type": "uint256[]"
				}
			],
			"name": "fCalldata",
			"outputs": [
				{
					"internalType": "uint256[]",
					"name": "",
					"type": "uint256[]"
				}
			],
			"stateMutability": "pure",
			"type": "function"
		}
	]
}