{
	"modi/ree.sol": {
		"reentrancy": {
			"abi": [
				{
					"inputs": [],
					"stateMutability": "nonpayable",
					"type": "constructor"
				},
				{
					"inputs": [
						{
							"internalType": "uint256",
							"name": "amount",
							"type": "uint256"
						}
					],
					"name": "deposit",
					"outputs": [],
					"stateMutability": "nonpayable",
					"type": "function"
				},
				{
					"inputs": [
						{
							"internalType": "address",
							"name": "",
							"type": "address"
						}
					],
					"name": "depositTimes",
					"outputs": [
						{
							"internalType": "uint256",
							"name": "",
							"type": "uint256"
						}
					],
					"stateMutability": "view",
					"type": "function"
				},
				{
					"inputs": [],
					"name": "isCompleted",
					"outputs": [],
					"stateMutability": "nonpayable",
					"type": "function"
				},
				{
					"inputs": [],
					"name": "password",
					"outputs": [
						{
							"internalType": "bytes32",
							"name": "",
							"type": "bytes32"
						}
					],
					"stateMutability": "view",
					"type": "function"
				},
				{
					"inputs": [],
					"name": "score",
					"outputs": [
						{
							"internalType": "uint256",
							"name": "",
							"type": "uint256"
						}
					],
					"stateMutability": "view",
					"type": "function"
				},
				{
					"inputs": [],
					"name": "times",
					"outputs": [
						{
							"internalType": "uint256",
							"name": "",
							"type": "uint256"
						}
					],
					"stateMutability": "view",
					"type": "function"
				},
				{
					"inputs": [
						{
							"internalType": "uint256",
							"name": "",
							"type": "uint256"
						}
					],
					"name": "users",
					"outputs": [
						{
							"internalType": "bytes32",
							"name": "userID",
							"type": "bytes32"
						}
					],
					"stateMutability": "view",
					"type": "function"
				},
				{
					"inputs": [
						{
							"internalType": "uint256",
							"name": "amount",
							"type": "uint256"
						}
					],
					"name": "withdraw",
					"outputs": [],
					"stateMutability": "nonpayable",
					"type": "function"
				}
			],
			"devdoc": {
				"kind": "dev",
				"methods": {},
				"version": 1
			},
			"evm": {
				"assembly": "    /* \"modi/ree.sol\":427:1714  contract reentrancy{... */\n  mstore(0x40, 0x80)\n    /* \"modi/ree.sol\":469:511  0xd9145CCE52D386f254917e481eB44e9943F39138 */\n  0xd9145cce52d386f254917e481eb44e9943f39138\n    /* \"modi/ree.sol\":453:511  address token = 0xd9145CCE52D386f254917e481eB44e9943F39138 */\n  0x00\n  dup1\n  0x0100\n  exp\n  dup2\n  sload\n  dup2\n  0xffffffffffffffffffffffffffffffffffffffff\n  mul\n  not\n  and\n  swap1\n  dup4\n  0xffffffffffffffffffffffffffffffffffffffff\n  and\n  mul\n  or\n  swap1\n  sstore\n  pop\n    /* \"modi/ree.sol\":567:568  1 */\n  0x01\n    /* \"modi/ree.sol\":545:568  uint256 public times =1 */\n  0x02\n  sstore\n    /* \"modi/ree.sol\":734:837  constructor()public{... */\n  callvalue\n  dup1\n  iszero\n  tag_1\n  jumpi\n  0x00\n  dup1\n  revert\ntag_1:\n  pop\n    /* \"modi/ree.sol\":825:826  1 */\n  0x01\n    /* \"modi/ree.sol\":812:824  block.number */\n  number\n    /* \"modi/ree.sol\":812:826  block.number-1 */\n  tag_4\n  swap2\n  swap1\n  tag_5\n  jump\t// in\ntag_4:\n    /* \"modi/ree.sol\":802:827  blockhash(block.number-1) */\n  blockhash\n    /* \"modi/ree.sol\":785:828  abi.encodePacked(blockhash(block.number-1)) */\n  add(0x20, mload(0x40))\n  tag_6\n  swap2\n  swap1\n  tag_7\n  jump\t// in\ntag_6:\n  mload(0x40)\n  0x20\n  dup2\n  dup4\n  sub\n  sub\n  dup2\n  mstore\n  swap1\n  0x40\n  mstore\n    /* \"modi/ree.sol\":775:829  keccak256(abi.encodePacked(blockhash(block.number-1))) */\n  dup1\n  mload\n  swap1\n  0x20\n  add\n  keccak256\n    /* \"modi/ree.sol\":764:772  password */\n  0x03\n    /* \"modi/ree.sol\":764:829  password = keccak256(abi.encodePacked(blockhash(block.number-1))) */\n  dup2\n  swap1\n  sstore\n  pop\n    /* \"modi/ree.sol\":427:1714  contract reentrancy{... */\n  jump(tag_8)\n    /* \"#utility.yul\":7:84   */\ntag_9:\n    /* \"#utility.yul\":44:51   */\n  0x00\n    /* \"#utility.yul\":73:78   */\n  dup2\n    /* \"#utility.yul\":62:78   */\n  swap1\n  pop\n    /* \"#utility.yul\":7:84   */\n  swap2\n  swap1\n  pop\n  jump\t// out\n    /* \"#utility.yul\":90:270   */\ntag_10:\n    /* \"#utility.yul\":138:215   */\n  0x4e487b7100000000000000000000000000000000000000000000000000000000\n    /* \"#utility.yul\":135:136   */\n  0x00\n    /* \"#utility.yul\":128:216   */\n  mstore\n    /* \"#utility.yul\":235:239   */\n  0x11\n    /* \"#utility.yul\":232:233   */\n  0x04\n    /* \"#utility.yul\":225:240   */\n  mstore\n    /* \"#utility.yul\":259:263   */\n  0x24\n    /* \"#utility.yul\":256:257   */\n  0x00\n    /* \"#utility.yul\":249:264   */\n  revert\n    /* \"#utility.yul\":276:470   */\ntag_5:\n    /* \"#utility.yul\":316:320   */\n  0x00\n    /* \"#utility.yul\":336:356   */\n  tag_18\n    /* \"#utility.yul\":354:355   */\n  dup3\n    /* \"#utility.yul\":336:356   */\n  tag_9\n  jump\t// in\ntag_18:\n    /* \"#utility.yul\":331:356   */\n  swap2\n  pop\n    /* \"#utility.yul\":370:390   */\n  tag_19\n    /* \"#utility.yul\":388:389   */\n  dup4\n    /* \"#utility.yul\":370:390   */\n  tag_9\n  jump\t// in\ntag_19:\n    /* \"#utility.yul\":365:390   */\n  swap3\n  pop\n    /* \"#utility.yul\":414:415   */\n  dup3\n    /* \"#utility.yul\":411:412   */\n  dup3\n    /* \"#utility.yul\":407:416   */\n  sub\n    /* \"#utility.yul\":399:416   */\n  swap1\n  pop\n    /* \"#utility.yul\":438:439   */\n  dup2\n    /* \"#utility.yul\":432:436   */\n  dup2\n    /* \"#utility.yul\":429:440   */\n  gt\n    /* \"#utility.yul\":426:463   */\n  iszero\n  tag_20\n  jumpi\n    /* \"#utility.yul\":443:461   */\n  tag_21\n  tag_10\n  jump\t// in\ntag_21:\n    /* \"#utility.yul\":426:463   */\ntag_20:\n    /* \"#utility.yul\":276:470   */\n  swap3\n  swap2\n  pop\n  pop\n  jump\t// out\n    /* \"#utility.yul\":476:553   */\ntag_11:\n    /* \"#utility.yul\":513:520   */\n  0x00\n    /* \"#utility.yul\":542:547   */\n  dup2\n    /* \"#utility.yul\":531:547   */\n  swap1\n  pop\n    /* \"#utility.yul\":476:553   */\n  swap2\n  swap1\n  pop\n  jump\t// out\n    /* \"#utility.yul\":559:638   */\ntag_12:\n    /* \"#utility.yul\":598:605   */\n  0x00\n    /* \"#utility.yul\":627:632   */\n  dup2\n    /* \"#utility.yul\":616:632   */\n  swap1\n  pop\n    /* \"#utility.yul\":559:638   */\n  swap2\n  swap1\n  pop\n  jump\t// out\n    /* \"#utility.yul\":644:801   */\ntag_13:\n    /* \"#utility.yul\":749:794   */\n  tag_25\n    /* \"#utility.yul\":769:793   */\n  tag_26\n    /* \"#utility.yul\":787:792   */\n  dup3\n    /* \"#utility.yul\":769:793   */\n  tag_11\n  jump\t// in\ntag_26:\n    /* \"#utility.yul\":749:794   */\n  tag_12\n  jump\t// in\ntag_25:\n    /* \"#utility.yul\":744:747   */\n  dup3\n    /* \"#utility.yul\":737:795   */\n  mstore\n    /* \"#utility.yul\":644:801   */\n  pop\n  pop\n  jump\t// out\n    /* \"#utility.yul\":807:1063   */\ntag_7:\n    /* \"#utility.yul\":919:922   */\n  0x00\n    /* \"#utility.yul\":934:1009   */\n  tag_28\n    /* \"#utility.yul\":1005:1008   */\n  dup3\n    /* \"#utility.yul\":996:1002   */\n  dup5\n    /* \"#utility.yul\":934:1009   */\n  tag_13\n  jump\t// in\ntag_28:\n    /* \"#utility.yul\":1034:1036   */\n  0x20\n    /* \"#utility.yul\":1029:1032   */\n  dup3\n    /* \"#utility.yul\":1025:1037   */\n  add\n    /* \"#utility.yul\":1018:1037   */\n  swap2\n  pop\n    /* \"#utility.yul\":1054:1057   */\n  dup2\n    /* \"#utility.yul\":1047:1057   */\n  swap1\n  pop\n    /* \"#utility.yul\":807:1063   */\n  swap3\n  swap2\n  pop\n  pop\n  jump\t// out\n    /* \"modi/ree.sol\":427:1714  contract reentrancy{... */\ntag_8:\n  dataSize(sub_0)\n  dup1\n  dataOffset(sub_0)\n  0x00\n  codecopy\n  0x00\n  return\nstop\n\nsub_0: assembly {\n        /* \"modi/ree.sol\":427:1714  contract reentrancy{... */\n      mstore(0x40, 0x80)\n      callvalue\n      dup1\n      iszero\n      tag_1\n      jumpi\n      0x00\n      dup1\n      revert\n    tag_1:\n      pop\n      jumpi(tag_2, lt(calldatasize, 0x04))\n      shr(0xe0, calldataload(0x00))\n      dup1\n      0xadc080d9\n      gt\n      tag_11\n      jumpi\n      dup1\n      0xadc080d9\n      eq\n      tag_7\n      jumpi\n      dup1\n      0xb6b55f25\n      eq\n      tag_8\n      jumpi\n      dup1\n      0xefedc669\n      eq\n      tag_9\n      jumpi\n      dup1\n      0xfa391c64\n      eq\n      tag_10\n      jumpi\n      jump(tag_2)\n    tag_11:\n      dup1\n      0x224b610b\n      eq\n      tag_3\n      jumpi\n      dup1\n      0x2e1a7d4d\n      eq\n      tag_4\n      jumpi\n      dup1\n      0x365b98b2\n      eq\n      tag_5\n      jumpi\n      dup1\n      0x9e3b34bf\n      eq\n      tag_6\n      jumpi\n    tag_2:\n      0x00\n      dup1\n      revert\n        /* \"modi/ree.sol\":575:598  bytes32 public password */\n    tag_3:\n      tag_12\n      tag_13\n      jump\t// in\n    tag_12:\n      mload(0x40)\n      tag_14\n      swap2\n      swap1\n      tag_15\n      jump\t// in\n    tag_14:\n      mload(0x40)\n      dup1\n      swap2\n      sub\n      swap1\n      return\n        /* \"modi/ree.sol\":1097:1308  function withdraw(uint256 amount)public{... */\n    tag_4:\n      tag_16\n      0x04\n      dup1\n      calldatasize\n      sub\n      dup2\n      add\n      swap1\n      tag_17\n      swap2\n      swap1\n      tag_18\n      jump\t// in\n    tag_17:\n      tag_19\n      jump\t// in\n    tag_16:\n      stop\n        /* \"modi/ree.sol\":708:727  User[] public users */\n    tag_5:\n      tag_20\n      0x04\n      dup1\n      calldatasize\n      sub\n      dup2\n      add\n      swap1\n      tag_21\n      swap2\n      swap1\n      tag_18\n      jump\t// in\n    tag_21:\n      tag_22\n      jump\t// in\n    tag_20:\n      mload(0x40)\n      tag_23\n      swap2\n      swap1\n      tag_15\n      jump\t// in\n    tag_23:\n      mload(0x40)\n      dup1\n      swap2\n      sub\n      swap1\n      return\n        /* \"modi/ree.sol\":545:568  uint256 public times =1 */\n    tag_6:\n      tag_24\n      tag_25\n      jump\t// in\n    tag_24:\n      mload(0x40)\n      tag_26\n      swap2\n      swap1\n      tag_27\n      jump\t// in\n    tag_26:\n      mload(0x40)\n      dup1\n      swap2\n      sub\n      swap1\n      return\n        /* \"modi/ree.sol\":605:651  mapping(address => uint256)public depositTimes */\n    tag_7:\n      tag_28\n      0x04\n      dup1\n      calldatasize\n      sub\n      dup2\n      add\n      swap1\n      tag_29\n      swap2\n      swap1\n      tag_30\n      jump\t// in\n    tag_29:\n      tag_31\n      jump\t// in\n    tag_28:\n      mload(0x40)\n      tag_32\n      swap2\n      swap1\n      tag_27\n      jump\t// in\n    tag_32:\n      mload(0x40)\n      dup1\n      swap2\n      sub\n      swap1\n      return\n        /* \"modi/ree.sol\":843:1089  function deposit(uint256 amount)public{... */\n    tag_8:\n      tag_33\n      0x04\n      dup1\n      calldatasize\n      sub\n      dup2\n      add\n      swap1\n      tag_34\n      swap2\n      swap1\n      tag_18\n      jump\t// in\n    tag_34:\n      tag_35\n      jump\t// in\n    tag_33:\n      stop\n        /* \"modi/ree.sol\":518:538  uint256 public score */\n    tag_9:\n      tag_36\n      tag_37\n      jump\t// in\n    tag_36:\n      mload(0x40)\n      tag_38\n      swap2\n      swap1\n      tag_27\n      jump\t// in\n    tag_38:\n      mload(0x40)\n      dup1\n      swap2\n      sub\n      swap1\n      return\n        /* \"modi/ree.sol\":1515:1711  function isCompleted()public{... */\n    tag_10:\n      tag_39\n      tag_40\n      jump\t// in\n    tag_39:\n      stop\n        /* \"modi/ree.sol\":575:598  bytes32 public password */\n    tag_13:\n      sload(0x03)\n      dup2\n      jump\t// out\n        /* \"modi/ree.sol\":1097:1308  function withdraw(uint256 amount)public{... */\n    tag_19:\n        /* \"modi/ree.sol\":1180:1181  0 */\n      0x00\n        /* \"modi/ree.sol\":1155:1167  depositTimes */\n      0x04\n        /* \"modi/ree.sol\":1155:1179  depositTimes[msg.sender] */\n      0x00\n        /* \"modi/ree.sol\":1168:1178  msg.sender */\n      caller\n        /* \"modi/ree.sol\":1155:1179  depositTimes[msg.sender] */\n      0xffffffffffffffffffffffffffffffffffffffff\n      and\n      0xffffffffffffffffffffffffffffffffffffffff\n      and\n      dup2\n      mstore\n      0x20\n      add\n      swap1\n      dup2\n      mstore\n      0x20\n      add\n      0x00\n      keccak256\n      sload\n        /* \"modi/ree.sol\":1155:1181  depositTimes[msg.sender]>0 */\n      gt\n        /* \"modi/ree.sol\":1147:1182  require(depositTimes[msg.sender]>0) */\n      tag_42\n      jumpi\n      0x00\n      dup1\n      revert\n    tag_42:\n        /* \"modi/ree.sol\":1204:1209  token */\n      0x00\n      dup1\n      sload\n      swap1\n      0x0100\n      exp\n      swap1\n      div\n      0xffffffffffffffffffffffffffffffffffffffff\n      and\n        /* \"modi/ree.sol\":1193:1219  IERC20like(token).transfer */\n      0xffffffffffffffffffffffffffffffffffffffff\n      and\n      0xa9059cbb\n        /* \"modi/ree.sol\":1220:1230  msg.sender */\n      caller\n        /* \"modi/ree.sol\":1231:1237  amount */\n      dup4\n        /* \"modi/ree.sol\":1193:1238  IERC20like(token).transfer(msg.sender,amount) */\n      mload(0x40)\n      dup4\n      0xffffffff\n      and\n      0xe0\n      shl\n      dup2\n      mstore\n      0x04\n      add\n      tag_43\n      swap3\n      swap2\n      swap1\n      tag_44\n      jump\t// in\n    tag_43:\n      0x20\n      mload(0x40)\n      dup1\n      dup4\n      sub\n      dup2\n      0x00\n      dup8\n      gas\n      call\n      iszero\n      dup1\n      iszero\n      tag_46\n      jumpi\n      returndatasize\n      0x00\n      dup1\n      returndatacopy\n      revert(0x00, returndatasize)\n    tag_46:\n      pop\n      pop\n      pop\n      pop\n      mload(0x40)\n      returndatasize\n      not(0x1f)\n      0x1f\n      dup3\n      add\n      and\n      dup3\n      add\n      dup1\n      0x40\n      mstore\n      pop\n      dup2\n      add\n      swap1\n      tag_47\n      swap2\n      swap1\n      tag_48\n      jump\t// in\n    tag_47:\n      pop\n        /* \"modi/ree.sol\":1275:1281  amount */\n      dup1\n        /* \"modi/ree.sol\":1249:1261  depositTimes */\n      0x04\n        /* \"modi/ree.sol\":1249:1273  depositTimes[msg.sender] */\n      0x00\n        /* \"modi/ree.sol\":1262:1272  msg.sender */\n      caller\n        /* \"modi/ree.sol\":1249:1273  depositTimes[msg.sender] */\n      0xffffffffffffffffffffffffffffffffffffffff\n      and\n      0xffffffffffffffffffffffffffffffffffffffff\n      and\n      dup2\n      mstore\n      0x20\n      add\n      swap1\n      dup2\n      mstore\n      0x20\n      add\n      0x00\n      keccak256\n      0x00\n        /* \"modi/ree.sol\":1249:1281  depositTimes[msg.sender]-=amount */\n      dup3\n      dup3\n      sload\n      tag_49\n      swap2\n      swap1\n      tag_50\n      jump\t// in\n    tag_49:\n      swap3\n      pop\n      pop\n      dup2\n      swap1\n      sstore\n      pop\n        /* \"modi/ree.sol\":1299:1300  1 */\n      0x01\n        /* \"modi/ree.sol\":1292:1297  times */\n      0x02\n      0x00\n        /* \"modi/ree.sol\":1292:1300  times-=1 */\n      dup3\n      dup3\n      sload\n      tag_51\n      swap2\n      swap1\n      tag_50\n      jump\t// in\n    tag_51:\n      swap3\n      pop\n      pop\n      dup2\n      swap1\n      sstore\n      pop\n        /* \"modi/ree.sol\":1097:1308  function withdraw(uint256 amount)public{... */\n      pop\n      jump\t// out\n        /* \"modi/ree.sol\":708:727  User[] public users */\n    tag_22:\n      0x05\n      dup2\n      dup2\n      sload\n      dup2\n      lt\n      tag_52\n      jumpi\n      0x00\n      dup1\n      revert\n    tag_52:\n      swap1\n      0x00\n      mstore\n      keccak256(0x00, 0x20)\n      add\n      0x00\n      swap2\n      pop\n      swap1\n      pop\n      dup1\n      0x00\n      add\n      sload\n      swap1\n      pop\n      dup2\n      jump\t// out\n        /* \"modi/ree.sol\":545:568  uint256 public times =1 */\n    tag_25:\n      sload(0x02)\n      dup2\n      jump\t// out\n        /* \"modi/ree.sol\":605:651  mapping(address => uint256)public depositTimes */\n    tag_31:\n      mstore(0x20, 0x04)\n      dup1\n      0x00\n      mstore\n      keccak256(0x00, 0x40)\n      0x00\n      swap2\n      pop\n      swap1\n      pop\n      sload\n      dup2\n      jump\t// out\n        /* \"modi/ree.sol\":843:1089  function deposit(uint256 amount)public{... */\n    tag_35:\n        /* \"modi/ree.sol\":918:919  1 */\n      0x01\n        /* \"modi/ree.sol\":892:904  depositTimes */\n      0x04\n        /* \"modi/ree.sol\":892:916  depositTimes[msg.sender] */\n      0x00\n        /* \"modi/ree.sol\":905:915  msg.sender */\n      caller\n        /* \"modi/ree.sol\":892:916  depositTimes[msg.sender] */\n      0xffffffffffffffffffffffffffffffffffffffff\n      and\n      0xffffffffffffffffffffffffffffffffffffffff\n      and\n      dup2\n      mstore\n      0x20\n      add\n      swap1\n      dup2\n      mstore\n      0x20\n      add\n      0x00\n      keccak256\n      0x00\n        /* \"modi/ree.sol\":892:919  depositTimes[msg.sender]+=1 */\n      dup3\n      dup3\n      sload\n      tag_55\n      swap2\n      swap1\n      tag_56\n      jump\t// in\n    tag_55:\n      swap3\n      pop\n      pop\n      dup2\n      swap1\n      sstore\n      pop\n        /* \"modi/ree.sol\":978:984  amount */\n      dup1\n        /* \"modi/ree.sol\":949:954  token */\n      0x00\n      dup1\n      sload\n      swap1\n      0x0100\n      exp\n      swap1\n      div\n      0xffffffffffffffffffffffffffffffffffffffff\n      and\n        /* \"modi/ree.sol\":938:965  IERC20like(token).balanceOf */\n      0xffffffffffffffffffffffffffffffffffffffff\n      and\n      0x70a08231\n        /* \"modi/ree.sol\":966:976  msg.sender */\n      caller\n        /* \"modi/ree.sol\":938:977  IERC20like(token).balanceOf(msg.sender) */\n      mload(0x40)\n      dup3\n      0xffffffff\n      and\n      0xe0\n      shl\n      dup2\n      mstore\n      0x04\n      add\n      tag_57\n      swap2\n      swap1\n      tag_58\n      jump\t// in\n    tag_57:\n      0x20\n      mload(0x40)\n      dup1\n      dup4\n      sub\n      dup2\n      0x00\n      dup8\n      gas\n      call\n      iszero\n      dup1\n      iszero\n      tag_60\n      jumpi\n      returndatasize\n      0x00\n      dup1\n      returndatacopy\n      revert(0x00, returndatasize)\n    tag_60:\n      pop\n      pop\n      pop\n      pop\n      mload(0x40)\n      returndatasize\n      not(0x1f)\n      0x1f\n      dup3\n      add\n      and\n      dup3\n      add\n      dup1\n      0x40\n      mstore\n      pop\n      dup2\n      add\n      swap1\n      tag_61\n      swap2\n      swap1\n      tag_62\n      jump\t// in\n    tag_61:\n        /* \"modi/ree.sol\":938:984  IERC20like(token).balanceOf(msg.sender)>amount */\n      gt\n        /* \"modi/ree.sol\":930:988  require(IERC20like(token).balanceOf(msg.sender)>amount,\"\") */\n      tag_63\n      jumpi\n      mload(0x40)\n      0x08c379a000000000000000000000000000000000000000000000000000000000\n      dup2\n      mstore\n      0x04\n      add\n      tag_64\n      swap1\n      tag_65\n      jump\t// in\n    tag_64:\n      mload(0x40)\n      dup1\n      swap2\n      sub\n      swap1\n      revert\n    tag_63:\n        /* \"modi/ree.sol\":1010:1015  token */\n      0x00\n      dup1\n      sload\n      swap1\n      0x0100\n      exp\n      swap1\n      div\n      0xffffffffffffffffffffffffffffffffffffffff\n      and\n        /* \"modi/ree.sol\":999:1029  IERC20like(token).transferFrom */\n      0xffffffffffffffffffffffffffffffffffffffff\n      and\n      0x23b872dd\n        /* \"modi/ree.sol\":1030:1040  msg.sender */\n      caller\n        /* \"modi/ree.sol\":1049:1053  this */\n      address\n        /* \"modi/ree.sol\":1055:1061  amount */\n      dup5\n        /* \"modi/ree.sol\":999:1062  IERC20like(token).transferFrom(msg.sender,address(this),amount) */\n      mload(0x40)\n      dup5\n      0xffffffff\n      and\n      0xe0\n      shl\n      dup2\n      mstore\n      0x04\n      add\n      tag_66\n      swap4\n      swap3\n      swap2\n      swap1\n      tag_67\n      jump\t// in\n    tag_66:\n      0x20\n      mload(0x40)\n      dup1\n      dup4\n      sub\n      dup2\n      0x00\n      dup8\n      gas\n      call\n      iszero\n      dup1\n      iszero\n      tag_69\n      jumpi\n      returndatasize\n      0x00\n      dup1\n      returndatacopy\n      revert(0x00, returndatasize)\n    tag_69:\n      pop\n      pop\n      pop\n      pop\n      mload(0x40)\n      returndatasize\n      not(0x1f)\n      0x1f\n      dup3\n      add\n      and\n      dup3\n      add\n      dup1\n      0x40\n      mstore\n      pop\n      dup2\n      add\n      swap1\n      tag_70\n      swap2\n      swap1\n      tag_48\n      jump\t// in\n    tag_70:\n      pop\n        /* \"modi/ree.sol\":1080:1081  1 */\n      0x01\n        /* \"modi/ree.sol\":1073:1078  times */\n      0x02\n      0x00\n        /* \"modi/ree.sol\":1073:1081  times+=1 */\n      dup3\n      dup3\n      sload\n      tag_71\n      swap2\n      swap1\n      tag_56\n      jump\t// in\n    tag_71:\n      swap3\n      pop\n      pop\n      dup2\n      swap1\n      sstore\n      pop\n        /* \"modi/ree.sol\":843:1089  function deposit(uint256 amount)public{... */\n      pop\n      jump\t// out\n        /* \"modi/ree.sol\":518:538  uint256 public score */\n    tag_37:\n      sload(0x01)\n      dup2\n      jump\t// out\n        /* \"modi/ree.sol\":1515:1711  function isCompleted()public{... */\n    tag_40:\n        /* \"modi/ree.sol\":1567:1609  0xd9145CCE52D386f254917e481eB44e9943F39138 */\n      0xd9145cce52d386f254917e481eb44e9943f39138\n        /* \"modi/ree.sol\":1558:1609  token != 0xd9145CCE52D386f254917e481eB44e9943F39138 */\n      0xffffffffffffffffffffffffffffffffffffffff\n      and\n        /* \"modi/ree.sol\":1558:1563  token */\n      0x00\n      dup1\n      sload\n      swap1\n      0x0100\n      exp\n      swap1\n      div\n      0xffffffffffffffffffffffffffffffffffffffff\n      and\n        /* \"modi/ree.sol\":1558:1609  token != 0xd9145CCE52D386f254917e481eB44e9943F39138 */\n      0xffffffffffffffffffffffffffffffffffffffff\n      and\n      eq\n        /* \"modi/ree.sol\":1554:1646  if (token != 0xd9145CCE52D386f254917e481eB44e9943F39138){... */\n      tag_73\n      jumpi\n        /* \"modi/ree.sol\":1632:1634  25 */\n      0x19\n        /* \"modi/ree.sol\":1625:1630  score */\n      0x01\n      0x00\n        /* \"modi/ree.sol\":1625:1634  score+=25 */\n      dup3\n      dup3\n      sload\n      tag_74\n      swap2\n      swap1\n      tag_56\n      jump\t// in\n    tag_74:\n      swap3\n      pop\n      pop\n      dup2\n      swap1\n      sstore\n      pop\n        /* \"modi/ree.sol\":1554:1646  if (token != 0xd9145CCE52D386f254917e481eB44e9943F39138){... */\n    tag_73:\n        /* \"modi/ree.sol\":1666:1667  0 */\n      0x00\n        /* \"modi/ree.sol\":1659:1664  times */\n      sload(0x02)\n        /* \"modi/ree.sol\":1659:1667  times==0 */\n      sub\n        /* \"modi/ree.sol\":1656:1704  if(times==0){... */\n      tag_75\n      jumpi\n        /* \"modi/ree.sol\":1690:1692  75 */\n      0x4b\n        /* \"modi/ree.sol\":1683:1688  score */\n      0x01\n      0x00\n        /* \"modi/ree.sol\":1683:1692  score+=75 */\n      dup3\n      dup3\n      sload\n      tag_76\n      swap2\n      swap1\n      tag_56\n      jump\t// in\n    tag_76:\n      swap3\n      pop\n      pop\n      dup2\n      swap1\n      sstore\n      pop\n        /* \"modi/ree.sol\":1656:1704  if(times==0){... */\n    tag_75:\n        /* \"modi/ree.sol\":1515:1711  function isCompleted()public{... */\n      jump\t// out\n        /* \"#utility.yul\":7:84   */\n    tag_77:\n        /* \"#utility.yul\":44:51   */\n      0x00\n        /* \"#utility.yul\":73:78   */\n      dup2\n        /* \"#utility.yul\":62:78   */\n      swap1\n      pop\n        /* \"#utility.yul\":7:84   */\n      swap2\n      swap1\n      pop\n      jump\t// out\n        /* \"#utility.yul\":90:208   */\n    tag_78:\n        /* \"#utility.yul\":177:201   */\n      tag_102\n        /* \"#utility.yul\":195:200   */\n      dup2\n        /* \"#utility.yul\":177:201   */\n      tag_77\n      jump\t// in\n    tag_102:\n        /* \"#utility.yul\":172:175   */\n      dup3\n        /* \"#utility.yul\":165:202   */\n      mstore\n        /* \"#utility.yul\":90:208   */\n      pop\n      pop\n      jump\t// out\n        /* \"#utility.yul\":214:436   */\n    tag_15:\n        /* \"#utility.yul\":307:311   */\n      0x00\n        /* \"#utility.yul\":345:347   */\n      0x20\n        /* \"#utility.yul\":334:343   */\n      dup3\n        /* \"#utility.yul\":330:348   */\n      add\n        /* \"#utility.yul\":322:348   */\n      swap1\n      pop\n        /* \"#utility.yul\":358:429   */\n      tag_104\n        /* \"#utility.yul\":426:427   */\n      0x00\n        /* \"#utility.yul\":415:424   */\n      dup4\n        /* \"#utility.yul\":411:428   */\n      add\n        /* \"#utility.yul\":402:408   */\n      dup5\n        /* \"#utility.yul\":358:429   */\n      tag_78\n      jump\t// in\n    tag_104:\n        /* \"#utility.yul\":214:436   */\n      swap3\n      swap2\n      pop\n      pop\n      jump\t// out\n        /* \"#utility.yul\":523:640   */\n    tag_80:\n        /* \"#utility.yul\":632:633   */\n      0x00\n        /* \"#utility.yul\":629:630   */\n      dup1\n        /* \"#utility.yul\":622:634   */\n      revert\n        /* \"#utility.yul\":769:846   */\n    tag_82:\n        /* \"#utility.yul\":806:813   */\n      0x00\n        /* \"#utility.yul\":835:840   */\n      dup2\n        /* \"#utility.yul\":824:840   */\n      swap1\n      pop\n        /* \"#utility.yul\":769:846   */\n      swap2\n      swap1\n      pop\n      jump\t// out\n        /* \"#utility.yul\":852:974   */\n    tag_83:\n        /* \"#utility.yul\":925:949   */\n      tag_110\n        /* \"#utility.yul\":943:948   */\n      dup2\n        /* \"#utility.yul\":925:949   */\n      tag_82\n      jump\t// in\n    tag_110:\n        /* \"#utility.yul\":918:923   */\n      dup2\n        /* \"#utility.yul\":915:950   */\n      eq\n        /* \"#utility.yul\":905:968   */\n      tag_111\n      jumpi\n        /* \"#utility.yul\":964:965   */\n      0x00\n        /* \"#utility.yul\":961:962   */\n      dup1\n        /* \"#utility.yul\":954:966   */\n      revert\n        /* \"#utility.yul\":905:968   */\n    tag_111:\n        /* \"#utility.yul\":852:974   */\n      pop\n      jump\t// out\n        /* \"#utility.yul\":980:1119   */\n    tag_84:\n        /* \"#utility.yul\":1026:1031   */\n      0x00\n        /* \"#utility.yul\":1064:1070   */\n      dup2\n        /* \"#utility.yul\":1051:1071   */\n      calldataload\n        /* \"#utility.yul\":1042:1071   */\n      swap1\n      pop\n        /* \"#utility.yul\":1080:1113   */\n      tag_113\n        /* \"#utility.yul\":1107:1112   */\n      dup2\n        /* \"#utility.yul\":1080:1113   */\n      tag_83\n      jump\t// in\n    tag_113:\n        /* \"#utility.yul\":980:1119   */\n      swap3\n      swap2\n      pop\n      pop\n      jump\t// out\n        /* \"#utility.yul\":1125:1454   */\n    tag_18:\n        /* \"#utility.yul\":1184:1190   */\n      0x00\n        /* \"#utility.yul\":1233:1235   */\n      0x20\n        /* \"#utility.yul\":1221:1230   */\n      dup3\n        /* \"#utility.yul\":1212:1219   */\n      dup5\n        /* \"#utility.yul\":1208:1231   */\n      sub\n        /* \"#utility.yul\":1204:1236   */\n      slt\n        /* \"#utility.yul\":1201:1320   */\n      iszero\n      tag_115\n      jumpi\n        /* \"#utility.yul\":1239:1318   */\n      tag_116\n      tag_80\n      jump\t// in\n    tag_116:\n        /* \"#utility.yul\":1201:1320   */\n    tag_115:\n        /* \"#utility.yul\":1359:1360   */\n      0x00\n        /* \"#utility.yul\":1384:1437   */\n      tag_117\n        /* \"#utility.yul\":1429:1436   */\n      dup5\n        /* \"#utility.yul\":1420:1426   */\n      dup3\n        /* \"#utility.yul\":1409:1418   */\n      dup6\n        /* \"#utility.yul\":1405:1427   */\n      add\n        /* \"#utility.yul\":1384:1437   */\n      tag_84\n      jump\t// in\n    tag_117:\n        /* \"#utility.yul\":1374:1437   */\n      swap2\n      pop\n        /* \"#utility.yul\":1330:1447   */\n      pop\n        /* \"#utility.yul\":1125:1454   */\n      swap3\n      swap2\n      pop\n      pop\n      jump\t// out\n        /* \"#utility.yul\":1460:1578   */\n    tag_85:\n        /* \"#utility.yul\":1547:1571   */\n      tag_119\n        /* \"#utility.yul\":1565:1570   */\n      dup2\n        /* \"#utility.yul\":1547:1571   */\n      tag_82\n      jump\t// in\n    tag_119:\n        /* \"#utility.yul\":1542:1545   */\n      dup3\n        /* \"#utility.yul\":1535:1572   */\n      mstore\n        /* \"#utility.yul\":1460:1578   */\n      pop\n      pop\n      jump\t// out\n        /* \"#utility.yul\":1584:1806   */\n    tag_27:\n        /* \"#utility.yul\":1677:1681   */\n      0x00\n        /* \"#utility.yul\":1715:1717   */\n      0x20\n        /* \"#utility.yul\":1704:1713   */\n      dup3\n        /* \"#utility.yul\":1700:1718   */\n      add\n        /* \"#utility.yul\":1692:1718   */\n      swap1\n      pop\n        /* \"#utility.yul\":1728:1799   */\n      tag_121\n        /* \"#utility.yul\":1796:1797   */\n      0x00\n        /* \"#utility.yul\":1785:1794   */\n      dup4\n        /* \"#utility.yul\":1781:1798   */\n      add\n        /* \"#utility.yul\":1772:1778   */\n      dup5\n        /* \"#utility.yul\":1728:1799   */\n      tag_85\n      jump\t// in\n    tag_121:\n        /* \"#utility.yul\":1584:1806   */\n      swap3\n      swap2\n      pop\n      pop\n      jump\t// out\n        /* \"#utility.yul\":1812:1938   */\n    tag_86:\n        /* \"#utility.yul\":1849:1856   */\n      0x00\n        /* \"#utility.yul\":1889:1931   */\n      0xffffffffffffffffffffffffffffffffffffffff\n        /* \"#utility.yul\":1882:1887   */\n      dup3\n        /* \"#utility.yul\":1878:1932   */\n      and\n        /* \"#utility.yul\":1867:1932   */\n      swap1\n      pop\n        /* \"#utility.yul\":1812:1938   */\n      swap2\n      swap1\n      pop\n      jump\t// out\n        /* \"#utility.yul\":1944:2040   */\n    tag_87:\n        /* \"#utility.yul\":1981:1988   */\n      0x00\n        /* \"#utility.yul\":2010:2034   */\n      tag_124\n        /* \"#utility.yul\":2028:2033   */\n      dup3\n        /* \"#utility.yul\":2010:2034   */\n      tag_86\n      jump\t// in\n    tag_124:\n        /* \"#utility.yul\":1999:2034   */\n      swap1\n      pop\n        /* \"#utility.yul\":1944:2040   */\n      swap2\n      swap1\n      pop\n      jump\t// out\n        /* \"#utility.yul\":2046:2168   */\n    tag_88:\n        /* \"#utility.yul\":2119:2143   */\n      tag_126\n        /* \"#utility.yul\":2137:2142   */\n      dup2\n        /* \"#utility.yul\":2119:2143   */\n      tag_87\n      jump\t// in\n    tag_126:\n        /* \"#utility.yul\":2112:2117   */\n      dup2\n        /* \"#utility.yul\":2109:2144   */\n      eq\n        /* \"#utility.yul\":2099:2162   */\n      tag_127\n      jumpi\n        /* \"#utility.yul\":2158:2159   */\n      0x00\n        /* \"#utility.yul\":2155:2156   */\n      dup1\n        /* \"#utility.yul\":2148:2160   */\n      revert\n        /* \"#utility.yul\":2099:2162   */\n    tag_127:\n        /* \"#utility.yul\":2046:2168   */\n      pop\n      jump\t// out\n        /* \"#utility.yul\":2174:2313   */\n    tag_89:\n        /* \"#utility.yul\":2220:2225   */\n      0x00\n        /* \"#utility.yul\":2258:2264   */\n      dup2\n        /* \"#utility.yul\":2245:2265   */\n      calldataload\n        /* \"#utility.yul\":2236:2265   */\n      swap1\n      pop\n        /* \"#utility.yul\":2274:2307   */\n      tag_129\n        /* \"#utility.yul\":2301:2306   */\n      dup2\n        /* \"#utility.yul\":2274:2307   */\n      tag_88\n      jump\t// in\n    tag_129:\n        /* \"#utility.yul\":2174:2313   */\n      swap3\n      swap2\n      pop\n      pop\n      jump\t// out\n        /* \"#utility.yul\":2319:2648   */\n    tag_30:\n        /* \"#utility.yul\":2378:2384   */\n      0x00\n        /* \"#utility.yul\":2427:2429   */\n      0x20\n        /* \"#utility.yul\":2415:2424   */\n      dup3\n        /* \"#utility.yul\":2406:2413   */\n      dup5\n        /* \"#utility.yul\":2402:2425   */\n      sub\n        /* \"#utility.yul\":2398:2430   */\n      slt\n        /* \"#utility.yul\":2395:2514   */\n      iszero\n      tag_131\n      jumpi\n        /* \"#utility.yul\":2433:2512   */\n      tag_132\n      tag_80\n      jump\t// in\n    tag_132:\n        /* \"#utility.yul\":2395:2514   */\n    tag_131:\n        /* \"#utility.yul\":2553:2554   */\n      0x00\n        /* \"#utility.yul\":2578:2631   */\n      tag_133\n        /* \"#utility.yul\":2623:2630   */\n      dup5\n        /* \"#utility.yul\":2614:2620   */\n      dup3\n        /* \"#utility.yul\":2603:2612   */\n      dup6\n        /* \"#utility.yul\":2599:2621   */\n      add\n        /* \"#utility.yul\":2578:2631   */\n      tag_89\n      jump\t// in\n    tag_133:\n        /* \"#utility.yul\":2568:2631   */\n      swap2\n      pop\n        /* \"#utility.yul\":2524:2641   */\n      pop\n        /* \"#utility.yul\":2319:2648   */\n      swap3\n      swap2\n      pop\n      pop\n      jump\t// out\n        /* \"#utility.yul\":2654:2772   */\n    tag_90:\n        /* \"#utility.yul\":2741:2765   */\n      tag_135\n        /* \"#utility.yul\":2759:2764   */\n      dup2\n        /* \"#utility.yul\":2741:2765   */\n      tag_87\n      jump\t// in\n    tag_135:\n        /* \"#utility.yul\":2736:2739   */\n      dup3\n        /* \"#utility.yul\":2729:2766   */\n      mstore\n        /* \"#utility.yul\":2654:2772   */\n      pop\n      pop\n      jump\t// out\n        /* \"#utility.yul\":2778:3110   */\n    tag_44:\n        /* \"#utility.yul\":2899:2903   */\n      0x00\n        /* \"#utility.yul\":2937:2939   */\n      0x40\n        /* \"#utility.yul\":2926:2935   */\n      dup3\n        /* \"#utility.yul\":2922:2940   */\n      add\n        /* \"#utility.yul\":2914:2940   */\n      swap1\n      pop\n        /* \"#utility.yul\":2950:3021   */\n      tag_137\n        /* \"#utility.yul\":3018:3019   */\n      0x00\n        /* \"#utility.yul\":3007:3016   */\n      dup4\n        /* \"#utility.yul\":3003:3020   */\n      add\n        /* \"#utility.yul\":2994:3000   */\n      dup6\n        /* \"#utility.yul\":2950:3021   */\n      tag_90\n      jump\t// in\n    tag_137:\n        /* \"#utility.yul\":3031:3103   */\n      tag_138\n        /* \"#utility.yul\":3099:3101   */\n      0x20\n        /* \"#utility.yul\":3088:3097   */\n      dup4\n        /* \"#utility.yul\":3084:3102   */\n      add\n        /* \"#utility.yul\":3075:3081   */\n      dup5\n        /* \"#utility.yul\":3031:3103   */\n      tag_85\n      jump\t// in\n    tag_138:\n        /* \"#utility.yul\":2778:3110   */\n      swap4\n      swap3\n      pop\n      pop\n      pop\n      jump\t// out\n        /* \"#utility.yul\":3116:3206   */\n    tag_91:\n        /* \"#utility.yul\":3150:3157   */\n      0x00\n        /* \"#utility.yul\":3193:3198   */\n      dup2\n        /* \"#utility.yul\":3186:3199   */\n      iszero\n        /* \"#utility.yul\":3179:3200   */\n      iszero\n        /* \"#utility.yul\":3168:3200   */\n      swap1\n      pop\n        /* \"#utility.yul\":3116:3206   */\n      swap2\n      swap1\n      pop\n      jump\t// out\n        /* \"#utility.yul\":3212:3328   */\n    tag_92:\n        /* \"#utility.yul\":3282:3303   */\n      tag_141\n        /* \"#utility.yul\":3297:3302   */\n      dup2\n        /* \"#utility.yul\":3282:3303   */\n      tag_91\n      jump\t// in\n    tag_141:\n        /* \"#utility.yul\":3275:3280   */\n      dup2\n        /* \"#utility.yul\":3272:3304   */\n      eq\n        /* \"#utility.yul\":3262:3322   */\n      tag_142\n      jumpi\n        /* \"#utility.yul\":3318:3319   */\n      0x00\n        /* \"#utility.yul\":3315:3316   */\n      dup1\n        /* \"#utility.yul\":3308:3320   */\n      revert\n        /* \"#utility.yul\":3262:3322   */\n    tag_142:\n        /* \"#utility.yul\":3212:3328   */\n      pop\n      jump\t// out\n        /* \"#utility.yul\":3334:3471   */\n    tag_93:\n        /* \"#utility.yul\":3388:3393   */\n      0x00\n        /* \"#utility.yul\":3419:3425   */\n      dup2\n        /* \"#utility.yul\":3413:3426   */\n      mload\n        /* \"#utility.yul\":3404:3426   */\n      swap1\n      pop\n        /* \"#utility.yul\":3435:3465   */\n      tag_144\n        /* \"#utility.yul\":3459:3464   */\n      dup2\n        /* \"#utility.yul\":3435:3465   */\n      tag_92\n      jump\t// in\n    tag_144:\n        /* \"#utility.yul\":3334:3471   */\n      swap3\n      swap2\n      pop\n      pop\n      jump\t// out\n        /* \"#utility.yul\":3477:3822   */\n    tag_48:\n        /* \"#utility.yul\":3544:3550   */\n      0x00\n        /* \"#utility.yul\":3593:3595   */\n      0x20\n        /* \"#utility.yul\":3581:3590   */\n      dup3\n        /* \"#utility.yul\":3572:3579   */\n      dup5\n        /* \"#utility.yul\":3568:3591   */\n      sub\n        /* \"#utility.yul\":3564:3596   */\n      slt\n        /* \"#utility.yul\":3561:3680   */\n      iszero\n      tag_146\n      jumpi\n        /* \"#utility.yul\":3599:3678   */\n      tag_147\n      tag_80\n      jump\t// in\n    tag_147:\n        /* \"#utility.yul\":3561:3680   */\n    tag_146:\n        /* \"#utility.yul\":3719:3720   */\n      0x00\n        /* \"#utility.yul\":3744:3805   */\n      tag_148\n        /* \"#utility.yul\":3797:3804   */\n      dup5\n        /* \"#utility.yul\":3788:3794   */\n      dup3\n        /* \"#utility.yul\":3777:3786   */\n      dup6\n        /* \"#utility.yul\":3773:3795   */\n      add\n        /* \"#utility.yul\":3744:3805   */\n      tag_93\n      jump\t// in\n    tag_148:\n        /* \"#utility.yul\":3734:3805   */\n      swap2\n      pop\n        /* \"#utility.yul\":3690:3815   */\n      pop\n        /* \"#utility.yul\":3477:3822   */\n      swap3\n      swap2\n      pop\n      pop\n      jump\t// out\n        /* \"#utility.yul\":3828:4008   */\n    tag_94:\n        /* \"#utility.yul\":3876:3953   */\n      0x4e487b7100000000000000000000000000000000000000000000000000000000\n        /* \"#utility.yul\":3873:3874   */\n      0x00\n        /* \"#utility.yul\":3866:3954   */\n      mstore\n        /* \"#utility.yul\":3973:3977   */\n      0x11\n        /* \"#utility.yul\":3970:3971   */\n      0x04\n        /* \"#utility.yul\":3963:3978   */\n      mstore\n        /* \"#utility.yul\":3997:4001   */\n      0x24\n        /* \"#utility.yul\":3994:3995   */\n      0x00\n        /* \"#utility.yul\":3987:4002   */\n      revert\n        /* \"#utility.yul\":4014:4208   */\n    tag_50:\n        /* \"#utility.yul\":4054:4058   */\n      0x00\n        /* \"#utility.yul\":4074:4094   */\n      tag_151\n        /* \"#utility.yul\":4092:4093   */\n      dup3\n        /* \"#utility.yul\":4074:4094   */\n      tag_82\n      jump\t// in\n    tag_151:\n        /* \"#utility.yul\":4069:4094   */\n      swap2\n      pop\n        /* \"#utility.yul\":4108:4128   */\n      tag_152\n        /* \"#utility.yul\":4126:4127   */\n      dup4\n        /* \"#utility.yul\":4108:4128   */\n      tag_82\n      jump\t// in\n    tag_152:\n        /* \"#utility.yul\":4103:4128   */\n      swap3\n      pop\n        /* \"#utility.yul\":4152:4153   */\n      dup3\n        /* \"#utility.yul\":4149:4150   */\n      dup3\n        /* \"#utility.yul\":4145:4154   */\n      sub\n        /* \"#utility.yul\":4137:4154   */\n      swap1\n      pop\n        /* \"#utility.yul\":4176:4177   */\n      dup2\n        /* \"#utility.yul\":4170:4174   */\n      dup2\n        /* \"#utility.yul\":4167:4178   */\n      gt\n        /* \"#utility.yul\":4164:4201   */\n      iszero\n      tag_153\n      jumpi\n        /* \"#utility.yul\":4181:4199   */\n      tag_154\n      tag_94\n      jump\t// in\n    tag_154:\n        /* \"#utility.yul\":4164:4201   */\n    tag_153:\n        /* \"#utility.yul\":4014:4208   */\n      swap3\n      swap2\n      pop\n      pop\n      jump\t// out\n        /* \"#utility.yul\":4214:4405   */\n    tag_56:\n        /* \"#utility.yul\":4254:4257   */\n      0x00\n        /* \"#utility.yul\":4273:4293   */\n      tag_156\n        /* \"#utility.yul\":4291:4292   */\n      dup3\n        /* \"#utility.yul\":4273:4293   */\n      tag_82\n      jump\t// in\n    tag_156:\n        /* \"#utility.yul\":4268:4293   */\n      swap2\n      pop\n        /* \"#utility.yul\":4307:4327   */\n      tag_157\n        /* \"#utility.yul\":4325:4326   */\n      dup4\n        /* \"#utility.yul\":4307:4327   */\n      tag_82\n      jump\t// in\n    tag_157:\n        /* \"#utility.yul\":4302:4327   */\n      swap3\n      pop\n        /* \"#utility.yul\":4350:4351   */\n      dup3\n        /* \"#utility.yul\":4347:4348   */\n      dup3\n        /* \"#utility.yul\":4343:4352   */\n      add\n        /* \"#utility.yul\":4336:4352   */\n      swap1\n      pop\n        /* \"#utility.yul\":4371:4374   */\n      dup1\n        /* \"#utility.yul\":4368:4369   */\n      dup3\n        /* \"#utility.yul\":4365:4375   */\n      gt\n        /* \"#utility.yul\":4362:4398   */\n      iszero\n      tag_158\n      jumpi\n        /* \"#utility.yul\":4378:4396   */\n      tag_159\n      tag_94\n      jump\t// in\n    tag_159:\n        /* \"#utility.yul\":4362:4398   */\n    tag_158:\n        /* \"#utility.yul\":4214:4405   */\n      swap3\n      swap2\n      pop\n      pop\n      jump\t// out\n        /* \"#utility.yul\":4411:4633   */\n    tag_58:\n        /* \"#utility.yul\":4504:4508   */\n      0x00\n        /* \"#utility.yul\":4542:4544   */\n      0x20\n        /* \"#utility.yul\":4531:4540   */\n      dup3\n        /* \"#utility.yul\":4527:4545   */\n      add\n        /* \"#utility.yul\":4519:4545   */\n      swap1\n      pop\n        /* \"#utility.yul\":4555:4626   */\n      tag_161\n        /* \"#utility.yul\":4623:4624   */\n      0x00\n        /* \"#utility.yul\":4612:4621   */\n      dup4\n        /* \"#utility.yul\":4608:4625   */\n      add\n        /* \"#utility.yul\":4599:4605   */\n      dup5\n        /* \"#utility.yul\":4555:4626   */\n      tag_90\n      jump\t// in\n    tag_161:\n        /* \"#utility.yul\":4411:4633   */\n      swap3\n      swap2\n      pop\n      pop\n      jump\t// out\n        /* \"#utility.yul\":4639:4782   */\n    tag_95:\n        /* \"#utility.yul\":4696:4701   */\n      0x00\n        /* \"#utility.yul\":4727:4733   */\n      dup2\n        /* \"#utility.yul\":4721:4734   */\n      mload\n        /* \"#utility.yul\":4712:4734   */\n      swap1\n      pop\n        /* \"#utility.yul\":4743:4776   */\n      tag_163\n        /* \"#utility.yul\":4770:4775   */\n      dup2\n        /* \"#utility.yul\":4743:4776   */\n      tag_83\n      jump\t// in\n    tag_163:\n        /* \"#utility.yul\":4639:4782   */\n      swap3\n      swap2\n      pop\n      pop\n      jump\t// out\n        /* \"#utility.yul\":4788:5139   */\n    tag_62:\n        /* \"#utility.yul\":4858:4864   */\n      0x00\n        /* \"#utility.yul\":4907:4909   */\n      0x20\n        /* \"#utility.yul\":4895:4904   */\n      dup3\n        /* \"#utility.yul\":4886:4893   */\n      dup5\n        /* \"#utility.yul\":4882:4905   */\n      sub\n        /* \"#utility.yul\":4878:4910   */\n      slt\n        /* \"#utility.yul\":4875:4994   */\n      iszero\n      tag_165\n      jumpi\n        /* \"#utility.yul\":4913:4992   */\n      tag_166\n      tag_80\n      jump\t// in\n    tag_166:\n        /* \"#utility.yul\":4875:4994   */\n    tag_165:\n        /* \"#utility.yul\":5033:5034   */\n      0x00\n        /* \"#utility.yul\":5058:5122   */\n      tag_167\n        /* \"#utility.yul\":5114:5121   */\n      dup5\n        /* \"#utility.yul\":5105:5111   */\n      dup3\n        /* \"#utility.yul\":5094:5103   */\n      dup6\n        /* \"#utility.yul\":5090:5112   */\n      add\n        /* \"#utility.yul\":5058:5122   */\n      tag_95\n      jump\t// in\n    tag_167:\n        /* \"#utility.yul\":5048:5122   */\n      swap2\n      pop\n        /* \"#utility.yul\":5004:5132   */\n      pop\n        /* \"#utility.yul\":4788:5139   */\n      swap3\n      swap2\n      pop\n      pop\n      jump\t// out\n        /* \"#utility.yul\":5145:5314   */\n    tag_96:\n        /* \"#utility.yul\":5229:5240   */\n      0x00\n        /* \"#utility.yul\":5263:5269   */\n      dup3\n        /* \"#utility.yul\":5258:5261   */\n      dup3\n        /* \"#utility.yul\":5251:5270   */\n      mstore\n        /* \"#utility.yul\":5303:5307   */\n      0x20\n        /* \"#utility.yul\":5298:5301   */\n      dup3\n        /* \"#utility.yul\":5294:5308   */\n      add\n        /* \"#utility.yul\":5279:5308   */\n      swap1\n      pop\n        /* \"#utility.yul\":5145:5314   */\n      swap3\n      swap2\n      pop\n      pop\n      jump\t// out\n        /* \"#utility.yul\":5320:5434   */\n    tag_97:\n      pop\n      jump\t// out\n        /* \"#utility.yul\":5440:5804   */\n    tag_98:\n        /* \"#utility.yul\":5582:5585   */\n      0x00\n        /* \"#utility.yul\":5603:5669   */\n      tag_171\n        /* \"#utility.yul\":5667:5668   */\n      0x00\n        /* \"#utility.yul\":5662:5665   */\n      dup4\n        /* \"#utility.yul\":5603:5669   */\n      tag_96\n      jump\t// in\n    tag_171:\n        /* \"#utility.yul\":5596:5669   */\n      swap2\n      pop\n        /* \"#utility.yul\":5678:5771   */\n      tag_172\n        /* \"#utility.yul\":5767:5770   */\n      dup3\n        /* \"#utility.yul\":5678:5771   */\n      tag_97\n      jump\t// in\n    tag_172:\n        /* \"#utility.yul\":5796:5797   */\n      0x00\n        /* \"#utility.yul\":5791:5794   */\n      dup3\n        /* \"#utility.yul\":5787:5798   */\n      add\n        /* \"#utility.yul\":5780:5798   */\n      swap1\n      pop\n        /* \"#utility.yul\":5440:5804   */\n      swap2\n      swap1\n      pop\n      jump\t// out\n        /* \"#utility.yul\":5810:6229   */\n    tag_65:\n        /* \"#utility.yul\":5976:5980   */\n      0x00\n        /* \"#utility.yul\":6014:6016   */\n      0x20\n        /* \"#utility.yul\":6003:6012   */\n      dup3\n        /* \"#utility.yul\":5999:6017   */\n      add\n        /* \"#utility.yul\":5991:6017   */\n      swap1\n      pop\n        /* \"#utility.yul\":6063:6072   */\n      dup2\n        /* \"#utility.yul\":6057:6061   */\n      dup2\n        /* \"#utility.yul\":6053:6073   */\n      sub\n        /* \"#utility.yul\":6049:6050   */\n      0x00\n        /* \"#utility.yul\":6038:6047   */\n      dup4\n        /* \"#utility.yul\":6034:6051   */\n      add\n        /* \"#utility.yul\":6027:6074   */\n      mstore\n        /* \"#utility.yul\":6091:6222   */\n      tag_174\n        /* \"#utility.yul\":6217:6221   */\n      dup2\n        /* \"#utility.yul\":6091:6222   */\n      tag_98\n      jump\t// in\n    tag_174:\n        /* \"#utility.yul\":6083:6222   */\n      swap1\n      pop\n        /* \"#utility.yul\":5810:6229   */\n      swap2\n      swap1\n      pop\n      jump\t// out\n        /* \"#utility.yul\":6235:6677   */\n    tag_67:\n        /* \"#utility.yul\":6384:6388   */\n      0x00\n        /* \"#utility.yul\":6422:6424   */\n      0x60\n        /* \"#utility.yul\":6411:6420   */\n      dup3\n        /* \"#utility.yul\":6407:6425   */\n      add\n        /* \"#utility.yul\":6399:6425   */\n      swap1\n      pop\n        /* \"#utility.yul\":6435:6506   */\n      tag_176\n        /* \"#utility.yul\":6503:6504   */\n      0x00\n        /* \"#utility.yul\":6492:6501   */\n      dup4\n        /* \"#utility.yul\":6488:6505   */\n      add\n        /* \"#utility.yul\":6479:6485   */\n      dup7\n        /* \"#utility.yul\":6435:6506   */\n      tag_90\n      jump\t// in\n    tag_176:\n        /* \"#utility.yul\":6516:6588   */\n      tag_177\n        /* \"#utility.yul\":6584:6586   */\n      0x20\n        /* \"#utility.yul\":6573:6582   */\n      dup4\n        /* \"#utility.yul\":6569:6587   */\n      add\n        /* \"#utility.yul\":6560:6566   */\n      dup6\n        /* \"#utility.yul\":6516:6588   */\n      tag_90\n      jump\t// in\n    tag_177:\n        /* \"#utility.yul\":6598:6670   */\n      tag_178\n        /* \"#utility.yul\":6666:6668   */\n      0x40\n        /* \"#utility.yul\":6655:6664   */\n      dup4\n        /* \"#utility.yul\":6651:6669   */\n      add\n        /* \"#utility.yul\":6642:6648   */\n      dup5\n        /* \"#utility.yul\":6598:6670   */\n      tag_85\n      jump\t// in\n    tag_178:\n        /* \"#utility.yul\":6235:6677   */\n      swap5\n      swap4\n      pop\n      pop\n      pop\n      pop\n      jump\t// out\n\n    auxdata: 0xa2646970667358221220b5c47b3cec0d1397db2ea612627c983421c284eb57581b1f1f036916ca25093764736f6c63430008120033\n}\n",
				"bytecode": {
					"linkReferences": {},
					"object": "608060405273d9145cce52d386f254917e481eb44e9943f391386000806101000a81548173ffffffffffffffffffffffffffffffffffffffff021916908373ffffffffffffffffffffffffffffffffffffffff160217905550600160025534801561006957600080fd5b5060014361007791906100e2565b406040516020016100889190610141565b6040516020818303038152906040528051906020012060038190555061015c565b6000819050919050565b7f4e487b7100000000000000000000000000000000000000000000000000000000600052601160045260246000fd5b60006100ed826100a9565b91506100f8836100a9565b92508282039050818111156101105761010f6100b3565b5b92915050565b6000819050919050565b6000819050919050565b61013b61013682610116565b610120565b82525050565b600061014d828461012a565b60208201915081905092915050565b61097c8061016b6000396000f3fe608060405234801561001057600080fd5b50600436106100885760003560e01c8063adc080d91161005b578063adc080d914610115578063b6b55f2514610145578063efedc66914610161578063fa391c641461017f57610088565b8063224b610b1461008d5780632e1a7d4d146100ab578063365b98b2146100c75780639e3b34bf146100f7575b600080fd5b610095610189565b6040516100a291906105ef565b60405180910390f35b6100c560048036038101906100c09190610645565b61018f565b005b6100e160048036038101906100dc9190610645565b6102ed565b6040516100ee91906105ef565b60405180910390f35b6100ff610317565b60405161010c9190610681565b60405180910390f35b61012f600480360381019061012a91906106fa565b61031d565b60405161013c9190610681565b60405180910390f35b61015f600480360381019061015a9190610645565b610335565b005b610169610527565b6040516101769190610681565b60405180910390f35b61018761052d565b005b60035481565b6000600460003373ffffffffffffffffffffffffffffffffffffffff1673ffffffffffffffffffffffffffffffffffffffff16815260200190815260200160002054116101db57600080fd5b60008054906101000a900473ffffffffffffffffffffffffffffffffffffffff1673ffffffffffffffffffffffffffffffffffffffff1663a9059cbb33836040518363ffffffff1660e01b8152600401610236929190610736565b6020604051808303816000875af1158015610255573d6000803e3d6000fd5b505050506040513d601f19601f820116820180604052508101906102799190610797565b5080600460003373ffffffffffffffffffffffffffffffffffffffff1673ffffffffffffffffffffffffffffffffffffffff16815260200190815260200160002060008282546102c991906107f3565b925050819055506001600260008282546102e391906107f3565b9250508190555050565b600581815481106102fd57600080fd5b906000526020600020016000915090508060000154905081565b60025481565b60046020528060005260406000206000915090505481565b6001600460003373ffffffffffffffffffffffffffffffffffffffff1673ffffffffffffffffffffffffffffffffffffffff16815260200190815260200160002060008282546103859190610827565b925050819055508060008054906101000a900473ffffffffffffffffffffffffffffffffffffffff1673ffffffffffffffffffffffffffffffffffffffff166370a08231336040518263ffffffff1660e01b81526004016103e6919061085b565b6020604051808303816000875af1158015610405573d6000803e3d6000fd5b505050506040513d601f19601f82011682018060405250810190610429919061088b565b11610469576040517f08c379a0000000000000000000000000000000000000000000000000000000008152600401610460906108ef565b60405180910390fd5b60008054906101000a900473ffffffffffffffffffffffffffffffffffffffff1673ffffffffffffffffffffffffffffffffffffffff166323b872dd3330846040518463ffffffff1660e01b81526004016104c69392919061090f565b6020604051808303816000875af11580156104e5573d6000803e3d6000fd5b505050506040513d601f19601f820116820180604052508101906105099190610797565b5060016002600082825461051d9190610827565b9250508190555050565b60015481565b73d9145cce52d386f254917e481eb44e9943f3913873ffffffffffffffffffffffffffffffffffffffff1660008054906101000a900473ffffffffffffffffffffffffffffffffffffffff1673ffffffffffffffffffffffffffffffffffffffff16146105af576019600160008282546105a79190610827565b925050819055505b6000600254036105d457604b600160008282546105cc9190610827565b925050819055505b565b6000819050919050565b6105e9816105d6565b82525050565b600060208201905061060460008301846105e0565b92915050565b600080fd5b6000819050919050565b6106228161060f565b811461062d57600080fd5b50565b60008135905061063f81610619565b92915050565b60006020828403121561065b5761065a61060a565b5b600061066984828501610630565b91505092915050565b61067b8161060f565b82525050565b60006020820190506106966000830184610672565b92915050565b600073ffffffffffffffffffffffffffffffffffffffff82169050919050565b60006106c78261069c565b9050919050565b6106d7816106bc565b81146106e257600080fd5b50565b6000813590506106f4816106ce565b92915050565b6000602082840312156107105761070f61060a565b5b600061071e848285016106e5565b91505092915050565b610730816106bc565b82525050565b600060408201905061074b6000830185610727565b6107586020830184610672565b9392505050565b60008115159050919050565b6107748161075f565b811461077f57600080fd5b50565b6000815190506107918161076b565b92915050565b6000602082840312156107ad576107ac61060a565b5b60006107bb84828501610782565b91505092915050565b7f4e487b7100000000000000000000000000000000000000000000000000000000600052601160045260246000fd5b60006107fe8261060f565b91506108098361060f565b9250828203905081811115610821576108206107c4565b5b92915050565b60006108328261060f565b915061083d8361060f565b9250828201905080821115610855576108546107c4565b5b92915050565b60006020820190506108706000830184610727565b92915050565b60008151905061088581610619565b92915050565b6000602082840312156108a1576108a061060a565b5b60006108af84828501610876565b91505092915050565b600082825260208201905092915050565b50565b60006108d96000836108b8565b91506108e4826108c9565b600082019050919050565b60006020820190508181036000830152610908816108cc565b9050919050565b60006060820190506109246000830186610727565b6109316020830185610727565b61093e6040830184610672565b94935050505056fea2646970667358221220b5c47b3cec0d1397db2ea612627c983421c284eb57581b1f1f036916ca25093764736f6c63430008120033",
					"opcodes": "PUSH1 0x80 PUSH1 0x40 MSTORE PUSH20 0xD9145CCE52D386F254917E481EB44E9943F39138 PUSH1 0x0 DUP1 PUSH2 0x100 EXP DUP2 SLOAD DUP2 PUSH20 0xFFFFFFFFFFFFFFFFFFFFFFFFFFFFFFFFFFFFFFFF MUL NOT AND SWAP1 DUP4 PUSH20 0xFFFFFFFFFFFFFFFFFFFFFFFFFFFFFFFFFFFFFFFF AND MUL OR SWAP1 SSTORE POP PUSH1 0x1 PUSH1 0x2 SSTORE CALLVALUE DUP1 ISZERO PUSH2 0x69 JUMPI PUSH1 0x0 DUP1 REVERT JUMPDEST POP PUSH1 0x1 NUMBER PUSH2 0x77 SWAP2 SWAP1 PUSH2 0xE2 JUMP JUMPDEST BLOCKHASH PUSH1 0x40 MLOAD PUSH1 0x20 ADD PUSH2 0x88 SWAP2 SWAP1 PUSH2 0x141 JUMP JUMPDEST PUSH1 0x40 MLOAD PUSH1 0x20 DUP2 DUP4 SUB SUB DUP2 MSTORE SWAP1 PUSH1 0x40 MSTORE DUP1 MLOAD SWAP1 PUSH1 0x20 ADD KECCAK256 PUSH1 0x3 DUP2 SWAP1 SSTORE POP PUSH2 0x15C JUMP JUMPDEST PUSH1 0x0 DUP2 SWAP1 POP SWAP2 SWAP1 POP JUMP JUMPDEST PUSH32 0x4E487B7100000000000000000000000000000000000000000000000000000000 PUSH1 0x0 MSTORE PUSH1 0x11 PUSH1 0x4 MSTORE PUSH1 0x24 PUSH1 0x0 REVERT JUMPDEST PUSH1 0x0 PUSH2 0xED DUP3 PUSH2 0xA9 JUMP JUMPDEST SWAP2 POP PUSH2 0xF8 DUP4 PUSH2 0xA9 JUMP JUMPDEST SWAP3 POP DUP3 DUP3 SUB SWAP1 POP DUP2 DUP2 GT ISZERO PUSH2 0x110 JUMPI PUSH2 0x10F PUSH2 0xB3 JUMP JUMPDEST JUMPDEST SWAP3 SWAP2 POP POP JUMP JUMPDEST PUSH1 0x0 DUP2 SWAP1 POP SWAP2 SWAP1 POP JUMP JUMPDEST PUSH1 0x0 DUP2 SWAP1 POP SWAP2 SWAP1 POP JUMP JUMPDEST PUSH2 0x13B PUSH2 0x136 DUP3 PUSH2 0x116 JUMP JUMPDEST PUSH2 0x120 JUMP JUMPDEST DUP3 MSTORE POP POP JUMP JUMPDEST PUSH1 0x0 PUSH2 0x14D DUP3 DUP5 PUSH2 0x12A JUMP JUMPDEST PUSH1 0x20 DUP3 ADD SWAP2 POP DUP2 SWAP1 POP SWAP3 SWAP2 POP POP JUMP JUMPDEST PUSH2 0x97C DUP1 PUSH2 0x16B PUSH1 0x0 CODECOPY PUSH1 0x0 RETURN INVALID PUSH1 0x80 PUSH1 0x40 MSTORE CALLVALUE DUP1 ISZERO PUSH2 0x10 JUMPI PUSH1 0x0 DUP1 REVERT JUMPDEST POP PUSH1 0x4 CALLDATASIZE LT PUSH2 0x88 JUMPI PUSH1 0x0 CALLDATALOAD PUSH1 0xE0 SHR DUP1 PUSH4 0xADC080D9 GT PUSH2 0x5B JUMPI DUP1 PUSH4 0xADC080D9 EQ PUSH2 0x115 JUMPI DUP1 PUSH4 0xB6B55F25 EQ PUSH2 0x145 JUMPI DUP1 PUSH4 0xEFEDC669 EQ PUSH2 0x161 JUMPI DUP1 PUSH4 0xFA391C64 EQ PUSH2 0x17F JUMPI PUSH2 0x88 JUMP JUMPDEST DUP1 PUSH4 0x224B610B EQ PUSH2 0x8D JUMPI DUP1 PUSH4 0x2E1A7D4D EQ PUSH2 0xAB JUMPI DUP1 PUSH4 0x365B98B2 EQ PUSH2 0xC7 JUMPI DUP1 PUSH4 0x9E3B34BF EQ PUSH2 0xF7 JUMPI JUMPDEST PUSH1 0x0 DUP1 REVERT JUMPDEST PUSH2 0x95 PUSH2 0x189 JUMP JUMPDEST PUSH1 0x40 MLOAD PUSH2 0xA2 SWAP2 SWAP1 PUSH2 0x5EF JUMP JUMPDEST PUSH1 0x40 MLOAD DUP1 SWAP2 SUB SWAP1 RETURN JUMPDEST PUSH2 0xC5 PUSH1 0x4 DUP1 CALLDATASIZE SUB DUP2 ADD SWAP1 PUSH2 0xC0 SWAP2 SWAP1 PUSH2 0x645 JUMP JUMPDEST PUSH2 0x18F JUMP JUMPDEST STOP JUMPDEST PUSH2 0xE1 PUSH1 0x4 DUP1 CALLDATASIZE SUB DUP2 ADD SWAP1 PUSH2 0xDC SWAP2 SWAP1 PUSH2 0x645 JUMP JUMPDEST PUSH2 0x2ED JUMP JUMPDEST PUSH1 0x40 MLOAD PUSH2 0xEE SWAP2 SWAP1 PUSH2 0x5EF JUMP JUMPDEST PUSH1 0x40 MLOAD DUP1 SWAP2 SUB SWAP1 RETURN JUMPDEST PUSH2 0xFF PUSH2 0x317 JUMP JUMPDEST PUSH1 0x40 MLOAD PUSH2 0x10C SWAP2 SWAP1 PUSH2 0x681 JUMP JUMPDEST PUSH1 0x40 MLOAD DUP1 SWAP2 SUB SWAP1 RETURN JUMPDEST PUSH2 0x12F PUSH1 0x4 DUP1 CALLDATASIZE SUB DUP2 ADD SWAP1 PUSH2 0x12A SWAP2 SWAP1 PUSH2 0x6FA JUMP JUMPDEST PUSH2 0x31D JUMP JUMPDEST PUSH1 0x40 MLOAD PUSH2 0x13C SWAP2 SWAP1 PUSH2 0x681 JUMP JUMPDEST PUSH1 0x40 MLOAD DUP1 SWAP2 SUB SWAP1 RETURN JUMPDEST PUSH2 0x15F PUSH1 0x4 DUP1 CALLDATASIZE SUB DUP2 ADD SWAP1 PUSH2 0x15A SWAP2 SWAP1 PUSH2 0x645 JUMP JUMPDEST PUSH2 0x335 JUMP JUMPDEST STOP JUMPDEST PUSH2 0x169 PUSH2 0x527 JUMP JUMPDEST PUSH1 0x40 MLOAD PUSH2 0x176 SWAP2 SWAP1 PUSH2 0x681 JUMP JUMPDEST PUSH1 0x40 MLOAD DUP1 SWAP2 SUB SWAP1 RETURN JUMPDEST PUSH2 0x187 PUSH2 0x52D JUMP JUMPDEST STOP JUMPDEST PUSH1 0x3 SLOAD DUP2 JUMP JUMPDEST PUSH1 0x0 PUSH1 0x4 PUSH1 0x0 CALLER PUSH20 0xFFFFFFFFFFFFFFFFFFFFFFFFFFFFFFFFFFFFFFFF AND PUSH20 0xFFFFFFFFFFFFFFFFFFFFFFFFFFFFFFFFFFFFFFFF AND DUP2 MSTORE PUSH1 0x20 ADD SWAP1 DUP2 MSTORE PUSH1 0x20 ADD PUSH1 0x0 KECCAK256 SLOAD GT PUSH2 0x1DB JUMPI PUSH1 0x0 DUP1 REVERT JUMPDEST PUSH1 0x0 DUP1 SLOAD SWAP1 PUSH2 0x100 EXP SWAP1 DIV PUSH20 0xFFFFFFFFFFFFFFFFFFFFFFFFFFFFFFFFFFFFFFFF AND PUSH20 0xFFFFFFFFFFFFFFFFFFFFFFFFFFFFFFFFFFFFFFFF AND PUSH4 0xA9059CBB CALLER DUP4 PUSH1 0x40 MLOAD DUP4 PUSH4 0xFFFFFFFF AND PUSH1 0xE0 SHL DUP2 MSTORE PUSH1 0x4 ADD PUSH2 0x236 SWAP3 SWAP2 SWAP1 PUSH2 0x736 JUMP JUMPDEST PUSH1 0x20 PUSH1 0x40 MLOAD DUP1 DUP4 SUB DUP2 PUSH1 0x0 DUP8 GAS CALL ISZERO DUP1 ISZERO PUSH2 0x255 JUMPI RETURNDATASIZE PUSH1 0x0 DUP1 RETURNDATACOPY RETURNDATASIZE PUSH1 0x0 REVERT JUMPDEST POP POP POP POP PUSH1 0x40 MLOAD RETURNDATASIZE PUSH1 0x1F NOT PUSH1 0x1F DUP3 ADD AND DUP3 ADD DUP1 PUSH1 0x40 MSTORE POP DUP2 ADD SWAP1 PUSH2 0x279 SWAP2 SWAP1 PUSH2 0x797 JUMP JUMPDEST POP DUP1 PUSH1 0x4 PUSH1 0x0 CALLER PUSH20 0xFFFFFFFFFFFFFFFFFFFFFFFFFFFFFFFFFFFFFFFF AND PUSH20 0xFFFFFFFFFFFFFFFFFFFFFFFFFFFFFFFFFFFFFFFF AND DUP2 MSTORE PUSH1 0x20 ADD SWAP1 DUP2 MSTORE PUSH1 0x20 ADD PUSH1 0x0 KECCAK256 PUSH1 0x0 DUP3 DUP3 SLOAD PUSH2 0x2C9 SWAP2 SWAP1 PUSH2 0x7F3 JUMP JUMPDEST SWAP3 POP POP DUP2 SWAP1 SSTORE POP PUSH1 0x1 PUSH1 0x2 PUSH1 0x0 DUP3 DUP3 SLOAD PUSH2 0x2E3 SWAP2 SWAP1 PUSH2 0x7F3 JUMP JUMPDEST SWAP3 POP POP DUP2 SWAP1 SSTORE POP POP JUMP JUMPDEST PUSH1 0x5 DUP2 DUP2 SLOAD DUP2 LT PUSH2 0x2FD JUMPI PUSH1 0x0 DUP1 REVERT JUMPDEST SWAP1 PUSH1 0x0 MSTORE PUSH1 0x20 PUSH1 0x0 KECCAK256 ADD PUSH1 0x0 SWAP2 POP SWAP1 POP DUP1 PUSH1 0x0 ADD SLOAD SWAP1 POP DUP2 JUMP JUMPDEST PUSH1 0x2 SLOAD DUP2 JUMP JUMPDEST PUSH1 0x4 PUSH1 0x20 MSTORE DUP1 PUSH1 0x0 MSTORE PUSH1 0x40 PUSH1 0x0 KECCAK256 PUSH1 0x0 SWAP2 POP SWAP1 POP SLOAD DUP2 JUMP JUMPDEST PUSH1 0x1 PUSH1 0x4 PUSH1 0x0 CALLER PUSH20 0xFFFFFFFFFFFFFFFFFFFFFFFFFFFFFFFFFFFFFFFF AND PUSH20 0xFFFFFFFFFFFFFFFFFFFFFFFFFFFFFFFFFFFFFFFF AND DUP2 MSTORE PUSH1 0x20 ADD SWAP1 DUP2 MSTORE PUSH1 0x20 ADD PUSH1 0x0 KECCAK256 PUSH1 0x0 DUP3 DUP3 SLOAD PUSH2 0x385 SWAP2 SWAP1 PUSH2 0x827 JUMP JUMPDEST SWAP3 POP POP DUP2 SWAP1 SSTORE POP DUP1 PUSH1 0x0 DUP1 SLOAD SWAP1 PUSH2 0x100 EXP SWAP1 DIV PUSH20 0xFFFFFFFFFFFFFFFFFFFFFFFFFFFFFFFFFFFFFFFF AND PUSH20 0xFFFFFFFFFFFFFFFFFFFFFFFFFFFFFFFFFFFFFFFF AND PUSH4 0x70A08231 CALLER PUSH1 0x40 MLOAD DUP3 PUSH4 0xFFFFFFFF AND PUSH1 0xE0 SHL DUP2 MSTORE PUSH1 0x4 ADD PUSH2 0x3E6 SWAP2 SWAP1 PUSH2 0x85B JUMP JUMPDEST PUSH1 0x20 PUSH1 0x40 MLOAD DUP1 DUP4 SUB DUP2 PUSH1 0x0 DUP8 GAS CALL ISZERO DUP1 ISZERO PUSH2 0x405 JUMPI RETURNDATASIZE PUSH1 0x0 DUP1 RETURNDATACOPY RETURNDATASIZE PUSH1 0x0 REVERT JUMPDEST POP POP POP POP PUSH1 0x40 MLOAD RETURNDATASIZE PUSH1 0x1F NOT PUSH1 0x1F DUP3 ADD AND DUP3 ADD DUP1 PUSH1 0x40 MSTORE POP DUP2 ADD SWAP1 PUSH2 0x429 SWAP2 SWAP1 PUSH2 0x88B JUMP JUMPDEST GT PUSH2 0x469 JUMPI PUSH1 0x40 MLOAD PUSH32 0x8C379A000000000000000000000000000000000000000000000000000000000 DUP2 MSTORE PUSH1 0x4 ADD PUSH2 0x460 SWAP1 PUSH2 0x8EF JUMP JUMPDEST PUSH1 0x40 MLOAD DUP1 SWAP2 SUB SWAP1 REVERT JUMPDEST PUSH1 0x0 DUP1 SLOAD SWAP1 PUSH2 0x100 EXP SWAP1 DIV PUSH20 0xFFFFFFFFFFFFFFFFFFFFFFFFFFFFFFFFFFFFFFFF AND PUSH20 0xFFFFFFFFFFFFFFFFFFFFFFFFFFFFFFFFFFFFFFFF AND PUSH4 0x23B872DD CALLER ADDRESS DUP5 PUSH1 0x40 MLOAD DUP5 PUSH4 0xFFFFFFFF AND PUSH1 0xE0 SHL DUP2 MSTORE PUSH1 0x4 ADD PUSH2 0x4C6 SWAP4 SWAP3 SWAP2 SWAP1 PUSH2 0x90F JUMP JUMPDEST PUSH1 0x20 PUSH1 0x40 MLOAD DUP1 DUP4 SUB DUP2 PUSH1 0x0 DUP8 GAS CALL ISZERO DUP1 ISZERO PUSH2 0x4E5 JUMPI RETURNDATASIZE PUSH1 0x0 DUP1 RETURNDATACOPY RETURNDATASIZE PUSH1 0x0 REVERT JUMPDEST POP POP POP POP PUSH1 0x40 MLOAD RETURNDATASIZE PUSH1 0x1F NOT PUSH1 0x1F DUP3 ADD AND DUP3 ADD DUP1 PUSH1 0x40 MSTORE POP DUP2 ADD SWAP1 PUSH2 0x509 SWAP2 SWAP1 PUSH2 0x797 JUMP JUMPDEST POP PUSH1 0x1 PUSH1 0x2 PUSH1 0x0 DUP3 DUP3 SLOAD PUSH2 0x51D SWAP2 SWAP1 PUSH2 0x827 JUMP JUMPDEST SWAP3 POP POP DUP2 SWAP1 SSTORE POP POP JUMP JUMPDEST PUSH1 0x1 SLOAD DUP2 JUMP JUMPDEST PUSH20 0xD9145CCE52D386F254917E481EB44E9943F39138 PUSH20 0xFFFFFFFFFFFFFFFFFFFFFFFFFFFFFFFFFFFFFFFF AND PUSH1 0x0 DUP1 SLOAD SWAP1 PUSH2 0x100 EXP SWAP1 DIV PUSH20 0xFFFFFFFFFFFFFFFFFFFFFFFFFFFFFFFFFFFFFFFF AND PUSH20 0xFFFFFFFFFFFFFFFFFFFFFFFFFFFFFFFFFFFFFFFF AND EQ PUSH2 0x5AF JUMPI PUSH1 0x19 PUSH1 0x1 PUSH1 0x0 DUP3 DUP3 SLOAD PUSH2 0x5A7 SWAP2 SWAP1 PUSH2 0x827 JUMP JUMPDEST SWAP3 POP POP DUP2 SWAP1 SSTORE POP JUMPDEST PUSH1 0x0 PUSH1 0x2 SLOAD SUB PUSH2 0x5D4 JUMPI PUSH1 0x4B PUSH1 0x1 PUSH1 0x0 DUP3 DUP3 SLOAD PUSH2 0x5CC SWAP2 SWAP1 PUSH2 0x827 JUMP JUMPDEST SWAP3 POP POP DUP2 SWAP1 SSTORE POP JUMPDEST JUMP JUMPDEST PUSH1 0x0 DUP2 SWAP1 POP SWAP2 SWAP1 POP JUMP JUMPDEST PUSH2 0x5E9 DUP2 PUSH2 0x5D6 JUMP JUMPDEST DUP3 MSTORE POP POP JUMP JUMPDEST PUSH1 0x0 PUSH1 0x20 DUP3 ADD SWAP1 POP PUSH2 0x604 PUSH1 0x0 DUP4 ADD DUP5 PUSH2 0x5E0 JUMP JUMPDEST SWAP3 SWAP2 POP POP JUMP JUMPDEST PUSH1 0x0 DUP1 REVERT JUMPDEST PUSH1 0x0 DUP2 SWAP1 POP SWAP2 SWAP1 POP JUMP JUMPDEST PUSH2 0x622 DUP2 PUSH2 0x60F JUMP JUMPDEST DUP2 EQ PUSH2 0x62D JUMPI PUSH1 0x0 DUP1 REVERT JUMPDEST POP JUMP JUMPDEST PUSH1 0x0 DUP2 CALLDATALOAD SWAP1 POP PUSH2 0x63F DUP2 PUSH2 0x619 JUMP JUMPDEST SWAP3 SWAP2 POP POP JUMP JUMPDEST PUSH1 0x0 PUSH1 0x20 DUP3 DUP5 SUB SLT ISZERO PUSH2 0x65B JUMPI PUSH2 0x65A PUSH2 0x60A JUMP JUMPDEST JUMPDEST PUSH1 0x0 PUSH2 0x669 DUP5 DUP3 DUP6 ADD PUSH2 0x630 JUMP JUMPDEST SWAP2 POP POP SWAP3 SWAP2 POP POP JUMP JUMPDEST PUSH2 0x67B DUP2 PUSH2 0x60F JUMP JUMPDEST DUP3 MSTORE POP POP JUMP JUMPDEST PUSH1 0x0 PUSH1 0x20 DUP3 ADD SWAP1 POP PUSH2 0x696 PUSH1 0x0 DUP4 ADD DUP5 PUSH2 0x672 JUMP JUMPDEST SWAP3 SWAP2 POP POP JUMP JUMPDEST PUSH1 0x0 PUSH20 0xFFFFFFFFFFFFFFFFFFFFFFFFFFFFFFFFFFFFFFFF DUP3 AND SWAP1 POP SWAP2 SWAP1 POP JUMP JUMPDEST PUSH1 0x0 PUSH2 0x6C7 DUP3 PUSH2 0x69C JUMP JUMPDEST SWAP1 POP SWAP2 SWAP1 POP JUMP JUMPDEST PUSH2 0x6D7 DUP2 PUSH2 0x6BC JUMP JUMPDEST DUP2 EQ PUSH2 0x6E2 JUMPI PUSH1 0x0 DUP1 REVERT JUMPDEST POP JUMP JUMPDEST PUSH1 0x0 DUP2 CALLDATALOAD SWAP1 POP PUSH2 0x6F4 DUP2 PUSH2 0x6CE JUMP JUMPDEST SWAP3 SWAP2 POP POP JUMP JUMPDEST PUSH1 0x0 PUSH1 0x20 DUP3 DUP5 SUB SLT ISZERO PUSH2 0x710 JUMPI PUSH2 0x70F PUSH2 0x60A JUMP JUMPDEST JUMPDEST PUSH1 0x0 PUSH2 0x71E DUP5 DUP3 DUP6 ADD PUSH2 0x6E5 JUMP JUMPDEST SWAP2 POP POP SWAP3 SWAP2 POP POP JUMP JUMPDEST PUSH2 0x730 DUP2 PUSH2 0x6BC JUMP JUMPDEST DUP3 MSTORE POP POP JUMP JUMPDEST PUSH1 0x0 PUSH1 0x40 DUP3 ADD SWAP1 POP PUSH2 0x74B PUSH1 0x0 DUP4 ADD DUP6 PUSH2 0x727 JUMP JUMPDEST PUSH2 0x758 PUSH1 0x20 DUP4 ADD DUP5 PUSH2 0x672 JUMP JUMPDEST SWAP4 SWAP3 POP POP POP JUMP JUMPDEST PUSH1 0x0 DUP2 ISZERO ISZERO SWAP1 POP SWAP2 SWAP1 POP JUMP JUMPDEST PUSH2 0x774 DUP2 PUSH2 0x75F JUMP JUMPDEST DUP2 EQ PUSH2 0x77F JUMPI PUSH1 0x0 DUP1 REVERT JUMPDEST POP JUMP JUMPDEST PUSH1 0x0 DUP2 MLOAD SWAP1 POP PUSH2 0x791 DUP2 PUSH2 0x76B JUMP JUMPDEST SWAP3 SWAP2 POP POP JUMP JUMPDEST PUSH1 0x0 PUSH1 0x20 DUP3 DUP5 SUB SLT ISZERO PUSH2 0x7AD JUMPI PUSH2 0x7AC PUSH2 0x60A JUMP JUMPDEST JUMPDEST PUSH1 0x0 PUSH2 0x7BB DUP5 DUP3 DUP6 ADD PUSH2 0x782 JUMP JUMPDEST SWAP2 POP POP SWAP3 SWAP2 POP POP JUMP JUMPDEST PUSH32 0x4E487B7100000000000000000000000000000000000000000000000000000000 PUSH1 0x0 MSTORE PUSH1 0x11 PUSH1 0x4 MSTORE PUSH1 0x24 PUSH1 0x0 REVERT JUMPDEST PUSH1 0x0 PUSH2 0x7FE DUP3 PUSH2 0x60F JUMP JUMPDEST SWAP2 POP PUSH2 0x809 DUP4 PUSH2 0x60F JUMP JUMPDEST SWAP3 POP DUP3 DUP3 SUB SWAP1 POP DUP2 DUP2 GT ISZERO PUSH2 0x821 JUMPI PUSH2 0x820 PUSH2 0x7C4 JUMP JUMPDEST JUMPDEST SWAP3 SWAP2 POP POP JUMP JUMPDEST PUSH1 0x0 PUSH2 0x832 DUP3 PUSH2 0x60F JUMP JUMPDEST SWAP2 POP PUSH2 0x83D DUP4 PUSH2 0x60F JUMP JUMPDEST SWAP3 POP DUP3 DUP3 ADD SWAP1 POP DUP1 DUP3 GT ISZERO PUSH2 0x855 JUMPI PUSH2 0x854 PUSH2 0x7C4 JUMP JUMPDEST JUMPDEST SWAP3 SWAP2 POP POP JUMP JUMPDEST PUSH1 0x0 PUSH1 0x20 DUP3 ADD SWAP1 POP PUSH2 0x870 PUSH1 0x0 DUP4 ADD DUP5 PUSH2 0x727 JUMP JUMPDEST SWAP3 SWAP2 POP POP JUMP JUMPDEST PUSH1 0x0 DUP2 MLOAD SWAP1 POP PUSH2 0x885 DUP2 PUSH2 0x619 JUMP JUMPDEST SWAP3 SWAP2 POP POP JUMP JUMPDEST PUSH1 0x0 PUSH1 0x20 DUP3 DUP5 SUB SLT ISZERO PUSH2 0x8A1 JUMPI PUSH2 0x8A0 PUSH2 0x60A JUMP JUMPDEST JUMPDEST PUSH1 0x0 PUSH2 0x8AF DUP5 DUP3 DUP6 ADD PUSH2 0x876 JUMP JUMPDEST SWAP2 POP POP SWAP3 SWAP2 POP POP JUMP JUMPDEST PUSH1 0x0 DUP3 DUP3 MSTORE PUSH1 0x20 DUP3 ADD SWAP1 POP SWAP3 SWAP2 POP POP JUMP JUMPDEST POP JUMP JUMPDEST PUSH1 0x0 PUSH2 0x8D9 PUSH1 0x0 DUP4 PUSH2 0x8B8 JUMP JUMPDEST SWAP2 POP PUSH2 0x8E4 DUP3 PUSH2 0x8C9 JUMP JUMPDEST PUSH1 0x0 DUP3 ADD SWAP1 POP SWAP2 SWAP1 POP JUMP JUMPDEST PUSH1 0x0 PUSH1 0x20 DUP3 ADD SWAP1 POP DUP2 DUP2 SUB PUSH1 0x0 DUP4 ADD MSTORE PUSH2 0x908 DUP2 PUSH2 0x8CC JUMP JUMPDEST SWAP1 POP SWAP2 SWAP1 POP JUMP JUMPDEST PUSH1 0x0 PUSH1 0x60 DUP3 ADD SWAP1 POP PUSH2 0x924 PUSH1 0x0 DUP4 ADD DUP7 PUSH2 0x727 JUMP JUMPDEST PUSH2 0x931 PUSH1 0x20 DUP4 ADD DUP6 PUSH2 0x727 JUMP JUMPDEST PUSH2 0x93E PUSH1 0x40 DUP4 ADD DUP5 PUSH2 0x672 JUMP JUMPDEST SWAP5 SWAP4 POP POP POP POP JUMP INVALID LOG2 PUSH5 0x6970667358 0x22 SLT KECCAK256 0xB5 0xC4 PUSH28 0x3CEC0D1397DB2EA612627C983421C284EB57581B1F1F036916CA2509 CALLDATACOPY PUSH5 0x736F6C6343 STOP ADDMOD SLT STOP CALLER "
				},
				"gasEstimates": {
					"creation": {
						"codeDepositCost": "485600",
						"executionCost": "infinite",
						"totalCost": "infinite"
					},
					"external": {
						"deposit(uint256)": "infinite",
						"depositTimes(address)": "2814",
						"isCompleted()": "infinite",
						"password()": "2430",
						"score()": "2473",
						"times()": "2496",
						"users(uint256)": "4941",
						"withdraw(uint256)": "infinite"
					}
				},
				"methodIdentifiers": {
					"deposit(uint256)": "b6b55f25",
					"depositTimes(address)": "adc080d9",
					"isCompleted()": "fa391c64",
					"password()": "224b610b",
					"score()": "efedc669",
					"times()": "9e3b34bf",
					"users(uint256)": "365b98b2",
					"withdraw(uint256)": "2e1a7d4d"
				}
			},
			"storageLayout": {
				"storage": [
					{
						"astId": 41,
						"contract": "modi/ree.sol:reentrancy",
						"label": "token",
						"offset": 0,
						"slot": "0",
						"type": "t_address"
					},
					{
						"astId": 43,
						"contract": "modi/ree.sol:reentrancy",
						"label": "score",
						"offset": 0,
						"slot": "1",
						"type": "t_uint256"
					},
					{
						"astId": 46,
						"contract": "modi/ree.sol:reentrancy",
						"label": "times",
						"offset": 0,
						"slot": "2",
						"type": "t_uint256"
					},
					{
						"astId": 48,
						"contract": "modi/ree.sol:reentrancy",
						"label": "password",
						"offset": 0,
						"slot": "3",
						"type": "t_bytes32"
					},
					{
						"astId": 52,
						"contract": "modi/ree.sol:reentrancy",
						"label": "depositTimes",
						"offset": 0,
						"slot": "4",
						"type": "t_mapping(t_address,t_uint256)"
					},
					{
						"astId": 59,
						"contract": "modi/ree.sol:reentrancy",
						"label": "users",
						"offset": 0,
						"slot": "5",
						"type": "t_array(t_struct(User)55_storage)dyn_storage"
					}
				],
				"types": {
					"t_address": {
						"encoding": "inplace",
						"label": "address",
						"numberOfBytes": "20"
					},
					"t_array(t_struct(User)55_storage)dyn_storage": {
						"base": "t_struct(User)55_storage",
						"encoding": "dynamic_array",
						"label": "struct reentrancy.User[]",
						"numberOfBytes": "32"
					},
					"t_bytes32": {
						"encoding": "inplace",
						"label": "bytes32",
						"numberOfBytes": "32"
					},
					"t_mapping(t_address,t_uint256)": {
						"encoding": "mapping",
						"key": "t_address",
						"label": "mapping(address => uint256)",
						"numberOfBytes": "32",
						"value": "t_uint256"
					},
					"t_struct(User)55_storage": {
						"encoding": "inplace",
						"label": "struct reentrancy.User",
						"members": [
							{
								"astId": 54,
								"contract": "modi/ree.sol:reentrancy",
								"label": "userID",
								"offset": 0,
								"slot": "0",
								"type": "t_bytes32"
							}
						],
						"numberOfBytes": "32"
					},
					"t_uint256": {
						"encoding": "inplace",
						"label": "uint256",
						"numberOfBytes": "32"
					}
				}
			},
			"userdoc": {
				"kind": "user",
				"methods": {},
				"version": 1
			}
		}
	}
}