{
	"class/modi/cal.sol": {
		"Cal": {
			"abi": [
				{
					"inputs": [
						{
							"internalType": "address",
							"name": "",
							"type": "address"
						}
					],
					"name": "balance",
					"outputs": [
						{
							"internalType": "uint256",
							"name": "",
							"type": "uint256"
						}
					],
					"stateMutability": "view",
					"type": "function"
				},
				{
					"inputs": [],
					"name": "buy",
					"outputs": [],
					"stateMutability": "payable",
					"type": "function"
				},
				{
					"inputs": [],
					"name": "isComplete",
					"outputs": [
						{
							"internalType": "uint256",
							"name": "",
							"type": "uint256"
						}
					],
					"stateMutability": "nonpayable",
					"type": "function"
				},
				{
					"inputs": [],
					"name": "score",
					"outputs": [
						{
							"internalType": "uint256",
							"name": "",
							"type": "uint256"
						}
					],
					"stateMutability": "view",
					"type": "function"
				},
				{
					"inputs": [
						{
							"internalType": "address",
							"name": "to",
							"type": "address"
						},
						{
							"internalType": "uint256",
							"name": "amount",
							"type": "uint256"
						}
					],
					"name": "transfer",
					"outputs": [],
					"stateMutability": "nonpayable",
					"type": "function"
				}
			],
			"devdoc": {
				"kind": "dev",
				"methods": {},
				"version": 1
			},
			"evm": {
				"assembly": "    /* \"class/modi/cal.sol\":84:986  contract Cal{\r... */\n  mstore(0x40, 0x80)\n  callvalue\n  dup1\n  iszero\n  tag_1\n  jumpi\n  0x00\n  dup1\n  revert\ntag_1:\n  pop\n  dataSize(sub_0)\n  dup1\n  dataOffset(sub_0)\n  0x00\n  codecopy\n  0x00\n  return\nstop\n\nsub_0: assembly {\n        /* \"class/modi/cal.sol\":84:986  contract Cal{\r... */\n      mstore(0x40, 0x80)\n      jumpi(tag_1, lt(calldatasize, 0x04))\n      shr(0xe0, calldataload(0x00))\n      dup1\n      0xa6f2ae3a\n      eq\n      tag_2\n      jumpi\n      dup1\n      0xa9059cbb\n      eq\n      tag_3\n      jumpi\n      dup1\n      0xb2fa1c9e\n      eq\n      tag_4\n      jumpi\n      dup1\n      0xe3d670d7\n      eq\n      tag_5\n      jumpi\n      dup1\n      0xefedc669\n      eq\n      tag_6\n      jumpi\n    tag_1:\n      0x00\n      dup1\n      revert\n        /* \"class/modi/cal.sol\":315:448  function buy() public payable{\r... */\n    tag_2:\n      tag_7\n      tag_8\n      jump\t// in\n    tag_7:\n      stop\n        /* \"class/modi/cal.sol\":456:775  function transfer(address to,uint amount)public{\r... */\n    tag_3:\n      callvalue\n      dup1\n      iszero\n      tag_9\n      jumpi\n      0x00\n      dup1\n      revert\n    tag_9:\n      pop\n      tag_10\n      0x04\n      dup1\n      calldatasize\n      sub\n      0x40\n      dup2\n      lt\n      iszero\n      tag_11\n      jumpi\n      0x00\n      dup1\n      revert\n    tag_11:\n      dup2\n      add\n      swap1\n      dup1\n      dup1\n      calldataload\n      0xffffffffffffffffffffffffffffffffffffffff\n      and\n      swap1\n      0x20\n      add\n      swap1\n      swap3\n      swap2\n      swap1\n      dup1\n      calldataload\n      swap1\n      0x20\n      add\n      swap1\n      swap3\n      swap2\n      swap1\n      pop\n      pop\n      pop\n      tag_12\n      jump\t// in\n    tag_10:\n      stop\n        /* \"class/modi/cal.sol\":783:983  function isComplete()public returns(uint){\r... */\n    tag_4:\n      callvalue\n      dup1\n      iszero\n      tag_13\n      jumpi\n      0x00\n      dup1\n      revert\n    tag_13:\n      pop\n      tag_14\n      tag_15\n      jump\t// in\n    tag_14:\n      mload(0x40)\n      dup1\n      dup3\n      dup2\n      mstore\n      0x20\n      add\n      swap2\n      pop\n      pop\n      mload(0x40)\n      dup1\n      swap2\n      sub\n      swap1\n      return\n        /* \"class/modi/cal.sol\":181:217  mapping(address=>uint)public balance */\n    tag_5:\n      callvalue\n      dup1\n      iszero\n      tag_16\n      jumpi\n      0x00\n      dup1\n      revert\n    tag_16:\n      pop\n      tag_17\n      0x04\n      dup1\n      calldatasize\n      sub\n      0x20\n      dup2\n      lt\n      iszero\n      tag_18\n      jumpi\n      0x00\n      dup1\n      revert\n    tag_18:\n      dup2\n      add\n      swap1\n      dup1\n      dup1\n      calldataload\n      0xffffffffffffffffffffffffffffffffffffffff\n      and\n      swap1\n      0x20\n      add\n      swap1\n      swap3\n      swap2\n      swap1\n      pop\n      pop\n      pop\n      tag_19\n      jump\t// in\n    tag_17:\n      mload(0x40)\n      dup1\n      dup3\n      dup2\n      mstore\n      0x20\n      add\n      swap2\n      pop\n      pop\n      mload(0x40)\n      dup1\n      swap2\n      sub\n      swap1\n      return\n        /* \"class/modi/cal.sol\":103:120  uint public score */\n    tag_6:\n      callvalue\n      dup1\n      iszero\n      tag_20\n      jumpi\n      0x00\n      dup1\n      revert\n    tag_20:\n      pop\n      tag_21\n      tag_22\n      jump\t// in\n    tag_21:\n      mload(0x40)\n      dup1\n      dup3\n      dup2\n      mstore\n      0x20\n      add\n      swap2\n      pop\n      pop\n      mload(0x40)\n      dup1\n      swap2\n      sub\n      swap1\n      return\n        /* \"class/modi/cal.sol\":315:448  function buy() public payable{\r... */\n    tag_8:\n        /* \"class/modi/cal.sol\":374:384  0.01 ether */\n      0x2386f26fc10000\n        /* \"class/modi/cal.sol\":363:372  msg.value */\n      callvalue\n        /* \"class/modi/cal.sol\":363:384  msg.value>=0.01 ether */\n      lt\n      iszero\n        /* \"class/modi/cal.sol\":355:398  require(msg.value>=0.01 ether,\"zero value\") */\n      tag_24\n      jumpi\n      mload(0x40)\n      0x08c379a000000000000000000000000000000000000000000000000000000000\n      dup2\n      mstore\n      0x04\n      add\n      dup1\n      dup1\n      0x20\n      add\n      dup3\n      dup2\n      sub\n      dup3\n      mstore\n      0x0a\n      dup2\n      mstore\n      0x20\n      add\n      dup1\n      0x7a65726f2076616c756500000000000000000000000000000000000000000000\n      dup2\n      mstore\n      pop\n      0x20\n      add\n      swap2\n      pop\n      pop\n      mload(0x40)\n      dup1\n      swap2\n      sub\n      swap1\n      revert\n    tag_24:\n        /* \"class/modi/cal.sol\":409:440  mint(msg.sender,msg.value/1e16) */\n      tag_25\n        /* \"class/modi/cal.sol\":414:424  msg.sender */\n      caller\n        /* \"class/modi/cal.sol\":435:439  1e16 */\n      0x2386f26fc10000\n        /* \"class/modi/cal.sol\":425:434  msg.value */\n      callvalue\n        /* \"class/modi/cal.sol\":425:439  msg.value/1e16 */\n      dup2\n      tag_26\n      jumpi\n      invalid\n    tag_26:\n      div\n        /* \"class/modi/cal.sol\":409:413  mint */\n      tag_27\n        /* \"class/modi/cal.sol\":409:440  mint(msg.sender,msg.value/1e16) */\n      jump\t// in\n    tag_25:\n        /* \"class/modi/cal.sol\":315:448  function buy() public payable{\r... */\n      jump\t// out\n        /* \"class/modi/cal.sol\":456:775  function transfer(address to,uint amount)public{\r... */\n    tag_12:\n        /* \"class/modi/cal.sol\":534:535  0 */\n      0x00\n        /* \"class/modi/cal.sol\":522:536  to!=address(0) */\n      0xffffffffffffffffffffffffffffffffffffffff\n      and\n        /* \"class/modi/cal.sol\":522:524  to */\n      dup3\n        /* \"class/modi/cal.sol\":522:536  to!=address(0) */\n      0xffffffffffffffffffffffffffffffffffffffff\n      and\n      eq\n      iszero\n        /* \"class/modi/cal.sol\":514:555  require(to!=address(0),\"invalid address\") */\n      tag_29\n      jumpi\n      mload(0x40)\n      0x08c379a000000000000000000000000000000000000000000000000000000000\n      dup2\n      mstore\n      0x04\n      add\n      dup1\n      dup1\n      0x20\n      add\n      dup3\n      dup2\n      sub\n      dup3\n      mstore\n      0x0f\n      dup2\n      mstore\n      0x20\n      add\n      dup1\n      0x696e76616c696420616464726573730000000000000000000000000000000000\n      dup2\n      mstore\n      pop\n      0x20\n      add\n      swap2\n      pop\n      pop\n      mload(0x40)\n      dup1\n      swap2\n      sub\n      swap1\n      revert\n    tag_29:\n        /* \"class/modi/cal.sol\":581:582  0 */\n      0x00\n        /* \"class/modi/cal.sol\":574:580  amount */\n      dup2\n        /* \"class/modi/cal.sol\":574:582  amount>0 */\n      gt\n        /* \"class/modi/cal.sol\":566:600  require(amount>0,\"invalid amount\") */\n      tag_30\n      jumpi\n      mload(0x40)\n      0x08c379a000000000000000000000000000000000000000000000000000000000\n      dup2\n      mstore\n      0x04\n      add\n      dup1\n      dup1\n      0x20\n      add\n      dup3\n      dup2\n      sub\n      dup3\n      mstore\n      0x0e\n      dup2\n      mstore\n      0x20\n      add\n      dup1\n      0x696e76616c696420616d6f756e74000000000000000000000000000000000000\n      dup2\n      mstore\n      pop\n      0x20\n      add\n      swap2\n      pop\n      pop\n      mload(0x40)\n      dup1\n      swap2\n      sub\n      swap1\n      revert\n    tag_30:\n        /* \"class/modi/cal.sol\":647:648  0 */\n      0x00\n        /* \"class/modi/cal.sol\":639:645  amount */\n      dup2\n        /* \"class/modi/cal.sol\":619:626  balance */\n      0x03\n        /* \"class/modi/cal.sol\":619:638  balance[msg.sender] */\n      0x00\n        /* \"class/modi/cal.sol\":627:637  msg.sender */\n      caller\n        /* \"class/modi/cal.sol\":619:638  balance[msg.sender] */\n      0xffffffffffffffffffffffffffffffffffffffff\n      and\n      0xffffffffffffffffffffffffffffffffffffffff\n      and\n      dup2\n      mstore\n      0x20\n      add\n      swap1\n      dup2\n      mstore\n      0x20\n      add\n      0x00\n      keccak256\n      sload\n        /* \"class/modi/cal.sol\":619:645  balance[msg.sender]-amount */\n      sub\n        /* \"class/modi/cal.sol\":619:648  balance[msg.sender]-amount>=0 */\n      lt\n      iszero\n        /* \"class/modi/cal.sol\":611:649  require(balance[msg.sender]-amount>=0) */\n      tag_31\n      jumpi\n      0x00\n      dup1\n      revert\n    tag_31:\n        /* \"class/modi/cal.sol\":681:687  amount */\n      dup1\n        /* \"class/modi/cal.sol\":660:667  balance */\n      0x03\n        /* \"class/modi/cal.sol\":660:679  balance[msg.sender] */\n      0x00\n        /* \"class/modi/cal.sol\":668:678  msg.sender */\n      caller\n        /* \"class/modi/cal.sol\":660:679  balance[msg.sender] */\n      0xffffffffffffffffffffffffffffffffffffffff\n      and\n      0xffffffffffffffffffffffffffffffffffffffff\n      and\n      dup2\n      mstore\n      0x20\n      add\n      swap1\n      dup2\n      mstore\n      0x20\n      add\n      0x00\n      keccak256\n      0x00\n        /* \"class/modi/cal.sol\":660:687  balance[msg.sender]-=amount */\n      dup3\n      dup3\n      sload\n      sub\n      swap3\n      pop\n      pop\n      dup2\n      swap1\n      sstore\n      pop\n        /* \"class/modi/cal.sol\":711:717  amount */\n      dup1\n        /* \"class/modi/cal.sol\":698:705  balance */\n      0x03\n        /* \"class/modi/cal.sol\":698:709  balance[to] */\n      0x00\n        /* \"class/modi/cal.sol\":706:708  to */\n      dup5\n        /* \"class/modi/cal.sol\":698:709  balance[to] */\n      0xffffffffffffffffffffffffffffffffffffffff\n      and\n      0xffffffffffffffffffffffffffffffffffffffff\n      and\n      dup2\n      mstore\n      0x20\n      add\n      swap1\n      dup2\n      mstore\n      0x20\n      add\n      0x00\n      keccak256\n      0x00\n        /* \"class/modi/cal.sol\":698:717  balance[to]+=amount */\n      dup3\n      dup3\n      sload\n      add\n      swap3\n      pop\n      pop\n      dup2\n      swap1\n      sstore\n      pop\n        /* \"class/modi/cal.sol\":760:766  amount */\n      dup1\n        /* \"class/modi/cal.sol\":748:755  balance */\n      0x03\n        /* \"class/modi/cal.sol\":748:759  balance[to] */\n      0x00\n        /* \"class/modi/cal.sol\":756:758  to */\n      dup5\n        /* \"class/modi/cal.sol\":748:759  balance[to] */\n      0xffffffffffffffffffffffffffffffffffffffff\n      and\n      0xffffffffffffffffffffffffffffffffffffffff\n      and\n      dup2\n      mstore\n      0x20\n      add\n      swap1\n      dup2\n      mstore\n      0x20\n      add\n      0x00\n      keccak256\n      sload\n        /* \"class/modi/cal.sol\":748:766  balance[to]-amount */\n      sub\n        /* \"class/modi/cal.sol\":736:743  balance */\n      0x03\n        /* \"class/modi/cal.sol\":736:747  balance[to] */\n      0x00\n        /* \"class/modi/cal.sol\":744:746  to */\n      dup5\n        /* \"class/modi/cal.sol\":736:747  balance[to] */\n      0xffffffffffffffffffffffffffffffffffffffff\n      and\n      0xffffffffffffffffffffffffffffffffffffffff\n      and\n      dup2\n      mstore\n      0x20\n      add\n      swap1\n      dup2\n      mstore\n      0x20\n      add\n      0x00\n      keccak256\n      sload\n        /* \"class/modi/cal.sol\":736:766  balance[to]>balance[to]-amount */\n      gt\n        /* \"class/modi/cal.sol\":728:767  require(balance[to]>balance[to]-amount) */\n      tag_32\n      jumpi\n      0x00\n      dup1\n      revert\n    tag_32:\n        /* \"class/modi/cal.sol\":456:775  function transfer(address to,uint amount)public{\r... */\n      pop\n      pop\n      jump\t// out\n        /* \"class/modi/cal.sol\":783:983  function isComplete()public returns(uint){\r... */\n    tag_15:\n        /* \"class/modi/cal.sol\":819:823  uint */\n      0x00\n        /* \"class/modi/cal.sol\":841:842  0 */\n      dup1\n        /* \"class/modi/cal.sol\":835:840  score */\n      0x00\n        /* \"class/modi/cal.sol\":835:842  score=0 */\n      dup2\n      swap1\n      sstore\n      pop\n        /* \"class/modi/cal.sol\":877:878  0 */\n      0x00\n        /* \"class/modi/cal.sol\":856:863  balance */\n      0x03\n        /* \"class/modi/cal.sol\":856:875  balance[msg.sender] */\n      0x00\n        /* \"class/modi/cal.sol\":864:874  msg.sender */\n      caller\n        /* \"class/modi/cal.sol\":856:875  balance[msg.sender] */\n      0xffffffffffffffffffffffffffffffffffffffff\n      and\n      0xffffffffffffffffffffffffffffffffffffffff\n      and\n      dup2\n      mstore\n      0x20\n      add\n      swap1\n      dup2\n      mstore\n      0x20\n      add\n      0x00\n      keccak256\n      sload\n        /* \"class/modi/cal.sol\":856:878  balance[msg.sender]!=0 */\n      eq\n        /* \"class/modi/cal.sol\":853:890  if(balance[msg.sender]!=0){score=20;} */\n      tag_34\n      jumpi\n        /* \"class/modi/cal.sol\":886:888  20 */\n      0x14\n        /* \"class/modi/cal.sol\":880:885  score */\n      0x00\n        /* \"class/modi/cal.sol\":880:888  score=20 */\n      dup2\n      swap1\n      sstore\n      pop\n        /* \"class/modi/cal.sol\":853:890  if(balance[msg.sender]!=0){score=20;} */\n    tag_34:\n        /* \"class/modi/cal.sol\":923:940  10000000000000000 */\n      0x2386f26fc10000\n        /* \"class/modi/cal.sol\":903:910  balance */\n      0x03\n        /* \"class/modi/cal.sol\":903:922  balance[msg.sender] */\n      0x00\n        /* \"class/modi/cal.sol\":911:921  msg.sender */\n      caller\n        /* \"class/modi/cal.sol\":903:922  balance[msg.sender] */\n      0xffffffffffffffffffffffffffffffffffffffff\n      and\n      0xffffffffffffffffffffffffffffffffffffffff\n      and\n      dup2\n      mstore\n      0x20\n      add\n      swap1\n      dup2\n      mstore\n      0x20\n      add\n      0x00\n      keccak256\n      sload\n        /* \"class/modi/cal.sol\":903:940  balance[msg.sender]>10000000000000000 */\n      gt\n        /* \"class/modi/cal.sol\":900:953  if(balance[msg.sender]>10000000000000000){score=100;} */\n      iszero\n      tag_35\n      jumpi\n        /* \"class/modi/cal.sol\":948:951  100 */\n      0x64\n        /* \"class/modi/cal.sol\":942:947  score */\n      0x00\n        /* \"class/modi/cal.sol\":942:951  score=100 */\n      dup2\n      swap1\n      sstore\n      pop\n        /* \"class/modi/cal.sol\":900:953  if(balance[msg.sender]>10000000000000000){score=100;} */\n    tag_35:\n        /* \"class/modi/cal.sol\":970:975  score */\n      sload(0x00)\n        /* \"class/modi/cal.sol\":963:975  return score */\n      swap1\n      pop\n        /* \"class/modi/cal.sol\":783:983  function isComplete()public returns(uint){\r... */\n      swap1\n      jump\t// out\n        /* \"class/modi/cal.sol\":181:217  mapping(address=>uint)public balance */\n    tag_19:\n      mstore(0x20, 0x03)\n      dup1\n      0x00\n      mstore\n      keccak256(0x00, 0x40)\n      0x00\n      swap2\n      pop\n      swap1\n      pop\n      sload\n      dup2\n      jump\t// out\n        /* \"class/modi/cal.sol\":103:120  uint public score */\n    tag_22:\n      sload(0x00)\n      dup2\n      jump\t// out\n        /* \"class/modi/cal.sol\":226:309  function mint(address to,uint amount) private{\r... */\n    tag_27:\n        /* \"class/modi/cal.sol\":295:301  amount */\n      dup1\n        /* \"class/modi/cal.sol\":282:289  balance */\n      0x03\n        /* \"class/modi/cal.sol\":282:293  balance[to] */\n      0x00\n        /* \"class/modi/cal.sol\":290:292  to */\n      dup5\n        /* \"class/modi/cal.sol\":282:293  balance[to] */\n      0xffffffffffffffffffffffffffffffffffffffff\n      and\n      0xffffffffffffffffffffffffffffffffffffffff\n      and\n      dup2\n      mstore\n      0x20\n      add\n      swap1\n      dup2\n      mstore\n      0x20\n      add\n      0x00\n      keccak256\n      0x00\n        /* \"class/modi/cal.sol\":282:301  balance[to]+=amount */\n      dup3\n      dup3\n      sload\n      add\n      swap3\n      pop\n      pop\n      dup2\n      swap1\n      sstore\n      pop\n        /* \"class/modi/cal.sol\":226:309  function mint(address to,uint amount) private{\r... */\n      pop\n      pop\n      jump\t// out\n\n    auxdata: 0xa2646970667358221220b78550c3afbde03153d3023495665800a99889df1a1bd9423bfea8bb69b2f9c364736f6c634300060c0033\n}\n",
				"bytecode": {
					"linkReferences": {},
					"object": "608060405234801561001057600080fd5b506105f7806100206000396000f3fe60806040526004361061004a5760003560e01c8063a6f2ae3a1461004f578063a9059cbb14610059578063b2fa1c9e146100b4578063e3d670d7146100df578063efedc66914610144575b600080fd5b61005761016f565b005b34801561006557600080fd5b506100b26004803603604081101561007c57600080fd5b81019080803573ffffffffffffffffffffffffffffffffffffffff16906020019092919080359060200190929190505050610208565b005b3480156100c057600080fd5b506100c961049a565b6040518082815260200191505060405180910390f35b3480156100eb57600080fd5b5061012e6004803603602081101561010257600080fd5b81019080803573ffffffffffffffffffffffffffffffffffffffff169060200190929190505050610552565b6040518082815260200191505060405180910390f35b34801561015057600080fd5b5061015961056a565b6040518082815260200191505060405180910390f35b662386f26fc100003410156101ec576040517f08c379a000000000000000000000000000000000000000000000000000000000815260040180806020018281038252600a8152602001807f7a65726f2076616c75650000000000000000000000000000000000000000000081525060200191505060405180910390fd5b61020633662386f26fc10000348161020057fe5b04610570565b565b600073ffffffffffffffffffffffffffffffffffffffff168273ffffffffffffffffffffffffffffffffffffffff1614156102ab576040517f08c379a000000000000000000000000000000000000000000000000000000000815260040180806020018281038252600f8152602001807f696e76616c69642061646472657373000000000000000000000000000000000081525060200191505060405180910390fd5b60008111610321576040517f08c379a000000000000000000000000000000000000000000000000000000000815260040180806020018281038252600e8152602001807f696e76616c696420616d6f756e7400000000000000000000000000000000000081525060200191505060405180910390fd5b600081600360003373ffffffffffffffffffffffffffffffffffffffff1673ffffffffffffffffffffffffffffffffffffffff1681526020019081526020016000205403101561037057600080fd5b80600360003373ffffffffffffffffffffffffffffffffffffffff1673ffffffffffffffffffffffffffffffffffffffff1681526020019081526020016000206000828254039250508190555080600360008473ffffffffffffffffffffffffffffffffffffffff1673ffffffffffffffffffffffffffffffffffffffff1681526020019081526020016000206000828254019250508190555080600360008473ffffffffffffffffffffffffffffffffffffffff1673ffffffffffffffffffffffffffffffffffffffff1681526020019081526020016000205403600360008473ffffffffffffffffffffffffffffffffffffffff1673ffffffffffffffffffffffffffffffffffffffff168152602001908152602001600020541161049657600080fd5b5050565b6000806000819055506000600360003373ffffffffffffffffffffffffffffffffffffffff1673ffffffffffffffffffffffffffffffffffffffff16815260200190815260200160002054146104f35760146000819055505b662386f26fc10000600360003373ffffffffffffffffffffffffffffffffffffffff1673ffffffffffffffffffffffffffffffffffffffff16815260200190815260200160002054111561054a5760646000819055505b600054905090565b60036020528060005260406000206000915090505481565b60005481565b80600360008473ffffffffffffffffffffffffffffffffffffffff1673ffffffffffffffffffffffffffffffffffffffff16815260200190815260200160002060008282540192505081905550505056fea2646970667358221220b78550c3afbde03153d3023495665800a99889df1a1bd9423bfea8bb69b2f9c364736f6c634300060c0033",
					"opcodes": "PUSH1 0x80 PUSH1 0x40 MSTORE CALLVALUE DUP1 ISZERO PUSH2 0x10 JUMPI PUSH1 0x0 DUP1 REVERT JUMPDEST POP PUSH2 0x5F7 DUP1 PUSH2 0x20 PUSH1 0x0 CODECOPY PUSH1 0x0 RETURN INVALID PUSH1 0x80 PUSH1 0x40 MSTORE PUSH1 0x4 CALLDATASIZE LT PUSH2 0x4A JUMPI PUSH1 0x0 CALLDATALOAD PUSH1 0xE0 SHR DUP1 PUSH4 0xA6F2AE3A EQ PUSH2 0x4F JUMPI DUP1 PUSH4 0xA9059CBB EQ PUSH2 0x59 JUMPI DUP1 PUSH4 0xB2FA1C9E EQ PUSH2 0xB4 JUMPI DUP1 PUSH4 0xE3D670D7 EQ PUSH2 0xDF JUMPI DUP1 PUSH4 0xEFEDC669 EQ PUSH2 0x144 JUMPI JUMPDEST PUSH1 0x0 DUP1 REVERT JUMPDEST PUSH2 0x57 PUSH2 0x16F JUMP JUMPDEST STOP JUMPDEST CALLVALUE DUP1 ISZERO PUSH2 0x65 JUMPI PUSH1 0x0 DUP1 REVERT JUMPDEST POP PUSH2 0xB2 PUSH1 0x4 DUP1 CALLDATASIZE SUB PUSH1 0x40 DUP2 LT ISZERO PUSH2 0x7C JUMPI PUSH1 0x0 DUP1 REVERT JUMPDEST DUP2 ADD SWAP1 DUP1 DUP1 CALLDATALOAD PUSH20 0xFFFFFFFFFFFFFFFFFFFFFFFFFFFFFFFFFFFFFFFF AND SWAP1 PUSH1 0x20 ADD SWAP1 SWAP3 SWAP2 SWAP1 DUP1 CALLDATALOAD SWAP1 PUSH1 0x20 ADD SWAP1 SWAP3 SWAP2 SWAP1 POP POP POP PUSH2 0x208 JUMP JUMPDEST STOP JUMPDEST CALLVALUE DUP1 ISZERO PUSH2 0xC0 JUMPI PUSH1 0x0 DUP1 REVERT JUMPDEST POP PUSH2 0xC9 PUSH2 0x49A JUMP JUMPDEST PUSH1 0x40 MLOAD DUP1 DUP3 DUP2 MSTORE PUSH1 0x20 ADD SWAP2 POP POP PUSH1 0x40 MLOAD DUP1 SWAP2 SUB SWAP1 RETURN JUMPDEST CALLVALUE DUP1 ISZERO PUSH2 0xEB JUMPI PUSH1 0x0 DUP1 REVERT JUMPDEST POP PUSH2 0x12E PUSH1 0x4 DUP1 CALLDATASIZE SUB PUSH1 0x20 DUP2 LT ISZERO PUSH2 0x102 JUMPI PUSH1 0x0 DUP1 REVERT JUMPDEST DUP2 ADD SWAP1 DUP1 DUP1 CALLDATALOAD PUSH20 0xFFFFFFFFFFFFFFFFFFFFFFFFFFFFFFFFFFFFFFFF AND SWAP1 PUSH1 0x20 ADD SWAP1 SWAP3 SWAP2 SWAP1 POP POP POP PUSH2 0x552 JUMP JUMPDEST PUSH1 0x40 MLOAD DUP1 DUP3 DUP2 MSTORE PUSH1 0x20 ADD SWAP2 POP POP PUSH1 0x40 MLOAD DUP1 SWAP2 SUB SWAP1 RETURN JUMPDEST CALLVALUE DUP1 ISZERO PUSH2 0x150 JUMPI PUSH1 0x0 DUP1 REVERT JUMPDEST POP PUSH2 0x159 PUSH2 0x56A JUMP JUMPDEST PUSH1 0x40 MLOAD DUP1 DUP3 DUP2 MSTORE PUSH1 0x20 ADD SWAP2 POP POP PUSH1 0x40 MLOAD DUP1 SWAP2 SUB SWAP1 RETURN JUMPDEST PUSH7 0x2386F26FC10000 CALLVALUE LT ISZERO PUSH2 0x1EC JUMPI PUSH1 0x40 MLOAD PUSH32 0x8C379A000000000000000000000000000000000000000000000000000000000 DUP2 MSTORE PUSH1 0x4 ADD DUP1 DUP1 PUSH1 0x20 ADD DUP3 DUP2 SUB DUP3 MSTORE PUSH1 0xA DUP2 MSTORE PUSH1 0x20 ADD DUP1 PUSH32 0x7A65726F2076616C756500000000000000000000000000000000000000000000 DUP2 MSTORE POP PUSH1 0x20 ADD SWAP2 POP POP PUSH1 0x40 MLOAD DUP1 SWAP2 SUB SWAP1 REVERT JUMPDEST PUSH2 0x206 CALLER PUSH7 0x2386F26FC10000 CALLVALUE DUP2 PUSH2 0x200 JUMPI INVALID JUMPDEST DIV PUSH2 0x570 JUMP JUMPDEST JUMP JUMPDEST PUSH1 0x0 PUSH20 0xFFFFFFFFFFFFFFFFFFFFFFFFFFFFFFFFFFFFFFFF AND DUP3 PUSH20 0xFFFFFFFFFFFFFFFFFFFFFFFFFFFFFFFFFFFFFFFF AND EQ ISZERO PUSH2 0x2AB JUMPI PUSH1 0x40 MLOAD PUSH32 0x8C379A000000000000000000000000000000000000000000000000000000000 DUP2 MSTORE PUSH1 0x4 ADD DUP1 DUP1 PUSH1 0x20 ADD DUP3 DUP2 SUB DUP3 MSTORE PUSH1 0xF DUP2 MSTORE PUSH1 0x20 ADD DUP1 PUSH32 0x696E76616C696420616464726573730000000000000000000000000000000000 DUP2 MSTORE POP PUSH1 0x20 ADD SWAP2 POP POP PUSH1 0x40 MLOAD DUP1 SWAP2 SUB SWAP1 REVERT JUMPDEST PUSH1 0x0 DUP2 GT PUSH2 0x321 JUMPI PUSH1 0x40 MLOAD PUSH32 0x8C379A000000000000000000000000000000000000000000000000000000000 DUP2 MSTORE PUSH1 0x4 ADD DUP1 DUP1 PUSH1 0x20 ADD DUP3 DUP2 SUB DUP3 MSTORE PUSH1 0xE DUP2 MSTORE PUSH1 0x20 ADD DUP1 PUSH32 0x696E76616C696420616D6F756E74000000000000000000000000000000000000 DUP2 MSTORE POP PUSH1 0x20 ADD SWAP2 POP POP PUSH1 0x40 MLOAD DUP1 SWAP2 SUB SWAP1 REVERT JUMPDEST PUSH1 0x0 DUP2 PUSH1 0x3 PUSH1 0x0 CALLER PUSH20 0xFFFFFFFFFFFFFFFFFFFFFFFFFFFFFFFFFFFFFFFF AND PUSH20 0xFFFFFFFFFFFFFFFFFFFFFFFFFFFFFFFFFFFFFFFF AND DUP2 MSTORE PUSH1 0x20 ADD SWAP1 DUP2 MSTORE PUSH1 0x20 ADD PUSH1 0x0 KECCAK256 SLOAD SUB LT ISZERO PUSH2 0x370 JUMPI PUSH1 0x0 DUP1 REVERT JUMPDEST DUP1 PUSH1 0x3 PUSH1 0x0 CALLER PUSH20 0xFFFFFFFFFFFFFFFFFFFFFFFFFFFFFFFFFFFFFFFF AND PUSH20 0xFFFFFFFFFFFFFFFFFFFFFFFFFFFFFFFFFFFFFFFF AND DUP2 MSTORE PUSH1 0x20 ADD SWAP1 DUP2 MSTORE PUSH1 0x20 ADD PUSH1 0x0 KECCAK256 PUSH1 0x0 DUP3 DUP3 SLOAD SUB SWAP3 POP POP DUP2 SWAP1 SSTORE POP DUP1 PUSH1 0x3 PUSH1 0x0 DUP5 PUSH20 0xFFFFFFFFFFFFFFFFFFFFFFFFFFFFFFFFFFFFFFFF AND PUSH20 0xFFFFFFFFFFFFFFFFFFFFFFFFFFFFFFFFFFFFFFFF AND DUP2 MSTORE PUSH1 0x20 ADD SWAP1 DUP2 MSTORE PUSH1 0x20 ADD PUSH1 0x0 KECCAK256 PUSH1 0x0 DUP3 DUP3 SLOAD ADD SWAP3 POP POP DUP2 SWAP1 SSTORE POP DUP1 PUSH1 0x3 PUSH1 0x0 DUP5 PUSH20 0xFFFFFFFFFFFFFFFFFFFFFFFFFFFFFFFFFFFFFFFF AND PUSH20 0xFFFFFFFFFFFFFFFFFFFFFFFFFFFFFFFFFFFFFFFF AND DUP2 MSTORE PUSH1 0x20 ADD SWAP1 DUP2 MSTORE PUSH1 0x20 ADD PUSH1 0x0 KECCAK256 SLOAD SUB PUSH1 0x3 PUSH1 0x0 DUP5 PUSH20 0xFFFFFFFFFFFFFFFFFFFFFFFFFFFFFFFFFFFFFFFF AND PUSH20 0xFFFFFFFFFFFFFFFFFFFFFFFFFFFFFFFFFFFFFFFF AND DUP2 MSTORE PUSH1 0x20 ADD SWAP1 DUP2 MSTORE PUSH1 0x20 ADD PUSH1 0x0 KECCAK256 SLOAD GT PUSH2 0x496 JUMPI PUSH1 0x0 DUP1 REVERT JUMPDEST POP POP JUMP JUMPDEST PUSH1 0x0 DUP1 PUSH1 0x0 DUP2 SWAP1 SSTORE POP PUSH1 0x0 PUSH1 0x3 PUSH1 0x0 CALLER PUSH20 0xFFFFFFFFFFFFFFFFFFFFFFFFFFFFFFFFFFFFFFFF AND PUSH20 0xFFFFFFFFFFFFFFFFFFFFFFFFFFFFFFFFFFFFFFFF AND DUP2 MSTORE PUSH1 0x20 ADD SWAP1 DUP2 MSTORE PUSH1 0x20 ADD PUSH1 0x0 KECCAK256 SLOAD EQ PUSH2 0x4F3 JUMPI PUSH1 0x14 PUSH1 0x0 DUP2 SWAP1 SSTORE POP JUMPDEST PUSH7 0x2386F26FC10000 PUSH1 0x3 PUSH1 0x0 CALLER PUSH20 0xFFFFFFFFFFFFFFFFFFFFFFFFFFFFFFFFFFFFFFFF AND PUSH20 0xFFFFFFFFFFFFFFFFFFFFFFFFFFFFFFFFFFFFFFFF AND DUP2 MSTORE PUSH1 0x20 ADD SWAP1 DUP2 MSTORE PUSH1 0x20 ADD PUSH1 0x0 KECCAK256 SLOAD GT ISZERO PUSH2 0x54A JUMPI PUSH1 0x64 PUSH1 0x0 DUP2 SWAP1 SSTORE POP JUMPDEST PUSH1 0x0 SLOAD SWAP1 POP SWAP1 JUMP JUMPDEST PUSH1 0x3 PUSH1 0x20 MSTORE DUP1 PUSH1 0x0 MSTORE PUSH1 0x40 PUSH1 0x0 KECCAK256 PUSH1 0x0 SWAP2 POP SWAP1 POP SLOAD DUP2 JUMP JUMPDEST PUSH1 0x0 SLOAD DUP2 JUMP JUMPDEST DUP1 PUSH1 0x3 PUSH1 0x0 DUP5 PUSH20 0xFFFFFFFFFFFFFFFFFFFFFFFFFFFFFFFFFFFFFFFF AND PUSH20 0xFFFFFFFFFFFFFFFFFFFFFFFFFFFFFFFFFFFFFFFF AND DUP2 MSTORE PUSH1 0x20 ADD SWAP1 DUP2 MSTORE PUSH1 0x20 ADD PUSH1 0x0 KECCAK256 PUSH1 0x0 DUP3 DUP3 SLOAD ADD SWAP3 POP POP DUP2 SWAP1 SSTORE POP POP POP JUMP INVALID LOG2 PUSH5 0x6970667358 0x22 SLT KECCAK256 0xB7 DUP6 POP 0xC3 0xAF 0xBD 0xE0 BALANCE MSTORE8 0xD3 MUL CALLVALUE SWAP6 PUSH7 0x5800A99889DF1A SHL 0xD9 TIMESTAMP EXTCODESIZE INVALID 0xA8 0xBB PUSH10 0xB2F9C364736F6C634300 MOD 0xC STOP CALLER "
				},
				"gasEstimates": {
					"creation": {
						"codeDepositCost": "305400",
						"executionCost": "343",
						"totalCost": "305743"
					},
					"external": {
						"balance(address)": "1213",
						"buy()": "21103",
						"isComplete()": "32904",
						"score()": "1071",
						"transfer(address,uint256)": "44899"
					},
					"internal": {
						"mint(address,uint256)": "20942"
					}
				},
				"methodIdentifiers": {
					"balance(address)": "e3d670d7",
					"buy()": "a6f2ae3a",
					"isComplete()": "b2fa1c9e",
					"score()": "efedc669",
					"transfer(address,uint256)": "a9059cbb"
				}
			},
			"storageLayout": {
				"storage": [
					{
						"astId": 3,
						"contract": "class/modi/cal.sol:Cal",
						"label": "score",
						"offset": 0,
						"slot": "0",
						"type": "t_uint256"
					},
					{
						"astId": 5,
						"contract": "class/modi/cal.sol:Cal",
						"label": "name",
						"offset": 0,
						"slot": "1",
						"type": "t_string_storage"
					},
					{
						"astId": 7,
						"contract": "class/modi/cal.sol:Cal",
						"label": "symbol",
						"offset": 0,
						"slot": "2",
						"type": "t_string_storage"
					},
					{
						"astId": 11,
						"contract": "class/modi/cal.sol:Cal",
						"label": "balance",
						"offset": 0,
						"slot": "3",
						"type": "t_mapping(t_address,t_uint256)"
					}
				],
				"types": {
					"t_address": {
						"encoding": "inplace",
						"label": "address",
						"numberOfBytes": "20"
					},
					"t_mapping(t_address,t_uint256)": {
						"encoding": "mapping",
						"key": "t_address",
						"label": "mapping(address => uint256)",
						"numberOfBytes": "32",
						"value": "t_uint256"
					},
					"t_string_storage": {
						"encoding": "bytes",
						"label": "string",
						"numberOfBytes": "32"
					},
					"t_uint256": {
						"encoding": "inplace",
						"label": "uint256",
						"numberOfBytes": "32"
					}
				}
			},
			"userdoc": {
				"kind": "user",
				"methods": {},
				"version": 1
			}
		}
	}
}