{
	"data": {
		"bytecode": {
			"linkReferences": {},
			"object": "608060405260056000557f3132000000000000000000000000000000000000000000000000000000000000600160006101000a81548161ffff021916908360f01c021790555034801561005157600080fd5b50610312806100616000396000f3fe608060405234801561001057600080fd5b50600436106100575760003560e01c80630f155b121461005c578063764eefbc146100a2578063b392313b14610105578063e37256d41461016c578063efedc669146101b2575b600080fd5b6100886004803603602081101561007257600080fd5b81019080803590602001909291905050506101d0565b604051808215151515815260200191505060405180910390f35b610103600480360360608110156100b857600080fd5b81019080803590602001909291908035906020019092919080357dffffffffffffffffffffffffffffffffffffffffffffffffffffffffffff191690602001909291905050506101fb565b005b6101526004803603602081101561011b57600080fd5b8101908080357dffffffffffffffffffffffffffffffffffffffffffffffffffffffffffff19169060200190929190505050610268565b604051808215151515815260200191505060405180910390f35b6101986004803603602081101561018257600080fd5b81019080803590602001909291905050506102c5565b604051808215151515815260200191505060405180910390f35b6101ba6102d7565b6040518082815260200191505060405180910390f35b6000806002600054816101df57fe5b046002600054816101ec57fe5b04019050828114915050919050565b600060028190555061020c836101d0565b156102235760196002600082825401925050819055505b61022c826102c5565b156102435760196002600082825401925050819055505b61024c81610268565b156102635760326002600082825401925050819055505b505050565b6000817dffffffffffffffffffffffffffffffffffffffffffffffffffffffffffff1916600160009054906101000a900460f01b7dffffffffffffffffffffffffffffffffffffffffffffffffffffffffffff1916149050919050565b60008060059050828114915050919050565b6002548156fea265627a7a723158204b141bc667953d1fddd892f0d5316a58afddf1abe4319650465e1a430323a98564736f6c63430005110032",
			"opcodes": "PUSH1 0x80 PUSH1 0x40 MSTORE PUSH1 0x5 PUSH1 0x0 SSTORE PUSH32 0x3132000000000000000000000000000000000000000000000000000000000000 PUSH1 0x1 PUSH1 0x0 PUSH2 0x100 EXP DUP2 SLOAD DUP2 PUSH2 0xFFFF MUL NOT AND SWAP1 DUP4 PUSH1 0xF0 SHR MUL OR SWAP1 SSTORE POP CALLVALUE DUP1 ISZERO PUSH2 0x51 JUMPI PUSH1 0x0 DUP1 REVERT JUMPDEST POP PUSH2 0x312 DUP1 PUSH2 0x61 PUSH1 0x0 CODECOPY PUSH1 0x0 RETURN INVALID PUSH1 0x80 PUSH1 0x40 MSTORE CALLVALUE DUP1 ISZERO PUSH2 0x10 JUMPI PUSH1 0x0 DUP1 REVERT JUMPDEST POP PUSH1 0x4 CALLDATASIZE LT PUSH2 0x57 JUMPI PUSH1 0x0 CALLDATALOAD PUSH1 0xE0 SHR DUP1 PUSH4 0xF155B12 EQ PUSH2 0x5C JUMPI DUP1 PUSH4 0x764EEFBC EQ PUSH2 0xA2 JUMPI DUP1 PUSH4 0xB392313B EQ PUSH2 0x105 JUMPI DUP1 PUSH4 0xE37256D4 EQ PUSH2 0x16C JUMPI DUP1 PUSH4 0xEFEDC669 EQ PUSH2 0x1B2 JUMPI JUMPDEST PUSH1 0x0 DUP1 REVERT JUMPDEST PUSH2 0x88 PUSH1 0x4 DUP1 CALLDATASIZE SUB PUSH1 0x20 DUP2 LT ISZERO PUSH2 0x72 JUMPI PUSH1 0x0 DUP1 REVERT JUMPDEST DUP2 ADD SWAP1 DUP1 DUP1 CALLDATALOAD SWAP1 PUSH1 0x20 ADD SWAP1 SWAP3 SWAP2 SWAP1 POP POP POP PUSH2 0x1D0 JUMP JUMPDEST PUSH1 0x40 MLOAD DUP1 DUP3 ISZERO ISZERO ISZERO ISZERO DUP2 MSTORE PUSH1 0x20 ADD SWAP2 POP POP PUSH1 0x40 MLOAD DUP1 SWAP2 SUB SWAP1 RETURN JUMPDEST PUSH2 0x103 PUSH1 0x4 DUP1 CALLDATASIZE SUB PUSH1 0x60 DUP2 LT ISZERO PUSH2 0xB8 JUMPI PUSH1 0x0 DUP1 REVERT JUMPDEST DUP2 ADD SWAP1 DUP1 DUP1 CALLDATALOAD SWAP1 PUSH1 0x20 ADD SWAP1 SWAP3 SWAP2 SWAP1 DUP1 CALLDATALOAD SWAP1 PUSH1 0x20 ADD SWAP1 SWAP3 SWAP2 SWAP1 DUP1 CALLDATALOAD PUSH30 0xFFFFFFFFFFFFFFFFFFFFFFFFFFFFFFFFFFFFFFFFFFFFFFFFFFFFFFFFFFFF NOT AND SWAP1 PUSH1 0x20 ADD SWAP1 SWAP3 SWAP2 SWAP1 POP POP POP PUSH2 0x1FB JUMP JUMPDEST STOP JUMPDEST PUSH2 0x152 PUSH1 0x4 DUP1 CALLDATASIZE SUB PUSH1 0x20 DUP2 LT ISZERO PUSH2 0x11B JUMPI PUSH1 0x0 DUP1 REVERT JUMPDEST DUP2 ADD SWAP1 DUP1 DUP1 CALLDATALOAD PUSH30 0xFFFFFFFFFFFFFFFFFFFFFFFFFFFFFFFFFFFFFFFFFFFFFFFFFFFFFFFFFFFF NOT AND SWAP1 PUSH1 0x20 ADD SWAP1 SWAP3 SWAP2 SWAP1 POP POP POP PUSH2 0x268 JUMP JUMPDEST PUSH1 0x40 MLOAD DUP1 DUP3 ISZERO ISZERO ISZERO ISZERO DUP2 MSTORE PUSH1 0x20 ADD SWAP2 POP POP PUSH1 0x40 MLOAD DUP1 SWAP2 SUB SWAP1 RETURN JUMPDEST PUSH2 0x198 PUSH1 0x4 DUP1 CALLDATASIZE SUB PUSH1 0x20 DUP2 LT ISZERO PUSH2 0x182 JUMPI PUSH1 0x0 DUP1 REVERT JUMPDEST DUP2 ADD SWAP1 DUP1 DUP1 CALLDATALOAD SWAP1 PUSH1 0x20 ADD SWAP1 SWAP3 SWAP2 SWAP1 POP POP POP PUSH2 0x2C5 JUMP JUMPDEST PUSH1 0x40 MLOAD DUP1 DUP3 ISZERO ISZERO ISZERO ISZERO DUP2 MSTORE PUSH1 0x20 ADD SWAP2 POP POP PUSH1 0x40 MLOAD DUP1 SWAP2 SUB SWAP1 RETURN JUMPDEST PUSH2 0x1BA PUSH2 0x2D7 JUMP JUMPDEST PUSH1 0x40 MLOAD DUP1 DUP3 DUP2 MSTORE PUSH1 0x20 ADD SWAP2 POP POP PUSH1 0x40 MLOAD DUP1 SWAP2 SUB SWAP1 RETURN JUMPDEST PUSH1 0x0 DUP1 PUSH1 0x2 PUSH1 0x0 SLOAD DUP2 PUSH2 0x1DF JUMPI INVALID JUMPDEST DIV PUSH1 0x2 PUSH1 0x0 SLOAD DUP2 PUSH2 0x1EC JUMPI INVALID JUMPDEST DIV ADD SWAP1 POP DUP3 DUP2 EQ SWAP2 POP POP SWAP2 SWAP1 POP JUMP JUMPDEST PUSH1 0x0 PUSH1 0x2 DUP2 SWAP1 SSTORE POP PUSH2 0x20C DUP4 PUSH2 0x1D0 JUMP JUMPDEST ISZERO PUSH2 0x223 JUMPI PUSH1 0x19 PUSH1 0x2 PUSH1 0x0 DUP3 DUP3 SLOAD ADD SWAP3 POP POP DUP2 SWAP1 SSTORE POP JUMPDEST PUSH2 0x22C DUP3 PUSH2 0x2C5 JUMP JUMPDEST ISZERO PUSH2 0x243 JUMPI PUSH1 0x19 PUSH1 0x2 PUSH1 0x0 DUP3 DUP3 SLOAD ADD SWAP3 POP POP DUP2 SWAP1 SSTORE POP JUMPDEST PUSH2 0x24C DUP2 PUSH2 0x268 JUMP JUMPDEST ISZERO PUSH2 0x263 JUMPI PUSH1 0x32 PUSH1 0x2 PUSH1 0x0 DUP3 DUP3 SLOAD ADD SWAP3 POP POP DUP2 SWAP1 SSTORE POP JUMPDEST POP POP POP JUMP JUMPDEST PUSH1 0x0 DUP2 PUSH30 0xFFFFFFFFFFFFFFFFFFFFFFFFFFFFFFFFFFFFFFFFFFFFFFFFFFFFFFFFFFFF NOT AND PUSH1 0x1 PUSH1 0x0 SWAP1 SLOAD SWAP1 PUSH2 0x100 EXP SWAP1 DIV PUSH1 0xF0 SHL PUSH30 0xFFFFFFFFFFFFFFFFFFFFFFFFFFFFFFFFFFFFFFFFFFFFFFFFFFFFFFFFFFFF NOT AND EQ SWAP1 POP SWAP2 SWAP1 POP JUMP JUMPDEST PUSH1 0x0 DUP1 PUSH1 0x5 SWAP1 POP DUP3 DUP2 EQ SWAP2 POP POP SWAP2 SWAP1 POP JUMP JUMPDEST PUSH1 0x2 SLOAD DUP2 JUMP INVALID LOG2 PUSH6 0x627A7A723158 KECCAK256 0x4B EQ SHL 0xC6 PUSH8 0x953D1FDDD892F0D5 BALANCE PUSH11 0x58AFDDF1ABE4319650465E BYTE NUMBER SUB 0x23 0xA9 DUP6 PUSH5 0x736F6C6343 STOP SDIV GT STOP ORIGIN "
		},
		"gasEstimates": {
			"creation": {
				"codeDepositCost": "157200",
				"executionCost": "41075",
				"totalCost": "198275"
			},
			"external": {
				"check_bytes2(bytes2)": "1203",
				"check_const(uint256)": "375",
				"check_var(uint256)": "1965",
				"isCompleted(uint256,uint256,bytes2)": "40551",
				"score()": "1071"
			}
		},
		"methodIdentifiers": {
			"check_bytes2(bytes2)": "b392313b",
			"check_const(uint256)": "e37256d4",
			"check_var(uint256)": "0f155b12",
			"isCompleted(uint256,uint256,bytes2)": "764eefbc",
			"score()": "efedc669"
		}
	},
	"abi": [
		{
			"constant": true,
			"inputs": [
				{
					"internalType": "bytes2",
					"name": "_b",
					"type": "bytes2"
				}
			],
			"name": "check_bytes2",
			"outputs": [
				{
					"internalType": "bool",
					"name": "",
					"type": "bool"
				}
			],
			"payable": false,
			"stateMutability": "view",
			"type": "function"
		},
		{
			"constant": true,
			"inputs": [
				{
					"internalType": "uint256",
					"name": "_a",
					"type": "uint256"
				}
			],
			"name": "check_const",
			"outputs": [
				{
					"internalType": "bool",
					"name": "",
					"type": "bool"
				}
			],
			"payable": false,
			"stateMutability": "view",
			"type": "function"
		},
		{
			"constant": true,
			"inputs": [
				{
					"internalType": "uint256",
					"name": "_a",
					"type": "uint256"
				}
			],
			"name": "check_var",
			"outputs": [
				{
					"internalType": "bool",
					"name": "",
					"type": "bool"
				}
			],
			"payable": false,
			"stateMutability": "view",
			"type": "function"
		},
		{
			"constant": false,
			"inputs": [
				{
					"internalType": "uint256",
					"name": "_a",
					"type": "uint256"
				},
				{
					"internalType": "uint256",
					"name": "_a2",
					"type": "uint256"
				},
				{
					"internalType": "bytes2",
					"name": "_b",
					"type": "bytes2"
				}
			],
			"name": "isCompleted",
			"outputs": [],
			"payable": false,
			"stateMutability": "nonpayable",
			"type": "function"
		},
		{
			"constant": true,
			"inputs": [],
			"name": "score",
			"outputs": [
				{
					"internalType": "uint256",
					"name": "",
					"type": "uint256"
				}
			],
			"payable": false,
			"stateMutability": "view",
			"type": "function"
		}
	]
}